{
  "_format": "hh-sol-artifact-1",
  "contractName": "ChainlinkPriceFeedIntegration",
  "sourceName": "contracts/ChainlinkPriceFeedIntegration.sol",
  "abi": [
    {
      "inputs": [],
      "stateMutability": "nonpayable",
      "type": "constructor"
    },
    {
      "inputs": [
        {
          "internalType": "address",
          "name": "sender",
          "type": "address"
        }
      ],
      "name": "Forbidden",
      "type": "error"
    },
    {
      "inputs": [
        {
          "internalType": "address",
          "name": "token",
          "type": "address"
        }
      ],
      "name": "InvalidFeed",
      "type": "error"
    },
    {
      "anonymous": false,
      "inputs": [
        {
          "indexed": false,
          "internalType": "address",
          "name": "manager",
          "type": "address"
        }
      ],
      "name": "SetManager",
      "type": "event"
    },
    {
      "anonymous": false,
      "inputs": [
        {
          "indexed": false,
          "internalType": "address",
          "name": "token",
          "type": "address"
        },
        {
          "indexed": false,
          "internalType": "address",
          "name": "feed",
          "type": "address"
        }
      ],
      "name": "SetPriceFeed",
      "type": "event"
    },
    {
      "inputs": [],
      "name": "PRECISION",
      "outputs": [
        {
          "internalType": "uint256",
          "name": "",
          "type": "uint256"
        }
      ],
      "stateMutability": "view",
      "type": "function"
    },
    {
      "inputs": [
        {
          "internalType": "address",
          "name": "_baseToken",
          "type": "address"
        },
        {
          "internalType": "address",
          "name": "_quoteToken",
          "type": "address"
        }
      ],
      "name": "getPrice",
      "outputs": [
        {
          "internalType": "uint256",
          "name": "price",
          "type": "uint256"
        }
      ],
      "stateMutability": "view",
      "type": "function"
    },
    {
      "inputs": [],
      "name": "manager",
      "outputs": [
        {
          "internalType": "address",
          "name": "",
          "type": "address"
        }
      ],
      "stateMutability": "view",
      "type": "function"
    },
    {
      "inputs": [
        {
          "internalType": "address",
          "name": "_manager",
          "type": "address"
        }
      ],
      "name": "setManager",
      "outputs": [],
      "stateMutability": "nonpayable",
      "type": "function"
    },
    {
      "inputs": [
        {
          "internalType": "address",
          "name": "_token",
          "type": "address"
        },
        {
          "internalType": "address",
          "name": "_feed",
          "type": "address"
        }
      ],
      "name": "setPriceFeed",
      "outputs": [],
      "stateMutability": "nonpayable",
      "type": "function"
    }
  ],
  "bytecode": "0x608060405234801561001057600080fd5b50600080546001600160a01b03191633179055610409806100326000396000f3fe608060405234801561001057600080fd5b50600436106100575760003560e01c8063481c6a751461005c57806376e112861461008c578063aaf5eb68146100a1578063ac41865a146100ba578063d0ebdbe7146100cd575b600080fd5b60005461006f906001600160a01b031681565b6040516001600160a01b0390911681526020015b60405180910390f35b61009f61009a366004610338565b6100e0565b005b6100ac6305f5e10081565b604051908152602001610083565b6100ac6100c8366004610338565b61017d565b61009f6100db36600461031d565b6101c2565b6000546001600160a01b031633146101125760405163a59d7f4d60e01b81523360048201526024015b60405180910390fd5b6001600160a01b0382811660008181526001602090815260409182902080546001600160a01b031916948616948517905581519283528201929092527fc02f01e22efc017c1c952d0eef1a8fc038571f14ea5a285d79d1d7ba87d8b001910160405180910390a15050565b60008061018984610243565b905080156101bb57600061019c84610243565b9050816101ad6305f5e100836103a6565b6101b79190610384565b9250505b5092915050565b6000546001600160a01b031633146101ef5760405163a59d7f4d60e01b8152336004820152602401610109565b600080546001600160a01b0319166001600160a01b0383169081179091556040519081527f54a6385aa0292b04e1ef8513253c17d1863f7cdfc87029d77fd55cc4c2e717e29060200160405180910390a150565b6001600160a01b038082166000908152600160205260408120549091168061028957604051636787b55560e01b81526001600160a01b0384166004820152602401610109565b806001600160a01b03166350d25bcd6040518163ffffffff1660e01b815260040160206040518083038186803b1580156102c257600080fd5b505afa1580156102d6573d6000803e3d6000fd5b505050506040513d601f19601f820116820180604052508101906102fa919061036b565b9392505050565b80356001600160a01b038116811461031857600080fd5b919050565b60006020828403121561032f57600080fd5b6102fa82610301565b6000806040838503121561034b57600080fd5b61035483610301565b915061036260208401610301565b90509250929050565b60006020828403121561037d57600080fd5b5051919050565b6000826103a157634e487b7160e01b600052601260045260246000fd5b500490565b60008160001904831182151516156103ce57634e487b7160e01b600052601160045260246000fd5b50029056fea2646970667358221220a846966990b3a5fbb52cb72805213de5145a43360fcb3e461329acfd1c939eae64736f6c63430008070033",
  "linkReferences": {},
  "deployedLinkReferences": {}
}