{"contracts/Pool.sol":{"Pool":{"abi":[{"inputs":[{"internalType":"uint256","name":"length0","type":"uint256"},{"internalType":"uint256","name":"length1","type":"uint256"}],"name":"BadLengths","type":"error"},{"inputs":[{"internalType":"address","name":"to","type":"address"},{"internalType":"uint256","name":"value","type":"uint256"}],"name":"EthTransferFailed","type":"error"},{"inputs":[{"internalType":"address","name":"sender","type":"address"}],"name":"Forbidden","type":"error"},{"inputs":[],"name":"InitializedAlready","type":"error"},{"inputs":[{"internalType":"uint256","name":"amount","type":"uint256"},{"internalType":"uint256","name":"neededAmount","type":"uint256"}],"name":"InsufficientCollateral","type":"error"},{"inputs":[],"name":"InsufficientInput","type":"error"},{"inputs":[],"name":"InsufficientOutput","type":"error"},{"inputs":[],"name":"InvalidParameters","type":"error"},{"inputs":[],"name":"Locked","type":"error"},{"inputs":[{"internalType":"address","name":"token","type":"address"},{"internalType":"address","name":"to","type":"address"},{"internalType":"uint256","name":"value","type":"uint256"}],"name":"TransferFailed","type":"error"},{"inputs":[{"internalType":"address","name":"token","type":"address"},{"internalType":"address","name":"quoteToken","type":"address"}],"name":"WrongPool","type":"error"},{"inputs":[],"name":"ZeroValue","type":"error"},{"anonymous":false,"inputs":[{"indexed":true,"internalType":"address","name":"sender","type":"address"},{"indexed":true,"internalType":"address","name":"to","type":"address"},{"indexed":false,"internalType":"uint256","name":"liquidity","type":"uint256"}],"name":"Burn","type":"event"},{"anonymous":false,"inputs":[{"indexed":true,"internalType":"address","name":"sender","type":"address"},{"indexed":true,"internalType":"address","name":"owner","type":"address"},{"indexed":true,"internalType":"bytes32","name":"positionKey","type":"bytes32"}],"name":"Close","type":"event"},{"anonymous":false,"inputs":[{"indexed":true,"internalType":"address","name":"sender","type":"address"},{"indexed":true,"internalType":"address","name":"to","type":"address"},{"indexed":false,"internalType":"uint256","name":"amount","type":"uint256"}],"name":"Collect","type":"event"},{"anonymous":false,"inputs":[{"indexed":true,"internalType":"address","name":"sender","type":"address"},{"indexed":true,"internalType":"address","name":"to","type":"address"},{"indexed":false,"internalType":"uint256","name":"liquidity","type":"uint256"}],"name":"Mint","type":"event"},{"anonymous":false,"inputs":[{"indexed":true,"internalType":"address","name":"sender","type":"address"},{"indexed":true,"internalType":"address","name":"owner","type":"address"},{"indexed":true,"internalType":"bytes32","name":"positionKey","type":"bytes32"}],"name":"Open","type":"event"},{"anonymous":false,"inputs":[{"indexed":false,"internalType":"address","name":"baseToken","type":"address"},{"indexed":false,"internalType":"bool","name":"tradeable","type":"bool"}],"name":"SetBaseToken","type":"event"},{"anonymous":false,"inputs":[{"indexed":false,"internalType":"uint256","name":"newInterest","type":"uint256"}],"name":"SetInterest","type":"event"},{"anonymous":false,"inputs":[{"indexed":false,"internalType":"address","name":"baseToken","type":"address"},{"indexed":false,"internalType":"uint256","name":"newReserve","type":"uint256"}],"name":"UpdateBaseReserve","type":"event"},{"anonymous":false,"inputs":[{"indexed":false,"internalType":"address","name":"collateral","type":"address"},{"indexed":false,"internalType":"uint256","name":"newReserve","type":"uint256"}],"name":"UpdateCollateralReserve","type":"event"},{"anonymous":false,"inputs":[{"indexed":false,"internalType":"uint256","name":"newFee","type":"uint256"}],"name":"UpdateFee","type":"event"},{"anonymous":false,"inputs":[{"indexed":false,"internalType":"uint256","name":"newProtocolFee","type":"uint256"}],"name":"UpdateProtocolFee","type":"event"},{"anonymous":false,"inputs":[{"indexed":false,"internalType":"uint256","name":"newQuoteInDebt","type":"uint256"}],"name":"UpdateQuoteInDebt","type":"event"},{"anonymous":false,"inputs":[{"indexed":false,"internalType":"uint256","name":"newQuoteReserve","type":"uint256"}],"name":"UpdateQuoteReserve","type":"event"},{"inputs":[],"name":"WETH","outputs":[{"internalType":"address","name":"","type":"address"}],"stateMutability":"view","type":"function"},{"inputs":[],"name":"accFee","outputs":[{"internalType":"uint256","name":"","type":"uint256"}],"stateMutability":"view","type":"function"},{"inputs":[],"name":"accFeePerShare","outputs":[{"internalType":"uint256","name":"","type":"uint256"}],"stateMutability":"view","type":"function"},{"inputs":[],"name":"accProtocolFee","outputs":[{"internalType":"uint256","name":"","type":"uint256"}],"stateMutability":"view","type":"function"},{"inputs":[],"name":"availableLiquidity","outputs":[{"internalType":"uint256","name":"","type":"uint256"}],"stateMutability":"view","type":"function"},{"inputs":[{"internalType":"address","name":"","type":"address"}],"name":"baseReserve","outputs":[{"internalType":"uint256","name":"","type":"uint256"}],"stateMutability":"view","type":"function"},{"inputs":[{"internalType":"address","name":"_to","type":"address"},{"internalType":"uint256","name":"_liquidity","type":"uint256"},{"internalType":"bool","name":"_unwrapWeth","type":"bool"}],"name":"burn","outputs":[],"stateMutability":"nonpayable","type":"function"},{"inputs":[{"internalType":"address","name":"_owner","type":"address"}],"name":"claimableFee","outputs":[{"internalType":"uint256","name":"amount","type":"uint256"}],"stateMutability":"view","type":"function"},{"inputs":[{"components":[{"internalType":"bytes32","name":"positionKey","type":"bytes32"},{"internalType":"bytes","name":"data0","type":"bytes"},{"internalType":"bytes","name":"data1","type":"bytes"},{"internalType":"bool","name":"unwrapWeth","type":"bool"}],"internalType":"struct IPositionStorage.CloseTradePositionParams","name":"_params","type":"tuple"}],"name":"close","outputs":[],"stateMutability":"nonpayable","type":"function"},{"inputs":[{"internalType":"address","name":"","type":"address"}],"name":"collateralReserve","outputs":[{"internalType":"uint256","name":"","type":"uint256"}],"stateMutability":"view","type":"function"},{"inputs":[{"internalType":"address","name":"_to","type":"address"},{"internalType":"uint256","name":"_amount","type":"uint256"},{"internalType":"bool","name":"_unwrapWeth","type":"bool"}],"name":"collect","outputs":[],"stateMutability":"nonpayable","type":"function"},{"inputs":[],"name":"factory","outputs":[{"internalType":"address","name":"","type":"address"}],"stateMutability":"view","type":"function"},{"inputs":[{"internalType":"address","name":"_factory","type":"address"},{"internalType":"address","name":"_WETH","type":"address"},{"internalType":"address","name":"_quoteToken","type":"address"},{"internalType":"uint256","name":"_interest","type":"uint256"}],"name":"initialize","outputs":[],"stateMutability":"nonpayable","type":"function"},{"inputs":[],"name":"interest","outputs":[{"internalType":"uint256","name":"","type":"uint256"}],"stateMutability":"view","type":"function"},{"inputs":[{"internalType":"address","name":"","type":"address"}],"name":"liquidityPosition","outputs":[{"internalType":"uint256","name":"liquidity","type":"uint256"},{"internalType":"uint256","name":"feeDebt","type":"uint256"},{"internalType":"uint256","name":"pendingFee","type":"uint256"}],"stateMutability":"view","type":"function"},{"inputs":[{"internalType":"address","name":"_to","type":"address"},{"internalType":"uint256","name":"_liquidity","type":"uint256"},{"internalType":"bytes","name":"_data","type":"bytes"}],"name":"mint","outputs":[],"stateMutability":"nonpayable","type":"function"},{"inputs":[{"components":[{"internalType":"address","name":"owner","type":"address"},{"internalType":"address","name":"baseToken","type":"address"},{"internalType":"address","name":"quoteToken","type":"address"},{"internalType":"address","name":"collateral","type":"address"},{"internalType":"uint256","name":"baseAmount","type":"uint256"},{"internalType":"uint256","name":"quoteAmount","type":"uint256"},{"internalType":"uint256","name":"collateralAmount","type":"uint256"},{"internalType":"uint256","name":"deadline","type":"uint256"},{"internalType":"uint256","name":"stoplossPrice","type":"uint256"},{"internalType":"bool","name":"unwrapWeth","type":"bool"}],"internalType":"struct IPositionStorage.OpenTradePositionParams","name":"_params","type":"tuple"}],"name":"open","outputs":[{"internalType":"bytes32","name":"positionKey","type":"bytes32"}],"stateMutability":"nonpayable","type":"function"},{"inputs":[],"name":"precision","outputs":[{"internalType":"uint256","name":"","type":"uint256"}],"stateMutability":"view","type":"function"},{"inputs":[],"name":"quoteInDebt","outputs":[{"internalType":"uint256","name":"","type":"uint256"}],"stateMutability":"view","type":"function"},{"inputs":[],"name":"quoteReserve","outputs":[{"internalType":"uint256","name":"","type":"uint256"}],"stateMutability":"view","type":"function"},{"inputs":[],"name":"quoteToken","outputs":[{"internalType":"address","name":"","type":"address"}],"stateMutability":"view","type":"function"},{"inputs":[{"internalType":"bytes32","name":"_positionKey","type":"bytes32"}],"name":"rollback","outputs":[],"stateMutability":"nonpayable","type":"function"},{"inputs":[{"internalType":"address[]","name":"_baseTokens","type":"address[]"},{"internalType":"bool[]","name":"_tradeables","type":"bool[]"}],"name":"setBaseTokens","outputs":[],"stateMutability":"nonpayable","type":"function"},{"inputs":[{"internalType":"uint256","name":"_interest","type":"uint256"}],"name":"setInterest","outputs":[],"stateMutability":"nonpayable","type":"function"},{"inputs":[{"internalType":"address","name":"","type":"address"}],"name":"tradeableBaseToken","outputs":[{"internalType":"bool","name":"","type":"bool"}],"stateMutability":"view","type":"function"},{"inputs":[{"internalType":"bytes32","name":"_positionKey","type":"bytes32"},{"internalType":"uint256","name":"_deadline","type":"uint256"}],"name":"updateDeadline","outputs":[],"stateMutability":"nonpayable","type":"function"},{"inputs":[{"internalType":"bytes32","name":"_positionKey","type":"bytes32"},{"internalType":"uint256","name":"_stoplossPrice","type":"uint256"}],"name":"updateStoplossPrice","outputs":[],"stateMutability":"nonpayable","type":"function"},{"stateMutability":"payable","type":"receive"}],"devdoc":{"kind":"dev","methods":{},"version":1},"evm":{"bytecode":{"linkReferences":{},"object":"6080604052600160005534801561001557600080fd5b50613333806100256000396000f3fe6080604052600436106101a05760003560e01c80639da771f4116100ec578063c45a01551161008a578063d3b5dc3b11610064578063d3b5dc3b146104a1578063d4fd6905146104b7578063dd3b829a1461050e578063ffc9dcbb1461052457600080fd5b8063c45a015514610441578063cf756fdf14610461578063cfb139281461048157600080fd5b8063ada3112f116100c6578063ada3112f146103f5578063ae4b62e41461040b578063b6cf16911461020b578063c392f7661461042b57600080fd5b80639da771f41461039f578063a1c59afc146103b5578063ad5c4648146103d557600080fd5b806337f0031a116101595780637437535911610133578063743753591461031d57806376fd4fdf146103325780638b6e00fa1461035257806394d008ef1461037f57600080fd5b806337f0031a146102c75780633f8e2936146102e7578063685b61d01461030757600080fd5b80630adcf0f5146101c65780631b033c1d1461020b5780631d0867201461022b578063217a4b701461024b57806327014e331461028357806332196a01146102a757600080fd5b366101c1576002546001600160a01b031633146101bf576101bf613282565b005b600080fd5b3480156101d257600080fd5b506101f66101e1366004612877565b600b6020526000908152604090205460ff1681565b60405190151581526020015b60405180910390f35b34801561021757600080fd5b506101bf610226366004612b09565b610551565b34801561023757600080fd5b506101bf610246366004612ad7565b61057d565b34801561025757600080fd5b5060035461026b906001600160a01b031681565b6040516001600160a01b039091168152602001610202565b34801561028f57600080fd5b5061029960095481565b604051908152602001610202565b3480156102b357600080fd5b506101bf6102c23660046129d4565b6105eb565b3480156102d357600080fd5b506102996102e2366004612b66565b61075a565b3480156102f357600080fd5b506101bf610302366004612909565b610b48565b34801561031357600080fd5b5061029960075481565b34801561032957600080fd5b50610299610cbf565b34801561033e57600080fd5b506101bf61034d366004612909565b610cce565b34801561035e57600080fd5b5061029961036d366004612877565b600d6020526000908152604090205481565b34801561038b57600080fd5b506101bf61039a36600461294b565b610e24565b3480156103ab57600080fd5b5061029960065481565b3480156103c157600080fd5b506102996103d0366004612877565b6110db565b3480156103e157600080fd5b5060025461026b906001600160a01b031681565b34801561040157600080fd5b5061029960085481565b34801561041757600080fd5b506101bf610426366004612b2b565b61116a565b34801561043757600080fd5b5061029960055481565b34801561044d57600080fd5b5060015461026b906001600160a01b031681565b34801561046d57600080fd5b506101bf61047c3660046128b8565b6117e4565b34801561048d57600080fd5b506101bf61049c366004612ad7565b6118cd565b3480156104ad57600080fd5b5061029960045481565b3480156104c357600080fd5b506104f36104d2366004612877565b600e6020526000908152604090208054600182015460029092015490919083565b60408051938452602084019290925290820152606001610202565b34801561051a57600080fd5b50610299600a5481565b34801561053057600080fd5b5061029961053f366004612877565b600c6020526000908152604090205481565b600054600114610574576040516303cb96db60e21b815260040160405180910390fd5b50506001600055565b6001546001600160a01b031633146105af5760405163a59d7f4d60e01b81523360048201526024015b60405180910390fd5b60058190556040518181527f81ed86e8cfa3004fc54732477c3eda4f4c606394a0b423aba78153a3e696f65d906020015b60405180910390a150565b6001546001600160a01b031633146106185760405163a59d7f4d60e01b81523360048201526024016105a6565b8051825114610647578151815160405163574092f960e01b8152600481019290925260248201526044016105a6565b60005b825181101561075557818181518110610665576106656132ae565b6020026020010151600b6000858481518110610683576106836132ae565b60200260200101516001600160a01b03166001600160a01b0316815260200190815260200160002060006101000a81548160ff0219169083151502179055507f07f3eda3f714379eddf0620b56429f8b62650079725dbe416faffbab8c6204e18382815181106106f5576106f56132ae565b602002602001015183838151811061070f5761070f6132ae565b602002602001015160405161073b9291906001600160a01b039290921682521515602082015260400190565b60405180910390a18061074d81613267565b91505061064a565b505050565b6000805460011461077e576040516303cb96db60e21b815260040160405180910390fd5b6000805560035460408301516001600160a01b03918216911681146107cf576040808401519051630158332360e41b81526001600160a01b03918216600482015290821660248201526044016105a6565b82604001516001600160a01b031683602001516001600160a01b0316141561080a57604051630e52390960e41b815260040160405180910390fd5b610813836118f8565b6108305760405163f8b3bb6160e01b815260040160405180910390fd5b60015460408051638cd4741560e01b815290516000926001600160a01b031691638cd47415916004808301926020929190829003018186803b15801561087557600080fd5b505afa158015610889573d6000803e3d6000fd5b505050506040513d601f19601f820116820180604052508101906108ad919061289b565b90506000816001600160a01b0316633e9f5444866040518263ffffffff1660e01b81526004016108dd9190612e48565b6103606040518083038186803b1580156108f657600080fd5b505afa15801561090a573d6000803e3d6000fd5b505050506040513d601f19601f8201168201806040525081019061092e9190612c0c565b60208101519091506001600160a01b031661095c57604051630e52390960e41b815260040160405180910390fd5b60008161010001518260800151602001516109779190613250565b90506000610983611c27565b9050808211156109a65760405163bb2875c360e01b815260040160405180910390fd5b6040516305efb7d160e01b81526001600160a01b038516906305efb7d1906109d2908690600401612efb565b602060405180830381600087803b1580156109ec57600080fd5b505af1158015610a00573d6000803e3d6000fd5b505050506040513d601f19601f82011682018060405250810190610a249190612af0565b9550610a408760a00151600754610a3b9190613107565b611cf0565b610a5e836101200151846101000151610a599190613250565b611d25565b610a79836101200151600954610a749190613107565b611d9f565b60208088015160808901516001600160a01b0382166000908152600c909352604090922054610ab092610aab91613107565b611dd4565b606087015160c08801516001600160a01b0382166000908152600d6020526040902054610ae69291610ae191613107565b611e2d565b610aff8588600001518960a001518a6101200151611e7e565b865160405187916001600160a01b03169033907f84c0e2ecdb2f9ca8447beab8e0d40a871c6b66c5c7a831d998f338887d4f1d5d90600090a45050600160005550919392505050565b600054600114610b6b576040516303cb96db60e21b815260040160405180910390fd5b6000805581610b8d57604051637c946ed760e01b815260040160405180910390fd5b6001600160a01b0383166000908152600e60205260409020600a54600454825415610bf257600183015483548290610bc59085613231565b610bcf919061311f565b610bd99190613250565b836002016000828254610bec9190613107565b90915550505b82548190610c009084613231565b610c0a919061311f565b60018401556002830154851180610c22575060085485115b15610c405760405163bb2875c360e01b815260040160405180910390fd5b84836002016000828254610c549190613250565b9091555050600354610c71906001600160a01b0316878787611e7e565b6040518581526001600160a01b0387169033907f1314fd112a381beea61539dbd21ec04afcff2662ac7d1b83273aade1f53d1b97906020015b60405180910390a35050600160005550505050565b6000610cc9611c27565b905090565b600054600114610cf1576040516303cb96db60e21b815260040160405180910390fd5b60008080556001600160a01b0384168152600e602052604090208054831115610d2d5760405163bb2875c360e01b815260040160405180910390fd5b600a54600454825415610d7a57600183015483548290610d4d9085613231565b610d57919061311f565b610d619190613250565b836002016000828254610d749190613107565b90915550505b84836000016000828254610d8e9190613250565b909155505082548190610da19084613231565b610dab919061311f565b6001840155600654610dc790610dc2908790613250565b6120da565b610dcf61210f565b600354610de7906001600160a01b0316878787611e7e565b6040518581526001600160a01b0387169033907fbac40739b0d4ca32fa2d82fc91630465ba3eddd1598da6fca393b26fb63b945390602001610caa565b600054600114610e47576040516303cb96db60e21b815260040160405180910390fd5b60008080556003546001600160a01b038681168352600e6020526040909220600a54600454825494909316939192909115610ebc57600183015483548290610e8f9085613231565b610e99919061311f565b610ea39190613250565b836002016000828254610eb69190613107565b90915550505b86836000016000828254610ed09190613107565b909155505082548190610ee39084613231565b610eed919061311f565b6001840155600654610f0490610dc2908990613107565b610f0c61210f565b6040516370a0823160e01b81523060048201526000906001600160a01b038616906370a082319060240160206040518083038186803b158015610f4e57600080fd5b505afa158015610f62573d6000803e3d6000fd5b505050506040513d601f19601f82011682018060405250810190610f869190612af0565b6040516303a3bcd760e01b815290915033906303a3bcd790610fb29088908c908c908c90600401612e16565b600060405180830381600087803b158015610fcc57600080fd5b505af1158015610fe0573d6000803e3d6000fd5b50506040516370a0823160e01b8152306004820152600092506001600160a01b03881691506370a082319060240160206040518083038186803b15801561102657600080fd5b505afa15801561103a573d6000803e3d6000fd5b505050506040513d601f19601f8201168201806040525081019061105e9190612af0565b905061106a8983613107565b81101561108a5760405163f8b3bb6160e01b815260040160405180910390fd5b6040518981526001600160a01b038b169033907fab8530f87dc9b59234c4623bf917212bb2536d647574c8e7e5da92c2ede0c9f89060200160405180910390a3505060016000555050505050505050565b6001600160a01b0381166000908152600e6020908152604080832081516060810183528154808252600183015494820185905260029092015492810192909252600454600a54929392909161112f91613231565b611139919061311f565b82604001516111489190613107565b6111529190613250565b91506008548211156111645760085491505b50919050565b60005460011461118d576040516303cb96db60e21b815260040160405180910390fd5b60008055600154604051639a30739160e01b81523360048201526001600160a01b0390911690639a3073919060240160206040518083038186803b1580156111d457600080fd5b505afa1580156111e8573d6000803e3d6000fd5b505050506040513d601f19601f8201168201806040525081019061120c9190612aba565b61122b5760405163a59d7f4d60e01b81523360048201526024016105a6565b60015460408051638cd4741560e01b815290516001600160a01b03909216916000918391638cd4741591600480820192602092909190829003018186803b15801561127557600080fd5b505afa158015611289573d6000803e3d6000fd5b505050506040513d601f19601f820116820180604052508101906112ad919061289b565b60405163452cf5ab60e11b8152843560048201529091506001600160a01b03821690638a59eb5690602401600060405180830381600087803b1580156112f257600080fd5b505af1158015611306573d6000803e3d6000fd5b505060405163506ae89360e11b815285356004820152600092506001600160a01b038416915063a0d5d126906024016103606040518083038186803b15801561134e57600080fd5b505afa158015611362573d6000803e3d6000fd5b505050506040513d601f19601f820116820180604052508101906113869190612c0c565b90506000836001600160a01b0316637c21d5e06040518163ffffffff1660e01b815260040160206040518083038186803b1580156113c357600080fd5b505afa1580156113d7573d6000803e3d6000fd5b505050506040513d601f19601f820116820180604052508101906113fb919061289b565b6060830151805160808501515160209092015160405163d7176ca960e01b81526000600482018190526001600160a01b0393841660248301529383166044820152606481019190915292935090919083169063d7176ca990608401604080518083038186803b15801561146d57600080fd5b505afa158015611481573d6000803e3d6000fd5b505050506040513d601f19601f820116820180604052508101906114a59190612ce0565b5090506114bf83826114ba60208a018a613016565b6121ce565b600080600085608001516020015184101561161257838660800151602001516114e89190613250565b60808701515160a0880151519194508493506001600160a01b0391821691161461160d5760a08601515160808701515160405163ec27830960e01b8152600060048201526001600160a01b0392831660248201529082166044820152606481018590529086169063ec27830990608401604080518083038186803b15801561156f57600080fd5b505afa158015611583573d6000803e3d6000fd5b505050506040513d601f19601f820116820180604052508101906115a79190612ce0565b5060a0870151602001519092508211156115e85760a086015160200151604051632c1f8ef160e21b81526004810191909152602481018390526044016105a6565b6116008683856115fb60408e018e613016565b612384565b61160a9082613107565b90505b61165c565b6000866080015160200151856116289190613250565b9050801561165a5761165a8760800151600001518860200151838d60600160208101906116559190612a9d565b611e7e565b505b818660a00151602001516116709190613250565b61167a9082613107565b905080156116a35760a08601515160208701516116a391908361165560808e0160608f01612a9d565b8551604051638b029d6160e01b815260048101919091526024810185905260448101849052606481018290526001600160a01b03881690638b029d6190608401600060405180830381600087803b1580156116fd57600080fd5b505af1158015611711573d6000803e3d6000fd5b5050505061172e866080015160200151600754610a3b9190613250565b606086015180516020918201516001600160a01b0382166000908152600c90935260409092205461176292610aab91613250565b60a086015180516020918201516001600160a01b0382166000908152600d90935260409092205461179692610ae191613250565b855160208701516040516001600160a01b039091169033907f85535c0cd1b9136f87a221f9942ff85c2fd6bda0767445c41a3fe870b7d1847690600090a45050600160005550505050505050565b6001546001600160a01b03161561180e576040516373e833b960e11b815260040160405180910390fd5b600180546001600160a01b038087166001600160a01b031992831617909255600280548684169083161790556003805492851692909116821790556040805163313ce56760e01b8152905163313ce56791600480820192602092909190829003018186803b15801561187f57600080fd5b505afa158015611893573d6000803e3d6000fd5b505050506040513d601f19601f820116820180604052508101906118b79190612d10565b6118c290600a613184565b600455600555505050565b6000546001146118f0576040516303cb96db60e21b815260040160405180910390fd5b506001600055565b600081602001516001600160a01b031682606001516001600160a01b031614611b335760608201516040516370a0823160e01b81523060048201526000916001600160a01b0316906370a082319060240160206040518083038186803b15801561196157600080fd5b505afa158015611975573d6000803e3d6000fd5b505050506040513d601f19601f820116820180604052508101906119999190612af0565b6060840180516001600160a01b039081166000908152600c602090815260408083205494519093168252600d905220549192506119d591613107565b6119df9082613250565b905082604001516001600160a01b031683606001516001600160a01b03161415611a3a57600954600854600754600654611a199190613250565b611a239190613250565b611a2d9190613250565b611a379082613250565b90505b8260c00151811015611a4f5750600092915050565b60208301516040516370a0823160e01b81523060048201526000916001600160a01b0316906370a082319060240160206040518083038186803b158015611a9557600080fd5b505afa158015611aa9573d6000803e3d6000fd5b505050506040513d601f19601f82011682018060405250810190611acd9190612af0565b602080860180516001600160a01b039081166000908152600c845260408082205493519092168152600d90935290912054919250611b0a91613107565b611b149082613250565b90508360800151811015611b2c575060009392505050565b5050611c1f565b60608201516040516370a0823160e01b81523060048201526000916001600160a01b0316906370a082319060240160206040518083038186803b158015611b7957600080fd5b505afa158015611b8d573d6000803e3d6000fd5b505050506040513d601f19601f82011682018060405250810190611bb19190612af0565b6060840180516001600160a01b039081166000908152600c602090815260408083205494519093168252600d90522054919250611bed91613107565b611bf79082613250565b905082608001518360c00151611c0d9190613107565b811015611c1d5750600092915050565b505b506001919050565b6003546040516370a0823160e01b81523060048201526000916001600160a01b031690829082906370a082319060240160206040518083038186803b158015611c6f57600080fd5b505afa158015611c83573d6000803e3d6000fd5b505050506040513d601f19601f82011682018060405250810190611ca79190612af0565b6009546008546001600160a01b0385166000908152600d60205260409020549293509091611cd59084613250565b611cdf9190613250565b611ce99190613250565b9250505090565b60078190556040518181527f26a8db85dd35b30712c42ae882de1d59c395aed810477ed980623164802cf142906020016105e0565b8060086000828254611d379190613107565b9091555050600654600454611d4c9083613231565b611d56919061311f565b600a6000828254611d679190613107565b90915550506008546040519081527f38e229a7f3f9c329892d08eb37c4e91ccac6d12c798d394990ca4f56028ec266906020016105e0565b60098190556040518181527f02f1bb46a1dd6774772e223bfa9c733cea598e6b1ac69187d1c614a04cfd1c36906020016105e0565b6001600160a01b0382166000818152600c6020908152604091829020849055815192835282018390527f650aa761fa5f576577cdc0c020d74fa8bb091213a82ee311b7a274d9aa4f955991015b60405180910390a15050565b6001600160a01b0382166000818152600d6020908152604091829020849055815192835282018390527f63eb39417416506dc369967fba1b44e6418801a4a6845581c06cada91448c5c39101611e21565b6002546001600160a01b0390811690851681148015611e9a5750815b15611f9e57604051632e1a7d4d60e01b8152600481018490526001600160a01b03821690632e1a7d4d90602401600060405180830381600087803b158015611ee157600080fd5b505af1158015611ef5573d6000803e3d6000fd5b5050604080516000808252602082019283905293506001600160a01b03881692508691611f229190612d9c565b60006040518083038185875af1925050503d8060008114611f5f576040519150601f19603f3d011682016040523d82523d6000602084013e611f64565b606091505b5050905080611f9857604051636f54afdd60e11b81526001600160a01b0386166004820152602481018590526044016105a6565b506120d3565b604080518082018252601981527f7472616e7366657228616464726573732c75696e74323536290000000000000060209182015281516001600160a01b0387811660248301526044808301889052845180840390910181526064909201845291810180516001600160e01b031663a9059cbb60e01b1790529151600092839289169161202a9190612d9c565b6000604051808303816000865af19150503d8060008114612067576040519150601f19603f3d011682016040523d82523d6000602084013e61206c565b606091505b50915091508115806120985750805115806120965750808060200190518101906120969190612aba565b155b156120d0576040516317e3057d60e31b81526001600160a01b03808916600483015287166024820152604481018690526064016105a6565b50505b5050505050565b60068190556040518181527f044141ecee2fb3c75d1699b968fa546a18dfa4ee1d705699d81751270b385951906020016105e0565b60095480156121cb576001546040805163779b492960e11b815290516000926001600160a01b03169163ef369252916004808301926020929190829003018186803b15801561215d57600080fd5b505afa158015612171573d6000803e3d6000fd5b505050506040513d601f19601f82011682018060405250810190612195919061289b565b90506001600160a01b038116156121c9576121b06000611d9f565b6003546121c9906001600160a01b031682846000611e7e565b505b50565b6080840151516040516370a0823160e01b81523060048201526000916001600160a01b0316906370a082319060240160206040518083038186803b15801561221557600080fd5b505afa158015612229573d6000803e3d6000fd5b505050506040513d601f19601f8201168201806040525081019061224d9190612af0565b905061226c856060015160000151338760600151602001516000611e7e565b6060850151516080860151516040516339d87e7760e21b8152339263e761f9dc9261229f92899089908990600401612dd7565b600060405180830381600087803b1580156122b957600080fd5b505af11580156122cd573d6000803e3d6000fd5b505050506080850151516040516370a0823160e01b81523060048201526000916001600160a01b0316906370a082319060240160206040518083038186803b15801561231857600080fd5b505afa15801561232c573d6000803e3d6000fd5b505050506040513d601f19601f820116820180604052508101906123509190612af0565b905061235c8583613107565b81101561237c5760405163f8b3bb6160e01b815260040160405180910390fd5b505050505050565b60a0850151516040516370a0823160e01b815230600482015260009182916001600160a01b03909116906370a082319060240160206040518083038186803b1580156123cf57600080fd5b505afa1580156123e3573d6000803e3d6000fd5b505050506040513d601f19601f820116820180604052508101906124079190612af0565b6080880151516040516370a0823160e01b81523060048201529192506000916001600160a01b03909116906370a082319060240160206040518083038186803b15801561245357600080fd5b505afa158015612467573d6000803e3d6000fd5b505050506040513d601f19601f8201168201806040525081019061248b9190612af0565b90506124a28860a001516000015133896000611e7e565b60a0880151516080890151516040516339d87e7760e21b8152339263e761f9dc926124d5928b908b908b90600401612dd7565b600060405180830381600087803b1580156124ef57600080fd5b505af1158015612503573d6000803e3d6000fd5b5050505060a0880151516040516370a0823160e01b81523060048201526000916001600160a01b0316906370a082319060240160206040518083038186803b15801561254e57600080fd5b505afa158015612562573d6000803e3d6000fd5b505050506040513d601f19601f820116820180604052508101906125869190612af0565b60808a0151516040516370a0823160e01b81523060048201529192506000916001600160a01b03909116906370a082319060240160206040518083038186803b1580156125d257600080fd5b505afa1580156125e6573d6000803e3d6000fd5b505050506040513d601f19601f8201168201806040525081019061260a9190612af0565b90506126168884613107565b8110156126365760405163f8b3bb6160e01b815260040160405180910390fd5b6126408985613250565b61264a9083613250565b9a9950505050505050505050565b8035612663816132da565b919050565b8051612663816132da565b600082601f83011261268457600080fd5b81356020612699612694836130e3565b6130b2565b80838252828201915082860187848660051b89010111156126b957600080fd5b60005b858110156126e15781356126cf816132ef565b845292840192908401906001016126bc565b5090979650505050505050565b8035612663816132ef565b600060c0828403121561270b57600080fd5b60405160c0810181811067ffffffffffffffff8211171561272e5761272e6132c4565b80604052508091508251612741816132da565b808252506020830151602082015260408301516040820152606083015160608201526080830151608082015260a083015160a08201525092915050565b60006040828403121561279057600080fd5b6040516040810181811067ffffffffffffffff821117156127b3576127b36132c4565b806040525080915082516127c6816132da565b8152602092830151920191909152919050565b600060a082840312156127eb57600080fd5b60405160a0810181811067ffffffffffffffff8211171561280e5761280e6132c4565b80604052508091508251612821816132ef565b81526020830151612831816132ef565b60208201526040830151612844816132ef565b60408201526060830151612857816132ef565b6060820152608083015161286a816132ef565b6080919091015292915050565b60006020828403121561288957600080fd5b8135612894816132da565b9392505050565b6000602082840312156128ad57600080fd5b8151612894816132da565b600080600080608085870312156128ce57600080fd5b84356128d9816132da565b935060208501356128e9816132da565b925060408501356128f9816132da565b9396929550929360600135925050565b60008060006060848603121561291e57600080fd5b8335612929816132da565b9250602084013591506040840135612940816132ef565b809150509250925092565b6000806000806060858703121561296157600080fd5b843561296c816132da565b935060208501359250604085013567ffffffffffffffff8082111561299057600080fd5b818701915087601f8301126129a457600080fd5b8135818111156129b357600080fd5b8860208285010111156129c557600080fd5b95989497505060200194505050565b600080604083850312156129e757600080fd5b823567ffffffffffffffff808211156129ff57600080fd5b818501915085601f830112612a1357600080fd5b81356020612a23612694836130e3565b8083825282820191508286018a848660051b8901011115612a4357600080fd5b600096505b84871015612a6f578035612a5b816132da565b835260019690960195918301918301612a48565b5096505086013592505080821115612a8657600080fd5b50612a9385828601612673565b9150509250929050565b600060208284031215612aaf57600080fd5b8135612894816132ef565b600060208284031215612acc57600080fd5b8151612894816132ef565b600060208284031215612ae957600080fd5b5035919050565b600060208284031215612b0257600080fd5b5051919050565b60008060408385031215612b1c57600080fd5b50508035926020909101359150565b600060208284031215612b3d57600080fd5b813567ffffffffffffffff811115612b5457600080fd5b82016080818503121561289457600080fd5b60006101408284031215612b7957600080fd5b612b81613064565b612b8a83612658565b8152612b9860208401612658565b6020820152612ba960408401612658565b6040820152612bba60608401612658565b60608201526080830135608082015260a083013560a082015260c083013560c082015260e083013560e0820152610100808401358183015250610120612c018185016126ee565b908201529392505050565b60006103608284031215612c1f57600080fd5b612c2761308e565b82518152612c3760208401612668565b6020820152612c4860408401612668565b6040820152612c5a84606085016126f9565b6060820152610120612c6e8582860161277e565b6080830152610160612c82868287016126f9565b60a084015261022085015160c084015261024085015160e084015261026085015161010084015261028085015182840152612cc1866102a087016127d9565b610140840152612cd46103408601612668565b90830152509392505050565b60008060408385031215612cf357600080fd5b825191506020830151612d05816132da565b809150509250929050565b600060208284031215612d2257600080fd5b815160ff8116811461289457600080fd5b81835281816020850137506000828201602090810191909152601f909101601f19169091010190565b80516001600160a01b031682526020808201519083015260408082015190830152606080820151908301526080808201519083015260a090810151910152565b6000825160005b81811015612dbd5760208186018101518583015201612da3565b81811115612dcc576000828501525b509190910192915050565b6001600160a01b0386811682528516602082015260408101849052608060608201819052600090612e0b9083018486612d33565b979650505050505050565b60018060a01b0385168152836020820152606060408201526000612e3e606083018486612d33565b9695505050505050565b81516001600160a01b0316815261014081016020830151612e7460208401826001600160a01b03169052565b506040830151612e8f60408401826001600160a01b03169052565b506060830151612eaa60608401826001600160a01b03169052565b506080830151608083015260a083015160a083015260c083015160c083015260e083015160e083015261010080840151818401525061012080840151612ef38285018215159052565b505092915050565b81518152602080830151610360830191612f1f908401826001600160a01b03169052565b506040830151612f3a60408401826001600160a01b03169052565b506060830151612f4d6060840182612d5c565b506080830151610120612f758185018380516001600160a01b03168252602090810151910152565b60a08501519150610160612f8b81860184612d5c565b60c086015161022086015260e086015161024086015261010086015161026086015290850151610280850152610140850151805115156102a0860152602081015115156102c0860152604081015115156102e0860152606081015115156103008601526080015115156103208501528401516001600160a01b03811661034085015290505092915050565b6000808335601e1984360301811261302d57600080fd5b83018035915067ffffffffffffffff82111561304857600080fd5b60200191503681900382131561305d57600080fd5b9250929050565b604051610140810167ffffffffffffffff81118282101715613088576130886132c4565b60405290565b604051610180810167ffffffffffffffff81118282101715613088576130886132c4565b604051601f8201601f1916810167ffffffffffffffff811182821017156130db576130db6132c4565b604052919050565b600067ffffffffffffffff8211156130fd576130fd6132c4565b5060051b60200190565b6000821982111561311a5761311a613298565b500190565b60008261313c57634e487b7160e01b600052601260045260246000fd5b500490565b600181815b8085111561317c57816000190482111561316257613162613298565b8085161561316f57918102915b93841c9390800290613146565b509250929050565b600061289460ff84168360008261319d5750600161322b565b816131aa5750600061322b565b81600181146131c057600281146131ca576131e6565b600191505061322b565b60ff8411156131db576131db613298565b50506001821b61322b565b5060208310610133831016604e8410600b8410161715613209575081810a61322b565b6132138383613141565b806000190482111561322757613227613298565b0290505b92915050565b600081600019048311821515161561324b5761324b613298565b500290565b60008282101561326257613262613298565b500390565b600060001982141561327b5761327b613298565b5060010190565b634e487b7160e01b600052600160045260246000fd5b634e487b7160e01b600052601160045260246000fd5b634e487b7160e01b600052603260045260246000fd5b634e487b7160e01b600052604160045260246000fd5b6001600160a01b03811681146121cb57600080fd5b80151581146121cb57600080fdfea2646970667358221220e4d4f0e8f306eb233e8566d7ec28ebcff0e07658effb303c07cbff94beaeedf864736f6c63430008070033","opcodes":"PUSH1 0x80 PUSH1 0x40 MSTORE PUSH1 0x1 PUSH1 0x0 SSTORE CALLVALUE DUP1 ISZERO PUSH2 0x15 JUMPI PUSH1 0x0 DUP1 REVERT JUMPDEST POP PUSH2 0x3333 DUP1 PUSH2 0x25 PUSH1 0x0 CODECOPY PUSH1 0x0 RETURN INVALID PUSH1 0x80 PUSH1 0x40 MSTORE PUSH1 0x4 CALLDATASIZE LT PUSH2 0x1A0 JUMPI PUSH1 0x0 CALLDATALOAD PUSH1 0xE0 SHR DUP1 PUSH4 0x9DA771F4 GT PUSH2 0xEC JUMPI DUP1 PUSH4 0xC45A0155 GT PUSH2 0x8A JUMPI DUP1 PUSH4 0xD3B5DC3B GT PUSH2 0x64 JUMPI DUP1 PUSH4 0xD3B5DC3B EQ PUSH2 0x4A1 JUMPI DUP1 PUSH4 0xD4FD6905 EQ PUSH2 0x4B7 JUMPI DUP1 PUSH4 0xDD3B829A EQ PUSH2 0x50E JUMPI DUP1 PUSH4 0xFFC9DCBB EQ PUSH2 0x524 JUMPI PUSH1 0x0 DUP1 REVERT JUMPDEST DUP1 PUSH4 0xC45A0155 EQ PUSH2 0x441 JUMPI DUP1 PUSH4 0xCF756FDF EQ PUSH2 0x461 JUMPI DUP1 PUSH4 0xCFB13928 EQ PUSH2 0x481 JUMPI PUSH1 0x0 DUP1 REVERT JUMPDEST DUP1 PUSH4 0xADA3112F GT PUSH2 0xC6 JUMPI DUP1 PUSH4 0xADA3112F EQ PUSH2 0x3F5 JUMPI DUP1 PUSH4 0xAE4B62E4 EQ PUSH2 0x40B JUMPI DUP1 PUSH4 0xB6CF1691 EQ PUSH2 0x20B JUMPI DUP1 PUSH4 0xC392F766 EQ PUSH2 0x42B JUMPI PUSH1 0x0 DUP1 REVERT JUMPDEST DUP1 PUSH4 0x9DA771F4 EQ PUSH2 0x39F JUMPI DUP1 PUSH4 0xA1C59AFC EQ PUSH2 0x3B5 JUMPI DUP1 PUSH4 0xAD5C4648 EQ PUSH2 0x3D5 JUMPI PUSH1 0x0 DUP1 REVERT JUMPDEST DUP1 PUSH4 0x37F0031A GT PUSH2 0x159 JUMPI DUP1 PUSH4 0x74375359 GT PUSH2 0x133 JUMPI DUP1 PUSH4 0x74375359 EQ PUSH2 0x31D JUMPI DUP1 PUSH4 0x76FD4FDF EQ PUSH2 0x332 JUMPI DUP1 PUSH4 0x8B6E00FA EQ PUSH2 0x352 JUMPI DUP1 PUSH4 0x94D008EF EQ PUSH2 0x37F JUMPI PUSH1 0x0 DUP1 REVERT JUMPDEST DUP1 PUSH4 0x37F0031A EQ PUSH2 0x2C7 JUMPI DUP1 PUSH4 0x3F8E2936 EQ PUSH2 0x2E7 JUMPI DUP1 PUSH4 0x685B61D0 EQ PUSH2 0x307 JUMPI PUSH1 0x0 DUP1 REVERT JUMPDEST DUP1 PUSH4 0xADCF0F5 EQ PUSH2 0x1C6 JUMPI DUP1 PUSH4 0x1B033C1D EQ PUSH2 0x20B JUMPI DUP1 PUSH4 0x1D086720 EQ PUSH2 0x22B JUMPI DUP1 PUSH4 0x217A4B70 EQ PUSH2 0x24B JUMPI DUP1 PUSH4 0x27014E33 EQ PUSH2 0x283 JUMPI DUP1 PUSH4 0x32196A01 EQ PUSH2 0x2A7 JUMPI PUSH1 0x0 DUP1 REVERT JUMPDEST CALLDATASIZE PUSH2 0x1C1 JUMPI PUSH1 0x2 SLOAD PUSH1 0x1 PUSH1 0x1 PUSH1 0xA0 SHL SUB AND CALLER EQ PUSH2 0x1BF JUMPI PUSH2 0x1BF PUSH2 0x3282 JUMP JUMPDEST STOP JUMPDEST PUSH1 0x0 DUP1 REVERT JUMPDEST CALLVALUE DUP1 ISZERO PUSH2 0x1D2 JUMPI PUSH1 0x0 DUP1 REVERT JUMPDEST POP PUSH2 0x1F6 PUSH2 0x1E1 CALLDATASIZE PUSH1 0x4 PUSH2 0x2877 JUMP JUMPDEST PUSH1 0xB PUSH1 0x20 MSTORE PUSH1 0x0 SWAP1 DUP2 MSTORE PUSH1 0x40 SWAP1 KECCAK256 SLOAD PUSH1 0xFF AND DUP2 JUMP JUMPDEST PUSH1 0x40 MLOAD SWAP1 ISZERO ISZERO DUP2 MSTORE PUSH1 0x20 ADD JUMPDEST PUSH1 0x40 MLOAD DUP1 SWAP2 SUB SWAP1 RETURN JUMPDEST CALLVALUE DUP1 ISZERO PUSH2 0x217 JUMPI PUSH1 0x0 DUP1 REVERT JUMPDEST POP PUSH2 0x1BF PUSH2 0x226 CALLDATASIZE PUSH1 0x4 PUSH2 0x2B09 JUMP JUMPDEST PUSH2 0x551 JUMP JUMPDEST CALLVALUE DUP1 ISZERO PUSH2 0x237 JUMPI PUSH1 0x0 DUP1 REVERT JUMPDEST POP PUSH2 0x1BF PUSH2 0x246 CALLDATASIZE PUSH1 0x4 PUSH2 0x2AD7 JUMP JUMPDEST PUSH2 0x57D JUMP JUMPDEST CALLVALUE DUP1 ISZERO PUSH2 0x257 JUMPI PUSH1 0x0 DUP1 REVERT JUMPDEST POP PUSH1 0x3 SLOAD PUSH2 0x26B SWAP1 PUSH1 0x1 PUSH1 0x1 PUSH1 0xA0 SHL SUB AND DUP2 JUMP JUMPDEST PUSH1 0x40 MLOAD PUSH1 0x1 PUSH1 0x1 PUSH1 0xA0 SHL SUB SWAP1 SWAP2 AND DUP2 MSTORE PUSH1 0x20 ADD PUSH2 0x202 JUMP JUMPDEST CALLVALUE DUP1 ISZERO PUSH2 0x28F JUMPI PUSH1 0x0 DUP1 REVERT JUMPDEST POP PUSH2 0x299 PUSH1 0x9 SLOAD DUP2 JUMP JUMPDEST PUSH1 0x40 MLOAD SWAP1 DUP2 MSTORE PUSH1 0x20 ADD PUSH2 0x202 JUMP JUMPDEST CALLVALUE DUP1 ISZERO PUSH2 0x2B3 JUMPI PUSH1 0x0 DUP1 REVERT JUMPDEST POP PUSH2 0x1BF PUSH2 0x2C2 CALLDATASIZE PUSH1 0x4 PUSH2 0x29D4 JUMP JUMPDEST PUSH2 0x5EB JUMP JUMPDEST CALLVALUE DUP1 ISZERO PUSH2 0x2D3 JUMPI PUSH1 0x0 DUP1 REVERT JUMPDEST POP PUSH2 0x299 PUSH2 0x2E2 CALLDATASIZE PUSH1 0x4 PUSH2 0x2B66 JUMP JUMPDEST PUSH2 0x75A JUMP JUMPDEST CALLVALUE DUP1 ISZERO PUSH2 0x2F3 JUMPI PUSH1 0x0 DUP1 REVERT JUMPDEST POP PUSH2 0x1BF PUSH2 0x302 CALLDATASIZE PUSH1 0x4 PUSH2 0x2909 JUMP JUMPDEST PUSH2 0xB48 JUMP JUMPDEST CALLVALUE DUP1 ISZERO PUSH2 0x313 JUMPI PUSH1 0x0 DUP1 REVERT JUMPDEST POP PUSH2 0x299 PUSH1 0x7 SLOAD DUP2 JUMP JUMPDEST CALLVALUE DUP1 ISZERO PUSH2 0x329 JUMPI PUSH1 0x0 DUP1 REVERT JUMPDEST POP PUSH2 0x299 PUSH2 0xCBF JUMP JUMPDEST CALLVALUE DUP1 ISZERO PUSH2 0x33E JUMPI PUSH1 0x0 DUP1 REVERT JUMPDEST POP PUSH2 0x1BF PUSH2 0x34D CALLDATASIZE PUSH1 0x4 PUSH2 0x2909 JUMP JUMPDEST PUSH2 0xCCE JUMP JUMPDEST CALLVALUE DUP1 ISZERO PUSH2 0x35E JUMPI PUSH1 0x0 DUP1 REVERT JUMPDEST POP PUSH2 0x299 PUSH2 0x36D CALLDATASIZE PUSH1 0x4 PUSH2 0x2877 JUMP JUMPDEST PUSH1 0xD PUSH1 0x20 MSTORE PUSH1 0x0 SWAP1 DUP2 MSTORE PUSH1 0x40 SWAP1 KECCAK256 SLOAD DUP2 JUMP JUMPDEST CALLVALUE DUP1 ISZERO PUSH2 0x38B JUMPI PUSH1 0x0 DUP1 REVERT JUMPDEST POP PUSH2 0x1BF PUSH2 0x39A CALLDATASIZE PUSH1 0x4 PUSH2 0x294B JUMP JUMPDEST PUSH2 0xE24 JUMP JUMPDEST CALLVALUE DUP1 ISZERO PUSH2 0x3AB JUMPI PUSH1 0x0 DUP1 REVERT JUMPDEST POP PUSH2 0x299 PUSH1 0x6 SLOAD DUP2 JUMP JUMPDEST CALLVALUE DUP1 ISZERO PUSH2 0x3C1 JUMPI PUSH1 0x0 DUP1 REVERT JUMPDEST POP PUSH2 0x299 PUSH2 0x3D0 CALLDATASIZE PUSH1 0x4 PUSH2 0x2877 JUMP JUMPDEST PUSH2 0x10DB JUMP JUMPDEST CALLVALUE DUP1 ISZERO PUSH2 0x3E1 JUMPI PUSH1 0x0 DUP1 REVERT JUMPDEST POP PUSH1 0x2 SLOAD PUSH2 0x26B SWAP1 PUSH1 0x1 PUSH1 0x1 PUSH1 0xA0 SHL SUB AND DUP2 JUMP JUMPDEST CALLVALUE DUP1 ISZERO PUSH2 0x401 JUMPI PUSH1 0x0 DUP1 REVERT JUMPDEST POP PUSH2 0x299 PUSH1 0x8 SLOAD DUP2 JUMP JUMPDEST CALLVALUE DUP1 ISZERO PUSH2 0x417 JUMPI PUSH1 0x0 DUP1 REVERT JUMPDEST POP PUSH2 0x1BF PUSH2 0x426 CALLDATASIZE PUSH1 0x4 PUSH2 0x2B2B JUMP JUMPDEST PUSH2 0x116A JUMP JUMPDEST CALLVALUE DUP1 ISZERO PUSH2 0x437 JUMPI PUSH1 0x0 DUP1 REVERT JUMPDEST POP PUSH2 0x299 PUSH1 0x5 SLOAD DUP2 JUMP JUMPDEST CALLVALUE DUP1 ISZERO PUSH2 0x44D JUMPI PUSH1 0x0 DUP1 REVERT JUMPDEST POP PUSH1 0x1 SLOAD PUSH2 0x26B SWAP1 PUSH1 0x1 PUSH1 0x1 PUSH1 0xA0 SHL SUB AND DUP2 JUMP JUMPDEST CALLVALUE DUP1 ISZERO PUSH2 0x46D JUMPI PUSH1 0x0 DUP1 REVERT JUMPDEST POP PUSH2 0x1BF PUSH2 0x47C CALLDATASIZE PUSH1 0x4 PUSH2 0x28B8 JUMP JUMPDEST PUSH2 0x17E4 JUMP JUMPDEST CALLVALUE DUP1 ISZERO PUSH2 0x48D JUMPI PUSH1 0x0 DUP1 REVERT JUMPDEST POP PUSH2 0x1BF PUSH2 0x49C CALLDATASIZE PUSH1 0x4 PUSH2 0x2AD7 JUMP JUMPDEST PUSH2 0x18CD JUMP JUMPDEST CALLVALUE DUP1 ISZERO PUSH2 0x4AD JUMPI PUSH1 0x0 DUP1 REVERT JUMPDEST POP PUSH2 0x299 PUSH1 0x4 SLOAD DUP2 JUMP JUMPDEST CALLVALUE DUP1 ISZERO PUSH2 0x4C3 JUMPI PUSH1 0x0 DUP1 REVERT JUMPDEST POP PUSH2 0x4F3 PUSH2 0x4D2 CALLDATASIZE PUSH1 0x4 PUSH2 0x2877 JUMP JUMPDEST PUSH1 0xE PUSH1 0x20 MSTORE PUSH1 0x0 SWAP1 DUP2 MSTORE PUSH1 0x40 SWAP1 KECCAK256 DUP1 SLOAD PUSH1 0x1 DUP3 ADD SLOAD PUSH1 0x2 SWAP1 SWAP3 ADD SLOAD SWAP1 SWAP2 SWAP1 DUP4 JUMP JUMPDEST PUSH1 0x40 DUP1 MLOAD SWAP4 DUP5 MSTORE PUSH1 0x20 DUP5 ADD SWAP3 SWAP1 SWAP3 MSTORE SWAP1 DUP3 ADD MSTORE PUSH1 0x60 ADD PUSH2 0x202 JUMP JUMPDEST CALLVALUE DUP1 ISZERO PUSH2 0x51A JUMPI PUSH1 0x0 DUP1 REVERT JUMPDEST POP PUSH2 0x299 PUSH1 0xA SLOAD DUP2 JUMP JUMPDEST CALLVALUE DUP1 ISZERO PUSH2 0x530 JUMPI PUSH1 0x0 DUP1 REVERT JUMPDEST POP PUSH2 0x299 PUSH2 0x53F CALLDATASIZE PUSH1 0x4 PUSH2 0x2877 JUMP JUMPDEST PUSH1 0xC PUSH1 0x20 MSTORE PUSH1 0x0 SWAP1 DUP2 MSTORE PUSH1 0x40 SWAP1 KECCAK256 SLOAD DUP2 JUMP JUMPDEST PUSH1 0x0 SLOAD PUSH1 0x1 EQ PUSH2 0x574 JUMPI PUSH1 0x40 MLOAD PUSH4 0x3CB96DB PUSH1 0xE2 SHL DUP2 MSTORE PUSH1 0x4 ADD PUSH1 0x40 MLOAD DUP1 SWAP2 SUB SWAP1 REVERT JUMPDEST POP POP PUSH1 0x1 PUSH1 0x0 SSTORE JUMP JUMPDEST PUSH1 0x1 SLOAD PUSH1 0x1 PUSH1 0x1 PUSH1 0xA0 SHL SUB AND CALLER EQ PUSH2 0x5AF JUMPI PUSH1 0x40 MLOAD PUSH4 0xA59D7F4D PUSH1 0xE0 SHL DUP2 MSTORE CALLER PUSH1 0x4 DUP3 ADD MSTORE PUSH1 0x24 ADD JUMPDEST PUSH1 0x40 MLOAD DUP1 SWAP2 SUB SWAP1 REVERT JUMPDEST PUSH1 0x5 DUP2 SWAP1 SSTORE PUSH1 0x40 MLOAD DUP2 DUP2 MSTORE PUSH32 0x81ED86E8CFA3004FC54732477C3EDA4F4C606394A0B423ABA78153A3E696F65D SWAP1 PUSH1 0x20 ADD JUMPDEST PUSH1 0x40 MLOAD DUP1 SWAP2 SUB SWAP1 LOG1 POP JUMP JUMPDEST PUSH1 0x1 SLOAD PUSH1 0x1 PUSH1 0x1 PUSH1 0xA0 SHL SUB AND CALLER EQ PUSH2 0x618 JUMPI PUSH1 0x40 MLOAD PUSH4 0xA59D7F4D PUSH1 0xE0 SHL DUP2 MSTORE CALLER PUSH1 0x4 DUP3 ADD MSTORE PUSH1 0x24 ADD PUSH2 0x5A6 JUMP JUMPDEST DUP1 MLOAD DUP3 MLOAD EQ PUSH2 0x647 JUMPI DUP2 MLOAD DUP2 MLOAD PUSH1 0x40 MLOAD PUSH4 0x574092F9 PUSH1 0xE0 SHL DUP2 MSTORE PUSH1 0x4 DUP2 ADD SWAP3 SWAP1 SWAP3 MSTORE PUSH1 0x24 DUP3 ADD MSTORE PUSH1 0x44 ADD PUSH2 0x5A6 JUMP JUMPDEST PUSH1 0x0 JUMPDEST DUP3 MLOAD DUP2 LT ISZERO PUSH2 0x755 JUMPI DUP2 DUP2 DUP2 MLOAD DUP2 LT PUSH2 0x665 JUMPI PUSH2 0x665 PUSH2 0x32AE JUMP JUMPDEST PUSH1 0x20 MUL PUSH1 0x20 ADD ADD MLOAD PUSH1 0xB PUSH1 0x0 DUP6 DUP5 DUP2 MLOAD DUP2 LT PUSH2 0x683 JUMPI PUSH2 0x683 PUSH2 0x32AE JUMP JUMPDEST PUSH1 0x20 MUL PUSH1 0x20 ADD ADD MLOAD PUSH1 0x1 PUSH1 0x1 PUSH1 0xA0 SHL SUB AND PUSH1 0x1 PUSH1 0x1 PUSH1 0xA0 SHL SUB AND DUP2 MSTORE PUSH1 0x20 ADD SWAP1 DUP2 MSTORE PUSH1 0x20 ADD PUSH1 0x0 KECCAK256 PUSH1 0x0 PUSH2 0x100 EXP DUP2 SLOAD DUP2 PUSH1 0xFF MUL NOT AND SWAP1 DUP4 ISZERO ISZERO MUL OR SWAP1 SSTORE POP PUSH32 0x7F3EDA3F714379EDDF0620B56429F8B62650079725DBE416FAFFBAB8C6204E1 DUP4 DUP3 DUP2 MLOAD DUP2 LT PUSH2 0x6F5 JUMPI PUSH2 0x6F5 PUSH2 0x32AE JUMP JUMPDEST PUSH1 0x20 MUL PUSH1 0x20 ADD ADD MLOAD DUP4 DUP4 DUP2 MLOAD DUP2 LT PUSH2 0x70F JUMPI PUSH2 0x70F PUSH2 0x32AE JUMP JUMPDEST PUSH1 0x20 MUL PUSH1 0x20 ADD ADD MLOAD PUSH1 0x40 MLOAD PUSH2 0x73B SWAP3 SWAP2 SWAP1 PUSH1 0x1 PUSH1 0x1 PUSH1 0xA0 SHL SUB SWAP3 SWAP1 SWAP3 AND DUP3 MSTORE ISZERO ISZERO PUSH1 0x20 DUP3 ADD MSTORE PUSH1 0x40 ADD SWAP1 JUMP JUMPDEST PUSH1 0x40 MLOAD DUP1 SWAP2 SUB SWAP1 LOG1 DUP1 PUSH2 0x74D DUP2 PUSH2 0x3267 JUMP JUMPDEST SWAP2 POP POP PUSH2 0x64A JUMP JUMPDEST POP POP POP JUMP JUMPDEST PUSH1 0x0 DUP1 SLOAD PUSH1 0x1 EQ PUSH2 0x77E JUMPI PUSH1 0x40 MLOAD PUSH4 0x3CB96DB PUSH1 0xE2 SHL DUP2 MSTORE PUSH1 0x4 ADD PUSH1 0x40 MLOAD DUP1 SWAP2 SUB SWAP1 REVERT JUMPDEST PUSH1 0x0 DUP1 SSTORE PUSH1 0x3 SLOAD PUSH1 0x40 DUP4 ADD MLOAD PUSH1 0x1 PUSH1 0x1 PUSH1 0xA0 SHL SUB SWAP2 DUP3 AND SWAP2 AND DUP2 EQ PUSH2 0x7CF JUMPI PUSH1 0x40 DUP1 DUP5 ADD MLOAD SWAP1 MLOAD PUSH4 0x1583323 PUSH1 0xE4 SHL DUP2 MSTORE PUSH1 0x1 PUSH1 0x1 PUSH1 0xA0 SHL SUB SWAP2 DUP3 AND PUSH1 0x4 DUP3 ADD MSTORE SWAP1 DUP3 AND PUSH1 0x24 DUP3 ADD MSTORE PUSH1 0x44 ADD PUSH2 0x5A6 JUMP JUMPDEST DUP3 PUSH1 0x40 ADD MLOAD PUSH1 0x1 PUSH1 0x1 PUSH1 0xA0 SHL SUB AND DUP4 PUSH1 0x20 ADD MLOAD PUSH1 0x1 PUSH1 0x1 PUSH1 0xA0 SHL SUB AND EQ ISZERO PUSH2 0x80A JUMPI PUSH1 0x40 MLOAD PUSH4 0xE523909 PUSH1 0xE4 SHL DUP2 MSTORE PUSH1 0x4 ADD PUSH1 0x40 MLOAD DUP1 SWAP2 SUB SWAP1 REVERT JUMPDEST PUSH2 0x813 DUP4 PUSH2 0x18F8 JUMP JUMPDEST PUSH2 0x830 JUMPI PUSH1 0x40 MLOAD PUSH4 0xF8B3BB61 PUSH1 0xE0 SHL DUP2 MSTORE PUSH1 0x4 ADD PUSH1 0x40 MLOAD DUP1 SWAP2 SUB SWAP1 REVERT JUMPDEST PUSH1 0x1 SLOAD PUSH1 0x40 DUP1 MLOAD PUSH4 0x8CD47415 PUSH1 0xE0 SHL DUP2 MSTORE SWAP1 MLOAD PUSH1 0x0 SWAP3 PUSH1 0x1 PUSH1 0x1 PUSH1 0xA0 SHL SUB AND SWAP2 PUSH4 0x8CD47415 SWAP2 PUSH1 0x4 DUP1 DUP4 ADD SWAP3 PUSH1 0x20 SWAP3 SWAP2 SWAP1 DUP3 SWAP1 SUB ADD DUP2 DUP7 DUP1 EXTCODESIZE ISZERO DUP1 ISZERO PUSH2 0x875 JUMPI PUSH1 0x0 DUP1 REVERT JUMPDEST POP GAS STATICCALL ISZERO DUP1 ISZERO PUSH2 0x889 JUMPI RETURNDATASIZE PUSH1 0x0 DUP1 RETURNDATACOPY RETURNDATASIZE PUSH1 0x0 REVERT JUMPDEST POP POP POP POP PUSH1 0x40 MLOAD RETURNDATASIZE PUSH1 0x1F NOT PUSH1 0x1F DUP3 ADD AND DUP3 ADD DUP1 PUSH1 0x40 MSTORE POP DUP2 ADD SWAP1 PUSH2 0x8AD SWAP2 SWAP1 PUSH2 0x289B JUMP JUMPDEST SWAP1 POP PUSH1 0x0 DUP2 PUSH1 0x1 PUSH1 0x1 PUSH1 0xA0 SHL SUB AND PUSH4 0x3E9F5444 DUP7 PUSH1 0x40 MLOAD DUP3 PUSH4 0xFFFFFFFF AND PUSH1 0xE0 SHL DUP2 MSTORE PUSH1 0x4 ADD PUSH2 0x8DD SWAP2 SWAP1 PUSH2 0x2E48 JUMP JUMPDEST PUSH2 0x360 PUSH1 0x40 MLOAD DUP1 DUP4 SUB DUP2 DUP7 DUP1 EXTCODESIZE ISZERO DUP1 ISZERO PUSH2 0x8F6 JUMPI PUSH1 0x0 DUP1 REVERT JUMPDEST POP GAS STATICCALL ISZERO DUP1 ISZERO PUSH2 0x90A JUMPI RETURNDATASIZE PUSH1 0x0 DUP1 RETURNDATACOPY RETURNDATASIZE PUSH1 0x0 REVERT JUMPDEST POP POP POP POP PUSH1 0x40 MLOAD RETURNDATASIZE PUSH1 0x1F NOT PUSH1 0x1F DUP3 ADD AND DUP3 ADD DUP1 PUSH1 0x40 MSTORE POP DUP2 ADD SWAP1 PUSH2 0x92E SWAP2 SWAP1 PUSH2 0x2C0C JUMP JUMPDEST PUSH1 0x20 DUP2 ADD MLOAD SWAP1 SWAP2 POP PUSH1 0x1 PUSH1 0x1 PUSH1 0xA0 SHL SUB AND PUSH2 0x95C JUMPI PUSH1 0x40 MLOAD PUSH4 0xE523909 PUSH1 0xE4 SHL DUP2 MSTORE PUSH1 0x4 ADD PUSH1 0x40 MLOAD DUP1 SWAP2 SUB SWAP1 REVERT JUMPDEST PUSH1 0x0 DUP2 PUSH2 0x100 ADD MLOAD DUP3 PUSH1 0x80 ADD MLOAD PUSH1 0x20 ADD MLOAD PUSH2 0x977 SWAP2 SWAP1 PUSH2 0x3250 JUMP JUMPDEST SWAP1 POP PUSH1 0x0 PUSH2 0x983 PUSH2 0x1C27 JUMP JUMPDEST SWAP1 POP DUP1 DUP3 GT ISZERO PUSH2 0x9A6 JUMPI PUSH1 0x40 MLOAD PUSH4 0xBB2875C3 PUSH1 0xE0 SHL DUP2 MSTORE PUSH1 0x4 ADD PUSH1 0x40 MLOAD DUP1 SWAP2 SUB SWAP1 REVERT JUMPDEST PUSH1 0x40 MLOAD PUSH4 0x5EFB7D1 PUSH1 0xE0 SHL DUP2 MSTORE PUSH1 0x1 PUSH1 0x1 PUSH1 0xA0 SHL SUB DUP6 AND SWAP1 PUSH4 0x5EFB7D1 SWAP1 PUSH2 0x9D2 SWAP1 DUP7 SWAP1 PUSH1 0x4 ADD PUSH2 0x2EFB JUMP JUMPDEST PUSH1 0x20 PUSH1 0x40 MLOAD DUP1 DUP4 SUB DUP2 PUSH1 0x0 DUP8 DUP1 EXTCODESIZE ISZERO DUP1 ISZERO PUSH2 0x9EC JUMPI PUSH1 0x0 DUP1 REVERT JUMPDEST POP GAS CALL ISZERO DUP1 ISZERO PUSH2 0xA00 JUMPI RETURNDATASIZE PUSH1 0x0 DUP1 RETURNDATACOPY RETURNDATASIZE PUSH1 0x0 REVERT JUMPDEST POP POP POP POP PUSH1 0x40 MLOAD RETURNDATASIZE PUSH1 0x1F NOT PUSH1 0x1F DUP3 ADD AND DUP3 ADD DUP1 PUSH1 0x40 MSTORE POP DUP2 ADD SWAP1 PUSH2 0xA24 SWAP2 SWAP1 PUSH2 0x2AF0 JUMP JUMPDEST SWAP6 POP PUSH2 0xA40 DUP8 PUSH1 0xA0 ADD MLOAD PUSH1 0x7 SLOAD PUSH2 0xA3B SWAP2 SWAP1 PUSH2 0x3107 JUMP JUMPDEST PUSH2 0x1CF0 JUMP JUMPDEST PUSH2 0xA5E DUP4 PUSH2 0x120 ADD MLOAD DUP5 PUSH2 0x100 ADD MLOAD PUSH2 0xA59 SWAP2 SWAP1 PUSH2 0x3250 JUMP JUMPDEST PUSH2 0x1D25 JUMP JUMPDEST PUSH2 0xA79 DUP4 PUSH2 0x120 ADD MLOAD PUSH1 0x9 SLOAD PUSH2 0xA74 SWAP2 SWAP1 PUSH2 0x3107 JUMP JUMPDEST PUSH2 0x1D9F JUMP JUMPDEST PUSH1 0x20 DUP1 DUP9 ADD MLOAD PUSH1 0x80 DUP10 ADD MLOAD PUSH1 0x1 PUSH1 0x1 PUSH1 0xA0 SHL SUB DUP3 AND PUSH1 0x0 SWAP1 DUP2 MSTORE PUSH1 0xC SWAP1 SWAP4 MSTORE PUSH1 0x40 SWAP1 SWAP3 KECCAK256 SLOAD PUSH2 0xAB0 SWAP3 PUSH2 0xAAB SWAP2 PUSH2 0x3107 JUMP JUMPDEST PUSH2 0x1DD4 JUMP JUMPDEST PUSH1 0x60 DUP8 ADD MLOAD PUSH1 0xC0 DUP9 ADD MLOAD PUSH1 0x1 PUSH1 0x1 PUSH1 0xA0 SHL SUB DUP3 AND PUSH1 0x0 SWAP1 DUP2 MSTORE PUSH1 0xD PUSH1 0x20 MSTORE PUSH1 0x40 SWAP1 KECCAK256 SLOAD PUSH2 0xAE6 SWAP3 SWAP2 PUSH2 0xAE1 SWAP2 PUSH2 0x3107 JUMP JUMPDEST PUSH2 0x1E2D JUMP JUMPDEST PUSH2 0xAFF DUP6 DUP9 PUSH1 0x0 ADD MLOAD DUP10 PUSH1 0xA0 ADD MLOAD DUP11 PUSH2 0x120 ADD MLOAD PUSH2 0x1E7E JUMP JUMPDEST DUP7 MLOAD PUSH1 0x40 MLOAD DUP8 SWAP2 PUSH1 0x1 PUSH1 0x1 PUSH1 0xA0 SHL SUB AND SWAP1 CALLER SWAP1 PUSH32 0x84C0E2ECDB2F9CA8447BEAB8E0D40A871C6B66C5C7A831D998F338887D4F1D5D SWAP1 PUSH1 0x0 SWAP1 LOG4 POP POP PUSH1 0x1 PUSH1 0x0 SSTORE POP SWAP2 SWAP4 SWAP3 POP POP POP JUMP JUMPDEST PUSH1 0x0 SLOAD PUSH1 0x1 EQ PUSH2 0xB6B JUMPI PUSH1 0x40 MLOAD PUSH4 0x3CB96DB PUSH1 0xE2 SHL DUP2 MSTORE PUSH1 0x4 ADD PUSH1 0x40 MLOAD DUP1 SWAP2 SUB SWAP1 REVERT JUMPDEST PUSH1 0x0 DUP1 SSTORE DUP2 PUSH2 0xB8D JUMPI PUSH1 0x40 MLOAD PUSH4 0x7C946ED7 PUSH1 0xE0 SHL DUP2 MSTORE PUSH1 0x4 ADD PUSH1 0x40 MLOAD DUP1 SWAP2 SUB SWAP1 REVERT JUMPDEST PUSH1 0x1 PUSH1 0x1 PUSH1 0xA0 SHL SUB DUP4 AND PUSH1 0x0 SWAP1 DUP2 MSTORE PUSH1 0xE PUSH1 0x20 MSTORE PUSH1 0x40 SWAP1 KECCAK256 PUSH1 0xA SLOAD PUSH1 0x4 SLOAD DUP3 SLOAD ISZERO PUSH2 0xBF2 JUMPI PUSH1 0x1 DUP4 ADD SLOAD DUP4 SLOAD DUP3 SWAP1 PUSH2 0xBC5 SWAP1 DUP6 PUSH2 0x3231 JUMP JUMPDEST PUSH2 0xBCF SWAP2 SWAP1 PUSH2 0x311F JUMP JUMPDEST PUSH2 0xBD9 SWAP2 SWAP1 PUSH2 0x3250 JUMP JUMPDEST DUP4 PUSH1 0x2 ADD PUSH1 0x0 DUP3 DUP3 SLOAD PUSH2 0xBEC SWAP2 SWAP1 PUSH2 0x3107 JUMP JUMPDEST SWAP1 SWAP2 SSTORE POP POP JUMPDEST DUP3 SLOAD DUP2 SWAP1 PUSH2 0xC00 SWAP1 DUP5 PUSH2 0x3231 JUMP JUMPDEST PUSH2 0xC0A SWAP2 SWAP1 PUSH2 0x311F JUMP JUMPDEST PUSH1 0x1 DUP5 ADD SSTORE PUSH1 0x2 DUP4 ADD SLOAD DUP6 GT DUP1 PUSH2 0xC22 JUMPI POP PUSH1 0x8 SLOAD DUP6 GT JUMPDEST ISZERO PUSH2 0xC40 JUMPI PUSH1 0x40 MLOAD PUSH4 0xBB2875C3 PUSH1 0xE0 SHL DUP2 MSTORE PUSH1 0x4 ADD PUSH1 0x40 MLOAD DUP1 SWAP2 SUB SWAP1 REVERT JUMPDEST DUP5 DUP4 PUSH1 0x2 ADD PUSH1 0x0 DUP3 DUP3 SLOAD PUSH2 0xC54 SWAP2 SWAP1 PUSH2 0x3250 JUMP JUMPDEST SWAP1 SWAP2 SSTORE POP POP PUSH1 0x3 SLOAD PUSH2 0xC71 SWAP1 PUSH1 0x1 PUSH1 0x1 PUSH1 0xA0 SHL SUB AND DUP8 DUP8 DUP8 PUSH2 0x1E7E JUMP JUMPDEST PUSH1 0x40 MLOAD DUP6 DUP2 MSTORE PUSH1 0x1 PUSH1 0x1 PUSH1 0xA0 SHL SUB DUP8 AND SWAP1 CALLER SWAP1 PUSH32 0x1314FD112A381BEEA61539DBD21EC04AFCFF2662AC7D1B83273AADE1F53D1B97 SWAP1 PUSH1 0x20 ADD JUMPDEST PUSH1 0x40 MLOAD DUP1 SWAP2 SUB SWAP1 LOG3 POP POP PUSH1 0x1 PUSH1 0x0 SSTORE POP POP POP POP JUMP JUMPDEST PUSH1 0x0 PUSH2 0xCC9 PUSH2 0x1C27 JUMP JUMPDEST SWAP1 POP SWAP1 JUMP JUMPDEST PUSH1 0x0 SLOAD PUSH1 0x1 EQ PUSH2 0xCF1 JUMPI PUSH1 0x40 MLOAD PUSH4 0x3CB96DB PUSH1 0xE2 SHL DUP2 MSTORE PUSH1 0x4 ADD PUSH1 0x40 MLOAD DUP1 SWAP2 SUB SWAP1 REVERT JUMPDEST PUSH1 0x0 DUP1 DUP1 SSTORE PUSH1 0x1 PUSH1 0x1 PUSH1 0xA0 SHL SUB DUP5 AND DUP2 MSTORE PUSH1 0xE PUSH1 0x20 MSTORE PUSH1 0x40 SWAP1 KECCAK256 DUP1 SLOAD DUP4 GT ISZERO PUSH2 0xD2D JUMPI PUSH1 0x40 MLOAD PUSH4 0xBB2875C3 PUSH1 0xE0 SHL DUP2 MSTORE PUSH1 0x4 ADD PUSH1 0x40 MLOAD DUP1 SWAP2 SUB SWAP1 REVERT JUMPDEST PUSH1 0xA SLOAD PUSH1 0x4 SLOAD DUP3 SLOAD ISZERO PUSH2 0xD7A JUMPI PUSH1 0x1 DUP4 ADD SLOAD DUP4 SLOAD DUP3 SWAP1 PUSH2 0xD4D SWAP1 DUP6 PUSH2 0x3231 JUMP JUMPDEST PUSH2 0xD57 SWAP2 SWAP1 PUSH2 0x311F JUMP JUMPDEST PUSH2 0xD61 SWAP2 SWAP1 PUSH2 0x3250 JUMP JUMPDEST DUP4 PUSH1 0x2 ADD PUSH1 0x0 DUP3 DUP3 SLOAD PUSH2 0xD74 SWAP2 SWAP1 PUSH2 0x3107 JUMP JUMPDEST SWAP1 SWAP2 SSTORE POP POP JUMPDEST DUP5 DUP4 PUSH1 0x0 ADD PUSH1 0x0 DUP3 DUP3 SLOAD PUSH2 0xD8E SWAP2 SWAP1 PUSH2 0x3250 JUMP JUMPDEST SWAP1 SWAP2 SSTORE POP POP DUP3 SLOAD DUP2 SWAP1 PUSH2 0xDA1 SWAP1 DUP5 PUSH2 0x3231 JUMP JUMPDEST PUSH2 0xDAB SWAP2 SWAP1 PUSH2 0x311F JUMP JUMPDEST PUSH1 0x1 DUP5 ADD SSTORE PUSH1 0x6 SLOAD PUSH2 0xDC7 SWAP1 PUSH2 0xDC2 SWAP1 DUP8 SWAP1 PUSH2 0x3250 JUMP JUMPDEST PUSH2 0x20DA JUMP JUMPDEST PUSH2 0xDCF PUSH2 0x210F JUMP JUMPDEST PUSH1 0x3 SLOAD PUSH2 0xDE7 SWAP1 PUSH1 0x1 PUSH1 0x1 PUSH1 0xA0 SHL SUB AND DUP8 DUP8 DUP8 PUSH2 0x1E7E JUMP JUMPDEST PUSH1 0x40 MLOAD DUP6 DUP2 MSTORE PUSH1 0x1 PUSH1 0x1 PUSH1 0xA0 SHL SUB DUP8 AND SWAP1 CALLER SWAP1 PUSH32 0xBAC40739B0D4CA32FA2D82FC91630465BA3EDDD1598DA6FCA393B26FB63B9453 SWAP1 PUSH1 0x20 ADD PUSH2 0xCAA JUMP JUMPDEST PUSH1 0x0 SLOAD PUSH1 0x1 EQ PUSH2 0xE47 JUMPI PUSH1 0x40 MLOAD PUSH4 0x3CB96DB PUSH1 0xE2 SHL DUP2 MSTORE PUSH1 0x4 ADD PUSH1 0x40 MLOAD DUP1 SWAP2 SUB SWAP1 REVERT JUMPDEST PUSH1 0x0 DUP1 DUP1 SSTORE PUSH1 0x3 SLOAD PUSH1 0x1 PUSH1 0x1 PUSH1 0xA0 SHL SUB DUP7 DUP2 AND DUP4 MSTORE PUSH1 0xE PUSH1 0x20 MSTORE PUSH1 0x40 SWAP1 SWAP3 KECCAK256 PUSH1 0xA SLOAD PUSH1 0x4 SLOAD DUP3 SLOAD SWAP5 SWAP1 SWAP4 AND SWAP4 SWAP2 SWAP3 SWAP1 SWAP2 ISZERO PUSH2 0xEBC JUMPI PUSH1 0x1 DUP4 ADD SLOAD DUP4 SLOAD DUP3 SWAP1 PUSH2 0xE8F SWAP1 DUP6 PUSH2 0x3231 JUMP JUMPDEST PUSH2 0xE99 SWAP2 SWAP1 PUSH2 0x311F JUMP JUMPDEST PUSH2 0xEA3 SWAP2 SWAP1 PUSH2 0x3250 JUMP JUMPDEST DUP4 PUSH1 0x2 ADD PUSH1 0x0 DUP3 DUP3 SLOAD PUSH2 0xEB6 SWAP2 SWAP1 PUSH2 0x3107 JUMP JUMPDEST SWAP1 SWAP2 SSTORE POP POP JUMPDEST DUP7 DUP4 PUSH1 0x0 ADD PUSH1 0x0 DUP3 DUP3 SLOAD PUSH2 0xED0 SWAP2 SWAP1 PUSH2 0x3107 JUMP JUMPDEST SWAP1 SWAP2 SSTORE POP POP DUP3 SLOAD DUP2 SWAP1 PUSH2 0xEE3 SWAP1 DUP5 PUSH2 0x3231 JUMP JUMPDEST PUSH2 0xEED SWAP2 SWAP1 PUSH2 0x311F JUMP JUMPDEST PUSH1 0x1 DUP5 ADD SSTORE PUSH1 0x6 SLOAD PUSH2 0xF04 SWAP1 PUSH2 0xDC2 SWAP1 DUP10 SWAP1 PUSH2 0x3107 JUMP JUMPDEST PUSH2 0xF0C PUSH2 0x210F JUMP JUMPDEST PUSH1 0x40 MLOAD PUSH4 0x70A08231 PUSH1 0xE0 SHL DUP2 MSTORE ADDRESS PUSH1 0x4 DUP3 ADD MSTORE PUSH1 0x0 SWAP1 PUSH1 0x1 PUSH1 0x1 PUSH1 0xA0 SHL SUB DUP7 AND SWAP1 PUSH4 0x70A08231 SWAP1 PUSH1 0x24 ADD PUSH1 0x20 PUSH1 0x40 MLOAD DUP1 DUP4 SUB DUP2 DUP7 DUP1 EXTCODESIZE ISZERO DUP1 ISZERO PUSH2 0xF4E JUMPI PUSH1 0x0 DUP1 REVERT JUMPDEST POP GAS STATICCALL ISZERO DUP1 ISZERO PUSH2 0xF62 JUMPI RETURNDATASIZE PUSH1 0x0 DUP1 RETURNDATACOPY RETURNDATASIZE PUSH1 0x0 REVERT JUMPDEST POP POP POP POP PUSH1 0x40 MLOAD RETURNDATASIZE PUSH1 0x1F NOT PUSH1 0x1F DUP3 ADD AND DUP3 ADD DUP1 PUSH1 0x40 MSTORE POP DUP2 ADD SWAP1 PUSH2 0xF86 SWAP2 SWAP1 PUSH2 0x2AF0 JUMP JUMPDEST PUSH1 0x40 MLOAD PUSH4 0x3A3BCD7 PUSH1 0xE0 SHL DUP2 MSTORE SWAP1 SWAP2 POP CALLER SWAP1 PUSH4 0x3A3BCD7 SWAP1 PUSH2 0xFB2 SWAP1 DUP9 SWAP1 DUP13 SWAP1 DUP13 SWAP1 DUP13 SWAP1 PUSH1 0x4 ADD PUSH2 0x2E16 JUMP JUMPDEST PUSH1 0x0 PUSH1 0x40 MLOAD DUP1 DUP4 SUB DUP2 PUSH1 0x0 DUP8 DUP1 EXTCODESIZE ISZERO DUP1 ISZERO PUSH2 0xFCC JUMPI PUSH1 0x0 DUP1 REVERT JUMPDEST POP GAS CALL ISZERO DUP1 ISZERO PUSH2 0xFE0 JUMPI RETURNDATASIZE PUSH1 0x0 DUP1 RETURNDATACOPY RETURNDATASIZE PUSH1 0x0 REVERT JUMPDEST POP POP PUSH1 0x40 MLOAD PUSH4 0x70A08231 PUSH1 0xE0 SHL DUP2 MSTORE ADDRESS PUSH1 0x4 DUP3 ADD MSTORE PUSH1 0x0 SWAP3 POP PUSH1 0x1 PUSH1 0x1 PUSH1 0xA0 SHL SUB DUP9 AND SWAP2 POP PUSH4 0x70A08231 SWAP1 PUSH1 0x24 ADD PUSH1 0x20 PUSH1 0x40 MLOAD DUP1 DUP4 SUB DUP2 DUP7 DUP1 EXTCODESIZE ISZERO DUP1 ISZERO PUSH2 0x1026 JUMPI PUSH1 0x0 DUP1 REVERT JUMPDEST POP GAS STATICCALL ISZERO DUP1 ISZERO PUSH2 0x103A JUMPI RETURNDATASIZE PUSH1 0x0 DUP1 RETURNDATACOPY RETURNDATASIZE PUSH1 0x0 REVERT JUMPDEST POP POP POP POP PUSH1 0x40 MLOAD RETURNDATASIZE PUSH1 0x1F NOT PUSH1 0x1F DUP3 ADD AND DUP3 ADD DUP1 PUSH1 0x40 MSTORE POP DUP2 ADD SWAP1 PUSH2 0x105E SWAP2 SWAP1 PUSH2 0x2AF0 JUMP JUMPDEST SWAP1 POP PUSH2 0x106A DUP10 DUP4 PUSH2 0x3107 JUMP JUMPDEST DUP2 LT ISZERO PUSH2 0x108A JUMPI PUSH1 0x40 MLOAD PUSH4 0xF8B3BB61 PUSH1 0xE0 SHL DUP2 MSTORE PUSH1 0x4 ADD PUSH1 0x40 MLOAD DUP1 SWAP2 SUB SWAP1 REVERT JUMPDEST PUSH1 0x40 MLOAD DUP10 DUP2 MSTORE PUSH1 0x1 PUSH1 0x1 PUSH1 0xA0 SHL SUB DUP12 AND SWAP1 CALLER SWAP1 PUSH32 0xAB8530F87DC9B59234C4623BF917212BB2536D647574C8E7E5DA92C2EDE0C9F8 SWAP1 PUSH1 0x20 ADD PUSH1 0x40 MLOAD DUP1 SWAP2 SUB SWAP1 LOG3 POP POP PUSH1 0x1 PUSH1 0x0 SSTORE POP POP POP POP POP POP POP POP JUMP JUMPDEST PUSH1 0x1 PUSH1 0x1 PUSH1 0xA0 SHL SUB DUP2 AND PUSH1 0x0 SWAP1 DUP2 MSTORE PUSH1 0xE PUSH1 0x20 SWAP1 DUP2 MSTORE PUSH1 0x40 DUP1 DUP4 KECCAK256 DUP2 MLOAD PUSH1 0x60 DUP2 ADD DUP4 MSTORE DUP2 SLOAD DUP1 DUP3 MSTORE PUSH1 0x1 DUP4 ADD SLOAD SWAP5 DUP3 ADD DUP6 SWAP1 MSTORE PUSH1 0x2 SWAP1 SWAP3 ADD SLOAD SWAP3 DUP2 ADD SWAP3 SWAP1 SWAP3 MSTORE PUSH1 0x4 SLOAD PUSH1 0xA SLOAD SWAP3 SWAP4 SWAP3 SWAP1 SWAP2 PUSH2 0x112F SWAP2 PUSH2 0x3231 JUMP JUMPDEST PUSH2 0x1139 SWAP2 SWAP1 PUSH2 0x311F JUMP JUMPDEST DUP3 PUSH1 0x40 ADD MLOAD PUSH2 0x1148 SWAP2 SWAP1 PUSH2 0x3107 JUMP JUMPDEST PUSH2 0x1152 SWAP2 SWAP1 PUSH2 0x3250 JUMP JUMPDEST SWAP2 POP PUSH1 0x8 SLOAD DUP3 GT ISZERO PUSH2 0x1164 JUMPI PUSH1 0x8 SLOAD SWAP2 POP JUMPDEST POP SWAP2 SWAP1 POP JUMP JUMPDEST PUSH1 0x0 SLOAD PUSH1 0x1 EQ PUSH2 0x118D JUMPI PUSH1 0x40 MLOAD PUSH4 0x3CB96DB PUSH1 0xE2 SHL DUP2 MSTORE PUSH1 0x4 ADD PUSH1 0x40 MLOAD DUP1 SWAP2 SUB SWAP1 REVERT JUMPDEST PUSH1 0x0 DUP1 SSTORE PUSH1 0x1 SLOAD PUSH1 0x40 MLOAD PUSH4 0x9A307391 PUSH1 0xE0 SHL DUP2 MSTORE CALLER PUSH1 0x4 DUP3 ADD MSTORE PUSH1 0x1 PUSH1 0x1 PUSH1 0xA0 SHL SUB SWAP1 SWAP2 AND SWAP1 PUSH4 0x9A307391 SWAP1 PUSH1 0x24 ADD PUSH1 0x20 PUSH1 0x40 MLOAD DUP1 DUP4 SUB DUP2 DUP7 DUP1 EXTCODESIZE ISZERO DUP1 ISZERO PUSH2 0x11D4 JUMPI PUSH1 0x0 DUP1 REVERT JUMPDEST POP GAS STATICCALL ISZERO DUP1 ISZERO PUSH2 0x11E8 JUMPI RETURNDATASIZE PUSH1 0x0 DUP1 RETURNDATACOPY RETURNDATASIZE PUSH1 0x0 REVERT JUMPDEST POP POP POP POP PUSH1 0x40 MLOAD RETURNDATASIZE PUSH1 0x1F NOT PUSH1 0x1F DUP3 ADD AND DUP3 ADD DUP1 PUSH1 0x40 MSTORE POP DUP2 ADD SWAP1 PUSH2 0x120C SWAP2 SWAP1 PUSH2 0x2ABA JUMP JUMPDEST PUSH2 0x122B JUMPI PUSH1 0x40 MLOAD PUSH4 0xA59D7F4D PUSH1 0xE0 SHL DUP2 MSTORE CALLER PUSH1 0x4 DUP3 ADD MSTORE PUSH1 0x24 ADD PUSH2 0x5A6 JUMP JUMPDEST PUSH1 0x1 SLOAD PUSH1 0x40 DUP1 MLOAD PUSH4 0x8CD47415 PUSH1 0xE0 SHL DUP2 MSTORE SWAP1 MLOAD PUSH1 0x1 PUSH1 0x1 PUSH1 0xA0 SHL SUB SWAP1 SWAP3 AND SWAP2 PUSH1 0x0 SWAP2 DUP4 SWAP2 PUSH4 0x8CD47415 SWAP2 PUSH1 0x4 DUP1 DUP3 ADD SWAP3 PUSH1 0x20 SWAP3 SWAP1 SWAP2 SWAP1 DUP3 SWAP1 SUB ADD DUP2 DUP7 DUP1 EXTCODESIZE ISZERO DUP1 ISZERO PUSH2 0x1275 JUMPI PUSH1 0x0 DUP1 REVERT JUMPDEST POP GAS STATICCALL ISZERO DUP1 ISZERO PUSH2 0x1289 JUMPI RETURNDATASIZE PUSH1 0x0 DUP1 RETURNDATACOPY RETURNDATASIZE PUSH1 0x0 REVERT JUMPDEST POP POP POP POP PUSH1 0x40 MLOAD RETURNDATASIZE PUSH1 0x1F NOT PUSH1 0x1F DUP3 ADD AND DUP3 ADD DUP1 PUSH1 0x40 MSTORE POP DUP2 ADD SWAP1 PUSH2 0x12AD SWAP2 SWAP1 PUSH2 0x289B JUMP JUMPDEST PUSH1 0x40 MLOAD PUSH4 0x452CF5AB PUSH1 0xE1 SHL DUP2 MSTORE DUP5 CALLDATALOAD PUSH1 0x4 DUP3 ADD MSTORE SWAP1 SWAP2 POP PUSH1 0x1 PUSH1 0x1 PUSH1 0xA0 SHL SUB DUP3 AND SWAP1 PUSH4 0x8A59EB56 SWAP1 PUSH1 0x24 ADD PUSH1 0x0 PUSH1 0x40 MLOAD DUP1 DUP4 SUB DUP2 PUSH1 0x0 DUP8 DUP1 EXTCODESIZE ISZERO DUP1 ISZERO PUSH2 0x12F2 JUMPI PUSH1 0x0 DUP1 REVERT JUMPDEST POP GAS CALL ISZERO DUP1 ISZERO PUSH2 0x1306 JUMPI RETURNDATASIZE PUSH1 0x0 DUP1 RETURNDATACOPY RETURNDATASIZE PUSH1 0x0 REVERT JUMPDEST POP POP PUSH1 0x40 MLOAD PUSH4 0x506AE893 PUSH1 0xE1 SHL DUP2 MSTORE DUP6 CALLDATALOAD PUSH1 0x4 DUP3 ADD MSTORE PUSH1 0x0 SWAP3 POP PUSH1 0x1 PUSH1 0x1 PUSH1 0xA0 SHL SUB DUP5 AND SWAP2 POP PUSH4 0xA0D5D126 SWAP1 PUSH1 0x24 ADD PUSH2 0x360 PUSH1 0x40 MLOAD DUP1 DUP4 SUB DUP2 DUP7 DUP1 EXTCODESIZE ISZERO DUP1 ISZERO PUSH2 0x134E JUMPI PUSH1 0x0 DUP1 REVERT JUMPDEST POP GAS STATICCALL ISZERO DUP1 ISZERO PUSH2 0x1362 JUMPI RETURNDATASIZE PUSH1 0x0 DUP1 RETURNDATACOPY RETURNDATASIZE PUSH1 0x0 REVERT JUMPDEST POP POP POP POP PUSH1 0x40 MLOAD RETURNDATASIZE PUSH1 0x1F NOT PUSH1 0x1F DUP3 ADD AND DUP3 ADD DUP1 PUSH1 0x40 MSTORE POP DUP2 ADD SWAP1 PUSH2 0x1386 SWAP2 SWAP1 PUSH2 0x2C0C JUMP JUMPDEST SWAP1 POP PUSH1 0x0 DUP4 PUSH1 0x1 PUSH1 0x1 PUSH1 0xA0 SHL SUB AND PUSH4 0x7C21D5E0 PUSH1 0x40 MLOAD DUP2 PUSH4 0xFFFFFFFF AND PUSH1 0xE0 SHL DUP2 MSTORE PUSH1 0x4 ADD PUSH1 0x20 PUSH1 0x40 MLOAD DUP1 DUP4 SUB DUP2 DUP7 DUP1 EXTCODESIZE ISZERO DUP1 ISZERO PUSH2 0x13C3 JUMPI PUSH1 0x0 DUP1 REVERT JUMPDEST POP GAS STATICCALL ISZERO DUP1 ISZERO PUSH2 0x13D7 JUMPI RETURNDATASIZE PUSH1 0x0 DUP1 RETURNDATACOPY RETURNDATASIZE PUSH1 0x0 REVERT JUMPDEST POP POP POP POP PUSH1 0x40 MLOAD RETURNDATASIZE PUSH1 0x1F NOT PUSH1 0x1F DUP3 ADD AND DUP3 ADD DUP1 PUSH1 0x40 MSTORE POP DUP2 ADD SWAP1 PUSH2 0x13FB SWAP2 SWAP1 PUSH2 0x289B JUMP JUMPDEST PUSH1 0x60 DUP4 ADD MLOAD DUP1 MLOAD PUSH1 0x80 DUP6 ADD MLOAD MLOAD PUSH1 0x20 SWAP1 SWAP3 ADD MLOAD PUSH1 0x40 MLOAD PUSH4 0xD7176CA9 PUSH1 0xE0 SHL DUP2 MSTORE PUSH1 0x0 PUSH1 0x4 DUP3 ADD DUP2 SWAP1 MSTORE PUSH1 0x1 PUSH1 0x1 PUSH1 0xA0 SHL SUB SWAP4 DUP5 AND PUSH1 0x24 DUP4 ADD MSTORE SWAP4 DUP4 AND PUSH1 0x44 DUP3 ADD MSTORE PUSH1 0x64 DUP2 ADD SWAP2 SWAP1 SWAP2 MSTORE SWAP3 SWAP4 POP SWAP1 SWAP2 SWAP1 DUP4 AND SWAP1 PUSH4 0xD7176CA9 SWAP1 PUSH1 0x84 ADD PUSH1 0x40 DUP1 MLOAD DUP1 DUP4 SUB DUP2 DUP7 DUP1 EXTCODESIZE ISZERO DUP1 ISZERO PUSH2 0x146D JUMPI PUSH1 0x0 DUP1 REVERT JUMPDEST POP GAS STATICCALL ISZERO DUP1 ISZERO PUSH2 0x1481 JUMPI RETURNDATASIZE PUSH1 0x0 DUP1 RETURNDATACOPY RETURNDATASIZE PUSH1 0x0 REVERT JUMPDEST POP POP POP POP PUSH1 0x40 MLOAD RETURNDATASIZE PUSH1 0x1F NOT PUSH1 0x1F DUP3 ADD AND DUP3 ADD DUP1 PUSH1 0x40 MSTORE POP DUP2 ADD SWAP1 PUSH2 0x14A5 SWAP2 SWAP1 PUSH2 0x2CE0 JUMP JUMPDEST POP SWAP1 POP PUSH2 0x14BF DUP4 DUP3 PUSH2 0x14BA PUSH1 0x20 DUP11 ADD DUP11 PUSH2 0x3016 JUMP JUMPDEST PUSH2 0x21CE JUMP JUMPDEST PUSH1 0x0 DUP1 PUSH1 0x0 DUP6 PUSH1 0x80 ADD MLOAD PUSH1 0x20 ADD MLOAD DUP5 LT ISZERO PUSH2 0x1612 JUMPI DUP4 DUP7 PUSH1 0x80 ADD MLOAD PUSH1 0x20 ADD MLOAD PUSH2 0x14E8 SWAP2 SWAP1 PUSH2 0x3250 JUMP JUMPDEST PUSH1 0x80 DUP8 ADD MLOAD MLOAD PUSH1 0xA0 DUP9 ADD MLOAD MLOAD SWAP2 SWAP5 POP DUP5 SWAP4 POP PUSH1 0x1 PUSH1 0x1 PUSH1 0xA0 SHL SUB SWAP2 DUP3 AND SWAP2 AND EQ PUSH2 0x160D JUMPI PUSH1 0xA0 DUP7 ADD MLOAD MLOAD PUSH1 0x80 DUP8 ADD MLOAD MLOAD PUSH1 0x40 MLOAD PUSH4 0xEC278309 PUSH1 0xE0 SHL DUP2 MSTORE PUSH1 0x0 PUSH1 0x4 DUP3 ADD MSTORE PUSH1 0x1 PUSH1 0x1 PUSH1 0xA0 SHL SUB SWAP3 DUP4 AND PUSH1 0x24 DUP3 ADD MSTORE SWAP1 DUP3 AND PUSH1 0x44 DUP3 ADD MSTORE PUSH1 0x64 DUP2 ADD DUP6 SWAP1 MSTORE SWAP1 DUP7 AND SWAP1 PUSH4 0xEC278309 SWAP1 PUSH1 0x84 ADD PUSH1 0x40 DUP1 MLOAD DUP1 DUP4 SUB DUP2 DUP7 DUP1 EXTCODESIZE ISZERO DUP1 ISZERO PUSH2 0x156F JUMPI PUSH1 0x0 DUP1 REVERT JUMPDEST POP GAS STATICCALL ISZERO DUP1 ISZERO PUSH2 0x1583 JUMPI RETURNDATASIZE PUSH1 0x0 DUP1 RETURNDATACOPY RETURNDATASIZE PUSH1 0x0 REVERT JUMPDEST POP POP POP POP PUSH1 0x40 MLOAD RETURNDATASIZE PUSH1 0x1F NOT PUSH1 0x1F DUP3 ADD AND DUP3 ADD DUP1 PUSH1 0x40 MSTORE POP DUP2 ADD SWAP1 PUSH2 0x15A7 SWAP2 SWAP1 PUSH2 0x2CE0 JUMP JUMPDEST POP PUSH1 0xA0 DUP8 ADD MLOAD PUSH1 0x20 ADD MLOAD SWAP1 SWAP3 POP DUP3 GT ISZERO PUSH2 0x15E8 JUMPI PUSH1 0xA0 DUP7 ADD MLOAD PUSH1 0x20 ADD MLOAD PUSH1 0x40 MLOAD PUSH4 0x2C1F8EF1 PUSH1 0xE2 SHL DUP2 MSTORE PUSH1 0x4 DUP2 ADD SWAP2 SWAP1 SWAP2 MSTORE PUSH1 0x24 DUP2 ADD DUP4 SWAP1 MSTORE PUSH1 0x44 ADD PUSH2 0x5A6 JUMP JUMPDEST PUSH2 0x1600 DUP7 DUP4 DUP6 PUSH2 0x15FB PUSH1 0x40 DUP15 ADD DUP15 PUSH2 0x3016 JUMP JUMPDEST PUSH2 0x2384 JUMP JUMPDEST PUSH2 0x160A SWAP1 DUP3 PUSH2 0x3107 JUMP JUMPDEST SWAP1 POP JUMPDEST PUSH2 0x165C JUMP JUMPDEST PUSH1 0x0 DUP7 PUSH1 0x80 ADD MLOAD PUSH1 0x20 ADD MLOAD DUP6 PUSH2 0x1628 SWAP2 SWAP1 PUSH2 0x3250 JUMP JUMPDEST SWAP1 POP DUP1 ISZERO PUSH2 0x165A JUMPI PUSH2 0x165A DUP8 PUSH1 0x80 ADD MLOAD PUSH1 0x0 ADD MLOAD DUP9 PUSH1 0x20 ADD MLOAD DUP4 DUP14 PUSH1 0x60 ADD PUSH1 0x20 DUP2 ADD SWAP1 PUSH2 0x1655 SWAP2 SWAP1 PUSH2 0x2A9D JUMP JUMPDEST PUSH2 0x1E7E JUMP JUMPDEST POP JUMPDEST DUP2 DUP7 PUSH1 0xA0 ADD MLOAD PUSH1 0x20 ADD MLOAD PUSH2 0x1670 SWAP2 SWAP1 PUSH2 0x3250 JUMP JUMPDEST PUSH2 0x167A SWAP1 DUP3 PUSH2 0x3107 JUMP JUMPDEST SWAP1 POP DUP1 ISZERO PUSH2 0x16A3 JUMPI PUSH1 0xA0 DUP7 ADD MLOAD MLOAD PUSH1 0x20 DUP8 ADD MLOAD PUSH2 0x16A3 SWAP2 SWAP1 DUP4 PUSH2 0x1655 PUSH1 0x80 DUP15 ADD PUSH1 0x60 DUP16 ADD PUSH2 0x2A9D JUMP JUMPDEST DUP6 MLOAD PUSH1 0x40 MLOAD PUSH4 0x8B029D61 PUSH1 0xE0 SHL DUP2 MSTORE PUSH1 0x4 DUP2 ADD SWAP2 SWAP1 SWAP2 MSTORE PUSH1 0x24 DUP2 ADD DUP6 SWAP1 MSTORE PUSH1 0x44 DUP2 ADD DUP5 SWAP1 MSTORE PUSH1 0x64 DUP2 ADD DUP3 SWAP1 MSTORE PUSH1 0x1 PUSH1 0x1 PUSH1 0xA0 SHL SUB DUP9 AND SWAP1 PUSH4 0x8B029D61 SWAP1 PUSH1 0x84 ADD PUSH1 0x0 PUSH1 0x40 MLOAD DUP1 DUP4 SUB DUP2 PUSH1 0x0 DUP8 DUP1 EXTCODESIZE ISZERO DUP1 ISZERO PUSH2 0x16FD JUMPI PUSH1 0x0 DUP1 REVERT JUMPDEST POP GAS CALL ISZERO DUP1 ISZERO PUSH2 0x1711 JUMPI RETURNDATASIZE PUSH1 0x0 DUP1 RETURNDATACOPY RETURNDATASIZE PUSH1 0x0 REVERT JUMPDEST POP POP POP POP PUSH2 0x172E DUP7 PUSH1 0x80 ADD MLOAD PUSH1 0x20 ADD MLOAD PUSH1 0x7 SLOAD PUSH2 0xA3B SWAP2 SWAP1 PUSH2 0x3250 JUMP JUMPDEST PUSH1 0x60 DUP7 ADD MLOAD DUP1 MLOAD PUSH1 0x20 SWAP2 DUP3 ADD MLOAD PUSH1 0x1 PUSH1 0x1 PUSH1 0xA0 SHL SUB DUP3 AND PUSH1 0x0 SWAP1 DUP2 MSTORE PUSH1 0xC SWAP1 SWAP4 MSTORE PUSH1 0x40 SWAP1 SWAP3 KECCAK256 SLOAD PUSH2 0x1762 SWAP3 PUSH2 0xAAB SWAP2 PUSH2 0x3250 JUMP JUMPDEST PUSH1 0xA0 DUP7 ADD MLOAD DUP1 MLOAD PUSH1 0x20 SWAP2 DUP3 ADD MLOAD PUSH1 0x1 PUSH1 0x1 PUSH1 0xA0 SHL SUB DUP3 AND PUSH1 0x0 SWAP1 DUP2 MSTORE PUSH1 0xD SWAP1 SWAP4 MSTORE PUSH1 0x40 SWAP1 SWAP3 KECCAK256 SLOAD PUSH2 0x1796 SWAP3 PUSH2 0xAE1 SWAP2 PUSH2 0x3250 JUMP JUMPDEST DUP6 MLOAD PUSH1 0x20 DUP8 ADD MLOAD PUSH1 0x40 MLOAD PUSH1 0x1 PUSH1 0x1 PUSH1 0xA0 SHL SUB SWAP1 SWAP2 AND SWAP1 CALLER SWAP1 PUSH32 0x85535C0CD1B9136F87A221F9942FF85C2FD6BDA0767445C41A3FE870B7D18476 SWAP1 PUSH1 0x0 SWAP1 LOG4 POP POP PUSH1 0x1 PUSH1 0x0 SSTORE POP POP POP POP POP POP POP JUMP JUMPDEST PUSH1 0x1 SLOAD PUSH1 0x1 PUSH1 0x1 PUSH1 0xA0 SHL SUB AND ISZERO PUSH2 0x180E JUMPI PUSH1 0x40 MLOAD PUSH4 0x73E833B9 PUSH1 0xE1 SHL DUP2 MSTORE PUSH1 0x4 ADD PUSH1 0x40 MLOAD DUP1 SWAP2 SUB SWAP1 REVERT JUMPDEST PUSH1 0x1 DUP1 SLOAD PUSH1 0x1 PUSH1 0x1 PUSH1 0xA0 SHL SUB DUP1 DUP8 AND PUSH1 0x1 PUSH1 0x1 PUSH1 0xA0 SHL SUB NOT SWAP3 DUP4 AND OR SWAP1 SWAP3 SSTORE PUSH1 0x2 DUP1 SLOAD DUP7 DUP5 AND SWAP1 DUP4 AND OR SWAP1 SSTORE PUSH1 0x3 DUP1 SLOAD SWAP3 DUP6 AND SWAP3 SWAP1 SWAP2 AND DUP3 OR SWAP1 SSTORE PUSH1 0x40 DUP1 MLOAD PUSH4 0x313CE567 PUSH1 0xE0 SHL DUP2 MSTORE SWAP1 MLOAD PUSH4 0x313CE567 SWAP2 PUSH1 0x4 DUP1 DUP3 ADD SWAP3 PUSH1 0x20 SWAP3 SWAP1 SWAP2 SWAP1 DUP3 SWAP1 SUB ADD DUP2 DUP7 DUP1 EXTCODESIZE ISZERO DUP1 ISZERO PUSH2 0x187F JUMPI PUSH1 0x0 DUP1 REVERT JUMPDEST POP GAS STATICCALL ISZERO DUP1 ISZERO PUSH2 0x1893 JUMPI RETURNDATASIZE PUSH1 0x0 DUP1 RETURNDATACOPY RETURNDATASIZE PUSH1 0x0 REVERT JUMPDEST POP POP POP POP PUSH1 0x40 MLOAD RETURNDATASIZE PUSH1 0x1F NOT PUSH1 0x1F DUP3 ADD AND DUP3 ADD DUP1 PUSH1 0x40 MSTORE POP DUP2 ADD SWAP1 PUSH2 0x18B7 SWAP2 SWAP1 PUSH2 0x2D10 JUMP JUMPDEST PUSH2 0x18C2 SWAP1 PUSH1 0xA PUSH2 0x3184 JUMP JUMPDEST PUSH1 0x4 SSTORE PUSH1 0x5 SSTORE POP POP POP JUMP JUMPDEST PUSH1 0x0 SLOAD PUSH1 0x1 EQ PUSH2 0x18F0 JUMPI PUSH1 0x40 MLOAD PUSH4 0x3CB96DB PUSH1 0xE2 SHL DUP2 MSTORE PUSH1 0x4 ADD PUSH1 0x40 MLOAD DUP1 SWAP2 SUB SWAP1 REVERT JUMPDEST POP PUSH1 0x1 PUSH1 0x0 SSTORE JUMP JUMPDEST PUSH1 0x0 DUP2 PUSH1 0x20 ADD MLOAD PUSH1 0x1 PUSH1 0x1 PUSH1 0xA0 SHL SUB AND DUP3 PUSH1 0x60 ADD MLOAD PUSH1 0x1 PUSH1 0x1 PUSH1 0xA0 SHL SUB AND EQ PUSH2 0x1B33 JUMPI PUSH1 0x60 DUP3 ADD MLOAD PUSH1 0x40 MLOAD PUSH4 0x70A08231 PUSH1 0xE0 SHL DUP2 MSTORE ADDRESS PUSH1 0x4 DUP3 ADD MSTORE PUSH1 0x0 SWAP2 PUSH1 0x1 PUSH1 0x1 PUSH1 0xA0 SHL SUB AND SWAP1 PUSH4 0x70A08231 SWAP1 PUSH1 0x24 ADD PUSH1 0x20 PUSH1 0x40 MLOAD DUP1 DUP4 SUB DUP2 DUP7 DUP1 EXTCODESIZE ISZERO DUP1 ISZERO PUSH2 0x1961 JUMPI PUSH1 0x0 DUP1 REVERT JUMPDEST POP GAS STATICCALL ISZERO DUP1 ISZERO PUSH2 0x1975 JUMPI RETURNDATASIZE PUSH1 0x0 DUP1 RETURNDATACOPY RETURNDATASIZE PUSH1 0x0 REVERT JUMPDEST POP POP POP POP PUSH1 0x40 MLOAD RETURNDATASIZE PUSH1 0x1F NOT PUSH1 0x1F DUP3 ADD AND DUP3 ADD DUP1 PUSH1 0x40 MSTORE POP DUP2 ADD SWAP1 PUSH2 0x1999 SWAP2 SWAP1 PUSH2 0x2AF0 JUMP JUMPDEST PUSH1 0x60 DUP5 ADD DUP1 MLOAD PUSH1 0x1 PUSH1 0x1 PUSH1 0xA0 SHL SUB SWAP1 DUP2 AND PUSH1 0x0 SWAP1 DUP2 MSTORE PUSH1 0xC PUSH1 0x20 SWAP1 DUP2 MSTORE PUSH1 0x40 DUP1 DUP4 KECCAK256 SLOAD SWAP5 MLOAD SWAP1 SWAP4 AND DUP3 MSTORE PUSH1 0xD SWAP1 MSTORE KECCAK256 SLOAD SWAP2 SWAP3 POP PUSH2 0x19D5 SWAP2 PUSH2 0x3107 JUMP JUMPDEST PUSH2 0x19DF SWAP1 DUP3 PUSH2 0x3250 JUMP JUMPDEST SWAP1 POP DUP3 PUSH1 0x40 ADD MLOAD PUSH1 0x1 PUSH1 0x1 PUSH1 0xA0 SHL SUB AND DUP4 PUSH1 0x60 ADD MLOAD PUSH1 0x1 PUSH1 0x1 PUSH1 0xA0 SHL SUB AND EQ ISZERO PUSH2 0x1A3A JUMPI PUSH1 0x9 SLOAD PUSH1 0x8 SLOAD PUSH1 0x7 SLOAD PUSH1 0x6 SLOAD PUSH2 0x1A19 SWAP2 SWAP1 PUSH2 0x3250 JUMP JUMPDEST PUSH2 0x1A23 SWAP2 SWAP1 PUSH2 0x3250 JUMP JUMPDEST PUSH2 0x1A2D SWAP2 SWAP1 PUSH2 0x3250 JUMP JUMPDEST PUSH2 0x1A37 SWAP1 DUP3 PUSH2 0x3250 JUMP JUMPDEST SWAP1 POP JUMPDEST DUP3 PUSH1 0xC0 ADD MLOAD DUP2 LT ISZERO PUSH2 0x1A4F JUMPI POP PUSH1 0x0 SWAP3 SWAP2 POP POP JUMP JUMPDEST PUSH1 0x20 DUP4 ADD MLOAD PUSH1 0x40 MLOAD PUSH4 0x70A08231 PUSH1 0xE0 SHL DUP2 MSTORE ADDRESS PUSH1 0x4 DUP3 ADD MSTORE PUSH1 0x0 SWAP2 PUSH1 0x1 PUSH1 0x1 PUSH1 0xA0 SHL SUB AND SWAP1 PUSH4 0x70A08231 SWAP1 PUSH1 0x24 ADD PUSH1 0x20 PUSH1 0x40 MLOAD DUP1 DUP4 SUB DUP2 DUP7 DUP1 EXTCODESIZE ISZERO DUP1 ISZERO PUSH2 0x1A95 JUMPI PUSH1 0x0 DUP1 REVERT JUMPDEST POP GAS STATICCALL ISZERO DUP1 ISZERO PUSH2 0x1AA9 JUMPI RETURNDATASIZE PUSH1 0x0 DUP1 RETURNDATACOPY RETURNDATASIZE PUSH1 0x0 REVERT JUMPDEST POP POP POP POP PUSH1 0x40 MLOAD RETURNDATASIZE PUSH1 0x1F NOT PUSH1 0x1F DUP3 ADD AND DUP3 ADD DUP1 PUSH1 0x40 MSTORE POP DUP2 ADD SWAP1 PUSH2 0x1ACD SWAP2 SWAP1 PUSH2 0x2AF0 JUMP JUMPDEST PUSH1 0x20 DUP1 DUP7 ADD DUP1 MLOAD PUSH1 0x1 PUSH1 0x1 PUSH1 0xA0 SHL SUB SWAP1 DUP2 AND PUSH1 0x0 SWAP1 DUP2 MSTORE PUSH1 0xC DUP5 MSTORE PUSH1 0x40 DUP1 DUP3 KECCAK256 SLOAD SWAP4 MLOAD SWAP1 SWAP3 AND DUP2 MSTORE PUSH1 0xD SWAP1 SWAP4 MSTORE SWAP1 SWAP2 KECCAK256 SLOAD SWAP2 SWAP3 POP PUSH2 0x1B0A SWAP2 PUSH2 0x3107 JUMP JUMPDEST PUSH2 0x1B14 SWAP1 DUP3 PUSH2 0x3250 JUMP JUMPDEST SWAP1 POP DUP4 PUSH1 0x80 ADD MLOAD DUP2 LT ISZERO PUSH2 0x1B2C JUMPI POP PUSH1 0x0 SWAP4 SWAP3 POP POP POP JUMP JUMPDEST POP POP PUSH2 0x1C1F JUMP JUMPDEST PUSH1 0x60 DUP3 ADD MLOAD PUSH1 0x40 MLOAD PUSH4 0x70A08231 PUSH1 0xE0 SHL DUP2 MSTORE ADDRESS PUSH1 0x4 DUP3 ADD MSTORE PUSH1 0x0 SWAP2 PUSH1 0x1 PUSH1 0x1 PUSH1 0xA0 SHL SUB AND SWAP1 PUSH4 0x70A08231 SWAP1 PUSH1 0x24 ADD PUSH1 0x20 PUSH1 0x40 MLOAD DUP1 DUP4 SUB DUP2 DUP7 DUP1 EXTCODESIZE ISZERO DUP1 ISZERO PUSH2 0x1B79 JUMPI PUSH1 0x0 DUP1 REVERT JUMPDEST POP GAS STATICCALL ISZERO DUP1 ISZERO PUSH2 0x1B8D JUMPI RETURNDATASIZE PUSH1 0x0 DUP1 RETURNDATACOPY RETURNDATASIZE PUSH1 0x0 REVERT JUMPDEST POP POP POP POP PUSH1 0x40 MLOAD RETURNDATASIZE PUSH1 0x1F NOT PUSH1 0x1F DUP3 ADD AND DUP3 ADD DUP1 PUSH1 0x40 MSTORE POP DUP2 ADD SWAP1 PUSH2 0x1BB1 SWAP2 SWAP1 PUSH2 0x2AF0 JUMP JUMPDEST PUSH1 0x60 DUP5 ADD DUP1 MLOAD PUSH1 0x1 PUSH1 0x1 PUSH1 0xA0 SHL SUB SWAP1 DUP2 AND PUSH1 0x0 SWAP1 DUP2 MSTORE PUSH1 0xC PUSH1 0x20 SWAP1 DUP2 MSTORE PUSH1 0x40 DUP1 DUP4 KECCAK256 SLOAD SWAP5 MLOAD SWAP1 SWAP4 AND DUP3 MSTORE PUSH1 0xD SWAP1 MSTORE KECCAK256 SLOAD SWAP2 SWAP3 POP PUSH2 0x1BED SWAP2 PUSH2 0x3107 JUMP JUMPDEST PUSH2 0x1BF7 SWAP1 DUP3 PUSH2 0x3250 JUMP JUMPDEST SWAP1 POP DUP3 PUSH1 0x80 ADD MLOAD DUP4 PUSH1 0xC0 ADD MLOAD PUSH2 0x1C0D SWAP2 SWAP1 PUSH2 0x3107 JUMP JUMPDEST DUP2 LT ISZERO PUSH2 0x1C1D JUMPI POP PUSH1 0x0 SWAP3 SWAP2 POP POP JUMP JUMPDEST POP JUMPDEST POP PUSH1 0x1 SWAP2 SWAP1 POP JUMP JUMPDEST PUSH1 0x3 SLOAD PUSH1 0x40 MLOAD PUSH4 0x70A08231 PUSH1 0xE0 SHL DUP2 MSTORE ADDRESS PUSH1 0x4 DUP3 ADD MSTORE PUSH1 0x0 SWAP2 PUSH1 0x1 PUSH1 0x1 PUSH1 0xA0 SHL SUB AND SWAP1 DUP3 SWAP1 DUP3 SWAP1 PUSH4 0x70A08231 SWAP1 PUSH1 0x24 ADD PUSH1 0x20 PUSH1 0x40 MLOAD DUP1 DUP4 SUB DUP2 DUP7 DUP1 EXTCODESIZE ISZERO DUP1 ISZERO PUSH2 0x1C6F JUMPI PUSH1 0x0 DUP1 REVERT JUMPDEST POP GAS STATICCALL ISZERO DUP1 ISZERO PUSH2 0x1C83 JUMPI RETURNDATASIZE PUSH1 0x0 DUP1 RETURNDATACOPY RETURNDATASIZE PUSH1 0x0 REVERT JUMPDEST POP POP POP POP PUSH1 0x40 MLOAD RETURNDATASIZE PUSH1 0x1F NOT PUSH1 0x1F DUP3 ADD AND DUP3 ADD DUP1 PUSH1 0x40 MSTORE POP DUP2 ADD SWAP1 PUSH2 0x1CA7 SWAP2 SWAP1 PUSH2 0x2AF0 JUMP JUMPDEST PUSH1 0x9 SLOAD PUSH1 0x8 SLOAD PUSH1 0x1 PUSH1 0x1 PUSH1 0xA0 SHL SUB DUP6 AND PUSH1 0x0 SWAP1 DUP2 MSTORE PUSH1 0xD PUSH1 0x20 MSTORE PUSH1 0x40 SWAP1 KECCAK256 SLOAD SWAP3 SWAP4 POP SWAP1 SWAP2 PUSH2 0x1CD5 SWAP1 DUP5 PUSH2 0x3250 JUMP JUMPDEST PUSH2 0x1CDF SWAP2 SWAP1 PUSH2 0x3250 JUMP JUMPDEST PUSH2 0x1CE9 SWAP2 SWAP1 PUSH2 0x3250 JUMP JUMPDEST SWAP3 POP POP POP SWAP1 JUMP JUMPDEST PUSH1 0x7 DUP2 SWAP1 SSTORE PUSH1 0x40 MLOAD DUP2 DUP2 MSTORE PUSH32 0x26A8DB85DD35B30712C42AE882DE1D59C395AED810477ED980623164802CF142 SWAP1 PUSH1 0x20 ADD PUSH2 0x5E0 JUMP JUMPDEST DUP1 PUSH1 0x8 PUSH1 0x0 DUP3 DUP3 SLOAD PUSH2 0x1D37 SWAP2 SWAP1 PUSH2 0x3107 JUMP JUMPDEST SWAP1 SWAP2 SSTORE POP POP PUSH1 0x6 SLOAD PUSH1 0x4 SLOAD PUSH2 0x1D4C SWAP1 DUP4 PUSH2 0x3231 JUMP JUMPDEST PUSH2 0x1D56 SWAP2 SWAP1 PUSH2 0x311F JUMP JUMPDEST PUSH1 0xA PUSH1 0x0 DUP3 DUP3 SLOAD PUSH2 0x1D67 SWAP2 SWAP1 PUSH2 0x3107 JUMP JUMPDEST SWAP1 SWAP2 SSTORE POP POP PUSH1 0x8 SLOAD PUSH1 0x40 MLOAD SWAP1 DUP2 MSTORE PUSH32 0x38E229A7F3F9C329892D08EB37C4E91CCAC6D12C798D394990CA4F56028EC266 SWAP1 PUSH1 0x20 ADD PUSH2 0x5E0 JUMP JUMPDEST PUSH1 0x9 DUP2 SWAP1 SSTORE PUSH1 0x40 MLOAD DUP2 DUP2 MSTORE PUSH32 0x2F1BB46A1DD6774772E223BFA9C733CEA598E6B1AC69187D1C614A04CFD1C36 SWAP1 PUSH1 0x20 ADD PUSH2 0x5E0 JUMP JUMPDEST PUSH1 0x1 PUSH1 0x1 PUSH1 0xA0 SHL SUB DUP3 AND PUSH1 0x0 DUP2 DUP2 MSTORE PUSH1 0xC PUSH1 0x20 SWAP1 DUP2 MSTORE PUSH1 0x40 SWAP2 DUP3 SWAP1 KECCAK256 DUP5 SWAP1 SSTORE DUP2 MLOAD SWAP3 DUP4 MSTORE DUP3 ADD DUP4 SWAP1 MSTORE PUSH32 0x650AA761FA5F576577CDC0C020D74FA8BB091213A82EE311B7A274D9AA4F9559 SWAP2 ADD JUMPDEST PUSH1 0x40 MLOAD DUP1 SWAP2 SUB SWAP1 LOG1 POP POP JUMP JUMPDEST PUSH1 0x1 PUSH1 0x1 PUSH1 0xA0 SHL SUB DUP3 AND PUSH1 0x0 DUP2 DUP2 MSTORE PUSH1 0xD PUSH1 0x20 SWAP1 DUP2 MSTORE PUSH1 0x40 SWAP2 DUP3 SWAP1 KECCAK256 DUP5 SWAP1 SSTORE DUP2 MLOAD SWAP3 DUP4 MSTORE DUP3 ADD DUP4 SWAP1 MSTORE PUSH32 0x63EB39417416506DC369967FBA1B44E6418801A4A6845581C06CADA91448C5C3 SWAP2 ADD PUSH2 0x1E21 JUMP JUMPDEST PUSH1 0x2 SLOAD PUSH1 0x1 PUSH1 0x1 PUSH1 0xA0 SHL SUB SWAP1 DUP2 AND SWAP1 DUP6 AND DUP2 EQ DUP1 ISZERO PUSH2 0x1E9A JUMPI POP DUP2 JUMPDEST ISZERO PUSH2 0x1F9E JUMPI PUSH1 0x40 MLOAD PUSH4 0x2E1A7D4D PUSH1 0xE0 SHL DUP2 MSTORE PUSH1 0x4 DUP2 ADD DUP5 SWAP1 MSTORE PUSH1 0x1 PUSH1 0x1 PUSH1 0xA0 SHL SUB DUP3 AND SWAP1 PUSH4 0x2E1A7D4D SWAP1 PUSH1 0x24 ADD PUSH1 0x0 PUSH1 0x40 MLOAD DUP1 DUP4 SUB DUP2 PUSH1 0x0 DUP8 DUP1 EXTCODESIZE ISZERO DUP1 ISZERO PUSH2 0x1EE1 JUMPI PUSH1 0x0 DUP1 REVERT JUMPDEST POP GAS CALL ISZERO DUP1 ISZERO PUSH2 0x1EF5 JUMPI RETURNDATASIZE PUSH1 0x0 DUP1 RETURNDATACOPY RETURNDATASIZE PUSH1 0x0 REVERT JUMPDEST POP POP PUSH1 0x40 DUP1 MLOAD PUSH1 0x0 DUP1 DUP3 MSTORE PUSH1 0x20 DUP3 ADD SWAP3 DUP4 SWAP1 MSTORE SWAP4 POP PUSH1 0x1 PUSH1 0x1 PUSH1 0xA0 SHL SUB DUP9 AND SWAP3 POP DUP7 SWAP2 PUSH2 0x1F22 SWAP2 SWAP1 PUSH2 0x2D9C JUMP JUMPDEST PUSH1 0x0 PUSH1 0x40 MLOAD DUP1 DUP4 SUB DUP2 DUP6 DUP8 GAS CALL SWAP3 POP POP POP RETURNDATASIZE DUP1 PUSH1 0x0 DUP2 EQ PUSH2 0x1F5F JUMPI PUSH1 0x40 MLOAD SWAP2 POP PUSH1 0x1F NOT PUSH1 0x3F RETURNDATASIZE ADD AND DUP3 ADD PUSH1 0x40 MSTORE RETURNDATASIZE DUP3 MSTORE RETURNDATASIZE PUSH1 0x0 PUSH1 0x20 DUP5 ADD RETURNDATACOPY PUSH2 0x1F64 JUMP JUMPDEST PUSH1 0x60 SWAP2 POP JUMPDEST POP POP SWAP1 POP DUP1 PUSH2 0x1F98 JUMPI PUSH1 0x40 MLOAD PUSH4 0x6F54AFDD PUSH1 0xE1 SHL DUP2 MSTORE PUSH1 0x1 PUSH1 0x1 PUSH1 0xA0 SHL SUB DUP7 AND PUSH1 0x4 DUP3 ADD MSTORE PUSH1 0x24 DUP2 ADD DUP6 SWAP1 MSTORE PUSH1 0x44 ADD PUSH2 0x5A6 JUMP JUMPDEST POP PUSH2 0x20D3 JUMP JUMPDEST PUSH1 0x40 DUP1 MLOAD DUP1 DUP3 ADD DUP3 MSTORE PUSH1 0x19 DUP2 MSTORE PUSH32 0x7472616E7366657228616464726573732C75696E743235362900000000000000 PUSH1 0x20 SWAP2 DUP3 ADD MSTORE DUP2 MLOAD PUSH1 0x1 PUSH1 0x1 PUSH1 0xA0 SHL SUB DUP8 DUP2 AND PUSH1 0x24 DUP4 ADD MSTORE PUSH1 0x44 DUP1 DUP4 ADD DUP9 SWAP1 MSTORE DUP5 MLOAD DUP1 DUP5 SUB SWAP1 SWAP2 ADD DUP2 MSTORE PUSH1 0x64 SWAP1 SWAP3 ADD DUP5 MSTORE SWAP2 DUP2 ADD DUP1 MLOAD PUSH1 0x1 PUSH1 0x1 PUSH1 0xE0 SHL SUB AND PUSH4 0xA9059CBB PUSH1 0xE0 SHL OR SWAP1 MSTORE SWAP2 MLOAD PUSH1 0x0 SWAP3 DUP4 SWAP3 DUP10 AND SWAP2 PUSH2 0x202A SWAP2 SWAP1 PUSH2 0x2D9C JUMP JUMPDEST PUSH1 0x0 PUSH1 0x40 MLOAD DUP1 DUP4 SUB DUP2 PUSH1 0x0 DUP7 GAS CALL SWAP2 POP POP RETURNDATASIZE DUP1 PUSH1 0x0 DUP2 EQ PUSH2 0x2067 JUMPI PUSH1 0x40 MLOAD SWAP2 POP PUSH1 0x1F NOT PUSH1 0x3F RETURNDATASIZE ADD AND DUP3 ADD PUSH1 0x40 MSTORE RETURNDATASIZE DUP3 MSTORE RETURNDATASIZE PUSH1 0x0 PUSH1 0x20 DUP5 ADD RETURNDATACOPY PUSH2 0x206C JUMP JUMPDEST PUSH1 0x60 SWAP2 POP JUMPDEST POP SWAP2 POP SWAP2 POP DUP2 ISZERO DUP1 PUSH2 0x2098 JUMPI POP DUP1 MLOAD ISZERO DUP1 PUSH2 0x2096 JUMPI POP DUP1 DUP1 PUSH1 0x20 ADD SWAP1 MLOAD DUP2 ADD SWAP1 PUSH2 0x2096 SWAP2 SWAP1 PUSH2 0x2ABA JUMP JUMPDEST ISZERO JUMPDEST ISZERO PUSH2 0x20D0 JUMPI PUSH1 0x40 MLOAD PUSH4 0x17E3057D PUSH1 0xE3 SHL DUP2 MSTORE PUSH1 0x1 PUSH1 0x1 PUSH1 0xA0 SHL SUB DUP1 DUP10 AND PUSH1 0x4 DUP4 ADD MSTORE DUP8 AND PUSH1 0x24 DUP3 ADD MSTORE PUSH1 0x44 DUP2 ADD DUP7 SWAP1 MSTORE PUSH1 0x64 ADD PUSH2 0x5A6 JUMP JUMPDEST POP POP JUMPDEST POP POP POP POP POP JUMP JUMPDEST PUSH1 0x6 DUP2 SWAP1 SSTORE PUSH1 0x40 MLOAD DUP2 DUP2 MSTORE PUSH32 0x44141ECEE2FB3C75D1699B968FA546A18DFA4EE1D705699D81751270B385951 SWAP1 PUSH1 0x20 ADD PUSH2 0x5E0 JUMP JUMPDEST PUSH1 0x9 SLOAD DUP1 ISZERO PUSH2 0x21CB JUMPI PUSH1 0x1 SLOAD PUSH1 0x40 DUP1 MLOAD PUSH4 0x779B4929 PUSH1 0xE1 SHL DUP2 MSTORE SWAP1 MLOAD PUSH1 0x0 SWAP3 PUSH1 0x1 PUSH1 0x1 PUSH1 0xA0 SHL SUB AND SWAP2 PUSH4 0xEF369252 SWAP2 PUSH1 0x4 DUP1 DUP4 ADD SWAP3 PUSH1 0x20 SWAP3 SWAP2 SWAP1 DUP3 SWAP1 SUB ADD DUP2 DUP7 DUP1 EXTCODESIZE ISZERO DUP1 ISZERO PUSH2 0x215D JUMPI PUSH1 0x0 DUP1 REVERT JUMPDEST POP GAS STATICCALL ISZERO DUP1 ISZERO PUSH2 0x2171 JUMPI RETURNDATASIZE PUSH1 0x0 DUP1 RETURNDATACOPY RETURNDATASIZE PUSH1 0x0 REVERT JUMPDEST POP POP POP POP PUSH1 0x40 MLOAD RETURNDATASIZE PUSH1 0x1F NOT PUSH1 0x1F DUP3 ADD AND DUP3 ADD DUP1 PUSH1 0x40 MSTORE POP DUP2 ADD SWAP1 PUSH2 0x2195 SWAP2 SWAP1 PUSH2 0x289B JUMP JUMPDEST SWAP1 POP PUSH1 0x1 PUSH1 0x1 PUSH1 0xA0 SHL SUB DUP2 AND ISZERO PUSH2 0x21C9 JUMPI PUSH2 0x21B0 PUSH1 0x0 PUSH2 0x1D9F JUMP JUMPDEST PUSH1 0x3 SLOAD PUSH2 0x21C9 SWAP1 PUSH1 0x1 PUSH1 0x1 PUSH1 0xA0 SHL SUB AND DUP3 DUP5 PUSH1 0x0 PUSH2 0x1E7E JUMP JUMPDEST POP JUMPDEST POP JUMP JUMPDEST PUSH1 0x80 DUP5 ADD MLOAD MLOAD PUSH1 0x40 MLOAD PUSH4 0x70A08231 PUSH1 0xE0 SHL DUP2 MSTORE ADDRESS PUSH1 0x4 DUP3 ADD MSTORE PUSH1 0x0 SWAP2 PUSH1 0x1 PUSH1 0x1 PUSH1 0xA0 SHL SUB AND SWAP1 PUSH4 0x70A08231 SWAP1 PUSH1 0x24 ADD PUSH1 0x20 PUSH1 0x40 MLOAD DUP1 DUP4 SUB DUP2 DUP7 DUP1 EXTCODESIZE ISZERO DUP1 ISZERO PUSH2 0x2215 JUMPI PUSH1 0x0 DUP1 REVERT JUMPDEST POP GAS STATICCALL ISZERO DUP1 ISZERO PUSH2 0x2229 JUMPI RETURNDATASIZE PUSH1 0x0 DUP1 RETURNDATACOPY RETURNDATASIZE PUSH1 0x0 REVERT JUMPDEST POP POP POP POP PUSH1 0x40 MLOAD RETURNDATASIZE PUSH1 0x1F NOT PUSH1 0x1F DUP3 ADD AND DUP3 ADD DUP1 PUSH1 0x40 MSTORE POP DUP2 ADD SWAP1 PUSH2 0x224D SWAP2 SWAP1 PUSH2 0x2AF0 JUMP JUMPDEST SWAP1 POP PUSH2 0x226C DUP6 PUSH1 0x60 ADD MLOAD PUSH1 0x0 ADD MLOAD CALLER DUP8 PUSH1 0x60 ADD MLOAD PUSH1 0x20 ADD MLOAD PUSH1 0x0 PUSH2 0x1E7E JUMP JUMPDEST PUSH1 0x60 DUP6 ADD MLOAD MLOAD PUSH1 0x80 DUP7 ADD MLOAD MLOAD PUSH1 0x40 MLOAD PUSH4 0x39D87E77 PUSH1 0xE2 SHL DUP2 MSTORE CALLER SWAP3 PUSH4 0xE761F9DC SWAP3 PUSH2 0x229F SWAP3 DUP10 SWAP1 DUP10 SWAP1 DUP10 SWAP1 PUSH1 0x4 ADD PUSH2 0x2DD7 JUMP JUMPDEST PUSH1 0x0 PUSH1 0x40 MLOAD DUP1 DUP4 SUB DUP2 PUSH1 0x0 DUP8 DUP1 EXTCODESIZE ISZERO DUP1 ISZERO PUSH2 0x22B9 JUMPI PUSH1 0x0 DUP1 REVERT JUMPDEST POP GAS CALL ISZERO DUP1 ISZERO PUSH2 0x22CD JUMPI RETURNDATASIZE PUSH1 0x0 DUP1 RETURNDATACOPY RETURNDATASIZE PUSH1 0x0 REVERT JUMPDEST POP POP POP POP PUSH1 0x80 DUP6 ADD MLOAD MLOAD PUSH1 0x40 MLOAD PUSH4 0x70A08231 PUSH1 0xE0 SHL DUP2 MSTORE ADDRESS PUSH1 0x4 DUP3 ADD MSTORE PUSH1 0x0 SWAP2 PUSH1 0x1 PUSH1 0x1 PUSH1 0xA0 SHL SUB AND SWAP1 PUSH4 0x70A08231 SWAP1 PUSH1 0x24 ADD PUSH1 0x20 PUSH1 0x40 MLOAD DUP1 DUP4 SUB DUP2 DUP7 DUP1 EXTCODESIZE ISZERO DUP1 ISZERO PUSH2 0x2318 JUMPI PUSH1 0x0 DUP1 REVERT JUMPDEST POP GAS STATICCALL ISZERO DUP1 ISZERO PUSH2 0x232C JUMPI RETURNDATASIZE PUSH1 0x0 DUP1 RETURNDATACOPY RETURNDATASIZE PUSH1 0x0 REVERT JUMPDEST POP POP POP POP PUSH1 0x40 MLOAD RETURNDATASIZE PUSH1 0x1F NOT PUSH1 0x1F DUP3 ADD AND DUP3 ADD DUP1 PUSH1 0x40 MSTORE POP DUP2 ADD SWAP1 PUSH2 0x2350 SWAP2 SWAP1 PUSH2 0x2AF0 JUMP JUMPDEST SWAP1 POP PUSH2 0x235C DUP6 DUP4 PUSH2 0x3107 JUMP JUMPDEST DUP2 LT ISZERO PUSH2 0x237C JUMPI PUSH1 0x40 MLOAD PUSH4 0xF8B3BB61 PUSH1 0xE0 SHL DUP2 MSTORE PUSH1 0x4 ADD PUSH1 0x40 MLOAD DUP1 SWAP2 SUB SWAP1 REVERT JUMPDEST POP POP POP POP POP POP JUMP JUMPDEST PUSH1 0xA0 DUP6 ADD MLOAD MLOAD PUSH1 0x40 MLOAD PUSH4 0x70A08231 PUSH1 0xE0 SHL DUP2 MSTORE ADDRESS PUSH1 0x4 DUP3 ADD MSTORE PUSH1 0x0 SWAP2 DUP3 SWAP2 PUSH1 0x1 PUSH1 0x1 PUSH1 0xA0 SHL SUB SWAP1 SWAP2 AND SWAP1 PUSH4 0x70A08231 SWAP1 PUSH1 0x24 ADD PUSH1 0x20 PUSH1 0x40 MLOAD DUP1 DUP4 SUB DUP2 DUP7 DUP1 EXTCODESIZE ISZERO DUP1 ISZERO PUSH2 0x23CF JUMPI PUSH1 0x0 DUP1 REVERT JUMPDEST POP GAS STATICCALL ISZERO DUP1 ISZERO PUSH2 0x23E3 JUMPI RETURNDATASIZE PUSH1 0x0 DUP1 RETURNDATACOPY RETURNDATASIZE PUSH1 0x0 REVERT JUMPDEST POP POP POP POP PUSH1 0x40 MLOAD RETURNDATASIZE PUSH1 0x1F NOT PUSH1 0x1F DUP3 ADD AND DUP3 ADD DUP1 PUSH1 0x40 MSTORE POP DUP2 ADD SWAP1 PUSH2 0x2407 SWAP2 SWAP1 PUSH2 0x2AF0 JUMP JUMPDEST PUSH1 0x80 DUP9 ADD MLOAD MLOAD PUSH1 0x40 MLOAD PUSH4 0x70A08231 PUSH1 0xE0 SHL DUP2 MSTORE ADDRESS PUSH1 0x4 DUP3 ADD MSTORE SWAP2 SWAP3 POP PUSH1 0x0 SWAP2 PUSH1 0x1 PUSH1 0x1 PUSH1 0xA0 SHL SUB SWAP1 SWAP2 AND SWAP1 PUSH4 0x70A08231 SWAP1 PUSH1 0x24 ADD PUSH1 0x20 PUSH1 0x40 MLOAD DUP1 DUP4 SUB DUP2 DUP7 DUP1 EXTCODESIZE ISZERO DUP1 ISZERO PUSH2 0x2453 JUMPI PUSH1 0x0 DUP1 REVERT JUMPDEST POP GAS STATICCALL ISZERO DUP1 ISZERO PUSH2 0x2467 JUMPI RETURNDATASIZE PUSH1 0x0 DUP1 RETURNDATACOPY RETURNDATASIZE PUSH1 0x0 REVERT JUMPDEST POP POP POP POP PUSH1 0x40 MLOAD RETURNDATASIZE PUSH1 0x1F NOT PUSH1 0x1F DUP3 ADD AND DUP3 ADD DUP1 PUSH1 0x40 MSTORE POP DUP2 ADD SWAP1 PUSH2 0x248B SWAP2 SWAP1 PUSH2 0x2AF0 JUMP JUMPDEST SWAP1 POP PUSH2 0x24A2 DUP9 PUSH1 0xA0 ADD MLOAD PUSH1 0x0 ADD MLOAD CALLER DUP10 PUSH1 0x0 PUSH2 0x1E7E JUMP JUMPDEST PUSH1 0xA0 DUP9 ADD MLOAD MLOAD PUSH1 0x80 DUP10 ADD MLOAD MLOAD PUSH1 0x40 MLOAD PUSH4 0x39D87E77 PUSH1 0xE2 SHL DUP2 MSTORE CALLER SWAP3 PUSH4 0xE761F9DC SWAP3 PUSH2 0x24D5 SWAP3 DUP12 SWAP1 DUP12 SWAP1 DUP12 SWAP1 PUSH1 0x4 ADD PUSH2 0x2DD7 JUMP JUMPDEST PUSH1 0x0 PUSH1 0x40 MLOAD DUP1 DUP4 SUB DUP2 PUSH1 0x0 DUP8 DUP1 EXTCODESIZE ISZERO DUP1 ISZERO PUSH2 0x24EF JUMPI PUSH1 0x0 DUP1 REVERT JUMPDEST POP GAS CALL ISZERO DUP1 ISZERO PUSH2 0x2503 JUMPI RETURNDATASIZE PUSH1 0x0 DUP1 RETURNDATACOPY RETURNDATASIZE PUSH1 0x0 REVERT JUMPDEST POP POP POP POP PUSH1 0xA0 DUP9 ADD MLOAD MLOAD PUSH1 0x40 MLOAD PUSH4 0x70A08231 PUSH1 0xE0 SHL DUP2 MSTORE ADDRESS PUSH1 0x4 DUP3 ADD MSTORE PUSH1 0x0 SWAP2 PUSH1 0x1 PUSH1 0x1 PUSH1 0xA0 SHL SUB AND SWAP1 PUSH4 0x70A08231 SWAP1 PUSH1 0x24 ADD PUSH1 0x20 PUSH1 0x40 MLOAD DUP1 DUP4 SUB DUP2 DUP7 DUP1 EXTCODESIZE ISZERO DUP1 ISZERO PUSH2 0x254E JUMPI PUSH1 0x0 DUP1 REVERT JUMPDEST POP GAS STATICCALL ISZERO DUP1 ISZERO PUSH2 0x2562 JUMPI RETURNDATASIZE PUSH1 0x0 DUP1 RETURNDATACOPY RETURNDATASIZE PUSH1 0x0 REVERT JUMPDEST POP POP POP POP PUSH1 0x40 MLOAD RETURNDATASIZE PUSH1 0x1F NOT PUSH1 0x1F DUP3 ADD AND DUP3 ADD DUP1 PUSH1 0x40 MSTORE POP DUP2 ADD SWAP1 PUSH2 0x2586 SWAP2 SWAP1 PUSH2 0x2AF0 JUMP JUMPDEST PUSH1 0x80 DUP11 ADD MLOAD MLOAD PUSH1 0x40 MLOAD PUSH4 0x70A08231 PUSH1 0xE0 SHL DUP2 MSTORE ADDRESS PUSH1 0x4 DUP3 ADD MSTORE SWAP2 SWAP3 POP PUSH1 0x0 SWAP2 PUSH1 0x1 PUSH1 0x1 PUSH1 0xA0 SHL SUB SWAP1 SWAP2 AND SWAP1 PUSH4 0x70A08231 SWAP1 PUSH1 0x24 ADD PUSH1 0x20 PUSH1 0x40 MLOAD DUP1 DUP4 SUB DUP2 DUP7 DUP1 EXTCODESIZE ISZERO DUP1 ISZERO PUSH2 0x25D2 JUMPI PUSH1 0x0 DUP1 REVERT JUMPDEST POP GAS STATICCALL ISZERO DUP1 ISZERO PUSH2 0x25E6 JUMPI RETURNDATASIZE PUSH1 0x0 DUP1 RETURNDATACOPY RETURNDATASIZE PUSH1 0x0 REVERT JUMPDEST POP POP POP POP PUSH1 0x40 MLOAD RETURNDATASIZE PUSH1 0x1F NOT PUSH1 0x1F DUP3 ADD AND DUP3 ADD DUP1 PUSH1 0x40 MSTORE POP DUP2 ADD SWAP1 PUSH2 0x260A SWAP2 SWAP1 PUSH2 0x2AF0 JUMP JUMPDEST SWAP1 POP PUSH2 0x2616 DUP9 DUP5 PUSH2 0x3107 JUMP JUMPDEST DUP2 LT ISZERO PUSH2 0x2636 JUMPI PUSH1 0x40 MLOAD PUSH4 0xF8B3BB61 PUSH1 0xE0 SHL DUP2 MSTORE PUSH1 0x4 ADD PUSH1 0x40 MLOAD DUP1 SWAP2 SUB SWAP1 REVERT JUMPDEST PUSH2 0x2640 DUP10 DUP6 PUSH2 0x3250 JUMP JUMPDEST PUSH2 0x264A SWAP1 DUP4 PUSH2 0x3250 JUMP JUMPDEST SWAP11 SWAP10 POP POP POP POP POP POP POP POP POP POP JUMP JUMPDEST DUP1 CALLDATALOAD PUSH2 0x2663 DUP2 PUSH2 0x32DA JUMP JUMPDEST SWAP2 SWAP1 POP JUMP JUMPDEST DUP1 MLOAD PUSH2 0x2663 DUP2 PUSH2 0x32DA JUMP JUMPDEST PUSH1 0x0 DUP3 PUSH1 0x1F DUP4 ADD SLT PUSH2 0x2684 JUMPI PUSH1 0x0 DUP1 REVERT JUMPDEST DUP2 CALLDATALOAD PUSH1 0x20 PUSH2 0x2699 PUSH2 0x2694 DUP4 PUSH2 0x30E3 JUMP JUMPDEST PUSH2 0x30B2 JUMP JUMPDEST DUP1 DUP4 DUP3 MSTORE DUP3 DUP3 ADD SWAP2 POP DUP3 DUP7 ADD DUP8 DUP5 DUP7 PUSH1 0x5 SHL DUP10 ADD ADD GT ISZERO PUSH2 0x26B9 JUMPI PUSH1 0x0 DUP1 REVERT JUMPDEST PUSH1 0x0 JUMPDEST DUP6 DUP2 LT ISZERO PUSH2 0x26E1 JUMPI DUP2 CALLDATALOAD PUSH2 0x26CF DUP2 PUSH2 0x32EF JUMP JUMPDEST DUP5 MSTORE SWAP3 DUP5 ADD SWAP3 SWAP1 DUP5 ADD SWAP1 PUSH1 0x1 ADD PUSH2 0x26BC JUMP JUMPDEST POP SWAP1 SWAP8 SWAP7 POP POP POP POP POP POP POP JUMP JUMPDEST DUP1 CALLDATALOAD PUSH2 0x2663 DUP2 PUSH2 0x32EF JUMP JUMPDEST PUSH1 0x0 PUSH1 0xC0 DUP3 DUP5 SUB SLT ISZERO PUSH2 0x270B JUMPI PUSH1 0x0 DUP1 REVERT JUMPDEST PUSH1 0x40 MLOAD PUSH1 0xC0 DUP2 ADD DUP2 DUP2 LT PUSH8 0xFFFFFFFFFFFFFFFF DUP3 GT OR ISZERO PUSH2 0x272E JUMPI PUSH2 0x272E PUSH2 0x32C4 JUMP JUMPDEST DUP1 PUSH1 0x40 MSTORE POP DUP1 SWAP2 POP DUP3 MLOAD PUSH2 0x2741 DUP2 PUSH2 0x32DA JUMP JUMPDEST DUP1 DUP3 MSTORE POP PUSH1 0x20 DUP4 ADD MLOAD PUSH1 0x20 DUP3 ADD MSTORE PUSH1 0x40 DUP4 ADD MLOAD PUSH1 0x40 DUP3 ADD MSTORE PUSH1 0x60 DUP4 ADD MLOAD PUSH1 0x60 DUP3 ADD MSTORE PUSH1 0x80 DUP4 ADD MLOAD PUSH1 0x80 DUP3 ADD MSTORE PUSH1 0xA0 DUP4 ADD MLOAD PUSH1 0xA0 DUP3 ADD MSTORE POP SWAP3 SWAP2 POP POP JUMP JUMPDEST PUSH1 0x0 PUSH1 0x40 DUP3 DUP5 SUB SLT ISZERO PUSH2 0x2790 JUMPI PUSH1 0x0 DUP1 REVERT JUMPDEST PUSH1 0x40 MLOAD PUSH1 0x40 DUP2 ADD DUP2 DUP2 LT PUSH8 0xFFFFFFFFFFFFFFFF DUP3 GT OR ISZERO PUSH2 0x27B3 JUMPI PUSH2 0x27B3 PUSH2 0x32C4 JUMP JUMPDEST DUP1 PUSH1 0x40 MSTORE POP DUP1 SWAP2 POP DUP3 MLOAD PUSH2 0x27C6 DUP2 PUSH2 0x32DA JUMP JUMPDEST DUP2 MSTORE PUSH1 0x20 SWAP3 DUP4 ADD MLOAD SWAP3 ADD SWAP2 SWAP1 SWAP2 MSTORE SWAP2 SWAP1 POP JUMP JUMPDEST PUSH1 0x0 PUSH1 0xA0 DUP3 DUP5 SUB SLT ISZERO PUSH2 0x27EB JUMPI PUSH1 0x0 DUP1 REVERT JUMPDEST PUSH1 0x40 MLOAD PUSH1 0xA0 DUP2 ADD DUP2 DUP2 LT PUSH8 0xFFFFFFFFFFFFFFFF DUP3 GT OR ISZERO PUSH2 0x280E JUMPI PUSH2 0x280E PUSH2 0x32C4 JUMP JUMPDEST DUP1 PUSH1 0x40 MSTORE POP DUP1 SWAP2 POP DUP3 MLOAD PUSH2 0x2821 DUP2 PUSH2 0x32EF JUMP JUMPDEST DUP2 MSTORE PUSH1 0x20 DUP4 ADD MLOAD PUSH2 0x2831 DUP2 PUSH2 0x32EF JUMP JUMPDEST PUSH1 0x20 DUP3 ADD MSTORE PUSH1 0x40 DUP4 ADD MLOAD PUSH2 0x2844 DUP2 PUSH2 0x32EF JUMP JUMPDEST PUSH1 0x40 DUP3 ADD MSTORE PUSH1 0x60 DUP4 ADD MLOAD PUSH2 0x2857 DUP2 PUSH2 0x32EF JUMP JUMPDEST PUSH1 0x60 DUP3 ADD MSTORE PUSH1 0x80 DUP4 ADD MLOAD PUSH2 0x286A DUP2 PUSH2 0x32EF JUMP JUMPDEST PUSH1 0x80 SWAP2 SWAP1 SWAP2 ADD MSTORE SWAP3 SWAP2 POP POP JUMP JUMPDEST PUSH1 0x0 PUSH1 0x20 DUP3 DUP5 SUB SLT ISZERO PUSH2 0x2889 JUMPI PUSH1 0x0 DUP1 REVERT JUMPDEST DUP2 CALLDATALOAD PUSH2 0x2894 DUP2 PUSH2 0x32DA JUMP JUMPDEST SWAP4 SWAP3 POP POP POP JUMP JUMPDEST PUSH1 0x0 PUSH1 0x20 DUP3 DUP5 SUB SLT ISZERO PUSH2 0x28AD JUMPI PUSH1 0x0 DUP1 REVERT JUMPDEST DUP2 MLOAD PUSH2 0x2894 DUP2 PUSH2 0x32DA JUMP JUMPDEST PUSH1 0x0 DUP1 PUSH1 0x0 DUP1 PUSH1 0x80 DUP6 DUP8 SUB SLT ISZERO PUSH2 0x28CE JUMPI PUSH1 0x0 DUP1 REVERT JUMPDEST DUP5 CALLDATALOAD PUSH2 0x28D9 DUP2 PUSH2 0x32DA JUMP JUMPDEST SWAP4 POP PUSH1 0x20 DUP6 ADD CALLDATALOAD PUSH2 0x28E9 DUP2 PUSH2 0x32DA JUMP JUMPDEST SWAP3 POP PUSH1 0x40 DUP6 ADD CALLDATALOAD PUSH2 0x28F9 DUP2 PUSH2 0x32DA JUMP JUMPDEST SWAP4 SWAP7 SWAP3 SWAP6 POP SWAP3 SWAP4 PUSH1 0x60 ADD CALLDATALOAD SWAP3 POP POP JUMP JUMPDEST PUSH1 0x0 DUP1 PUSH1 0x0 PUSH1 0x60 DUP5 DUP7 SUB SLT ISZERO PUSH2 0x291E JUMPI PUSH1 0x0 DUP1 REVERT JUMPDEST DUP4 CALLDATALOAD PUSH2 0x2929 DUP2 PUSH2 0x32DA JUMP JUMPDEST SWAP3 POP PUSH1 0x20 DUP5 ADD CALLDATALOAD SWAP2 POP PUSH1 0x40 DUP5 ADD CALLDATALOAD PUSH2 0x2940 DUP2 PUSH2 0x32EF JUMP JUMPDEST DUP1 SWAP2 POP POP SWAP3 POP SWAP3 POP SWAP3 JUMP JUMPDEST PUSH1 0x0 DUP1 PUSH1 0x0 DUP1 PUSH1 0x60 DUP6 DUP8 SUB SLT ISZERO PUSH2 0x2961 JUMPI PUSH1 0x0 DUP1 REVERT JUMPDEST DUP5 CALLDATALOAD PUSH2 0x296C DUP2 PUSH2 0x32DA JUMP JUMPDEST SWAP4 POP PUSH1 0x20 DUP6 ADD CALLDATALOAD SWAP3 POP PUSH1 0x40 DUP6 ADD CALLDATALOAD PUSH8 0xFFFFFFFFFFFFFFFF DUP1 DUP3 GT ISZERO PUSH2 0x2990 JUMPI PUSH1 0x0 DUP1 REVERT JUMPDEST DUP2 DUP8 ADD SWAP2 POP DUP8 PUSH1 0x1F DUP4 ADD SLT PUSH2 0x29A4 JUMPI PUSH1 0x0 DUP1 REVERT JUMPDEST DUP2 CALLDATALOAD DUP2 DUP2 GT ISZERO PUSH2 0x29B3 JUMPI PUSH1 0x0 DUP1 REVERT JUMPDEST DUP9 PUSH1 0x20 DUP3 DUP6 ADD ADD GT ISZERO PUSH2 0x29C5 JUMPI PUSH1 0x0 DUP1 REVERT JUMPDEST SWAP6 SWAP9 SWAP5 SWAP8 POP POP PUSH1 0x20 ADD SWAP5 POP POP POP JUMP JUMPDEST PUSH1 0x0 DUP1 PUSH1 0x40 DUP4 DUP6 SUB SLT ISZERO PUSH2 0x29E7 JUMPI PUSH1 0x0 DUP1 REVERT JUMPDEST DUP3 CALLDATALOAD PUSH8 0xFFFFFFFFFFFFFFFF DUP1 DUP3 GT ISZERO PUSH2 0x29FF JUMPI PUSH1 0x0 DUP1 REVERT JUMPDEST DUP2 DUP6 ADD SWAP2 POP DUP6 PUSH1 0x1F DUP4 ADD SLT PUSH2 0x2A13 JUMPI PUSH1 0x0 DUP1 REVERT JUMPDEST DUP2 CALLDATALOAD PUSH1 0x20 PUSH2 0x2A23 PUSH2 0x2694 DUP4 PUSH2 0x30E3 JUMP JUMPDEST DUP1 DUP4 DUP3 MSTORE DUP3 DUP3 ADD SWAP2 POP DUP3 DUP7 ADD DUP11 DUP5 DUP7 PUSH1 0x5 SHL DUP10 ADD ADD GT ISZERO PUSH2 0x2A43 JUMPI PUSH1 0x0 DUP1 REVERT JUMPDEST PUSH1 0x0 SWAP7 POP JUMPDEST DUP5 DUP8 LT ISZERO PUSH2 0x2A6F JUMPI DUP1 CALLDATALOAD PUSH2 0x2A5B DUP2 PUSH2 0x32DA JUMP JUMPDEST DUP4 MSTORE PUSH1 0x1 SWAP7 SWAP1 SWAP7 ADD SWAP6 SWAP2 DUP4 ADD SWAP2 DUP4 ADD PUSH2 0x2A48 JUMP JUMPDEST POP SWAP7 POP POP DUP7 ADD CALLDATALOAD SWAP3 POP POP DUP1 DUP3 GT ISZERO PUSH2 0x2A86 JUMPI PUSH1 0x0 DUP1 REVERT JUMPDEST POP PUSH2 0x2A93 DUP6 DUP3 DUP7 ADD PUSH2 0x2673 JUMP JUMPDEST SWAP2 POP POP SWAP3 POP SWAP3 SWAP1 POP JUMP JUMPDEST PUSH1 0x0 PUSH1 0x20 DUP3 DUP5 SUB SLT ISZERO PUSH2 0x2AAF JUMPI PUSH1 0x0 DUP1 REVERT JUMPDEST DUP2 CALLDATALOAD PUSH2 0x2894 DUP2 PUSH2 0x32EF JUMP JUMPDEST PUSH1 0x0 PUSH1 0x20 DUP3 DUP5 SUB SLT ISZERO PUSH2 0x2ACC JUMPI PUSH1 0x0 DUP1 REVERT JUMPDEST DUP2 MLOAD PUSH2 0x2894 DUP2 PUSH2 0x32EF JUMP JUMPDEST PUSH1 0x0 PUSH1 0x20 DUP3 DUP5 SUB SLT ISZERO PUSH2 0x2AE9 JUMPI PUSH1 0x0 DUP1 REVERT JUMPDEST POP CALLDATALOAD SWAP2 SWAP1 POP JUMP JUMPDEST PUSH1 0x0 PUSH1 0x20 DUP3 DUP5 SUB SLT ISZERO PUSH2 0x2B02 JUMPI PUSH1 0x0 DUP1 REVERT JUMPDEST POP MLOAD SWAP2 SWAP1 POP JUMP JUMPDEST PUSH1 0x0 DUP1 PUSH1 0x40 DUP4 DUP6 SUB SLT ISZERO PUSH2 0x2B1C JUMPI PUSH1 0x0 DUP1 REVERT JUMPDEST POP POP DUP1 CALLDATALOAD SWAP3 PUSH1 0x20 SWAP1 SWAP2 ADD CALLDATALOAD SWAP2 POP JUMP JUMPDEST PUSH1 0x0 PUSH1 0x20 DUP3 DUP5 SUB SLT ISZERO PUSH2 0x2B3D JUMPI PUSH1 0x0 DUP1 REVERT JUMPDEST DUP2 CALLDATALOAD PUSH8 0xFFFFFFFFFFFFFFFF DUP2 GT ISZERO PUSH2 0x2B54 JUMPI PUSH1 0x0 DUP1 REVERT JUMPDEST DUP3 ADD PUSH1 0x80 DUP2 DUP6 SUB SLT ISZERO PUSH2 0x2894 JUMPI PUSH1 0x0 DUP1 REVERT JUMPDEST PUSH1 0x0 PUSH2 0x140 DUP3 DUP5 SUB SLT ISZERO PUSH2 0x2B79 JUMPI PUSH1 0x0 DUP1 REVERT JUMPDEST PUSH2 0x2B81 PUSH2 0x3064 JUMP JUMPDEST PUSH2 0x2B8A DUP4 PUSH2 0x2658 JUMP JUMPDEST DUP2 MSTORE PUSH2 0x2B98 PUSH1 0x20 DUP5 ADD PUSH2 0x2658 JUMP JUMPDEST PUSH1 0x20 DUP3 ADD MSTORE PUSH2 0x2BA9 PUSH1 0x40 DUP5 ADD PUSH2 0x2658 JUMP JUMPDEST PUSH1 0x40 DUP3 ADD MSTORE PUSH2 0x2BBA PUSH1 0x60 DUP5 ADD PUSH2 0x2658 JUMP JUMPDEST PUSH1 0x60 DUP3 ADD MSTORE PUSH1 0x80 DUP4 ADD CALLDATALOAD PUSH1 0x80 DUP3 ADD MSTORE PUSH1 0xA0 DUP4 ADD CALLDATALOAD PUSH1 0xA0 DUP3 ADD MSTORE PUSH1 0xC0 DUP4 ADD CALLDATALOAD PUSH1 0xC0 DUP3 ADD MSTORE PUSH1 0xE0 DUP4 ADD CALLDATALOAD PUSH1 0xE0 DUP3 ADD MSTORE PUSH2 0x100 DUP1 DUP5 ADD CALLDATALOAD DUP2 DUP4 ADD MSTORE POP PUSH2 0x120 PUSH2 0x2C01 DUP2 DUP6 ADD PUSH2 0x26EE JUMP JUMPDEST SWAP1 DUP3 ADD MSTORE SWAP4 SWAP3 POP POP POP JUMP JUMPDEST PUSH1 0x0 PUSH2 0x360 DUP3 DUP5 SUB SLT ISZERO PUSH2 0x2C1F JUMPI PUSH1 0x0 DUP1 REVERT JUMPDEST PUSH2 0x2C27 PUSH2 0x308E JUMP JUMPDEST DUP3 MLOAD DUP2 MSTORE PUSH2 0x2C37 PUSH1 0x20 DUP5 ADD PUSH2 0x2668 JUMP JUMPDEST PUSH1 0x20 DUP3 ADD MSTORE PUSH2 0x2C48 PUSH1 0x40 DUP5 ADD PUSH2 0x2668 JUMP JUMPDEST PUSH1 0x40 DUP3 ADD MSTORE PUSH2 0x2C5A DUP5 PUSH1 0x60 DUP6 ADD PUSH2 0x26F9 JUMP JUMPDEST PUSH1 0x60 DUP3 ADD MSTORE PUSH2 0x120 PUSH2 0x2C6E DUP6 DUP3 DUP7 ADD PUSH2 0x277E JUMP JUMPDEST PUSH1 0x80 DUP4 ADD MSTORE PUSH2 0x160 PUSH2 0x2C82 DUP7 DUP3 DUP8 ADD PUSH2 0x26F9 JUMP JUMPDEST PUSH1 0xA0 DUP5 ADD MSTORE PUSH2 0x220 DUP6 ADD MLOAD PUSH1 0xC0 DUP5 ADD MSTORE PUSH2 0x240 DUP6 ADD MLOAD PUSH1 0xE0 DUP5 ADD MSTORE PUSH2 0x260 DUP6 ADD MLOAD PUSH2 0x100 DUP5 ADD MSTORE PUSH2 0x280 DUP6 ADD MLOAD DUP3 DUP5 ADD MSTORE PUSH2 0x2CC1 DUP7 PUSH2 0x2A0 DUP8 ADD PUSH2 0x27D9 JUMP JUMPDEST PUSH2 0x140 DUP5 ADD MSTORE PUSH2 0x2CD4 PUSH2 0x340 DUP7 ADD PUSH2 0x2668 JUMP JUMPDEST SWAP1 DUP4 ADD MSTORE POP SWAP4 SWAP3 POP POP POP JUMP JUMPDEST PUSH1 0x0 DUP1 PUSH1 0x40 DUP4 DUP6 SUB SLT ISZERO PUSH2 0x2CF3 JUMPI PUSH1 0x0 DUP1 REVERT JUMPDEST DUP3 MLOAD SWAP2 POP PUSH1 0x20 DUP4 ADD MLOAD PUSH2 0x2D05 DUP2 PUSH2 0x32DA JUMP JUMPDEST DUP1 SWAP2 POP POP SWAP3 POP SWAP3 SWAP1 POP JUMP JUMPDEST PUSH1 0x0 PUSH1 0x20 DUP3 DUP5 SUB SLT ISZERO PUSH2 0x2D22 JUMPI PUSH1 0x0 DUP1 REVERT JUMPDEST DUP2 MLOAD PUSH1 0xFF DUP2 AND DUP2 EQ PUSH2 0x2894 JUMPI PUSH1 0x0 DUP1 REVERT JUMPDEST DUP2 DUP4 MSTORE DUP2 DUP2 PUSH1 0x20 DUP6 ADD CALLDATACOPY POP PUSH1 0x0 DUP3 DUP3 ADD PUSH1 0x20 SWAP1 DUP2 ADD SWAP2 SWAP1 SWAP2 MSTORE PUSH1 0x1F SWAP1 SWAP2 ADD PUSH1 0x1F NOT AND SWAP1 SWAP2 ADD ADD SWAP1 JUMP JUMPDEST DUP1 MLOAD PUSH1 0x1 PUSH1 0x1 PUSH1 0xA0 SHL SUB AND DUP3 MSTORE PUSH1 0x20 DUP1 DUP3 ADD MLOAD SWAP1 DUP4 ADD MSTORE PUSH1 0x40 DUP1 DUP3 ADD MLOAD SWAP1 DUP4 ADD MSTORE PUSH1 0x60 DUP1 DUP3 ADD MLOAD SWAP1 DUP4 ADD MSTORE PUSH1 0x80 DUP1 DUP3 ADD MLOAD SWAP1 DUP4 ADD MSTORE PUSH1 0xA0 SWAP1 DUP2 ADD MLOAD SWAP2 ADD MSTORE JUMP JUMPDEST PUSH1 0x0 DUP3 MLOAD PUSH1 0x0 JUMPDEST DUP2 DUP2 LT ISZERO PUSH2 0x2DBD JUMPI PUSH1 0x20 DUP2 DUP7 ADD DUP2 ADD MLOAD DUP6 DUP4 ADD MSTORE ADD PUSH2 0x2DA3 JUMP JUMPDEST DUP2 DUP2 GT ISZERO PUSH2 0x2DCC JUMPI PUSH1 0x0 DUP3 DUP6 ADD MSTORE JUMPDEST POP SWAP2 SWAP1 SWAP2 ADD SWAP3 SWAP2 POP POP JUMP JUMPDEST PUSH1 0x1 PUSH1 0x1 PUSH1 0xA0 SHL SUB DUP7 DUP2 AND DUP3 MSTORE DUP6 AND PUSH1 0x20 DUP3 ADD MSTORE PUSH1 0x40 DUP2 ADD DUP5 SWAP1 MSTORE PUSH1 0x80 PUSH1 0x60 DUP3 ADD DUP2 SWAP1 MSTORE PUSH1 0x0 SWAP1 PUSH2 0x2E0B SWAP1 DUP4 ADD DUP5 DUP7 PUSH2 0x2D33 JUMP JUMPDEST SWAP8 SWAP7 POP POP POP POP POP POP POP JUMP JUMPDEST PUSH1 0x1 DUP1 PUSH1 0xA0 SHL SUB DUP6 AND DUP2 MSTORE DUP4 PUSH1 0x20 DUP3 ADD MSTORE PUSH1 0x60 PUSH1 0x40 DUP3 ADD MSTORE PUSH1 0x0 PUSH2 0x2E3E PUSH1 0x60 DUP4 ADD DUP5 DUP7 PUSH2 0x2D33 JUMP JUMPDEST SWAP7 SWAP6 POP POP POP POP POP POP JUMP JUMPDEST DUP2 MLOAD PUSH1 0x1 PUSH1 0x1 PUSH1 0xA0 SHL SUB AND DUP2 MSTORE PUSH2 0x140 DUP2 ADD PUSH1 0x20 DUP4 ADD MLOAD PUSH2 0x2E74 PUSH1 0x20 DUP5 ADD DUP3 PUSH1 0x1 PUSH1 0x1 PUSH1 0xA0 SHL SUB AND SWAP1 MSTORE JUMP JUMPDEST POP PUSH1 0x40 DUP4 ADD MLOAD PUSH2 0x2E8F PUSH1 0x40 DUP5 ADD DUP3 PUSH1 0x1 PUSH1 0x1 PUSH1 0xA0 SHL SUB AND SWAP1 MSTORE JUMP JUMPDEST POP PUSH1 0x60 DUP4 ADD MLOAD PUSH2 0x2EAA PUSH1 0x60 DUP5 ADD DUP3 PUSH1 0x1 PUSH1 0x1 PUSH1 0xA0 SHL SUB AND SWAP1 MSTORE JUMP JUMPDEST POP PUSH1 0x80 DUP4 ADD MLOAD PUSH1 0x80 DUP4 ADD MSTORE PUSH1 0xA0 DUP4 ADD MLOAD PUSH1 0xA0 DUP4 ADD MSTORE PUSH1 0xC0 DUP4 ADD MLOAD PUSH1 0xC0 DUP4 ADD MSTORE PUSH1 0xE0 DUP4 ADD MLOAD PUSH1 0xE0 DUP4 ADD MSTORE PUSH2 0x100 DUP1 DUP5 ADD MLOAD DUP2 DUP5 ADD MSTORE POP PUSH2 0x120 DUP1 DUP5 ADD MLOAD PUSH2 0x2EF3 DUP3 DUP6 ADD DUP3 ISZERO ISZERO SWAP1 MSTORE JUMP JUMPDEST POP POP SWAP3 SWAP2 POP POP JUMP JUMPDEST DUP2 MLOAD DUP2 MSTORE PUSH1 0x20 DUP1 DUP4 ADD MLOAD PUSH2 0x360 DUP4 ADD SWAP2 PUSH2 0x2F1F SWAP1 DUP5 ADD DUP3 PUSH1 0x1 PUSH1 0x1 PUSH1 0xA0 SHL SUB AND SWAP1 MSTORE JUMP JUMPDEST POP PUSH1 0x40 DUP4 ADD MLOAD PUSH2 0x2F3A PUSH1 0x40 DUP5 ADD DUP3 PUSH1 0x1 PUSH1 0x1 PUSH1 0xA0 SHL SUB AND SWAP1 MSTORE JUMP JUMPDEST POP PUSH1 0x60 DUP4 ADD MLOAD PUSH2 0x2F4D PUSH1 0x60 DUP5 ADD DUP3 PUSH2 0x2D5C JUMP JUMPDEST POP PUSH1 0x80 DUP4 ADD MLOAD PUSH2 0x120 PUSH2 0x2F75 DUP2 DUP6 ADD DUP4 DUP1 MLOAD PUSH1 0x1 PUSH1 0x1 PUSH1 0xA0 SHL SUB AND DUP3 MSTORE PUSH1 0x20 SWAP1 DUP2 ADD MLOAD SWAP2 ADD MSTORE JUMP JUMPDEST PUSH1 0xA0 DUP6 ADD MLOAD SWAP2 POP PUSH2 0x160 PUSH2 0x2F8B DUP2 DUP7 ADD DUP5 PUSH2 0x2D5C JUMP JUMPDEST PUSH1 0xC0 DUP7 ADD MLOAD PUSH2 0x220 DUP7 ADD MSTORE PUSH1 0xE0 DUP7 ADD MLOAD PUSH2 0x240 DUP7 ADD MSTORE PUSH2 0x100 DUP7 ADD MLOAD PUSH2 0x260 DUP7 ADD MSTORE SWAP1 DUP6 ADD MLOAD PUSH2 0x280 DUP6 ADD MSTORE PUSH2 0x140 DUP6 ADD MLOAD DUP1 MLOAD ISZERO ISZERO PUSH2 0x2A0 DUP7 ADD MSTORE PUSH1 0x20 DUP2 ADD MLOAD ISZERO ISZERO PUSH2 0x2C0 DUP7 ADD MSTORE PUSH1 0x40 DUP2 ADD MLOAD ISZERO ISZERO PUSH2 0x2E0 DUP7 ADD MSTORE PUSH1 0x60 DUP2 ADD MLOAD ISZERO ISZERO PUSH2 0x300 DUP7 ADD MSTORE PUSH1 0x80 ADD MLOAD ISZERO ISZERO PUSH2 0x320 DUP6 ADD MSTORE DUP5 ADD MLOAD PUSH1 0x1 PUSH1 0x1 PUSH1 0xA0 SHL SUB DUP2 AND PUSH2 0x340 DUP6 ADD MSTORE SWAP1 POP POP SWAP3 SWAP2 POP POP JUMP JUMPDEST PUSH1 0x0 DUP1 DUP4 CALLDATALOAD PUSH1 0x1E NOT DUP5 CALLDATASIZE SUB ADD DUP2 SLT PUSH2 0x302D JUMPI PUSH1 0x0 DUP1 REVERT JUMPDEST DUP4 ADD DUP1 CALLDATALOAD SWAP2 POP PUSH8 0xFFFFFFFFFFFFFFFF DUP3 GT ISZERO PUSH2 0x3048 JUMPI PUSH1 0x0 DUP1 REVERT JUMPDEST PUSH1 0x20 ADD SWAP2 POP CALLDATASIZE DUP2 SWAP1 SUB DUP3 SGT ISZERO PUSH2 0x305D JUMPI PUSH1 0x0 DUP1 REVERT JUMPDEST SWAP3 POP SWAP3 SWAP1 POP JUMP JUMPDEST PUSH1 0x40 MLOAD PUSH2 0x140 DUP2 ADD PUSH8 0xFFFFFFFFFFFFFFFF DUP2 GT DUP3 DUP3 LT OR ISZERO PUSH2 0x3088 JUMPI PUSH2 0x3088 PUSH2 0x32C4 JUMP JUMPDEST PUSH1 0x40 MSTORE SWAP1 JUMP JUMPDEST PUSH1 0x40 MLOAD PUSH2 0x180 DUP2 ADD PUSH8 0xFFFFFFFFFFFFFFFF DUP2 GT DUP3 DUP3 LT OR ISZERO PUSH2 0x3088 JUMPI PUSH2 0x3088 PUSH2 0x32C4 JUMP JUMPDEST PUSH1 0x40 MLOAD PUSH1 0x1F DUP3 ADD PUSH1 0x1F NOT AND DUP2 ADD PUSH8 0xFFFFFFFFFFFFFFFF DUP2 GT DUP3 DUP3 LT OR ISZERO PUSH2 0x30DB JUMPI PUSH2 0x30DB PUSH2 0x32C4 JUMP JUMPDEST PUSH1 0x40 MSTORE SWAP2 SWAP1 POP JUMP JUMPDEST PUSH1 0x0 PUSH8 0xFFFFFFFFFFFFFFFF DUP3 GT ISZERO PUSH2 0x30FD JUMPI PUSH2 0x30FD PUSH2 0x32C4 JUMP JUMPDEST POP PUSH1 0x5 SHL PUSH1 0x20 ADD SWAP1 JUMP JUMPDEST PUSH1 0x0 DUP3 NOT DUP3 GT ISZERO PUSH2 0x311A JUMPI PUSH2 0x311A PUSH2 0x3298 JUMP JUMPDEST POP ADD SWAP1 JUMP JUMPDEST PUSH1 0x0 DUP3 PUSH2 0x313C JUMPI PUSH4 0x4E487B71 PUSH1 0xE0 SHL PUSH1 0x0 MSTORE PUSH1 0x12 PUSH1 0x4 MSTORE PUSH1 0x24 PUSH1 0x0 REVERT JUMPDEST POP DIV SWAP1 JUMP JUMPDEST PUSH1 0x1 DUP2 DUP2 JUMPDEST DUP1 DUP6 GT ISZERO PUSH2 0x317C JUMPI DUP2 PUSH1 0x0 NOT DIV DUP3 GT ISZERO PUSH2 0x3162 JUMPI PUSH2 0x3162 PUSH2 0x3298 JUMP JUMPDEST DUP1 DUP6 AND ISZERO PUSH2 0x316F JUMPI SWAP2 DUP2 MUL SWAP2 JUMPDEST SWAP4 DUP5 SHR SWAP4 SWAP1 DUP1 MUL SWAP1 PUSH2 0x3146 JUMP JUMPDEST POP SWAP3 POP SWAP3 SWAP1 POP JUMP JUMPDEST PUSH1 0x0 PUSH2 0x2894 PUSH1 0xFF DUP5 AND DUP4 PUSH1 0x0 DUP3 PUSH2 0x319D JUMPI POP PUSH1 0x1 PUSH2 0x322B JUMP JUMPDEST DUP2 PUSH2 0x31AA JUMPI POP PUSH1 0x0 PUSH2 0x322B JUMP JUMPDEST DUP2 PUSH1 0x1 DUP2 EQ PUSH2 0x31C0 JUMPI PUSH1 0x2 DUP2 EQ PUSH2 0x31CA JUMPI PUSH2 0x31E6 JUMP JUMPDEST PUSH1 0x1 SWAP2 POP POP PUSH2 0x322B JUMP JUMPDEST PUSH1 0xFF DUP5 GT ISZERO PUSH2 0x31DB JUMPI PUSH2 0x31DB PUSH2 0x3298 JUMP JUMPDEST POP POP PUSH1 0x1 DUP3 SHL PUSH2 0x322B JUMP JUMPDEST POP PUSH1 0x20 DUP4 LT PUSH2 0x133 DUP4 LT AND PUSH1 0x4E DUP5 LT PUSH1 0xB DUP5 LT AND OR ISZERO PUSH2 0x3209 JUMPI POP DUP2 DUP2 EXP PUSH2 0x322B JUMP JUMPDEST PUSH2 0x3213 DUP4 DUP4 PUSH2 0x3141 JUMP JUMPDEST DUP1 PUSH1 0x0 NOT DIV DUP3 GT ISZERO PUSH2 0x3227 JUMPI PUSH2 0x3227 PUSH2 0x3298 JUMP JUMPDEST MUL SWAP1 POP JUMPDEST SWAP3 SWAP2 POP POP JUMP JUMPDEST PUSH1 0x0 DUP2 PUSH1 0x0 NOT DIV DUP4 GT DUP3 ISZERO ISZERO AND ISZERO PUSH2 0x324B JUMPI PUSH2 0x324B PUSH2 0x3298 JUMP JUMPDEST POP MUL SWAP1 JUMP JUMPDEST PUSH1 0x0 DUP3 DUP3 LT ISZERO PUSH2 0x3262 JUMPI PUSH2 0x3262 PUSH2 0x3298 JUMP JUMPDEST POP SUB SWAP1 JUMP JUMPDEST PUSH1 0x0 PUSH1 0x0 NOT DUP3 EQ ISZERO PUSH2 0x327B JUMPI PUSH2 0x327B PUSH2 0x3298 JUMP JUMPDEST POP PUSH1 0x1 ADD SWAP1 JUMP JUMPDEST PUSH4 0x4E487B71 PUSH1 0xE0 SHL PUSH1 0x0 MSTORE PUSH1 0x1 PUSH1 0x4 MSTORE PUSH1 0x24 PUSH1 0x0 REVERT JUMPDEST PUSH4 0x4E487B71 PUSH1 0xE0 SHL PUSH1 0x0 MSTORE PUSH1 0x11 PUSH1 0x4 MSTORE PUSH1 0x24 PUSH1 0x0 REVERT JUMPDEST PUSH4 0x4E487B71 PUSH1 0xE0 SHL PUSH1 0x0 MSTORE PUSH1 0x32 PUSH1 0x4 MSTORE PUSH1 0x24 PUSH1 0x0 REVERT JUMPDEST PUSH4 0x4E487B71 PUSH1 0xE0 SHL PUSH1 0x0 MSTORE PUSH1 0x41 PUSH1 0x4 MSTORE PUSH1 0x24 PUSH1 0x0 REVERT JUMPDEST PUSH1 0x1 PUSH1 0x1 PUSH1 0xA0 SHL SUB DUP2 AND DUP2 EQ PUSH2 0x21CB JUMPI PUSH1 0x0 DUP1 REVERT JUMPDEST DUP1 ISZERO ISZERO DUP2 EQ PUSH2 0x21CB JUMPI PUSH1 0x0 DUP1 REVERT INVALID LOG2 PUSH5 0x6970667358 0x22 SLT KECCAK256 0xE4 0xD4 CREATE 0xE8 RETURN MOD 0xEB 0x23 RETURNDATACOPY DUP6 PUSH7 0xD7EC28EBCFF0E0 PUSH23 0x58EFFB303C07CBFF94BEAEEDF864736F6C634300080700 CALLER "},"gasEstimates":{"creation":{"codeDepositCost":"2621400","executionCost":"24945","totalCost":"2646345"},"external":{"WETH()":"2430","accFee()":"2340","accFeePerShare()":"2383","accProtocolFee()":"2407","availableLiquidity()":"infinite","baseReserve(address)":"2623","burn(address,uint256,bool)":"infinite","claimableFee(address)":"15690","close((bytes32,bytes,bytes,bool))":"infinite","collateralReserve(address)":"2602","collect(address,uint256,bool)":"infinite","factory()":"2385","initialize(address,address,address,uint256)":"infinite","interest()":"2406","liquidityPosition(address)":"6854","mint(address,uint256,bytes)":"infinite","open((address,address,address,address,uint256,uint256,uint256,uint256,uint256,bool))":"infinite","precision()":"2339","quoteInDebt()":"2385","quoteReserve()":"2341","quoteToken()":"2430","rollback(bytes32)":"24541","setBaseTokens(address[],bool[])":"infinite","setInterest(uint256)":"25598","tradeableBaseToken(address)":"2538","updateDeadline(bytes32,uint256)":"24523","updateStoplossPrice(bytes32,uint256)":"24566"},"internal":{"_addFee(uint256)":"infinite","_availableLiquidity()":"infinite","_checkInputTokens(struct IPositionStorage.OpenTradePositionParams memory)":"infinite","_liquidateBaseToken(struct IPositionStorage.TradePosition memory,uint256,bytes calldata)":"infinite","_liquidateCollateral(struct IPositionStorage.TradePosition memory,uint256,uint256,bytes calldata)":"infinite","_safeTransfer(address,address,uint256,bool)":"infinite","_transferProtocolFee()":"infinite","_updateBaseReserve(address,uint256)":"infinite","_updateCollateralReserve(address,uint256)":"infinite","_updateProtocolFee(uint256)":"infinite","_updateQuoteInDebt(uint256)":"infinite","_updateQuoteReserve(uint256)":"infinite"}},"methodIdentifiers":{"WETH()":"ad5c4648","accFee()":"ada3112f","accFeePerShare()":"dd3b829a","accProtocolFee()":"27014e33","availableLiquidity()":"74375359","baseReserve(address)":"ffc9dcbb","burn(address,uint256,bool)":"76fd4fdf","claimableFee(address)":"a1c59afc","close((bytes32,bytes,bytes,bool))":"ae4b62e4","collateralReserve(address)":"8b6e00fa","collect(address,uint256,bool)":"3f8e2936","factory()":"c45a0155","initialize(address,address,address,uint256)":"cf756fdf","interest()":"c392f766","liquidityPosition(address)":"d4fd6905","mint(address,uint256,bytes)":"94d008ef","open((address,address,address,address,uint256,uint256,uint256,uint256,uint256,bool))":"37f0031a","precision()":"d3b5dc3b","quoteInDebt()":"685b61d0","quoteReserve()":"9da771f4","quoteToken()":"217a4b70","rollback(bytes32)":"cfb13928","setBaseTokens(address[],bool[])":"32196a01","setInterest(uint256)":"1d086720","tradeableBaseToken(address)":"0adcf0f5","updateDeadline(bytes32,uint256)":"1b033c1d","updateStoplossPrice(bytes32,uint256)":"b6cf1691"}},"storageLayout":{"storage":[{"astId":3322,"contract":"contracts/Pool.sol:Pool","label":"unlocked","offset":0,"slot":"0","type":"t_uint256"},{"astId":1413,"contract":"contracts/Pool.sol:Pool","label":"factory","offset":0,"slot":"1","type":"t_address"},{"astId":1416,"contract":"contracts/Pool.sol:Pool","label":"WETH","offset":0,"slot":"2","type":"t_address"},{"astId":1419,"contract":"contracts/Pool.sol:Pool","label":"quoteToken","offset":0,"slot":"3","type":"t_address"},{"astId":1422,"contract":"contracts/Pool.sol:Pool","label":"precision","offset":0,"slot":"4","type":"t_uint256"},{"astId":1425,"contract":"contracts/Pool.sol:Pool","label":"interest","offset":0,"slot":"5","type":"t_uint256"},{"astId":1428,"contract":"contracts/Pool.sol:Pool","label":"quoteReserve","offset":0,"slot":"6","type":"t_uint256"},{"astId":1431,"contract":"contracts/Pool.sol:Pool","label":"quoteInDebt","offset":0,"slot":"7","type":"t_uint256"},{"astId":1434,"contract":"contracts/Pool.sol:Pool","label":"accFee","offset":0,"slot":"8","type":"t_uint256"},{"astId":1437,"contract":"contracts/Pool.sol:Pool","label":"accProtocolFee","offset":0,"slot":"9","type":"t_uint256"},{"astId":1440,"contract":"contracts/Pool.sol:Pool","label":"accFeePerShare","offset":0,"slot":"10","type":"t_uint256"},{"astId":1445,"contract":"contracts/Pool.sol:Pool","label":"tradeableBaseToken","offset":0,"slot":"11","type":"t_mapping(t_address,t_bool)"},{"astId":1450,"contract":"contracts/Pool.sol:Pool","label":"baseReserve","offset":0,"slot":"12","type":"t_mapping(t_address,t_uint256)"},{"astId":1455,"contract":"contracts/Pool.sol:Pool","label":"collateralReserve","offset":0,"slot":"13","type":"t_mapping(t_address,t_uint256)"},{"astId":1461,"contract":"contracts/Pool.sol:Pool","label":"liquidityPosition","offset":0,"slot":"14","type":"t_mapping(t_address,t_struct(LiquidityPosition)3661_storage)"}],"types":{"t_address":{"encoding":"inplace","label":"address","numberOfBytes":"20"},"t_bool":{"encoding":"inplace","label":"bool","numberOfBytes":"1"},"t_mapping(t_address,t_bool)":{"encoding":"mapping","key":"t_address","label":"mapping(address => bool)","numberOfBytes":"32","value":"t_bool"},"t_mapping(t_address,t_struct(LiquidityPosition)3661_storage)":{"encoding":"mapping","key":"t_address","label":"mapping(address => struct IPool.LiquidityPosition)","numberOfBytes":"32","value":"t_struct(LiquidityPosition)3661_storage"},"t_mapping(t_address,t_uint256)":{"encoding":"mapping","key":"t_address","label":"mapping(address => uint256)","numberOfBytes":"32","value":"t_uint256"},"t_struct(LiquidityPosition)3661_storage":{"encoding":"inplace","label":"struct IPool.LiquidityPosition","members":[{"astId":3656,"contract":"contracts/Pool.sol:Pool","label":"liquidity","offset":0,"slot":"0","type":"t_uint256"},{"astId":3658,"contract":"contracts/Pool.sol:Pool","label":"feeDebt","offset":0,"slot":"1","type":"t_uint256"},{"astId":3660,"contract":"contracts/Pool.sol:Pool","label":"pendingFee","offset":0,"slot":"2","type":"t_uint256"}],"numberOfBytes":"96"},"t_uint256":{"encoding":"inplace","label":"uint256","numberOfBytes":"32"}}},"userdoc":{"kind":"user","methods":{},"version":1}}}}