{"contracts/Factory.sol":{"Factory":{"abi":[{"inputs":[{"internalType":"address","name":"_poolDeployer","type":"address"},{"internalType":"address","name":"_positionStorage","type":"address"},{"internalType":"address","name":"_userStorage","type":"address"},{"internalType":"address","name":"_priceFeed","type":"address"},{"internalType":"address","name":"_dexAggregator","type":"address"}],"stateMutability":"nonpayable","type":"constructor"},{"inputs":[{"internalType":"address","name":"sender","type":"address"}],"name":"Forbidden","type":"error"},{"inputs":[{"internalType":"address","name":"quoteToken","type":"address"},{"internalType":"address","name":"pool","type":"address"}],"name":"PoolExistsAlready","type":"error"},{"inputs":[{"internalType":"address","name":"quoteToken","type":"address"}],"name":"PoolNotExists","type":"error"},{"inputs":[{"internalType":"uint256","name":"value","type":"uint256"},{"internalType":"uint256","name":"max","type":"uint256"}],"name":"TooHighValue","type":"error"},{"inputs":[{"internalType":"uint256","name":"value","type":"uint256"},{"internalType":"uint256","name":"min","type":"uint256"}],"name":"TooLowValue","type":"error"},{"inputs":[],"name":"ZeroAddress","type":"error"},{"anonymous":false,"inputs":[{"indexed":true,"internalType":"address","name":"quoteToken","type":"address"},{"indexed":true,"internalType":"address","name":"pool","type":"address"},{"indexed":false,"internalType":"uint256","name":"interest","type":"uint256"},{"indexed":false,"internalType":"uint256","name":"index","type":"uint256"}],"name":"CreatePool","type":"event"},{"anonymous":false,"inputs":[{"indexed":false,"internalType":"address","name":"baseToken","type":"address"},{"indexed":false,"internalType":"uint256","name":"lt","type":"uint256"}],"name":"SetBaseTokenLT","type":"event"},{"anonymous":false,"inputs":[{"indexed":false,"internalType":"address","name":"collateral","type":"address"},{"indexed":false,"internalType":"uint256","name":"lt","type":"uint256"}],"name":"SetCollateralLT","type":"event"},{"anonymous":false,"inputs":[{"indexed":false,"internalType":"address","name":"newDexAggregator","type":"address"}],"name":"SetDEXAggregator","type":"event"},{"anonymous":false,"inputs":[{"indexed":false,"internalType":"address","name":"baseToken","type":"address"},{"indexed":false,"internalType":"uint256","name":"mut","type":"uint256"}],"name":"SetMUT","type":"event"},{"anonymous":false,"inputs":[{"indexed":false,"internalType":"address","name":"newManager","type":"address"}],"name":"SetManager","type":"event"},{"anonymous":false,"inputs":[{"indexed":false,"internalType":"uint256","name":"newManualExpiration","type":"uint256"}],"name":"SetManualExpiration","type":"event"},{"anonymous":false,"inputs":[{"indexed":false,"internalType":"uint256","name":"newMinQuoteRate","type":"uint256"}],"name":"SetMinQuoteRate","type":"event"},{"anonymous":false,"inputs":[{"indexed":false,"internalType":"address","name":"addr","type":"address"},{"indexed":false,"internalType":"bool","name":"isOperator","type":"bool"}],"name":"SetOperator","type":"event"},{"anonymous":false,"inputs":[{"indexed":false,"internalType":"address","name":"newPriceFeed","type":"address"}],"name":"SetPriceFeed","type":"event"},{"anonymous":false,"inputs":[{"indexed":false,"internalType":"uint256","name":"newProtocolFeeRate","type":"uint256"}],"name":"SetProtocolFeeRate","type":"event"},{"anonymous":false,"inputs":[{"indexed":false,"internalType":"address","name":"newProtocolFeeTo","type":"address"}],"name":"SetProtocolFeeTo","type":"event"},{"anonymous":false,"inputs":[{"indexed":false,"internalType":"address","name":"newUserStorage","type":"address"}],"name":"SetUserStorage","type":"event"},{"inputs":[{"internalType":"address","name":"","type":"address"}],"name":"baseTokenLT","outputs":[{"internalType":"uint256","name":"","type":"uint256"}],"stateMutability":"view","type":"function"},{"inputs":[{"internalType":"address","name":"","type":"address"}],"name":"collateralLT","outputs":[{"internalType":"uint256","name":"","type":"uint256"}],"stateMutability":"view","type":"function"},{"inputs":[{"internalType":"address","name":"_quoteToken","type":"address"},{"internalType":"uint256","name":"_interest","type":"uint256"}],"name":"createPool","outputs":[{"internalType":"address payable","name":"pool","type":"address"}],"stateMutability":"nonpayable","type":"function"},{"inputs":[],"name":"dexAggregator","outputs":[{"internalType":"address","name":"","type":"address"}],"stateMutability":"view","type":"function"},{"inputs":[{"internalType":"address","name":"_quoteToken","type":"address"}],"name":"interest","outputs":[{"internalType":"uint256","name":"","type":"uint256"}],"stateMutability":"view","type":"function"},{"inputs":[],"name":"manager","outputs":[{"internalType":"address","name":"","type":"address"}],"stateMutability":"view","type":"function"},{"inputs":[],"name":"manualExpiration","outputs":[{"internalType":"uint256","name":"","type":"uint256"}],"stateMutability":"view","type":"function"},{"inputs":[],"name":"minQuoteRate","outputs":[{"internalType":"uint256","name":"","type":"uint256"}],"stateMutability":"view","type":"function"},{"inputs":[{"internalType":"address","name":"","type":"address"}],"name":"mut","outputs":[{"internalType":"uint256","name":"","type":"uint256"}],"stateMutability":"view","type":"function"},{"inputs":[{"internalType":"address","name":"","type":"address"}],"name":"operator","outputs":[{"internalType":"bool","name":"","type":"bool"}],"stateMutability":"view","type":"function"},{"inputs":[{"internalType":"address","name":"","type":"address"}],"name":"poolByQuoteToken","outputs":[{"internalType":"address","name":"","type":"address"}],"stateMutability":"view","type":"function"},{"inputs":[],"name":"poolDeployer","outputs":[{"internalType":"address","name":"","type":"address"}],"stateMutability":"view","type":"function"},{"inputs":[{"internalType":"address","name":"","type":"address"}],"name":"poolIndex","outputs":[{"internalType":"uint256","name":"","type":"uint256"}],"stateMutability":"view","type":"function"},{"inputs":[],"name":"poolLength","outputs":[{"internalType":"uint256","name":"","type":"uint256"}],"stateMutability":"view","type":"function"},{"inputs":[{"internalType":"uint256","name":"","type":"uint256"}],"name":"pools","outputs":[{"internalType":"address","name":"","type":"address"}],"stateMutability":"view","type":"function"},{"inputs":[],"name":"positionStorage","outputs":[{"internalType":"address","name":"","type":"address"}],"stateMutability":"view","type":"function"},{"inputs":[],"name":"priceFeed","outputs":[{"internalType":"address","name":"","type":"address"}],"stateMutability":"view","type":"function"},{"inputs":[],"name":"protocolFeeRate","outputs":[{"internalType":"uint256","name":"","type":"uint256"}],"stateMutability":"view","type":"function"},{"inputs":[],"name":"protocolFeeTo","outputs":[{"internalType":"address","name":"","type":"address"}],"stateMutability":"view","type":"function"},{"inputs":[{"internalType":"address","name":"_baseToken","type":"address"},{"internalType":"uint256","name":"_lt","type":"uint256"}],"name":"setBaseTokenLT","outputs":[],"stateMutability":"nonpayable","type":"function"},{"inputs":[{"internalType":"address","name":"_collateral","type":"address"},{"internalType":"uint256","name":"_lt","type":"uint256"}],"name":"setCollateralLT","outputs":[],"stateMutability":"nonpayable","type":"function"},{"inputs":[{"internalType":"address","name":"_dexAggregator","type":"address"}],"name":"setDEXAggregator","outputs":[],"stateMutability":"nonpayable","type":"function"},{"inputs":[{"internalType":"address","name":"_baseToken","type":"address"},{"internalType":"uint256","name":"_mut","type":"uint256"}],"name":"setMUT","outputs":[],"stateMutability":"nonpayable","type":"function"},{"inputs":[{"internalType":"address","name":"_manager","type":"address"}],"name":"setManager","outputs":[],"stateMutability":"nonpayable","type":"function"},{"inputs":[{"internalType":"uint256","name":"_manualExpiration","type":"uint256"}],"name":"setManualExpiration","outputs":[],"stateMutability":"nonpayable","type":"function"},{"inputs":[{"internalType":"uint256","name":"_minQuoteRate","type":"uint256"}],"name":"setMinQuoteRate","outputs":[],"stateMutability":"nonpayable","type":"function"},{"inputs":[{"internalType":"address","name":"_addr","type":"address"},{"internalType":"bool","name":"_isOperator","type":"bool"}],"name":"setOperator","outputs":[],"stateMutability":"nonpayable","type":"function"},{"inputs":[{"internalType":"address","name":"_quoteToken","type":"address"},{"internalType":"address[]","name":"_baseTokens","type":"address[]"},{"internalType":"bool[]","name":"_tradeables","type":"bool[]"}],"name":"setPoolBaseTokens","outputs":[],"stateMutability":"nonpayable","type":"function"},{"inputs":[{"internalType":"address","name":"_quoteToken","type":"address"},{"internalType":"uint256","name":"_interest","type":"uint256"}],"name":"setPoolInterest","outputs":[],"stateMutability":"nonpayable","type":"function"},{"inputs":[{"internalType":"address","name":"_priceFeed","type":"address"}],"name":"setPriceFeed","outputs":[],"stateMutability":"nonpayable","type":"function"},{"inputs":[{"internalType":"uint256","name":"_protocolFeeRate","type":"uint256"}],"name":"setProtocolFeeRate","outputs":[],"stateMutability":"nonpayable","type":"function"},{"inputs":[{"internalType":"address","name":"_protocolFeeTo","type":"address"}],"name":"setProtocolFeeTo","outputs":[],"stateMutability":"nonpayable","type":"function"},{"inputs":[{"internalType":"address","name":"_userStorage","type":"address"}],"name":"setUserStorage","outputs":[],"stateMutability":"nonpayable","type":"function"},{"inputs":[],"name":"userStorage","outputs":[{"internalType":"address","name":"","type":"address"}],"stateMutability":"view","type":"function"}],"devdoc":{"kind":"dev","methods":{},"version":1},"evm":{"bytecode":{"linkReferences":{},"object":"60c06040523480156200001157600080fd5b50604051620015c3380380620015c38339810160408190526200003491620000cb565b6001600160601b0319606095861b81166080529390941b90921660a052600180546001600160a01b039283166001600160a01b0319918216179091556002805493831693821693909317909255600380549190931690821617909155600080549091163317905561271060065562278d006007556200013b565b80516001600160a01b0381168114620000c657600080fd5b919050565b600080600080600060a08688031215620000e457600080fd5b620000ef86620000ae565b9450620000ff60208701620000ae565b93506200010f60408701620000ae565b92506200011f60608701620000ae565b91506200012f60808701620000ae565b90509295509295909350565b60805160601c60a05160601c6114556200016e600039600061039401526000818161026701526105ca01526114556000f3fe608060405234801561001057600080fd5b50600436106102065760003560e01c80638cd474151161011a578063ad5d8e51116100ad578063e0e6799f1161007c578063e0e6799f146104c1578063e47eb30c146104d4578063eddf82bb146104e7578063ef369252146104f0578063f5d0e1751461050357600080fd5b8063ad5d8e511461045b578063b13aa2d61461047b578063b42754a51461048e578063d0ebdbe7146104ae57600080fd5b8063aa6dfe03116100e9578063aa6dfe031461040f578063aac9d2b814610422578063ac436bdf14610435578063ac4afa381461044857600080fd5b80638cd474151461038f57806390f43680146103b65780639142887f146103c95780639a307391146103dc57600080fd5b806350772b3f1161019d5780636d2745531161016c5780636d2745531461033a578063724e78da14610343578063741bef1a1461035657806375e58079146103695780637c21d5e01461037c57600080fd5b806350772b3f146102eb578063558a7297146102fe57806358f85880146103115780635fde0ec01461031a57600080fd5b80633b0e0e84116101d95780633b0e0e8414610289578063481c6a751461029c5780634d5c262e146102af5780634d83bc33146102c257600080fd5b8063081e3eda1461020b57806312d3617114610222578063147fb0811461024d5780633119049a14610262575b600080fd5b6008545b6040519081526020015b60405180910390f35b6102356102303660046112c5565b610523565b6040516001600160a01b039091168152602001610219565b61026061025b3660046112c5565b610700565b005b6102357f000000000000000000000000000000000000000000000000000000000000000081565b6102606102973660046112c5565b6107b4565b600054610235906001600160a01b031681565b6102606102bd3660046111b3565b610860565b6102356102d0366004611179565b600b602052600090815260409020546001600160a01b031681565b6102606102f93660046112c5565b610937565b61026061030c366004611290565b6109e3565b61020f60055481565b61020f610328366004611179565b600e6020526000908152604090205481565b61020f60065481565b610260610351366004611179565b610a6c565b600254610235906001600160a01b031681565b600154610235906001600160a01b031681565b600354610235906001600160a01b031681565b6102357f000000000000000000000000000000000000000000000000000000000000000081565b6102606103c43660046112f1565b610b15565b6102606103d7366004611179565b610ba5565b6103ff6103ea366004611179565b60096020526000908152604090205460ff1681565b6040519015158152602001610219565b61026061041d366004611179565b610c47565b6102606104303660046112c5565b610ce9565b61020f610443366004611179565b610db8565b6102356104563660046112f1565b610e5b565b61020f610469366004611179565b600c6020526000908152604090205481565b6102606104893660046112f1565b610e85565b61020f61049c366004611179565b600a6020526000908152604090205481565b6102606104bc366004611179565b610f15565b6102606104cf366004611179565b610fb7565b6102606104e23660046112f1565b611059565b61020f60075481565b600454610235906001600160a01b031681565b61020f610511366004611179565b600d6020526000908152604090205481565b600080546001600160a01b031633146105565760405163a59d7f4d60e01b81523360048201526024015b60405180910390fd5b506001600160a01b038083166000908152600b60205260409020541680156105a45760405163084252d560e11b81526001600160a01b0380851660048301528216602482015260440161054d565b6040516327c74f7f60e01b81526001600160a01b038481166004830152602482018490527f000000000000000000000000000000000000000000000000000000000000000016906327c74f7f90604401602060405180830381600087803b15801561060e57600080fd5b505af1158015610622573d6000803e3d6000fd5b505050506040513d601f19601f820116820180604052508101906106469190611196565b600880546001810182557ff3f7a9fe364faab93b216da50a3214154f22a0a2b415b23a84c8169e8b636ee30180546001600160a01b03199081166001600160a01b0385811691821790935583546000828152600a6020908152604080832093909355948a16808252600b865290829020805490941683179093559354845188815293840152939450917f2b441112f88ae4b324ae75fa72f06e95a0bda7bca0621af0cceae2e36b80c909910160405180910390a392915050565b6000546001600160a01b0316331461072d5760405163a59d7f4d60e01b815233600482015260240161054d565b61271081111561075b57604051637150bba160e01b815260048101829052612710602482015260440161054d565b6001600160a01b0382166000818152600c6020908152604091829020849055815192835282018390527f64e3f60034b49ebd0df0b682e6a024f73ca7b62e51bbe91bf33bcd2c3c16159f91015b60405180910390a15050565b6000546001600160a01b031633146107e15760405163a59d7f4d60e01b815233600482015260240161054d565b61271081111561080f57604051637150bba160e01b815260048101829052612710602482015260440161054d565b6001600160a01b0382166000818152600d6020908152604091829020849055815192835282018390527f95ce88c220684eb1cbfa29b8c489102dd6ac38a615bd9f16c996786636ebb9ca91016107a8565b6000546001600160a01b0316331461088d5760405163a59d7f4d60e01b815233600482015260240161054d565b6001600160a01b038084166000908152600b602052604090205416806108d157604051633f36c1ab60e01b81526001600160a01b038516600482015260240161054d565b6040516332196a0160e01b81526001600160a01b038216906332196a01906108ff9086908690600401611323565b600060405180830381600087803b15801561091957600080fd5b505af115801561092d573d6000803e3d6000fd5b5050505050505050565b6000546001600160a01b031633146109645760405163a59d7f4d60e01b815233600482015260240161054d565b61271081111561099257604051637150bba160e01b815260048101829052612710602482015260440161054d565b6001600160a01b0382166000818152600e6020908152604091829020849055815192835282018390527f0b2fbf1cb794ef27c93f2189ce22f82871c05ecfb1d103d7d7bb7090118dc1c691016107a8565b6000546001600160a01b03163314610a105760405163a59d7f4d60e01b815233600482015260240161054d565b6001600160a01b038216600081815260096020908152604091829020805460ff19168515159081179091558251938452908301527f1618a22a3b00b9ac70fd5a82f1f5cdd8cb272bd0f1b740ddf7c26ab05881dd5b91016107a8565b6000546001600160a01b03163314610a995760405163a59d7f4d60e01b815233600482015260240161054d565b6001600160a01b038116610ac05760405163d92e233d60e01b815260040160405180910390fd5b600280546001600160a01b0319166001600160a01b0383169081179091556040519081527ff724a45d041687842411f2b977ef22ab8f43c8f1104f4592b42a00f9b34a643d906020015b60405180910390a150565b6000546001600160a01b03163314610b425760405163a59d7f4d60e01b815233600482015260240161054d565b612710811015610b705760405163102a6c2760e01b815260048101829052612710602482015260440161054d565b60068190556040518181527f76ac3f03024a7eaac1162b2497ce4f632a0fe15eac444f9b01fff9620a166c2590602001610b0a565b6000546001600160a01b03163314610bd25760405163a59d7f4d60e01b815233600482015260240161054d565b6001600160a01b038116610bf95760405163d92e233d60e01b815260040160405180910390fd5b600180546001600160a01b0319166001600160a01b0383169081179091556040519081527f193361fce04ed0c4e2cb4638cdc21c56d4313f5066142224555c49d3933e7ca490602001610b0a565b6000546001600160a01b03163314610c745760405163a59d7f4d60e01b815233600482015260240161054d565b6001600160a01b038116610c9b5760405163d92e233d60e01b815260040160405180910390fd5b600380546001600160a01b0319166001600160a01b0383169081179091556040519081527fed2325536fb5243d4b19d1781d46658efaf1b668c1d8a693d050be0dd1cbfd3090602001610b0a565b6000546001600160a01b03163314610d165760405163a59d7f4d60e01b815233600482015260240161054d565b6001600160a01b038083166000908152600b60205260409020541680610d5a57604051633f36c1ab60e01b81526001600160a01b038416600482015260240161054d565b60405162e8433960e51b8152600481018390526001600160a01b03821690631d08672090602401600060405180830381600087803b158015610d9b57600080fd5b505af1158015610daf573d6000803e3d6000fd5b50505050505050565b6001600160a01b038082166000908152600b602052604081205490911680610de35750600092915050565b806001600160a01b031663c392f7666040518163ffffffff1660e01b815260040160206040518083038186803b158015610e1c57600080fd5b505afa158015610e30573d6000803e3d6000fd5b505050506040513d601f19601f82011682018060405250810190610e54919061130a565b9392505050565b60088181548110610e6b57600080fd5b6000918252602090912001546001600160a01b0316905081565b6000546001600160a01b03163314610eb25760405163a59d7f4d60e01b815233600482015260240161054d565b612710811115610ee057604051637150bba160e01b815260048101829052612710602482015260440161054d565b60058190556040518181527f43c0669c98845a19f0c83c170dafac37d88ab6841d159a3b478365715e09a11990602001610b0a565b6000546001600160a01b03163314610f425760405163a59d7f4d60e01b815233600482015260240161054d565b6001600160a01b038116610f695760405163d92e233d60e01b815260040160405180910390fd5b600080546001600160a01b0319166001600160a01b0383169081179091556040519081527f54a6385aa0292b04e1ef8513253c17d1863f7cdfc87029d77fd55cc4c2e717e290602001610b0a565b6000546001600160a01b03163314610fe45760405163a59d7f4d60e01b815233600482015260240161054d565b6001600160a01b03811661100b5760405163d92e233d60e01b815260040160405180910390fd5b600480546001600160a01b0319166001600160a01b0383169081179091556040519081527f97011acc091d73d67f71ff78bdb3837ce0103f4a52e95b01f50a28b9f7821ba690602001610b0a565b6000546001600160a01b031633146110865760405163a59d7f4d60e01b815233600482015260240161054d565b62278d008110156110b65760405163102a6c2760e01b81526004810182905262278d00602482015260440161054d565b60078190556040518181527f3b655fff5646f76885baca7e1dadf8b8e0095ff01de8f96a0cf75c8d8cfb53d890602001610b0a565b600082601f8301126110fc57600080fd5b8135602061111161110c836113cd565b61139c565b80838252828201915082860187848660051b890101111561113157600080fd5b60005b858110156111575761114582611164565b84529284019290840190600101611134565b5090979650505050505050565b8035801515811461117457600080fd5b919050565b60006020828403121561118b57600080fd5b8135610e5481611407565b6000602082840312156111a857600080fd5b8151610e5481611407565b6000806000606084860312156111c857600080fd5b83356111d381611407565b925060208481013567ffffffffffffffff808211156111f157600080fd5b818701915087601f83011261120557600080fd5b813561121361110c826113cd565b8082825285820191508585018b878560051b880101111561123357600080fd5b600095505b8386101561125f57803561124b81611407565b835260019590950194918601918601611238565b5096505050604087013592508083111561127857600080fd5b5050611286868287016110eb565b9150509250925092565b600080604083850312156112a357600080fd5b82356112ae81611407565b91506112bc60208401611164565b90509250929050565b600080604083850312156112d857600080fd5b82356112e381611407565b946020939093013593505050565b60006020828403121561130357600080fd5b5035919050565b60006020828403121561131c57600080fd5b5051919050565b604080825283519082018190526000906020906060840190828701845b828110156113655781516001600160a01b031684529284019290840190600101611340565b5050508381038285015284518082528583019183019060005b8181101561115757835115158352928401929184019160010161137e565b604051601f8201601f1916810167ffffffffffffffff811182821017156113c5576113c56113f1565b604052919050565b600067ffffffffffffffff8211156113e7576113e76113f1565b5060051b60200190565b634e487b7160e01b600052604160045260246000fd5b6001600160a01b038116811461141c57600080fd5b5056fea264697066735822122025c8ea9e6566c0a779feb1e85028775f16f1c109d37ceba237ab81d727f1ded264736f6c63430008070033","opcodes":"PUSH1 0xC0 PUSH1 0x40 MSTORE CALLVALUE DUP1 ISZERO PUSH3 0x11 JUMPI PUSH1 0x0 DUP1 REVERT JUMPDEST POP PUSH1 0x40 MLOAD PUSH3 0x15C3 CODESIZE SUB DUP1 PUSH3 0x15C3 DUP4 CODECOPY DUP2 ADD PUSH1 0x40 DUP2 SWAP1 MSTORE PUSH3 0x34 SWAP2 PUSH3 0xCB JUMP JUMPDEST PUSH1 0x1 PUSH1 0x1 PUSH1 0x60 SHL SUB NOT PUSH1 0x60 SWAP6 DUP7 SHL DUP2 AND PUSH1 0x80 MSTORE SWAP4 SWAP1 SWAP5 SHL SWAP1 SWAP3 AND PUSH1 0xA0 MSTORE PUSH1 0x1 DUP1 SLOAD PUSH1 0x1 PUSH1 0x1 PUSH1 0xA0 SHL SUB SWAP3 DUP4 AND PUSH1 0x1 PUSH1 0x1 PUSH1 0xA0 SHL SUB NOT SWAP2 DUP3 AND OR SWAP1 SWAP2 SSTORE PUSH1 0x2 DUP1 SLOAD SWAP4 DUP4 AND SWAP4 DUP3 AND SWAP4 SWAP1 SWAP4 OR SWAP1 SWAP3 SSTORE PUSH1 0x3 DUP1 SLOAD SWAP2 SWAP1 SWAP4 AND SWAP1 DUP3 AND OR SWAP1 SWAP2 SSTORE PUSH1 0x0 DUP1 SLOAD SWAP1 SWAP2 AND CALLER OR SWAP1 SSTORE PUSH2 0x2710 PUSH1 0x6 SSTORE PUSH3 0x278D00 PUSH1 0x7 SSTORE PUSH3 0x13B JUMP JUMPDEST DUP1 MLOAD PUSH1 0x1 PUSH1 0x1 PUSH1 0xA0 SHL SUB DUP2 AND DUP2 EQ PUSH3 0xC6 JUMPI PUSH1 0x0 DUP1 REVERT JUMPDEST SWAP2 SWAP1 POP JUMP JUMPDEST PUSH1 0x0 DUP1 PUSH1 0x0 DUP1 PUSH1 0x0 PUSH1 0xA0 DUP7 DUP9 SUB SLT ISZERO PUSH3 0xE4 JUMPI PUSH1 0x0 DUP1 REVERT JUMPDEST PUSH3 0xEF DUP7 PUSH3 0xAE JUMP JUMPDEST SWAP5 POP PUSH3 0xFF PUSH1 0x20 DUP8 ADD PUSH3 0xAE JUMP JUMPDEST SWAP4 POP PUSH3 0x10F PUSH1 0x40 DUP8 ADD PUSH3 0xAE JUMP JUMPDEST SWAP3 POP PUSH3 0x11F PUSH1 0x60 DUP8 ADD PUSH3 0xAE JUMP JUMPDEST SWAP2 POP PUSH3 0x12F PUSH1 0x80 DUP8 ADD PUSH3 0xAE JUMP JUMPDEST SWAP1 POP SWAP3 SWAP6 POP SWAP3 SWAP6 SWAP1 SWAP4 POP JUMP JUMPDEST PUSH1 0x80 MLOAD PUSH1 0x60 SHR PUSH1 0xA0 MLOAD PUSH1 0x60 SHR PUSH2 0x1455 PUSH3 0x16E PUSH1 0x0 CODECOPY PUSH1 0x0 PUSH2 0x394 ADD MSTORE PUSH1 0x0 DUP2 DUP2 PUSH2 0x267 ADD MSTORE PUSH2 0x5CA ADD MSTORE PUSH2 0x1455 PUSH1 0x0 RETURN INVALID PUSH1 0x80 PUSH1 0x40 MSTORE CALLVALUE DUP1 ISZERO PUSH2 0x10 JUMPI PUSH1 0x0 DUP1 REVERT JUMPDEST POP PUSH1 0x4 CALLDATASIZE LT PUSH2 0x206 JUMPI PUSH1 0x0 CALLDATALOAD PUSH1 0xE0 SHR DUP1 PUSH4 0x8CD47415 GT PUSH2 0x11A JUMPI DUP1 PUSH4 0xAD5D8E51 GT PUSH2 0xAD JUMPI DUP1 PUSH4 0xE0E6799F GT PUSH2 0x7C JUMPI DUP1 PUSH4 0xE0E6799F EQ PUSH2 0x4C1 JUMPI DUP1 PUSH4 0xE47EB30C EQ PUSH2 0x4D4 JUMPI DUP1 PUSH4 0xEDDF82BB EQ PUSH2 0x4E7 JUMPI DUP1 PUSH4 0xEF369252 EQ PUSH2 0x4F0 JUMPI DUP1 PUSH4 0xF5D0E175 EQ PUSH2 0x503 JUMPI PUSH1 0x0 DUP1 REVERT JUMPDEST DUP1 PUSH4 0xAD5D8E51 EQ PUSH2 0x45B JUMPI DUP1 PUSH4 0xB13AA2D6 EQ PUSH2 0x47B JUMPI DUP1 PUSH4 0xB42754A5 EQ PUSH2 0x48E JUMPI DUP1 PUSH4 0xD0EBDBE7 EQ PUSH2 0x4AE JUMPI PUSH1 0x0 DUP1 REVERT JUMPDEST DUP1 PUSH4 0xAA6DFE03 GT PUSH2 0xE9 JUMPI DUP1 PUSH4 0xAA6DFE03 EQ PUSH2 0x40F JUMPI DUP1 PUSH4 0xAAC9D2B8 EQ PUSH2 0x422 JUMPI DUP1 PUSH4 0xAC436BDF EQ PUSH2 0x435 JUMPI DUP1 PUSH4 0xAC4AFA38 EQ PUSH2 0x448 JUMPI PUSH1 0x0 DUP1 REVERT JUMPDEST DUP1 PUSH4 0x8CD47415 EQ PUSH2 0x38F JUMPI DUP1 PUSH4 0x90F43680 EQ PUSH2 0x3B6 JUMPI DUP1 PUSH4 0x9142887F EQ PUSH2 0x3C9 JUMPI DUP1 PUSH4 0x9A307391 EQ PUSH2 0x3DC JUMPI PUSH1 0x0 DUP1 REVERT JUMPDEST DUP1 PUSH4 0x50772B3F GT PUSH2 0x19D JUMPI DUP1 PUSH4 0x6D274553 GT PUSH2 0x16C JUMPI DUP1 PUSH4 0x6D274553 EQ PUSH2 0x33A JUMPI DUP1 PUSH4 0x724E78DA EQ PUSH2 0x343 JUMPI DUP1 PUSH4 0x741BEF1A EQ PUSH2 0x356 JUMPI DUP1 PUSH4 0x75E58079 EQ PUSH2 0x369 JUMPI DUP1 PUSH4 0x7C21D5E0 EQ PUSH2 0x37C JUMPI PUSH1 0x0 DUP1 REVERT JUMPDEST DUP1 PUSH4 0x50772B3F EQ PUSH2 0x2EB JUMPI DUP1 PUSH4 0x558A7297 EQ PUSH2 0x2FE JUMPI DUP1 PUSH4 0x58F85880 EQ PUSH2 0x311 JUMPI DUP1 PUSH4 0x5FDE0EC0 EQ PUSH2 0x31A JUMPI PUSH1 0x0 DUP1 REVERT JUMPDEST DUP1 PUSH4 0x3B0E0E84 GT PUSH2 0x1D9 JUMPI DUP1 PUSH4 0x3B0E0E84 EQ PUSH2 0x289 JUMPI DUP1 PUSH4 0x481C6A75 EQ PUSH2 0x29C JUMPI DUP1 PUSH4 0x4D5C262E EQ PUSH2 0x2AF JUMPI DUP1 PUSH4 0x4D83BC33 EQ PUSH2 0x2C2 JUMPI PUSH1 0x0 DUP1 REVERT JUMPDEST DUP1 PUSH4 0x81E3EDA EQ PUSH2 0x20B JUMPI DUP1 PUSH4 0x12D36171 EQ PUSH2 0x222 JUMPI DUP1 PUSH4 0x147FB081 EQ PUSH2 0x24D JUMPI DUP1 PUSH4 0x3119049A EQ PUSH2 0x262 JUMPI JUMPDEST PUSH1 0x0 DUP1 REVERT JUMPDEST PUSH1 0x8 SLOAD JUMPDEST PUSH1 0x40 MLOAD SWAP1 DUP2 MSTORE PUSH1 0x20 ADD JUMPDEST PUSH1 0x40 MLOAD DUP1 SWAP2 SUB SWAP1 RETURN JUMPDEST PUSH2 0x235 PUSH2 0x230 CALLDATASIZE PUSH1 0x4 PUSH2 0x12C5 JUMP JUMPDEST PUSH2 0x523 JUMP JUMPDEST PUSH1 0x40 MLOAD PUSH1 0x1 PUSH1 0x1 PUSH1 0xA0 SHL SUB SWAP1 SWAP2 AND DUP2 MSTORE PUSH1 0x20 ADD PUSH2 0x219 JUMP JUMPDEST PUSH2 0x260 PUSH2 0x25B CALLDATASIZE PUSH1 0x4 PUSH2 0x12C5 JUMP JUMPDEST PUSH2 0x700 JUMP JUMPDEST STOP JUMPDEST PUSH2 0x235 PUSH32 0x0 DUP2 JUMP JUMPDEST PUSH2 0x260 PUSH2 0x297 CALLDATASIZE PUSH1 0x4 PUSH2 0x12C5 JUMP JUMPDEST PUSH2 0x7B4 JUMP JUMPDEST PUSH1 0x0 SLOAD PUSH2 0x235 SWAP1 PUSH1 0x1 PUSH1 0x1 PUSH1 0xA0 SHL SUB AND DUP2 JUMP JUMPDEST PUSH2 0x260 PUSH2 0x2BD CALLDATASIZE PUSH1 0x4 PUSH2 0x11B3 JUMP JUMPDEST PUSH2 0x860 JUMP JUMPDEST PUSH2 0x235 PUSH2 0x2D0 CALLDATASIZE PUSH1 0x4 PUSH2 0x1179 JUMP JUMPDEST PUSH1 0xB PUSH1 0x20 MSTORE PUSH1 0x0 SWAP1 DUP2 MSTORE PUSH1 0x40 SWAP1 KECCAK256 SLOAD PUSH1 0x1 PUSH1 0x1 PUSH1 0xA0 SHL SUB AND DUP2 JUMP JUMPDEST PUSH2 0x260 PUSH2 0x2F9 CALLDATASIZE PUSH1 0x4 PUSH2 0x12C5 JUMP JUMPDEST PUSH2 0x937 JUMP JUMPDEST PUSH2 0x260 PUSH2 0x30C CALLDATASIZE PUSH1 0x4 PUSH2 0x1290 JUMP JUMPDEST PUSH2 0x9E3 JUMP JUMPDEST PUSH2 0x20F PUSH1 0x5 SLOAD DUP2 JUMP JUMPDEST PUSH2 0x20F PUSH2 0x328 CALLDATASIZE PUSH1 0x4 PUSH2 0x1179 JUMP JUMPDEST PUSH1 0xE PUSH1 0x20 MSTORE PUSH1 0x0 SWAP1 DUP2 MSTORE PUSH1 0x40 SWAP1 KECCAK256 SLOAD DUP2 JUMP JUMPDEST PUSH2 0x20F PUSH1 0x6 SLOAD DUP2 JUMP JUMPDEST PUSH2 0x260 PUSH2 0x351 CALLDATASIZE PUSH1 0x4 PUSH2 0x1179 JUMP JUMPDEST PUSH2 0xA6C JUMP JUMPDEST PUSH1 0x2 SLOAD PUSH2 0x235 SWAP1 PUSH1 0x1 PUSH1 0x1 PUSH1 0xA0 SHL SUB AND DUP2 JUMP JUMPDEST PUSH1 0x1 SLOAD PUSH2 0x235 SWAP1 PUSH1 0x1 PUSH1 0x1 PUSH1 0xA0 SHL SUB AND DUP2 JUMP JUMPDEST PUSH1 0x3 SLOAD PUSH2 0x235 SWAP1 PUSH1 0x1 PUSH1 0x1 PUSH1 0xA0 SHL SUB AND DUP2 JUMP JUMPDEST PUSH2 0x235 PUSH32 0x0 DUP2 JUMP JUMPDEST PUSH2 0x260 PUSH2 0x3C4 CALLDATASIZE PUSH1 0x4 PUSH2 0x12F1 JUMP JUMPDEST PUSH2 0xB15 JUMP JUMPDEST PUSH2 0x260 PUSH2 0x3D7 CALLDATASIZE PUSH1 0x4 PUSH2 0x1179 JUMP JUMPDEST PUSH2 0xBA5 JUMP JUMPDEST PUSH2 0x3FF PUSH2 0x3EA CALLDATASIZE PUSH1 0x4 PUSH2 0x1179 JUMP JUMPDEST PUSH1 0x9 PUSH1 0x20 MSTORE PUSH1 0x0 SWAP1 DUP2 MSTORE PUSH1 0x40 SWAP1 KECCAK256 SLOAD PUSH1 0xFF AND DUP2 JUMP JUMPDEST PUSH1 0x40 MLOAD SWAP1 ISZERO ISZERO DUP2 MSTORE PUSH1 0x20 ADD PUSH2 0x219 JUMP JUMPDEST PUSH2 0x260 PUSH2 0x41D CALLDATASIZE PUSH1 0x4 PUSH2 0x1179 JUMP JUMPDEST PUSH2 0xC47 JUMP JUMPDEST PUSH2 0x260 PUSH2 0x430 CALLDATASIZE PUSH1 0x4 PUSH2 0x12C5 JUMP JUMPDEST PUSH2 0xCE9 JUMP JUMPDEST PUSH2 0x20F PUSH2 0x443 CALLDATASIZE PUSH1 0x4 PUSH2 0x1179 JUMP JUMPDEST PUSH2 0xDB8 JUMP JUMPDEST PUSH2 0x235 PUSH2 0x456 CALLDATASIZE PUSH1 0x4 PUSH2 0x12F1 JUMP JUMPDEST PUSH2 0xE5B JUMP JUMPDEST PUSH2 0x20F PUSH2 0x469 CALLDATASIZE PUSH1 0x4 PUSH2 0x1179 JUMP JUMPDEST PUSH1 0xC PUSH1 0x20 MSTORE PUSH1 0x0 SWAP1 DUP2 MSTORE PUSH1 0x40 SWAP1 KECCAK256 SLOAD DUP2 JUMP JUMPDEST PUSH2 0x260 PUSH2 0x489 CALLDATASIZE PUSH1 0x4 PUSH2 0x12F1 JUMP JUMPDEST PUSH2 0xE85 JUMP JUMPDEST PUSH2 0x20F PUSH2 0x49C CALLDATASIZE PUSH1 0x4 PUSH2 0x1179 JUMP JUMPDEST PUSH1 0xA PUSH1 0x20 MSTORE PUSH1 0x0 SWAP1 DUP2 MSTORE PUSH1 0x40 SWAP1 KECCAK256 SLOAD DUP2 JUMP JUMPDEST PUSH2 0x260 PUSH2 0x4BC CALLDATASIZE PUSH1 0x4 PUSH2 0x1179 JUMP JUMPDEST PUSH2 0xF15 JUMP JUMPDEST PUSH2 0x260 PUSH2 0x4CF CALLDATASIZE PUSH1 0x4 PUSH2 0x1179 JUMP JUMPDEST PUSH2 0xFB7 JUMP JUMPDEST PUSH2 0x260 PUSH2 0x4E2 CALLDATASIZE PUSH1 0x4 PUSH2 0x12F1 JUMP JUMPDEST PUSH2 0x1059 JUMP JUMPDEST PUSH2 0x20F PUSH1 0x7 SLOAD DUP2 JUMP JUMPDEST PUSH1 0x4 SLOAD PUSH2 0x235 SWAP1 PUSH1 0x1 PUSH1 0x1 PUSH1 0xA0 SHL SUB AND DUP2 JUMP JUMPDEST PUSH2 0x20F PUSH2 0x511 CALLDATASIZE PUSH1 0x4 PUSH2 0x1179 JUMP JUMPDEST PUSH1 0xD PUSH1 0x20 MSTORE PUSH1 0x0 SWAP1 DUP2 MSTORE PUSH1 0x40 SWAP1 KECCAK256 SLOAD DUP2 JUMP JUMPDEST PUSH1 0x0 DUP1 SLOAD PUSH1 0x1 PUSH1 0x1 PUSH1 0xA0 SHL SUB AND CALLER EQ PUSH2 0x556 JUMPI PUSH1 0x40 MLOAD PUSH4 0xA59D7F4D PUSH1 0xE0 SHL DUP2 MSTORE CALLER PUSH1 0x4 DUP3 ADD MSTORE PUSH1 0x24 ADD JUMPDEST PUSH1 0x40 MLOAD DUP1 SWAP2 SUB SWAP1 REVERT JUMPDEST POP PUSH1 0x1 PUSH1 0x1 PUSH1 0xA0 SHL SUB DUP1 DUP4 AND PUSH1 0x0 SWAP1 DUP2 MSTORE PUSH1 0xB PUSH1 0x20 MSTORE PUSH1 0x40 SWAP1 KECCAK256 SLOAD AND DUP1 ISZERO PUSH2 0x5A4 JUMPI PUSH1 0x40 MLOAD PUSH4 0x84252D5 PUSH1 0xE1 SHL DUP2 MSTORE PUSH1 0x1 PUSH1 0x1 PUSH1 0xA0 SHL SUB DUP1 DUP6 AND PUSH1 0x4 DUP4 ADD MSTORE DUP3 AND PUSH1 0x24 DUP3 ADD MSTORE PUSH1 0x44 ADD PUSH2 0x54D JUMP JUMPDEST PUSH1 0x40 MLOAD PUSH4 0x27C74F7F PUSH1 0xE0 SHL DUP2 MSTORE PUSH1 0x1 PUSH1 0x1 PUSH1 0xA0 SHL SUB DUP5 DUP2 AND PUSH1 0x4 DUP4 ADD MSTORE PUSH1 0x24 DUP3 ADD DUP5 SWAP1 MSTORE PUSH32 0x0 AND SWAP1 PUSH4 0x27C74F7F SWAP1 PUSH1 0x44 ADD PUSH1 0x20 PUSH1 0x40 MLOAD DUP1 DUP4 SUB DUP2 PUSH1 0x0 DUP8 DUP1 EXTCODESIZE ISZERO DUP1 ISZERO PUSH2 0x60E JUMPI PUSH1 0x0 DUP1 REVERT JUMPDEST POP GAS CALL ISZERO DUP1 ISZERO PUSH2 0x622 JUMPI RETURNDATASIZE PUSH1 0x0 DUP1 RETURNDATACOPY RETURNDATASIZE PUSH1 0x0 REVERT JUMPDEST POP POP POP POP PUSH1 0x40 MLOAD RETURNDATASIZE PUSH1 0x1F NOT PUSH1 0x1F DUP3 ADD AND DUP3 ADD DUP1 PUSH1 0x40 MSTORE POP DUP2 ADD SWAP1 PUSH2 0x646 SWAP2 SWAP1 PUSH2 0x1196 JUMP JUMPDEST PUSH1 0x8 DUP1 SLOAD PUSH1 0x1 DUP2 ADD DUP3 SSTORE PUSH32 0xF3F7A9FE364FAAB93B216DA50A3214154F22A0A2B415B23A84C8169E8B636EE3 ADD DUP1 SLOAD PUSH1 0x1 PUSH1 0x1 PUSH1 0xA0 SHL SUB NOT SWAP1 DUP2 AND PUSH1 0x1 PUSH1 0x1 PUSH1 0xA0 SHL SUB DUP6 DUP2 AND SWAP2 DUP3 OR SWAP1 SWAP4 SSTORE DUP4 SLOAD PUSH1 0x0 DUP3 DUP2 MSTORE PUSH1 0xA PUSH1 0x20 SWAP1 DUP2 MSTORE PUSH1 0x40 DUP1 DUP4 KECCAK256 SWAP4 SWAP1 SWAP4 SSTORE SWAP5 DUP11 AND DUP1 DUP3 MSTORE PUSH1 0xB DUP7 MSTORE SWAP1 DUP3 SWAP1 KECCAK256 DUP1 SLOAD SWAP1 SWAP5 AND DUP4 OR SWAP1 SWAP4 SSTORE SWAP4 SLOAD DUP5 MLOAD DUP9 DUP2 MSTORE SWAP4 DUP5 ADD MSTORE SWAP4 SWAP5 POP SWAP2 PUSH32 0x2B441112F88AE4B324AE75FA72F06E95A0BDA7BCA0621AF0CCEAE2E36B80C909 SWAP2 ADD PUSH1 0x40 MLOAD DUP1 SWAP2 SUB SWAP1 LOG3 SWAP3 SWAP2 POP POP JUMP JUMPDEST PUSH1 0x0 SLOAD PUSH1 0x1 PUSH1 0x1 PUSH1 0xA0 SHL SUB AND CALLER EQ PUSH2 0x72D JUMPI PUSH1 0x40 MLOAD PUSH4 0xA59D7F4D PUSH1 0xE0 SHL DUP2 MSTORE CALLER PUSH1 0x4 DUP3 ADD MSTORE PUSH1 0x24 ADD PUSH2 0x54D JUMP JUMPDEST PUSH2 0x2710 DUP2 GT ISZERO PUSH2 0x75B JUMPI PUSH1 0x40 MLOAD PUSH4 0x7150BBA1 PUSH1 0xE0 SHL DUP2 MSTORE PUSH1 0x4 DUP2 ADD DUP3 SWAP1 MSTORE PUSH2 0x2710 PUSH1 0x24 DUP3 ADD MSTORE PUSH1 0x44 ADD PUSH2 0x54D JUMP JUMPDEST PUSH1 0x1 PUSH1 0x1 PUSH1 0xA0 SHL SUB DUP3 AND PUSH1 0x0 DUP2 DUP2 MSTORE PUSH1 0xC PUSH1 0x20 SWAP1 DUP2 MSTORE PUSH1 0x40 SWAP2 DUP3 SWAP1 KECCAK256 DUP5 SWAP1 SSTORE DUP2 MLOAD SWAP3 DUP4 MSTORE DUP3 ADD DUP4 SWAP1 MSTORE PUSH32 0x64E3F60034B49EBD0DF0B682E6A024F73CA7B62E51BBE91BF33BCD2C3C16159F SWAP2 ADD JUMPDEST PUSH1 0x40 MLOAD DUP1 SWAP2 SUB SWAP1 LOG1 POP POP JUMP JUMPDEST PUSH1 0x0 SLOAD PUSH1 0x1 PUSH1 0x1 PUSH1 0xA0 SHL SUB AND CALLER EQ PUSH2 0x7E1 JUMPI PUSH1 0x40 MLOAD PUSH4 0xA59D7F4D PUSH1 0xE0 SHL DUP2 MSTORE CALLER PUSH1 0x4 DUP3 ADD MSTORE PUSH1 0x24 ADD PUSH2 0x54D JUMP JUMPDEST PUSH2 0x2710 DUP2 GT ISZERO PUSH2 0x80F JUMPI PUSH1 0x40 MLOAD PUSH4 0x7150BBA1 PUSH1 0xE0 SHL DUP2 MSTORE PUSH1 0x4 DUP2 ADD DUP3 SWAP1 MSTORE PUSH2 0x2710 PUSH1 0x24 DUP3 ADD MSTORE PUSH1 0x44 ADD PUSH2 0x54D JUMP JUMPDEST PUSH1 0x1 PUSH1 0x1 PUSH1 0xA0 SHL SUB DUP3 AND PUSH1 0x0 DUP2 DUP2 MSTORE PUSH1 0xD PUSH1 0x20 SWAP1 DUP2 MSTORE PUSH1 0x40 SWAP2 DUP3 SWAP1 KECCAK256 DUP5 SWAP1 SSTORE DUP2 MLOAD SWAP3 DUP4 MSTORE DUP3 ADD DUP4 SWAP1 MSTORE PUSH32 0x95CE88C220684EB1CBFA29B8C489102DD6AC38A615BD9F16C996786636EBB9CA SWAP2 ADD PUSH2 0x7A8 JUMP JUMPDEST PUSH1 0x0 SLOAD PUSH1 0x1 PUSH1 0x1 PUSH1 0xA0 SHL SUB AND CALLER EQ PUSH2 0x88D JUMPI PUSH1 0x40 MLOAD PUSH4 0xA59D7F4D PUSH1 0xE0 SHL DUP2 MSTORE CALLER PUSH1 0x4 DUP3 ADD MSTORE PUSH1 0x24 ADD PUSH2 0x54D JUMP JUMPDEST PUSH1 0x1 PUSH1 0x1 PUSH1 0xA0 SHL SUB DUP1 DUP5 AND PUSH1 0x0 SWAP1 DUP2 MSTORE PUSH1 0xB PUSH1 0x20 MSTORE PUSH1 0x40 SWAP1 KECCAK256 SLOAD AND DUP1 PUSH2 0x8D1 JUMPI PUSH1 0x40 MLOAD PUSH4 0x3F36C1AB PUSH1 0xE0 SHL DUP2 MSTORE PUSH1 0x1 PUSH1 0x1 PUSH1 0xA0 SHL SUB DUP6 AND PUSH1 0x4 DUP3 ADD MSTORE PUSH1 0x24 ADD PUSH2 0x54D JUMP JUMPDEST PUSH1 0x40 MLOAD PUSH4 0x32196A01 PUSH1 0xE0 SHL DUP2 MSTORE PUSH1 0x1 PUSH1 0x1 PUSH1 0xA0 SHL SUB DUP3 AND SWAP1 PUSH4 0x32196A01 SWAP1 PUSH2 0x8FF SWAP1 DUP7 SWAP1 DUP7 SWAP1 PUSH1 0x4 ADD PUSH2 0x1323 JUMP JUMPDEST PUSH1 0x0 PUSH1 0x40 MLOAD DUP1 DUP4 SUB DUP2 PUSH1 0x0 DUP8 DUP1 EXTCODESIZE ISZERO DUP1 ISZERO PUSH2 0x919 JUMPI PUSH1 0x0 DUP1 REVERT JUMPDEST POP GAS CALL ISZERO DUP1 ISZERO PUSH2 0x92D JUMPI RETURNDATASIZE PUSH1 0x0 DUP1 RETURNDATACOPY RETURNDATASIZE PUSH1 0x0 REVERT JUMPDEST POP POP POP POP POP POP POP POP JUMP JUMPDEST PUSH1 0x0 SLOAD PUSH1 0x1 PUSH1 0x1 PUSH1 0xA0 SHL SUB AND CALLER EQ PUSH2 0x964 JUMPI PUSH1 0x40 MLOAD PUSH4 0xA59D7F4D PUSH1 0xE0 SHL DUP2 MSTORE CALLER PUSH1 0x4 DUP3 ADD MSTORE PUSH1 0x24 ADD PUSH2 0x54D JUMP JUMPDEST PUSH2 0x2710 DUP2 GT ISZERO PUSH2 0x992 JUMPI PUSH1 0x40 MLOAD PUSH4 0x7150BBA1 PUSH1 0xE0 SHL DUP2 MSTORE PUSH1 0x4 DUP2 ADD DUP3 SWAP1 MSTORE PUSH2 0x2710 PUSH1 0x24 DUP3 ADD MSTORE PUSH1 0x44 ADD PUSH2 0x54D JUMP JUMPDEST PUSH1 0x1 PUSH1 0x1 PUSH1 0xA0 SHL SUB DUP3 AND PUSH1 0x0 DUP2 DUP2 MSTORE PUSH1 0xE PUSH1 0x20 SWAP1 DUP2 MSTORE PUSH1 0x40 SWAP2 DUP3 SWAP1 KECCAK256 DUP5 SWAP1 SSTORE DUP2 MLOAD SWAP3 DUP4 MSTORE DUP3 ADD DUP4 SWAP1 MSTORE PUSH32 0xB2FBF1CB794EF27C93F2189CE22F82871C05ECFB1D103D7D7BB7090118DC1C6 SWAP2 ADD PUSH2 0x7A8 JUMP JUMPDEST PUSH1 0x0 SLOAD PUSH1 0x1 PUSH1 0x1 PUSH1 0xA0 SHL SUB AND CALLER EQ PUSH2 0xA10 JUMPI PUSH1 0x40 MLOAD PUSH4 0xA59D7F4D PUSH1 0xE0 SHL DUP2 MSTORE CALLER PUSH1 0x4 DUP3 ADD MSTORE PUSH1 0x24 ADD PUSH2 0x54D JUMP JUMPDEST PUSH1 0x1 PUSH1 0x1 PUSH1 0xA0 SHL SUB DUP3 AND PUSH1 0x0 DUP2 DUP2 MSTORE PUSH1 0x9 PUSH1 0x20 SWAP1 DUP2 MSTORE PUSH1 0x40 SWAP2 DUP3 SWAP1 KECCAK256 DUP1 SLOAD PUSH1 0xFF NOT AND DUP6 ISZERO ISZERO SWAP1 DUP2 OR SWAP1 SWAP2 SSTORE DUP3 MLOAD SWAP4 DUP5 MSTORE SWAP1 DUP4 ADD MSTORE PUSH32 0x1618A22A3B00B9AC70FD5A82F1F5CDD8CB272BD0F1B740DDF7C26AB05881DD5B SWAP2 ADD PUSH2 0x7A8 JUMP JUMPDEST PUSH1 0x0 SLOAD PUSH1 0x1 PUSH1 0x1 PUSH1 0xA0 SHL SUB AND CALLER EQ PUSH2 0xA99 JUMPI PUSH1 0x40 MLOAD PUSH4 0xA59D7F4D PUSH1 0xE0 SHL DUP2 MSTORE CALLER PUSH1 0x4 DUP3 ADD MSTORE PUSH1 0x24 ADD PUSH2 0x54D JUMP JUMPDEST PUSH1 0x1 PUSH1 0x1 PUSH1 0xA0 SHL SUB DUP2 AND PUSH2 0xAC0 JUMPI PUSH1 0x40 MLOAD PUSH4 0xD92E233D PUSH1 0xE0 SHL DUP2 MSTORE PUSH1 0x4 ADD PUSH1 0x40 MLOAD DUP1 SWAP2 SUB SWAP1 REVERT JUMPDEST PUSH1 0x2 DUP1 SLOAD PUSH1 0x1 PUSH1 0x1 PUSH1 0xA0 SHL SUB NOT AND PUSH1 0x1 PUSH1 0x1 PUSH1 0xA0 SHL SUB DUP4 AND SWAP1 DUP2 OR SWAP1 SWAP2 SSTORE PUSH1 0x40 MLOAD SWAP1 DUP2 MSTORE PUSH32 0xF724A45D041687842411F2B977EF22AB8F43C8F1104F4592B42A00F9B34A643D SWAP1 PUSH1 0x20 ADD JUMPDEST PUSH1 0x40 MLOAD DUP1 SWAP2 SUB SWAP1 LOG1 POP JUMP JUMPDEST PUSH1 0x0 SLOAD PUSH1 0x1 PUSH1 0x1 PUSH1 0xA0 SHL SUB AND CALLER EQ PUSH2 0xB42 JUMPI PUSH1 0x40 MLOAD PUSH4 0xA59D7F4D PUSH1 0xE0 SHL DUP2 MSTORE CALLER PUSH1 0x4 DUP3 ADD MSTORE PUSH1 0x24 ADD PUSH2 0x54D JUMP JUMPDEST PUSH2 0x2710 DUP2 LT ISZERO PUSH2 0xB70 JUMPI PUSH1 0x40 MLOAD PUSH4 0x102A6C27 PUSH1 0xE0 SHL DUP2 MSTORE PUSH1 0x4 DUP2 ADD DUP3 SWAP1 MSTORE PUSH2 0x2710 PUSH1 0x24 DUP3 ADD MSTORE PUSH1 0x44 ADD PUSH2 0x54D JUMP JUMPDEST PUSH1 0x6 DUP2 SWAP1 SSTORE PUSH1 0x40 MLOAD DUP2 DUP2 MSTORE PUSH32 0x76AC3F03024A7EAAC1162B2497CE4F632A0FE15EAC444F9B01FFF9620A166C25 SWAP1 PUSH1 0x20 ADD PUSH2 0xB0A JUMP JUMPDEST PUSH1 0x0 SLOAD PUSH1 0x1 PUSH1 0x1 PUSH1 0xA0 SHL SUB AND CALLER EQ PUSH2 0xBD2 JUMPI PUSH1 0x40 MLOAD PUSH4 0xA59D7F4D PUSH1 0xE0 SHL DUP2 MSTORE CALLER PUSH1 0x4 DUP3 ADD MSTORE PUSH1 0x24 ADD PUSH2 0x54D JUMP JUMPDEST PUSH1 0x1 PUSH1 0x1 PUSH1 0xA0 SHL SUB DUP2 AND PUSH2 0xBF9 JUMPI PUSH1 0x40 MLOAD PUSH4 0xD92E233D PUSH1 0xE0 SHL DUP2 MSTORE PUSH1 0x4 ADD PUSH1 0x40 MLOAD DUP1 SWAP2 SUB SWAP1 REVERT JUMPDEST PUSH1 0x1 DUP1 SLOAD PUSH1 0x1 PUSH1 0x1 PUSH1 0xA0 SHL SUB NOT AND PUSH1 0x1 PUSH1 0x1 PUSH1 0xA0 SHL SUB DUP4 AND SWAP1 DUP2 OR SWAP1 SWAP2 SSTORE PUSH1 0x40 MLOAD SWAP1 DUP2 MSTORE PUSH32 0x193361FCE04ED0C4E2CB4638CDC21C56D4313F5066142224555C49D3933E7CA4 SWAP1 PUSH1 0x20 ADD PUSH2 0xB0A JUMP JUMPDEST PUSH1 0x0 SLOAD PUSH1 0x1 PUSH1 0x1 PUSH1 0xA0 SHL SUB AND CALLER EQ PUSH2 0xC74 JUMPI PUSH1 0x40 MLOAD PUSH4 0xA59D7F4D PUSH1 0xE0 SHL DUP2 MSTORE CALLER PUSH1 0x4 DUP3 ADD MSTORE PUSH1 0x24 ADD PUSH2 0x54D JUMP JUMPDEST PUSH1 0x1 PUSH1 0x1 PUSH1 0xA0 SHL SUB DUP2 AND PUSH2 0xC9B JUMPI PUSH1 0x40 MLOAD PUSH4 0xD92E233D PUSH1 0xE0 SHL DUP2 MSTORE PUSH1 0x4 ADD PUSH1 0x40 MLOAD DUP1 SWAP2 SUB SWAP1 REVERT JUMPDEST PUSH1 0x3 DUP1 SLOAD PUSH1 0x1 PUSH1 0x1 PUSH1 0xA0 SHL SUB NOT AND PUSH1 0x1 PUSH1 0x1 PUSH1 0xA0 SHL SUB DUP4 AND SWAP1 DUP2 OR SWAP1 SWAP2 SSTORE PUSH1 0x40 MLOAD SWAP1 DUP2 MSTORE PUSH32 0xED2325536FB5243D4B19D1781D46658EFAF1B668C1D8A693D050BE0DD1CBFD30 SWAP1 PUSH1 0x20 ADD PUSH2 0xB0A JUMP JUMPDEST PUSH1 0x0 SLOAD PUSH1 0x1 PUSH1 0x1 PUSH1 0xA0 SHL SUB AND CALLER EQ PUSH2 0xD16 JUMPI PUSH1 0x40 MLOAD PUSH4 0xA59D7F4D PUSH1 0xE0 SHL DUP2 MSTORE CALLER PUSH1 0x4 DUP3 ADD MSTORE PUSH1 0x24 ADD PUSH2 0x54D JUMP JUMPDEST PUSH1 0x1 PUSH1 0x1 PUSH1 0xA0 SHL SUB DUP1 DUP4 AND PUSH1 0x0 SWAP1 DUP2 MSTORE PUSH1 0xB PUSH1 0x20 MSTORE PUSH1 0x40 SWAP1 KECCAK256 SLOAD AND DUP1 PUSH2 0xD5A JUMPI PUSH1 0x40 MLOAD PUSH4 0x3F36C1AB PUSH1 0xE0 SHL DUP2 MSTORE PUSH1 0x1 PUSH1 0x1 PUSH1 0xA0 SHL SUB DUP5 AND PUSH1 0x4 DUP3 ADD MSTORE PUSH1 0x24 ADD PUSH2 0x54D JUMP JUMPDEST PUSH1 0x40 MLOAD PUSH3 0xE84339 PUSH1 0xE5 SHL DUP2 MSTORE PUSH1 0x4 DUP2 ADD DUP4 SWAP1 MSTORE PUSH1 0x1 PUSH1 0x1 PUSH1 0xA0 SHL SUB DUP3 AND SWAP1 PUSH4 0x1D086720 SWAP1 PUSH1 0x24 ADD PUSH1 0x0 PUSH1 0x40 MLOAD DUP1 DUP4 SUB DUP2 PUSH1 0x0 DUP8 DUP1 EXTCODESIZE ISZERO DUP1 ISZERO PUSH2 0xD9B JUMPI PUSH1 0x0 DUP1 REVERT JUMPDEST POP GAS CALL ISZERO DUP1 ISZERO PUSH2 0xDAF JUMPI RETURNDATASIZE PUSH1 0x0 DUP1 RETURNDATACOPY RETURNDATASIZE PUSH1 0x0 REVERT JUMPDEST POP POP POP POP POP POP POP JUMP JUMPDEST PUSH1 0x1 PUSH1 0x1 PUSH1 0xA0 SHL SUB DUP1 DUP3 AND PUSH1 0x0 SWAP1 DUP2 MSTORE PUSH1 0xB PUSH1 0x20 MSTORE PUSH1 0x40 DUP2 KECCAK256 SLOAD SWAP1 SWAP2 AND DUP1 PUSH2 0xDE3 JUMPI POP PUSH1 0x0 SWAP3 SWAP2 POP POP JUMP JUMPDEST DUP1 PUSH1 0x1 PUSH1 0x1 PUSH1 0xA0 SHL SUB AND PUSH4 0xC392F766 PUSH1 0x40 MLOAD DUP2 PUSH4 0xFFFFFFFF AND PUSH1 0xE0 SHL DUP2 MSTORE PUSH1 0x4 ADD PUSH1 0x20 PUSH1 0x40 MLOAD DUP1 DUP4 SUB DUP2 DUP7 DUP1 EXTCODESIZE ISZERO DUP1 ISZERO PUSH2 0xE1C JUMPI PUSH1 0x0 DUP1 REVERT JUMPDEST POP GAS STATICCALL ISZERO DUP1 ISZERO PUSH2 0xE30 JUMPI RETURNDATASIZE PUSH1 0x0 DUP1 RETURNDATACOPY RETURNDATASIZE PUSH1 0x0 REVERT JUMPDEST POP POP POP POP PUSH1 0x40 MLOAD RETURNDATASIZE PUSH1 0x1F NOT PUSH1 0x1F DUP3 ADD AND DUP3 ADD DUP1 PUSH1 0x40 MSTORE POP DUP2 ADD SWAP1 PUSH2 0xE54 SWAP2 SWAP1 PUSH2 0x130A JUMP JUMPDEST SWAP4 SWAP3 POP POP POP JUMP JUMPDEST PUSH1 0x8 DUP2 DUP2 SLOAD DUP2 LT PUSH2 0xE6B JUMPI PUSH1 0x0 DUP1 REVERT JUMPDEST PUSH1 0x0 SWAP2 DUP3 MSTORE PUSH1 0x20 SWAP1 SWAP2 KECCAK256 ADD SLOAD PUSH1 0x1 PUSH1 0x1 PUSH1 0xA0 SHL SUB AND SWAP1 POP DUP2 JUMP JUMPDEST PUSH1 0x0 SLOAD PUSH1 0x1 PUSH1 0x1 PUSH1 0xA0 SHL SUB AND CALLER EQ PUSH2 0xEB2 JUMPI PUSH1 0x40 MLOAD PUSH4 0xA59D7F4D PUSH1 0xE0 SHL DUP2 MSTORE CALLER PUSH1 0x4 DUP3 ADD MSTORE PUSH1 0x24 ADD PUSH2 0x54D JUMP JUMPDEST PUSH2 0x2710 DUP2 GT ISZERO PUSH2 0xEE0 JUMPI PUSH1 0x40 MLOAD PUSH4 0x7150BBA1 PUSH1 0xE0 SHL DUP2 MSTORE PUSH1 0x4 DUP2 ADD DUP3 SWAP1 MSTORE PUSH2 0x2710 PUSH1 0x24 DUP3 ADD MSTORE PUSH1 0x44 ADD PUSH2 0x54D JUMP JUMPDEST PUSH1 0x5 DUP2 SWAP1 SSTORE PUSH1 0x40 MLOAD DUP2 DUP2 MSTORE PUSH32 0x43C0669C98845A19F0C83C170DAFAC37D88AB6841D159A3B478365715E09A119 SWAP1 PUSH1 0x20 ADD PUSH2 0xB0A JUMP JUMPDEST PUSH1 0x0 SLOAD PUSH1 0x1 PUSH1 0x1 PUSH1 0xA0 SHL SUB AND CALLER EQ PUSH2 0xF42 JUMPI PUSH1 0x40 MLOAD PUSH4 0xA59D7F4D PUSH1 0xE0 SHL DUP2 MSTORE CALLER PUSH1 0x4 DUP3 ADD MSTORE PUSH1 0x24 ADD PUSH2 0x54D JUMP JUMPDEST PUSH1 0x1 PUSH1 0x1 PUSH1 0xA0 SHL SUB DUP2 AND PUSH2 0xF69 JUMPI PUSH1 0x40 MLOAD PUSH4 0xD92E233D PUSH1 0xE0 SHL DUP2 MSTORE PUSH1 0x4 ADD PUSH1 0x40 MLOAD DUP1 SWAP2 SUB SWAP1 REVERT JUMPDEST PUSH1 0x0 DUP1 SLOAD PUSH1 0x1 PUSH1 0x1 PUSH1 0xA0 SHL SUB NOT AND PUSH1 0x1 PUSH1 0x1 PUSH1 0xA0 SHL SUB DUP4 AND SWAP1 DUP2 OR SWAP1 SWAP2 SSTORE PUSH1 0x40 MLOAD SWAP1 DUP2 MSTORE PUSH32 0x54A6385AA0292B04E1EF8513253C17D1863F7CDFC87029D77FD55CC4C2E717E2 SWAP1 PUSH1 0x20 ADD PUSH2 0xB0A JUMP JUMPDEST PUSH1 0x0 SLOAD PUSH1 0x1 PUSH1 0x1 PUSH1 0xA0 SHL SUB AND CALLER EQ PUSH2 0xFE4 JUMPI PUSH1 0x40 MLOAD PUSH4 0xA59D7F4D PUSH1 0xE0 SHL DUP2 MSTORE CALLER PUSH1 0x4 DUP3 ADD MSTORE PUSH1 0x24 ADD PUSH2 0x54D JUMP JUMPDEST PUSH1 0x1 PUSH1 0x1 PUSH1 0xA0 SHL SUB DUP2 AND PUSH2 0x100B JUMPI PUSH1 0x40 MLOAD PUSH4 0xD92E233D PUSH1 0xE0 SHL DUP2 MSTORE PUSH1 0x4 ADD PUSH1 0x40 MLOAD DUP1 SWAP2 SUB SWAP1 REVERT JUMPDEST PUSH1 0x4 DUP1 SLOAD PUSH1 0x1 PUSH1 0x1 PUSH1 0xA0 SHL SUB NOT AND PUSH1 0x1 PUSH1 0x1 PUSH1 0xA0 SHL SUB DUP4 AND SWAP1 DUP2 OR SWAP1 SWAP2 SSTORE PUSH1 0x40 MLOAD SWAP1 DUP2 MSTORE PUSH32 0x97011ACC091D73D67F71FF78BDB3837CE0103F4A52E95B01F50A28B9F7821BA6 SWAP1 PUSH1 0x20 ADD PUSH2 0xB0A JUMP JUMPDEST PUSH1 0x0 SLOAD PUSH1 0x1 PUSH1 0x1 PUSH1 0xA0 SHL SUB AND CALLER EQ PUSH2 0x1086 JUMPI PUSH1 0x40 MLOAD PUSH4 0xA59D7F4D PUSH1 0xE0 SHL DUP2 MSTORE CALLER PUSH1 0x4 DUP3 ADD MSTORE PUSH1 0x24 ADD PUSH2 0x54D JUMP JUMPDEST PUSH3 0x278D00 DUP2 LT ISZERO PUSH2 0x10B6 JUMPI PUSH1 0x40 MLOAD PUSH4 0x102A6C27 PUSH1 0xE0 SHL DUP2 MSTORE PUSH1 0x4 DUP2 ADD DUP3 SWAP1 MSTORE PUSH3 0x278D00 PUSH1 0x24 DUP3 ADD MSTORE PUSH1 0x44 ADD PUSH2 0x54D JUMP JUMPDEST PUSH1 0x7 DUP2 SWAP1 SSTORE PUSH1 0x40 MLOAD DUP2 DUP2 MSTORE PUSH32 0x3B655FFF5646F76885BACA7E1DADF8B8E0095FF01DE8F96A0CF75C8D8CFB53D8 SWAP1 PUSH1 0x20 ADD PUSH2 0xB0A JUMP JUMPDEST PUSH1 0x0 DUP3 PUSH1 0x1F DUP4 ADD SLT PUSH2 0x10FC JUMPI PUSH1 0x0 DUP1 REVERT JUMPDEST DUP2 CALLDATALOAD PUSH1 0x20 PUSH2 0x1111 PUSH2 0x110C DUP4 PUSH2 0x13CD JUMP JUMPDEST PUSH2 0x139C JUMP JUMPDEST DUP1 DUP4 DUP3 MSTORE DUP3 DUP3 ADD SWAP2 POP DUP3 DUP7 ADD DUP8 DUP5 DUP7 PUSH1 0x5 SHL DUP10 ADD ADD GT ISZERO PUSH2 0x1131 JUMPI PUSH1 0x0 DUP1 REVERT JUMPDEST PUSH1 0x0 JUMPDEST DUP6 DUP2 LT ISZERO PUSH2 0x1157 JUMPI PUSH2 0x1145 DUP3 PUSH2 0x1164 JUMP JUMPDEST DUP5 MSTORE SWAP3 DUP5 ADD SWAP3 SWAP1 DUP5 ADD SWAP1 PUSH1 0x1 ADD PUSH2 0x1134 JUMP JUMPDEST POP SWAP1 SWAP8 SWAP7 POP POP POP POP POP POP POP JUMP JUMPDEST DUP1 CALLDATALOAD DUP1 ISZERO ISZERO DUP2 EQ PUSH2 0x1174 JUMPI PUSH1 0x0 DUP1 REVERT JUMPDEST SWAP2 SWAP1 POP JUMP JUMPDEST PUSH1 0x0 PUSH1 0x20 DUP3 DUP5 SUB SLT ISZERO PUSH2 0x118B JUMPI PUSH1 0x0 DUP1 REVERT JUMPDEST DUP2 CALLDATALOAD PUSH2 0xE54 DUP2 PUSH2 0x1407 JUMP JUMPDEST PUSH1 0x0 PUSH1 0x20 DUP3 DUP5 SUB SLT ISZERO PUSH2 0x11A8 JUMPI PUSH1 0x0 DUP1 REVERT JUMPDEST DUP2 MLOAD PUSH2 0xE54 DUP2 PUSH2 0x1407 JUMP JUMPDEST PUSH1 0x0 DUP1 PUSH1 0x0 PUSH1 0x60 DUP5 DUP7 SUB SLT ISZERO PUSH2 0x11C8 JUMPI PUSH1 0x0 DUP1 REVERT JUMPDEST DUP4 CALLDATALOAD PUSH2 0x11D3 DUP2 PUSH2 0x1407 JUMP JUMPDEST SWAP3 POP PUSH1 0x20 DUP5 DUP2 ADD CALLDATALOAD PUSH8 0xFFFFFFFFFFFFFFFF DUP1 DUP3 GT ISZERO PUSH2 0x11F1 JUMPI PUSH1 0x0 DUP1 REVERT JUMPDEST DUP2 DUP8 ADD SWAP2 POP DUP8 PUSH1 0x1F DUP4 ADD SLT PUSH2 0x1205 JUMPI PUSH1 0x0 DUP1 REVERT JUMPDEST DUP2 CALLDATALOAD PUSH2 0x1213 PUSH2 0x110C DUP3 PUSH2 0x13CD JUMP JUMPDEST DUP1 DUP3 DUP3 MSTORE DUP6 DUP3 ADD SWAP2 POP DUP6 DUP6 ADD DUP12 DUP8 DUP6 PUSH1 0x5 SHL DUP9 ADD ADD GT ISZERO PUSH2 0x1233 JUMPI PUSH1 0x0 DUP1 REVERT JUMPDEST PUSH1 0x0 SWAP6 POP JUMPDEST DUP4 DUP7 LT ISZERO PUSH2 0x125F JUMPI DUP1 CALLDATALOAD PUSH2 0x124B DUP2 PUSH2 0x1407 JUMP JUMPDEST DUP4 MSTORE PUSH1 0x1 SWAP6 SWAP1 SWAP6 ADD SWAP5 SWAP2 DUP7 ADD SWAP2 DUP7 ADD PUSH2 0x1238 JUMP JUMPDEST POP SWAP7 POP POP POP PUSH1 0x40 DUP8 ADD CALLDATALOAD SWAP3 POP DUP1 DUP4 GT ISZERO PUSH2 0x1278 JUMPI PUSH1 0x0 DUP1 REVERT JUMPDEST POP POP PUSH2 0x1286 DUP7 DUP3 DUP8 ADD PUSH2 0x10EB JUMP JUMPDEST SWAP2 POP POP SWAP3 POP SWAP3 POP SWAP3 JUMP JUMPDEST PUSH1 0x0 DUP1 PUSH1 0x40 DUP4 DUP6 SUB SLT ISZERO PUSH2 0x12A3 JUMPI PUSH1 0x0 DUP1 REVERT JUMPDEST DUP3 CALLDATALOAD PUSH2 0x12AE DUP2 PUSH2 0x1407 JUMP JUMPDEST SWAP2 POP PUSH2 0x12BC PUSH1 0x20 DUP5 ADD PUSH2 0x1164 JUMP JUMPDEST SWAP1 POP SWAP3 POP SWAP3 SWAP1 POP JUMP JUMPDEST PUSH1 0x0 DUP1 PUSH1 0x40 DUP4 DUP6 SUB SLT ISZERO PUSH2 0x12D8 JUMPI PUSH1 0x0 DUP1 REVERT JUMPDEST DUP3 CALLDATALOAD PUSH2 0x12E3 DUP2 PUSH2 0x1407 JUMP JUMPDEST SWAP5 PUSH1 0x20 SWAP4 SWAP1 SWAP4 ADD CALLDATALOAD SWAP4 POP POP POP JUMP JUMPDEST PUSH1 0x0 PUSH1 0x20 DUP3 DUP5 SUB SLT ISZERO PUSH2 0x1303 JUMPI PUSH1 0x0 DUP1 REVERT JUMPDEST POP CALLDATALOAD SWAP2 SWAP1 POP JUMP JUMPDEST PUSH1 0x0 PUSH1 0x20 DUP3 DUP5 SUB SLT ISZERO PUSH2 0x131C JUMPI PUSH1 0x0 DUP1 REVERT JUMPDEST POP MLOAD SWAP2 SWAP1 POP JUMP JUMPDEST PUSH1 0x40 DUP1 DUP3 MSTORE DUP4 MLOAD SWAP1 DUP3 ADD DUP2 SWAP1 MSTORE PUSH1 0x0 SWAP1 PUSH1 0x20 SWAP1 PUSH1 0x60 DUP5 ADD SWAP1 DUP3 DUP8 ADD DUP5 JUMPDEST DUP3 DUP2 LT ISZERO PUSH2 0x1365 JUMPI DUP2 MLOAD PUSH1 0x1 PUSH1 0x1 PUSH1 0xA0 SHL SUB AND DUP5 MSTORE SWAP3 DUP5 ADD SWAP3 SWAP1 DUP5 ADD SWAP1 PUSH1 0x1 ADD PUSH2 0x1340 JUMP JUMPDEST POP POP POP DUP4 DUP2 SUB DUP3 DUP6 ADD MSTORE DUP5 MLOAD DUP1 DUP3 MSTORE DUP6 DUP4 ADD SWAP2 DUP4 ADD SWAP1 PUSH1 0x0 JUMPDEST DUP2 DUP2 LT ISZERO PUSH2 0x1157 JUMPI DUP4 MLOAD ISZERO ISZERO DUP4 MSTORE SWAP3 DUP5 ADD SWAP3 SWAP2 DUP5 ADD SWAP2 PUSH1 0x1 ADD PUSH2 0x137E JUMP JUMPDEST PUSH1 0x40 MLOAD PUSH1 0x1F DUP3 ADD PUSH1 0x1F NOT AND DUP2 ADD PUSH8 0xFFFFFFFFFFFFFFFF DUP2 GT DUP3 DUP3 LT OR ISZERO PUSH2 0x13C5 JUMPI PUSH2 0x13C5 PUSH2 0x13F1 JUMP JUMPDEST PUSH1 0x40 MSTORE SWAP2 SWAP1 POP JUMP JUMPDEST PUSH1 0x0 PUSH8 0xFFFFFFFFFFFFFFFF DUP3 GT ISZERO PUSH2 0x13E7 JUMPI PUSH2 0x13E7 PUSH2 0x13F1 JUMP JUMPDEST POP PUSH1 0x5 SHL PUSH1 0x20 ADD SWAP1 JUMP JUMPDEST PUSH4 0x4E487B71 PUSH1 0xE0 SHL PUSH1 0x0 MSTORE PUSH1 0x41 PUSH1 0x4 MSTORE PUSH1 0x24 PUSH1 0x0 REVERT JUMPDEST PUSH1 0x1 PUSH1 0x1 PUSH1 0xA0 SHL SUB DUP2 AND DUP2 EQ PUSH2 0x141C JUMPI PUSH1 0x0 DUP1 REVERT JUMPDEST POP JUMP INVALID LOG2 PUSH5 0x6970667358 0x22 SLT KECCAK256 0x25 0xC8 0xEA SWAP15 PUSH6 0x66C0A779FEB1 0xE8 POP 0x28 PUSH24 0x5F16F1C109D37CEBA237AB81D727F1DED264736F6C634300 ADDMOD SMOD STOP CALLER "},"gasEstimates":{"creation":{"codeDepositCost":"1041000","executionCost":"infinite","totalCost":"infinite"},"external":{"baseTokenLT(address)":"2634","collateralLT(address)":"2614","createPool(address,uint256)":"infinite","dexAggregator()":"2470","interest(address)":"infinite","manager()":"2405","manualExpiration()":"2372","minQuoteRate()":"2329","mut(address)":"2547","operator(address)":"2637","poolByQuoteToken(address)":"2664","poolDeployer()":"infinite","poolIndex(address)":"2591","poolLength()":"2317","pools(uint256)":"4725","positionStorage()":"infinite","priceFeed()":"2426","protocolFeeRate()":"2374","protocolFeeTo()":"2447","setBaseTokenLT(address,uint256)":"26081","setCollateralLT(address,uint256)":"26081","setDEXAggregator(address)":"27850","setMUT(address,uint256)":"26115","setManager(address)":"27916","setManualExpiration(uint256)":"25633","setMinQuoteRate(uint256)":"25635","setOperator(address,bool)":"28273","setPoolBaseTokens(address,address[],bool[])":"infinite","setPoolInterest(address,uint256)":"infinite","setPriceFeed(address)":"27861","setProtocolFeeRate(uint256)":"25634","setProtocolFeeTo(address)":"27849","setUserStorage(address)":"27895","userStorage()":"2448"}},"methodIdentifiers":{"baseTokenLT(address)":"f5d0e175","collateralLT(address)":"5fde0ec0","createPool(address,uint256)":"12d36171","dexAggregator()":"7c21d5e0","interest(address)":"ac436bdf","manager()":"481c6a75","manualExpiration()":"eddf82bb","minQuoteRate()":"6d274553","mut(address)":"ad5d8e51","operator(address)":"9a307391","poolByQuoteToken(address)":"4d83bc33","poolDeployer()":"3119049a","poolIndex(address)":"b42754a5","poolLength()":"081e3eda","pools(uint256)":"ac4afa38","positionStorage()":"8cd47415","priceFeed()":"741bef1a","protocolFeeRate()":"58f85880","protocolFeeTo()":"ef369252","setBaseTokenLT(address,uint256)":"3b0e0e84","setCollateralLT(address,uint256)":"50772b3f","setDEXAggregator(address)":"aa6dfe03","setMUT(address,uint256)":"147fb081","setManager(address)":"d0ebdbe7","setManualExpiration(uint256)":"e47eb30c","setMinQuoteRate(uint256)":"90f43680","setOperator(address,bool)":"558a7297","setPoolBaseTokens(address,address[],bool[])":"4d5c262e","setPoolInterest(address,uint256)":"aac9d2b8","setPriceFeed(address)":"724e78da","setProtocolFeeRate(uint256)":"b13aa2d6","setProtocolFeeTo(address)":"e0e6799f","setUserStorage(address)":"9142887f","userStorage()":"75e58079"}},"storageLayout":{"storage":[{"astId":72,"contract":"contracts/Factory.sol:Factory","label":"manager","offset":0,"slot":"0","type":"t_address"},{"astId":75,"contract":"contracts/Factory.sol:Factory","label":"userStorage","offset":0,"slot":"1","type":"t_address"},{"astId":78,"contract":"contracts/Factory.sol:Factory","label":"priceFeed","offset":0,"slot":"2","type":"t_address"},{"astId":81,"contract":"contracts/Factory.sol:Factory","label":"dexAggregator","offset":0,"slot":"3","type":"t_address"},{"astId":84,"contract":"contracts/Factory.sol:Factory","label":"protocolFeeTo","offset":0,"slot":"4","type":"t_address"},{"astId":87,"contract":"contracts/Factory.sol:Factory","label":"protocolFeeRate","offset":0,"slot":"5","type":"t_uint256"},{"astId":90,"contract":"contracts/Factory.sol:Factory","label":"minQuoteRate","offset":0,"slot":"6","type":"t_uint256"},{"astId":93,"contract":"contracts/Factory.sol:Factory","label":"manualExpiration","offset":0,"slot":"7","type":"t_uint256"},{"astId":97,"contract":"contracts/Factory.sol:Factory","label":"pools","offset":0,"slot":"8","type":"t_array(t_address)dyn_storage"},{"astId":102,"contract":"contracts/Factory.sol:Factory","label":"operator","offset":0,"slot":"9","type":"t_mapping(t_address,t_bool)"},{"astId":107,"contract":"contracts/Factory.sol:Factory","label":"poolIndex","offset":0,"slot":"10","type":"t_mapping(t_address,t_uint256)"},{"astId":112,"contract":"contracts/Factory.sol:Factory","label":"poolByQuoteToken","offset":0,"slot":"11","type":"t_mapping(t_address,t_address)"},{"astId":117,"contract":"contracts/Factory.sol:Factory","label":"mut","offset":0,"slot":"12","type":"t_mapping(t_address,t_uint256)"},{"astId":122,"contract":"contracts/Factory.sol:Factory","label":"baseTokenLT","offset":0,"slot":"13","type":"t_mapping(t_address,t_uint256)"},{"astId":127,"contract":"contracts/Factory.sol:Factory","label":"collateralLT","offset":0,"slot":"14","type":"t_mapping(t_address,t_uint256)"}],"types":{"t_address":{"encoding":"inplace","label":"address","numberOfBytes":"20"},"t_array(t_address)dyn_storage":{"base":"t_address","encoding":"dynamic_array","label":"address[]","numberOfBytes":"32"},"t_bool":{"encoding":"inplace","label":"bool","numberOfBytes":"1"},"t_mapping(t_address,t_address)":{"encoding":"mapping","key":"t_address","label":"mapping(address => address)","numberOfBytes":"32","value":"t_address"},"t_mapping(t_address,t_bool)":{"encoding":"mapping","key":"t_address","label":"mapping(address => bool)","numberOfBytes":"32","value":"t_bool"},"t_mapping(t_address,t_uint256)":{"encoding":"mapping","key":"t_address","label":"mapping(address => uint256)","numberOfBytes":"32","value":"t_uint256"},"t_uint256":{"encoding":"inplace","label":"uint256","numberOfBytes":"32"}}},"userdoc":{"kind":"user","methods":{},"version":1}}}}