{"contracts/base/BancorConverterRegistry.sol":{"BancorConverterRegistry":{"abi":[{"inputs":[],"stateMutability":"nonpayable","type":"constructor"},{"anonymous":false,"inputs":[{"indexed":true,"internalType":"address","name":"_token","type":"address"},{"indexed":false,"internalType":"address","name":"_address","type":"address"}],"name":"ConverterAddition","type":"event"},{"anonymous":false,"inputs":[{"indexed":true,"internalType":"address","name":"_token","type":"address"},{"indexed":false,"internalType":"address","name":"_address","type":"address"}],"name":"ConverterRemoval","type":"event"},{"anonymous":false,"inputs":[{"indexed":true,"internalType":"address","name":"_prevOwner","type":"address"},{"indexed":true,"internalType":"address","name":"_newOwner","type":"address"}],"name":"OwnerUpdate","type":"event"},{"inputs":[],"name":"acceptOwnership","outputs":[],"stateMutability":"nonpayable","type":"function"},{"inputs":[],"name":"blockStamp","outputs":[{"internalType":"uint256","name":"","type":"uint256"}],"stateMutability":"view","type":"function"},{"inputs":[{"internalType":"address","name":"_token","type":"address"},{"internalType":"uint32","name":"_index","type":"uint32"}],"name":"converterAddress","outputs":[{"internalType":"address","name":"","type":"address"}],"stateMutability":"view","type":"function"},{"inputs":[{"internalType":"address","name":"_token","type":"address"}],"name":"converterCount","outputs":[{"internalType":"uint256","name":"","type":"uint256"}],"stateMutability":"view","type":"function"},{"inputs":[],"name":"newOwner","outputs":[{"internalType":"address","name":"","type":"address"}],"stateMutability":"view","type":"function"},{"inputs":[],"name":"owner","outputs":[{"internalType":"address","name":"","type":"address"}],"stateMutability":"view","type":"function"},{"inputs":[{"internalType":"address","name":"_token","type":"address"},{"internalType":"address","name":"_converter","type":"address"}],"name":"registerConverter","outputs":[],"stateMutability":"nonpayable","type":"function"},{"inputs":[{"internalType":"address","name":"_converter","type":"address"}],"name":"tokenAddress","outputs":[{"internalType":"address","name":"","type":"address"}],"stateMutability":"view","type":"function"},{"inputs":[],"name":"tokenCount","outputs":[{"internalType":"uint256","name":"","type":"uint256"}],"stateMutability":"view","type":"function"},{"inputs":[{"internalType":"uint256","name":"","type":"uint256"}],"name":"tokens","outputs":[{"internalType":"address","name":"","type":"address"}],"stateMutability":"view","type":"function"},{"inputs":[{"internalType":"address","name":"_newOwner","type":"address"}],"name":"transferOwnership","outputs":[],"stateMutability":"nonpayable","type":"function"},{"inputs":[{"internalType":"address","name":"_token","type":"address"},{"internalType":"uint32","name":"_index","type":"uint32"}],"name":"unregisterConverter","outputs":[],"stateMutability":"nonpayable","type":"function"}],"devdoc":{"kind":"dev","methods":{"acceptOwnership()":{"details":"used by a new owner to accept an ownership transfer"},"constructor":{"details":"constructor"},"converterAddress(address,uint32)":{"details":"returns the converter address associated with the given token or zero address if no such converter exists","params":{"_index":"converter index","_token":"token address"},"returns":{"_0":"converter address"}},"converterCount(address)":{"details":"returns the number of converters associated with the given token or 0 if the token isn't registered","params":{"_token":"token address"},"returns":{"_0":"number of converters"}},"registerConverter(address,address)":{"details":"adds a new converter address for a given token to the registry throws if the converter is already registered","params":{"_converter":"converter address","_token":"token address"}},"tokenAddress(address)":{"details":"returns the token address associated with the given converter or zero address if no such converter exists","params":{"_converter":"converter address"},"returns":{"_0":"token address"}},"tokenCount()":{"details":"returns the number of tokens in the registry","returns":{"_0":"number of tokens"}},"transferOwnership(address)":{"details":"allows transferring the contract ownership the new owner still needs to accept the transfer can only be called by the contract owner","params":{"_newOwner":"new contract owner"}},"unregisterConverter(address,uint32)":{"details":"removes an existing converter from the registry note that the function doesn't scale and might be needed to be called multiple times when removing an older converter from a large converter list","params":{"_index":"converter index","_token":"token address"}}},"version":1},"evm":{"bytecode":{"linkReferences":{},"object":"608060405234801561001057600080fd5b50600080546001600160a01b03191633179055610893806100326000396000f3fe608060405234801561001057600080fd5b50600436106100b45760003560e01c80639f181b5e116100715780639f181b5e14610158578063cd9d4d661461016a578063d26a8d2e14610193578063d4ee1d90146101a6578063f2fde38b146101b9578063f427fdf9146101cc57600080fd5b806338cb066f146100b95780634f64b2be146100ce57806379ba5097146100fe5780638da5cb5b1461010657806390ab3106146101195780639884e8011461012c575b600080fd5b6100cc6100c7366004610751565b6101d2565b005b6100e16100dc366004610791565b6103ff565b6040516001600160a01b0390911681526020015b60405180910390f35b6100cc610429565b6000546100e1906001600160a01b031681565b6100e1610127366004610751565b6104a4565b6100e161013a3660046106fc565b6001600160a01b039081166000908152600460205260409020541690565b6005545b6040519081526020016100f5565b61015c6101783660046106fc565b6001600160a01b031660009081526003602052604090205490565b6100cc6101a136600461071e565b61051f565b6001546100e1906001600160a01b031681565b6100cc6101c73660046106fc565b61068c565b4261015c565b6000546001600160a01b031633146101e957600080fd5b816001600160a01b0381166101fd57600080fd5b6001600160a01b03831660009081526003602052604090205463ffffffff83161061022757600080fd5b6001600160a01b0383166000908152600360205260408120805463ffffffff851690811061025757610257610847565b60009182526020822001546001600160a01b031691506102788460016107aa565b90505b6001600160a01b03851660009081526003602052604090205463ffffffff82161015610355576001600160a01b0385166000908152600360205260409020805463ffffffff83169081106102d1576102d1610847565b60009182526020808320909101546001600160a01b038881168452600390925260409092209116906103046001846107d2565b63ffffffff168154811061031a5761031a610847565b600091825260209091200180546001600160a01b0319166001600160a01b03929092169190911790558061034d816107f7565b91505061027b565b506001600160a01b038416600090815260036020526040902080548061037d5761037d610831565b60008281526020808220600019908401810180546001600160a01b031990811690915593019093556001600160a01b0384811680835260048552604092839020805490941690935590519182528616917fc3b25a6c3b7509edde0f2e6cc317b5820a901fa82ac554709206e1d7237fe29491015b60405180910390a250505050565b6005818154811061040f57600080fd5b6000918252602090912001546001600160a01b0316905081565b6001546001600160a01b0316331461044057600080fd5b600154600080546040516001600160a01b0393841693909116917f343765429aea5a34b3ff6a3785a98a5abb2597aca87bfbb58632c173d585373a91a360018054600080546001600160a01b03199081166001600160a01b03841617909155169055565b6001600160a01b03821660009081526003602052604081205463ffffffff8316106104d157506000610519565b6001600160a01b0383166000908152600360205260409020805463ffffffff841690811061050157610501610847565b6000918252602090912001546001600160a01b031690505b92915050565b6000546001600160a01b0316331461053657600080fd5b816001600160a01b03811661054a57600080fd5b816001600160a01b03811661055e57600080fd5b6001600160a01b03838116600090815260046020526040902054161561058357600080fd5b6001600160a01b03841660009081526002602052604090205460ff16610607576005805460018082019092557f036b6384b5eca791c62761152d0c79bb0604c104a5fb6f4eb0703f3154bb3db00180546001600160a01b0319166001600160a01b0387169081179091556000908152600260205260409020805460ff191690911790555b6001600160a01b03848116600081815260036020908152604080832080546001810182559084528284200180549589166001600160a01b03199687168117909155808452600483529281902080549095168417909455925190815290917f229aec2ec4b21e700d6daf13a894e7b38c18b844b021f2eee263f04af3ea6f0091016103f1565b6000546001600160a01b031633146106a357600080fd5b6000546001600160a01b03828116911614156106be57600080fd5b600180546001600160a01b0319166001600160a01b0392909216919091179055565b80356001600160a01b03811681146106f757600080fd5b919050565b60006020828403121561070e57600080fd5b610717826106e0565b9392505050565b6000806040838503121561073157600080fd5b61073a836106e0565b9150610748602084016106e0565b90509250929050565b6000806040838503121561076457600080fd5b61076d836106e0565b9150602083013563ffffffff8116811461078657600080fd5b809150509250929050565b6000602082840312156107a357600080fd5b5035919050565b600063ffffffff8083168185168083038211156107c9576107c961081b565b01949350505050565b600063ffffffff838116908316818110156107ef576107ef61081b565b039392505050565b600063ffffffff808316818114156108115761081161081b565b6001019392505050565b634e487b7160e01b600052601160045260246000fd5b634e487b7160e01b600052603160045260246000fd5b634e487b7160e01b600052603260045260246000fdfea2646970667358221220cb27303a7779c8979c805c21eca450a5503f7a8c228016fa9ed65936b9a6003e64736f6c63430008070033","opcodes":"PUSH1 0x80 PUSH1 0x40 MSTORE CALLVALUE DUP1 ISZERO PUSH2 0x10 JUMPI PUSH1 0x0 DUP1 REVERT JUMPDEST POP PUSH1 0x0 DUP1 SLOAD PUSH1 0x1 PUSH1 0x1 PUSH1 0xA0 SHL SUB NOT AND CALLER OR SWAP1 SSTORE PUSH2 0x893 DUP1 PUSH2 0x32 PUSH1 0x0 CODECOPY PUSH1 0x0 RETURN INVALID PUSH1 0x80 PUSH1 0x40 MSTORE CALLVALUE DUP1 ISZERO PUSH2 0x10 JUMPI PUSH1 0x0 DUP1 REVERT JUMPDEST POP PUSH1 0x4 CALLDATASIZE LT PUSH2 0xB4 JUMPI PUSH1 0x0 CALLDATALOAD PUSH1 0xE0 SHR DUP1 PUSH4 0x9F181B5E GT PUSH2 0x71 JUMPI DUP1 PUSH4 0x9F181B5E EQ PUSH2 0x158 JUMPI DUP1 PUSH4 0xCD9D4D66 EQ PUSH2 0x16A JUMPI DUP1 PUSH4 0xD26A8D2E EQ PUSH2 0x193 JUMPI DUP1 PUSH4 0xD4EE1D90 EQ PUSH2 0x1A6 JUMPI DUP1 PUSH4 0xF2FDE38B EQ PUSH2 0x1B9 JUMPI DUP1 PUSH4 0xF427FDF9 EQ PUSH2 0x1CC JUMPI PUSH1 0x0 DUP1 REVERT JUMPDEST DUP1 PUSH4 0x38CB066F EQ PUSH2 0xB9 JUMPI DUP1 PUSH4 0x4F64B2BE EQ PUSH2 0xCE JUMPI DUP1 PUSH4 0x79BA5097 EQ PUSH2 0xFE JUMPI DUP1 PUSH4 0x8DA5CB5B EQ PUSH2 0x106 JUMPI DUP1 PUSH4 0x90AB3106 EQ PUSH2 0x119 JUMPI DUP1 PUSH4 0x9884E801 EQ PUSH2 0x12C JUMPI JUMPDEST PUSH1 0x0 DUP1 REVERT JUMPDEST PUSH2 0xCC PUSH2 0xC7 CALLDATASIZE PUSH1 0x4 PUSH2 0x751 JUMP JUMPDEST PUSH2 0x1D2 JUMP JUMPDEST STOP JUMPDEST PUSH2 0xE1 PUSH2 0xDC CALLDATASIZE PUSH1 0x4 PUSH2 0x791 JUMP JUMPDEST PUSH2 0x3FF JUMP JUMPDEST PUSH1 0x40 MLOAD PUSH1 0x1 PUSH1 0x1 PUSH1 0xA0 SHL SUB SWAP1 SWAP2 AND DUP2 MSTORE PUSH1 0x20 ADD JUMPDEST PUSH1 0x40 MLOAD DUP1 SWAP2 SUB SWAP1 RETURN JUMPDEST PUSH2 0xCC PUSH2 0x429 JUMP JUMPDEST PUSH1 0x0 SLOAD PUSH2 0xE1 SWAP1 PUSH1 0x1 PUSH1 0x1 PUSH1 0xA0 SHL SUB AND DUP2 JUMP JUMPDEST PUSH2 0xE1 PUSH2 0x127 CALLDATASIZE PUSH1 0x4 PUSH2 0x751 JUMP JUMPDEST PUSH2 0x4A4 JUMP JUMPDEST PUSH2 0xE1 PUSH2 0x13A CALLDATASIZE PUSH1 0x4 PUSH2 0x6FC JUMP JUMPDEST PUSH1 0x1 PUSH1 0x1 PUSH1 0xA0 SHL SUB SWAP1 DUP2 AND PUSH1 0x0 SWAP1 DUP2 MSTORE PUSH1 0x4 PUSH1 0x20 MSTORE PUSH1 0x40 SWAP1 KECCAK256 SLOAD AND SWAP1 JUMP JUMPDEST PUSH1 0x5 SLOAD JUMPDEST PUSH1 0x40 MLOAD SWAP1 DUP2 MSTORE PUSH1 0x20 ADD PUSH2 0xF5 JUMP JUMPDEST PUSH2 0x15C PUSH2 0x178 CALLDATASIZE PUSH1 0x4 PUSH2 0x6FC JUMP JUMPDEST PUSH1 0x1 PUSH1 0x1 PUSH1 0xA0 SHL SUB AND PUSH1 0x0 SWAP1 DUP2 MSTORE PUSH1 0x3 PUSH1 0x20 MSTORE PUSH1 0x40 SWAP1 KECCAK256 SLOAD SWAP1 JUMP JUMPDEST PUSH2 0xCC PUSH2 0x1A1 CALLDATASIZE PUSH1 0x4 PUSH2 0x71E JUMP JUMPDEST PUSH2 0x51F JUMP JUMPDEST PUSH1 0x1 SLOAD PUSH2 0xE1 SWAP1 PUSH1 0x1 PUSH1 0x1 PUSH1 0xA0 SHL SUB AND DUP2 JUMP JUMPDEST PUSH2 0xCC PUSH2 0x1C7 CALLDATASIZE PUSH1 0x4 PUSH2 0x6FC JUMP JUMPDEST PUSH2 0x68C JUMP JUMPDEST TIMESTAMP PUSH2 0x15C JUMP JUMPDEST PUSH1 0x0 SLOAD PUSH1 0x1 PUSH1 0x1 PUSH1 0xA0 SHL SUB AND CALLER EQ PUSH2 0x1E9 JUMPI PUSH1 0x0 DUP1 REVERT JUMPDEST DUP2 PUSH1 0x1 PUSH1 0x1 PUSH1 0xA0 SHL SUB DUP2 AND PUSH2 0x1FD JUMPI PUSH1 0x0 DUP1 REVERT JUMPDEST PUSH1 0x1 PUSH1 0x1 PUSH1 0xA0 SHL SUB DUP4 AND PUSH1 0x0 SWAP1 DUP2 MSTORE PUSH1 0x3 PUSH1 0x20 MSTORE PUSH1 0x40 SWAP1 KECCAK256 SLOAD PUSH4 0xFFFFFFFF DUP4 AND LT PUSH2 0x227 JUMPI PUSH1 0x0 DUP1 REVERT JUMPDEST PUSH1 0x1 PUSH1 0x1 PUSH1 0xA0 SHL SUB DUP4 AND PUSH1 0x0 SWAP1 DUP2 MSTORE PUSH1 0x3 PUSH1 0x20 MSTORE PUSH1 0x40 DUP2 KECCAK256 DUP1 SLOAD PUSH4 0xFFFFFFFF DUP6 AND SWAP1 DUP2 LT PUSH2 0x257 JUMPI PUSH2 0x257 PUSH2 0x847 JUMP JUMPDEST PUSH1 0x0 SWAP2 DUP3 MSTORE PUSH1 0x20 DUP3 KECCAK256 ADD SLOAD PUSH1 0x1 PUSH1 0x1 PUSH1 0xA0 SHL SUB AND SWAP2 POP PUSH2 0x278 DUP5 PUSH1 0x1 PUSH2 0x7AA JUMP JUMPDEST SWAP1 POP JUMPDEST PUSH1 0x1 PUSH1 0x1 PUSH1 0xA0 SHL SUB DUP6 AND PUSH1 0x0 SWAP1 DUP2 MSTORE PUSH1 0x3 PUSH1 0x20 MSTORE PUSH1 0x40 SWAP1 KECCAK256 SLOAD PUSH4 0xFFFFFFFF DUP3 AND LT ISZERO PUSH2 0x355 JUMPI PUSH1 0x1 PUSH1 0x1 PUSH1 0xA0 SHL SUB DUP6 AND PUSH1 0x0 SWAP1 DUP2 MSTORE PUSH1 0x3 PUSH1 0x20 MSTORE PUSH1 0x40 SWAP1 KECCAK256 DUP1 SLOAD PUSH4 0xFFFFFFFF DUP4 AND SWAP1 DUP2 LT PUSH2 0x2D1 JUMPI PUSH2 0x2D1 PUSH2 0x847 JUMP JUMPDEST PUSH1 0x0 SWAP2 DUP3 MSTORE PUSH1 0x20 DUP1 DUP4 KECCAK256 SWAP1 SWAP2 ADD SLOAD PUSH1 0x1 PUSH1 0x1 PUSH1 0xA0 SHL SUB DUP9 DUP2 AND DUP5 MSTORE PUSH1 0x3 SWAP1 SWAP3 MSTORE PUSH1 0x40 SWAP1 SWAP3 KECCAK256 SWAP2 AND SWAP1 PUSH2 0x304 PUSH1 0x1 DUP5 PUSH2 0x7D2 JUMP JUMPDEST PUSH4 0xFFFFFFFF AND DUP2 SLOAD DUP2 LT PUSH2 0x31A JUMPI PUSH2 0x31A PUSH2 0x847 JUMP JUMPDEST PUSH1 0x0 SWAP2 DUP3 MSTORE PUSH1 0x20 SWAP1 SWAP2 KECCAK256 ADD DUP1 SLOAD PUSH1 0x1 PUSH1 0x1 PUSH1 0xA0 SHL SUB NOT AND PUSH1 0x1 PUSH1 0x1 PUSH1 0xA0 SHL SUB SWAP3 SWAP1 SWAP3 AND SWAP2 SWAP1 SWAP2 OR SWAP1 SSTORE DUP1 PUSH2 0x34D DUP2 PUSH2 0x7F7 JUMP JUMPDEST SWAP2 POP POP PUSH2 0x27B JUMP JUMPDEST POP PUSH1 0x1 PUSH1 0x1 PUSH1 0xA0 SHL SUB DUP5 AND PUSH1 0x0 SWAP1 DUP2 MSTORE PUSH1 0x3 PUSH1 0x20 MSTORE PUSH1 0x40 SWAP1 KECCAK256 DUP1 SLOAD DUP1 PUSH2 0x37D JUMPI PUSH2 0x37D PUSH2 0x831 JUMP JUMPDEST PUSH1 0x0 DUP3 DUP2 MSTORE PUSH1 0x20 DUP1 DUP3 KECCAK256 PUSH1 0x0 NOT SWAP1 DUP5 ADD DUP2 ADD DUP1 SLOAD PUSH1 0x1 PUSH1 0x1 PUSH1 0xA0 SHL SUB NOT SWAP1 DUP2 AND SWAP1 SWAP2 SSTORE SWAP4 ADD SWAP1 SWAP4 SSTORE PUSH1 0x1 PUSH1 0x1 PUSH1 0xA0 SHL SUB DUP5 DUP2 AND DUP1 DUP4 MSTORE PUSH1 0x4 DUP6 MSTORE PUSH1 0x40 SWAP3 DUP4 SWAP1 KECCAK256 DUP1 SLOAD SWAP1 SWAP5 AND SWAP1 SWAP4 SSTORE SWAP1 MLOAD SWAP2 DUP3 MSTORE DUP7 AND SWAP2 PUSH32 0xC3B25A6C3B7509EDDE0F2E6CC317B5820A901FA82AC554709206E1D7237FE294 SWAP2 ADD JUMPDEST PUSH1 0x40 MLOAD DUP1 SWAP2 SUB SWAP1 LOG2 POP POP POP POP JUMP JUMPDEST PUSH1 0x5 DUP2 DUP2 SLOAD DUP2 LT PUSH2 0x40F JUMPI PUSH1 0x0 DUP1 REVERT JUMPDEST PUSH1 0x0 SWAP2 DUP3 MSTORE PUSH1 0x20 SWAP1 SWAP2 KECCAK256 ADD SLOAD PUSH1 0x1 PUSH1 0x1 PUSH1 0xA0 SHL SUB AND SWAP1 POP DUP2 JUMP JUMPDEST PUSH1 0x1 SLOAD PUSH1 0x1 PUSH1 0x1 PUSH1 0xA0 SHL SUB AND CALLER EQ PUSH2 0x440 JUMPI PUSH1 0x0 DUP1 REVERT JUMPDEST PUSH1 0x1 SLOAD PUSH1 0x0 DUP1 SLOAD PUSH1 0x40 MLOAD PUSH1 0x1 PUSH1 0x1 PUSH1 0xA0 SHL SUB SWAP4 DUP5 AND SWAP4 SWAP1 SWAP2 AND SWAP2 PUSH32 0x343765429AEA5A34B3FF6A3785A98A5ABB2597ACA87BFBB58632C173D585373A SWAP2 LOG3 PUSH1 0x1 DUP1 SLOAD PUSH1 0x0 DUP1 SLOAD PUSH1 0x1 PUSH1 0x1 PUSH1 0xA0 SHL SUB NOT SWAP1 DUP2 AND PUSH1 0x1 PUSH1 0x1 PUSH1 0xA0 SHL SUB DUP5 AND OR SWAP1 SWAP2 SSTORE AND SWAP1 SSTORE JUMP JUMPDEST PUSH1 0x1 PUSH1 0x1 PUSH1 0xA0 SHL SUB DUP3 AND PUSH1 0x0 SWAP1 DUP2 MSTORE PUSH1 0x3 PUSH1 0x20 MSTORE PUSH1 0x40 DUP2 KECCAK256 SLOAD PUSH4 0xFFFFFFFF DUP4 AND LT PUSH2 0x4D1 JUMPI POP PUSH1 0x0 PUSH2 0x519 JUMP JUMPDEST PUSH1 0x1 PUSH1 0x1 PUSH1 0xA0 SHL SUB DUP4 AND PUSH1 0x0 SWAP1 DUP2 MSTORE PUSH1 0x3 PUSH1 0x20 MSTORE PUSH1 0x40 SWAP1 KECCAK256 DUP1 SLOAD PUSH4 0xFFFFFFFF DUP5 AND SWAP1 DUP2 LT PUSH2 0x501 JUMPI PUSH2 0x501 PUSH2 0x847 JUMP JUMPDEST PUSH1 0x0 SWAP2 DUP3 MSTORE PUSH1 0x20 SWAP1 SWAP2 KECCAK256 ADD SLOAD PUSH1 0x1 PUSH1 0x1 PUSH1 0xA0 SHL SUB AND SWAP1 POP JUMPDEST SWAP3 SWAP2 POP POP JUMP JUMPDEST PUSH1 0x0 SLOAD PUSH1 0x1 PUSH1 0x1 PUSH1 0xA0 SHL SUB AND CALLER EQ PUSH2 0x536 JUMPI PUSH1 0x0 DUP1 REVERT JUMPDEST DUP2 PUSH1 0x1 PUSH1 0x1 PUSH1 0xA0 SHL SUB DUP2 AND PUSH2 0x54A JUMPI PUSH1 0x0 DUP1 REVERT JUMPDEST DUP2 PUSH1 0x1 PUSH1 0x1 PUSH1 0xA0 SHL SUB DUP2 AND PUSH2 0x55E JUMPI PUSH1 0x0 DUP1 REVERT JUMPDEST PUSH1 0x1 PUSH1 0x1 PUSH1 0xA0 SHL SUB DUP4 DUP2 AND PUSH1 0x0 SWAP1 DUP2 MSTORE PUSH1 0x4 PUSH1 0x20 MSTORE PUSH1 0x40 SWAP1 KECCAK256 SLOAD AND ISZERO PUSH2 0x583 JUMPI PUSH1 0x0 DUP1 REVERT JUMPDEST PUSH1 0x1 PUSH1 0x1 PUSH1 0xA0 SHL SUB DUP5 AND PUSH1 0x0 SWAP1 DUP2 MSTORE PUSH1 0x2 PUSH1 0x20 MSTORE PUSH1 0x40 SWAP1 KECCAK256 SLOAD PUSH1 0xFF AND PUSH2 0x607 JUMPI PUSH1 0x5 DUP1 SLOAD PUSH1 0x1 DUP1 DUP3 ADD SWAP1 SWAP3 SSTORE PUSH32 0x36B6384B5ECA791C62761152D0C79BB0604C104A5FB6F4EB0703F3154BB3DB0 ADD DUP1 SLOAD PUSH1 0x1 PUSH1 0x1 PUSH1 0xA0 SHL SUB NOT AND PUSH1 0x1 PUSH1 0x1 PUSH1 0xA0 SHL SUB DUP8 AND SWAP1 DUP2 OR SWAP1 SWAP2 SSTORE PUSH1 0x0 SWAP1 DUP2 MSTORE PUSH1 0x2 PUSH1 0x20 MSTORE PUSH1 0x40 SWAP1 KECCAK256 DUP1 SLOAD PUSH1 0xFF NOT AND SWAP1 SWAP2 OR SWAP1 SSTORE JUMPDEST PUSH1 0x1 PUSH1 0x1 PUSH1 0xA0 SHL SUB DUP5 DUP2 AND PUSH1 0x0 DUP2 DUP2 MSTORE PUSH1 0x3 PUSH1 0x20 SWAP1 DUP2 MSTORE PUSH1 0x40 DUP1 DUP4 KECCAK256 DUP1 SLOAD PUSH1 0x1 DUP2 ADD DUP3 SSTORE SWAP1 DUP5 MSTORE DUP3 DUP5 KECCAK256 ADD DUP1 SLOAD SWAP6 DUP10 AND PUSH1 0x1 PUSH1 0x1 PUSH1 0xA0 SHL SUB NOT SWAP7 DUP8 AND DUP2 OR SWAP1 SWAP2 SSTORE DUP1 DUP5 MSTORE PUSH1 0x4 DUP4 MSTORE SWAP3 DUP2 SWAP1 KECCAK256 DUP1 SLOAD SWAP1 SWAP6 AND DUP5 OR SWAP1 SWAP5 SSTORE SWAP3 MLOAD SWAP1 DUP2 MSTORE SWAP1 SWAP2 PUSH32 0x229AEC2EC4B21E700D6DAF13A894E7B38C18B844B021F2EEE263F04AF3EA6F00 SWAP2 ADD PUSH2 0x3F1 JUMP JUMPDEST PUSH1 0x0 SLOAD PUSH1 0x1 PUSH1 0x1 PUSH1 0xA0 SHL SUB AND CALLER EQ PUSH2 0x6A3 JUMPI PUSH1 0x0 DUP1 REVERT JUMPDEST PUSH1 0x0 SLOAD PUSH1 0x1 PUSH1 0x1 PUSH1 0xA0 SHL SUB DUP3 DUP2 AND SWAP2 AND EQ ISZERO PUSH2 0x6BE JUMPI PUSH1 0x0 DUP1 REVERT JUMPDEST PUSH1 0x1 DUP1 SLOAD PUSH1 0x1 PUSH1 0x1 PUSH1 0xA0 SHL SUB NOT AND PUSH1 0x1 PUSH1 0x1 PUSH1 0xA0 SHL SUB SWAP3 SWAP1 SWAP3 AND SWAP2 SWAP1 SWAP2 OR SWAP1 SSTORE JUMP JUMPDEST DUP1 CALLDATALOAD PUSH1 0x1 PUSH1 0x1 PUSH1 0xA0 SHL SUB DUP2 AND DUP2 EQ PUSH2 0x6F7 JUMPI PUSH1 0x0 DUP1 REVERT JUMPDEST SWAP2 SWAP1 POP JUMP JUMPDEST PUSH1 0x0 PUSH1 0x20 DUP3 DUP5 SUB SLT ISZERO PUSH2 0x70E JUMPI PUSH1 0x0 DUP1 REVERT JUMPDEST PUSH2 0x717 DUP3 PUSH2 0x6E0 JUMP JUMPDEST SWAP4 SWAP3 POP POP POP JUMP JUMPDEST PUSH1 0x0 DUP1 PUSH1 0x40 DUP4 DUP6 SUB SLT ISZERO PUSH2 0x731 JUMPI PUSH1 0x0 DUP1 REVERT JUMPDEST PUSH2 0x73A DUP4 PUSH2 0x6E0 JUMP JUMPDEST SWAP2 POP PUSH2 0x748 PUSH1 0x20 DUP5 ADD PUSH2 0x6E0 JUMP JUMPDEST SWAP1 POP SWAP3 POP SWAP3 SWAP1 POP JUMP JUMPDEST PUSH1 0x0 DUP1 PUSH1 0x40 DUP4 DUP6 SUB SLT ISZERO PUSH2 0x764 JUMPI PUSH1 0x0 DUP1 REVERT JUMPDEST PUSH2 0x76D DUP4 PUSH2 0x6E0 JUMP JUMPDEST SWAP2 POP PUSH1 0x20 DUP4 ADD CALLDATALOAD PUSH4 0xFFFFFFFF DUP2 AND DUP2 EQ PUSH2 0x786 JUMPI PUSH1 0x0 DUP1 REVERT JUMPDEST DUP1 SWAP2 POP POP SWAP3 POP SWAP3 SWAP1 POP JUMP JUMPDEST PUSH1 0x0 PUSH1 0x20 DUP3 DUP5 SUB SLT ISZERO PUSH2 0x7A3 JUMPI PUSH1 0x0 DUP1 REVERT JUMPDEST POP CALLDATALOAD SWAP2 SWAP1 POP JUMP JUMPDEST PUSH1 0x0 PUSH4 0xFFFFFFFF DUP1 DUP4 AND DUP2 DUP6 AND DUP1 DUP4 SUB DUP3 GT ISZERO PUSH2 0x7C9 JUMPI PUSH2 0x7C9 PUSH2 0x81B JUMP JUMPDEST ADD SWAP5 SWAP4 POP POP POP POP JUMP JUMPDEST PUSH1 0x0 PUSH4 0xFFFFFFFF DUP4 DUP2 AND SWAP1 DUP4 AND DUP2 DUP2 LT ISZERO PUSH2 0x7EF JUMPI PUSH2 0x7EF PUSH2 0x81B JUMP JUMPDEST SUB SWAP4 SWAP3 POP POP POP JUMP JUMPDEST PUSH1 0x0 PUSH4 0xFFFFFFFF DUP1 DUP4 AND DUP2 DUP2 EQ ISZERO PUSH2 0x811 JUMPI PUSH2 0x811 PUSH2 0x81B JUMP JUMPDEST PUSH1 0x1 ADD SWAP4 SWAP3 POP POP POP JUMP JUMPDEST PUSH4 0x4E487B71 PUSH1 0xE0 SHL PUSH1 0x0 MSTORE PUSH1 0x11 PUSH1 0x4 MSTORE PUSH1 0x24 PUSH1 0x0 REVERT JUMPDEST PUSH4 0x4E487B71 PUSH1 0xE0 SHL PUSH1 0x0 MSTORE PUSH1 0x31 PUSH1 0x4 MSTORE PUSH1 0x24 PUSH1 0x0 REVERT JUMPDEST PUSH4 0x4E487B71 PUSH1 0xE0 SHL PUSH1 0x0 MSTORE PUSH1 0x32 PUSH1 0x4 MSTORE PUSH1 0x24 PUSH1 0x0 REVERT INVALID LOG2 PUSH5 0x6970667358 0x22 SLT KECCAK256 0xCB 0x27 ADDRESS GASPRICE PUSH24 0x79C8979C805C21ECA450A5503F7A8C228016FA9ED65936B9 0xA6 STOP RETURNDATACOPY PUSH5 0x736F6C6343 STOP ADDMOD SMOD STOP CALLER "},"gasEstimates":{"creation":{"codeDepositCost":"439000","executionCost":"24709","totalCost":"463709"},"external":{"acceptOwnership()":"56564","blockStamp()":"301","converterAddress(address,uint32)":"7153","converterCount(address)":"2559","newOwner()":"2392","owner()":"2393","registerConverter(address,address)":"infinite","tokenAddress(address)":"2667","tokenCount()":"2281","tokens(uint256)":"4626","transferOwnership(address)":"28952","unregisterConverter(address,uint32)":"infinite"}},"methodIdentifiers":{"acceptOwnership()":"79ba5097","blockStamp()":"f427fdf9","converterAddress(address,uint32)":"90ab3106","converterCount(address)":"cd9d4d66","newOwner()":"d4ee1d90","owner()":"8da5cb5b","registerConverter(address,address)":"d26a8d2e","tokenAddress(address)":"9884e801","tokenCount()":"9f181b5e","tokens(uint256)":"4f64b2be","transferOwnership(address)":"f2fde38b","unregisterConverter(address,uint32)":"38cb066f"}},"storageLayout":{"storage":[{"astId":1088,"contract":"contracts/base/BancorConverterRegistry.sol:BancorConverterRegistry","label":"owner","offset":0,"slot":"0","type":"t_address"},{"astId":1090,"contract":"contracts/base/BancorConverterRegistry.sol:BancorConverterRegistry","label":"newOwner","offset":0,"slot":"1","type":"t_address"},{"astId":837,"contract":"contracts/base/BancorConverterRegistry.sol:BancorConverterRegistry","label":"tokensRegistered","offset":0,"slot":"2","type":"t_mapping(t_address,t_bool)"},{"astId":842,"contract":"contracts/base/BancorConverterRegistry.sol:BancorConverterRegistry","label":"tokensToConverters","offset":0,"slot":"3","type":"t_mapping(t_address,t_array(t_address)dyn_storage)"},{"astId":846,"contract":"contracts/base/BancorConverterRegistry.sol:BancorConverterRegistry","label":"convertersToTokens","offset":0,"slot":"4","type":"t_mapping(t_address,t_address)"},{"astId":849,"contract":"contracts/base/BancorConverterRegistry.sol:BancorConverterRegistry","label":"tokens","offset":0,"slot":"5","type":"t_array(t_address)dyn_storage"}],"types":{"t_address":{"encoding":"inplace","label":"address","numberOfBytes":"20"},"t_array(t_address)dyn_storage":{"base":"t_address","encoding":"dynamic_array","label":"address[]","numberOfBytes":"32"},"t_bool":{"encoding":"inplace","label":"bool","numberOfBytes":"1"},"t_mapping(t_address,t_address)":{"encoding":"mapping","key":"t_address","label":"mapping(address => address)","numberOfBytes":"32","value":"t_address"},"t_mapping(t_address,t_array(t_address)dyn_storage)":{"encoding":"mapping","key":"t_address","label":"mapping(address => address[])","numberOfBytes":"32","value":"t_array(t_address)dyn_storage"},"t_mapping(t_address,t_bool)":{"encoding":"mapping","key":"t_address","label":"mapping(address => bool)","numberOfBytes":"32","value":"t_bool"}}},"userdoc":{"kind":"user","methods":{},"notice":"Bancor Converter Registry The bancor converter registry keeps converter addresses by token addresses and vice versa. The owner can update converter addresses so that a the token address always points to the updated list of converters for each token. The contract also allows to iterate through all the tokens in the network. Note that converter addresses for each token are returned in ascending order (from oldest to latest).","version":1}}}}