{"contracts/Pool.sol":{"Pool":{"abi":[{"inputs":[{"internalType":"uint256","name":"length0","type":"uint256"},{"internalType":"uint256","name":"length1","type":"uint256"}],"name":"BadLengths","type":"error"},{"inputs":[{"internalType":"address","name":"to","type":"address"},{"internalType":"uint256","name":"value","type":"uint256"}],"name":"EthTransferFailed","type":"error"},{"inputs":[{"internalType":"address","name":"sender","type":"address"}],"name":"Forbidden","type":"error"},{"inputs":[],"name":"InitializedAlready","type":"error"},{"inputs":[],"name":"InsufficientInputAmount","type":"error"},{"inputs":[],"name":"InsufficientOutputAmount","type":"error"},{"inputs":[],"name":"InvalidParameters","type":"error"},{"inputs":[],"name":"Locked","type":"error"},{"inputs":[{"internalType":"address","name":"token","type":"address"},{"internalType":"address","name":"to","type":"address"},{"internalType":"uint256","name":"value","type":"uint256"}],"name":"TransferFailed","type":"error"},{"inputs":[{"internalType":"address","name":"token","type":"address"},{"internalType":"address","name":"quoteToken","type":"address"}],"name":"WrongPool","type":"error"},{"inputs":[],"name":"ZeroValue","type":"error"},{"anonymous":false,"inputs":[{"indexed":true,"internalType":"address","name":"sender","type":"address"},{"indexed":true,"internalType":"address","name":"to","type":"address"},{"indexed":false,"internalType":"uint256","name":"liquidity","type":"uint256"}],"name":"Burn","type":"event"},{"anonymous":false,"inputs":[{"indexed":true,"internalType":"address","name":"sender","type":"address"},{"indexed":true,"internalType":"address","name":"to","type":"address"},{"indexed":false,"internalType":"uint256","name":"amount","type":"uint256"}],"name":"Collect","type":"event"},{"anonymous":false,"inputs":[{"indexed":true,"internalType":"address","name":"sender","type":"address"},{"indexed":true,"internalType":"address","name":"to","type":"address"},{"indexed":false,"internalType":"uint256","name":"liquidity","type":"uint256"}],"name":"Mint","type":"event"},{"anonymous":false,"inputs":[{"indexed":true,"internalType":"address","name":"sender","type":"address"},{"indexed":true,"internalType":"address","name":"owner","type":"address"},{"indexed":true,"internalType":"bytes32","name":"positionKey","type":"bytes32"}],"name":"Open","type":"event"},{"anonymous":false,"inputs":[{"indexed":false,"internalType":"address","name":"baseToken","type":"address"},{"indexed":false,"internalType":"bool","name":"tradeable","type":"bool"}],"name":"SetBaseToken","type":"event"},{"anonymous":false,"inputs":[{"indexed":false,"internalType":"uint256","name":"newInterest","type":"uint256"}],"name":"SetInterest","type":"event"},{"anonymous":false,"inputs":[{"indexed":false,"internalType":"address","name":"baseToken","type":"address"},{"indexed":false,"internalType":"uint256","name":"newReserve","type":"uint256"}],"name":"UpdateBaseReserve","type":"event"},{"anonymous":false,"inputs":[{"indexed":false,"internalType":"address","name":"collateral","type":"address"},{"indexed":false,"internalType":"uint256","name":"newReserve","type":"uint256"}],"name":"UpdateCollateralReserve","type":"event"},{"anonymous":false,"inputs":[{"indexed":false,"internalType":"uint256","name":"newFee","type":"uint256"}],"name":"UpdateFee","type":"event"},{"anonymous":false,"inputs":[{"indexed":false,"internalType":"uint256","name":"newProtocolFee","type":"uint256"}],"name":"UpdateProtocolFee","type":"event"},{"anonymous":false,"inputs":[{"indexed":false,"internalType":"uint256","name":"newQuoteInDebt","type":"uint256"}],"name":"UpdateQuoteInDebt","type":"event"},{"anonymous":false,"inputs":[{"indexed":false,"internalType":"uint256","name":"newQuoteReserve","type":"uint256"}],"name":"UpdateQuoteReserve","type":"event"},{"inputs":[],"name":"WETH","outputs":[{"internalType":"address","name":"","type":"address"}],"stateMutability":"view","type":"function"},{"inputs":[],"name":"accFee","outputs":[{"internalType":"uint256","name":"","type":"uint256"}],"stateMutability":"view","type":"function"},{"inputs":[],"name":"accFeePerShare","outputs":[{"internalType":"uint256","name":"","type":"uint256"}],"stateMutability":"view","type":"function"},{"inputs":[],"name":"accProtocolFee","outputs":[{"internalType":"uint256","name":"","type":"uint256"}],"stateMutability":"view","type":"function"},{"inputs":[],"name":"availableLiquidity","outputs":[{"internalType":"uint256","name":"","type":"uint256"}],"stateMutability":"view","type":"function"},{"inputs":[{"internalType":"address","name":"","type":"address"}],"name":"baseReserve","outputs":[{"internalType":"uint256","name":"","type":"uint256"}],"stateMutability":"view","type":"function"},{"inputs":[{"internalType":"address","name":"_to","type":"address"},{"internalType":"uint256","name":"_liquidity","type":"uint256"},{"internalType":"bool","name":"_unwrapWeth","type":"bool"}],"name":"burn","outputs":[],"stateMutability":"nonpayable","type":"function"},{"inputs":[{"internalType":"address","name":"_owner","type":"address"}],"name":"claimableFee","outputs":[{"internalType":"uint256","name":"amount","type":"uint256"}],"stateMutability":"view","type":"function"},{"inputs":[{"components":[{"internalType":"bytes32","name":"positionKey","type":"bytes32"},{"internalType":"bytes","name":"data0","type":"bytes"},{"internalType":"bytes","name":"data1","type":"bytes"}],"internalType":"struct IPositionStorage.CloseTradePositionParams","name":"_params","type":"tuple"}],"name":"close","outputs":[],"stateMutability":"nonpayable","type":"function"},{"inputs":[{"internalType":"address","name":"","type":"address"}],"name":"collateralReserve","outputs":[{"internalType":"uint256","name":"","type":"uint256"}],"stateMutability":"view","type":"function"},{"inputs":[{"internalType":"address","name":"_to","type":"address"},{"internalType":"uint256","name":"_amount","type":"uint256"},{"internalType":"bool","name":"_unwrapWeth","type":"bool"}],"name":"collect","outputs":[],"stateMutability":"nonpayable","type":"function"},{"inputs":[],"name":"factory","outputs":[{"internalType":"address","name":"","type":"address"}],"stateMutability":"view","type":"function"},{"inputs":[{"internalType":"address","name":"_factory","type":"address"},{"internalType":"address","name":"_WETH","type":"address"},{"internalType":"address","name":"_quoteToken","type":"address"},{"internalType":"uint256","name":"_interest","type":"uint256"}],"name":"initialize","outputs":[],"stateMutability":"nonpayable","type":"function"},{"inputs":[],"name":"interest","outputs":[{"internalType":"uint256","name":"","type":"uint256"}],"stateMutability":"view","type":"function"},{"inputs":[{"internalType":"address","name":"","type":"address"}],"name":"liquidityPosition","outputs":[{"internalType":"uint256","name":"liquidity","type":"uint256"},{"internalType":"uint256","name":"feeDebt","type":"uint256"},{"internalType":"uint256","name":"pendingFee","type":"uint256"}],"stateMutability":"view","type":"function"},{"inputs":[{"internalType":"address","name":"_to","type":"address"},{"internalType":"uint256","name":"_liquidity","type":"uint256"},{"internalType":"bytes","name":"_data","type":"bytes"}],"name":"mint","outputs":[],"stateMutability":"nonpayable","type":"function"},{"inputs":[{"components":[{"internalType":"address","name":"owner","type":"address"},{"internalType":"address","name":"baseToken","type":"address"},{"internalType":"address","name":"quoteToken","type":"address"},{"internalType":"address","name":"collateral","type":"address"},{"internalType":"uint256","name":"baseAmount","type":"uint256"},{"internalType":"uint256","name":"quoteAmount","type":"uint256"},{"internalType":"uint256","name":"collateralAmount","type":"uint256"},{"internalType":"uint256","name":"deadline","type":"uint256"},{"internalType":"uint256","name":"stoplossPrice","type":"uint256"},{"internalType":"bool","name":"unwrapWeth","type":"bool"}],"internalType":"struct IPositionStorage.OpenTradePositionParams","name":"_params","type":"tuple"}],"name":"open","outputs":[{"internalType":"bytes32","name":"positionKey","type":"bytes32"}],"stateMutability":"nonpayable","type":"function"},{"inputs":[],"name":"precision","outputs":[{"internalType":"uint256","name":"","type":"uint256"}],"stateMutability":"view","type":"function"},{"inputs":[],"name":"quoteInDebt","outputs":[{"internalType":"uint256","name":"","type":"uint256"}],"stateMutability":"view","type":"function"},{"inputs":[],"name":"quoteReserve","outputs":[{"internalType":"uint256","name":"","type":"uint256"}],"stateMutability":"view","type":"function"},{"inputs":[],"name":"quoteToken","outputs":[{"internalType":"address","name":"","type":"address"}],"stateMutability":"view","type":"function"},{"inputs":[{"internalType":"bytes32","name":"_positionKey","type":"bytes32"}],"name":"rollback","outputs":[],"stateMutability":"nonpayable","type":"function"},{"inputs":[{"internalType":"address[]","name":"_baseTokens","type":"address[]"},{"internalType":"bool[]","name":"_tradeables","type":"bool[]"}],"name":"setBaseTokens","outputs":[],"stateMutability":"nonpayable","type":"function"},{"inputs":[{"internalType":"uint256","name":"_interest","type":"uint256"}],"name":"setInterest","outputs":[],"stateMutability":"nonpayable","type":"function"},{"inputs":[{"internalType":"address","name":"","type":"address"}],"name":"tradeableBaseToken","outputs":[{"internalType":"bool","name":"","type":"bool"}],"stateMutability":"view","type":"function"},{"inputs":[{"internalType":"bytes32","name":"_positionKey","type":"bytes32"},{"internalType":"uint256","name":"_deadline","type":"uint256"}],"name":"updateDeadline","outputs":[],"stateMutability":"nonpayable","type":"function"},{"inputs":[{"internalType":"bytes32","name":"_positionKey","type":"bytes32"},{"internalType":"uint256","name":"_stoplossPrice","type":"uint256"}],"name":"updateStoplossPrice","outputs":[],"stateMutability":"nonpayable","type":"function"},{"stateMutability":"payable","type":"receive"}],"devdoc":{"kind":"dev","methods":{},"version":1},"evm":{"bytecode":{"linkReferences":{},"object":"6080604052600160005534801561001557600080fd5b50612823806100256000396000f3fe6080604052600436106101a05760003560e01c80639da771f4116100ec578063ca9bc69d1161008a578063d3b5dc3b11610064578063d3b5dc3b1461049c578063d4fd6905146104b2578063dd3b829a14610509578063ffc9dcbb1461051f57600080fd5b8063ca9bc69d14610441578063cf756fdf14610461578063cfb139281461048157600080fd5b8063ada3112f116100c6578063ada3112f146103f5578063b6cf16911461020b578063c392f7661461040b578063c45a01551461042157600080fd5b80639da771f41461039f578063a1c59afc146103b5578063ad5c4648146103d557600080fd5b806337f0031a116101595780637437535911610133578063743753591461031d57806376fd4fdf146103325780638b6e00fa1461035257806394d008ef1461037f57600080fd5b806337f0031a146102c75780633f8e2936146102e7578063685b61d01461030757600080fd5b80630adcf0f5146101c65780631b033c1d1461020b5780631d0867201461022b578063217a4b701461024b57806327014e331461028357806332196a01146102a757600080fd5b366101c1576002546001600160a01b031633146101bf576101bf612772565b005b600080fd5b3480156101d257600080fd5b506101f66101e1366004611dde565b600b6020526000908152604090205460ff1681565b60405190151581526020015b60405180910390f35b34801561021757600080fd5b506101bf610226366004612053565b61054c565b34801561023757600080fd5b506101bf610246366004612021565b610578565b34801561025757600080fd5b5060035461026b906001600160a01b031681565b6040516001600160a01b039091168152602001610202565b34801561028f57600080fd5b5061029960095481565b604051908152602001610202565b3480156102b357600080fd5b506101bf6102c2366004611f3b565b6105e6565b3480156102d357600080fd5b506102996102e2366004612126565b610755565b3480156102f357600080fd5b506101bf610302366004611e70565b610b43565b34801561031357600080fd5b5061029960075481565b34801561032957600080fd5b50610299610cba565b34801561033e57600080fd5b506101bf61034d366004611e70565b610cc9565b34801561035e57600080fd5b5061029961036d366004611dde565b600d6020526000908152604090205481565b34801561038b57600080fd5b506101bf61039a366004611eb2565b610e1f565b3480156103ab57600080fd5b5061029960065481565b3480156103c157600080fd5b506102996103d0366004611dde565b6110d6565b3480156103e157600080fd5b5060025461026b906001600160a01b031681565b34801561040157600080fd5b5061029960085481565b34801561041757600080fd5b5061029960055481565b34801561042d57600080fd5b5060015461026b906001600160a01b031681565b34801561044d57600080fd5b506101bf61045c366004612075565b611165565b34801561046d57600080fd5b506101bf61047c366004611e1f565b611190565b34801561048d57600080fd5b506101bf61045c366004612021565b3480156104a857600080fd5b5061029960045481565b3480156104be57600080fd5b506104ee6104cd366004611dde565b600e6020526000908152604090208054600182015460029092015490919083565b60408051938452602084019290925290820152606001610202565b34801561051557600080fd5b50610299600a5481565b34801561052b57600080fd5b5061029961053a366004611dde565b600c6020526000908152604090205481565b60005460011461056f576040516303cb96db60e21b815260040160405180910390fd5b50506001600055565b6001546001600160a01b031633146105aa5760405163a59d7f4d60e01b81523360048201526024015b60405180910390fd5b60058190556040518181527f81ed86e8cfa3004fc54732477c3eda4f4c606394a0b423aba78153a3e696f65d906020015b60405180910390a150565b6001546001600160a01b031633146106135760405163a59d7f4d60e01b81523360048201526024016105a1565b8051825114610642578151815160405163574092f960e01b8152600481019290925260248201526044016105a1565b60005b8251811015610750578181815181106106605761066061279e565b6020026020010151600b600085848151811061067e5761067e61279e565b60200260200101516001600160a01b03166001600160a01b0316815260200190815260200160002060006101000a81548160ff0219169083151502179055507f07f3eda3f714379eddf0620b56429f8b62650079725dbe416faffbab8c6204e18382815181106106f0576106f061279e565b602002602001015183838151811061070a5761070a61279e565b60200260200101516040516107369291906001600160a01b039290921682521515602082015260400190565b60405180910390a18061074881612757565b915050610645565b505050565b60008054600114610779576040516303cb96db60e21b815260040160405180910390fd5b6000805560035460408301516001600160a01b03918216911681146107ca576040808401519051630158332360e41b81526001600160a01b03918216600482015290821660248201526044016105a1565b82604001516001600160a01b031683602001516001600160a01b0316141561080557604051630e52390960e41b815260040160405180910390fd5b61080e83611279565b61082b5760405163098fb56160e01b815260040160405180910390fd5b60015460408051638cd4741560e01b815290516000926001600160a01b031691638cd47415916004808301926020929190829003018186803b15801561087057600080fd5b505afa158015610884573d6000803e3d6000fd5b505050506040513d601f19601f820116820180604052508101906108a89190611e02565b90506000816001600160a01b0316633e9f5444866040518263ffffffff1660e01b81526004016108d89190612386565b6103606040518083038186803b1580156108f157600080fd5b505afa158015610905573d6000803e3d6000fd5b505050506040513d601f19601f8201168201806040525081019061092991906121cc565b60208101519091506001600160a01b031661095757604051630e52390960e41b815260040160405180910390fd5b60008161010001518260800151602001516109729190612740565b9050600061097e6115a8565b9050808211156109a1576040516342301c2360e01b815260040160405180910390fd5b6040516305efb7d160e01b81526001600160a01b038516906305efb7d1906109cd908690600401612439565b602060405180830381600087803b1580156109e757600080fd5b505af11580156109fb573d6000803e3d6000fd5b505050506040513d601f19601f82011682018060405250810190610a1f919061203a565b9550610a3b8760a00151600754610a3691906125f7565b611671565b610a59836101200151846101000151610a549190612740565b6116a6565b610a74836101200151600954610a6f91906125f7565b611720565b60208088015160808901516001600160a01b0382166000908152600c909352604090922054610aab92610aa6916125f7565b611755565b606087015160c08801516001600160a01b0382166000908152600d6020526040902054610ae19291610adc916125f7565b6117ae565b610afa8588600001518960a001518a61012001516117ff565b865160405187916001600160a01b03169033907f84c0e2ecdb2f9ca8447beab8e0d40a871c6b66c5c7a831d998f338887d4f1d5d90600090a45050600160005550919392505050565b600054600114610b66576040516303cb96db60e21b815260040160405180910390fd5b6000805581610b8857604051637c946ed760e01b815260040160405180910390fd5b6001600160a01b0383166000908152600e60205260409020600a54600454825415610bed57600183015483548290610bc09085612721565b610bca919061260f565b610bd49190612740565b836002016000828254610be791906125f7565b90915550505b82548190610bfb9084612721565b610c05919061260f565b60018401556002830154851180610c1d575060085485115b15610c3b576040516342301c2360e01b815260040160405180910390fd5b84836002016000828254610c4f9190612740565b9091555050600354610c6c906001600160a01b03168787876117ff565b6040518581526001600160a01b0387169033907f1314fd112a381beea61539dbd21ec04afcff2662ac7d1b83273aade1f53d1b97906020015b60405180910390a35050600160005550505050565b6000610cc46115a8565b905090565b600054600114610cec576040516303cb96db60e21b815260040160405180910390fd5b60008080556001600160a01b0384168152600e602052604090208054831115610d28576040516342301c2360e01b815260040160405180910390fd5b600a54600454825415610d7557600183015483548290610d489085612721565b610d52919061260f565b610d5c9190612740565b836002016000828254610d6f91906125f7565b90915550505b84836000016000828254610d899190612740565b909155505082548190610d9c9084612721565b610da6919061260f565b6001840155600654610dc290610dbd908790612740565b611a5b565b610dca611a90565b600354610de2906001600160a01b03168787876117ff565b6040518581526001600160a01b0387169033907fbac40739b0d4ca32fa2d82fc91630465ba3eddd1598da6fca393b26fb63b945390602001610ca5565b600054600114610e42576040516303cb96db60e21b815260040160405180910390fd5b60008080556003546001600160a01b038681168352600e6020526040909220600a54600454825494909316939192909115610eb757600183015483548290610e8a9085612721565b610e94919061260f565b610e9e9190612740565b836002016000828254610eb191906125f7565b90915550505b86836000016000828254610ecb91906125f7565b909155505082548190610ede9084612721565b610ee8919061260f565b6001840155600654610eff90610dbd9089906125f7565b610f07611a90565b6040516370a0823160e01b81523060048201526000906001600160a01b038616906370a082319060240160206040518083038186803b158015610f4957600080fd5b505afa158015610f5d573d6000803e3d6000fd5b505050506040513d601f19601f82011682018060405250810190610f81919061203a565b6040516303a3bcd760e01b815290915033906303a3bcd790610fad9088908c908c908c9060040161233e565b600060405180830381600087803b158015610fc757600080fd5b505af1158015610fdb573d6000803e3d6000fd5b50506040516370a0823160e01b8152306004820152600092506001600160a01b03881691506370a082319060240160206040518083038186803b15801561102157600080fd5b505afa158015611035573d6000803e3d6000fd5b505050506040513d601f19601f82011682018060405250810190611059919061203a565b905061106589836125f7565b8110156110855760405163098fb56160e01b815260040160405180910390fd5b6040518981526001600160a01b038b169033907fab8530f87dc9b59234c4623bf917212bb2536d647574c8e7e5da92c2ede0c9f89060200160405180910390a3505060016000555050505050505050565b6001600160a01b0381166000908152600e6020908152604080832081516060810183528154808252600183015494820185905260029092015492810192909252600454600a54929392909161112a91612721565b611134919061260f565b826040015161114391906125f7565b61114d9190612740565b915060085482111561115f5760085491505b50919050565b600054600114611188576040516303cb96db60e21b815260040160405180910390fd5b506001600055565b6001546001600160a01b0316156111ba576040516373e833b960e11b815260040160405180910390fd5b600180546001600160a01b038087166001600160a01b031992831617909255600280548684169083161790556003805492851692909116821790556040805163313ce56760e01b8152905163313ce56791600480820192602092909190829003018186803b15801561122b57600080fd5b505afa15801561123f573d6000803e3d6000fd5b505050506040513d601f19601f8201168201806040525081019061126391906122a0565b61126e90600a612674565b600455600555505050565b600081602001516001600160a01b031682606001516001600160a01b0316146114b45760608201516040516370a0823160e01b81523060048201526000916001600160a01b0316906370a082319060240160206040518083038186803b1580156112e257600080fd5b505afa1580156112f6573d6000803e3d6000fd5b505050506040513d601f19601f8201168201806040525081019061131a919061203a565b6060840180516001600160a01b039081166000908152600c602090815260408083205494519093168252600d90522054919250611356916125f7565b6113609082612740565b905082604001516001600160a01b031683606001516001600160a01b031614156113bb5760095460085460075460065461139a9190612740565b6113a49190612740565b6113ae9190612740565b6113b89082612740565b90505b8260c001518110156113d05750600092915050565b60208301516040516370a0823160e01b81523060048201526000916001600160a01b0316906370a082319060240160206040518083038186803b15801561141657600080fd5b505afa15801561142a573d6000803e3d6000fd5b505050506040513d601f19601f8201168201806040525081019061144e919061203a565b602080860180516001600160a01b039081166000908152600c845260408082205493519092168152600d9093529091205491925061148b916125f7565b6114959082612740565b905083608001518110156114ad575060009392505050565b50506115a0565b60608201516040516370a0823160e01b81523060048201526000916001600160a01b0316906370a082319060240160206040518083038186803b1580156114fa57600080fd5b505afa15801561150e573d6000803e3d6000fd5b505050506040513d601f19601f82011682018060405250810190611532919061203a565b6060840180516001600160a01b039081166000908152600c602090815260408083205494519093168252600d9052205491925061156e916125f7565b6115789082612740565b905082608001518360c0015161158e91906125f7565b81101561159e5750600092915050565b505b506001919050565b6003546040516370a0823160e01b81523060048201526000916001600160a01b031690829082906370a082319060240160206040518083038186803b1580156115f057600080fd5b505afa158015611604573d6000803e3d6000fd5b505050506040513d601f19601f82011682018060405250810190611628919061203a565b6009546008546001600160a01b0385166000908152600d602052604090205492935090916116569084612740565b6116609190612740565b61166a9190612740565b9250505090565b60078190556040518181527f26a8db85dd35b30712c42ae882de1d59c395aed810477ed980623164802cf142906020016105db565b80600860008282546116b891906125f7565b90915550506006546004546116cd9083612721565b6116d7919061260f565b600a60008282546116e891906125f7565b90915550506008546040519081527f38e229a7f3f9c329892d08eb37c4e91ccac6d12c798d394990ca4f56028ec266906020016105db565b60098190556040518181527f02f1bb46a1dd6774772e223bfa9c733cea598e6b1ac69187d1c614a04cfd1c36906020016105db565b6001600160a01b0382166000818152600c6020908152604091829020849055815192835282018390527f650aa761fa5f576577cdc0c020d74fa8bb091213a82ee311b7a274d9aa4f955991015b60405180910390a15050565b6001600160a01b0382166000818152600d6020908152604091829020849055815192835282018390527f63eb39417416506dc369967fba1b44e6418801a4a6845581c06cada91448c5c391016117a2565b6002546001600160a01b039081169085168114801561181b5750815b1561191f57604051632e1a7d4d60e01b8152600481018490526001600160a01b03821690632e1a7d4d90602401600060405180830381600087803b15801561186257600080fd5b505af1158015611876573d6000803e3d6000fd5b5050604080516000808252602082019283905293506001600160a01b038816925086916118a39190612303565b60006040518083038185875af1925050503d80600081146118e0576040519150601f19603f3d011682016040523d82523d6000602084013e6118e5565b606091505b505090508061191957604051636f54afdd60e11b81526001600160a01b0386166004820152602481018590526044016105a1565b50611a54565b604080518082018252601981527f7472616e7366657228616464726573732c75696e74323536290000000000000060209182015281516001600160a01b0387811660248301526044808301889052845180840390910181526064909201845291810180516001600160e01b031663a9059cbb60e01b179052915160009283928916916119ab9190612303565b6000604051808303816000865af19150503d80600081146119e8576040519150601f19603f3d011682016040523d82523d6000602084013e6119ed565b606091505b5091509150811580611a19575080511580611a17575080806020019051810190611a179190612004565b155b15611a51576040516317e3057d60e31b81526001600160a01b03808916600483015287166024820152604481018690526064016105a1565b50505b5050505050565b60068190556040518181527f044141ecee2fb3c75d1699b968fa546a18dfa4ee1d705699d81751270b385951906020016105db565b6009548015611b4c576001546040805163779b492960e11b815290516000926001600160a01b03169163ef369252916004808301926020929190829003018186803b158015611ade57600080fd5b505afa158015611af2573d6000803e3d6000fd5b505050506040513d601f19601f82011682018060405250810190611b169190611e02565b90506001600160a01b03811615611b4a57611b316000611720565b600354611b4a906001600160a01b0316828460006117ff565b505b50565b8035611b5a816127ca565b919050565b8051611b5a816127ca565b600082601f830112611b7b57600080fd5b81356020611b90611b8b836125d3565b6125a2565b80838252828201915082860187848660051b8901011115611bb057600080fd5b60005b85811015611bd8578135611bc6816127df565b84529284019290840190600101611bb3565b5090979650505050505050565b8035611b5a816127df565b600082601f830112611c0157600080fd5b813567ffffffffffffffff811115611c1b57611c1b6127b4565b611c2e601f8201601f19166020016125a2565b818152846020838601011115611c4357600080fd5b816020850160208301376000918101602001919091529392505050565b600060c08284031215611c7257600080fd5b60405160c0810181811067ffffffffffffffff82111715611c9557611c956127b4565b80604052508091508251611ca8816127ca565b808252506020830151602082015260408301516040820152606083015160608201526080830151608082015260a083015160a08201525092915050565b600060408284031215611cf757600080fd5b6040516040810181811067ffffffffffffffff82111715611d1a57611d1a6127b4565b80604052508091508251611d2d816127ca565b8152602092830151920191909152919050565b600060a08284031215611d5257600080fd5b60405160a0810181811067ffffffffffffffff82111715611d7557611d756127b4565b80604052508091508251611d88816127df565b81526020830151611d98816127df565b60208201526040830151611dab816127df565b60408201526060830151611dbe816127df565b60608201526080830151611dd1816127df565b6080919091015292915050565b600060208284031215611df057600080fd5b8135611dfb816127ca565b9392505050565b600060208284031215611e1457600080fd5b8151611dfb816127ca565b60008060008060808587031215611e3557600080fd5b8435611e40816127ca565b93506020850135611e50816127ca565b92506040850135611e60816127ca565b9396929550929360600135925050565b600080600060608486031215611e8557600080fd5b8335611e90816127ca565b9250602084013591506040840135611ea7816127df565b809150509250925092565b60008060008060608587031215611ec857600080fd5b8435611ed3816127ca565b935060208501359250604085013567ffffffffffffffff80821115611ef757600080fd5b818701915087601f830112611f0b57600080fd5b813581811115611f1a57600080fd5b886020828501011115611f2c57600080fd5b95989497505060200194505050565b60008060408385031215611f4e57600080fd5b823567ffffffffffffffff80821115611f6657600080fd5b818501915085601f830112611f7a57600080fd5b81356020611f8a611b8b836125d3565b8083825282820191508286018a848660051b8901011115611faa57600080fd5b600096505b84871015611fd6578035611fc2816127ca565b835260019690960195918301918301611faf565b5096505086013592505080821115611fed57600080fd5b50611ffa85828601611b6a565b9150509250929050565b60006020828403121561201657600080fd5b8151611dfb816127df565b60006020828403121561203357600080fd5b5035919050565b60006020828403121561204c57600080fd5b5051919050565b6000806040838503121561206657600080fd5b50508035926020909101359150565b60006020828403121561208757600080fd5b813567ffffffffffffffff8082111561209f57600080fd5b90830190606082860312156120b357600080fd5b6040516060810181811083821117156120ce576120ce6127b4565b604052823581526020830135828111156120e757600080fd5b6120f387828601611bf0565b60208301525060408301358281111561210b57600080fd5b61211787828601611bf0565b60408301525095945050505050565b6000610140828403121561213957600080fd5b612141612554565b61214a83611b4f565b815261215860208401611b4f565b602082015261216960408401611b4f565b604082015261217a60608401611b4f565b60608201526080830135608082015260a083013560a082015260c083013560c082015260e083013560e08201526101008084013581830152506101206121c1818501611be5565b908201529392505050565b600061036082840312156121df57600080fd5b6121e761257e565b825181526121f760208401611b5f565b602082015261220860408401611b5f565b604082015261221a8460608501611c60565b606082015261012061222e85828601611ce5565b608083015261016061224286828701611c60565b60a084015261022085015160c084015261024085015160e084015261026085015161010084015261028085015182840152612281866102a08701611d40565b6101408401526122946103408601611b5f565b90830152509392505050565b6000602082840312156122b257600080fd5b815160ff81168114611dfb57600080fd5b80516001600160a01b031682526020808201519083015260408082015190830152606080820151908301526080808201519083015260a090810151910152565b6000825160005b81811015612324576020818601810151858301520161230a565b81811115612333576000828501525b509190910192915050565b6001600160a01b0385168152602081018490526060604082018190528101829052818360808301376000818301608090810191909152601f909201601f191601019392505050565b81516001600160a01b03168152610140810160208301516123b260208401826001600160a01b03169052565b5060408301516123cd60408401826001600160a01b03169052565b5060608301516123e860608401826001600160a01b03169052565b506080830151608083015260a083015160a083015260c083015160c083015260e083015160e0830152610100808401518184015250610120808401516124318285018215159052565b505092915050565b8151815260208083015161036083019161245d908401826001600160a01b03169052565b50604083015161247860408401826001600160a01b03169052565b50606083015161248b60608401826122c3565b5060808301516101206124b38185018380516001600160a01b03168252602090810151910152565b60a085015191506101606124c9818601846122c3565b60c086015161022086015260e086015161024086015261010086015161026086015290850151610280850152610140850151805115156102a0860152602081015115156102c0860152604081015115156102e0860152606081015115156103008601526080015115156103208501528401516001600160a01b03811661034085015290505092915050565b604051610140810167ffffffffffffffff81118282101715612578576125786127b4565b60405290565b604051610180810167ffffffffffffffff81118282101715612578576125786127b4565b604051601f8201601f1916810167ffffffffffffffff811182821017156125cb576125cb6127b4565b604052919050565b600067ffffffffffffffff8211156125ed576125ed6127b4565b5060051b60200190565b6000821982111561260a5761260a612788565b500190565b60008261262c57634e487b7160e01b600052601260045260246000fd5b500490565b600181815b8085111561266c57816000190482111561265257612652612788565b8085161561265f57918102915b93841c9390800290612636565b509250929050565b6000611dfb60ff84168360008261268d5750600161271b565b8161269a5750600061271b565b81600181146126b057600281146126ba576126d6565b600191505061271b565b60ff8411156126cb576126cb612788565b50506001821b61271b565b5060208310610133831016604e8410600b84101617156126f9575081810a61271b565b6127038383612631565b806000190482111561271757612717612788565b0290505b92915050565b600081600019048311821515161561273b5761273b612788565b500290565b60008282101561275257612752612788565b500390565b600060001982141561276b5761276b612788565b5060010190565b634e487b7160e01b600052600160045260246000fd5b634e487b7160e01b600052601160045260246000fd5b634e487b7160e01b600052603260045260246000fd5b634e487b7160e01b600052604160045260246000fd5b6001600160a01b0381168114611b4c57600080fd5b8015158114611b4c57600080fdfea26469706673582212202063ac8bb0fd25278f83a8e4ff7e0fe1decb1a8f40081686b042c64b15231d1d64736f6c63430008070033","opcodes":"PUSH1 0x80 PUSH1 0x40 MSTORE PUSH1 0x1 PUSH1 0x0 SSTORE CALLVALUE DUP1 ISZERO PUSH2 0x15 JUMPI PUSH1 0x0 DUP1 REVERT JUMPDEST POP PUSH2 0x2823 DUP1 PUSH2 0x25 PUSH1 0x0 CODECOPY PUSH1 0x0 RETURN INVALID PUSH1 0x80 PUSH1 0x40 MSTORE PUSH1 0x4 CALLDATASIZE LT PUSH2 0x1A0 JUMPI PUSH1 0x0 CALLDATALOAD PUSH1 0xE0 SHR DUP1 PUSH4 0x9DA771F4 GT PUSH2 0xEC JUMPI DUP1 PUSH4 0xCA9BC69D GT PUSH2 0x8A JUMPI DUP1 PUSH4 0xD3B5DC3B GT PUSH2 0x64 JUMPI DUP1 PUSH4 0xD3B5DC3B EQ PUSH2 0x49C JUMPI DUP1 PUSH4 0xD4FD6905 EQ PUSH2 0x4B2 JUMPI DUP1 PUSH4 0xDD3B829A EQ PUSH2 0x509 JUMPI DUP1 PUSH4 0xFFC9DCBB EQ PUSH2 0x51F JUMPI PUSH1 0x0 DUP1 REVERT JUMPDEST DUP1 PUSH4 0xCA9BC69D EQ PUSH2 0x441 JUMPI DUP1 PUSH4 0xCF756FDF EQ PUSH2 0x461 JUMPI DUP1 PUSH4 0xCFB13928 EQ PUSH2 0x481 JUMPI PUSH1 0x0 DUP1 REVERT JUMPDEST DUP1 PUSH4 0xADA3112F GT PUSH2 0xC6 JUMPI DUP1 PUSH4 0xADA3112F EQ PUSH2 0x3F5 JUMPI DUP1 PUSH4 0xB6CF1691 EQ PUSH2 0x20B JUMPI DUP1 PUSH4 0xC392F766 EQ PUSH2 0x40B JUMPI DUP1 PUSH4 0xC45A0155 EQ PUSH2 0x421 JUMPI PUSH1 0x0 DUP1 REVERT JUMPDEST DUP1 PUSH4 0x9DA771F4 EQ PUSH2 0x39F JUMPI DUP1 PUSH4 0xA1C59AFC EQ PUSH2 0x3B5 JUMPI DUP1 PUSH4 0xAD5C4648 EQ PUSH2 0x3D5 JUMPI PUSH1 0x0 DUP1 REVERT JUMPDEST DUP1 PUSH4 0x37F0031A GT PUSH2 0x159 JUMPI DUP1 PUSH4 0x74375359 GT PUSH2 0x133 JUMPI DUP1 PUSH4 0x74375359 EQ PUSH2 0x31D JUMPI DUP1 PUSH4 0x76FD4FDF EQ PUSH2 0x332 JUMPI DUP1 PUSH4 0x8B6E00FA EQ PUSH2 0x352 JUMPI DUP1 PUSH4 0x94D008EF EQ PUSH2 0x37F JUMPI PUSH1 0x0 DUP1 REVERT JUMPDEST DUP1 PUSH4 0x37F0031A EQ PUSH2 0x2C7 JUMPI DUP1 PUSH4 0x3F8E2936 EQ PUSH2 0x2E7 JUMPI DUP1 PUSH4 0x685B61D0 EQ PUSH2 0x307 JUMPI PUSH1 0x0 DUP1 REVERT JUMPDEST DUP1 PUSH4 0xADCF0F5 EQ PUSH2 0x1C6 JUMPI DUP1 PUSH4 0x1B033C1D EQ PUSH2 0x20B JUMPI DUP1 PUSH4 0x1D086720 EQ PUSH2 0x22B JUMPI DUP1 PUSH4 0x217A4B70 EQ PUSH2 0x24B JUMPI DUP1 PUSH4 0x27014E33 EQ PUSH2 0x283 JUMPI DUP1 PUSH4 0x32196A01 EQ PUSH2 0x2A7 JUMPI PUSH1 0x0 DUP1 REVERT JUMPDEST CALLDATASIZE PUSH2 0x1C1 JUMPI PUSH1 0x2 SLOAD PUSH1 0x1 PUSH1 0x1 PUSH1 0xA0 SHL SUB AND CALLER EQ PUSH2 0x1BF JUMPI PUSH2 0x1BF PUSH2 0x2772 JUMP JUMPDEST STOP JUMPDEST PUSH1 0x0 DUP1 REVERT JUMPDEST CALLVALUE DUP1 ISZERO PUSH2 0x1D2 JUMPI PUSH1 0x0 DUP1 REVERT JUMPDEST POP PUSH2 0x1F6 PUSH2 0x1E1 CALLDATASIZE PUSH1 0x4 PUSH2 0x1DDE JUMP JUMPDEST PUSH1 0xB PUSH1 0x20 MSTORE PUSH1 0x0 SWAP1 DUP2 MSTORE PUSH1 0x40 SWAP1 KECCAK256 SLOAD PUSH1 0xFF AND DUP2 JUMP JUMPDEST PUSH1 0x40 MLOAD SWAP1 ISZERO ISZERO DUP2 MSTORE PUSH1 0x20 ADD JUMPDEST PUSH1 0x40 MLOAD DUP1 SWAP2 SUB SWAP1 RETURN JUMPDEST CALLVALUE DUP1 ISZERO PUSH2 0x217 JUMPI PUSH1 0x0 DUP1 REVERT JUMPDEST POP PUSH2 0x1BF PUSH2 0x226 CALLDATASIZE PUSH1 0x4 PUSH2 0x2053 JUMP JUMPDEST PUSH2 0x54C JUMP JUMPDEST CALLVALUE DUP1 ISZERO PUSH2 0x237 JUMPI PUSH1 0x0 DUP1 REVERT JUMPDEST POP PUSH2 0x1BF PUSH2 0x246 CALLDATASIZE PUSH1 0x4 PUSH2 0x2021 JUMP JUMPDEST PUSH2 0x578 JUMP JUMPDEST CALLVALUE DUP1 ISZERO PUSH2 0x257 JUMPI PUSH1 0x0 DUP1 REVERT JUMPDEST POP PUSH1 0x3 SLOAD PUSH2 0x26B SWAP1 PUSH1 0x1 PUSH1 0x1 PUSH1 0xA0 SHL SUB AND DUP2 JUMP JUMPDEST PUSH1 0x40 MLOAD PUSH1 0x1 PUSH1 0x1 PUSH1 0xA0 SHL SUB SWAP1 SWAP2 AND DUP2 MSTORE PUSH1 0x20 ADD PUSH2 0x202 JUMP JUMPDEST CALLVALUE DUP1 ISZERO PUSH2 0x28F JUMPI PUSH1 0x0 DUP1 REVERT JUMPDEST POP PUSH2 0x299 PUSH1 0x9 SLOAD DUP2 JUMP JUMPDEST PUSH1 0x40 MLOAD SWAP1 DUP2 MSTORE PUSH1 0x20 ADD PUSH2 0x202 JUMP JUMPDEST CALLVALUE DUP1 ISZERO PUSH2 0x2B3 JUMPI PUSH1 0x0 DUP1 REVERT JUMPDEST POP PUSH2 0x1BF PUSH2 0x2C2 CALLDATASIZE PUSH1 0x4 PUSH2 0x1F3B JUMP JUMPDEST PUSH2 0x5E6 JUMP JUMPDEST CALLVALUE DUP1 ISZERO PUSH2 0x2D3 JUMPI PUSH1 0x0 DUP1 REVERT JUMPDEST POP PUSH2 0x299 PUSH2 0x2E2 CALLDATASIZE PUSH1 0x4 PUSH2 0x2126 JUMP JUMPDEST PUSH2 0x755 JUMP JUMPDEST CALLVALUE DUP1 ISZERO PUSH2 0x2F3 JUMPI PUSH1 0x0 DUP1 REVERT JUMPDEST POP PUSH2 0x1BF PUSH2 0x302 CALLDATASIZE PUSH1 0x4 PUSH2 0x1E70 JUMP JUMPDEST PUSH2 0xB43 JUMP JUMPDEST CALLVALUE DUP1 ISZERO PUSH2 0x313 JUMPI PUSH1 0x0 DUP1 REVERT JUMPDEST POP PUSH2 0x299 PUSH1 0x7 SLOAD DUP2 JUMP JUMPDEST CALLVALUE DUP1 ISZERO PUSH2 0x329 JUMPI PUSH1 0x0 DUP1 REVERT JUMPDEST POP PUSH2 0x299 PUSH2 0xCBA JUMP JUMPDEST CALLVALUE DUP1 ISZERO PUSH2 0x33E JUMPI PUSH1 0x0 DUP1 REVERT JUMPDEST POP PUSH2 0x1BF PUSH2 0x34D CALLDATASIZE PUSH1 0x4 PUSH2 0x1E70 JUMP JUMPDEST PUSH2 0xCC9 JUMP JUMPDEST CALLVALUE DUP1 ISZERO PUSH2 0x35E JUMPI PUSH1 0x0 DUP1 REVERT JUMPDEST POP PUSH2 0x299 PUSH2 0x36D CALLDATASIZE PUSH1 0x4 PUSH2 0x1DDE JUMP JUMPDEST PUSH1 0xD PUSH1 0x20 MSTORE PUSH1 0x0 SWAP1 DUP2 MSTORE PUSH1 0x40 SWAP1 KECCAK256 SLOAD DUP2 JUMP JUMPDEST CALLVALUE DUP1 ISZERO PUSH2 0x38B JUMPI PUSH1 0x0 DUP1 REVERT JUMPDEST POP PUSH2 0x1BF PUSH2 0x39A CALLDATASIZE PUSH1 0x4 PUSH2 0x1EB2 JUMP JUMPDEST PUSH2 0xE1F JUMP JUMPDEST CALLVALUE DUP1 ISZERO PUSH2 0x3AB JUMPI PUSH1 0x0 DUP1 REVERT JUMPDEST POP PUSH2 0x299 PUSH1 0x6 SLOAD DUP2 JUMP JUMPDEST CALLVALUE DUP1 ISZERO PUSH2 0x3C1 JUMPI PUSH1 0x0 DUP1 REVERT JUMPDEST POP PUSH2 0x299 PUSH2 0x3D0 CALLDATASIZE PUSH1 0x4 PUSH2 0x1DDE JUMP JUMPDEST PUSH2 0x10D6 JUMP JUMPDEST CALLVALUE DUP1 ISZERO PUSH2 0x3E1 JUMPI PUSH1 0x0 DUP1 REVERT JUMPDEST POP PUSH1 0x2 SLOAD PUSH2 0x26B SWAP1 PUSH1 0x1 PUSH1 0x1 PUSH1 0xA0 SHL SUB AND DUP2 JUMP JUMPDEST CALLVALUE DUP1 ISZERO PUSH2 0x401 JUMPI PUSH1 0x0 DUP1 REVERT JUMPDEST POP PUSH2 0x299 PUSH1 0x8 SLOAD DUP2 JUMP JUMPDEST CALLVALUE DUP1 ISZERO PUSH2 0x417 JUMPI PUSH1 0x0 DUP1 REVERT JUMPDEST POP PUSH2 0x299 PUSH1 0x5 SLOAD DUP2 JUMP JUMPDEST CALLVALUE DUP1 ISZERO PUSH2 0x42D JUMPI PUSH1 0x0 DUP1 REVERT JUMPDEST POP PUSH1 0x1 SLOAD PUSH2 0x26B SWAP1 PUSH1 0x1 PUSH1 0x1 PUSH1 0xA0 SHL SUB AND DUP2 JUMP JUMPDEST CALLVALUE DUP1 ISZERO PUSH2 0x44D JUMPI PUSH1 0x0 DUP1 REVERT JUMPDEST POP PUSH2 0x1BF PUSH2 0x45C CALLDATASIZE PUSH1 0x4 PUSH2 0x2075 JUMP JUMPDEST PUSH2 0x1165 JUMP JUMPDEST CALLVALUE DUP1 ISZERO PUSH2 0x46D JUMPI PUSH1 0x0 DUP1 REVERT JUMPDEST POP PUSH2 0x1BF PUSH2 0x47C CALLDATASIZE PUSH1 0x4 PUSH2 0x1E1F JUMP JUMPDEST PUSH2 0x1190 JUMP JUMPDEST CALLVALUE DUP1 ISZERO PUSH2 0x48D JUMPI PUSH1 0x0 DUP1 REVERT JUMPDEST POP PUSH2 0x1BF PUSH2 0x45C CALLDATASIZE PUSH1 0x4 PUSH2 0x2021 JUMP JUMPDEST CALLVALUE DUP1 ISZERO PUSH2 0x4A8 JUMPI PUSH1 0x0 DUP1 REVERT JUMPDEST POP PUSH2 0x299 PUSH1 0x4 SLOAD DUP2 JUMP JUMPDEST CALLVALUE DUP1 ISZERO PUSH2 0x4BE JUMPI PUSH1 0x0 DUP1 REVERT JUMPDEST POP PUSH2 0x4EE PUSH2 0x4CD CALLDATASIZE PUSH1 0x4 PUSH2 0x1DDE JUMP JUMPDEST PUSH1 0xE PUSH1 0x20 MSTORE PUSH1 0x0 SWAP1 DUP2 MSTORE PUSH1 0x40 SWAP1 KECCAK256 DUP1 SLOAD PUSH1 0x1 DUP3 ADD SLOAD PUSH1 0x2 SWAP1 SWAP3 ADD SLOAD SWAP1 SWAP2 SWAP1 DUP4 JUMP JUMPDEST PUSH1 0x40 DUP1 MLOAD SWAP4 DUP5 MSTORE PUSH1 0x20 DUP5 ADD SWAP3 SWAP1 SWAP3 MSTORE SWAP1 DUP3 ADD MSTORE PUSH1 0x60 ADD PUSH2 0x202 JUMP JUMPDEST CALLVALUE DUP1 ISZERO PUSH2 0x515 JUMPI PUSH1 0x0 DUP1 REVERT JUMPDEST POP PUSH2 0x299 PUSH1 0xA SLOAD DUP2 JUMP JUMPDEST CALLVALUE DUP1 ISZERO PUSH2 0x52B JUMPI PUSH1 0x0 DUP1 REVERT JUMPDEST POP PUSH2 0x299 PUSH2 0x53A CALLDATASIZE PUSH1 0x4 PUSH2 0x1DDE JUMP JUMPDEST PUSH1 0xC PUSH1 0x20 MSTORE PUSH1 0x0 SWAP1 DUP2 MSTORE PUSH1 0x40 SWAP1 KECCAK256 SLOAD DUP2 JUMP JUMPDEST PUSH1 0x0 SLOAD PUSH1 0x1 EQ PUSH2 0x56F JUMPI PUSH1 0x40 MLOAD PUSH4 0x3CB96DB PUSH1 0xE2 SHL DUP2 MSTORE PUSH1 0x4 ADD PUSH1 0x40 MLOAD DUP1 SWAP2 SUB SWAP1 REVERT JUMPDEST POP POP PUSH1 0x1 PUSH1 0x0 SSTORE JUMP JUMPDEST PUSH1 0x1 SLOAD PUSH1 0x1 PUSH1 0x1 PUSH1 0xA0 SHL SUB AND CALLER EQ PUSH2 0x5AA JUMPI PUSH1 0x40 MLOAD PUSH4 0xA59D7F4D PUSH1 0xE0 SHL DUP2 MSTORE CALLER PUSH1 0x4 DUP3 ADD MSTORE PUSH1 0x24 ADD JUMPDEST PUSH1 0x40 MLOAD DUP1 SWAP2 SUB SWAP1 REVERT JUMPDEST PUSH1 0x5 DUP2 SWAP1 SSTORE PUSH1 0x40 MLOAD DUP2 DUP2 MSTORE PUSH32 0x81ED86E8CFA3004FC54732477C3EDA4F4C606394A0B423ABA78153A3E696F65D SWAP1 PUSH1 0x20 ADD JUMPDEST PUSH1 0x40 MLOAD DUP1 SWAP2 SUB SWAP1 LOG1 POP JUMP JUMPDEST PUSH1 0x1 SLOAD PUSH1 0x1 PUSH1 0x1 PUSH1 0xA0 SHL SUB AND CALLER EQ PUSH2 0x613 JUMPI PUSH1 0x40 MLOAD PUSH4 0xA59D7F4D PUSH1 0xE0 SHL DUP2 MSTORE CALLER PUSH1 0x4 DUP3 ADD MSTORE PUSH1 0x24 ADD PUSH2 0x5A1 JUMP JUMPDEST DUP1 MLOAD DUP3 MLOAD EQ PUSH2 0x642 JUMPI DUP2 MLOAD DUP2 MLOAD PUSH1 0x40 MLOAD PUSH4 0x574092F9 PUSH1 0xE0 SHL DUP2 MSTORE PUSH1 0x4 DUP2 ADD SWAP3 SWAP1 SWAP3 MSTORE PUSH1 0x24 DUP3 ADD MSTORE PUSH1 0x44 ADD PUSH2 0x5A1 JUMP JUMPDEST PUSH1 0x0 JUMPDEST DUP3 MLOAD DUP2 LT ISZERO PUSH2 0x750 JUMPI DUP2 DUP2 DUP2 MLOAD DUP2 LT PUSH2 0x660 JUMPI PUSH2 0x660 PUSH2 0x279E JUMP JUMPDEST PUSH1 0x20 MUL PUSH1 0x20 ADD ADD MLOAD PUSH1 0xB PUSH1 0x0 DUP6 DUP5 DUP2 MLOAD DUP2 LT PUSH2 0x67E JUMPI PUSH2 0x67E PUSH2 0x279E JUMP JUMPDEST PUSH1 0x20 MUL PUSH1 0x20 ADD ADD MLOAD PUSH1 0x1 PUSH1 0x1 PUSH1 0xA0 SHL SUB AND PUSH1 0x1 PUSH1 0x1 PUSH1 0xA0 SHL SUB AND DUP2 MSTORE PUSH1 0x20 ADD SWAP1 DUP2 MSTORE PUSH1 0x20 ADD PUSH1 0x0 KECCAK256 PUSH1 0x0 PUSH2 0x100 EXP DUP2 SLOAD DUP2 PUSH1 0xFF MUL NOT AND SWAP1 DUP4 ISZERO ISZERO MUL OR SWAP1 SSTORE POP PUSH32 0x7F3EDA3F714379EDDF0620B56429F8B62650079725DBE416FAFFBAB8C6204E1 DUP4 DUP3 DUP2 MLOAD DUP2 LT PUSH2 0x6F0 JUMPI PUSH2 0x6F0 PUSH2 0x279E JUMP JUMPDEST PUSH1 0x20 MUL PUSH1 0x20 ADD ADD MLOAD DUP4 DUP4 DUP2 MLOAD DUP2 LT PUSH2 0x70A JUMPI PUSH2 0x70A PUSH2 0x279E JUMP JUMPDEST PUSH1 0x20 MUL PUSH1 0x20 ADD ADD MLOAD PUSH1 0x40 MLOAD PUSH2 0x736 SWAP3 SWAP2 SWAP1 PUSH1 0x1 PUSH1 0x1 PUSH1 0xA0 SHL SUB SWAP3 SWAP1 SWAP3 AND DUP3 MSTORE ISZERO ISZERO PUSH1 0x20 DUP3 ADD MSTORE PUSH1 0x40 ADD SWAP1 JUMP JUMPDEST PUSH1 0x40 MLOAD DUP1 SWAP2 SUB SWAP1 LOG1 DUP1 PUSH2 0x748 DUP2 PUSH2 0x2757 JUMP JUMPDEST SWAP2 POP POP PUSH2 0x645 JUMP JUMPDEST POP POP POP JUMP JUMPDEST PUSH1 0x0 DUP1 SLOAD PUSH1 0x1 EQ PUSH2 0x779 JUMPI PUSH1 0x40 MLOAD PUSH4 0x3CB96DB PUSH1 0xE2 SHL DUP2 MSTORE PUSH1 0x4 ADD PUSH1 0x40 MLOAD DUP1 SWAP2 SUB SWAP1 REVERT JUMPDEST PUSH1 0x0 DUP1 SSTORE PUSH1 0x3 SLOAD PUSH1 0x40 DUP4 ADD MLOAD PUSH1 0x1 PUSH1 0x1 PUSH1 0xA0 SHL SUB SWAP2 DUP3 AND SWAP2 AND DUP2 EQ PUSH2 0x7CA JUMPI PUSH1 0x40 DUP1 DUP5 ADD MLOAD SWAP1 MLOAD PUSH4 0x1583323 PUSH1 0xE4 SHL DUP2 MSTORE PUSH1 0x1 PUSH1 0x1 PUSH1 0xA0 SHL SUB SWAP2 DUP3 AND PUSH1 0x4 DUP3 ADD MSTORE SWAP1 DUP3 AND PUSH1 0x24 DUP3 ADD MSTORE PUSH1 0x44 ADD PUSH2 0x5A1 JUMP JUMPDEST DUP3 PUSH1 0x40 ADD MLOAD PUSH1 0x1 PUSH1 0x1 PUSH1 0xA0 SHL SUB AND DUP4 PUSH1 0x20 ADD MLOAD PUSH1 0x1 PUSH1 0x1 PUSH1 0xA0 SHL SUB AND EQ ISZERO PUSH2 0x805 JUMPI PUSH1 0x40 MLOAD PUSH4 0xE523909 PUSH1 0xE4 SHL DUP2 MSTORE PUSH1 0x4 ADD PUSH1 0x40 MLOAD DUP1 SWAP2 SUB SWAP1 REVERT JUMPDEST PUSH2 0x80E DUP4 PUSH2 0x1279 JUMP JUMPDEST PUSH2 0x82B JUMPI PUSH1 0x40 MLOAD PUSH4 0x98FB561 PUSH1 0xE0 SHL DUP2 MSTORE PUSH1 0x4 ADD PUSH1 0x40 MLOAD DUP1 SWAP2 SUB SWAP1 REVERT JUMPDEST PUSH1 0x1 SLOAD PUSH1 0x40 DUP1 MLOAD PUSH4 0x8CD47415 PUSH1 0xE0 SHL DUP2 MSTORE SWAP1 MLOAD PUSH1 0x0 SWAP3 PUSH1 0x1 PUSH1 0x1 PUSH1 0xA0 SHL SUB AND SWAP2 PUSH4 0x8CD47415 SWAP2 PUSH1 0x4 DUP1 DUP4 ADD SWAP3 PUSH1 0x20 SWAP3 SWAP2 SWAP1 DUP3 SWAP1 SUB ADD DUP2 DUP7 DUP1 EXTCODESIZE ISZERO DUP1 ISZERO PUSH2 0x870 JUMPI PUSH1 0x0 DUP1 REVERT JUMPDEST POP GAS STATICCALL ISZERO DUP1 ISZERO PUSH2 0x884 JUMPI RETURNDATASIZE PUSH1 0x0 DUP1 RETURNDATACOPY RETURNDATASIZE PUSH1 0x0 REVERT JUMPDEST POP POP POP POP PUSH1 0x40 MLOAD RETURNDATASIZE PUSH1 0x1F NOT PUSH1 0x1F DUP3 ADD AND DUP3 ADD DUP1 PUSH1 0x40 MSTORE POP DUP2 ADD SWAP1 PUSH2 0x8A8 SWAP2 SWAP1 PUSH2 0x1E02 JUMP JUMPDEST SWAP1 POP PUSH1 0x0 DUP2 PUSH1 0x1 PUSH1 0x1 PUSH1 0xA0 SHL SUB AND PUSH4 0x3E9F5444 DUP7 PUSH1 0x40 MLOAD DUP3 PUSH4 0xFFFFFFFF AND PUSH1 0xE0 SHL DUP2 MSTORE PUSH1 0x4 ADD PUSH2 0x8D8 SWAP2 SWAP1 PUSH2 0x2386 JUMP JUMPDEST PUSH2 0x360 PUSH1 0x40 MLOAD DUP1 DUP4 SUB DUP2 DUP7 DUP1 EXTCODESIZE ISZERO DUP1 ISZERO PUSH2 0x8F1 JUMPI PUSH1 0x0 DUP1 REVERT JUMPDEST POP GAS STATICCALL ISZERO DUP1 ISZERO PUSH2 0x905 JUMPI RETURNDATASIZE PUSH1 0x0 DUP1 RETURNDATACOPY RETURNDATASIZE PUSH1 0x0 REVERT JUMPDEST POP POP POP POP PUSH1 0x40 MLOAD RETURNDATASIZE PUSH1 0x1F NOT PUSH1 0x1F DUP3 ADD AND DUP3 ADD DUP1 PUSH1 0x40 MSTORE POP DUP2 ADD SWAP1 PUSH2 0x929 SWAP2 SWAP1 PUSH2 0x21CC JUMP JUMPDEST PUSH1 0x20 DUP2 ADD MLOAD SWAP1 SWAP2 POP PUSH1 0x1 PUSH1 0x1 PUSH1 0xA0 SHL SUB AND PUSH2 0x957 JUMPI PUSH1 0x40 MLOAD PUSH4 0xE523909 PUSH1 0xE4 SHL DUP2 MSTORE PUSH1 0x4 ADD PUSH1 0x40 MLOAD DUP1 SWAP2 SUB SWAP1 REVERT JUMPDEST PUSH1 0x0 DUP2 PUSH2 0x100 ADD MLOAD DUP3 PUSH1 0x80 ADD MLOAD PUSH1 0x20 ADD MLOAD PUSH2 0x972 SWAP2 SWAP1 PUSH2 0x2740 JUMP JUMPDEST SWAP1 POP PUSH1 0x0 PUSH2 0x97E PUSH2 0x15A8 JUMP JUMPDEST SWAP1 POP DUP1 DUP3 GT ISZERO PUSH2 0x9A1 JUMPI PUSH1 0x40 MLOAD PUSH4 0x42301C23 PUSH1 0xE0 SHL DUP2 MSTORE PUSH1 0x4 ADD PUSH1 0x40 MLOAD DUP1 SWAP2 SUB SWAP1 REVERT JUMPDEST PUSH1 0x40 MLOAD PUSH4 0x5EFB7D1 PUSH1 0xE0 SHL DUP2 MSTORE PUSH1 0x1 PUSH1 0x1 PUSH1 0xA0 SHL SUB DUP6 AND SWAP1 PUSH4 0x5EFB7D1 SWAP1 PUSH2 0x9CD SWAP1 DUP7 SWAP1 PUSH1 0x4 ADD PUSH2 0x2439 JUMP JUMPDEST PUSH1 0x20 PUSH1 0x40 MLOAD DUP1 DUP4 SUB DUP2 PUSH1 0x0 DUP8 DUP1 EXTCODESIZE ISZERO DUP1 ISZERO PUSH2 0x9E7 JUMPI PUSH1 0x0 DUP1 REVERT JUMPDEST POP GAS CALL ISZERO DUP1 ISZERO PUSH2 0x9FB JUMPI RETURNDATASIZE PUSH1 0x0 DUP1 RETURNDATACOPY RETURNDATASIZE PUSH1 0x0 REVERT JUMPDEST POP POP POP POP PUSH1 0x40 MLOAD RETURNDATASIZE PUSH1 0x1F NOT PUSH1 0x1F DUP3 ADD AND DUP3 ADD DUP1 PUSH1 0x40 MSTORE POP DUP2 ADD SWAP1 PUSH2 0xA1F SWAP2 SWAP1 PUSH2 0x203A JUMP JUMPDEST SWAP6 POP PUSH2 0xA3B DUP8 PUSH1 0xA0 ADD MLOAD PUSH1 0x7 SLOAD PUSH2 0xA36 SWAP2 SWAP1 PUSH2 0x25F7 JUMP JUMPDEST PUSH2 0x1671 JUMP JUMPDEST PUSH2 0xA59 DUP4 PUSH2 0x120 ADD MLOAD DUP5 PUSH2 0x100 ADD MLOAD PUSH2 0xA54 SWAP2 SWAP1 PUSH2 0x2740 JUMP JUMPDEST PUSH2 0x16A6 JUMP JUMPDEST PUSH2 0xA74 DUP4 PUSH2 0x120 ADD MLOAD PUSH1 0x9 SLOAD PUSH2 0xA6F SWAP2 SWAP1 PUSH2 0x25F7 JUMP JUMPDEST PUSH2 0x1720 JUMP JUMPDEST PUSH1 0x20 DUP1 DUP9 ADD MLOAD PUSH1 0x80 DUP10 ADD MLOAD PUSH1 0x1 PUSH1 0x1 PUSH1 0xA0 SHL SUB DUP3 AND PUSH1 0x0 SWAP1 DUP2 MSTORE PUSH1 0xC SWAP1 SWAP4 MSTORE PUSH1 0x40 SWAP1 SWAP3 KECCAK256 SLOAD PUSH2 0xAAB SWAP3 PUSH2 0xAA6 SWAP2 PUSH2 0x25F7 JUMP JUMPDEST PUSH2 0x1755 JUMP JUMPDEST PUSH1 0x60 DUP8 ADD MLOAD PUSH1 0xC0 DUP9 ADD MLOAD PUSH1 0x1 PUSH1 0x1 PUSH1 0xA0 SHL SUB DUP3 AND PUSH1 0x0 SWAP1 DUP2 MSTORE PUSH1 0xD PUSH1 0x20 MSTORE PUSH1 0x40 SWAP1 KECCAK256 SLOAD PUSH2 0xAE1 SWAP3 SWAP2 PUSH2 0xADC SWAP2 PUSH2 0x25F7 JUMP JUMPDEST PUSH2 0x17AE JUMP JUMPDEST PUSH2 0xAFA DUP6 DUP9 PUSH1 0x0 ADD MLOAD DUP10 PUSH1 0xA0 ADD MLOAD DUP11 PUSH2 0x120 ADD MLOAD PUSH2 0x17FF JUMP JUMPDEST DUP7 MLOAD PUSH1 0x40 MLOAD DUP8 SWAP2 PUSH1 0x1 PUSH1 0x1 PUSH1 0xA0 SHL SUB AND SWAP1 CALLER SWAP1 PUSH32 0x84C0E2ECDB2F9CA8447BEAB8E0D40A871C6B66C5C7A831D998F338887D4F1D5D SWAP1 PUSH1 0x0 SWAP1 LOG4 POP POP PUSH1 0x1 PUSH1 0x0 SSTORE POP SWAP2 SWAP4 SWAP3 POP POP POP JUMP JUMPDEST PUSH1 0x0 SLOAD PUSH1 0x1 EQ PUSH2 0xB66 JUMPI PUSH1 0x40 MLOAD PUSH4 0x3CB96DB PUSH1 0xE2 SHL DUP2 MSTORE PUSH1 0x4 ADD PUSH1 0x40 MLOAD DUP1 SWAP2 SUB SWAP1 REVERT JUMPDEST PUSH1 0x0 DUP1 SSTORE DUP2 PUSH2 0xB88 JUMPI PUSH1 0x40 MLOAD PUSH4 0x7C946ED7 PUSH1 0xE0 SHL DUP2 MSTORE PUSH1 0x4 ADD PUSH1 0x40 MLOAD DUP1 SWAP2 SUB SWAP1 REVERT JUMPDEST PUSH1 0x1 PUSH1 0x1 PUSH1 0xA0 SHL SUB DUP4 AND PUSH1 0x0 SWAP1 DUP2 MSTORE PUSH1 0xE PUSH1 0x20 MSTORE PUSH1 0x40 SWAP1 KECCAK256 PUSH1 0xA SLOAD PUSH1 0x4 SLOAD DUP3 SLOAD ISZERO PUSH2 0xBED JUMPI PUSH1 0x1 DUP4 ADD SLOAD DUP4 SLOAD DUP3 SWAP1 PUSH2 0xBC0 SWAP1 DUP6 PUSH2 0x2721 JUMP JUMPDEST PUSH2 0xBCA SWAP2 SWAP1 PUSH2 0x260F JUMP JUMPDEST PUSH2 0xBD4 SWAP2 SWAP1 PUSH2 0x2740 JUMP JUMPDEST DUP4 PUSH1 0x2 ADD PUSH1 0x0 DUP3 DUP3 SLOAD PUSH2 0xBE7 SWAP2 SWAP1 PUSH2 0x25F7 JUMP JUMPDEST SWAP1 SWAP2 SSTORE POP POP JUMPDEST DUP3 SLOAD DUP2 SWAP1 PUSH2 0xBFB SWAP1 DUP5 PUSH2 0x2721 JUMP JUMPDEST PUSH2 0xC05 SWAP2 SWAP1 PUSH2 0x260F JUMP JUMPDEST PUSH1 0x1 DUP5 ADD SSTORE PUSH1 0x2 DUP4 ADD SLOAD DUP6 GT DUP1 PUSH2 0xC1D JUMPI POP PUSH1 0x8 SLOAD DUP6 GT JUMPDEST ISZERO PUSH2 0xC3B JUMPI PUSH1 0x40 MLOAD PUSH4 0x42301C23 PUSH1 0xE0 SHL DUP2 MSTORE PUSH1 0x4 ADD PUSH1 0x40 MLOAD DUP1 SWAP2 SUB SWAP1 REVERT JUMPDEST DUP5 DUP4 PUSH1 0x2 ADD PUSH1 0x0 DUP3 DUP3 SLOAD PUSH2 0xC4F SWAP2 SWAP1 PUSH2 0x2740 JUMP JUMPDEST SWAP1 SWAP2 SSTORE POP POP PUSH1 0x3 SLOAD PUSH2 0xC6C SWAP1 PUSH1 0x1 PUSH1 0x1 PUSH1 0xA0 SHL SUB AND DUP8 DUP8 DUP8 PUSH2 0x17FF JUMP JUMPDEST PUSH1 0x40 MLOAD DUP6 DUP2 MSTORE PUSH1 0x1 PUSH1 0x1 PUSH1 0xA0 SHL SUB DUP8 AND SWAP1 CALLER SWAP1 PUSH32 0x1314FD112A381BEEA61539DBD21EC04AFCFF2662AC7D1B83273AADE1F53D1B97 SWAP1 PUSH1 0x20 ADD JUMPDEST PUSH1 0x40 MLOAD DUP1 SWAP2 SUB SWAP1 LOG3 POP POP PUSH1 0x1 PUSH1 0x0 SSTORE POP POP POP POP JUMP JUMPDEST PUSH1 0x0 PUSH2 0xCC4 PUSH2 0x15A8 JUMP JUMPDEST SWAP1 POP SWAP1 JUMP JUMPDEST PUSH1 0x0 SLOAD PUSH1 0x1 EQ PUSH2 0xCEC JUMPI PUSH1 0x40 MLOAD PUSH4 0x3CB96DB PUSH1 0xE2 SHL DUP2 MSTORE PUSH1 0x4 ADD PUSH1 0x40 MLOAD DUP1 SWAP2 SUB SWAP1 REVERT JUMPDEST PUSH1 0x0 DUP1 DUP1 SSTORE PUSH1 0x1 PUSH1 0x1 PUSH1 0xA0 SHL SUB DUP5 AND DUP2 MSTORE PUSH1 0xE PUSH1 0x20 MSTORE PUSH1 0x40 SWAP1 KECCAK256 DUP1 SLOAD DUP4 GT ISZERO PUSH2 0xD28 JUMPI PUSH1 0x40 MLOAD PUSH4 0x42301C23 PUSH1 0xE0 SHL DUP2 MSTORE PUSH1 0x4 ADD PUSH1 0x40 MLOAD DUP1 SWAP2 SUB SWAP1 REVERT JUMPDEST PUSH1 0xA SLOAD PUSH1 0x4 SLOAD DUP3 SLOAD ISZERO PUSH2 0xD75 JUMPI PUSH1 0x1 DUP4 ADD SLOAD DUP4 SLOAD DUP3 SWAP1 PUSH2 0xD48 SWAP1 DUP6 PUSH2 0x2721 JUMP JUMPDEST PUSH2 0xD52 SWAP2 SWAP1 PUSH2 0x260F JUMP JUMPDEST PUSH2 0xD5C SWAP2 SWAP1 PUSH2 0x2740 JUMP JUMPDEST DUP4 PUSH1 0x2 ADD PUSH1 0x0 DUP3 DUP3 SLOAD PUSH2 0xD6F SWAP2 SWAP1 PUSH2 0x25F7 JUMP JUMPDEST SWAP1 SWAP2 SSTORE POP POP JUMPDEST DUP5 DUP4 PUSH1 0x0 ADD PUSH1 0x0 DUP3 DUP3 SLOAD PUSH2 0xD89 SWAP2 SWAP1 PUSH2 0x2740 JUMP JUMPDEST SWAP1 SWAP2 SSTORE POP POP DUP3 SLOAD DUP2 SWAP1 PUSH2 0xD9C SWAP1 DUP5 PUSH2 0x2721 JUMP JUMPDEST PUSH2 0xDA6 SWAP2 SWAP1 PUSH2 0x260F JUMP JUMPDEST PUSH1 0x1 DUP5 ADD SSTORE PUSH1 0x6 SLOAD PUSH2 0xDC2 SWAP1 PUSH2 0xDBD SWAP1 DUP8 SWAP1 PUSH2 0x2740 JUMP JUMPDEST PUSH2 0x1A5B JUMP JUMPDEST PUSH2 0xDCA PUSH2 0x1A90 JUMP JUMPDEST PUSH1 0x3 SLOAD PUSH2 0xDE2 SWAP1 PUSH1 0x1 PUSH1 0x1 PUSH1 0xA0 SHL SUB AND DUP8 DUP8 DUP8 PUSH2 0x17FF JUMP JUMPDEST PUSH1 0x40 MLOAD DUP6 DUP2 MSTORE PUSH1 0x1 PUSH1 0x1 PUSH1 0xA0 SHL SUB DUP8 AND SWAP1 CALLER SWAP1 PUSH32 0xBAC40739B0D4CA32FA2D82FC91630465BA3EDDD1598DA6FCA393B26FB63B9453 SWAP1 PUSH1 0x20 ADD PUSH2 0xCA5 JUMP JUMPDEST PUSH1 0x0 SLOAD PUSH1 0x1 EQ PUSH2 0xE42 JUMPI PUSH1 0x40 MLOAD PUSH4 0x3CB96DB PUSH1 0xE2 SHL DUP2 MSTORE PUSH1 0x4 ADD PUSH1 0x40 MLOAD DUP1 SWAP2 SUB SWAP1 REVERT JUMPDEST PUSH1 0x0 DUP1 DUP1 SSTORE PUSH1 0x3 SLOAD PUSH1 0x1 PUSH1 0x1 PUSH1 0xA0 SHL SUB DUP7 DUP2 AND DUP4 MSTORE PUSH1 0xE PUSH1 0x20 MSTORE PUSH1 0x40 SWAP1 SWAP3 KECCAK256 PUSH1 0xA SLOAD PUSH1 0x4 SLOAD DUP3 SLOAD SWAP5 SWAP1 SWAP4 AND SWAP4 SWAP2 SWAP3 SWAP1 SWAP2 ISZERO PUSH2 0xEB7 JUMPI PUSH1 0x1 DUP4 ADD SLOAD DUP4 SLOAD DUP3 SWAP1 PUSH2 0xE8A SWAP1 DUP6 PUSH2 0x2721 JUMP JUMPDEST PUSH2 0xE94 SWAP2 SWAP1 PUSH2 0x260F JUMP JUMPDEST PUSH2 0xE9E SWAP2 SWAP1 PUSH2 0x2740 JUMP JUMPDEST DUP4 PUSH1 0x2 ADD PUSH1 0x0 DUP3 DUP3 SLOAD PUSH2 0xEB1 SWAP2 SWAP1 PUSH2 0x25F7 JUMP JUMPDEST SWAP1 SWAP2 SSTORE POP POP JUMPDEST DUP7 DUP4 PUSH1 0x0 ADD PUSH1 0x0 DUP3 DUP3 SLOAD PUSH2 0xECB SWAP2 SWAP1 PUSH2 0x25F7 JUMP JUMPDEST SWAP1 SWAP2 SSTORE POP POP DUP3 SLOAD DUP2 SWAP1 PUSH2 0xEDE SWAP1 DUP5 PUSH2 0x2721 JUMP JUMPDEST PUSH2 0xEE8 SWAP2 SWAP1 PUSH2 0x260F JUMP JUMPDEST PUSH1 0x1 DUP5 ADD SSTORE PUSH1 0x6 SLOAD PUSH2 0xEFF SWAP1 PUSH2 0xDBD SWAP1 DUP10 SWAP1 PUSH2 0x25F7 JUMP JUMPDEST PUSH2 0xF07 PUSH2 0x1A90 JUMP JUMPDEST PUSH1 0x40 MLOAD PUSH4 0x70A08231 PUSH1 0xE0 SHL DUP2 MSTORE ADDRESS PUSH1 0x4 DUP3 ADD MSTORE PUSH1 0x0 SWAP1 PUSH1 0x1 PUSH1 0x1 PUSH1 0xA0 SHL SUB DUP7 AND SWAP1 PUSH4 0x70A08231 SWAP1 PUSH1 0x24 ADD PUSH1 0x20 PUSH1 0x40 MLOAD DUP1 DUP4 SUB DUP2 DUP7 DUP1 EXTCODESIZE ISZERO DUP1 ISZERO PUSH2 0xF49 JUMPI PUSH1 0x0 DUP1 REVERT JUMPDEST POP GAS STATICCALL ISZERO DUP1 ISZERO PUSH2 0xF5D JUMPI RETURNDATASIZE PUSH1 0x0 DUP1 RETURNDATACOPY RETURNDATASIZE PUSH1 0x0 REVERT JUMPDEST POP POP POP POP PUSH1 0x40 MLOAD RETURNDATASIZE PUSH1 0x1F NOT PUSH1 0x1F DUP3 ADD AND DUP3 ADD DUP1 PUSH1 0x40 MSTORE POP DUP2 ADD SWAP1 PUSH2 0xF81 SWAP2 SWAP1 PUSH2 0x203A JUMP JUMPDEST PUSH1 0x40 MLOAD PUSH4 0x3A3BCD7 PUSH1 0xE0 SHL DUP2 MSTORE SWAP1 SWAP2 POP CALLER SWAP1 PUSH4 0x3A3BCD7 SWAP1 PUSH2 0xFAD SWAP1 DUP9 SWAP1 DUP13 SWAP1 DUP13 SWAP1 DUP13 SWAP1 PUSH1 0x4 ADD PUSH2 0x233E JUMP JUMPDEST PUSH1 0x0 PUSH1 0x40 MLOAD DUP1 DUP4 SUB DUP2 PUSH1 0x0 DUP8 DUP1 EXTCODESIZE ISZERO DUP1 ISZERO PUSH2 0xFC7 JUMPI PUSH1 0x0 DUP1 REVERT JUMPDEST POP GAS CALL ISZERO DUP1 ISZERO PUSH2 0xFDB JUMPI RETURNDATASIZE PUSH1 0x0 DUP1 RETURNDATACOPY RETURNDATASIZE PUSH1 0x0 REVERT JUMPDEST POP POP PUSH1 0x40 MLOAD PUSH4 0x70A08231 PUSH1 0xE0 SHL DUP2 MSTORE ADDRESS PUSH1 0x4 DUP3 ADD MSTORE PUSH1 0x0 SWAP3 POP PUSH1 0x1 PUSH1 0x1 PUSH1 0xA0 SHL SUB DUP9 AND SWAP2 POP PUSH4 0x70A08231 SWAP1 PUSH1 0x24 ADD PUSH1 0x20 PUSH1 0x40 MLOAD DUP1 DUP4 SUB DUP2 DUP7 DUP1 EXTCODESIZE ISZERO DUP1 ISZERO PUSH2 0x1021 JUMPI PUSH1 0x0 DUP1 REVERT JUMPDEST POP GAS STATICCALL ISZERO DUP1 ISZERO PUSH2 0x1035 JUMPI RETURNDATASIZE PUSH1 0x0 DUP1 RETURNDATACOPY RETURNDATASIZE PUSH1 0x0 REVERT JUMPDEST POP POP POP POP PUSH1 0x40 MLOAD RETURNDATASIZE PUSH1 0x1F NOT PUSH1 0x1F DUP3 ADD AND DUP3 ADD DUP1 PUSH1 0x40 MSTORE POP DUP2 ADD SWAP1 PUSH2 0x1059 SWAP2 SWAP1 PUSH2 0x203A JUMP JUMPDEST SWAP1 POP PUSH2 0x1065 DUP10 DUP4 PUSH2 0x25F7 JUMP JUMPDEST DUP2 LT ISZERO PUSH2 0x1085 JUMPI PUSH1 0x40 MLOAD PUSH4 0x98FB561 PUSH1 0xE0 SHL DUP2 MSTORE PUSH1 0x4 ADD PUSH1 0x40 MLOAD DUP1 SWAP2 SUB SWAP1 REVERT JUMPDEST PUSH1 0x40 MLOAD DUP10 DUP2 MSTORE PUSH1 0x1 PUSH1 0x1 PUSH1 0xA0 SHL SUB DUP12 AND SWAP1 CALLER SWAP1 PUSH32 0xAB8530F87DC9B59234C4623BF917212BB2536D647574C8E7E5DA92C2EDE0C9F8 SWAP1 PUSH1 0x20 ADD PUSH1 0x40 MLOAD DUP1 SWAP2 SUB SWAP1 LOG3 POP POP PUSH1 0x1 PUSH1 0x0 SSTORE POP POP POP POP POP POP POP POP JUMP JUMPDEST PUSH1 0x1 PUSH1 0x1 PUSH1 0xA0 SHL SUB DUP2 AND PUSH1 0x0 SWAP1 DUP2 MSTORE PUSH1 0xE PUSH1 0x20 SWAP1 DUP2 MSTORE PUSH1 0x40 DUP1 DUP4 KECCAK256 DUP2 MLOAD PUSH1 0x60 DUP2 ADD DUP4 MSTORE DUP2 SLOAD DUP1 DUP3 MSTORE PUSH1 0x1 DUP4 ADD SLOAD SWAP5 DUP3 ADD DUP6 SWAP1 MSTORE PUSH1 0x2 SWAP1 SWAP3 ADD SLOAD SWAP3 DUP2 ADD SWAP3 SWAP1 SWAP3 MSTORE PUSH1 0x4 SLOAD PUSH1 0xA SLOAD SWAP3 SWAP4 SWAP3 SWAP1 SWAP2 PUSH2 0x112A SWAP2 PUSH2 0x2721 JUMP JUMPDEST PUSH2 0x1134 SWAP2 SWAP1 PUSH2 0x260F JUMP JUMPDEST DUP3 PUSH1 0x40 ADD MLOAD PUSH2 0x1143 SWAP2 SWAP1 PUSH2 0x25F7 JUMP JUMPDEST PUSH2 0x114D SWAP2 SWAP1 PUSH2 0x2740 JUMP JUMPDEST SWAP2 POP PUSH1 0x8 SLOAD DUP3 GT ISZERO PUSH2 0x115F JUMPI PUSH1 0x8 SLOAD SWAP2 POP JUMPDEST POP SWAP2 SWAP1 POP JUMP JUMPDEST PUSH1 0x0 SLOAD PUSH1 0x1 EQ PUSH2 0x1188 JUMPI PUSH1 0x40 MLOAD PUSH4 0x3CB96DB PUSH1 0xE2 SHL DUP2 MSTORE PUSH1 0x4 ADD PUSH1 0x40 MLOAD DUP1 SWAP2 SUB SWAP1 REVERT JUMPDEST POP PUSH1 0x1 PUSH1 0x0 SSTORE JUMP JUMPDEST PUSH1 0x1 SLOAD PUSH1 0x1 PUSH1 0x1 PUSH1 0xA0 SHL SUB AND ISZERO PUSH2 0x11BA JUMPI PUSH1 0x40 MLOAD PUSH4 0x73E833B9 PUSH1 0xE1 SHL DUP2 MSTORE PUSH1 0x4 ADD PUSH1 0x40 MLOAD DUP1 SWAP2 SUB SWAP1 REVERT JUMPDEST PUSH1 0x1 DUP1 SLOAD PUSH1 0x1 PUSH1 0x1 PUSH1 0xA0 SHL SUB DUP1 DUP8 AND PUSH1 0x1 PUSH1 0x1 PUSH1 0xA0 SHL SUB NOT SWAP3 DUP4 AND OR SWAP1 SWAP3 SSTORE PUSH1 0x2 DUP1 SLOAD DUP7 DUP5 AND SWAP1 DUP4 AND OR SWAP1 SSTORE PUSH1 0x3 DUP1 SLOAD SWAP3 DUP6 AND SWAP3 SWAP1 SWAP2 AND DUP3 OR SWAP1 SSTORE PUSH1 0x40 DUP1 MLOAD PUSH4 0x313CE567 PUSH1 0xE0 SHL DUP2 MSTORE SWAP1 MLOAD PUSH4 0x313CE567 SWAP2 PUSH1 0x4 DUP1 DUP3 ADD SWAP3 PUSH1 0x20 SWAP3 SWAP1 SWAP2 SWAP1 DUP3 SWAP1 SUB ADD DUP2 DUP7 DUP1 EXTCODESIZE ISZERO DUP1 ISZERO PUSH2 0x122B JUMPI PUSH1 0x0 DUP1 REVERT JUMPDEST POP GAS STATICCALL ISZERO DUP1 ISZERO PUSH2 0x123F JUMPI RETURNDATASIZE PUSH1 0x0 DUP1 RETURNDATACOPY RETURNDATASIZE PUSH1 0x0 REVERT JUMPDEST POP POP POP POP PUSH1 0x40 MLOAD RETURNDATASIZE PUSH1 0x1F NOT PUSH1 0x1F DUP3 ADD AND DUP3 ADD DUP1 PUSH1 0x40 MSTORE POP DUP2 ADD SWAP1 PUSH2 0x1263 SWAP2 SWAP1 PUSH2 0x22A0 JUMP JUMPDEST PUSH2 0x126E SWAP1 PUSH1 0xA PUSH2 0x2674 JUMP JUMPDEST PUSH1 0x4 SSTORE PUSH1 0x5 SSTORE POP POP POP JUMP JUMPDEST PUSH1 0x0 DUP2 PUSH1 0x20 ADD MLOAD PUSH1 0x1 PUSH1 0x1 PUSH1 0xA0 SHL SUB AND DUP3 PUSH1 0x60 ADD MLOAD PUSH1 0x1 PUSH1 0x1 PUSH1 0xA0 SHL SUB AND EQ PUSH2 0x14B4 JUMPI PUSH1 0x60 DUP3 ADD MLOAD PUSH1 0x40 MLOAD PUSH4 0x70A08231 PUSH1 0xE0 SHL DUP2 MSTORE ADDRESS PUSH1 0x4 DUP3 ADD MSTORE PUSH1 0x0 SWAP2 PUSH1 0x1 PUSH1 0x1 PUSH1 0xA0 SHL SUB AND SWAP1 PUSH4 0x70A08231 SWAP1 PUSH1 0x24 ADD PUSH1 0x20 PUSH1 0x40 MLOAD DUP1 DUP4 SUB DUP2 DUP7 DUP1 EXTCODESIZE ISZERO DUP1 ISZERO PUSH2 0x12E2 JUMPI PUSH1 0x0 DUP1 REVERT JUMPDEST POP GAS STATICCALL ISZERO DUP1 ISZERO PUSH2 0x12F6 JUMPI RETURNDATASIZE PUSH1 0x0 DUP1 RETURNDATACOPY RETURNDATASIZE PUSH1 0x0 REVERT JUMPDEST POP POP POP POP PUSH1 0x40 MLOAD RETURNDATASIZE PUSH1 0x1F NOT PUSH1 0x1F DUP3 ADD AND DUP3 ADD DUP1 PUSH1 0x40 MSTORE POP DUP2 ADD SWAP1 PUSH2 0x131A SWAP2 SWAP1 PUSH2 0x203A JUMP JUMPDEST PUSH1 0x60 DUP5 ADD DUP1 MLOAD PUSH1 0x1 PUSH1 0x1 PUSH1 0xA0 SHL SUB SWAP1 DUP2 AND PUSH1 0x0 SWAP1 DUP2 MSTORE PUSH1 0xC PUSH1 0x20 SWAP1 DUP2 MSTORE PUSH1 0x40 DUP1 DUP4 KECCAK256 SLOAD SWAP5 MLOAD SWAP1 SWAP4 AND DUP3 MSTORE PUSH1 0xD SWAP1 MSTORE KECCAK256 SLOAD SWAP2 SWAP3 POP PUSH2 0x1356 SWAP2 PUSH2 0x25F7 JUMP JUMPDEST PUSH2 0x1360 SWAP1 DUP3 PUSH2 0x2740 JUMP JUMPDEST SWAP1 POP DUP3 PUSH1 0x40 ADD MLOAD PUSH1 0x1 PUSH1 0x1 PUSH1 0xA0 SHL SUB AND DUP4 PUSH1 0x60 ADD MLOAD PUSH1 0x1 PUSH1 0x1 PUSH1 0xA0 SHL SUB AND EQ ISZERO PUSH2 0x13BB JUMPI PUSH1 0x9 SLOAD PUSH1 0x8 SLOAD PUSH1 0x7 SLOAD PUSH1 0x6 SLOAD PUSH2 0x139A SWAP2 SWAP1 PUSH2 0x2740 JUMP JUMPDEST PUSH2 0x13A4 SWAP2 SWAP1 PUSH2 0x2740 JUMP JUMPDEST PUSH2 0x13AE SWAP2 SWAP1 PUSH2 0x2740 JUMP JUMPDEST PUSH2 0x13B8 SWAP1 DUP3 PUSH2 0x2740 JUMP JUMPDEST SWAP1 POP JUMPDEST DUP3 PUSH1 0xC0 ADD MLOAD DUP2 LT ISZERO PUSH2 0x13D0 JUMPI POP PUSH1 0x0 SWAP3 SWAP2 POP POP JUMP JUMPDEST PUSH1 0x20 DUP4 ADD MLOAD PUSH1 0x40 MLOAD PUSH4 0x70A08231 PUSH1 0xE0 SHL DUP2 MSTORE ADDRESS PUSH1 0x4 DUP3 ADD MSTORE PUSH1 0x0 SWAP2 PUSH1 0x1 PUSH1 0x1 PUSH1 0xA0 SHL SUB AND SWAP1 PUSH4 0x70A08231 SWAP1 PUSH1 0x24 ADD PUSH1 0x20 PUSH1 0x40 MLOAD DUP1 DUP4 SUB DUP2 DUP7 DUP1 EXTCODESIZE ISZERO DUP1 ISZERO PUSH2 0x1416 JUMPI PUSH1 0x0 DUP1 REVERT JUMPDEST POP GAS STATICCALL ISZERO DUP1 ISZERO PUSH2 0x142A JUMPI RETURNDATASIZE PUSH1 0x0 DUP1 RETURNDATACOPY RETURNDATASIZE PUSH1 0x0 REVERT JUMPDEST POP POP POP POP PUSH1 0x40 MLOAD RETURNDATASIZE PUSH1 0x1F NOT PUSH1 0x1F DUP3 ADD AND DUP3 ADD DUP1 PUSH1 0x40 MSTORE POP DUP2 ADD SWAP1 PUSH2 0x144E SWAP2 SWAP1 PUSH2 0x203A JUMP JUMPDEST PUSH1 0x20 DUP1 DUP7 ADD DUP1 MLOAD PUSH1 0x1 PUSH1 0x1 PUSH1 0xA0 SHL SUB SWAP1 DUP2 AND PUSH1 0x0 SWAP1 DUP2 MSTORE PUSH1 0xC DUP5 MSTORE PUSH1 0x40 DUP1 DUP3 KECCAK256 SLOAD SWAP4 MLOAD SWAP1 SWAP3 AND DUP2 MSTORE PUSH1 0xD SWAP1 SWAP4 MSTORE SWAP1 SWAP2 KECCAK256 SLOAD SWAP2 SWAP3 POP PUSH2 0x148B SWAP2 PUSH2 0x25F7 JUMP JUMPDEST PUSH2 0x1495 SWAP1 DUP3 PUSH2 0x2740 JUMP JUMPDEST SWAP1 POP DUP4 PUSH1 0x80 ADD MLOAD DUP2 LT ISZERO PUSH2 0x14AD JUMPI POP PUSH1 0x0 SWAP4 SWAP3 POP POP POP JUMP JUMPDEST POP POP PUSH2 0x15A0 JUMP JUMPDEST PUSH1 0x60 DUP3 ADD MLOAD PUSH1 0x40 MLOAD PUSH4 0x70A08231 PUSH1 0xE0 SHL DUP2 MSTORE ADDRESS PUSH1 0x4 DUP3 ADD MSTORE PUSH1 0x0 SWAP2 PUSH1 0x1 PUSH1 0x1 PUSH1 0xA0 SHL SUB AND SWAP1 PUSH4 0x70A08231 SWAP1 PUSH1 0x24 ADD PUSH1 0x20 PUSH1 0x40 MLOAD DUP1 DUP4 SUB DUP2 DUP7 DUP1 EXTCODESIZE ISZERO DUP1 ISZERO PUSH2 0x14FA JUMPI PUSH1 0x0 DUP1 REVERT JUMPDEST POP GAS STATICCALL ISZERO DUP1 ISZERO PUSH2 0x150E JUMPI RETURNDATASIZE PUSH1 0x0 DUP1 RETURNDATACOPY RETURNDATASIZE PUSH1 0x0 REVERT JUMPDEST POP POP POP POP PUSH1 0x40 MLOAD RETURNDATASIZE PUSH1 0x1F NOT PUSH1 0x1F DUP3 ADD AND DUP3 ADD DUP1 PUSH1 0x40 MSTORE POP DUP2 ADD SWAP1 PUSH2 0x1532 SWAP2 SWAP1 PUSH2 0x203A JUMP JUMPDEST PUSH1 0x60 DUP5 ADD DUP1 MLOAD PUSH1 0x1 PUSH1 0x1 PUSH1 0xA0 SHL SUB SWAP1 DUP2 AND PUSH1 0x0 SWAP1 DUP2 MSTORE PUSH1 0xC PUSH1 0x20 SWAP1 DUP2 MSTORE PUSH1 0x40 DUP1 DUP4 KECCAK256 SLOAD SWAP5 MLOAD SWAP1 SWAP4 AND DUP3 MSTORE PUSH1 0xD SWAP1 MSTORE KECCAK256 SLOAD SWAP2 SWAP3 POP PUSH2 0x156E SWAP2 PUSH2 0x25F7 JUMP JUMPDEST PUSH2 0x1578 SWAP1 DUP3 PUSH2 0x2740 JUMP JUMPDEST SWAP1 POP DUP3 PUSH1 0x80 ADD MLOAD DUP4 PUSH1 0xC0 ADD MLOAD PUSH2 0x158E SWAP2 SWAP1 PUSH2 0x25F7 JUMP JUMPDEST DUP2 LT ISZERO PUSH2 0x159E JUMPI POP PUSH1 0x0 SWAP3 SWAP2 POP POP JUMP JUMPDEST POP JUMPDEST POP PUSH1 0x1 SWAP2 SWAP1 POP JUMP JUMPDEST PUSH1 0x3 SLOAD PUSH1 0x40 MLOAD PUSH4 0x70A08231 PUSH1 0xE0 SHL DUP2 MSTORE ADDRESS PUSH1 0x4 DUP3 ADD MSTORE PUSH1 0x0 SWAP2 PUSH1 0x1 PUSH1 0x1 PUSH1 0xA0 SHL SUB AND SWAP1 DUP3 SWAP1 DUP3 SWAP1 PUSH4 0x70A08231 SWAP1 PUSH1 0x24 ADD PUSH1 0x20 PUSH1 0x40 MLOAD DUP1 DUP4 SUB DUP2 DUP7 DUP1 EXTCODESIZE ISZERO DUP1 ISZERO PUSH2 0x15F0 JUMPI PUSH1 0x0 DUP1 REVERT JUMPDEST POP GAS STATICCALL ISZERO DUP1 ISZERO PUSH2 0x1604 JUMPI RETURNDATASIZE PUSH1 0x0 DUP1 RETURNDATACOPY RETURNDATASIZE PUSH1 0x0 REVERT JUMPDEST POP POP POP POP PUSH1 0x40 MLOAD RETURNDATASIZE PUSH1 0x1F NOT PUSH1 0x1F DUP3 ADD AND DUP3 ADD DUP1 PUSH1 0x40 MSTORE POP DUP2 ADD SWAP1 PUSH2 0x1628 SWAP2 SWAP1 PUSH2 0x203A JUMP JUMPDEST PUSH1 0x9 SLOAD PUSH1 0x8 SLOAD PUSH1 0x1 PUSH1 0x1 PUSH1 0xA0 SHL SUB DUP6 AND PUSH1 0x0 SWAP1 DUP2 MSTORE PUSH1 0xD PUSH1 0x20 MSTORE PUSH1 0x40 SWAP1 KECCAK256 SLOAD SWAP3 SWAP4 POP SWAP1 SWAP2 PUSH2 0x1656 SWAP1 DUP5 PUSH2 0x2740 JUMP JUMPDEST PUSH2 0x1660 SWAP2 SWAP1 PUSH2 0x2740 JUMP JUMPDEST PUSH2 0x166A SWAP2 SWAP1 PUSH2 0x2740 JUMP JUMPDEST SWAP3 POP POP POP SWAP1 JUMP JUMPDEST PUSH1 0x7 DUP2 SWAP1 SSTORE PUSH1 0x40 MLOAD DUP2 DUP2 MSTORE PUSH32 0x26A8DB85DD35B30712C42AE882DE1D59C395AED810477ED980623164802CF142 SWAP1 PUSH1 0x20 ADD PUSH2 0x5DB JUMP JUMPDEST DUP1 PUSH1 0x8 PUSH1 0x0 DUP3 DUP3 SLOAD PUSH2 0x16B8 SWAP2 SWAP1 PUSH2 0x25F7 JUMP JUMPDEST SWAP1 SWAP2 SSTORE POP POP PUSH1 0x6 SLOAD PUSH1 0x4 SLOAD PUSH2 0x16CD SWAP1 DUP4 PUSH2 0x2721 JUMP JUMPDEST PUSH2 0x16D7 SWAP2 SWAP1 PUSH2 0x260F JUMP JUMPDEST PUSH1 0xA PUSH1 0x0 DUP3 DUP3 SLOAD PUSH2 0x16E8 SWAP2 SWAP1 PUSH2 0x25F7 JUMP JUMPDEST SWAP1 SWAP2 SSTORE POP POP PUSH1 0x8 SLOAD PUSH1 0x40 MLOAD SWAP1 DUP2 MSTORE PUSH32 0x38E229A7F3F9C329892D08EB37C4E91CCAC6D12C798D394990CA4F56028EC266 SWAP1 PUSH1 0x20 ADD PUSH2 0x5DB JUMP JUMPDEST PUSH1 0x9 DUP2 SWAP1 SSTORE PUSH1 0x40 MLOAD DUP2 DUP2 MSTORE PUSH32 0x2F1BB46A1DD6774772E223BFA9C733CEA598E6B1AC69187D1C614A04CFD1C36 SWAP1 PUSH1 0x20 ADD PUSH2 0x5DB JUMP JUMPDEST PUSH1 0x1 PUSH1 0x1 PUSH1 0xA0 SHL SUB DUP3 AND PUSH1 0x0 DUP2 DUP2 MSTORE PUSH1 0xC PUSH1 0x20 SWAP1 DUP2 MSTORE PUSH1 0x40 SWAP2 DUP3 SWAP1 KECCAK256 DUP5 SWAP1 SSTORE DUP2 MLOAD SWAP3 DUP4 MSTORE DUP3 ADD DUP4 SWAP1 MSTORE PUSH32 0x650AA761FA5F576577CDC0C020D74FA8BB091213A82EE311B7A274D9AA4F9559 SWAP2 ADD JUMPDEST PUSH1 0x40 MLOAD DUP1 SWAP2 SUB SWAP1 LOG1 POP POP JUMP JUMPDEST PUSH1 0x1 PUSH1 0x1 PUSH1 0xA0 SHL SUB DUP3 AND PUSH1 0x0 DUP2 DUP2 MSTORE PUSH1 0xD PUSH1 0x20 SWAP1 DUP2 MSTORE PUSH1 0x40 SWAP2 DUP3 SWAP1 KECCAK256 DUP5 SWAP1 SSTORE DUP2 MLOAD SWAP3 DUP4 MSTORE DUP3 ADD DUP4 SWAP1 MSTORE PUSH32 0x63EB39417416506DC369967FBA1B44E6418801A4A6845581C06CADA91448C5C3 SWAP2 ADD PUSH2 0x17A2 JUMP JUMPDEST PUSH1 0x2 SLOAD PUSH1 0x1 PUSH1 0x1 PUSH1 0xA0 SHL SUB SWAP1 DUP2 AND SWAP1 DUP6 AND DUP2 EQ DUP1 ISZERO PUSH2 0x181B JUMPI POP DUP2 JUMPDEST ISZERO PUSH2 0x191F JUMPI PUSH1 0x40 MLOAD PUSH4 0x2E1A7D4D PUSH1 0xE0 SHL DUP2 MSTORE PUSH1 0x4 DUP2 ADD DUP5 SWAP1 MSTORE PUSH1 0x1 PUSH1 0x1 PUSH1 0xA0 SHL SUB DUP3 AND SWAP1 PUSH4 0x2E1A7D4D SWAP1 PUSH1 0x24 ADD PUSH1 0x0 PUSH1 0x40 MLOAD DUP1 DUP4 SUB DUP2 PUSH1 0x0 DUP8 DUP1 EXTCODESIZE ISZERO DUP1 ISZERO PUSH2 0x1862 JUMPI PUSH1 0x0 DUP1 REVERT JUMPDEST POP GAS CALL ISZERO DUP1 ISZERO PUSH2 0x1876 JUMPI RETURNDATASIZE PUSH1 0x0 DUP1 RETURNDATACOPY RETURNDATASIZE PUSH1 0x0 REVERT JUMPDEST POP POP PUSH1 0x40 DUP1 MLOAD PUSH1 0x0 DUP1 DUP3 MSTORE PUSH1 0x20 DUP3 ADD SWAP3 DUP4 SWAP1 MSTORE SWAP4 POP PUSH1 0x1 PUSH1 0x1 PUSH1 0xA0 SHL SUB DUP9 AND SWAP3 POP DUP7 SWAP2 PUSH2 0x18A3 SWAP2 SWAP1 PUSH2 0x2303 JUMP JUMPDEST PUSH1 0x0 PUSH1 0x40 MLOAD DUP1 DUP4 SUB DUP2 DUP6 DUP8 GAS CALL SWAP3 POP POP POP RETURNDATASIZE DUP1 PUSH1 0x0 DUP2 EQ PUSH2 0x18E0 JUMPI PUSH1 0x40 MLOAD SWAP2 POP PUSH1 0x1F NOT PUSH1 0x3F RETURNDATASIZE ADD AND DUP3 ADD PUSH1 0x40 MSTORE RETURNDATASIZE DUP3 MSTORE RETURNDATASIZE PUSH1 0x0 PUSH1 0x20 DUP5 ADD RETURNDATACOPY PUSH2 0x18E5 JUMP JUMPDEST PUSH1 0x60 SWAP2 POP JUMPDEST POP POP SWAP1 POP DUP1 PUSH2 0x1919 JUMPI PUSH1 0x40 MLOAD PUSH4 0x6F54AFDD PUSH1 0xE1 SHL DUP2 MSTORE PUSH1 0x1 PUSH1 0x1 PUSH1 0xA0 SHL SUB DUP7 AND PUSH1 0x4 DUP3 ADD MSTORE PUSH1 0x24 DUP2 ADD DUP6 SWAP1 MSTORE PUSH1 0x44 ADD PUSH2 0x5A1 JUMP JUMPDEST POP PUSH2 0x1A54 JUMP JUMPDEST PUSH1 0x40 DUP1 MLOAD DUP1 DUP3 ADD DUP3 MSTORE PUSH1 0x19 DUP2 MSTORE PUSH32 0x7472616E7366657228616464726573732C75696E743235362900000000000000 PUSH1 0x20 SWAP2 DUP3 ADD MSTORE DUP2 MLOAD PUSH1 0x1 PUSH1 0x1 PUSH1 0xA0 SHL SUB DUP8 DUP2 AND PUSH1 0x24 DUP4 ADD MSTORE PUSH1 0x44 DUP1 DUP4 ADD DUP9 SWAP1 MSTORE DUP5 MLOAD DUP1 DUP5 SUB SWAP1 SWAP2 ADD DUP2 MSTORE PUSH1 0x64 SWAP1 SWAP3 ADD DUP5 MSTORE SWAP2 DUP2 ADD DUP1 MLOAD PUSH1 0x1 PUSH1 0x1 PUSH1 0xE0 SHL SUB AND PUSH4 0xA9059CBB PUSH1 0xE0 SHL OR SWAP1 MSTORE SWAP2 MLOAD PUSH1 0x0 SWAP3 DUP4 SWAP3 DUP10 AND SWAP2 PUSH2 0x19AB SWAP2 SWAP1 PUSH2 0x2303 JUMP JUMPDEST PUSH1 0x0 PUSH1 0x40 MLOAD DUP1 DUP4 SUB DUP2 PUSH1 0x0 DUP7 GAS CALL SWAP2 POP POP RETURNDATASIZE DUP1 PUSH1 0x0 DUP2 EQ PUSH2 0x19E8 JUMPI PUSH1 0x40 MLOAD SWAP2 POP PUSH1 0x1F NOT PUSH1 0x3F RETURNDATASIZE ADD AND DUP3 ADD PUSH1 0x40 MSTORE RETURNDATASIZE DUP3 MSTORE RETURNDATASIZE PUSH1 0x0 PUSH1 0x20 DUP5 ADD RETURNDATACOPY PUSH2 0x19ED JUMP JUMPDEST PUSH1 0x60 SWAP2 POP JUMPDEST POP SWAP2 POP SWAP2 POP DUP2 ISZERO DUP1 PUSH2 0x1A19 JUMPI POP DUP1 MLOAD ISZERO DUP1 PUSH2 0x1A17 JUMPI POP DUP1 DUP1 PUSH1 0x20 ADD SWAP1 MLOAD DUP2 ADD SWAP1 PUSH2 0x1A17 SWAP2 SWAP1 PUSH2 0x2004 JUMP JUMPDEST ISZERO JUMPDEST ISZERO PUSH2 0x1A51 JUMPI PUSH1 0x40 MLOAD PUSH4 0x17E3057D PUSH1 0xE3 SHL DUP2 MSTORE PUSH1 0x1 PUSH1 0x1 PUSH1 0xA0 SHL SUB DUP1 DUP10 AND PUSH1 0x4 DUP4 ADD MSTORE DUP8 AND PUSH1 0x24 DUP3 ADD MSTORE PUSH1 0x44 DUP2 ADD DUP7 SWAP1 MSTORE PUSH1 0x64 ADD PUSH2 0x5A1 JUMP JUMPDEST POP POP JUMPDEST POP POP POP POP POP JUMP JUMPDEST PUSH1 0x6 DUP2 SWAP1 SSTORE PUSH1 0x40 MLOAD DUP2 DUP2 MSTORE PUSH32 0x44141ECEE2FB3C75D1699B968FA546A18DFA4EE1D705699D81751270B385951 SWAP1 PUSH1 0x20 ADD PUSH2 0x5DB JUMP JUMPDEST PUSH1 0x9 SLOAD DUP1 ISZERO PUSH2 0x1B4C JUMPI PUSH1 0x1 SLOAD PUSH1 0x40 DUP1 MLOAD PUSH4 0x779B4929 PUSH1 0xE1 SHL DUP2 MSTORE SWAP1 MLOAD PUSH1 0x0 SWAP3 PUSH1 0x1 PUSH1 0x1 PUSH1 0xA0 SHL SUB AND SWAP2 PUSH4 0xEF369252 SWAP2 PUSH1 0x4 DUP1 DUP4 ADD SWAP3 PUSH1 0x20 SWAP3 SWAP2 SWAP1 DUP3 SWAP1 SUB ADD DUP2 DUP7 DUP1 EXTCODESIZE ISZERO DUP1 ISZERO PUSH2 0x1ADE JUMPI PUSH1 0x0 DUP1 REVERT JUMPDEST POP GAS STATICCALL ISZERO DUP1 ISZERO PUSH2 0x1AF2 JUMPI RETURNDATASIZE PUSH1 0x0 DUP1 RETURNDATACOPY RETURNDATASIZE PUSH1 0x0 REVERT JUMPDEST POP POP POP POP PUSH1 0x40 MLOAD RETURNDATASIZE PUSH1 0x1F NOT PUSH1 0x1F DUP3 ADD AND DUP3 ADD DUP1 PUSH1 0x40 MSTORE POP DUP2 ADD SWAP1 PUSH2 0x1B16 SWAP2 SWAP1 PUSH2 0x1E02 JUMP JUMPDEST SWAP1 POP PUSH1 0x1 PUSH1 0x1 PUSH1 0xA0 SHL SUB DUP2 AND ISZERO PUSH2 0x1B4A JUMPI PUSH2 0x1B31 PUSH1 0x0 PUSH2 0x1720 JUMP JUMPDEST PUSH1 0x3 SLOAD PUSH2 0x1B4A SWAP1 PUSH1 0x1 PUSH1 0x1 PUSH1 0xA0 SHL SUB AND DUP3 DUP5 PUSH1 0x0 PUSH2 0x17FF JUMP JUMPDEST POP JUMPDEST POP JUMP JUMPDEST DUP1 CALLDATALOAD PUSH2 0x1B5A DUP2 PUSH2 0x27CA JUMP JUMPDEST SWAP2 SWAP1 POP JUMP JUMPDEST DUP1 MLOAD PUSH2 0x1B5A DUP2 PUSH2 0x27CA JUMP JUMPDEST PUSH1 0x0 DUP3 PUSH1 0x1F DUP4 ADD SLT PUSH2 0x1B7B JUMPI PUSH1 0x0 DUP1 REVERT JUMPDEST DUP2 CALLDATALOAD PUSH1 0x20 PUSH2 0x1B90 PUSH2 0x1B8B DUP4 PUSH2 0x25D3 JUMP JUMPDEST PUSH2 0x25A2 JUMP JUMPDEST DUP1 DUP4 DUP3 MSTORE DUP3 DUP3 ADD SWAP2 POP DUP3 DUP7 ADD DUP8 DUP5 DUP7 PUSH1 0x5 SHL DUP10 ADD ADD GT ISZERO PUSH2 0x1BB0 JUMPI PUSH1 0x0 DUP1 REVERT JUMPDEST PUSH1 0x0 JUMPDEST DUP6 DUP2 LT ISZERO PUSH2 0x1BD8 JUMPI DUP2 CALLDATALOAD PUSH2 0x1BC6 DUP2 PUSH2 0x27DF JUMP JUMPDEST DUP5 MSTORE SWAP3 DUP5 ADD SWAP3 SWAP1 DUP5 ADD SWAP1 PUSH1 0x1 ADD PUSH2 0x1BB3 JUMP JUMPDEST POP SWAP1 SWAP8 SWAP7 POP POP POP POP POP POP POP JUMP JUMPDEST DUP1 CALLDATALOAD PUSH2 0x1B5A DUP2 PUSH2 0x27DF JUMP JUMPDEST PUSH1 0x0 DUP3 PUSH1 0x1F DUP4 ADD SLT PUSH2 0x1C01 JUMPI PUSH1 0x0 DUP1 REVERT JUMPDEST DUP2 CALLDATALOAD PUSH8 0xFFFFFFFFFFFFFFFF DUP2 GT ISZERO PUSH2 0x1C1B JUMPI PUSH2 0x1C1B PUSH2 0x27B4 JUMP JUMPDEST PUSH2 0x1C2E PUSH1 0x1F DUP3 ADD PUSH1 0x1F NOT AND PUSH1 0x20 ADD PUSH2 0x25A2 JUMP JUMPDEST DUP2 DUP2 MSTORE DUP5 PUSH1 0x20 DUP4 DUP7 ADD ADD GT ISZERO PUSH2 0x1C43 JUMPI PUSH1 0x0 DUP1 REVERT JUMPDEST DUP2 PUSH1 0x20 DUP6 ADD PUSH1 0x20 DUP4 ADD CALLDATACOPY PUSH1 0x0 SWAP2 DUP2 ADD PUSH1 0x20 ADD SWAP2 SWAP1 SWAP2 MSTORE SWAP4 SWAP3 POP POP POP JUMP JUMPDEST PUSH1 0x0 PUSH1 0xC0 DUP3 DUP5 SUB SLT ISZERO PUSH2 0x1C72 JUMPI PUSH1 0x0 DUP1 REVERT JUMPDEST PUSH1 0x40 MLOAD PUSH1 0xC0 DUP2 ADD DUP2 DUP2 LT PUSH8 0xFFFFFFFFFFFFFFFF DUP3 GT OR ISZERO PUSH2 0x1C95 JUMPI PUSH2 0x1C95 PUSH2 0x27B4 JUMP JUMPDEST DUP1 PUSH1 0x40 MSTORE POP DUP1 SWAP2 POP DUP3 MLOAD PUSH2 0x1CA8 DUP2 PUSH2 0x27CA JUMP JUMPDEST DUP1 DUP3 MSTORE POP PUSH1 0x20 DUP4 ADD MLOAD PUSH1 0x20 DUP3 ADD MSTORE PUSH1 0x40 DUP4 ADD MLOAD PUSH1 0x40 DUP3 ADD MSTORE PUSH1 0x60 DUP4 ADD MLOAD PUSH1 0x60 DUP3 ADD MSTORE PUSH1 0x80 DUP4 ADD MLOAD PUSH1 0x80 DUP3 ADD MSTORE PUSH1 0xA0 DUP4 ADD MLOAD PUSH1 0xA0 DUP3 ADD MSTORE POP SWAP3 SWAP2 POP POP JUMP JUMPDEST PUSH1 0x0 PUSH1 0x40 DUP3 DUP5 SUB SLT ISZERO PUSH2 0x1CF7 JUMPI PUSH1 0x0 DUP1 REVERT JUMPDEST PUSH1 0x40 MLOAD PUSH1 0x40 DUP2 ADD DUP2 DUP2 LT PUSH8 0xFFFFFFFFFFFFFFFF DUP3 GT OR ISZERO PUSH2 0x1D1A JUMPI PUSH2 0x1D1A PUSH2 0x27B4 JUMP JUMPDEST DUP1 PUSH1 0x40 MSTORE POP DUP1 SWAP2 POP DUP3 MLOAD PUSH2 0x1D2D DUP2 PUSH2 0x27CA JUMP JUMPDEST DUP2 MSTORE PUSH1 0x20 SWAP3 DUP4 ADD MLOAD SWAP3 ADD SWAP2 SWAP1 SWAP2 MSTORE SWAP2 SWAP1 POP JUMP JUMPDEST PUSH1 0x0 PUSH1 0xA0 DUP3 DUP5 SUB SLT ISZERO PUSH2 0x1D52 JUMPI PUSH1 0x0 DUP1 REVERT JUMPDEST PUSH1 0x40 MLOAD PUSH1 0xA0 DUP2 ADD DUP2 DUP2 LT PUSH8 0xFFFFFFFFFFFFFFFF DUP3 GT OR ISZERO PUSH2 0x1D75 JUMPI PUSH2 0x1D75 PUSH2 0x27B4 JUMP JUMPDEST DUP1 PUSH1 0x40 MSTORE POP DUP1 SWAP2 POP DUP3 MLOAD PUSH2 0x1D88 DUP2 PUSH2 0x27DF JUMP JUMPDEST DUP2 MSTORE PUSH1 0x20 DUP4 ADD MLOAD PUSH2 0x1D98 DUP2 PUSH2 0x27DF JUMP JUMPDEST PUSH1 0x20 DUP3 ADD MSTORE PUSH1 0x40 DUP4 ADD MLOAD PUSH2 0x1DAB DUP2 PUSH2 0x27DF JUMP JUMPDEST PUSH1 0x40 DUP3 ADD MSTORE PUSH1 0x60 DUP4 ADD MLOAD PUSH2 0x1DBE DUP2 PUSH2 0x27DF JUMP JUMPDEST PUSH1 0x60 DUP3 ADD MSTORE PUSH1 0x80 DUP4 ADD MLOAD PUSH2 0x1DD1 DUP2 PUSH2 0x27DF JUMP JUMPDEST PUSH1 0x80 SWAP2 SWAP1 SWAP2 ADD MSTORE SWAP3 SWAP2 POP POP JUMP JUMPDEST PUSH1 0x0 PUSH1 0x20 DUP3 DUP5 SUB SLT ISZERO PUSH2 0x1DF0 JUMPI PUSH1 0x0 DUP1 REVERT JUMPDEST DUP2 CALLDATALOAD PUSH2 0x1DFB DUP2 PUSH2 0x27CA JUMP JUMPDEST SWAP4 SWAP3 POP POP POP JUMP JUMPDEST PUSH1 0x0 PUSH1 0x20 DUP3 DUP5 SUB SLT ISZERO PUSH2 0x1E14 JUMPI PUSH1 0x0 DUP1 REVERT JUMPDEST DUP2 MLOAD PUSH2 0x1DFB DUP2 PUSH2 0x27CA JUMP JUMPDEST PUSH1 0x0 DUP1 PUSH1 0x0 DUP1 PUSH1 0x80 DUP6 DUP8 SUB SLT ISZERO PUSH2 0x1E35 JUMPI PUSH1 0x0 DUP1 REVERT JUMPDEST DUP5 CALLDATALOAD PUSH2 0x1E40 DUP2 PUSH2 0x27CA JUMP JUMPDEST SWAP4 POP PUSH1 0x20 DUP6 ADD CALLDATALOAD PUSH2 0x1E50 DUP2 PUSH2 0x27CA JUMP JUMPDEST SWAP3 POP PUSH1 0x40 DUP6 ADD CALLDATALOAD PUSH2 0x1E60 DUP2 PUSH2 0x27CA JUMP JUMPDEST SWAP4 SWAP7 SWAP3 SWAP6 POP SWAP3 SWAP4 PUSH1 0x60 ADD CALLDATALOAD SWAP3 POP POP JUMP JUMPDEST PUSH1 0x0 DUP1 PUSH1 0x0 PUSH1 0x60 DUP5 DUP7 SUB SLT ISZERO PUSH2 0x1E85 JUMPI PUSH1 0x0 DUP1 REVERT JUMPDEST DUP4 CALLDATALOAD PUSH2 0x1E90 DUP2 PUSH2 0x27CA JUMP JUMPDEST SWAP3 POP PUSH1 0x20 DUP5 ADD CALLDATALOAD SWAP2 POP PUSH1 0x40 DUP5 ADD CALLDATALOAD PUSH2 0x1EA7 DUP2 PUSH2 0x27DF JUMP JUMPDEST DUP1 SWAP2 POP POP SWAP3 POP SWAP3 POP SWAP3 JUMP JUMPDEST PUSH1 0x0 DUP1 PUSH1 0x0 DUP1 PUSH1 0x60 DUP6 DUP8 SUB SLT ISZERO PUSH2 0x1EC8 JUMPI PUSH1 0x0 DUP1 REVERT JUMPDEST DUP5 CALLDATALOAD PUSH2 0x1ED3 DUP2 PUSH2 0x27CA JUMP JUMPDEST SWAP4 POP PUSH1 0x20 DUP6 ADD CALLDATALOAD SWAP3 POP PUSH1 0x40 DUP6 ADD CALLDATALOAD PUSH8 0xFFFFFFFFFFFFFFFF DUP1 DUP3 GT ISZERO PUSH2 0x1EF7 JUMPI PUSH1 0x0 DUP1 REVERT JUMPDEST DUP2 DUP8 ADD SWAP2 POP DUP8 PUSH1 0x1F DUP4 ADD SLT PUSH2 0x1F0B JUMPI PUSH1 0x0 DUP1 REVERT JUMPDEST DUP2 CALLDATALOAD DUP2 DUP2 GT ISZERO PUSH2 0x1F1A JUMPI PUSH1 0x0 DUP1 REVERT JUMPDEST DUP9 PUSH1 0x20 DUP3 DUP6 ADD ADD GT ISZERO PUSH2 0x1F2C JUMPI PUSH1 0x0 DUP1 REVERT JUMPDEST SWAP6 SWAP9 SWAP5 SWAP8 POP POP PUSH1 0x20 ADD SWAP5 POP POP POP JUMP JUMPDEST PUSH1 0x0 DUP1 PUSH1 0x40 DUP4 DUP6 SUB SLT ISZERO PUSH2 0x1F4E JUMPI PUSH1 0x0 DUP1 REVERT JUMPDEST DUP3 CALLDATALOAD PUSH8 0xFFFFFFFFFFFFFFFF DUP1 DUP3 GT ISZERO PUSH2 0x1F66 JUMPI PUSH1 0x0 DUP1 REVERT JUMPDEST DUP2 DUP6 ADD SWAP2 POP DUP6 PUSH1 0x1F DUP4 ADD SLT PUSH2 0x1F7A JUMPI PUSH1 0x0 DUP1 REVERT JUMPDEST DUP2 CALLDATALOAD PUSH1 0x20 PUSH2 0x1F8A PUSH2 0x1B8B DUP4 PUSH2 0x25D3 JUMP JUMPDEST DUP1 DUP4 DUP3 MSTORE DUP3 DUP3 ADD SWAP2 POP DUP3 DUP7 ADD DUP11 DUP5 DUP7 PUSH1 0x5 SHL DUP10 ADD ADD GT ISZERO PUSH2 0x1FAA JUMPI PUSH1 0x0 DUP1 REVERT JUMPDEST PUSH1 0x0 SWAP7 POP JUMPDEST DUP5 DUP8 LT ISZERO PUSH2 0x1FD6 JUMPI DUP1 CALLDATALOAD PUSH2 0x1FC2 DUP2 PUSH2 0x27CA JUMP JUMPDEST DUP4 MSTORE PUSH1 0x1 SWAP7 SWAP1 SWAP7 ADD SWAP6 SWAP2 DUP4 ADD SWAP2 DUP4 ADD PUSH2 0x1FAF JUMP JUMPDEST POP SWAP7 POP POP DUP7 ADD CALLDATALOAD SWAP3 POP POP DUP1 DUP3 GT ISZERO PUSH2 0x1FED JUMPI PUSH1 0x0 DUP1 REVERT JUMPDEST POP PUSH2 0x1FFA DUP6 DUP3 DUP7 ADD PUSH2 0x1B6A JUMP JUMPDEST SWAP2 POP POP SWAP3 POP SWAP3 SWAP1 POP JUMP JUMPDEST PUSH1 0x0 PUSH1 0x20 DUP3 DUP5 SUB SLT ISZERO PUSH2 0x2016 JUMPI PUSH1 0x0 DUP1 REVERT JUMPDEST DUP2 MLOAD PUSH2 0x1DFB DUP2 PUSH2 0x27DF JUMP JUMPDEST PUSH1 0x0 PUSH1 0x20 DUP3 DUP5 SUB SLT ISZERO PUSH2 0x2033 JUMPI PUSH1 0x0 DUP1 REVERT JUMPDEST POP CALLDATALOAD SWAP2 SWAP1 POP JUMP JUMPDEST PUSH1 0x0 PUSH1 0x20 DUP3 DUP5 SUB SLT ISZERO PUSH2 0x204C JUMPI PUSH1 0x0 DUP1 REVERT JUMPDEST POP MLOAD SWAP2 SWAP1 POP JUMP JUMPDEST PUSH1 0x0 DUP1 PUSH1 0x40 DUP4 DUP6 SUB SLT ISZERO PUSH2 0x2066 JUMPI PUSH1 0x0 DUP1 REVERT JUMPDEST POP POP DUP1 CALLDATALOAD SWAP3 PUSH1 0x20 SWAP1 SWAP2 ADD CALLDATALOAD SWAP2 POP JUMP JUMPDEST PUSH1 0x0 PUSH1 0x20 DUP3 DUP5 SUB SLT ISZERO PUSH2 0x2087 JUMPI PUSH1 0x0 DUP1 REVERT JUMPDEST DUP2 CALLDATALOAD PUSH8 0xFFFFFFFFFFFFFFFF DUP1 DUP3 GT ISZERO PUSH2 0x209F JUMPI PUSH1 0x0 DUP1 REVERT JUMPDEST SWAP1 DUP4 ADD SWAP1 PUSH1 0x60 DUP3 DUP7 SUB SLT ISZERO PUSH2 0x20B3 JUMPI PUSH1 0x0 DUP1 REVERT JUMPDEST PUSH1 0x40 MLOAD PUSH1 0x60 DUP2 ADD DUP2 DUP2 LT DUP4 DUP3 GT OR ISZERO PUSH2 0x20CE JUMPI PUSH2 0x20CE PUSH2 0x27B4 JUMP JUMPDEST PUSH1 0x40 MSTORE DUP3 CALLDATALOAD DUP2 MSTORE PUSH1 0x20 DUP4 ADD CALLDATALOAD DUP3 DUP2 GT ISZERO PUSH2 0x20E7 JUMPI PUSH1 0x0 DUP1 REVERT JUMPDEST PUSH2 0x20F3 DUP8 DUP3 DUP7 ADD PUSH2 0x1BF0 JUMP JUMPDEST PUSH1 0x20 DUP4 ADD MSTORE POP PUSH1 0x40 DUP4 ADD CALLDATALOAD DUP3 DUP2 GT ISZERO PUSH2 0x210B JUMPI PUSH1 0x0 DUP1 REVERT JUMPDEST PUSH2 0x2117 DUP8 DUP3 DUP7 ADD PUSH2 0x1BF0 JUMP JUMPDEST PUSH1 0x40 DUP4 ADD MSTORE POP SWAP6 SWAP5 POP POP POP POP POP JUMP JUMPDEST PUSH1 0x0 PUSH2 0x140 DUP3 DUP5 SUB SLT ISZERO PUSH2 0x2139 JUMPI PUSH1 0x0 DUP1 REVERT JUMPDEST PUSH2 0x2141 PUSH2 0x2554 JUMP JUMPDEST PUSH2 0x214A DUP4 PUSH2 0x1B4F JUMP JUMPDEST DUP2 MSTORE PUSH2 0x2158 PUSH1 0x20 DUP5 ADD PUSH2 0x1B4F JUMP JUMPDEST PUSH1 0x20 DUP3 ADD MSTORE PUSH2 0x2169 PUSH1 0x40 DUP5 ADD PUSH2 0x1B4F JUMP JUMPDEST PUSH1 0x40 DUP3 ADD MSTORE PUSH2 0x217A PUSH1 0x60 DUP5 ADD PUSH2 0x1B4F JUMP JUMPDEST PUSH1 0x60 DUP3 ADD MSTORE PUSH1 0x80 DUP4 ADD CALLDATALOAD PUSH1 0x80 DUP3 ADD MSTORE PUSH1 0xA0 DUP4 ADD CALLDATALOAD PUSH1 0xA0 DUP3 ADD MSTORE PUSH1 0xC0 DUP4 ADD CALLDATALOAD PUSH1 0xC0 DUP3 ADD MSTORE PUSH1 0xE0 DUP4 ADD CALLDATALOAD PUSH1 0xE0 DUP3 ADD MSTORE PUSH2 0x100 DUP1 DUP5 ADD CALLDATALOAD DUP2 DUP4 ADD MSTORE POP PUSH2 0x120 PUSH2 0x21C1 DUP2 DUP6 ADD PUSH2 0x1BE5 JUMP JUMPDEST SWAP1 DUP3 ADD MSTORE SWAP4 SWAP3 POP POP POP JUMP JUMPDEST PUSH1 0x0 PUSH2 0x360 DUP3 DUP5 SUB SLT ISZERO PUSH2 0x21DF JUMPI PUSH1 0x0 DUP1 REVERT JUMPDEST PUSH2 0x21E7 PUSH2 0x257E JUMP JUMPDEST DUP3 MLOAD DUP2 MSTORE PUSH2 0x21F7 PUSH1 0x20 DUP5 ADD PUSH2 0x1B5F JUMP JUMPDEST PUSH1 0x20 DUP3 ADD MSTORE PUSH2 0x2208 PUSH1 0x40 DUP5 ADD PUSH2 0x1B5F JUMP JUMPDEST PUSH1 0x40 DUP3 ADD MSTORE PUSH2 0x221A DUP5 PUSH1 0x60 DUP6 ADD PUSH2 0x1C60 JUMP JUMPDEST PUSH1 0x60 DUP3 ADD MSTORE PUSH2 0x120 PUSH2 0x222E DUP6 DUP3 DUP7 ADD PUSH2 0x1CE5 JUMP JUMPDEST PUSH1 0x80 DUP4 ADD MSTORE PUSH2 0x160 PUSH2 0x2242 DUP7 DUP3 DUP8 ADD PUSH2 0x1C60 JUMP JUMPDEST PUSH1 0xA0 DUP5 ADD MSTORE PUSH2 0x220 DUP6 ADD MLOAD PUSH1 0xC0 DUP5 ADD MSTORE PUSH2 0x240 DUP6 ADD MLOAD PUSH1 0xE0 DUP5 ADD MSTORE PUSH2 0x260 DUP6 ADD MLOAD PUSH2 0x100 DUP5 ADD MSTORE PUSH2 0x280 DUP6 ADD MLOAD DUP3 DUP5 ADD MSTORE PUSH2 0x2281 DUP7 PUSH2 0x2A0 DUP8 ADD PUSH2 0x1D40 JUMP JUMPDEST PUSH2 0x140 DUP5 ADD MSTORE PUSH2 0x2294 PUSH2 0x340 DUP7 ADD PUSH2 0x1B5F JUMP JUMPDEST SWAP1 DUP4 ADD MSTORE POP SWAP4 SWAP3 POP POP POP JUMP JUMPDEST PUSH1 0x0 PUSH1 0x20 DUP3 DUP5 SUB SLT ISZERO PUSH2 0x22B2 JUMPI PUSH1 0x0 DUP1 REVERT JUMPDEST DUP2 MLOAD PUSH1 0xFF DUP2 AND DUP2 EQ PUSH2 0x1DFB JUMPI PUSH1 0x0 DUP1 REVERT JUMPDEST DUP1 MLOAD PUSH1 0x1 PUSH1 0x1 PUSH1 0xA0 SHL SUB AND DUP3 MSTORE PUSH1 0x20 DUP1 DUP3 ADD MLOAD SWAP1 DUP4 ADD MSTORE PUSH1 0x40 DUP1 DUP3 ADD MLOAD SWAP1 DUP4 ADD MSTORE PUSH1 0x60 DUP1 DUP3 ADD MLOAD SWAP1 DUP4 ADD MSTORE PUSH1 0x80 DUP1 DUP3 ADD MLOAD SWAP1 DUP4 ADD MSTORE PUSH1 0xA0 SWAP1 DUP2 ADD MLOAD SWAP2 ADD MSTORE JUMP JUMPDEST PUSH1 0x0 DUP3 MLOAD PUSH1 0x0 JUMPDEST DUP2 DUP2 LT ISZERO PUSH2 0x2324 JUMPI PUSH1 0x20 DUP2 DUP7 ADD DUP2 ADD MLOAD DUP6 DUP4 ADD MSTORE ADD PUSH2 0x230A JUMP JUMPDEST DUP2 DUP2 GT ISZERO PUSH2 0x2333 JUMPI PUSH1 0x0 DUP3 DUP6 ADD MSTORE JUMPDEST POP SWAP2 SWAP1 SWAP2 ADD SWAP3 SWAP2 POP POP JUMP JUMPDEST PUSH1 0x1 PUSH1 0x1 PUSH1 0xA0 SHL SUB DUP6 AND DUP2 MSTORE PUSH1 0x20 DUP2 ADD DUP5 SWAP1 MSTORE PUSH1 0x60 PUSH1 0x40 DUP3 ADD DUP2 SWAP1 MSTORE DUP2 ADD DUP3 SWAP1 MSTORE DUP2 DUP4 PUSH1 0x80 DUP4 ADD CALLDATACOPY PUSH1 0x0 DUP2 DUP4 ADD PUSH1 0x80 SWAP1 DUP2 ADD SWAP2 SWAP1 SWAP2 MSTORE PUSH1 0x1F SWAP1 SWAP3 ADD PUSH1 0x1F NOT AND ADD ADD SWAP4 SWAP3 POP POP POP JUMP JUMPDEST DUP2 MLOAD PUSH1 0x1 PUSH1 0x1 PUSH1 0xA0 SHL SUB AND DUP2 MSTORE PUSH2 0x140 DUP2 ADD PUSH1 0x20 DUP4 ADD MLOAD PUSH2 0x23B2 PUSH1 0x20 DUP5 ADD DUP3 PUSH1 0x1 PUSH1 0x1 PUSH1 0xA0 SHL SUB AND SWAP1 MSTORE JUMP JUMPDEST POP PUSH1 0x40 DUP4 ADD MLOAD PUSH2 0x23CD PUSH1 0x40 DUP5 ADD DUP3 PUSH1 0x1 PUSH1 0x1 PUSH1 0xA0 SHL SUB AND SWAP1 MSTORE JUMP JUMPDEST POP PUSH1 0x60 DUP4 ADD MLOAD PUSH2 0x23E8 PUSH1 0x60 DUP5 ADD DUP3 PUSH1 0x1 PUSH1 0x1 PUSH1 0xA0 SHL SUB AND SWAP1 MSTORE JUMP JUMPDEST POP PUSH1 0x80 DUP4 ADD MLOAD PUSH1 0x80 DUP4 ADD MSTORE PUSH1 0xA0 DUP4 ADD MLOAD PUSH1 0xA0 DUP4 ADD MSTORE PUSH1 0xC0 DUP4 ADD MLOAD PUSH1 0xC0 DUP4 ADD MSTORE PUSH1 0xE0 DUP4 ADD MLOAD PUSH1 0xE0 DUP4 ADD MSTORE PUSH2 0x100 DUP1 DUP5 ADD MLOAD DUP2 DUP5 ADD MSTORE POP PUSH2 0x120 DUP1 DUP5 ADD MLOAD PUSH2 0x2431 DUP3 DUP6 ADD DUP3 ISZERO ISZERO SWAP1 MSTORE JUMP JUMPDEST POP POP SWAP3 SWAP2 POP POP JUMP JUMPDEST DUP2 MLOAD DUP2 MSTORE PUSH1 0x20 DUP1 DUP4 ADD MLOAD PUSH2 0x360 DUP4 ADD SWAP2 PUSH2 0x245D SWAP1 DUP5 ADD DUP3 PUSH1 0x1 PUSH1 0x1 PUSH1 0xA0 SHL SUB AND SWAP1 MSTORE JUMP JUMPDEST POP PUSH1 0x40 DUP4 ADD MLOAD PUSH2 0x2478 PUSH1 0x40 DUP5 ADD DUP3 PUSH1 0x1 PUSH1 0x1 PUSH1 0xA0 SHL SUB AND SWAP1 MSTORE JUMP JUMPDEST POP PUSH1 0x60 DUP4 ADD MLOAD PUSH2 0x248B PUSH1 0x60 DUP5 ADD DUP3 PUSH2 0x22C3 JUMP JUMPDEST POP PUSH1 0x80 DUP4 ADD MLOAD PUSH2 0x120 PUSH2 0x24B3 DUP2 DUP6 ADD DUP4 DUP1 MLOAD PUSH1 0x1 PUSH1 0x1 PUSH1 0xA0 SHL SUB AND DUP3 MSTORE PUSH1 0x20 SWAP1 DUP2 ADD MLOAD SWAP2 ADD MSTORE JUMP JUMPDEST PUSH1 0xA0 DUP6 ADD MLOAD SWAP2 POP PUSH2 0x160 PUSH2 0x24C9 DUP2 DUP7 ADD DUP5 PUSH2 0x22C3 JUMP JUMPDEST PUSH1 0xC0 DUP7 ADD MLOAD PUSH2 0x220 DUP7 ADD MSTORE PUSH1 0xE0 DUP7 ADD MLOAD PUSH2 0x240 DUP7 ADD MSTORE PUSH2 0x100 DUP7 ADD MLOAD PUSH2 0x260 DUP7 ADD MSTORE SWAP1 DUP6 ADD MLOAD PUSH2 0x280 DUP6 ADD MSTORE PUSH2 0x140 DUP6 ADD MLOAD DUP1 MLOAD ISZERO ISZERO PUSH2 0x2A0 DUP7 ADD MSTORE PUSH1 0x20 DUP2 ADD MLOAD ISZERO ISZERO PUSH2 0x2C0 DUP7 ADD MSTORE PUSH1 0x40 DUP2 ADD MLOAD ISZERO ISZERO PUSH2 0x2E0 DUP7 ADD MSTORE PUSH1 0x60 DUP2 ADD MLOAD ISZERO ISZERO PUSH2 0x300 DUP7 ADD MSTORE PUSH1 0x80 ADD MLOAD ISZERO ISZERO PUSH2 0x320 DUP6 ADD MSTORE DUP5 ADD MLOAD PUSH1 0x1 PUSH1 0x1 PUSH1 0xA0 SHL SUB DUP2 AND PUSH2 0x340 DUP6 ADD MSTORE SWAP1 POP POP SWAP3 SWAP2 POP POP JUMP JUMPDEST PUSH1 0x40 MLOAD PUSH2 0x140 DUP2 ADD PUSH8 0xFFFFFFFFFFFFFFFF DUP2 GT DUP3 DUP3 LT OR ISZERO PUSH2 0x2578 JUMPI PUSH2 0x2578 PUSH2 0x27B4 JUMP JUMPDEST PUSH1 0x40 MSTORE SWAP1 JUMP JUMPDEST PUSH1 0x40 MLOAD PUSH2 0x180 DUP2 ADD PUSH8 0xFFFFFFFFFFFFFFFF DUP2 GT DUP3 DUP3 LT OR ISZERO PUSH2 0x2578 JUMPI PUSH2 0x2578 PUSH2 0x27B4 JUMP JUMPDEST PUSH1 0x40 MLOAD PUSH1 0x1F DUP3 ADD PUSH1 0x1F NOT AND DUP2 ADD PUSH8 0xFFFFFFFFFFFFFFFF DUP2 GT DUP3 DUP3 LT OR ISZERO PUSH2 0x25CB JUMPI PUSH2 0x25CB PUSH2 0x27B4 JUMP JUMPDEST PUSH1 0x40 MSTORE SWAP2 SWAP1 POP JUMP JUMPDEST PUSH1 0x0 PUSH8 0xFFFFFFFFFFFFFFFF DUP3 GT ISZERO PUSH2 0x25ED JUMPI PUSH2 0x25ED PUSH2 0x27B4 JUMP JUMPDEST POP PUSH1 0x5 SHL PUSH1 0x20 ADD SWAP1 JUMP JUMPDEST PUSH1 0x0 DUP3 NOT DUP3 GT ISZERO PUSH2 0x260A JUMPI PUSH2 0x260A PUSH2 0x2788 JUMP JUMPDEST POP ADD SWAP1 JUMP JUMPDEST PUSH1 0x0 DUP3 PUSH2 0x262C JUMPI PUSH4 0x4E487B71 PUSH1 0xE0 SHL PUSH1 0x0 MSTORE PUSH1 0x12 PUSH1 0x4 MSTORE PUSH1 0x24 PUSH1 0x0 REVERT JUMPDEST POP DIV SWAP1 JUMP JUMPDEST PUSH1 0x1 DUP2 DUP2 JUMPDEST DUP1 DUP6 GT ISZERO PUSH2 0x266C JUMPI DUP2 PUSH1 0x0 NOT DIV DUP3 GT ISZERO PUSH2 0x2652 JUMPI PUSH2 0x2652 PUSH2 0x2788 JUMP JUMPDEST DUP1 DUP6 AND ISZERO PUSH2 0x265F JUMPI SWAP2 DUP2 MUL SWAP2 JUMPDEST SWAP4 DUP5 SHR SWAP4 SWAP1 DUP1 MUL SWAP1 PUSH2 0x2636 JUMP JUMPDEST POP SWAP3 POP SWAP3 SWAP1 POP JUMP JUMPDEST PUSH1 0x0 PUSH2 0x1DFB PUSH1 0xFF DUP5 AND DUP4 PUSH1 0x0 DUP3 PUSH2 0x268D JUMPI POP PUSH1 0x1 PUSH2 0x271B JUMP JUMPDEST DUP2 PUSH2 0x269A JUMPI POP PUSH1 0x0 PUSH2 0x271B JUMP JUMPDEST DUP2 PUSH1 0x1 DUP2 EQ PUSH2 0x26B0 JUMPI PUSH1 0x2 DUP2 EQ PUSH2 0x26BA JUMPI PUSH2 0x26D6 JUMP JUMPDEST PUSH1 0x1 SWAP2 POP POP PUSH2 0x271B JUMP JUMPDEST PUSH1 0xFF DUP5 GT ISZERO PUSH2 0x26CB JUMPI PUSH2 0x26CB PUSH2 0x2788 JUMP JUMPDEST POP POP PUSH1 0x1 DUP3 SHL PUSH2 0x271B JUMP JUMPDEST POP PUSH1 0x20 DUP4 LT PUSH2 0x133 DUP4 LT AND PUSH1 0x4E DUP5 LT PUSH1 0xB DUP5 LT AND OR ISZERO PUSH2 0x26F9 JUMPI POP DUP2 DUP2 EXP PUSH2 0x271B JUMP JUMPDEST PUSH2 0x2703 DUP4 DUP4 PUSH2 0x2631 JUMP JUMPDEST DUP1 PUSH1 0x0 NOT DIV DUP3 GT ISZERO PUSH2 0x2717 JUMPI PUSH2 0x2717 PUSH2 0x2788 JUMP JUMPDEST MUL SWAP1 POP JUMPDEST SWAP3 SWAP2 POP POP JUMP JUMPDEST PUSH1 0x0 DUP2 PUSH1 0x0 NOT DIV DUP4 GT DUP3 ISZERO ISZERO AND ISZERO PUSH2 0x273B JUMPI PUSH2 0x273B PUSH2 0x2788 JUMP JUMPDEST POP MUL SWAP1 JUMP JUMPDEST PUSH1 0x0 DUP3 DUP3 LT ISZERO PUSH2 0x2752 JUMPI PUSH2 0x2752 PUSH2 0x2788 JUMP JUMPDEST POP SUB SWAP1 JUMP JUMPDEST PUSH1 0x0 PUSH1 0x0 NOT DUP3 EQ ISZERO PUSH2 0x276B JUMPI PUSH2 0x276B PUSH2 0x2788 JUMP JUMPDEST POP PUSH1 0x1 ADD SWAP1 JUMP JUMPDEST PUSH4 0x4E487B71 PUSH1 0xE0 SHL PUSH1 0x0 MSTORE PUSH1 0x1 PUSH1 0x4 MSTORE PUSH1 0x24 PUSH1 0x0 REVERT JUMPDEST PUSH4 0x4E487B71 PUSH1 0xE0 SHL PUSH1 0x0 MSTORE PUSH1 0x11 PUSH1 0x4 MSTORE PUSH1 0x24 PUSH1 0x0 REVERT JUMPDEST PUSH4 0x4E487B71 PUSH1 0xE0 SHL PUSH1 0x0 MSTORE PUSH1 0x32 PUSH1 0x4 MSTORE PUSH1 0x24 PUSH1 0x0 REVERT JUMPDEST PUSH4 0x4E487B71 PUSH1 0xE0 SHL PUSH1 0x0 MSTORE PUSH1 0x41 PUSH1 0x4 MSTORE PUSH1 0x24 PUSH1 0x0 REVERT JUMPDEST PUSH1 0x1 PUSH1 0x1 PUSH1 0xA0 SHL SUB DUP2 AND DUP2 EQ PUSH2 0x1B4C JUMPI PUSH1 0x0 DUP1 REVERT JUMPDEST DUP1 ISZERO ISZERO DUP2 EQ PUSH2 0x1B4C JUMPI PUSH1 0x0 DUP1 REVERT INVALID LOG2 PUSH5 0x6970667358 0x22 SLT KECCAK256 KECCAK256 PUSH4 0xAC8BB0FD 0x25 0x27 DUP16 DUP4 0xA8 0xE4 SELFDESTRUCT PUSH31 0xFE1DECB1A8F40081686B042C64B15231D1D64736F6C634300080700330000 "},"gasEstimates":{"creation":{"codeDepositCost":"2055000","executionCost":"24291","totalCost":"2079291"},"external":{"WETH()":"2430","accFee()":"2340","accFeePerShare()":"2383","accProtocolFee()":"2407","availableLiquidity()":"infinite","baseReserve(address)":"2623","burn(address,uint256,bool)":"infinite","claimableFee(address)":"15690","close((bytes32,bytes,bytes))":"infinite","collateralReserve(address)":"2602","collect(address,uint256,bool)":"infinite","factory()":"2451","initialize(address,address,address,uint256)":"infinite","interest()":"2384","liquidityPosition(address)":"6854","mint(address,uint256,bytes)":"infinite","open((address,address,address,address,uint256,uint256,uint256,uint256,uint256,bool))":"infinite","precision()":"2339","quoteInDebt()":"2385","quoteReserve()":"2341","quoteToken()":"2430","rollback(bytes32)":"24541","setBaseTokens(address[],bool[])":"infinite","setInterest(uint256)":"25598","tradeableBaseToken(address)":"2538","updateDeadline(bytes32,uint256)":"24523","updateStoplossPrice(bytes32,uint256)":"24544"},"internal":{"_addFee(uint256)":"infinite","_availableLiquidity()":"infinite","_checkInputTokens(struct IPositionStorage.OpenTradePositionParams memory)":"infinite","_safeTransfer(address,address,uint256,bool)":"infinite","_transferProtocolFee()":"infinite","_updateBaseReserve(address,uint256)":"infinite","_updateCollateralReserve(address,uint256)":"infinite","_updateProtocolFee(uint256)":"infinite","_updateQuoteInDebt(uint256)":"infinite","_updateQuoteReserve(uint256)":"infinite"}},"methodIdentifiers":{"WETH()":"ad5c4648","accFee()":"ada3112f","accFeePerShare()":"dd3b829a","accProtocolFee()":"27014e33","availableLiquidity()":"74375359","baseReserve(address)":"ffc9dcbb","burn(address,uint256,bool)":"76fd4fdf","claimableFee(address)":"a1c59afc","close((bytes32,bytes,bytes))":"ca9bc69d","collateralReserve(address)":"8b6e00fa","collect(address,uint256,bool)":"3f8e2936","factory()":"c45a0155","initialize(address,address,address,uint256)":"cf756fdf","interest()":"c392f766","liquidityPosition(address)":"d4fd6905","mint(address,uint256,bytes)":"94d008ef","open((address,address,address,address,uint256,uint256,uint256,uint256,uint256,bool))":"37f0031a","precision()":"d3b5dc3b","quoteInDebt()":"685b61d0","quoteReserve()":"9da771f4","quoteToken()":"217a4b70","rollback(bytes32)":"cfb13928","setBaseTokens(address[],bool[])":"32196a01","setInterest(uint256)":"1d086720","tradeableBaseToken(address)":"0adcf0f5","updateDeadline(bytes32,uint256)":"1b033c1d","updateStoplossPrice(bytes32,uint256)":"b6cf1691"}},"storageLayout":{"storage":[{"astId":2163,"contract":"contracts/Pool.sol:Pool","label":"unlocked","offset":0,"slot":"0","type":"t_uint256"},{"astId":732,"contract":"contracts/Pool.sol:Pool","label":"factory","offset":0,"slot":"1","type":"t_address"},{"astId":735,"contract":"contracts/Pool.sol:Pool","label":"WETH","offset":0,"slot":"2","type":"t_address"},{"astId":738,"contract":"contracts/Pool.sol:Pool","label":"quoteToken","offset":0,"slot":"3","type":"t_address"},{"astId":741,"contract":"contracts/Pool.sol:Pool","label":"precision","offset":0,"slot":"4","type":"t_uint256"},{"astId":744,"contract":"contracts/Pool.sol:Pool","label":"interest","offset":0,"slot":"5","type":"t_uint256"},{"astId":747,"contract":"contracts/Pool.sol:Pool","label":"quoteReserve","offset":0,"slot":"6","type":"t_uint256"},{"astId":750,"contract":"contracts/Pool.sol:Pool","label":"quoteInDebt","offset":0,"slot":"7","type":"t_uint256"},{"astId":753,"contract":"contracts/Pool.sol:Pool","label":"accFee","offset":0,"slot":"8","type":"t_uint256"},{"astId":756,"contract":"contracts/Pool.sol:Pool","label":"accProtocolFee","offset":0,"slot":"9","type":"t_uint256"},{"astId":759,"contract":"contracts/Pool.sol:Pool","label":"accFeePerShare","offset":0,"slot":"10","type":"t_uint256"},{"astId":764,"contract":"contracts/Pool.sol:Pool","label":"tradeableBaseToken","offset":0,"slot":"11","type":"t_mapping(t_address,t_bool)"},{"astId":769,"contract":"contracts/Pool.sol:Pool","label":"baseReserve","offset":0,"slot":"12","type":"t_mapping(t_address,t_uint256)"},{"astId":774,"contract":"contracts/Pool.sol:Pool","label":"collateralReserve","offset":0,"slot":"13","type":"t_mapping(t_address,t_uint256)"},{"astId":780,"contract":"contracts/Pool.sol:Pool","label":"liquidityPosition","offset":0,"slot":"14","type":"t_mapping(t_address,t_struct(LiquidityPosition)2401_storage)"}],"types":{"t_address":{"encoding":"inplace","label":"address","numberOfBytes":"20"},"t_bool":{"encoding":"inplace","label":"bool","numberOfBytes":"1"},"t_mapping(t_address,t_bool)":{"encoding":"mapping","key":"t_address","label":"mapping(address => bool)","numberOfBytes":"32","value":"t_bool"},"t_mapping(t_address,t_struct(LiquidityPosition)2401_storage)":{"encoding":"mapping","key":"t_address","label":"mapping(address => struct IPool.LiquidityPosition)","numberOfBytes":"32","value":"t_struct(LiquidityPosition)2401_storage"},"t_mapping(t_address,t_uint256)":{"encoding":"mapping","key":"t_address","label":"mapping(address => uint256)","numberOfBytes":"32","value":"t_uint256"},"t_struct(LiquidityPosition)2401_storage":{"encoding":"inplace","label":"struct IPool.LiquidityPosition","members":[{"astId":2396,"contract":"contracts/Pool.sol:Pool","label":"liquidity","offset":0,"slot":"0","type":"t_uint256"},{"astId":2398,"contract":"contracts/Pool.sol:Pool","label":"feeDebt","offset":0,"slot":"1","type":"t_uint256"},{"astId":2400,"contract":"contracts/Pool.sol:Pool","label":"pendingFee","offset":0,"slot":"2","type":"t_uint256"}],"numberOfBytes":"96"},"t_uint256":{"encoding":"inplace","label":"uint256","numberOfBytes":"32"}}},"userdoc":{"kind":"user","methods":{},"version":1}}}}