{"contracts/PositionStorage.sol":{"PositionStorage":{"abi":[{"inputs":[{"internalType":"address","name":"sender","type":"address"}],"name":"Forbidden","type":"error"},{"inputs":[],"name":"InitializedAlready","type":"error"},{"inputs":[],"name":"InvalidParameter","type":"error"},{"inputs":[{"internalType":"bytes32","name":"positionKey","type":"bytes32"}],"name":"LiquidationMarkedAlready","type":"error"},{"inputs":[{"internalType":"address","name":"user","type":"address"}],"name":"NotAllowed","type":"error"},{"inputs":[{"internalType":"bytes32","name":"positionKey","type":"bytes32"}],"name":"NotManualExpired","type":"error"},{"inputs":[{"internalType":"address","name":"owner","type":"address"},{"internalType":"address","name":"updater","type":"address"}],"name":"NotOwner","type":"error"},{"inputs":[{"internalType":"bytes32","name":"positionKey","type":"bytes32"}],"name":"Step1NotDone","type":"error"},{"inputs":[{"internalType":"bytes32","name":"positionKey","type":"bytes32"}],"name":"TradePositionClosedAlready","type":"error"},{"inputs":[{"internalType":"bytes32","name":"positionKey","type":"bytes32"}],"name":"TradePositionNotClosed","type":"error"},{"inputs":[{"internalType":"bytes32","name":"positionKey","type":"bytes32"}],"name":"TradePositionNotExists","type":"error"},{"anonymous":false,"inputs":[{"indexed":true,"internalType":"bytes32","name":"positionKey","type":"bytes32"}],"name":"CloseManuallyStep1TradePosition","type":"event"},{"anonymous":false,"inputs":[{"indexed":true,"internalType":"bytes32","name":"positionKey","type":"bytes32"},{"indexed":false,"internalType":"address","name":"updater","type":"address"}],"name":"CloseTradePosition","type":"event"},{"anonymous":false,"inputs":[{"indexed":true,"internalType":"bytes32","name":"positionKey","type":"bytes32"},{"indexed":false,"internalType":"uint256","name":"time","type":"uint256"}],"name":"LiquidationMark","type":"event"},{"anonymous":false,"inputs":[{"indexed":true,"internalType":"bytes32","name":"positionKey","type":"bytes32"}],"name":"OpenTradePosition","type":"event"},{"anonymous":false,"inputs":[{"indexed":true,"internalType":"bytes32","name":"positionKey","type":"bytes32"},{"indexed":false,"internalType":"uint256","name":"amount","type":"uint256"},{"indexed":false,"internalType":"uint256","name":"collateralLiqPrice","type":"uint256"},{"indexed":false,"internalType":"uint256","name":"baseLiqPrice","type":"uint256"},{"indexed":false,"internalType":"address","name":"updater","type":"address"}],"name":"UpdateCollateralAmount","type":"event"},{"anonymous":false,"inputs":[{"indexed":true,"internalType":"bytes32","name":"positionKey","type":"bytes32"},{"indexed":false,"internalType":"uint256","name":"newDeadline","type":"uint256"},{"indexed":false,"internalType":"address","name":"updater","type":"address"}],"name":"UpdateDeadline","type":"event"},{"anonymous":false,"inputs":[{"indexed":true,"internalType":"bytes32","name":"positionKey","type":"bytes32"},{"indexed":false,"internalType":"uint256","name":"newStoplossPrice","type":"uint256"},{"indexed":false,"internalType":"address","name":"updater","type":"address"}],"name":"UpdateStoplossPrice","type":"event"},{"inputs":[{"internalType":"bytes32","name":"_positionKey","type":"bytes32"}],"name":"canLiquidate","outputs":[{"internalType":"bool","name":"","type":"bool"}],"stateMutability":"view","type":"function"},{"inputs":[{"internalType":"bytes32","name":"_positionKey","type":"bytes32"}],"name":"canLiquidationMark","outputs":[{"internalType":"bool","name":"","type":"bool"}],"stateMutability":"view","type":"function"},{"inputs":[{"internalType":"bytes32","name":"_positionKey","type":"bytes32"}],"name":"closeManuallyStep1","outputs":[],"stateMutability":"nonpayable","type":"function"},{"inputs":[{"internalType":"bytes32","name":"_positionKey","type":"bytes32"}],"name":"closeManuallyStep2","outputs":[],"stateMutability":"nonpayable","type":"function"},{"inputs":[],"name":"factory","outputs":[{"internalType":"address","name":"","type":"address"}],"stateMutability":"view","type":"function"},{"inputs":[{"components":[{"internalType":"address","name":"owner","type":"address"},{"internalType":"address","name":"baseToken","type":"address"},{"internalType":"address","name":"quoteToken","type":"address"},{"internalType":"address","name":"collateral","type":"address"},{"internalType":"uint256","name":"baseAmount","type":"uint256"},{"internalType":"uint256","name":"quoteAmount","type":"uint256"},{"internalType":"uint256","name":"collateralAmount","type":"uint256"},{"internalType":"uint256","name":"deadline","type":"uint256"},{"internalType":"uint256","name":"stoplossPrice","type":"uint256"}],"internalType":"struct IPositionStorage.OpenTradePositionParams","name":"_params","type":"tuple"}],"name":"getMinCollateralAmount","outputs":[{"internalType":"uint256","name":"","type":"uint256"}],"stateMutability":"view","type":"function"},{"inputs":[{"components":[{"internalType":"address","name":"owner","type":"address"},{"internalType":"address","name":"baseToken","type":"address"},{"internalType":"address","name":"quoteToken","type":"address"},{"internalType":"address","name":"collateral","type":"address"},{"internalType":"uint256","name":"baseAmount","type":"uint256"},{"internalType":"uint256","name":"quoteAmount","type":"uint256"},{"internalType":"uint256","name":"collateralAmount","type":"uint256"},{"internalType":"uint256","name":"deadline","type":"uint256"},{"internalType":"uint256","name":"stoplossPrice","type":"uint256"}],"internalType":"struct IPositionStorage.OpenTradePositionParams","name":"_params","type":"tuple"}],"name":"getQuoteAmountRange","outputs":[{"internalType":"uint256","name":"minQuoteAmount","type":"uint256"},{"internalType":"uint256","name":"maxQuoteAmount","type":"uint256"}],"stateMutability":"view","type":"function"},{"inputs":[{"internalType":"bytes32","name":"_positionKey","type":"bytes32"}],"name":"liquidationMark","outputs":[],"stateMutability":"nonpayable","type":"function"},{"inputs":[{"components":[{"internalType":"bytes32","name":"positionKey","type":"bytes32"},{"internalType":"address","name":"owner","type":"address"},{"internalType":"address","name":"pool","type":"address"},{"components":[{"internalType":"address","name":"id","type":"address"},{"internalType":"uint256","name":"amount","type":"uint256"},{"internalType":"uint256","name":"entryPrice","type":"uint256"},{"internalType":"uint256","name":"liqPrice","type":"uint256"},{"internalType":"uint256","name":"closePrice","type":"uint256"}],"internalType":"struct IPositionStorage.BaseToken","name":"baseToken","type":"tuple"},{"components":[{"internalType":"address","name":"id","type":"address"},{"internalType":"uint256","name":"amount","type":"uint256"}],"internalType":"struct IPositionStorage.QuoteToken","name":"quoteToken","type":"tuple"},{"components":[{"internalType":"address","name":"id","type":"address"},{"internalType":"uint256","name":"amount","type":"uint256"},{"internalType":"uint256","name":"entryPrice","type":"uint256"},{"internalType":"uint256","name":"liqPrice","type":"uint256"},{"internalType":"uint256","name":"closePrice","type":"uint256"}],"internalType":"struct IPositionStorage.Collateral","name":"collateral","type":"tuple"},{"internalType":"uint256","name":"deadline","type":"uint256"},{"internalType":"uint256","name":"stoplossPrice","type":"uint256"},{"internalType":"uint256","name":"fee","type":"uint256"},{"internalType":"uint256","name":"protocolFee","type":"uint256"},{"components":[{"internalType":"bool","name":"isClosed","type":"bool"},{"internalType":"bool","name":"isExpired","type":"bool"},{"internalType":"bool","name":"isStoploss","type":"bool"},{"internalType":"bool","name":"isBaseLiquidated","type":"bool"},{"internalType":"bool","name":"isCollateralLiquidated","type":"bool"},{"internalType":"bool","name":"isRollbacked","type":"bool"},{"internalType":"bool","name":"isClosedManuallyStep1","type":"bool"},{"internalType":"bool","name":"isClosedManuallyStep2","type":"bool"}],"internalType":"struct IPositionStorage.Status","name":"status","type":"tuple"},{"internalType":"address","name":"closer","type":"address"},{"internalType":"uint256","name":"liquidationMarkTime","type":"uint256"}],"internalType":"struct IPositionStorage.TradePosition","name":"_pos","type":"tuple"}],"name":"openTradePosition","outputs":[{"internalType":"bytes32","name":"positionKey","type":"bytes32"}],"stateMutability":"nonpayable","type":"function"},{"inputs":[{"internalType":"uint256","name":"_index","type":"uint256"}],"name":"openingPositionKey","outputs":[{"internalType":"bytes32","name":"","type":"bytes32"}],"stateMutability":"view","type":"function"},{"inputs":[{"internalType":"uint256","name":"","type":"uint256"}],"name":"openingPositionKeys","outputs":[{"internalType":"bytes32","name":"","type":"bytes32"}],"stateMutability":"view","type":"function"},{"inputs":[],"name":"openingPositionLength","outputs":[{"internalType":"uint256","name":"","type":"uint256"}],"stateMutability":"view","type":"function"},{"inputs":[{"internalType":"uint256","name":"_index","type":"uint256"}],"name":"position","outputs":[{"components":[{"internalType":"bytes32","name":"positionKey","type":"bytes32"},{"internalType":"address","name":"owner","type":"address"},{"internalType":"address","name":"pool","type":"address"},{"components":[{"internalType":"address","name":"id","type":"address"},{"internalType":"uint256","name":"amount","type":"uint256"},{"internalType":"uint256","name":"entryPrice","type":"uint256"},{"internalType":"uint256","name":"liqPrice","type":"uint256"},{"internalType":"uint256","name":"closePrice","type":"uint256"}],"internalType":"struct IPositionStorage.BaseToken","name":"baseToken","type":"tuple"},{"components":[{"internalType":"address","name":"id","type":"address"},{"internalType":"uint256","name":"amount","type":"uint256"}],"internalType":"struct IPositionStorage.QuoteToken","name":"quoteToken","type":"tuple"},{"components":[{"internalType":"address","name":"id","type":"address"},{"internalType":"uint256","name":"amount","type":"uint256"},{"internalType":"uint256","name":"entryPrice","type":"uint256"},{"internalType":"uint256","name":"liqPrice","type":"uint256"},{"internalType":"uint256","name":"closePrice","type":"uint256"}],"internalType":"struct IPositionStorage.Collateral","name":"collateral","type":"tuple"},{"internalType":"uint256","name":"deadline","type":"uint256"},{"internalType":"uint256","name":"stoplossPrice","type":"uint256"},{"internalType":"uint256","name":"fee","type":"uint256"},{"internalType":"uint256","name":"protocolFee","type":"uint256"},{"components":[{"internalType":"bool","name":"isClosed","type":"bool"},{"internalType":"bool","name":"isExpired","type":"bool"},{"internalType":"bool","name":"isStoploss","type":"bool"},{"internalType":"bool","name":"isBaseLiquidated","type":"bool"},{"internalType":"bool","name":"isCollateralLiquidated","type":"bool"},{"internalType":"bool","name":"isRollbacked","type":"bool"},{"internalType":"bool","name":"isClosedManuallyStep1","type":"bool"},{"internalType":"bool","name":"isClosedManuallyStep2","type":"bool"}],"internalType":"struct IPositionStorage.Status","name":"status","type":"tuple"},{"internalType":"address","name":"closer","type":"address"},{"internalType":"uint256","name":"liquidationMarkTime","type":"uint256"}],"internalType":"struct IPositionStorage.TradePosition","name":"","type":"tuple"}],"stateMutability":"view","type":"function"},{"inputs":[{"internalType":"bytes32","name":"_positionKey","type":"bytes32"}],"name":"positionByKey","outputs":[{"components":[{"internalType":"bytes32","name":"positionKey","type":"bytes32"},{"internalType":"address","name":"owner","type":"address"},{"internalType":"address","name":"pool","type":"address"},{"components":[{"internalType":"address","name":"id","type":"address"},{"internalType":"uint256","name":"amount","type":"uint256"},{"internalType":"uint256","name":"entryPrice","type":"uint256"},{"internalType":"uint256","name":"liqPrice","type":"uint256"},{"internalType":"uint256","name":"closePrice","type":"uint256"}],"internalType":"struct IPositionStorage.BaseToken","name":"baseToken","type":"tuple"},{"components":[{"internalType":"address","name":"id","type":"address"},{"internalType":"uint256","name":"amount","type":"uint256"}],"internalType":"struct IPositionStorage.QuoteToken","name":"quoteToken","type":"tuple"},{"components":[{"internalType":"address","name":"id","type":"address"},{"internalType":"uint256","name":"amount","type":"uint256"},{"internalType":"uint256","name":"entryPrice","type":"uint256"},{"internalType":"uint256","name":"liqPrice","type":"uint256"},{"internalType":"uint256","name":"closePrice","type":"uint256"}],"internalType":"struct IPositionStorage.Collateral","name":"collateral","type":"tuple"},{"internalType":"uint256","name":"deadline","type":"uint256"},{"internalType":"uint256","name":"stoplossPrice","type":"uint256"},{"internalType":"uint256","name":"fee","type":"uint256"},{"internalType":"uint256","name":"protocolFee","type":"uint256"},{"components":[{"internalType":"bool","name":"isClosed","type":"bool"},{"internalType":"bool","name":"isExpired","type":"bool"},{"internalType":"bool","name":"isStoploss","type":"bool"},{"internalType":"bool","name":"isBaseLiquidated","type":"bool"},{"internalType":"bool","name":"isCollateralLiquidated","type":"bool"},{"internalType":"bool","name":"isRollbacked","type":"bool"},{"internalType":"bool","name":"isClosedManuallyStep1","type":"bool"},{"internalType":"bool","name":"isClosedManuallyStep2","type":"bool"}],"internalType":"struct IPositionStorage.Status","name":"status","type":"tuple"},{"internalType":"address","name":"closer","type":"address"},{"internalType":"uint256","name":"liquidationMarkTime","type":"uint256"}],"internalType":"struct IPositionStorage.TradePosition","name":"pos","type":"tuple"}],"stateMutability":"view","type":"function"},{"inputs":[{"internalType":"bytes32","name":"","type":"bytes32"}],"name":"positionIndex","outputs":[{"internalType":"uint256","name":"","type":"uint256"}],"stateMutability":"view","type":"function"},{"inputs":[{"internalType":"address","name":"_user","type":"address"},{"internalType":"uint256","name":"_index","type":"uint256"}],"name":"positionKeyByUser","outputs":[{"internalType":"bytes32","name":"","type":"bytes32"}],"stateMutability":"view","type":"function"},{"inputs":[],"name":"positionLength","outputs":[{"internalType":"uint256","name":"","type":"uint256"}],"stateMutability":"view","type":"function"},{"inputs":[{"internalType":"uint256","name":"","type":"uint256"}],"name":"positions","outputs":[{"internalType":"bytes32","name":"positionKey","type":"bytes32"},{"internalType":"address","name":"owner","type":"address"},{"internalType":"address","name":"pool","type":"address"},{"components":[{"internalType":"address","name":"id","type":"address"},{"internalType":"uint256","name":"amount","type":"uint256"},{"internalType":"uint256","name":"entryPrice","type":"uint256"},{"internalType":"uint256","name":"liqPrice","type":"uint256"},{"internalType":"uint256","name":"closePrice","type":"uint256"}],"internalType":"struct IPositionStorage.BaseToken","name":"baseToken","type":"tuple"},{"components":[{"internalType":"address","name":"id","type":"address"},{"internalType":"uint256","name":"amount","type":"uint256"}],"internalType":"struct IPositionStorage.QuoteToken","name":"quoteToken","type":"tuple"},{"components":[{"internalType":"address","name":"id","type":"address"},{"internalType":"uint256","name":"amount","type":"uint256"},{"internalType":"uint256","name":"entryPrice","type":"uint256"},{"internalType":"uint256","name":"liqPrice","type":"uint256"},{"internalType":"uint256","name":"closePrice","type":"uint256"}],"internalType":"struct IPositionStorage.Collateral","name":"collateral","type":"tuple"},{"internalType":"uint256","name":"deadline","type":"uint256"},{"internalType":"uint256","name":"stoplossPrice","type":"uint256"},{"internalType":"uint256","name":"fee","type":"uint256"},{"internalType":"uint256","name":"protocolFee","type":"uint256"},{"components":[{"internalType":"bool","name":"isClosed","type":"bool"},{"internalType":"bool","name":"isExpired","type":"bool"},{"internalType":"bool","name":"isStoploss","type":"bool"},{"internalType":"bool","name":"isBaseLiquidated","type":"bool"},{"internalType":"bool","name":"isCollateralLiquidated","type":"bool"},{"internalType":"bool","name":"isRollbacked","type":"bool"},{"internalType":"bool","name":"isClosedManuallyStep1","type":"bool"},{"internalType":"bool","name":"isClosedManuallyStep2","type":"bool"}],"internalType":"struct IPositionStorage.Status","name":"status","type":"tuple"},{"internalType":"address","name":"closer","type":"address"},{"internalType":"uint256","name":"liquidationMarkTime","type":"uint256"}],"stateMutability":"view","type":"function"},{"inputs":[{"components":[{"internalType":"address","name":"owner","type":"address"},{"internalType":"address","name":"baseToken","type":"address"},{"internalType":"address","name":"quoteToken","type":"address"},{"internalType":"address","name":"collateral","type":"address"},{"internalType":"uint256","name":"baseAmount","type":"uint256"},{"internalType":"uint256","name":"quoteAmount","type":"uint256"},{"internalType":"uint256","name":"collateralAmount","type":"uint256"},{"internalType":"uint256","name":"deadline","type":"uint256"},{"internalType":"uint256","name":"stoplossPrice","type":"uint256"}],"internalType":"struct IPositionStorage.OpenTradePositionParams","name":"_params","type":"tuple"}],"name":"previewTradePosition","outputs":[{"components":[{"internalType":"bytes32","name":"positionKey","type":"bytes32"},{"internalType":"address","name":"owner","type":"address"},{"internalType":"address","name":"pool","type":"address"},{"components":[{"internalType":"address","name":"id","type":"address"},{"internalType":"uint256","name":"amount","type":"uint256"},{"internalType":"uint256","name":"entryPrice","type":"uint256"},{"internalType":"uint256","name":"liqPrice","type":"uint256"},{"internalType":"uint256","name":"closePrice","type":"uint256"}],"internalType":"struct IPositionStorage.BaseToken","name":"baseToken","type":"tuple"},{"components":[{"internalType":"address","name":"id","type":"address"},{"internalType":"uint256","name":"amount","type":"uint256"}],"internalType":"struct IPositionStorage.QuoteToken","name":"quoteToken","type":"tuple"},{"components":[{"internalType":"address","name":"id","type":"address"},{"internalType":"uint256","name":"amount","type":"uint256"},{"internalType":"uint256","name":"entryPrice","type":"uint256"},{"internalType":"uint256","name":"liqPrice","type":"uint256"},{"internalType":"uint256","name":"closePrice","type":"uint256"}],"internalType":"struct IPositionStorage.Collateral","name":"collateral","type":"tuple"},{"internalType":"uint256","name":"deadline","type":"uint256"},{"internalType":"uint256","name":"stoplossPrice","type":"uint256"},{"internalType":"uint256","name":"fee","type":"uint256"},{"internalType":"uint256","name":"protocolFee","type":"uint256"},{"components":[{"internalType":"bool","name":"isClosed","type":"bool"},{"internalType":"bool","name":"isExpired","type":"bool"},{"internalType":"bool","name":"isStoploss","type":"bool"},{"internalType":"bool","name":"isBaseLiquidated","type":"bool"},{"internalType":"bool","name":"isCollateralLiquidated","type":"bool"},{"internalType":"bool","name":"isRollbacked","type":"bool"},{"internalType":"bool","name":"isClosedManuallyStep1","type":"bool"},{"internalType":"bool","name":"isClosedManuallyStep2","type":"bool"}],"internalType":"struct IPositionStorage.Status","name":"status","type":"tuple"},{"internalType":"address","name":"closer","type":"address"},{"internalType":"uint256","name":"liquidationMarkTime","type":"uint256"}],"internalType":"struct IPositionStorage.TradePosition","name":"","type":"tuple"}],"stateMutability":"view","type":"function"},{"inputs":[{"components":[{"internalType":"bytes32","name":"positionKey","type":"bytes32"},{"internalType":"uint256","name":"amount","type":"uint256"},{"internalType":"address","name":"updater","type":"address"}],"internalType":"struct IPositionStorage.UpdateCollateralAmountParams","name":"_params","type":"tuple"}],"name":"previewUpdateCollateralAmount","outputs":[{"internalType":"uint256","name":"collateralLiqPrice","type":"uint256"},{"internalType":"uint256","name":"baseLiqPrice","type":"uint256"}],"stateMutability":"view","type":"function"},{"inputs":[{"components":[{"internalType":"bytes32","name":"positionKey","type":"bytes32"},{"internalType":"uint256","name":"deadline","type":"uint256"},{"internalType":"address","name":"updater","type":"address"}],"internalType":"struct IPositionStorage.UpdateDeadlineParams","name":"_params","type":"tuple"}],"name":"previewUpdateDeadline","outputs":[{"internalType":"uint256","name":"fee","type":"uint256"},{"internalType":"uint256","name":"protocolFee","type":"uint256"}],"stateMutability":"view","type":"function"},{"inputs":[{"internalType":"bytes32","name":"_positionKey","type":"bytes32"},{"internalType":"address","name":"_updater","type":"address"}],"name":"rollback","outputs":[],"stateMutability":"nonpayable","type":"function"},{"inputs":[{"internalType":"address","name":"_factory","type":"address"}],"name":"setFactory","outputs":[],"stateMutability":"nonpayable","type":"function"},{"inputs":[{"internalType":"bytes32","name":"_positionKey","type":"bytes32"},{"internalType":"uint256","name":"_baseValue","type":"uint256"},{"internalType":"uint256","name":"_loss","type":"uint256"},{"internalType":"uint256","name":"_remainingCollateralAmount","type":"uint256"}],"name":"updateCloseValues","outputs":[],"stateMutability":"nonpayable","type":"function"},{"inputs":[{"components":[{"internalType":"bytes32","name":"positionKey","type":"bytes32"},{"internalType":"uint256","name":"amount","type":"uint256"},{"internalType":"address","name":"updater","type":"address"}],"internalType":"struct IPositionStorage.UpdateCollateralAmountParams","name":"_params","type":"tuple"}],"name":"updateCollateralAmount","outputs":[{"internalType":"uint256","name":"collateralLiqPrice","type":"uint256"},{"internalType":"uint256","name":"baseLiqPrice","type":"uint256"}],"stateMutability":"nonpayable","type":"function"},{"inputs":[{"components":[{"internalType":"bytes32","name":"positionKey","type":"bytes32"},{"internalType":"uint256","name":"deadline","type":"uint256"},{"internalType":"address","name":"updater","type":"address"}],"internalType":"struct IPositionStorage.UpdateDeadlineParams","name":"_params","type":"tuple"}],"name":"updateDeadline","outputs":[{"internalType":"uint256","name":"fee","type":"uint256"},{"internalType":"uint256","name":"protocolFee","type":"uint256"}],"stateMutability":"nonpayable","type":"function"},{"inputs":[{"internalType":"bytes32","name":"_positionKey","type":"bytes32"},{"internalType":"address","name":"_updater","type":"address"}],"name":"updateStatus","outputs":[{"internalType":"bool","name":"needLiquidate","type":"bool"}],"stateMutability":"nonpayable","type":"function"},{"inputs":[{"components":[{"internalType":"bytes32","name":"positionKey","type":"bytes32"},{"internalType":"uint256","name":"stoplossPrice","type":"uint256"},{"internalType":"address","name":"updater","type":"address"}],"internalType":"struct IPositionStorage.UpdateStoplossPriceParams","name":"_params","type":"tuple"}],"name":"updateStoplossPrice","outputs":[],"stateMutability":"nonpayable","type":"function"},{"inputs":[{"internalType":"address","name":"_user","type":"address"}],"name":"userPositionLength","outputs":[{"internalType":"uint256","name":"","type":"uint256"}],"stateMutability":"view","type":"function"}],"devdoc":{"kind":"dev","methods":{},"version":1},"evm":{"bytecode":{"linkReferences":{},"object":"608060405234801561001057600080fd5b5061597480620000216000396000f3fe608060405234801561001057600080fd5b50600436106101cf5760003560e01c80638b029d6111610104578063c45a0155116100a2578063f71139f711610071578063f71139f714610427578063f7a5f2541461043a578063f7a95a9e1461045a578063fc9ffe101461046d57600080fd5b8063c45a0155146103ad578063da23479f146103d8578063dbd99a13146103eb578063e5944f011461041457600080fd5b8063a0d5d126116100de578063a0d5d1261461036c578063a827acf51461037f578063ac00b67414610387578063b008c0581461039a57600080fd5b80638b029d611461031a57806399fbab881461032d5780639a1023411461035957600080fd5b80634f26f457116101715780635bb478081161014b5780635bb47808146102be57806361ba1508146102d157806364b88ac5146102f45780637c08ddc91461030757600080fd5b80634f26f45714610290578063539826a6146102a3578063558ea854146102ab57600080fd5b80632fb817fc116101ad5780632fb817fc1461022f578063302d60921461024257806337f368641461025557806349a4d1d11461027d57600080fd5b80630771e3a3146101d45780631636e199146101fa5780631a37982d1461020f575b600080fd5b6101e76101e2366004615409565b610480565b6040519081526020015b60405180910390f35b61020d610208366004615581565b61087c565b005b61022261021d366004615409565b610a72565b6040516101f1919061571c565b6101e761023d366004615345565b610a89565b6101e761025036600461538e565b610ac6565b610268610263366004615581565b610ae7565b604080519283526020830191909152016101f1565b61020d61028b36600461538e565b611153565b61026861029e366004615581565b611251565b6001546101e7565b6102686102b9366004615409565b6116b5565b61020d6102cc36600461530b565b611b3e565b6102e46102df36600461538e565b611b8a565b60405190151581526020016101f1565b6101e76103023660046154a0565b611b95565b610268610315366004615581565b61207a565b61020d6103283660046153d7565b6126e7565b61034061033b36600461538e565b612973565b6040516101f19d9c9b9a9998979695949392919061567c565b61020d6103673660046153a7565b612c0a565b61022261037a36600461538e565b612e02565b6002546101e7565b6102e46103953660046153a7565b61300b565b61020d6103a836600461538e565b613445565b6000546103c0906001600160a01b031681565b6040516001600160a01b0390911681526020016101f1565b6101e76103e636600461538e565b613673565b6101e76103f936600461530b565b6001600160a01b031660009081526004602052604090205490565b6102e461042236600461538e565b61369a565b61020d61043536600461538e565b613700565b6101e761044836600461538e565b60036020526000908152604090205481565b61022261046836600461538e565b6138c1565b61026861047b366004615581565b613aa9565b60008060008054906101000a90046001600160a01b031690506000816001600160a01b031663741bef1a6040518163ffffffff1660e01b815260040160206040518083038186803b1580156104d457600080fd5b505afa1580156104e8573d6000803e3d6000fd5b505050506040513d601f19601f8201168201806040525081019061050c9190615328565b90506000816001600160a01b031663aaf5eb686040518163ffffffff1660e01b815260040160206040518083038186803b15801561054957600080fd5b505afa15801561055d573d6000803e3d6000fd5b505050506040513d601f19601f82011682018060405250810190610581919061559d565b9050600080836001600160a01b031663e6c14362886020015189604001516040518363ffffffff1660e01b81526004016105bc929190615662565b60206040518083038186803b1580156105d457600080fd5b505afa1580156105e8573d6000803e3d6000fd5b505050506040513d601f19601f8201168201806040525081019061060c919061559d565b90508281886080015161061f91906158b6565b6106299190615894565b9150506000846001600160a01b0316636d2745536040518163ffffffff1660e01b815260040160206040518083038186803b15801561066757600080fd5b505afa15801561067b573d6000803e3d6000fd5b505050506040513d601f19601f8201168201806040525081019061069f919061559d565b6020880151604051635ba2edab60e11b81526001600160a01b0391821660048201529192506000919087169063b745db569060240160206040518083038186803b1580156106ec57600080fd5b505afa158015610700573d6000803e3d6000fd5b505050506040513d601f19601f82011682018060405250810190610724919061559d565b606089015160405163095bf1bb60e01b81526001600160a01b0391821660048201529192506000919088169063095bf1bb9060240160206040518083038186803b15801561077157600080fd5b505afa158015610785573d6000803e3d6000fd5b505050506040513d601f19601f820116820180604052508101906107a9919061559d565b90506000816107b884866158d5565b6107c290876158b6565b6107cc9190615894565b60608b01516040808d01519051637360a1b160e11b81529293506000926001600160a01b038b169263e6c143629261080692600401615662565b60206040518083038186803b15801561081e57600080fd5b505afa158015610832573d6000803e3d6000fd5b505050506040513d601f19601f82011682018060405250810190610856919061559d565b90508061086388846158b6565b61086d9190615894565b9b9a5050505050505050505050565b8051600090815260036020526040902054806108b65781516040516354ec2eeb60e01b815260048101919091526024015b60405180910390fd5b600060016108c481846158d5565b815481106108d4576108d4615902565b60009182526020822091546016919091029091016008810154604051634d83bc3360e01b81526001600160a01b039182166004820152919350909116908190634d83bc339060240160206040518083038186803b15801561093457600080fd5b505afa158015610948573d6000803e3d6000fd5b505050506040513d601f19601f8201168201806040525081019061096c9190615328565b6001600160a01b0316336001600160a01b03161461099f5760405163a59d7f4d60e01b81523360048201526024016108ad565b601382015460ff16156109cb578351604051632a2af87d60e11b815260048101919091526024016108ad565b600182015460408501516001600160a01b03908116911614610a155760018201546040808601519051631194af8760e11b81526108ad926001600160a01b03169190600401615662565b60208481015160108401819055855160408088015181519384526001600160a01b031693830193909352917f16ecc3716f8ba588e1f42501972bcac92c1672192e042949e6d3847a1bde9b5d91015b60405180910390a250505050565b610a7a614f68565b610a838261401d565b92915050565b6001600160a01b0382166000908152600460205260408120805483908110610ab357610ab3615902565b9060005260206000200154905092915050565b60028181548110610ad657600080fd5b600091825260209091200154905081565b80516000908152600360205260408120548190801561114d5760006001610b0e81846158d5565b81548110610b1e57610b1e615902565b60009182526020808320604080516101a08101825260169094029091018054845260018101546001600160a01b03908116858501526002820154811685840152825160a080820185526003840154831682526004808501548388015260058501548387015260068501546060848101919091526007860154608080860191909152818a0194909452865180880188526008870154861681526009870154818a0152848a015286518084018852600a87015486168152600b870154818a0152600c87015481890152600d87015481830152600e87015481860152838a0152600f86015460c0808b0191909152601087015460e0808c01919091526011880154610100808d019190915260128901546101208d015289518082018b5260138a015460ff8082161515835292810483161515828e015262010000810483161515828d015263010000008104831615159582019590955264010000000085048216151597810197909752600160281b84048116151595870195909552600160301b83048516151591860191909152600160381b9091049092161515918301919091526101408701919091526014830154821661016087015260159092015461018086015285548351633a0df78d60e11b81529351959750169493859363741bef1a938084019391929190829003018186803b158015610d1857600080fd5b505afa158015610d2c573d6000803e3d6000fd5b505050506040513d601f19601f82011682018060405250810190610d509190615328565b90506000816001600160a01b031663aaf5eb686040518163ffffffff1660e01b815260040160206040518083038186803b158015610d8d57600080fd5b505afa158015610da1573d6000803e3d6000fd5b505050506040513d601f19601f82011682018060405250810190610dc5919061559d565b60a08501515160405163095bf1bb60e01b81526001600160a01b0391821660048201529192506000919085169063095bf1bb9060240160206040518083038186803b158015610e1357600080fd5b505afa158015610e27573d6000803e3d6000fd5b505050506040513d601f19601f82011682018060405250810190610e4b919061559d565b9050600089602001518660a0015160200151610e67919061587c565b60a087015151608088015151604051637360a1b160e11b815292935060009283926001600160a01b0389169263e6c1436292610ea7929190600401615662565b60206040518083038186803b158015610ebf57600080fd5b505afa158015610ed3573d6000803e3d6000fd5b505050506040513d601f19601f82011682018060405250810190610ef7919061559d565b9050610f05856127106158b6565b84610f1083866158b6565b610f1a91906158b6565b610f249190615894565b60a08901515160405163017f783b60e61b81526001600160a01b03918216600482015291935060009250881690635fde0ec09060240160206040518083038186803b158015610f7257600080fd5b505afa158015610f86573d6000803e3d6000fd5b505050506040513d601f19601f82011682018060405250810190610faa919061559d565b9050610fb684846158b6565b85610fc183856158b6565b610fcb91906158b6565b610fd59190615894565b606089015151604051635ba2edab60e11b81526001600160a01b039182166004820152919c506000925088169063b745db569060240160206040518083038186803b15801561102357600080fd5b505afa158015611037573d6000803e3d6000fd5b505050506040513d601f19601f8201168201806040525081019061105b919061559d565b60608901515160405163f5d0e17560e01b81526001600160a01b0391821660048201529192506000919089169063f5d0e1759060240160206040518083038186803b1580156110a957600080fd5b505afa1580156110bd573d6000803e3d6000fd5b505050506040513d601f19601f820116820180604052508101906110e1919061559d565b90508289608001516020015111156111435760008282858c608001516020015161110b91906158d5565b61111591906158b6565b61111f9190615894565b60608b01516020015190915061113588836158b6565b61113f9190615894565b9b50505b5050505050505050505b50915091565b60008181526003602052604090205480611183576040516354ec2eeb60e01b8152600481018390526024016108ad565b6000600161119181846158d5565b815481106111a1576111a1615902565b60009182526020909120601690910201601381015490915060ff16156111dd57604051632a2af87d60e11b8152600481018490526024016108ad565b60158101541561120357604051634fd9d2b360e11b8152600481018490526024016108ad565b4261120d846149b9565b1561124b576015820181905560405181815284907fa12564b997ab2a5a96db3485450b11398857b9457f88412f9ad19cdffd43a1ab90602001610a64565b50505050565b80516000908152600360205260408120548190801561114d576000600161127881846158d5565b8154811061128857611288615902565b60009182526020808320604080516101a08101825260169094029091018054845260018101546001600160a01b03908116858501526002820154811685840152825160a080820185526003840154831682526004808501548388015260058501548387015260068501546060848101919091526007860154608080860191909152818a0194909452865180880188526008870154861681526009870154818a0152848a015286518084018852600a87015486168152600b870154818a0152600c87015481890152600d87015481830152600e87015481860152838a0152600f86015460c0808b0191909152601087015460e0808c01919091526011880154610100808d019190915260128901546101208d015289518082018b5260138a015460ff8082161515835292810483161515828e015262010000810483161515828d015263010000008104831615159582019590955264010000000085048216151597810197909752600160281b84048116151595870195909552600160301b83048516151591860191909152600160381b90910490921615159183019190915261014087019190915260148301548216610160870152601590920154610180860152855483516375e5807960e01b8152935195975016949385936375e58079938084019391929190829003018186803b15801561148257600080fd5b505afa158015611496573d6000803e3d6000fd5b505050506040513d601f19601f820116820180604052508101906114ba9190615328565b90508260c001518760200151116116ac5760808301515160405163ac436bdf60e01b81526001600160a01b03918216600482015260009184169063ac436bdf9060240160206040518083038186803b15801561151557600080fd5b505afa158015611529573d6000803e3d6000fd5b505050506040513d601f19601f8201168201806040525081019061154d919061559d565b905064496cebb8008460c00151896020015161156991906158d5565b8286608001516020015161157d91906158b6565b61158791906158b6565b6115919190615894565b602085015160405163172c717b60e01b81526001600160a01b0391821660048201526024810183905291985083169063172c717b9060440160206040518083038186803b1580156115e157600080fd5b505afa1580156115f5573d6000803e3d6000fd5b505050506040513d601f19601f82011682018060405250810190611619919061559d565b96506000836001600160a01b03166358f858806040518163ffffffff1660e01b815260040160206040518083038186803b15801561165657600080fd5b505afa15801561166a573d6000803e3d6000fd5b505050506040513d601f19601f8201168201806040525081019061168e919061559d565b905061271061169d828a6158b6565b6116a79190615894565b965050505b50505050915091565b6000805460408051633a0df78d60e11b8152905183926001600160a01b0316918391839163741bef1a916004808301926020929190829003018186803b1580156116fe57600080fd5b505afa158015611712573d6000803e3d6000fd5b505050506040513d601f19601f820116820180604052508101906117369190615328565b90506000816001600160a01b031663aaf5eb686040518163ffffffff1660e01b815260040160206040518083038186803b15801561177357600080fd5b505afa158015611787573d6000803e3d6000fd5b505050506040513d601f19601f820116820180604052508101906117ab919061559d565b9050600080836001600160a01b031663e6c1436289602001518a604001516040518363ffffffff1660e01b81526004016117e6929190615662565b60206040518083038186803b1580156117fe57600080fd5b505afa158015611812573d6000803e3d6000fd5b505050506040513d601f19601f82011682018060405250810190611836919061559d565b90508281896080015161184991906158b6565b6118539190615894565b9150506000846001600160a01b0316636d2745536040518163ffffffff1660e01b815260040160206040518083038186803b15801561189157600080fd5b505afa1580156118a5573d6000803e3d6000fd5b505050506040513d601f19601f820116820180604052508101906118c9919061559d565b6020890151604051635ba2edab60e11b81526001600160a01b0391821660048201529192506000919087169063b745db569060240160206040518083038186803b15801561191657600080fd5b505afa15801561192a573d6000803e3d6000fd5b505050506040513d601f19601f8201168201806040525081019061194e919061559d565b60608a015160405163095bf1bb60e01b81526001600160a01b0391821660048201529192506000919088169063095bf1bb9060240160206040518083038186803b15801561199b57600080fd5b505afa1580156119af573d6000803e3d6000fd5b505050506040513d601f19601f820116820180604052508101906119d3919061559d565b60608b01516040808d01519051637360a1b160e11b81529293506000926001600160a01b038a169263e6c1436292611a0d92600401615662565b60206040518083038186803b158015611a2557600080fd5b505afa158015611a39573d6000803e3d6000fd5b505050506040513d601f19601f82011682018060405250810190611a5d919061559d565b9050600082611a6c85876158d5565b611a7690886158b6565b611a809190615894565b9050600082611a8f89846158b6565b611a999190615894565b9050808d60c001511015611abc575060009c8d9c509a5050505050505050505050565b5060009050611acd876127106158b6565b83838e60c00151611ade91906158b6565b611ae891906158b6565b611af29190615894565b9050612710611b0186886158b6565b611b0b9190615894565b9a50612710611b1a85886158b6565b611b249190615894565b611b2e908261587c565b9950505050505050505050915091565b6000546001600160a01b031615611b68576040516373e833b960e11b815260040160405180910390fd5b600080546001600160a01b0319166001600160a01b0392909216919091179055565b6000610a83826149b9565b60008054608083015151604051634d83bc3360e01b81526001600160a01b0391821660048201529116908190634d83bc339060240160206040518083038186803b158015611be257600080fd5b505afa158015611bf6573d6000803e3d6000fd5b505050506040513d601f19601f82011682018060405250810190611c1a9190615328565b6001600160a01b0316336001600160a01b031614611c4d5760405163a59d7f4d60e01b81523360048201526024016108ad565b6001546040516bffffffffffffffffffffffff193060601b16602082015260348101919091524260548201526074016040516020818303038152906040528051906020012091508183600001818152505060018390806001815401808255809150506001900390600052602060002090601602016000909190919091506000820151816000015560208201518160010160006101000a8154816001600160a01b0302191690836001600160a01b0316021790555060408201518160020160006101000a8154816001600160a01b0302191690836001600160a01b0316021790555060608201518160030160008201518160000160006101000a8154816001600160a01b0302191690836001600160a01b0316021790555060208201518160010155604082015181600201556060820151816003015560808201518160040155505060808201518160080160008201518160000160006101000a8154816001600160a01b0302191690836001600160a01b0316021790555060208201518160010155505060a082015181600a0160008201518160000160006101000a8154816001600160a01b0302191690836001600160a01b0316021790555060208201518160010155604082015181600201556060820151816003015560808201518160040155505060c082015181600f015560e08201518160100155610100820151816011015561012082015181601201556101408201518160130160008201518160000160006101000a81548160ff02191690831515021790555060208201518160000160016101000a81548160ff02191690831515021790555060408201518160000160026101000a81548160ff02191690831515021790555060608201518160000160036101000a81548160ff02191690831515021790555060808201518160000160046101000a81548160ff02191690831515021790555060a08201518160000160056101000a81548160ff02191690831515021790555060c08201518160000160066101000a81548160ff02191690831515021790555060e08201518160000160076101000a81548160ff02191690831515021790555050506101608201518160140160006101000a8154816001600160a01b0302191690836001600160a01b03160217905550610180820151816015015550506001805490506003600085600001518152602001908152602001600020819055506002836000015190806001815401808255809150506001900390600052602060002001600090919091909150556004600084602001516001600160a01b03166001600160a01b031681526020019081526020016000208360000151908060018154018082558091505060019003906000526020600020016000909190919091505582600001517f5fab80b8320f567319e4d7377f5305880481272b952242604af9f7f912af3bdb60405160405180910390a250919050565b80516000908152600360205260408120548190806120b15783516040516354ec2eeb60e01b815260048101919091526024016108ad565b600060016120bf81846158d5565b815481106120cf576120cf615902565b60009182526020822091546016919091029091016008810154604051634d83bc3360e01b81526001600160a01b039182166004820152919350909116908190634d83bc339060240160206040518083038186803b15801561212f57600080fd5b505afa158015612143573d6000803e3d6000fd5b505050506040513d601f19601f820116820180604052508101906121679190615328565b6001600160a01b0316336001600160a01b03161461219a5760405163a59d7f4d60e01b81523360048201526024016108ad565b601382015460ff16156121c6578551604051632a2af87d60e11b815260048101919091526024016108ad565b600182015460408701516001600160a01b039081169116146122105760018201546040808801519051631194af8760e11b81526108ad926001600160a01b03169190600401615662565b6000816001600160a01b031663741bef1a6040518163ffffffff1660e01b815260040160206040518083038186803b15801561224b57600080fd5b505afa15801561225f573d6000803e3d6000fd5b505050506040513d601f19601f820116820180604052508101906122839190615328565b90506000816001600160a01b031663aaf5eb686040518163ffffffff1660e01b815260040160206040518083038186803b1580156122c057600080fd5b505afa1580156122d4573d6000803e3d6000fd5b505050506040513d601f19601f820116820180604052508101906122f8919061559d565b600a85015460405163095bf1bb60e01b81526001600160a01b0391821660048201529192506000919085169063095bf1bb9060240160206040518083038186803b15801561234557600080fd5b505afa158015612359573d6000803e3d6000fd5b505050506040513d601f19601f8201168201806040525081019061237d919061559d565b90506000896020015186600a0160010154612398919061587c565b600a8701546008880154604051637360a1b160e11b815292935060009283926001600160a01b038981169363e6c14362936123dc9383169290911690600401615662565b60206040518083038186803b1580156123f457600080fd5b505afa158015612408573d6000803e3d6000fd5b505050506040513d601f19601f8201168201806040525081019061242c919061559d565b905061243a856127106158b6565b8461244583866158b6565b61244f91906158b6565b6124599190615894565b600a89015460405163017f783b60e61b81526001600160a01b03918216600482015291935060009250881690635fde0ec09060240160206040518083038186803b1580156124a657600080fd5b505afa1580156124ba573d6000803e3d6000fd5b505050506040513d601f19601f820116820180604052508101906124de919061559d565b90506124ea84846158b6565b856124f583856158b6565b6124ff91906158b6565b6125099190615894565b6003890154604051635ba2edab60e11b81526001600160a01b039182166004820152919c506000925088169063b745db569060240160206040518083038186803b15801561255657600080fd5b505afa15801561256a573d6000803e3d6000fd5b505050506040513d601f19601f8201168201806040525081019061258e919061559d565b600389015460405163f5d0e17560e01b81526001600160a01b0391821660048201529192506000919089169063f5d0e1759060240160206040518083038186803b1580156125db57600080fd5b505afa1580156125ef573d6000803e3d6000fd5b505050506040513d601f19601f82011682018060405250810190612613919061559d565b9050828960080160010154111561266f5760008282858c6008016001015461263b91906158d5565b61264591906158b6565b61264f9190615894565b60048b015490915061266188836158b6565b61266b9190615894565b9b50505b5050600d87018a9055600687018990558a516020808d01516040808f015181519283529282018e905281018c90526001600160a01b0390911660608201527f31c8ad1ea38b652c0e26ae4e5b255569097fbc4b46f45768030a16ee40f894df9060800160405180910390a25050505050505050915091565b60008481526003602052604090205480612717576040516354ec2eeb60e01b8152600481018690526024016108ad565b6000600161272581846158d5565b8154811061273557612735615902565b60009182526020822091546016919091029091016008810154604051634d83bc3360e01b81526001600160a01b039182166004820152919350909116908190634d83bc339060240160206040518083038186803b15801561279557600080fd5b505afa1580156127a9573d6000803e3d6000fd5b505050506040513d601f19601f820116820180604052508101906127cd9190615328565b6001600160a01b0316336001600160a01b0316146128005760405163a59d7f4d60e01b81523360048201526024016108ad565b601382015460ff1661282857604051635de41db760e11b8152600481018890526024016108ad565b6000816001600160a01b031663741bef1a6040518163ffffffff1660e01b815260040160206040518083038186803b15801561286357600080fd5b505afa158015612877573d6000803e3d6000fd5b505050506040513d601f19601f8201168201806040525081019061289b9190615328565b90506000816001600160a01b031663aaf5eb686040518163ffffffff1660e01b815260040160206040518083038186803b1580156128d857600080fd5b505afa1580156128ec573d6000803e3d6000fd5b505050506040513d601f19601f82011682018060405250810190612910919061559d565b6004850154909150612922828a6158b6565b61292c9190615894565b6007850155861561296857600b84015460009061294a9088906158d5565b905080612957838a6158b6565b6129619190615894565b600e860155505b505050505050505050565b6001818154811061298357600080fd5b90600052602060002090601602016000915090508060000154908060010160009054906101000a90046001600160a01b0316908060020160009054906101000a90046001600160a01b031690806003016040518060a00160405290816000820160009054906101000a90046001600160a01b03166001600160a01b03166001600160a01b0316815260200160018201548152602001600282015481526020016003820154815260200160048201548152505090806008016040518060400160405290816000820160009054906101000a90046001600160a01b03166001600160a01b03166001600160a01b031681526020016001820154815250509080600a016040518060a00160405290816000820160009054906101000a90046001600160a01b03166001600160a01b03166001600160a01b031681526020016001820154815260200160028201548152602001600382015481526020016004820154815250509080600f01549080601001549080601101549080601201549080601301604051806101000160405290816000820160009054906101000a900460ff161515151581526020016000820160019054906101000a900460ff161515151581526020016000820160029054906101000a900460ff161515151581526020016000820160039054906101000a900460ff161515151581526020016000820160049054906101000a900460ff161515151581526020016000820160059054906101000a900460ff161515151581526020016000820160069054906101000a900460ff161515151581526020016000820160079054906101000a900460ff161515151581525050908060140160009054906101000a90046001600160a01b031690806015015490508d565b60008281526003602052604090205480612c3a576040516354ec2eeb60e01b8152600481018490526024016108ad565b60006001612c4881846158d5565b81548110612c5857612c58615902565b60009182526020822091546016919091029091016008810154604051634d83bc3360e01b81526001600160a01b039182166004820152919350909116908190634d83bc339060240160206040518083038186803b158015612cb857600080fd5b505afa158015612ccc573d6000803e3d6000fd5b505050506040513d601f19601f82011682018060405250810190612cf09190615328565b6001600160a01b0316336001600160a01b031614612d235760405163a59d7f4d60e01b81523360048201526024016108ad565b601382015460ff1615612d4c57604051632a2af87d60e11b8152600481018690526024016108ad565b60018201546001600160a01b03858116911614612d8d576001820154604051631194af8760e11b81526108ad916001600160a01b0316908690600401615662565b60138201805465ff00000000ff1916650100000000011790556014820180546001600160a01b0319166001600160a01b03861690811790915560405190815285907f6a85bd8516bd8204e81aa2933301a26c59fc549b80ea554b8628afbcdf21e2c79060200160405180910390a25050505050565b612e0a614f68565b6000828152600360205260409020548015613005576001612e2b81836158d5565b81548110612e3b57612e3b615902565b6000918252602091829020604080516101a08101825260169093029091018054835260018101546001600160a01b03908116848601526002820154811684840152825160a080820185526003840154831682526004840154828801526005840154828601526006840154606083810191909152600785015460808085019190915281880193909352855180870187526008860154851681526009860154818a01528388015285518083018752600a86015485168152600b860154818a0152600c86015481880152600d86015481830152600e8601548185015282880152600f85015460c080890191909152601086015460e0808a01919091526011870154610100808b019190915260128801546101208b015288518082018a52601389015460ff80821615158352928104831615159c82019c909c52620100008c04821615159981019990995263010000008b0481161515938901939093526401000000008a048316151594880194909452600160281b89048216151592870192909252600160301b88048116151591860191909152600160381b909604909516151594830194909452610140830191909152601481015490921661016082015260159091015461018082015291505b50919050565b6000828152600360205260408120548061303b576040516354ec2eeb60e01b8152600481018590526024016108ad565b6000600161304981846158d5565b8154811061305957613059615902565b60009182526020822091546016919091029091016008810154604051634d83bc3360e01b81526001600160a01b039182166004820152919350909116908190634d83bc339060240160206040518083038186803b1580156130b957600080fd5b505afa1580156130cd573d6000803e3d6000fd5b505050506040513d601f19601f820116820180604052508101906130f19190615328565b6001600160a01b0316336001600160a01b0316146131245760405163a59d7f4d60e01b81523360048201526024016108ad565b601382015460ff161561314d57604051632a2af87d60e11b8152600481018790526024016108ad565b4282600f01541161316e5760138201805461ff001916610100179055600193505b6000816001600160a01b031663741bef1a6040518163ffffffff1660e01b815260040160206040518083038186803b1580156131a957600080fd5b505afa1580156131bd573d6000803e3d6000fd5b505050506040513d601f19601f820116820180604052508101906131e19190615328565b600a8401546008850154604051637360a1b160e11b81529293506000926001600160a01b038086169363e6c143629361322293918316921690600401615662565b60206040518083038186803b15801561323a57600080fd5b505afa15801561324e573d6000803e3d6000fd5b505050506040513d601f19601f82011682018060405250810190613272919061559d565b600d850154909150811161329c5760138401805464ff000000001916640100000000179055600195505b60038401546008850154604051637360a1b160e11b81526000926001600160a01b038681169363e6c14362936132db9383169290911690600401615662565b60206040518083038186803b1580156132f357600080fd5b505afa158015613307573d6000803e3d6000fd5b505050506040513d601f19601f8201168201806040525081019061332b919061559d565b905060008560100154118015613345575084601001548111155b156133625760138501805462ff0000191662010000179055600196505b600685015481116133875760138501805463ff00000019166301000000179055600196505b60018501546001600160a01b038981169116148015906133a5575086155b156133d4576001850154604051631194af8760e11b81526108ad916001600160a01b0316908a90600401615662565b60138501805460ff191660011790556014850180546001600160a01b038a166001600160a01b0319909116811790915560405190815289907f6a85bd8516bd8204e81aa2933301a26c59fc549b80ea554b8628afbcdf21e2c79060200160405180910390a250505050505092915050565b60008181526003602052604090205480613475576040516354ec2eeb60e01b8152600481018390526024016108ad565b6000600161348381846158d5565b8154811061349357613493615902565b60009182526020822091546016919091029091016008810154604051634d83bc3360e01b81526001600160a01b039182166004820152919350909116908190634d83bc339060240160206040518083038186803b1580156134f357600080fd5b505afa158015613507573d6000803e3d6000fd5b505050506040513d601f19601f8201168201806040525081019061352b9190615328565b6001600160a01b0316336001600160a01b03161461355e5760405163a59d7f4d60e01b81523360048201526024016108ad565b601382015460ff161561358757604051632a2af87d60e11b8152600481018590526024016108ad565b806001600160a01b031663eddf82bb6040518163ffffffff1660e01b815260040160206040518083038186803b1580156135c057600080fd5b505afa1580156135d4573d6000803e3d6000fd5b505050506040513d601f19601f820116820180604052508101906135f8919061559d565b8260150154613607919061587c565b42101561362a5760405163a2757e2760e01b8152600481018590526024016108ad565b60138201805466ff0000000000001916600160301b17905560405184907f0de9a071731ad64ea412c199b649f11ada453eb6c8b323fc0769345e62316a4990600090a250505050565b60006002828154811061368857613688615902565b90600052602060002001549050919050565b600081815260036020526040812054806136b75750600092915050565b6136c0836149b9565b80156136f9575060016136d381836158d5565b815481106136e3576136e3615902565b9060005260206000209060160201601501546000145b9392505050565b60008181526003602052604090205480613730576040516354ec2eeb60e01b8152600481018390526024016108ad565b6000600161373e81846158d5565b8154811061374e5761374e615902565b60009182526020822091546016919091029091016008810154604051634d83bc3360e01b81526001600160a01b039182166004820152919350909116908190634d83bc339060240160206040518083038186803b1580156137ae57600080fd5b505afa1580156137c2573d6000803e3d6000fd5b505050506040513d601f19601f820116820180604052508101906137e69190615328565b6001600160a01b0316336001600160a01b0316146138195760405163a59d7f4d60e01b81523360048201526024016108ad565b601382015460ff161561384257604051632a2af87d60e11b8152600481018590526024016108ad565b6013820154600160301b900460ff166138715760405163746d2b8160e01b8152600481018590526024016108ad565b60138201805467ff000000000000ff19166701000000000000011790556040516000815284907f6a85bd8516bd8204e81aa2933301a26c59fc549b80ea554b8628afbcdf21e2c790602001610a64565b6138c9614f68565b600182815481106138dc576138dc615902565b6000918252602091829020604080516101a08101825260169093029091018054835260018101546001600160a01b03908116848601526002820154811684840152825160a080820185526003840154831682526004840154828801526005840154828601526006840154606083810191909152600785015460808085019190915281880193909352855180870187526008860154851681526009860154818a01528388015285518083018752600a86015485168152600b860154818a0152600c86015481880152600d86015481830152600e8601548185015282880152600f85015460c080890191909152601086015460e0808a01919091526011870154610100808b019190915260128801546101208b015288518082018a52601389015460ff80821615158352928104831615159c82019c909c52620100008c04821615159981019990995263010000008b0481161515938901939093526401000000008a048316151594880194909452600160281b89048216151592870192909252600160301b88048116151591860191909152600160381b909604909516151594830194909452610140830191909152601481015490921661016082015260159091015461018082015292915050565b8051600090815260036020526040812054819080613ae05783516040516354ec2eeb60e01b815260048101919091526024016108ad565b60006001613aee81846158d5565b81548110613afe57613afe615902565b60009182526020822091546016919091029091016008810154604051634d83bc3360e01b81526001600160a01b039182166004820152919350909116908190634d83bc339060240160206040518083038186803b158015613b5e57600080fd5b505afa158015613b72573d6000803e3d6000fd5b505050506040513d601f19601f82011682018060405250810190613b969190615328565b6001600160a01b0316336001600160a01b031614613bc95760405163a59d7f4d60e01b81523360048201526024016108ad565b601382015460ff1615613bf5578551604051632a2af87d60e11b815260048101919091526024016108ad565b600182015460408701516001600160a01b03908116911614613c3f5760018201546040808801519051631194af8760e11b81526108ad926001600160a01b03169190600401615662565b6000816001600160a01b03166375e580796040518163ffffffff1660e01b815260040160206040518083038186803b158015613c7a57600080fd5b505afa158015613c8e573d6000803e3d6000fd5b505050506040513d601f19601f82011682018060405250810190613cb29190615328565b604080890151905163223884bf60e11b81526001600160a01b03918216600482015291925060009190831690634471097e9060240160206040518083038186803b158015613cff57600080fd5b505afa158015613d13573d6000803e3d6000fd5b505050506040513d601f19601f82011682018060405250810190613d379190615371565b905080613d6857604080890151905163fa5cd00f60e01b81526001600160a01b0390911660048201526024016108ad565b83600f0154886020015111613d9057604051630309cb8760e51b815260040160405180910390fd5b600884015460405163ac436bdf60e01b81526001600160a01b03918216600482015260009185169063ac436bdf9060240160206040518083038186803b158015613dd957600080fd5b505afa158015613ded573d6000803e3d6000fd5b505050506040513d601f19601f82011682018060405250810190613e11919061559d565b905064496cebb80085600f01548a60200151613e2d91906158d5565b6009870154613e3d9084906158b6565b613e4791906158b6565b613e519190615894565b600186015460405163172c717b60e01b81526001600160a01b0391821660048201526024810183905291995084169063172c717b9060440160206040518083038186803b158015613ea157600080fd5b505afa158015613eb5573d6000803e3d6000fd5b505050506040513d601f19601f82011682018060405250810190613ed9919061559d565b97506000846001600160a01b03166358f858806040518163ffffffff1660e01b815260040160206040518083038186803b158015613f1657600080fd5b505afa158015613f2a573d6000803e3d6000fd5b505050506040513d601f19601f82011682018060405250810190613f4e919061559d565b9050612710613f5d828b6158b6565b613f679190615894565b975088866008016001016000828254613f80919061587c565b9250508190555088866011016000828254613f9b919061587c565b9250508190555087866012016000828254613fb6919061587c565b909155505060208a810151600f88018190558b516040808e015181519384526001600160a01b031693830193909352917f058d0b7c2499b80403e5adabcc2c3565b19c921a6781e8d474d2bf925b51f21c910160405180910390a250505050505050915091565b614025614f68565b8160e0015142108015614052575081604001516001600160a01b031682602001516001600160a01b031614155b156149b4576000805460408051633a0df78d60e11b815290516001600160a01b039092169291839163741bef1a916004808301926020929190829003018186803b15801561409f57600080fd5b505afa1580156140b3573d6000803e3d6000fd5b505050506040513d601f19601f820116820180604052508101906140d79190615328565b90506000816001600160a01b031663aaf5eb686040518163ffffffff1660e01b815260040160206040518083038186803b15801561411457600080fd5b505afa158015614128573d6000803e3d6000fd5b505050506040513d601f19601f8201168201806040525081019061414c919061559d565b9050600080836001600160a01b031663e6c14362886020015189604001516040518363ffffffff1660e01b8152600401614187929190615662565b60206040518083038186803b15801561419f57600080fd5b505afa1580156141b3573d6000803e3d6000fd5b505050506040513d601f19601f820116820180604052508101906141d7919061559d565b90506141e38782614de6565b9550828188608001516141f691906158b6565b6142009190615894565b9150506000846001600160a01b0316636d2745536040518163ffffffff1660e01b815260040160206040518083038186803b15801561423e57600080fd5b505afa158015614252573d6000803e3d6000fd5b505050506040513d601f19601f82011682018060405250810190614276919061559d565b6020880151604051635ba2edab60e11b81526001600160a01b0391821660048201529192506000919087169063b745db569060240160206040518083038186803b1580156142c357600080fd5b505afa1580156142d7573d6000803e3d6000fd5b505050506040513d601f19601f820116820180604052508101906142fb919061559d565b606089015160405163095bf1bb60e01b81526001600160a01b0391821660048201529192506000919088169063095bf1bb9060240160206040518083038186803b15801561434857600080fd5b505afa15801561435c573d6000803e3d6000fd5b505050506040513d601f19601f82011682018060405250810190614380919061559d565b60608a01516040808c01519051637360a1b160e11b81529293506000926001600160a01b038a169263e6c14362926143ba92600401615662565b60206040518083038186803b1580156143d257600080fd5b505afa1580156143e6573d6000803e3d6000fd5b505050506040513d601f19601f8201168201806040525081019061440a919061559d565b905060008261441985876158d5565b61442390886158b6565b61442d9190615894565b905060008261443c89846158b6565b6144469190615894565b9050808c60c0015110156144635750505050505050505050919050565b5060009050614474876127106158b6565b83838d60c0015161448591906158b6565b61448f91906158b6565b6144999190615894565b905060006127106144aa87896158b6565b6144b49190615894565b905060006127106144c5878a6158b6565b6144cf9190615894565b6144d9908461587c565b9050808d60a0015111806144f05750818d60a00151105b15614505575050505050505050505050919050565b505060a08a0151604090810183905260608c0151905163017f783b60e61b81526001600160a01b0391821660048201526000918b1690635fde0ec09060240160206040518083038186803b15801561455c57600080fd5b505afa158015614570573d6000803e3d6000fd5b505050506040513d601f19601f82011682018060405250810190614594919061559d565b9050838c60c001516145a691906158b6565b886145b183856158b6565b6145bb91906158b6565b6145c59190615894565b60a08c0151606001525060208b015160405163f5d0e17560e01b81526001600160a01b0391821660048201526000918b169063f5d0e1759060240160206040518083038186803b15801561461857600080fd5b505afa15801561462c573d6000803e3d6000fd5b505050506040513d601f19601f82011682018060405250810190614650919061559d565b9050818c60a0015111156146c35760008582848f60a0015161467291906158d5565b61467c91906158b6565b6146869190615894565b9050808810156146a0575050505050505050505050919050565b60808d01516146af8a836158b6565b6146b99190615894565b6060808e01510152505b5060408b810151905163ac436bdf60e01b81526001600160a01b0391821660048201526000918b169063ac436bdf9060240160206040518083038186803b15801561470d57600080fd5b505afa158015614721573d6000803e3d6000fd5b505050506040513d601f19601f82011682018060405250810190614745919061559d565b9050600064496cebb800428e60e0015161475f91906158d5565b838f60a0015161476f91906158b6565b61477991906158b6565b6147839190615894565b905060008b6001600160a01b03166375e580796040518163ffffffff1660e01b815260040160206040518083038186803b1580156147c057600080fd5b505afa1580156147d4573d6000803e3d6000fd5b505050506040513d601f19601f820116820180604052508101906147f89190615328565b8e5160405163172c717b60e01b81526001600160a01b0391821660048201526024810185905291925082169063172c717b9060440160206040518083038186803b15801561484557600080fd5b505afa158015614859573d6000803e3d6000fd5b505050506040513d601f19601f8201168201806040525081019061487d919061559d565b915060008c6001600160a01b03166358f858806040518163ffffffff1660e01b815260040160206040518083038186803b1580156148ba57600080fd5b505afa1580156148ce573d6000803e3d6000fd5b505050506040513d601f19601f820116820180604052508101906148f2919061559d565b6101008f01849052905061271061490982856158b6565b6149139190615894565b6101208f01525050505060408b8101519051634d83bc3360e01b81526001600160a01b039182166004820152908a1690634d83bc339060240160206040518083038186803b15801561496457600080fd5b505afa158015614978573d6000803e3d6000fd5b505050506040513d601f19601f8201168201806040525081019061499c9190615328565b6001600160a01b031660408b01525050505050505050505b919050565b600081815260036020526040812054806149d65750600092915050565b600060016149e481846158d5565b815481106149f4576149f4615902565b6000918252602091829020604080516101a08101825260169093029091018054835260018101546001600160a01b03908116848601526002820154811684840152825160a080820185526003840154831682526004840154828801526005840154828601526006840154606083810191909152600785015460808085019190915281880193909352855180870187526008860154851681526009860154818a01528388015285518083018752600a86015485168152600b860154818a0152600c86015481880152600d86015481830152600e8601548185015282880152600f85015460c080890191909152601086015460e0808a01919091526011870154610100808b019190915260128801546101208b015288518082018a52601389015460ff80821615158352928104831615159c82019c909c52620100008c04821615159981019990995263010000008b0481161515938901939093526401000000008a048316151594880194909452600160281b89048216151592870192909252600160301b88048116151591860191909152600160381b90960490951615159483019490945261014083018290526014810154909316610160830152601590920154610180820152905190915015614bce575060009392505050565b428160c0015111614be3575060019392505050565b6000805460408051633a0df78d60e11b815290516001600160a01b039092169291839163741bef1a916004808301926020929190829003018186803b158015614c2b57600080fd5b505afa158015614c3f573d6000803e3d6000fd5b505050506040513d601f19601f82011682018060405250810190614c639190615328565b60a084015151608085015151604051637360a1b160e11b81529293506000926001600160a01b0385169263e6c1436292614c9f92600401615662565b60206040518083038186803b158015614cb757600080fd5b505afa158015614ccb573d6000803e3d6000fd5b505050506040513d601f19601f82011682018060405250810190614cef919061559d565b90508360a00151606001518111614d0d575060019695505050505050565b606084015151608085015151604051637360a1b160e11b81526000926001600160a01b0386169263e6c1436292614d48929190600401615662565b60206040518083038186803b158015614d6057600080fd5b505afa158015614d74573d6000803e3d6000fd5b505050506040513d601f19601f82011682018060405250810190614d98919061559d565b905060008560e00151118015614db257508460e001518111155b80614dc557508460600151606001518111155b15614dd857506001979650505050505050565b506000979650505050505050565b614dee614f68565b604051806101a001604052806000801916815260200184600001516001600160a01b0316815260200160006001600160a01b031681526020016040518060a0016040528086602001516001600160a01b03168152602001866080015181526020018581526020016000815260200160008152508152602001604051806040016040528086604001516001600160a01b031681526020018660a0015181525081526020016040518060a0016040528086606001516001600160a01b031681526020018660c0015181526020016000815260200160008152602001600081525081526020018460e0015181526020018461010001518152602001600081526020016000815260200160405180610100016040528060001515815260200160001515815260200160001515815260200160001515815260200160001515815260200160001515815260200160001515815260200160001515815250815260200160006001600160a01b031681526020016000815250905092915050565b604051806101a001604052806000801916815260200160006001600160a01b0316815260200160006001600160a01b03168152602001614fd96040518060a0016040528060006001600160a01b03168152602001600081526020016000815260200160008152602001600081525090565b8152602001615004604051806040016040528060006001600160a01b03168152602001600081525090565b81526020016150446040518060a0016040528060006001600160a01b03168152602001600081526020016000815260200160008152602001600081525090565b8152600060208083018290526040808401839052606080850184905260808086018590528251610100810184528581529384018590529183018490528201839052810182905260a081810183905260c0820183905260e0820192909252910190815260006020820181905260409091015290565b80356149b481615918565b80356149b481615930565b600060a082840312156150e057600080fd5b60405160a0810181811067ffffffffffffffff8211171561511157634e487b7160e01b600052604160045260246000fd5b604052905080823561512281615918565b80825250602083013560208201526040830135604082015260608301356060820152608083013560808201525092915050565b60006040828403121561516757600080fd5b6040516040810181811067ffffffffffffffff8211171561519857634e487b7160e01b600052604160045260246000fd5b60405290508082356151a981615918565b8152602092830135920191909152919050565b60006101008083850312156151d057600080fd5b6040519081019067ffffffffffffffff8211818310171561520157634e487b7160e01b600052604160045260246000fd5b816040528092508335915061521582615930565b818152615224602085016150c3565b6020820152615235604085016150c3565b6040820152615246606085016150c3565b6060820152615257608085016150c3565b608082015261526860a085016150c3565b60a082015261527960c085016150c3565b60c082015261528a60e085016150c3565b60e0820152505092915050565b6000606082840312156152a957600080fd5b6040516060810181811067ffffffffffffffff821117156152da57634e487b7160e01b600052604160045260246000fd5b8060405250809150823581526020830135602082015260408301356152fe81615918565b6040919091015292915050565b60006020828403121561531d57600080fd5b81356136f981615918565b60006020828403121561533a57600080fd5b81516136f981615918565b6000806040838503121561535857600080fd5b823561536381615918565b946020939093013593505050565b60006020828403121561538357600080fd5b81516136f981615930565b6000602082840312156153a057600080fd5b5035919050565b600080604083850312156153ba57600080fd5b8235915060208301356153cc81615918565b809150509250929050565b600080600080608085870312156153ed57600080fd5b5050823594602084013594506040840135936060013592509050565b6000610120828403121561541c57600080fd5b615424615812565b61542d836150b8565b815261543b602084016150b8565b602082015261544c604084016150b8565b604082015261545d606084016150b8565b60608201526080830135608082015260a083013560a082015260c083013560c082015260e083013560e08201526101008084013581830152508091505092915050565b60006103a082840312156154b357600080fd5b6154bb61584a565b823581526154cb602084016150b8565b60208201526154dc604084016150b8565b60408201526154ee84606085016150ce565b606082015261010061550285828601615155565b6080830152610140615516868287016150ce565b60a08401526101e085013560c084015261020085013560e0840152610220850135828401526102408501356101208401526155558661026087016151bc565b908301525061556761036084016150b8565b610160820152610380929092013561018083015250919050565b60006060828403121561559357600080fd5b6136f98383615297565b6000602082840312156155af57600080fd5b5051919050565b80516001600160a01b03168252602080820151908301526040808201519083015260608082015190830152608090810151910152565b80511515825260208101511515602083015260408101511515604083015260608101511515606083015260808101511515608083015260a081015161563560a084018215159052565b5060c081015161564960c084018215159052565b5060e081015161565d60e084018215159052565b505050565b6001600160a01b0392831681529116602082015260400190565b8d81526001600160a01b038d811660208301528c811660408301526103a08201906156aa606084018e6155b6565b8b516001600160a01b031661010084015260208c01516101208401526156d461014084018c6155b6565b896101e08401528861020084015287610220840152866102408401526156fe6102608401876155ec565b9390931661036082015261038001529b9a5050505050505050505050565b815181526020808301516103a0830191615740908401826001600160a01b03169052565b50604083015161575b60408401826001600160a01b03169052565b50606083015161576e60608401826155b6565b5060808301516101006157968185018380516001600160a01b03168252602090810151910152565b60a085015191506101406157ac818601846155b6565b60c08601516101e086015260e08601516102008601529085015161022085015261012085015161024085015284015190506157eb6102608401826155ec565b506101608301516001600160a01b0316610360830152610180909201516103809091015290565b604051610120810167ffffffffffffffff8111828210171561584457634e487b7160e01b600052604160045260246000fd5b60405290565b6040516101a0810167ffffffffffffffff8111828210171561584457634e487b7160e01b600052604160045260246000fd5b6000821982111561588f5761588f6158ec565b500190565b6000826158b157634e487b7160e01b600052601260045260246000fd5b500490565b60008160001904831182151516156158d0576158d06158ec565b500290565b6000828210156158e7576158e76158ec565b500390565b634e487b7160e01b600052601160045260246000fd5b634e487b7160e01b600052603260045260246000fd5b6001600160a01b038116811461592d57600080fd5b50565b801515811461592d57600080fdfea264697066735822122026179983044c0991f1e9d4ef02c05f840cc7ba042bcaf4d992e046216c59fb6d64736f6c63430008070033","opcodes":"PUSH1 0x80 PUSH1 0x40 MSTORE CALLVALUE DUP1 ISZERO PUSH2 0x10 JUMPI PUSH1 0x0 DUP1 REVERT JUMPDEST POP PUSH2 0x5974 DUP1 PUSH3 0x21 PUSH1 0x0 CODECOPY PUSH1 0x0 RETURN INVALID PUSH1 0x80 PUSH1 0x40 MSTORE CALLVALUE DUP1 ISZERO PUSH2 0x10 JUMPI PUSH1 0x0 DUP1 REVERT JUMPDEST POP PUSH1 0x4 CALLDATASIZE LT PUSH2 0x1CF JUMPI PUSH1 0x0 CALLDATALOAD PUSH1 0xE0 SHR DUP1 PUSH4 0x8B029D61 GT PUSH2 0x104 JUMPI DUP1 PUSH4 0xC45A0155 GT PUSH2 0xA2 JUMPI DUP1 PUSH4 0xF71139F7 GT PUSH2 0x71 JUMPI DUP1 PUSH4 0xF71139F7 EQ PUSH2 0x427 JUMPI DUP1 PUSH4 0xF7A5F254 EQ PUSH2 0x43A JUMPI DUP1 PUSH4 0xF7A95A9E EQ PUSH2 0x45A JUMPI DUP1 PUSH4 0xFC9FFE10 EQ PUSH2 0x46D JUMPI PUSH1 0x0 DUP1 REVERT JUMPDEST DUP1 PUSH4 0xC45A0155 EQ PUSH2 0x3AD JUMPI DUP1 PUSH4 0xDA23479F EQ PUSH2 0x3D8 JUMPI DUP1 PUSH4 0xDBD99A13 EQ PUSH2 0x3EB JUMPI DUP1 PUSH4 0xE5944F01 EQ PUSH2 0x414 JUMPI PUSH1 0x0 DUP1 REVERT JUMPDEST DUP1 PUSH4 0xA0D5D126 GT PUSH2 0xDE JUMPI DUP1 PUSH4 0xA0D5D126 EQ PUSH2 0x36C JUMPI DUP1 PUSH4 0xA827ACF5 EQ PUSH2 0x37F JUMPI DUP1 PUSH4 0xAC00B674 EQ PUSH2 0x387 JUMPI DUP1 PUSH4 0xB008C058 EQ PUSH2 0x39A JUMPI PUSH1 0x0 DUP1 REVERT JUMPDEST DUP1 PUSH4 0x8B029D61 EQ PUSH2 0x31A JUMPI DUP1 PUSH4 0x99FBAB88 EQ PUSH2 0x32D JUMPI DUP1 PUSH4 0x9A102341 EQ PUSH2 0x359 JUMPI PUSH1 0x0 DUP1 REVERT JUMPDEST DUP1 PUSH4 0x4F26F457 GT PUSH2 0x171 JUMPI DUP1 PUSH4 0x5BB47808 GT PUSH2 0x14B JUMPI DUP1 PUSH4 0x5BB47808 EQ PUSH2 0x2BE JUMPI DUP1 PUSH4 0x61BA1508 EQ PUSH2 0x2D1 JUMPI DUP1 PUSH4 0x64B88AC5 EQ PUSH2 0x2F4 JUMPI DUP1 PUSH4 0x7C08DDC9 EQ PUSH2 0x307 JUMPI PUSH1 0x0 DUP1 REVERT JUMPDEST DUP1 PUSH4 0x4F26F457 EQ PUSH2 0x290 JUMPI DUP1 PUSH4 0x539826A6 EQ PUSH2 0x2A3 JUMPI DUP1 PUSH4 0x558EA854 EQ PUSH2 0x2AB JUMPI PUSH1 0x0 DUP1 REVERT JUMPDEST DUP1 PUSH4 0x2FB817FC GT PUSH2 0x1AD JUMPI DUP1 PUSH4 0x2FB817FC EQ PUSH2 0x22F JUMPI DUP1 PUSH4 0x302D6092 EQ PUSH2 0x242 JUMPI DUP1 PUSH4 0x37F36864 EQ PUSH2 0x255 JUMPI DUP1 PUSH4 0x49A4D1D1 EQ PUSH2 0x27D JUMPI PUSH1 0x0 DUP1 REVERT JUMPDEST DUP1 PUSH4 0x771E3A3 EQ PUSH2 0x1D4 JUMPI DUP1 PUSH4 0x1636E199 EQ PUSH2 0x1FA JUMPI DUP1 PUSH4 0x1A37982D EQ PUSH2 0x20F JUMPI JUMPDEST PUSH1 0x0 DUP1 REVERT JUMPDEST PUSH2 0x1E7 PUSH2 0x1E2 CALLDATASIZE PUSH1 0x4 PUSH2 0x5409 JUMP JUMPDEST PUSH2 0x480 JUMP JUMPDEST PUSH1 0x40 MLOAD SWAP1 DUP2 MSTORE PUSH1 0x20 ADD JUMPDEST PUSH1 0x40 MLOAD DUP1 SWAP2 SUB SWAP1 RETURN JUMPDEST PUSH2 0x20D PUSH2 0x208 CALLDATASIZE PUSH1 0x4 PUSH2 0x5581 JUMP JUMPDEST PUSH2 0x87C JUMP JUMPDEST STOP JUMPDEST PUSH2 0x222 PUSH2 0x21D CALLDATASIZE PUSH1 0x4 PUSH2 0x5409 JUMP JUMPDEST PUSH2 0xA72 JUMP JUMPDEST PUSH1 0x40 MLOAD PUSH2 0x1F1 SWAP2 SWAP1 PUSH2 0x571C JUMP JUMPDEST PUSH2 0x1E7 PUSH2 0x23D CALLDATASIZE PUSH1 0x4 PUSH2 0x5345 JUMP JUMPDEST PUSH2 0xA89 JUMP JUMPDEST PUSH2 0x1E7 PUSH2 0x250 CALLDATASIZE PUSH1 0x4 PUSH2 0x538E JUMP JUMPDEST PUSH2 0xAC6 JUMP JUMPDEST PUSH2 0x268 PUSH2 0x263 CALLDATASIZE PUSH1 0x4 PUSH2 0x5581 JUMP JUMPDEST PUSH2 0xAE7 JUMP JUMPDEST PUSH1 0x40 DUP1 MLOAD SWAP3 DUP4 MSTORE PUSH1 0x20 DUP4 ADD SWAP2 SWAP1 SWAP2 MSTORE ADD PUSH2 0x1F1 JUMP JUMPDEST PUSH2 0x20D PUSH2 0x28B CALLDATASIZE PUSH1 0x4 PUSH2 0x538E JUMP JUMPDEST PUSH2 0x1153 JUMP JUMPDEST PUSH2 0x268 PUSH2 0x29E CALLDATASIZE PUSH1 0x4 PUSH2 0x5581 JUMP JUMPDEST PUSH2 0x1251 JUMP JUMPDEST PUSH1 0x1 SLOAD PUSH2 0x1E7 JUMP JUMPDEST PUSH2 0x268 PUSH2 0x2B9 CALLDATASIZE PUSH1 0x4 PUSH2 0x5409 JUMP JUMPDEST PUSH2 0x16B5 JUMP JUMPDEST PUSH2 0x20D PUSH2 0x2CC CALLDATASIZE PUSH1 0x4 PUSH2 0x530B JUMP JUMPDEST PUSH2 0x1B3E JUMP JUMPDEST PUSH2 0x2E4 PUSH2 0x2DF CALLDATASIZE PUSH1 0x4 PUSH2 0x538E JUMP JUMPDEST PUSH2 0x1B8A JUMP JUMPDEST PUSH1 0x40 MLOAD SWAP1 ISZERO ISZERO DUP2 MSTORE PUSH1 0x20 ADD PUSH2 0x1F1 JUMP JUMPDEST PUSH2 0x1E7 PUSH2 0x302 CALLDATASIZE PUSH1 0x4 PUSH2 0x54A0 JUMP JUMPDEST PUSH2 0x1B95 JUMP JUMPDEST PUSH2 0x268 PUSH2 0x315 CALLDATASIZE PUSH1 0x4 PUSH2 0x5581 JUMP JUMPDEST PUSH2 0x207A JUMP JUMPDEST PUSH2 0x20D PUSH2 0x328 CALLDATASIZE PUSH1 0x4 PUSH2 0x53D7 JUMP JUMPDEST PUSH2 0x26E7 JUMP JUMPDEST PUSH2 0x340 PUSH2 0x33B CALLDATASIZE PUSH1 0x4 PUSH2 0x538E JUMP JUMPDEST PUSH2 0x2973 JUMP JUMPDEST PUSH1 0x40 MLOAD PUSH2 0x1F1 SWAP14 SWAP13 SWAP12 SWAP11 SWAP10 SWAP9 SWAP8 SWAP7 SWAP6 SWAP5 SWAP4 SWAP3 SWAP2 SWAP1 PUSH2 0x567C JUMP JUMPDEST PUSH2 0x20D PUSH2 0x367 CALLDATASIZE PUSH1 0x4 PUSH2 0x53A7 JUMP JUMPDEST PUSH2 0x2C0A JUMP JUMPDEST PUSH2 0x222 PUSH2 0x37A CALLDATASIZE PUSH1 0x4 PUSH2 0x538E JUMP JUMPDEST PUSH2 0x2E02 JUMP JUMPDEST PUSH1 0x2 SLOAD PUSH2 0x1E7 JUMP JUMPDEST PUSH2 0x2E4 PUSH2 0x395 CALLDATASIZE PUSH1 0x4 PUSH2 0x53A7 JUMP JUMPDEST PUSH2 0x300B JUMP JUMPDEST PUSH2 0x20D PUSH2 0x3A8 CALLDATASIZE PUSH1 0x4 PUSH2 0x538E JUMP JUMPDEST PUSH2 0x3445 JUMP JUMPDEST PUSH1 0x0 SLOAD PUSH2 0x3C0 SWAP1 PUSH1 0x1 PUSH1 0x1 PUSH1 0xA0 SHL SUB AND DUP2 JUMP JUMPDEST PUSH1 0x40 MLOAD PUSH1 0x1 PUSH1 0x1 PUSH1 0xA0 SHL SUB SWAP1 SWAP2 AND DUP2 MSTORE PUSH1 0x20 ADD PUSH2 0x1F1 JUMP JUMPDEST PUSH2 0x1E7 PUSH2 0x3E6 CALLDATASIZE PUSH1 0x4 PUSH2 0x538E JUMP JUMPDEST PUSH2 0x3673 JUMP JUMPDEST PUSH2 0x1E7 PUSH2 0x3F9 CALLDATASIZE PUSH1 0x4 PUSH2 0x530B JUMP JUMPDEST PUSH1 0x1 PUSH1 0x1 PUSH1 0xA0 SHL SUB AND PUSH1 0x0 SWAP1 DUP2 MSTORE PUSH1 0x4 PUSH1 0x20 MSTORE PUSH1 0x40 SWAP1 KECCAK256 SLOAD SWAP1 JUMP JUMPDEST PUSH2 0x2E4 PUSH2 0x422 CALLDATASIZE PUSH1 0x4 PUSH2 0x538E JUMP JUMPDEST PUSH2 0x369A JUMP JUMPDEST PUSH2 0x20D PUSH2 0x435 CALLDATASIZE PUSH1 0x4 PUSH2 0x538E JUMP JUMPDEST PUSH2 0x3700 JUMP JUMPDEST PUSH2 0x1E7 PUSH2 0x448 CALLDATASIZE PUSH1 0x4 PUSH2 0x538E JUMP JUMPDEST PUSH1 0x3 PUSH1 0x20 MSTORE PUSH1 0x0 SWAP1 DUP2 MSTORE PUSH1 0x40 SWAP1 KECCAK256 SLOAD DUP2 JUMP JUMPDEST PUSH2 0x222 PUSH2 0x468 CALLDATASIZE PUSH1 0x4 PUSH2 0x538E JUMP JUMPDEST PUSH2 0x38C1 JUMP JUMPDEST PUSH2 0x268 PUSH2 0x47B CALLDATASIZE PUSH1 0x4 PUSH2 0x5581 JUMP JUMPDEST PUSH2 0x3AA9 JUMP JUMPDEST PUSH1 0x0 DUP1 PUSH1 0x0 DUP1 SLOAD SWAP1 PUSH2 0x100 EXP SWAP1 DIV PUSH1 0x1 PUSH1 0x1 PUSH1 0xA0 SHL SUB AND SWAP1 POP PUSH1 0x0 DUP2 PUSH1 0x1 PUSH1 0x1 PUSH1 0xA0 SHL SUB AND PUSH4 0x741BEF1A PUSH1 0x40 MLOAD DUP2 PUSH4 0xFFFFFFFF AND PUSH1 0xE0 SHL DUP2 MSTORE PUSH1 0x4 ADD PUSH1 0x20 PUSH1 0x40 MLOAD DUP1 DUP4 SUB DUP2 DUP7 DUP1 EXTCODESIZE ISZERO DUP1 ISZERO PUSH2 0x4D4 JUMPI PUSH1 0x0 DUP1 REVERT JUMPDEST POP GAS STATICCALL ISZERO DUP1 ISZERO PUSH2 0x4E8 JUMPI RETURNDATASIZE PUSH1 0x0 DUP1 RETURNDATACOPY RETURNDATASIZE PUSH1 0x0 REVERT JUMPDEST POP POP POP POP PUSH1 0x40 MLOAD RETURNDATASIZE PUSH1 0x1F NOT PUSH1 0x1F DUP3 ADD AND DUP3 ADD DUP1 PUSH1 0x40 MSTORE POP DUP2 ADD SWAP1 PUSH2 0x50C SWAP2 SWAP1 PUSH2 0x5328 JUMP JUMPDEST SWAP1 POP PUSH1 0x0 DUP2 PUSH1 0x1 PUSH1 0x1 PUSH1 0xA0 SHL SUB AND PUSH4 0xAAF5EB68 PUSH1 0x40 MLOAD DUP2 PUSH4 0xFFFFFFFF AND PUSH1 0xE0 SHL DUP2 MSTORE PUSH1 0x4 ADD PUSH1 0x20 PUSH1 0x40 MLOAD DUP1 DUP4 SUB DUP2 DUP7 DUP1 EXTCODESIZE ISZERO DUP1 ISZERO PUSH2 0x549 JUMPI PUSH1 0x0 DUP1 REVERT JUMPDEST POP GAS STATICCALL ISZERO DUP1 ISZERO PUSH2 0x55D JUMPI RETURNDATASIZE PUSH1 0x0 DUP1 RETURNDATACOPY RETURNDATASIZE PUSH1 0x0 REVERT JUMPDEST POP POP POP POP PUSH1 0x40 MLOAD RETURNDATASIZE PUSH1 0x1F NOT PUSH1 0x1F DUP3 ADD AND DUP3 ADD DUP1 PUSH1 0x40 MSTORE POP DUP2 ADD SWAP1 PUSH2 0x581 SWAP2 SWAP1 PUSH2 0x559D JUMP JUMPDEST SWAP1 POP PUSH1 0x0 DUP1 DUP4 PUSH1 0x1 PUSH1 0x1 PUSH1 0xA0 SHL SUB AND PUSH4 0xE6C14362 DUP9 PUSH1 0x20 ADD MLOAD DUP10 PUSH1 0x40 ADD MLOAD PUSH1 0x40 MLOAD DUP4 PUSH4 0xFFFFFFFF AND PUSH1 0xE0 SHL DUP2 MSTORE PUSH1 0x4 ADD PUSH2 0x5BC SWAP3 SWAP2 SWAP1 PUSH2 0x5662 JUMP JUMPDEST PUSH1 0x20 PUSH1 0x40 MLOAD DUP1 DUP4 SUB DUP2 DUP7 DUP1 EXTCODESIZE ISZERO DUP1 ISZERO PUSH2 0x5D4 JUMPI PUSH1 0x0 DUP1 REVERT JUMPDEST POP GAS STATICCALL ISZERO DUP1 ISZERO PUSH2 0x5E8 JUMPI RETURNDATASIZE PUSH1 0x0 DUP1 RETURNDATACOPY RETURNDATASIZE PUSH1 0x0 REVERT JUMPDEST POP POP POP POP PUSH1 0x40 MLOAD RETURNDATASIZE PUSH1 0x1F NOT PUSH1 0x1F DUP3 ADD AND DUP3 ADD DUP1 PUSH1 0x40 MSTORE POP DUP2 ADD SWAP1 PUSH2 0x60C SWAP2 SWAP1 PUSH2 0x559D JUMP JUMPDEST SWAP1 POP DUP3 DUP2 DUP9 PUSH1 0x80 ADD MLOAD PUSH2 0x61F SWAP2 SWAP1 PUSH2 0x58B6 JUMP JUMPDEST PUSH2 0x629 SWAP2 SWAP1 PUSH2 0x5894 JUMP JUMPDEST SWAP2 POP POP PUSH1 0x0 DUP5 PUSH1 0x1 PUSH1 0x1 PUSH1 0xA0 SHL SUB AND PUSH4 0x6D274553 PUSH1 0x40 MLOAD DUP2 PUSH4 0xFFFFFFFF AND PUSH1 0xE0 SHL DUP2 MSTORE PUSH1 0x4 ADD PUSH1 0x20 PUSH1 0x40 MLOAD DUP1 DUP4 SUB DUP2 DUP7 DUP1 EXTCODESIZE ISZERO DUP1 ISZERO PUSH2 0x667 JUMPI PUSH1 0x0 DUP1 REVERT JUMPDEST POP GAS STATICCALL ISZERO DUP1 ISZERO PUSH2 0x67B JUMPI RETURNDATASIZE PUSH1 0x0 DUP1 RETURNDATACOPY RETURNDATASIZE PUSH1 0x0 REVERT JUMPDEST POP POP POP POP PUSH1 0x40 MLOAD RETURNDATASIZE PUSH1 0x1F NOT PUSH1 0x1F DUP3 ADD AND DUP3 ADD DUP1 PUSH1 0x40 MSTORE POP DUP2 ADD SWAP1 PUSH2 0x69F SWAP2 SWAP1 PUSH2 0x559D JUMP JUMPDEST PUSH1 0x20 DUP9 ADD MLOAD PUSH1 0x40 MLOAD PUSH4 0x5BA2EDAB PUSH1 0xE1 SHL DUP2 MSTORE PUSH1 0x1 PUSH1 0x1 PUSH1 0xA0 SHL SUB SWAP2 DUP3 AND PUSH1 0x4 DUP3 ADD MSTORE SWAP2 SWAP3 POP PUSH1 0x0 SWAP2 SWAP1 DUP8 AND SWAP1 PUSH4 0xB745DB56 SWAP1 PUSH1 0x24 ADD PUSH1 0x20 PUSH1 0x40 MLOAD DUP1 DUP4 SUB DUP2 DUP7 DUP1 EXTCODESIZE ISZERO DUP1 ISZERO PUSH2 0x6EC JUMPI PUSH1 0x0 DUP1 REVERT JUMPDEST POP GAS STATICCALL ISZERO DUP1 ISZERO PUSH2 0x700 JUMPI RETURNDATASIZE PUSH1 0x0 DUP1 RETURNDATACOPY RETURNDATASIZE PUSH1 0x0 REVERT JUMPDEST POP POP POP POP PUSH1 0x40 MLOAD RETURNDATASIZE PUSH1 0x1F NOT PUSH1 0x1F DUP3 ADD AND DUP3 ADD DUP1 PUSH1 0x40 MSTORE POP DUP2 ADD SWAP1 PUSH2 0x724 SWAP2 SWAP1 PUSH2 0x559D JUMP JUMPDEST PUSH1 0x60 DUP10 ADD MLOAD PUSH1 0x40 MLOAD PUSH4 0x95BF1BB PUSH1 0xE0 SHL DUP2 MSTORE PUSH1 0x1 PUSH1 0x1 PUSH1 0xA0 SHL SUB SWAP2 DUP3 AND PUSH1 0x4 DUP3 ADD MSTORE SWAP2 SWAP3 POP PUSH1 0x0 SWAP2 SWAP1 DUP9 AND SWAP1 PUSH4 0x95BF1BB SWAP1 PUSH1 0x24 ADD PUSH1 0x20 PUSH1 0x40 MLOAD DUP1 DUP4 SUB DUP2 DUP7 DUP1 EXTCODESIZE ISZERO DUP1 ISZERO PUSH2 0x771 JUMPI PUSH1 0x0 DUP1 REVERT JUMPDEST POP GAS STATICCALL ISZERO DUP1 ISZERO PUSH2 0x785 JUMPI RETURNDATASIZE PUSH1 0x0 DUP1 RETURNDATACOPY RETURNDATASIZE PUSH1 0x0 REVERT JUMPDEST POP POP POP POP PUSH1 0x40 MLOAD RETURNDATASIZE PUSH1 0x1F NOT PUSH1 0x1F DUP3 ADD AND DUP3 ADD DUP1 PUSH1 0x40 MSTORE POP DUP2 ADD SWAP1 PUSH2 0x7A9 SWAP2 SWAP1 PUSH2 0x559D JUMP JUMPDEST SWAP1 POP PUSH1 0x0 DUP2 PUSH2 0x7B8 DUP5 DUP7 PUSH2 0x58D5 JUMP JUMPDEST PUSH2 0x7C2 SWAP1 DUP8 PUSH2 0x58B6 JUMP JUMPDEST PUSH2 0x7CC SWAP2 SWAP1 PUSH2 0x5894 JUMP JUMPDEST PUSH1 0x60 DUP12 ADD MLOAD PUSH1 0x40 DUP1 DUP14 ADD MLOAD SWAP1 MLOAD PUSH4 0x7360A1B1 PUSH1 0xE1 SHL DUP2 MSTORE SWAP3 SWAP4 POP PUSH1 0x0 SWAP3 PUSH1 0x1 PUSH1 0x1 PUSH1 0xA0 SHL SUB DUP12 AND SWAP3 PUSH4 0xE6C14362 SWAP3 PUSH2 0x806 SWAP3 PUSH1 0x4 ADD PUSH2 0x5662 JUMP JUMPDEST PUSH1 0x20 PUSH1 0x40 MLOAD DUP1 DUP4 SUB DUP2 DUP7 DUP1 EXTCODESIZE ISZERO DUP1 ISZERO PUSH2 0x81E JUMPI PUSH1 0x0 DUP1 REVERT JUMPDEST POP GAS STATICCALL ISZERO DUP1 ISZERO PUSH2 0x832 JUMPI RETURNDATASIZE PUSH1 0x0 DUP1 RETURNDATACOPY RETURNDATASIZE PUSH1 0x0 REVERT JUMPDEST POP POP POP POP PUSH1 0x40 MLOAD RETURNDATASIZE PUSH1 0x1F NOT PUSH1 0x1F DUP3 ADD AND DUP3 ADD DUP1 PUSH1 0x40 MSTORE POP DUP2 ADD SWAP1 PUSH2 0x856 SWAP2 SWAP1 PUSH2 0x559D JUMP JUMPDEST SWAP1 POP DUP1 PUSH2 0x863 DUP9 DUP5 PUSH2 0x58B6 JUMP JUMPDEST PUSH2 0x86D SWAP2 SWAP1 PUSH2 0x5894 JUMP JUMPDEST SWAP12 SWAP11 POP POP POP POP POP POP POP POP POP POP POP JUMP JUMPDEST DUP1 MLOAD PUSH1 0x0 SWAP1 DUP2 MSTORE PUSH1 0x3 PUSH1 0x20 MSTORE PUSH1 0x40 SWAP1 KECCAK256 SLOAD DUP1 PUSH2 0x8B6 JUMPI DUP2 MLOAD PUSH1 0x40 MLOAD PUSH4 0x54EC2EEB PUSH1 0xE0 SHL DUP2 MSTORE PUSH1 0x4 DUP2 ADD SWAP2 SWAP1 SWAP2 MSTORE PUSH1 0x24 ADD JUMPDEST PUSH1 0x40 MLOAD DUP1 SWAP2 SUB SWAP1 REVERT JUMPDEST PUSH1 0x0 PUSH1 0x1 PUSH2 0x8C4 DUP2 DUP5 PUSH2 0x58D5 JUMP JUMPDEST DUP2 SLOAD DUP2 LT PUSH2 0x8D4 JUMPI PUSH2 0x8D4 PUSH2 0x5902 JUMP JUMPDEST PUSH1 0x0 SWAP2 DUP3 MSTORE PUSH1 0x20 DUP3 KECCAK256 SWAP2 SLOAD PUSH1 0x16 SWAP2 SWAP1 SWAP2 MUL SWAP1 SWAP2 ADD PUSH1 0x8 DUP2 ADD SLOAD PUSH1 0x40 MLOAD PUSH4 0x4D83BC33 PUSH1 0xE0 SHL DUP2 MSTORE PUSH1 0x1 PUSH1 0x1 PUSH1 0xA0 SHL SUB SWAP2 DUP3 AND PUSH1 0x4 DUP3 ADD MSTORE SWAP2 SWAP4 POP SWAP1 SWAP2 AND SWAP1 DUP2 SWAP1 PUSH4 0x4D83BC33 SWAP1 PUSH1 0x24 ADD PUSH1 0x20 PUSH1 0x40 MLOAD DUP1 DUP4 SUB DUP2 DUP7 DUP1 EXTCODESIZE ISZERO DUP1 ISZERO PUSH2 0x934 JUMPI PUSH1 0x0 DUP1 REVERT JUMPDEST POP GAS STATICCALL ISZERO DUP1 ISZERO PUSH2 0x948 JUMPI RETURNDATASIZE PUSH1 0x0 DUP1 RETURNDATACOPY RETURNDATASIZE PUSH1 0x0 REVERT JUMPDEST POP POP POP POP PUSH1 0x40 MLOAD RETURNDATASIZE PUSH1 0x1F NOT PUSH1 0x1F DUP3 ADD AND DUP3 ADD DUP1 PUSH1 0x40 MSTORE POP DUP2 ADD SWAP1 PUSH2 0x96C SWAP2 SWAP1 PUSH2 0x5328 JUMP JUMPDEST PUSH1 0x1 PUSH1 0x1 PUSH1 0xA0 SHL SUB AND CALLER PUSH1 0x1 PUSH1 0x1 PUSH1 0xA0 SHL SUB AND EQ PUSH2 0x99F JUMPI PUSH1 0x40 MLOAD PUSH4 0xA59D7F4D PUSH1 0xE0 SHL DUP2 MSTORE CALLER PUSH1 0x4 DUP3 ADD MSTORE PUSH1 0x24 ADD PUSH2 0x8AD JUMP JUMPDEST PUSH1 0x13 DUP3 ADD SLOAD PUSH1 0xFF AND ISZERO PUSH2 0x9CB JUMPI DUP4 MLOAD PUSH1 0x40 MLOAD PUSH4 0x2A2AF87D PUSH1 0xE1 SHL DUP2 MSTORE PUSH1 0x4 DUP2 ADD SWAP2 SWAP1 SWAP2 MSTORE PUSH1 0x24 ADD PUSH2 0x8AD JUMP JUMPDEST PUSH1 0x1 DUP3 ADD SLOAD PUSH1 0x40 DUP6 ADD MLOAD PUSH1 0x1 PUSH1 0x1 PUSH1 0xA0 SHL SUB SWAP1 DUP2 AND SWAP2 AND EQ PUSH2 0xA15 JUMPI PUSH1 0x1 DUP3 ADD SLOAD PUSH1 0x40 DUP1 DUP7 ADD MLOAD SWAP1 MLOAD PUSH4 0x1194AF87 PUSH1 0xE1 SHL DUP2 MSTORE PUSH2 0x8AD SWAP3 PUSH1 0x1 PUSH1 0x1 PUSH1 0xA0 SHL SUB AND SWAP2 SWAP1 PUSH1 0x4 ADD PUSH2 0x5662 JUMP JUMPDEST PUSH1 0x20 DUP5 DUP2 ADD MLOAD PUSH1 0x10 DUP5 ADD DUP2 SWAP1 SSTORE DUP6 MLOAD PUSH1 0x40 DUP1 DUP9 ADD MLOAD DUP2 MLOAD SWAP4 DUP5 MSTORE PUSH1 0x1 PUSH1 0x1 PUSH1 0xA0 SHL SUB AND SWAP4 DUP4 ADD SWAP4 SWAP1 SWAP4 MSTORE SWAP2 PUSH32 0x16ECC3716F8BA588E1F42501972BCAC92C1672192E042949E6D3847A1BDE9B5D SWAP2 ADD JUMPDEST PUSH1 0x40 MLOAD DUP1 SWAP2 SUB SWAP1 LOG2 POP POP POP POP JUMP JUMPDEST PUSH2 0xA7A PUSH2 0x4F68 JUMP JUMPDEST PUSH2 0xA83 DUP3 PUSH2 0x401D JUMP JUMPDEST SWAP3 SWAP2 POP POP JUMP JUMPDEST PUSH1 0x1 PUSH1 0x1 PUSH1 0xA0 SHL SUB DUP3 AND PUSH1 0x0 SWAP1 DUP2 MSTORE PUSH1 0x4 PUSH1 0x20 MSTORE PUSH1 0x40 DUP2 KECCAK256 DUP1 SLOAD DUP4 SWAP1 DUP2 LT PUSH2 0xAB3 JUMPI PUSH2 0xAB3 PUSH2 0x5902 JUMP JUMPDEST SWAP1 PUSH1 0x0 MSTORE PUSH1 0x20 PUSH1 0x0 KECCAK256 ADD SLOAD SWAP1 POP SWAP3 SWAP2 POP POP JUMP JUMPDEST PUSH1 0x2 DUP2 DUP2 SLOAD DUP2 LT PUSH2 0xAD6 JUMPI PUSH1 0x0 DUP1 REVERT JUMPDEST PUSH1 0x0 SWAP2 DUP3 MSTORE PUSH1 0x20 SWAP1 SWAP2 KECCAK256 ADD SLOAD SWAP1 POP DUP2 JUMP JUMPDEST DUP1 MLOAD PUSH1 0x0 SWAP1 DUP2 MSTORE PUSH1 0x3 PUSH1 0x20 MSTORE PUSH1 0x40 DUP2 KECCAK256 SLOAD DUP2 SWAP1 DUP1 ISZERO PUSH2 0x114D JUMPI PUSH1 0x0 PUSH1 0x1 PUSH2 0xB0E DUP2 DUP5 PUSH2 0x58D5 JUMP JUMPDEST DUP2 SLOAD DUP2 LT PUSH2 0xB1E JUMPI PUSH2 0xB1E PUSH2 0x5902 JUMP JUMPDEST PUSH1 0x0 SWAP2 DUP3 MSTORE PUSH1 0x20 DUP1 DUP4 KECCAK256 PUSH1 0x40 DUP1 MLOAD PUSH2 0x1A0 DUP2 ADD DUP3 MSTORE PUSH1 0x16 SWAP1 SWAP5 MUL SWAP1 SWAP2 ADD DUP1 SLOAD DUP5 MSTORE PUSH1 0x1 DUP2 ADD SLOAD PUSH1 0x1 PUSH1 0x1 PUSH1 0xA0 SHL SUB SWAP1 DUP2 AND DUP6 DUP6 ADD MSTORE PUSH1 0x2 DUP3 ADD SLOAD DUP2 AND DUP6 DUP5 ADD MSTORE DUP3 MLOAD PUSH1 0xA0 DUP1 DUP3 ADD DUP6 MSTORE PUSH1 0x3 DUP5 ADD SLOAD DUP4 AND DUP3 MSTORE PUSH1 0x4 DUP1 DUP6 ADD SLOAD DUP4 DUP9 ADD MSTORE PUSH1 0x5 DUP6 ADD SLOAD DUP4 DUP8 ADD MSTORE PUSH1 0x6 DUP6 ADD SLOAD PUSH1 0x60 DUP5 DUP2 ADD SWAP2 SWAP1 SWAP2 MSTORE PUSH1 0x7 DUP7 ADD SLOAD PUSH1 0x80 DUP1 DUP7 ADD SWAP2 SWAP1 SWAP2 MSTORE DUP2 DUP11 ADD SWAP5 SWAP1 SWAP5 MSTORE DUP7 MLOAD DUP1 DUP9 ADD DUP9 MSTORE PUSH1 0x8 DUP8 ADD SLOAD DUP7 AND DUP2 MSTORE PUSH1 0x9 DUP8 ADD SLOAD DUP2 DUP11 ADD MSTORE DUP5 DUP11 ADD MSTORE DUP7 MLOAD DUP1 DUP5 ADD DUP9 MSTORE PUSH1 0xA DUP8 ADD SLOAD DUP7 AND DUP2 MSTORE PUSH1 0xB DUP8 ADD SLOAD DUP2 DUP11 ADD MSTORE PUSH1 0xC DUP8 ADD SLOAD DUP2 DUP10 ADD MSTORE PUSH1 0xD DUP8 ADD SLOAD DUP2 DUP4 ADD MSTORE PUSH1 0xE DUP8 ADD SLOAD DUP2 DUP7 ADD MSTORE DUP4 DUP11 ADD MSTORE PUSH1 0xF DUP7 ADD SLOAD PUSH1 0xC0 DUP1 DUP12 ADD SWAP2 SWAP1 SWAP2 MSTORE PUSH1 0x10 DUP8 ADD SLOAD PUSH1 0xE0 DUP1 DUP13 ADD SWAP2 SWAP1 SWAP2 MSTORE PUSH1 0x11 DUP9 ADD SLOAD PUSH2 0x100 DUP1 DUP14 ADD SWAP2 SWAP1 SWAP2 MSTORE PUSH1 0x12 DUP10 ADD SLOAD PUSH2 0x120 DUP14 ADD MSTORE DUP10 MLOAD DUP1 DUP3 ADD DUP12 MSTORE PUSH1 0x13 DUP11 ADD SLOAD PUSH1 0xFF DUP1 DUP3 AND ISZERO ISZERO DUP4 MSTORE SWAP3 DUP2 DIV DUP4 AND ISZERO ISZERO DUP3 DUP15 ADD MSTORE PUSH3 0x10000 DUP2 DIV DUP4 AND ISZERO ISZERO DUP3 DUP14 ADD MSTORE PUSH4 0x1000000 DUP2 DIV DUP4 AND ISZERO ISZERO SWAP6 DUP3 ADD SWAP6 SWAP1 SWAP6 MSTORE PUSH5 0x100000000 DUP6 DIV DUP3 AND ISZERO ISZERO SWAP8 DUP2 ADD SWAP8 SWAP1 SWAP8 MSTORE PUSH1 0x1 PUSH1 0x28 SHL DUP5 DIV DUP2 AND ISZERO ISZERO SWAP6 DUP8 ADD SWAP6 SWAP1 SWAP6 MSTORE PUSH1 0x1 PUSH1 0x30 SHL DUP4 DIV DUP6 AND ISZERO ISZERO SWAP2 DUP7 ADD SWAP2 SWAP1 SWAP2 MSTORE PUSH1 0x1 PUSH1 0x38 SHL SWAP1 SWAP2 DIV SWAP1 SWAP3 AND ISZERO ISZERO SWAP2 DUP4 ADD SWAP2 SWAP1 SWAP2 MSTORE PUSH2 0x140 DUP8 ADD SWAP2 SWAP1 SWAP2 MSTORE PUSH1 0x14 DUP4 ADD SLOAD DUP3 AND PUSH2 0x160 DUP8 ADD MSTORE PUSH1 0x15 SWAP1 SWAP3 ADD SLOAD PUSH2 0x180 DUP7 ADD MSTORE DUP6 SLOAD DUP4 MLOAD PUSH4 0x3A0DF78D PUSH1 0xE1 SHL DUP2 MSTORE SWAP4 MLOAD SWAP6 SWAP8 POP AND SWAP5 SWAP4 DUP6 SWAP4 PUSH4 0x741BEF1A SWAP4 DUP1 DUP5 ADD SWAP4 SWAP2 SWAP3 SWAP2 SWAP1 DUP3 SWAP1 SUB ADD DUP2 DUP7 DUP1 EXTCODESIZE ISZERO DUP1 ISZERO PUSH2 0xD18 JUMPI PUSH1 0x0 DUP1 REVERT JUMPDEST POP GAS STATICCALL ISZERO DUP1 ISZERO PUSH2 0xD2C JUMPI RETURNDATASIZE PUSH1 0x0 DUP1 RETURNDATACOPY RETURNDATASIZE PUSH1 0x0 REVERT JUMPDEST POP POP POP POP PUSH1 0x40 MLOAD RETURNDATASIZE PUSH1 0x1F NOT PUSH1 0x1F DUP3 ADD AND DUP3 ADD DUP1 PUSH1 0x40 MSTORE POP DUP2 ADD SWAP1 PUSH2 0xD50 SWAP2 SWAP1 PUSH2 0x5328 JUMP JUMPDEST SWAP1 POP PUSH1 0x0 DUP2 PUSH1 0x1 PUSH1 0x1 PUSH1 0xA0 SHL SUB AND PUSH4 0xAAF5EB68 PUSH1 0x40 MLOAD DUP2 PUSH4 0xFFFFFFFF AND PUSH1 0xE0 SHL DUP2 MSTORE PUSH1 0x4 ADD PUSH1 0x20 PUSH1 0x40 MLOAD DUP1 DUP4 SUB DUP2 DUP7 DUP1 EXTCODESIZE ISZERO DUP1 ISZERO PUSH2 0xD8D JUMPI PUSH1 0x0 DUP1 REVERT JUMPDEST POP GAS STATICCALL ISZERO DUP1 ISZERO PUSH2 0xDA1 JUMPI RETURNDATASIZE PUSH1 0x0 DUP1 RETURNDATACOPY RETURNDATASIZE PUSH1 0x0 REVERT JUMPDEST POP POP POP POP PUSH1 0x40 MLOAD RETURNDATASIZE PUSH1 0x1F NOT PUSH1 0x1F DUP3 ADD AND DUP3 ADD DUP1 PUSH1 0x40 MSTORE POP DUP2 ADD SWAP1 PUSH2 0xDC5 SWAP2 SWAP1 PUSH2 0x559D JUMP JUMPDEST PUSH1 0xA0 DUP6 ADD MLOAD MLOAD PUSH1 0x40 MLOAD PUSH4 0x95BF1BB PUSH1 0xE0 SHL DUP2 MSTORE PUSH1 0x1 PUSH1 0x1 PUSH1 0xA0 SHL SUB SWAP2 DUP3 AND PUSH1 0x4 DUP3 ADD MSTORE SWAP2 SWAP3 POP PUSH1 0x0 SWAP2 SWAP1 DUP6 AND SWAP1 PUSH4 0x95BF1BB SWAP1 PUSH1 0x24 ADD PUSH1 0x20 PUSH1 0x40 MLOAD DUP1 DUP4 SUB DUP2 DUP7 DUP1 EXTCODESIZE ISZERO DUP1 ISZERO PUSH2 0xE13 JUMPI PUSH1 0x0 DUP1 REVERT JUMPDEST POP GAS STATICCALL ISZERO DUP1 ISZERO PUSH2 0xE27 JUMPI RETURNDATASIZE PUSH1 0x0 DUP1 RETURNDATACOPY RETURNDATASIZE PUSH1 0x0 REVERT JUMPDEST POP POP POP POP PUSH1 0x40 MLOAD RETURNDATASIZE PUSH1 0x1F NOT PUSH1 0x1F DUP3 ADD AND DUP3 ADD DUP1 PUSH1 0x40 MSTORE POP DUP2 ADD SWAP1 PUSH2 0xE4B SWAP2 SWAP1 PUSH2 0x559D JUMP JUMPDEST SWAP1 POP PUSH1 0x0 DUP10 PUSH1 0x20 ADD MLOAD DUP7 PUSH1 0xA0 ADD MLOAD PUSH1 0x20 ADD MLOAD PUSH2 0xE67 SWAP2 SWAP1 PUSH2 0x587C JUMP JUMPDEST PUSH1 0xA0 DUP8 ADD MLOAD MLOAD PUSH1 0x80 DUP9 ADD MLOAD MLOAD PUSH1 0x40 MLOAD PUSH4 0x7360A1B1 PUSH1 0xE1 SHL DUP2 MSTORE SWAP3 SWAP4 POP PUSH1 0x0 SWAP3 DUP4 SWAP3 PUSH1 0x1 PUSH1 0x1 PUSH1 0xA0 SHL SUB DUP10 AND SWAP3 PUSH4 0xE6C14362 SWAP3 PUSH2 0xEA7 SWAP3 SWAP2 SWAP1 PUSH1 0x4 ADD PUSH2 0x5662 JUMP JUMPDEST PUSH1 0x20 PUSH1 0x40 MLOAD DUP1 DUP4 SUB DUP2 DUP7 DUP1 EXTCODESIZE ISZERO DUP1 ISZERO PUSH2 0xEBF JUMPI PUSH1 0x0 DUP1 REVERT JUMPDEST POP GAS STATICCALL ISZERO DUP1 ISZERO PUSH2 0xED3 JUMPI RETURNDATASIZE PUSH1 0x0 DUP1 RETURNDATACOPY RETURNDATASIZE PUSH1 0x0 REVERT JUMPDEST POP POP POP POP PUSH1 0x40 MLOAD RETURNDATASIZE PUSH1 0x1F NOT PUSH1 0x1F DUP3 ADD AND DUP3 ADD DUP1 PUSH1 0x40 MSTORE POP DUP2 ADD SWAP1 PUSH2 0xEF7 SWAP2 SWAP1 PUSH2 0x559D JUMP JUMPDEST SWAP1 POP PUSH2 0xF05 DUP6 PUSH2 0x2710 PUSH2 0x58B6 JUMP JUMPDEST DUP5 PUSH2 0xF10 DUP4 DUP7 PUSH2 0x58B6 JUMP JUMPDEST PUSH2 0xF1A SWAP2 SWAP1 PUSH2 0x58B6 JUMP JUMPDEST PUSH2 0xF24 SWAP2 SWAP1 PUSH2 0x5894 JUMP JUMPDEST PUSH1 0xA0 DUP10 ADD MLOAD MLOAD PUSH1 0x40 MLOAD PUSH4 0x17F783B PUSH1 0xE6 SHL DUP2 MSTORE PUSH1 0x1 PUSH1 0x1 PUSH1 0xA0 SHL SUB SWAP2 DUP3 AND PUSH1 0x4 DUP3 ADD MSTORE SWAP2 SWAP4 POP PUSH1 0x0 SWAP3 POP DUP9 AND SWAP1 PUSH4 0x5FDE0EC0 SWAP1 PUSH1 0x24 ADD PUSH1 0x20 PUSH1 0x40 MLOAD DUP1 DUP4 SUB DUP2 DUP7 DUP1 EXTCODESIZE ISZERO DUP1 ISZERO PUSH2 0xF72 JUMPI PUSH1 0x0 DUP1 REVERT JUMPDEST POP GAS STATICCALL ISZERO DUP1 ISZERO PUSH2 0xF86 JUMPI RETURNDATASIZE PUSH1 0x0 DUP1 RETURNDATACOPY RETURNDATASIZE PUSH1 0x0 REVERT JUMPDEST POP POP POP POP PUSH1 0x40 MLOAD RETURNDATASIZE PUSH1 0x1F NOT PUSH1 0x1F DUP3 ADD AND DUP3 ADD DUP1 PUSH1 0x40 MSTORE POP DUP2 ADD SWAP1 PUSH2 0xFAA SWAP2 SWAP1 PUSH2 0x559D JUMP JUMPDEST SWAP1 POP PUSH2 0xFB6 DUP5 DUP5 PUSH2 0x58B6 JUMP JUMPDEST DUP6 PUSH2 0xFC1 DUP4 DUP6 PUSH2 0x58B6 JUMP JUMPDEST PUSH2 0xFCB SWAP2 SWAP1 PUSH2 0x58B6 JUMP JUMPDEST PUSH2 0xFD5 SWAP2 SWAP1 PUSH2 0x5894 JUMP JUMPDEST PUSH1 0x60 DUP10 ADD MLOAD MLOAD PUSH1 0x40 MLOAD PUSH4 0x5BA2EDAB PUSH1 0xE1 SHL DUP2 MSTORE PUSH1 0x1 PUSH1 0x1 PUSH1 0xA0 SHL SUB SWAP2 DUP3 AND PUSH1 0x4 DUP3 ADD MSTORE SWAP2 SWAP13 POP PUSH1 0x0 SWAP3 POP DUP9 AND SWAP1 PUSH4 0xB745DB56 SWAP1 PUSH1 0x24 ADD PUSH1 0x20 PUSH1 0x40 MLOAD DUP1 DUP4 SUB DUP2 DUP7 DUP1 EXTCODESIZE ISZERO DUP1 ISZERO PUSH2 0x1023 JUMPI PUSH1 0x0 DUP1 REVERT JUMPDEST POP GAS STATICCALL ISZERO DUP1 ISZERO PUSH2 0x1037 JUMPI RETURNDATASIZE PUSH1 0x0 DUP1 RETURNDATACOPY RETURNDATASIZE PUSH1 0x0 REVERT JUMPDEST POP POP POP POP PUSH1 0x40 MLOAD RETURNDATASIZE PUSH1 0x1F NOT PUSH1 0x1F DUP3 ADD AND DUP3 ADD DUP1 PUSH1 0x40 MSTORE POP DUP2 ADD SWAP1 PUSH2 0x105B SWAP2 SWAP1 PUSH2 0x559D JUMP JUMPDEST PUSH1 0x60 DUP10 ADD MLOAD MLOAD PUSH1 0x40 MLOAD PUSH4 0xF5D0E175 PUSH1 0xE0 SHL DUP2 MSTORE PUSH1 0x1 PUSH1 0x1 PUSH1 0xA0 SHL SUB SWAP2 DUP3 AND PUSH1 0x4 DUP3 ADD MSTORE SWAP2 SWAP3 POP PUSH1 0x0 SWAP2 SWAP1 DUP10 AND SWAP1 PUSH4 0xF5D0E175 SWAP1 PUSH1 0x24 ADD PUSH1 0x20 PUSH1 0x40 MLOAD DUP1 DUP4 SUB DUP2 DUP7 DUP1 EXTCODESIZE ISZERO DUP1 ISZERO PUSH2 0x10A9 JUMPI PUSH1 0x0 DUP1 REVERT JUMPDEST POP GAS STATICCALL ISZERO DUP1 ISZERO PUSH2 0x10BD JUMPI RETURNDATASIZE PUSH1 0x0 DUP1 RETURNDATACOPY RETURNDATASIZE PUSH1 0x0 REVERT JUMPDEST POP POP POP POP PUSH1 0x40 MLOAD RETURNDATASIZE PUSH1 0x1F NOT PUSH1 0x1F DUP3 ADD AND DUP3 ADD DUP1 PUSH1 0x40 MSTORE POP DUP2 ADD SWAP1 PUSH2 0x10E1 SWAP2 SWAP1 PUSH2 0x559D JUMP JUMPDEST SWAP1 POP DUP3 DUP10 PUSH1 0x80 ADD MLOAD PUSH1 0x20 ADD MLOAD GT ISZERO PUSH2 0x1143 JUMPI PUSH1 0x0 DUP3 DUP3 DUP6 DUP13 PUSH1 0x80 ADD MLOAD PUSH1 0x20 ADD MLOAD PUSH2 0x110B SWAP2 SWAP1 PUSH2 0x58D5 JUMP JUMPDEST PUSH2 0x1115 SWAP2 SWAP1 PUSH2 0x58B6 JUMP JUMPDEST PUSH2 0x111F SWAP2 SWAP1 PUSH2 0x5894 JUMP JUMPDEST PUSH1 0x60 DUP12 ADD MLOAD PUSH1 0x20 ADD MLOAD SWAP1 SWAP2 POP PUSH2 0x1135 DUP9 DUP4 PUSH2 0x58B6 JUMP JUMPDEST PUSH2 0x113F SWAP2 SWAP1 PUSH2 0x5894 JUMP JUMPDEST SWAP12 POP POP JUMPDEST POP POP POP POP POP POP POP POP POP JUMPDEST POP SWAP2 POP SWAP2 JUMP JUMPDEST PUSH1 0x0 DUP2 DUP2 MSTORE PUSH1 0x3 PUSH1 0x20 MSTORE PUSH1 0x40 SWAP1 KECCAK256 SLOAD DUP1 PUSH2 0x1183 JUMPI PUSH1 0x40 MLOAD PUSH4 0x54EC2EEB PUSH1 0xE0 SHL DUP2 MSTORE PUSH1 0x4 DUP2 ADD DUP4 SWAP1 MSTORE PUSH1 0x24 ADD PUSH2 0x8AD JUMP JUMPDEST PUSH1 0x0 PUSH1 0x1 PUSH2 0x1191 DUP2 DUP5 PUSH2 0x58D5 JUMP JUMPDEST DUP2 SLOAD DUP2 LT PUSH2 0x11A1 JUMPI PUSH2 0x11A1 PUSH2 0x5902 JUMP JUMPDEST PUSH1 0x0 SWAP2 DUP3 MSTORE PUSH1 0x20 SWAP1 SWAP2 KECCAK256 PUSH1 0x16 SWAP1 SWAP2 MUL ADD PUSH1 0x13 DUP2 ADD SLOAD SWAP1 SWAP2 POP PUSH1 0xFF AND ISZERO PUSH2 0x11DD JUMPI PUSH1 0x40 MLOAD PUSH4 0x2A2AF87D PUSH1 0xE1 SHL DUP2 MSTORE PUSH1 0x4 DUP2 ADD DUP5 SWAP1 MSTORE PUSH1 0x24 ADD PUSH2 0x8AD JUMP JUMPDEST PUSH1 0x15 DUP2 ADD SLOAD ISZERO PUSH2 0x1203 JUMPI PUSH1 0x40 MLOAD PUSH4 0x4FD9D2B3 PUSH1 0xE1 SHL DUP2 MSTORE PUSH1 0x4 DUP2 ADD DUP5 SWAP1 MSTORE PUSH1 0x24 ADD PUSH2 0x8AD JUMP JUMPDEST TIMESTAMP PUSH2 0x120D DUP5 PUSH2 0x49B9 JUMP JUMPDEST ISZERO PUSH2 0x124B JUMPI PUSH1 0x15 DUP3 ADD DUP2 SWAP1 SSTORE PUSH1 0x40 MLOAD DUP2 DUP2 MSTORE DUP5 SWAP1 PUSH32 0xA12564B997AB2A5A96DB3485450B11398857B9457F88412F9AD19CDFFD43A1AB SWAP1 PUSH1 0x20 ADD PUSH2 0xA64 JUMP JUMPDEST POP POP POP POP JUMP JUMPDEST DUP1 MLOAD PUSH1 0x0 SWAP1 DUP2 MSTORE PUSH1 0x3 PUSH1 0x20 MSTORE PUSH1 0x40 DUP2 KECCAK256 SLOAD DUP2 SWAP1 DUP1 ISZERO PUSH2 0x114D JUMPI PUSH1 0x0 PUSH1 0x1 PUSH2 0x1278 DUP2 DUP5 PUSH2 0x58D5 JUMP JUMPDEST DUP2 SLOAD DUP2 LT PUSH2 0x1288 JUMPI PUSH2 0x1288 PUSH2 0x5902 JUMP JUMPDEST PUSH1 0x0 SWAP2 DUP3 MSTORE PUSH1 0x20 DUP1 DUP4 KECCAK256 PUSH1 0x40 DUP1 MLOAD PUSH2 0x1A0 DUP2 ADD DUP3 MSTORE PUSH1 0x16 SWAP1 SWAP5 MUL SWAP1 SWAP2 ADD DUP1 SLOAD DUP5 MSTORE PUSH1 0x1 DUP2 ADD SLOAD PUSH1 0x1 PUSH1 0x1 PUSH1 0xA0 SHL SUB SWAP1 DUP2 AND DUP6 DUP6 ADD MSTORE PUSH1 0x2 DUP3 ADD SLOAD DUP2 AND DUP6 DUP5 ADD MSTORE DUP3 MLOAD PUSH1 0xA0 DUP1 DUP3 ADD DUP6 MSTORE PUSH1 0x3 DUP5 ADD SLOAD DUP4 AND DUP3 MSTORE PUSH1 0x4 DUP1 DUP6 ADD SLOAD DUP4 DUP9 ADD MSTORE PUSH1 0x5 DUP6 ADD SLOAD DUP4 DUP8 ADD MSTORE PUSH1 0x6 DUP6 ADD SLOAD PUSH1 0x60 DUP5 DUP2 ADD SWAP2 SWAP1 SWAP2 MSTORE PUSH1 0x7 DUP7 ADD SLOAD PUSH1 0x80 DUP1 DUP7 ADD SWAP2 SWAP1 SWAP2 MSTORE DUP2 DUP11 ADD SWAP5 SWAP1 SWAP5 MSTORE DUP7 MLOAD DUP1 DUP9 ADD DUP9 MSTORE PUSH1 0x8 DUP8 ADD SLOAD DUP7 AND DUP2 MSTORE PUSH1 0x9 DUP8 ADD SLOAD DUP2 DUP11 ADD MSTORE DUP5 DUP11 ADD MSTORE DUP7 MLOAD DUP1 DUP5 ADD DUP9 MSTORE PUSH1 0xA DUP8 ADD SLOAD DUP7 AND DUP2 MSTORE PUSH1 0xB DUP8 ADD SLOAD DUP2 DUP11 ADD MSTORE PUSH1 0xC DUP8 ADD SLOAD DUP2 DUP10 ADD MSTORE PUSH1 0xD DUP8 ADD SLOAD DUP2 DUP4 ADD MSTORE PUSH1 0xE DUP8 ADD SLOAD DUP2 DUP7 ADD MSTORE DUP4 DUP11 ADD MSTORE PUSH1 0xF DUP7 ADD SLOAD PUSH1 0xC0 DUP1 DUP12 ADD SWAP2 SWAP1 SWAP2 MSTORE PUSH1 0x10 DUP8 ADD SLOAD PUSH1 0xE0 DUP1 DUP13 ADD SWAP2 SWAP1 SWAP2 MSTORE PUSH1 0x11 DUP9 ADD SLOAD PUSH2 0x100 DUP1 DUP14 ADD SWAP2 SWAP1 SWAP2 MSTORE PUSH1 0x12 DUP10 ADD SLOAD PUSH2 0x120 DUP14 ADD MSTORE DUP10 MLOAD DUP1 DUP3 ADD DUP12 MSTORE PUSH1 0x13 DUP11 ADD SLOAD PUSH1 0xFF DUP1 DUP3 AND ISZERO ISZERO DUP4 MSTORE SWAP3 DUP2 DIV DUP4 AND ISZERO ISZERO DUP3 DUP15 ADD MSTORE PUSH3 0x10000 DUP2 DIV DUP4 AND ISZERO ISZERO DUP3 DUP14 ADD MSTORE PUSH4 0x1000000 DUP2 DIV DUP4 AND ISZERO ISZERO SWAP6 DUP3 ADD SWAP6 SWAP1 SWAP6 MSTORE PUSH5 0x100000000 DUP6 DIV DUP3 AND ISZERO ISZERO SWAP8 DUP2 ADD SWAP8 SWAP1 SWAP8 MSTORE PUSH1 0x1 PUSH1 0x28 SHL DUP5 DIV DUP2 AND ISZERO ISZERO SWAP6 DUP8 ADD SWAP6 SWAP1 SWAP6 MSTORE PUSH1 0x1 PUSH1 0x30 SHL DUP4 DIV DUP6 AND ISZERO ISZERO SWAP2 DUP7 ADD SWAP2 SWAP1 SWAP2 MSTORE PUSH1 0x1 PUSH1 0x38 SHL SWAP1 SWAP2 DIV SWAP1 SWAP3 AND ISZERO ISZERO SWAP2 DUP4 ADD SWAP2 SWAP1 SWAP2 MSTORE PUSH2 0x140 DUP8 ADD SWAP2 SWAP1 SWAP2 MSTORE PUSH1 0x14 DUP4 ADD SLOAD DUP3 AND PUSH2 0x160 DUP8 ADD MSTORE PUSH1 0x15 SWAP1 SWAP3 ADD SLOAD PUSH2 0x180 DUP7 ADD MSTORE DUP6 SLOAD DUP4 MLOAD PUSH4 0x75E58079 PUSH1 0xE0 SHL DUP2 MSTORE SWAP4 MLOAD SWAP6 SWAP8 POP AND SWAP5 SWAP4 DUP6 SWAP4 PUSH4 0x75E58079 SWAP4 DUP1 DUP5 ADD SWAP4 SWAP2 SWAP3 SWAP2 SWAP1 DUP3 SWAP1 SUB ADD DUP2 DUP7 DUP1 EXTCODESIZE ISZERO DUP1 ISZERO PUSH2 0x1482 JUMPI PUSH1 0x0 DUP1 REVERT JUMPDEST POP GAS STATICCALL ISZERO DUP1 ISZERO PUSH2 0x1496 JUMPI RETURNDATASIZE PUSH1 0x0 DUP1 RETURNDATACOPY RETURNDATASIZE PUSH1 0x0 REVERT JUMPDEST POP POP POP POP PUSH1 0x40 MLOAD RETURNDATASIZE PUSH1 0x1F NOT PUSH1 0x1F DUP3 ADD AND DUP3 ADD DUP1 PUSH1 0x40 MSTORE POP DUP2 ADD SWAP1 PUSH2 0x14BA SWAP2 SWAP1 PUSH2 0x5328 JUMP JUMPDEST SWAP1 POP DUP3 PUSH1 0xC0 ADD MLOAD DUP8 PUSH1 0x20 ADD MLOAD GT PUSH2 0x16AC JUMPI PUSH1 0x80 DUP4 ADD MLOAD MLOAD PUSH1 0x40 MLOAD PUSH4 0xAC436BDF PUSH1 0xE0 SHL DUP2 MSTORE PUSH1 0x1 PUSH1 0x1 PUSH1 0xA0 SHL SUB SWAP2 DUP3 AND PUSH1 0x4 DUP3 ADD MSTORE PUSH1 0x0 SWAP2 DUP5 AND SWAP1 PUSH4 0xAC436BDF SWAP1 PUSH1 0x24 ADD PUSH1 0x20 PUSH1 0x40 MLOAD DUP1 DUP4 SUB DUP2 DUP7 DUP1 EXTCODESIZE ISZERO DUP1 ISZERO PUSH2 0x1515 JUMPI PUSH1 0x0 DUP1 REVERT JUMPDEST POP GAS STATICCALL ISZERO DUP1 ISZERO PUSH2 0x1529 JUMPI RETURNDATASIZE PUSH1 0x0 DUP1 RETURNDATACOPY RETURNDATASIZE PUSH1 0x0 REVERT JUMPDEST POP POP POP POP PUSH1 0x40 MLOAD RETURNDATASIZE PUSH1 0x1F NOT PUSH1 0x1F DUP3 ADD AND DUP3 ADD DUP1 PUSH1 0x40 MSTORE POP DUP2 ADD SWAP1 PUSH2 0x154D SWAP2 SWAP1 PUSH2 0x559D JUMP JUMPDEST SWAP1 POP PUSH5 0x496CEBB800 DUP5 PUSH1 0xC0 ADD MLOAD DUP10 PUSH1 0x20 ADD MLOAD PUSH2 0x1569 SWAP2 SWAP1 PUSH2 0x58D5 JUMP JUMPDEST DUP3 DUP7 PUSH1 0x80 ADD MLOAD PUSH1 0x20 ADD MLOAD PUSH2 0x157D SWAP2 SWAP1 PUSH2 0x58B6 JUMP JUMPDEST PUSH2 0x1587 SWAP2 SWAP1 PUSH2 0x58B6 JUMP JUMPDEST PUSH2 0x1591 SWAP2 SWAP1 PUSH2 0x5894 JUMP JUMPDEST PUSH1 0x20 DUP6 ADD MLOAD PUSH1 0x40 MLOAD PUSH4 0x172C717B PUSH1 0xE0 SHL DUP2 MSTORE PUSH1 0x1 PUSH1 0x1 PUSH1 0xA0 SHL SUB SWAP2 DUP3 AND PUSH1 0x4 DUP3 ADD MSTORE PUSH1 0x24 DUP2 ADD DUP4 SWAP1 MSTORE SWAP2 SWAP9 POP DUP4 AND SWAP1 PUSH4 0x172C717B SWAP1 PUSH1 0x44 ADD PUSH1 0x20 PUSH1 0x40 MLOAD DUP1 DUP4 SUB DUP2 DUP7 DUP1 EXTCODESIZE ISZERO DUP1 ISZERO PUSH2 0x15E1 JUMPI PUSH1 0x0 DUP1 REVERT JUMPDEST POP GAS STATICCALL ISZERO DUP1 ISZERO PUSH2 0x15F5 JUMPI RETURNDATASIZE PUSH1 0x0 DUP1 RETURNDATACOPY RETURNDATASIZE PUSH1 0x0 REVERT JUMPDEST POP POP POP POP PUSH1 0x40 MLOAD RETURNDATASIZE PUSH1 0x1F NOT PUSH1 0x1F DUP3 ADD AND DUP3 ADD DUP1 PUSH1 0x40 MSTORE POP DUP2 ADD SWAP1 PUSH2 0x1619 SWAP2 SWAP1 PUSH2 0x559D JUMP JUMPDEST SWAP7 POP PUSH1 0x0 DUP4 PUSH1 0x1 PUSH1 0x1 PUSH1 0xA0 SHL SUB AND PUSH4 0x58F85880 PUSH1 0x40 MLOAD DUP2 PUSH4 0xFFFFFFFF AND PUSH1 0xE0 SHL DUP2 MSTORE PUSH1 0x4 ADD PUSH1 0x20 PUSH1 0x40 MLOAD DUP1 DUP4 SUB DUP2 DUP7 DUP1 EXTCODESIZE ISZERO DUP1 ISZERO PUSH2 0x1656 JUMPI PUSH1 0x0 DUP1 REVERT JUMPDEST POP GAS STATICCALL ISZERO DUP1 ISZERO PUSH2 0x166A JUMPI RETURNDATASIZE PUSH1 0x0 DUP1 RETURNDATACOPY RETURNDATASIZE PUSH1 0x0 REVERT JUMPDEST POP POP POP POP PUSH1 0x40 MLOAD RETURNDATASIZE PUSH1 0x1F NOT PUSH1 0x1F DUP3 ADD AND DUP3 ADD DUP1 PUSH1 0x40 MSTORE POP DUP2 ADD SWAP1 PUSH2 0x168E SWAP2 SWAP1 PUSH2 0x559D JUMP JUMPDEST SWAP1 POP PUSH2 0x2710 PUSH2 0x169D DUP3 DUP11 PUSH2 0x58B6 JUMP JUMPDEST PUSH2 0x16A7 SWAP2 SWAP1 PUSH2 0x5894 JUMP JUMPDEST SWAP7 POP POP POP JUMPDEST POP POP POP POP SWAP2 POP SWAP2 JUMP JUMPDEST PUSH1 0x0 DUP1 SLOAD PUSH1 0x40 DUP1 MLOAD PUSH4 0x3A0DF78D PUSH1 0xE1 SHL DUP2 MSTORE SWAP1 MLOAD DUP4 SWAP3 PUSH1 0x1 PUSH1 0x1 PUSH1 0xA0 SHL SUB AND SWAP2 DUP4 SWAP2 DUP4 SWAP2 PUSH4 0x741BEF1A SWAP2 PUSH1 0x4 DUP1 DUP4 ADD SWAP3 PUSH1 0x20 SWAP3 SWAP2 SWAP1 DUP3 SWAP1 SUB ADD DUP2 DUP7 DUP1 EXTCODESIZE ISZERO DUP1 ISZERO PUSH2 0x16FE JUMPI PUSH1 0x0 DUP1 REVERT JUMPDEST POP GAS STATICCALL ISZERO DUP1 ISZERO PUSH2 0x1712 JUMPI RETURNDATASIZE PUSH1 0x0 DUP1 RETURNDATACOPY RETURNDATASIZE PUSH1 0x0 REVERT JUMPDEST POP POP POP POP PUSH1 0x40 MLOAD RETURNDATASIZE PUSH1 0x1F NOT PUSH1 0x1F DUP3 ADD AND DUP3 ADD DUP1 PUSH1 0x40 MSTORE POP DUP2 ADD SWAP1 PUSH2 0x1736 SWAP2 SWAP1 PUSH2 0x5328 JUMP JUMPDEST SWAP1 POP PUSH1 0x0 DUP2 PUSH1 0x1 PUSH1 0x1 PUSH1 0xA0 SHL SUB AND PUSH4 0xAAF5EB68 PUSH1 0x40 MLOAD DUP2 PUSH4 0xFFFFFFFF AND PUSH1 0xE0 SHL DUP2 MSTORE PUSH1 0x4 ADD PUSH1 0x20 PUSH1 0x40 MLOAD DUP1 DUP4 SUB DUP2 DUP7 DUP1 EXTCODESIZE ISZERO DUP1 ISZERO PUSH2 0x1773 JUMPI PUSH1 0x0 DUP1 REVERT JUMPDEST POP GAS STATICCALL ISZERO DUP1 ISZERO PUSH2 0x1787 JUMPI RETURNDATASIZE PUSH1 0x0 DUP1 RETURNDATACOPY RETURNDATASIZE PUSH1 0x0 REVERT JUMPDEST POP POP POP POP PUSH1 0x40 MLOAD RETURNDATASIZE PUSH1 0x1F NOT PUSH1 0x1F DUP3 ADD AND DUP3 ADD DUP1 PUSH1 0x40 MSTORE POP DUP2 ADD SWAP1 PUSH2 0x17AB SWAP2 SWAP1 PUSH2 0x559D JUMP JUMPDEST SWAP1 POP PUSH1 0x0 DUP1 DUP4 PUSH1 0x1 PUSH1 0x1 PUSH1 0xA0 SHL SUB AND PUSH4 0xE6C14362 DUP10 PUSH1 0x20 ADD MLOAD DUP11 PUSH1 0x40 ADD MLOAD PUSH1 0x40 MLOAD DUP4 PUSH4 0xFFFFFFFF AND PUSH1 0xE0 SHL DUP2 MSTORE PUSH1 0x4 ADD PUSH2 0x17E6 SWAP3 SWAP2 SWAP1 PUSH2 0x5662 JUMP JUMPDEST PUSH1 0x20 PUSH1 0x40 MLOAD DUP1 DUP4 SUB DUP2 DUP7 DUP1 EXTCODESIZE ISZERO DUP1 ISZERO PUSH2 0x17FE JUMPI PUSH1 0x0 DUP1 REVERT JUMPDEST POP GAS STATICCALL ISZERO DUP1 ISZERO PUSH2 0x1812 JUMPI RETURNDATASIZE PUSH1 0x0 DUP1 RETURNDATACOPY RETURNDATASIZE PUSH1 0x0 REVERT JUMPDEST POP POP POP POP PUSH1 0x40 MLOAD RETURNDATASIZE PUSH1 0x1F NOT PUSH1 0x1F DUP3 ADD AND DUP3 ADD DUP1 PUSH1 0x40 MSTORE POP DUP2 ADD SWAP1 PUSH2 0x1836 SWAP2 SWAP1 PUSH2 0x559D JUMP JUMPDEST SWAP1 POP DUP3 DUP2 DUP10 PUSH1 0x80 ADD MLOAD PUSH2 0x1849 SWAP2 SWAP1 PUSH2 0x58B6 JUMP JUMPDEST PUSH2 0x1853 SWAP2 SWAP1 PUSH2 0x5894 JUMP JUMPDEST SWAP2 POP POP PUSH1 0x0 DUP5 PUSH1 0x1 PUSH1 0x1 PUSH1 0xA0 SHL SUB AND PUSH4 0x6D274553 PUSH1 0x40 MLOAD DUP2 PUSH4 0xFFFFFFFF AND PUSH1 0xE0 SHL DUP2 MSTORE PUSH1 0x4 ADD PUSH1 0x20 PUSH1 0x40 MLOAD DUP1 DUP4 SUB DUP2 DUP7 DUP1 EXTCODESIZE ISZERO DUP1 ISZERO PUSH2 0x1891 JUMPI PUSH1 0x0 DUP1 REVERT JUMPDEST POP GAS STATICCALL ISZERO DUP1 ISZERO PUSH2 0x18A5 JUMPI RETURNDATASIZE PUSH1 0x0 DUP1 RETURNDATACOPY RETURNDATASIZE PUSH1 0x0 REVERT JUMPDEST POP POP POP POP PUSH1 0x40 MLOAD RETURNDATASIZE PUSH1 0x1F NOT PUSH1 0x1F DUP3 ADD AND DUP3 ADD DUP1 PUSH1 0x40 MSTORE POP DUP2 ADD SWAP1 PUSH2 0x18C9 SWAP2 SWAP1 PUSH2 0x559D JUMP JUMPDEST PUSH1 0x20 DUP10 ADD MLOAD PUSH1 0x40 MLOAD PUSH4 0x5BA2EDAB PUSH1 0xE1 SHL DUP2 MSTORE PUSH1 0x1 PUSH1 0x1 PUSH1 0xA0 SHL SUB SWAP2 DUP3 AND PUSH1 0x4 DUP3 ADD MSTORE SWAP2 SWAP3 POP PUSH1 0x0 SWAP2 SWAP1 DUP8 AND SWAP1 PUSH4 0xB745DB56 SWAP1 PUSH1 0x24 ADD PUSH1 0x20 PUSH1 0x40 MLOAD DUP1 DUP4 SUB DUP2 DUP7 DUP1 EXTCODESIZE ISZERO DUP1 ISZERO PUSH2 0x1916 JUMPI PUSH1 0x0 DUP1 REVERT JUMPDEST POP GAS STATICCALL ISZERO DUP1 ISZERO PUSH2 0x192A JUMPI RETURNDATASIZE PUSH1 0x0 DUP1 RETURNDATACOPY RETURNDATASIZE PUSH1 0x0 REVERT JUMPDEST POP POP POP POP PUSH1 0x40 MLOAD RETURNDATASIZE PUSH1 0x1F NOT PUSH1 0x1F DUP3 ADD AND DUP3 ADD DUP1 PUSH1 0x40 MSTORE POP DUP2 ADD SWAP1 PUSH2 0x194E SWAP2 SWAP1 PUSH2 0x559D JUMP JUMPDEST PUSH1 0x60 DUP11 ADD MLOAD PUSH1 0x40 MLOAD PUSH4 0x95BF1BB PUSH1 0xE0 SHL DUP2 MSTORE PUSH1 0x1 PUSH1 0x1 PUSH1 0xA0 SHL SUB SWAP2 DUP3 AND PUSH1 0x4 DUP3 ADD MSTORE SWAP2 SWAP3 POP PUSH1 0x0 SWAP2 SWAP1 DUP9 AND SWAP1 PUSH4 0x95BF1BB SWAP1 PUSH1 0x24 ADD PUSH1 0x20 PUSH1 0x40 MLOAD DUP1 DUP4 SUB DUP2 DUP7 DUP1 EXTCODESIZE ISZERO DUP1 ISZERO PUSH2 0x199B JUMPI PUSH1 0x0 DUP1 REVERT JUMPDEST POP GAS STATICCALL ISZERO DUP1 ISZERO PUSH2 0x19AF JUMPI RETURNDATASIZE PUSH1 0x0 DUP1 RETURNDATACOPY RETURNDATASIZE PUSH1 0x0 REVERT JUMPDEST POP POP POP POP PUSH1 0x40 MLOAD RETURNDATASIZE PUSH1 0x1F NOT PUSH1 0x1F DUP3 ADD AND DUP3 ADD DUP1 PUSH1 0x40 MSTORE POP DUP2 ADD SWAP1 PUSH2 0x19D3 SWAP2 SWAP1 PUSH2 0x559D JUMP JUMPDEST PUSH1 0x60 DUP12 ADD MLOAD PUSH1 0x40 DUP1 DUP14 ADD MLOAD SWAP1 MLOAD PUSH4 0x7360A1B1 PUSH1 0xE1 SHL DUP2 MSTORE SWAP3 SWAP4 POP PUSH1 0x0 SWAP3 PUSH1 0x1 PUSH1 0x1 PUSH1 0xA0 SHL SUB DUP11 AND SWAP3 PUSH4 0xE6C14362 SWAP3 PUSH2 0x1A0D SWAP3 PUSH1 0x4 ADD PUSH2 0x5662 JUMP JUMPDEST PUSH1 0x20 PUSH1 0x40 MLOAD DUP1 DUP4 SUB DUP2 DUP7 DUP1 EXTCODESIZE ISZERO DUP1 ISZERO PUSH2 0x1A25 JUMPI PUSH1 0x0 DUP1 REVERT JUMPDEST POP GAS STATICCALL ISZERO DUP1 ISZERO PUSH2 0x1A39 JUMPI RETURNDATASIZE PUSH1 0x0 DUP1 RETURNDATACOPY RETURNDATASIZE PUSH1 0x0 REVERT JUMPDEST POP POP POP POP PUSH1 0x40 MLOAD RETURNDATASIZE PUSH1 0x1F NOT PUSH1 0x1F DUP3 ADD AND DUP3 ADD DUP1 PUSH1 0x40 MSTORE POP DUP2 ADD SWAP1 PUSH2 0x1A5D SWAP2 SWAP1 PUSH2 0x559D JUMP JUMPDEST SWAP1 POP PUSH1 0x0 DUP3 PUSH2 0x1A6C DUP6 DUP8 PUSH2 0x58D5 JUMP JUMPDEST PUSH2 0x1A76 SWAP1 DUP9 PUSH2 0x58B6 JUMP JUMPDEST PUSH2 0x1A80 SWAP2 SWAP1 PUSH2 0x5894 JUMP JUMPDEST SWAP1 POP PUSH1 0x0 DUP3 PUSH2 0x1A8F DUP10 DUP5 PUSH2 0x58B6 JUMP JUMPDEST PUSH2 0x1A99 SWAP2 SWAP1 PUSH2 0x5894 JUMP JUMPDEST SWAP1 POP DUP1 DUP14 PUSH1 0xC0 ADD MLOAD LT ISZERO PUSH2 0x1ABC JUMPI POP PUSH1 0x0 SWAP13 DUP14 SWAP13 POP SWAP11 POP POP POP POP POP POP POP POP POP POP POP JUMP JUMPDEST POP PUSH1 0x0 SWAP1 POP PUSH2 0x1ACD DUP8 PUSH2 0x2710 PUSH2 0x58B6 JUMP JUMPDEST DUP4 DUP4 DUP15 PUSH1 0xC0 ADD MLOAD PUSH2 0x1ADE SWAP2 SWAP1 PUSH2 0x58B6 JUMP JUMPDEST PUSH2 0x1AE8 SWAP2 SWAP1 PUSH2 0x58B6 JUMP JUMPDEST PUSH2 0x1AF2 SWAP2 SWAP1 PUSH2 0x5894 JUMP JUMPDEST SWAP1 POP PUSH2 0x2710 PUSH2 0x1B01 DUP7 DUP9 PUSH2 0x58B6 JUMP JUMPDEST PUSH2 0x1B0B SWAP2 SWAP1 PUSH2 0x5894 JUMP JUMPDEST SWAP11 POP PUSH2 0x2710 PUSH2 0x1B1A DUP6 DUP9 PUSH2 0x58B6 JUMP JUMPDEST PUSH2 0x1B24 SWAP2 SWAP1 PUSH2 0x5894 JUMP JUMPDEST PUSH2 0x1B2E SWAP1 DUP3 PUSH2 0x587C JUMP JUMPDEST SWAP10 POP POP POP POP POP POP POP POP POP POP SWAP2 POP SWAP2 JUMP JUMPDEST PUSH1 0x0 SLOAD PUSH1 0x1 PUSH1 0x1 PUSH1 0xA0 SHL SUB AND ISZERO PUSH2 0x1B68 JUMPI PUSH1 0x40 MLOAD PUSH4 0x73E833B9 PUSH1 0xE1 SHL DUP2 MSTORE PUSH1 0x4 ADD PUSH1 0x40 MLOAD DUP1 SWAP2 SUB SWAP1 REVERT JUMPDEST PUSH1 0x0 DUP1 SLOAD PUSH1 0x1 PUSH1 0x1 PUSH1 0xA0 SHL SUB NOT AND PUSH1 0x1 PUSH1 0x1 PUSH1 0xA0 SHL SUB SWAP3 SWAP1 SWAP3 AND SWAP2 SWAP1 SWAP2 OR SWAP1 SSTORE JUMP JUMPDEST PUSH1 0x0 PUSH2 0xA83 DUP3 PUSH2 0x49B9 JUMP JUMPDEST PUSH1 0x0 DUP1 SLOAD PUSH1 0x80 DUP4 ADD MLOAD MLOAD PUSH1 0x40 MLOAD PUSH4 0x4D83BC33 PUSH1 0xE0 SHL DUP2 MSTORE PUSH1 0x1 PUSH1 0x1 PUSH1 0xA0 SHL SUB SWAP2 DUP3 AND PUSH1 0x4 DUP3 ADD MSTORE SWAP2 AND SWAP1 DUP2 SWAP1 PUSH4 0x4D83BC33 SWAP1 PUSH1 0x24 ADD PUSH1 0x20 PUSH1 0x40 MLOAD DUP1 DUP4 SUB DUP2 DUP7 DUP1 EXTCODESIZE ISZERO DUP1 ISZERO PUSH2 0x1BE2 JUMPI PUSH1 0x0 DUP1 REVERT JUMPDEST POP GAS STATICCALL ISZERO DUP1 ISZERO PUSH2 0x1BF6 JUMPI RETURNDATASIZE PUSH1 0x0 DUP1 RETURNDATACOPY RETURNDATASIZE PUSH1 0x0 REVERT JUMPDEST POP POP POP POP PUSH1 0x40 MLOAD RETURNDATASIZE PUSH1 0x1F NOT PUSH1 0x1F DUP3 ADD AND DUP3 ADD DUP1 PUSH1 0x40 MSTORE POP DUP2 ADD SWAP1 PUSH2 0x1C1A SWAP2 SWAP1 PUSH2 0x5328 JUMP JUMPDEST PUSH1 0x1 PUSH1 0x1 PUSH1 0xA0 SHL SUB AND CALLER PUSH1 0x1 PUSH1 0x1 PUSH1 0xA0 SHL SUB AND EQ PUSH2 0x1C4D JUMPI PUSH1 0x40 MLOAD PUSH4 0xA59D7F4D PUSH1 0xE0 SHL DUP2 MSTORE CALLER PUSH1 0x4 DUP3 ADD MSTORE PUSH1 0x24 ADD PUSH2 0x8AD JUMP JUMPDEST PUSH1 0x1 SLOAD PUSH1 0x40 MLOAD PUSH12 0xFFFFFFFFFFFFFFFFFFFFFFFF NOT ADDRESS PUSH1 0x60 SHL AND PUSH1 0x20 DUP3 ADD MSTORE PUSH1 0x34 DUP2 ADD SWAP2 SWAP1 SWAP2 MSTORE TIMESTAMP PUSH1 0x54 DUP3 ADD MSTORE PUSH1 0x74 ADD PUSH1 0x40 MLOAD PUSH1 0x20 DUP2 DUP4 SUB SUB DUP2 MSTORE SWAP1 PUSH1 0x40 MSTORE DUP1 MLOAD SWAP1 PUSH1 0x20 ADD KECCAK256 SWAP2 POP DUP2 DUP4 PUSH1 0x0 ADD DUP2 DUP2 MSTORE POP POP PUSH1 0x1 DUP4 SWAP1 DUP1 PUSH1 0x1 DUP2 SLOAD ADD DUP1 DUP3 SSTORE DUP1 SWAP2 POP POP PUSH1 0x1 SWAP1 SUB SWAP1 PUSH1 0x0 MSTORE PUSH1 0x20 PUSH1 0x0 KECCAK256 SWAP1 PUSH1 0x16 MUL ADD PUSH1 0x0 SWAP1 SWAP2 SWAP1 SWAP2 SWAP1 SWAP2 POP PUSH1 0x0 DUP3 ADD MLOAD DUP2 PUSH1 0x0 ADD SSTORE PUSH1 0x20 DUP3 ADD MLOAD DUP2 PUSH1 0x1 ADD PUSH1 0x0 PUSH2 0x100 EXP DUP2 SLOAD DUP2 PUSH1 0x1 PUSH1 0x1 PUSH1 0xA0 SHL SUB MUL NOT AND SWAP1 DUP4 PUSH1 0x1 PUSH1 0x1 PUSH1 0xA0 SHL SUB AND MUL OR SWAP1 SSTORE POP PUSH1 0x40 DUP3 ADD MLOAD DUP2 PUSH1 0x2 ADD PUSH1 0x0 PUSH2 0x100 EXP DUP2 SLOAD DUP2 PUSH1 0x1 PUSH1 0x1 PUSH1 0xA0 SHL SUB MUL NOT AND SWAP1 DUP4 PUSH1 0x1 PUSH1 0x1 PUSH1 0xA0 SHL SUB AND MUL OR SWAP1 SSTORE POP PUSH1 0x60 DUP3 ADD MLOAD DUP2 PUSH1 0x3 ADD PUSH1 0x0 DUP3 ADD MLOAD DUP2 PUSH1 0x0 ADD PUSH1 0x0 PUSH2 0x100 EXP DUP2 SLOAD DUP2 PUSH1 0x1 PUSH1 0x1 PUSH1 0xA0 SHL SUB MUL NOT AND SWAP1 DUP4 PUSH1 0x1 PUSH1 0x1 PUSH1 0xA0 SHL SUB AND MUL OR SWAP1 SSTORE POP PUSH1 0x20 DUP3 ADD MLOAD DUP2 PUSH1 0x1 ADD SSTORE PUSH1 0x40 DUP3 ADD MLOAD DUP2 PUSH1 0x2 ADD SSTORE PUSH1 0x60 DUP3 ADD MLOAD DUP2 PUSH1 0x3 ADD SSTORE PUSH1 0x80 DUP3 ADD MLOAD DUP2 PUSH1 0x4 ADD SSTORE POP POP PUSH1 0x80 DUP3 ADD MLOAD DUP2 PUSH1 0x8 ADD PUSH1 0x0 DUP3 ADD MLOAD DUP2 PUSH1 0x0 ADD PUSH1 0x0 PUSH2 0x100 EXP DUP2 SLOAD DUP2 PUSH1 0x1 PUSH1 0x1 PUSH1 0xA0 SHL SUB MUL NOT AND SWAP1 DUP4 PUSH1 0x1 PUSH1 0x1 PUSH1 0xA0 SHL SUB AND MUL OR SWAP1 SSTORE POP PUSH1 0x20 DUP3 ADD MLOAD DUP2 PUSH1 0x1 ADD SSTORE POP POP PUSH1 0xA0 DUP3 ADD MLOAD DUP2 PUSH1 0xA ADD PUSH1 0x0 DUP3 ADD MLOAD DUP2 PUSH1 0x0 ADD PUSH1 0x0 PUSH2 0x100 EXP DUP2 SLOAD DUP2 PUSH1 0x1 PUSH1 0x1 PUSH1 0xA0 SHL SUB MUL NOT AND SWAP1 DUP4 PUSH1 0x1 PUSH1 0x1 PUSH1 0xA0 SHL SUB AND MUL OR SWAP1 SSTORE POP PUSH1 0x20 DUP3 ADD MLOAD DUP2 PUSH1 0x1 ADD SSTORE PUSH1 0x40 DUP3 ADD MLOAD DUP2 PUSH1 0x2 ADD SSTORE PUSH1 0x60 DUP3 ADD MLOAD DUP2 PUSH1 0x3 ADD SSTORE PUSH1 0x80 DUP3 ADD MLOAD DUP2 PUSH1 0x4 ADD SSTORE POP POP PUSH1 0xC0 DUP3 ADD MLOAD DUP2 PUSH1 0xF ADD SSTORE PUSH1 0xE0 DUP3 ADD MLOAD DUP2 PUSH1 0x10 ADD SSTORE PUSH2 0x100 DUP3 ADD MLOAD DUP2 PUSH1 0x11 ADD SSTORE PUSH2 0x120 DUP3 ADD MLOAD DUP2 PUSH1 0x12 ADD SSTORE PUSH2 0x140 DUP3 ADD MLOAD DUP2 PUSH1 0x13 ADD PUSH1 0x0 DUP3 ADD MLOAD DUP2 PUSH1 0x0 ADD PUSH1 0x0 PUSH2 0x100 EXP DUP2 SLOAD DUP2 PUSH1 0xFF MUL NOT AND SWAP1 DUP4 ISZERO ISZERO MUL OR SWAP1 SSTORE POP PUSH1 0x20 DUP3 ADD MLOAD DUP2 PUSH1 0x0 ADD PUSH1 0x1 PUSH2 0x100 EXP DUP2 SLOAD DUP2 PUSH1 0xFF MUL NOT AND SWAP1 DUP4 ISZERO ISZERO MUL OR SWAP1 SSTORE POP PUSH1 0x40 DUP3 ADD MLOAD DUP2 PUSH1 0x0 ADD PUSH1 0x2 PUSH2 0x100 EXP DUP2 SLOAD DUP2 PUSH1 0xFF MUL NOT AND SWAP1 DUP4 ISZERO ISZERO MUL OR SWAP1 SSTORE POP PUSH1 0x60 DUP3 ADD MLOAD DUP2 PUSH1 0x0 ADD PUSH1 0x3 PUSH2 0x100 EXP DUP2 SLOAD DUP2 PUSH1 0xFF MUL NOT AND SWAP1 DUP4 ISZERO ISZERO MUL OR SWAP1 SSTORE POP PUSH1 0x80 DUP3 ADD MLOAD DUP2 PUSH1 0x0 ADD PUSH1 0x4 PUSH2 0x100 EXP DUP2 SLOAD DUP2 PUSH1 0xFF MUL NOT AND SWAP1 DUP4 ISZERO ISZERO MUL OR SWAP1 SSTORE POP PUSH1 0xA0 DUP3 ADD MLOAD DUP2 PUSH1 0x0 ADD PUSH1 0x5 PUSH2 0x100 EXP DUP2 SLOAD DUP2 PUSH1 0xFF MUL NOT AND SWAP1 DUP4 ISZERO ISZERO MUL OR SWAP1 SSTORE POP PUSH1 0xC0 DUP3 ADD MLOAD DUP2 PUSH1 0x0 ADD PUSH1 0x6 PUSH2 0x100 EXP DUP2 SLOAD DUP2 PUSH1 0xFF MUL NOT AND SWAP1 DUP4 ISZERO ISZERO MUL OR SWAP1 SSTORE POP PUSH1 0xE0 DUP3 ADD MLOAD DUP2 PUSH1 0x0 ADD PUSH1 0x7 PUSH2 0x100 EXP DUP2 SLOAD DUP2 PUSH1 0xFF MUL NOT AND SWAP1 DUP4 ISZERO ISZERO MUL OR SWAP1 SSTORE POP POP POP PUSH2 0x160 DUP3 ADD MLOAD DUP2 PUSH1 0x14 ADD PUSH1 0x0 PUSH2 0x100 EXP DUP2 SLOAD DUP2 PUSH1 0x1 PUSH1 0x1 PUSH1 0xA0 SHL SUB MUL NOT AND SWAP1 DUP4 PUSH1 0x1 PUSH1 0x1 PUSH1 0xA0 SHL SUB AND MUL OR SWAP1 SSTORE POP PUSH2 0x180 DUP3 ADD MLOAD DUP2 PUSH1 0x15 ADD SSTORE POP POP PUSH1 0x1 DUP1 SLOAD SWAP1 POP PUSH1 0x3 PUSH1 0x0 DUP6 PUSH1 0x0 ADD MLOAD DUP2 MSTORE PUSH1 0x20 ADD SWAP1 DUP2 MSTORE PUSH1 0x20 ADD PUSH1 0x0 KECCAK256 DUP2 SWAP1 SSTORE POP PUSH1 0x2 DUP4 PUSH1 0x0 ADD MLOAD SWAP1 DUP1 PUSH1 0x1 DUP2 SLOAD ADD DUP1 DUP3 SSTORE DUP1 SWAP2 POP POP PUSH1 0x1 SWAP1 SUB SWAP1 PUSH1 0x0 MSTORE PUSH1 0x20 PUSH1 0x0 KECCAK256 ADD PUSH1 0x0 SWAP1 SWAP2 SWAP1 SWAP2 SWAP1 SWAP2 POP SSTORE PUSH1 0x4 PUSH1 0x0 DUP5 PUSH1 0x20 ADD MLOAD PUSH1 0x1 PUSH1 0x1 PUSH1 0xA0 SHL SUB AND PUSH1 0x1 PUSH1 0x1 PUSH1 0xA0 SHL SUB AND DUP2 MSTORE PUSH1 0x20 ADD SWAP1 DUP2 MSTORE PUSH1 0x20 ADD PUSH1 0x0 KECCAK256 DUP4 PUSH1 0x0 ADD MLOAD SWAP1 DUP1 PUSH1 0x1 DUP2 SLOAD ADD DUP1 DUP3 SSTORE DUP1 SWAP2 POP POP PUSH1 0x1 SWAP1 SUB SWAP1 PUSH1 0x0 MSTORE PUSH1 0x20 PUSH1 0x0 KECCAK256 ADD PUSH1 0x0 SWAP1 SWAP2 SWAP1 SWAP2 SWAP1 SWAP2 POP SSTORE DUP3 PUSH1 0x0 ADD MLOAD PUSH32 0x5FAB80B8320F567319E4D7377F5305880481272B952242604AF9F7F912AF3BDB PUSH1 0x40 MLOAD PUSH1 0x40 MLOAD DUP1 SWAP2 SUB SWAP1 LOG2 POP SWAP2 SWAP1 POP JUMP JUMPDEST DUP1 MLOAD PUSH1 0x0 SWAP1 DUP2 MSTORE PUSH1 0x3 PUSH1 0x20 MSTORE PUSH1 0x40 DUP2 KECCAK256 SLOAD DUP2 SWAP1 DUP1 PUSH2 0x20B1 JUMPI DUP4 MLOAD PUSH1 0x40 MLOAD PUSH4 0x54EC2EEB PUSH1 0xE0 SHL DUP2 MSTORE PUSH1 0x4 DUP2 ADD SWAP2 SWAP1 SWAP2 MSTORE PUSH1 0x24 ADD PUSH2 0x8AD JUMP JUMPDEST PUSH1 0x0 PUSH1 0x1 PUSH2 0x20BF DUP2 DUP5 PUSH2 0x58D5 JUMP JUMPDEST DUP2 SLOAD DUP2 LT PUSH2 0x20CF JUMPI PUSH2 0x20CF PUSH2 0x5902 JUMP JUMPDEST PUSH1 0x0 SWAP2 DUP3 MSTORE PUSH1 0x20 DUP3 KECCAK256 SWAP2 SLOAD PUSH1 0x16 SWAP2 SWAP1 SWAP2 MUL SWAP1 SWAP2 ADD PUSH1 0x8 DUP2 ADD SLOAD PUSH1 0x40 MLOAD PUSH4 0x4D83BC33 PUSH1 0xE0 SHL DUP2 MSTORE PUSH1 0x1 PUSH1 0x1 PUSH1 0xA0 SHL SUB SWAP2 DUP3 AND PUSH1 0x4 DUP3 ADD MSTORE SWAP2 SWAP4 POP SWAP1 SWAP2 AND SWAP1 DUP2 SWAP1 PUSH4 0x4D83BC33 SWAP1 PUSH1 0x24 ADD PUSH1 0x20 PUSH1 0x40 MLOAD DUP1 DUP4 SUB DUP2 DUP7 DUP1 EXTCODESIZE ISZERO DUP1 ISZERO PUSH2 0x212F JUMPI PUSH1 0x0 DUP1 REVERT JUMPDEST POP GAS STATICCALL ISZERO DUP1 ISZERO PUSH2 0x2143 JUMPI RETURNDATASIZE PUSH1 0x0 DUP1 RETURNDATACOPY RETURNDATASIZE PUSH1 0x0 REVERT JUMPDEST POP POP POP POP PUSH1 0x40 MLOAD RETURNDATASIZE PUSH1 0x1F NOT PUSH1 0x1F DUP3 ADD AND DUP3 ADD DUP1 PUSH1 0x40 MSTORE POP DUP2 ADD SWAP1 PUSH2 0x2167 SWAP2 SWAP1 PUSH2 0x5328 JUMP JUMPDEST PUSH1 0x1 PUSH1 0x1 PUSH1 0xA0 SHL SUB AND CALLER PUSH1 0x1 PUSH1 0x1 PUSH1 0xA0 SHL SUB AND EQ PUSH2 0x219A JUMPI PUSH1 0x40 MLOAD PUSH4 0xA59D7F4D PUSH1 0xE0 SHL DUP2 MSTORE CALLER PUSH1 0x4 DUP3 ADD MSTORE PUSH1 0x24 ADD PUSH2 0x8AD JUMP JUMPDEST PUSH1 0x13 DUP3 ADD SLOAD PUSH1 0xFF AND ISZERO PUSH2 0x21C6 JUMPI DUP6 MLOAD PUSH1 0x40 MLOAD PUSH4 0x2A2AF87D PUSH1 0xE1 SHL DUP2 MSTORE PUSH1 0x4 DUP2 ADD SWAP2 SWAP1 SWAP2 MSTORE PUSH1 0x24 ADD PUSH2 0x8AD JUMP JUMPDEST PUSH1 0x1 DUP3 ADD SLOAD PUSH1 0x40 DUP8 ADD MLOAD PUSH1 0x1 PUSH1 0x1 PUSH1 0xA0 SHL SUB SWAP1 DUP2 AND SWAP2 AND EQ PUSH2 0x2210 JUMPI PUSH1 0x1 DUP3 ADD SLOAD PUSH1 0x40 DUP1 DUP9 ADD MLOAD SWAP1 MLOAD PUSH4 0x1194AF87 PUSH1 0xE1 SHL DUP2 MSTORE PUSH2 0x8AD SWAP3 PUSH1 0x1 PUSH1 0x1 PUSH1 0xA0 SHL SUB AND SWAP2 SWAP1 PUSH1 0x4 ADD PUSH2 0x5662 JUMP JUMPDEST PUSH1 0x0 DUP2 PUSH1 0x1 PUSH1 0x1 PUSH1 0xA0 SHL SUB AND PUSH4 0x741BEF1A PUSH1 0x40 MLOAD DUP2 PUSH4 0xFFFFFFFF AND PUSH1 0xE0 SHL DUP2 MSTORE PUSH1 0x4 ADD PUSH1 0x20 PUSH1 0x40 MLOAD DUP1 DUP4 SUB DUP2 DUP7 DUP1 EXTCODESIZE ISZERO DUP1 ISZERO PUSH2 0x224B JUMPI PUSH1 0x0 DUP1 REVERT JUMPDEST POP GAS STATICCALL ISZERO DUP1 ISZERO PUSH2 0x225F JUMPI RETURNDATASIZE PUSH1 0x0 DUP1 RETURNDATACOPY RETURNDATASIZE PUSH1 0x0 REVERT JUMPDEST POP POP POP POP PUSH1 0x40 MLOAD RETURNDATASIZE PUSH1 0x1F NOT PUSH1 0x1F DUP3 ADD AND DUP3 ADD DUP1 PUSH1 0x40 MSTORE POP DUP2 ADD SWAP1 PUSH2 0x2283 SWAP2 SWAP1 PUSH2 0x5328 JUMP JUMPDEST SWAP1 POP PUSH1 0x0 DUP2 PUSH1 0x1 PUSH1 0x1 PUSH1 0xA0 SHL SUB AND PUSH4 0xAAF5EB68 PUSH1 0x40 MLOAD DUP2 PUSH4 0xFFFFFFFF AND PUSH1 0xE0 SHL DUP2 MSTORE PUSH1 0x4 ADD PUSH1 0x20 PUSH1 0x40 MLOAD DUP1 DUP4 SUB DUP2 DUP7 DUP1 EXTCODESIZE ISZERO DUP1 ISZERO PUSH2 0x22C0 JUMPI PUSH1 0x0 DUP1 REVERT JUMPDEST POP GAS STATICCALL ISZERO DUP1 ISZERO PUSH2 0x22D4 JUMPI RETURNDATASIZE PUSH1 0x0 DUP1 RETURNDATACOPY RETURNDATASIZE PUSH1 0x0 REVERT JUMPDEST POP POP POP POP PUSH1 0x40 MLOAD RETURNDATASIZE PUSH1 0x1F NOT PUSH1 0x1F DUP3 ADD AND DUP3 ADD DUP1 PUSH1 0x40 MSTORE POP DUP2 ADD SWAP1 PUSH2 0x22F8 SWAP2 SWAP1 PUSH2 0x559D JUMP JUMPDEST PUSH1 0xA DUP6 ADD SLOAD PUSH1 0x40 MLOAD PUSH4 0x95BF1BB PUSH1 0xE0 SHL DUP2 MSTORE PUSH1 0x1 PUSH1 0x1 PUSH1 0xA0 SHL SUB SWAP2 DUP3 AND PUSH1 0x4 DUP3 ADD MSTORE SWAP2 SWAP3 POP PUSH1 0x0 SWAP2 SWAP1 DUP6 AND SWAP1 PUSH4 0x95BF1BB SWAP1 PUSH1 0x24 ADD PUSH1 0x20 PUSH1 0x40 MLOAD DUP1 DUP4 SUB DUP2 DUP7 DUP1 EXTCODESIZE ISZERO DUP1 ISZERO PUSH2 0x2345 JUMPI PUSH1 0x0 DUP1 REVERT JUMPDEST POP GAS STATICCALL ISZERO DUP1 ISZERO PUSH2 0x2359 JUMPI RETURNDATASIZE PUSH1 0x0 DUP1 RETURNDATACOPY RETURNDATASIZE PUSH1 0x0 REVERT JUMPDEST POP POP POP POP PUSH1 0x40 MLOAD RETURNDATASIZE PUSH1 0x1F NOT PUSH1 0x1F DUP3 ADD AND DUP3 ADD DUP1 PUSH1 0x40 MSTORE POP DUP2 ADD SWAP1 PUSH2 0x237D SWAP2 SWAP1 PUSH2 0x559D JUMP JUMPDEST SWAP1 POP PUSH1 0x0 DUP10 PUSH1 0x20 ADD MLOAD DUP7 PUSH1 0xA ADD PUSH1 0x1 ADD SLOAD PUSH2 0x2398 SWAP2 SWAP1 PUSH2 0x587C JUMP JUMPDEST PUSH1 0xA DUP8 ADD SLOAD PUSH1 0x8 DUP9 ADD SLOAD PUSH1 0x40 MLOAD PUSH4 0x7360A1B1 PUSH1 0xE1 SHL DUP2 MSTORE SWAP3 SWAP4 POP PUSH1 0x0 SWAP3 DUP4 SWAP3 PUSH1 0x1 PUSH1 0x1 PUSH1 0xA0 SHL SUB DUP10 DUP2 AND SWAP4 PUSH4 0xE6C14362 SWAP4 PUSH2 0x23DC SWAP4 DUP4 AND SWAP3 SWAP1 SWAP2 AND SWAP1 PUSH1 0x4 ADD PUSH2 0x5662 JUMP JUMPDEST PUSH1 0x20 PUSH1 0x40 MLOAD DUP1 DUP4 SUB DUP2 DUP7 DUP1 EXTCODESIZE ISZERO DUP1 ISZERO PUSH2 0x23F4 JUMPI PUSH1 0x0 DUP1 REVERT JUMPDEST POP GAS STATICCALL ISZERO DUP1 ISZERO PUSH2 0x2408 JUMPI RETURNDATASIZE PUSH1 0x0 DUP1 RETURNDATACOPY RETURNDATASIZE PUSH1 0x0 REVERT JUMPDEST POP POP POP POP PUSH1 0x40 MLOAD RETURNDATASIZE PUSH1 0x1F NOT PUSH1 0x1F DUP3 ADD AND DUP3 ADD DUP1 PUSH1 0x40 MSTORE POP DUP2 ADD SWAP1 PUSH2 0x242C SWAP2 SWAP1 PUSH2 0x559D JUMP JUMPDEST SWAP1 POP PUSH2 0x243A DUP6 PUSH2 0x2710 PUSH2 0x58B6 JUMP JUMPDEST DUP5 PUSH2 0x2445 DUP4 DUP7 PUSH2 0x58B6 JUMP JUMPDEST PUSH2 0x244F SWAP2 SWAP1 PUSH2 0x58B6 JUMP JUMPDEST PUSH2 0x2459 SWAP2 SWAP1 PUSH2 0x5894 JUMP JUMPDEST PUSH1 0xA DUP10 ADD SLOAD PUSH1 0x40 MLOAD PUSH4 0x17F783B PUSH1 0xE6 SHL DUP2 MSTORE PUSH1 0x1 PUSH1 0x1 PUSH1 0xA0 SHL SUB SWAP2 DUP3 AND PUSH1 0x4 DUP3 ADD MSTORE SWAP2 SWAP4 POP PUSH1 0x0 SWAP3 POP DUP9 AND SWAP1 PUSH4 0x5FDE0EC0 SWAP1 PUSH1 0x24 ADD PUSH1 0x20 PUSH1 0x40 MLOAD DUP1 DUP4 SUB DUP2 DUP7 DUP1 EXTCODESIZE ISZERO DUP1 ISZERO PUSH2 0x24A6 JUMPI PUSH1 0x0 DUP1 REVERT JUMPDEST POP GAS STATICCALL ISZERO DUP1 ISZERO PUSH2 0x24BA JUMPI RETURNDATASIZE PUSH1 0x0 DUP1 RETURNDATACOPY RETURNDATASIZE PUSH1 0x0 REVERT JUMPDEST POP POP POP POP PUSH1 0x40 MLOAD RETURNDATASIZE PUSH1 0x1F NOT PUSH1 0x1F DUP3 ADD AND DUP3 ADD DUP1 PUSH1 0x40 MSTORE POP DUP2 ADD SWAP1 PUSH2 0x24DE SWAP2 SWAP1 PUSH2 0x559D JUMP JUMPDEST SWAP1 POP PUSH2 0x24EA DUP5 DUP5 PUSH2 0x58B6 JUMP JUMPDEST DUP6 PUSH2 0x24F5 DUP4 DUP6 PUSH2 0x58B6 JUMP JUMPDEST PUSH2 0x24FF SWAP2 SWAP1 PUSH2 0x58B6 JUMP JUMPDEST PUSH2 0x2509 SWAP2 SWAP1 PUSH2 0x5894 JUMP JUMPDEST PUSH1 0x3 DUP10 ADD SLOAD PUSH1 0x40 MLOAD PUSH4 0x5BA2EDAB PUSH1 0xE1 SHL DUP2 MSTORE PUSH1 0x1 PUSH1 0x1 PUSH1 0xA0 SHL SUB SWAP2 DUP3 AND PUSH1 0x4 DUP3 ADD MSTORE SWAP2 SWAP13 POP PUSH1 0x0 SWAP3 POP DUP9 AND SWAP1 PUSH4 0xB745DB56 SWAP1 PUSH1 0x24 ADD PUSH1 0x20 PUSH1 0x40 MLOAD DUP1 DUP4 SUB DUP2 DUP7 DUP1 EXTCODESIZE ISZERO DUP1 ISZERO PUSH2 0x2556 JUMPI PUSH1 0x0 DUP1 REVERT JUMPDEST POP GAS STATICCALL ISZERO DUP1 ISZERO PUSH2 0x256A JUMPI RETURNDATASIZE PUSH1 0x0 DUP1 RETURNDATACOPY RETURNDATASIZE PUSH1 0x0 REVERT JUMPDEST POP POP POP POP PUSH1 0x40 MLOAD RETURNDATASIZE PUSH1 0x1F NOT PUSH1 0x1F DUP3 ADD AND DUP3 ADD DUP1 PUSH1 0x40 MSTORE POP DUP2 ADD SWAP1 PUSH2 0x258E SWAP2 SWAP1 PUSH2 0x559D JUMP JUMPDEST PUSH1 0x3 DUP10 ADD SLOAD PUSH1 0x40 MLOAD PUSH4 0xF5D0E175 PUSH1 0xE0 SHL DUP2 MSTORE PUSH1 0x1 PUSH1 0x1 PUSH1 0xA0 SHL SUB SWAP2 DUP3 AND PUSH1 0x4 DUP3 ADD MSTORE SWAP2 SWAP3 POP PUSH1 0x0 SWAP2 SWAP1 DUP10 AND SWAP1 PUSH4 0xF5D0E175 SWAP1 PUSH1 0x24 ADD PUSH1 0x20 PUSH1 0x40 MLOAD DUP1 DUP4 SUB DUP2 DUP7 DUP1 EXTCODESIZE ISZERO DUP1 ISZERO PUSH2 0x25DB JUMPI PUSH1 0x0 DUP1 REVERT JUMPDEST POP GAS STATICCALL ISZERO DUP1 ISZERO PUSH2 0x25EF JUMPI RETURNDATASIZE PUSH1 0x0 DUP1 RETURNDATACOPY RETURNDATASIZE PUSH1 0x0 REVERT JUMPDEST POP POP POP POP PUSH1 0x40 MLOAD RETURNDATASIZE PUSH1 0x1F NOT PUSH1 0x1F DUP3 ADD AND DUP3 ADD DUP1 PUSH1 0x40 MSTORE POP DUP2 ADD SWAP1 PUSH2 0x2613 SWAP2 SWAP1 PUSH2 0x559D JUMP JUMPDEST SWAP1 POP DUP3 DUP10 PUSH1 0x8 ADD PUSH1 0x1 ADD SLOAD GT ISZERO PUSH2 0x266F JUMPI PUSH1 0x0 DUP3 DUP3 DUP6 DUP13 PUSH1 0x8 ADD PUSH1 0x1 ADD SLOAD PUSH2 0x263B SWAP2 SWAP1 PUSH2 0x58D5 JUMP JUMPDEST PUSH2 0x2645 SWAP2 SWAP1 PUSH2 0x58B6 JUMP JUMPDEST PUSH2 0x264F SWAP2 SWAP1 PUSH2 0x5894 JUMP JUMPDEST PUSH1 0x4 DUP12 ADD SLOAD SWAP1 SWAP2 POP PUSH2 0x2661 DUP9 DUP4 PUSH2 0x58B6 JUMP JUMPDEST PUSH2 0x266B SWAP2 SWAP1 PUSH2 0x5894 JUMP JUMPDEST SWAP12 POP POP JUMPDEST POP POP PUSH1 0xD DUP8 ADD DUP11 SWAP1 SSTORE PUSH1 0x6 DUP8 ADD DUP10 SWAP1 SSTORE DUP11 MLOAD PUSH1 0x20 DUP1 DUP14 ADD MLOAD PUSH1 0x40 DUP1 DUP16 ADD MLOAD DUP2 MLOAD SWAP3 DUP4 MSTORE SWAP3 DUP3 ADD DUP15 SWAP1 MSTORE DUP2 ADD DUP13 SWAP1 MSTORE PUSH1 0x1 PUSH1 0x1 PUSH1 0xA0 SHL SUB SWAP1 SWAP2 AND PUSH1 0x60 DUP3 ADD MSTORE PUSH32 0x31C8AD1EA38B652C0E26AE4E5B255569097FBC4B46F45768030A16EE40F894DF SWAP1 PUSH1 0x80 ADD PUSH1 0x40 MLOAD DUP1 SWAP2 SUB SWAP1 LOG2 POP POP POP POP POP POP POP POP SWAP2 POP SWAP2 JUMP JUMPDEST PUSH1 0x0 DUP5 DUP2 MSTORE PUSH1 0x3 PUSH1 0x20 MSTORE PUSH1 0x40 SWAP1 KECCAK256 SLOAD DUP1 PUSH2 0x2717 JUMPI PUSH1 0x40 MLOAD PUSH4 0x54EC2EEB PUSH1 0xE0 SHL DUP2 MSTORE PUSH1 0x4 DUP2 ADD DUP7 SWAP1 MSTORE PUSH1 0x24 ADD PUSH2 0x8AD JUMP JUMPDEST PUSH1 0x0 PUSH1 0x1 PUSH2 0x2725 DUP2 DUP5 PUSH2 0x58D5 JUMP JUMPDEST DUP2 SLOAD DUP2 LT PUSH2 0x2735 JUMPI PUSH2 0x2735 PUSH2 0x5902 JUMP JUMPDEST PUSH1 0x0 SWAP2 DUP3 MSTORE PUSH1 0x20 DUP3 KECCAK256 SWAP2 SLOAD PUSH1 0x16 SWAP2 SWAP1 SWAP2 MUL SWAP1 SWAP2 ADD PUSH1 0x8 DUP2 ADD SLOAD PUSH1 0x40 MLOAD PUSH4 0x4D83BC33 PUSH1 0xE0 SHL DUP2 MSTORE PUSH1 0x1 PUSH1 0x1 PUSH1 0xA0 SHL SUB SWAP2 DUP3 AND PUSH1 0x4 DUP3 ADD MSTORE SWAP2 SWAP4 POP SWAP1 SWAP2 AND SWAP1 DUP2 SWAP1 PUSH4 0x4D83BC33 SWAP1 PUSH1 0x24 ADD PUSH1 0x20 PUSH1 0x40 MLOAD DUP1 DUP4 SUB DUP2 DUP7 DUP1 EXTCODESIZE ISZERO DUP1 ISZERO PUSH2 0x2795 JUMPI PUSH1 0x0 DUP1 REVERT JUMPDEST POP GAS STATICCALL ISZERO DUP1 ISZERO PUSH2 0x27A9 JUMPI RETURNDATASIZE PUSH1 0x0 DUP1 RETURNDATACOPY RETURNDATASIZE PUSH1 0x0 REVERT JUMPDEST POP POP POP POP PUSH1 0x40 MLOAD RETURNDATASIZE PUSH1 0x1F NOT PUSH1 0x1F DUP3 ADD AND DUP3 ADD DUP1 PUSH1 0x40 MSTORE POP DUP2 ADD SWAP1 PUSH2 0x27CD SWAP2 SWAP1 PUSH2 0x5328 JUMP JUMPDEST PUSH1 0x1 PUSH1 0x1 PUSH1 0xA0 SHL SUB AND CALLER PUSH1 0x1 PUSH1 0x1 PUSH1 0xA0 SHL SUB AND EQ PUSH2 0x2800 JUMPI PUSH1 0x40 MLOAD PUSH4 0xA59D7F4D PUSH1 0xE0 SHL DUP2 MSTORE CALLER PUSH1 0x4 DUP3 ADD MSTORE PUSH1 0x24 ADD PUSH2 0x8AD JUMP JUMPDEST PUSH1 0x13 DUP3 ADD SLOAD PUSH1 0xFF AND PUSH2 0x2828 JUMPI PUSH1 0x40 MLOAD PUSH4 0x5DE41DB7 PUSH1 0xE1 SHL DUP2 MSTORE PUSH1 0x4 DUP2 ADD DUP9 SWAP1 MSTORE PUSH1 0x24 ADD PUSH2 0x8AD JUMP JUMPDEST PUSH1 0x0 DUP2 PUSH1 0x1 PUSH1 0x1 PUSH1 0xA0 SHL SUB AND PUSH4 0x741BEF1A PUSH1 0x40 MLOAD DUP2 PUSH4 0xFFFFFFFF AND PUSH1 0xE0 SHL DUP2 MSTORE PUSH1 0x4 ADD PUSH1 0x20 PUSH1 0x40 MLOAD DUP1 DUP4 SUB DUP2 DUP7 DUP1 EXTCODESIZE ISZERO DUP1 ISZERO PUSH2 0x2863 JUMPI PUSH1 0x0 DUP1 REVERT JUMPDEST POP GAS STATICCALL ISZERO DUP1 ISZERO PUSH2 0x2877 JUMPI RETURNDATASIZE PUSH1 0x0 DUP1 RETURNDATACOPY RETURNDATASIZE PUSH1 0x0 REVERT JUMPDEST POP POP POP POP PUSH1 0x40 MLOAD RETURNDATASIZE PUSH1 0x1F NOT PUSH1 0x1F DUP3 ADD AND DUP3 ADD DUP1 PUSH1 0x40 MSTORE POP DUP2 ADD SWAP1 PUSH2 0x289B SWAP2 SWAP1 PUSH2 0x5328 JUMP JUMPDEST SWAP1 POP PUSH1 0x0 DUP2 PUSH1 0x1 PUSH1 0x1 PUSH1 0xA0 SHL SUB AND PUSH4 0xAAF5EB68 PUSH1 0x40 MLOAD DUP2 PUSH4 0xFFFFFFFF AND PUSH1 0xE0 SHL DUP2 MSTORE PUSH1 0x4 ADD PUSH1 0x20 PUSH1 0x40 MLOAD DUP1 DUP4 SUB DUP2 DUP7 DUP1 EXTCODESIZE ISZERO DUP1 ISZERO PUSH2 0x28D8 JUMPI PUSH1 0x0 DUP1 REVERT JUMPDEST POP GAS STATICCALL ISZERO DUP1 ISZERO PUSH2 0x28EC JUMPI RETURNDATASIZE PUSH1 0x0 DUP1 RETURNDATACOPY RETURNDATASIZE PUSH1 0x0 REVERT JUMPDEST POP POP POP POP PUSH1 0x40 MLOAD RETURNDATASIZE PUSH1 0x1F NOT PUSH1 0x1F DUP3 ADD AND DUP3 ADD DUP1 PUSH1 0x40 MSTORE POP DUP2 ADD SWAP1 PUSH2 0x2910 SWAP2 SWAP1 PUSH2 0x559D JUMP JUMPDEST PUSH1 0x4 DUP6 ADD SLOAD SWAP1 SWAP2 POP PUSH2 0x2922 DUP3 DUP11 PUSH2 0x58B6 JUMP JUMPDEST PUSH2 0x292C SWAP2 SWAP1 PUSH2 0x5894 JUMP JUMPDEST PUSH1 0x7 DUP6 ADD SSTORE DUP7 ISZERO PUSH2 0x2968 JUMPI PUSH1 0xB DUP5 ADD SLOAD PUSH1 0x0 SWAP1 PUSH2 0x294A SWAP1 DUP9 SWAP1 PUSH2 0x58D5 JUMP JUMPDEST SWAP1 POP DUP1 PUSH2 0x2957 DUP4 DUP11 PUSH2 0x58B6 JUMP JUMPDEST PUSH2 0x2961 SWAP2 SWAP1 PUSH2 0x5894 JUMP JUMPDEST PUSH1 0xE DUP7 ADD SSTORE POP JUMPDEST POP POP POP POP POP POP POP POP POP JUMP JUMPDEST PUSH1 0x1 DUP2 DUP2 SLOAD DUP2 LT PUSH2 0x2983 JUMPI PUSH1 0x0 DUP1 REVERT JUMPDEST SWAP1 PUSH1 0x0 MSTORE PUSH1 0x20 PUSH1 0x0 KECCAK256 SWAP1 PUSH1 0x16 MUL ADD PUSH1 0x0 SWAP2 POP SWAP1 POP DUP1 PUSH1 0x0 ADD SLOAD SWAP1 DUP1 PUSH1 0x1 ADD PUSH1 0x0 SWAP1 SLOAD SWAP1 PUSH2 0x100 EXP SWAP1 DIV PUSH1 0x1 PUSH1 0x1 PUSH1 0xA0 SHL SUB AND SWAP1 DUP1 PUSH1 0x2 ADD PUSH1 0x0 SWAP1 SLOAD SWAP1 PUSH2 0x100 EXP SWAP1 DIV PUSH1 0x1 PUSH1 0x1 PUSH1 0xA0 SHL SUB AND SWAP1 DUP1 PUSH1 0x3 ADD PUSH1 0x40 MLOAD DUP1 PUSH1 0xA0 ADD PUSH1 0x40 MSTORE SWAP1 DUP2 PUSH1 0x0 DUP3 ADD PUSH1 0x0 SWAP1 SLOAD SWAP1 PUSH2 0x100 EXP SWAP1 DIV PUSH1 0x1 PUSH1 0x1 PUSH1 0xA0 SHL SUB AND PUSH1 0x1 PUSH1 0x1 PUSH1 0xA0 SHL SUB AND PUSH1 0x1 PUSH1 0x1 PUSH1 0xA0 SHL SUB AND DUP2 MSTORE PUSH1 0x20 ADD PUSH1 0x1 DUP3 ADD SLOAD DUP2 MSTORE PUSH1 0x20 ADD PUSH1 0x2 DUP3 ADD SLOAD DUP2 MSTORE PUSH1 0x20 ADD PUSH1 0x3 DUP3 ADD SLOAD DUP2 MSTORE PUSH1 0x20 ADD PUSH1 0x4 DUP3 ADD SLOAD DUP2 MSTORE POP POP SWAP1 DUP1 PUSH1 0x8 ADD PUSH1 0x40 MLOAD DUP1 PUSH1 0x40 ADD PUSH1 0x40 MSTORE SWAP1 DUP2 PUSH1 0x0 DUP3 ADD PUSH1 0x0 SWAP1 SLOAD SWAP1 PUSH2 0x100 EXP SWAP1 DIV PUSH1 0x1 PUSH1 0x1 PUSH1 0xA0 SHL SUB AND PUSH1 0x1 PUSH1 0x1 PUSH1 0xA0 SHL SUB AND PUSH1 0x1 PUSH1 0x1 PUSH1 0xA0 SHL SUB AND DUP2 MSTORE PUSH1 0x20 ADD PUSH1 0x1 DUP3 ADD SLOAD DUP2 MSTORE POP POP SWAP1 DUP1 PUSH1 0xA ADD PUSH1 0x40 MLOAD DUP1 PUSH1 0xA0 ADD PUSH1 0x40 MSTORE SWAP1 DUP2 PUSH1 0x0 DUP3 ADD PUSH1 0x0 SWAP1 SLOAD SWAP1 PUSH2 0x100 EXP SWAP1 DIV PUSH1 0x1 PUSH1 0x1 PUSH1 0xA0 SHL SUB AND PUSH1 0x1 PUSH1 0x1 PUSH1 0xA0 SHL SUB AND PUSH1 0x1 PUSH1 0x1 PUSH1 0xA0 SHL SUB AND DUP2 MSTORE PUSH1 0x20 ADD PUSH1 0x1 DUP3 ADD SLOAD DUP2 MSTORE PUSH1 0x20 ADD PUSH1 0x2 DUP3 ADD SLOAD DUP2 MSTORE PUSH1 0x20 ADD PUSH1 0x3 DUP3 ADD SLOAD DUP2 MSTORE PUSH1 0x20 ADD PUSH1 0x4 DUP3 ADD SLOAD DUP2 MSTORE POP POP SWAP1 DUP1 PUSH1 0xF ADD SLOAD SWAP1 DUP1 PUSH1 0x10 ADD SLOAD SWAP1 DUP1 PUSH1 0x11 ADD SLOAD SWAP1 DUP1 PUSH1 0x12 ADD SLOAD SWAP1 DUP1 PUSH1 0x13 ADD PUSH1 0x40 MLOAD DUP1 PUSH2 0x100 ADD PUSH1 0x40 MSTORE SWAP1 DUP2 PUSH1 0x0 DUP3 ADD PUSH1 0x0 SWAP1 SLOAD SWAP1 PUSH2 0x100 EXP SWAP1 DIV PUSH1 0xFF AND ISZERO ISZERO ISZERO ISZERO DUP2 MSTORE PUSH1 0x20 ADD PUSH1 0x0 DUP3 ADD PUSH1 0x1 SWAP1 SLOAD SWAP1 PUSH2 0x100 EXP SWAP1 DIV PUSH1 0xFF AND ISZERO ISZERO ISZERO ISZERO DUP2 MSTORE PUSH1 0x20 ADD PUSH1 0x0 DUP3 ADD PUSH1 0x2 SWAP1 SLOAD SWAP1 PUSH2 0x100 EXP SWAP1 DIV PUSH1 0xFF AND ISZERO ISZERO ISZERO ISZERO DUP2 MSTORE PUSH1 0x20 ADD PUSH1 0x0 DUP3 ADD PUSH1 0x3 SWAP1 SLOAD SWAP1 PUSH2 0x100 EXP SWAP1 DIV PUSH1 0xFF AND ISZERO ISZERO ISZERO ISZERO DUP2 MSTORE PUSH1 0x20 ADD PUSH1 0x0 DUP3 ADD PUSH1 0x4 SWAP1 SLOAD SWAP1 PUSH2 0x100 EXP SWAP1 DIV PUSH1 0xFF AND ISZERO ISZERO ISZERO ISZERO DUP2 MSTORE PUSH1 0x20 ADD PUSH1 0x0 DUP3 ADD PUSH1 0x5 SWAP1 SLOAD SWAP1 PUSH2 0x100 EXP SWAP1 DIV PUSH1 0xFF AND ISZERO ISZERO ISZERO ISZERO DUP2 MSTORE PUSH1 0x20 ADD PUSH1 0x0 DUP3 ADD PUSH1 0x6 SWAP1 SLOAD SWAP1 PUSH2 0x100 EXP SWAP1 DIV PUSH1 0xFF AND ISZERO ISZERO ISZERO ISZERO DUP2 MSTORE PUSH1 0x20 ADD PUSH1 0x0 DUP3 ADD PUSH1 0x7 SWAP1 SLOAD SWAP1 PUSH2 0x100 EXP SWAP1 DIV PUSH1 0xFF AND ISZERO ISZERO ISZERO ISZERO DUP2 MSTORE POP POP SWAP1 DUP1 PUSH1 0x14 ADD PUSH1 0x0 SWAP1 SLOAD SWAP1 PUSH2 0x100 EXP SWAP1 DIV PUSH1 0x1 PUSH1 0x1 PUSH1 0xA0 SHL SUB AND SWAP1 DUP1 PUSH1 0x15 ADD SLOAD SWAP1 POP DUP14 JUMP JUMPDEST PUSH1 0x0 DUP3 DUP2 MSTORE PUSH1 0x3 PUSH1 0x20 MSTORE PUSH1 0x40 SWAP1 KECCAK256 SLOAD DUP1 PUSH2 0x2C3A JUMPI PUSH1 0x40 MLOAD PUSH4 0x54EC2EEB PUSH1 0xE0 SHL DUP2 MSTORE PUSH1 0x4 DUP2 ADD DUP5 SWAP1 MSTORE PUSH1 0x24 ADD PUSH2 0x8AD JUMP JUMPDEST PUSH1 0x0 PUSH1 0x1 PUSH2 0x2C48 DUP2 DUP5 PUSH2 0x58D5 JUMP JUMPDEST DUP2 SLOAD DUP2 LT PUSH2 0x2C58 JUMPI PUSH2 0x2C58 PUSH2 0x5902 JUMP JUMPDEST PUSH1 0x0 SWAP2 DUP3 MSTORE PUSH1 0x20 DUP3 KECCAK256 SWAP2 SLOAD PUSH1 0x16 SWAP2 SWAP1 SWAP2 MUL SWAP1 SWAP2 ADD PUSH1 0x8 DUP2 ADD SLOAD PUSH1 0x40 MLOAD PUSH4 0x4D83BC33 PUSH1 0xE0 SHL DUP2 MSTORE PUSH1 0x1 PUSH1 0x1 PUSH1 0xA0 SHL SUB SWAP2 DUP3 AND PUSH1 0x4 DUP3 ADD MSTORE SWAP2 SWAP4 POP SWAP1 SWAP2 AND SWAP1 DUP2 SWAP1 PUSH4 0x4D83BC33 SWAP1 PUSH1 0x24 ADD PUSH1 0x20 PUSH1 0x40 MLOAD DUP1 DUP4 SUB DUP2 DUP7 DUP1 EXTCODESIZE ISZERO DUP1 ISZERO PUSH2 0x2CB8 JUMPI PUSH1 0x0 DUP1 REVERT JUMPDEST POP GAS STATICCALL ISZERO DUP1 ISZERO PUSH2 0x2CCC JUMPI RETURNDATASIZE PUSH1 0x0 DUP1 RETURNDATACOPY RETURNDATASIZE PUSH1 0x0 REVERT JUMPDEST POP POP POP POP PUSH1 0x40 MLOAD RETURNDATASIZE PUSH1 0x1F NOT PUSH1 0x1F DUP3 ADD AND DUP3 ADD DUP1 PUSH1 0x40 MSTORE POP DUP2 ADD SWAP1 PUSH2 0x2CF0 SWAP2 SWAP1 PUSH2 0x5328 JUMP JUMPDEST PUSH1 0x1 PUSH1 0x1 PUSH1 0xA0 SHL SUB AND CALLER PUSH1 0x1 PUSH1 0x1 PUSH1 0xA0 SHL SUB AND EQ PUSH2 0x2D23 JUMPI PUSH1 0x40 MLOAD PUSH4 0xA59D7F4D PUSH1 0xE0 SHL DUP2 MSTORE CALLER PUSH1 0x4 DUP3 ADD MSTORE PUSH1 0x24 ADD PUSH2 0x8AD JUMP JUMPDEST PUSH1 0x13 DUP3 ADD SLOAD PUSH1 0xFF AND ISZERO PUSH2 0x2D4C JUMPI PUSH1 0x40 MLOAD PUSH4 0x2A2AF87D PUSH1 0xE1 SHL DUP2 MSTORE PUSH1 0x4 DUP2 ADD DUP7 SWAP1 MSTORE PUSH1 0x24 ADD PUSH2 0x8AD JUMP JUMPDEST PUSH1 0x1 DUP3 ADD SLOAD PUSH1 0x1 PUSH1 0x1 PUSH1 0xA0 SHL SUB DUP6 DUP2 AND SWAP2 AND EQ PUSH2 0x2D8D JUMPI PUSH1 0x1 DUP3 ADD SLOAD PUSH1 0x40 MLOAD PUSH4 0x1194AF87 PUSH1 0xE1 SHL DUP2 MSTORE PUSH2 0x8AD SWAP2 PUSH1 0x1 PUSH1 0x1 PUSH1 0xA0 SHL SUB AND SWAP1 DUP7 SWAP1 PUSH1 0x4 ADD PUSH2 0x5662 JUMP JUMPDEST PUSH1 0x13 DUP3 ADD DUP1 SLOAD PUSH6 0xFF00000000FF NOT AND PUSH6 0x10000000001 OR SWAP1 SSTORE PUSH1 0x14 DUP3 ADD DUP1 SLOAD PUSH1 0x1 PUSH1 0x1 PUSH1 0xA0 SHL SUB NOT AND PUSH1 0x1 PUSH1 0x1 PUSH1 0xA0 SHL SUB DUP7 AND SWAP1 DUP2 OR SWAP1 SWAP2 SSTORE PUSH1 0x40 MLOAD SWAP1 DUP2 MSTORE DUP6 SWAP1 PUSH32 0x6A85BD8516BD8204E81AA2933301A26C59FC549B80EA554B8628AFBCDF21E2C7 SWAP1 PUSH1 0x20 ADD PUSH1 0x40 MLOAD DUP1 SWAP2 SUB SWAP1 LOG2 POP POP POP POP POP JUMP JUMPDEST PUSH2 0x2E0A PUSH2 0x4F68 JUMP JUMPDEST PUSH1 0x0 DUP3 DUP2 MSTORE PUSH1 0x3 PUSH1 0x20 MSTORE PUSH1 0x40 SWAP1 KECCAK256 SLOAD DUP1 ISZERO PUSH2 0x3005 JUMPI PUSH1 0x1 PUSH2 0x2E2B DUP2 DUP4 PUSH2 0x58D5 JUMP JUMPDEST DUP2 SLOAD DUP2 LT PUSH2 0x2E3B JUMPI PUSH2 0x2E3B PUSH2 0x5902 JUMP JUMPDEST PUSH1 0x0 SWAP2 DUP3 MSTORE PUSH1 0x20 SWAP2 DUP3 SWAP1 KECCAK256 PUSH1 0x40 DUP1 MLOAD PUSH2 0x1A0 DUP2 ADD DUP3 MSTORE PUSH1 0x16 SWAP1 SWAP4 MUL SWAP1 SWAP2 ADD DUP1 SLOAD DUP4 MSTORE PUSH1 0x1 DUP2 ADD SLOAD PUSH1 0x1 PUSH1 0x1 PUSH1 0xA0 SHL SUB SWAP1 DUP2 AND DUP5 DUP7 ADD MSTORE PUSH1 0x2 DUP3 ADD SLOAD DUP2 AND DUP5 DUP5 ADD MSTORE DUP3 MLOAD PUSH1 0xA0 DUP1 DUP3 ADD DUP6 MSTORE PUSH1 0x3 DUP5 ADD SLOAD DUP4 AND DUP3 MSTORE PUSH1 0x4 DUP5 ADD SLOAD DUP3 DUP9 ADD MSTORE PUSH1 0x5 DUP5 ADD SLOAD DUP3 DUP7 ADD MSTORE PUSH1 0x6 DUP5 ADD SLOAD PUSH1 0x60 DUP4 DUP2 ADD SWAP2 SWAP1 SWAP2 MSTORE PUSH1 0x7 DUP6 ADD SLOAD PUSH1 0x80 DUP1 DUP6 ADD SWAP2 SWAP1 SWAP2 MSTORE DUP2 DUP9 ADD SWAP4 SWAP1 SWAP4 MSTORE DUP6 MLOAD DUP1 DUP8 ADD DUP8 MSTORE PUSH1 0x8 DUP7 ADD SLOAD DUP6 AND DUP2 MSTORE PUSH1 0x9 DUP7 ADD SLOAD DUP2 DUP11 ADD MSTORE DUP4 DUP9 ADD MSTORE DUP6 MLOAD DUP1 DUP4 ADD DUP8 MSTORE PUSH1 0xA DUP7 ADD SLOAD DUP6 AND DUP2 MSTORE PUSH1 0xB DUP7 ADD SLOAD DUP2 DUP11 ADD MSTORE PUSH1 0xC DUP7 ADD SLOAD DUP2 DUP9 ADD MSTORE PUSH1 0xD DUP7 ADD SLOAD DUP2 DUP4 ADD MSTORE PUSH1 0xE DUP7 ADD SLOAD DUP2 DUP6 ADD MSTORE DUP3 DUP9 ADD MSTORE PUSH1 0xF DUP6 ADD SLOAD PUSH1 0xC0 DUP1 DUP10 ADD SWAP2 SWAP1 SWAP2 MSTORE PUSH1 0x10 DUP7 ADD SLOAD PUSH1 0xE0 DUP1 DUP11 ADD SWAP2 SWAP1 SWAP2 MSTORE PUSH1 0x11 DUP8 ADD SLOAD PUSH2 0x100 DUP1 DUP12 ADD SWAP2 SWAP1 SWAP2 MSTORE PUSH1 0x12 DUP9 ADD SLOAD PUSH2 0x120 DUP12 ADD MSTORE DUP9 MLOAD DUP1 DUP3 ADD DUP11 MSTORE PUSH1 0x13 DUP10 ADD SLOAD PUSH1 0xFF DUP1 DUP3 AND ISZERO ISZERO DUP4 MSTORE SWAP3 DUP2 DIV DUP4 AND ISZERO ISZERO SWAP13 DUP3 ADD SWAP13 SWAP1 SWAP13 MSTORE PUSH3 0x10000 DUP13 DIV DUP3 AND ISZERO ISZERO SWAP10 DUP2 ADD SWAP10 SWAP1 SWAP10 MSTORE PUSH4 0x1000000 DUP12 DIV DUP2 AND ISZERO ISZERO SWAP4 DUP10 ADD SWAP4 SWAP1 SWAP4 MSTORE PUSH5 0x100000000 DUP11 DIV DUP4 AND ISZERO ISZERO SWAP5 DUP9 ADD SWAP5 SWAP1 SWAP5 MSTORE PUSH1 0x1 PUSH1 0x28 SHL DUP10 DIV DUP3 AND ISZERO ISZERO SWAP3 DUP8 ADD SWAP3 SWAP1 SWAP3 MSTORE PUSH1 0x1 PUSH1 0x30 SHL DUP9 DIV DUP2 AND ISZERO ISZERO SWAP2 DUP7 ADD SWAP2 SWAP1 SWAP2 MSTORE PUSH1 0x1 PUSH1 0x38 SHL SWAP1 SWAP7 DIV SWAP1 SWAP6 AND ISZERO ISZERO SWAP5 DUP4 ADD SWAP5 SWAP1 SWAP5 MSTORE PUSH2 0x140 DUP4 ADD SWAP2 SWAP1 SWAP2 MSTORE PUSH1 0x14 DUP2 ADD SLOAD SWAP1 SWAP3 AND PUSH2 0x160 DUP3 ADD MSTORE PUSH1 0x15 SWAP1 SWAP2 ADD SLOAD PUSH2 0x180 DUP3 ADD MSTORE SWAP2 POP JUMPDEST POP SWAP2 SWAP1 POP JUMP JUMPDEST PUSH1 0x0 DUP3 DUP2 MSTORE PUSH1 0x3 PUSH1 0x20 MSTORE PUSH1 0x40 DUP2 KECCAK256 SLOAD DUP1 PUSH2 0x303B JUMPI PUSH1 0x40 MLOAD PUSH4 0x54EC2EEB PUSH1 0xE0 SHL DUP2 MSTORE PUSH1 0x4 DUP2 ADD DUP6 SWAP1 MSTORE PUSH1 0x24 ADD PUSH2 0x8AD JUMP JUMPDEST PUSH1 0x0 PUSH1 0x1 PUSH2 0x3049 DUP2 DUP5 PUSH2 0x58D5 JUMP JUMPDEST DUP2 SLOAD DUP2 LT PUSH2 0x3059 JUMPI PUSH2 0x3059 PUSH2 0x5902 JUMP JUMPDEST PUSH1 0x0 SWAP2 DUP3 MSTORE PUSH1 0x20 DUP3 KECCAK256 SWAP2 SLOAD PUSH1 0x16 SWAP2 SWAP1 SWAP2 MUL SWAP1 SWAP2 ADD PUSH1 0x8 DUP2 ADD SLOAD PUSH1 0x40 MLOAD PUSH4 0x4D83BC33 PUSH1 0xE0 SHL DUP2 MSTORE PUSH1 0x1 PUSH1 0x1 PUSH1 0xA0 SHL SUB SWAP2 DUP3 AND PUSH1 0x4 DUP3 ADD MSTORE SWAP2 SWAP4 POP SWAP1 SWAP2 AND SWAP1 DUP2 SWAP1 PUSH4 0x4D83BC33 SWAP1 PUSH1 0x24 ADD PUSH1 0x20 PUSH1 0x40 MLOAD DUP1 DUP4 SUB DUP2 DUP7 DUP1 EXTCODESIZE ISZERO DUP1 ISZERO PUSH2 0x30B9 JUMPI PUSH1 0x0 DUP1 REVERT JUMPDEST POP GAS STATICCALL ISZERO DUP1 ISZERO PUSH2 0x30CD JUMPI RETURNDATASIZE PUSH1 0x0 DUP1 RETURNDATACOPY RETURNDATASIZE PUSH1 0x0 REVERT JUMPDEST POP POP POP POP PUSH1 0x40 MLOAD RETURNDATASIZE PUSH1 0x1F NOT PUSH1 0x1F DUP3 ADD AND DUP3 ADD DUP1 PUSH1 0x40 MSTORE POP DUP2 ADD SWAP1 PUSH2 0x30F1 SWAP2 SWAP1 PUSH2 0x5328 JUMP JUMPDEST PUSH1 0x1 PUSH1 0x1 PUSH1 0xA0 SHL SUB AND CALLER PUSH1 0x1 PUSH1 0x1 PUSH1 0xA0 SHL SUB AND EQ PUSH2 0x3124 JUMPI PUSH1 0x40 MLOAD PUSH4 0xA59D7F4D PUSH1 0xE0 SHL DUP2 MSTORE CALLER PUSH1 0x4 DUP3 ADD MSTORE PUSH1 0x24 ADD PUSH2 0x8AD JUMP JUMPDEST PUSH1 0x13 DUP3 ADD SLOAD PUSH1 0xFF AND ISZERO PUSH2 0x314D JUMPI PUSH1 0x40 MLOAD PUSH4 0x2A2AF87D PUSH1 0xE1 SHL DUP2 MSTORE PUSH1 0x4 DUP2 ADD DUP8 SWAP1 MSTORE PUSH1 0x24 ADD PUSH2 0x8AD JUMP JUMPDEST TIMESTAMP DUP3 PUSH1 0xF ADD SLOAD GT PUSH2 0x316E JUMPI PUSH1 0x13 DUP3 ADD DUP1 SLOAD PUSH2 0xFF00 NOT AND PUSH2 0x100 OR SWAP1 SSTORE PUSH1 0x1 SWAP4 POP JUMPDEST PUSH1 0x0 DUP2 PUSH1 0x1 PUSH1 0x1 PUSH1 0xA0 SHL SUB AND PUSH4 0x741BEF1A PUSH1 0x40 MLOAD DUP2 PUSH4 0xFFFFFFFF AND PUSH1 0xE0 SHL DUP2 MSTORE PUSH1 0x4 ADD PUSH1 0x20 PUSH1 0x40 MLOAD DUP1 DUP4 SUB DUP2 DUP7 DUP1 EXTCODESIZE ISZERO DUP1 ISZERO PUSH2 0x31A9 JUMPI PUSH1 0x0 DUP1 REVERT JUMPDEST POP GAS STATICCALL ISZERO DUP1 ISZERO PUSH2 0x31BD JUMPI RETURNDATASIZE PUSH1 0x0 DUP1 RETURNDATACOPY RETURNDATASIZE PUSH1 0x0 REVERT JUMPDEST POP POP POP POP PUSH1 0x40 MLOAD RETURNDATASIZE PUSH1 0x1F NOT PUSH1 0x1F DUP3 ADD AND DUP3 ADD DUP1 PUSH1 0x40 MSTORE POP DUP2 ADD SWAP1 PUSH2 0x31E1 SWAP2 SWAP1 PUSH2 0x5328 JUMP JUMPDEST PUSH1 0xA DUP5 ADD SLOAD PUSH1 0x8 DUP6 ADD SLOAD PUSH1 0x40 MLOAD PUSH4 0x7360A1B1 PUSH1 0xE1 SHL DUP2 MSTORE SWAP3 SWAP4 POP PUSH1 0x0 SWAP3 PUSH1 0x1 PUSH1 0x1 PUSH1 0xA0 SHL SUB DUP1 DUP7 AND SWAP4 PUSH4 0xE6C14362 SWAP4 PUSH2 0x3222 SWAP4 SWAP2 DUP4 AND SWAP3 AND SWAP1 PUSH1 0x4 ADD PUSH2 0x5662 JUMP JUMPDEST PUSH1 0x20 PUSH1 0x40 MLOAD DUP1 DUP4 SUB DUP2 DUP7 DUP1 EXTCODESIZE ISZERO DUP1 ISZERO PUSH2 0x323A JUMPI PUSH1 0x0 DUP1 REVERT JUMPDEST POP GAS STATICCALL ISZERO DUP1 ISZERO PUSH2 0x324E JUMPI RETURNDATASIZE PUSH1 0x0 DUP1 RETURNDATACOPY RETURNDATASIZE PUSH1 0x0 REVERT JUMPDEST POP POP POP POP PUSH1 0x40 MLOAD RETURNDATASIZE PUSH1 0x1F NOT PUSH1 0x1F DUP3 ADD AND DUP3 ADD DUP1 PUSH1 0x40 MSTORE POP DUP2 ADD SWAP1 PUSH2 0x3272 SWAP2 SWAP1 PUSH2 0x559D JUMP JUMPDEST PUSH1 0xD DUP6 ADD SLOAD SWAP1 SWAP2 POP DUP2 GT PUSH2 0x329C JUMPI PUSH1 0x13 DUP5 ADD DUP1 SLOAD PUSH5 0xFF00000000 NOT AND PUSH5 0x100000000 OR SWAP1 SSTORE PUSH1 0x1 SWAP6 POP JUMPDEST PUSH1 0x3 DUP5 ADD SLOAD PUSH1 0x8 DUP6 ADD SLOAD PUSH1 0x40 MLOAD PUSH4 0x7360A1B1 PUSH1 0xE1 SHL DUP2 MSTORE PUSH1 0x0 SWAP3 PUSH1 0x1 PUSH1 0x1 PUSH1 0xA0 SHL SUB DUP7 DUP2 AND SWAP4 PUSH4 0xE6C14362 SWAP4 PUSH2 0x32DB SWAP4 DUP4 AND SWAP3 SWAP1 SWAP2 AND SWAP1 PUSH1 0x4 ADD PUSH2 0x5662 JUMP JUMPDEST PUSH1 0x20 PUSH1 0x40 MLOAD DUP1 DUP4 SUB DUP2 DUP7 DUP1 EXTCODESIZE ISZERO DUP1 ISZERO PUSH2 0x32F3 JUMPI PUSH1 0x0 DUP1 REVERT JUMPDEST POP GAS STATICCALL ISZERO DUP1 ISZERO PUSH2 0x3307 JUMPI RETURNDATASIZE PUSH1 0x0 DUP1 RETURNDATACOPY RETURNDATASIZE PUSH1 0x0 REVERT JUMPDEST POP POP POP POP PUSH1 0x40 MLOAD RETURNDATASIZE PUSH1 0x1F NOT PUSH1 0x1F DUP3 ADD AND DUP3 ADD DUP1 PUSH1 0x40 MSTORE POP DUP2 ADD SWAP1 PUSH2 0x332B SWAP2 SWAP1 PUSH2 0x559D JUMP JUMPDEST SWAP1 POP PUSH1 0x0 DUP6 PUSH1 0x10 ADD SLOAD GT DUP1 ISZERO PUSH2 0x3345 JUMPI POP DUP5 PUSH1 0x10 ADD SLOAD DUP2 GT ISZERO JUMPDEST ISZERO PUSH2 0x3362 JUMPI PUSH1 0x13 DUP6 ADD DUP1 SLOAD PUSH3 0xFF0000 NOT AND PUSH3 0x10000 OR SWAP1 SSTORE PUSH1 0x1 SWAP7 POP JUMPDEST PUSH1 0x6 DUP6 ADD SLOAD DUP2 GT PUSH2 0x3387 JUMPI PUSH1 0x13 DUP6 ADD DUP1 SLOAD PUSH4 0xFF000000 NOT AND PUSH4 0x1000000 OR SWAP1 SSTORE PUSH1 0x1 SWAP7 POP JUMPDEST PUSH1 0x1 DUP6 ADD SLOAD PUSH1 0x1 PUSH1 0x1 PUSH1 0xA0 SHL SUB DUP10 DUP2 AND SWAP2 AND EQ DUP1 ISZERO SWAP1 PUSH2 0x33A5 JUMPI POP DUP7 ISZERO JUMPDEST ISZERO PUSH2 0x33D4 JUMPI PUSH1 0x1 DUP6 ADD SLOAD PUSH1 0x40 MLOAD PUSH4 0x1194AF87 PUSH1 0xE1 SHL DUP2 MSTORE PUSH2 0x8AD SWAP2 PUSH1 0x1 PUSH1 0x1 PUSH1 0xA0 SHL SUB AND SWAP1 DUP11 SWAP1 PUSH1 0x4 ADD PUSH2 0x5662 JUMP JUMPDEST PUSH1 0x13 DUP6 ADD DUP1 SLOAD PUSH1 0xFF NOT AND PUSH1 0x1 OR SWAP1 SSTORE PUSH1 0x14 DUP6 ADD DUP1 SLOAD PUSH1 0x1 PUSH1 0x1 PUSH1 0xA0 SHL SUB DUP11 AND PUSH1 0x1 PUSH1 0x1 PUSH1 0xA0 SHL SUB NOT SWAP1 SWAP2 AND DUP2 OR SWAP1 SWAP2 SSTORE PUSH1 0x40 MLOAD SWAP1 DUP2 MSTORE DUP10 SWAP1 PUSH32 0x6A85BD8516BD8204E81AA2933301A26C59FC549B80EA554B8628AFBCDF21E2C7 SWAP1 PUSH1 0x20 ADD PUSH1 0x40 MLOAD DUP1 SWAP2 SUB SWAP1 LOG2 POP POP POP POP POP POP SWAP3 SWAP2 POP POP JUMP JUMPDEST PUSH1 0x0 DUP2 DUP2 MSTORE PUSH1 0x3 PUSH1 0x20 MSTORE PUSH1 0x40 SWAP1 KECCAK256 SLOAD DUP1 PUSH2 0x3475 JUMPI PUSH1 0x40 MLOAD PUSH4 0x54EC2EEB PUSH1 0xE0 SHL DUP2 MSTORE PUSH1 0x4 DUP2 ADD DUP4 SWAP1 MSTORE PUSH1 0x24 ADD PUSH2 0x8AD JUMP JUMPDEST PUSH1 0x0 PUSH1 0x1 PUSH2 0x3483 DUP2 DUP5 PUSH2 0x58D5 JUMP JUMPDEST DUP2 SLOAD DUP2 LT PUSH2 0x3493 JUMPI PUSH2 0x3493 PUSH2 0x5902 JUMP JUMPDEST PUSH1 0x0 SWAP2 DUP3 MSTORE PUSH1 0x20 DUP3 KECCAK256 SWAP2 SLOAD PUSH1 0x16 SWAP2 SWAP1 SWAP2 MUL SWAP1 SWAP2 ADD PUSH1 0x8 DUP2 ADD SLOAD PUSH1 0x40 MLOAD PUSH4 0x4D83BC33 PUSH1 0xE0 SHL DUP2 MSTORE PUSH1 0x1 PUSH1 0x1 PUSH1 0xA0 SHL SUB SWAP2 DUP3 AND PUSH1 0x4 DUP3 ADD MSTORE SWAP2 SWAP4 POP SWAP1 SWAP2 AND SWAP1 DUP2 SWAP1 PUSH4 0x4D83BC33 SWAP1 PUSH1 0x24 ADD PUSH1 0x20 PUSH1 0x40 MLOAD DUP1 DUP4 SUB DUP2 DUP7 DUP1 EXTCODESIZE ISZERO DUP1 ISZERO PUSH2 0x34F3 JUMPI PUSH1 0x0 DUP1 REVERT JUMPDEST POP GAS STATICCALL ISZERO DUP1 ISZERO PUSH2 0x3507 JUMPI RETURNDATASIZE PUSH1 0x0 DUP1 RETURNDATACOPY RETURNDATASIZE PUSH1 0x0 REVERT JUMPDEST POP POP POP POP PUSH1 0x40 MLOAD RETURNDATASIZE PUSH1 0x1F NOT PUSH1 0x1F DUP3 ADD AND DUP3 ADD DUP1 PUSH1 0x40 MSTORE POP DUP2 ADD SWAP1 PUSH2 0x352B SWAP2 SWAP1 PUSH2 0x5328 JUMP JUMPDEST PUSH1 0x1 PUSH1 0x1 PUSH1 0xA0 SHL SUB AND CALLER PUSH1 0x1 PUSH1 0x1 PUSH1 0xA0 SHL SUB AND EQ PUSH2 0x355E JUMPI PUSH1 0x40 MLOAD PUSH4 0xA59D7F4D PUSH1 0xE0 SHL DUP2 MSTORE CALLER PUSH1 0x4 DUP3 ADD MSTORE PUSH1 0x24 ADD PUSH2 0x8AD JUMP JUMPDEST PUSH1 0x13 DUP3 ADD SLOAD PUSH1 0xFF AND ISZERO PUSH2 0x3587 JUMPI PUSH1 0x40 MLOAD PUSH4 0x2A2AF87D PUSH1 0xE1 SHL DUP2 MSTORE PUSH1 0x4 DUP2 ADD DUP6 SWAP1 MSTORE PUSH1 0x24 ADD PUSH2 0x8AD JUMP JUMPDEST DUP1 PUSH1 0x1 PUSH1 0x1 PUSH1 0xA0 SHL SUB AND PUSH4 0xEDDF82BB PUSH1 0x40 MLOAD DUP2 PUSH4 0xFFFFFFFF AND PUSH1 0xE0 SHL DUP2 MSTORE PUSH1 0x4 ADD PUSH1 0x20 PUSH1 0x40 MLOAD DUP1 DUP4 SUB DUP2 DUP7 DUP1 EXTCODESIZE ISZERO DUP1 ISZERO PUSH2 0x35C0 JUMPI PUSH1 0x0 DUP1 REVERT JUMPDEST POP GAS STATICCALL ISZERO DUP1 ISZERO PUSH2 0x35D4 JUMPI RETURNDATASIZE PUSH1 0x0 DUP1 RETURNDATACOPY RETURNDATASIZE PUSH1 0x0 REVERT JUMPDEST POP POP POP POP PUSH1 0x40 MLOAD RETURNDATASIZE PUSH1 0x1F NOT PUSH1 0x1F DUP3 ADD AND DUP3 ADD DUP1 PUSH1 0x40 MSTORE POP DUP2 ADD SWAP1 PUSH2 0x35F8 SWAP2 SWAP1 PUSH2 0x559D JUMP JUMPDEST DUP3 PUSH1 0x15 ADD SLOAD PUSH2 0x3607 SWAP2 SWAP1 PUSH2 0x587C JUMP JUMPDEST TIMESTAMP LT ISZERO PUSH2 0x362A JUMPI PUSH1 0x40 MLOAD PUSH4 0xA2757E27 PUSH1 0xE0 SHL DUP2 MSTORE PUSH1 0x4 DUP2 ADD DUP6 SWAP1 MSTORE PUSH1 0x24 ADD PUSH2 0x8AD JUMP JUMPDEST PUSH1 0x13 DUP3 ADD DUP1 SLOAD PUSH7 0xFF000000000000 NOT AND PUSH1 0x1 PUSH1 0x30 SHL OR SWAP1 SSTORE PUSH1 0x40 MLOAD DUP5 SWAP1 PUSH32 0xDE9A071731AD64EA412C199B649F11ADA453EB6C8B323FC0769345E62316A49 SWAP1 PUSH1 0x0 SWAP1 LOG2 POP POP POP POP JUMP JUMPDEST PUSH1 0x0 PUSH1 0x2 DUP3 DUP2 SLOAD DUP2 LT PUSH2 0x3688 JUMPI PUSH2 0x3688 PUSH2 0x5902 JUMP JUMPDEST SWAP1 PUSH1 0x0 MSTORE PUSH1 0x20 PUSH1 0x0 KECCAK256 ADD SLOAD SWAP1 POP SWAP2 SWAP1 POP JUMP JUMPDEST PUSH1 0x0 DUP2 DUP2 MSTORE PUSH1 0x3 PUSH1 0x20 MSTORE PUSH1 0x40 DUP2 KECCAK256 SLOAD DUP1 PUSH2 0x36B7 JUMPI POP PUSH1 0x0 SWAP3 SWAP2 POP POP JUMP JUMPDEST PUSH2 0x36C0 DUP4 PUSH2 0x49B9 JUMP JUMPDEST DUP1 ISZERO PUSH2 0x36F9 JUMPI POP PUSH1 0x1 PUSH2 0x36D3 DUP2 DUP4 PUSH2 0x58D5 JUMP JUMPDEST DUP2 SLOAD DUP2 LT PUSH2 0x36E3 JUMPI PUSH2 0x36E3 PUSH2 0x5902 JUMP JUMPDEST SWAP1 PUSH1 0x0 MSTORE PUSH1 0x20 PUSH1 0x0 KECCAK256 SWAP1 PUSH1 0x16 MUL ADD PUSH1 0x15 ADD SLOAD PUSH1 0x0 EQ JUMPDEST SWAP4 SWAP3 POP POP POP JUMP JUMPDEST PUSH1 0x0 DUP2 DUP2 MSTORE PUSH1 0x3 PUSH1 0x20 MSTORE PUSH1 0x40 SWAP1 KECCAK256 SLOAD DUP1 PUSH2 0x3730 JUMPI PUSH1 0x40 MLOAD PUSH4 0x54EC2EEB PUSH1 0xE0 SHL DUP2 MSTORE PUSH1 0x4 DUP2 ADD DUP4 SWAP1 MSTORE PUSH1 0x24 ADD PUSH2 0x8AD JUMP JUMPDEST PUSH1 0x0 PUSH1 0x1 PUSH2 0x373E DUP2 DUP5 PUSH2 0x58D5 JUMP JUMPDEST DUP2 SLOAD DUP2 LT PUSH2 0x374E JUMPI PUSH2 0x374E PUSH2 0x5902 JUMP JUMPDEST PUSH1 0x0 SWAP2 DUP3 MSTORE PUSH1 0x20 DUP3 KECCAK256 SWAP2 SLOAD PUSH1 0x16 SWAP2 SWAP1 SWAP2 MUL SWAP1 SWAP2 ADD PUSH1 0x8 DUP2 ADD SLOAD PUSH1 0x40 MLOAD PUSH4 0x4D83BC33 PUSH1 0xE0 SHL DUP2 MSTORE PUSH1 0x1 PUSH1 0x1 PUSH1 0xA0 SHL SUB SWAP2 DUP3 AND PUSH1 0x4 DUP3 ADD MSTORE SWAP2 SWAP4 POP SWAP1 SWAP2 AND SWAP1 DUP2 SWAP1 PUSH4 0x4D83BC33 SWAP1 PUSH1 0x24 ADD PUSH1 0x20 PUSH1 0x40 MLOAD DUP1 DUP4 SUB DUP2 DUP7 DUP1 EXTCODESIZE ISZERO DUP1 ISZERO PUSH2 0x37AE JUMPI PUSH1 0x0 DUP1 REVERT JUMPDEST POP GAS STATICCALL ISZERO DUP1 ISZERO PUSH2 0x37C2 JUMPI RETURNDATASIZE PUSH1 0x0 DUP1 RETURNDATACOPY RETURNDATASIZE PUSH1 0x0 REVERT JUMPDEST POP POP POP POP PUSH1 0x40 MLOAD RETURNDATASIZE PUSH1 0x1F NOT PUSH1 0x1F DUP3 ADD AND DUP3 ADD DUP1 PUSH1 0x40 MSTORE POP DUP2 ADD SWAP1 PUSH2 0x37E6 SWAP2 SWAP1 PUSH2 0x5328 JUMP JUMPDEST PUSH1 0x1 PUSH1 0x1 PUSH1 0xA0 SHL SUB AND CALLER PUSH1 0x1 PUSH1 0x1 PUSH1 0xA0 SHL SUB AND EQ PUSH2 0x3819 JUMPI PUSH1 0x40 MLOAD PUSH4 0xA59D7F4D PUSH1 0xE0 SHL DUP2 MSTORE CALLER PUSH1 0x4 DUP3 ADD MSTORE PUSH1 0x24 ADD PUSH2 0x8AD JUMP JUMPDEST PUSH1 0x13 DUP3 ADD SLOAD PUSH1 0xFF AND ISZERO PUSH2 0x3842 JUMPI PUSH1 0x40 MLOAD PUSH4 0x2A2AF87D PUSH1 0xE1 SHL DUP2 MSTORE PUSH1 0x4 DUP2 ADD DUP6 SWAP1 MSTORE PUSH1 0x24 ADD PUSH2 0x8AD JUMP JUMPDEST PUSH1 0x13 DUP3 ADD SLOAD PUSH1 0x1 PUSH1 0x30 SHL SWAP1 DIV PUSH1 0xFF AND PUSH2 0x3871 JUMPI PUSH1 0x40 MLOAD PUSH4 0x746D2B81 PUSH1 0xE0 SHL DUP2 MSTORE PUSH1 0x4 DUP2 ADD DUP6 SWAP1 MSTORE PUSH1 0x24 ADD PUSH2 0x8AD JUMP JUMPDEST PUSH1 0x13 DUP3 ADD DUP1 SLOAD PUSH8 0xFF000000000000FF NOT AND PUSH8 0x100000000000001 OR SWAP1 SSTORE PUSH1 0x40 MLOAD PUSH1 0x0 DUP2 MSTORE DUP5 SWAP1 PUSH32 0x6A85BD8516BD8204E81AA2933301A26C59FC549B80EA554B8628AFBCDF21E2C7 SWAP1 PUSH1 0x20 ADD PUSH2 0xA64 JUMP JUMPDEST PUSH2 0x38C9 PUSH2 0x4F68 JUMP JUMPDEST PUSH1 0x1 DUP3 DUP2 SLOAD DUP2 LT PUSH2 0x38DC JUMPI PUSH2 0x38DC PUSH2 0x5902 JUMP JUMPDEST PUSH1 0x0 SWAP2 DUP3 MSTORE PUSH1 0x20 SWAP2 DUP3 SWAP1 KECCAK256 PUSH1 0x40 DUP1 MLOAD PUSH2 0x1A0 DUP2 ADD DUP3 MSTORE PUSH1 0x16 SWAP1 SWAP4 MUL SWAP1 SWAP2 ADD DUP1 SLOAD DUP4 MSTORE PUSH1 0x1 DUP2 ADD SLOAD PUSH1 0x1 PUSH1 0x1 PUSH1 0xA0 SHL SUB SWAP1 DUP2 AND DUP5 DUP7 ADD MSTORE PUSH1 0x2 DUP3 ADD SLOAD DUP2 AND DUP5 DUP5 ADD MSTORE DUP3 MLOAD PUSH1 0xA0 DUP1 DUP3 ADD DUP6 MSTORE PUSH1 0x3 DUP5 ADD SLOAD DUP4 AND DUP3 MSTORE PUSH1 0x4 DUP5 ADD SLOAD DUP3 DUP9 ADD MSTORE PUSH1 0x5 DUP5 ADD SLOAD DUP3 DUP7 ADD MSTORE PUSH1 0x6 DUP5 ADD SLOAD PUSH1 0x60 DUP4 DUP2 ADD SWAP2 SWAP1 SWAP2 MSTORE PUSH1 0x7 DUP6 ADD SLOAD PUSH1 0x80 DUP1 DUP6 ADD SWAP2 SWAP1 SWAP2 MSTORE DUP2 DUP9 ADD SWAP4 SWAP1 SWAP4 MSTORE DUP6 MLOAD DUP1 DUP8 ADD DUP8 MSTORE PUSH1 0x8 DUP7 ADD SLOAD DUP6 AND DUP2 MSTORE PUSH1 0x9 DUP7 ADD SLOAD DUP2 DUP11 ADD MSTORE DUP4 DUP9 ADD MSTORE DUP6 MLOAD DUP1 DUP4 ADD DUP8 MSTORE PUSH1 0xA DUP7 ADD SLOAD DUP6 AND DUP2 MSTORE PUSH1 0xB DUP7 ADD SLOAD DUP2 DUP11 ADD MSTORE PUSH1 0xC DUP7 ADD SLOAD DUP2 DUP9 ADD MSTORE PUSH1 0xD DUP7 ADD SLOAD DUP2 DUP4 ADD MSTORE PUSH1 0xE DUP7 ADD SLOAD DUP2 DUP6 ADD MSTORE DUP3 DUP9 ADD MSTORE PUSH1 0xF DUP6 ADD SLOAD PUSH1 0xC0 DUP1 DUP10 ADD SWAP2 SWAP1 SWAP2 MSTORE PUSH1 0x10 DUP7 ADD SLOAD PUSH1 0xE0 DUP1 DUP11 ADD SWAP2 SWAP1 SWAP2 MSTORE PUSH1 0x11 DUP8 ADD SLOAD PUSH2 0x100 DUP1 DUP12 ADD SWAP2 SWAP1 SWAP2 MSTORE PUSH1 0x12 DUP9 ADD SLOAD PUSH2 0x120 DUP12 ADD MSTORE DUP9 MLOAD DUP1 DUP3 ADD DUP11 MSTORE PUSH1 0x13 DUP10 ADD SLOAD PUSH1 0xFF DUP1 DUP3 AND ISZERO ISZERO DUP4 MSTORE SWAP3 DUP2 DIV DUP4 AND ISZERO ISZERO SWAP13 DUP3 ADD SWAP13 SWAP1 SWAP13 MSTORE PUSH3 0x10000 DUP13 DIV DUP3 AND ISZERO ISZERO SWAP10 DUP2 ADD SWAP10 SWAP1 SWAP10 MSTORE PUSH4 0x1000000 DUP12 DIV DUP2 AND ISZERO ISZERO SWAP4 DUP10 ADD SWAP4 SWAP1 SWAP4 MSTORE PUSH5 0x100000000 DUP11 DIV DUP4 AND ISZERO ISZERO SWAP5 DUP9 ADD SWAP5 SWAP1 SWAP5 MSTORE PUSH1 0x1 PUSH1 0x28 SHL DUP10 DIV DUP3 AND ISZERO ISZERO SWAP3 DUP8 ADD SWAP3 SWAP1 SWAP3 MSTORE PUSH1 0x1 PUSH1 0x30 SHL DUP9 DIV DUP2 AND ISZERO ISZERO SWAP2 DUP7 ADD SWAP2 SWAP1 SWAP2 MSTORE PUSH1 0x1 PUSH1 0x38 SHL SWAP1 SWAP7 DIV SWAP1 SWAP6 AND ISZERO ISZERO SWAP5 DUP4 ADD SWAP5 SWAP1 SWAP5 MSTORE PUSH2 0x140 DUP4 ADD SWAP2 SWAP1 SWAP2 MSTORE PUSH1 0x14 DUP2 ADD SLOAD SWAP1 SWAP3 AND PUSH2 0x160 DUP3 ADD MSTORE PUSH1 0x15 SWAP1 SWAP2 ADD SLOAD PUSH2 0x180 DUP3 ADD MSTORE SWAP3 SWAP2 POP POP JUMP JUMPDEST DUP1 MLOAD PUSH1 0x0 SWAP1 DUP2 MSTORE PUSH1 0x3 PUSH1 0x20 MSTORE PUSH1 0x40 DUP2 KECCAK256 SLOAD DUP2 SWAP1 DUP1 PUSH2 0x3AE0 JUMPI DUP4 MLOAD PUSH1 0x40 MLOAD PUSH4 0x54EC2EEB PUSH1 0xE0 SHL DUP2 MSTORE PUSH1 0x4 DUP2 ADD SWAP2 SWAP1 SWAP2 MSTORE PUSH1 0x24 ADD PUSH2 0x8AD JUMP JUMPDEST PUSH1 0x0 PUSH1 0x1 PUSH2 0x3AEE DUP2 DUP5 PUSH2 0x58D5 JUMP JUMPDEST DUP2 SLOAD DUP2 LT PUSH2 0x3AFE JUMPI PUSH2 0x3AFE PUSH2 0x5902 JUMP JUMPDEST PUSH1 0x0 SWAP2 DUP3 MSTORE PUSH1 0x20 DUP3 KECCAK256 SWAP2 SLOAD PUSH1 0x16 SWAP2 SWAP1 SWAP2 MUL SWAP1 SWAP2 ADD PUSH1 0x8 DUP2 ADD SLOAD PUSH1 0x40 MLOAD PUSH4 0x4D83BC33 PUSH1 0xE0 SHL DUP2 MSTORE PUSH1 0x1 PUSH1 0x1 PUSH1 0xA0 SHL SUB SWAP2 DUP3 AND PUSH1 0x4 DUP3 ADD MSTORE SWAP2 SWAP4 POP SWAP1 SWAP2 AND SWAP1 DUP2 SWAP1 PUSH4 0x4D83BC33 SWAP1 PUSH1 0x24 ADD PUSH1 0x20 PUSH1 0x40 MLOAD DUP1 DUP4 SUB DUP2 DUP7 DUP1 EXTCODESIZE ISZERO DUP1 ISZERO PUSH2 0x3B5E JUMPI PUSH1 0x0 DUP1 REVERT JUMPDEST POP GAS STATICCALL ISZERO DUP1 ISZERO PUSH2 0x3B72 JUMPI RETURNDATASIZE PUSH1 0x0 DUP1 RETURNDATACOPY RETURNDATASIZE PUSH1 0x0 REVERT JUMPDEST POP POP POP POP PUSH1 0x40 MLOAD RETURNDATASIZE PUSH1 0x1F NOT PUSH1 0x1F DUP3 ADD AND DUP3 ADD DUP1 PUSH1 0x40 MSTORE POP DUP2 ADD SWAP1 PUSH2 0x3B96 SWAP2 SWAP1 PUSH2 0x5328 JUMP JUMPDEST PUSH1 0x1 PUSH1 0x1 PUSH1 0xA0 SHL SUB AND CALLER PUSH1 0x1 PUSH1 0x1 PUSH1 0xA0 SHL SUB AND EQ PUSH2 0x3BC9 JUMPI PUSH1 0x40 MLOAD PUSH4 0xA59D7F4D PUSH1 0xE0 SHL DUP2 MSTORE CALLER PUSH1 0x4 DUP3 ADD MSTORE PUSH1 0x24 ADD PUSH2 0x8AD JUMP JUMPDEST PUSH1 0x13 DUP3 ADD SLOAD PUSH1 0xFF AND ISZERO PUSH2 0x3BF5 JUMPI DUP6 MLOAD PUSH1 0x40 MLOAD PUSH4 0x2A2AF87D PUSH1 0xE1 SHL DUP2 MSTORE PUSH1 0x4 DUP2 ADD SWAP2 SWAP1 SWAP2 MSTORE PUSH1 0x24 ADD PUSH2 0x8AD JUMP JUMPDEST PUSH1 0x1 DUP3 ADD SLOAD PUSH1 0x40 DUP8 ADD MLOAD PUSH1 0x1 PUSH1 0x1 PUSH1 0xA0 SHL SUB SWAP1 DUP2 AND SWAP2 AND EQ PUSH2 0x3C3F JUMPI PUSH1 0x1 DUP3 ADD SLOAD PUSH1 0x40 DUP1 DUP9 ADD MLOAD SWAP1 MLOAD PUSH4 0x1194AF87 PUSH1 0xE1 SHL DUP2 MSTORE PUSH2 0x8AD SWAP3 PUSH1 0x1 PUSH1 0x1 PUSH1 0xA0 SHL SUB AND SWAP2 SWAP1 PUSH1 0x4 ADD PUSH2 0x5662 JUMP JUMPDEST PUSH1 0x0 DUP2 PUSH1 0x1 PUSH1 0x1 PUSH1 0xA0 SHL SUB AND PUSH4 0x75E58079 PUSH1 0x40 MLOAD DUP2 PUSH4 0xFFFFFFFF AND PUSH1 0xE0 SHL DUP2 MSTORE PUSH1 0x4 ADD PUSH1 0x20 PUSH1 0x40 MLOAD DUP1 DUP4 SUB DUP2 DUP7 DUP1 EXTCODESIZE ISZERO DUP1 ISZERO PUSH2 0x3C7A JUMPI PUSH1 0x0 DUP1 REVERT JUMPDEST POP GAS STATICCALL ISZERO DUP1 ISZERO PUSH2 0x3C8E JUMPI RETURNDATASIZE PUSH1 0x0 DUP1 RETURNDATACOPY RETURNDATASIZE PUSH1 0x0 REVERT JUMPDEST POP POP POP POP PUSH1 0x40 MLOAD RETURNDATASIZE PUSH1 0x1F NOT PUSH1 0x1F DUP3 ADD AND DUP3 ADD DUP1 PUSH1 0x40 MSTORE POP DUP2 ADD SWAP1 PUSH2 0x3CB2 SWAP2 SWAP1 PUSH2 0x5328 JUMP JUMPDEST PUSH1 0x40 DUP1 DUP10 ADD MLOAD SWAP1 MLOAD PUSH4 0x223884BF PUSH1 0xE1 SHL DUP2 MSTORE PUSH1 0x1 PUSH1 0x1 PUSH1 0xA0 SHL SUB SWAP2 DUP3 AND PUSH1 0x4 DUP3 ADD MSTORE SWAP2 SWAP3 POP PUSH1 0x0 SWAP2 SWAP1 DUP4 AND SWAP1 PUSH4 0x4471097E SWAP1 PUSH1 0x24 ADD PUSH1 0x20 PUSH1 0x40 MLOAD DUP1 DUP4 SUB DUP2 DUP7 DUP1 EXTCODESIZE ISZERO DUP1 ISZERO PUSH2 0x3CFF JUMPI PUSH1 0x0 DUP1 REVERT JUMPDEST POP GAS STATICCALL ISZERO DUP1 ISZERO PUSH2 0x3D13 JUMPI RETURNDATASIZE PUSH1 0x0 DUP1 RETURNDATACOPY RETURNDATASIZE PUSH1 0x0 REVERT JUMPDEST POP POP POP POP PUSH1 0x40 MLOAD RETURNDATASIZE PUSH1 0x1F NOT PUSH1 0x1F DUP3 ADD AND DUP3 ADD DUP1 PUSH1 0x40 MSTORE POP DUP2 ADD SWAP1 PUSH2 0x3D37 SWAP2 SWAP1 PUSH2 0x5371 JUMP JUMPDEST SWAP1 POP DUP1 PUSH2 0x3D68 JUMPI PUSH1 0x40 DUP1 DUP10 ADD MLOAD SWAP1 MLOAD PUSH4 0xFA5CD00F PUSH1 0xE0 SHL DUP2 MSTORE PUSH1 0x1 PUSH1 0x1 PUSH1 0xA0 SHL SUB SWAP1 SWAP2 AND PUSH1 0x4 DUP3 ADD MSTORE PUSH1 0x24 ADD PUSH2 0x8AD JUMP JUMPDEST DUP4 PUSH1 0xF ADD SLOAD DUP9 PUSH1 0x20 ADD MLOAD GT PUSH2 0x3D90 JUMPI PUSH1 0x40 MLOAD PUSH4 0x309CB87 PUSH1 0xE5 SHL DUP2 MSTORE PUSH1 0x4 ADD PUSH1 0x40 MLOAD DUP1 SWAP2 SUB SWAP1 REVERT JUMPDEST PUSH1 0x8 DUP5 ADD SLOAD PUSH1 0x40 MLOAD PUSH4 0xAC436BDF PUSH1 0xE0 SHL DUP2 MSTORE PUSH1 0x1 PUSH1 0x1 PUSH1 0xA0 SHL SUB SWAP2 DUP3 AND PUSH1 0x4 DUP3 ADD MSTORE PUSH1 0x0 SWAP2 DUP6 AND SWAP1 PUSH4 0xAC436BDF SWAP1 PUSH1 0x24 ADD PUSH1 0x20 PUSH1 0x40 MLOAD DUP1 DUP4 SUB DUP2 DUP7 DUP1 EXTCODESIZE ISZERO DUP1 ISZERO PUSH2 0x3DD9 JUMPI PUSH1 0x0 DUP1 REVERT JUMPDEST POP GAS STATICCALL ISZERO DUP1 ISZERO PUSH2 0x3DED JUMPI RETURNDATASIZE PUSH1 0x0 DUP1 RETURNDATACOPY RETURNDATASIZE PUSH1 0x0 REVERT JUMPDEST POP POP POP POP PUSH1 0x40 MLOAD RETURNDATASIZE PUSH1 0x1F NOT PUSH1 0x1F DUP3 ADD AND DUP3 ADD DUP1 PUSH1 0x40 MSTORE POP DUP2 ADD SWAP1 PUSH2 0x3E11 SWAP2 SWAP1 PUSH2 0x559D JUMP JUMPDEST SWAP1 POP PUSH5 0x496CEBB800 DUP6 PUSH1 0xF ADD SLOAD DUP11 PUSH1 0x20 ADD MLOAD PUSH2 0x3E2D SWAP2 SWAP1 PUSH2 0x58D5 JUMP JUMPDEST PUSH1 0x9 DUP8 ADD SLOAD PUSH2 0x3E3D SWAP1 DUP5 SWAP1 PUSH2 0x58B6 JUMP JUMPDEST PUSH2 0x3E47 SWAP2 SWAP1 PUSH2 0x58B6 JUMP JUMPDEST PUSH2 0x3E51 SWAP2 SWAP1 PUSH2 0x5894 JUMP JUMPDEST PUSH1 0x1 DUP7 ADD SLOAD PUSH1 0x40 MLOAD PUSH4 0x172C717B PUSH1 0xE0 SHL DUP2 MSTORE PUSH1 0x1 PUSH1 0x1 PUSH1 0xA0 SHL SUB SWAP2 DUP3 AND PUSH1 0x4 DUP3 ADD MSTORE PUSH1 0x24 DUP2 ADD DUP4 SWAP1 MSTORE SWAP2 SWAP10 POP DUP5 AND SWAP1 PUSH4 0x172C717B SWAP1 PUSH1 0x44 ADD PUSH1 0x20 PUSH1 0x40 MLOAD DUP1 DUP4 SUB DUP2 DUP7 DUP1 EXTCODESIZE ISZERO DUP1 ISZERO PUSH2 0x3EA1 JUMPI PUSH1 0x0 DUP1 REVERT JUMPDEST POP GAS STATICCALL ISZERO DUP1 ISZERO PUSH2 0x3EB5 JUMPI RETURNDATASIZE PUSH1 0x0 DUP1 RETURNDATACOPY RETURNDATASIZE PUSH1 0x0 REVERT JUMPDEST POP POP POP POP PUSH1 0x40 MLOAD RETURNDATASIZE PUSH1 0x1F NOT PUSH1 0x1F DUP3 ADD AND DUP3 ADD DUP1 PUSH1 0x40 MSTORE POP DUP2 ADD SWAP1 PUSH2 0x3ED9 SWAP2 SWAP1 PUSH2 0x559D JUMP JUMPDEST SWAP8 POP PUSH1 0x0 DUP5 PUSH1 0x1 PUSH1 0x1 PUSH1 0xA0 SHL SUB AND PUSH4 0x58F85880 PUSH1 0x40 MLOAD DUP2 PUSH4 0xFFFFFFFF AND PUSH1 0xE0 SHL DUP2 MSTORE PUSH1 0x4 ADD PUSH1 0x20 PUSH1 0x40 MLOAD DUP1 DUP4 SUB DUP2 DUP7 DUP1 EXTCODESIZE ISZERO DUP1 ISZERO PUSH2 0x3F16 JUMPI PUSH1 0x0 DUP1 REVERT JUMPDEST POP GAS STATICCALL ISZERO DUP1 ISZERO PUSH2 0x3F2A JUMPI RETURNDATASIZE PUSH1 0x0 DUP1 RETURNDATACOPY RETURNDATASIZE PUSH1 0x0 REVERT JUMPDEST POP POP POP POP PUSH1 0x40 MLOAD RETURNDATASIZE PUSH1 0x1F NOT PUSH1 0x1F DUP3 ADD AND DUP3 ADD DUP1 PUSH1 0x40 MSTORE POP DUP2 ADD SWAP1 PUSH2 0x3F4E SWAP2 SWAP1 PUSH2 0x559D JUMP JUMPDEST SWAP1 POP PUSH2 0x2710 PUSH2 0x3F5D DUP3 DUP12 PUSH2 0x58B6 JUMP JUMPDEST PUSH2 0x3F67 SWAP2 SWAP1 PUSH2 0x5894 JUMP JUMPDEST SWAP8 POP DUP9 DUP7 PUSH1 0x8 ADD PUSH1 0x1 ADD PUSH1 0x0 DUP3 DUP3 SLOAD PUSH2 0x3F80 SWAP2 SWAP1 PUSH2 0x587C JUMP JUMPDEST SWAP3 POP POP DUP2 SWAP1 SSTORE POP DUP9 DUP7 PUSH1 0x11 ADD PUSH1 0x0 DUP3 DUP3 SLOAD PUSH2 0x3F9B SWAP2 SWAP1 PUSH2 0x587C JUMP JUMPDEST SWAP3 POP POP DUP2 SWAP1 SSTORE POP DUP8 DUP7 PUSH1 0x12 ADD PUSH1 0x0 DUP3 DUP3 SLOAD PUSH2 0x3FB6 SWAP2 SWAP1 PUSH2 0x587C JUMP JUMPDEST SWAP1 SWAP2 SSTORE POP POP PUSH1 0x20 DUP11 DUP2 ADD MLOAD PUSH1 0xF DUP9 ADD DUP2 SWAP1 SSTORE DUP12 MLOAD PUSH1 0x40 DUP1 DUP15 ADD MLOAD DUP2 MLOAD SWAP4 DUP5 MSTORE PUSH1 0x1 PUSH1 0x1 PUSH1 0xA0 SHL SUB AND SWAP4 DUP4 ADD SWAP4 SWAP1 SWAP4 MSTORE SWAP2 PUSH32 0x58D0B7C2499B80403E5ADABCC2C3565B19C921A6781E8D474D2BF925B51F21C SWAP2 ADD PUSH1 0x40 MLOAD DUP1 SWAP2 SUB SWAP1 LOG2 POP POP POP POP POP POP POP SWAP2 POP SWAP2 JUMP JUMPDEST PUSH2 0x4025 PUSH2 0x4F68 JUMP JUMPDEST DUP2 PUSH1 0xE0 ADD MLOAD TIMESTAMP LT DUP1 ISZERO PUSH2 0x4052 JUMPI POP DUP2 PUSH1 0x40 ADD MLOAD PUSH1 0x1 PUSH1 0x1 PUSH1 0xA0 SHL SUB AND DUP3 PUSH1 0x20 ADD MLOAD PUSH1 0x1 PUSH1 0x1 PUSH1 0xA0 SHL SUB AND EQ ISZERO JUMPDEST ISZERO PUSH2 0x49B4 JUMPI PUSH1 0x0 DUP1 SLOAD PUSH1 0x40 DUP1 MLOAD PUSH4 0x3A0DF78D PUSH1 0xE1 SHL DUP2 MSTORE SWAP1 MLOAD PUSH1 0x1 PUSH1 0x1 PUSH1 0xA0 SHL SUB SWAP1 SWAP3 AND SWAP3 SWAP2 DUP4 SWAP2 PUSH4 0x741BEF1A SWAP2 PUSH1 0x4 DUP1 DUP4 ADD SWAP3 PUSH1 0x20 SWAP3 SWAP2 SWAP1 DUP3 SWAP1 SUB ADD DUP2 DUP7 DUP1 EXTCODESIZE ISZERO DUP1 ISZERO PUSH2 0x409F JUMPI PUSH1 0x0 DUP1 REVERT JUMPDEST POP GAS STATICCALL ISZERO DUP1 ISZERO PUSH2 0x40B3 JUMPI RETURNDATASIZE PUSH1 0x0 DUP1 RETURNDATACOPY RETURNDATASIZE PUSH1 0x0 REVERT JUMPDEST POP POP POP POP PUSH1 0x40 MLOAD RETURNDATASIZE PUSH1 0x1F NOT PUSH1 0x1F DUP3 ADD AND DUP3 ADD DUP1 PUSH1 0x40 MSTORE POP DUP2 ADD SWAP1 PUSH2 0x40D7 SWAP2 SWAP1 PUSH2 0x5328 JUMP JUMPDEST SWAP1 POP PUSH1 0x0 DUP2 PUSH1 0x1 PUSH1 0x1 PUSH1 0xA0 SHL SUB AND PUSH4 0xAAF5EB68 PUSH1 0x40 MLOAD DUP2 PUSH4 0xFFFFFFFF AND PUSH1 0xE0 SHL DUP2 MSTORE PUSH1 0x4 ADD PUSH1 0x20 PUSH1 0x40 MLOAD DUP1 DUP4 SUB DUP2 DUP7 DUP1 EXTCODESIZE ISZERO DUP1 ISZERO PUSH2 0x4114 JUMPI PUSH1 0x0 DUP1 REVERT JUMPDEST POP GAS STATICCALL ISZERO DUP1 ISZERO PUSH2 0x4128 JUMPI RETURNDATASIZE PUSH1 0x0 DUP1 RETURNDATACOPY RETURNDATASIZE PUSH1 0x0 REVERT JUMPDEST POP POP POP POP PUSH1 0x40 MLOAD RETURNDATASIZE PUSH1 0x1F NOT PUSH1 0x1F DUP3 ADD AND DUP3 ADD DUP1 PUSH1 0x40 MSTORE POP DUP2 ADD SWAP1 PUSH2 0x414C SWAP2 SWAP1 PUSH2 0x559D JUMP JUMPDEST SWAP1 POP PUSH1 0x0 DUP1 DUP4 PUSH1 0x1 PUSH1 0x1 PUSH1 0xA0 SHL SUB AND PUSH4 0xE6C14362 DUP9 PUSH1 0x20 ADD MLOAD DUP10 PUSH1 0x40 ADD MLOAD PUSH1 0x40 MLOAD DUP4 PUSH4 0xFFFFFFFF AND PUSH1 0xE0 SHL DUP2 MSTORE PUSH1 0x4 ADD PUSH2 0x4187 SWAP3 SWAP2 SWAP1 PUSH2 0x5662 JUMP JUMPDEST PUSH1 0x20 PUSH1 0x40 MLOAD DUP1 DUP4 SUB DUP2 DUP7 DUP1 EXTCODESIZE ISZERO DUP1 ISZERO PUSH2 0x419F JUMPI PUSH1 0x0 DUP1 REVERT JUMPDEST POP GAS STATICCALL ISZERO DUP1 ISZERO PUSH2 0x41B3 JUMPI RETURNDATASIZE PUSH1 0x0 DUP1 RETURNDATACOPY RETURNDATASIZE PUSH1 0x0 REVERT JUMPDEST POP POP POP POP PUSH1 0x40 MLOAD RETURNDATASIZE PUSH1 0x1F NOT PUSH1 0x1F DUP3 ADD AND DUP3 ADD DUP1 PUSH1 0x40 MSTORE POP DUP2 ADD SWAP1 PUSH2 0x41D7 SWAP2 SWAP1 PUSH2 0x559D JUMP JUMPDEST SWAP1 POP PUSH2 0x41E3 DUP8 DUP3 PUSH2 0x4DE6 JUMP JUMPDEST SWAP6 POP DUP3 DUP2 DUP9 PUSH1 0x80 ADD MLOAD PUSH2 0x41F6 SWAP2 SWAP1 PUSH2 0x58B6 JUMP JUMPDEST PUSH2 0x4200 SWAP2 SWAP1 PUSH2 0x5894 JUMP JUMPDEST SWAP2 POP POP PUSH1 0x0 DUP5 PUSH1 0x1 PUSH1 0x1 PUSH1 0xA0 SHL SUB AND PUSH4 0x6D274553 PUSH1 0x40 MLOAD DUP2 PUSH4 0xFFFFFFFF AND PUSH1 0xE0 SHL DUP2 MSTORE PUSH1 0x4 ADD PUSH1 0x20 PUSH1 0x40 MLOAD DUP1 DUP4 SUB DUP2 DUP7 DUP1 EXTCODESIZE ISZERO DUP1 ISZERO PUSH2 0x423E JUMPI PUSH1 0x0 DUP1 REVERT JUMPDEST POP GAS STATICCALL ISZERO DUP1 ISZERO PUSH2 0x4252 JUMPI RETURNDATASIZE PUSH1 0x0 DUP1 RETURNDATACOPY RETURNDATASIZE PUSH1 0x0 REVERT JUMPDEST POP POP POP POP PUSH1 0x40 MLOAD RETURNDATASIZE PUSH1 0x1F NOT PUSH1 0x1F DUP3 ADD AND DUP3 ADD DUP1 PUSH1 0x40 MSTORE POP DUP2 ADD SWAP1 PUSH2 0x4276 SWAP2 SWAP1 PUSH2 0x559D JUMP JUMPDEST PUSH1 0x20 DUP9 ADD MLOAD PUSH1 0x40 MLOAD PUSH4 0x5BA2EDAB PUSH1 0xE1 SHL DUP2 MSTORE PUSH1 0x1 PUSH1 0x1 PUSH1 0xA0 SHL SUB SWAP2 DUP3 AND PUSH1 0x4 DUP3 ADD MSTORE SWAP2 SWAP3 POP PUSH1 0x0 SWAP2 SWAP1 DUP8 AND SWAP1 PUSH4 0xB745DB56 SWAP1 PUSH1 0x24 ADD PUSH1 0x20 PUSH1 0x40 MLOAD DUP1 DUP4 SUB DUP2 DUP7 DUP1 EXTCODESIZE ISZERO DUP1 ISZERO PUSH2 0x42C3 JUMPI PUSH1 0x0 DUP1 REVERT JUMPDEST POP GAS STATICCALL ISZERO DUP1 ISZERO PUSH2 0x42D7 JUMPI RETURNDATASIZE PUSH1 0x0 DUP1 RETURNDATACOPY RETURNDATASIZE PUSH1 0x0 REVERT JUMPDEST POP POP POP POP PUSH1 0x40 MLOAD RETURNDATASIZE PUSH1 0x1F NOT PUSH1 0x1F DUP3 ADD AND DUP3 ADD DUP1 PUSH1 0x40 MSTORE POP DUP2 ADD SWAP1 PUSH2 0x42FB SWAP2 SWAP1 PUSH2 0x559D JUMP JUMPDEST PUSH1 0x60 DUP10 ADD MLOAD PUSH1 0x40 MLOAD PUSH4 0x95BF1BB PUSH1 0xE0 SHL DUP2 MSTORE PUSH1 0x1 PUSH1 0x1 PUSH1 0xA0 SHL SUB SWAP2 DUP3 AND PUSH1 0x4 DUP3 ADD MSTORE SWAP2 SWAP3 POP PUSH1 0x0 SWAP2 SWAP1 DUP9 AND SWAP1 PUSH4 0x95BF1BB SWAP1 PUSH1 0x24 ADD PUSH1 0x20 PUSH1 0x40 MLOAD DUP1 DUP4 SUB DUP2 DUP7 DUP1 EXTCODESIZE ISZERO DUP1 ISZERO PUSH2 0x4348 JUMPI PUSH1 0x0 DUP1 REVERT JUMPDEST POP GAS STATICCALL ISZERO DUP1 ISZERO PUSH2 0x435C JUMPI RETURNDATASIZE PUSH1 0x0 DUP1 RETURNDATACOPY RETURNDATASIZE PUSH1 0x0 REVERT JUMPDEST POP POP POP POP PUSH1 0x40 MLOAD RETURNDATASIZE PUSH1 0x1F NOT PUSH1 0x1F DUP3 ADD AND DUP3 ADD DUP1 PUSH1 0x40 MSTORE POP DUP2 ADD SWAP1 PUSH2 0x4380 SWAP2 SWAP1 PUSH2 0x559D JUMP JUMPDEST PUSH1 0x60 DUP11 ADD MLOAD PUSH1 0x40 DUP1 DUP13 ADD MLOAD SWAP1 MLOAD PUSH4 0x7360A1B1 PUSH1 0xE1 SHL DUP2 MSTORE SWAP3 SWAP4 POP PUSH1 0x0 SWAP3 PUSH1 0x1 PUSH1 0x1 PUSH1 0xA0 SHL SUB DUP11 AND SWAP3 PUSH4 0xE6C14362 SWAP3 PUSH2 0x43BA SWAP3 PUSH1 0x4 ADD PUSH2 0x5662 JUMP JUMPDEST PUSH1 0x20 PUSH1 0x40 MLOAD DUP1 DUP4 SUB DUP2 DUP7 DUP1 EXTCODESIZE ISZERO DUP1 ISZERO PUSH2 0x43D2 JUMPI PUSH1 0x0 DUP1 REVERT JUMPDEST POP GAS STATICCALL ISZERO DUP1 ISZERO PUSH2 0x43E6 JUMPI RETURNDATASIZE PUSH1 0x0 DUP1 RETURNDATACOPY RETURNDATASIZE PUSH1 0x0 REVERT JUMPDEST POP POP POP POP PUSH1 0x40 MLOAD RETURNDATASIZE PUSH1 0x1F NOT PUSH1 0x1F DUP3 ADD AND DUP3 ADD DUP1 PUSH1 0x40 MSTORE POP DUP2 ADD SWAP1 PUSH2 0x440A SWAP2 SWAP1 PUSH2 0x559D JUMP JUMPDEST SWAP1 POP PUSH1 0x0 DUP3 PUSH2 0x4419 DUP6 DUP8 PUSH2 0x58D5 JUMP JUMPDEST PUSH2 0x4423 SWAP1 DUP9 PUSH2 0x58B6 JUMP JUMPDEST PUSH2 0x442D SWAP2 SWAP1 PUSH2 0x5894 JUMP JUMPDEST SWAP1 POP PUSH1 0x0 DUP3 PUSH2 0x443C DUP10 DUP5 PUSH2 0x58B6 JUMP JUMPDEST PUSH2 0x4446 SWAP2 SWAP1 PUSH2 0x5894 JUMP JUMPDEST SWAP1 POP DUP1 DUP13 PUSH1 0xC0 ADD MLOAD LT ISZERO PUSH2 0x4463 JUMPI POP POP POP POP POP POP POP POP POP POP SWAP2 SWAP1 POP JUMP JUMPDEST POP PUSH1 0x0 SWAP1 POP PUSH2 0x4474 DUP8 PUSH2 0x2710 PUSH2 0x58B6 JUMP JUMPDEST DUP4 DUP4 DUP14 PUSH1 0xC0 ADD MLOAD PUSH2 0x4485 SWAP2 SWAP1 PUSH2 0x58B6 JUMP JUMPDEST PUSH2 0x448F SWAP2 SWAP1 PUSH2 0x58B6 JUMP JUMPDEST PUSH2 0x4499 SWAP2 SWAP1 PUSH2 0x5894 JUMP JUMPDEST SWAP1 POP PUSH1 0x0 PUSH2 0x2710 PUSH2 0x44AA DUP8 DUP10 PUSH2 0x58B6 JUMP JUMPDEST PUSH2 0x44B4 SWAP2 SWAP1 PUSH2 0x5894 JUMP JUMPDEST SWAP1 POP PUSH1 0x0 PUSH2 0x2710 PUSH2 0x44C5 DUP8 DUP11 PUSH2 0x58B6 JUMP JUMPDEST PUSH2 0x44CF SWAP2 SWAP1 PUSH2 0x5894 JUMP JUMPDEST PUSH2 0x44D9 SWAP1 DUP5 PUSH2 0x587C JUMP JUMPDEST SWAP1 POP DUP1 DUP14 PUSH1 0xA0 ADD MLOAD GT DUP1 PUSH2 0x44F0 JUMPI POP DUP2 DUP14 PUSH1 0xA0 ADD MLOAD LT JUMPDEST ISZERO PUSH2 0x4505 JUMPI POP POP POP POP POP POP POP POP POP POP POP SWAP2 SWAP1 POP JUMP JUMPDEST POP POP PUSH1 0xA0 DUP11 ADD MLOAD PUSH1 0x40 SWAP1 DUP2 ADD DUP4 SWAP1 MSTORE PUSH1 0x60 DUP13 ADD MLOAD SWAP1 MLOAD PUSH4 0x17F783B PUSH1 0xE6 SHL DUP2 MSTORE PUSH1 0x1 PUSH1 0x1 PUSH1 0xA0 SHL SUB SWAP2 DUP3 AND PUSH1 0x4 DUP3 ADD MSTORE PUSH1 0x0 SWAP2 DUP12 AND SWAP1 PUSH4 0x5FDE0EC0 SWAP1 PUSH1 0x24 ADD PUSH1 0x20 PUSH1 0x40 MLOAD DUP1 DUP4 SUB DUP2 DUP7 DUP1 EXTCODESIZE ISZERO DUP1 ISZERO PUSH2 0x455C JUMPI PUSH1 0x0 DUP1 REVERT JUMPDEST POP GAS STATICCALL ISZERO DUP1 ISZERO PUSH2 0x4570 JUMPI RETURNDATASIZE PUSH1 0x0 DUP1 RETURNDATACOPY RETURNDATASIZE PUSH1 0x0 REVERT JUMPDEST POP POP POP POP PUSH1 0x40 MLOAD RETURNDATASIZE PUSH1 0x1F NOT PUSH1 0x1F DUP3 ADD AND DUP3 ADD DUP1 PUSH1 0x40 MSTORE POP DUP2 ADD SWAP1 PUSH2 0x4594 SWAP2 SWAP1 PUSH2 0x559D JUMP JUMPDEST SWAP1 POP DUP4 DUP13 PUSH1 0xC0 ADD MLOAD PUSH2 0x45A6 SWAP2 SWAP1 PUSH2 0x58B6 JUMP JUMPDEST DUP9 PUSH2 0x45B1 DUP4 DUP6 PUSH2 0x58B6 JUMP JUMPDEST PUSH2 0x45BB SWAP2 SWAP1 PUSH2 0x58B6 JUMP JUMPDEST PUSH2 0x45C5 SWAP2 SWAP1 PUSH2 0x5894 JUMP JUMPDEST PUSH1 0xA0 DUP13 ADD MLOAD PUSH1 0x60 ADD MSTORE POP PUSH1 0x20 DUP12 ADD MLOAD PUSH1 0x40 MLOAD PUSH4 0xF5D0E175 PUSH1 0xE0 SHL DUP2 MSTORE PUSH1 0x1 PUSH1 0x1 PUSH1 0xA0 SHL SUB SWAP2 DUP3 AND PUSH1 0x4 DUP3 ADD MSTORE PUSH1 0x0 SWAP2 DUP12 AND SWAP1 PUSH4 0xF5D0E175 SWAP1 PUSH1 0x24 ADD PUSH1 0x20 PUSH1 0x40 MLOAD DUP1 DUP4 SUB DUP2 DUP7 DUP1 EXTCODESIZE ISZERO DUP1 ISZERO PUSH2 0x4618 JUMPI PUSH1 0x0 DUP1 REVERT JUMPDEST POP GAS STATICCALL ISZERO DUP1 ISZERO PUSH2 0x462C JUMPI RETURNDATASIZE PUSH1 0x0 DUP1 RETURNDATACOPY RETURNDATASIZE PUSH1 0x0 REVERT JUMPDEST POP POP POP POP PUSH1 0x40 MLOAD RETURNDATASIZE PUSH1 0x1F NOT PUSH1 0x1F DUP3 ADD AND DUP3 ADD DUP1 PUSH1 0x40 MSTORE POP DUP2 ADD SWAP1 PUSH2 0x4650 SWAP2 SWAP1 PUSH2 0x559D JUMP JUMPDEST SWAP1 POP DUP2 DUP13 PUSH1 0xA0 ADD MLOAD GT ISZERO PUSH2 0x46C3 JUMPI PUSH1 0x0 DUP6 DUP3 DUP5 DUP16 PUSH1 0xA0 ADD MLOAD PUSH2 0x4672 SWAP2 SWAP1 PUSH2 0x58D5 JUMP JUMPDEST PUSH2 0x467C SWAP2 SWAP1 PUSH2 0x58B6 JUMP JUMPDEST PUSH2 0x4686 SWAP2 SWAP1 PUSH2 0x5894 JUMP JUMPDEST SWAP1 POP DUP1 DUP9 LT ISZERO PUSH2 0x46A0 JUMPI POP POP POP POP POP POP POP POP POP POP POP SWAP2 SWAP1 POP JUMP JUMPDEST PUSH1 0x80 DUP14 ADD MLOAD PUSH2 0x46AF DUP11 DUP4 PUSH2 0x58B6 JUMP JUMPDEST PUSH2 0x46B9 SWAP2 SWAP1 PUSH2 0x5894 JUMP JUMPDEST PUSH1 0x60 DUP1 DUP15 ADD MLOAD ADD MSTORE POP JUMPDEST POP PUSH1 0x40 DUP12 DUP2 ADD MLOAD SWAP1 MLOAD PUSH4 0xAC436BDF PUSH1 0xE0 SHL DUP2 MSTORE PUSH1 0x1 PUSH1 0x1 PUSH1 0xA0 SHL SUB SWAP2 DUP3 AND PUSH1 0x4 DUP3 ADD MSTORE PUSH1 0x0 SWAP2 DUP12 AND SWAP1 PUSH4 0xAC436BDF SWAP1 PUSH1 0x24 ADD PUSH1 0x20 PUSH1 0x40 MLOAD DUP1 DUP4 SUB DUP2 DUP7 DUP1 EXTCODESIZE ISZERO DUP1 ISZERO PUSH2 0x470D JUMPI PUSH1 0x0 DUP1 REVERT JUMPDEST POP GAS STATICCALL ISZERO DUP1 ISZERO PUSH2 0x4721 JUMPI RETURNDATASIZE PUSH1 0x0 DUP1 RETURNDATACOPY RETURNDATASIZE PUSH1 0x0 REVERT JUMPDEST POP POP POP POP PUSH1 0x40 MLOAD RETURNDATASIZE PUSH1 0x1F NOT PUSH1 0x1F DUP3 ADD AND DUP3 ADD DUP1 PUSH1 0x40 MSTORE POP DUP2 ADD SWAP1 PUSH2 0x4745 SWAP2 SWAP1 PUSH2 0x559D JUMP JUMPDEST SWAP1 POP PUSH1 0x0 PUSH5 0x496CEBB800 TIMESTAMP DUP15 PUSH1 0xE0 ADD MLOAD PUSH2 0x475F SWAP2 SWAP1 PUSH2 0x58D5 JUMP JUMPDEST DUP4 DUP16 PUSH1 0xA0 ADD MLOAD PUSH2 0x476F SWAP2 SWAP1 PUSH2 0x58B6 JUMP JUMPDEST PUSH2 0x4779 SWAP2 SWAP1 PUSH2 0x58B6 JUMP JUMPDEST PUSH2 0x4783 SWAP2 SWAP1 PUSH2 0x5894 JUMP JUMPDEST SWAP1 POP PUSH1 0x0 DUP12 PUSH1 0x1 PUSH1 0x1 PUSH1 0xA0 SHL SUB AND PUSH4 0x75E58079 PUSH1 0x40 MLOAD DUP2 PUSH4 0xFFFFFFFF AND PUSH1 0xE0 SHL DUP2 MSTORE PUSH1 0x4 ADD PUSH1 0x20 PUSH1 0x40 MLOAD DUP1 DUP4 SUB DUP2 DUP7 DUP1 EXTCODESIZE ISZERO DUP1 ISZERO PUSH2 0x47C0 JUMPI PUSH1 0x0 DUP1 REVERT JUMPDEST POP GAS STATICCALL ISZERO DUP1 ISZERO PUSH2 0x47D4 JUMPI RETURNDATASIZE PUSH1 0x0 DUP1 RETURNDATACOPY RETURNDATASIZE PUSH1 0x0 REVERT JUMPDEST POP POP POP POP PUSH1 0x40 MLOAD RETURNDATASIZE PUSH1 0x1F NOT PUSH1 0x1F DUP3 ADD AND DUP3 ADD DUP1 PUSH1 0x40 MSTORE POP DUP2 ADD SWAP1 PUSH2 0x47F8 SWAP2 SWAP1 PUSH2 0x5328 JUMP JUMPDEST DUP15 MLOAD PUSH1 0x40 MLOAD PUSH4 0x172C717B PUSH1 0xE0 SHL DUP2 MSTORE PUSH1 0x1 PUSH1 0x1 PUSH1 0xA0 SHL SUB SWAP2 DUP3 AND PUSH1 0x4 DUP3 ADD MSTORE PUSH1 0x24 DUP2 ADD DUP6 SWAP1 MSTORE SWAP2 SWAP3 POP DUP3 AND SWAP1 PUSH4 0x172C717B SWAP1 PUSH1 0x44 ADD PUSH1 0x20 PUSH1 0x40 MLOAD DUP1 DUP4 SUB DUP2 DUP7 DUP1 EXTCODESIZE ISZERO DUP1 ISZERO PUSH2 0x4845 JUMPI PUSH1 0x0 DUP1 REVERT JUMPDEST POP GAS STATICCALL ISZERO DUP1 ISZERO PUSH2 0x4859 JUMPI RETURNDATASIZE PUSH1 0x0 DUP1 RETURNDATACOPY RETURNDATASIZE PUSH1 0x0 REVERT JUMPDEST POP POP POP POP PUSH1 0x40 MLOAD RETURNDATASIZE PUSH1 0x1F NOT PUSH1 0x1F DUP3 ADD AND DUP3 ADD DUP1 PUSH1 0x40 MSTORE POP DUP2 ADD SWAP1 PUSH2 0x487D SWAP2 SWAP1 PUSH2 0x559D JUMP JUMPDEST SWAP2 POP PUSH1 0x0 DUP13 PUSH1 0x1 PUSH1 0x1 PUSH1 0xA0 SHL SUB AND PUSH4 0x58F85880 PUSH1 0x40 MLOAD DUP2 PUSH4 0xFFFFFFFF AND PUSH1 0xE0 SHL DUP2 MSTORE PUSH1 0x4 ADD PUSH1 0x20 PUSH1 0x40 MLOAD DUP1 DUP4 SUB DUP2 DUP7 DUP1 EXTCODESIZE ISZERO DUP1 ISZERO PUSH2 0x48BA JUMPI PUSH1 0x0 DUP1 REVERT JUMPDEST POP GAS STATICCALL ISZERO DUP1 ISZERO PUSH2 0x48CE JUMPI RETURNDATASIZE PUSH1 0x0 DUP1 RETURNDATACOPY RETURNDATASIZE PUSH1 0x0 REVERT JUMPDEST POP POP POP POP PUSH1 0x40 MLOAD RETURNDATASIZE PUSH1 0x1F NOT PUSH1 0x1F DUP3 ADD AND DUP3 ADD DUP1 PUSH1 0x40 MSTORE POP DUP2 ADD SWAP1 PUSH2 0x48F2 SWAP2 SWAP1 PUSH2 0x559D JUMP JUMPDEST PUSH2 0x100 DUP16 ADD DUP5 SWAP1 MSTORE SWAP1 POP PUSH2 0x2710 PUSH2 0x4909 DUP3 DUP6 PUSH2 0x58B6 JUMP JUMPDEST PUSH2 0x4913 SWAP2 SWAP1 PUSH2 0x5894 JUMP JUMPDEST PUSH2 0x120 DUP16 ADD MSTORE POP POP POP POP PUSH1 0x40 DUP12 DUP2 ADD MLOAD SWAP1 MLOAD PUSH4 0x4D83BC33 PUSH1 0xE0 SHL DUP2 MSTORE PUSH1 0x1 PUSH1 0x1 PUSH1 0xA0 SHL SUB SWAP2 DUP3 AND PUSH1 0x4 DUP3 ADD MSTORE SWAP1 DUP11 AND SWAP1 PUSH4 0x4D83BC33 SWAP1 PUSH1 0x24 ADD PUSH1 0x20 PUSH1 0x40 MLOAD DUP1 DUP4 SUB DUP2 DUP7 DUP1 EXTCODESIZE ISZERO DUP1 ISZERO PUSH2 0x4964 JUMPI PUSH1 0x0 DUP1 REVERT JUMPDEST POP GAS STATICCALL ISZERO DUP1 ISZERO PUSH2 0x4978 JUMPI RETURNDATASIZE PUSH1 0x0 DUP1 RETURNDATACOPY RETURNDATASIZE PUSH1 0x0 REVERT JUMPDEST POP POP POP POP PUSH1 0x40 MLOAD RETURNDATASIZE PUSH1 0x1F NOT PUSH1 0x1F DUP3 ADD AND DUP3 ADD DUP1 PUSH1 0x40 MSTORE POP DUP2 ADD SWAP1 PUSH2 0x499C SWAP2 SWAP1 PUSH2 0x5328 JUMP JUMPDEST PUSH1 0x1 PUSH1 0x1 PUSH1 0xA0 SHL SUB AND PUSH1 0x40 DUP12 ADD MSTORE POP POP POP POP POP POP POP POP POP JUMPDEST SWAP2 SWAP1 POP JUMP JUMPDEST PUSH1 0x0 DUP2 DUP2 MSTORE PUSH1 0x3 PUSH1 0x20 MSTORE PUSH1 0x40 DUP2 KECCAK256 SLOAD DUP1 PUSH2 0x49D6 JUMPI POP PUSH1 0x0 SWAP3 SWAP2 POP POP JUMP JUMPDEST PUSH1 0x0 PUSH1 0x1 PUSH2 0x49E4 DUP2 DUP5 PUSH2 0x58D5 JUMP JUMPDEST DUP2 SLOAD DUP2 LT PUSH2 0x49F4 JUMPI PUSH2 0x49F4 PUSH2 0x5902 JUMP JUMPDEST PUSH1 0x0 SWAP2 DUP3 MSTORE PUSH1 0x20 SWAP2 DUP3 SWAP1 KECCAK256 PUSH1 0x40 DUP1 MLOAD PUSH2 0x1A0 DUP2 ADD DUP3 MSTORE PUSH1 0x16 SWAP1 SWAP4 MUL SWAP1 SWAP2 ADD DUP1 SLOAD DUP4 MSTORE PUSH1 0x1 DUP2 ADD SLOAD PUSH1 0x1 PUSH1 0x1 PUSH1 0xA0 SHL SUB SWAP1 DUP2 AND DUP5 DUP7 ADD MSTORE PUSH1 0x2 DUP3 ADD SLOAD DUP2 AND DUP5 DUP5 ADD MSTORE DUP3 MLOAD PUSH1 0xA0 DUP1 DUP3 ADD DUP6 MSTORE PUSH1 0x3 DUP5 ADD SLOAD DUP4 AND DUP3 MSTORE PUSH1 0x4 DUP5 ADD SLOAD DUP3 DUP9 ADD MSTORE PUSH1 0x5 DUP5 ADD SLOAD DUP3 DUP7 ADD MSTORE PUSH1 0x6 DUP5 ADD SLOAD PUSH1 0x60 DUP4 DUP2 ADD SWAP2 SWAP1 SWAP2 MSTORE PUSH1 0x7 DUP6 ADD SLOAD PUSH1 0x80 DUP1 DUP6 ADD SWAP2 SWAP1 SWAP2 MSTORE DUP2 DUP9 ADD SWAP4 SWAP1 SWAP4 MSTORE DUP6 MLOAD DUP1 DUP8 ADD DUP8 MSTORE PUSH1 0x8 DUP7 ADD SLOAD DUP6 AND DUP2 MSTORE PUSH1 0x9 DUP7 ADD SLOAD DUP2 DUP11 ADD MSTORE DUP4 DUP9 ADD MSTORE DUP6 MLOAD DUP1 DUP4 ADD DUP8 MSTORE PUSH1 0xA DUP7 ADD SLOAD DUP6 AND DUP2 MSTORE PUSH1 0xB DUP7 ADD SLOAD DUP2 DUP11 ADD MSTORE PUSH1 0xC DUP7 ADD SLOAD DUP2 DUP9 ADD MSTORE PUSH1 0xD DUP7 ADD SLOAD DUP2 DUP4 ADD MSTORE PUSH1 0xE DUP7 ADD SLOAD DUP2 DUP6 ADD MSTORE DUP3 DUP9 ADD MSTORE PUSH1 0xF DUP6 ADD SLOAD PUSH1 0xC0 DUP1 DUP10 ADD SWAP2 SWAP1 SWAP2 MSTORE PUSH1 0x10 DUP7 ADD SLOAD PUSH1 0xE0 DUP1 DUP11 ADD SWAP2 SWAP1 SWAP2 MSTORE PUSH1 0x11 DUP8 ADD SLOAD PUSH2 0x100 DUP1 DUP12 ADD SWAP2 SWAP1 SWAP2 MSTORE PUSH1 0x12 DUP9 ADD SLOAD PUSH2 0x120 DUP12 ADD MSTORE DUP9 MLOAD DUP1 DUP3 ADD DUP11 MSTORE PUSH1 0x13 DUP10 ADD SLOAD PUSH1 0xFF DUP1 DUP3 AND ISZERO ISZERO DUP4 MSTORE SWAP3 DUP2 DIV DUP4 AND ISZERO ISZERO SWAP13 DUP3 ADD SWAP13 SWAP1 SWAP13 MSTORE PUSH3 0x10000 DUP13 DIV DUP3 AND ISZERO ISZERO SWAP10 DUP2 ADD SWAP10 SWAP1 SWAP10 MSTORE PUSH4 0x1000000 DUP12 DIV DUP2 AND ISZERO ISZERO SWAP4 DUP10 ADD SWAP4 SWAP1 SWAP4 MSTORE PUSH5 0x100000000 DUP11 DIV DUP4 AND ISZERO ISZERO SWAP5 DUP9 ADD SWAP5 SWAP1 SWAP5 MSTORE PUSH1 0x1 PUSH1 0x28 SHL DUP10 DIV DUP3 AND ISZERO ISZERO SWAP3 DUP8 ADD SWAP3 SWAP1 SWAP3 MSTORE PUSH1 0x1 PUSH1 0x30 SHL DUP9 DIV DUP2 AND ISZERO ISZERO SWAP2 DUP7 ADD SWAP2 SWAP1 SWAP2 MSTORE PUSH1 0x1 PUSH1 0x38 SHL SWAP1 SWAP7 DIV SWAP1 SWAP6 AND ISZERO ISZERO SWAP5 DUP4 ADD SWAP5 SWAP1 SWAP5 MSTORE PUSH2 0x140 DUP4 ADD DUP3 SWAP1 MSTORE PUSH1 0x14 DUP2 ADD SLOAD SWAP1 SWAP4 AND PUSH2 0x160 DUP4 ADD MSTORE PUSH1 0x15 SWAP1 SWAP3 ADD SLOAD PUSH2 0x180 DUP3 ADD MSTORE SWAP1 MLOAD SWAP1 SWAP2 POP ISZERO PUSH2 0x4BCE JUMPI POP PUSH1 0x0 SWAP4 SWAP3 POP POP POP JUMP JUMPDEST TIMESTAMP DUP2 PUSH1 0xC0 ADD MLOAD GT PUSH2 0x4BE3 JUMPI POP PUSH1 0x1 SWAP4 SWAP3 POP POP POP JUMP JUMPDEST PUSH1 0x0 DUP1 SLOAD PUSH1 0x40 DUP1 MLOAD PUSH4 0x3A0DF78D PUSH1 0xE1 SHL DUP2 MSTORE SWAP1 MLOAD PUSH1 0x1 PUSH1 0x1 PUSH1 0xA0 SHL SUB SWAP1 SWAP3 AND SWAP3 SWAP2 DUP4 SWAP2 PUSH4 0x741BEF1A SWAP2 PUSH1 0x4 DUP1 DUP4 ADD SWAP3 PUSH1 0x20 SWAP3 SWAP2 SWAP1 DUP3 SWAP1 SUB ADD DUP2 DUP7 DUP1 EXTCODESIZE ISZERO DUP1 ISZERO PUSH2 0x4C2B JUMPI PUSH1 0x0 DUP1 REVERT JUMPDEST POP GAS STATICCALL ISZERO DUP1 ISZERO PUSH2 0x4C3F JUMPI RETURNDATASIZE PUSH1 0x0 DUP1 RETURNDATACOPY RETURNDATASIZE PUSH1 0x0 REVERT JUMPDEST POP POP POP POP PUSH1 0x40 MLOAD RETURNDATASIZE PUSH1 0x1F NOT PUSH1 0x1F DUP3 ADD AND DUP3 ADD DUP1 PUSH1 0x40 MSTORE POP DUP2 ADD SWAP1 PUSH2 0x4C63 SWAP2 SWAP1 PUSH2 0x5328 JUMP JUMPDEST PUSH1 0xA0 DUP5 ADD MLOAD MLOAD PUSH1 0x80 DUP6 ADD MLOAD MLOAD PUSH1 0x40 MLOAD PUSH4 0x7360A1B1 PUSH1 0xE1 SHL DUP2 MSTORE SWAP3 SWAP4 POP PUSH1 0x0 SWAP3 PUSH1 0x1 PUSH1 0x1 PUSH1 0xA0 SHL SUB DUP6 AND SWAP3 PUSH4 0xE6C14362 SWAP3 PUSH2 0x4C9F SWAP3 PUSH1 0x4 ADD PUSH2 0x5662 JUMP JUMPDEST PUSH1 0x20 PUSH1 0x40 MLOAD DUP1 DUP4 SUB DUP2 DUP7 DUP1 EXTCODESIZE ISZERO DUP1 ISZERO PUSH2 0x4CB7 JUMPI PUSH1 0x0 DUP1 REVERT JUMPDEST POP GAS STATICCALL ISZERO DUP1 ISZERO PUSH2 0x4CCB JUMPI RETURNDATASIZE PUSH1 0x0 DUP1 RETURNDATACOPY RETURNDATASIZE PUSH1 0x0 REVERT JUMPDEST POP POP POP POP PUSH1 0x40 MLOAD RETURNDATASIZE PUSH1 0x1F NOT PUSH1 0x1F DUP3 ADD AND DUP3 ADD DUP1 PUSH1 0x40 MSTORE POP DUP2 ADD SWAP1 PUSH2 0x4CEF SWAP2 SWAP1 PUSH2 0x559D JUMP JUMPDEST SWAP1 POP DUP4 PUSH1 0xA0 ADD MLOAD PUSH1 0x60 ADD MLOAD DUP2 GT PUSH2 0x4D0D JUMPI POP PUSH1 0x1 SWAP7 SWAP6 POP POP POP POP POP POP JUMP JUMPDEST PUSH1 0x60 DUP5 ADD MLOAD MLOAD PUSH1 0x80 DUP6 ADD MLOAD MLOAD PUSH1 0x40 MLOAD PUSH4 0x7360A1B1 PUSH1 0xE1 SHL DUP2 MSTORE PUSH1 0x0 SWAP3 PUSH1 0x1 PUSH1 0x1 PUSH1 0xA0 SHL SUB DUP7 AND SWAP3 PUSH4 0xE6C14362 SWAP3 PUSH2 0x4D48 SWAP3 SWAP2 SWAP1 PUSH1 0x4 ADD PUSH2 0x5662 JUMP JUMPDEST PUSH1 0x20 PUSH1 0x40 MLOAD DUP1 DUP4 SUB DUP2 DUP7 DUP1 EXTCODESIZE ISZERO DUP1 ISZERO PUSH2 0x4D60 JUMPI PUSH1 0x0 DUP1 REVERT JUMPDEST POP GAS STATICCALL ISZERO DUP1 ISZERO PUSH2 0x4D74 JUMPI RETURNDATASIZE PUSH1 0x0 DUP1 RETURNDATACOPY RETURNDATASIZE PUSH1 0x0 REVERT JUMPDEST POP POP POP POP PUSH1 0x40 MLOAD RETURNDATASIZE PUSH1 0x1F NOT PUSH1 0x1F DUP3 ADD AND DUP3 ADD DUP1 PUSH1 0x40 MSTORE POP DUP2 ADD SWAP1 PUSH2 0x4D98 SWAP2 SWAP1 PUSH2 0x559D JUMP JUMPDEST SWAP1 POP PUSH1 0x0 DUP6 PUSH1 0xE0 ADD MLOAD GT DUP1 ISZERO PUSH2 0x4DB2 JUMPI POP DUP5 PUSH1 0xE0 ADD MLOAD DUP2 GT ISZERO JUMPDEST DUP1 PUSH2 0x4DC5 JUMPI POP DUP5 PUSH1 0x60 ADD MLOAD PUSH1 0x60 ADD MLOAD DUP2 GT ISZERO JUMPDEST ISZERO PUSH2 0x4DD8 JUMPI POP PUSH1 0x1 SWAP8 SWAP7 POP POP POP POP POP POP POP JUMP JUMPDEST POP PUSH1 0x0 SWAP8 SWAP7 POP POP POP POP POP POP POP JUMP JUMPDEST PUSH2 0x4DEE PUSH2 0x4F68 JUMP JUMPDEST PUSH1 0x40 MLOAD DUP1 PUSH2 0x1A0 ADD PUSH1 0x40 MSTORE DUP1 PUSH1 0x0 DUP1 NOT AND DUP2 MSTORE PUSH1 0x20 ADD DUP5 PUSH1 0x0 ADD MLOAD PUSH1 0x1 PUSH1 0x1 PUSH1 0xA0 SHL SUB AND DUP2 MSTORE PUSH1 0x20 ADD PUSH1 0x0 PUSH1 0x1 PUSH1 0x1 PUSH1 0xA0 SHL SUB AND DUP2 MSTORE PUSH1 0x20 ADD PUSH1 0x40 MLOAD DUP1 PUSH1 0xA0 ADD PUSH1 0x40 MSTORE DUP1 DUP7 PUSH1 0x20 ADD MLOAD PUSH1 0x1 PUSH1 0x1 PUSH1 0xA0 SHL SUB AND DUP2 MSTORE PUSH1 0x20 ADD DUP7 PUSH1 0x80 ADD MLOAD DUP2 MSTORE PUSH1 0x20 ADD DUP6 DUP2 MSTORE PUSH1 0x20 ADD PUSH1 0x0 DUP2 MSTORE PUSH1 0x20 ADD PUSH1 0x0 DUP2 MSTORE POP DUP2 MSTORE PUSH1 0x20 ADD PUSH1 0x40 MLOAD DUP1 PUSH1 0x40 ADD PUSH1 0x40 MSTORE DUP1 DUP7 PUSH1 0x40 ADD MLOAD PUSH1 0x1 PUSH1 0x1 PUSH1 0xA0 SHL SUB AND DUP2 MSTORE PUSH1 0x20 ADD DUP7 PUSH1 0xA0 ADD MLOAD DUP2 MSTORE POP DUP2 MSTORE PUSH1 0x20 ADD PUSH1 0x40 MLOAD DUP1 PUSH1 0xA0 ADD PUSH1 0x40 MSTORE DUP1 DUP7 PUSH1 0x60 ADD MLOAD PUSH1 0x1 PUSH1 0x1 PUSH1 0xA0 SHL SUB AND DUP2 MSTORE PUSH1 0x20 ADD DUP7 PUSH1 0xC0 ADD MLOAD DUP2 MSTORE PUSH1 0x20 ADD PUSH1 0x0 DUP2 MSTORE PUSH1 0x20 ADD PUSH1 0x0 DUP2 MSTORE PUSH1 0x20 ADD PUSH1 0x0 DUP2 MSTORE POP DUP2 MSTORE PUSH1 0x20 ADD DUP5 PUSH1 0xE0 ADD MLOAD DUP2 MSTORE PUSH1 0x20 ADD DUP5 PUSH2 0x100 ADD MLOAD DUP2 MSTORE PUSH1 0x20 ADD PUSH1 0x0 DUP2 MSTORE PUSH1 0x20 ADD PUSH1 0x0 DUP2 MSTORE PUSH1 0x20 ADD PUSH1 0x40 MLOAD DUP1 PUSH2 0x100 ADD PUSH1 0x40 MSTORE DUP1 PUSH1 0x0 ISZERO ISZERO DUP2 MSTORE PUSH1 0x20 ADD PUSH1 0x0 ISZERO ISZERO DUP2 MSTORE PUSH1 0x20 ADD PUSH1 0x0 ISZERO ISZERO DUP2 MSTORE PUSH1 0x20 ADD PUSH1 0x0 ISZERO ISZERO DUP2 MSTORE PUSH1 0x20 ADD PUSH1 0x0 ISZERO ISZERO DUP2 MSTORE PUSH1 0x20 ADD PUSH1 0x0 ISZERO ISZERO DUP2 MSTORE PUSH1 0x20 ADD PUSH1 0x0 ISZERO ISZERO DUP2 MSTORE PUSH1 0x20 ADD PUSH1 0x0 ISZERO ISZERO DUP2 MSTORE POP DUP2 MSTORE PUSH1 0x20 ADD PUSH1 0x0 PUSH1 0x1 PUSH1 0x1 PUSH1 0xA0 SHL SUB AND DUP2 MSTORE PUSH1 0x20 ADD PUSH1 0x0 DUP2 MSTORE POP SWAP1 POP SWAP3 SWAP2 POP POP JUMP JUMPDEST PUSH1 0x40 MLOAD DUP1 PUSH2 0x1A0 ADD PUSH1 0x40 MSTORE DUP1 PUSH1 0x0 DUP1 NOT AND DUP2 MSTORE PUSH1 0x20 ADD PUSH1 0x0 PUSH1 0x1 PUSH1 0x1 PUSH1 0xA0 SHL SUB AND DUP2 MSTORE PUSH1 0x20 ADD PUSH1 0x0 PUSH1 0x1 PUSH1 0x1 PUSH1 0xA0 SHL SUB AND DUP2 MSTORE PUSH1 0x20 ADD PUSH2 0x4FD9 PUSH1 0x40 MLOAD DUP1 PUSH1 0xA0 ADD PUSH1 0x40 MSTORE DUP1 PUSH1 0x0 PUSH1 0x1 PUSH1 0x1 PUSH1 0xA0 SHL SUB AND DUP2 MSTORE PUSH1 0x20 ADD PUSH1 0x0 DUP2 MSTORE PUSH1 0x20 ADD PUSH1 0x0 DUP2 MSTORE PUSH1 0x20 ADD PUSH1 0x0 DUP2 MSTORE PUSH1 0x20 ADD PUSH1 0x0 DUP2 MSTORE POP SWAP1 JUMP JUMPDEST DUP2 MSTORE PUSH1 0x20 ADD PUSH2 0x5004 PUSH1 0x40 MLOAD DUP1 PUSH1 0x40 ADD PUSH1 0x40 MSTORE DUP1 PUSH1 0x0 PUSH1 0x1 PUSH1 0x1 PUSH1 0xA0 SHL SUB AND DUP2 MSTORE PUSH1 0x20 ADD PUSH1 0x0 DUP2 MSTORE POP SWAP1 JUMP JUMPDEST DUP2 MSTORE PUSH1 0x20 ADD PUSH2 0x5044 PUSH1 0x40 MLOAD DUP1 PUSH1 0xA0 ADD PUSH1 0x40 MSTORE DUP1 PUSH1 0x0 PUSH1 0x1 PUSH1 0x1 PUSH1 0xA0 SHL SUB AND DUP2 MSTORE PUSH1 0x20 ADD PUSH1 0x0 DUP2 MSTORE PUSH1 0x20 ADD PUSH1 0x0 DUP2 MSTORE PUSH1 0x20 ADD PUSH1 0x0 DUP2 MSTORE PUSH1 0x20 ADD PUSH1 0x0 DUP2 MSTORE POP SWAP1 JUMP JUMPDEST DUP2 MSTORE PUSH1 0x0 PUSH1 0x20 DUP1 DUP4 ADD DUP3 SWAP1 MSTORE PUSH1 0x40 DUP1 DUP5 ADD DUP4 SWAP1 MSTORE PUSH1 0x60 DUP1 DUP6 ADD DUP5 SWAP1 MSTORE PUSH1 0x80 DUP1 DUP7 ADD DUP6 SWAP1 MSTORE DUP3 MLOAD PUSH2 0x100 DUP2 ADD DUP5 MSTORE DUP6 DUP2 MSTORE SWAP4 DUP5 ADD DUP6 SWAP1 MSTORE SWAP2 DUP4 ADD DUP5 SWAP1 MSTORE DUP3 ADD DUP4 SWAP1 MSTORE DUP2 ADD DUP3 SWAP1 MSTORE PUSH1 0xA0 DUP2 DUP2 ADD DUP4 SWAP1 MSTORE PUSH1 0xC0 DUP3 ADD DUP4 SWAP1 MSTORE PUSH1 0xE0 DUP3 ADD SWAP3 SWAP1 SWAP3 MSTORE SWAP2 ADD SWAP1 DUP2 MSTORE PUSH1 0x0 PUSH1 0x20 DUP3 ADD DUP2 SWAP1 MSTORE PUSH1 0x40 SWAP1 SWAP2 ADD MSTORE SWAP1 JUMP JUMPDEST DUP1 CALLDATALOAD PUSH2 0x49B4 DUP2 PUSH2 0x5918 JUMP JUMPDEST DUP1 CALLDATALOAD PUSH2 0x49B4 DUP2 PUSH2 0x5930 JUMP JUMPDEST PUSH1 0x0 PUSH1 0xA0 DUP3 DUP5 SUB SLT ISZERO PUSH2 0x50E0 JUMPI PUSH1 0x0 DUP1 REVERT JUMPDEST PUSH1 0x40 MLOAD PUSH1 0xA0 DUP2 ADD DUP2 DUP2 LT PUSH8 0xFFFFFFFFFFFFFFFF DUP3 GT OR ISZERO PUSH2 0x5111 JUMPI PUSH4 0x4E487B71 PUSH1 0xE0 SHL PUSH1 0x0 MSTORE PUSH1 0x41 PUSH1 0x4 MSTORE PUSH1 0x24 PUSH1 0x0 REVERT JUMPDEST PUSH1 0x40 MSTORE SWAP1 POP DUP1 DUP3 CALLDATALOAD PUSH2 0x5122 DUP2 PUSH2 0x5918 JUMP JUMPDEST DUP1 DUP3 MSTORE POP PUSH1 0x20 DUP4 ADD CALLDATALOAD PUSH1 0x20 DUP3 ADD MSTORE PUSH1 0x40 DUP4 ADD CALLDATALOAD PUSH1 0x40 DUP3 ADD MSTORE PUSH1 0x60 DUP4 ADD CALLDATALOAD PUSH1 0x60 DUP3 ADD MSTORE PUSH1 0x80 DUP4 ADD CALLDATALOAD PUSH1 0x80 DUP3 ADD MSTORE POP SWAP3 SWAP2 POP POP JUMP JUMPDEST PUSH1 0x0 PUSH1 0x40 DUP3 DUP5 SUB SLT ISZERO PUSH2 0x5167 JUMPI PUSH1 0x0 DUP1 REVERT JUMPDEST PUSH1 0x40 MLOAD PUSH1 0x40 DUP2 ADD DUP2 DUP2 LT PUSH8 0xFFFFFFFFFFFFFFFF DUP3 GT OR ISZERO PUSH2 0x5198 JUMPI PUSH4 0x4E487B71 PUSH1 0xE0 SHL PUSH1 0x0 MSTORE PUSH1 0x41 PUSH1 0x4 MSTORE PUSH1 0x24 PUSH1 0x0 REVERT JUMPDEST PUSH1 0x40 MSTORE SWAP1 POP DUP1 DUP3 CALLDATALOAD PUSH2 0x51A9 DUP2 PUSH2 0x5918 JUMP JUMPDEST DUP2 MSTORE PUSH1 0x20 SWAP3 DUP4 ADD CALLDATALOAD SWAP3 ADD SWAP2 SWAP1 SWAP2 MSTORE SWAP2 SWAP1 POP JUMP JUMPDEST PUSH1 0x0 PUSH2 0x100 DUP1 DUP4 DUP6 SUB SLT ISZERO PUSH2 0x51D0 JUMPI PUSH1 0x0 DUP1 REVERT JUMPDEST PUSH1 0x40 MLOAD SWAP1 DUP2 ADD SWAP1 PUSH8 0xFFFFFFFFFFFFFFFF DUP3 GT DUP2 DUP4 LT OR ISZERO PUSH2 0x5201 JUMPI PUSH4 0x4E487B71 PUSH1 0xE0 SHL PUSH1 0x0 MSTORE PUSH1 0x41 PUSH1 0x4 MSTORE PUSH1 0x24 PUSH1 0x0 REVERT JUMPDEST DUP2 PUSH1 0x40 MSTORE DUP1 SWAP3 POP DUP4 CALLDATALOAD SWAP2 POP PUSH2 0x5215 DUP3 PUSH2 0x5930 JUMP JUMPDEST DUP2 DUP2 MSTORE PUSH2 0x5224 PUSH1 0x20 DUP6 ADD PUSH2 0x50C3 JUMP JUMPDEST PUSH1 0x20 DUP3 ADD MSTORE PUSH2 0x5235 PUSH1 0x40 DUP6 ADD PUSH2 0x50C3 JUMP JUMPDEST PUSH1 0x40 DUP3 ADD MSTORE PUSH2 0x5246 PUSH1 0x60 DUP6 ADD PUSH2 0x50C3 JUMP JUMPDEST PUSH1 0x60 DUP3 ADD MSTORE PUSH2 0x5257 PUSH1 0x80 DUP6 ADD PUSH2 0x50C3 JUMP JUMPDEST PUSH1 0x80 DUP3 ADD MSTORE PUSH2 0x5268 PUSH1 0xA0 DUP6 ADD PUSH2 0x50C3 JUMP JUMPDEST PUSH1 0xA0 DUP3 ADD MSTORE PUSH2 0x5279 PUSH1 0xC0 DUP6 ADD PUSH2 0x50C3 JUMP JUMPDEST PUSH1 0xC0 DUP3 ADD MSTORE PUSH2 0x528A PUSH1 0xE0 DUP6 ADD PUSH2 0x50C3 JUMP JUMPDEST PUSH1 0xE0 DUP3 ADD MSTORE POP POP SWAP3 SWAP2 POP POP JUMP JUMPDEST PUSH1 0x0 PUSH1 0x60 DUP3 DUP5 SUB SLT ISZERO PUSH2 0x52A9 JUMPI PUSH1 0x0 DUP1 REVERT JUMPDEST PUSH1 0x40 MLOAD PUSH1 0x60 DUP2 ADD DUP2 DUP2 LT PUSH8 0xFFFFFFFFFFFFFFFF DUP3 GT OR ISZERO PUSH2 0x52DA JUMPI PUSH4 0x4E487B71 PUSH1 0xE0 SHL PUSH1 0x0 MSTORE PUSH1 0x41 PUSH1 0x4 MSTORE PUSH1 0x24 PUSH1 0x0 REVERT JUMPDEST DUP1 PUSH1 0x40 MSTORE POP DUP1 SWAP2 POP DUP3 CALLDATALOAD DUP2 MSTORE PUSH1 0x20 DUP4 ADD CALLDATALOAD PUSH1 0x20 DUP3 ADD MSTORE PUSH1 0x40 DUP4 ADD CALLDATALOAD PUSH2 0x52FE DUP2 PUSH2 0x5918 JUMP JUMPDEST PUSH1 0x40 SWAP2 SWAP1 SWAP2 ADD MSTORE SWAP3 SWAP2 POP POP JUMP JUMPDEST PUSH1 0x0 PUSH1 0x20 DUP3 DUP5 SUB SLT ISZERO PUSH2 0x531D JUMPI PUSH1 0x0 DUP1 REVERT JUMPDEST DUP2 CALLDATALOAD PUSH2 0x36F9 DUP2 PUSH2 0x5918 JUMP JUMPDEST PUSH1 0x0 PUSH1 0x20 DUP3 DUP5 SUB SLT ISZERO PUSH2 0x533A JUMPI PUSH1 0x0 DUP1 REVERT JUMPDEST DUP2 MLOAD PUSH2 0x36F9 DUP2 PUSH2 0x5918 JUMP JUMPDEST PUSH1 0x0 DUP1 PUSH1 0x40 DUP4 DUP6 SUB SLT ISZERO PUSH2 0x5358 JUMPI PUSH1 0x0 DUP1 REVERT JUMPDEST DUP3 CALLDATALOAD PUSH2 0x5363 DUP2 PUSH2 0x5918 JUMP JUMPDEST SWAP5 PUSH1 0x20 SWAP4 SWAP1 SWAP4 ADD CALLDATALOAD SWAP4 POP POP POP JUMP JUMPDEST PUSH1 0x0 PUSH1 0x20 DUP3 DUP5 SUB SLT ISZERO PUSH2 0x5383 JUMPI PUSH1 0x0 DUP1 REVERT JUMPDEST DUP2 MLOAD PUSH2 0x36F9 DUP2 PUSH2 0x5930 JUMP JUMPDEST PUSH1 0x0 PUSH1 0x20 DUP3 DUP5 SUB SLT ISZERO PUSH2 0x53A0 JUMPI PUSH1 0x0 DUP1 REVERT JUMPDEST POP CALLDATALOAD SWAP2 SWAP1 POP JUMP JUMPDEST PUSH1 0x0 DUP1 PUSH1 0x40 DUP4 DUP6 SUB SLT ISZERO PUSH2 0x53BA JUMPI PUSH1 0x0 DUP1 REVERT JUMPDEST DUP3 CALLDATALOAD SWAP2 POP PUSH1 0x20 DUP4 ADD CALLDATALOAD PUSH2 0x53CC DUP2 PUSH2 0x5918 JUMP JUMPDEST DUP1 SWAP2 POP POP SWAP3 POP SWAP3 SWAP1 POP JUMP JUMPDEST PUSH1 0x0 DUP1 PUSH1 0x0 DUP1 PUSH1 0x80 DUP6 DUP8 SUB SLT ISZERO PUSH2 0x53ED JUMPI PUSH1 0x0 DUP1 REVERT JUMPDEST POP POP DUP3 CALLDATALOAD SWAP5 PUSH1 0x20 DUP5 ADD CALLDATALOAD SWAP5 POP PUSH1 0x40 DUP5 ADD CALLDATALOAD SWAP4 PUSH1 0x60 ADD CALLDATALOAD SWAP3 POP SWAP1 POP JUMP JUMPDEST PUSH1 0x0 PUSH2 0x120 DUP3 DUP5 SUB SLT ISZERO PUSH2 0x541C JUMPI PUSH1 0x0 DUP1 REVERT JUMPDEST PUSH2 0x5424 PUSH2 0x5812 JUMP JUMPDEST PUSH2 0x542D DUP4 PUSH2 0x50B8 JUMP JUMPDEST DUP2 MSTORE PUSH2 0x543B PUSH1 0x20 DUP5 ADD PUSH2 0x50B8 JUMP JUMPDEST PUSH1 0x20 DUP3 ADD MSTORE PUSH2 0x544C PUSH1 0x40 DUP5 ADD PUSH2 0x50B8 JUMP JUMPDEST PUSH1 0x40 DUP3 ADD MSTORE PUSH2 0x545D PUSH1 0x60 DUP5 ADD PUSH2 0x50B8 JUMP JUMPDEST PUSH1 0x60 DUP3 ADD MSTORE PUSH1 0x80 DUP4 ADD CALLDATALOAD PUSH1 0x80 DUP3 ADD MSTORE PUSH1 0xA0 DUP4 ADD CALLDATALOAD PUSH1 0xA0 DUP3 ADD MSTORE PUSH1 0xC0 DUP4 ADD CALLDATALOAD PUSH1 0xC0 DUP3 ADD MSTORE PUSH1 0xE0 DUP4 ADD CALLDATALOAD PUSH1 0xE0 DUP3 ADD MSTORE PUSH2 0x100 DUP1 DUP5 ADD CALLDATALOAD DUP2 DUP4 ADD MSTORE POP DUP1 SWAP2 POP POP SWAP3 SWAP2 POP POP JUMP JUMPDEST PUSH1 0x0 PUSH2 0x3A0 DUP3 DUP5 SUB SLT ISZERO PUSH2 0x54B3 JUMPI PUSH1 0x0 DUP1 REVERT JUMPDEST PUSH2 0x54BB PUSH2 0x584A JUMP JUMPDEST DUP3 CALLDATALOAD DUP2 MSTORE PUSH2 0x54CB PUSH1 0x20 DUP5 ADD PUSH2 0x50B8 JUMP JUMPDEST PUSH1 0x20 DUP3 ADD MSTORE PUSH2 0x54DC PUSH1 0x40 DUP5 ADD PUSH2 0x50B8 JUMP JUMPDEST PUSH1 0x40 DUP3 ADD MSTORE PUSH2 0x54EE DUP5 PUSH1 0x60 DUP6 ADD PUSH2 0x50CE JUMP JUMPDEST PUSH1 0x60 DUP3 ADD MSTORE PUSH2 0x100 PUSH2 0x5502 DUP6 DUP3 DUP7 ADD PUSH2 0x5155 JUMP JUMPDEST PUSH1 0x80 DUP4 ADD MSTORE PUSH2 0x140 PUSH2 0x5516 DUP7 DUP3 DUP8 ADD PUSH2 0x50CE JUMP JUMPDEST PUSH1 0xA0 DUP5 ADD MSTORE PUSH2 0x1E0 DUP6 ADD CALLDATALOAD PUSH1 0xC0 DUP5 ADD MSTORE PUSH2 0x200 DUP6 ADD CALLDATALOAD PUSH1 0xE0 DUP5 ADD MSTORE PUSH2 0x220 DUP6 ADD CALLDATALOAD DUP3 DUP5 ADD MSTORE PUSH2 0x240 DUP6 ADD CALLDATALOAD PUSH2 0x120 DUP5 ADD MSTORE PUSH2 0x5555 DUP7 PUSH2 0x260 DUP8 ADD PUSH2 0x51BC JUMP JUMPDEST SWAP1 DUP4 ADD MSTORE POP PUSH2 0x5567 PUSH2 0x360 DUP5 ADD PUSH2 0x50B8 JUMP JUMPDEST PUSH2 0x160 DUP3 ADD MSTORE PUSH2 0x380 SWAP3 SWAP1 SWAP3 ADD CALLDATALOAD PUSH2 0x180 DUP4 ADD MSTORE POP SWAP2 SWAP1 POP JUMP JUMPDEST PUSH1 0x0 PUSH1 0x60 DUP3 DUP5 SUB SLT ISZERO PUSH2 0x5593 JUMPI PUSH1 0x0 DUP1 REVERT JUMPDEST PUSH2 0x36F9 DUP4 DUP4 PUSH2 0x5297 JUMP JUMPDEST PUSH1 0x0 PUSH1 0x20 DUP3 DUP5 SUB SLT ISZERO PUSH2 0x55AF JUMPI PUSH1 0x0 DUP1 REVERT JUMPDEST POP MLOAD SWAP2 SWAP1 POP JUMP JUMPDEST DUP1 MLOAD PUSH1 0x1 PUSH1 0x1 PUSH1 0xA0 SHL SUB AND DUP3 MSTORE PUSH1 0x20 DUP1 DUP3 ADD MLOAD SWAP1 DUP4 ADD MSTORE PUSH1 0x40 DUP1 DUP3 ADD MLOAD SWAP1 DUP4 ADD MSTORE PUSH1 0x60 DUP1 DUP3 ADD MLOAD SWAP1 DUP4 ADD MSTORE PUSH1 0x80 SWAP1 DUP2 ADD MLOAD SWAP2 ADD MSTORE JUMP JUMPDEST DUP1 MLOAD ISZERO ISZERO DUP3 MSTORE PUSH1 0x20 DUP2 ADD MLOAD ISZERO ISZERO PUSH1 0x20 DUP4 ADD MSTORE PUSH1 0x40 DUP2 ADD MLOAD ISZERO ISZERO PUSH1 0x40 DUP4 ADD MSTORE PUSH1 0x60 DUP2 ADD MLOAD ISZERO ISZERO PUSH1 0x60 DUP4 ADD MSTORE PUSH1 0x80 DUP2 ADD MLOAD ISZERO ISZERO PUSH1 0x80 DUP4 ADD MSTORE PUSH1 0xA0 DUP2 ADD MLOAD PUSH2 0x5635 PUSH1 0xA0 DUP5 ADD DUP3 ISZERO ISZERO SWAP1 MSTORE JUMP JUMPDEST POP PUSH1 0xC0 DUP2 ADD MLOAD PUSH2 0x5649 PUSH1 0xC0 DUP5 ADD DUP3 ISZERO ISZERO SWAP1 MSTORE JUMP JUMPDEST POP PUSH1 0xE0 DUP2 ADD MLOAD PUSH2 0x565D PUSH1 0xE0 DUP5 ADD DUP3 ISZERO ISZERO SWAP1 MSTORE JUMP JUMPDEST POP POP POP JUMP JUMPDEST PUSH1 0x1 PUSH1 0x1 PUSH1 0xA0 SHL SUB SWAP3 DUP4 AND DUP2 MSTORE SWAP2 AND PUSH1 0x20 DUP3 ADD MSTORE PUSH1 0x40 ADD SWAP1 JUMP JUMPDEST DUP14 DUP2 MSTORE PUSH1 0x1 PUSH1 0x1 PUSH1 0xA0 SHL SUB DUP14 DUP2 AND PUSH1 0x20 DUP4 ADD MSTORE DUP13 DUP2 AND PUSH1 0x40 DUP4 ADD MSTORE PUSH2 0x3A0 DUP3 ADD SWAP1 PUSH2 0x56AA PUSH1 0x60 DUP5 ADD DUP15 PUSH2 0x55B6 JUMP JUMPDEST DUP12 MLOAD PUSH1 0x1 PUSH1 0x1 PUSH1 0xA0 SHL SUB AND PUSH2 0x100 DUP5 ADD MSTORE PUSH1 0x20 DUP13 ADD MLOAD PUSH2 0x120 DUP5 ADD MSTORE PUSH2 0x56D4 PUSH2 0x140 DUP5 ADD DUP13 PUSH2 0x55B6 JUMP JUMPDEST DUP10 PUSH2 0x1E0 DUP5 ADD MSTORE DUP9 PUSH2 0x200 DUP5 ADD MSTORE DUP8 PUSH2 0x220 DUP5 ADD MSTORE DUP7 PUSH2 0x240 DUP5 ADD MSTORE PUSH2 0x56FE PUSH2 0x260 DUP5 ADD DUP8 PUSH2 0x55EC JUMP JUMPDEST SWAP4 SWAP1 SWAP4 AND PUSH2 0x360 DUP3 ADD MSTORE PUSH2 0x380 ADD MSTORE SWAP12 SWAP11 POP POP POP POP POP POP POP POP POP POP POP JUMP JUMPDEST DUP2 MLOAD DUP2 MSTORE PUSH1 0x20 DUP1 DUP4 ADD MLOAD PUSH2 0x3A0 DUP4 ADD SWAP2 PUSH2 0x5740 SWAP1 DUP5 ADD DUP3 PUSH1 0x1 PUSH1 0x1 PUSH1 0xA0 SHL SUB AND SWAP1 MSTORE JUMP JUMPDEST POP PUSH1 0x40 DUP4 ADD MLOAD PUSH2 0x575B PUSH1 0x40 DUP5 ADD DUP3 PUSH1 0x1 PUSH1 0x1 PUSH1 0xA0 SHL SUB AND SWAP1 MSTORE JUMP JUMPDEST POP PUSH1 0x60 DUP4 ADD MLOAD PUSH2 0x576E PUSH1 0x60 DUP5 ADD DUP3 PUSH2 0x55B6 JUMP JUMPDEST POP PUSH1 0x80 DUP4 ADD MLOAD PUSH2 0x100 PUSH2 0x5796 DUP2 DUP6 ADD DUP4 DUP1 MLOAD PUSH1 0x1 PUSH1 0x1 PUSH1 0xA0 SHL SUB AND DUP3 MSTORE PUSH1 0x20 SWAP1 DUP2 ADD MLOAD SWAP2 ADD MSTORE JUMP JUMPDEST PUSH1 0xA0 DUP6 ADD MLOAD SWAP2 POP PUSH2 0x140 PUSH2 0x57AC DUP2 DUP7 ADD DUP5 PUSH2 0x55B6 JUMP JUMPDEST PUSH1 0xC0 DUP7 ADD MLOAD PUSH2 0x1E0 DUP7 ADD MSTORE PUSH1 0xE0 DUP7 ADD MLOAD PUSH2 0x200 DUP7 ADD MSTORE SWAP1 DUP6 ADD MLOAD PUSH2 0x220 DUP6 ADD MSTORE PUSH2 0x120 DUP6 ADD MLOAD PUSH2 0x240 DUP6 ADD MSTORE DUP5 ADD MLOAD SWAP1 POP PUSH2 0x57EB PUSH2 0x260 DUP5 ADD DUP3 PUSH2 0x55EC JUMP JUMPDEST POP PUSH2 0x160 DUP4 ADD MLOAD PUSH1 0x1 PUSH1 0x1 PUSH1 0xA0 SHL SUB AND PUSH2 0x360 DUP4 ADD MSTORE PUSH2 0x180 SWAP1 SWAP3 ADD MLOAD PUSH2 0x380 SWAP1 SWAP2 ADD MSTORE SWAP1 JUMP JUMPDEST PUSH1 0x40 MLOAD PUSH2 0x120 DUP2 ADD PUSH8 0xFFFFFFFFFFFFFFFF DUP2 GT DUP3 DUP3 LT OR ISZERO PUSH2 0x5844 JUMPI PUSH4 0x4E487B71 PUSH1 0xE0 SHL PUSH1 0x0 MSTORE PUSH1 0x41 PUSH1 0x4 MSTORE PUSH1 0x24 PUSH1 0x0 REVERT JUMPDEST PUSH1 0x40 MSTORE SWAP1 JUMP JUMPDEST PUSH1 0x40 MLOAD PUSH2 0x1A0 DUP2 ADD PUSH8 0xFFFFFFFFFFFFFFFF DUP2 GT DUP3 DUP3 LT OR ISZERO PUSH2 0x5844 JUMPI PUSH4 0x4E487B71 PUSH1 0xE0 SHL PUSH1 0x0 MSTORE PUSH1 0x41 PUSH1 0x4 MSTORE PUSH1 0x24 PUSH1 0x0 REVERT JUMPDEST PUSH1 0x0 DUP3 NOT DUP3 GT ISZERO PUSH2 0x588F JUMPI PUSH2 0x588F PUSH2 0x58EC JUMP JUMPDEST POP ADD SWAP1 JUMP JUMPDEST PUSH1 0x0 DUP3 PUSH2 0x58B1 JUMPI PUSH4 0x4E487B71 PUSH1 0xE0 SHL PUSH1 0x0 MSTORE PUSH1 0x12 PUSH1 0x4 MSTORE PUSH1 0x24 PUSH1 0x0 REVERT JUMPDEST POP DIV SWAP1 JUMP JUMPDEST PUSH1 0x0 DUP2 PUSH1 0x0 NOT DIV DUP4 GT DUP3 ISZERO ISZERO AND ISZERO PUSH2 0x58D0 JUMPI PUSH2 0x58D0 PUSH2 0x58EC JUMP JUMPDEST POP MUL SWAP1 JUMP JUMPDEST PUSH1 0x0 DUP3 DUP3 LT ISZERO PUSH2 0x58E7 JUMPI PUSH2 0x58E7 PUSH2 0x58EC JUMP JUMPDEST POP SUB SWAP1 JUMP JUMPDEST PUSH4 0x4E487B71 PUSH1 0xE0 SHL PUSH1 0x0 MSTORE PUSH1 0x11 PUSH1 0x4 MSTORE PUSH1 0x24 PUSH1 0x0 REVERT JUMPDEST PUSH4 0x4E487B71 PUSH1 0xE0 SHL PUSH1 0x0 MSTORE PUSH1 0x32 PUSH1 0x4 MSTORE PUSH1 0x24 PUSH1 0x0 REVERT JUMPDEST PUSH1 0x1 PUSH1 0x1 PUSH1 0xA0 SHL SUB DUP2 AND DUP2 EQ PUSH2 0x592D JUMPI PUSH1 0x0 DUP1 REVERT JUMPDEST POP JUMP JUMPDEST DUP1 ISZERO ISZERO DUP2 EQ PUSH2 0x592D JUMPI PUSH1 0x0 DUP1 REVERT INVALID LOG2 PUSH5 0x6970667358 0x22 SLT KECCAK256 0x26 OR SWAP10 DUP4 DIV 0x4C MULMOD SWAP2 CALL 0xE9 0xD4 0xEF MUL 0xC0 0x5F DUP5 0xC 0xC7 0xBA DIV 0x2B 0xCA DELEGATECALL 0xD9 SWAP3 0xE0 CHAINID 0x21 PUSH13 0x59FB6D64736F6C634300080700 CALLER "},"gasEstimates":{"creation":{"codeDepositCost":"4580000","executionCost":"5348","totalCost":"4585348"},"external":{"canLiquidate(bytes32)":"infinite","canLiquidationMark(bytes32)":"infinite","closeManuallyStep1(bytes32)":"infinite","closeManuallyStep2(bytes32)":"infinite","factory()":"2382","getMinCollateralAmount((address,address,address,address,uint256,uint256,uint256,uint256,uint256))":"infinite","getQuoteAmountRange((address,address,address,address,uint256,uint256,uint256,uint256,uint256))":"infinite","liquidationMark(bytes32)":"infinite","openTradePosition((bytes32,address,address,(address,uint256,uint256,uint256,uint256),(address,uint256),(address,uint256,uint256,uint256,uint256),uint256,uint256,uint256,uint256,(bool,bool,bool,bool,bool,bool,bool,bool),address,uint256))":"infinite","openingPositionKey(uint256)":"4633","openingPositionKeys(uint256)":"4632","openingPositionLength()":"2348","position(uint256)":"infinite","positionByKey(bytes32)":"infinite","positionIndex(bytes32)":"2493","positionKeyByUser(address,uint256)":"4797","positionLength()":"2349","positions(uint256)":"infinite","previewTradePosition((address,address,address,address,uint256,uint256,uint256,uint256,uint256))":"infinite","previewUpdateCollateralAmount((bytes32,uint256,address))":"infinite","previewUpdateDeadline((bytes32,uint256,address))":"infinite","rollback(bytes32,address)":"infinite","setFactory(address)":"26748","updateCloseValues(bytes32,uint256,uint256,uint256)":"infinite","updateCollateralAmount((bytes32,uint256,address))":"infinite","updateDeadline((bytes32,uint256,address))":"infinite","updateStatus(bytes32,address)":"infinite","updateStoplossPrice((bytes32,uint256,address))":"infinite","userPositionLength(address)":"2609"},"internal":{"_canLiquidate(bytes32)":"infinite","_initTradePosition(struct IPositionStorage.OpenTradePositionParams memory,uint256)":"infinite","_previewTradePosition(struct IPositionStorage.OpenTradePositionParams memory)":"infinite"}},"methodIdentifiers":{"canLiquidate(bytes32)":"61ba1508","canLiquidationMark(bytes32)":"e5944f01","closeManuallyStep1(bytes32)":"b008c058","closeManuallyStep2(bytes32)":"f71139f7","factory()":"c45a0155","getMinCollateralAmount((address,address,address,address,uint256,uint256,uint256,uint256,uint256))":"0771e3a3","getQuoteAmountRange((address,address,address,address,uint256,uint256,uint256,uint256,uint256))":"558ea854","liquidationMark(bytes32)":"49a4d1d1","openTradePosition((bytes32,address,address,(address,uint256,uint256,uint256,uint256),(address,uint256),(address,uint256,uint256,uint256,uint256),uint256,uint256,uint256,uint256,(bool,bool,bool,bool,bool,bool,bool,bool),address,uint256))":"64b88ac5","openingPositionKey(uint256)":"da23479f","openingPositionKeys(uint256)":"302d6092","openingPositionLength()":"a827acf5","position(uint256)":"f7a95a9e","positionByKey(bytes32)":"a0d5d126","positionIndex(bytes32)":"f7a5f254","positionKeyByUser(address,uint256)":"2fb817fc","positionLength()":"539826a6","positions(uint256)":"99fbab88","previewTradePosition((address,address,address,address,uint256,uint256,uint256,uint256,uint256))":"1a37982d","previewUpdateCollateralAmount((bytes32,uint256,address))":"37f36864","previewUpdateDeadline((bytes32,uint256,address))":"4f26f457","rollback(bytes32,address)":"9a102341","setFactory(address)":"5bb47808","updateCloseValues(bytes32,uint256,uint256,uint256)":"8b029d61","updateCollateralAmount((bytes32,uint256,address))":"7c08ddc9","updateDeadline((bytes32,uint256,address))":"fc9ffe10","updateStatus(bytes32,address)":"ac00b674","updateStoplossPrice((bytes32,uint256,address))":"1636e199","userPositionLength(address)":"dbd99a13"}},"storageLayout":{"storage":[{"astId":11,"contract":"contracts/PositionStorage.sol:PositionStorage","label":"factory","offset":0,"slot":"0","type":"t_address"},{"astId":15,"contract":"contracts/PositionStorage.sol:PositionStorage","label":"positions","offset":0,"slot":"1","type":"t_array(t_struct(TradePosition)3043_storage)dyn_storage"},{"astId":18,"contract":"contracts/PositionStorage.sol:PositionStorage","label":"openingPositionKeys","offset":0,"slot":"2","type":"t_array(t_bytes32)dyn_storage"},{"astId":23,"contract":"contracts/PositionStorage.sol:PositionStorage","label":"positionIndex","offset":0,"slot":"3","type":"t_mapping(t_bytes32,t_uint256)"},{"astId":28,"contract":"contracts/PositionStorage.sol:PositionStorage","label":"positionKeysByUser","offset":0,"slot":"4","type":"t_mapping(t_address,t_array(t_bytes32)dyn_storage)"}],"types":{"t_address":{"encoding":"inplace","label":"address","numberOfBytes":"20"},"t_array(t_bytes32)dyn_storage":{"base":"t_bytes32","encoding":"dynamic_array","label":"bytes32[]","numberOfBytes":"32"},"t_array(t_struct(TradePosition)3043_storage)dyn_storage":{"base":"t_struct(TradePosition)3043_storage","encoding":"dynamic_array","label":"struct IPositionStorage.TradePosition[]","numberOfBytes":"32"},"t_bool":{"encoding":"inplace","label":"bool","numberOfBytes":"1"},"t_bytes32":{"encoding":"inplace","label":"bytes32","numberOfBytes":"32"},"t_mapping(t_address,t_array(t_bytes32)dyn_storage)":{"encoding":"mapping","key":"t_address","label":"mapping(address => bytes32[])","numberOfBytes":"32","value":"t_array(t_bytes32)dyn_storage"},"t_mapping(t_bytes32,t_uint256)":{"encoding":"mapping","key":"t_bytes32","label":"mapping(bytes32 => uint256)","numberOfBytes":"32","value":"t_uint256"},"t_struct(BaseToken)2979_storage":{"encoding":"inplace","label":"struct IPositionStorage.BaseToken","members":[{"astId":2970,"contract":"contracts/PositionStorage.sol:PositionStorage","label":"id","offset":0,"slot":"0","type":"t_address"},{"astId":2972,"contract":"contracts/PositionStorage.sol:PositionStorage","label":"amount","offset":0,"slot":"1","type":"t_uint256"},{"astId":2974,"contract":"contracts/PositionStorage.sol:PositionStorage","label":"entryPrice","offset":0,"slot":"2","type":"t_uint256"},{"astId":2976,"contract":"contracts/PositionStorage.sol:PositionStorage","label":"liqPrice","offset":0,"slot":"3","type":"t_uint256"},{"astId":2978,"contract":"contracts/PositionStorage.sol:PositionStorage","label":"closePrice","offset":0,"slot":"4","type":"t_uint256"}],"numberOfBytes":"160"},"t_struct(Collateral)2995_storage":{"encoding":"inplace","label":"struct IPositionStorage.Collateral","members":[{"astId":2986,"contract":"contracts/PositionStorage.sol:PositionStorage","label":"id","offset":0,"slot":"0","type":"t_address"},{"astId":2988,"contract":"contracts/PositionStorage.sol:PositionStorage","label":"amount","offset":0,"slot":"1","type":"t_uint256"},{"astId":2990,"contract":"contracts/PositionStorage.sol:PositionStorage","label":"entryPrice","offset":0,"slot":"2","type":"t_uint256"},{"astId":2992,"contract":"contracts/PositionStorage.sol:PositionStorage","label":"liqPrice","offset":0,"slot":"3","type":"t_uint256"},{"astId":2994,"contract":"contracts/PositionStorage.sol:PositionStorage","label":"closePrice","offset":0,"slot":"4","type":"t_uint256"}],"numberOfBytes":"160"},"t_struct(QuoteToken)2984_storage":{"encoding":"inplace","label":"struct IPositionStorage.QuoteToken","members":[{"astId":2981,"contract":"contracts/PositionStorage.sol:PositionStorage","label":"id","offset":0,"slot":"0","type":"t_address"},{"astId":2983,"contract":"contracts/PositionStorage.sol:PositionStorage","label":"amount","offset":0,"slot":"1","type":"t_uint256"}],"numberOfBytes":"64"},"t_struct(Status)3012_storage":{"encoding":"inplace","label":"struct IPositionStorage.Status","members":[{"astId":2997,"contract":"contracts/PositionStorage.sol:PositionStorage","label":"isClosed","offset":0,"slot":"0","type":"t_bool"},{"astId":2999,"contract":"contracts/PositionStorage.sol:PositionStorage","label":"isExpired","offset":1,"slot":"0","type":"t_bool"},{"astId":3001,"contract":"contracts/PositionStorage.sol:PositionStorage","label":"isStoploss","offset":2,"slot":"0","type":"t_bool"},{"astId":3003,"contract":"contracts/PositionStorage.sol:PositionStorage","label":"isBaseLiquidated","offset":3,"slot":"0","type":"t_bool"},{"astId":3005,"contract":"contracts/PositionStorage.sol:PositionStorage","label":"isCollateralLiquidated","offset":4,"slot":"0","type":"t_bool"},{"astId":3007,"contract":"contracts/PositionStorage.sol:PositionStorage","label":"isRollbacked","offset":5,"slot":"0","type":"t_bool"},{"astId":3009,"contract":"contracts/PositionStorage.sol:PositionStorage","label":"isClosedManuallyStep1","offset":6,"slot":"0","type":"t_bool"},{"astId":3011,"contract":"contracts/PositionStorage.sol:PositionStorage","label":"isClosedManuallyStep2","offset":7,"slot":"0","type":"t_bool"}],"numberOfBytes":"32"},"t_struct(TradePosition)3043_storage":{"encoding":"inplace","label":"struct IPositionStorage.TradePosition","members":[{"astId":3014,"contract":"contracts/PositionStorage.sol:PositionStorage","label":"positionKey","offset":0,"slot":"0","type":"t_bytes32"},{"astId":3016,"contract":"contracts/PositionStorage.sol:PositionStorage","label":"owner","offset":0,"slot":"1","type":"t_address"},{"astId":3018,"contract":"contracts/PositionStorage.sol:PositionStorage","label":"pool","offset":0,"slot":"2","type":"t_address"},{"astId":3021,"contract":"contracts/PositionStorage.sol:PositionStorage","label":"baseToken","offset":0,"slot":"3","type":"t_struct(BaseToken)2979_storage"},{"astId":3024,"contract":"contracts/PositionStorage.sol:PositionStorage","label":"quoteToken","offset":0,"slot":"8","type":"t_struct(QuoteToken)2984_storage"},{"astId":3027,"contract":"contracts/PositionStorage.sol:PositionStorage","label":"collateral","offset":0,"slot":"10","type":"t_struct(Collateral)2995_storage"},{"astId":3029,"contract":"contracts/PositionStorage.sol:PositionStorage","label":"deadline","offset":0,"slot":"15","type":"t_uint256"},{"astId":3031,"contract":"contracts/PositionStorage.sol:PositionStorage","label":"stoplossPrice","offset":0,"slot":"16","type":"t_uint256"},{"astId":3033,"contract":"contracts/PositionStorage.sol:PositionStorage","label":"fee","offset":0,"slot":"17","type":"t_uint256"},{"astId":3035,"contract":"contracts/PositionStorage.sol:PositionStorage","label":"protocolFee","offset":0,"slot":"18","type":"t_uint256"},{"astId":3038,"contract":"contracts/PositionStorage.sol:PositionStorage","label":"status","offset":0,"slot":"19","type":"t_struct(Status)3012_storage"},{"astId":3040,"contract":"contracts/PositionStorage.sol:PositionStorage","label":"closer","offset":0,"slot":"20","type":"t_address"},{"astId":3042,"contract":"contracts/PositionStorage.sol:PositionStorage","label":"liquidationMarkTime","offset":0,"slot":"21","type":"t_uint256"}],"numberOfBytes":"704"},"t_uint256":{"encoding":"inplace","label":"uint256","numberOfBytes":"32"}}},"userdoc":{"kind":"user","methods":{},"version":1}}}}