{"contracts/Pool.sol":{"Pool":{"abi":[{"inputs":[{"internalType":"uint256","name":"length0","type":"uint256"},{"internalType":"uint256","name":"length1","type":"uint256"}],"name":"BadLengths","type":"error"},{"inputs":[{"internalType":"address","name":"to","type":"address"},{"internalType":"uint256","name":"value","type":"uint256"}],"name":"EthTransferFailed","type":"error"},{"inputs":[{"internalType":"address","name":"sender","type":"address"}],"name":"Forbidden","type":"error"},{"inputs":[],"name":"InitializedAlready","type":"error"},{"inputs":[],"name":"InsufficientInputAmount","type":"error"},{"inputs":[],"name":"InsufficientOutputAmount","type":"error"},{"inputs":[],"name":"Locked","type":"error"},{"inputs":[{"internalType":"address","name":"token","type":"address"},{"internalType":"address","name":"to","type":"address"},{"internalType":"uint256","name":"value","type":"uint256"}],"name":"TransferFailed","type":"error"},{"inputs":[],"name":"ZeroValue","type":"error"},{"anonymous":false,"inputs":[{"indexed":true,"internalType":"address","name":"sender","type":"address"},{"indexed":true,"internalType":"address","name":"to","type":"address"},{"indexed":false,"internalType":"uint256","name":"amount","type":"uint256"}],"name":"Collect","type":"event"},{"anonymous":false,"inputs":[{"indexed":true,"internalType":"address","name":"sender","type":"address"},{"indexed":true,"internalType":"address","name":"to","type":"address"},{"indexed":false,"internalType":"uint256","name":"liquidity","type":"uint256"}],"name":"Mint","type":"event"},{"anonymous":false,"inputs":[{"indexed":false,"internalType":"address","name":"baseToken","type":"address"},{"indexed":false,"internalType":"bool","name":"tradeable","type":"bool"}],"name":"SetBaseToken","type":"event"},{"anonymous":false,"inputs":[{"indexed":false,"internalType":"uint256","name":"newInterest","type":"uint256"}],"name":"SetInterest","type":"event"},{"anonymous":false,"inputs":[{"indexed":false,"internalType":"address","name":"baseToken","type":"address"},{"indexed":false,"internalType":"uint256","name":"newReserve","type":"uint256"}],"name":"UpdateBaseReserve","type":"event"},{"anonymous":false,"inputs":[{"indexed":false,"internalType":"address","name":"collateral","type":"address"},{"indexed":false,"internalType":"uint256","name":"newReserve","type":"uint256"}],"name":"UpdateCollateralReserve","type":"event"},{"anonymous":false,"inputs":[{"indexed":false,"internalType":"uint256","name":"newFee","type":"uint256"}],"name":"UpdateFee","type":"event"},{"anonymous":false,"inputs":[{"indexed":false,"internalType":"uint256","name":"newProtocolFee","type":"uint256"}],"name":"UpdateProtocolFee","type":"event"},{"anonymous":false,"inputs":[{"indexed":false,"internalType":"uint256","name":"newQuoteInDebt","type":"uint256"}],"name":"UpdateQuoteInDebt","type":"event"},{"anonymous":false,"inputs":[{"indexed":false,"internalType":"uint256","name":"newQuoteReserve","type":"uint256"}],"name":"UpdateQuoteReserve","type":"event"},{"inputs":[],"name":"WETH","outputs":[{"internalType":"address","name":"","type":"address"}],"stateMutability":"view","type":"function"},{"inputs":[],"name":"accFee","outputs":[{"internalType":"uint256","name":"","type":"uint256"}],"stateMutability":"view","type":"function"},{"inputs":[],"name":"accFeePerShare","outputs":[{"internalType":"uint256","name":"","type":"uint256"}],"stateMutability":"view","type":"function"},{"inputs":[],"name":"accProtocolFee","outputs":[{"internalType":"uint256","name":"","type":"uint256"}],"stateMutability":"view","type":"function"},{"inputs":[],"name":"availableLiquidity","outputs":[{"internalType":"uint256","name":"","type":"uint256"}],"stateMutability":"view","type":"function"},{"inputs":[{"internalType":"address","name":"","type":"address"}],"name":"baseReserve","outputs":[{"internalType":"uint256","name":"","type":"uint256"}],"stateMutability":"view","type":"function"},{"inputs":[{"internalType":"address","name":"_to","type":"address"},{"internalType":"uint256","name":"_liquidity","type":"uint256"}],"name":"burn","outputs":[],"stateMutability":"nonpayable","type":"function"},{"inputs":[{"internalType":"address","name":"_owner","type":"address"}],"name":"claimableFee","outputs":[{"internalType":"uint256","name":"amount","type":"uint256"}],"stateMutability":"view","type":"function"},{"inputs":[{"components":[{"internalType":"bytes32","name":"positionKey","type":"bytes32"},{"internalType":"bytes","name":"data0","type":"bytes"},{"internalType":"bytes","name":"data1","type":"bytes"}],"internalType":"struct IPositionStorage.CloseTradePositionParams","name":"_params","type":"tuple"}],"name":"close","outputs":[],"stateMutability":"nonpayable","type":"function"},{"inputs":[{"internalType":"address","name":"","type":"address"}],"name":"collateralReserve","outputs":[{"internalType":"uint256","name":"","type":"uint256"}],"stateMutability":"view","type":"function"},{"inputs":[{"internalType":"address","name":"_to","type":"address"},{"internalType":"uint256","name":"_amount","type":"uint256"},{"internalType":"bool","name":"_unwrapWeth","type":"bool"}],"name":"collect","outputs":[],"stateMutability":"nonpayable","type":"function"},{"inputs":[],"name":"factory","outputs":[{"internalType":"address","name":"","type":"address"}],"stateMutability":"view","type":"function"},{"inputs":[{"internalType":"address","name":"_factory","type":"address"},{"internalType":"address","name":"_quoteToken","type":"address"},{"internalType":"uint256","name":"_interest","type":"uint256"}],"name":"initialize","outputs":[],"stateMutability":"nonpayable","type":"function"},{"inputs":[],"name":"interest","outputs":[{"internalType":"uint256","name":"","type":"uint256"}],"stateMutability":"view","type":"function"},{"inputs":[],"name":"latestFeeTime","outputs":[{"internalType":"uint256","name":"","type":"uint256"}],"stateMutability":"view","type":"function"},{"inputs":[{"internalType":"address","name":"","type":"address"}],"name":"liquidityPosition","outputs":[{"internalType":"uint256","name":"liquidity","type":"uint256"},{"internalType":"uint256","name":"feeDebt","type":"uint256"},{"internalType":"uint256","name":"pendingFee","type":"uint256"},{"internalType":"uint256","name":"latestTime","type":"uint256"}],"stateMutability":"view","type":"function"},{"inputs":[{"internalType":"address","name":"_to","type":"address"},{"internalType":"uint256","name":"_liquidity","type":"uint256"},{"internalType":"bytes","name":"_data","type":"bytes"}],"name":"mint","outputs":[],"stateMutability":"nonpayable","type":"function"},{"inputs":[{"components":[{"internalType":"address","name":"baseToken","type":"address"},{"internalType":"address","name":"quoteToken","type":"address"},{"internalType":"address","name":"collateral","type":"address"},{"internalType":"uint256","name":"baseAmount","type":"uint256"},{"internalType":"uint256","name":"quoteAmount","type":"uint256"},{"internalType":"uint256","name":"collateralAmount","type":"uint256"},{"internalType":"uint256","name":"deadline","type":"uint256"},{"internalType":"uint256","name":"stoplossPrice","type":"uint256"}],"internalType":"struct IPositionStorage.OpenTradePositionParams","name":"_params","type":"tuple"}],"name":"open","outputs":[{"internalType":"bytes32","name":"positionKey","type":"bytes32"}],"stateMutability":"nonpayable","type":"function"},{"inputs":[],"name":"precision","outputs":[{"internalType":"uint256","name":"","type":"uint256"}],"stateMutability":"view","type":"function"},{"inputs":[],"name":"quoteInDebt","outputs":[{"internalType":"uint256","name":"","type":"uint256"}],"stateMutability":"view","type":"function"},{"inputs":[],"name":"quoteReserve","outputs":[{"internalType":"uint256","name":"","type":"uint256"}],"stateMutability":"view","type":"function"},{"inputs":[],"name":"quoteToken","outputs":[{"internalType":"address","name":"","type":"address"}],"stateMutability":"view","type":"function"},{"inputs":[{"internalType":"bytes32","name":"_positionKey","type":"bytes32"}],"name":"rollback","outputs":[],"stateMutability":"nonpayable","type":"function"},{"inputs":[{"internalType":"address[]","name":"_baseTokens","type":"address[]"},{"internalType":"bool[]","name":"_tradeables","type":"bool[]"}],"name":"setBaseTokens","outputs":[],"stateMutability":"nonpayable","type":"function"},{"inputs":[{"internalType":"uint256","name":"_interest","type":"uint256"}],"name":"setInterest","outputs":[],"stateMutability":"nonpayable","type":"function"},{"inputs":[{"internalType":"address","name":"","type":"address"}],"name":"tradeableBaseToken","outputs":[{"internalType":"bool","name":"","type":"bool"}],"stateMutability":"view","type":"function"},{"inputs":[{"internalType":"bytes32","name":"_positionKey","type":"bytes32"},{"internalType":"uint256","name":"_deadline","type":"uint256"}],"name":"updateDeadline","outputs":[],"stateMutability":"nonpayable","type":"function"},{"inputs":[{"internalType":"bytes32","name":"_positionKey","type":"bytes32"},{"internalType":"uint256","name":"_stoplossPrice","type":"uint256"}],"name":"updateStoplossPrice","outputs":[],"stateMutability":"nonpayable","type":"function"},{"stateMutability":"payable","type":"receive"}],"devdoc":{"kind":"dev","methods":{},"version":1},"evm":{"bytecode":{"linkReferences":{},"object":"6080604052600160005534801561001557600080fd5b50611aa0806100256000396000f3fe6080604052600436106101bb5760003560e01c80639dc29fac116100ec578063c45a01551161008a578063d3b5dc3b11610064578063d3b5dc3b146104c8578063d4fd6905146104de578063dd3b829a14610540578063ffc9dcbb1461055657600080fd5b8063c45a01551461046d578063ca9bc69d1461048d578063cfb13928146104ad57600080fd5b8063ad5c4648116100c6578063ad5c464814610421578063ada3112f14610441578063b6cf169114610274578063c392f7661461045757600080fd5b80639dc29fac146103d0578063a1c59afc146103eb578063aabb48601461040b57600080fd5b806332196a0111610159578063743753591161013357806374375359146103585780638b6e00fa1461036d57806394d008ef1461039a5780639da771f4146103ba57600080fd5b806332196a01146103025780633f8e293614610322578063685b61d01461034257600080fd5b80631b033c1d116101955780631b033c1d146102745780631d08672014610294578063217a4b70146102b457806327014e33146102ec57600080fd5b80630adcf0f5146101e15780631493047e146102265780631794bb3c1461025457600080fd5b366101dc576002546001600160a01b031633146101da576101da6119ef565b005b600080fd5b3480156101ed57600080fd5b506102116101fc36600461136b565b600c6020526000908152604090205460ff1681565b60405190151581526020015b60405180910390f35b34801561023257600080fd5b506102466102413660046116b6565b610583565b60405190815260200161021d565b34801561026057600080fd5b506101da61026f3660046113ac565b6105b1565b34801561028057600080fd5b506101da61028f3660046115e3565b610716565b3480156102a057600080fd5b506101da6102af3660046115ca565b610742565b3480156102c057600080fd5b506003546102d4906001600160a01b031681565b6040516001600160a01b03909116815260200161021d565b3480156102f857600080fd5b5061024660095481565b34801561030e57600080fd5b506101da61031d3660046114e4565b6107b0565b34801561032e57600080fd5b506101da61033d366004611419565b61091f565b34801561034e57600080fd5b5061024660075481565b34801561036457600080fd5b50610246610a9b565b34801561037957600080fd5b5061024661038836600461136b565b600e6020526000908152604090205481565b3480156103a657600080fd5b506101da6103b536600461145b565b610b64565b3480156103c657600080fd5b5061024660065481565b3480156103dc57600080fd5b506101da61028f3660046113ed565b3480156103f757600080fd5b5061024661040636600461136b565b610e26565b34801561041757600080fd5b50610246600b5481565b34801561042d57600080fd5b506002546102d4906001600160a01b031681565b34801561044d57600080fd5b5061024660085481565b34801561046357600080fd5b5061024660055481565b34801561047957600080fd5b506001546102d4906001600160a01b031681565b34801561049957600080fd5b506101da6104a8366004611605565b610ec0565b3480156104b957600080fd5b506101da6104a83660046115ca565b3480156104d457600080fd5b5061024660045481565b3480156104ea57600080fd5b506105206104f936600461136b565b600f6020526000908152604090208054600182015460028301546003909301549192909184565b60408051948552602085019390935291830152606082015260800161021d565b34801561054c57600080fd5b50610246600a5481565b34801561056257600080fd5b5061024661057136600461136b565b600d6020526000908152604090205481565b600080546001146105a7576040516303cb96db60e21b815260040160405180910390fd5b6001600055919050565b6001546001600160a01b0316156105db576040516373e833b960e11b815260040160405180910390fd5b600180546001600160a01b0319166001600160a01b038516179055604080516315ab88c960e31b81529051339163ad5c4648916004808301926020929190829003018186803b15801561062d57600080fd5b505afa158015610641573d6000803e3d6000fd5b505050506040513d601f19601f82011682018060405250810190610665919061138f565b600280546001600160a01b039283166001600160a01b0319918216179091556003805492851692909116821790556040805163313ce56760e01b8152905163313ce56791600480820192602092909190829003018186803b1580156106c957600080fd5b505afa1580156106dd573d6000803e3d6000fd5b505050506040513d601f19601f820116820180604052508101906107019190611779565b61070c90600a6118f1565b6004556005555050565b600054600114610739576040516303cb96db60e21b815260040160405180910390fd5b50506001600055565b6001546001600160a01b031633146107745760405163a59d7f4d60e01b81523360048201526024015b60405180910390fd5b60058190556040518181527f81ed86e8cfa3004fc54732477c3eda4f4c606394a0b423aba78153a3e696f65d906020015b60405180910390a150565b6001546001600160a01b031633146107dd5760405163a59d7f4d60e01b815233600482015260240161076b565b805182511461080c578151815160405163574092f960e01b81526004810192909252602482015260440161076b565b60005b825181101561091a5781818151811061082a5761082a611a1b565b6020026020010151600c600085848151811061084857610848611a1b565b60200260200101516001600160a01b03166001600160a01b0316815260200190815260200160002060006101000a81548160ff0219169083151502179055507f07f3eda3f714379eddf0620b56429f8b62650079725dbe416faffbab8c6204e18382815181106108ba576108ba611a1b565b60200260200101518383815181106108d4576108d4611a1b565b60200260200101516040516109009291906001600160a01b039290921682521515602082015260400190565b60405180910390a180610912816119d4565b91505061080f565b505050565b600054600114610942576040516303cb96db60e21b815260040160405180910390fd5b600080558161096457604051637c946ed760e01b815260040160405180910390fd5b6001600160a01b0383166000908152600f60205260409020600a546004548254156109c95760018301548354829061099c908561199e565b6109a6919061188c565b6109b091906119bd565b8360020160008282546109c39190611874565b90915550505b825481906109d7908461199e565b6109e1919061188c565b600184015542600384015560028301548511806109ff575060085485115b15610a1d576040516342301c2360e01b815260040160405180910390fd5b84836002016000828254610a3191906119bd565b9091555050600354610a4e906001600160a01b0316878787610eeb565b6040518581526001600160a01b0387169033907f1314fd112a381beea61539dbd21ec04afcff2662ac7d1b83273aade1f53d1b979060200160405180910390a35050600160005550505050565b6003546040516370a0823160e01b81523060048201526000916001600160a01b031690829082906370a082319060240160206040518083038186803b158015610ae357600080fd5b505afa158015610af7573d6000803e3d6000fd5b505050506040513d601f19601f82011682018060405250810190610b1b9190611760565b6009546008546001600160a01b0385166000908152600e60205260409020549293509091610b4990846119bd565b610b5391906119bd565b610b5d91906119bd565b9250505090565b600054600114610b87576040516303cb96db60e21b815260040160405180910390fd5b60008080556003546001600160a01b038681168352600f6020526040909220600a54600454825494909316939192909115610bfc57600183015483548290610bcf908561199e565b610bd9919061188c565b610be391906119bd565b836002016000828254610bf69190611874565b90915550505b86836000016000828254610c109190611874565b909155505082548190610c23908461199e565b610c2d919061188c565b6001840155426003840155600654610c4f90610c4a908990611874565b611147565b610c5761117c565b6040516370a0823160e01b81523060048201526000906001600160a01b038616906370a082319060240160206040518083038186803b158015610c9957600080fd5b505afa158015610cad573d6000803e3d6000fd5b505050506040513d601f19601f82011682018060405250810190610cd19190611760565b6040516303a3bcd760e01b815290915033906303a3bcd790610cfd9088908c908c908c906004016117d7565b600060405180830381600087803b158015610d1757600080fd5b505af1158015610d2b573d6000803e3d6000fd5b50506040516370a0823160e01b8152306004820152600092506001600160a01b03881691506370a082319060240160206040518083038186803b158015610d7157600080fd5b505afa158015610d85573d6000803e3d6000fd5b505050506040513d601f19601f82011682018060405250810190610da99190611760565b9050610db58983611874565b811015610dd55760405163098fb56160e01b815260040160405180910390fd5b6040518981526001600160a01b038b169033907fab8530f87dc9b59234c4623bf917212bb2536d647574c8e7e5da92c2ede0c9f89060200160405180910390a3505060016000555050505050505050565b6001600160a01b0381166000908152600f602090815260408083208151608081018352815480825260018301549482018590526002830154938201939093526003909101546060820152600454600a549193929091610e85919061199e565b610e8f919061188c565b8260400151610e9e9190611874565b610ea891906119bd565b9150600854821115610eba5760085491505b50919050565b600054600114610ee3576040516303cb96db60e21b815260040160405180910390fd5b506001600055565b6002546001600160a01b0390811690851681148015610f075750815b1561100b57604051632e1a7d4d60e01b8152600481018490526001600160a01b03821690632e1a7d4d90602401600060405180830381600087803b158015610f4e57600080fd5b505af1158015610f62573d6000803e3d6000fd5b5050604080516000808252602082019283905293506001600160a01b03881692508691610f8f919061179c565b60006040518083038185875af1925050503d8060008114610fcc576040519150601f19603f3d011682016040523d82523d6000602084013e610fd1565b606091505b505090508061100557604051636f54afdd60e11b81526001600160a01b03861660048201526024810185905260440161076b565b50611140565b604080518082018252601981527f7472616e7366657228616464726573732c75696e74323536290000000000000060209182015281516001600160a01b0387811660248301526044808301889052845180840390910181526064909201845291810180516001600160e01b031663a9059cbb60e01b17905291516000928392891691611097919061179c565b6000604051808303816000865af19150503d80600081146110d4576040519150601f19603f3d011682016040523d82523d6000602084013e6110d9565b606091505b509150915081158061110557508051158061110357508080602001905181019061110391906115ad565b155b1561113d576040516317e3057d60e31b81526001600160a01b038089166004830152871660248201526044810186905260640161076b565b50505b5050505050565b60068190556040518181527f044141ecee2fb3c75d1699b968fa546a18dfa4ee1d705699d81751270b385951906020016107a5565b6009548015611238576001546040805163779b492960e11b815290516000926001600160a01b03169163ef369252916004808301926020929190829003018186803b1580156111ca57600080fd5b505afa1580156111de573d6000803e3d6000fd5b505050506040513d601f19601f82011682018060405250810190611202919061138f565b90506001600160a01b038116156112365761121d600061123b565b600354611236906001600160a01b031682846000610eeb565b505b50565b60098190556040518181527f02f1bb46a1dd6774772e223bfa9c733cea598e6b1ac69187d1c614a04cfd1c36906020016107a5565b803561127b81611a47565b919050565b600082601f83011261129157600080fd5b813560206112a66112a183611850565b61181f565b80838252828201915082860187848660051b89010111156112c657600080fd5b60005b858110156112ee5781356112dc81611a5c565b845292840192908401906001016112c9565b5090979650505050505050565b600082601f83011261130c57600080fd5b813567ffffffffffffffff81111561132657611326611a31565b611339601f8201601f191660200161181f565b81815284602083860101111561134e57600080fd5b816020850160208301376000918101602001919091529392505050565b60006020828403121561137d57600080fd5b813561138881611a47565b9392505050565b6000602082840312156113a157600080fd5b815161138881611a47565b6000806000606084860312156113c157600080fd5b83356113cc81611a47565b925060208401356113dc81611a47565b929592945050506040919091013590565b6000806040838503121561140057600080fd5b823561140b81611a47565b946020939093013593505050565b60008060006060848603121561142e57600080fd5b833561143981611a47565b925060208401359150604084013561145081611a5c565b809150509250925092565b6000806000806060858703121561147157600080fd5b843561147c81611a47565b935060208501359250604085013567ffffffffffffffff808211156114a057600080fd5b818701915087601f8301126114b457600080fd5b8135818111156114c357600080fd5b8860208285010111156114d557600080fd5b95989497505060200194505050565b600080604083850312156114f757600080fd5b823567ffffffffffffffff8082111561150f57600080fd5b818501915085601f83011261152357600080fd5b813560206115336112a183611850565b8083825282820191508286018a848660051b890101111561155357600080fd5b600096505b8487101561157f57803561156b81611a47565b835260019690960195918301918301611558565b509650508601359250508082111561159657600080fd5b506115a385828601611280565b9150509250929050565b6000602082840312156115bf57600080fd5b815161138881611a5c565b6000602082840312156115dc57600080fd5b5035919050565b600080604083850312156115f657600080fd5b50508035926020909101359150565b60006020828403121561161757600080fd5b813567ffffffffffffffff8082111561162f57600080fd5b908301906060828603121561164357600080fd5b60405160608101818110838211171561165e5761165e611a31565b6040528235815260208301358281111561167757600080fd5b611683878286016112fb565b60208301525060408301358281111561169b57600080fd5b6116a7878286016112fb565b60408301525095945050505050565b60006101008083850312156116ca57600080fd5b6040519081019067ffffffffffffffff821181831017156116ed576116ed611a31565b81604052833591506116fe82611a47565b81815261170d60208501611270565b602082015261171e60408501611270565b6040820152606084013560608201526080840135608082015260a084013560a082015260c084013560c082015260e084013560e0820152809250505092915050565b60006020828403121561177257600080fd5b5051919050565b60006020828403121561178b57600080fd5b815160ff8116811461138857600080fd5b6000825160005b818110156117bd57602081860181015185830152016117a3565b818111156117cc576000828501525b509190910192915050565b6001600160a01b0385168152602081018490526060604082018190528101829052818360808301376000818301608090810191909152601f909201601f191601019392505050565b604051601f8201601f1916810167ffffffffffffffff8111828210171561184857611848611a31565b604052919050565b600067ffffffffffffffff82111561186a5761186a611a31565b5060051b60200190565b6000821982111561188757611887611a05565b500190565b6000826118a957634e487b7160e01b600052601260045260246000fd5b500490565b600181815b808511156118e95781600019048211156118cf576118cf611a05565b808516156118dc57918102915b93841c93908002906118b3565b509250929050565b600061138860ff84168360008261190a57506001611998565b8161191757506000611998565b816001811461192d576002811461193757611953565b6001915050611998565b60ff84111561194857611948611a05565b50506001821b611998565b5060208310610133831016604e8410600b8410161715611976575081810a611998565b61198083836118ae565b806000190482111561199457611994611a05565b0290505b92915050565b60008160001904831182151516156119b8576119b8611a05565b500290565b6000828210156119cf576119cf611a05565b500390565b60006000198214156119e8576119e8611a05565b5060010190565b634e487b7160e01b600052600160045260246000fd5b634e487b7160e01b600052601160045260246000fd5b634e487b7160e01b600052603260045260246000fd5b634e487b7160e01b600052604160045260246000fd5b6001600160a01b038116811461123857600080fd5b801515811461123857600080fdfea2646970667358221220b2df830d9f28ec2a7ae6619565066b32a96896cda0ab4057b67ed39f0031a5cf64736f6c63430008070033","opcodes":"PUSH1 0x80 PUSH1 0x40 MSTORE PUSH1 0x1 PUSH1 0x0 SSTORE CALLVALUE DUP1 ISZERO PUSH2 0x15 JUMPI PUSH1 0x0 DUP1 REVERT JUMPDEST POP PUSH2 0x1AA0 DUP1 PUSH2 0x25 PUSH1 0x0 CODECOPY PUSH1 0x0 RETURN INVALID PUSH1 0x80 PUSH1 0x40 MSTORE PUSH1 0x4 CALLDATASIZE LT PUSH2 0x1BB JUMPI PUSH1 0x0 CALLDATALOAD PUSH1 0xE0 SHR DUP1 PUSH4 0x9DC29FAC GT PUSH2 0xEC JUMPI DUP1 PUSH4 0xC45A0155 GT PUSH2 0x8A JUMPI DUP1 PUSH4 0xD3B5DC3B GT PUSH2 0x64 JUMPI DUP1 PUSH4 0xD3B5DC3B EQ PUSH2 0x4C8 JUMPI DUP1 PUSH4 0xD4FD6905 EQ PUSH2 0x4DE JUMPI DUP1 PUSH4 0xDD3B829A EQ PUSH2 0x540 JUMPI DUP1 PUSH4 0xFFC9DCBB EQ PUSH2 0x556 JUMPI PUSH1 0x0 DUP1 REVERT JUMPDEST DUP1 PUSH4 0xC45A0155 EQ PUSH2 0x46D JUMPI DUP1 PUSH4 0xCA9BC69D EQ PUSH2 0x48D JUMPI DUP1 PUSH4 0xCFB13928 EQ PUSH2 0x4AD JUMPI PUSH1 0x0 DUP1 REVERT JUMPDEST DUP1 PUSH4 0xAD5C4648 GT PUSH2 0xC6 JUMPI DUP1 PUSH4 0xAD5C4648 EQ PUSH2 0x421 JUMPI DUP1 PUSH4 0xADA3112F EQ PUSH2 0x441 JUMPI DUP1 PUSH4 0xB6CF1691 EQ PUSH2 0x274 JUMPI DUP1 PUSH4 0xC392F766 EQ PUSH2 0x457 JUMPI PUSH1 0x0 DUP1 REVERT JUMPDEST DUP1 PUSH4 0x9DC29FAC EQ PUSH2 0x3D0 JUMPI DUP1 PUSH4 0xA1C59AFC EQ PUSH2 0x3EB JUMPI DUP1 PUSH4 0xAABB4860 EQ PUSH2 0x40B JUMPI PUSH1 0x0 DUP1 REVERT JUMPDEST DUP1 PUSH4 0x32196A01 GT PUSH2 0x159 JUMPI DUP1 PUSH4 0x74375359 GT PUSH2 0x133 JUMPI DUP1 PUSH4 0x74375359 EQ PUSH2 0x358 JUMPI DUP1 PUSH4 0x8B6E00FA EQ PUSH2 0x36D JUMPI DUP1 PUSH4 0x94D008EF EQ PUSH2 0x39A JUMPI DUP1 PUSH4 0x9DA771F4 EQ PUSH2 0x3BA JUMPI PUSH1 0x0 DUP1 REVERT JUMPDEST DUP1 PUSH4 0x32196A01 EQ PUSH2 0x302 JUMPI DUP1 PUSH4 0x3F8E2936 EQ PUSH2 0x322 JUMPI DUP1 PUSH4 0x685B61D0 EQ PUSH2 0x342 JUMPI PUSH1 0x0 DUP1 REVERT JUMPDEST DUP1 PUSH4 0x1B033C1D GT PUSH2 0x195 JUMPI DUP1 PUSH4 0x1B033C1D EQ PUSH2 0x274 JUMPI DUP1 PUSH4 0x1D086720 EQ PUSH2 0x294 JUMPI DUP1 PUSH4 0x217A4B70 EQ PUSH2 0x2B4 JUMPI DUP1 PUSH4 0x27014E33 EQ PUSH2 0x2EC JUMPI PUSH1 0x0 DUP1 REVERT JUMPDEST DUP1 PUSH4 0xADCF0F5 EQ PUSH2 0x1E1 JUMPI DUP1 PUSH4 0x1493047E EQ PUSH2 0x226 JUMPI DUP1 PUSH4 0x1794BB3C EQ PUSH2 0x254 JUMPI PUSH1 0x0 DUP1 REVERT JUMPDEST CALLDATASIZE PUSH2 0x1DC JUMPI PUSH1 0x2 SLOAD PUSH1 0x1 PUSH1 0x1 PUSH1 0xA0 SHL SUB AND CALLER EQ PUSH2 0x1DA JUMPI PUSH2 0x1DA PUSH2 0x19EF JUMP JUMPDEST STOP JUMPDEST PUSH1 0x0 DUP1 REVERT JUMPDEST CALLVALUE DUP1 ISZERO PUSH2 0x1ED JUMPI PUSH1 0x0 DUP1 REVERT JUMPDEST POP PUSH2 0x211 PUSH2 0x1FC CALLDATASIZE PUSH1 0x4 PUSH2 0x136B JUMP JUMPDEST PUSH1 0xC PUSH1 0x20 MSTORE PUSH1 0x0 SWAP1 DUP2 MSTORE PUSH1 0x40 SWAP1 KECCAK256 SLOAD PUSH1 0xFF AND DUP2 JUMP JUMPDEST PUSH1 0x40 MLOAD SWAP1 ISZERO ISZERO DUP2 MSTORE PUSH1 0x20 ADD JUMPDEST PUSH1 0x40 MLOAD DUP1 SWAP2 SUB SWAP1 RETURN JUMPDEST CALLVALUE DUP1 ISZERO PUSH2 0x232 JUMPI PUSH1 0x0 DUP1 REVERT JUMPDEST POP PUSH2 0x246 PUSH2 0x241 CALLDATASIZE PUSH1 0x4 PUSH2 0x16B6 JUMP JUMPDEST PUSH2 0x583 JUMP JUMPDEST PUSH1 0x40 MLOAD SWAP1 DUP2 MSTORE PUSH1 0x20 ADD PUSH2 0x21D JUMP JUMPDEST CALLVALUE DUP1 ISZERO PUSH2 0x260 JUMPI PUSH1 0x0 DUP1 REVERT JUMPDEST POP PUSH2 0x1DA PUSH2 0x26F CALLDATASIZE PUSH1 0x4 PUSH2 0x13AC JUMP JUMPDEST PUSH2 0x5B1 JUMP JUMPDEST CALLVALUE DUP1 ISZERO PUSH2 0x280 JUMPI PUSH1 0x0 DUP1 REVERT JUMPDEST POP PUSH2 0x1DA PUSH2 0x28F CALLDATASIZE PUSH1 0x4 PUSH2 0x15E3 JUMP JUMPDEST PUSH2 0x716 JUMP JUMPDEST CALLVALUE DUP1 ISZERO PUSH2 0x2A0 JUMPI PUSH1 0x0 DUP1 REVERT JUMPDEST POP PUSH2 0x1DA PUSH2 0x2AF CALLDATASIZE PUSH1 0x4 PUSH2 0x15CA JUMP JUMPDEST PUSH2 0x742 JUMP JUMPDEST CALLVALUE DUP1 ISZERO PUSH2 0x2C0 JUMPI PUSH1 0x0 DUP1 REVERT JUMPDEST POP PUSH1 0x3 SLOAD PUSH2 0x2D4 SWAP1 PUSH1 0x1 PUSH1 0x1 PUSH1 0xA0 SHL SUB AND DUP2 JUMP JUMPDEST PUSH1 0x40 MLOAD PUSH1 0x1 PUSH1 0x1 PUSH1 0xA0 SHL SUB SWAP1 SWAP2 AND DUP2 MSTORE PUSH1 0x20 ADD PUSH2 0x21D JUMP JUMPDEST CALLVALUE DUP1 ISZERO PUSH2 0x2F8 JUMPI PUSH1 0x0 DUP1 REVERT JUMPDEST POP PUSH2 0x246 PUSH1 0x9 SLOAD DUP2 JUMP JUMPDEST CALLVALUE DUP1 ISZERO PUSH2 0x30E JUMPI PUSH1 0x0 DUP1 REVERT JUMPDEST POP PUSH2 0x1DA PUSH2 0x31D CALLDATASIZE PUSH1 0x4 PUSH2 0x14E4 JUMP JUMPDEST PUSH2 0x7B0 JUMP JUMPDEST CALLVALUE DUP1 ISZERO PUSH2 0x32E JUMPI PUSH1 0x0 DUP1 REVERT JUMPDEST POP PUSH2 0x1DA PUSH2 0x33D CALLDATASIZE PUSH1 0x4 PUSH2 0x1419 JUMP JUMPDEST PUSH2 0x91F JUMP JUMPDEST CALLVALUE DUP1 ISZERO PUSH2 0x34E JUMPI PUSH1 0x0 DUP1 REVERT JUMPDEST POP PUSH2 0x246 PUSH1 0x7 SLOAD DUP2 JUMP JUMPDEST CALLVALUE DUP1 ISZERO PUSH2 0x364 JUMPI PUSH1 0x0 DUP1 REVERT JUMPDEST POP PUSH2 0x246 PUSH2 0xA9B JUMP JUMPDEST CALLVALUE DUP1 ISZERO PUSH2 0x379 JUMPI PUSH1 0x0 DUP1 REVERT JUMPDEST POP PUSH2 0x246 PUSH2 0x388 CALLDATASIZE PUSH1 0x4 PUSH2 0x136B JUMP JUMPDEST PUSH1 0xE PUSH1 0x20 MSTORE PUSH1 0x0 SWAP1 DUP2 MSTORE PUSH1 0x40 SWAP1 KECCAK256 SLOAD DUP2 JUMP JUMPDEST CALLVALUE DUP1 ISZERO PUSH2 0x3A6 JUMPI PUSH1 0x0 DUP1 REVERT JUMPDEST POP PUSH2 0x1DA PUSH2 0x3B5 CALLDATASIZE PUSH1 0x4 PUSH2 0x145B JUMP JUMPDEST PUSH2 0xB64 JUMP JUMPDEST CALLVALUE DUP1 ISZERO PUSH2 0x3C6 JUMPI PUSH1 0x0 DUP1 REVERT JUMPDEST POP PUSH2 0x246 PUSH1 0x6 SLOAD DUP2 JUMP JUMPDEST CALLVALUE DUP1 ISZERO PUSH2 0x3DC JUMPI PUSH1 0x0 DUP1 REVERT JUMPDEST POP PUSH2 0x1DA PUSH2 0x28F CALLDATASIZE PUSH1 0x4 PUSH2 0x13ED JUMP JUMPDEST CALLVALUE DUP1 ISZERO PUSH2 0x3F7 JUMPI PUSH1 0x0 DUP1 REVERT JUMPDEST POP PUSH2 0x246 PUSH2 0x406 CALLDATASIZE PUSH1 0x4 PUSH2 0x136B JUMP JUMPDEST PUSH2 0xE26 JUMP JUMPDEST CALLVALUE DUP1 ISZERO PUSH2 0x417 JUMPI PUSH1 0x0 DUP1 REVERT JUMPDEST POP PUSH2 0x246 PUSH1 0xB SLOAD DUP2 JUMP JUMPDEST CALLVALUE DUP1 ISZERO PUSH2 0x42D JUMPI PUSH1 0x0 DUP1 REVERT JUMPDEST POP PUSH1 0x2 SLOAD PUSH2 0x2D4 SWAP1 PUSH1 0x1 PUSH1 0x1 PUSH1 0xA0 SHL SUB AND DUP2 JUMP JUMPDEST CALLVALUE DUP1 ISZERO PUSH2 0x44D JUMPI PUSH1 0x0 DUP1 REVERT JUMPDEST POP PUSH2 0x246 PUSH1 0x8 SLOAD DUP2 JUMP JUMPDEST CALLVALUE DUP1 ISZERO PUSH2 0x463 JUMPI PUSH1 0x0 DUP1 REVERT JUMPDEST POP PUSH2 0x246 PUSH1 0x5 SLOAD DUP2 JUMP JUMPDEST CALLVALUE DUP1 ISZERO PUSH2 0x479 JUMPI PUSH1 0x0 DUP1 REVERT JUMPDEST POP PUSH1 0x1 SLOAD PUSH2 0x2D4 SWAP1 PUSH1 0x1 PUSH1 0x1 PUSH1 0xA0 SHL SUB AND DUP2 JUMP JUMPDEST CALLVALUE DUP1 ISZERO PUSH2 0x499 JUMPI PUSH1 0x0 DUP1 REVERT JUMPDEST POP PUSH2 0x1DA PUSH2 0x4A8 CALLDATASIZE PUSH1 0x4 PUSH2 0x1605 JUMP JUMPDEST PUSH2 0xEC0 JUMP JUMPDEST CALLVALUE DUP1 ISZERO PUSH2 0x4B9 JUMPI PUSH1 0x0 DUP1 REVERT JUMPDEST POP PUSH2 0x1DA PUSH2 0x4A8 CALLDATASIZE PUSH1 0x4 PUSH2 0x15CA JUMP JUMPDEST CALLVALUE DUP1 ISZERO PUSH2 0x4D4 JUMPI PUSH1 0x0 DUP1 REVERT JUMPDEST POP PUSH2 0x246 PUSH1 0x4 SLOAD DUP2 JUMP JUMPDEST CALLVALUE DUP1 ISZERO PUSH2 0x4EA JUMPI PUSH1 0x0 DUP1 REVERT JUMPDEST POP PUSH2 0x520 PUSH2 0x4F9 CALLDATASIZE PUSH1 0x4 PUSH2 0x136B JUMP JUMPDEST PUSH1 0xF PUSH1 0x20 MSTORE PUSH1 0x0 SWAP1 DUP2 MSTORE PUSH1 0x40 SWAP1 KECCAK256 DUP1 SLOAD PUSH1 0x1 DUP3 ADD SLOAD PUSH1 0x2 DUP4 ADD SLOAD PUSH1 0x3 SWAP1 SWAP4 ADD SLOAD SWAP2 SWAP3 SWAP1 SWAP2 DUP5 JUMP JUMPDEST PUSH1 0x40 DUP1 MLOAD SWAP5 DUP6 MSTORE PUSH1 0x20 DUP6 ADD SWAP4 SWAP1 SWAP4 MSTORE SWAP2 DUP4 ADD MSTORE PUSH1 0x60 DUP3 ADD MSTORE PUSH1 0x80 ADD PUSH2 0x21D JUMP JUMPDEST CALLVALUE DUP1 ISZERO PUSH2 0x54C JUMPI PUSH1 0x0 DUP1 REVERT JUMPDEST POP PUSH2 0x246 PUSH1 0xA SLOAD DUP2 JUMP JUMPDEST CALLVALUE DUP1 ISZERO PUSH2 0x562 JUMPI PUSH1 0x0 DUP1 REVERT JUMPDEST POP PUSH2 0x246 PUSH2 0x571 CALLDATASIZE PUSH1 0x4 PUSH2 0x136B JUMP JUMPDEST PUSH1 0xD PUSH1 0x20 MSTORE PUSH1 0x0 SWAP1 DUP2 MSTORE PUSH1 0x40 SWAP1 KECCAK256 SLOAD DUP2 JUMP JUMPDEST PUSH1 0x0 DUP1 SLOAD PUSH1 0x1 EQ PUSH2 0x5A7 JUMPI PUSH1 0x40 MLOAD PUSH4 0x3CB96DB PUSH1 0xE2 SHL DUP2 MSTORE PUSH1 0x4 ADD PUSH1 0x40 MLOAD DUP1 SWAP2 SUB SWAP1 REVERT JUMPDEST PUSH1 0x1 PUSH1 0x0 SSTORE SWAP2 SWAP1 POP JUMP JUMPDEST PUSH1 0x1 SLOAD PUSH1 0x1 PUSH1 0x1 PUSH1 0xA0 SHL SUB AND ISZERO PUSH2 0x5DB JUMPI PUSH1 0x40 MLOAD PUSH4 0x73E833B9 PUSH1 0xE1 SHL DUP2 MSTORE PUSH1 0x4 ADD PUSH1 0x40 MLOAD DUP1 SWAP2 SUB SWAP1 REVERT JUMPDEST PUSH1 0x1 DUP1 SLOAD PUSH1 0x1 PUSH1 0x1 PUSH1 0xA0 SHL SUB NOT AND PUSH1 0x1 PUSH1 0x1 PUSH1 0xA0 SHL SUB DUP6 AND OR SWAP1 SSTORE PUSH1 0x40 DUP1 MLOAD PUSH4 0x15AB88C9 PUSH1 0xE3 SHL DUP2 MSTORE SWAP1 MLOAD CALLER SWAP2 PUSH4 0xAD5C4648 SWAP2 PUSH1 0x4 DUP1 DUP4 ADD SWAP3 PUSH1 0x20 SWAP3 SWAP2 SWAP1 DUP3 SWAP1 SUB ADD DUP2 DUP7 DUP1 EXTCODESIZE ISZERO DUP1 ISZERO PUSH2 0x62D JUMPI PUSH1 0x0 DUP1 REVERT JUMPDEST POP GAS STATICCALL ISZERO DUP1 ISZERO PUSH2 0x641 JUMPI RETURNDATASIZE PUSH1 0x0 DUP1 RETURNDATACOPY RETURNDATASIZE PUSH1 0x0 REVERT JUMPDEST POP POP POP POP PUSH1 0x40 MLOAD RETURNDATASIZE PUSH1 0x1F NOT PUSH1 0x1F DUP3 ADD AND DUP3 ADD DUP1 PUSH1 0x40 MSTORE POP DUP2 ADD SWAP1 PUSH2 0x665 SWAP2 SWAP1 PUSH2 0x138F JUMP JUMPDEST PUSH1 0x2 DUP1 SLOAD PUSH1 0x1 PUSH1 0x1 PUSH1 0xA0 SHL SUB SWAP3 DUP4 AND PUSH1 0x1 PUSH1 0x1 PUSH1 0xA0 SHL SUB NOT SWAP2 DUP3 AND OR SWAP1 SWAP2 SSTORE PUSH1 0x3 DUP1 SLOAD SWAP3 DUP6 AND SWAP3 SWAP1 SWAP2 AND DUP3 OR SWAP1 SSTORE PUSH1 0x40 DUP1 MLOAD PUSH4 0x313CE567 PUSH1 0xE0 SHL DUP2 MSTORE SWAP1 MLOAD PUSH4 0x313CE567 SWAP2 PUSH1 0x4 DUP1 DUP3 ADD SWAP3 PUSH1 0x20 SWAP3 SWAP1 SWAP2 SWAP1 DUP3 SWAP1 SUB ADD DUP2 DUP7 DUP1 EXTCODESIZE ISZERO DUP1 ISZERO PUSH2 0x6C9 JUMPI PUSH1 0x0 DUP1 REVERT JUMPDEST POP GAS STATICCALL ISZERO DUP1 ISZERO PUSH2 0x6DD JUMPI RETURNDATASIZE PUSH1 0x0 DUP1 RETURNDATACOPY RETURNDATASIZE PUSH1 0x0 REVERT JUMPDEST POP POP POP POP PUSH1 0x40 MLOAD RETURNDATASIZE PUSH1 0x1F NOT PUSH1 0x1F DUP3 ADD AND DUP3 ADD DUP1 PUSH1 0x40 MSTORE POP DUP2 ADD SWAP1 PUSH2 0x701 SWAP2 SWAP1 PUSH2 0x1779 JUMP JUMPDEST PUSH2 0x70C SWAP1 PUSH1 0xA PUSH2 0x18F1 JUMP JUMPDEST PUSH1 0x4 SSTORE PUSH1 0x5 SSTORE POP POP JUMP JUMPDEST PUSH1 0x0 SLOAD PUSH1 0x1 EQ PUSH2 0x739 JUMPI PUSH1 0x40 MLOAD PUSH4 0x3CB96DB PUSH1 0xE2 SHL DUP2 MSTORE PUSH1 0x4 ADD PUSH1 0x40 MLOAD DUP1 SWAP2 SUB SWAP1 REVERT JUMPDEST POP POP PUSH1 0x1 PUSH1 0x0 SSTORE JUMP JUMPDEST PUSH1 0x1 SLOAD PUSH1 0x1 PUSH1 0x1 PUSH1 0xA0 SHL SUB AND CALLER EQ PUSH2 0x774 JUMPI PUSH1 0x40 MLOAD PUSH4 0xA59D7F4D PUSH1 0xE0 SHL DUP2 MSTORE CALLER PUSH1 0x4 DUP3 ADD MSTORE PUSH1 0x24 ADD JUMPDEST PUSH1 0x40 MLOAD DUP1 SWAP2 SUB SWAP1 REVERT JUMPDEST PUSH1 0x5 DUP2 SWAP1 SSTORE PUSH1 0x40 MLOAD DUP2 DUP2 MSTORE PUSH32 0x81ED86E8CFA3004FC54732477C3EDA4F4C606394A0B423ABA78153A3E696F65D SWAP1 PUSH1 0x20 ADD JUMPDEST PUSH1 0x40 MLOAD DUP1 SWAP2 SUB SWAP1 LOG1 POP JUMP JUMPDEST PUSH1 0x1 SLOAD PUSH1 0x1 PUSH1 0x1 PUSH1 0xA0 SHL SUB AND CALLER EQ PUSH2 0x7DD JUMPI PUSH1 0x40 MLOAD PUSH4 0xA59D7F4D PUSH1 0xE0 SHL DUP2 MSTORE CALLER PUSH1 0x4 DUP3 ADD MSTORE PUSH1 0x24 ADD PUSH2 0x76B JUMP JUMPDEST DUP1 MLOAD DUP3 MLOAD EQ PUSH2 0x80C JUMPI DUP2 MLOAD DUP2 MLOAD PUSH1 0x40 MLOAD PUSH4 0x574092F9 PUSH1 0xE0 SHL DUP2 MSTORE PUSH1 0x4 DUP2 ADD SWAP3 SWAP1 SWAP3 MSTORE PUSH1 0x24 DUP3 ADD MSTORE PUSH1 0x44 ADD PUSH2 0x76B JUMP JUMPDEST PUSH1 0x0 JUMPDEST DUP3 MLOAD DUP2 LT ISZERO PUSH2 0x91A JUMPI DUP2 DUP2 DUP2 MLOAD DUP2 LT PUSH2 0x82A JUMPI PUSH2 0x82A PUSH2 0x1A1B JUMP JUMPDEST PUSH1 0x20 MUL PUSH1 0x20 ADD ADD MLOAD PUSH1 0xC PUSH1 0x0 DUP6 DUP5 DUP2 MLOAD DUP2 LT PUSH2 0x848 JUMPI PUSH2 0x848 PUSH2 0x1A1B JUMP JUMPDEST PUSH1 0x20 MUL PUSH1 0x20 ADD ADD MLOAD PUSH1 0x1 PUSH1 0x1 PUSH1 0xA0 SHL SUB AND PUSH1 0x1 PUSH1 0x1 PUSH1 0xA0 SHL SUB AND DUP2 MSTORE PUSH1 0x20 ADD SWAP1 DUP2 MSTORE PUSH1 0x20 ADD PUSH1 0x0 KECCAK256 PUSH1 0x0 PUSH2 0x100 EXP DUP2 SLOAD DUP2 PUSH1 0xFF MUL NOT AND SWAP1 DUP4 ISZERO ISZERO MUL OR SWAP1 SSTORE POP PUSH32 0x7F3EDA3F714379EDDF0620B56429F8B62650079725DBE416FAFFBAB8C6204E1 DUP4 DUP3 DUP2 MLOAD DUP2 LT PUSH2 0x8BA JUMPI PUSH2 0x8BA PUSH2 0x1A1B JUMP JUMPDEST PUSH1 0x20 MUL PUSH1 0x20 ADD ADD MLOAD DUP4 DUP4 DUP2 MLOAD DUP2 LT PUSH2 0x8D4 JUMPI PUSH2 0x8D4 PUSH2 0x1A1B JUMP JUMPDEST PUSH1 0x20 MUL PUSH1 0x20 ADD ADD MLOAD PUSH1 0x40 MLOAD PUSH2 0x900 SWAP3 SWAP2 SWAP1 PUSH1 0x1 PUSH1 0x1 PUSH1 0xA0 SHL SUB SWAP3 SWAP1 SWAP3 AND DUP3 MSTORE ISZERO ISZERO PUSH1 0x20 DUP3 ADD MSTORE PUSH1 0x40 ADD SWAP1 JUMP JUMPDEST PUSH1 0x40 MLOAD DUP1 SWAP2 SUB SWAP1 LOG1 DUP1 PUSH2 0x912 DUP2 PUSH2 0x19D4 JUMP JUMPDEST SWAP2 POP POP PUSH2 0x80F JUMP JUMPDEST POP POP POP JUMP JUMPDEST PUSH1 0x0 SLOAD PUSH1 0x1 EQ PUSH2 0x942 JUMPI PUSH1 0x40 MLOAD PUSH4 0x3CB96DB PUSH1 0xE2 SHL DUP2 MSTORE PUSH1 0x4 ADD PUSH1 0x40 MLOAD DUP1 SWAP2 SUB SWAP1 REVERT JUMPDEST PUSH1 0x0 DUP1 SSTORE DUP2 PUSH2 0x964 JUMPI PUSH1 0x40 MLOAD PUSH4 0x7C946ED7 PUSH1 0xE0 SHL DUP2 MSTORE PUSH1 0x4 ADD PUSH1 0x40 MLOAD DUP1 SWAP2 SUB SWAP1 REVERT JUMPDEST PUSH1 0x1 PUSH1 0x1 PUSH1 0xA0 SHL SUB DUP4 AND PUSH1 0x0 SWAP1 DUP2 MSTORE PUSH1 0xF PUSH1 0x20 MSTORE PUSH1 0x40 SWAP1 KECCAK256 PUSH1 0xA SLOAD PUSH1 0x4 SLOAD DUP3 SLOAD ISZERO PUSH2 0x9C9 JUMPI PUSH1 0x1 DUP4 ADD SLOAD DUP4 SLOAD DUP3 SWAP1 PUSH2 0x99C SWAP1 DUP6 PUSH2 0x199E JUMP JUMPDEST PUSH2 0x9A6 SWAP2 SWAP1 PUSH2 0x188C JUMP JUMPDEST PUSH2 0x9B0 SWAP2 SWAP1 PUSH2 0x19BD JUMP JUMPDEST DUP4 PUSH1 0x2 ADD PUSH1 0x0 DUP3 DUP3 SLOAD PUSH2 0x9C3 SWAP2 SWAP1 PUSH2 0x1874 JUMP JUMPDEST SWAP1 SWAP2 SSTORE POP POP JUMPDEST DUP3 SLOAD DUP2 SWAP1 PUSH2 0x9D7 SWAP1 DUP5 PUSH2 0x199E JUMP JUMPDEST PUSH2 0x9E1 SWAP2 SWAP1 PUSH2 0x188C JUMP JUMPDEST PUSH1 0x1 DUP5 ADD SSTORE TIMESTAMP PUSH1 0x3 DUP5 ADD SSTORE PUSH1 0x2 DUP4 ADD SLOAD DUP6 GT DUP1 PUSH2 0x9FF JUMPI POP PUSH1 0x8 SLOAD DUP6 GT JUMPDEST ISZERO PUSH2 0xA1D JUMPI PUSH1 0x40 MLOAD PUSH4 0x42301C23 PUSH1 0xE0 SHL DUP2 MSTORE PUSH1 0x4 ADD PUSH1 0x40 MLOAD DUP1 SWAP2 SUB SWAP1 REVERT JUMPDEST DUP5 DUP4 PUSH1 0x2 ADD PUSH1 0x0 DUP3 DUP3 SLOAD PUSH2 0xA31 SWAP2 SWAP1 PUSH2 0x19BD JUMP JUMPDEST SWAP1 SWAP2 SSTORE POP POP PUSH1 0x3 SLOAD PUSH2 0xA4E SWAP1 PUSH1 0x1 PUSH1 0x1 PUSH1 0xA0 SHL SUB AND DUP8 DUP8 DUP8 PUSH2 0xEEB JUMP JUMPDEST PUSH1 0x40 MLOAD DUP6 DUP2 MSTORE PUSH1 0x1 PUSH1 0x1 PUSH1 0xA0 SHL SUB DUP8 AND SWAP1 CALLER SWAP1 PUSH32 0x1314FD112A381BEEA61539DBD21EC04AFCFF2662AC7D1B83273AADE1F53D1B97 SWAP1 PUSH1 0x20 ADD PUSH1 0x40 MLOAD DUP1 SWAP2 SUB SWAP1 LOG3 POP POP PUSH1 0x1 PUSH1 0x0 SSTORE POP POP POP POP JUMP JUMPDEST PUSH1 0x3 SLOAD PUSH1 0x40 MLOAD PUSH4 0x70A08231 PUSH1 0xE0 SHL DUP2 MSTORE ADDRESS PUSH1 0x4 DUP3 ADD MSTORE PUSH1 0x0 SWAP2 PUSH1 0x1 PUSH1 0x1 PUSH1 0xA0 SHL SUB AND SWAP1 DUP3 SWAP1 DUP3 SWAP1 PUSH4 0x70A08231 SWAP1 PUSH1 0x24 ADD PUSH1 0x20 PUSH1 0x40 MLOAD DUP1 DUP4 SUB DUP2 DUP7 DUP1 EXTCODESIZE ISZERO DUP1 ISZERO PUSH2 0xAE3 JUMPI PUSH1 0x0 DUP1 REVERT JUMPDEST POP GAS STATICCALL ISZERO DUP1 ISZERO PUSH2 0xAF7 JUMPI RETURNDATASIZE PUSH1 0x0 DUP1 RETURNDATACOPY RETURNDATASIZE PUSH1 0x0 REVERT JUMPDEST POP POP POP POP PUSH1 0x40 MLOAD RETURNDATASIZE PUSH1 0x1F NOT PUSH1 0x1F DUP3 ADD AND DUP3 ADD DUP1 PUSH1 0x40 MSTORE POP DUP2 ADD SWAP1 PUSH2 0xB1B SWAP2 SWAP1 PUSH2 0x1760 JUMP JUMPDEST PUSH1 0x9 SLOAD PUSH1 0x8 SLOAD PUSH1 0x1 PUSH1 0x1 PUSH1 0xA0 SHL SUB DUP6 AND PUSH1 0x0 SWAP1 DUP2 MSTORE PUSH1 0xE PUSH1 0x20 MSTORE PUSH1 0x40 SWAP1 KECCAK256 SLOAD SWAP3 SWAP4 POP SWAP1 SWAP2 PUSH2 0xB49 SWAP1 DUP5 PUSH2 0x19BD JUMP JUMPDEST PUSH2 0xB53 SWAP2 SWAP1 PUSH2 0x19BD JUMP JUMPDEST PUSH2 0xB5D SWAP2 SWAP1 PUSH2 0x19BD JUMP JUMPDEST SWAP3 POP POP POP SWAP1 JUMP JUMPDEST PUSH1 0x0 SLOAD PUSH1 0x1 EQ PUSH2 0xB87 JUMPI PUSH1 0x40 MLOAD PUSH4 0x3CB96DB PUSH1 0xE2 SHL DUP2 MSTORE PUSH1 0x4 ADD PUSH1 0x40 MLOAD DUP1 SWAP2 SUB SWAP1 REVERT JUMPDEST PUSH1 0x0 DUP1 DUP1 SSTORE PUSH1 0x3 SLOAD PUSH1 0x1 PUSH1 0x1 PUSH1 0xA0 SHL SUB DUP7 DUP2 AND DUP4 MSTORE PUSH1 0xF PUSH1 0x20 MSTORE PUSH1 0x40 SWAP1 SWAP3 KECCAK256 PUSH1 0xA SLOAD PUSH1 0x4 SLOAD DUP3 SLOAD SWAP5 SWAP1 SWAP4 AND SWAP4 SWAP2 SWAP3 SWAP1 SWAP2 ISZERO PUSH2 0xBFC JUMPI PUSH1 0x1 DUP4 ADD SLOAD DUP4 SLOAD DUP3 SWAP1 PUSH2 0xBCF SWAP1 DUP6 PUSH2 0x199E JUMP JUMPDEST PUSH2 0xBD9 SWAP2 SWAP1 PUSH2 0x188C JUMP JUMPDEST PUSH2 0xBE3 SWAP2 SWAP1 PUSH2 0x19BD JUMP JUMPDEST DUP4 PUSH1 0x2 ADD PUSH1 0x0 DUP3 DUP3 SLOAD PUSH2 0xBF6 SWAP2 SWAP1 PUSH2 0x1874 JUMP JUMPDEST SWAP1 SWAP2 SSTORE POP POP JUMPDEST DUP7 DUP4 PUSH1 0x0 ADD PUSH1 0x0 DUP3 DUP3 SLOAD PUSH2 0xC10 SWAP2 SWAP1 PUSH2 0x1874 JUMP JUMPDEST SWAP1 SWAP2 SSTORE POP POP DUP3 SLOAD DUP2 SWAP1 PUSH2 0xC23 SWAP1 DUP5 PUSH2 0x199E JUMP JUMPDEST PUSH2 0xC2D SWAP2 SWAP1 PUSH2 0x188C JUMP JUMPDEST PUSH1 0x1 DUP5 ADD SSTORE TIMESTAMP PUSH1 0x3 DUP5 ADD SSTORE PUSH1 0x6 SLOAD PUSH2 0xC4F SWAP1 PUSH2 0xC4A SWAP1 DUP10 SWAP1 PUSH2 0x1874 JUMP JUMPDEST PUSH2 0x1147 JUMP JUMPDEST PUSH2 0xC57 PUSH2 0x117C JUMP JUMPDEST PUSH1 0x40 MLOAD PUSH4 0x70A08231 PUSH1 0xE0 SHL DUP2 MSTORE ADDRESS PUSH1 0x4 DUP3 ADD MSTORE PUSH1 0x0 SWAP1 PUSH1 0x1 PUSH1 0x1 PUSH1 0xA0 SHL SUB DUP7 AND SWAP1 PUSH4 0x70A08231 SWAP1 PUSH1 0x24 ADD PUSH1 0x20 PUSH1 0x40 MLOAD DUP1 DUP4 SUB DUP2 DUP7 DUP1 EXTCODESIZE ISZERO DUP1 ISZERO PUSH2 0xC99 JUMPI PUSH1 0x0 DUP1 REVERT JUMPDEST POP GAS STATICCALL ISZERO DUP1 ISZERO PUSH2 0xCAD JUMPI RETURNDATASIZE PUSH1 0x0 DUP1 RETURNDATACOPY RETURNDATASIZE PUSH1 0x0 REVERT JUMPDEST POP POP POP POP PUSH1 0x40 MLOAD RETURNDATASIZE PUSH1 0x1F NOT PUSH1 0x1F DUP3 ADD AND DUP3 ADD DUP1 PUSH1 0x40 MSTORE POP DUP2 ADD SWAP1 PUSH2 0xCD1 SWAP2 SWAP1 PUSH2 0x1760 JUMP JUMPDEST PUSH1 0x40 MLOAD PUSH4 0x3A3BCD7 PUSH1 0xE0 SHL DUP2 MSTORE SWAP1 SWAP2 POP CALLER SWAP1 PUSH4 0x3A3BCD7 SWAP1 PUSH2 0xCFD SWAP1 DUP9 SWAP1 DUP13 SWAP1 DUP13 SWAP1 DUP13 SWAP1 PUSH1 0x4 ADD PUSH2 0x17D7 JUMP JUMPDEST PUSH1 0x0 PUSH1 0x40 MLOAD DUP1 DUP4 SUB DUP2 PUSH1 0x0 DUP8 DUP1 EXTCODESIZE ISZERO DUP1 ISZERO PUSH2 0xD17 JUMPI PUSH1 0x0 DUP1 REVERT JUMPDEST POP GAS CALL ISZERO DUP1 ISZERO PUSH2 0xD2B JUMPI RETURNDATASIZE PUSH1 0x0 DUP1 RETURNDATACOPY RETURNDATASIZE PUSH1 0x0 REVERT JUMPDEST POP POP PUSH1 0x40 MLOAD PUSH4 0x70A08231 PUSH1 0xE0 SHL DUP2 MSTORE ADDRESS PUSH1 0x4 DUP3 ADD MSTORE PUSH1 0x0 SWAP3 POP PUSH1 0x1 PUSH1 0x1 PUSH1 0xA0 SHL SUB DUP9 AND SWAP2 POP PUSH4 0x70A08231 SWAP1 PUSH1 0x24 ADD PUSH1 0x20 PUSH1 0x40 MLOAD DUP1 DUP4 SUB DUP2 DUP7 DUP1 EXTCODESIZE ISZERO DUP1 ISZERO PUSH2 0xD71 JUMPI PUSH1 0x0 DUP1 REVERT JUMPDEST POP GAS STATICCALL ISZERO DUP1 ISZERO PUSH2 0xD85 JUMPI RETURNDATASIZE PUSH1 0x0 DUP1 RETURNDATACOPY RETURNDATASIZE PUSH1 0x0 REVERT JUMPDEST POP POP POP POP PUSH1 0x40 MLOAD RETURNDATASIZE PUSH1 0x1F NOT PUSH1 0x1F DUP3 ADD AND DUP3 ADD DUP1 PUSH1 0x40 MSTORE POP DUP2 ADD SWAP1 PUSH2 0xDA9 SWAP2 SWAP1 PUSH2 0x1760 JUMP JUMPDEST SWAP1 POP PUSH2 0xDB5 DUP10 DUP4 PUSH2 0x1874 JUMP JUMPDEST DUP2 LT ISZERO PUSH2 0xDD5 JUMPI PUSH1 0x40 MLOAD PUSH4 0x98FB561 PUSH1 0xE0 SHL DUP2 MSTORE PUSH1 0x4 ADD PUSH1 0x40 MLOAD DUP1 SWAP2 SUB SWAP1 REVERT JUMPDEST PUSH1 0x40 MLOAD DUP10 DUP2 MSTORE PUSH1 0x1 PUSH1 0x1 PUSH1 0xA0 SHL SUB DUP12 AND SWAP1 CALLER SWAP1 PUSH32 0xAB8530F87DC9B59234C4623BF917212BB2536D647574C8E7E5DA92C2EDE0C9F8 SWAP1 PUSH1 0x20 ADD PUSH1 0x40 MLOAD DUP1 SWAP2 SUB SWAP1 LOG3 POP POP PUSH1 0x1 PUSH1 0x0 SSTORE POP POP POP POP POP POP POP POP JUMP JUMPDEST PUSH1 0x1 PUSH1 0x1 PUSH1 0xA0 SHL SUB DUP2 AND PUSH1 0x0 SWAP1 DUP2 MSTORE PUSH1 0xF PUSH1 0x20 SWAP1 DUP2 MSTORE PUSH1 0x40 DUP1 DUP4 KECCAK256 DUP2 MLOAD PUSH1 0x80 DUP2 ADD DUP4 MSTORE DUP2 SLOAD DUP1 DUP3 MSTORE PUSH1 0x1 DUP4 ADD SLOAD SWAP5 DUP3 ADD DUP6 SWAP1 MSTORE PUSH1 0x2 DUP4 ADD SLOAD SWAP4 DUP3 ADD SWAP4 SWAP1 SWAP4 MSTORE PUSH1 0x3 SWAP1 SWAP2 ADD SLOAD PUSH1 0x60 DUP3 ADD MSTORE PUSH1 0x4 SLOAD PUSH1 0xA SLOAD SWAP2 SWAP4 SWAP3 SWAP1 SWAP2 PUSH2 0xE85 SWAP2 SWAP1 PUSH2 0x199E JUMP JUMPDEST PUSH2 0xE8F SWAP2 SWAP1 PUSH2 0x188C JUMP JUMPDEST DUP3 PUSH1 0x40 ADD MLOAD PUSH2 0xE9E SWAP2 SWAP1 PUSH2 0x1874 JUMP JUMPDEST PUSH2 0xEA8 SWAP2 SWAP1 PUSH2 0x19BD JUMP JUMPDEST SWAP2 POP PUSH1 0x8 SLOAD DUP3 GT ISZERO PUSH2 0xEBA JUMPI PUSH1 0x8 SLOAD SWAP2 POP JUMPDEST POP SWAP2 SWAP1 POP JUMP JUMPDEST PUSH1 0x0 SLOAD PUSH1 0x1 EQ PUSH2 0xEE3 JUMPI PUSH1 0x40 MLOAD PUSH4 0x3CB96DB PUSH1 0xE2 SHL DUP2 MSTORE PUSH1 0x4 ADD PUSH1 0x40 MLOAD DUP1 SWAP2 SUB SWAP1 REVERT JUMPDEST POP PUSH1 0x1 PUSH1 0x0 SSTORE JUMP JUMPDEST PUSH1 0x2 SLOAD PUSH1 0x1 PUSH1 0x1 PUSH1 0xA0 SHL SUB SWAP1 DUP2 AND SWAP1 DUP6 AND DUP2 EQ DUP1 ISZERO PUSH2 0xF07 JUMPI POP DUP2 JUMPDEST ISZERO PUSH2 0x100B JUMPI PUSH1 0x40 MLOAD PUSH4 0x2E1A7D4D PUSH1 0xE0 SHL DUP2 MSTORE PUSH1 0x4 DUP2 ADD DUP5 SWAP1 MSTORE PUSH1 0x1 PUSH1 0x1 PUSH1 0xA0 SHL SUB DUP3 AND SWAP1 PUSH4 0x2E1A7D4D SWAP1 PUSH1 0x24 ADD PUSH1 0x0 PUSH1 0x40 MLOAD DUP1 DUP4 SUB DUP2 PUSH1 0x0 DUP8 DUP1 EXTCODESIZE ISZERO DUP1 ISZERO PUSH2 0xF4E JUMPI PUSH1 0x0 DUP1 REVERT JUMPDEST POP GAS CALL ISZERO DUP1 ISZERO PUSH2 0xF62 JUMPI RETURNDATASIZE PUSH1 0x0 DUP1 RETURNDATACOPY RETURNDATASIZE PUSH1 0x0 REVERT JUMPDEST POP POP PUSH1 0x40 DUP1 MLOAD PUSH1 0x0 DUP1 DUP3 MSTORE PUSH1 0x20 DUP3 ADD SWAP3 DUP4 SWAP1 MSTORE SWAP4 POP PUSH1 0x1 PUSH1 0x1 PUSH1 0xA0 SHL SUB DUP9 AND SWAP3 POP DUP7 SWAP2 PUSH2 0xF8F SWAP2 SWAP1 PUSH2 0x179C JUMP JUMPDEST PUSH1 0x0 PUSH1 0x40 MLOAD DUP1 DUP4 SUB DUP2 DUP6 DUP8 GAS CALL SWAP3 POP POP POP RETURNDATASIZE DUP1 PUSH1 0x0 DUP2 EQ PUSH2 0xFCC JUMPI PUSH1 0x40 MLOAD SWAP2 POP PUSH1 0x1F NOT PUSH1 0x3F RETURNDATASIZE ADD AND DUP3 ADD PUSH1 0x40 MSTORE RETURNDATASIZE DUP3 MSTORE RETURNDATASIZE PUSH1 0x0 PUSH1 0x20 DUP5 ADD RETURNDATACOPY PUSH2 0xFD1 JUMP JUMPDEST PUSH1 0x60 SWAP2 POP JUMPDEST POP POP SWAP1 POP DUP1 PUSH2 0x1005 JUMPI PUSH1 0x40 MLOAD PUSH4 0x6F54AFDD PUSH1 0xE1 SHL DUP2 MSTORE PUSH1 0x1 PUSH1 0x1 PUSH1 0xA0 SHL SUB DUP7 AND PUSH1 0x4 DUP3 ADD MSTORE PUSH1 0x24 DUP2 ADD DUP6 SWAP1 MSTORE PUSH1 0x44 ADD PUSH2 0x76B JUMP JUMPDEST POP PUSH2 0x1140 JUMP JUMPDEST PUSH1 0x40 DUP1 MLOAD DUP1 DUP3 ADD DUP3 MSTORE PUSH1 0x19 DUP2 MSTORE PUSH32 0x7472616E7366657228616464726573732C75696E743235362900000000000000 PUSH1 0x20 SWAP2 DUP3 ADD MSTORE DUP2 MLOAD PUSH1 0x1 PUSH1 0x1 PUSH1 0xA0 SHL SUB DUP8 DUP2 AND PUSH1 0x24 DUP4 ADD MSTORE PUSH1 0x44 DUP1 DUP4 ADD DUP9 SWAP1 MSTORE DUP5 MLOAD DUP1 DUP5 SUB SWAP1 SWAP2 ADD DUP2 MSTORE PUSH1 0x64 SWAP1 SWAP3 ADD DUP5 MSTORE SWAP2 DUP2 ADD DUP1 MLOAD PUSH1 0x1 PUSH1 0x1 PUSH1 0xE0 SHL SUB AND PUSH4 0xA9059CBB PUSH1 0xE0 SHL OR SWAP1 MSTORE SWAP2 MLOAD PUSH1 0x0 SWAP3 DUP4 SWAP3 DUP10 AND SWAP2 PUSH2 0x1097 SWAP2 SWAP1 PUSH2 0x179C JUMP JUMPDEST PUSH1 0x0 PUSH1 0x40 MLOAD DUP1 DUP4 SUB DUP2 PUSH1 0x0 DUP7 GAS CALL SWAP2 POP POP RETURNDATASIZE DUP1 PUSH1 0x0 DUP2 EQ PUSH2 0x10D4 JUMPI PUSH1 0x40 MLOAD SWAP2 POP PUSH1 0x1F NOT PUSH1 0x3F RETURNDATASIZE ADD AND DUP3 ADD PUSH1 0x40 MSTORE RETURNDATASIZE DUP3 MSTORE RETURNDATASIZE PUSH1 0x0 PUSH1 0x20 DUP5 ADD RETURNDATACOPY PUSH2 0x10D9 JUMP JUMPDEST PUSH1 0x60 SWAP2 POP JUMPDEST POP SWAP2 POP SWAP2 POP DUP2 ISZERO DUP1 PUSH2 0x1105 JUMPI POP DUP1 MLOAD ISZERO DUP1 PUSH2 0x1103 JUMPI POP DUP1 DUP1 PUSH1 0x20 ADD SWAP1 MLOAD DUP2 ADD SWAP1 PUSH2 0x1103 SWAP2 SWAP1 PUSH2 0x15AD JUMP JUMPDEST ISZERO JUMPDEST ISZERO PUSH2 0x113D JUMPI PUSH1 0x40 MLOAD PUSH4 0x17E3057D PUSH1 0xE3 SHL DUP2 MSTORE PUSH1 0x1 PUSH1 0x1 PUSH1 0xA0 SHL SUB DUP1 DUP10 AND PUSH1 0x4 DUP4 ADD MSTORE DUP8 AND PUSH1 0x24 DUP3 ADD MSTORE PUSH1 0x44 DUP2 ADD DUP7 SWAP1 MSTORE PUSH1 0x64 ADD PUSH2 0x76B JUMP JUMPDEST POP POP JUMPDEST POP POP POP POP POP JUMP JUMPDEST PUSH1 0x6 DUP2 SWAP1 SSTORE PUSH1 0x40 MLOAD DUP2 DUP2 MSTORE PUSH32 0x44141ECEE2FB3C75D1699B968FA546A18DFA4EE1D705699D81751270B385951 SWAP1 PUSH1 0x20 ADD PUSH2 0x7A5 JUMP JUMPDEST PUSH1 0x9 SLOAD DUP1 ISZERO PUSH2 0x1238 JUMPI PUSH1 0x1 SLOAD PUSH1 0x40 DUP1 MLOAD PUSH4 0x779B4929 PUSH1 0xE1 SHL DUP2 MSTORE SWAP1 MLOAD PUSH1 0x0 SWAP3 PUSH1 0x1 PUSH1 0x1 PUSH1 0xA0 SHL SUB AND SWAP2 PUSH4 0xEF369252 SWAP2 PUSH1 0x4 DUP1 DUP4 ADD SWAP3 PUSH1 0x20 SWAP3 SWAP2 SWAP1 DUP3 SWAP1 SUB ADD DUP2 DUP7 DUP1 EXTCODESIZE ISZERO DUP1 ISZERO PUSH2 0x11CA JUMPI PUSH1 0x0 DUP1 REVERT JUMPDEST POP GAS STATICCALL ISZERO DUP1 ISZERO PUSH2 0x11DE JUMPI RETURNDATASIZE PUSH1 0x0 DUP1 RETURNDATACOPY RETURNDATASIZE PUSH1 0x0 REVERT JUMPDEST POP POP POP POP PUSH1 0x40 MLOAD RETURNDATASIZE PUSH1 0x1F NOT PUSH1 0x1F DUP3 ADD AND DUP3 ADD DUP1 PUSH1 0x40 MSTORE POP DUP2 ADD SWAP1 PUSH2 0x1202 SWAP2 SWAP1 PUSH2 0x138F JUMP JUMPDEST SWAP1 POP PUSH1 0x1 PUSH1 0x1 PUSH1 0xA0 SHL SUB DUP2 AND ISZERO PUSH2 0x1236 JUMPI PUSH2 0x121D PUSH1 0x0 PUSH2 0x123B JUMP JUMPDEST PUSH1 0x3 SLOAD PUSH2 0x1236 SWAP1 PUSH1 0x1 PUSH1 0x1 PUSH1 0xA0 SHL SUB AND DUP3 DUP5 PUSH1 0x0 PUSH2 0xEEB JUMP JUMPDEST POP JUMPDEST POP JUMP JUMPDEST PUSH1 0x9 DUP2 SWAP1 SSTORE PUSH1 0x40 MLOAD DUP2 DUP2 MSTORE PUSH32 0x2F1BB46A1DD6774772E223BFA9C733CEA598E6B1AC69187D1C614A04CFD1C36 SWAP1 PUSH1 0x20 ADD PUSH2 0x7A5 JUMP JUMPDEST DUP1 CALLDATALOAD PUSH2 0x127B DUP2 PUSH2 0x1A47 JUMP JUMPDEST SWAP2 SWAP1 POP JUMP JUMPDEST PUSH1 0x0 DUP3 PUSH1 0x1F DUP4 ADD SLT PUSH2 0x1291 JUMPI PUSH1 0x0 DUP1 REVERT JUMPDEST DUP2 CALLDATALOAD PUSH1 0x20 PUSH2 0x12A6 PUSH2 0x12A1 DUP4 PUSH2 0x1850 JUMP JUMPDEST PUSH2 0x181F JUMP JUMPDEST DUP1 DUP4 DUP3 MSTORE DUP3 DUP3 ADD SWAP2 POP DUP3 DUP7 ADD DUP8 DUP5 DUP7 PUSH1 0x5 SHL DUP10 ADD ADD GT ISZERO PUSH2 0x12C6 JUMPI PUSH1 0x0 DUP1 REVERT JUMPDEST PUSH1 0x0 JUMPDEST DUP6 DUP2 LT ISZERO PUSH2 0x12EE JUMPI DUP2 CALLDATALOAD PUSH2 0x12DC DUP2 PUSH2 0x1A5C JUMP JUMPDEST DUP5 MSTORE SWAP3 DUP5 ADD SWAP3 SWAP1 DUP5 ADD SWAP1 PUSH1 0x1 ADD PUSH2 0x12C9 JUMP JUMPDEST POP SWAP1 SWAP8 SWAP7 POP POP POP POP POP POP POP JUMP JUMPDEST PUSH1 0x0 DUP3 PUSH1 0x1F DUP4 ADD SLT PUSH2 0x130C JUMPI PUSH1 0x0 DUP1 REVERT JUMPDEST DUP2 CALLDATALOAD PUSH8 0xFFFFFFFFFFFFFFFF DUP2 GT ISZERO PUSH2 0x1326 JUMPI PUSH2 0x1326 PUSH2 0x1A31 JUMP JUMPDEST PUSH2 0x1339 PUSH1 0x1F DUP3 ADD PUSH1 0x1F NOT AND PUSH1 0x20 ADD PUSH2 0x181F JUMP JUMPDEST DUP2 DUP2 MSTORE DUP5 PUSH1 0x20 DUP4 DUP7 ADD ADD GT ISZERO PUSH2 0x134E JUMPI PUSH1 0x0 DUP1 REVERT JUMPDEST DUP2 PUSH1 0x20 DUP6 ADD PUSH1 0x20 DUP4 ADD CALLDATACOPY PUSH1 0x0 SWAP2 DUP2 ADD PUSH1 0x20 ADD SWAP2 SWAP1 SWAP2 MSTORE SWAP4 SWAP3 POP POP POP JUMP JUMPDEST PUSH1 0x0 PUSH1 0x20 DUP3 DUP5 SUB SLT ISZERO PUSH2 0x137D JUMPI PUSH1 0x0 DUP1 REVERT JUMPDEST DUP2 CALLDATALOAD PUSH2 0x1388 DUP2 PUSH2 0x1A47 JUMP JUMPDEST SWAP4 SWAP3 POP POP POP JUMP JUMPDEST PUSH1 0x0 PUSH1 0x20 DUP3 DUP5 SUB SLT ISZERO PUSH2 0x13A1 JUMPI PUSH1 0x0 DUP1 REVERT JUMPDEST DUP2 MLOAD PUSH2 0x1388 DUP2 PUSH2 0x1A47 JUMP JUMPDEST PUSH1 0x0 DUP1 PUSH1 0x0 PUSH1 0x60 DUP5 DUP7 SUB SLT ISZERO PUSH2 0x13C1 JUMPI PUSH1 0x0 DUP1 REVERT JUMPDEST DUP4 CALLDATALOAD PUSH2 0x13CC DUP2 PUSH2 0x1A47 JUMP JUMPDEST SWAP3 POP PUSH1 0x20 DUP5 ADD CALLDATALOAD PUSH2 0x13DC DUP2 PUSH2 0x1A47 JUMP JUMPDEST SWAP3 SWAP6 SWAP3 SWAP5 POP POP POP PUSH1 0x40 SWAP2 SWAP1 SWAP2 ADD CALLDATALOAD SWAP1 JUMP JUMPDEST PUSH1 0x0 DUP1 PUSH1 0x40 DUP4 DUP6 SUB SLT ISZERO PUSH2 0x1400 JUMPI PUSH1 0x0 DUP1 REVERT JUMPDEST DUP3 CALLDATALOAD PUSH2 0x140B DUP2 PUSH2 0x1A47 JUMP JUMPDEST SWAP5 PUSH1 0x20 SWAP4 SWAP1 SWAP4 ADD CALLDATALOAD SWAP4 POP POP POP JUMP JUMPDEST PUSH1 0x0 DUP1 PUSH1 0x0 PUSH1 0x60 DUP5 DUP7 SUB SLT ISZERO PUSH2 0x142E JUMPI PUSH1 0x0 DUP1 REVERT JUMPDEST DUP4 CALLDATALOAD PUSH2 0x1439 DUP2 PUSH2 0x1A47 JUMP JUMPDEST SWAP3 POP PUSH1 0x20 DUP5 ADD CALLDATALOAD SWAP2 POP PUSH1 0x40 DUP5 ADD CALLDATALOAD PUSH2 0x1450 DUP2 PUSH2 0x1A5C JUMP JUMPDEST DUP1 SWAP2 POP POP SWAP3 POP SWAP3 POP SWAP3 JUMP JUMPDEST PUSH1 0x0 DUP1 PUSH1 0x0 DUP1 PUSH1 0x60 DUP6 DUP8 SUB SLT ISZERO PUSH2 0x1471 JUMPI PUSH1 0x0 DUP1 REVERT JUMPDEST DUP5 CALLDATALOAD PUSH2 0x147C DUP2 PUSH2 0x1A47 JUMP JUMPDEST SWAP4 POP PUSH1 0x20 DUP6 ADD CALLDATALOAD SWAP3 POP PUSH1 0x40 DUP6 ADD CALLDATALOAD PUSH8 0xFFFFFFFFFFFFFFFF DUP1 DUP3 GT ISZERO PUSH2 0x14A0 JUMPI PUSH1 0x0 DUP1 REVERT JUMPDEST DUP2 DUP8 ADD SWAP2 POP DUP8 PUSH1 0x1F DUP4 ADD SLT PUSH2 0x14B4 JUMPI PUSH1 0x0 DUP1 REVERT JUMPDEST DUP2 CALLDATALOAD DUP2 DUP2 GT ISZERO PUSH2 0x14C3 JUMPI PUSH1 0x0 DUP1 REVERT JUMPDEST DUP9 PUSH1 0x20 DUP3 DUP6 ADD ADD GT ISZERO PUSH2 0x14D5 JUMPI PUSH1 0x0 DUP1 REVERT JUMPDEST SWAP6 SWAP9 SWAP5 SWAP8 POP POP PUSH1 0x20 ADD SWAP5 POP POP POP JUMP JUMPDEST PUSH1 0x0 DUP1 PUSH1 0x40 DUP4 DUP6 SUB SLT ISZERO PUSH2 0x14F7 JUMPI PUSH1 0x0 DUP1 REVERT JUMPDEST DUP3 CALLDATALOAD PUSH8 0xFFFFFFFFFFFFFFFF DUP1 DUP3 GT ISZERO PUSH2 0x150F JUMPI PUSH1 0x0 DUP1 REVERT JUMPDEST DUP2 DUP6 ADD SWAP2 POP DUP6 PUSH1 0x1F DUP4 ADD SLT PUSH2 0x1523 JUMPI PUSH1 0x0 DUP1 REVERT JUMPDEST DUP2 CALLDATALOAD PUSH1 0x20 PUSH2 0x1533 PUSH2 0x12A1 DUP4 PUSH2 0x1850 JUMP JUMPDEST DUP1 DUP4 DUP3 MSTORE DUP3 DUP3 ADD SWAP2 POP DUP3 DUP7 ADD DUP11 DUP5 DUP7 PUSH1 0x5 SHL DUP10 ADD ADD GT ISZERO PUSH2 0x1553 JUMPI PUSH1 0x0 DUP1 REVERT JUMPDEST PUSH1 0x0 SWAP7 POP JUMPDEST DUP5 DUP8 LT ISZERO PUSH2 0x157F JUMPI DUP1 CALLDATALOAD PUSH2 0x156B DUP2 PUSH2 0x1A47 JUMP JUMPDEST DUP4 MSTORE PUSH1 0x1 SWAP7 SWAP1 SWAP7 ADD SWAP6 SWAP2 DUP4 ADD SWAP2 DUP4 ADD PUSH2 0x1558 JUMP JUMPDEST POP SWAP7 POP POP DUP7 ADD CALLDATALOAD SWAP3 POP POP DUP1 DUP3 GT ISZERO PUSH2 0x1596 JUMPI PUSH1 0x0 DUP1 REVERT JUMPDEST POP PUSH2 0x15A3 DUP6 DUP3 DUP7 ADD PUSH2 0x1280 JUMP JUMPDEST SWAP2 POP POP SWAP3 POP SWAP3 SWAP1 POP JUMP JUMPDEST PUSH1 0x0 PUSH1 0x20 DUP3 DUP5 SUB SLT ISZERO PUSH2 0x15BF JUMPI PUSH1 0x0 DUP1 REVERT JUMPDEST DUP2 MLOAD PUSH2 0x1388 DUP2 PUSH2 0x1A5C JUMP JUMPDEST PUSH1 0x0 PUSH1 0x20 DUP3 DUP5 SUB SLT ISZERO PUSH2 0x15DC JUMPI PUSH1 0x0 DUP1 REVERT JUMPDEST POP CALLDATALOAD SWAP2 SWAP1 POP JUMP JUMPDEST PUSH1 0x0 DUP1 PUSH1 0x40 DUP4 DUP6 SUB SLT ISZERO PUSH2 0x15F6 JUMPI PUSH1 0x0 DUP1 REVERT JUMPDEST POP POP DUP1 CALLDATALOAD SWAP3 PUSH1 0x20 SWAP1 SWAP2 ADD CALLDATALOAD SWAP2 POP JUMP JUMPDEST PUSH1 0x0 PUSH1 0x20 DUP3 DUP5 SUB SLT ISZERO PUSH2 0x1617 JUMPI PUSH1 0x0 DUP1 REVERT JUMPDEST DUP2 CALLDATALOAD PUSH8 0xFFFFFFFFFFFFFFFF DUP1 DUP3 GT ISZERO PUSH2 0x162F JUMPI PUSH1 0x0 DUP1 REVERT JUMPDEST SWAP1 DUP4 ADD SWAP1 PUSH1 0x60 DUP3 DUP7 SUB SLT ISZERO PUSH2 0x1643 JUMPI PUSH1 0x0 DUP1 REVERT JUMPDEST PUSH1 0x40 MLOAD PUSH1 0x60 DUP2 ADD DUP2 DUP2 LT DUP4 DUP3 GT OR ISZERO PUSH2 0x165E JUMPI PUSH2 0x165E PUSH2 0x1A31 JUMP JUMPDEST PUSH1 0x40 MSTORE DUP3 CALLDATALOAD DUP2 MSTORE PUSH1 0x20 DUP4 ADD CALLDATALOAD DUP3 DUP2 GT ISZERO PUSH2 0x1677 JUMPI PUSH1 0x0 DUP1 REVERT JUMPDEST PUSH2 0x1683 DUP8 DUP3 DUP7 ADD PUSH2 0x12FB JUMP JUMPDEST PUSH1 0x20 DUP4 ADD MSTORE POP PUSH1 0x40 DUP4 ADD CALLDATALOAD DUP3 DUP2 GT ISZERO PUSH2 0x169B JUMPI PUSH1 0x0 DUP1 REVERT JUMPDEST PUSH2 0x16A7 DUP8 DUP3 DUP7 ADD PUSH2 0x12FB JUMP JUMPDEST PUSH1 0x40 DUP4 ADD MSTORE POP SWAP6 SWAP5 POP POP POP POP POP JUMP JUMPDEST PUSH1 0x0 PUSH2 0x100 DUP1 DUP4 DUP6 SUB SLT ISZERO PUSH2 0x16CA JUMPI PUSH1 0x0 DUP1 REVERT JUMPDEST PUSH1 0x40 MLOAD SWAP1 DUP2 ADD SWAP1 PUSH8 0xFFFFFFFFFFFFFFFF DUP3 GT DUP2 DUP4 LT OR ISZERO PUSH2 0x16ED JUMPI PUSH2 0x16ED PUSH2 0x1A31 JUMP JUMPDEST DUP2 PUSH1 0x40 MSTORE DUP4 CALLDATALOAD SWAP2 POP PUSH2 0x16FE DUP3 PUSH2 0x1A47 JUMP JUMPDEST DUP2 DUP2 MSTORE PUSH2 0x170D PUSH1 0x20 DUP6 ADD PUSH2 0x1270 JUMP JUMPDEST PUSH1 0x20 DUP3 ADD MSTORE PUSH2 0x171E PUSH1 0x40 DUP6 ADD PUSH2 0x1270 JUMP JUMPDEST PUSH1 0x40 DUP3 ADD MSTORE PUSH1 0x60 DUP5 ADD CALLDATALOAD PUSH1 0x60 DUP3 ADD MSTORE PUSH1 0x80 DUP5 ADD CALLDATALOAD PUSH1 0x80 DUP3 ADD MSTORE PUSH1 0xA0 DUP5 ADD CALLDATALOAD PUSH1 0xA0 DUP3 ADD MSTORE PUSH1 0xC0 DUP5 ADD CALLDATALOAD PUSH1 0xC0 DUP3 ADD MSTORE PUSH1 0xE0 DUP5 ADD CALLDATALOAD PUSH1 0xE0 DUP3 ADD MSTORE DUP1 SWAP3 POP POP POP SWAP3 SWAP2 POP POP JUMP JUMPDEST PUSH1 0x0 PUSH1 0x20 DUP3 DUP5 SUB SLT ISZERO PUSH2 0x1772 JUMPI PUSH1 0x0 DUP1 REVERT JUMPDEST POP MLOAD SWAP2 SWAP1 POP JUMP JUMPDEST PUSH1 0x0 PUSH1 0x20 DUP3 DUP5 SUB SLT ISZERO PUSH2 0x178B JUMPI PUSH1 0x0 DUP1 REVERT JUMPDEST DUP2 MLOAD PUSH1 0xFF DUP2 AND DUP2 EQ PUSH2 0x1388 JUMPI PUSH1 0x0 DUP1 REVERT JUMPDEST PUSH1 0x0 DUP3 MLOAD PUSH1 0x0 JUMPDEST DUP2 DUP2 LT ISZERO PUSH2 0x17BD JUMPI PUSH1 0x20 DUP2 DUP7 ADD DUP2 ADD MLOAD DUP6 DUP4 ADD MSTORE ADD PUSH2 0x17A3 JUMP JUMPDEST DUP2 DUP2 GT ISZERO PUSH2 0x17CC JUMPI PUSH1 0x0 DUP3 DUP6 ADD MSTORE JUMPDEST POP SWAP2 SWAP1 SWAP2 ADD SWAP3 SWAP2 POP POP JUMP JUMPDEST PUSH1 0x1 PUSH1 0x1 PUSH1 0xA0 SHL SUB DUP6 AND DUP2 MSTORE PUSH1 0x20 DUP2 ADD DUP5 SWAP1 MSTORE PUSH1 0x60 PUSH1 0x40 DUP3 ADD DUP2 SWAP1 MSTORE DUP2 ADD DUP3 SWAP1 MSTORE DUP2 DUP4 PUSH1 0x80 DUP4 ADD CALLDATACOPY PUSH1 0x0 DUP2 DUP4 ADD PUSH1 0x80 SWAP1 DUP2 ADD SWAP2 SWAP1 SWAP2 MSTORE PUSH1 0x1F SWAP1 SWAP3 ADD PUSH1 0x1F NOT AND ADD ADD SWAP4 SWAP3 POP POP POP JUMP JUMPDEST PUSH1 0x40 MLOAD PUSH1 0x1F DUP3 ADD PUSH1 0x1F NOT AND DUP2 ADD PUSH8 0xFFFFFFFFFFFFFFFF DUP2 GT DUP3 DUP3 LT OR ISZERO PUSH2 0x1848 JUMPI PUSH2 0x1848 PUSH2 0x1A31 JUMP JUMPDEST PUSH1 0x40 MSTORE SWAP2 SWAP1 POP JUMP JUMPDEST PUSH1 0x0 PUSH8 0xFFFFFFFFFFFFFFFF DUP3 GT ISZERO PUSH2 0x186A JUMPI PUSH2 0x186A PUSH2 0x1A31 JUMP JUMPDEST POP PUSH1 0x5 SHL PUSH1 0x20 ADD SWAP1 JUMP JUMPDEST PUSH1 0x0 DUP3 NOT DUP3 GT ISZERO PUSH2 0x1887 JUMPI PUSH2 0x1887 PUSH2 0x1A05 JUMP JUMPDEST POP ADD SWAP1 JUMP JUMPDEST PUSH1 0x0 DUP3 PUSH2 0x18A9 JUMPI PUSH4 0x4E487B71 PUSH1 0xE0 SHL PUSH1 0x0 MSTORE PUSH1 0x12 PUSH1 0x4 MSTORE PUSH1 0x24 PUSH1 0x0 REVERT JUMPDEST POP DIV SWAP1 JUMP JUMPDEST PUSH1 0x1 DUP2 DUP2 JUMPDEST DUP1 DUP6 GT ISZERO PUSH2 0x18E9 JUMPI DUP2 PUSH1 0x0 NOT DIV DUP3 GT ISZERO PUSH2 0x18CF JUMPI PUSH2 0x18CF PUSH2 0x1A05 JUMP JUMPDEST DUP1 DUP6 AND ISZERO PUSH2 0x18DC JUMPI SWAP2 DUP2 MUL SWAP2 JUMPDEST SWAP4 DUP5 SHR SWAP4 SWAP1 DUP1 MUL SWAP1 PUSH2 0x18B3 JUMP JUMPDEST POP SWAP3 POP SWAP3 SWAP1 POP JUMP JUMPDEST PUSH1 0x0 PUSH2 0x1388 PUSH1 0xFF DUP5 AND DUP4 PUSH1 0x0 DUP3 PUSH2 0x190A JUMPI POP PUSH1 0x1 PUSH2 0x1998 JUMP JUMPDEST DUP2 PUSH2 0x1917 JUMPI POP PUSH1 0x0 PUSH2 0x1998 JUMP JUMPDEST DUP2 PUSH1 0x1 DUP2 EQ PUSH2 0x192D JUMPI PUSH1 0x2 DUP2 EQ PUSH2 0x1937 JUMPI PUSH2 0x1953 JUMP JUMPDEST PUSH1 0x1 SWAP2 POP POP PUSH2 0x1998 JUMP JUMPDEST PUSH1 0xFF DUP5 GT ISZERO PUSH2 0x1948 JUMPI PUSH2 0x1948 PUSH2 0x1A05 JUMP JUMPDEST POP POP PUSH1 0x1 DUP3 SHL PUSH2 0x1998 JUMP JUMPDEST POP PUSH1 0x20 DUP4 LT PUSH2 0x133 DUP4 LT AND PUSH1 0x4E DUP5 LT PUSH1 0xB DUP5 LT AND OR ISZERO PUSH2 0x1976 JUMPI POP DUP2 DUP2 EXP PUSH2 0x1998 JUMP JUMPDEST PUSH2 0x1980 DUP4 DUP4 PUSH2 0x18AE JUMP JUMPDEST DUP1 PUSH1 0x0 NOT DIV DUP3 GT ISZERO PUSH2 0x1994 JUMPI PUSH2 0x1994 PUSH2 0x1A05 JUMP JUMPDEST MUL SWAP1 POP JUMPDEST SWAP3 SWAP2 POP POP JUMP JUMPDEST PUSH1 0x0 DUP2 PUSH1 0x0 NOT DIV DUP4 GT DUP3 ISZERO ISZERO AND ISZERO PUSH2 0x19B8 JUMPI PUSH2 0x19B8 PUSH2 0x1A05 JUMP JUMPDEST POP MUL SWAP1 JUMP JUMPDEST PUSH1 0x0 DUP3 DUP3 LT ISZERO PUSH2 0x19CF JUMPI PUSH2 0x19CF PUSH2 0x1A05 JUMP JUMPDEST POP SUB SWAP1 JUMP JUMPDEST PUSH1 0x0 PUSH1 0x0 NOT DUP3 EQ ISZERO PUSH2 0x19E8 JUMPI PUSH2 0x19E8 PUSH2 0x1A05 JUMP JUMPDEST POP PUSH1 0x1 ADD SWAP1 JUMP JUMPDEST PUSH4 0x4E487B71 PUSH1 0xE0 SHL PUSH1 0x0 MSTORE PUSH1 0x1 PUSH1 0x4 MSTORE PUSH1 0x24 PUSH1 0x0 REVERT JUMPDEST PUSH4 0x4E487B71 PUSH1 0xE0 SHL PUSH1 0x0 MSTORE PUSH1 0x11 PUSH1 0x4 MSTORE PUSH1 0x24 PUSH1 0x0 REVERT JUMPDEST PUSH4 0x4E487B71 PUSH1 0xE0 SHL PUSH1 0x0 MSTORE PUSH1 0x32 PUSH1 0x4 MSTORE PUSH1 0x24 PUSH1 0x0 REVERT JUMPDEST PUSH4 0x4E487B71 PUSH1 0xE0 SHL PUSH1 0x0 MSTORE PUSH1 0x41 PUSH1 0x4 MSTORE PUSH1 0x24 PUSH1 0x0 REVERT JUMPDEST PUSH1 0x1 PUSH1 0x1 PUSH1 0xA0 SHL SUB DUP2 AND DUP2 EQ PUSH2 0x1238 JUMPI PUSH1 0x0 DUP1 REVERT JUMPDEST DUP1 ISZERO ISZERO DUP2 EQ PUSH2 0x1238 JUMPI PUSH1 0x0 DUP1 REVERT INVALID LOG2 PUSH5 0x6970667358 0x22 SLT KECCAK256 0xB2 0xDF DUP4 0xD SWAP16 0x28 0xEC 0x2A PUSH27 0xE6619565066B32A96896CDA0AB4057B67ED39F0031A5CF64736F6C PUSH4 0x43000807 STOP CALLER "},"gasEstimates":{"creation":{"codeDepositCost":"1363200","executionCost":"23523","totalCost":"1386723"},"external":{"WETH()":"2382","accFee()":"2362","accFeePerShare()":"2383","accProtocolFee()":"2407","availableLiquidity()":"infinite","baseReserve(address)":"2623","burn(address,uint256)":"24596","claimableFee(address)":"17817","close((bytes32,bytes,bytes))":"infinite","collateralReserve(address)":"2580","collect(address,uint256,bool)":"infinite","factory()":"2382","initialize(address,address,uint256)":"infinite","interest()":"2406","latestFeeTime()":"2385","liquidityPosition(address)":"8981","mint(address,uint256,bytes)":"infinite","open((address,address,address,uint256,uint256,uint256,uint256,uint256))":"infinite","precision()":"2339","quoteInDebt()":"2385","quoteReserve()":"2406","quoteToken()":"2427","rollback(bytes32)":"24541","setBaseTokens(address[],bool[])":"infinite","setInterest(uint256)":"25598","tradeableBaseToken(address)":"2561","updateDeadline(bytes32,uint256)":"24523","updateStoplossPrice(bytes32,uint256)":"24566"},"internal":{"_addFee(uint256)":"infinite","_safeTransfer(address,address,uint256,bool)":"infinite","_transferProtocolFee()":"infinite","_updateBaseReserve(address,uint256)":"infinite","_updateCollateralReserve(address,uint256)":"infinite","_updateProtocolFee(uint256)":"infinite","_updateQuoteInDebt(uint256)":"infinite","_updateQuoteReserve(uint256)":"infinite"}},"methodIdentifiers":{"WETH()":"ad5c4648","accFee()":"ada3112f","accFeePerShare()":"dd3b829a","accProtocolFee()":"27014e33","availableLiquidity()":"74375359","baseReserve(address)":"ffc9dcbb","burn(address,uint256)":"9dc29fac","claimableFee(address)":"a1c59afc","close((bytes32,bytes,bytes))":"ca9bc69d","collateralReserve(address)":"8b6e00fa","collect(address,uint256,bool)":"3f8e2936","factory()":"c45a0155","initialize(address,address,uint256)":"1794bb3c","interest()":"c392f766","latestFeeTime()":"aabb4860","liquidityPosition(address)":"d4fd6905","mint(address,uint256,bytes)":"94d008ef","open((address,address,address,uint256,uint256,uint256,uint256,uint256))":"1493047e","precision()":"d3b5dc3b","quoteInDebt()":"685b61d0","quoteReserve()":"9da771f4","quoteToken()":"217a4b70","rollback(bytes32)":"cfb13928","setBaseTokens(address[],bool[])":"32196a01","setInterest(uint256)":"1d086720","tradeableBaseToken(address)":"0adcf0f5","updateDeadline(bytes32,uint256)":"1b033c1d","updateStoplossPrice(bytes32,uint256)":"b6cf1691"}},"storageLayout":{"storage":[{"astId":2288,"contract":"contracts/Pool.sol:Pool","label":"unlocked","offset":0,"slot":"0","type":"t_uint256"},{"astId":1374,"contract":"contracts/Pool.sol:Pool","label":"factory","offset":0,"slot":"1","type":"t_address"},{"astId":1377,"contract":"contracts/Pool.sol:Pool","label":"WETH","offset":0,"slot":"2","type":"t_address"},{"astId":1380,"contract":"contracts/Pool.sol:Pool","label":"quoteToken","offset":0,"slot":"3","type":"t_address"},{"astId":1383,"contract":"contracts/Pool.sol:Pool","label":"precision","offset":0,"slot":"4","type":"t_uint256"},{"astId":1386,"contract":"contracts/Pool.sol:Pool","label":"interest","offset":0,"slot":"5","type":"t_uint256"},{"astId":1389,"contract":"contracts/Pool.sol:Pool","label":"quoteReserve","offset":0,"slot":"6","type":"t_uint256"},{"astId":1392,"contract":"contracts/Pool.sol:Pool","label":"quoteInDebt","offset":0,"slot":"7","type":"t_uint256"},{"astId":1395,"contract":"contracts/Pool.sol:Pool","label":"accFee","offset":0,"slot":"8","type":"t_uint256"},{"astId":1398,"contract":"contracts/Pool.sol:Pool","label":"accProtocolFee","offset":0,"slot":"9","type":"t_uint256"},{"astId":1401,"contract":"contracts/Pool.sol:Pool","label":"accFeePerShare","offset":0,"slot":"10","type":"t_uint256"},{"astId":1404,"contract":"contracts/Pool.sol:Pool","label":"latestFeeTime","offset":0,"slot":"11","type":"t_uint256"},{"astId":1409,"contract":"contracts/Pool.sol:Pool","label":"tradeableBaseToken","offset":0,"slot":"12","type":"t_mapping(t_address,t_bool)"},{"astId":1414,"contract":"contracts/Pool.sol:Pool","label":"baseReserve","offset":0,"slot":"13","type":"t_mapping(t_address,t_uint256)"},{"astId":1419,"contract":"contracts/Pool.sol:Pool","label":"collateralReserve","offset":0,"slot":"14","type":"t_mapping(t_address,t_uint256)"},{"astId":1425,"contract":"contracts/Pool.sol:Pool","label":"liquidityPosition","offset":0,"slot":"15","type":"t_mapping(t_address,t_struct(LiquidityPosition)2631_storage)"}],"types":{"t_address":{"encoding":"inplace","label":"address","numberOfBytes":"20"},"t_bool":{"encoding":"inplace","label":"bool","numberOfBytes":"1"},"t_mapping(t_address,t_bool)":{"encoding":"mapping","key":"t_address","label":"mapping(address => bool)","numberOfBytes":"32","value":"t_bool"},"t_mapping(t_address,t_struct(LiquidityPosition)2631_storage)":{"encoding":"mapping","key":"t_address","label":"mapping(address => struct IPool.LiquidityPosition)","numberOfBytes":"32","value":"t_struct(LiquidityPosition)2631_storage"},"t_mapping(t_address,t_uint256)":{"encoding":"mapping","key":"t_address","label":"mapping(address => uint256)","numberOfBytes":"32","value":"t_uint256"},"t_struct(LiquidityPosition)2631_storage":{"encoding":"inplace","label":"struct IPool.LiquidityPosition","members":[{"astId":2624,"contract":"contracts/Pool.sol:Pool","label":"liquidity","offset":0,"slot":"0","type":"t_uint256"},{"astId":2626,"contract":"contracts/Pool.sol:Pool","label":"feeDebt","offset":0,"slot":"1","type":"t_uint256"},{"astId":2628,"contract":"contracts/Pool.sol:Pool","label":"pendingFee","offset":0,"slot":"2","type":"t_uint256"},{"astId":2630,"contract":"contracts/Pool.sol:Pool","label":"latestTime","offset":0,"slot":"3","type":"t_uint256"}],"numberOfBytes":"128"},"t_uint256":{"encoding":"inplace","label":"uint256","numberOfBytes":"32"}}},"userdoc":{"kind":"user","methods":{},"version":1}}}}