{"contracts/Factory.sol":{"Factory":{"abi":[{"inputs":[{"internalType":"address","name":"_poolDeployer","type":"address"},{"internalType":"address","name":"_positionStorage","type":"address"},{"internalType":"address","name":"_withdrawalMonitor","type":"address"},{"internalType":"address","name":"_userStorage","type":"address"},{"internalType":"address","name":"_priceFeed","type":"address"},{"internalType":"address","name":"_dexAggregator","type":"address"}],"stateMutability":"nonpayable","type":"constructor"},{"inputs":[{"internalType":"uint256","name":"length0","type":"uint256"},{"internalType":"uint256","name":"length1","type":"uint256"}],"name":"BadLengths","type":"error"},{"inputs":[{"internalType":"address","name":"sender","type":"address"}],"name":"Forbidden","type":"error"},{"inputs":[{"internalType":"address","name":"quoteToken","type":"address"},{"internalType":"address","name":"pool","type":"address"}],"name":"PoolExistsAlready","type":"error"},{"inputs":[{"internalType":"address","name":"quoteToken","type":"address"}],"name":"PoolNotExists","type":"error"},{"inputs":[{"internalType":"uint256","name":"value","type":"uint256"},{"internalType":"uint256","name":"max","type":"uint256"}],"name":"TooHighValue","type":"error"},{"inputs":[{"internalType":"uint256","name":"value","type":"uint256"},{"internalType":"uint256","name":"min","type":"uint256"}],"name":"TooLowValue","type":"error"},{"inputs":[],"name":"ZeroAddress","type":"error"},{"anonymous":false,"inputs":[{"indexed":true,"internalType":"address","name":"quoteToken","type":"address"},{"indexed":true,"internalType":"address","name":"pool","type":"address"},{"indexed":false,"internalType":"uint256","name":"interest","type":"uint256"},{"indexed":false,"internalType":"uint256","name":"index","type":"uint256"}],"name":"CreatePool","type":"event"},{"anonymous":false,"inputs":[{"indexed":false,"internalType":"address","name":"baseToken","type":"address"},{"indexed":false,"internalType":"uint256","name":"lt","type":"uint256"}],"name":"SetBaseTokenLT","type":"event"},{"anonymous":false,"inputs":[{"indexed":false,"internalType":"address","name":"baseToken","type":"address"},{"indexed":false,"internalType":"uint256","name":"mut","type":"uint256"}],"name":"SetBaseTokenMUT","type":"event"},{"anonymous":false,"inputs":[{"indexed":false,"internalType":"address","name":"collateral","type":"address"},{"indexed":false,"internalType":"uint256","name":"lt","type":"uint256"}],"name":"SetCollateralLT","type":"event"},{"anonymous":false,"inputs":[{"indexed":false,"internalType":"address","name":"baseToken","type":"address"},{"indexed":false,"internalType":"uint256","name":"mut","type":"uint256"}],"name":"SetCollateralMUT","type":"event"},{"anonymous":false,"inputs":[{"indexed":false,"internalType":"address","name":"newDexAggregator","type":"address"}],"name":"SetDEXAggregator","type":"event"},{"anonymous":false,"inputs":[{"indexed":false,"internalType":"uint256","name":"newLiquidationFeeRate","type":"uint256"}],"name":"SetLiquidationFeeRate","type":"event"},{"anonymous":false,"inputs":[{"indexed":false,"internalType":"address","name":"newLiquidationFeeTo","type":"address"}],"name":"SetLiquidationFeeTo","type":"event"},{"anonymous":false,"inputs":[{"indexed":false,"internalType":"address","name":"newManager","type":"address"}],"name":"SetManager","type":"event"},{"anonymous":false,"inputs":[{"indexed":false,"internalType":"uint256","name":"newManualExpiration","type":"uint256"}],"name":"SetManualExpiration","type":"event"},{"anonymous":false,"inputs":[{"indexed":false,"internalType":"uint256","name":"newMinQuoteRate","type":"uint256"}],"name":"SetMinQuoteRate","type":"event"},{"anonymous":false,"inputs":[{"indexed":false,"internalType":"address","name":"addr","type":"address"},{"indexed":false,"internalType":"bool","name":"isOperator","type":"bool"}],"name":"SetOperator","type":"event"},{"anonymous":false,"inputs":[{"indexed":false,"internalType":"address","name":"newPriceFeed","type":"address"}],"name":"SetPriceFeed","type":"event"},{"anonymous":false,"inputs":[{"indexed":false,"internalType":"uint256","name":"newProtocolFeeRate","type":"uint256"}],"name":"SetProtocolFeeRate","type":"event"},{"anonymous":false,"inputs":[{"indexed":false,"internalType":"address","name":"newProtocolFeeTo","type":"address"}],"name":"SetProtocolFeeTo","type":"event"},{"anonymous":false,"inputs":[{"indexed":false,"internalType":"uint256","name":"newRollbackFee","type":"uint256"}],"name":"SetRollbackFee","type":"event"},{"anonymous":false,"inputs":[{"indexed":false,"internalType":"address","name":"newServiceFeeTo","type":"address"}],"name":"SetServiceFeeTo","type":"event"},{"anonymous":false,"inputs":[{"indexed":false,"internalType":"address","name":"newServiceToken","type":"address"}],"name":"SetServiceToken","type":"event"},{"anonymous":false,"inputs":[{"indexed":false,"internalType":"uint256","name":"newUpdateCollateralAmountFee","type":"uint256"}],"name":"SetUpdateCollateralAmountFee","type":"event"},{"anonymous":false,"inputs":[{"indexed":false,"internalType":"uint256","name":"newUpdateDeadlineFee","type":"uint256"}],"name":"SetUpdateDeadlineFee","type":"event"},{"anonymous":false,"inputs":[{"indexed":false,"internalType":"uint256","name":"newUpdateStoplossPriceFee","type":"uint256"}],"name":"SetUpdateStoplossPriceFee","type":"event"},{"anonymous":false,"inputs":[{"indexed":false,"internalType":"address","name":"newUserStorage","type":"address"}],"name":"SetUserStorage","type":"event"},{"inputs":[{"internalType":"address","name":"","type":"address"}],"name":"baseTokenLT","outputs":[{"internalType":"uint256","name":"","type":"uint256"}],"stateMutability":"view","type":"function"},{"inputs":[{"internalType":"address","name":"","type":"address"}],"name":"baseTokenMUT","outputs":[{"internalType":"uint256","name":"","type":"uint256"}],"stateMutability":"view","type":"function"},{"inputs":[{"internalType":"address","name":"","type":"address"}],"name":"collateralLT","outputs":[{"internalType":"uint256","name":"","type":"uint256"}],"stateMutability":"view","type":"function"},{"inputs":[{"internalType":"address","name":"","type":"address"}],"name":"collateralMUT","outputs":[{"internalType":"uint256","name":"","type":"uint256"}],"stateMutability":"view","type":"function"},{"inputs":[{"internalType":"address","name":"_quoteToken","type":"address"},{"internalType":"uint256","name":"_interest","type":"uint256"}],"name":"createPool","outputs":[{"internalType":"address payable","name":"pool","type":"address"}],"stateMutability":"nonpayable","type":"function"},{"inputs":[],"name":"dexAggregator","outputs":[{"internalType":"address","name":"","type":"address"}],"stateMutability":"view","type":"function"},{"inputs":[{"internalType":"address","name":"_quoteToken","type":"address"}],"name":"interest","outputs":[{"internalType":"uint256","name":"","type":"uint256"}],"stateMutability":"view","type":"function"},{"inputs":[],"name":"liquidationFeeRate","outputs":[{"internalType":"uint256","name":"","type":"uint256"}],"stateMutability":"view","type":"function"},{"inputs":[],"name":"liquidationFeeTo","outputs":[{"internalType":"address","name":"","type":"address"}],"stateMutability":"view","type":"function"},{"inputs":[],"name":"manager","outputs":[{"internalType":"address","name":"","type":"address"}],"stateMutability":"view","type":"function"},{"inputs":[],"name":"manualExpiration","outputs":[{"internalType":"uint256","name":"","type":"uint256"}],"stateMutability":"view","type":"function"},{"inputs":[],"name":"minQuoteRate","outputs":[{"internalType":"uint256","name":"","type":"uint256"}],"stateMutability":"view","type":"function"},{"inputs":[{"internalType":"address","name":"","type":"address"}],"name":"operator","outputs":[{"internalType":"bool","name":"","type":"bool"}],"stateMutability":"view","type":"function"},{"inputs":[{"internalType":"address","name":"","type":"address"}],"name":"poolByQuoteToken","outputs":[{"internalType":"address","name":"","type":"address"}],"stateMutability":"view","type":"function"},{"inputs":[],"name":"poolDeployer","outputs":[{"internalType":"address","name":"","type":"address"}],"stateMutability":"view","type":"function"},{"inputs":[{"internalType":"address","name":"","type":"address"}],"name":"poolIndex","outputs":[{"internalType":"uint256","name":"","type":"uint256"}],"stateMutability":"view","type":"function"},{"inputs":[],"name":"poolLength","outputs":[{"internalType":"uint256","name":"","type":"uint256"}],"stateMutability":"view","type":"function"},{"inputs":[{"internalType":"uint256","name":"","type":"uint256"}],"name":"pools","outputs":[{"internalType":"address","name":"","type":"address"}],"stateMutability":"view","type":"function"},{"inputs":[],"name":"positionStorage","outputs":[{"internalType":"address","name":"","type":"address"}],"stateMutability":"view","type":"function"},{"inputs":[],"name":"priceFeed","outputs":[{"internalType":"address","name":"","type":"address"}],"stateMutability":"view","type":"function"},{"inputs":[],"name":"protocolFeeRate","outputs":[{"internalType":"uint256","name":"","type":"uint256"}],"stateMutability":"view","type":"function"},{"inputs":[],"name":"protocolFeeTo","outputs":[{"internalType":"address","name":"","type":"address"}],"stateMutability":"view","type":"function"},{"inputs":[],"name":"rollbackFee","outputs":[{"internalType":"uint256","name":"","type":"uint256"}],"stateMutability":"view","type":"function"},{"inputs":[],"name":"serviceFeeTo","outputs":[{"internalType":"address","name":"","type":"address"}],"stateMutability":"view","type":"function"},{"inputs":[],"name":"serviceToken","outputs":[{"internalType":"address","name":"","type":"address"}],"stateMutability":"view","type":"function"},{"inputs":[{"internalType":"address[]","name":"_baseTokens","type":"address[]"},{"internalType":"uint256[]","name":"_lts","type":"uint256[]"}],"name":"setBaseTokenLT","outputs":[],"stateMutability":"nonpayable","type":"function"},{"inputs":[{"internalType":"address[]","name":"_baseTokens","type":"address[]"},{"internalType":"uint256[]","name":"_muts","type":"uint256[]"}],"name":"setBaseTokenMUT","outputs":[],"stateMutability":"nonpayable","type":"function"},{"inputs":[{"internalType":"address[]","name":"_collaterals","type":"address[]"},{"internalType":"uint256[]","name":"_lts","type":"uint256[]"}],"name":"setCollateralLT","outputs":[],"stateMutability":"nonpayable","type":"function"},{"inputs":[{"internalType":"address[]","name":"_collaterals","type":"address[]"},{"internalType":"uint256[]","name":"_muts","type":"uint256[]"}],"name":"setCollateralMUT","outputs":[],"stateMutability":"nonpayable","type":"function"},{"inputs":[{"internalType":"address","name":"_dexAggregator","type":"address"}],"name":"setDEXAggregator","outputs":[],"stateMutability":"nonpayable","type":"function"},{"inputs":[{"internalType":"uint256","name":"_liquidationFeeRate","type":"uint256"}],"name":"setLiquidationFeeRate","outputs":[],"stateMutability":"nonpayable","type":"function"},{"inputs":[{"internalType":"address","name":"_liquidationFeeTo","type":"address"}],"name":"setLiquidationFeeTo","outputs":[],"stateMutability":"nonpayable","type":"function"},{"inputs":[{"internalType":"address","name":"_manager","type":"address"}],"name":"setManager","outputs":[],"stateMutability":"nonpayable","type":"function"},{"inputs":[{"internalType":"uint256","name":"_manualExpiration","type":"uint256"}],"name":"setManualExpiration","outputs":[],"stateMutability":"nonpayable","type":"function"},{"inputs":[{"internalType":"uint256","name":"_minQuoteRate","type":"uint256"}],"name":"setMinQuoteRate","outputs":[],"stateMutability":"nonpayable","type":"function"},{"inputs":[{"internalType":"address","name":"_addr","type":"address"},{"internalType":"bool","name":"_isOperator","type":"bool"}],"name":"setOperator","outputs":[],"stateMutability":"nonpayable","type":"function"},{"inputs":[{"internalType":"address","name":"_quoteToken","type":"address"},{"internalType":"address[]","name":"_baseTokens","type":"address[]"},{"internalType":"bool[]","name":"_tradeables","type":"bool[]"}],"name":"setPoolBaseTokens","outputs":[],"stateMutability":"nonpayable","type":"function"},{"inputs":[{"internalType":"address","name":"_quoteToken","type":"address"},{"internalType":"uint256","name":"_interest","type":"uint256"}],"name":"setPoolInterest","outputs":[],"stateMutability":"nonpayable","type":"function"},{"inputs":[{"internalType":"address","name":"_priceFeed","type":"address"}],"name":"setPriceFeed","outputs":[],"stateMutability":"nonpayable","type":"function"},{"inputs":[{"internalType":"uint256","name":"_protocolFeeRate","type":"uint256"}],"name":"setProtocolFeeRate","outputs":[],"stateMutability":"nonpayable","type":"function"},{"inputs":[{"internalType":"address","name":"_protocolFeeTo","type":"address"}],"name":"setProtocolFeeTo","outputs":[],"stateMutability":"nonpayable","type":"function"},{"inputs":[{"internalType":"uint256","name":"_rollbackFee","type":"uint256"}],"name":"setRollbackFee","outputs":[],"stateMutability":"nonpayable","type":"function"},{"inputs":[{"internalType":"address","name":"_serviceFeeTo","type":"address"}],"name":"setServiceFeeTo","outputs":[],"stateMutability":"nonpayable","type":"function"},{"inputs":[{"internalType":"address","name":"_serviceToken","type":"address"}],"name":"setServiceToken","outputs":[],"stateMutability":"nonpayable","type":"function"},{"inputs":[{"internalType":"uint256","name":"_updateCollateralAmountFee","type":"uint256"}],"name":"setUpdateCollateralAmountFee","outputs":[],"stateMutability":"nonpayable","type":"function"},{"inputs":[{"internalType":"uint256","name":"_updateDeadlineFee","type":"uint256"}],"name":"setUpdateDeadlineFee","outputs":[],"stateMutability":"nonpayable","type":"function"},{"inputs":[{"internalType":"uint256","name":"_updateStoplossPriceFee","type":"uint256"}],"name":"setUpdateStoplossPriceFee","outputs":[],"stateMutability":"nonpayable","type":"function"},{"inputs":[{"internalType":"address","name":"_userStorage","type":"address"}],"name":"setUserStorage","outputs":[],"stateMutability":"nonpayable","type":"function"},{"inputs":[],"name":"updateCollateralAmountFee","outputs":[{"internalType":"uint256","name":"","type":"uint256"}],"stateMutability":"view","type":"function"},{"inputs":[],"name":"updateDeadlineFee","outputs":[{"internalType":"uint256","name":"","type":"uint256"}],"stateMutability":"view","type":"function"},{"inputs":[],"name":"updateStoplossPriceFee","outputs":[{"internalType":"uint256","name":"","type":"uint256"}],"stateMutability":"view","type":"function"},{"inputs":[],"name":"userStorage","outputs":[{"internalType":"address","name":"","type":"address"}],"stateMutability":"view","type":"function"},{"inputs":[],"name":"withdrawalMonitor","outputs":[{"internalType":"address","name":"","type":"address"}],"stateMutability":"view","type":"function"}],"devdoc":{"kind":"dev","methods":{},"version":1},"evm":{"bytecode":{"linkReferences":{},"object":"60e06040523480156200001157600080fd5b5060405162002139380380620021398339810160408190526200003491620000d2565b6001600160601b0319606096871b811660805294861b851660a0529290941b90921660c052600180546001600160a01b039384166001600160a01b031991821617909155600280549484169482169490941790935560038054919092169083161790556000805490911633179055612710600e5562015180600f5562000153565b80516001600160a01b0381168114620000cd57600080fd5b919050565b60008060008060008060c08789031215620000ec57600080fd5b620000f787620000b5565b95506200010760208801620000b5565b94506200011760408801620000b5565b93506200012760608801620000b5565b92506200013760808801620000b5565b91506200014760a08801620000b5565b90509295509295509295565b60805160601c60a05160601c60c05160601c611fa66200019360003960006105ce0152600061054e0152600081816103c301526108ab0152611fa66000f3fe608060405234801561001057600080fd5b50600436106103265760003560e01c80638cd47415116101b8578063b745db5611610104578063e0e6799f116100a2578063e9a4e7a21161007c578063e9a4e7a21461074c578063eddf82bb1461075f578063ef36925214610768578063f5d0e1751461077b57600080fd5b8063e0e6799f14610713578063e216ab4414610726578063e47eb30c1461073957600080fd5b8063c7900584116100de578063c7900584146106d1578063ca10a33a146106da578063d0ebdbe7146106ed578063dd4fad931461070057600080fd5b8063b745db561461068b578063b7692968146106ab578063bd2bae9d146106be57600080fd5b8063aa6dfe0311610171578063ac4afa381161014b578063ac4afa381461063c578063b13aa2d61461064f578063b42754a514610662578063b58862e71461068257600080fd5b8063aa6dfe0314610603578063aac9d2b814610616578063ac436bdf1461062957600080fd5b80638cd474151461054957806390f43680146105705780639142887f146105835780639a30739114610596578063a4fbc0d7146105c9578063a5e1b628146105f057600080fd5b806358f8588011610277578063662dc31911610230578063741bef1a1161020a578063741bef1a146104fd57806375e58079146105105780637c21d5e0146105235780637eb5c2001461053657600080fd5b8063662dc319146104ce5780636d274553146104e1578063724e78da146104ea57600080fd5b806358f85880146104635780635d463c301461046c5780635ef21b2f1461047f5780635fb3b1b5146104925780635fde0ec01461049b5780636629b5d4146104bb57600080fd5b80633119049a116102e4578063481c6a75116102be578063481c6a75146104015780634d5c262e146104145780634d83bc3314610427578063558a72971461045057600080fd5b80633119049a146103be57806336d6135b146103e55780633c093037146103f857600080fd5b80624ef9671461032b578063081e3eda14610340578063095bf1bb1461035757806312d36171146103775780631faa7eba146103a25780632a5025b7146103b5575b600080fd5b61033e610339366004611e03565b61079b565b005b6010545b6040519081526020015b60405180910390f35b610344610365366004611bcc565b60156020526000908152604090205481565b61038a610385366004611d15565b610809565b6040516001600160a01b03909116815260200161034e565b61033e6103b0366004611d41565b6109e1565b610344600c5481565b61038a7f000000000000000000000000000000000000000000000000000000000000000081565b61033e6103f3366004611e03565b610b9f565b610344600a5481565b60005461038a906001600160a01b031681565b61033e610422366004611c06565b610c01565b61038a610435366004611bcc565b6013602052600090815260409020546001600160a01b031681565b61033e61045e366004611ce0565b610cd8565b61034460055481565b61033e61047a366004611e03565b610d68565b61033e61048d366004611bcc565b610dca565b61034460075481565b6103446104a9366004611bcc565b60176020526000908152604090205481565b61033e6104c9366004611d41565b610e45565b61033e6104dc366004611bcc565b610fcf565b610344600e5481565b61033e6104f8366004611bcc565b61104a565b60025461038a906001600160a01b031681565b60015461038a906001600160a01b031681565b60035461038a906001600160a01b031681565b61033e610544366004611d41565b6110ec565b61038a7f000000000000000000000000000000000000000000000000000000000000000081565b61033e61057e366004611e03565b611276565b61033e610591366004611bcc565b611306565b6105b96105a4366004611bcc565b60116020526000908152604090205460ff1681565b604051901515815260200161034e565b61038a7f000000000000000000000000000000000000000000000000000000000000000081565b61033e6105fe366004611e03565b6113a8565b61033e610611366004611bcc565b61140a565b61033e610624366004611d15565b6114ac565b610344610637366004611bcc565b61157b565b61038a61064a366004611e03565b61161e565b61033e61065d366004611e03565b611648565b610344610670366004611bcc565b60126020526000908152604090205481565b610344600b5481565b610344610699366004611bcc565b60146020526000908152604090205481565b60085461038a906001600160a01b031681565b60065461038a906001600160a01b031681565b610344600d5481565b61033e6106e8366004611d41565b6116d8565b61033e6106fb366004611bcc565b611862565b61033e61070e366004611e03565b611904565b61033e610721366004611bcc565b611966565b61033e610734366004611bcc565b611a08565b61033e610747366004611e03565b611aaa565b60095461038a906001600160a01b031681565b610344600f5481565b60045461038a906001600160a01b031681565b610344610789366004611bcc565b60166020526000908152604090205481565b6000546001600160a01b031633146107cd5760405163a59d7f4d60e01b81523360048201526024015b60405180910390fd5b600a8190556040518181527fc6ea9765bcfa0141a8ae379f2095c41676ac19b776f813d3f9470083803602a7906020015b60405180910390a150565b600080546001600160a01b031633146108375760405163a59d7f4d60e01b81523360048201526024016107c4565b506001600160a01b038083166000908152601360205260409020541680156108855760405163084252d560e11b81526001600160a01b038085166004830152821660248201526044016107c4565b6040516327c74f7f60e01b81526001600160a01b038481166004830152602482018490527f000000000000000000000000000000000000000000000000000000000000000016906327c74f7f90604401602060405180830381600087803b1580156108ef57600080fd5b505af1158015610903573d6000803e3d6000fd5b505050506040513d601f19601f820116820180604052508101906109279190611be9565b601080546001810182557f1b6847dc741a1b0cd08d278845f9d819d87b734759afb55fe2de5cb82a9ae6720180546001600160a01b03199081166001600160a01b038581169182179093558354600082815260126020908152604080832093909355948a168082526013865290829020805490941683179093559354845188815293840152939450917f2b441112f88ae4b324ae75fa72f06e95a0bda7bca0621af0cceae2e36b80c909910160405180910390a392915050565b6000546001600160a01b03163314610a0e5760405163a59d7f4d60e01b81523360048201526024016107c4565b8051825114610a3d578151815160405163574092f960e01b8152600481019290925260248201526044016107c4565b60005b8251811015610b9a57612710828281518110610a5e57610a5e611f2c565b60200260200101511115610aad57818181518110610a7e57610a7e611f2c565b6020026020010151612710604051637150bba160e01b81526004016107c4929190918252602082015260400190565b818181518110610abf57610abf611f2c565b602002602001015160156000858481518110610add57610add611f2c565b60200260200101516001600160a01b03166001600160a01b03168152602001908152602001600020819055507f8add957a7db6c1e209aa088c73a62080ac8d87df445a42425edc183b0d2b3a45838281518110610b3c57610b3c611f2c565b6020026020010151838381518110610b5657610b56611f2c565b6020026020010151604051610b809291906001600160a01b03929092168252602082015260400190565b60405180910390a180610b9281611f03565b915050610a40565b505050565b6000546001600160a01b03163314610bcc5760405163a59d7f4d60e01b81523360048201526024016107c4565b600b8190556040518181527ff08490e6d193bbfc8ad4250871b2ae2e139889261e6276d69d77eb0be7848cc7906020016107fe565b6000546001600160a01b03163314610c2e5760405163a59d7f4d60e01b81523360048201526024016107c4565b6001600160a01b038084166000908152601360205260409020541680610c7257604051633f36c1ab60e01b81526001600160a01b03851660048201526024016107c4565b6040516332196a0160e01b81526001600160a01b038216906332196a0190610ca09086908690600401611e35565b600060405180830381600087803b158015610cba57600080fd5b505af1158015610cce573d6000803e3d6000fd5b5050505050505050565b6000546001600160a01b03163314610d055760405163a59d7f4d60e01b81523360048201526024016107c4565b6001600160a01b038216600081815260116020908152604091829020805460ff19168515159081179091558251938452908301527f1618a22a3b00b9ac70fd5a82f1f5cdd8cb272bd0f1b740ddf7c26ab05881dd5b910160405180910390a15050565b6000546001600160a01b03163314610d955760405163a59d7f4d60e01b81523360048201526024016107c4565b60078190556040518181527f37740cd8864334fffe6b06452e32307736156de02df2d346c4ef77d649827f32906020016107fe565b6000546001600160a01b03163314610df75760405163a59d7f4d60e01b81523360048201526024016107c4565b600880546001600160a01b0319166001600160a01b0383169081179091556040519081527ff11afbeac1d4f4dd22e57c9a7e0f2609bb76b858a038c0a5b45593887c86bd55906020016107fe565b6000546001600160a01b03163314610e725760405163a59d7f4d60e01b81523360048201526024016107c4565b8051825114610ea1578151815160405163574092f960e01b8152600481019290925260248201526044016107c4565b60005b8251811015610b9a57612710828281518110610ec257610ec2611f2c565b60200260200101511115610ee257818181518110610a7e57610a7e611f2c565b818181518110610ef457610ef4611f2c565b602002602001015160146000858481518110610f1257610f12611f2c565b60200260200101516001600160a01b03166001600160a01b03168152602001908152602001600020819055507f44d431e2f3cdcfd17ac59dba4b434d2cb8b7d98ec61f6932e706b8d5229ff652838281518110610f7157610f71611f2c565b6020026020010151838381518110610f8b57610f8b611f2c565b6020026020010151604051610fb59291906001600160a01b03929092168252602082015260400190565b60405180910390a180610fc781611f03565b915050610ea4565b6000546001600160a01b03163314610ffc5760405163a59d7f4d60e01b81523360048201526024016107c4565b600980546001600160a01b0319166001600160a01b0383169081179091556040519081527f7e3d013374f40dc62cec68879efd2d50157b93dfe8fb48bb716e53172e5b0f94906020016107fe565b6000546001600160a01b031633146110775760405163a59d7f4d60e01b81523360048201526024016107c4565b6001600160a01b03811661109e5760405163d92e233d60e01b815260040160405180910390fd5b600280546001600160a01b0319166001600160a01b0383169081179091556040519081527ff724a45d041687842411f2b977ef22ab8f43c8f1104f4592b42a00f9b34a643d906020016107fe565b6000546001600160a01b031633146111195760405163a59d7f4d60e01b81523360048201526024016107c4565b8051825114611148578151815160405163574092f960e01b8152600481019290925260248201526044016107c4565b60005b8251811015610b9a5761271082828151811061116957611169611f2c565b6020026020010151111561118957818181518110610a7e57610a7e611f2c565b81818151811061119b5761119b611f2c565b6020026020010151601760008584815181106111b9576111b9611f2c565b60200260200101516001600160a01b03166001600160a01b03168152602001908152602001600020819055507f0b2fbf1cb794ef27c93f2189ce22f82871c05ecfb1d103d7d7bb7090118dc1c683828151811061121857611218611f2c565b602002602001015183838151811061123257611232611f2c565b602002602001015160405161125c9291906001600160a01b03929092168252602082015260400190565b60405180910390a18061126e81611f03565b91505061114b565b6000546001600160a01b031633146112a35760405163a59d7f4d60e01b81523360048201526024016107c4565b6127108110156112d15760405163102a6c2760e01b81526004810182905261271060248201526044016107c4565b600e8190556040518181527f76ac3f03024a7eaac1162b2497ce4f632a0fe15eac444f9b01fff9620a166c25906020016107fe565b6000546001600160a01b031633146113335760405163a59d7f4d60e01b81523360048201526024016107c4565b6001600160a01b03811661135a5760405163d92e233d60e01b815260040160405180910390fd5b600180546001600160a01b0319166001600160a01b0383169081179091556040519081527f193361fce04ed0c4e2cb4638cdc21c56d4313f5066142224555c49d3933e7ca4906020016107fe565b6000546001600160a01b031633146113d55760405163a59d7f4d60e01b81523360048201526024016107c4565b600c8190556040518181527fbc1e854438813a1eff88fabe13d9c164009f178d581d45e9a557f037f957b491906020016107fe565b6000546001600160a01b031633146114375760405163a59d7f4d60e01b81523360048201526024016107c4565b6001600160a01b03811661145e5760405163d92e233d60e01b815260040160405180910390fd5b600380546001600160a01b0319166001600160a01b0383169081179091556040519081527fed2325536fb5243d4b19d1781d46658efaf1b668c1d8a693d050be0dd1cbfd30906020016107fe565b6000546001600160a01b031633146114d95760405163a59d7f4d60e01b81523360048201526024016107c4565b6001600160a01b03808316600090815260136020526040902054168061151d57604051633f36c1ab60e01b81526001600160a01b03841660048201526024016107c4565b60405162e8433960e51b8152600481018390526001600160a01b03821690631d08672090602401600060405180830381600087803b15801561155e57600080fd5b505af1158015611572573d6000803e3d6000fd5b50505050505050565b6001600160a01b03808216600090815260136020526040812054909116806115a65750600092915050565b806001600160a01b031663c392f7666040518163ffffffff1660e01b815260040160206040518083038186803b1580156115df57600080fd5b505afa1580156115f3573d6000803e3d6000fd5b505050506040513d601f19601f820116820180604052508101906116179190611e1c565b9392505050565b6010818154811061162e57600080fd5b6000918252602090912001546001600160a01b0316905081565b6000546001600160a01b031633146116755760405163a59d7f4d60e01b81523360048201526024016107c4565b6127108111156116a357604051637150bba160e01b81526004810182905261271060248201526044016107c4565b60058190556040518181527f43c0669c98845a19f0c83c170dafac37d88ab6841d159a3b478365715e09a119906020016107fe565b6000546001600160a01b031633146117055760405163a59d7f4d60e01b81523360048201526024016107c4565b8051825114611734578151815160405163574092f960e01b8152600481019290925260248201526044016107c4565b60005b8251811015610b9a5761271082828151811061175557611755611f2c565b6020026020010151111561177557818181518110610a7e57610a7e611f2c565b81818151811061178757611787611f2c565b6020026020010151601660008584815181106117a5576117a5611f2c565b60200260200101516001600160a01b03166001600160a01b03168152602001908152602001600020819055507f95ce88c220684eb1cbfa29b8c489102dd6ac38a615bd9f16c996786636ebb9ca83828151811061180457611804611f2c565b602002602001015183838151811061181e5761181e611f2c565b60200260200101516040516118489291906001600160a01b03929092168252602082015260400190565b60405180910390a18061185a81611f03565b915050611737565b6000546001600160a01b0316331461188f5760405163a59d7f4d60e01b81523360048201526024016107c4565b6001600160a01b0381166118b65760405163d92e233d60e01b815260040160405180910390fd5b600080546001600160a01b0319166001600160a01b0383169081179091556040519081527f54a6385aa0292b04e1ef8513253c17d1863f7cdfc87029d77fd55cc4c2e717e2906020016107fe565b6000546001600160a01b031633146119315760405163a59d7f4d60e01b81523360048201526024016107c4565b600d8190556040518181527f0b2ddbbbc17f5fc2d90c43b399e48d7a3d677da0218cd35a024df8a39350bd25906020016107fe565b6000546001600160a01b031633146119935760405163a59d7f4d60e01b81523360048201526024016107c4565b6001600160a01b0381166119ba5760405163d92e233d60e01b815260040160405180910390fd5b600480546001600160a01b0319166001600160a01b0383169081179091556040519081527f97011acc091d73d67f71ff78bdb3837ce0103f4a52e95b01f50a28b9f7821ba6906020016107fe565b6000546001600160a01b03163314611a355760405163a59d7f4d60e01b81523360048201526024016107c4565b6001600160a01b038116611a5c5760405163d92e233d60e01b815260040160405180910390fd5b600680546001600160a01b0319166001600160a01b0383169081179091556040519081527f59862d5b8f7ef1d8356d180654086286a04107247706e45b034f1fac0b3f7dec906020016107fe565b6000546001600160a01b03163314611ad75760405163a59d7f4d60e01b81523360048201526024016107c4565b62015180811015611b075760405163102a6c2760e01b8152600481018290526201518060248201526044016107c4565b600f8190556040518181527f3b655fff5646f76885baca7e1dadf8b8e0095ff01de8f96a0cf75c8d8cfb53d8906020016107fe565b600082601f830112611b4d57600080fd5b81356020611b62611b5d83611edf565b611eae565b80838252828201915082860187848660051b8901011115611b8257600080fd5b60005b85811015611baa578135611b9881611f58565b84529284019290840190600101611b85565b5090979650505050505050565b80358015158114611bc757600080fd5b919050565b600060208284031215611bde57600080fd5b813561161781611f58565b600060208284031215611bfb57600080fd5b815161161781611f58565b600080600060608486031215611c1b57600080fd5b8335611c2681611f58565b925060208481013567ffffffffffffffff80821115611c4457600080fd5b611c5088838901611b3c565b94506040870135915080821115611c6657600080fd5b508501601f81018713611c7857600080fd5b8035611c86611b5d82611edf565b8082825284820191508484018a868560051b8701011115611ca657600080fd5b600094505b83851015611cd057611cbc81611bb7565b835260019490940193918501918501611cab565b5080955050505050509250925092565b60008060408385031215611cf357600080fd5b8235611cfe81611f58565b9150611d0c60208401611bb7565b90509250929050565b60008060408385031215611d2857600080fd5b8235611d3381611f58565b946020939093013593505050565b60008060408385031215611d5457600080fd5b823567ffffffffffffffff80821115611d6c57600080fd5b611d7886838701611b3c565b9350602091508185013581811115611d8f57600080fd5b85019050601f81018613611da257600080fd5b8035611db0611b5d82611edf565b80828252848201915084840189868560051b8701011115611dd057600080fd5b600094505b83851015611df3578035835260019490940193918501918501611dd5565b5080955050505050509250929050565b600060208284031215611e1557600080fd5b5035919050565b600060208284031215611e2e57600080fd5b5051919050565b604080825283519082018190526000906020906060840190828701845b82811015611e775781516001600160a01b031684529284019290840190600101611e52565b5050508381038285015284518082528583019183019060005b81811015611baa578351151583529284019291840191600101611e90565b604051601f8201601f1916810167ffffffffffffffff81118282101715611ed757611ed7611f42565b604052919050565b600067ffffffffffffffff821115611ef957611ef9611f42565b5060051b60200190565b6000600019821415611f2557634e487b7160e01b600052601160045260246000fd5b5060010190565b634e487b7160e01b600052603260045260246000fd5b634e487b7160e01b600052604160045260246000fd5b6001600160a01b0381168114611f6d57600080fd5b5056fea26469706673582212207adca7056b1fe12db00b4559f1e522fd5165f76d0d9de2133886bd153aaaeca064736f6c63430008070033","opcodes":"PUSH1 0xE0 PUSH1 0x40 MSTORE CALLVALUE DUP1 ISZERO PUSH3 0x11 JUMPI PUSH1 0x0 DUP1 REVERT JUMPDEST POP PUSH1 0x40 MLOAD PUSH3 0x2139 CODESIZE SUB DUP1 PUSH3 0x2139 DUP4 CODECOPY DUP2 ADD PUSH1 0x40 DUP2 SWAP1 MSTORE PUSH3 0x34 SWAP2 PUSH3 0xD2 JUMP JUMPDEST PUSH1 0x1 PUSH1 0x1 PUSH1 0x60 SHL SUB NOT PUSH1 0x60 SWAP7 DUP8 SHL DUP2 AND PUSH1 0x80 MSTORE SWAP5 DUP7 SHL DUP6 AND PUSH1 0xA0 MSTORE SWAP3 SWAP1 SWAP5 SHL SWAP1 SWAP3 AND PUSH1 0xC0 MSTORE PUSH1 0x1 DUP1 SLOAD PUSH1 0x1 PUSH1 0x1 PUSH1 0xA0 SHL SUB SWAP4 DUP5 AND PUSH1 0x1 PUSH1 0x1 PUSH1 0xA0 SHL SUB NOT SWAP2 DUP3 AND OR SWAP1 SWAP2 SSTORE PUSH1 0x2 DUP1 SLOAD SWAP5 DUP5 AND SWAP5 DUP3 AND SWAP5 SWAP1 SWAP5 OR SWAP1 SWAP4 SSTORE PUSH1 0x3 DUP1 SLOAD SWAP2 SWAP1 SWAP3 AND SWAP1 DUP4 AND OR SWAP1 SSTORE PUSH1 0x0 DUP1 SLOAD SWAP1 SWAP2 AND CALLER OR SWAP1 SSTORE PUSH2 0x2710 PUSH1 0xE SSTORE PUSH3 0x15180 PUSH1 0xF SSTORE PUSH3 0x153 JUMP JUMPDEST DUP1 MLOAD PUSH1 0x1 PUSH1 0x1 PUSH1 0xA0 SHL SUB DUP2 AND DUP2 EQ PUSH3 0xCD JUMPI PUSH1 0x0 DUP1 REVERT JUMPDEST SWAP2 SWAP1 POP JUMP JUMPDEST PUSH1 0x0 DUP1 PUSH1 0x0 DUP1 PUSH1 0x0 DUP1 PUSH1 0xC0 DUP8 DUP10 SUB SLT ISZERO PUSH3 0xEC JUMPI PUSH1 0x0 DUP1 REVERT JUMPDEST PUSH3 0xF7 DUP8 PUSH3 0xB5 JUMP JUMPDEST SWAP6 POP PUSH3 0x107 PUSH1 0x20 DUP9 ADD PUSH3 0xB5 JUMP JUMPDEST SWAP5 POP PUSH3 0x117 PUSH1 0x40 DUP9 ADD PUSH3 0xB5 JUMP JUMPDEST SWAP4 POP PUSH3 0x127 PUSH1 0x60 DUP9 ADD PUSH3 0xB5 JUMP JUMPDEST SWAP3 POP PUSH3 0x137 PUSH1 0x80 DUP9 ADD PUSH3 0xB5 JUMP JUMPDEST SWAP2 POP PUSH3 0x147 PUSH1 0xA0 DUP9 ADD PUSH3 0xB5 JUMP JUMPDEST SWAP1 POP SWAP3 SWAP6 POP SWAP3 SWAP6 POP SWAP3 SWAP6 JUMP JUMPDEST PUSH1 0x80 MLOAD PUSH1 0x60 SHR PUSH1 0xA0 MLOAD PUSH1 0x60 SHR PUSH1 0xC0 MLOAD PUSH1 0x60 SHR PUSH2 0x1FA6 PUSH3 0x193 PUSH1 0x0 CODECOPY PUSH1 0x0 PUSH2 0x5CE ADD MSTORE PUSH1 0x0 PUSH2 0x54E ADD MSTORE PUSH1 0x0 DUP2 DUP2 PUSH2 0x3C3 ADD MSTORE PUSH2 0x8AB ADD MSTORE PUSH2 0x1FA6 PUSH1 0x0 RETURN INVALID PUSH1 0x80 PUSH1 0x40 MSTORE CALLVALUE DUP1 ISZERO PUSH2 0x10 JUMPI PUSH1 0x0 DUP1 REVERT JUMPDEST POP PUSH1 0x4 CALLDATASIZE LT PUSH2 0x326 JUMPI PUSH1 0x0 CALLDATALOAD PUSH1 0xE0 SHR DUP1 PUSH4 0x8CD47415 GT PUSH2 0x1B8 JUMPI DUP1 PUSH4 0xB745DB56 GT PUSH2 0x104 JUMPI DUP1 PUSH4 0xE0E6799F GT PUSH2 0xA2 JUMPI DUP1 PUSH4 0xE9A4E7A2 GT PUSH2 0x7C JUMPI DUP1 PUSH4 0xE9A4E7A2 EQ PUSH2 0x74C JUMPI DUP1 PUSH4 0xEDDF82BB EQ PUSH2 0x75F JUMPI DUP1 PUSH4 0xEF369252 EQ PUSH2 0x768 JUMPI DUP1 PUSH4 0xF5D0E175 EQ PUSH2 0x77B JUMPI PUSH1 0x0 DUP1 REVERT JUMPDEST DUP1 PUSH4 0xE0E6799F EQ PUSH2 0x713 JUMPI DUP1 PUSH4 0xE216AB44 EQ PUSH2 0x726 JUMPI DUP1 PUSH4 0xE47EB30C EQ PUSH2 0x739 JUMPI PUSH1 0x0 DUP1 REVERT JUMPDEST DUP1 PUSH4 0xC7900584 GT PUSH2 0xDE JUMPI DUP1 PUSH4 0xC7900584 EQ PUSH2 0x6D1 JUMPI DUP1 PUSH4 0xCA10A33A EQ PUSH2 0x6DA JUMPI DUP1 PUSH4 0xD0EBDBE7 EQ PUSH2 0x6ED JUMPI DUP1 PUSH4 0xDD4FAD93 EQ PUSH2 0x700 JUMPI PUSH1 0x0 DUP1 REVERT JUMPDEST DUP1 PUSH4 0xB745DB56 EQ PUSH2 0x68B JUMPI DUP1 PUSH4 0xB7692968 EQ PUSH2 0x6AB JUMPI DUP1 PUSH4 0xBD2BAE9D EQ PUSH2 0x6BE JUMPI PUSH1 0x0 DUP1 REVERT JUMPDEST DUP1 PUSH4 0xAA6DFE03 GT PUSH2 0x171 JUMPI DUP1 PUSH4 0xAC4AFA38 GT PUSH2 0x14B JUMPI DUP1 PUSH4 0xAC4AFA38 EQ PUSH2 0x63C JUMPI DUP1 PUSH4 0xB13AA2D6 EQ PUSH2 0x64F JUMPI DUP1 PUSH4 0xB42754A5 EQ PUSH2 0x662 JUMPI DUP1 PUSH4 0xB58862E7 EQ PUSH2 0x682 JUMPI PUSH1 0x0 DUP1 REVERT JUMPDEST DUP1 PUSH4 0xAA6DFE03 EQ PUSH2 0x603 JUMPI DUP1 PUSH4 0xAAC9D2B8 EQ PUSH2 0x616 JUMPI DUP1 PUSH4 0xAC436BDF EQ PUSH2 0x629 JUMPI PUSH1 0x0 DUP1 REVERT JUMPDEST DUP1 PUSH4 0x8CD47415 EQ PUSH2 0x549 JUMPI DUP1 PUSH4 0x90F43680 EQ PUSH2 0x570 JUMPI DUP1 PUSH4 0x9142887F EQ PUSH2 0x583 JUMPI DUP1 PUSH4 0x9A307391 EQ PUSH2 0x596 JUMPI DUP1 PUSH4 0xA4FBC0D7 EQ PUSH2 0x5C9 JUMPI DUP1 PUSH4 0xA5E1B628 EQ PUSH2 0x5F0 JUMPI PUSH1 0x0 DUP1 REVERT JUMPDEST DUP1 PUSH4 0x58F85880 GT PUSH2 0x277 JUMPI DUP1 PUSH4 0x662DC319 GT PUSH2 0x230 JUMPI DUP1 PUSH4 0x741BEF1A GT PUSH2 0x20A JUMPI DUP1 PUSH4 0x741BEF1A EQ PUSH2 0x4FD JUMPI DUP1 PUSH4 0x75E58079 EQ PUSH2 0x510 JUMPI DUP1 PUSH4 0x7C21D5E0 EQ PUSH2 0x523 JUMPI DUP1 PUSH4 0x7EB5C200 EQ PUSH2 0x536 JUMPI PUSH1 0x0 DUP1 REVERT JUMPDEST DUP1 PUSH4 0x662DC319 EQ PUSH2 0x4CE JUMPI DUP1 PUSH4 0x6D274553 EQ PUSH2 0x4E1 JUMPI DUP1 PUSH4 0x724E78DA EQ PUSH2 0x4EA JUMPI PUSH1 0x0 DUP1 REVERT JUMPDEST DUP1 PUSH4 0x58F85880 EQ PUSH2 0x463 JUMPI DUP1 PUSH4 0x5D463C30 EQ PUSH2 0x46C JUMPI DUP1 PUSH4 0x5EF21B2F EQ PUSH2 0x47F JUMPI DUP1 PUSH4 0x5FB3B1B5 EQ PUSH2 0x492 JUMPI DUP1 PUSH4 0x5FDE0EC0 EQ PUSH2 0x49B JUMPI DUP1 PUSH4 0x6629B5D4 EQ PUSH2 0x4BB JUMPI PUSH1 0x0 DUP1 REVERT JUMPDEST DUP1 PUSH4 0x3119049A GT PUSH2 0x2E4 JUMPI DUP1 PUSH4 0x481C6A75 GT PUSH2 0x2BE JUMPI DUP1 PUSH4 0x481C6A75 EQ PUSH2 0x401 JUMPI DUP1 PUSH4 0x4D5C262E EQ PUSH2 0x414 JUMPI DUP1 PUSH4 0x4D83BC33 EQ PUSH2 0x427 JUMPI DUP1 PUSH4 0x558A7297 EQ PUSH2 0x450 JUMPI PUSH1 0x0 DUP1 REVERT JUMPDEST DUP1 PUSH4 0x3119049A EQ PUSH2 0x3BE JUMPI DUP1 PUSH4 0x36D6135B EQ PUSH2 0x3E5 JUMPI DUP1 PUSH4 0x3C093037 EQ PUSH2 0x3F8 JUMPI PUSH1 0x0 DUP1 REVERT JUMPDEST DUP1 PUSH3 0x4EF967 EQ PUSH2 0x32B JUMPI DUP1 PUSH4 0x81E3EDA EQ PUSH2 0x340 JUMPI DUP1 PUSH4 0x95BF1BB EQ PUSH2 0x357 JUMPI DUP1 PUSH4 0x12D36171 EQ PUSH2 0x377 JUMPI DUP1 PUSH4 0x1FAA7EBA EQ PUSH2 0x3A2 JUMPI DUP1 PUSH4 0x2A5025B7 EQ PUSH2 0x3B5 JUMPI JUMPDEST PUSH1 0x0 DUP1 REVERT JUMPDEST PUSH2 0x33E PUSH2 0x339 CALLDATASIZE PUSH1 0x4 PUSH2 0x1E03 JUMP JUMPDEST PUSH2 0x79B JUMP JUMPDEST STOP JUMPDEST PUSH1 0x10 SLOAD JUMPDEST PUSH1 0x40 MLOAD SWAP1 DUP2 MSTORE PUSH1 0x20 ADD JUMPDEST PUSH1 0x40 MLOAD DUP1 SWAP2 SUB SWAP1 RETURN JUMPDEST PUSH2 0x344 PUSH2 0x365 CALLDATASIZE PUSH1 0x4 PUSH2 0x1BCC JUMP JUMPDEST PUSH1 0x15 PUSH1 0x20 MSTORE PUSH1 0x0 SWAP1 DUP2 MSTORE PUSH1 0x40 SWAP1 KECCAK256 SLOAD DUP2 JUMP JUMPDEST PUSH2 0x38A PUSH2 0x385 CALLDATASIZE PUSH1 0x4 PUSH2 0x1D15 JUMP JUMPDEST PUSH2 0x809 JUMP JUMPDEST PUSH1 0x40 MLOAD PUSH1 0x1 PUSH1 0x1 PUSH1 0xA0 SHL SUB SWAP1 SWAP2 AND DUP2 MSTORE PUSH1 0x20 ADD PUSH2 0x34E JUMP JUMPDEST PUSH2 0x33E PUSH2 0x3B0 CALLDATASIZE PUSH1 0x4 PUSH2 0x1D41 JUMP JUMPDEST PUSH2 0x9E1 JUMP JUMPDEST PUSH2 0x344 PUSH1 0xC SLOAD DUP2 JUMP JUMPDEST PUSH2 0x38A PUSH32 0x0 DUP2 JUMP JUMPDEST PUSH2 0x33E PUSH2 0x3F3 CALLDATASIZE PUSH1 0x4 PUSH2 0x1E03 JUMP JUMPDEST PUSH2 0xB9F JUMP JUMPDEST PUSH2 0x344 PUSH1 0xA SLOAD DUP2 JUMP JUMPDEST PUSH1 0x0 SLOAD PUSH2 0x38A SWAP1 PUSH1 0x1 PUSH1 0x1 PUSH1 0xA0 SHL SUB AND DUP2 JUMP JUMPDEST PUSH2 0x33E PUSH2 0x422 CALLDATASIZE PUSH1 0x4 PUSH2 0x1C06 JUMP JUMPDEST PUSH2 0xC01 JUMP JUMPDEST PUSH2 0x38A PUSH2 0x435 CALLDATASIZE PUSH1 0x4 PUSH2 0x1BCC JUMP JUMPDEST PUSH1 0x13 PUSH1 0x20 MSTORE PUSH1 0x0 SWAP1 DUP2 MSTORE PUSH1 0x40 SWAP1 KECCAK256 SLOAD PUSH1 0x1 PUSH1 0x1 PUSH1 0xA0 SHL SUB AND DUP2 JUMP JUMPDEST PUSH2 0x33E PUSH2 0x45E CALLDATASIZE PUSH1 0x4 PUSH2 0x1CE0 JUMP JUMPDEST PUSH2 0xCD8 JUMP JUMPDEST PUSH2 0x344 PUSH1 0x5 SLOAD DUP2 JUMP JUMPDEST PUSH2 0x33E PUSH2 0x47A CALLDATASIZE PUSH1 0x4 PUSH2 0x1E03 JUMP JUMPDEST PUSH2 0xD68 JUMP JUMPDEST PUSH2 0x33E PUSH2 0x48D CALLDATASIZE PUSH1 0x4 PUSH2 0x1BCC JUMP JUMPDEST PUSH2 0xDCA JUMP JUMPDEST PUSH2 0x344 PUSH1 0x7 SLOAD DUP2 JUMP JUMPDEST PUSH2 0x344 PUSH2 0x4A9 CALLDATASIZE PUSH1 0x4 PUSH2 0x1BCC JUMP JUMPDEST PUSH1 0x17 PUSH1 0x20 MSTORE PUSH1 0x0 SWAP1 DUP2 MSTORE PUSH1 0x40 SWAP1 KECCAK256 SLOAD DUP2 JUMP JUMPDEST PUSH2 0x33E PUSH2 0x4C9 CALLDATASIZE PUSH1 0x4 PUSH2 0x1D41 JUMP JUMPDEST PUSH2 0xE45 JUMP JUMPDEST PUSH2 0x33E PUSH2 0x4DC CALLDATASIZE PUSH1 0x4 PUSH2 0x1BCC JUMP JUMPDEST PUSH2 0xFCF JUMP JUMPDEST PUSH2 0x344 PUSH1 0xE SLOAD DUP2 JUMP JUMPDEST PUSH2 0x33E PUSH2 0x4F8 CALLDATASIZE PUSH1 0x4 PUSH2 0x1BCC JUMP JUMPDEST PUSH2 0x104A JUMP JUMPDEST PUSH1 0x2 SLOAD PUSH2 0x38A SWAP1 PUSH1 0x1 PUSH1 0x1 PUSH1 0xA0 SHL SUB AND DUP2 JUMP JUMPDEST PUSH1 0x1 SLOAD PUSH2 0x38A SWAP1 PUSH1 0x1 PUSH1 0x1 PUSH1 0xA0 SHL SUB AND DUP2 JUMP JUMPDEST PUSH1 0x3 SLOAD PUSH2 0x38A SWAP1 PUSH1 0x1 PUSH1 0x1 PUSH1 0xA0 SHL SUB AND DUP2 JUMP JUMPDEST PUSH2 0x33E PUSH2 0x544 CALLDATASIZE PUSH1 0x4 PUSH2 0x1D41 JUMP JUMPDEST PUSH2 0x10EC JUMP JUMPDEST PUSH2 0x38A PUSH32 0x0 DUP2 JUMP JUMPDEST PUSH2 0x33E PUSH2 0x57E CALLDATASIZE PUSH1 0x4 PUSH2 0x1E03 JUMP JUMPDEST PUSH2 0x1276 JUMP JUMPDEST PUSH2 0x33E PUSH2 0x591 CALLDATASIZE PUSH1 0x4 PUSH2 0x1BCC JUMP JUMPDEST PUSH2 0x1306 JUMP JUMPDEST PUSH2 0x5B9 PUSH2 0x5A4 CALLDATASIZE PUSH1 0x4 PUSH2 0x1BCC JUMP JUMPDEST PUSH1 0x11 PUSH1 0x20 MSTORE PUSH1 0x0 SWAP1 DUP2 MSTORE PUSH1 0x40 SWAP1 KECCAK256 SLOAD PUSH1 0xFF AND DUP2 JUMP JUMPDEST PUSH1 0x40 MLOAD SWAP1 ISZERO ISZERO DUP2 MSTORE PUSH1 0x20 ADD PUSH2 0x34E JUMP JUMPDEST PUSH2 0x38A PUSH32 0x0 DUP2 JUMP JUMPDEST PUSH2 0x33E PUSH2 0x5FE CALLDATASIZE PUSH1 0x4 PUSH2 0x1E03 JUMP JUMPDEST PUSH2 0x13A8 JUMP JUMPDEST PUSH2 0x33E PUSH2 0x611 CALLDATASIZE PUSH1 0x4 PUSH2 0x1BCC JUMP JUMPDEST PUSH2 0x140A JUMP JUMPDEST PUSH2 0x33E PUSH2 0x624 CALLDATASIZE PUSH1 0x4 PUSH2 0x1D15 JUMP JUMPDEST PUSH2 0x14AC JUMP JUMPDEST PUSH2 0x344 PUSH2 0x637 CALLDATASIZE PUSH1 0x4 PUSH2 0x1BCC JUMP JUMPDEST PUSH2 0x157B JUMP JUMPDEST PUSH2 0x38A PUSH2 0x64A CALLDATASIZE PUSH1 0x4 PUSH2 0x1E03 JUMP JUMPDEST PUSH2 0x161E JUMP JUMPDEST PUSH2 0x33E PUSH2 0x65D CALLDATASIZE PUSH1 0x4 PUSH2 0x1E03 JUMP JUMPDEST PUSH2 0x1648 JUMP JUMPDEST PUSH2 0x344 PUSH2 0x670 CALLDATASIZE PUSH1 0x4 PUSH2 0x1BCC JUMP JUMPDEST PUSH1 0x12 PUSH1 0x20 MSTORE PUSH1 0x0 SWAP1 DUP2 MSTORE PUSH1 0x40 SWAP1 KECCAK256 SLOAD DUP2 JUMP JUMPDEST PUSH2 0x344 PUSH1 0xB SLOAD DUP2 JUMP JUMPDEST PUSH2 0x344 PUSH2 0x699 CALLDATASIZE PUSH1 0x4 PUSH2 0x1BCC JUMP JUMPDEST PUSH1 0x14 PUSH1 0x20 MSTORE PUSH1 0x0 SWAP1 DUP2 MSTORE PUSH1 0x40 SWAP1 KECCAK256 SLOAD DUP2 JUMP JUMPDEST PUSH1 0x8 SLOAD PUSH2 0x38A SWAP1 PUSH1 0x1 PUSH1 0x1 PUSH1 0xA0 SHL SUB AND DUP2 JUMP JUMPDEST PUSH1 0x6 SLOAD PUSH2 0x38A SWAP1 PUSH1 0x1 PUSH1 0x1 PUSH1 0xA0 SHL SUB AND DUP2 JUMP JUMPDEST PUSH2 0x344 PUSH1 0xD SLOAD DUP2 JUMP JUMPDEST PUSH2 0x33E PUSH2 0x6E8 CALLDATASIZE PUSH1 0x4 PUSH2 0x1D41 JUMP JUMPDEST PUSH2 0x16D8 JUMP JUMPDEST PUSH2 0x33E PUSH2 0x6FB CALLDATASIZE PUSH1 0x4 PUSH2 0x1BCC JUMP JUMPDEST PUSH2 0x1862 JUMP JUMPDEST PUSH2 0x33E PUSH2 0x70E CALLDATASIZE PUSH1 0x4 PUSH2 0x1E03 JUMP JUMPDEST PUSH2 0x1904 JUMP JUMPDEST PUSH2 0x33E PUSH2 0x721 CALLDATASIZE PUSH1 0x4 PUSH2 0x1BCC JUMP JUMPDEST PUSH2 0x1966 JUMP JUMPDEST PUSH2 0x33E PUSH2 0x734 CALLDATASIZE PUSH1 0x4 PUSH2 0x1BCC JUMP JUMPDEST PUSH2 0x1A08 JUMP JUMPDEST PUSH2 0x33E PUSH2 0x747 CALLDATASIZE PUSH1 0x4 PUSH2 0x1E03 JUMP JUMPDEST PUSH2 0x1AAA JUMP JUMPDEST PUSH1 0x9 SLOAD PUSH2 0x38A SWAP1 PUSH1 0x1 PUSH1 0x1 PUSH1 0xA0 SHL SUB AND DUP2 JUMP JUMPDEST PUSH2 0x344 PUSH1 0xF SLOAD DUP2 JUMP JUMPDEST PUSH1 0x4 SLOAD PUSH2 0x38A SWAP1 PUSH1 0x1 PUSH1 0x1 PUSH1 0xA0 SHL SUB AND DUP2 JUMP JUMPDEST PUSH2 0x344 PUSH2 0x789 CALLDATASIZE PUSH1 0x4 PUSH2 0x1BCC JUMP JUMPDEST PUSH1 0x16 PUSH1 0x20 MSTORE PUSH1 0x0 SWAP1 DUP2 MSTORE PUSH1 0x40 SWAP1 KECCAK256 SLOAD DUP2 JUMP JUMPDEST PUSH1 0x0 SLOAD PUSH1 0x1 PUSH1 0x1 PUSH1 0xA0 SHL SUB AND CALLER EQ PUSH2 0x7CD JUMPI PUSH1 0x40 MLOAD PUSH4 0xA59D7F4D PUSH1 0xE0 SHL DUP2 MSTORE CALLER PUSH1 0x4 DUP3 ADD MSTORE PUSH1 0x24 ADD JUMPDEST PUSH1 0x40 MLOAD DUP1 SWAP2 SUB SWAP1 REVERT JUMPDEST PUSH1 0xA DUP2 SWAP1 SSTORE PUSH1 0x40 MLOAD DUP2 DUP2 MSTORE PUSH32 0xC6EA9765BCFA0141A8AE379F2095C41676AC19B776F813D3F9470083803602A7 SWAP1 PUSH1 0x20 ADD JUMPDEST PUSH1 0x40 MLOAD DUP1 SWAP2 SUB SWAP1 LOG1 POP JUMP JUMPDEST PUSH1 0x0 DUP1 SLOAD PUSH1 0x1 PUSH1 0x1 PUSH1 0xA0 SHL SUB AND CALLER EQ PUSH2 0x837 JUMPI PUSH1 0x40 MLOAD PUSH4 0xA59D7F4D PUSH1 0xE0 SHL DUP2 MSTORE CALLER PUSH1 0x4 DUP3 ADD MSTORE PUSH1 0x24 ADD PUSH2 0x7C4 JUMP JUMPDEST POP PUSH1 0x1 PUSH1 0x1 PUSH1 0xA0 SHL SUB DUP1 DUP4 AND PUSH1 0x0 SWAP1 DUP2 MSTORE PUSH1 0x13 PUSH1 0x20 MSTORE PUSH1 0x40 SWAP1 KECCAK256 SLOAD AND DUP1 ISZERO PUSH2 0x885 JUMPI PUSH1 0x40 MLOAD PUSH4 0x84252D5 PUSH1 0xE1 SHL DUP2 MSTORE PUSH1 0x1 PUSH1 0x1 PUSH1 0xA0 SHL SUB DUP1 DUP6 AND PUSH1 0x4 DUP4 ADD MSTORE DUP3 AND PUSH1 0x24 DUP3 ADD MSTORE PUSH1 0x44 ADD PUSH2 0x7C4 JUMP JUMPDEST PUSH1 0x40 MLOAD PUSH4 0x27C74F7F PUSH1 0xE0 SHL DUP2 MSTORE PUSH1 0x1 PUSH1 0x1 PUSH1 0xA0 SHL SUB DUP5 DUP2 AND PUSH1 0x4 DUP4 ADD MSTORE PUSH1 0x24 DUP3 ADD DUP5 SWAP1 MSTORE PUSH32 0x0 AND SWAP1 PUSH4 0x27C74F7F SWAP1 PUSH1 0x44 ADD PUSH1 0x20 PUSH1 0x40 MLOAD DUP1 DUP4 SUB DUP2 PUSH1 0x0 DUP8 DUP1 EXTCODESIZE ISZERO DUP1 ISZERO PUSH2 0x8EF JUMPI PUSH1 0x0 DUP1 REVERT JUMPDEST POP GAS CALL ISZERO DUP1 ISZERO PUSH2 0x903 JUMPI RETURNDATASIZE PUSH1 0x0 DUP1 RETURNDATACOPY RETURNDATASIZE PUSH1 0x0 REVERT JUMPDEST POP POP POP POP PUSH1 0x40 MLOAD RETURNDATASIZE PUSH1 0x1F NOT PUSH1 0x1F DUP3 ADD AND DUP3 ADD DUP1 PUSH1 0x40 MSTORE POP DUP2 ADD SWAP1 PUSH2 0x927 SWAP2 SWAP1 PUSH2 0x1BE9 JUMP JUMPDEST PUSH1 0x10 DUP1 SLOAD PUSH1 0x1 DUP2 ADD DUP3 SSTORE PUSH32 0x1B6847DC741A1B0CD08D278845F9D819D87B734759AFB55FE2DE5CB82A9AE672 ADD DUP1 SLOAD PUSH1 0x1 PUSH1 0x1 PUSH1 0xA0 SHL SUB NOT SWAP1 DUP2 AND PUSH1 0x1 PUSH1 0x1 PUSH1 0xA0 SHL SUB DUP6 DUP2 AND SWAP2 DUP3 OR SWAP1 SWAP4 SSTORE DUP4 SLOAD PUSH1 0x0 DUP3 DUP2 MSTORE PUSH1 0x12 PUSH1 0x20 SWAP1 DUP2 MSTORE PUSH1 0x40 DUP1 DUP4 KECCAK256 SWAP4 SWAP1 SWAP4 SSTORE SWAP5 DUP11 AND DUP1 DUP3 MSTORE PUSH1 0x13 DUP7 MSTORE SWAP1 DUP3 SWAP1 KECCAK256 DUP1 SLOAD SWAP1 SWAP5 AND DUP4 OR SWAP1 SWAP4 SSTORE SWAP4 SLOAD DUP5 MLOAD DUP9 DUP2 MSTORE SWAP4 DUP5 ADD MSTORE SWAP4 SWAP5 POP SWAP2 PUSH32 0x2B441112F88AE4B324AE75FA72F06E95A0BDA7BCA0621AF0CCEAE2E36B80C909 SWAP2 ADD PUSH1 0x40 MLOAD DUP1 SWAP2 SUB SWAP1 LOG3 SWAP3 SWAP2 POP POP JUMP JUMPDEST PUSH1 0x0 SLOAD PUSH1 0x1 PUSH1 0x1 PUSH1 0xA0 SHL SUB AND CALLER EQ PUSH2 0xA0E JUMPI PUSH1 0x40 MLOAD PUSH4 0xA59D7F4D PUSH1 0xE0 SHL DUP2 MSTORE CALLER PUSH1 0x4 DUP3 ADD MSTORE PUSH1 0x24 ADD PUSH2 0x7C4 JUMP JUMPDEST DUP1 MLOAD DUP3 MLOAD EQ PUSH2 0xA3D JUMPI DUP2 MLOAD DUP2 MLOAD PUSH1 0x40 MLOAD PUSH4 0x574092F9 PUSH1 0xE0 SHL DUP2 MSTORE PUSH1 0x4 DUP2 ADD SWAP3 SWAP1 SWAP3 MSTORE PUSH1 0x24 DUP3 ADD MSTORE PUSH1 0x44 ADD PUSH2 0x7C4 JUMP JUMPDEST PUSH1 0x0 JUMPDEST DUP3 MLOAD DUP2 LT ISZERO PUSH2 0xB9A JUMPI PUSH2 0x2710 DUP3 DUP3 DUP2 MLOAD DUP2 LT PUSH2 0xA5E JUMPI PUSH2 0xA5E PUSH2 0x1F2C JUMP JUMPDEST PUSH1 0x20 MUL PUSH1 0x20 ADD ADD MLOAD GT ISZERO PUSH2 0xAAD JUMPI DUP2 DUP2 DUP2 MLOAD DUP2 LT PUSH2 0xA7E JUMPI PUSH2 0xA7E PUSH2 0x1F2C JUMP JUMPDEST PUSH1 0x20 MUL PUSH1 0x20 ADD ADD MLOAD PUSH2 0x2710 PUSH1 0x40 MLOAD PUSH4 0x7150BBA1 PUSH1 0xE0 SHL DUP2 MSTORE PUSH1 0x4 ADD PUSH2 0x7C4 SWAP3 SWAP2 SWAP1 SWAP2 DUP3 MSTORE PUSH1 0x20 DUP3 ADD MSTORE PUSH1 0x40 ADD SWAP1 JUMP JUMPDEST DUP2 DUP2 DUP2 MLOAD DUP2 LT PUSH2 0xABF JUMPI PUSH2 0xABF PUSH2 0x1F2C JUMP JUMPDEST PUSH1 0x20 MUL PUSH1 0x20 ADD ADD MLOAD PUSH1 0x15 PUSH1 0x0 DUP6 DUP5 DUP2 MLOAD DUP2 LT PUSH2 0xADD JUMPI PUSH2 0xADD PUSH2 0x1F2C JUMP JUMPDEST PUSH1 0x20 MUL PUSH1 0x20 ADD ADD MLOAD PUSH1 0x1 PUSH1 0x1 PUSH1 0xA0 SHL SUB AND PUSH1 0x1 PUSH1 0x1 PUSH1 0xA0 SHL SUB AND DUP2 MSTORE PUSH1 0x20 ADD SWAP1 DUP2 MSTORE PUSH1 0x20 ADD PUSH1 0x0 KECCAK256 DUP2 SWAP1 SSTORE POP PUSH32 0x8ADD957A7DB6C1E209AA088C73A62080AC8D87DF445A42425EDC183B0D2B3A45 DUP4 DUP3 DUP2 MLOAD DUP2 LT PUSH2 0xB3C JUMPI PUSH2 0xB3C PUSH2 0x1F2C JUMP JUMPDEST PUSH1 0x20 MUL PUSH1 0x20 ADD ADD MLOAD DUP4 DUP4 DUP2 MLOAD DUP2 LT PUSH2 0xB56 JUMPI PUSH2 0xB56 PUSH2 0x1F2C JUMP JUMPDEST PUSH1 0x20 MUL PUSH1 0x20 ADD ADD MLOAD PUSH1 0x40 MLOAD PUSH2 0xB80 SWAP3 SWAP2 SWAP1 PUSH1 0x1 PUSH1 0x1 PUSH1 0xA0 SHL SUB SWAP3 SWAP1 SWAP3 AND DUP3 MSTORE PUSH1 0x20 DUP3 ADD MSTORE PUSH1 0x40 ADD SWAP1 JUMP JUMPDEST PUSH1 0x40 MLOAD DUP1 SWAP2 SUB SWAP1 LOG1 DUP1 PUSH2 0xB92 DUP2 PUSH2 0x1F03 JUMP JUMPDEST SWAP2 POP POP PUSH2 0xA40 JUMP JUMPDEST POP POP POP JUMP JUMPDEST PUSH1 0x0 SLOAD PUSH1 0x1 PUSH1 0x1 PUSH1 0xA0 SHL SUB AND CALLER EQ PUSH2 0xBCC JUMPI PUSH1 0x40 MLOAD PUSH4 0xA59D7F4D PUSH1 0xE0 SHL DUP2 MSTORE CALLER PUSH1 0x4 DUP3 ADD MSTORE PUSH1 0x24 ADD PUSH2 0x7C4 JUMP JUMPDEST PUSH1 0xB DUP2 SWAP1 SSTORE PUSH1 0x40 MLOAD DUP2 DUP2 MSTORE PUSH32 0xF08490E6D193BBFC8AD4250871B2AE2E139889261E6276D69D77EB0BE7848CC7 SWAP1 PUSH1 0x20 ADD PUSH2 0x7FE JUMP JUMPDEST PUSH1 0x0 SLOAD PUSH1 0x1 PUSH1 0x1 PUSH1 0xA0 SHL SUB AND CALLER EQ PUSH2 0xC2E JUMPI PUSH1 0x40 MLOAD PUSH4 0xA59D7F4D PUSH1 0xE0 SHL DUP2 MSTORE CALLER PUSH1 0x4 DUP3 ADD MSTORE PUSH1 0x24 ADD PUSH2 0x7C4 JUMP JUMPDEST PUSH1 0x1 PUSH1 0x1 PUSH1 0xA0 SHL SUB DUP1 DUP5 AND PUSH1 0x0 SWAP1 DUP2 MSTORE PUSH1 0x13 PUSH1 0x20 MSTORE PUSH1 0x40 SWAP1 KECCAK256 SLOAD AND DUP1 PUSH2 0xC72 JUMPI PUSH1 0x40 MLOAD PUSH4 0x3F36C1AB PUSH1 0xE0 SHL DUP2 MSTORE PUSH1 0x1 PUSH1 0x1 PUSH1 0xA0 SHL SUB DUP6 AND PUSH1 0x4 DUP3 ADD MSTORE PUSH1 0x24 ADD PUSH2 0x7C4 JUMP JUMPDEST PUSH1 0x40 MLOAD PUSH4 0x32196A01 PUSH1 0xE0 SHL DUP2 MSTORE PUSH1 0x1 PUSH1 0x1 PUSH1 0xA0 SHL SUB DUP3 AND SWAP1 PUSH4 0x32196A01 SWAP1 PUSH2 0xCA0 SWAP1 DUP7 SWAP1 DUP7 SWAP1 PUSH1 0x4 ADD PUSH2 0x1E35 JUMP JUMPDEST PUSH1 0x0 PUSH1 0x40 MLOAD DUP1 DUP4 SUB DUP2 PUSH1 0x0 DUP8 DUP1 EXTCODESIZE ISZERO DUP1 ISZERO PUSH2 0xCBA JUMPI PUSH1 0x0 DUP1 REVERT JUMPDEST POP GAS CALL ISZERO DUP1 ISZERO PUSH2 0xCCE JUMPI RETURNDATASIZE PUSH1 0x0 DUP1 RETURNDATACOPY RETURNDATASIZE PUSH1 0x0 REVERT JUMPDEST POP POP POP POP POP POP POP POP JUMP JUMPDEST PUSH1 0x0 SLOAD PUSH1 0x1 PUSH1 0x1 PUSH1 0xA0 SHL SUB AND CALLER EQ PUSH2 0xD05 JUMPI PUSH1 0x40 MLOAD PUSH4 0xA59D7F4D PUSH1 0xE0 SHL DUP2 MSTORE CALLER PUSH1 0x4 DUP3 ADD MSTORE PUSH1 0x24 ADD PUSH2 0x7C4 JUMP JUMPDEST PUSH1 0x1 PUSH1 0x1 PUSH1 0xA0 SHL SUB DUP3 AND PUSH1 0x0 DUP2 DUP2 MSTORE PUSH1 0x11 PUSH1 0x20 SWAP1 DUP2 MSTORE PUSH1 0x40 SWAP2 DUP3 SWAP1 KECCAK256 DUP1 SLOAD PUSH1 0xFF NOT AND DUP6 ISZERO ISZERO SWAP1 DUP2 OR SWAP1 SWAP2 SSTORE DUP3 MLOAD SWAP4 DUP5 MSTORE SWAP1 DUP4 ADD MSTORE PUSH32 0x1618A22A3B00B9AC70FD5A82F1F5CDD8CB272BD0F1B740DDF7C26AB05881DD5B SWAP2 ADD PUSH1 0x40 MLOAD DUP1 SWAP2 SUB SWAP1 LOG1 POP POP JUMP JUMPDEST PUSH1 0x0 SLOAD PUSH1 0x1 PUSH1 0x1 PUSH1 0xA0 SHL SUB AND CALLER EQ PUSH2 0xD95 JUMPI PUSH1 0x40 MLOAD PUSH4 0xA59D7F4D PUSH1 0xE0 SHL DUP2 MSTORE CALLER PUSH1 0x4 DUP3 ADD MSTORE PUSH1 0x24 ADD PUSH2 0x7C4 JUMP JUMPDEST PUSH1 0x7 DUP2 SWAP1 SSTORE PUSH1 0x40 MLOAD DUP2 DUP2 MSTORE PUSH32 0x37740CD8864334FFFE6B06452E32307736156DE02DF2D346C4EF77D649827F32 SWAP1 PUSH1 0x20 ADD PUSH2 0x7FE JUMP JUMPDEST PUSH1 0x0 SLOAD PUSH1 0x1 PUSH1 0x1 PUSH1 0xA0 SHL SUB AND CALLER EQ PUSH2 0xDF7 JUMPI PUSH1 0x40 MLOAD PUSH4 0xA59D7F4D PUSH1 0xE0 SHL DUP2 MSTORE CALLER PUSH1 0x4 DUP3 ADD MSTORE PUSH1 0x24 ADD PUSH2 0x7C4 JUMP JUMPDEST PUSH1 0x8 DUP1 SLOAD PUSH1 0x1 PUSH1 0x1 PUSH1 0xA0 SHL SUB NOT AND PUSH1 0x1 PUSH1 0x1 PUSH1 0xA0 SHL SUB DUP4 AND SWAP1 DUP2 OR SWAP1 SWAP2 SSTORE PUSH1 0x40 MLOAD SWAP1 DUP2 MSTORE PUSH32 0xF11AFBEAC1D4F4DD22E57C9A7E0F2609BB76B858A038C0A5B45593887C86BD55 SWAP1 PUSH1 0x20 ADD PUSH2 0x7FE JUMP JUMPDEST PUSH1 0x0 SLOAD PUSH1 0x1 PUSH1 0x1 PUSH1 0xA0 SHL SUB AND CALLER EQ PUSH2 0xE72 JUMPI PUSH1 0x40 MLOAD PUSH4 0xA59D7F4D PUSH1 0xE0 SHL DUP2 MSTORE CALLER PUSH1 0x4 DUP3 ADD MSTORE PUSH1 0x24 ADD PUSH2 0x7C4 JUMP JUMPDEST DUP1 MLOAD DUP3 MLOAD EQ PUSH2 0xEA1 JUMPI DUP2 MLOAD DUP2 MLOAD PUSH1 0x40 MLOAD PUSH4 0x574092F9 PUSH1 0xE0 SHL DUP2 MSTORE PUSH1 0x4 DUP2 ADD SWAP3 SWAP1 SWAP3 MSTORE PUSH1 0x24 DUP3 ADD MSTORE PUSH1 0x44 ADD PUSH2 0x7C4 JUMP JUMPDEST PUSH1 0x0 JUMPDEST DUP3 MLOAD DUP2 LT ISZERO PUSH2 0xB9A JUMPI PUSH2 0x2710 DUP3 DUP3 DUP2 MLOAD DUP2 LT PUSH2 0xEC2 JUMPI PUSH2 0xEC2 PUSH2 0x1F2C JUMP JUMPDEST PUSH1 0x20 MUL PUSH1 0x20 ADD ADD MLOAD GT ISZERO PUSH2 0xEE2 JUMPI DUP2 DUP2 DUP2 MLOAD DUP2 LT PUSH2 0xA7E JUMPI PUSH2 0xA7E PUSH2 0x1F2C JUMP JUMPDEST DUP2 DUP2 DUP2 MLOAD DUP2 LT PUSH2 0xEF4 JUMPI PUSH2 0xEF4 PUSH2 0x1F2C JUMP JUMPDEST PUSH1 0x20 MUL PUSH1 0x20 ADD ADD MLOAD PUSH1 0x14 PUSH1 0x0 DUP6 DUP5 DUP2 MLOAD DUP2 LT PUSH2 0xF12 JUMPI PUSH2 0xF12 PUSH2 0x1F2C JUMP JUMPDEST PUSH1 0x20 MUL PUSH1 0x20 ADD ADD MLOAD PUSH1 0x1 PUSH1 0x1 PUSH1 0xA0 SHL SUB AND PUSH1 0x1 PUSH1 0x1 PUSH1 0xA0 SHL SUB AND DUP2 MSTORE PUSH1 0x20 ADD SWAP1 DUP2 MSTORE PUSH1 0x20 ADD PUSH1 0x0 KECCAK256 DUP2 SWAP1 SSTORE POP PUSH32 0x44D431E2F3CDCFD17AC59DBA4B434D2CB8B7D98EC61F6932E706B8D5229FF652 DUP4 DUP3 DUP2 MLOAD DUP2 LT PUSH2 0xF71 JUMPI PUSH2 0xF71 PUSH2 0x1F2C JUMP JUMPDEST PUSH1 0x20 MUL PUSH1 0x20 ADD ADD MLOAD DUP4 DUP4 DUP2 MLOAD DUP2 LT PUSH2 0xF8B JUMPI PUSH2 0xF8B PUSH2 0x1F2C JUMP JUMPDEST PUSH1 0x20 MUL PUSH1 0x20 ADD ADD MLOAD PUSH1 0x40 MLOAD PUSH2 0xFB5 SWAP3 SWAP2 SWAP1 PUSH1 0x1 PUSH1 0x1 PUSH1 0xA0 SHL SUB SWAP3 SWAP1 SWAP3 AND DUP3 MSTORE PUSH1 0x20 DUP3 ADD MSTORE PUSH1 0x40 ADD SWAP1 JUMP JUMPDEST PUSH1 0x40 MLOAD DUP1 SWAP2 SUB SWAP1 LOG1 DUP1 PUSH2 0xFC7 DUP2 PUSH2 0x1F03 JUMP JUMPDEST SWAP2 POP POP PUSH2 0xEA4 JUMP JUMPDEST PUSH1 0x0 SLOAD PUSH1 0x1 PUSH1 0x1 PUSH1 0xA0 SHL SUB AND CALLER EQ PUSH2 0xFFC JUMPI PUSH1 0x40 MLOAD PUSH4 0xA59D7F4D PUSH1 0xE0 SHL DUP2 MSTORE CALLER PUSH1 0x4 DUP3 ADD MSTORE PUSH1 0x24 ADD PUSH2 0x7C4 JUMP JUMPDEST PUSH1 0x9 DUP1 SLOAD PUSH1 0x1 PUSH1 0x1 PUSH1 0xA0 SHL SUB NOT AND PUSH1 0x1 PUSH1 0x1 PUSH1 0xA0 SHL SUB DUP4 AND SWAP1 DUP2 OR SWAP1 SWAP2 SSTORE PUSH1 0x40 MLOAD SWAP1 DUP2 MSTORE PUSH32 0x7E3D013374F40DC62CEC68879EFD2D50157B93DFE8FB48BB716E53172E5B0F94 SWAP1 PUSH1 0x20 ADD PUSH2 0x7FE JUMP JUMPDEST PUSH1 0x0 SLOAD PUSH1 0x1 PUSH1 0x1 PUSH1 0xA0 SHL SUB AND CALLER EQ PUSH2 0x1077 JUMPI PUSH1 0x40 MLOAD PUSH4 0xA59D7F4D PUSH1 0xE0 SHL DUP2 MSTORE CALLER PUSH1 0x4 DUP3 ADD MSTORE PUSH1 0x24 ADD PUSH2 0x7C4 JUMP JUMPDEST PUSH1 0x1 PUSH1 0x1 PUSH1 0xA0 SHL SUB DUP2 AND PUSH2 0x109E JUMPI PUSH1 0x40 MLOAD PUSH4 0xD92E233D PUSH1 0xE0 SHL DUP2 MSTORE PUSH1 0x4 ADD PUSH1 0x40 MLOAD DUP1 SWAP2 SUB SWAP1 REVERT JUMPDEST PUSH1 0x2 DUP1 SLOAD PUSH1 0x1 PUSH1 0x1 PUSH1 0xA0 SHL SUB NOT AND PUSH1 0x1 PUSH1 0x1 PUSH1 0xA0 SHL SUB DUP4 AND SWAP1 DUP2 OR SWAP1 SWAP2 SSTORE PUSH1 0x40 MLOAD SWAP1 DUP2 MSTORE PUSH32 0xF724A45D041687842411F2B977EF22AB8F43C8F1104F4592B42A00F9B34A643D SWAP1 PUSH1 0x20 ADD PUSH2 0x7FE JUMP JUMPDEST PUSH1 0x0 SLOAD PUSH1 0x1 PUSH1 0x1 PUSH1 0xA0 SHL SUB AND CALLER EQ PUSH2 0x1119 JUMPI PUSH1 0x40 MLOAD PUSH4 0xA59D7F4D PUSH1 0xE0 SHL DUP2 MSTORE CALLER PUSH1 0x4 DUP3 ADD MSTORE PUSH1 0x24 ADD PUSH2 0x7C4 JUMP JUMPDEST DUP1 MLOAD DUP3 MLOAD EQ PUSH2 0x1148 JUMPI DUP2 MLOAD DUP2 MLOAD PUSH1 0x40 MLOAD PUSH4 0x574092F9 PUSH1 0xE0 SHL DUP2 MSTORE PUSH1 0x4 DUP2 ADD SWAP3 SWAP1 SWAP3 MSTORE PUSH1 0x24 DUP3 ADD MSTORE PUSH1 0x44 ADD PUSH2 0x7C4 JUMP JUMPDEST PUSH1 0x0 JUMPDEST DUP3 MLOAD DUP2 LT ISZERO PUSH2 0xB9A JUMPI PUSH2 0x2710 DUP3 DUP3 DUP2 MLOAD DUP2 LT PUSH2 0x1169 JUMPI PUSH2 0x1169 PUSH2 0x1F2C JUMP JUMPDEST PUSH1 0x20 MUL PUSH1 0x20 ADD ADD MLOAD GT ISZERO PUSH2 0x1189 JUMPI DUP2 DUP2 DUP2 MLOAD DUP2 LT PUSH2 0xA7E JUMPI PUSH2 0xA7E PUSH2 0x1F2C JUMP JUMPDEST DUP2 DUP2 DUP2 MLOAD DUP2 LT PUSH2 0x119B JUMPI PUSH2 0x119B PUSH2 0x1F2C JUMP JUMPDEST PUSH1 0x20 MUL PUSH1 0x20 ADD ADD MLOAD PUSH1 0x17 PUSH1 0x0 DUP6 DUP5 DUP2 MLOAD DUP2 LT PUSH2 0x11B9 JUMPI PUSH2 0x11B9 PUSH2 0x1F2C JUMP JUMPDEST PUSH1 0x20 MUL PUSH1 0x20 ADD ADD MLOAD PUSH1 0x1 PUSH1 0x1 PUSH1 0xA0 SHL SUB AND PUSH1 0x1 PUSH1 0x1 PUSH1 0xA0 SHL SUB AND DUP2 MSTORE PUSH1 0x20 ADD SWAP1 DUP2 MSTORE PUSH1 0x20 ADD PUSH1 0x0 KECCAK256 DUP2 SWAP1 SSTORE POP PUSH32 0xB2FBF1CB794EF27C93F2189CE22F82871C05ECFB1D103D7D7BB7090118DC1C6 DUP4 DUP3 DUP2 MLOAD DUP2 LT PUSH2 0x1218 JUMPI PUSH2 0x1218 PUSH2 0x1F2C JUMP JUMPDEST PUSH1 0x20 MUL PUSH1 0x20 ADD ADD MLOAD DUP4 DUP4 DUP2 MLOAD DUP2 LT PUSH2 0x1232 JUMPI PUSH2 0x1232 PUSH2 0x1F2C JUMP JUMPDEST PUSH1 0x20 MUL PUSH1 0x20 ADD ADD MLOAD PUSH1 0x40 MLOAD PUSH2 0x125C SWAP3 SWAP2 SWAP1 PUSH1 0x1 PUSH1 0x1 PUSH1 0xA0 SHL SUB SWAP3 SWAP1 SWAP3 AND DUP3 MSTORE PUSH1 0x20 DUP3 ADD MSTORE PUSH1 0x40 ADD SWAP1 JUMP JUMPDEST PUSH1 0x40 MLOAD DUP1 SWAP2 SUB SWAP1 LOG1 DUP1 PUSH2 0x126E DUP2 PUSH2 0x1F03 JUMP JUMPDEST SWAP2 POP POP PUSH2 0x114B JUMP JUMPDEST PUSH1 0x0 SLOAD PUSH1 0x1 PUSH1 0x1 PUSH1 0xA0 SHL SUB AND CALLER EQ PUSH2 0x12A3 JUMPI PUSH1 0x40 MLOAD PUSH4 0xA59D7F4D PUSH1 0xE0 SHL DUP2 MSTORE CALLER PUSH1 0x4 DUP3 ADD MSTORE PUSH1 0x24 ADD PUSH2 0x7C4 JUMP JUMPDEST PUSH2 0x2710 DUP2 LT ISZERO PUSH2 0x12D1 JUMPI PUSH1 0x40 MLOAD PUSH4 0x102A6C27 PUSH1 0xE0 SHL DUP2 MSTORE PUSH1 0x4 DUP2 ADD DUP3 SWAP1 MSTORE PUSH2 0x2710 PUSH1 0x24 DUP3 ADD MSTORE PUSH1 0x44 ADD PUSH2 0x7C4 JUMP JUMPDEST PUSH1 0xE DUP2 SWAP1 SSTORE PUSH1 0x40 MLOAD DUP2 DUP2 MSTORE PUSH32 0x76AC3F03024A7EAAC1162B2497CE4F632A0FE15EAC444F9B01FFF9620A166C25 SWAP1 PUSH1 0x20 ADD PUSH2 0x7FE JUMP JUMPDEST PUSH1 0x0 SLOAD PUSH1 0x1 PUSH1 0x1 PUSH1 0xA0 SHL SUB AND CALLER EQ PUSH2 0x1333 JUMPI PUSH1 0x40 MLOAD PUSH4 0xA59D7F4D PUSH1 0xE0 SHL DUP2 MSTORE CALLER PUSH1 0x4 DUP3 ADD MSTORE PUSH1 0x24 ADD PUSH2 0x7C4 JUMP JUMPDEST PUSH1 0x1 PUSH1 0x1 PUSH1 0xA0 SHL SUB DUP2 AND PUSH2 0x135A JUMPI PUSH1 0x40 MLOAD PUSH4 0xD92E233D PUSH1 0xE0 SHL DUP2 MSTORE PUSH1 0x4 ADD PUSH1 0x40 MLOAD DUP1 SWAP2 SUB SWAP1 REVERT JUMPDEST PUSH1 0x1 DUP1 SLOAD PUSH1 0x1 PUSH1 0x1 PUSH1 0xA0 SHL SUB NOT AND PUSH1 0x1 PUSH1 0x1 PUSH1 0xA0 SHL SUB DUP4 AND SWAP1 DUP2 OR SWAP1 SWAP2 SSTORE PUSH1 0x40 MLOAD SWAP1 DUP2 MSTORE PUSH32 0x193361FCE04ED0C4E2CB4638CDC21C56D4313F5066142224555C49D3933E7CA4 SWAP1 PUSH1 0x20 ADD PUSH2 0x7FE JUMP JUMPDEST PUSH1 0x0 SLOAD PUSH1 0x1 PUSH1 0x1 PUSH1 0xA0 SHL SUB AND CALLER EQ PUSH2 0x13D5 JUMPI PUSH1 0x40 MLOAD PUSH4 0xA59D7F4D PUSH1 0xE0 SHL DUP2 MSTORE CALLER PUSH1 0x4 DUP3 ADD MSTORE PUSH1 0x24 ADD PUSH2 0x7C4 JUMP JUMPDEST PUSH1 0xC DUP2 SWAP1 SSTORE PUSH1 0x40 MLOAD DUP2 DUP2 MSTORE PUSH32 0xBC1E854438813A1EFF88FABE13D9C164009F178D581D45E9A557F037F957B491 SWAP1 PUSH1 0x20 ADD PUSH2 0x7FE JUMP JUMPDEST PUSH1 0x0 SLOAD PUSH1 0x1 PUSH1 0x1 PUSH1 0xA0 SHL SUB AND CALLER EQ PUSH2 0x1437 JUMPI PUSH1 0x40 MLOAD PUSH4 0xA59D7F4D PUSH1 0xE0 SHL DUP2 MSTORE CALLER PUSH1 0x4 DUP3 ADD MSTORE PUSH1 0x24 ADD PUSH2 0x7C4 JUMP JUMPDEST PUSH1 0x1 PUSH1 0x1 PUSH1 0xA0 SHL SUB DUP2 AND PUSH2 0x145E JUMPI PUSH1 0x40 MLOAD PUSH4 0xD92E233D PUSH1 0xE0 SHL DUP2 MSTORE PUSH1 0x4 ADD PUSH1 0x40 MLOAD DUP1 SWAP2 SUB SWAP1 REVERT JUMPDEST PUSH1 0x3 DUP1 SLOAD PUSH1 0x1 PUSH1 0x1 PUSH1 0xA0 SHL SUB NOT AND PUSH1 0x1 PUSH1 0x1 PUSH1 0xA0 SHL SUB DUP4 AND SWAP1 DUP2 OR SWAP1 SWAP2 SSTORE PUSH1 0x40 MLOAD SWAP1 DUP2 MSTORE PUSH32 0xED2325536FB5243D4B19D1781D46658EFAF1B668C1D8A693D050BE0DD1CBFD30 SWAP1 PUSH1 0x20 ADD PUSH2 0x7FE JUMP JUMPDEST PUSH1 0x0 SLOAD PUSH1 0x1 PUSH1 0x1 PUSH1 0xA0 SHL SUB AND CALLER EQ PUSH2 0x14D9 JUMPI PUSH1 0x40 MLOAD PUSH4 0xA59D7F4D PUSH1 0xE0 SHL DUP2 MSTORE CALLER PUSH1 0x4 DUP3 ADD MSTORE PUSH1 0x24 ADD PUSH2 0x7C4 JUMP JUMPDEST PUSH1 0x1 PUSH1 0x1 PUSH1 0xA0 SHL SUB DUP1 DUP4 AND PUSH1 0x0 SWAP1 DUP2 MSTORE PUSH1 0x13 PUSH1 0x20 MSTORE PUSH1 0x40 SWAP1 KECCAK256 SLOAD AND DUP1 PUSH2 0x151D JUMPI PUSH1 0x40 MLOAD PUSH4 0x3F36C1AB PUSH1 0xE0 SHL DUP2 MSTORE PUSH1 0x1 PUSH1 0x1 PUSH1 0xA0 SHL SUB DUP5 AND PUSH1 0x4 DUP3 ADD MSTORE PUSH1 0x24 ADD PUSH2 0x7C4 JUMP JUMPDEST PUSH1 0x40 MLOAD PUSH3 0xE84339 PUSH1 0xE5 SHL DUP2 MSTORE PUSH1 0x4 DUP2 ADD DUP4 SWAP1 MSTORE PUSH1 0x1 PUSH1 0x1 PUSH1 0xA0 SHL SUB DUP3 AND SWAP1 PUSH4 0x1D086720 SWAP1 PUSH1 0x24 ADD PUSH1 0x0 PUSH1 0x40 MLOAD DUP1 DUP4 SUB DUP2 PUSH1 0x0 DUP8 DUP1 EXTCODESIZE ISZERO DUP1 ISZERO PUSH2 0x155E JUMPI PUSH1 0x0 DUP1 REVERT JUMPDEST POP GAS CALL ISZERO DUP1 ISZERO PUSH2 0x1572 JUMPI RETURNDATASIZE PUSH1 0x0 DUP1 RETURNDATACOPY RETURNDATASIZE PUSH1 0x0 REVERT JUMPDEST POP POP POP POP POP POP POP JUMP JUMPDEST PUSH1 0x1 PUSH1 0x1 PUSH1 0xA0 SHL SUB DUP1 DUP3 AND PUSH1 0x0 SWAP1 DUP2 MSTORE PUSH1 0x13 PUSH1 0x20 MSTORE PUSH1 0x40 DUP2 KECCAK256 SLOAD SWAP1 SWAP2 AND DUP1 PUSH2 0x15A6 JUMPI POP PUSH1 0x0 SWAP3 SWAP2 POP POP JUMP JUMPDEST DUP1 PUSH1 0x1 PUSH1 0x1 PUSH1 0xA0 SHL SUB AND PUSH4 0xC392F766 PUSH1 0x40 MLOAD DUP2 PUSH4 0xFFFFFFFF AND PUSH1 0xE0 SHL DUP2 MSTORE PUSH1 0x4 ADD PUSH1 0x20 PUSH1 0x40 MLOAD DUP1 DUP4 SUB DUP2 DUP7 DUP1 EXTCODESIZE ISZERO DUP1 ISZERO PUSH2 0x15DF JUMPI PUSH1 0x0 DUP1 REVERT JUMPDEST POP GAS STATICCALL ISZERO DUP1 ISZERO PUSH2 0x15F3 JUMPI RETURNDATASIZE PUSH1 0x0 DUP1 RETURNDATACOPY RETURNDATASIZE PUSH1 0x0 REVERT JUMPDEST POP POP POP POP PUSH1 0x40 MLOAD RETURNDATASIZE PUSH1 0x1F NOT PUSH1 0x1F DUP3 ADD AND DUP3 ADD DUP1 PUSH1 0x40 MSTORE POP DUP2 ADD SWAP1 PUSH2 0x1617 SWAP2 SWAP1 PUSH2 0x1E1C JUMP JUMPDEST SWAP4 SWAP3 POP POP POP JUMP JUMPDEST PUSH1 0x10 DUP2 DUP2 SLOAD DUP2 LT PUSH2 0x162E JUMPI PUSH1 0x0 DUP1 REVERT JUMPDEST PUSH1 0x0 SWAP2 DUP3 MSTORE PUSH1 0x20 SWAP1 SWAP2 KECCAK256 ADD SLOAD PUSH1 0x1 PUSH1 0x1 PUSH1 0xA0 SHL SUB AND SWAP1 POP DUP2 JUMP JUMPDEST PUSH1 0x0 SLOAD PUSH1 0x1 PUSH1 0x1 PUSH1 0xA0 SHL SUB AND CALLER EQ PUSH2 0x1675 JUMPI PUSH1 0x40 MLOAD PUSH4 0xA59D7F4D PUSH1 0xE0 SHL DUP2 MSTORE CALLER PUSH1 0x4 DUP3 ADD MSTORE PUSH1 0x24 ADD PUSH2 0x7C4 JUMP JUMPDEST PUSH2 0x2710 DUP2 GT ISZERO PUSH2 0x16A3 JUMPI PUSH1 0x40 MLOAD PUSH4 0x7150BBA1 PUSH1 0xE0 SHL DUP2 MSTORE PUSH1 0x4 DUP2 ADD DUP3 SWAP1 MSTORE PUSH2 0x2710 PUSH1 0x24 DUP3 ADD MSTORE PUSH1 0x44 ADD PUSH2 0x7C4 JUMP JUMPDEST PUSH1 0x5 DUP2 SWAP1 SSTORE PUSH1 0x40 MLOAD DUP2 DUP2 MSTORE PUSH32 0x43C0669C98845A19F0C83C170DAFAC37D88AB6841D159A3B478365715E09A119 SWAP1 PUSH1 0x20 ADD PUSH2 0x7FE JUMP JUMPDEST PUSH1 0x0 SLOAD PUSH1 0x1 PUSH1 0x1 PUSH1 0xA0 SHL SUB AND CALLER EQ PUSH2 0x1705 JUMPI PUSH1 0x40 MLOAD PUSH4 0xA59D7F4D PUSH1 0xE0 SHL DUP2 MSTORE CALLER PUSH1 0x4 DUP3 ADD MSTORE PUSH1 0x24 ADD PUSH2 0x7C4 JUMP JUMPDEST DUP1 MLOAD DUP3 MLOAD EQ PUSH2 0x1734 JUMPI DUP2 MLOAD DUP2 MLOAD PUSH1 0x40 MLOAD PUSH4 0x574092F9 PUSH1 0xE0 SHL DUP2 MSTORE PUSH1 0x4 DUP2 ADD SWAP3 SWAP1 SWAP3 MSTORE PUSH1 0x24 DUP3 ADD MSTORE PUSH1 0x44 ADD PUSH2 0x7C4 JUMP JUMPDEST PUSH1 0x0 JUMPDEST DUP3 MLOAD DUP2 LT ISZERO PUSH2 0xB9A JUMPI PUSH2 0x2710 DUP3 DUP3 DUP2 MLOAD DUP2 LT PUSH2 0x1755 JUMPI PUSH2 0x1755 PUSH2 0x1F2C JUMP JUMPDEST PUSH1 0x20 MUL PUSH1 0x20 ADD ADD MLOAD GT ISZERO PUSH2 0x1775 JUMPI DUP2 DUP2 DUP2 MLOAD DUP2 LT PUSH2 0xA7E JUMPI PUSH2 0xA7E PUSH2 0x1F2C JUMP JUMPDEST DUP2 DUP2 DUP2 MLOAD DUP2 LT PUSH2 0x1787 JUMPI PUSH2 0x1787 PUSH2 0x1F2C JUMP JUMPDEST PUSH1 0x20 MUL PUSH1 0x20 ADD ADD MLOAD PUSH1 0x16 PUSH1 0x0 DUP6 DUP5 DUP2 MLOAD DUP2 LT PUSH2 0x17A5 JUMPI PUSH2 0x17A5 PUSH2 0x1F2C JUMP JUMPDEST PUSH1 0x20 MUL PUSH1 0x20 ADD ADD MLOAD PUSH1 0x1 PUSH1 0x1 PUSH1 0xA0 SHL SUB AND PUSH1 0x1 PUSH1 0x1 PUSH1 0xA0 SHL SUB AND DUP2 MSTORE PUSH1 0x20 ADD SWAP1 DUP2 MSTORE PUSH1 0x20 ADD PUSH1 0x0 KECCAK256 DUP2 SWAP1 SSTORE POP PUSH32 0x95CE88C220684EB1CBFA29B8C489102DD6AC38A615BD9F16C996786636EBB9CA DUP4 DUP3 DUP2 MLOAD DUP2 LT PUSH2 0x1804 JUMPI PUSH2 0x1804 PUSH2 0x1F2C JUMP JUMPDEST PUSH1 0x20 MUL PUSH1 0x20 ADD ADD MLOAD DUP4 DUP4 DUP2 MLOAD DUP2 LT PUSH2 0x181E JUMPI PUSH2 0x181E PUSH2 0x1F2C JUMP JUMPDEST PUSH1 0x20 MUL PUSH1 0x20 ADD ADD MLOAD PUSH1 0x40 MLOAD PUSH2 0x1848 SWAP3 SWAP2 SWAP1 PUSH1 0x1 PUSH1 0x1 PUSH1 0xA0 SHL SUB SWAP3 SWAP1 SWAP3 AND DUP3 MSTORE PUSH1 0x20 DUP3 ADD MSTORE PUSH1 0x40 ADD SWAP1 JUMP JUMPDEST PUSH1 0x40 MLOAD DUP1 SWAP2 SUB SWAP1 LOG1 DUP1 PUSH2 0x185A DUP2 PUSH2 0x1F03 JUMP JUMPDEST SWAP2 POP POP PUSH2 0x1737 JUMP JUMPDEST PUSH1 0x0 SLOAD PUSH1 0x1 PUSH1 0x1 PUSH1 0xA0 SHL SUB AND CALLER EQ PUSH2 0x188F JUMPI PUSH1 0x40 MLOAD PUSH4 0xA59D7F4D PUSH1 0xE0 SHL DUP2 MSTORE CALLER PUSH1 0x4 DUP3 ADD MSTORE PUSH1 0x24 ADD PUSH2 0x7C4 JUMP JUMPDEST PUSH1 0x1 PUSH1 0x1 PUSH1 0xA0 SHL SUB DUP2 AND PUSH2 0x18B6 JUMPI PUSH1 0x40 MLOAD PUSH4 0xD92E233D PUSH1 0xE0 SHL DUP2 MSTORE PUSH1 0x4 ADD PUSH1 0x40 MLOAD DUP1 SWAP2 SUB SWAP1 REVERT JUMPDEST PUSH1 0x0 DUP1 SLOAD PUSH1 0x1 PUSH1 0x1 PUSH1 0xA0 SHL SUB NOT AND PUSH1 0x1 PUSH1 0x1 PUSH1 0xA0 SHL SUB DUP4 AND SWAP1 DUP2 OR SWAP1 SWAP2 SSTORE PUSH1 0x40 MLOAD SWAP1 DUP2 MSTORE PUSH32 0x54A6385AA0292B04E1EF8513253C17D1863F7CDFC87029D77FD55CC4C2E717E2 SWAP1 PUSH1 0x20 ADD PUSH2 0x7FE JUMP JUMPDEST PUSH1 0x0 SLOAD PUSH1 0x1 PUSH1 0x1 PUSH1 0xA0 SHL SUB AND CALLER EQ PUSH2 0x1931 JUMPI PUSH1 0x40 MLOAD PUSH4 0xA59D7F4D PUSH1 0xE0 SHL DUP2 MSTORE CALLER PUSH1 0x4 DUP3 ADD MSTORE PUSH1 0x24 ADD PUSH2 0x7C4 JUMP JUMPDEST PUSH1 0xD DUP2 SWAP1 SSTORE PUSH1 0x40 MLOAD DUP2 DUP2 MSTORE PUSH32 0xB2DDBBBC17F5FC2D90C43B399E48D7A3D677DA0218CD35A024DF8A39350BD25 SWAP1 PUSH1 0x20 ADD PUSH2 0x7FE JUMP JUMPDEST PUSH1 0x0 SLOAD PUSH1 0x1 PUSH1 0x1 PUSH1 0xA0 SHL SUB AND CALLER EQ PUSH2 0x1993 JUMPI PUSH1 0x40 MLOAD PUSH4 0xA59D7F4D PUSH1 0xE0 SHL DUP2 MSTORE CALLER PUSH1 0x4 DUP3 ADD MSTORE PUSH1 0x24 ADD PUSH2 0x7C4 JUMP JUMPDEST PUSH1 0x1 PUSH1 0x1 PUSH1 0xA0 SHL SUB DUP2 AND PUSH2 0x19BA JUMPI PUSH1 0x40 MLOAD PUSH4 0xD92E233D PUSH1 0xE0 SHL DUP2 MSTORE PUSH1 0x4 ADD PUSH1 0x40 MLOAD DUP1 SWAP2 SUB SWAP1 REVERT JUMPDEST PUSH1 0x4 DUP1 SLOAD PUSH1 0x1 PUSH1 0x1 PUSH1 0xA0 SHL SUB NOT AND PUSH1 0x1 PUSH1 0x1 PUSH1 0xA0 SHL SUB DUP4 AND SWAP1 DUP2 OR SWAP1 SWAP2 SSTORE PUSH1 0x40 MLOAD SWAP1 DUP2 MSTORE PUSH32 0x97011ACC091D73D67F71FF78BDB3837CE0103F4A52E95B01F50A28B9F7821BA6 SWAP1 PUSH1 0x20 ADD PUSH2 0x7FE JUMP JUMPDEST PUSH1 0x0 SLOAD PUSH1 0x1 PUSH1 0x1 PUSH1 0xA0 SHL SUB AND CALLER EQ PUSH2 0x1A35 JUMPI PUSH1 0x40 MLOAD PUSH4 0xA59D7F4D PUSH1 0xE0 SHL DUP2 MSTORE CALLER PUSH1 0x4 DUP3 ADD MSTORE PUSH1 0x24 ADD PUSH2 0x7C4 JUMP JUMPDEST PUSH1 0x1 PUSH1 0x1 PUSH1 0xA0 SHL SUB DUP2 AND PUSH2 0x1A5C JUMPI PUSH1 0x40 MLOAD PUSH4 0xD92E233D PUSH1 0xE0 SHL DUP2 MSTORE PUSH1 0x4 ADD PUSH1 0x40 MLOAD DUP1 SWAP2 SUB SWAP1 REVERT JUMPDEST PUSH1 0x6 DUP1 SLOAD PUSH1 0x1 PUSH1 0x1 PUSH1 0xA0 SHL SUB NOT AND PUSH1 0x1 PUSH1 0x1 PUSH1 0xA0 SHL SUB DUP4 AND SWAP1 DUP2 OR SWAP1 SWAP2 SSTORE PUSH1 0x40 MLOAD SWAP1 DUP2 MSTORE PUSH32 0x59862D5B8F7EF1D8356D180654086286A04107247706E45B034F1FAC0B3F7DEC SWAP1 PUSH1 0x20 ADD PUSH2 0x7FE JUMP JUMPDEST PUSH1 0x0 SLOAD PUSH1 0x1 PUSH1 0x1 PUSH1 0xA0 SHL SUB AND CALLER EQ PUSH2 0x1AD7 JUMPI PUSH1 0x40 MLOAD PUSH4 0xA59D7F4D PUSH1 0xE0 SHL DUP2 MSTORE CALLER PUSH1 0x4 DUP3 ADD MSTORE PUSH1 0x24 ADD PUSH2 0x7C4 JUMP JUMPDEST PUSH3 0x15180 DUP2 LT ISZERO PUSH2 0x1B07 JUMPI PUSH1 0x40 MLOAD PUSH4 0x102A6C27 PUSH1 0xE0 SHL DUP2 MSTORE PUSH1 0x4 DUP2 ADD DUP3 SWAP1 MSTORE PUSH3 0x15180 PUSH1 0x24 DUP3 ADD MSTORE PUSH1 0x44 ADD PUSH2 0x7C4 JUMP JUMPDEST PUSH1 0xF DUP2 SWAP1 SSTORE PUSH1 0x40 MLOAD DUP2 DUP2 MSTORE PUSH32 0x3B655FFF5646F76885BACA7E1DADF8B8E0095FF01DE8F96A0CF75C8D8CFB53D8 SWAP1 PUSH1 0x20 ADD PUSH2 0x7FE JUMP JUMPDEST PUSH1 0x0 DUP3 PUSH1 0x1F DUP4 ADD SLT PUSH2 0x1B4D JUMPI PUSH1 0x0 DUP1 REVERT JUMPDEST DUP2 CALLDATALOAD PUSH1 0x20 PUSH2 0x1B62 PUSH2 0x1B5D DUP4 PUSH2 0x1EDF JUMP JUMPDEST PUSH2 0x1EAE JUMP JUMPDEST DUP1 DUP4 DUP3 MSTORE DUP3 DUP3 ADD SWAP2 POP DUP3 DUP7 ADD DUP8 DUP5 DUP7 PUSH1 0x5 SHL DUP10 ADD ADD GT ISZERO PUSH2 0x1B82 JUMPI PUSH1 0x0 DUP1 REVERT JUMPDEST PUSH1 0x0 JUMPDEST DUP6 DUP2 LT ISZERO PUSH2 0x1BAA JUMPI DUP2 CALLDATALOAD PUSH2 0x1B98 DUP2 PUSH2 0x1F58 JUMP JUMPDEST DUP5 MSTORE SWAP3 DUP5 ADD SWAP3 SWAP1 DUP5 ADD SWAP1 PUSH1 0x1 ADD PUSH2 0x1B85 JUMP JUMPDEST POP SWAP1 SWAP8 SWAP7 POP POP POP POP POP POP POP JUMP JUMPDEST DUP1 CALLDATALOAD DUP1 ISZERO ISZERO DUP2 EQ PUSH2 0x1BC7 JUMPI PUSH1 0x0 DUP1 REVERT JUMPDEST SWAP2 SWAP1 POP JUMP JUMPDEST PUSH1 0x0 PUSH1 0x20 DUP3 DUP5 SUB SLT ISZERO PUSH2 0x1BDE JUMPI PUSH1 0x0 DUP1 REVERT JUMPDEST DUP2 CALLDATALOAD PUSH2 0x1617 DUP2 PUSH2 0x1F58 JUMP JUMPDEST PUSH1 0x0 PUSH1 0x20 DUP3 DUP5 SUB SLT ISZERO PUSH2 0x1BFB JUMPI PUSH1 0x0 DUP1 REVERT JUMPDEST DUP2 MLOAD PUSH2 0x1617 DUP2 PUSH2 0x1F58 JUMP JUMPDEST PUSH1 0x0 DUP1 PUSH1 0x0 PUSH1 0x60 DUP5 DUP7 SUB SLT ISZERO PUSH2 0x1C1B JUMPI PUSH1 0x0 DUP1 REVERT JUMPDEST DUP4 CALLDATALOAD PUSH2 0x1C26 DUP2 PUSH2 0x1F58 JUMP JUMPDEST SWAP3 POP PUSH1 0x20 DUP5 DUP2 ADD CALLDATALOAD PUSH8 0xFFFFFFFFFFFFFFFF DUP1 DUP3 GT ISZERO PUSH2 0x1C44 JUMPI PUSH1 0x0 DUP1 REVERT JUMPDEST PUSH2 0x1C50 DUP9 DUP4 DUP10 ADD PUSH2 0x1B3C JUMP JUMPDEST SWAP5 POP PUSH1 0x40 DUP8 ADD CALLDATALOAD SWAP2 POP DUP1 DUP3 GT ISZERO PUSH2 0x1C66 JUMPI PUSH1 0x0 DUP1 REVERT JUMPDEST POP DUP6 ADD PUSH1 0x1F DUP2 ADD DUP8 SGT PUSH2 0x1C78 JUMPI PUSH1 0x0 DUP1 REVERT JUMPDEST DUP1 CALLDATALOAD PUSH2 0x1C86 PUSH2 0x1B5D DUP3 PUSH2 0x1EDF JUMP JUMPDEST DUP1 DUP3 DUP3 MSTORE DUP5 DUP3 ADD SWAP2 POP DUP5 DUP5 ADD DUP11 DUP7 DUP6 PUSH1 0x5 SHL DUP8 ADD ADD GT ISZERO PUSH2 0x1CA6 JUMPI PUSH1 0x0 DUP1 REVERT JUMPDEST PUSH1 0x0 SWAP5 POP JUMPDEST DUP4 DUP6 LT ISZERO PUSH2 0x1CD0 JUMPI PUSH2 0x1CBC DUP2 PUSH2 0x1BB7 JUMP JUMPDEST DUP4 MSTORE PUSH1 0x1 SWAP5 SWAP1 SWAP5 ADD SWAP4 SWAP2 DUP6 ADD SWAP2 DUP6 ADD PUSH2 0x1CAB JUMP JUMPDEST POP DUP1 SWAP6 POP POP POP POP POP POP SWAP3 POP SWAP3 POP SWAP3 JUMP JUMPDEST PUSH1 0x0 DUP1 PUSH1 0x40 DUP4 DUP6 SUB SLT ISZERO PUSH2 0x1CF3 JUMPI PUSH1 0x0 DUP1 REVERT JUMPDEST DUP3 CALLDATALOAD PUSH2 0x1CFE DUP2 PUSH2 0x1F58 JUMP JUMPDEST SWAP2 POP PUSH2 0x1D0C PUSH1 0x20 DUP5 ADD PUSH2 0x1BB7 JUMP JUMPDEST SWAP1 POP SWAP3 POP SWAP3 SWAP1 POP JUMP JUMPDEST PUSH1 0x0 DUP1 PUSH1 0x40 DUP4 DUP6 SUB SLT ISZERO PUSH2 0x1D28 JUMPI PUSH1 0x0 DUP1 REVERT JUMPDEST DUP3 CALLDATALOAD PUSH2 0x1D33 DUP2 PUSH2 0x1F58 JUMP JUMPDEST SWAP5 PUSH1 0x20 SWAP4 SWAP1 SWAP4 ADD CALLDATALOAD SWAP4 POP POP POP JUMP JUMPDEST PUSH1 0x0 DUP1 PUSH1 0x40 DUP4 DUP6 SUB SLT ISZERO PUSH2 0x1D54 JUMPI PUSH1 0x0 DUP1 REVERT JUMPDEST DUP3 CALLDATALOAD PUSH8 0xFFFFFFFFFFFFFFFF DUP1 DUP3 GT ISZERO PUSH2 0x1D6C JUMPI PUSH1 0x0 DUP1 REVERT JUMPDEST PUSH2 0x1D78 DUP7 DUP4 DUP8 ADD PUSH2 0x1B3C JUMP JUMPDEST SWAP4 POP PUSH1 0x20 SWAP2 POP DUP2 DUP6 ADD CALLDATALOAD DUP2 DUP2 GT ISZERO PUSH2 0x1D8F JUMPI PUSH1 0x0 DUP1 REVERT JUMPDEST DUP6 ADD SWAP1 POP PUSH1 0x1F DUP2 ADD DUP7 SGT PUSH2 0x1DA2 JUMPI PUSH1 0x0 DUP1 REVERT JUMPDEST DUP1 CALLDATALOAD PUSH2 0x1DB0 PUSH2 0x1B5D DUP3 PUSH2 0x1EDF JUMP JUMPDEST DUP1 DUP3 DUP3 MSTORE DUP5 DUP3 ADD SWAP2 POP DUP5 DUP5 ADD DUP10 DUP7 DUP6 PUSH1 0x5 SHL DUP8 ADD ADD GT ISZERO PUSH2 0x1DD0 JUMPI PUSH1 0x0 DUP1 REVERT JUMPDEST PUSH1 0x0 SWAP5 POP JUMPDEST DUP4 DUP6 LT ISZERO PUSH2 0x1DF3 JUMPI DUP1 CALLDATALOAD DUP4 MSTORE PUSH1 0x1 SWAP5 SWAP1 SWAP5 ADD SWAP4 SWAP2 DUP6 ADD SWAP2 DUP6 ADD PUSH2 0x1DD5 JUMP JUMPDEST POP DUP1 SWAP6 POP POP POP POP POP POP SWAP3 POP SWAP3 SWAP1 POP JUMP JUMPDEST PUSH1 0x0 PUSH1 0x20 DUP3 DUP5 SUB SLT ISZERO PUSH2 0x1E15 JUMPI PUSH1 0x0 DUP1 REVERT JUMPDEST POP CALLDATALOAD SWAP2 SWAP1 POP JUMP JUMPDEST PUSH1 0x0 PUSH1 0x20 DUP3 DUP5 SUB SLT ISZERO PUSH2 0x1E2E JUMPI PUSH1 0x0 DUP1 REVERT JUMPDEST POP MLOAD SWAP2 SWAP1 POP JUMP JUMPDEST PUSH1 0x40 DUP1 DUP3 MSTORE DUP4 MLOAD SWAP1 DUP3 ADD DUP2 SWAP1 MSTORE PUSH1 0x0 SWAP1 PUSH1 0x20 SWAP1 PUSH1 0x60 DUP5 ADD SWAP1 DUP3 DUP8 ADD DUP5 JUMPDEST DUP3 DUP2 LT ISZERO PUSH2 0x1E77 JUMPI DUP2 MLOAD PUSH1 0x1 PUSH1 0x1 PUSH1 0xA0 SHL SUB AND DUP5 MSTORE SWAP3 DUP5 ADD SWAP3 SWAP1 DUP5 ADD SWAP1 PUSH1 0x1 ADD PUSH2 0x1E52 JUMP JUMPDEST POP POP POP DUP4 DUP2 SUB DUP3 DUP6 ADD MSTORE DUP5 MLOAD DUP1 DUP3 MSTORE DUP6 DUP4 ADD SWAP2 DUP4 ADD SWAP1 PUSH1 0x0 JUMPDEST DUP2 DUP2 LT ISZERO PUSH2 0x1BAA JUMPI DUP4 MLOAD ISZERO ISZERO DUP4 MSTORE SWAP3 DUP5 ADD SWAP3 SWAP2 DUP5 ADD SWAP2 PUSH1 0x1 ADD PUSH2 0x1E90 JUMP JUMPDEST PUSH1 0x40 MLOAD PUSH1 0x1F DUP3 ADD PUSH1 0x1F NOT AND DUP2 ADD PUSH8 0xFFFFFFFFFFFFFFFF DUP2 GT DUP3 DUP3 LT OR ISZERO PUSH2 0x1ED7 JUMPI PUSH2 0x1ED7 PUSH2 0x1F42 JUMP JUMPDEST PUSH1 0x40 MSTORE SWAP2 SWAP1 POP JUMP JUMPDEST PUSH1 0x0 PUSH8 0xFFFFFFFFFFFFFFFF DUP3 GT ISZERO PUSH2 0x1EF9 JUMPI PUSH2 0x1EF9 PUSH2 0x1F42 JUMP JUMPDEST POP PUSH1 0x5 SHL PUSH1 0x20 ADD SWAP1 JUMP JUMPDEST PUSH1 0x0 PUSH1 0x0 NOT DUP3 EQ ISZERO PUSH2 0x1F25 JUMPI PUSH4 0x4E487B71 PUSH1 0xE0 SHL PUSH1 0x0 MSTORE PUSH1 0x11 PUSH1 0x4 MSTORE PUSH1 0x24 PUSH1 0x0 REVERT JUMPDEST POP PUSH1 0x1 ADD SWAP1 JUMP JUMPDEST PUSH4 0x4E487B71 PUSH1 0xE0 SHL PUSH1 0x0 MSTORE PUSH1 0x32 PUSH1 0x4 MSTORE PUSH1 0x24 PUSH1 0x0 REVERT JUMPDEST PUSH4 0x4E487B71 PUSH1 0xE0 SHL PUSH1 0x0 MSTORE PUSH1 0x41 PUSH1 0x4 MSTORE PUSH1 0x24 PUSH1 0x0 REVERT JUMPDEST PUSH1 0x1 PUSH1 0x1 PUSH1 0xA0 SHL SUB DUP2 AND DUP2 EQ PUSH2 0x1F6D JUMPI PUSH1 0x0 DUP1 REVERT JUMPDEST POP JUMP INVALID LOG2 PUSH5 0x6970667358 0x22 SLT KECCAK256 PUSH27 0xDCA7056B1FE12DB00B4559F1E522FD5165F76D0D9DE2133886BD15 GASPRICE 0xAA 0xEC LOG0 PUSH5 0x736F6C6343 STOP ADDMOD SMOD STOP CALLER "},"gasEstimates":{"creation":{"codeDepositCost":"1620400","executionCost":"infinite","totalCost":"infinite"},"external":{"baseTokenLT(address)":"2634","baseTokenMUT(address)":"2570","collateralLT(address)":"2636","collateralMUT(address)":"2593","createPool(address,uint256)":"infinite","dexAggregator()":"2448","interest(address)":"infinite","liquidationFeeRate()":"2396","liquidationFeeTo()":"2449","manager()":"2405","manualExpiration()":"2372","minQuoteRate()":"2374","operator(address)":"2637","poolByQuoteToken(address)":"2664","poolDeployer()":"infinite","poolIndex(address)":"2613","poolLength()":"2339","pools(uint256)":"4681","positionStorage()":"infinite","priceFeed()":"2404","protocolFeeRate()":"2330","protocolFeeTo()":"2447","rollbackFee()":"2397","serviceFeeTo()":"2403","serviceToken()":"2427","setBaseTokenLT(address[],uint256[])":"infinite","setBaseTokenMUT(address[],uint256[])":"infinite","setCollateralLT(address[],uint256[])":"infinite","setCollateralMUT(address[],uint256[])":"infinite","setDEXAggregator(address)":"27873","setLiquidationFeeRate(uint256)":"25609","setLiquidationFeeTo(address)":"27894","setManager(address)":"27916","setManualExpiration(uint256)":"25678","setMinQuoteRate(uint256)":"25635","setOperator(address,bool)":"28327","setPoolBaseTokens(address,address[],bool[])":"infinite","setPoolInterest(address,uint256)":"infinite","setPriceFeed(address)":"27917","setProtocolFeeRate(uint256)":"25656","setProtocolFeeTo(address)":"27872","setRollbackFee(uint256)":"25577","setServiceFeeTo(address)":"27838","setServiceToken(address)":"27860","setUpdateCollateralAmountFee(uint256)":"25697","setUpdateDeadlineFee(uint256)":"25674","setUpdateStoplossPriceFee(uint256)":"25632","setUserStorage(address)":"27895","updateCollateralAmountFee()":"2441","updateDeadlineFee()":"2351","updateStoplossPriceFee()":"2417","userStorage()":"2426","withdrawalMonitor()":"infinite"}},"methodIdentifiers":{"baseTokenLT(address)":"f5d0e175","baseTokenMUT(address)":"b745db56","collateralLT(address)":"5fde0ec0","collateralMUT(address)":"095bf1bb","createPool(address,uint256)":"12d36171","dexAggregator()":"7c21d5e0","interest(address)":"ac436bdf","liquidationFeeRate()":"5fb3b1b5","liquidationFeeTo()":"bd2bae9d","manager()":"481c6a75","manualExpiration()":"eddf82bb","minQuoteRate()":"6d274553","operator(address)":"9a307391","poolByQuoteToken(address)":"4d83bc33","poolDeployer()":"3119049a","poolIndex(address)":"b42754a5","poolLength()":"081e3eda","pools(uint256)":"ac4afa38","positionStorage()":"8cd47415","priceFeed()":"741bef1a","protocolFeeRate()":"58f85880","protocolFeeTo()":"ef369252","rollbackFee()":"3c093037","serviceFeeTo()":"e9a4e7a2","serviceToken()":"b7692968","setBaseTokenLT(address[],uint256[])":"ca10a33a","setBaseTokenMUT(address[],uint256[])":"6629b5d4","setCollateralLT(address[],uint256[])":"7eb5c200","setCollateralMUT(address[],uint256[])":"1faa7eba","setDEXAggregator(address)":"aa6dfe03","setLiquidationFeeRate(uint256)":"5d463c30","setLiquidationFeeTo(address)":"e216ab44","setManager(address)":"d0ebdbe7","setManualExpiration(uint256)":"e47eb30c","setMinQuoteRate(uint256)":"90f43680","setOperator(address,bool)":"558a7297","setPoolBaseTokens(address,address[],bool[])":"4d5c262e","setPoolInterest(address,uint256)":"aac9d2b8","setPriceFeed(address)":"724e78da","setProtocolFeeRate(uint256)":"b13aa2d6","setProtocolFeeTo(address)":"e0e6799f","setRollbackFee(uint256)":"004ef967","setServiceFeeTo(address)":"662dc319","setServiceToken(address)":"5ef21b2f","setUpdateCollateralAmountFee(uint256)":"a5e1b628","setUpdateDeadlineFee(uint256)":"dd4fad93","setUpdateStoplossPriceFee(uint256)":"36d6135b","setUserStorage(address)":"9142887f","updateCollateralAmountFee()":"2a5025b7","updateDeadlineFee()":"c7900584","updateStoplossPriceFee()":"b58862e7","userStorage()":"75e58079","withdrawalMonitor()":"a4fbc0d7"}},"storageLayout":{"storage":[{"astId":18,"contract":"contracts/Factory.sol:Factory","label":"manager","offset":0,"slot":"0","type":"t_address"},{"astId":21,"contract":"contracts/Factory.sol:Factory","label":"userStorage","offset":0,"slot":"1","type":"t_address"},{"astId":24,"contract":"contracts/Factory.sol:Factory","label":"priceFeed","offset":0,"slot":"2","type":"t_address"},{"astId":27,"contract":"contracts/Factory.sol:Factory","label":"dexAggregator","offset":0,"slot":"3","type":"t_address"},{"astId":30,"contract":"contracts/Factory.sol:Factory","label":"protocolFeeTo","offset":0,"slot":"4","type":"t_address"},{"astId":33,"contract":"contracts/Factory.sol:Factory","label":"protocolFeeRate","offset":0,"slot":"5","type":"t_uint256"},{"astId":36,"contract":"contracts/Factory.sol:Factory","label":"liquidationFeeTo","offset":0,"slot":"6","type":"t_address"},{"astId":39,"contract":"contracts/Factory.sol:Factory","label":"liquidationFeeRate","offset":0,"slot":"7","type":"t_uint256"},{"astId":42,"contract":"contracts/Factory.sol:Factory","label":"serviceToken","offset":0,"slot":"8","type":"t_address"},{"astId":45,"contract":"contracts/Factory.sol:Factory","label":"serviceFeeTo","offset":0,"slot":"9","type":"t_address"},{"astId":48,"contract":"contracts/Factory.sol:Factory","label":"rollbackFee","offset":0,"slot":"10","type":"t_uint256"},{"astId":51,"contract":"contracts/Factory.sol:Factory","label":"updateStoplossPriceFee","offset":0,"slot":"11","type":"t_uint256"},{"astId":54,"contract":"contracts/Factory.sol:Factory","label":"updateCollateralAmountFee","offset":0,"slot":"12","type":"t_uint256"},{"astId":57,"contract":"contracts/Factory.sol:Factory","label":"updateDeadlineFee","offset":0,"slot":"13","type":"t_uint256"},{"astId":60,"contract":"contracts/Factory.sol:Factory","label":"minQuoteRate","offset":0,"slot":"14","type":"t_uint256"},{"astId":63,"contract":"contracts/Factory.sol:Factory","label":"manualExpiration","offset":0,"slot":"15","type":"t_uint256"},{"astId":67,"contract":"contracts/Factory.sol:Factory","label":"pools","offset":0,"slot":"16","type":"t_array(t_address)dyn_storage"},{"astId":72,"contract":"contracts/Factory.sol:Factory","label":"operator","offset":0,"slot":"17","type":"t_mapping(t_address,t_bool)"},{"astId":77,"contract":"contracts/Factory.sol:Factory","label":"poolIndex","offset":0,"slot":"18","type":"t_mapping(t_address,t_uint256)"},{"astId":82,"contract":"contracts/Factory.sol:Factory","label":"poolByQuoteToken","offset":0,"slot":"19","type":"t_mapping(t_address,t_address)"},{"astId":87,"contract":"contracts/Factory.sol:Factory","label":"baseTokenMUT","offset":0,"slot":"20","type":"t_mapping(t_address,t_uint256)"},{"astId":92,"contract":"contracts/Factory.sol:Factory","label":"collateralMUT","offset":0,"slot":"21","type":"t_mapping(t_address,t_uint256)"},{"astId":97,"contract":"contracts/Factory.sol:Factory","label":"baseTokenLT","offset":0,"slot":"22","type":"t_mapping(t_address,t_uint256)"},{"astId":102,"contract":"contracts/Factory.sol:Factory","label":"collateralLT","offset":0,"slot":"23","type":"t_mapping(t_address,t_uint256)"}],"types":{"t_address":{"encoding":"inplace","label":"address","numberOfBytes":"20"},"t_array(t_address)dyn_storage":{"base":"t_address","encoding":"dynamic_array","label":"address[]","numberOfBytes":"32"},"t_bool":{"encoding":"inplace","label":"bool","numberOfBytes":"1"},"t_mapping(t_address,t_address)":{"encoding":"mapping","key":"t_address","label":"mapping(address => address)","numberOfBytes":"32","value":"t_address"},"t_mapping(t_address,t_bool)":{"encoding":"mapping","key":"t_address","label":"mapping(address => bool)","numberOfBytes":"32","value":"t_bool"},"t_mapping(t_address,t_uint256)":{"encoding":"mapping","key":"t_address","label":"mapping(address => uint256)","numberOfBytes":"32","value":"t_uint256"},"t_uint256":{"encoding":"inplace","label":"uint256","numberOfBytes":"32"}}},"userdoc":{"kind":"user","methods":{},"version":1}}}}