{"contracts/UserStorage.sol":{"UserStorage":{"abi":[{"inputs":[],"stateMutability":"nonpayable","type":"constructor"},{"inputs":[{"internalType":"uint256","name":"length0","type":"uint256"},{"internalType":"uint256","name":"length1","type":"uint256"}],"name":"BadLengths","type":"error"},{"inputs":[{"internalType":"address","name":"sender","type":"address"}],"name":"Forbidden","type":"error"},{"anonymous":false,"inputs":[{"indexed":false,"internalType":"address","name":"manager","type":"address"}],"name":"SetManager","type":"event"},{"anonymous":false,"inputs":[{"indexed":false,"internalType":"address","name":"user","type":"address"},{"indexed":false,"internalType":"bool","name":"isOperator","type":"bool"}],"name":"SetOperator","type":"event"},{"anonymous":false,"inputs":[{"indexed":true,"internalType":"address","name":"user","type":"address"},{"indexed":false,"internalType":"uint256","name":"membershipLevel","type":"uint256"}],"name":"UpdateMembership","type":"event"},{"anonymous":false,"inputs":[{"indexed":true,"internalType":"address","name":"user","type":"address"},{"indexed":true,"internalType":"address","name":"ref","type":"address"}],"name":"UpdateRef","type":"event"},{"inputs":[{"internalType":"address","name":"_user","type":"address"}],"name":"canUpdateDeadline","outputs":[{"internalType":"bool","name":"","type":"bool"}],"stateMutability":"view","type":"function"},{"inputs":[{"internalType":"address","name":"_user","type":"address"},{"internalType":"uint256","name":"_fee","type":"uint256"}],"name":"discountedFee","outputs":[{"internalType":"uint256","name":"","type":"uint256"}],"stateMutability":"view","type":"function"},{"inputs":[{"internalType":"address","name":"_user","type":"address"}],"name":"getUserInfo","outputs":[{"components":[{"internalType":"address","name":"id","type":"address"},{"internalType":"address","name":"ref","type":"address"},{"internalType":"uint256","name":"membershipLevel","type":"uint256"}],"internalType":"struct IUserStorage.User","name":"","type":"tuple"}],"stateMutability":"view","type":"function"},{"inputs":[],"name":"manager","outputs":[{"internalType":"address","name":"","type":"address"}],"stateMutability":"view","type":"function"},{"inputs":[{"internalType":"address","name":"","type":"address"}],"name":"operator","outputs":[{"internalType":"bool","name":"","type":"bool"}],"stateMutability":"view","type":"function"},{"inputs":[{"internalType":"address","name":"_manager","type":"address"}],"name":"setManager","outputs":[],"stateMutability":"nonpayable","type":"function"},{"inputs":[{"internalType":"address[]","name":"_users","type":"address[]"},{"internalType":"bool[]","name":"_isOperators","type":"bool[]"}],"name":"setOperators","outputs":[],"stateMutability":"nonpayable","type":"function"},{"inputs":[{"internalType":"address","name":"_user","type":"address"},{"internalType":"uint256","name":"_membershipLevel","type":"uint256"}],"name":"updateMembership","outputs":[],"stateMutability":"nonpayable","type":"function"},{"inputs":[{"internalType":"address","name":"_user","type":"address"},{"internalType":"address","name":"_ref","type":"address"}],"name":"updateRef","outputs":[],"stateMutability":"nonpayable","type":"function"}],"devdoc":{"kind":"dev","methods":{},"version":1},"evm":{"bytecode":{"linkReferences":{},"object":"608060405234801561001057600080fd5b50600080546001600160a01b03191633179055610984806100326000396000f3fe608060405234801561001057600080fd5b50600436106100935760003560e01c80636386c1c7116100665780636386c1c7146101625780637e2421fb146101fa5780639a3073911461020d578063d0ebdbe714610230578063f43050351461024357600080fd5b8063172c717b146100985780632701cc51146100be5780634471097e146100d3578063481c6a7514610137575b600080fd5b6100ab6100a636600461073b565b610256565b6040519081526020015b60405180910390f35b6100d16100cc366004610708565b6102da565b005b6101276100e13660046106e6565b6001600160a01b03908116600090815260026020818152604092839020835160608101855281548616815260018201549095169185019190915201549101819052151590565b60405190151581526020016100b5565b60005461014a906001600160a01b031681565b6040516001600160a01b0390911681526020016100b5565b6101ca6101703660046106e6565b6040805160608082018352600080835260208084018290529284018190526001600160a01b039485168152600280845290849020845192830185528054861683526001810154909516928201929092529201549082015290565b6040805182516001600160a01b0390811682526020808501519091169082015291810151908201526060016100b5565b6100d161020836600461073b565b6103a1565b61012761021b3660046106e6565b60016020526000908152604090205460ff1681565b6100d161023e3660046106e6565b610459565b6100d1610251366004610765565b6104da565b6001600160a01b038083166000908152600260208181526040808420815160608101835281548716815260018201549096169286019290925291015490830181905290919060049083906102ab908390610881565b60408401516102ba90876108bb565b6102c49190610899565b90506102d081866108da565b9695505050505050565b3360009081526001602052604090205460ff166103115760405163a59d7f4d60e01b81523360048201526024015b60405180910390fd5b6001600160a01b038083166000908152600260205260409020805490911661034d5780546001600160a01b0319166001600160a01b0384161781555b6001810180546001600160a01b0319166001600160a01b0384811691821790925560405190918516907f4372db54601a63392e2c6ed06fc43b3c669a66bb660a76b4880fa85664062c7d90600090a3505050565b3360009081526001602052604090205460ff166103d35760405163a59d7f4d60e01b8152336004820152602401610308565b6001600160a01b038083166000908152600260205260409020805490911661040f5780546001600160a01b0319166001600160a01b0384161781555b600281018290556040518281526001600160a01b038416907f11c575aa2d335370607bcb4a86185e19697ffd961d6e35f067b3091962948bdd9060200160405180910390a2505050565b6000546001600160a01b031633146104865760405163a59d7f4d60e01b8152336004820152602401610308565b600080546001600160a01b0319166001600160a01b0383169081179091556040519081527f54a6385aa0292b04e1ef8513253c17d1863f7cdfc87029d77fd55cc4c2e717e29060200160405180910390a150565b6000546001600160a01b031633146105075760405163a59d7f4d60e01b8152336004820152602401610308565b8051825114610536578151815160405163574092f960e01b815260048101929092526024820152604401610308565b60005b82518110156106445781818151811061055457610554610922565b60200260200101516001600085848151811061057257610572610922565b60200260200101516001600160a01b03166001600160a01b0316815260200190815260200160002060006101000a81548160ff0219169083151502179055507f1618a22a3b00b9ac70fd5a82f1f5cdd8cb272bd0f1b740ddf7c26ab05881dd5b8382815181106105e4576105e4610922565b60200260200101518383815181106105fe576105fe610922565b602002602001015160405161062a9291906001600160a01b039290921682521515602082015260400190565b60405180910390a18061063c816108f1565b915050610539565b505050565b80356001600160a01b038116811461066057600080fd5b919050565b600082601f83011261067657600080fd5b8135602061068b6106868361085d565b61082c565b80838252828201915082860187848660051b89010111156106ab57600080fd5b6000805b868110156106d857823580151581146106c6578283fd5b855293850193918501916001016106af565b509198975050505050505050565b6000602082840312156106f857600080fd5b61070182610649565b9392505050565b6000806040838503121561071b57600080fd5b61072483610649565b915061073260208401610649565b90509250929050565b6000806040838503121561074e57600080fd5b61075783610649565b946020939093013593505050565b6000806040838503121561077857600080fd5b823567ffffffffffffffff8082111561079057600080fd5b818501915085601f8301126107a457600080fd5b813560206107b46106868361085d565b8083825282820191508286018a848660051b89010111156107d457600080fd5b600096505b848710156107fe576107ea81610649565b8352600196909601959183019183016107d9565b509650508601359250508082111561081557600080fd5b5061082285828601610665565b9150509250929050565b604051601f8201601f1916810167ffffffffffffffff8111828210171561085557610855610938565b604052919050565b600067ffffffffffffffff82111561087757610877610938565b5060051b60200190565b600082198211156108945761089461090c565b500190565b6000826108b657634e487b7160e01b600052601260045260246000fd5b500490565b60008160001904831182151516156108d5576108d561090c565b500290565b6000828210156108ec576108ec61090c565b500390565b60006000198214156109055761090561090c565b5060010190565b634e487b7160e01b600052601160045260246000fd5b634e487b7160e01b600052603260045260246000fd5b634e487b7160e01b600052604160045260246000fdfea26469706673582212202de9df8e0ad54806ac7f8d77adca93ef8a675d099bb8e11252297f5e98d1333664736f6c63430008070033","opcodes":"PUSH1 0x80 PUSH1 0x40 MSTORE CALLVALUE DUP1 ISZERO PUSH2 0x10 JUMPI PUSH1 0x0 DUP1 REVERT JUMPDEST POP PUSH1 0x0 DUP1 SLOAD PUSH1 0x1 PUSH1 0x1 PUSH1 0xA0 SHL SUB NOT AND CALLER OR SWAP1 SSTORE PUSH2 0x984 DUP1 PUSH2 0x32 PUSH1 0x0 CODECOPY PUSH1 0x0 RETURN INVALID PUSH1 0x80 PUSH1 0x40 MSTORE CALLVALUE DUP1 ISZERO PUSH2 0x10 JUMPI PUSH1 0x0 DUP1 REVERT JUMPDEST POP PUSH1 0x4 CALLDATASIZE LT PUSH2 0x93 JUMPI PUSH1 0x0 CALLDATALOAD PUSH1 0xE0 SHR DUP1 PUSH4 0x6386C1C7 GT PUSH2 0x66 JUMPI DUP1 PUSH4 0x6386C1C7 EQ PUSH2 0x162 JUMPI DUP1 PUSH4 0x7E2421FB EQ PUSH2 0x1FA JUMPI DUP1 PUSH4 0x9A307391 EQ PUSH2 0x20D JUMPI DUP1 PUSH4 0xD0EBDBE7 EQ PUSH2 0x230 JUMPI DUP1 PUSH4 0xF4305035 EQ PUSH2 0x243 JUMPI PUSH1 0x0 DUP1 REVERT JUMPDEST DUP1 PUSH4 0x172C717B EQ PUSH2 0x98 JUMPI DUP1 PUSH4 0x2701CC51 EQ PUSH2 0xBE JUMPI DUP1 PUSH4 0x4471097E EQ PUSH2 0xD3 JUMPI DUP1 PUSH4 0x481C6A75 EQ PUSH2 0x137 JUMPI JUMPDEST PUSH1 0x0 DUP1 REVERT JUMPDEST PUSH2 0xAB PUSH2 0xA6 CALLDATASIZE PUSH1 0x4 PUSH2 0x73B JUMP JUMPDEST PUSH2 0x256 JUMP JUMPDEST PUSH1 0x40 MLOAD SWAP1 DUP2 MSTORE PUSH1 0x20 ADD JUMPDEST PUSH1 0x40 MLOAD DUP1 SWAP2 SUB SWAP1 RETURN JUMPDEST PUSH2 0xD1 PUSH2 0xCC CALLDATASIZE PUSH1 0x4 PUSH2 0x708 JUMP JUMPDEST PUSH2 0x2DA JUMP JUMPDEST STOP JUMPDEST PUSH2 0x127 PUSH2 0xE1 CALLDATASIZE PUSH1 0x4 PUSH2 0x6E6 JUMP JUMPDEST PUSH1 0x1 PUSH1 0x1 PUSH1 0xA0 SHL SUB SWAP1 DUP2 AND PUSH1 0x0 SWAP1 DUP2 MSTORE PUSH1 0x2 PUSH1 0x20 DUP2 DUP2 MSTORE PUSH1 0x40 SWAP3 DUP4 SWAP1 KECCAK256 DUP4 MLOAD PUSH1 0x60 DUP2 ADD DUP6 MSTORE DUP2 SLOAD DUP7 AND DUP2 MSTORE PUSH1 0x1 DUP3 ADD SLOAD SWAP1 SWAP6 AND SWAP2 DUP6 ADD SWAP2 SWAP1 SWAP2 MSTORE ADD SLOAD SWAP2 ADD DUP2 SWAP1 MSTORE ISZERO ISZERO SWAP1 JUMP JUMPDEST PUSH1 0x40 MLOAD SWAP1 ISZERO ISZERO DUP2 MSTORE PUSH1 0x20 ADD PUSH2 0xB5 JUMP JUMPDEST PUSH1 0x0 SLOAD PUSH2 0x14A SWAP1 PUSH1 0x1 PUSH1 0x1 PUSH1 0xA0 SHL SUB AND DUP2 JUMP JUMPDEST PUSH1 0x40 MLOAD PUSH1 0x1 PUSH1 0x1 PUSH1 0xA0 SHL SUB SWAP1 SWAP2 AND DUP2 MSTORE PUSH1 0x20 ADD PUSH2 0xB5 JUMP JUMPDEST PUSH2 0x1CA PUSH2 0x170 CALLDATASIZE PUSH1 0x4 PUSH2 0x6E6 JUMP JUMPDEST PUSH1 0x40 DUP1 MLOAD PUSH1 0x60 DUP1 DUP3 ADD DUP4 MSTORE PUSH1 0x0 DUP1 DUP4 MSTORE PUSH1 0x20 DUP1 DUP5 ADD DUP3 SWAP1 MSTORE SWAP3 DUP5 ADD DUP2 SWAP1 MSTORE PUSH1 0x1 PUSH1 0x1 PUSH1 0xA0 SHL SUB SWAP5 DUP6 AND DUP2 MSTORE PUSH1 0x2 DUP1 DUP5 MSTORE SWAP1 DUP5 SWAP1 KECCAK256 DUP5 MLOAD SWAP3 DUP4 ADD DUP6 MSTORE DUP1 SLOAD DUP7 AND DUP4 MSTORE PUSH1 0x1 DUP2 ADD SLOAD SWAP1 SWAP6 AND SWAP3 DUP3 ADD SWAP3 SWAP1 SWAP3 MSTORE SWAP3 ADD SLOAD SWAP1 DUP3 ADD MSTORE SWAP1 JUMP JUMPDEST PUSH1 0x40 DUP1 MLOAD DUP3 MLOAD PUSH1 0x1 PUSH1 0x1 PUSH1 0xA0 SHL SUB SWAP1 DUP2 AND DUP3 MSTORE PUSH1 0x20 DUP1 DUP6 ADD MLOAD SWAP1 SWAP2 AND SWAP1 DUP3 ADD MSTORE SWAP2 DUP2 ADD MLOAD SWAP1 DUP3 ADD MSTORE PUSH1 0x60 ADD PUSH2 0xB5 JUMP JUMPDEST PUSH2 0xD1 PUSH2 0x208 CALLDATASIZE PUSH1 0x4 PUSH2 0x73B JUMP JUMPDEST PUSH2 0x3A1 JUMP JUMPDEST PUSH2 0x127 PUSH2 0x21B CALLDATASIZE PUSH1 0x4 PUSH2 0x6E6 JUMP JUMPDEST PUSH1 0x1 PUSH1 0x20 MSTORE PUSH1 0x0 SWAP1 DUP2 MSTORE PUSH1 0x40 SWAP1 KECCAK256 SLOAD PUSH1 0xFF AND DUP2 JUMP JUMPDEST PUSH2 0xD1 PUSH2 0x23E CALLDATASIZE PUSH1 0x4 PUSH2 0x6E6 JUMP JUMPDEST PUSH2 0x459 JUMP JUMPDEST PUSH2 0xD1 PUSH2 0x251 CALLDATASIZE PUSH1 0x4 PUSH2 0x765 JUMP JUMPDEST PUSH2 0x4DA JUMP JUMPDEST PUSH1 0x1 PUSH1 0x1 PUSH1 0xA0 SHL SUB DUP1 DUP4 AND PUSH1 0x0 SWAP1 DUP2 MSTORE PUSH1 0x2 PUSH1 0x20 DUP2 DUP2 MSTORE PUSH1 0x40 DUP1 DUP5 KECCAK256 DUP2 MLOAD PUSH1 0x60 DUP2 ADD DUP4 MSTORE DUP2 SLOAD DUP8 AND DUP2 MSTORE PUSH1 0x1 DUP3 ADD SLOAD SWAP1 SWAP7 AND SWAP3 DUP7 ADD SWAP3 SWAP1 SWAP3 MSTORE SWAP2 ADD SLOAD SWAP1 DUP4 ADD DUP2 SWAP1 MSTORE SWAP1 SWAP2 SWAP1 PUSH1 0x4 SWAP1 DUP4 SWAP1 PUSH2 0x2AB SWAP1 DUP4 SWAP1 PUSH2 0x881 JUMP JUMPDEST PUSH1 0x40 DUP5 ADD MLOAD PUSH2 0x2BA SWAP1 DUP8 PUSH2 0x8BB JUMP JUMPDEST PUSH2 0x2C4 SWAP2 SWAP1 PUSH2 0x899 JUMP JUMPDEST SWAP1 POP PUSH2 0x2D0 DUP2 DUP7 PUSH2 0x8DA JUMP JUMPDEST SWAP7 SWAP6 POP POP POP POP POP POP JUMP JUMPDEST CALLER PUSH1 0x0 SWAP1 DUP2 MSTORE PUSH1 0x1 PUSH1 0x20 MSTORE PUSH1 0x40 SWAP1 KECCAK256 SLOAD PUSH1 0xFF AND PUSH2 0x311 JUMPI PUSH1 0x40 MLOAD PUSH4 0xA59D7F4D PUSH1 0xE0 SHL DUP2 MSTORE CALLER PUSH1 0x4 DUP3 ADD MSTORE PUSH1 0x24 ADD JUMPDEST PUSH1 0x40 MLOAD DUP1 SWAP2 SUB SWAP1 REVERT JUMPDEST PUSH1 0x1 PUSH1 0x1 PUSH1 0xA0 SHL SUB DUP1 DUP4 AND PUSH1 0x0 SWAP1 DUP2 MSTORE PUSH1 0x2 PUSH1 0x20 MSTORE PUSH1 0x40 SWAP1 KECCAK256 DUP1 SLOAD SWAP1 SWAP2 AND PUSH2 0x34D JUMPI DUP1 SLOAD PUSH1 0x1 PUSH1 0x1 PUSH1 0xA0 SHL SUB NOT AND PUSH1 0x1 PUSH1 0x1 PUSH1 0xA0 SHL SUB DUP5 AND OR DUP2 SSTORE JUMPDEST PUSH1 0x1 DUP2 ADD DUP1 SLOAD PUSH1 0x1 PUSH1 0x1 PUSH1 0xA0 SHL SUB NOT AND PUSH1 0x1 PUSH1 0x1 PUSH1 0xA0 SHL SUB DUP5 DUP2 AND SWAP2 DUP3 OR SWAP1 SWAP3 SSTORE PUSH1 0x40 MLOAD SWAP1 SWAP2 DUP6 AND SWAP1 PUSH32 0x4372DB54601A63392E2C6ED06FC43B3C669A66BB660A76B4880FA85664062C7D SWAP1 PUSH1 0x0 SWAP1 LOG3 POP POP POP JUMP JUMPDEST CALLER PUSH1 0x0 SWAP1 DUP2 MSTORE PUSH1 0x1 PUSH1 0x20 MSTORE PUSH1 0x40 SWAP1 KECCAK256 SLOAD PUSH1 0xFF AND PUSH2 0x3D3 JUMPI PUSH1 0x40 MLOAD PUSH4 0xA59D7F4D PUSH1 0xE0 SHL DUP2 MSTORE CALLER PUSH1 0x4 DUP3 ADD MSTORE PUSH1 0x24 ADD PUSH2 0x308 JUMP JUMPDEST PUSH1 0x1 PUSH1 0x1 PUSH1 0xA0 SHL SUB DUP1 DUP4 AND PUSH1 0x0 SWAP1 DUP2 MSTORE PUSH1 0x2 PUSH1 0x20 MSTORE PUSH1 0x40 SWAP1 KECCAK256 DUP1 SLOAD SWAP1 SWAP2 AND PUSH2 0x40F JUMPI DUP1 SLOAD PUSH1 0x1 PUSH1 0x1 PUSH1 0xA0 SHL SUB NOT AND PUSH1 0x1 PUSH1 0x1 PUSH1 0xA0 SHL SUB DUP5 AND OR DUP2 SSTORE JUMPDEST PUSH1 0x2 DUP2 ADD DUP3 SWAP1 SSTORE PUSH1 0x40 MLOAD DUP3 DUP2 MSTORE PUSH1 0x1 PUSH1 0x1 PUSH1 0xA0 SHL SUB DUP5 AND SWAP1 PUSH32 0x11C575AA2D335370607BCB4A86185E19697FFD961D6E35F067B3091962948BDD SWAP1 PUSH1 0x20 ADD PUSH1 0x40 MLOAD DUP1 SWAP2 SUB SWAP1 LOG2 POP POP POP JUMP JUMPDEST PUSH1 0x0 SLOAD PUSH1 0x1 PUSH1 0x1 PUSH1 0xA0 SHL SUB AND CALLER EQ PUSH2 0x486 JUMPI PUSH1 0x40 MLOAD PUSH4 0xA59D7F4D PUSH1 0xE0 SHL DUP2 MSTORE CALLER PUSH1 0x4 DUP3 ADD MSTORE PUSH1 0x24 ADD PUSH2 0x308 JUMP JUMPDEST PUSH1 0x0 DUP1 SLOAD PUSH1 0x1 PUSH1 0x1 PUSH1 0xA0 SHL SUB NOT AND PUSH1 0x1 PUSH1 0x1 PUSH1 0xA0 SHL SUB DUP4 AND SWAP1 DUP2 OR SWAP1 SWAP2 SSTORE PUSH1 0x40 MLOAD SWAP1 DUP2 MSTORE PUSH32 0x54A6385AA0292B04E1EF8513253C17D1863F7CDFC87029D77FD55CC4C2E717E2 SWAP1 PUSH1 0x20 ADD PUSH1 0x40 MLOAD DUP1 SWAP2 SUB SWAP1 LOG1 POP JUMP JUMPDEST PUSH1 0x0 SLOAD PUSH1 0x1 PUSH1 0x1 PUSH1 0xA0 SHL SUB AND CALLER EQ PUSH2 0x507 JUMPI PUSH1 0x40 MLOAD PUSH4 0xA59D7F4D PUSH1 0xE0 SHL DUP2 MSTORE CALLER PUSH1 0x4 DUP3 ADD MSTORE PUSH1 0x24 ADD PUSH2 0x308 JUMP JUMPDEST DUP1 MLOAD DUP3 MLOAD EQ PUSH2 0x536 JUMPI DUP2 MLOAD DUP2 MLOAD PUSH1 0x40 MLOAD PUSH4 0x574092F9 PUSH1 0xE0 SHL DUP2 MSTORE PUSH1 0x4 DUP2 ADD SWAP3 SWAP1 SWAP3 MSTORE PUSH1 0x24 DUP3 ADD MSTORE PUSH1 0x44 ADD PUSH2 0x308 JUMP JUMPDEST PUSH1 0x0 JUMPDEST DUP3 MLOAD DUP2 LT ISZERO PUSH2 0x644 JUMPI DUP2 DUP2 DUP2 MLOAD DUP2 LT PUSH2 0x554 JUMPI PUSH2 0x554 PUSH2 0x922 JUMP JUMPDEST PUSH1 0x20 MUL PUSH1 0x20 ADD ADD MLOAD PUSH1 0x1 PUSH1 0x0 DUP6 DUP5 DUP2 MLOAD DUP2 LT PUSH2 0x572 JUMPI PUSH2 0x572 PUSH2 0x922 JUMP JUMPDEST PUSH1 0x20 MUL PUSH1 0x20 ADD ADD MLOAD PUSH1 0x1 PUSH1 0x1 PUSH1 0xA0 SHL SUB AND PUSH1 0x1 PUSH1 0x1 PUSH1 0xA0 SHL SUB AND DUP2 MSTORE PUSH1 0x20 ADD SWAP1 DUP2 MSTORE PUSH1 0x20 ADD PUSH1 0x0 KECCAK256 PUSH1 0x0 PUSH2 0x100 EXP DUP2 SLOAD DUP2 PUSH1 0xFF MUL NOT AND SWAP1 DUP4 ISZERO ISZERO MUL OR SWAP1 SSTORE POP PUSH32 0x1618A22A3B00B9AC70FD5A82F1F5CDD8CB272BD0F1B740DDF7C26AB05881DD5B DUP4 DUP3 DUP2 MLOAD DUP2 LT PUSH2 0x5E4 JUMPI PUSH2 0x5E4 PUSH2 0x922 JUMP JUMPDEST PUSH1 0x20 MUL PUSH1 0x20 ADD ADD MLOAD DUP4 DUP4 DUP2 MLOAD DUP2 LT PUSH2 0x5FE JUMPI PUSH2 0x5FE PUSH2 0x922 JUMP JUMPDEST PUSH1 0x20 MUL PUSH1 0x20 ADD ADD MLOAD PUSH1 0x40 MLOAD PUSH2 0x62A SWAP3 SWAP2 SWAP1 PUSH1 0x1 PUSH1 0x1 PUSH1 0xA0 SHL SUB SWAP3 SWAP1 SWAP3 AND DUP3 MSTORE ISZERO ISZERO PUSH1 0x20 DUP3 ADD MSTORE PUSH1 0x40 ADD SWAP1 JUMP JUMPDEST PUSH1 0x40 MLOAD DUP1 SWAP2 SUB SWAP1 LOG1 DUP1 PUSH2 0x63C DUP2 PUSH2 0x8F1 JUMP JUMPDEST SWAP2 POP POP PUSH2 0x539 JUMP JUMPDEST POP POP POP JUMP JUMPDEST DUP1 CALLDATALOAD PUSH1 0x1 PUSH1 0x1 PUSH1 0xA0 SHL SUB DUP2 AND DUP2 EQ PUSH2 0x660 JUMPI PUSH1 0x0 DUP1 REVERT JUMPDEST SWAP2 SWAP1 POP JUMP JUMPDEST PUSH1 0x0 DUP3 PUSH1 0x1F DUP4 ADD SLT PUSH2 0x676 JUMPI PUSH1 0x0 DUP1 REVERT JUMPDEST DUP2 CALLDATALOAD PUSH1 0x20 PUSH2 0x68B PUSH2 0x686 DUP4 PUSH2 0x85D JUMP JUMPDEST PUSH2 0x82C JUMP JUMPDEST DUP1 DUP4 DUP3 MSTORE DUP3 DUP3 ADD SWAP2 POP DUP3 DUP7 ADD DUP8 DUP5 DUP7 PUSH1 0x5 SHL DUP10 ADD ADD GT ISZERO PUSH2 0x6AB JUMPI PUSH1 0x0 DUP1 REVERT JUMPDEST PUSH1 0x0 DUP1 JUMPDEST DUP7 DUP2 LT ISZERO PUSH2 0x6D8 JUMPI DUP3 CALLDATALOAD DUP1 ISZERO ISZERO DUP2 EQ PUSH2 0x6C6 JUMPI DUP3 DUP4 REVERT JUMPDEST DUP6 MSTORE SWAP4 DUP6 ADD SWAP4 SWAP2 DUP6 ADD SWAP2 PUSH1 0x1 ADD PUSH2 0x6AF JUMP JUMPDEST POP SWAP2 SWAP9 SWAP8 POP POP POP POP POP POP POP POP JUMP JUMPDEST PUSH1 0x0 PUSH1 0x20 DUP3 DUP5 SUB SLT ISZERO PUSH2 0x6F8 JUMPI PUSH1 0x0 DUP1 REVERT JUMPDEST PUSH2 0x701 DUP3 PUSH2 0x649 JUMP JUMPDEST SWAP4 SWAP3 POP POP POP JUMP JUMPDEST PUSH1 0x0 DUP1 PUSH1 0x40 DUP4 DUP6 SUB SLT ISZERO PUSH2 0x71B JUMPI PUSH1 0x0 DUP1 REVERT JUMPDEST PUSH2 0x724 DUP4 PUSH2 0x649 JUMP JUMPDEST SWAP2 POP PUSH2 0x732 PUSH1 0x20 DUP5 ADD PUSH2 0x649 JUMP JUMPDEST SWAP1 POP SWAP3 POP SWAP3 SWAP1 POP JUMP JUMPDEST PUSH1 0x0 DUP1 PUSH1 0x40 DUP4 DUP6 SUB SLT ISZERO PUSH2 0x74E JUMPI PUSH1 0x0 DUP1 REVERT JUMPDEST PUSH2 0x757 DUP4 PUSH2 0x649 JUMP JUMPDEST SWAP5 PUSH1 0x20 SWAP4 SWAP1 SWAP4 ADD CALLDATALOAD SWAP4 POP POP POP JUMP JUMPDEST PUSH1 0x0 DUP1 PUSH1 0x40 DUP4 DUP6 SUB SLT ISZERO PUSH2 0x778 JUMPI PUSH1 0x0 DUP1 REVERT JUMPDEST DUP3 CALLDATALOAD PUSH8 0xFFFFFFFFFFFFFFFF DUP1 DUP3 GT ISZERO PUSH2 0x790 JUMPI PUSH1 0x0 DUP1 REVERT JUMPDEST DUP2 DUP6 ADD SWAP2 POP DUP6 PUSH1 0x1F DUP4 ADD SLT PUSH2 0x7A4 JUMPI PUSH1 0x0 DUP1 REVERT JUMPDEST DUP2 CALLDATALOAD PUSH1 0x20 PUSH2 0x7B4 PUSH2 0x686 DUP4 PUSH2 0x85D JUMP JUMPDEST DUP1 DUP4 DUP3 MSTORE DUP3 DUP3 ADD SWAP2 POP DUP3 DUP7 ADD DUP11 DUP5 DUP7 PUSH1 0x5 SHL DUP10 ADD ADD GT ISZERO PUSH2 0x7D4 JUMPI PUSH1 0x0 DUP1 REVERT JUMPDEST PUSH1 0x0 SWAP7 POP JUMPDEST DUP5 DUP8 LT ISZERO PUSH2 0x7FE JUMPI PUSH2 0x7EA DUP2 PUSH2 0x649 JUMP JUMPDEST DUP4 MSTORE PUSH1 0x1 SWAP7 SWAP1 SWAP7 ADD SWAP6 SWAP2 DUP4 ADD SWAP2 DUP4 ADD PUSH2 0x7D9 JUMP JUMPDEST POP SWAP7 POP POP DUP7 ADD CALLDATALOAD SWAP3 POP POP DUP1 DUP3 GT ISZERO PUSH2 0x815 JUMPI PUSH1 0x0 DUP1 REVERT JUMPDEST POP PUSH2 0x822 DUP6 DUP3 DUP7 ADD PUSH2 0x665 JUMP JUMPDEST SWAP2 POP POP SWAP3 POP SWAP3 SWAP1 POP JUMP JUMPDEST PUSH1 0x40 MLOAD PUSH1 0x1F DUP3 ADD PUSH1 0x1F NOT AND DUP2 ADD PUSH8 0xFFFFFFFFFFFFFFFF DUP2 GT DUP3 DUP3 LT OR ISZERO PUSH2 0x855 JUMPI PUSH2 0x855 PUSH2 0x938 JUMP JUMPDEST PUSH1 0x40 MSTORE SWAP2 SWAP1 POP JUMP JUMPDEST PUSH1 0x0 PUSH8 0xFFFFFFFFFFFFFFFF DUP3 GT ISZERO PUSH2 0x877 JUMPI PUSH2 0x877 PUSH2 0x938 JUMP JUMPDEST POP PUSH1 0x5 SHL PUSH1 0x20 ADD SWAP1 JUMP JUMPDEST PUSH1 0x0 DUP3 NOT DUP3 GT ISZERO PUSH2 0x894 JUMPI PUSH2 0x894 PUSH2 0x90C JUMP JUMPDEST POP ADD SWAP1 JUMP JUMPDEST PUSH1 0x0 DUP3 PUSH2 0x8B6 JUMPI PUSH4 0x4E487B71 PUSH1 0xE0 SHL PUSH1 0x0 MSTORE PUSH1 0x12 PUSH1 0x4 MSTORE PUSH1 0x24 PUSH1 0x0 REVERT JUMPDEST POP DIV SWAP1 JUMP JUMPDEST PUSH1 0x0 DUP2 PUSH1 0x0 NOT DIV DUP4 GT DUP3 ISZERO ISZERO AND ISZERO PUSH2 0x8D5 JUMPI PUSH2 0x8D5 PUSH2 0x90C JUMP JUMPDEST POP MUL SWAP1 JUMP JUMPDEST PUSH1 0x0 DUP3 DUP3 LT ISZERO PUSH2 0x8EC JUMPI PUSH2 0x8EC PUSH2 0x90C JUMP JUMPDEST POP SUB SWAP1 JUMP JUMPDEST PUSH1 0x0 PUSH1 0x0 NOT DUP3 EQ ISZERO PUSH2 0x905 JUMPI PUSH2 0x905 PUSH2 0x90C JUMP JUMPDEST POP PUSH1 0x1 ADD SWAP1 JUMP JUMPDEST PUSH4 0x4E487B71 PUSH1 0xE0 SHL PUSH1 0x0 MSTORE PUSH1 0x11 PUSH1 0x4 MSTORE PUSH1 0x24 PUSH1 0x0 REVERT JUMPDEST PUSH4 0x4E487B71 PUSH1 0xE0 SHL PUSH1 0x0 MSTORE PUSH1 0x32 PUSH1 0x4 MSTORE PUSH1 0x24 PUSH1 0x0 REVERT JUMPDEST PUSH4 0x4E487B71 PUSH1 0xE0 SHL PUSH1 0x0 MSTORE PUSH1 0x41 PUSH1 0x4 MSTORE PUSH1 0x24 PUSH1 0x0 REVERT INVALID LOG2 PUSH5 0x6970667358 0x22 SLT KECCAK256 0x2D 0xE9 0xDF DUP15 EXP 0xD5 BASEFEE MOD 0xAC PUSH32 0x8D77ADCA93EF8A675D099BB8E11252297F5E98D1333664736F6C634300080700 CALLER "},"gasEstimates":{"creation":{"codeDepositCost":"487200","executionCost":"24759","totalCost":"511959"},"external":{"canUpdateDeadline(address)":"6914","discountedFee(address,uint256)":"7228","getUserInfo(address)":"7028","manager()":"2404","operator(address)":"2575","setManager(address)":"27830","setOperators(address[],bool[])":"infinite","updateMembership(address,uint256)":"52583","updateRef(address,address)":"infinite"}},"methodIdentifiers":{"canUpdateDeadline(address)":"4471097e","discountedFee(address,uint256)":"172c717b","getUserInfo(address)":"6386c1c7","manager()":"481c6a75","operator(address)":"9a307391","setManager(address)":"d0ebdbe7","setOperators(address[],bool[])":"f4305035","updateMembership(address,uint256)":"7e2421fb","updateRef(address,address)":"2701cc51"}},"storageLayout":{"storage":[{"astId":6,"contract":"contracts/UserStorage.sol:UserStorage","label":"manager","offset":0,"slot":"0","type":"t_address"},{"astId":10,"contract":"contracts/UserStorage.sol:UserStorage","label":"operator","offset":0,"slot":"1","type":"t_mapping(t_address,t_bool)"},{"astId":15,"contract":"contracts/UserStorage.sol:UserStorage","label":"userInfo","offset":0,"slot":"2","type":"t_mapping(t_address,t_struct(User)331_storage)"}],"types":{"t_address":{"encoding":"inplace","label":"address","numberOfBytes":"20"},"t_bool":{"encoding":"inplace","label":"bool","numberOfBytes":"1"},"t_mapping(t_address,t_bool)":{"encoding":"mapping","key":"t_address","label":"mapping(address => bool)","numberOfBytes":"32","value":"t_bool"},"t_mapping(t_address,t_struct(User)331_storage)":{"encoding":"mapping","key":"t_address","label":"mapping(address => struct IUserStorage.User)","numberOfBytes":"32","value":"t_struct(User)331_storage"},"t_struct(User)331_storage":{"encoding":"inplace","label":"struct IUserStorage.User","members":[{"astId":326,"contract":"contracts/UserStorage.sol:UserStorage","label":"id","offset":0,"slot":"0","type":"t_address"},{"astId":328,"contract":"contracts/UserStorage.sol:UserStorage","label":"ref","offset":0,"slot":"1","type":"t_address"},{"astId":330,"contract":"contracts/UserStorage.sol:UserStorage","label":"membershipLevel","offset":0,"slot":"2","type":"t_uint256"}],"numberOfBytes":"96"},"t_uint256":{"encoding":"inplace","label":"uint256","numberOfBytes":"32"}}},"userdoc":{"kind":"user","methods":{},"version":1}}}}