{"contracts/SyncswapStablePriceFeedIntegration.sol":{"SyncswapStablePriceFeedIntegration":{"abi":[{"inputs":[{"internalType":"address","name":"_factory","type":"address"}],"stateMutability":"nonpayable","type":"constructor"},{"inputs":[],"name":"PRECISION","outputs":[{"internalType":"uint256","name":"","type":"uint256"}],"stateMutability":"view","type":"function"},{"inputs":[],"name":"factory","outputs":[{"internalType":"address","name":"","type":"address"}],"stateMutability":"view","type":"function"},{"inputs":[{"internalType":"address","name":"_baseToken","type":"address"},{"internalType":"address","name":"_quoteToken","type":"address"}],"name":"getPrice","outputs":[{"internalType":"uint256","name":"price","type":"uint256"}],"stateMutability":"view","type":"function"}],"devdoc":{"kind":"dev","methods":{},"version":1},"evm":{"bytecode":{"linkReferences":{},"object":"60a060405234801561001057600080fd5b5060405161076438038061076483398101604081905261002f91610044565b60601b6001600160601b031916608052610074565b60006020828403121561005657600080fd5b81516001600160a01b038116811461006d57600080fd5b9392505050565b60805160601c6106cc610098600039600081816085015261011901526106cc6000f3fe608060405234801561001057600080fd5b50600436106100415760003560e01c8063aaf5eb6814610046578063ac41865a1461006d578063c45a015514610080575b600080fd5b61005a6c0c9f2c9cd04674edea4000000081565b6040519081526020015b60405180910390f35b61005a61007b36600461047b565b6100bf565b6100a77f000000000000000000000000000000000000000000000000000000000000000081565b6040516001600160a01b039091168152602001610064565b6000816001600160a01b0316836001600160a01b031614156100ef57506c0c9f2c9cd04674edea40000000610451565b60405163298d501f60e11b81526001600160a01b03848116600483015283811660248301526000917f00000000000000000000000000000000000000000000000000000000000000009091169063531aa03e9060440160206040518083038186803b15801561015d57600080fd5b505afa158015610171573d6000803e3d6000fd5b505050506040513d601f19601f820116820180604052508101906101959190610457565b90506001600160a01b03811615610326576040516308b4c54760e41b81523360048201526001600160a01b0385811660248301528481166044830152608060648301526000608483018190529190831690638b4c54709060a40160206040518083038186803b15801561020757600080fd5b505afa15801561021b573d6000803e3d6000fd5b505050506040513d601f19601f8201168201806040525081019061023f91906104b4565b60405160016231ba9d60e11b031981526001600160a01b038781166004830152620186a0602483018190523360448401529293506000919085169063ff9c8ac69060640160206040518083038186803b15801561029b57600080fd5b505afa1580156102af573d6000803e3d6000fd5b505050506040513d601f19601f820116820180604052508101906102d391906104d9565b9050620186a06102e38482610515565b6102f29062ffffff1683610649565b6102fc919061053c565b9050816103166c0c9f2c9cd04674edea4000000083610649565b610320919061053c565b94505050505b6000846001600160a01b031663313ce5676040518163ffffffff1660e01b815260040160206040518083038186803b15801561036157600080fd5b505afa158015610375573d6000803e3d6000fd5b505050506040513d601f19601f8201168201806040525081019061039991906104f2565b60ff1690506000846001600160a01b031663313ce5676040518163ffffffff1660e01b815260040160206040518083038186803b1580156103d957600080fd5b505afa1580156103ed573d6000803e3d6000fd5b505050506040513d601f19601f8201168201806040525081019061041191906104f2565b60ff169050600061042383600a6105a1565b9050600061043283600a6105a1565b90508061043f8388610649565b610449919061053c565b955050505050505b92915050565b60006020828403121561046957600080fd5b81516104748161067e565b9392505050565b6000806040838503121561048e57600080fd5b82356104998161067e565b915060208301356104a98161067e565b809150509250929050565b6000602082840312156104c657600080fd5b815162ffffff8116811461047457600080fd5b6000602082840312156104eb57600080fd5b5051919050565b60006020828403121561050457600080fd5b815160ff8116811461047457600080fd5b600062ffffff80831681851680830382111561053357610533610668565b01949350505050565b60008261055957634e487b7160e01b600052601260045260246000fd5b500490565b600181815b8085111561059957816000190482111561057f5761057f610668565b8085161561058c57918102915b93841c9390800290610563565b509250929050565b600061047483836000826105b757506001610451565b816105c457506000610451565b81600181146105da57600281146105e457610600565b6001915050610451565b60ff8411156105f5576105f5610668565b50506001821b610451565b5060208310610133831016604e8410600b8410161715610623575081810a610451565b61062d838361055e565b806000190482111561064157610641610668565b029392505050565b600081600019048311821515161561066357610663610668565b500290565b634e487b7160e01b600052601160045260246000fd5b6001600160a01b038116811461069357600080fd5b5056fea2646970667358221220a2c685a47593d23205de99332bf07aec0fb5183f7cf078270a9d99b60038e2ec64736f6c63430008070033","opcodes":"PUSH1 0xA0 PUSH1 0x40 MSTORE CALLVALUE DUP1 ISZERO PUSH2 0x10 JUMPI PUSH1 0x0 DUP1 REVERT JUMPDEST POP PUSH1 0x40 MLOAD PUSH2 0x764 CODESIZE SUB DUP1 PUSH2 0x764 DUP4 CODECOPY DUP2 ADD PUSH1 0x40 DUP2 SWAP1 MSTORE PUSH2 0x2F SWAP2 PUSH2 0x44 JUMP JUMPDEST PUSH1 0x60 SHL PUSH1 0x1 PUSH1 0x1 PUSH1 0x60 SHL SUB NOT AND PUSH1 0x80 MSTORE PUSH2 0x74 JUMP JUMPDEST PUSH1 0x0 PUSH1 0x20 DUP3 DUP5 SUB SLT ISZERO PUSH2 0x56 JUMPI PUSH1 0x0 DUP1 REVERT JUMPDEST DUP2 MLOAD PUSH1 0x1 PUSH1 0x1 PUSH1 0xA0 SHL SUB DUP2 AND DUP2 EQ PUSH2 0x6D JUMPI PUSH1 0x0 DUP1 REVERT JUMPDEST SWAP4 SWAP3 POP POP POP JUMP JUMPDEST PUSH1 0x80 MLOAD PUSH1 0x60 SHR PUSH2 0x6CC PUSH2 0x98 PUSH1 0x0 CODECOPY PUSH1 0x0 DUP2 DUP2 PUSH1 0x85 ADD MSTORE PUSH2 0x119 ADD MSTORE PUSH2 0x6CC PUSH1 0x0 RETURN INVALID PUSH1 0x80 PUSH1 0x40 MSTORE CALLVALUE DUP1 ISZERO PUSH2 0x10 JUMPI PUSH1 0x0 DUP1 REVERT JUMPDEST POP PUSH1 0x4 CALLDATASIZE LT PUSH2 0x41 JUMPI PUSH1 0x0 CALLDATALOAD PUSH1 0xE0 SHR DUP1 PUSH4 0xAAF5EB68 EQ PUSH2 0x46 JUMPI DUP1 PUSH4 0xAC41865A EQ PUSH2 0x6D JUMPI DUP1 PUSH4 0xC45A0155 EQ PUSH2 0x80 JUMPI JUMPDEST PUSH1 0x0 DUP1 REVERT JUMPDEST PUSH2 0x5A PUSH13 0xC9F2C9CD04674EDEA40000000 DUP2 JUMP JUMPDEST PUSH1 0x40 MLOAD SWAP1 DUP2 MSTORE PUSH1 0x20 ADD JUMPDEST PUSH1 0x40 MLOAD DUP1 SWAP2 SUB SWAP1 RETURN JUMPDEST PUSH2 0x5A PUSH2 0x7B CALLDATASIZE PUSH1 0x4 PUSH2 0x47B JUMP JUMPDEST PUSH2 0xBF JUMP JUMPDEST PUSH2 0xA7 PUSH32 0x0 DUP2 JUMP JUMPDEST PUSH1 0x40 MLOAD PUSH1 0x1 PUSH1 0x1 PUSH1 0xA0 SHL SUB SWAP1 SWAP2 AND DUP2 MSTORE PUSH1 0x20 ADD PUSH2 0x64 JUMP JUMPDEST PUSH1 0x0 DUP2 PUSH1 0x1 PUSH1 0x1 PUSH1 0xA0 SHL SUB AND DUP4 PUSH1 0x1 PUSH1 0x1 PUSH1 0xA0 SHL SUB AND EQ ISZERO PUSH2 0xEF JUMPI POP PUSH13 0xC9F2C9CD04674EDEA40000000 PUSH2 0x451 JUMP JUMPDEST PUSH1 0x40 MLOAD PUSH4 0x298D501F PUSH1 0xE1 SHL DUP2 MSTORE PUSH1 0x1 PUSH1 0x1 PUSH1 0xA0 SHL SUB DUP5 DUP2 AND PUSH1 0x4 DUP4 ADD MSTORE DUP4 DUP2 AND PUSH1 0x24 DUP4 ADD MSTORE PUSH1 0x0 SWAP2 PUSH32 0x0 SWAP1 SWAP2 AND SWAP1 PUSH4 0x531AA03E SWAP1 PUSH1 0x44 ADD PUSH1 0x20 PUSH1 0x40 MLOAD DUP1 DUP4 SUB DUP2 DUP7 DUP1 EXTCODESIZE ISZERO DUP1 ISZERO PUSH2 0x15D JUMPI PUSH1 0x0 DUP1 REVERT JUMPDEST POP GAS STATICCALL ISZERO DUP1 ISZERO PUSH2 0x171 JUMPI RETURNDATASIZE PUSH1 0x0 DUP1 RETURNDATACOPY RETURNDATASIZE PUSH1 0x0 REVERT JUMPDEST POP POP POP POP PUSH1 0x40 MLOAD RETURNDATASIZE PUSH1 0x1F NOT PUSH1 0x1F DUP3 ADD AND DUP3 ADD DUP1 PUSH1 0x40 MSTORE POP DUP2 ADD SWAP1 PUSH2 0x195 SWAP2 SWAP1 PUSH2 0x457 JUMP JUMPDEST SWAP1 POP PUSH1 0x1 PUSH1 0x1 PUSH1 0xA0 SHL SUB DUP2 AND ISZERO PUSH2 0x326 JUMPI PUSH1 0x40 MLOAD PUSH4 0x8B4C547 PUSH1 0xE4 SHL DUP2 MSTORE CALLER PUSH1 0x4 DUP3 ADD MSTORE PUSH1 0x1 PUSH1 0x1 PUSH1 0xA0 SHL SUB DUP6 DUP2 AND PUSH1 0x24 DUP4 ADD MSTORE DUP5 DUP2 AND PUSH1 0x44 DUP4 ADD MSTORE PUSH1 0x80 PUSH1 0x64 DUP4 ADD MSTORE PUSH1 0x0 PUSH1 0x84 DUP4 ADD DUP2 SWAP1 MSTORE SWAP2 SWAP1 DUP4 AND SWAP1 PUSH4 0x8B4C5470 SWAP1 PUSH1 0xA4 ADD PUSH1 0x20 PUSH1 0x40 MLOAD DUP1 DUP4 SUB DUP2 DUP7 DUP1 EXTCODESIZE ISZERO DUP1 ISZERO PUSH2 0x207 JUMPI PUSH1 0x0 DUP1 REVERT JUMPDEST POP GAS STATICCALL ISZERO DUP1 ISZERO PUSH2 0x21B JUMPI RETURNDATASIZE PUSH1 0x0 DUP1 RETURNDATACOPY RETURNDATASIZE PUSH1 0x0 REVERT JUMPDEST POP POP POP POP PUSH1 0x40 MLOAD RETURNDATASIZE PUSH1 0x1F NOT PUSH1 0x1F DUP3 ADD AND DUP3 ADD DUP1 PUSH1 0x40 MSTORE POP DUP2 ADD SWAP1 PUSH2 0x23F SWAP2 SWAP1 PUSH2 0x4B4 JUMP JUMPDEST PUSH1 0x40 MLOAD PUSH1 0x1 PUSH3 0x31BA9D PUSH1 0xE1 SHL SUB NOT DUP2 MSTORE PUSH1 0x1 PUSH1 0x1 PUSH1 0xA0 SHL SUB DUP8 DUP2 AND PUSH1 0x4 DUP4 ADD MSTORE PUSH3 0x186A0 PUSH1 0x24 DUP4 ADD DUP2 SWAP1 MSTORE CALLER PUSH1 0x44 DUP5 ADD MSTORE SWAP3 SWAP4 POP PUSH1 0x0 SWAP2 SWAP1 DUP6 AND SWAP1 PUSH4 0xFF9C8AC6 SWAP1 PUSH1 0x64 ADD PUSH1 0x20 PUSH1 0x40 MLOAD DUP1 DUP4 SUB DUP2 DUP7 DUP1 EXTCODESIZE ISZERO DUP1 ISZERO PUSH2 0x29B JUMPI PUSH1 0x0 DUP1 REVERT JUMPDEST POP GAS STATICCALL ISZERO DUP1 ISZERO PUSH2 0x2AF JUMPI RETURNDATASIZE PUSH1 0x0 DUP1 RETURNDATACOPY RETURNDATASIZE PUSH1 0x0 REVERT JUMPDEST POP POP POP POP PUSH1 0x40 MLOAD RETURNDATASIZE PUSH1 0x1F NOT PUSH1 0x1F DUP3 ADD AND DUP3 ADD DUP1 PUSH1 0x40 MSTORE POP DUP2 ADD SWAP1 PUSH2 0x2D3 SWAP2 SWAP1 PUSH2 0x4D9 JUMP JUMPDEST SWAP1 POP PUSH3 0x186A0 PUSH2 0x2E3 DUP5 DUP3 PUSH2 0x515 JUMP JUMPDEST PUSH2 0x2F2 SWAP1 PUSH3 0xFFFFFF AND DUP4 PUSH2 0x649 JUMP JUMPDEST PUSH2 0x2FC SWAP2 SWAP1 PUSH2 0x53C JUMP JUMPDEST SWAP1 POP DUP2 PUSH2 0x316 PUSH13 0xC9F2C9CD04674EDEA40000000 DUP4 PUSH2 0x649 JUMP JUMPDEST PUSH2 0x320 SWAP2 SWAP1 PUSH2 0x53C JUMP JUMPDEST SWAP5 POP POP POP POP JUMPDEST PUSH1 0x0 DUP5 PUSH1 0x1 PUSH1 0x1 PUSH1 0xA0 SHL SUB AND PUSH4 0x313CE567 PUSH1 0x40 MLOAD DUP2 PUSH4 0xFFFFFFFF AND PUSH1 0xE0 SHL DUP2 MSTORE PUSH1 0x4 ADD PUSH1 0x20 PUSH1 0x40 MLOAD DUP1 DUP4 SUB DUP2 DUP7 DUP1 EXTCODESIZE ISZERO DUP1 ISZERO PUSH2 0x361 JUMPI PUSH1 0x0 DUP1 REVERT JUMPDEST POP GAS STATICCALL ISZERO DUP1 ISZERO PUSH2 0x375 JUMPI RETURNDATASIZE PUSH1 0x0 DUP1 RETURNDATACOPY RETURNDATASIZE PUSH1 0x0 REVERT JUMPDEST POP POP POP POP PUSH1 0x40 MLOAD RETURNDATASIZE PUSH1 0x1F NOT PUSH1 0x1F DUP3 ADD AND DUP3 ADD DUP1 PUSH1 0x40 MSTORE POP DUP2 ADD SWAP1 PUSH2 0x399 SWAP2 SWAP1 PUSH2 0x4F2 JUMP JUMPDEST PUSH1 0xFF AND SWAP1 POP PUSH1 0x0 DUP5 PUSH1 0x1 PUSH1 0x1 PUSH1 0xA0 SHL SUB AND PUSH4 0x313CE567 PUSH1 0x40 MLOAD DUP2 PUSH4 0xFFFFFFFF AND PUSH1 0xE0 SHL DUP2 MSTORE PUSH1 0x4 ADD PUSH1 0x20 PUSH1 0x40 MLOAD DUP1 DUP4 SUB DUP2 DUP7 DUP1 EXTCODESIZE ISZERO DUP1 ISZERO PUSH2 0x3D9 JUMPI PUSH1 0x0 DUP1 REVERT JUMPDEST POP GAS STATICCALL ISZERO DUP1 ISZERO PUSH2 0x3ED JUMPI RETURNDATASIZE PUSH1 0x0 DUP1 RETURNDATACOPY RETURNDATASIZE PUSH1 0x0 REVERT JUMPDEST POP POP POP POP PUSH1 0x40 MLOAD RETURNDATASIZE PUSH1 0x1F NOT PUSH1 0x1F DUP3 ADD AND DUP3 ADD DUP1 PUSH1 0x40 MSTORE POP DUP2 ADD SWAP1 PUSH2 0x411 SWAP2 SWAP1 PUSH2 0x4F2 JUMP JUMPDEST PUSH1 0xFF AND SWAP1 POP PUSH1 0x0 PUSH2 0x423 DUP4 PUSH1 0xA PUSH2 0x5A1 JUMP JUMPDEST SWAP1 POP PUSH1 0x0 PUSH2 0x432 DUP4 PUSH1 0xA PUSH2 0x5A1 JUMP JUMPDEST SWAP1 POP DUP1 PUSH2 0x43F DUP4 DUP9 PUSH2 0x649 JUMP JUMPDEST PUSH2 0x449 SWAP2 SWAP1 PUSH2 0x53C JUMP JUMPDEST SWAP6 POP POP POP POP POP POP JUMPDEST SWAP3 SWAP2 POP POP JUMP JUMPDEST PUSH1 0x0 PUSH1 0x20 DUP3 DUP5 SUB SLT ISZERO PUSH2 0x469 JUMPI PUSH1 0x0 DUP1 REVERT JUMPDEST DUP2 MLOAD PUSH2 0x474 DUP2 PUSH2 0x67E JUMP JUMPDEST SWAP4 SWAP3 POP POP POP JUMP JUMPDEST PUSH1 0x0 DUP1 PUSH1 0x40 DUP4 DUP6 SUB SLT ISZERO PUSH2 0x48E JUMPI PUSH1 0x0 DUP1 REVERT JUMPDEST DUP3 CALLDATALOAD PUSH2 0x499 DUP2 PUSH2 0x67E JUMP JUMPDEST SWAP2 POP PUSH1 0x20 DUP4 ADD CALLDATALOAD PUSH2 0x4A9 DUP2 PUSH2 0x67E JUMP JUMPDEST DUP1 SWAP2 POP POP SWAP3 POP SWAP3 SWAP1 POP JUMP JUMPDEST PUSH1 0x0 PUSH1 0x20 DUP3 DUP5 SUB SLT ISZERO PUSH2 0x4C6 JUMPI PUSH1 0x0 DUP1 REVERT JUMPDEST DUP2 MLOAD PUSH3 0xFFFFFF DUP2 AND DUP2 EQ PUSH2 0x474 JUMPI PUSH1 0x0 DUP1 REVERT JUMPDEST PUSH1 0x0 PUSH1 0x20 DUP3 DUP5 SUB SLT ISZERO PUSH2 0x4EB JUMPI PUSH1 0x0 DUP1 REVERT JUMPDEST POP MLOAD SWAP2 SWAP1 POP JUMP JUMPDEST PUSH1 0x0 PUSH1 0x20 DUP3 DUP5 SUB SLT ISZERO PUSH2 0x504 JUMPI PUSH1 0x0 DUP1 REVERT JUMPDEST DUP2 MLOAD PUSH1 0xFF DUP2 AND DUP2 EQ PUSH2 0x474 JUMPI PUSH1 0x0 DUP1 REVERT JUMPDEST PUSH1 0x0 PUSH3 0xFFFFFF DUP1 DUP4 AND DUP2 DUP6 AND DUP1 DUP4 SUB DUP3 GT ISZERO PUSH2 0x533 JUMPI PUSH2 0x533 PUSH2 0x668 JUMP JUMPDEST ADD SWAP5 SWAP4 POP POP POP POP JUMP JUMPDEST PUSH1 0x0 DUP3 PUSH2 0x559 JUMPI PUSH4 0x4E487B71 PUSH1 0xE0 SHL PUSH1 0x0 MSTORE PUSH1 0x12 PUSH1 0x4 MSTORE PUSH1 0x24 PUSH1 0x0 REVERT JUMPDEST POP DIV SWAP1 JUMP JUMPDEST PUSH1 0x1 DUP2 DUP2 JUMPDEST DUP1 DUP6 GT ISZERO PUSH2 0x599 JUMPI DUP2 PUSH1 0x0 NOT DIV DUP3 GT ISZERO PUSH2 0x57F JUMPI PUSH2 0x57F PUSH2 0x668 JUMP JUMPDEST DUP1 DUP6 AND ISZERO PUSH2 0x58C JUMPI SWAP2 DUP2 MUL SWAP2 JUMPDEST SWAP4 DUP5 SHR SWAP4 SWAP1 DUP1 MUL SWAP1 PUSH2 0x563 JUMP JUMPDEST POP SWAP3 POP SWAP3 SWAP1 POP JUMP JUMPDEST PUSH1 0x0 PUSH2 0x474 DUP4 DUP4 PUSH1 0x0 DUP3 PUSH2 0x5B7 JUMPI POP PUSH1 0x1 PUSH2 0x451 JUMP JUMPDEST DUP2 PUSH2 0x5C4 JUMPI POP PUSH1 0x0 PUSH2 0x451 JUMP JUMPDEST DUP2 PUSH1 0x1 DUP2 EQ PUSH2 0x5DA JUMPI PUSH1 0x2 DUP2 EQ PUSH2 0x5E4 JUMPI PUSH2 0x600 JUMP JUMPDEST PUSH1 0x1 SWAP2 POP POP PUSH2 0x451 JUMP JUMPDEST PUSH1 0xFF DUP5 GT ISZERO PUSH2 0x5F5 JUMPI PUSH2 0x5F5 PUSH2 0x668 JUMP JUMPDEST POP POP PUSH1 0x1 DUP3 SHL PUSH2 0x451 JUMP JUMPDEST POP PUSH1 0x20 DUP4 LT PUSH2 0x133 DUP4 LT AND PUSH1 0x4E DUP5 LT PUSH1 0xB DUP5 LT AND OR ISZERO PUSH2 0x623 JUMPI POP DUP2 DUP2 EXP PUSH2 0x451 JUMP JUMPDEST PUSH2 0x62D DUP4 DUP4 PUSH2 0x55E JUMP JUMPDEST DUP1 PUSH1 0x0 NOT DIV DUP3 GT ISZERO PUSH2 0x641 JUMPI PUSH2 0x641 PUSH2 0x668 JUMP JUMPDEST MUL SWAP4 SWAP3 POP POP POP JUMP JUMPDEST PUSH1 0x0 DUP2 PUSH1 0x0 NOT DIV DUP4 GT DUP3 ISZERO ISZERO AND ISZERO PUSH2 0x663 JUMPI PUSH2 0x663 PUSH2 0x668 JUMP JUMPDEST POP MUL SWAP1 JUMP JUMPDEST PUSH4 0x4E487B71 PUSH1 0xE0 SHL PUSH1 0x0 MSTORE PUSH1 0x11 PUSH1 0x4 MSTORE PUSH1 0x24 PUSH1 0x0 REVERT JUMPDEST PUSH1 0x1 PUSH1 0x1 PUSH1 0xA0 SHL SUB DUP2 AND DUP2 EQ PUSH2 0x693 JUMPI PUSH1 0x0 DUP1 REVERT JUMPDEST POP JUMP INVALID LOG2 PUSH5 0x6970667358 0x22 SLT KECCAK256 LOG2 0xC6 DUP6 LOG4 PUSH22 0x93D23205DE99332BF07AEC0FB5183F7CF078270A9D99 0xB6 STOP CODESIZE 0xE2 0xEC PUSH5 0x736F6C6343 STOP ADDMOD SMOD STOP CALLER "},"gasEstimates":{"creation":{"codeDepositCost":"348000","executionCost":"infinite","totalCost":"infinite"},"external":{"PRECISION()":"162","factory()":"infinite","getPrice(address,address)":"infinite"}},"methodIdentifiers":{"PRECISION()":"aaf5eb68","factory()":"c45a0155","getPrice(address,address)":"ac41865a"}},"storageLayout":{"storage":[],"types":null},"userdoc":{"kind":"user","methods":{},"version":1}}}}