{"contracts/integrations/UniswapV3PriceFeedIntegration.sol":{"UniswapV3PriceFeedIntegration":{"abi":[{"inputs":[{"internalType":"address","name":"_factory","type":"address"}],"stateMutability":"nonpayable","type":"constructor"},{"inputs":[],"name":"PRECISION","outputs":[{"internalType":"uint256","name":"","type":"uint256"}],"stateMutability":"view","type":"function"},{"inputs":[],"name":"factory","outputs":[{"internalType":"address","name":"","type":"address"}],"stateMutability":"view","type":"function"},{"inputs":[{"internalType":"uint256","name":"","type":"uint256"}],"name":"feeTiers","outputs":[{"internalType":"uint24","name":"","type":"uint24"}],"stateMutability":"view","type":"function"},{"inputs":[{"internalType":"address","name":"_baseToken","type":"address"},{"internalType":"address","name":"_quoteToken","type":"address"}],"name":"getPrice","outputs":[{"internalType":"uint256","name":"price","type":"uint256"}],"stateMutability":"view","type":"function"}],"devdoc":{"kind":"dev","methods":{},"version":1},"evm":{"bytecode":{"linkReferences":{},"object":"610120604052606460a09081526101f460c052610bb860e0526127106101005261002d90600090600461006e565b5034801561003a57600080fd5b50604051610c7e380380610c7e8339810160408190526100599161012e565b60601b6001600160601b03191660805261015e565b82805482825590600052602060002090600901600a900481019282156101095791602002820160005b838211156100d857835183826101000a81548162ffffff021916908361ffff1602179055509260200192600301602081600201049283019260010302610097565b80156101075782816101000a81549062ffffff02191690556003016020816002010492830192600103026100d8565b505b50610115929150610119565b5090565b5b80821115610115576000815560010161011a565b60006020828403121561014057600080fd5b81516001600160a01b038116811461015757600080fd5b9392505050565b60805160601c610afc6101826000396000818160b701526101610152610afc6000f3fe608060405234801561001057600080fd5b506004361061004c5760003560e01c8063230ed44a14610051578063aaf5eb681461007d578063ac41865a1461009f578063c45a0155146100b2575b600080fd5b61006461005f3660046108af565b6100f1565b60405162ffffff90911681526020015b60405180910390f35b6100916c0c9f2c9cd04674edea4000000081565b604051908152602001610074565b6100916100ad3660046107db565b61012a565b6100d97f000000000000000000000000000000000000000000000000000000000000000081565b6040516001600160a01b039091168152602001610074565b6000818154811061010157600080fd5b90600052602060002090600a9182820401919006600302915054906101000a900462ffffff1681565b6000816001600160a01b0316836001600160a01b0316141561015a57506c0c9f2c9cd04674edea40000000610614565b60008054907f00000000000000000000000000000000000000000000000000000000000000009080806001600160a01b038088169089161061019d5786886101a0565b87875b9150915060005b85811015610498576000856001600160a01b0316631698ee828585600086815481106101d5576101d5610a98565b60009182526020909120600a8083049091015460405160e087901b6001600160e01b03191681526001600160a01b03958616600482015293909416602484015290066003026101000a90910462ffffff16604482015260640160206040518083038186803b15801561024657600080fd5b505afa15801561025a573d6000803e3d6000fd5b505050506040513d601f19601f8201168201806040525081019061027e91906107be565b90506001600160a01b03811615610485576040516370a0823160e01b81526001600160a01b03808316600483015282916000918716906370a082319060240160206040518083038186803b1580156102d557600080fd5b505afa1580156102e9573d6000803e3d6000fd5b505050506040513d601f19601f8201168201806040525081019061030d91906108c8565b6040516370a0823160e01b81526001600160a01b0385811660048301529192506000918716906370a082319060240160206040518083038186803b15801561035457600080fd5b505afa158015610368573d6000803e3d6000fd5b505050506040513d601f19601f8201168201806040525081019061038c91906108c8565b90506000836001600160a01b0316633850c7bd6040518163ffffffff1660e01b815260040160e06040518083038186803b1580156103c957600080fd5b505afa1580156103dd573d6000803e3d6000fd5b505050506040513d601f19601f820116820180604052508101906104019190610814565b5050505050509050600061043c6002836001600160a01b03166104249190610985565b6c0c9f2c9cd04674edea40000000600160c01b61061a565b90506000836c0c9f2c9cd04674edea400000006104598488610a31565b6104639190610914565b61046d91906108fc565b90508a81111561047e57809a50819d505b5050505050505b508061049081610a67565b9150506101a7565b5085158015906104ba5750816001600160a01b0316886001600160a01b031614155b156104e557856104d860026c0c9f2c9cd04674edea40000000610985565b6104e29190610914565b95505b6000886001600160a01b031663313ce5676040518163ffffffff1660e01b815260040160206040518083038186803b15801561052057600080fd5b505afa158015610534573d6000803e3d6000fd5b505050506040513d601f19601f8201168201806040525081019061055891906108e1565b60ff1690506000886001600160a01b031663313ce5676040518163ffffffff1660e01b815260040160206040518083038186803b15801561059857600080fd5b505afa1580156105ac573d6000803e3d6000fd5b505050506040513d601f19601f820116820180604052508101906105d091906108e1565b60ff16905060006105e283600a610979565b905060006105f183600a610979565b9050806105fe838c610a31565b6106089190610914565b99505050505050505050505b92915050565b600080806000198587098587029250828110838203039150508060001415610654576000841161064957600080fd5b50829004905061078f565b80841161066057600080fd5b6000848688098084039381119092039190506000610680861960016108fc565b86169586900495938490049360008190030460010190506106a18184610a31565b9093179260006106b2876003610a31565b60021890506106c18188610a31565b6106cc906002610a50565b6106d69082610a31565b90506106e28188610a31565b6106ed906002610a50565b6106f79082610a31565b90506107038188610a31565b61070e906002610a50565b6107189082610a31565b90506107248188610a31565b61072f906002610a50565b6107399082610a31565b90506107458188610a31565b610750906002610a50565b61075a9082610a31565b90506107668188610a31565b610771906002610a50565b61077b9082610a31565b90506107878186610a31565b955050505050505b9392505050565b805161ffff811681146107a857600080fd5b919050565b805160ff811681146107a857600080fd5b6000602082840312156107d057600080fd5b815161078f81610aae565b600080604083850312156107ee57600080fd5b82356107f981610aae565b9150602083013561080981610aae565b809150509250929050565b600080600080600080600060e0888a03121561082f57600080fd5b875161083a81610aae565b8097505060208801518060020b811461085257600080fd5b955061086060408901610796565b945061086e60608901610796565b935061087c60808901610796565b925061088a60a089016107ad565b915060c0880151801515811461089f57600080fd5b8091505092959891949750929550565b6000602082840312156108c157600080fd5b5035919050565b6000602082840312156108da57600080fd5b5051919050565b6000602082840312156108f357600080fd5b61078f826107ad565b6000821982111561090f5761090f610a82565b500190565b60008261093157634e487b7160e01b600052601260045260246000fd5b500490565b600181815b8085111561097157816000190482111561095757610957610a82565b8085161561096457918102915b93841c939080029061093b565b509250929050565b600061078f8383610990565b600061078f60ff8416835b60008261099f57506001610614565b816109ac57506000610614565b81600181146109c257600281146109cc576109e8565b6001915050610614565b60ff8411156109dd576109dd610a82565b50506001821b610614565b5060208310610133831016604e8410600b8410161715610a0b575081810a610614565b610a158383610936565b8060001904821115610a2957610a29610a82565b029392505050565b6000816000190483118215151615610a4b57610a4b610a82565b500290565b600082821015610a6257610a62610a82565b500390565b6000600019821415610a7b57610a7b610a82565b5060010190565b634e487b7160e01b600052601160045260246000fd5b634e487b7160e01b600052603260045260246000fd5b6001600160a01b0381168114610ac357600080fd5b5056fea264697066735822122027121c817fd017bb5c0cb5ab3ed92b7d452984a15d4e13660327db439a7d77e964736f6c63430008070033","opcodes":"PUSH2 0x120 PUSH1 0x40 MSTORE PUSH1 0x64 PUSH1 0xA0 SWAP1 DUP2 MSTORE PUSH2 0x1F4 PUSH1 0xC0 MSTORE PUSH2 0xBB8 PUSH1 0xE0 MSTORE PUSH2 0x2710 PUSH2 0x100 MSTORE PUSH2 0x2D SWAP1 PUSH1 0x0 SWAP1 PUSH1 0x4 PUSH2 0x6E JUMP JUMPDEST POP CALLVALUE DUP1 ISZERO PUSH2 0x3A JUMPI PUSH1 0x0 DUP1 REVERT JUMPDEST POP PUSH1 0x40 MLOAD PUSH2 0xC7E CODESIZE SUB DUP1 PUSH2 0xC7E DUP4 CODECOPY DUP2 ADD PUSH1 0x40 DUP2 SWAP1 MSTORE PUSH2 0x59 SWAP2 PUSH2 0x12E JUMP JUMPDEST PUSH1 0x60 SHL PUSH1 0x1 PUSH1 0x1 PUSH1 0x60 SHL SUB NOT AND PUSH1 0x80 MSTORE PUSH2 0x15E JUMP JUMPDEST DUP3 DUP1 SLOAD DUP3 DUP3 SSTORE SWAP1 PUSH1 0x0 MSTORE PUSH1 0x20 PUSH1 0x0 KECCAK256 SWAP1 PUSH1 0x9 ADD PUSH1 0xA SWAP1 DIV DUP2 ADD SWAP3 DUP3 ISZERO PUSH2 0x109 JUMPI SWAP2 PUSH1 0x20 MUL DUP3 ADD PUSH1 0x0 JUMPDEST DUP4 DUP3 GT ISZERO PUSH2 0xD8 JUMPI DUP4 MLOAD DUP4 DUP3 PUSH2 0x100 EXP DUP2 SLOAD DUP2 PUSH3 0xFFFFFF MUL NOT AND SWAP1 DUP4 PUSH2 0xFFFF AND MUL OR SWAP1 SSTORE POP SWAP3 PUSH1 0x20 ADD SWAP3 PUSH1 0x3 ADD PUSH1 0x20 DUP2 PUSH1 0x2 ADD DIV SWAP3 DUP4 ADD SWAP3 PUSH1 0x1 SUB MUL PUSH2 0x97 JUMP JUMPDEST DUP1 ISZERO PUSH2 0x107 JUMPI DUP3 DUP2 PUSH2 0x100 EXP DUP2 SLOAD SWAP1 PUSH3 0xFFFFFF MUL NOT AND SWAP1 SSTORE PUSH1 0x3 ADD PUSH1 0x20 DUP2 PUSH1 0x2 ADD DIV SWAP3 DUP4 ADD SWAP3 PUSH1 0x1 SUB MUL PUSH2 0xD8 JUMP JUMPDEST POP JUMPDEST POP PUSH2 0x115 SWAP3 SWAP2 POP PUSH2 0x119 JUMP JUMPDEST POP SWAP1 JUMP JUMPDEST JUMPDEST DUP1 DUP3 GT ISZERO PUSH2 0x115 JUMPI PUSH1 0x0 DUP2 SSTORE PUSH1 0x1 ADD PUSH2 0x11A JUMP JUMPDEST PUSH1 0x0 PUSH1 0x20 DUP3 DUP5 SUB SLT ISZERO PUSH2 0x140 JUMPI PUSH1 0x0 DUP1 REVERT JUMPDEST DUP2 MLOAD PUSH1 0x1 PUSH1 0x1 PUSH1 0xA0 SHL SUB DUP2 AND DUP2 EQ PUSH2 0x157 JUMPI PUSH1 0x0 DUP1 REVERT JUMPDEST SWAP4 SWAP3 POP POP POP JUMP JUMPDEST PUSH1 0x80 MLOAD PUSH1 0x60 SHR PUSH2 0xAFC PUSH2 0x182 PUSH1 0x0 CODECOPY PUSH1 0x0 DUP2 DUP2 PUSH1 0xB7 ADD MSTORE PUSH2 0x161 ADD MSTORE PUSH2 0xAFC PUSH1 0x0 RETURN INVALID PUSH1 0x80 PUSH1 0x40 MSTORE CALLVALUE DUP1 ISZERO PUSH2 0x10 JUMPI PUSH1 0x0 DUP1 REVERT JUMPDEST POP PUSH1 0x4 CALLDATASIZE LT PUSH2 0x4C JUMPI PUSH1 0x0 CALLDATALOAD PUSH1 0xE0 SHR DUP1 PUSH4 0x230ED44A EQ PUSH2 0x51 JUMPI DUP1 PUSH4 0xAAF5EB68 EQ PUSH2 0x7D JUMPI DUP1 PUSH4 0xAC41865A EQ PUSH2 0x9F JUMPI DUP1 PUSH4 0xC45A0155 EQ PUSH2 0xB2 JUMPI JUMPDEST PUSH1 0x0 DUP1 REVERT JUMPDEST PUSH2 0x64 PUSH2 0x5F CALLDATASIZE PUSH1 0x4 PUSH2 0x8AF JUMP JUMPDEST PUSH2 0xF1 JUMP JUMPDEST PUSH1 0x40 MLOAD PUSH3 0xFFFFFF SWAP1 SWAP2 AND DUP2 MSTORE PUSH1 0x20 ADD JUMPDEST PUSH1 0x40 MLOAD DUP1 SWAP2 SUB SWAP1 RETURN JUMPDEST PUSH2 0x91 PUSH13 0xC9F2C9CD04674EDEA40000000 DUP2 JUMP JUMPDEST PUSH1 0x40 MLOAD SWAP1 DUP2 MSTORE PUSH1 0x20 ADD PUSH2 0x74 JUMP JUMPDEST PUSH2 0x91 PUSH2 0xAD CALLDATASIZE PUSH1 0x4 PUSH2 0x7DB JUMP JUMPDEST PUSH2 0x12A JUMP JUMPDEST PUSH2 0xD9 PUSH32 0x0 DUP2 JUMP JUMPDEST PUSH1 0x40 MLOAD PUSH1 0x1 PUSH1 0x1 PUSH1 0xA0 SHL SUB SWAP1 SWAP2 AND DUP2 MSTORE PUSH1 0x20 ADD PUSH2 0x74 JUMP JUMPDEST PUSH1 0x0 DUP2 DUP2 SLOAD DUP2 LT PUSH2 0x101 JUMPI PUSH1 0x0 DUP1 REVERT JUMPDEST SWAP1 PUSH1 0x0 MSTORE PUSH1 0x20 PUSH1 0x0 KECCAK256 SWAP1 PUSH1 0xA SWAP2 DUP3 DUP3 DIV ADD SWAP2 SWAP1 MOD PUSH1 0x3 MUL SWAP2 POP SLOAD SWAP1 PUSH2 0x100 EXP SWAP1 DIV PUSH3 0xFFFFFF AND DUP2 JUMP JUMPDEST PUSH1 0x0 DUP2 PUSH1 0x1 PUSH1 0x1 PUSH1 0xA0 SHL SUB AND DUP4 PUSH1 0x1 PUSH1 0x1 PUSH1 0xA0 SHL SUB AND EQ ISZERO PUSH2 0x15A JUMPI POP PUSH13 0xC9F2C9CD04674EDEA40000000 PUSH2 0x614 JUMP JUMPDEST PUSH1 0x0 DUP1 SLOAD SWAP1 PUSH32 0x0 SWAP1 DUP1 DUP1 PUSH1 0x1 PUSH1 0x1 PUSH1 0xA0 SHL SUB DUP1 DUP9 AND SWAP1 DUP10 AND LT PUSH2 0x19D JUMPI DUP7 DUP9 PUSH2 0x1A0 JUMP JUMPDEST DUP8 DUP8 JUMPDEST SWAP2 POP SWAP2 POP PUSH1 0x0 JUMPDEST DUP6 DUP2 LT ISZERO PUSH2 0x498 JUMPI PUSH1 0x0 DUP6 PUSH1 0x1 PUSH1 0x1 PUSH1 0xA0 SHL SUB AND PUSH4 0x1698EE82 DUP6 DUP6 PUSH1 0x0 DUP7 DUP2 SLOAD DUP2 LT PUSH2 0x1D5 JUMPI PUSH2 0x1D5 PUSH2 0xA98 JUMP JUMPDEST PUSH1 0x0 SWAP2 DUP3 MSTORE PUSH1 0x20 SWAP1 SWAP2 KECCAK256 PUSH1 0xA DUP1 DUP4 DIV SWAP1 SWAP2 ADD SLOAD PUSH1 0x40 MLOAD PUSH1 0xE0 DUP8 SWAP1 SHL PUSH1 0x1 PUSH1 0x1 PUSH1 0xE0 SHL SUB NOT AND DUP2 MSTORE PUSH1 0x1 PUSH1 0x1 PUSH1 0xA0 SHL SUB SWAP6 DUP7 AND PUSH1 0x4 DUP3 ADD MSTORE SWAP4 SWAP1 SWAP5 AND PUSH1 0x24 DUP5 ADD MSTORE SWAP1 MOD PUSH1 0x3 MUL PUSH2 0x100 EXP SWAP1 SWAP2 DIV PUSH3 0xFFFFFF AND PUSH1 0x44 DUP3 ADD MSTORE PUSH1 0x64 ADD PUSH1 0x20 PUSH1 0x40 MLOAD DUP1 DUP4 SUB DUP2 DUP7 DUP1 EXTCODESIZE ISZERO DUP1 ISZERO PUSH2 0x246 JUMPI PUSH1 0x0 DUP1 REVERT JUMPDEST POP GAS STATICCALL ISZERO DUP1 ISZERO PUSH2 0x25A JUMPI RETURNDATASIZE PUSH1 0x0 DUP1 RETURNDATACOPY RETURNDATASIZE PUSH1 0x0 REVERT JUMPDEST POP POP POP POP PUSH1 0x40 MLOAD RETURNDATASIZE PUSH1 0x1F NOT PUSH1 0x1F DUP3 ADD AND DUP3 ADD DUP1 PUSH1 0x40 MSTORE POP DUP2 ADD SWAP1 PUSH2 0x27E SWAP2 SWAP1 PUSH2 0x7BE JUMP JUMPDEST SWAP1 POP PUSH1 0x1 PUSH1 0x1 PUSH1 0xA0 SHL SUB DUP2 AND ISZERO PUSH2 0x485 JUMPI PUSH1 0x40 MLOAD PUSH4 0x70A08231 PUSH1 0xE0 SHL DUP2 MSTORE PUSH1 0x1 PUSH1 0x1 PUSH1 0xA0 SHL SUB DUP1 DUP4 AND PUSH1 0x4 DUP4 ADD MSTORE DUP3 SWAP2 PUSH1 0x0 SWAP2 DUP8 AND SWAP1 PUSH4 0x70A08231 SWAP1 PUSH1 0x24 ADD PUSH1 0x20 PUSH1 0x40 MLOAD DUP1 DUP4 SUB DUP2 DUP7 DUP1 EXTCODESIZE ISZERO DUP1 ISZERO PUSH2 0x2D5 JUMPI PUSH1 0x0 DUP1 REVERT JUMPDEST POP GAS STATICCALL ISZERO DUP1 ISZERO PUSH2 0x2E9 JUMPI RETURNDATASIZE PUSH1 0x0 DUP1 RETURNDATACOPY RETURNDATASIZE PUSH1 0x0 REVERT JUMPDEST POP POP POP POP PUSH1 0x40 MLOAD RETURNDATASIZE PUSH1 0x1F NOT PUSH1 0x1F DUP3 ADD AND DUP3 ADD DUP1 PUSH1 0x40 MSTORE POP DUP2 ADD SWAP1 PUSH2 0x30D SWAP2 SWAP1 PUSH2 0x8C8 JUMP JUMPDEST PUSH1 0x40 MLOAD PUSH4 0x70A08231 PUSH1 0xE0 SHL DUP2 MSTORE PUSH1 0x1 PUSH1 0x1 PUSH1 0xA0 SHL SUB DUP6 DUP2 AND PUSH1 0x4 DUP4 ADD MSTORE SWAP2 SWAP3 POP PUSH1 0x0 SWAP2 DUP8 AND SWAP1 PUSH4 0x70A08231 SWAP1 PUSH1 0x24 ADD PUSH1 0x20 PUSH1 0x40 MLOAD DUP1 DUP4 SUB DUP2 DUP7 DUP1 EXTCODESIZE ISZERO DUP1 ISZERO PUSH2 0x354 JUMPI PUSH1 0x0 DUP1 REVERT JUMPDEST POP GAS STATICCALL ISZERO DUP1 ISZERO PUSH2 0x368 JUMPI RETURNDATASIZE PUSH1 0x0 DUP1 RETURNDATACOPY RETURNDATASIZE PUSH1 0x0 REVERT JUMPDEST POP POP POP POP PUSH1 0x40 MLOAD RETURNDATASIZE PUSH1 0x1F NOT PUSH1 0x1F DUP3 ADD AND DUP3 ADD DUP1 PUSH1 0x40 MSTORE POP DUP2 ADD SWAP1 PUSH2 0x38C SWAP2 SWAP1 PUSH2 0x8C8 JUMP JUMPDEST SWAP1 POP PUSH1 0x0 DUP4 PUSH1 0x1 PUSH1 0x1 PUSH1 0xA0 SHL SUB AND PUSH4 0x3850C7BD PUSH1 0x40 MLOAD DUP2 PUSH4 0xFFFFFFFF AND PUSH1 0xE0 SHL DUP2 MSTORE PUSH1 0x4 ADD PUSH1 0xE0 PUSH1 0x40 MLOAD DUP1 DUP4 SUB DUP2 DUP7 DUP1 EXTCODESIZE ISZERO DUP1 ISZERO PUSH2 0x3C9 JUMPI PUSH1 0x0 DUP1 REVERT JUMPDEST POP GAS STATICCALL ISZERO DUP1 ISZERO PUSH2 0x3DD JUMPI RETURNDATASIZE PUSH1 0x0 DUP1 RETURNDATACOPY RETURNDATASIZE PUSH1 0x0 REVERT JUMPDEST POP POP POP POP PUSH1 0x40 MLOAD RETURNDATASIZE PUSH1 0x1F NOT PUSH1 0x1F DUP3 ADD AND DUP3 ADD DUP1 PUSH1 0x40 MSTORE POP DUP2 ADD SWAP1 PUSH2 0x401 SWAP2 SWAP1 PUSH2 0x814 JUMP JUMPDEST POP POP POP POP POP POP SWAP1 POP PUSH1 0x0 PUSH2 0x43C PUSH1 0x2 DUP4 PUSH1 0x1 PUSH1 0x1 PUSH1 0xA0 SHL SUB AND PUSH2 0x424 SWAP2 SWAP1 PUSH2 0x985 JUMP JUMPDEST PUSH13 0xC9F2C9CD04674EDEA40000000 PUSH1 0x1 PUSH1 0xC0 SHL PUSH2 0x61A JUMP JUMPDEST SWAP1 POP PUSH1 0x0 DUP4 PUSH13 0xC9F2C9CD04674EDEA40000000 PUSH2 0x459 DUP5 DUP9 PUSH2 0xA31 JUMP JUMPDEST PUSH2 0x463 SWAP2 SWAP1 PUSH2 0x914 JUMP JUMPDEST PUSH2 0x46D SWAP2 SWAP1 PUSH2 0x8FC JUMP JUMPDEST SWAP1 POP DUP11 DUP2 GT ISZERO PUSH2 0x47E JUMPI DUP1 SWAP11 POP DUP2 SWAP14 POP JUMPDEST POP POP POP POP POP POP JUMPDEST POP DUP1 PUSH2 0x490 DUP2 PUSH2 0xA67 JUMP JUMPDEST SWAP2 POP POP PUSH2 0x1A7 JUMP JUMPDEST POP DUP6 ISZERO DUP1 ISZERO SWAP1 PUSH2 0x4BA JUMPI POP DUP2 PUSH1 0x1 PUSH1 0x1 PUSH1 0xA0 SHL SUB AND DUP9 PUSH1 0x1 PUSH1 0x1 PUSH1 0xA0 SHL SUB AND EQ ISZERO JUMPDEST ISZERO PUSH2 0x4E5 JUMPI DUP6 PUSH2 0x4D8 PUSH1 0x2 PUSH13 0xC9F2C9CD04674EDEA40000000 PUSH2 0x985 JUMP JUMPDEST PUSH2 0x4E2 SWAP2 SWAP1 PUSH2 0x914 JUMP JUMPDEST SWAP6 POP JUMPDEST PUSH1 0x0 DUP9 PUSH1 0x1 PUSH1 0x1 PUSH1 0xA0 SHL SUB AND PUSH4 0x313CE567 PUSH1 0x40 MLOAD DUP2 PUSH4 0xFFFFFFFF AND PUSH1 0xE0 SHL DUP2 MSTORE PUSH1 0x4 ADD PUSH1 0x20 PUSH1 0x40 MLOAD DUP1 DUP4 SUB DUP2 DUP7 DUP1 EXTCODESIZE ISZERO DUP1 ISZERO PUSH2 0x520 JUMPI PUSH1 0x0 DUP1 REVERT JUMPDEST POP GAS STATICCALL ISZERO DUP1 ISZERO PUSH2 0x534 JUMPI RETURNDATASIZE PUSH1 0x0 DUP1 RETURNDATACOPY RETURNDATASIZE PUSH1 0x0 REVERT JUMPDEST POP POP POP POP PUSH1 0x40 MLOAD RETURNDATASIZE PUSH1 0x1F NOT PUSH1 0x1F DUP3 ADD AND DUP3 ADD DUP1 PUSH1 0x40 MSTORE POP DUP2 ADD SWAP1 PUSH2 0x558 SWAP2 SWAP1 PUSH2 0x8E1 JUMP JUMPDEST PUSH1 0xFF AND SWAP1 POP PUSH1 0x0 DUP9 PUSH1 0x1 PUSH1 0x1 PUSH1 0xA0 SHL SUB AND PUSH4 0x313CE567 PUSH1 0x40 MLOAD DUP2 PUSH4 0xFFFFFFFF AND PUSH1 0xE0 SHL DUP2 MSTORE PUSH1 0x4 ADD PUSH1 0x20 PUSH1 0x40 MLOAD DUP1 DUP4 SUB DUP2 DUP7 DUP1 EXTCODESIZE ISZERO DUP1 ISZERO PUSH2 0x598 JUMPI PUSH1 0x0 DUP1 REVERT JUMPDEST POP GAS STATICCALL ISZERO DUP1 ISZERO PUSH2 0x5AC JUMPI RETURNDATASIZE PUSH1 0x0 DUP1 RETURNDATACOPY RETURNDATASIZE PUSH1 0x0 REVERT JUMPDEST POP POP POP POP PUSH1 0x40 MLOAD RETURNDATASIZE PUSH1 0x1F NOT PUSH1 0x1F DUP3 ADD AND DUP3 ADD DUP1 PUSH1 0x40 MSTORE POP DUP2 ADD SWAP1 PUSH2 0x5D0 SWAP2 SWAP1 PUSH2 0x8E1 JUMP JUMPDEST PUSH1 0xFF AND SWAP1 POP PUSH1 0x0 PUSH2 0x5E2 DUP4 PUSH1 0xA PUSH2 0x979 JUMP JUMPDEST SWAP1 POP PUSH1 0x0 PUSH2 0x5F1 DUP4 PUSH1 0xA PUSH2 0x979 JUMP JUMPDEST SWAP1 POP DUP1 PUSH2 0x5FE DUP4 DUP13 PUSH2 0xA31 JUMP JUMPDEST PUSH2 0x608 SWAP2 SWAP1 PUSH2 0x914 JUMP JUMPDEST SWAP10 POP POP POP POP POP POP POP POP POP POP JUMPDEST SWAP3 SWAP2 POP POP JUMP JUMPDEST PUSH1 0x0 DUP1 DUP1 PUSH1 0x0 NOT DUP6 DUP8 MULMOD DUP6 DUP8 MUL SWAP3 POP DUP3 DUP2 LT DUP4 DUP3 SUB SUB SWAP2 POP POP DUP1 PUSH1 0x0 EQ ISZERO PUSH2 0x654 JUMPI PUSH1 0x0 DUP5 GT PUSH2 0x649 JUMPI PUSH1 0x0 DUP1 REVERT JUMPDEST POP DUP3 SWAP1 DIV SWAP1 POP PUSH2 0x78F JUMP JUMPDEST DUP1 DUP5 GT PUSH2 0x660 JUMPI PUSH1 0x0 DUP1 REVERT JUMPDEST PUSH1 0x0 DUP5 DUP7 DUP9 MULMOD DUP1 DUP5 SUB SWAP4 DUP2 GT SWAP1 SWAP3 SUB SWAP2 SWAP1 POP PUSH1 0x0 PUSH2 0x680 DUP7 NOT PUSH1 0x1 PUSH2 0x8FC JUMP JUMPDEST DUP7 AND SWAP6 DUP7 SWAP1 DIV SWAP6 SWAP4 DUP5 SWAP1 DIV SWAP4 PUSH1 0x0 DUP2 SWAP1 SUB DIV PUSH1 0x1 ADD SWAP1 POP PUSH2 0x6A1 DUP2 DUP5 PUSH2 0xA31 JUMP JUMPDEST SWAP1 SWAP4 OR SWAP3 PUSH1 0x0 PUSH2 0x6B2 DUP8 PUSH1 0x3 PUSH2 0xA31 JUMP JUMPDEST PUSH1 0x2 XOR SWAP1 POP PUSH2 0x6C1 DUP2 DUP9 PUSH2 0xA31 JUMP JUMPDEST PUSH2 0x6CC SWAP1 PUSH1 0x2 PUSH2 0xA50 JUMP JUMPDEST PUSH2 0x6D6 SWAP1 DUP3 PUSH2 0xA31 JUMP JUMPDEST SWAP1 POP PUSH2 0x6E2 DUP2 DUP9 PUSH2 0xA31 JUMP JUMPDEST PUSH2 0x6ED SWAP1 PUSH1 0x2 PUSH2 0xA50 JUMP JUMPDEST PUSH2 0x6F7 SWAP1 DUP3 PUSH2 0xA31 JUMP JUMPDEST SWAP1 POP PUSH2 0x703 DUP2 DUP9 PUSH2 0xA31 JUMP JUMPDEST PUSH2 0x70E SWAP1 PUSH1 0x2 PUSH2 0xA50 JUMP JUMPDEST PUSH2 0x718 SWAP1 DUP3 PUSH2 0xA31 JUMP JUMPDEST SWAP1 POP PUSH2 0x724 DUP2 DUP9 PUSH2 0xA31 JUMP JUMPDEST PUSH2 0x72F SWAP1 PUSH1 0x2 PUSH2 0xA50 JUMP JUMPDEST PUSH2 0x739 SWAP1 DUP3 PUSH2 0xA31 JUMP JUMPDEST SWAP1 POP PUSH2 0x745 DUP2 DUP9 PUSH2 0xA31 JUMP JUMPDEST PUSH2 0x750 SWAP1 PUSH1 0x2 PUSH2 0xA50 JUMP JUMPDEST PUSH2 0x75A SWAP1 DUP3 PUSH2 0xA31 JUMP JUMPDEST SWAP1 POP PUSH2 0x766 DUP2 DUP9 PUSH2 0xA31 JUMP JUMPDEST PUSH2 0x771 SWAP1 PUSH1 0x2 PUSH2 0xA50 JUMP JUMPDEST PUSH2 0x77B SWAP1 DUP3 PUSH2 0xA31 JUMP JUMPDEST SWAP1 POP PUSH2 0x787 DUP2 DUP7 PUSH2 0xA31 JUMP JUMPDEST SWAP6 POP POP POP POP POP POP JUMPDEST SWAP4 SWAP3 POP POP POP JUMP JUMPDEST DUP1 MLOAD PUSH2 0xFFFF DUP2 AND DUP2 EQ PUSH2 0x7A8 JUMPI PUSH1 0x0 DUP1 REVERT JUMPDEST SWAP2 SWAP1 POP JUMP JUMPDEST DUP1 MLOAD PUSH1 0xFF DUP2 AND DUP2 EQ PUSH2 0x7A8 JUMPI PUSH1 0x0 DUP1 REVERT JUMPDEST PUSH1 0x0 PUSH1 0x20 DUP3 DUP5 SUB SLT ISZERO PUSH2 0x7D0 JUMPI PUSH1 0x0 DUP1 REVERT JUMPDEST DUP2 MLOAD PUSH2 0x78F DUP2 PUSH2 0xAAE JUMP JUMPDEST PUSH1 0x0 DUP1 PUSH1 0x40 DUP4 DUP6 SUB SLT ISZERO PUSH2 0x7EE JUMPI PUSH1 0x0 DUP1 REVERT JUMPDEST DUP3 CALLDATALOAD PUSH2 0x7F9 DUP2 PUSH2 0xAAE JUMP JUMPDEST SWAP2 POP PUSH1 0x20 DUP4 ADD CALLDATALOAD PUSH2 0x809 DUP2 PUSH2 0xAAE JUMP JUMPDEST DUP1 SWAP2 POP POP SWAP3 POP SWAP3 SWAP1 POP JUMP JUMPDEST PUSH1 0x0 DUP1 PUSH1 0x0 DUP1 PUSH1 0x0 DUP1 PUSH1 0x0 PUSH1 0xE0 DUP9 DUP11 SUB SLT ISZERO PUSH2 0x82F JUMPI PUSH1 0x0 DUP1 REVERT JUMPDEST DUP8 MLOAD PUSH2 0x83A DUP2 PUSH2 0xAAE JUMP JUMPDEST DUP1 SWAP8 POP POP PUSH1 0x20 DUP9 ADD MLOAD DUP1 PUSH1 0x2 SIGNEXTEND DUP2 EQ PUSH2 0x852 JUMPI PUSH1 0x0 DUP1 REVERT JUMPDEST SWAP6 POP PUSH2 0x860 PUSH1 0x40 DUP10 ADD PUSH2 0x796 JUMP JUMPDEST SWAP5 POP PUSH2 0x86E PUSH1 0x60 DUP10 ADD PUSH2 0x796 JUMP JUMPDEST SWAP4 POP PUSH2 0x87C PUSH1 0x80 DUP10 ADD PUSH2 0x796 JUMP JUMPDEST SWAP3 POP PUSH2 0x88A PUSH1 0xA0 DUP10 ADD PUSH2 0x7AD JUMP JUMPDEST SWAP2 POP PUSH1 0xC0 DUP9 ADD MLOAD DUP1 ISZERO ISZERO DUP2 EQ PUSH2 0x89F JUMPI PUSH1 0x0 DUP1 REVERT JUMPDEST DUP1 SWAP2 POP POP SWAP3 SWAP6 SWAP9 SWAP2 SWAP5 SWAP8 POP SWAP3 SWAP6 POP JUMP JUMPDEST PUSH1 0x0 PUSH1 0x20 DUP3 DUP5 SUB SLT ISZERO PUSH2 0x8C1 JUMPI PUSH1 0x0 DUP1 REVERT JUMPDEST POP CALLDATALOAD SWAP2 SWAP1 POP JUMP JUMPDEST PUSH1 0x0 PUSH1 0x20 DUP3 DUP5 SUB SLT ISZERO PUSH2 0x8DA JUMPI PUSH1 0x0 DUP1 REVERT JUMPDEST POP MLOAD SWAP2 SWAP1 POP JUMP JUMPDEST PUSH1 0x0 PUSH1 0x20 DUP3 DUP5 SUB SLT ISZERO PUSH2 0x8F3 JUMPI PUSH1 0x0 DUP1 REVERT JUMPDEST PUSH2 0x78F DUP3 PUSH2 0x7AD JUMP JUMPDEST PUSH1 0x0 DUP3 NOT DUP3 GT ISZERO PUSH2 0x90F JUMPI PUSH2 0x90F PUSH2 0xA82 JUMP JUMPDEST POP ADD SWAP1 JUMP JUMPDEST PUSH1 0x0 DUP3 PUSH2 0x931 JUMPI PUSH4 0x4E487B71 PUSH1 0xE0 SHL PUSH1 0x0 MSTORE PUSH1 0x12 PUSH1 0x4 MSTORE PUSH1 0x24 PUSH1 0x0 REVERT JUMPDEST POP DIV SWAP1 JUMP JUMPDEST PUSH1 0x1 DUP2 DUP2 JUMPDEST DUP1 DUP6 GT ISZERO PUSH2 0x971 JUMPI DUP2 PUSH1 0x0 NOT DIV DUP3 GT ISZERO PUSH2 0x957 JUMPI PUSH2 0x957 PUSH2 0xA82 JUMP JUMPDEST DUP1 DUP6 AND ISZERO PUSH2 0x964 JUMPI SWAP2 DUP2 MUL SWAP2 JUMPDEST SWAP4 DUP5 SHR SWAP4 SWAP1 DUP1 MUL SWAP1 PUSH2 0x93B JUMP JUMPDEST POP SWAP3 POP SWAP3 SWAP1 POP JUMP JUMPDEST PUSH1 0x0 PUSH2 0x78F DUP4 DUP4 PUSH2 0x990 JUMP JUMPDEST PUSH1 0x0 PUSH2 0x78F PUSH1 0xFF DUP5 AND DUP4 JUMPDEST PUSH1 0x0 DUP3 PUSH2 0x99F JUMPI POP PUSH1 0x1 PUSH2 0x614 JUMP JUMPDEST DUP2 PUSH2 0x9AC JUMPI POP PUSH1 0x0 PUSH2 0x614 JUMP JUMPDEST DUP2 PUSH1 0x1 DUP2 EQ PUSH2 0x9C2 JUMPI PUSH1 0x2 DUP2 EQ PUSH2 0x9CC JUMPI PUSH2 0x9E8 JUMP JUMPDEST PUSH1 0x1 SWAP2 POP POP PUSH2 0x614 JUMP JUMPDEST PUSH1 0xFF DUP5 GT ISZERO PUSH2 0x9DD JUMPI PUSH2 0x9DD PUSH2 0xA82 JUMP JUMPDEST POP POP PUSH1 0x1 DUP3 SHL PUSH2 0x614 JUMP JUMPDEST POP PUSH1 0x20 DUP4 LT PUSH2 0x133 DUP4 LT AND PUSH1 0x4E DUP5 LT PUSH1 0xB DUP5 LT AND OR ISZERO PUSH2 0xA0B JUMPI POP DUP2 DUP2 EXP PUSH2 0x614 JUMP JUMPDEST PUSH2 0xA15 DUP4 DUP4 PUSH2 0x936 JUMP JUMPDEST DUP1 PUSH1 0x0 NOT DIV DUP3 GT ISZERO PUSH2 0xA29 JUMPI PUSH2 0xA29 PUSH2 0xA82 JUMP JUMPDEST MUL SWAP4 SWAP3 POP POP POP JUMP JUMPDEST PUSH1 0x0 DUP2 PUSH1 0x0 NOT DIV DUP4 GT DUP3 ISZERO ISZERO AND ISZERO PUSH2 0xA4B JUMPI PUSH2 0xA4B PUSH2 0xA82 JUMP JUMPDEST POP MUL SWAP1 JUMP JUMPDEST PUSH1 0x0 DUP3 DUP3 LT ISZERO PUSH2 0xA62 JUMPI PUSH2 0xA62 PUSH2 0xA82 JUMP JUMPDEST POP SUB SWAP1 JUMP JUMPDEST PUSH1 0x0 PUSH1 0x0 NOT DUP3 EQ ISZERO PUSH2 0xA7B JUMPI PUSH2 0xA7B PUSH2 0xA82 JUMP JUMPDEST POP PUSH1 0x1 ADD SWAP1 JUMP JUMPDEST PUSH4 0x4E487B71 PUSH1 0xE0 SHL PUSH1 0x0 MSTORE PUSH1 0x11 PUSH1 0x4 MSTORE PUSH1 0x24 PUSH1 0x0 REVERT JUMPDEST PUSH4 0x4E487B71 PUSH1 0xE0 SHL PUSH1 0x0 MSTORE PUSH1 0x32 PUSH1 0x4 MSTORE PUSH1 0x24 PUSH1 0x0 REVERT JUMPDEST PUSH1 0x1 PUSH1 0x1 PUSH1 0xA0 SHL SUB DUP2 AND DUP2 EQ PUSH2 0xAC3 JUMPI PUSH1 0x0 DUP1 REVERT JUMPDEST POP JUMP INVALID LOG2 PUSH5 0x6970667358 0x22 SLT KECCAK256 0x27 SLT SHR DUP2 PUSH32 0xD017BB5C0CB5AB3ED92B7D452984A15D4E13660327DB439A7D77E964736F6C63 NUMBER STOP ADDMOD SMOD STOP CALLER "},"gasEstimates":{"creation":{"codeDepositCost":"562400","executionCost":"infinite","totalCost":"infinite"},"external":{"PRECISION()":"195","factory()":"infinite","feeTiers(uint256)":"6214","getPrice(address,address)":"infinite"},"internal":{"mulDiv(uint256,uint256,uint256)":"infinite"}},"methodIdentifiers":{"PRECISION()":"aaf5eb68","factory()":"c45a0155","feeTiers(uint256)":"230ed44a","getPrice(address,address)":"ac41865a"}},"storageLayout":{"storage":[{"astId":2806,"contract":"contracts/integrations/UniswapV3PriceFeedIntegration.sol:UniswapV3PriceFeedIntegration","label":"feeTiers","offset":0,"slot":"0","type":"t_array(t_uint24)dyn_storage"}],"types":{"t_array(t_uint24)dyn_storage":{"base":"t_uint24","encoding":"dynamic_array","label":"uint24[]","numberOfBytes":"32"},"t_uint24":{"encoding":"inplace","label":"uint24","numberOfBytes":"3"}}},"userdoc":{"kind":"user","methods":{},"version":1}}}}