{"contracts/integrations/MutePriceFeedIntegration.sol":{"MutePriceFeedIntegration":{"abi":[{"inputs":[{"internalType":"address","name":"_router","type":"address"}],"stateMutability":"nonpayable","type":"constructor"},{"inputs":[],"name":"PRECISION","outputs":[{"internalType":"uint256","name":"","type":"uint256"}],"stateMutability":"view","type":"function"},{"inputs":[{"internalType":"address","name":"_baseToken","type":"address"},{"internalType":"address","name":"_quoteToken","type":"address"}],"name":"getPrice","outputs":[{"internalType":"uint256","name":"price","type":"uint256"}],"stateMutability":"view","type":"function"},{"inputs":[],"name":"router","outputs":[{"internalType":"address","name":"","type":"address"}],"stateMutability":"view","type":"function"}],"devdoc":{"kind":"dev","methods":{},"version":1},"evm":{"bytecode":{"linkReferences":{},"object":"60a060405234801561001057600080fd5b5060405161060538038061060583398101604081905261002f91610044565b60601b6001600160601b031916608052610074565b60006020828403121561005657600080fd5b81516001600160a01b038116811461006d57600080fd5b9392505050565b60805160601c61056d6100986000396000818160850152610127015261056d6000f3fe608060405234801561001057600080fd5b50600436106100415760003560e01c8063aaf5eb6814610046578063ac41865a1461006d578063f887ea4014610080575b600080fd5b61005a6c0c9f2c9cd04674edea4000000081565b6040519081526020015b60405180910390f35b61005a61007b366004610342565b6100bf565b6100a77f000000000000000000000000000000000000000000000000000000000000000081565b6040516001600160a01b039091168152602001610064565b6000816001600160a01b0316836001600160a01b031614156100ef57506c0c9f2c9cd04674edea40000000610320565b604051635e1e632560e01b8152612710600482018190526001600160a01b0385811660248401528481166044840152909160009182917f000000000000000000000000000000000000000000000000000000000000000090911690635e1e63259060640160606040518083038186803b15801561016b57600080fd5b505afa15801561017f573d6000803e3d6000fd5b505050506040513d601f19601f820116820180604052508101906101a39190610375565b9250509150612710816127106101b991906103dd565b6101c39084610502565b6101cd91906103f5565b9150826101e76c0c9f2c9cd04674edea4000000084610502565b6101f191906103f5565b93506000866001600160a01b031663313ce5676040518163ffffffff1660e01b815260040160206040518083038186803b15801561022e57600080fd5b505afa158015610242573d6000803e3d6000fd5b505050506040513d601f19601f8201168201806040525081019061026691906103b3565b60ff1690506000866001600160a01b031663313ce5676040518163ffffffff1660e01b815260040160206040518083038186803b1580156102a657600080fd5b505afa1580156102ba573d6000803e3d6000fd5b505050506040513d601f19601f820116820180604052508101906102de91906103b3565b60ff16905060006102f083600a61045a565b905060006102ff83600a61045a565b90508061030c838a610502565b61031691906103f5565b9750505050505050505b92915050565b80356001600160a01b038116811461033d57600080fd5b919050565b6000806040838503121561035557600080fd5b61035e83610326565b915061036c60208401610326565b90509250929050565b60008060006060848603121561038a57600080fd5b83519250602084015180151581146103a157600080fd5b80925050604084015190509250925092565b6000602082840312156103c557600080fd5b815160ff811681146103d657600080fd5b9392505050565b600082198211156103f0576103f0610521565b500190565b60008261041257634e487b7160e01b600052601260045260246000fd5b500490565b600181815b8085111561045257816000190482111561043857610438610521565b8085161561044557918102915b93841c939080029061041c565b509250929050565b60006103d6838360008261047057506001610320565b8161047d57506000610320565b8160018114610493576002811461049d576104b9565b6001915050610320565b60ff8411156104ae576104ae610521565b50506001821b610320565b5060208310610133831016604e8410600b84101617156104dc575081810a610320565b6104e68383610417565b80600019048211156104fa576104fa610521565b029392505050565b600081600019048311821515161561051c5761051c610521565b500290565b634e487b7160e01b600052601160045260246000fdfea264697066735822122080c665eb8dc6e9b3279ab28d06212d8c0329ee3be3c11a11227f744bbdbfa73c64736f6c63430008070033","opcodes":"PUSH1 0xA0 PUSH1 0x40 MSTORE CALLVALUE DUP1 ISZERO PUSH2 0x10 JUMPI PUSH1 0x0 DUP1 REVERT JUMPDEST POP PUSH1 0x40 MLOAD PUSH2 0x605 CODESIZE SUB DUP1 PUSH2 0x605 DUP4 CODECOPY DUP2 ADD PUSH1 0x40 DUP2 SWAP1 MSTORE PUSH2 0x2F SWAP2 PUSH2 0x44 JUMP JUMPDEST PUSH1 0x60 SHL PUSH1 0x1 PUSH1 0x1 PUSH1 0x60 SHL SUB NOT AND PUSH1 0x80 MSTORE PUSH2 0x74 JUMP JUMPDEST PUSH1 0x0 PUSH1 0x20 DUP3 DUP5 SUB SLT ISZERO PUSH2 0x56 JUMPI PUSH1 0x0 DUP1 REVERT JUMPDEST DUP2 MLOAD PUSH1 0x1 PUSH1 0x1 PUSH1 0xA0 SHL SUB DUP2 AND DUP2 EQ PUSH2 0x6D JUMPI PUSH1 0x0 DUP1 REVERT JUMPDEST SWAP4 SWAP3 POP POP POP JUMP JUMPDEST PUSH1 0x80 MLOAD PUSH1 0x60 SHR PUSH2 0x56D PUSH2 0x98 PUSH1 0x0 CODECOPY PUSH1 0x0 DUP2 DUP2 PUSH1 0x85 ADD MSTORE PUSH2 0x127 ADD MSTORE PUSH2 0x56D PUSH1 0x0 RETURN INVALID PUSH1 0x80 PUSH1 0x40 MSTORE CALLVALUE DUP1 ISZERO PUSH2 0x10 JUMPI PUSH1 0x0 DUP1 REVERT JUMPDEST POP PUSH1 0x4 CALLDATASIZE LT PUSH2 0x41 JUMPI PUSH1 0x0 CALLDATALOAD PUSH1 0xE0 SHR DUP1 PUSH4 0xAAF5EB68 EQ PUSH2 0x46 JUMPI DUP1 PUSH4 0xAC41865A EQ PUSH2 0x6D JUMPI DUP1 PUSH4 0xF887EA40 EQ PUSH2 0x80 JUMPI JUMPDEST PUSH1 0x0 DUP1 REVERT JUMPDEST PUSH2 0x5A PUSH13 0xC9F2C9CD04674EDEA40000000 DUP2 JUMP JUMPDEST PUSH1 0x40 MLOAD SWAP1 DUP2 MSTORE PUSH1 0x20 ADD JUMPDEST PUSH1 0x40 MLOAD DUP1 SWAP2 SUB SWAP1 RETURN JUMPDEST PUSH2 0x5A PUSH2 0x7B CALLDATASIZE PUSH1 0x4 PUSH2 0x342 JUMP JUMPDEST PUSH2 0xBF JUMP JUMPDEST PUSH2 0xA7 PUSH32 0x0 DUP2 JUMP JUMPDEST PUSH1 0x40 MLOAD PUSH1 0x1 PUSH1 0x1 PUSH1 0xA0 SHL SUB SWAP1 SWAP2 AND DUP2 MSTORE PUSH1 0x20 ADD PUSH2 0x64 JUMP JUMPDEST PUSH1 0x0 DUP2 PUSH1 0x1 PUSH1 0x1 PUSH1 0xA0 SHL SUB AND DUP4 PUSH1 0x1 PUSH1 0x1 PUSH1 0xA0 SHL SUB AND EQ ISZERO PUSH2 0xEF JUMPI POP PUSH13 0xC9F2C9CD04674EDEA40000000 PUSH2 0x320 JUMP JUMPDEST PUSH1 0x40 MLOAD PUSH4 0x5E1E6325 PUSH1 0xE0 SHL DUP2 MSTORE PUSH2 0x2710 PUSH1 0x4 DUP3 ADD DUP2 SWAP1 MSTORE PUSH1 0x1 PUSH1 0x1 PUSH1 0xA0 SHL SUB DUP6 DUP2 AND PUSH1 0x24 DUP5 ADD MSTORE DUP5 DUP2 AND PUSH1 0x44 DUP5 ADD MSTORE SWAP1 SWAP2 PUSH1 0x0 SWAP2 DUP3 SWAP2 PUSH32 0x0 SWAP1 SWAP2 AND SWAP1 PUSH4 0x5E1E6325 SWAP1 PUSH1 0x64 ADD PUSH1 0x60 PUSH1 0x40 MLOAD DUP1 DUP4 SUB DUP2 DUP7 DUP1 EXTCODESIZE ISZERO DUP1 ISZERO PUSH2 0x16B JUMPI PUSH1 0x0 DUP1 REVERT JUMPDEST POP GAS STATICCALL ISZERO DUP1 ISZERO PUSH2 0x17F JUMPI RETURNDATASIZE PUSH1 0x0 DUP1 RETURNDATACOPY RETURNDATASIZE PUSH1 0x0 REVERT JUMPDEST POP POP POP POP PUSH1 0x40 MLOAD RETURNDATASIZE PUSH1 0x1F NOT PUSH1 0x1F DUP3 ADD AND DUP3 ADD DUP1 PUSH1 0x40 MSTORE POP DUP2 ADD SWAP1 PUSH2 0x1A3 SWAP2 SWAP1 PUSH2 0x375 JUMP JUMPDEST SWAP3 POP POP SWAP2 POP PUSH2 0x2710 DUP2 PUSH2 0x2710 PUSH2 0x1B9 SWAP2 SWAP1 PUSH2 0x3DD JUMP JUMPDEST PUSH2 0x1C3 SWAP1 DUP5 PUSH2 0x502 JUMP JUMPDEST PUSH2 0x1CD SWAP2 SWAP1 PUSH2 0x3F5 JUMP JUMPDEST SWAP2 POP DUP3 PUSH2 0x1E7 PUSH13 0xC9F2C9CD04674EDEA40000000 DUP5 PUSH2 0x502 JUMP JUMPDEST PUSH2 0x1F1 SWAP2 SWAP1 PUSH2 0x3F5 JUMP JUMPDEST SWAP4 POP PUSH1 0x0 DUP7 PUSH1 0x1 PUSH1 0x1 PUSH1 0xA0 SHL SUB AND PUSH4 0x313CE567 PUSH1 0x40 MLOAD DUP2 PUSH4 0xFFFFFFFF AND PUSH1 0xE0 SHL DUP2 MSTORE PUSH1 0x4 ADD PUSH1 0x20 PUSH1 0x40 MLOAD DUP1 DUP4 SUB DUP2 DUP7 DUP1 EXTCODESIZE ISZERO DUP1 ISZERO PUSH2 0x22E JUMPI PUSH1 0x0 DUP1 REVERT JUMPDEST POP GAS STATICCALL ISZERO DUP1 ISZERO PUSH2 0x242 JUMPI RETURNDATASIZE PUSH1 0x0 DUP1 RETURNDATACOPY RETURNDATASIZE PUSH1 0x0 REVERT JUMPDEST POP POP POP POP PUSH1 0x40 MLOAD RETURNDATASIZE PUSH1 0x1F NOT PUSH1 0x1F DUP3 ADD AND DUP3 ADD DUP1 PUSH1 0x40 MSTORE POP DUP2 ADD SWAP1 PUSH2 0x266 SWAP2 SWAP1 PUSH2 0x3B3 JUMP JUMPDEST PUSH1 0xFF AND SWAP1 POP PUSH1 0x0 DUP7 PUSH1 0x1 PUSH1 0x1 PUSH1 0xA0 SHL SUB AND PUSH4 0x313CE567 PUSH1 0x40 MLOAD DUP2 PUSH4 0xFFFFFFFF AND PUSH1 0xE0 SHL DUP2 MSTORE PUSH1 0x4 ADD PUSH1 0x20 PUSH1 0x40 MLOAD DUP1 DUP4 SUB DUP2 DUP7 DUP1 EXTCODESIZE ISZERO DUP1 ISZERO PUSH2 0x2A6 JUMPI PUSH1 0x0 DUP1 REVERT JUMPDEST POP GAS STATICCALL ISZERO DUP1 ISZERO PUSH2 0x2BA JUMPI RETURNDATASIZE PUSH1 0x0 DUP1 RETURNDATACOPY RETURNDATASIZE PUSH1 0x0 REVERT JUMPDEST POP POP POP POP PUSH1 0x40 MLOAD RETURNDATASIZE PUSH1 0x1F NOT PUSH1 0x1F DUP3 ADD AND DUP3 ADD DUP1 PUSH1 0x40 MSTORE POP DUP2 ADD SWAP1 PUSH2 0x2DE SWAP2 SWAP1 PUSH2 0x3B3 JUMP JUMPDEST PUSH1 0xFF AND SWAP1 POP PUSH1 0x0 PUSH2 0x2F0 DUP4 PUSH1 0xA PUSH2 0x45A JUMP JUMPDEST SWAP1 POP PUSH1 0x0 PUSH2 0x2FF DUP4 PUSH1 0xA PUSH2 0x45A JUMP JUMPDEST SWAP1 POP DUP1 PUSH2 0x30C DUP4 DUP11 PUSH2 0x502 JUMP JUMPDEST PUSH2 0x316 SWAP2 SWAP1 PUSH2 0x3F5 JUMP JUMPDEST SWAP8 POP POP POP POP POP POP POP POP JUMPDEST SWAP3 SWAP2 POP POP JUMP JUMPDEST DUP1 CALLDATALOAD PUSH1 0x1 PUSH1 0x1 PUSH1 0xA0 SHL SUB DUP2 AND DUP2 EQ PUSH2 0x33D JUMPI PUSH1 0x0 DUP1 REVERT JUMPDEST SWAP2 SWAP1 POP JUMP JUMPDEST PUSH1 0x0 DUP1 PUSH1 0x40 DUP4 DUP6 SUB SLT ISZERO PUSH2 0x355 JUMPI PUSH1 0x0 DUP1 REVERT JUMPDEST PUSH2 0x35E DUP4 PUSH2 0x326 JUMP JUMPDEST SWAP2 POP PUSH2 0x36C PUSH1 0x20 DUP5 ADD PUSH2 0x326 JUMP JUMPDEST SWAP1 POP SWAP3 POP SWAP3 SWAP1 POP JUMP JUMPDEST PUSH1 0x0 DUP1 PUSH1 0x0 PUSH1 0x60 DUP5 DUP7 SUB SLT ISZERO PUSH2 0x38A JUMPI PUSH1 0x0 DUP1 REVERT JUMPDEST DUP4 MLOAD SWAP3 POP PUSH1 0x20 DUP5 ADD MLOAD DUP1 ISZERO ISZERO DUP2 EQ PUSH2 0x3A1 JUMPI PUSH1 0x0 DUP1 REVERT JUMPDEST DUP1 SWAP3 POP POP PUSH1 0x40 DUP5 ADD MLOAD SWAP1 POP SWAP3 POP SWAP3 POP SWAP3 JUMP JUMPDEST PUSH1 0x0 PUSH1 0x20 DUP3 DUP5 SUB SLT ISZERO PUSH2 0x3C5 JUMPI PUSH1 0x0 DUP1 REVERT JUMPDEST DUP2 MLOAD PUSH1 0xFF DUP2 AND DUP2 EQ PUSH2 0x3D6 JUMPI PUSH1 0x0 DUP1 REVERT JUMPDEST SWAP4 SWAP3 POP POP POP JUMP JUMPDEST PUSH1 0x0 DUP3 NOT DUP3 GT ISZERO PUSH2 0x3F0 JUMPI PUSH2 0x3F0 PUSH2 0x521 JUMP JUMPDEST POP ADD SWAP1 JUMP JUMPDEST PUSH1 0x0 DUP3 PUSH2 0x412 JUMPI PUSH4 0x4E487B71 PUSH1 0xE0 SHL PUSH1 0x0 MSTORE PUSH1 0x12 PUSH1 0x4 MSTORE PUSH1 0x24 PUSH1 0x0 REVERT JUMPDEST POP DIV SWAP1 JUMP JUMPDEST PUSH1 0x1 DUP2 DUP2 JUMPDEST DUP1 DUP6 GT ISZERO PUSH2 0x452 JUMPI DUP2 PUSH1 0x0 NOT DIV DUP3 GT ISZERO PUSH2 0x438 JUMPI PUSH2 0x438 PUSH2 0x521 JUMP JUMPDEST DUP1 DUP6 AND ISZERO PUSH2 0x445 JUMPI SWAP2 DUP2 MUL SWAP2 JUMPDEST SWAP4 DUP5 SHR SWAP4 SWAP1 DUP1 MUL SWAP1 PUSH2 0x41C JUMP JUMPDEST POP SWAP3 POP SWAP3 SWAP1 POP JUMP JUMPDEST PUSH1 0x0 PUSH2 0x3D6 DUP4 DUP4 PUSH1 0x0 DUP3 PUSH2 0x470 JUMPI POP PUSH1 0x1 PUSH2 0x320 JUMP JUMPDEST DUP2 PUSH2 0x47D JUMPI POP PUSH1 0x0 PUSH2 0x320 JUMP JUMPDEST DUP2 PUSH1 0x1 DUP2 EQ PUSH2 0x493 JUMPI PUSH1 0x2 DUP2 EQ PUSH2 0x49D JUMPI PUSH2 0x4B9 JUMP JUMPDEST PUSH1 0x1 SWAP2 POP POP PUSH2 0x320 JUMP JUMPDEST PUSH1 0xFF DUP5 GT ISZERO PUSH2 0x4AE JUMPI PUSH2 0x4AE PUSH2 0x521 JUMP JUMPDEST POP POP PUSH1 0x1 DUP3 SHL PUSH2 0x320 JUMP JUMPDEST POP PUSH1 0x20 DUP4 LT PUSH2 0x133 DUP4 LT AND PUSH1 0x4E DUP5 LT PUSH1 0xB DUP5 LT AND OR ISZERO PUSH2 0x4DC JUMPI POP DUP2 DUP2 EXP PUSH2 0x320 JUMP JUMPDEST PUSH2 0x4E6 DUP4 DUP4 PUSH2 0x417 JUMP JUMPDEST DUP1 PUSH1 0x0 NOT DIV DUP3 GT ISZERO PUSH2 0x4FA JUMPI PUSH2 0x4FA PUSH2 0x521 JUMP JUMPDEST MUL SWAP4 SWAP3 POP POP POP JUMP JUMPDEST PUSH1 0x0 DUP2 PUSH1 0x0 NOT DIV DUP4 GT DUP3 ISZERO ISZERO AND ISZERO PUSH2 0x51C JUMPI PUSH2 0x51C PUSH2 0x521 JUMP JUMPDEST POP MUL SWAP1 JUMP JUMPDEST PUSH4 0x4E487B71 PUSH1 0xE0 SHL PUSH1 0x0 MSTORE PUSH1 0x11 PUSH1 0x4 MSTORE PUSH1 0x24 PUSH1 0x0 REVERT INVALID LOG2 PUSH5 0x6970667358 0x22 SLT KECCAK256 DUP1 0xC6 PUSH6 0xEB8DC6E9B327 SWAP11 0xB2 DUP14 MOD 0x21 0x2D DUP13 SUB 0x29 0xEE EXTCODESIZE 0xE3 0xC1 BYTE GT 0x22 PUSH32 0x744BBDBFA73C64736F6C63430008070033000000000000000000000000000000 "},"gasEstimates":{"creation":{"codeDepositCost":"277800","executionCost":"infinite","totalCost":"infinite"},"external":{"PRECISION()":"162","getPrice(address,address)":"infinite","router()":"infinite"}},"methodIdentifiers":{"PRECISION()":"aaf5eb68","getPrice(address,address)":"ac41865a","router()":"f887ea40"}},"storageLayout":{"storage":[],"types":null},"userdoc":{"kind":"user","methods":{},"version":1}}}}