{"contracts/UniswapV3PriceFeedIntegration.sol":{"UniswapV3PriceFeedIntegration":{"abi":[{"inputs":[{"internalType":"address","name":"_factory","type":"address"}],"stateMutability":"nonpayable","type":"constructor"},{"inputs":[],"name":"PRECISION","outputs":[{"internalType":"uint256","name":"","type":"uint256"}],"stateMutability":"view","type":"function"},{"inputs":[],"name":"factory","outputs":[{"internalType":"address","name":"","type":"address"}],"stateMutability":"view","type":"function"},{"inputs":[{"internalType":"uint256","name":"","type":"uint256"}],"name":"feeTiers","outputs":[{"internalType":"uint24","name":"","type":"uint24"}],"stateMutability":"view","type":"function"},{"inputs":[{"internalType":"address","name":"_baseToken","type":"address"},{"internalType":"address","name":"_quoteToken","type":"address"}],"name":"getPrice","outputs":[{"internalType":"uint256","name":"price","type":"uint256"}],"stateMutability":"view","type":"function"}],"devdoc":{"kind":"dev","methods":{},"version":1},"evm":{"bytecode":{"linkReferences":{},"object":"610120604052606460a09081526101f460c052610bb860e0526127106101005261002d90600090600461006e565b5034801561003a57600080fd5b5060405161097f38038061097f8339810160408190526100599161012e565b60601b6001600160601b03191660805261015e565b82805482825590600052602060002090600901600a900481019282156101095791602002820160005b838211156100d857835183826101000a81548162ffffff021916908361ffff1602179055509260200192600301602081600201049283019260010302610097565b80156101075782816101000a81549062ffffff02191690556003016020816002010492830192600103026100d8565b505b50610115929150610119565b5090565b5b80821115610115576000815560010161011a565b60006020828403121561014057600080fd5b81516001600160a01b038116811461015757600080fd5b9392505050565b60805160601c6107fd6101826000396000818160b7015261013001526107fd6000f3fe608060405234801561001057600080fd5b506004361061004c5760003560e01c8063230ed44a14610051578063aaf5eb681461007d578063ac41865a1461009f578063c45a0155146100b2575b600080fd5b61006461005f3660046105ed565b6100f1565b60405162ffffff90911681526020015b60405180910390f35b6100916c0c9f2c9cd04674edea4000000081565b604051908152602001610074565b6100916100ad366004610510565b61012a565b6100d97f000000000000000000000000000000000000000000000000000000000000000081565b6040516001600160a01b039091168152602001610074565b6000818154811061010157600080fd5b90600052602060002090600a9182820401919006600302915054906101000a900462ffffff1681565b600080547f00000000000000000000000000000000000000000000000000000000000000008280806001600160a01b038088169089161061016c57868861016f565b87875b9150915060005b8581101561047d576000856001600160a01b0316631698ee828585600086815481106101a4576101a4610799565b60009182526020909120600a8083049091015460405160e087901b6001600160e01b03191681526001600160a01b03958616600482015293909416602484015290066003026101000a90910462ffffff16604482015260640160206040518083038186803b15801561021557600080fd5b505afa158015610229573d6000803e3d6000fd5b505050506040513d601f19601f8201168201806040525081019061024d91906104ec565b90506001600160a01b0381161561046a576040516370a0823160e01b81526001600160a01b03808316600483015282916000918716906370a082319060240160206040518083038186803b1580156102a457600080fd5b505afa1580156102b8573d6000803e3d6000fd5b505050506040513d601f19601f820116820180604052508101906102dc9190610606565b6040516370a0823160e01b81526001600160a01b0385811660048301529192506000918716906370a082319060240160206040518083038186803b15801561032357600080fd5b505afa158015610337573d6000803e3d6000fd5b505050506040513d601f19601f8201168201806040525081019061035b9190610606565b90506000836001600160a01b0316633850c7bd6040518163ffffffff1660e01b815260040160e06040518083038186803b15801561039857600080fd5b505afa1580156103ac573d6000803e3d6000fd5b505050506040513d601f19601f820116820180604052508101906103d09190610549565b505050505050905060006002600160601b6103eb919061069c565b6c0c9f2c9cd04674edea4000000061040d60026001600160a01b03861661069c565b6104179190610749565b6104219190610637565b90506000836c0c9f2c9cd04674edea4000000061043e8488610749565b6104489190610637565b610452919061061f565b90508a81111561046357809a50819d505b5050505050505b508061047581610768565b915050610176565b50851580159061049f5750816001600160a01b0316886001600160a01b031614155b156104ca57856104bd60026c0c9f2c9cd04674edea4000000061069c565b6104c79190610637565b95505b505050505092915050565b805161ffff811681146104e757600080fd5b919050565b6000602082840312156104fe57600080fd5b8151610509816107af565b9392505050565b6000806040838503121561052357600080fd5b823561052e816107af565b9150602083013561053e816107af565b809150509250929050565b600080600080600080600060e0888a03121561056457600080fd5b875161056f816107af565b8097505060208801518060020b811461058757600080fd5b9550610595604089016104d5565b94506105a3606089016104d5565b93506105b1608089016104d5565b925060a088015160ff811681146105c757600080fd5b60c089015190925080151581146105dd57600080fd5b8091505092959891949750929550565b6000602082840312156105ff57600080fd5b5035919050565b60006020828403121561061857600080fd5b5051919050565b6000821982111561063257610632610783565b500190565b60008261065457634e487b7160e01b600052601260045260246000fd5b500490565b600181815b8085111561069457816000190482111561067a5761067a610783565b8085161561068757918102915b93841c939080029061065e565b509250929050565b600061050960ff8416836000826106b557506001610743565b816106c257506000610743565b81600181146106d857600281146106e2576106fe565b6001915050610743565b60ff8411156106f3576106f3610783565b50506001821b610743565b5060208310610133831016604e8410600b8410161715610721575081810a610743565b61072b8383610659565b806000190482111561073f5761073f610783565b0290505b92915050565b600081600019048311821515161561076357610763610783565b500290565b600060001982141561077c5761077c610783565b5060010190565b634e487b7160e01b600052601160045260246000fd5b634e487b7160e01b600052603260045260246000fd5b6001600160a01b03811681146107c457600080fd5b5056fea2646970667358221220b0052e3865122e46ccae3a5771de670d851929605c9457a8867b9201290a79ee64736f6c63430008070033","opcodes":"PUSH2 0x120 PUSH1 0x40 MSTORE PUSH1 0x64 PUSH1 0xA0 SWAP1 DUP2 MSTORE PUSH2 0x1F4 PUSH1 0xC0 MSTORE PUSH2 0xBB8 PUSH1 0xE0 MSTORE PUSH2 0x2710 PUSH2 0x100 MSTORE PUSH2 0x2D SWAP1 PUSH1 0x0 SWAP1 PUSH1 0x4 PUSH2 0x6E JUMP JUMPDEST POP CALLVALUE DUP1 ISZERO PUSH2 0x3A JUMPI PUSH1 0x0 DUP1 REVERT JUMPDEST POP PUSH1 0x40 MLOAD PUSH2 0x97F CODESIZE SUB DUP1 PUSH2 0x97F DUP4 CODECOPY DUP2 ADD PUSH1 0x40 DUP2 SWAP1 MSTORE PUSH2 0x59 SWAP2 PUSH2 0x12E JUMP JUMPDEST PUSH1 0x60 SHL PUSH1 0x1 PUSH1 0x1 PUSH1 0x60 SHL SUB NOT AND PUSH1 0x80 MSTORE PUSH2 0x15E JUMP JUMPDEST DUP3 DUP1 SLOAD DUP3 DUP3 SSTORE SWAP1 PUSH1 0x0 MSTORE PUSH1 0x20 PUSH1 0x0 KECCAK256 SWAP1 PUSH1 0x9 ADD PUSH1 0xA SWAP1 DIV DUP2 ADD SWAP3 DUP3 ISZERO PUSH2 0x109 JUMPI SWAP2 PUSH1 0x20 MUL DUP3 ADD PUSH1 0x0 JUMPDEST DUP4 DUP3 GT ISZERO PUSH2 0xD8 JUMPI DUP4 MLOAD DUP4 DUP3 PUSH2 0x100 EXP DUP2 SLOAD DUP2 PUSH3 0xFFFFFF MUL NOT AND SWAP1 DUP4 PUSH2 0xFFFF AND MUL OR SWAP1 SSTORE POP SWAP3 PUSH1 0x20 ADD SWAP3 PUSH1 0x3 ADD PUSH1 0x20 DUP2 PUSH1 0x2 ADD DIV SWAP3 DUP4 ADD SWAP3 PUSH1 0x1 SUB MUL PUSH2 0x97 JUMP JUMPDEST DUP1 ISZERO PUSH2 0x107 JUMPI DUP3 DUP2 PUSH2 0x100 EXP DUP2 SLOAD SWAP1 PUSH3 0xFFFFFF MUL NOT AND SWAP1 SSTORE PUSH1 0x3 ADD PUSH1 0x20 DUP2 PUSH1 0x2 ADD DIV SWAP3 DUP4 ADD SWAP3 PUSH1 0x1 SUB MUL PUSH2 0xD8 JUMP JUMPDEST POP JUMPDEST POP PUSH2 0x115 SWAP3 SWAP2 POP PUSH2 0x119 JUMP JUMPDEST POP SWAP1 JUMP JUMPDEST JUMPDEST DUP1 DUP3 GT ISZERO PUSH2 0x115 JUMPI PUSH1 0x0 DUP2 SSTORE PUSH1 0x1 ADD PUSH2 0x11A JUMP JUMPDEST PUSH1 0x0 PUSH1 0x20 DUP3 DUP5 SUB SLT ISZERO PUSH2 0x140 JUMPI PUSH1 0x0 DUP1 REVERT JUMPDEST DUP2 MLOAD PUSH1 0x1 PUSH1 0x1 PUSH1 0xA0 SHL SUB DUP2 AND DUP2 EQ PUSH2 0x157 JUMPI PUSH1 0x0 DUP1 REVERT JUMPDEST SWAP4 SWAP3 POP POP POP JUMP JUMPDEST PUSH1 0x80 MLOAD PUSH1 0x60 SHR PUSH2 0x7FD PUSH2 0x182 PUSH1 0x0 CODECOPY PUSH1 0x0 DUP2 DUP2 PUSH1 0xB7 ADD MSTORE PUSH2 0x130 ADD MSTORE PUSH2 0x7FD PUSH1 0x0 RETURN INVALID PUSH1 0x80 PUSH1 0x40 MSTORE CALLVALUE DUP1 ISZERO PUSH2 0x10 JUMPI PUSH1 0x0 DUP1 REVERT JUMPDEST POP PUSH1 0x4 CALLDATASIZE LT PUSH2 0x4C JUMPI PUSH1 0x0 CALLDATALOAD PUSH1 0xE0 SHR DUP1 PUSH4 0x230ED44A EQ PUSH2 0x51 JUMPI DUP1 PUSH4 0xAAF5EB68 EQ PUSH2 0x7D JUMPI DUP1 PUSH4 0xAC41865A EQ PUSH2 0x9F JUMPI DUP1 PUSH4 0xC45A0155 EQ PUSH2 0xB2 JUMPI JUMPDEST PUSH1 0x0 DUP1 REVERT JUMPDEST PUSH2 0x64 PUSH2 0x5F CALLDATASIZE PUSH1 0x4 PUSH2 0x5ED JUMP JUMPDEST PUSH2 0xF1 JUMP JUMPDEST PUSH1 0x40 MLOAD PUSH3 0xFFFFFF SWAP1 SWAP2 AND DUP2 MSTORE PUSH1 0x20 ADD JUMPDEST PUSH1 0x40 MLOAD DUP1 SWAP2 SUB SWAP1 RETURN JUMPDEST PUSH2 0x91 PUSH13 0xC9F2C9CD04674EDEA40000000 DUP2 JUMP JUMPDEST PUSH1 0x40 MLOAD SWAP1 DUP2 MSTORE PUSH1 0x20 ADD PUSH2 0x74 JUMP JUMPDEST PUSH2 0x91 PUSH2 0xAD CALLDATASIZE PUSH1 0x4 PUSH2 0x510 JUMP JUMPDEST PUSH2 0x12A JUMP JUMPDEST PUSH2 0xD9 PUSH32 0x0 DUP2 JUMP JUMPDEST PUSH1 0x40 MLOAD PUSH1 0x1 PUSH1 0x1 PUSH1 0xA0 SHL SUB SWAP1 SWAP2 AND DUP2 MSTORE PUSH1 0x20 ADD PUSH2 0x74 JUMP JUMPDEST PUSH1 0x0 DUP2 DUP2 SLOAD DUP2 LT PUSH2 0x101 JUMPI PUSH1 0x0 DUP1 REVERT JUMPDEST SWAP1 PUSH1 0x0 MSTORE PUSH1 0x20 PUSH1 0x0 KECCAK256 SWAP1 PUSH1 0xA SWAP2 DUP3 DUP3 DIV ADD SWAP2 SWAP1 MOD PUSH1 0x3 MUL SWAP2 POP SLOAD SWAP1 PUSH2 0x100 EXP SWAP1 DIV PUSH3 0xFFFFFF AND DUP2 JUMP JUMPDEST PUSH1 0x0 DUP1 SLOAD PUSH32 0x0 DUP3 DUP1 DUP1 PUSH1 0x1 PUSH1 0x1 PUSH1 0xA0 SHL SUB DUP1 DUP9 AND SWAP1 DUP10 AND LT PUSH2 0x16C JUMPI DUP7 DUP9 PUSH2 0x16F JUMP JUMPDEST DUP8 DUP8 JUMPDEST SWAP2 POP SWAP2 POP PUSH1 0x0 JUMPDEST DUP6 DUP2 LT ISZERO PUSH2 0x47D JUMPI PUSH1 0x0 DUP6 PUSH1 0x1 PUSH1 0x1 PUSH1 0xA0 SHL SUB AND PUSH4 0x1698EE82 DUP6 DUP6 PUSH1 0x0 DUP7 DUP2 SLOAD DUP2 LT PUSH2 0x1A4 JUMPI PUSH2 0x1A4 PUSH2 0x799 JUMP JUMPDEST PUSH1 0x0 SWAP2 DUP3 MSTORE PUSH1 0x20 SWAP1 SWAP2 KECCAK256 PUSH1 0xA DUP1 DUP4 DIV SWAP1 SWAP2 ADD SLOAD PUSH1 0x40 MLOAD PUSH1 0xE0 DUP8 SWAP1 SHL PUSH1 0x1 PUSH1 0x1 PUSH1 0xE0 SHL SUB NOT AND DUP2 MSTORE PUSH1 0x1 PUSH1 0x1 PUSH1 0xA0 SHL SUB SWAP6 DUP7 AND PUSH1 0x4 DUP3 ADD MSTORE SWAP4 SWAP1 SWAP5 AND PUSH1 0x24 DUP5 ADD MSTORE SWAP1 MOD PUSH1 0x3 MUL PUSH2 0x100 EXP SWAP1 SWAP2 DIV PUSH3 0xFFFFFF AND PUSH1 0x44 DUP3 ADD MSTORE PUSH1 0x64 ADD PUSH1 0x20 PUSH1 0x40 MLOAD DUP1 DUP4 SUB DUP2 DUP7 DUP1 EXTCODESIZE ISZERO DUP1 ISZERO PUSH2 0x215 JUMPI PUSH1 0x0 DUP1 REVERT JUMPDEST POP GAS STATICCALL ISZERO DUP1 ISZERO PUSH2 0x229 JUMPI RETURNDATASIZE PUSH1 0x0 DUP1 RETURNDATACOPY RETURNDATASIZE PUSH1 0x0 REVERT JUMPDEST POP POP POP POP PUSH1 0x40 MLOAD RETURNDATASIZE PUSH1 0x1F NOT PUSH1 0x1F DUP3 ADD AND DUP3 ADD DUP1 PUSH1 0x40 MSTORE POP DUP2 ADD SWAP1 PUSH2 0x24D SWAP2 SWAP1 PUSH2 0x4EC JUMP JUMPDEST SWAP1 POP PUSH1 0x1 PUSH1 0x1 PUSH1 0xA0 SHL SUB DUP2 AND ISZERO PUSH2 0x46A JUMPI PUSH1 0x40 MLOAD PUSH4 0x70A08231 PUSH1 0xE0 SHL DUP2 MSTORE PUSH1 0x1 PUSH1 0x1 PUSH1 0xA0 SHL SUB DUP1 DUP4 AND PUSH1 0x4 DUP4 ADD MSTORE DUP3 SWAP2 PUSH1 0x0 SWAP2 DUP8 AND SWAP1 PUSH4 0x70A08231 SWAP1 PUSH1 0x24 ADD PUSH1 0x20 PUSH1 0x40 MLOAD DUP1 DUP4 SUB DUP2 DUP7 DUP1 EXTCODESIZE ISZERO DUP1 ISZERO PUSH2 0x2A4 JUMPI PUSH1 0x0 DUP1 REVERT JUMPDEST POP GAS STATICCALL ISZERO DUP1 ISZERO PUSH2 0x2B8 JUMPI RETURNDATASIZE PUSH1 0x0 DUP1 RETURNDATACOPY RETURNDATASIZE PUSH1 0x0 REVERT JUMPDEST POP POP POP POP PUSH1 0x40 MLOAD RETURNDATASIZE PUSH1 0x1F NOT PUSH1 0x1F DUP3 ADD AND DUP3 ADD DUP1 PUSH1 0x40 MSTORE POP DUP2 ADD SWAP1 PUSH2 0x2DC SWAP2 SWAP1 PUSH2 0x606 JUMP JUMPDEST PUSH1 0x40 MLOAD PUSH4 0x70A08231 PUSH1 0xE0 SHL DUP2 MSTORE PUSH1 0x1 PUSH1 0x1 PUSH1 0xA0 SHL SUB DUP6 DUP2 AND PUSH1 0x4 DUP4 ADD MSTORE SWAP2 SWAP3 POP PUSH1 0x0 SWAP2 DUP8 AND SWAP1 PUSH4 0x70A08231 SWAP1 PUSH1 0x24 ADD PUSH1 0x20 PUSH1 0x40 MLOAD DUP1 DUP4 SUB DUP2 DUP7 DUP1 EXTCODESIZE ISZERO DUP1 ISZERO PUSH2 0x323 JUMPI PUSH1 0x0 DUP1 REVERT JUMPDEST POP GAS STATICCALL ISZERO DUP1 ISZERO PUSH2 0x337 JUMPI RETURNDATASIZE PUSH1 0x0 DUP1 RETURNDATACOPY RETURNDATASIZE PUSH1 0x0 REVERT JUMPDEST POP POP POP POP PUSH1 0x40 MLOAD RETURNDATASIZE PUSH1 0x1F NOT PUSH1 0x1F DUP3 ADD AND DUP3 ADD DUP1 PUSH1 0x40 MSTORE POP DUP2 ADD SWAP1 PUSH2 0x35B SWAP2 SWAP1 PUSH2 0x606 JUMP JUMPDEST SWAP1 POP PUSH1 0x0 DUP4 PUSH1 0x1 PUSH1 0x1 PUSH1 0xA0 SHL SUB AND PUSH4 0x3850C7BD PUSH1 0x40 MLOAD DUP2 PUSH4 0xFFFFFFFF AND PUSH1 0xE0 SHL DUP2 MSTORE PUSH1 0x4 ADD PUSH1 0xE0 PUSH1 0x40 MLOAD DUP1 DUP4 SUB DUP2 DUP7 DUP1 EXTCODESIZE ISZERO DUP1 ISZERO PUSH2 0x398 JUMPI PUSH1 0x0 DUP1 REVERT JUMPDEST POP GAS STATICCALL ISZERO DUP1 ISZERO PUSH2 0x3AC JUMPI RETURNDATASIZE PUSH1 0x0 DUP1 RETURNDATACOPY RETURNDATASIZE PUSH1 0x0 REVERT JUMPDEST POP POP POP POP PUSH1 0x40 MLOAD RETURNDATASIZE PUSH1 0x1F NOT PUSH1 0x1F DUP3 ADD AND DUP3 ADD DUP1 PUSH1 0x40 MSTORE POP DUP2 ADD SWAP1 PUSH2 0x3D0 SWAP2 SWAP1 PUSH2 0x549 JUMP JUMPDEST POP POP POP POP POP POP SWAP1 POP PUSH1 0x0 PUSH1 0x2 PUSH1 0x1 PUSH1 0x60 SHL PUSH2 0x3EB SWAP2 SWAP1 PUSH2 0x69C JUMP JUMPDEST PUSH13 0xC9F2C9CD04674EDEA40000000 PUSH2 0x40D PUSH1 0x2 PUSH1 0x1 PUSH1 0x1 PUSH1 0xA0 SHL SUB DUP7 AND PUSH2 0x69C JUMP JUMPDEST PUSH2 0x417 SWAP2 SWAP1 PUSH2 0x749 JUMP JUMPDEST PUSH2 0x421 SWAP2 SWAP1 PUSH2 0x637 JUMP JUMPDEST SWAP1 POP PUSH1 0x0 DUP4 PUSH13 0xC9F2C9CD04674EDEA40000000 PUSH2 0x43E DUP5 DUP9 PUSH2 0x749 JUMP JUMPDEST PUSH2 0x448 SWAP2 SWAP1 PUSH2 0x637 JUMP JUMPDEST PUSH2 0x452 SWAP2 SWAP1 PUSH2 0x61F JUMP JUMPDEST SWAP1 POP DUP11 DUP2 GT ISZERO PUSH2 0x463 JUMPI DUP1 SWAP11 POP DUP2 SWAP14 POP JUMPDEST POP POP POP POP POP POP JUMPDEST POP DUP1 PUSH2 0x475 DUP2 PUSH2 0x768 JUMP JUMPDEST SWAP2 POP POP PUSH2 0x176 JUMP JUMPDEST POP DUP6 ISZERO DUP1 ISZERO SWAP1 PUSH2 0x49F JUMPI POP DUP2 PUSH1 0x1 PUSH1 0x1 PUSH1 0xA0 SHL SUB AND DUP9 PUSH1 0x1 PUSH1 0x1 PUSH1 0xA0 SHL SUB AND EQ ISZERO JUMPDEST ISZERO PUSH2 0x4CA JUMPI DUP6 PUSH2 0x4BD PUSH1 0x2 PUSH13 0xC9F2C9CD04674EDEA40000000 PUSH2 0x69C JUMP JUMPDEST PUSH2 0x4C7 SWAP2 SWAP1 PUSH2 0x637 JUMP JUMPDEST SWAP6 POP JUMPDEST POP POP POP POP POP SWAP3 SWAP2 POP POP JUMP JUMPDEST DUP1 MLOAD PUSH2 0xFFFF DUP2 AND DUP2 EQ PUSH2 0x4E7 JUMPI PUSH1 0x0 DUP1 REVERT JUMPDEST SWAP2 SWAP1 POP JUMP JUMPDEST PUSH1 0x0 PUSH1 0x20 DUP3 DUP5 SUB SLT ISZERO PUSH2 0x4FE JUMPI PUSH1 0x0 DUP1 REVERT JUMPDEST DUP2 MLOAD PUSH2 0x509 DUP2 PUSH2 0x7AF JUMP JUMPDEST SWAP4 SWAP3 POP POP POP JUMP JUMPDEST PUSH1 0x0 DUP1 PUSH1 0x40 DUP4 DUP6 SUB SLT ISZERO PUSH2 0x523 JUMPI PUSH1 0x0 DUP1 REVERT JUMPDEST DUP3 CALLDATALOAD PUSH2 0x52E DUP2 PUSH2 0x7AF JUMP JUMPDEST SWAP2 POP PUSH1 0x20 DUP4 ADD CALLDATALOAD PUSH2 0x53E DUP2 PUSH2 0x7AF JUMP JUMPDEST DUP1 SWAP2 POP POP SWAP3 POP SWAP3 SWAP1 POP JUMP JUMPDEST PUSH1 0x0 DUP1 PUSH1 0x0 DUP1 PUSH1 0x0 DUP1 PUSH1 0x0 PUSH1 0xE0 DUP9 DUP11 SUB SLT ISZERO PUSH2 0x564 JUMPI PUSH1 0x0 DUP1 REVERT JUMPDEST DUP8 MLOAD PUSH2 0x56F DUP2 PUSH2 0x7AF JUMP JUMPDEST DUP1 SWAP8 POP POP PUSH1 0x20 DUP9 ADD MLOAD DUP1 PUSH1 0x2 SIGNEXTEND DUP2 EQ PUSH2 0x587 JUMPI PUSH1 0x0 DUP1 REVERT JUMPDEST SWAP6 POP PUSH2 0x595 PUSH1 0x40 DUP10 ADD PUSH2 0x4D5 JUMP JUMPDEST SWAP5 POP PUSH2 0x5A3 PUSH1 0x60 DUP10 ADD PUSH2 0x4D5 JUMP JUMPDEST SWAP4 POP PUSH2 0x5B1 PUSH1 0x80 DUP10 ADD PUSH2 0x4D5 JUMP JUMPDEST SWAP3 POP PUSH1 0xA0 DUP9 ADD MLOAD PUSH1 0xFF DUP2 AND DUP2 EQ PUSH2 0x5C7 JUMPI PUSH1 0x0 DUP1 REVERT JUMPDEST PUSH1 0xC0 DUP10 ADD MLOAD SWAP1 SWAP3 POP DUP1 ISZERO ISZERO DUP2 EQ PUSH2 0x5DD JUMPI PUSH1 0x0 DUP1 REVERT JUMPDEST DUP1 SWAP2 POP POP SWAP3 SWAP6 SWAP9 SWAP2 SWAP5 SWAP8 POP SWAP3 SWAP6 POP JUMP JUMPDEST PUSH1 0x0 PUSH1 0x20 DUP3 DUP5 SUB SLT ISZERO PUSH2 0x5FF JUMPI PUSH1 0x0 DUP1 REVERT JUMPDEST POP CALLDATALOAD SWAP2 SWAP1 POP JUMP JUMPDEST PUSH1 0x0 PUSH1 0x20 DUP3 DUP5 SUB SLT ISZERO PUSH2 0x618 JUMPI PUSH1 0x0 DUP1 REVERT JUMPDEST POP MLOAD SWAP2 SWAP1 POP JUMP JUMPDEST PUSH1 0x0 DUP3 NOT DUP3 GT ISZERO PUSH2 0x632 JUMPI PUSH2 0x632 PUSH2 0x783 JUMP JUMPDEST POP ADD SWAP1 JUMP JUMPDEST PUSH1 0x0 DUP3 PUSH2 0x654 JUMPI PUSH4 0x4E487B71 PUSH1 0xE0 SHL PUSH1 0x0 MSTORE PUSH1 0x12 PUSH1 0x4 MSTORE PUSH1 0x24 PUSH1 0x0 REVERT JUMPDEST POP DIV SWAP1 JUMP JUMPDEST PUSH1 0x1 DUP2 DUP2 JUMPDEST DUP1 DUP6 GT ISZERO PUSH2 0x694 JUMPI DUP2 PUSH1 0x0 NOT DIV DUP3 GT ISZERO PUSH2 0x67A JUMPI PUSH2 0x67A PUSH2 0x783 JUMP JUMPDEST DUP1 DUP6 AND ISZERO PUSH2 0x687 JUMPI SWAP2 DUP2 MUL SWAP2 JUMPDEST SWAP4 DUP5 SHR SWAP4 SWAP1 DUP1 MUL SWAP1 PUSH2 0x65E JUMP JUMPDEST POP SWAP3 POP SWAP3 SWAP1 POP JUMP JUMPDEST PUSH1 0x0 PUSH2 0x509 PUSH1 0xFF DUP5 AND DUP4 PUSH1 0x0 DUP3 PUSH2 0x6B5 JUMPI POP PUSH1 0x1 PUSH2 0x743 JUMP JUMPDEST DUP2 PUSH2 0x6C2 JUMPI POP PUSH1 0x0 PUSH2 0x743 JUMP JUMPDEST DUP2 PUSH1 0x1 DUP2 EQ PUSH2 0x6D8 JUMPI PUSH1 0x2 DUP2 EQ PUSH2 0x6E2 JUMPI PUSH2 0x6FE JUMP JUMPDEST PUSH1 0x1 SWAP2 POP POP PUSH2 0x743 JUMP JUMPDEST PUSH1 0xFF DUP5 GT ISZERO PUSH2 0x6F3 JUMPI PUSH2 0x6F3 PUSH2 0x783 JUMP JUMPDEST POP POP PUSH1 0x1 DUP3 SHL PUSH2 0x743 JUMP JUMPDEST POP PUSH1 0x20 DUP4 LT PUSH2 0x133 DUP4 LT AND PUSH1 0x4E DUP5 LT PUSH1 0xB DUP5 LT AND OR ISZERO PUSH2 0x721 JUMPI POP DUP2 DUP2 EXP PUSH2 0x743 JUMP JUMPDEST PUSH2 0x72B DUP4 DUP4 PUSH2 0x659 JUMP JUMPDEST DUP1 PUSH1 0x0 NOT DIV DUP3 GT ISZERO PUSH2 0x73F JUMPI PUSH2 0x73F PUSH2 0x783 JUMP JUMPDEST MUL SWAP1 POP JUMPDEST SWAP3 SWAP2 POP POP JUMP JUMPDEST PUSH1 0x0 DUP2 PUSH1 0x0 NOT DIV DUP4 GT DUP3 ISZERO ISZERO AND ISZERO PUSH2 0x763 JUMPI PUSH2 0x763 PUSH2 0x783 JUMP JUMPDEST POP MUL SWAP1 JUMP JUMPDEST PUSH1 0x0 PUSH1 0x0 NOT DUP3 EQ ISZERO PUSH2 0x77C JUMPI PUSH2 0x77C PUSH2 0x783 JUMP JUMPDEST POP PUSH1 0x1 ADD SWAP1 JUMP JUMPDEST PUSH4 0x4E487B71 PUSH1 0xE0 SHL PUSH1 0x0 MSTORE PUSH1 0x11 PUSH1 0x4 MSTORE PUSH1 0x24 PUSH1 0x0 REVERT JUMPDEST PUSH4 0x4E487B71 PUSH1 0xE0 SHL PUSH1 0x0 MSTORE PUSH1 0x32 PUSH1 0x4 MSTORE PUSH1 0x24 PUSH1 0x0 REVERT JUMPDEST PUSH1 0x1 PUSH1 0x1 PUSH1 0xA0 SHL SUB DUP2 AND DUP2 EQ PUSH2 0x7C4 JUMPI PUSH1 0x0 DUP1 REVERT JUMPDEST POP JUMP INVALID LOG2 PUSH5 0x6970667358 0x22 SLT KECCAK256 0xB0 SDIV 0x2E CODESIZE PUSH6 0x122E46CCAE3A JUMPI PUSH18 0xDE670D851929605C9457A8867B9201290A79 0xEE PUSH5 0x736F6C6343 STOP ADDMOD SMOD STOP CALLER "},"gasEstimates":{"creation":{"codeDepositCost":"409000","executionCost":"infinite","totalCost":"infinite"},"external":{"PRECISION()":"195","factory()":"infinite","feeTiers(uint256)":"6214","getPrice(address,address)":"infinite"}},"methodIdentifiers":{"PRECISION()":"aaf5eb68","factory()":"c45a0155","feeTiers(uint256)":"230ed44a","getPrice(address,address)":"ac41865a"}},"storageLayout":{"storage":[{"astId":557,"contract":"contracts/UniswapV3PriceFeedIntegration.sol:UniswapV3PriceFeedIntegration","label":"feeTiers","offset":0,"slot":"0","type":"t_array(t_uint24)dyn_storage"}],"types":{"t_array(t_uint24)dyn_storage":{"base":"t_uint24","encoding":"dynamic_array","label":"uint24[]","numberOfBytes":"32"},"t_uint24":{"encoding":"inplace","label":"uint24","numberOfBytes":"3"}}},"userdoc":{"kind":"user","methods":{},"version":1}}}}