{"contracts/Factory.sol":{"Factory":{"abi":[{"inputs":[{"internalType":"address","name":"_poolDeployer","type":"address"},{"internalType":"address","name":"_positionStorage","type":"address"},{"internalType":"address","name":"_userStorage","type":"address"},{"internalType":"address","name":"_priceFeed","type":"address"},{"internalType":"address","name":"_dexAggregator","type":"address"}],"stateMutability":"nonpayable","type":"constructor"},{"inputs":[{"internalType":"address","name":"sender","type":"address"}],"name":"Forbidden","type":"error"},{"inputs":[{"internalType":"address","name":"quoteToken","type":"address"},{"internalType":"address","name":"pool","type":"address"}],"name":"PoolExistsAlready","type":"error"},{"inputs":[{"internalType":"address","name":"quoteToken","type":"address"}],"name":"PoolNotExists","type":"error"},{"inputs":[{"internalType":"uint256","name":"value","type":"uint256"},{"internalType":"uint256","name":"max","type":"uint256"}],"name":"TooHighValue","type":"error"},{"inputs":[{"internalType":"uint256","name":"value","type":"uint256"},{"internalType":"uint256","name":"min","type":"uint256"}],"name":"TooLowValue","type":"error"},{"inputs":[],"name":"ZeroAddress","type":"error"},{"anonymous":false,"inputs":[{"indexed":true,"internalType":"address","name":"quoteToken","type":"address"},{"indexed":true,"internalType":"address","name":"pool","type":"address"},{"indexed":false,"internalType":"uint256","name":"interest","type":"uint256"},{"indexed":false,"internalType":"uint256","name":"index","type":"uint256"}],"name":"CreatePool","type":"event"},{"anonymous":false,"inputs":[{"indexed":false,"internalType":"address","name":"baseToken","type":"address"},{"indexed":false,"internalType":"uint256","name":"lt","type":"uint256"}],"name":"SetBaseTokenLT","type":"event"},{"anonymous":false,"inputs":[{"indexed":false,"internalType":"address","name":"collateral","type":"address"},{"indexed":false,"internalType":"uint256","name":"lt","type":"uint256"}],"name":"SetCollateralLT","type":"event"},{"anonymous":false,"inputs":[{"indexed":false,"internalType":"address","name":"newDexAggregator","type":"address"}],"name":"SetDEXAggregator","type":"event"},{"anonymous":false,"inputs":[{"indexed":false,"internalType":"address","name":"baseToken","type":"address"},{"indexed":false,"internalType":"uint256","name":"mut","type":"uint256"}],"name":"SetMUT","type":"event"},{"anonymous":false,"inputs":[{"indexed":false,"internalType":"address","name":"newManager","type":"address"}],"name":"SetManager","type":"event"},{"anonymous":false,"inputs":[{"indexed":false,"internalType":"uint256","name":"newManualExpiration","type":"uint256"}],"name":"SetManualExpiration","type":"event"},{"anonymous":false,"inputs":[{"indexed":false,"internalType":"uint256","name":"newMinQuoteRate","type":"uint256"}],"name":"SetMinQuoteRate","type":"event"},{"anonymous":false,"inputs":[{"indexed":false,"internalType":"address","name":"newPriceFeed","type":"address"}],"name":"SetPriceFeed","type":"event"},{"anonymous":false,"inputs":[{"indexed":false,"internalType":"uint256","name":"newProtocolFeeRate","type":"uint256"}],"name":"SetProtocolFeeRate","type":"event"},{"anonymous":false,"inputs":[{"indexed":false,"internalType":"address","name":"newProtocolFeeTo","type":"address"}],"name":"SetProtocolFeeTo","type":"event"},{"anonymous":false,"inputs":[{"indexed":false,"internalType":"address","name":"newUserStorage","type":"address"}],"name":"SetUserStorage","type":"event"},{"inputs":[{"internalType":"address","name":"","type":"address"}],"name":"baseTokenLT","outputs":[{"internalType":"uint256","name":"","type":"uint256"}],"stateMutability":"view","type":"function"},{"inputs":[{"internalType":"address","name":"","type":"address"}],"name":"collateralLT","outputs":[{"internalType":"uint256","name":"","type":"uint256"}],"stateMutability":"view","type":"function"},{"inputs":[{"internalType":"address","name":"_quoteToken","type":"address"},{"internalType":"uint256","name":"_interest","type":"uint256"}],"name":"createPool","outputs":[{"internalType":"address","name":"pool","type":"address"}],"stateMutability":"nonpayable","type":"function"},{"inputs":[],"name":"dexAggregator","outputs":[{"internalType":"address","name":"","type":"address"}],"stateMutability":"view","type":"function"},{"inputs":[{"internalType":"address","name":"_quoteToken","type":"address"}],"name":"interest","outputs":[{"internalType":"uint256","name":"","type":"uint256"}],"stateMutability":"view","type":"function"},{"inputs":[],"name":"manager","outputs":[{"internalType":"address","name":"","type":"address"}],"stateMutability":"view","type":"function"},{"inputs":[],"name":"manualExpiration","outputs":[{"internalType":"uint256","name":"","type":"uint256"}],"stateMutability":"view","type":"function"},{"inputs":[],"name":"minQuoteRate","outputs":[{"internalType":"uint256","name":"","type":"uint256"}],"stateMutability":"view","type":"function"},{"inputs":[{"internalType":"address","name":"","type":"address"}],"name":"mut","outputs":[{"internalType":"uint256","name":"","type":"uint256"}],"stateMutability":"view","type":"function"},{"inputs":[{"internalType":"address","name":"","type":"address"}],"name":"operator","outputs":[{"internalType":"bool","name":"","type":"bool"}],"stateMutability":"view","type":"function"},{"inputs":[{"internalType":"address","name":"","type":"address"}],"name":"poolByQuoteToken","outputs":[{"internalType":"address","name":"","type":"address"}],"stateMutability":"view","type":"function"},{"inputs":[],"name":"poolDeployer","outputs":[{"internalType":"address","name":"","type":"address"}],"stateMutability":"view","type":"function"},{"inputs":[{"internalType":"address","name":"","type":"address"}],"name":"poolIndex","outputs":[{"internalType":"uint256","name":"","type":"uint256"}],"stateMutability":"view","type":"function"},{"inputs":[],"name":"poolLength","outputs":[{"internalType":"uint256","name":"","type":"uint256"}],"stateMutability":"view","type":"function"},{"inputs":[{"internalType":"uint256","name":"","type":"uint256"}],"name":"pools","outputs":[{"internalType":"address","name":"","type":"address"}],"stateMutability":"view","type":"function"},{"inputs":[],"name":"positionStorage","outputs":[{"internalType":"address","name":"","type":"address"}],"stateMutability":"view","type":"function"},{"inputs":[],"name":"priceFeed","outputs":[{"internalType":"address","name":"","type":"address"}],"stateMutability":"view","type":"function"},{"inputs":[],"name":"protocolFeeRate","outputs":[{"internalType":"uint256","name":"","type":"uint256"}],"stateMutability":"view","type":"function"},{"inputs":[],"name":"protocolFeeTo","outputs":[{"internalType":"address","name":"","type":"address"}],"stateMutability":"view","type":"function"},{"inputs":[{"internalType":"address","name":"_baseToken","type":"address"},{"internalType":"uint256","name":"_lt","type":"uint256"}],"name":"setBaseTokenLT","outputs":[],"stateMutability":"nonpayable","type":"function"},{"inputs":[{"internalType":"address","name":"_collateral","type":"address"},{"internalType":"uint256","name":"_lt","type":"uint256"}],"name":"setCollateralLT","outputs":[],"stateMutability":"nonpayable","type":"function"},{"inputs":[{"internalType":"address","name":"_dexAggregator","type":"address"}],"name":"setDEXAggregator","outputs":[],"stateMutability":"nonpayable","type":"function"},{"inputs":[{"internalType":"address","name":"_baseToken","type":"address"},{"internalType":"uint256","name":"_mut","type":"uint256"}],"name":"setMUT","outputs":[],"stateMutability":"nonpayable","type":"function"},{"inputs":[{"internalType":"address","name":"_manager","type":"address"}],"name":"setManager","outputs":[],"stateMutability":"nonpayable","type":"function"},{"inputs":[{"internalType":"uint256","name":"_manualExpiration","type":"uint256"}],"name":"setManualExpiration","outputs":[],"stateMutability":"nonpayable","type":"function"},{"inputs":[{"internalType":"uint256","name":"_minQuoteRate","type":"uint256"}],"name":"setMinQuoteRate","outputs":[],"stateMutability":"nonpayable","type":"function"},{"inputs":[{"internalType":"address","name":"_quoteToken","type":"address"},{"internalType":"uint256","name":"_interest","type":"uint256"}],"name":"setPoolInterest","outputs":[],"stateMutability":"nonpayable","type":"function"},{"inputs":[{"internalType":"address","name":"_priceFeed","type":"address"}],"name":"setPriceFeed","outputs":[],"stateMutability":"nonpayable","type":"function"},{"inputs":[{"internalType":"uint256","name":"_protocolFeeRate","type":"uint256"}],"name":"setProtocolFeeRate","outputs":[],"stateMutability":"nonpayable","type":"function"},{"inputs":[{"internalType":"address","name":"_protocolFeeTo","type":"address"}],"name":"setProtocolFeeTo","outputs":[],"stateMutability":"nonpayable","type":"function"},{"inputs":[{"internalType":"address","name":"_userStorage","type":"address"}],"name":"setUserStorage","outputs":[],"stateMutability":"nonpayable","type":"function"},{"inputs":[],"name":"userStorage","outputs":[{"internalType":"address","name":"","type":"address"}],"stateMutability":"view","type":"function"}],"devdoc":{"kind":"dev","methods":{},"version":1},"evm":{"bytecode":{"linkReferences":{},"object":"60c06040523480156200001157600080fd5b50604051620011a3380380620011a38339810160408190526200003491620000cb565b6001600160601b0319606095861b81166080529390941b90921660a052600180546001600160a01b039283166001600160a01b0319918216179091556002805493831693821693909317909255600380549190931690821617909155600080549091163317905561271060065562278d006007556200013b565b80516001600160a01b0381168114620000c657600080fd5b919050565b600080600080600060a08688031215620000e457600080fd5b620000ef86620000ae565b9450620000ff60208701620000ae565b93506200010f60408701620000ae565b92506200011f60608701620000ae565b91506200012f60808701620000ae565b90509295509295909350565b60805160601c60a05160601c6110356200016e6000396000610358015260008181610251015261058e01526110356000f3fe608060405234801561001057600080fd5b50600436106101f05760003560e01c806390f436801161010f578063b13aa2d6116100a2578063e47eb30c11610071578063e47eb30c14610498578063eddf82bb146104ab578063ef369252146104b4578063f5d0e175146104c757600080fd5b8063b13aa2d61461043f578063b42754a514610452578063d0ebdbe714610472578063e0e6799f1461048557600080fd5b8063aac9d2b8116100de578063aac9d2b8146103e6578063ac436bdf146103f9578063ac4afa381461040c578063ad5d8e511461041f57600080fd5b806390f436801461037a5780639142887f1461038d5780639a307391146103a0578063aa6dfe03146103d357600080fd5b806358f8588011610187578063741bef1a11610156578063741bef1a1461031a57806375e580791461032d5780637c21d5e0146103405780638cd474151461035357600080fd5b806358f85880146102d55780635fde0ec0146102de5780636d274553146102fe578063724e78da1461030757600080fd5b80633b0e0e84116101c35780633b0e0e8414610273578063481c6a75146102865780634d83bc331461029957806350772b3f146102c257600080fd5b8063081e3eda146101f557806312d361711461020c578063147fb081146102375780633119049a1461024c575b600080fd5b6008545b6040519081526020015b60405180910390f35b61021f61021a366004610f89565b6104e7565b6040516001600160a01b039091168152602001610203565b61024a610245366004610f89565b6106c4565b005b61021f7f000000000000000000000000000000000000000000000000000000000000000081565b61024a610281366004610f89565b610778565b60005461021f906001600160a01b031681565b61021f6102a7366004610f4f565b600b602052600090815260409020546001600160a01b031681565b61024a6102d0366004610f89565b610824565b6101f960055481565b6101f96102ec366004610f4f565b600e6020526000908152604090205481565b6101f960065481565b61024a610315366004610f4f565b6108d0565b60025461021f906001600160a01b031681565b60015461021f906001600160a01b031681565b60035461021f906001600160a01b031681565b61021f7f000000000000000000000000000000000000000000000000000000000000000081565b61024a610388366004610fb5565b610979565b61024a61039b366004610f4f565b610a09565b6103c36103ae366004610f4f565b60096020526000908152604090205460ff1681565b6040519015158152602001610203565b61024a6103e1366004610f4f565b610aab565b61024a6103f4366004610f89565b610b4d565b6101f9610407366004610f4f565b610c1c565b61021f61041a366004610fb5565b610cbf565b6101f961042d366004610f4f565b600c6020526000908152604090205481565b61024a61044d366004610fb5565b610ce9565b6101f9610460366004610f4f565b600a6020526000908152604090205481565b61024a610480366004610f4f565b610d79565b61024a610493366004610f4f565b610e1b565b61024a6104a6366004610fb5565b610ebd565b6101f960075481565b60045461021f906001600160a01b031681565b6101f96104d5366004610f4f565b600d6020526000908152604090205481565b600080546001600160a01b0316331461051a5760405163a59d7f4d60e01b81523360048201526024015b60405180910390fd5b506001600160a01b038083166000908152600b60205260409020541680156105685760405163084252d560e11b81526001600160a01b03808516600483015282166024820152604401610511565b6040516327c74f7f60e01b81526001600160a01b038481166004830152602482018490527f000000000000000000000000000000000000000000000000000000000000000016906327c74f7f90604401602060405180830381600087803b1580156105d257600080fd5b505af11580156105e6573d6000803e3d6000fd5b505050506040513d601f19601f8201168201806040525081019061060a9190610f6c565b600880546001810182557ff3f7a9fe364faab93b216da50a3214154f22a0a2b415b23a84c8169e8b636ee30180546001600160a01b03199081166001600160a01b0385811691821790935583546000828152600a6020908152604080832093909355948a16808252600b865290829020805490941683179093559354845188815293840152939450917f2b441112f88ae4b324ae75fa72f06e95a0bda7bca0621af0cceae2e36b80c909910160405180910390a392915050565b6000546001600160a01b031633146106f15760405163a59d7f4d60e01b8152336004820152602401610511565b61271081111561071f57604051637150bba160e01b8152600481018290526127106024820152604401610511565b6001600160a01b0382166000818152600c6020908152604091829020849055815192835282018390527f64e3f60034b49ebd0df0b682e6a024f73ca7b62e51bbe91bf33bcd2c3c16159f91015b60405180910390a15050565b6000546001600160a01b031633146107a55760405163a59d7f4d60e01b8152336004820152602401610511565b6127108111156107d357604051637150bba160e01b8152600481018290526127106024820152604401610511565b6001600160a01b0382166000818152600d6020908152604091829020849055815192835282018390527f95ce88c220684eb1cbfa29b8c489102dd6ac38a615bd9f16c996786636ebb9ca910161076c565b6000546001600160a01b031633146108515760405163a59d7f4d60e01b8152336004820152602401610511565b61271081111561087f57604051637150bba160e01b8152600481018290526127106024820152604401610511565b6001600160a01b0382166000818152600e6020908152604091829020849055815192835282018390527f0b2fbf1cb794ef27c93f2189ce22f82871c05ecfb1d103d7d7bb7090118dc1c6910161076c565b6000546001600160a01b031633146108fd5760405163a59d7f4d60e01b8152336004820152602401610511565b6001600160a01b0381166109245760405163d92e233d60e01b815260040160405180910390fd5b600280546001600160a01b0319166001600160a01b0383169081179091556040519081527ff724a45d041687842411f2b977ef22ab8f43c8f1104f4592b42a00f9b34a643d906020015b60405180910390a150565b6000546001600160a01b031633146109a65760405163a59d7f4d60e01b8152336004820152602401610511565b6127108110156109d45760405163102a6c2760e01b8152600481018290526127106024820152604401610511565b60068190556040518181527f76ac3f03024a7eaac1162b2497ce4f632a0fe15eac444f9b01fff9620a166c259060200161096e565b6000546001600160a01b03163314610a365760405163a59d7f4d60e01b8152336004820152602401610511565b6001600160a01b038116610a5d5760405163d92e233d60e01b815260040160405180910390fd5b600180546001600160a01b0319166001600160a01b0383169081179091556040519081527f193361fce04ed0c4e2cb4638cdc21c56d4313f5066142224555c49d3933e7ca49060200161096e565b6000546001600160a01b03163314610ad85760405163a59d7f4d60e01b8152336004820152602401610511565b6001600160a01b038116610aff5760405163d92e233d60e01b815260040160405180910390fd5b600380546001600160a01b0319166001600160a01b0383169081179091556040519081527fed2325536fb5243d4b19d1781d46658efaf1b668c1d8a693d050be0dd1cbfd309060200161096e565b6000546001600160a01b03163314610b7a5760405163a59d7f4d60e01b8152336004820152602401610511565b6001600160a01b038083166000908152600b60205260409020541680610bbe57604051633f36c1ab60e01b81526001600160a01b0384166004820152602401610511565b60405162e8433960e51b8152600481018390526001600160a01b03821690631d08672090602401600060405180830381600087803b158015610bff57600080fd5b505af1158015610c13573d6000803e3d6000fd5b50505050505050565b6001600160a01b038082166000908152600b602052604081205490911680610c475750600092915050565b806001600160a01b031663c392f7666040518163ffffffff1660e01b815260040160206040518083038186803b158015610c8057600080fd5b505afa158015610c94573d6000803e3d6000fd5b505050506040513d601f19601f82011682018060405250810190610cb89190610fce565b9392505050565b60088181548110610ccf57600080fd5b6000918252602090912001546001600160a01b0316905081565b6000546001600160a01b03163314610d165760405163a59d7f4d60e01b8152336004820152602401610511565b612710811115610d4457604051637150bba160e01b8152600481018290526127106024820152604401610511565b60058190556040518181527f43c0669c98845a19f0c83c170dafac37d88ab6841d159a3b478365715e09a1199060200161096e565b6000546001600160a01b03163314610da65760405163a59d7f4d60e01b8152336004820152602401610511565b6001600160a01b038116610dcd5760405163d92e233d60e01b815260040160405180910390fd5b600080546001600160a01b0319166001600160a01b0383169081179091556040519081527f54a6385aa0292b04e1ef8513253c17d1863f7cdfc87029d77fd55cc4c2e717e29060200161096e565b6000546001600160a01b03163314610e485760405163a59d7f4d60e01b8152336004820152602401610511565b6001600160a01b038116610e6f5760405163d92e233d60e01b815260040160405180910390fd5b600480546001600160a01b0319166001600160a01b0383169081179091556040519081527f97011acc091d73d67f71ff78bdb3837ce0103f4a52e95b01f50a28b9f7821ba69060200161096e565b6000546001600160a01b03163314610eea5760405163a59d7f4d60e01b8152336004820152602401610511565b62278d00811015610f1a5760405163102a6c2760e01b81526004810182905262278d006024820152604401610511565b60078190556040518181527f3b655fff5646f76885baca7e1dadf8b8e0095ff01de8f96a0cf75c8d8cfb53d89060200161096e565b600060208284031215610f6157600080fd5b8135610cb881610fe7565b600060208284031215610f7e57600080fd5b8151610cb881610fe7565b60008060408385031215610f9c57600080fd5b8235610fa781610fe7565b946020939093013593505050565b600060208284031215610fc757600080fd5b5035919050565b600060208284031215610fe057600080fd5b5051919050565b6001600160a01b0381168114610ffc57600080fd5b5056fea264697066735822122061f85c7f5669bc5db52874a5b39e994ae1abad9fa2838cbc71dd9cb25e3f342b64736f6c63430008070033","opcodes":"PUSH1 0xC0 PUSH1 0x40 MSTORE CALLVALUE DUP1 ISZERO PUSH3 0x11 JUMPI PUSH1 0x0 DUP1 REVERT JUMPDEST POP PUSH1 0x40 MLOAD PUSH3 0x11A3 CODESIZE SUB DUP1 PUSH3 0x11A3 DUP4 CODECOPY DUP2 ADD PUSH1 0x40 DUP2 SWAP1 MSTORE PUSH3 0x34 SWAP2 PUSH3 0xCB JUMP JUMPDEST PUSH1 0x1 PUSH1 0x1 PUSH1 0x60 SHL SUB NOT PUSH1 0x60 SWAP6 DUP7 SHL DUP2 AND PUSH1 0x80 MSTORE SWAP4 SWAP1 SWAP5 SHL SWAP1 SWAP3 AND PUSH1 0xA0 MSTORE PUSH1 0x1 DUP1 SLOAD PUSH1 0x1 PUSH1 0x1 PUSH1 0xA0 SHL SUB SWAP3 DUP4 AND PUSH1 0x1 PUSH1 0x1 PUSH1 0xA0 SHL SUB NOT SWAP2 DUP3 AND OR SWAP1 SWAP2 SSTORE PUSH1 0x2 DUP1 SLOAD SWAP4 DUP4 AND SWAP4 DUP3 AND SWAP4 SWAP1 SWAP4 OR SWAP1 SWAP3 SSTORE PUSH1 0x3 DUP1 SLOAD SWAP2 SWAP1 SWAP4 AND SWAP1 DUP3 AND OR SWAP1 SWAP2 SSTORE PUSH1 0x0 DUP1 SLOAD SWAP1 SWAP2 AND CALLER OR SWAP1 SSTORE PUSH2 0x2710 PUSH1 0x6 SSTORE PUSH3 0x278D00 PUSH1 0x7 SSTORE PUSH3 0x13B JUMP JUMPDEST DUP1 MLOAD PUSH1 0x1 PUSH1 0x1 PUSH1 0xA0 SHL SUB DUP2 AND DUP2 EQ PUSH3 0xC6 JUMPI PUSH1 0x0 DUP1 REVERT JUMPDEST SWAP2 SWAP1 POP JUMP JUMPDEST PUSH1 0x0 DUP1 PUSH1 0x0 DUP1 PUSH1 0x0 PUSH1 0xA0 DUP7 DUP9 SUB SLT ISZERO PUSH3 0xE4 JUMPI PUSH1 0x0 DUP1 REVERT JUMPDEST PUSH3 0xEF DUP7 PUSH3 0xAE JUMP JUMPDEST SWAP5 POP PUSH3 0xFF PUSH1 0x20 DUP8 ADD PUSH3 0xAE JUMP JUMPDEST SWAP4 POP PUSH3 0x10F PUSH1 0x40 DUP8 ADD PUSH3 0xAE JUMP JUMPDEST SWAP3 POP PUSH3 0x11F PUSH1 0x60 DUP8 ADD PUSH3 0xAE JUMP JUMPDEST SWAP2 POP PUSH3 0x12F PUSH1 0x80 DUP8 ADD PUSH3 0xAE JUMP JUMPDEST SWAP1 POP SWAP3 SWAP6 POP SWAP3 SWAP6 SWAP1 SWAP4 POP JUMP JUMPDEST PUSH1 0x80 MLOAD PUSH1 0x60 SHR PUSH1 0xA0 MLOAD PUSH1 0x60 SHR PUSH2 0x1035 PUSH3 0x16E PUSH1 0x0 CODECOPY PUSH1 0x0 PUSH2 0x358 ADD MSTORE PUSH1 0x0 DUP2 DUP2 PUSH2 0x251 ADD MSTORE PUSH2 0x58E ADD MSTORE PUSH2 0x1035 PUSH1 0x0 RETURN INVALID PUSH1 0x80 PUSH1 0x40 MSTORE CALLVALUE DUP1 ISZERO PUSH2 0x10 JUMPI PUSH1 0x0 DUP1 REVERT JUMPDEST POP PUSH1 0x4 CALLDATASIZE LT PUSH2 0x1F0 JUMPI PUSH1 0x0 CALLDATALOAD PUSH1 0xE0 SHR DUP1 PUSH4 0x90F43680 GT PUSH2 0x10F JUMPI DUP1 PUSH4 0xB13AA2D6 GT PUSH2 0xA2 JUMPI DUP1 PUSH4 0xE47EB30C GT PUSH2 0x71 JUMPI DUP1 PUSH4 0xE47EB30C EQ PUSH2 0x498 JUMPI DUP1 PUSH4 0xEDDF82BB EQ PUSH2 0x4AB JUMPI DUP1 PUSH4 0xEF369252 EQ PUSH2 0x4B4 JUMPI DUP1 PUSH4 0xF5D0E175 EQ PUSH2 0x4C7 JUMPI PUSH1 0x0 DUP1 REVERT JUMPDEST DUP1 PUSH4 0xB13AA2D6 EQ PUSH2 0x43F JUMPI DUP1 PUSH4 0xB42754A5 EQ PUSH2 0x452 JUMPI DUP1 PUSH4 0xD0EBDBE7 EQ PUSH2 0x472 JUMPI DUP1 PUSH4 0xE0E6799F EQ PUSH2 0x485 JUMPI PUSH1 0x0 DUP1 REVERT JUMPDEST DUP1 PUSH4 0xAAC9D2B8 GT PUSH2 0xDE JUMPI DUP1 PUSH4 0xAAC9D2B8 EQ PUSH2 0x3E6 JUMPI DUP1 PUSH4 0xAC436BDF EQ PUSH2 0x3F9 JUMPI DUP1 PUSH4 0xAC4AFA38 EQ PUSH2 0x40C JUMPI DUP1 PUSH4 0xAD5D8E51 EQ PUSH2 0x41F JUMPI PUSH1 0x0 DUP1 REVERT JUMPDEST DUP1 PUSH4 0x90F43680 EQ PUSH2 0x37A JUMPI DUP1 PUSH4 0x9142887F EQ PUSH2 0x38D JUMPI DUP1 PUSH4 0x9A307391 EQ PUSH2 0x3A0 JUMPI DUP1 PUSH4 0xAA6DFE03 EQ PUSH2 0x3D3 JUMPI PUSH1 0x0 DUP1 REVERT JUMPDEST DUP1 PUSH4 0x58F85880 GT PUSH2 0x187 JUMPI DUP1 PUSH4 0x741BEF1A GT PUSH2 0x156 JUMPI DUP1 PUSH4 0x741BEF1A EQ PUSH2 0x31A JUMPI DUP1 PUSH4 0x75E58079 EQ PUSH2 0x32D JUMPI DUP1 PUSH4 0x7C21D5E0 EQ PUSH2 0x340 JUMPI DUP1 PUSH4 0x8CD47415 EQ PUSH2 0x353 JUMPI PUSH1 0x0 DUP1 REVERT JUMPDEST DUP1 PUSH4 0x58F85880 EQ PUSH2 0x2D5 JUMPI DUP1 PUSH4 0x5FDE0EC0 EQ PUSH2 0x2DE JUMPI DUP1 PUSH4 0x6D274553 EQ PUSH2 0x2FE JUMPI DUP1 PUSH4 0x724E78DA EQ PUSH2 0x307 JUMPI PUSH1 0x0 DUP1 REVERT JUMPDEST DUP1 PUSH4 0x3B0E0E84 GT PUSH2 0x1C3 JUMPI DUP1 PUSH4 0x3B0E0E84 EQ PUSH2 0x273 JUMPI DUP1 PUSH4 0x481C6A75 EQ PUSH2 0x286 JUMPI DUP1 PUSH4 0x4D83BC33 EQ PUSH2 0x299 JUMPI DUP1 PUSH4 0x50772B3F EQ PUSH2 0x2C2 JUMPI PUSH1 0x0 DUP1 REVERT JUMPDEST DUP1 PUSH4 0x81E3EDA EQ PUSH2 0x1F5 JUMPI DUP1 PUSH4 0x12D36171 EQ PUSH2 0x20C JUMPI DUP1 PUSH4 0x147FB081 EQ PUSH2 0x237 JUMPI DUP1 PUSH4 0x3119049A EQ PUSH2 0x24C JUMPI JUMPDEST PUSH1 0x0 DUP1 REVERT JUMPDEST PUSH1 0x8 SLOAD JUMPDEST PUSH1 0x40 MLOAD SWAP1 DUP2 MSTORE PUSH1 0x20 ADD JUMPDEST PUSH1 0x40 MLOAD DUP1 SWAP2 SUB SWAP1 RETURN JUMPDEST PUSH2 0x21F PUSH2 0x21A CALLDATASIZE PUSH1 0x4 PUSH2 0xF89 JUMP JUMPDEST PUSH2 0x4E7 JUMP JUMPDEST PUSH1 0x40 MLOAD PUSH1 0x1 PUSH1 0x1 PUSH1 0xA0 SHL SUB SWAP1 SWAP2 AND DUP2 MSTORE PUSH1 0x20 ADD PUSH2 0x203 JUMP JUMPDEST PUSH2 0x24A PUSH2 0x245 CALLDATASIZE PUSH1 0x4 PUSH2 0xF89 JUMP JUMPDEST PUSH2 0x6C4 JUMP JUMPDEST STOP JUMPDEST PUSH2 0x21F PUSH32 0x0 DUP2 JUMP JUMPDEST PUSH2 0x24A PUSH2 0x281 CALLDATASIZE PUSH1 0x4 PUSH2 0xF89 JUMP JUMPDEST PUSH2 0x778 JUMP JUMPDEST PUSH1 0x0 SLOAD PUSH2 0x21F SWAP1 PUSH1 0x1 PUSH1 0x1 PUSH1 0xA0 SHL SUB AND DUP2 JUMP JUMPDEST PUSH2 0x21F PUSH2 0x2A7 CALLDATASIZE PUSH1 0x4 PUSH2 0xF4F JUMP JUMPDEST PUSH1 0xB PUSH1 0x20 MSTORE PUSH1 0x0 SWAP1 DUP2 MSTORE PUSH1 0x40 SWAP1 KECCAK256 SLOAD PUSH1 0x1 PUSH1 0x1 PUSH1 0xA0 SHL SUB AND DUP2 JUMP JUMPDEST PUSH2 0x24A PUSH2 0x2D0 CALLDATASIZE PUSH1 0x4 PUSH2 0xF89 JUMP JUMPDEST PUSH2 0x824 JUMP JUMPDEST PUSH2 0x1F9 PUSH1 0x5 SLOAD DUP2 JUMP JUMPDEST PUSH2 0x1F9 PUSH2 0x2EC CALLDATASIZE PUSH1 0x4 PUSH2 0xF4F JUMP JUMPDEST PUSH1 0xE PUSH1 0x20 MSTORE PUSH1 0x0 SWAP1 DUP2 MSTORE PUSH1 0x40 SWAP1 KECCAK256 SLOAD DUP2 JUMP JUMPDEST PUSH2 0x1F9 PUSH1 0x6 SLOAD DUP2 JUMP JUMPDEST PUSH2 0x24A PUSH2 0x315 CALLDATASIZE PUSH1 0x4 PUSH2 0xF4F JUMP JUMPDEST PUSH2 0x8D0 JUMP JUMPDEST PUSH1 0x2 SLOAD PUSH2 0x21F SWAP1 PUSH1 0x1 PUSH1 0x1 PUSH1 0xA0 SHL SUB AND DUP2 JUMP JUMPDEST PUSH1 0x1 SLOAD PUSH2 0x21F SWAP1 PUSH1 0x1 PUSH1 0x1 PUSH1 0xA0 SHL SUB AND DUP2 JUMP JUMPDEST PUSH1 0x3 SLOAD PUSH2 0x21F SWAP1 PUSH1 0x1 PUSH1 0x1 PUSH1 0xA0 SHL SUB AND DUP2 JUMP JUMPDEST PUSH2 0x21F PUSH32 0x0 DUP2 JUMP JUMPDEST PUSH2 0x24A PUSH2 0x388 CALLDATASIZE PUSH1 0x4 PUSH2 0xFB5 JUMP JUMPDEST PUSH2 0x979 JUMP JUMPDEST PUSH2 0x24A PUSH2 0x39B CALLDATASIZE PUSH1 0x4 PUSH2 0xF4F JUMP JUMPDEST PUSH2 0xA09 JUMP JUMPDEST PUSH2 0x3C3 PUSH2 0x3AE CALLDATASIZE PUSH1 0x4 PUSH2 0xF4F JUMP JUMPDEST PUSH1 0x9 PUSH1 0x20 MSTORE PUSH1 0x0 SWAP1 DUP2 MSTORE PUSH1 0x40 SWAP1 KECCAK256 SLOAD PUSH1 0xFF AND DUP2 JUMP JUMPDEST PUSH1 0x40 MLOAD SWAP1 ISZERO ISZERO DUP2 MSTORE PUSH1 0x20 ADD PUSH2 0x203 JUMP JUMPDEST PUSH2 0x24A PUSH2 0x3E1 CALLDATASIZE PUSH1 0x4 PUSH2 0xF4F JUMP JUMPDEST PUSH2 0xAAB JUMP JUMPDEST PUSH2 0x24A PUSH2 0x3F4 CALLDATASIZE PUSH1 0x4 PUSH2 0xF89 JUMP JUMPDEST PUSH2 0xB4D JUMP JUMPDEST PUSH2 0x1F9 PUSH2 0x407 CALLDATASIZE PUSH1 0x4 PUSH2 0xF4F JUMP JUMPDEST PUSH2 0xC1C JUMP JUMPDEST PUSH2 0x21F PUSH2 0x41A CALLDATASIZE PUSH1 0x4 PUSH2 0xFB5 JUMP JUMPDEST PUSH2 0xCBF JUMP JUMPDEST PUSH2 0x1F9 PUSH2 0x42D CALLDATASIZE PUSH1 0x4 PUSH2 0xF4F JUMP JUMPDEST PUSH1 0xC PUSH1 0x20 MSTORE PUSH1 0x0 SWAP1 DUP2 MSTORE PUSH1 0x40 SWAP1 KECCAK256 SLOAD DUP2 JUMP JUMPDEST PUSH2 0x24A PUSH2 0x44D CALLDATASIZE PUSH1 0x4 PUSH2 0xFB5 JUMP JUMPDEST PUSH2 0xCE9 JUMP JUMPDEST PUSH2 0x1F9 PUSH2 0x460 CALLDATASIZE PUSH1 0x4 PUSH2 0xF4F JUMP JUMPDEST PUSH1 0xA PUSH1 0x20 MSTORE PUSH1 0x0 SWAP1 DUP2 MSTORE PUSH1 0x40 SWAP1 KECCAK256 SLOAD DUP2 JUMP JUMPDEST PUSH2 0x24A PUSH2 0x480 CALLDATASIZE PUSH1 0x4 PUSH2 0xF4F JUMP JUMPDEST PUSH2 0xD79 JUMP JUMPDEST PUSH2 0x24A PUSH2 0x493 CALLDATASIZE PUSH1 0x4 PUSH2 0xF4F JUMP JUMPDEST PUSH2 0xE1B JUMP JUMPDEST PUSH2 0x24A PUSH2 0x4A6 CALLDATASIZE PUSH1 0x4 PUSH2 0xFB5 JUMP JUMPDEST PUSH2 0xEBD JUMP JUMPDEST PUSH2 0x1F9 PUSH1 0x7 SLOAD DUP2 JUMP JUMPDEST PUSH1 0x4 SLOAD PUSH2 0x21F SWAP1 PUSH1 0x1 PUSH1 0x1 PUSH1 0xA0 SHL SUB AND DUP2 JUMP JUMPDEST PUSH2 0x1F9 PUSH2 0x4D5 CALLDATASIZE PUSH1 0x4 PUSH2 0xF4F JUMP JUMPDEST PUSH1 0xD PUSH1 0x20 MSTORE PUSH1 0x0 SWAP1 DUP2 MSTORE PUSH1 0x40 SWAP1 KECCAK256 SLOAD DUP2 JUMP JUMPDEST PUSH1 0x0 DUP1 SLOAD PUSH1 0x1 PUSH1 0x1 PUSH1 0xA0 SHL SUB AND CALLER EQ PUSH2 0x51A JUMPI PUSH1 0x40 MLOAD PUSH4 0xA59D7F4D PUSH1 0xE0 SHL DUP2 MSTORE CALLER PUSH1 0x4 DUP3 ADD MSTORE PUSH1 0x24 ADD JUMPDEST PUSH1 0x40 MLOAD DUP1 SWAP2 SUB SWAP1 REVERT JUMPDEST POP PUSH1 0x1 PUSH1 0x1 PUSH1 0xA0 SHL SUB DUP1 DUP4 AND PUSH1 0x0 SWAP1 DUP2 MSTORE PUSH1 0xB PUSH1 0x20 MSTORE PUSH1 0x40 SWAP1 KECCAK256 SLOAD AND DUP1 ISZERO PUSH2 0x568 JUMPI PUSH1 0x40 MLOAD PUSH4 0x84252D5 PUSH1 0xE1 SHL DUP2 MSTORE PUSH1 0x1 PUSH1 0x1 PUSH1 0xA0 SHL SUB DUP1 DUP6 AND PUSH1 0x4 DUP4 ADD MSTORE DUP3 AND PUSH1 0x24 DUP3 ADD MSTORE PUSH1 0x44 ADD PUSH2 0x511 JUMP JUMPDEST PUSH1 0x40 MLOAD PUSH4 0x27C74F7F PUSH1 0xE0 SHL DUP2 MSTORE PUSH1 0x1 PUSH1 0x1 PUSH1 0xA0 SHL SUB DUP5 DUP2 AND PUSH1 0x4 DUP4 ADD MSTORE PUSH1 0x24 DUP3 ADD DUP5 SWAP1 MSTORE PUSH32 0x0 AND SWAP1 PUSH4 0x27C74F7F SWAP1 PUSH1 0x44 ADD PUSH1 0x20 PUSH1 0x40 MLOAD DUP1 DUP4 SUB DUP2 PUSH1 0x0 DUP8 DUP1 EXTCODESIZE ISZERO DUP1 ISZERO PUSH2 0x5D2 JUMPI PUSH1 0x0 DUP1 REVERT JUMPDEST POP GAS CALL ISZERO DUP1 ISZERO PUSH2 0x5E6 JUMPI RETURNDATASIZE PUSH1 0x0 DUP1 RETURNDATACOPY RETURNDATASIZE PUSH1 0x0 REVERT JUMPDEST POP POP POP POP PUSH1 0x40 MLOAD RETURNDATASIZE PUSH1 0x1F NOT PUSH1 0x1F DUP3 ADD AND DUP3 ADD DUP1 PUSH1 0x40 MSTORE POP DUP2 ADD SWAP1 PUSH2 0x60A SWAP2 SWAP1 PUSH2 0xF6C JUMP JUMPDEST PUSH1 0x8 DUP1 SLOAD PUSH1 0x1 DUP2 ADD DUP3 SSTORE PUSH32 0xF3F7A9FE364FAAB93B216DA50A3214154F22A0A2B415B23A84C8169E8B636EE3 ADD DUP1 SLOAD PUSH1 0x1 PUSH1 0x1 PUSH1 0xA0 SHL SUB NOT SWAP1 DUP2 AND PUSH1 0x1 PUSH1 0x1 PUSH1 0xA0 SHL SUB DUP6 DUP2 AND SWAP2 DUP3 OR SWAP1 SWAP4 SSTORE DUP4 SLOAD PUSH1 0x0 DUP3 DUP2 MSTORE PUSH1 0xA PUSH1 0x20 SWAP1 DUP2 MSTORE PUSH1 0x40 DUP1 DUP4 KECCAK256 SWAP4 SWAP1 SWAP4 SSTORE SWAP5 DUP11 AND DUP1 DUP3 MSTORE PUSH1 0xB DUP7 MSTORE SWAP1 DUP3 SWAP1 KECCAK256 DUP1 SLOAD SWAP1 SWAP5 AND DUP4 OR SWAP1 SWAP4 SSTORE SWAP4 SLOAD DUP5 MLOAD DUP9 DUP2 MSTORE SWAP4 DUP5 ADD MSTORE SWAP4 SWAP5 POP SWAP2 PUSH32 0x2B441112F88AE4B324AE75FA72F06E95A0BDA7BCA0621AF0CCEAE2E36B80C909 SWAP2 ADD PUSH1 0x40 MLOAD DUP1 SWAP2 SUB SWAP1 LOG3 SWAP3 SWAP2 POP POP JUMP JUMPDEST PUSH1 0x0 SLOAD PUSH1 0x1 PUSH1 0x1 PUSH1 0xA0 SHL SUB AND CALLER EQ PUSH2 0x6F1 JUMPI PUSH1 0x40 MLOAD PUSH4 0xA59D7F4D PUSH1 0xE0 SHL DUP2 MSTORE CALLER PUSH1 0x4 DUP3 ADD MSTORE PUSH1 0x24 ADD PUSH2 0x511 JUMP JUMPDEST PUSH2 0x2710 DUP2 GT ISZERO PUSH2 0x71F JUMPI PUSH1 0x40 MLOAD PUSH4 0x7150BBA1 PUSH1 0xE0 SHL DUP2 MSTORE PUSH1 0x4 DUP2 ADD DUP3 SWAP1 MSTORE PUSH2 0x2710 PUSH1 0x24 DUP3 ADD MSTORE PUSH1 0x44 ADD PUSH2 0x511 JUMP JUMPDEST PUSH1 0x1 PUSH1 0x1 PUSH1 0xA0 SHL SUB DUP3 AND PUSH1 0x0 DUP2 DUP2 MSTORE PUSH1 0xC PUSH1 0x20 SWAP1 DUP2 MSTORE PUSH1 0x40 SWAP2 DUP3 SWAP1 KECCAK256 DUP5 SWAP1 SSTORE DUP2 MLOAD SWAP3 DUP4 MSTORE DUP3 ADD DUP4 SWAP1 MSTORE PUSH32 0x64E3F60034B49EBD0DF0B682E6A024F73CA7B62E51BBE91BF33BCD2C3C16159F SWAP2 ADD JUMPDEST PUSH1 0x40 MLOAD DUP1 SWAP2 SUB SWAP1 LOG1 POP POP JUMP JUMPDEST PUSH1 0x0 SLOAD PUSH1 0x1 PUSH1 0x1 PUSH1 0xA0 SHL SUB AND CALLER EQ PUSH2 0x7A5 JUMPI PUSH1 0x40 MLOAD PUSH4 0xA59D7F4D PUSH1 0xE0 SHL DUP2 MSTORE CALLER PUSH1 0x4 DUP3 ADD MSTORE PUSH1 0x24 ADD PUSH2 0x511 JUMP JUMPDEST PUSH2 0x2710 DUP2 GT ISZERO PUSH2 0x7D3 JUMPI PUSH1 0x40 MLOAD PUSH4 0x7150BBA1 PUSH1 0xE0 SHL DUP2 MSTORE PUSH1 0x4 DUP2 ADD DUP3 SWAP1 MSTORE PUSH2 0x2710 PUSH1 0x24 DUP3 ADD MSTORE PUSH1 0x44 ADD PUSH2 0x511 JUMP JUMPDEST PUSH1 0x1 PUSH1 0x1 PUSH1 0xA0 SHL SUB DUP3 AND PUSH1 0x0 DUP2 DUP2 MSTORE PUSH1 0xD PUSH1 0x20 SWAP1 DUP2 MSTORE PUSH1 0x40 SWAP2 DUP3 SWAP1 KECCAK256 DUP5 SWAP1 SSTORE DUP2 MLOAD SWAP3 DUP4 MSTORE DUP3 ADD DUP4 SWAP1 MSTORE PUSH32 0x95CE88C220684EB1CBFA29B8C489102DD6AC38A615BD9F16C996786636EBB9CA SWAP2 ADD PUSH2 0x76C JUMP JUMPDEST PUSH1 0x0 SLOAD PUSH1 0x1 PUSH1 0x1 PUSH1 0xA0 SHL SUB AND CALLER EQ PUSH2 0x851 JUMPI PUSH1 0x40 MLOAD PUSH4 0xA59D7F4D PUSH1 0xE0 SHL DUP2 MSTORE CALLER PUSH1 0x4 DUP3 ADD MSTORE PUSH1 0x24 ADD PUSH2 0x511 JUMP JUMPDEST PUSH2 0x2710 DUP2 GT ISZERO PUSH2 0x87F JUMPI PUSH1 0x40 MLOAD PUSH4 0x7150BBA1 PUSH1 0xE0 SHL DUP2 MSTORE PUSH1 0x4 DUP2 ADD DUP3 SWAP1 MSTORE PUSH2 0x2710 PUSH1 0x24 DUP3 ADD MSTORE PUSH1 0x44 ADD PUSH2 0x511 JUMP JUMPDEST PUSH1 0x1 PUSH1 0x1 PUSH1 0xA0 SHL SUB DUP3 AND PUSH1 0x0 DUP2 DUP2 MSTORE PUSH1 0xE PUSH1 0x20 SWAP1 DUP2 MSTORE PUSH1 0x40 SWAP2 DUP3 SWAP1 KECCAK256 DUP5 SWAP1 SSTORE DUP2 MLOAD SWAP3 DUP4 MSTORE DUP3 ADD DUP4 SWAP1 MSTORE PUSH32 0xB2FBF1CB794EF27C93F2189CE22F82871C05ECFB1D103D7D7BB7090118DC1C6 SWAP2 ADD PUSH2 0x76C JUMP JUMPDEST PUSH1 0x0 SLOAD PUSH1 0x1 PUSH1 0x1 PUSH1 0xA0 SHL SUB AND CALLER EQ PUSH2 0x8FD JUMPI PUSH1 0x40 MLOAD PUSH4 0xA59D7F4D PUSH1 0xE0 SHL DUP2 MSTORE CALLER PUSH1 0x4 DUP3 ADD MSTORE PUSH1 0x24 ADD PUSH2 0x511 JUMP JUMPDEST PUSH1 0x1 PUSH1 0x1 PUSH1 0xA0 SHL SUB DUP2 AND PUSH2 0x924 JUMPI PUSH1 0x40 MLOAD PUSH4 0xD92E233D PUSH1 0xE0 SHL DUP2 MSTORE PUSH1 0x4 ADD PUSH1 0x40 MLOAD DUP1 SWAP2 SUB SWAP1 REVERT JUMPDEST PUSH1 0x2 DUP1 SLOAD PUSH1 0x1 PUSH1 0x1 PUSH1 0xA0 SHL SUB NOT AND PUSH1 0x1 PUSH1 0x1 PUSH1 0xA0 SHL SUB DUP4 AND SWAP1 DUP2 OR SWAP1 SWAP2 SSTORE PUSH1 0x40 MLOAD SWAP1 DUP2 MSTORE PUSH32 0xF724A45D041687842411F2B977EF22AB8F43C8F1104F4592B42A00F9B34A643D SWAP1 PUSH1 0x20 ADD JUMPDEST PUSH1 0x40 MLOAD DUP1 SWAP2 SUB SWAP1 LOG1 POP JUMP JUMPDEST PUSH1 0x0 SLOAD PUSH1 0x1 PUSH1 0x1 PUSH1 0xA0 SHL SUB AND CALLER EQ PUSH2 0x9A6 JUMPI PUSH1 0x40 MLOAD PUSH4 0xA59D7F4D PUSH1 0xE0 SHL DUP2 MSTORE CALLER PUSH1 0x4 DUP3 ADD MSTORE PUSH1 0x24 ADD PUSH2 0x511 JUMP JUMPDEST PUSH2 0x2710 DUP2 LT ISZERO PUSH2 0x9D4 JUMPI PUSH1 0x40 MLOAD PUSH4 0x102A6C27 PUSH1 0xE0 SHL DUP2 MSTORE PUSH1 0x4 DUP2 ADD DUP3 SWAP1 MSTORE PUSH2 0x2710 PUSH1 0x24 DUP3 ADD MSTORE PUSH1 0x44 ADD PUSH2 0x511 JUMP JUMPDEST PUSH1 0x6 DUP2 SWAP1 SSTORE PUSH1 0x40 MLOAD DUP2 DUP2 MSTORE PUSH32 0x76AC3F03024A7EAAC1162B2497CE4F632A0FE15EAC444F9B01FFF9620A166C25 SWAP1 PUSH1 0x20 ADD PUSH2 0x96E JUMP JUMPDEST PUSH1 0x0 SLOAD PUSH1 0x1 PUSH1 0x1 PUSH1 0xA0 SHL SUB AND CALLER EQ PUSH2 0xA36 JUMPI PUSH1 0x40 MLOAD PUSH4 0xA59D7F4D PUSH1 0xE0 SHL DUP2 MSTORE CALLER PUSH1 0x4 DUP3 ADD MSTORE PUSH1 0x24 ADD PUSH2 0x511 JUMP JUMPDEST PUSH1 0x1 PUSH1 0x1 PUSH1 0xA0 SHL SUB DUP2 AND PUSH2 0xA5D JUMPI PUSH1 0x40 MLOAD PUSH4 0xD92E233D PUSH1 0xE0 SHL DUP2 MSTORE PUSH1 0x4 ADD PUSH1 0x40 MLOAD DUP1 SWAP2 SUB SWAP1 REVERT JUMPDEST PUSH1 0x1 DUP1 SLOAD PUSH1 0x1 PUSH1 0x1 PUSH1 0xA0 SHL SUB NOT AND PUSH1 0x1 PUSH1 0x1 PUSH1 0xA0 SHL SUB DUP4 AND SWAP1 DUP2 OR SWAP1 SWAP2 SSTORE PUSH1 0x40 MLOAD SWAP1 DUP2 MSTORE PUSH32 0x193361FCE04ED0C4E2CB4638CDC21C56D4313F5066142224555C49D3933E7CA4 SWAP1 PUSH1 0x20 ADD PUSH2 0x96E JUMP JUMPDEST PUSH1 0x0 SLOAD PUSH1 0x1 PUSH1 0x1 PUSH1 0xA0 SHL SUB AND CALLER EQ PUSH2 0xAD8 JUMPI PUSH1 0x40 MLOAD PUSH4 0xA59D7F4D PUSH1 0xE0 SHL DUP2 MSTORE CALLER PUSH1 0x4 DUP3 ADD MSTORE PUSH1 0x24 ADD PUSH2 0x511 JUMP JUMPDEST PUSH1 0x1 PUSH1 0x1 PUSH1 0xA0 SHL SUB DUP2 AND PUSH2 0xAFF JUMPI PUSH1 0x40 MLOAD PUSH4 0xD92E233D PUSH1 0xE0 SHL DUP2 MSTORE PUSH1 0x4 ADD PUSH1 0x40 MLOAD DUP1 SWAP2 SUB SWAP1 REVERT JUMPDEST PUSH1 0x3 DUP1 SLOAD PUSH1 0x1 PUSH1 0x1 PUSH1 0xA0 SHL SUB NOT AND PUSH1 0x1 PUSH1 0x1 PUSH1 0xA0 SHL SUB DUP4 AND SWAP1 DUP2 OR SWAP1 SWAP2 SSTORE PUSH1 0x40 MLOAD SWAP1 DUP2 MSTORE PUSH32 0xED2325536FB5243D4B19D1781D46658EFAF1B668C1D8A693D050BE0DD1CBFD30 SWAP1 PUSH1 0x20 ADD PUSH2 0x96E JUMP JUMPDEST PUSH1 0x0 SLOAD PUSH1 0x1 PUSH1 0x1 PUSH1 0xA0 SHL SUB AND CALLER EQ PUSH2 0xB7A JUMPI PUSH1 0x40 MLOAD PUSH4 0xA59D7F4D PUSH1 0xE0 SHL DUP2 MSTORE CALLER PUSH1 0x4 DUP3 ADD MSTORE PUSH1 0x24 ADD PUSH2 0x511 JUMP JUMPDEST PUSH1 0x1 PUSH1 0x1 PUSH1 0xA0 SHL SUB DUP1 DUP4 AND PUSH1 0x0 SWAP1 DUP2 MSTORE PUSH1 0xB PUSH1 0x20 MSTORE PUSH1 0x40 SWAP1 KECCAK256 SLOAD AND DUP1 PUSH2 0xBBE JUMPI PUSH1 0x40 MLOAD PUSH4 0x3F36C1AB PUSH1 0xE0 SHL DUP2 MSTORE PUSH1 0x1 PUSH1 0x1 PUSH1 0xA0 SHL SUB DUP5 AND PUSH1 0x4 DUP3 ADD MSTORE PUSH1 0x24 ADD PUSH2 0x511 JUMP JUMPDEST PUSH1 0x40 MLOAD PUSH3 0xE84339 PUSH1 0xE5 SHL DUP2 MSTORE PUSH1 0x4 DUP2 ADD DUP4 SWAP1 MSTORE PUSH1 0x1 PUSH1 0x1 PUSH1 0xA0 SHL SUB DUP3 AND SWAP1 PUSH4 0x1D086720 SWAP1 PUSH1 0x24 ADD PUSH1 0x0 PUSH1 0x40 MLOAD DUP1 DUP4 SUB DUP2 PUSH1 0x0 DUP8 DUP1 EXTCODESIZE ISZERO DUP1 ISZERO PUSH2 0xBFF JUMPI PUSH1 0x0 DUP1 REVERT JUMPDEST POP GAS CALL ISZERO DUP1 ISZERO PUSH2 0xC13 JUMPI RETURNDATASIZE PUSH1 0x0 DUP1 RETURNDATACOPY RETURNDATASIZE PUSH1 0x0 REVERT JUMPDEST POP POP POP POP POP POP POP JUMP JUMPDEST PUSH1 0x1 PUSH1 0x1 PUSH1 0xA0 SHL SUB DUP1 DUP3 AND PUSH1 0x0 SWAP1 DUP2 MSTORE PUSH1 0xB PUSH1 0x20 MSTORE PUSH1 0x40 DUP2 KECCAK256 SLOAD SWAP1 SWAP2 AND DUP1 PUSH2 0xC47 JUMPI POP PUSH1 0x0 SWAP3 SWAP2 POP POP JUMP JUMPDEST DUP1 PUSH1 0x1 PUSH1 0x1 PUSH1 0xA0 SHL SUB AND PUSH4 0xC392F766 PUSH1 0x40 MLOAD DUP2 PUSH4 0xFFFFFFFF AND PUSH1 0xE0 SHL DUP2 MSTORE PUSH1 0x4 ADD PUSH1 0x20 PUSH1 0x40 MLOAD DUP1 DUP4 SUB DUP2 DUP7 DUP1 EXTCODESIZE ISZERO DUP1 ISZERO PUSH2 0xC80 JUMPI PUSH1 0x0 DUP1 REVERT JUMPDEST POP GAS STATICCALL ISZERO DUP1 ISZERO PUSH2 0xC94 JUMPI RETURNDATASIZE PUSH1 0x0 DUP1 RETURNDATACOPY RETURNDATASIZE PUSH1 0x0 REVERT JUMPDEST POP POP POP POP PUSH1 0x40 MLOAD RETURNDATASIZE PUSH1 0x1F NOT PUSH1 0x1F DUP3 ADD AND DUP3 ADD DUP1 PUSH1 0x40 MSTORE POP DUP2 ADD SWAP1 PUSH2 0xCB8 SWAP2 SWAP1 PUSH2 0xFCE JUMP JUMPDEST SWAP4 SWAP3 POP POP POP JUMP JUMPDEST PUSH1 0x8 DUP2 DUP2 SLOAD DUP2 LT PUSH2 0xCCF JUMPI PUSH1 0x0 DUP1 REVERT JUMPDEST PUSH1 0x0 SWAP2 DUP3 MSTORE PUSH1 0x20 SWAP1 SWAP2 KECCAK256 ADD SLOAD PUSH1 0x1 PUSH1 0x1 PUSH1 0xA0 SHL SUB AND SWAP1 POP DUP2 JUMP JUMPDEST PUSH1 0x0 SLOAD PUSH1 0x1 PUSH1 0x1 PUSH1 0xA0 SHL SUB AND CALLER EQ PUSH2 0xD16 JUMPI PUSH1 0x40 MLOAD PUSH4 0xA59D7F4D PUSH1 0xE0 SHL DUP2 MSTORE CALLER PUSH1 0x4 DUP3 ADD MSTORE PUSH1 0x24 ADD PUSH2 0x511 JUMP JUMPDEST PUSH2 0x2710 DUP2 GT ISZERO PUSH2 0xD44 JUMPI PUSH1 0x40 MLOAD PUSH4 0x7150BBA1 PUSH1 0xE0 SHL DUP2 MSTORE PUSH1 0x4 DUP2 ADD DUP3 SWAP1 MSTORE PUSH2 0x2710 PUSH1 0x24 DUP3 ADD MSTORE PUSH1 0x44 ADD PUSH2 0x511 JUMP JUMPDEST PUSH1 0x5 DUP2 SWAP1 SSTORE PUSH1 0x40 MLOAD DUP2 DUP2 MSTORE PUSH32 0x43C0669C98845A19F0C83C170DAFAC37D88AB6841D159A3B478365715E09A119 SWAP1 PUSH1 0x20 ADD PUSH2 0x96E JUMP JUMPDEST PUSH1 0x0 SLOAD PUSH1 0x1 PUSH1 0x1 PUSH1 0xA0 SHL SUB AND CALLER EQ PUSH2 0xDA6 JUMPI PUSH1 0x40 MLOAD PUSH4 0xA59D7F4D PUSH1 0xE0 SHL DUP2 MSTORE CALLER PUSH1 0x4 DUP3 ADD MSTORE PUSH1 0x24 ADD PUSH2 0x511 JUMP JUMPDEST PUSH1 0x1 PUSH1 0x1 PUSH1 0xA0 SHL SUB DUP2 AND PUSH2 0xDCD JUMPI PUSH1 0x40 MLOAD PUSH4 0xD92E233D PUSH1 0xE0 SHL DUP2 MSTORE PUSH1 0x4 ADD PUSH1 0x40 MLOAD DUP1 SWAP2 SUB SWAP1 REVERT JUMPDEST PUSH1 0x0 DUP1 SLOAD PUSH1 0x1 PUSH1 0x1 PUSH1 0xA0 SHL SUB NOT AND PUSH1 0x1 PUSH1 0x1 PUSH1 0xA0 SHL SUB DUP4 AND SWAP1 DUP2 OR SWAP1 SWAP2 SSTORE PUSH1 0x40 MLOAD SWAP1 DUP2 MSTORE PUSH32 0x54A6385AA0292B04E1EF8513253C17D1863F7CDFC87029D77FD55CC4C2E717E2 SWAP1 PUSH1 0x20 ADD PUSH2 0x96E JUMP JUMPDEST PUSH1 0x0 SLOAD PUSH1 0x1 PUSH1 0x1 PUSH1 0xA0 SHL SUB AND CALLER EQ PUSH2 0xE48 JUMPI PUSH1 0x40 MLOAD PUSH4 0xA59D7F4D PUSH1 0xE0 SHL DUP2 MSTORE CALLER PUSH1 0x4 DUP3 ADD MSTORE PUSH1 0x24 ADD PUSH2 0x511 JUMP JUMPDEST PUSH1 0x1 PUSH1 0x1 PUSH1 0xA0 SHL SUB DUP2 AND PUSH2 0xE6F JUMPI PUSH1 0x40 MLOAD PUSH4 0xD92E233D PUSH1 0xE0 SHL DUP2 MSTORE PUSH1 0x4 ADD PUSH1 0x40 MLOAD DUP1 SWAP2 SUB SWAP1 REVERT JUMPDEST PUSH1 0x4 DUP1 SLOAD PUSH1 0x1 PUSH1 0x1 PUSH1 0xA0 SHL SUB NOT AND PUSH1 0x1 PUSH1 0x1 PUSH1 0xA0 SHL SUB DUP4 AND SWAP1 DUP2 OR SWAP1 SWAP2 SSTORE PUSH1 0x40 MLOAD SWAP1 DUP2 MSTORE PUSH32 0x97011ACC091D73D67F71FF78BDB3837CE0103F4A52E95B01F50A28B9F7821BA6 SWAP1 PUSH1 0x20 ADD PUSH2 0x96E JUMP JUMPDEST PUSH1 0x0 SLOAD PUSH1 0x1 PUSH1 0x1 PUSH1 0xA0 SHL SUB AND CALLER EQ PUSH2 0xEEA JUMPI PUSH1 0x40 MLOAD PUSH4 0xA59D7F4D PUSH1 0xE0 SHL DUP2 MSTORE CALLER PUSH1 0x4 DUP3 ADD MSTORE PUSH1 0x24 ADD PUSH2 0x511 JUMP JUMPDEST PUSH3 0x278D00 DUP2 LT ISZERO PUSH2 0xF1A JUMPI PUSH1 0x40 MLOAD PUSH4 0x102A6C27 PUSH1 0xE0 SHL DUP2 MSTORE PUSH1 0x4 DUP2 ADD DUP3 SWAP1 MSTORE PUSH3 0x278D00 PUSH1 0x24 DUP3 ADD MSTORE PUSH1 0x44 ADD PUSH2 0x511 JUMP JUMPDEST PUSH1 0x7 DUP2 SWAP1 SSTORE PUSH1 0x40 MLOAD DUP2 DUP2 MSTORE PUSH32 0x3B655FFF5646F76885BACA7E1DADF8B8E0095FF01DE8F96A0CF75C8D8CFB53D8 SWAP1 PUSH1 0x20 ADD PUSH2 0x96E JUMP JUMPDEST PUSH1 0x0 PUSH1 0x20 DUP3 DUP5 SUB SLT ISZERO PUSH2 0xF61 JUMPI PUSH1 0x0 DUP1 REVERT JUMPDEST DUP2 CALLDATALOAD PUSH2 0xCB8 DUP2 PUSH2 0xFE7 JUMP JUMPDEST PUSH1 0x0 PUSH1 0x20 DUP3 DUP5 SUB SLT ISZERO PUSH2 0xF7E JUMPI PUSH1 0x0 DUP1 REVERT JUMPDEST DUP2 MLOAD PUSH2 0xCB8 DUP2 PUSH2 0xFE7 JUMP JUMPDEST PUSH1 0x0 DUP1 PUSH1 0x40 DUP4 DUP6 SUB SLT ISZERO PUSH2 0xF9C JUMPI PUSH1 0x0 DUP1 REVERT JUMPDEST DUP3 CALLDATALOAD PUSH2 0xFA7 DUP2 PUSH2 0xFE7 JUMP JUMPDEST SWAP5 PUSH1 0x20 SWAP4 SWAP1 SWAP4 ADD CALLDATALOAD SWAP4 POP POP POP JUMP JUMPDEST PUSH1 0x0 PUSH1 0x20 DUP3 DUP5 SUB SLT ISZERO PUSH2 0xFC7 JUMPI PUSH1 0x0 DUP1 REVERT JUMPDEST POP CALLDATALOAD SWAP2 SWAP1 POP JUMP JUMPDEST PUSH1 0x0 PUSH1 0x20 DUP3 DUP5 SUB SLT ISZERO PUSH2 0xFE0 JUMPI PUSH1 0x0 DUP1 REVERT JUMPDEST POP MLOAD SWAP2 SWAP1 POP JUMP JUMPDEST PUSH1 0x1 PUSH1 0x1 PUSH1 0xA0 SHL SUB DUP2 AND DUP2 EQ PUSH2 0xFFC JUMPI PUSH1 0x0 DUP1 REVERT JUMPDEST POP JUMP INVALID LOG2 PUSH5 0x6970667358 0x22 SLT KECCAK256 PUSH2 0xF85C PUSH32 0x5669BC5DB52874A5B39E994AE1ABAD9FA2838CBC71DD9CB25E3F342B64736F6C PUSH4 0x43000807 STOP CALLER "},"gasEstimates":{"creation":{"codeDepositCost":"829800","executionCost":"infinite","totalCost":"infinite"},"external":{"baseTokenLT(address)":"2612","collateralLT(address)":"2570","createPool(address,uint256)":"infinite","dexAggregator()":"2426","interest(address)":"infinite","manager()":"2405","manualExpiration()":"2350","minQuoteRate()":"2374","mut(address)":"2613","operator(address)":"2615","poolByQuoteToken(address)":"2642","poolDeployer()":"infinite","poolIndex(address)":"2569","poolLength()":"2317","pools(uint256)":"4703","positionStorage()":"infinite","priceFeed()":"2382","protocolFeeRate()":"2330","protocolFeeTo()":"2425","setBaseTokenLT(address,uint256)":"26081","setCollateralLT(address,uint256)":"26147","setDEXAggregator(address)":"27917","setMUT(address,uint256)":"26115","setManager(address)":"27894","setManualExpiration(uint256)":"25611","setMinQuoteRate(uint256)":"25613","setPoolInterest(address,uint256)":"infinite","setPriceFeed(address)":"27906","setProtocolFeeRate(uint256)":"25612","setProtocolFeeTo(address)":"27916","setUserStorage(address)":"27873","userStorage()":"2404"}},"methodIdentifiers":{"baseTokenLT(address)":"f5d0e175","collateralLT(address)":"5fde0ec0","createPool(address,uint256)":"12d36171","dexAggregator()":"7c21d5e0","interest(address)":"ac436bdf","manager()":"481c6a75","manualExpiration()":"eddf82bb","minQuoteRate()":"6d274553","mut(address)":"ad5d8e51","operator(address)":"9a307391","poolByQuoteToken(address)":"4d83bc33","poolDeployer()":"3119049a","poolIndex(address)":"b42754a5","poolLength()":"081e3eda","pools(uint256)":"ac4afa38","positionStorage()":"8cd47415","priceFeed()":"741bef1a","protocolFeeRate()":"58f85880","protocolFeeTo()":"ef369252","setBaseTokenLT(address,uint256)":"3b0e0e84","setCollateralLT(address,uint256)":"50772b3f","setDEXAggregator(address)":"aa6dfe03","setMUT(address,uint256)":"147fb081","setManager(address)":"d0ebdbe7","setManualExpiration(uint256)":"e47eb30c","setMinQuoteRate(uint256)":"90f43680","setPoolInterest(address,uint256)":"aac9d2b8","setPriceFeed(address)":"724e78da","setProtocolFeeRate(uint256)":"b13aa2d6","setProtocolFeeTo(address)":"e0e6799f","setUserStorage(address)":"9142887f","userStorage()":"75e58079"}},"storageLayout":{"storage":[{"astId":72,"contract":"contracts/Factory.sol:Factory","label":"manager","offset":0,"slot":"0","type":"t_address"},{"astId":75,"contract":"contracts/Factory.sol:Factory","label":"userStorage","offset":0,"slot":"1","type":"t_address"},{"astId":78,"contract":"contracts/Factory.sol:Factory","label":"priceFeed","offset":0,"slot":"2","type":"t_address"},{"astId":81,"contract":"contracts/Factory.sol:Factory","label":"dexAggregator","offset":0,"slot":"3","type":"t_address"},{"astId":84,"contract":"contracts/Factory.sol:Factory","label":"protocolFeeTo","offset":0,"slot":"4","type":"t_address"},{"astId":87,"contract":"contracts/Factory.sol:Factory","label":"protocolFeeRate","offset":0,"slot":"5","type":"t_uint256"},{"astId":90,"contract":"contracts/Factory.sol:Factory","label":"minQuoteRate","offset":0,"slot":"6","type":"t_uint256"},{"astId":93,"contract":"contracts/Factory.sol:Factory","label":"manualExpiration","offset":0,"slot":"7","type":"t_uint256"},{"astId":97,"contract":"contracts/Factory.sol:Factory","label":"pools","offset":0,"slot":"8","type":"t_array(t_address)dyn_storage"},{"astId":102,"contract":"contracts/Factory.sol:Factory","label":"operator","offset":0,"slot":"9","type":"t_mapping(t_address,t_bool)"},{"astId":107,"contract":"contracts/Factory.sol:Factory","label":"poolIndex","offset":0,"slot":"10","type":"t_mapping(t_address,t_uint256)"},{"astId":112,"contract":"contracts/Factory.sol:Factory","label":"poolByQuoteToken","offset":0,"slot":"11","type":"t_mapping(t_address,t_address)"},{"astId":117,"contract":"contracts/Factory.sol:Factory","label":"mut","offset":0,"slot":"12","type":"t_mapping(t_address,t_uint256)"},{"astId":122,"contract":"contracts/Factory.sol:Factory","label":"baseTokenLT","offset":0,"slot":"13","type":"t_mapping(t_address,t_uint256)"},{"astId":127,"contract":"contracts/Factory.sol:Factory","label":"collateralLT","offset":0,"slot":"14","type":"t_mapping(t_address,t_uint256)"}],"types":{"t_address":{"encoding":"inplace","label":"address","numberOfBytes":"20"},"t_array(t_address)dyn_storage":{"base":"t_address","encoding":"dynamic_array","label":"address[]","numberOfBytes":"32"},"t_bool":{"encoding":"inplace","label":"bool","numberOfBytes":"1"},"t_mapping(t_address,t_address)":{"encoding":"mapping","key":"t_address","label":"mapping(address => address)","numberOfBytes":"32","value":"t_address"},"t_mapping(t_address,t_bool)":{"encoding":"mapping","key":"t_address","label":"mapping(address => bool)","numberOfBytes":"32","value":"t_bool"},"t_mapping(t_address,t_uint256)":{"encoding":"mapping","key":"t_address","label":"mapping(address => uint256)","numberOfBytes":"32","value":"t_uint256"},"t_uint256":{"encoding":"inplace","label":"uint256","numberOfBytes":"32"}}},"userdoc":{"kind":"user","methods":{},"version":1}}}}