{"contracts/Monitor.sol":{"Monitor":{"abi":[{"inputs":[{"internalType":"address","name":"_keeper","type":"address"},{"internalType":"address","name":"_factory","type":"address"},{"internalType":"uint256","name":"_batchSize","type":"uint256"},{"internalType":"uint256","name":"_monitorSize","type":"uint256"},{"internalType":"uint256","name":"_startIndex","type":"uint256"}],"stateMutability":"nonpayable","type":"constructor"},{"inputs":[{"internalType":"address","name":"sender","type":"address"}],"name":"Forbidden","type":"error"},{"inputs":[{"internalType":"uint256","name":"value","type":"uint256"},{"internalType":"uint256","name":"max","type":"uint256"}],"name":"TooHighValue","type":"error"},{"inputs":[{"internalType":"uint256","name":"value","type":"uint256"},{"internalType":"uint256","name":"min","type":"uint256"}],"name":"TooLowValue","type":"error"},{"anonymous":false,"inputs":[{"indexed":false,"internalType":"uint256","name":"count","type":"uint256"},{"indexed":false,"internalType":"bytes","name":"performData","type":"bytes"},{"indexed":false,"internalType":"uint256","name":"usedGas","type":"uint256"},{"indexed":false,"internalType":"uint256","name":"gasPrice","type":"uint256"}],"name":"ProcessBatch","type":"event"},{"anonymous":false,"inputs":[{"indexed":false,"internalType":"uint256","name":"batchSize","type":"uint256"}],"name":"SetBatchSize","type":"event"},{"anonymous":false,"inputs":[{"indexed":false,"internalType":"address","name":"factory","type":"address"}],"name":"SetFactory","type":"event"},{"anonymous":false,"inputs":[{"indexed":false,"internalType":"address","name":"keeper","type":"address"}],"name":"SetKeeper","type":"event"},{"anonymous":false,"inputs":[{"indexed":false,"internalType":"address","name":"manager","type":"address"}],"name":"SetManager","type":"event"},{"anonymous":false,"inputs":[{"indexed":false,"internalType":"uint256","name":"monitorSize","type":"uint256"}],"name":"SetMonitorSize","type":"event"},{"anonymous":false,"inputs":[{"indexed":false,"internalType":"uint256","name":"startIndex","type":"uint256"}],"name":"SetStartIndex","type":"event"},{"inputs":[],"name":"batchSize","outputs":[{"internalType":"uint256","name":"","type":"uint256"}],"stateMutability":"view","type":"function"},{"inputs":[{"internalType":"bytes","name":"","type":"bytes"}],"name":"checkUpkeep","outputs":[{"internalType":"bool","name":"upkeepNeeded","type":"bool"},{"internalType":"bytes","name":"performData","type":"bytes"}],"stateMutability":"view","type":"function"},{"inputs":[{"internalType":"address","name":"_dex","type":"address"},{"internalType":"address","name":"_tokenIn","type":"address"},{"internalType":"address","name":"_tokenOut","type":"address"},{"internalType":"uint256","name":"_amountOut","type":"uint256"},{"internalType":"bytes","name":"_data","type":"bytes"}],"name":"closeCallback","outputs":[],"stateMutability":"nonpayable","type":"function"},{"inputs":[],"name":"factory","outputs":[{"internalType":"address","name":"","type":"address"}],"stateMutability":"view","type":"function"},{"inputs":[],"name":"keeper","outputs":[{"internalType":"address","name":"","type":"address"}],"stateMutability":"view","type":"function"},{"inputs":[],"name":"manager","outputs":[{"internalType":"address","name":"","type":"address"}],"stateMutability":"view","type":"function"},{"inputs":[],"name":"monitorSize","outputs":[{"internalType":"uint256","name":"","type":"uint256"}],"stateMutability":"view","type":"function"},{"inputs":[{"internalType":"bytes","name":"_performData","type":"bytes"}],"name":"performUpkeep","outputs":[],"stateMutability":"nonpayable","type":"function"},{"inputs":[{"internalType":"uint256","name":"_batchSize","type":"uint256"}],"name":"setBatchSize","outputs":[],"stateMutability":"nonpayable","type":"function"},{"inputs":[{"internalType":"address","name":"_factory","type":"address"}],"name":"setFactory","outputs":[],"stateMutability":"nonpayable","type":"function"},{"inputs":[{"internalType":"address","name":"_keeper","type":"address"}],"name":"setKeeper","outputs":[],"stateMutability":"nonpayable","type":"function"},{"inputs":[{"internalType":"address","name":"_manager","type":"address"}],"name":"setManager","outputs":[],"stateMutability":"nonpayable","type":"function"},{"inputs":[{"internalType":"uint256","name":"_monitorSize","type":"uint256"}],"name":"setMonitorSize","outputs":[],"stateMutability":"nonpayable","type":"function"},{"inputs":[{"internalType":"uint256","name":"_startIndex","type":"uint256"}],"name":"setStartIndex","outputs":[],"stateMutability":"nonpayable","type":"function"},{"inputs":[],"name":"startIndex","outputs":[{"internalType":"uint256","name":"","type":"uint256"}],"stateMutability":"view","type":"function"}],"devdoc":{"kind":"dev","methods":{},"version":1},"evm":{"bytecode":{"linkReferences":{},"object":"608060405234801561001057600080fd5b50604051620017e1380380620017e183398101604081905261003191610099565b600080546001600160a01b03199081163317909155600180546001600160a01b0397881690831617905560028054959096169416939093179093556003556004919091556005556100e7565b80516001600160a01b038116811461009457600080fd5b919050565b600080600080600060a086880312156100b157600080fd5b6100ba8661007d565b94506100c86020870161007d565b6040870151606088015160809098015196999198509695945092505050565b6116ea80620000f76000396000f3fe608060405234801561001057600080fd5b50600436106100f55760003560e01c8063748747e611610097578063c45a015511610066578063c45a0155146101f2578063d0ebdbe714610205578063de07be8d14610218578063f4daaba11461022b57600080fd5b8063748747e6146101b0578063860965c6146101c35780639bb0dafa146101cc578063aced1661146101df57600080fd5b8063576f35e3116100d3578063576f35e3146101565780635bb47808146101695780635ff7d9d51461017c5780636e04ff0d1461018f57600080fd5b80633e0e828b146100fa5780634585e33b14610116578063481c6a751461012b575b600080fd5b61010360055481565b6040519081526020015b60405180910390f35b6101296101243660046112f8565b610234565b005b60005461013e906001600160a01b031681565b6040516001600160a01b03909116815260200161010d565b61012961016436600461140e565b610541565b61012961017736600461114b565b6105dd565b61012961018a36600461140e565b610658565b6101a261019d3660046112f8565b6106ba565b60405161010d9291906114e7565b6101296101be36600461114b565b6109b9565b61010360045481565b6101296101da36600461140e565b610a34565b60015461013e906001600160a01b031681565b60025461013e906001600160a01b031681565b61012961021336600461114b565b610ac7565b61012961022636600461118c565b610b42565b61010360035481565b60025460408051638cd4741560e01b815290516000926001600160a01b031691638cd47415916004808301926020929190829003018186803b15801561027957600080fd5b505afa15801561028d573d6000803e3d6000fd5b505050506040513d601f19601f820116820180604052508101906102b1919061116f565b905060005a90506000806102c785870187611211565b9150915060005b818110156104ef576000856001600160a01b031663f7a5f2548584815181106102f9576102f9611670565b60200260200101516040518263ffffffff1660e01b815260040161031f91815260200190565b60206040518083038186803b15801561033757600080fd5b505afa15801561034b573d6000803e3d6000fd5b505050506040513d601f19601f8201168201806040525081019061036f91906112df565b905080156104dc5760006001600160a01b03871663f7a95a9e6103936001856115f8565b6040518263ffffffff1660e01b81526004016103b191815260200190565b6103606040518083038186803b1580156103ca57600080fd5b505afa1580156103de573d6000803e3d6000fd5b505050506040513d601f19601f82011682018060405250810190610402919061133a565b905080604001516001600160a01b031663ca9bc69d604051806060016040528084600001518152602001600067ffffffffffffffff81111561044657610446611686565b6040519080825280601f01601f191660200182016040528015610470576020820181803683370190505b50815260408051600081526020808201835290920191909152516001600160e01b031960e084901b1681526104a8919060040161150a565b600060405180830381600087803b1580156104c257600080fd5b505af11580156104d6573d6000803e3d6000fd5b50505050505b50806104e78161163f565b9150506102ce565b507fd1d8c94a101352389a2fadcdc79eb2ec660d64769f14a1e89c50c6d22225ce8b81878761051f5a8890610e1f565b3a604051610531959493929190611556565b60405180910390a1505050505050565b6000546001600160a01b031633146105735760405163a59d7f4d60e01b81523360048201526024015b60405180910390fd5b6004548111156105a15760048054604051637150bba160e01b8152918201839052602482015260440161056a565b60038190556040518181527fe7589087ca18f0ad76e3a457747806de5e2432f4285837617205c045ba950fb6906020015b60405180910390a150565b6000546001600160a01b0316331461060a5760405163a59d7f4d60e01b815233600482015260240161056a565b600280546001600160a01b0319166001600160a01b0383169081179091556040519081527f1c893ef9379093af30f458b9e74d2aba13c499660b68dec5e29af7b199c188b9906020016105d2565b6000546001600160a01b031633146106855760405163a59d7f4d60e01b815233600482015260240161056a565b60058190556040518181527ffb0b2459ef0b436ea50d577db242217edfa1e86a7404361aaae9b6bb406b7e2f906020016105d2565b600060606000600260009054906101000a90046001600160a01b03166001600160a01b0316638cd474156040518163ffffffff1660e01b815260040160206040518083038186803b15801561070e57600080fd5b505afa158015610722573d6000803e3d6000fd5b505050506040513d601f19601f82011682018060405250810190610746919061116f565b9050600060035467ffffffffffffffff81111561076557610765611686565b60405190808252806020026020018201604052801561078e578160200160208202803683370190505b5090506000806000846001600160a01b031663a827acf56040518163ffffffff1660e01b815260040160206040518083038186803b1580156107cf57600080fd5b505afa1580156107e3573d6000803e3d6000fd5b505050506040513d601f19601f8201168201806040525081019061080791906112df565b6005549091505b8181101561097d57604051631816b04960e11b8152600481018290526000906001600160a01b0388169063302d60929060240160206040518083038186803b15801561085957600080fd5b505afa15801561086d573d6000803e3d6000fd5b505050506040513d601f19601f8201168201806040525081019061089191906112df565b604051630c3742a160e31b8152600481018290529091506001600160a01b038816906361ba15089060240160206040518083038186803b1580156108d457600080fd5b505afa1580156108e8573d6000803e3d6000fd5b505050506040513d601f19601f8201168201806040525081019061090c91906112c4565b1561093d578086868151811061092457610924611670565b6020908102919091010152846109398161163f565b9550505b836109478161163f565b94505060045484141561095a575061097d565b60035485141561096a575061097d565b50806109758161163f565b91505061080e565b508215801597506109ad57838360405160200161099b92919061149f565b60405160208183030381529060405295505b50505050509250929050565b6000546001600160a01b031633146109e65760405163a59d7f4d60e01b815233600482015260240161056a565b600180546001600160a01b0319166001600160a01b0383169081179091556040519081527fefb5cfa1a8690c124332ab93324539c5c9c4be03f28aeb8be86f2d8a0c9fb99b906020016105d2565b6000546001600160a01b03163314610a615760405163a59d7f4d60e01b815233600482015260240161056a565b600354811015610a925760035460405163102a6c2760e01b815261056a918391600401918252602082015260400190565b60048190556040518181527f8f7e75c44358384d270505281bef6ad973e53b3785b6d722c4f279f1521d1560906020016105d2565b6000546001600160a01b03163314610af45760405163a59d7f4d60e01b815233600482015260240161056a565b600080546001600160a01b0319166001600160a01b0383169081179091556040519081527f54a6385aa0292b04e1ef8513253c17d1863f7cdfc87029d77fd55cc4c2e717e2906020016105d2565b600254604080516303e10eaf60e51b815290516000926001600160a01b031691637c21d5e0916004808301926020929190829003018186803b158015610b8757600080fd5b505afa158015610b9b573d6000803e3d6000fd5b505050506040513d601f19601f82011682018060405250810190610bbf919061116f565b6040516370a0823160e01b81523060048201529091506000906001600160a01b038816906370a082319060240160206040518083038186803b158015610c0457600080fd5b505afa158015610c18573d6000803e3d6000fd5b505050506040513d601f19601f82011682018060405250810190610c3c91906112df565b9050610c49878383610e40565b604051630ceffb5960e31b81526001600160a01b038981166004830152888116602483015287811660448301526064820187905230608483015283169063677fdac89060a4016040805180830381600087803b158015610ca857600080fd5b505af1158015610cbc573d6000803e3d6000fd5b505050506040513d601f19601f82011682018060405250810190610ce09190611427565b5050610ced863387610e40565b6040516370a0823160e01b81523060048201526000906001600160a01b038816906370a082319060240160206040518083038186803b158015610d2f57600080fd5b505afa158015610d43573d6000803e3d6000fd5b505050506040513d601f19601f82011682018060405250810190610d6791906112df565b90508015610e1457610d7a878483610e40565b604051630ceffb5960e31b81526001600160a01b038a81166004830152888116602483015289811660448301526000606483015233608483015284169063677fdac89060a4016040805180830381600087803b158015610dd957600080fd5b505af1158015610ded573d6000803e3d6000fd5b505050506040513d601f19601f82011682018060405250810190610e119190611427565b50505b505050505050505050565b600082610e2c83826115f8565b9150811115610e3a57600080fd5b92915050565b604080516001600160a01b038481166024830152604480830185905283518084039091018152606490920183526020820180516001600160e01b031663a9059cbb60e01b1790529151600092839290871691610e9c9190611483565b6000604051808303816000865af19150503d8060008114610ed9576040519150601f19603f3d011682016040523d82523d6000602084013e610ede565b606091505b5091509150818015610f08575080511580610f08575080806020019051810190610f0891906112c4565b610f6a5760405162461bcd60e51b815260206004820152602d60248201527f5472616e7366657248656c7065723a3a736166655472616e736665723a20747260448201526c185b9cd9995c8819985a5b1959609a1b606482015260840161056a565b5050505050565b8051610f7c8161169c565b919050565b80518015158114610f7c57600080fd5b60008083601f840112610fa357600080fd5b50813567ffffffffffffffff811115610fbb57600080fd5b602083019150836020828501011115610fd357600080fd5b9250929050565b600060c08284031215610fec57600080fd5b60405160c0810181811067ffffffffffffffff8211171561100f5761100f611686565b806040525080915082516110228161169c565b808252506020830151602082015260408301516040820152606083015160608201526080830151608082015260a083015160a08201525092915050565b60006040828403121561107157600080fd5b6040516040810181811067ffffffffffffffff8211171561109457611094611686565b806040525080915082516110a78161169c565b8152602092830151920191909152919050565b600060a082840312156110cc57600080fd5b60405160a0810181811067ffffffffffffffff821117156110ef576110ef611686565b6040529050806110fe83610f81565b815261110c60208401610f81565b602082015261111d60408401610f81565b604082015261112e60608401610f81565b606082015261113f60808401610f81565b60808201525092915050565b60006020828403121561115d57600080fd5b81356111688161169c565b9392505050565b60006020828403121561118157600080fd5b81516111688161169c565b60008060008060008060a087890312156111a557600080fd5b86356111b08161169c565b955060208701356111c08161169c565b945060408701356111d08161169c565b935060608701359250608087013567ffffffffffffffff8111156111f357600080fd5b6111ff89828a01610f91565b979a9699509497509295939492505050565b6000806040838503121561122457600080fd5b823567ffffffffffffffff8082111561123c57600080fd5b818501915085601f83011261125057600080fd5b813560208282111561126457611264611686565b8160051b92506112758184016115c7565b8281528181019085830185870184018b101561129057600080fd5b600096505b848710156112b3578035835260019690960195918301918301611295565b509997909101359750505050505050565b6000602082840312156112d657600080fd5b61116882610f81565b6000602082840312156112f157600080fd5b5051919050565b6000806020838503121561130b57600080fd5b823567ffffffffffffffff81111561132257600080fd5b61132e85828601610f91565b90969095509350505050565b6000610360828403121561134d57600080fd5b61135561159d565b8251815261136560208401610f71565b602082015261137660408401610f71565b60408201526113888460608501610fda565b606082015261012061139c8582860161105f565b60808301526101606113b086828701610fda565b60a084015261022085015160c084015261024085015160e0840152610260850151610100840152610280850151828401526113ef866102a087016110ba565b6101408401526114026103408601610f71565b90830152509392505050565b60006020828403121561142057600080fd5b5035919050565b6000806040838503121561143a57600080fd5b82519150602083015161144c8161169c565b809150509250929050565b6000815180845261146f81602086016020860161160f565b601f01601f19169290920160200192915050565b6000825161149581846020870161160f565b9190910192915050565b604080825283519082018190526000906020906060840190828701845b828110156114d8578151845292840192908401906001016114bc565b50505092019290925292915050565b82151581526040602082015260006115026040830184611457565b949350505050565b602081528151602082015260006020830151606060408401526115306080840182611457565b90506040840151601f1984830301606085015261154d8282611457565b95945050505050565b85815260806020820152836080820152838560a0830137600060a08583010152600060a0601f19601f87011683010190508360408301528260608301529695505050505050565b604051610180810167ffffffffffffffff811182821017156115c1576115c1611686565b60405290565b604051601f8201601f1916810167ffffffffffffffff811182821017156115f0576115f0611686565b604052919050565b60008282101561160a5761160a61165a565b500390565b60005b8381101561162a578181015183820152602001611612565b83811115611639576000848401525b50505050565b60006000198214156116535761165361165a565b5060010190565b634e487b7160e01b600052601160045260246000fd5b634e487b7160e01b600052603260045260246000fd5b634e487b7160e01b600052604160045260246000fd5b6001600160a01b03811681146116b157600080fd5b5056fea26469706673582212202a35e6e36e778ad34afc2882d70fd46edb1174870d4976bee4fa7df06c61290864736f6c63430008070033","opcodes":"PUSH1 0x80 PUSH1 0x40 MSTORE CALLVALUE DUP1 ISZERO PUSH2 0x10 JUMPI PUSH1 0x0 DUP1 REVERT JUMPDEST POP PUSH1 0x40 MLOAD PUSH3 0x17E1 CODESIZE SUB DUP1 PUSH3 0x17E1 DUP4 CODECOPY DUP2 ADD PUSH1 0x40 DUP2 SWAP1 MSTORE PUSH2 0x31 SWAP2 PUSH2 0x99 JUMP JUMPDEST PUSH1 0x0 DUP1 SLOAD PUSH1 0x1 PUSH1 0x1 PUSH1 0xA0 SHL SUB NOT SWAP1 DUP2 AND CALLER OR SWAP1 SWAP2 SSTORE PUSH1 0x1 DUP1 SLOAD PUSH1 0x1 PUSH1 0x1 PUSH1 0xA0 SHL SUB SWAP8 DUP9 AND SWAP1 DUP4 AND OR SWAP1 SSTORE PUSH1 0x2 DUP1 SLOAD SWAP6 SWAP1 SWAP7 AND SWAP5 AND SWAP4 SWAP1 SWAP4 OR SWAP1 SWAP4 SSTORE PUSH1 0x3 SSTORE PUSH1 0x4 SWAP2 SWAP1 SWAP2 SSTORE PUSH1 0x5 SSTORE PUSH2 0xE7 JUMP JUMPDEST DUP1 MLOAD PUSH1 0x1 PUSH1 0x1 PUSH1 0xA0 SHL SUB DUP2 AND DUP2 EQ PUSH2 0x94 JUMPI PUSH1 0x0 DUP1 REVERT JUMPDEST SWAP2 SWAP1 POP JUMP JUMPDEST PUSH1 0x0 DUP1 PUSH1 0x0 DUP1 PUSH1 0x0 PUSH1 0xA0 DUP7 DUP9 SUB SLT ISZERO PUSH2 0xB1 JUMPI PUSH1 0x0 DUP1 REVERT JUMPDEST PUSH2 0xBA DUP7 PUSH2 0x7D JUMP JUMPDEST SWAP5 POP PUSH2 0xC8 PUSH1 0x20 DUP8 ADD PUSH2 0x7D JUMP JUMPDEST PUSH1 0x40 DUP8 ADD MLOAD PUSH1 0x60 DUP9 ADD MLOAD PUSH1 0x80 SWAP1 SWAP9 ADD MLOAD SWAP7 SWAP10 SWAP2 SWAP9 POP SWAP7 SWAP6 SWAP5 POP SWAP3 POP POP POP JUMP JUMPDEST PUSH2 0x16EA DUP1 PUSH3 0xF7 PUSH1 0x0 CODECOPY PUSH1 0x0 RETURN INVALID PUSH1 0x80 PUSH1 0x40 MSTORE CALLVALUE DUP1 ISZERO PUSH2 0x10 JUMPI PUSH1 0x0 DUP1 REVERT JUMPDEST POP PUSH1 0x4 CALLDATASIZE LT PUSH2 0xF5 JUMPI PUSH1 0x0 CALLDATALOAD PUSH1 0xE0 SHR DUP1 PUSH4 0x748747E6 GT PUSH2 0x97 JUMPI DUP1 PUSH4 0xC45A0155 GT PUSH2 0x66 JUMPI DUP1 PUSH4 0xC45A0155 EQ PUSH2 0x1F2 JUMPI DUP1 PUSH4 0xD0EBDBE7 EQ PUSH2 0x205 JUMPI DUP1 PUSH4 0xDE07BE8D EQ PUSH2 0x218 JUMPI DUP1 PUSH4 0xF4DAABA1 EQ PUSH2 0x22B JUMPI PUSH1 0x0 DUP1 REVERT JUMPDEST DUP1 PUSH4 0x748747E6 EQ PUSH2 0x1B0 JUMPI DUP1 PUSH4 0x860965C6 EQ PUSH2 0x1C3 JUMPI DUP1 PUSH4 0x9BB0DAFA EQ PUSH2 0x1CC JUMPI DUP1 PUSH4 0xACED1661 EQ PUSH2 0x1DF JUMPI PUSH1 0x0 DUP1 REVERT JUMPDEST DUP1 PUSH4 0x576F35E3 GT PUSH2 0xD3 JUMPI DUP1 PUSH4 0x576F35E3 EQ PUSH2 0x156 JUMPI DUP1 PUSH4 0x5BB47808 EQ PUSH2 0x169 JUMPI DUP1 PUSH4 0x5FF7D9D5 EQ PUSH2 0x17C JUMPI DUP1 PUSH4 0x6E04FF0D EQ PUSH2 0x18F JUMPI PUSH1 0x0 DUP1 REVERT JUMPDEST DUP1 PUSH4 0x3E0E828B EQ PUSH2 0xFA JUMPI DUP1 PUSH4 0x4585E33B EQ PUSH2 0x116 JUMPI DUP1 PUSH4 0x481C6A75 EQ PUSH2 0x12B JUMPI JUMPDEST PUSH1 0x0 DUP1 REVERT JUMPDEST PUSH2 0x103 PUSH1 0x5 SLOAD DUP2 JUMP JUMPDEST PUSH1 0x40 MLOAD SWAP1 DUP2 MSTORE PUSH1 0x20 ADD JUMPDEST PUSH1 0x40 MLOAD DUP1 SWAP2 SUB SWAP1 RETURN JUMPDEST PUSH2 0x129 PUSH2 0x124 CALLDATASIZE PUSH1 0x4 PUSH2 0x12F8 JUMP JUMPDEST PUSH2 0x234 JUMP JUMPDEST STOP JUMPDEST PUSH1 0x0 SLOAD PUSH2 0x13E SWAP1 PUSH1 0x1 PUSH1 0x1 PUSH1 0xA0 SHL SUB AND DUP2 JUMP JUMPDEST PUSH1 0x40 MLOAD PUSH1 0x1 PUSH1 0x1 PUSH1 0xA0 SHL SUB SWAP1 SWAP2 AND DUP2 MSTORE PUSH1 0x20 ADD PUSH2 0x10D JUMP JUMPDEST PUSH2 0x129 PUSH2 0x164 CALLDATASIZE PUSH1 0x4 PUSH2 0x140E JUMP JUMPDEST PUSH2 0x541 JUMP JUMPDEST PUSH2 0x129 PUSH2 0x177 CALLDATASIZE PUSH1 0x4 PUSH2 0x114B JUMP JUMPDEST PUSH2 0x5DD JUMP JUMPDEST PUSH2 0x129 PUSH2 0x18A CALLDATASIZE PUSH1 0x4 PUSH2 0x140E JUMP JUMPDEST PUSH2 0x658 JUMP JUMPDEST PUSH2 0x1A2 PUSH2 0x19D CALLDATASIZE PUSH1 0x4 PUSH2 0x12F8 JUMP JUMPDEST PUSH2 0x6BA JUMP JUMPDEST PUSH1 0x40 MLOAD PUSH2 0x10D SWAP3 SWAP2 SWAP1 PUSH2 0x14E7 JUMP JUMPDEST PUSH2 0x129 PUSH2 0x1BE CALLDATASIZE PUSH1 0x4 PUSH2 0x114B JUMP JUMPDEST PUSH2 0x9B9 JUMP JUMPDEST PUSH2 0x103 PUSH1 0x4 SLOAD DUP2 JUMP JUMPDEST PUSH2 0x129 PUSH2 0x1DA CALLDATASIZE PUSH1 0x4 PUSH2 0x140E JUMP JUMPDEST PUSH2 0xA34 JUMP JUMPDEST PUSH1 0x1 SLOAD PUSH2 0x13E SWAP1 PUSH1 0x1 PUSH1 0x1 PUSH1 0xA0 SHL SUB AND DUP2 JUMP JUMPDEST PUSH1 0x2 SLOAD PUSH2 0x13E SWAP1 PUSH1 0x1 PUSH1 0x1 PUSH1 0xA0 SHL SUB AND DUP2 JUMP JUMPDEST PUSH2 0x129 PUSH2 0x213 CALLDATASIZE PUSH1 0x4 PUSH2 0x114B JUMP JUMPDEST PUSH2 0xAC7 JUMP JUMPDEST PUSH2 0x129 PUSH2 0x226 CALLDATASIZE PUSH1 0x4 PUSH2 0x118C JUMP JUMPDEST PUSH2 0xB42 JUMP JUMPDEST PUSH2 0x103 PUSH1 0x3 SLOAD DUP2 JUMP JUMPDEST PUSH1 0x2 SLOAD PUSH1 0x40 DUP1 MLOAD PUSH4 0x8CD47415 PUSH1 0xE0 SHL DUP2 MSTORE SWAP1 MLOAD PUSH1 0x0 SWAP3 PUSH1 0x1 PUSH1 0x1 PUSH1 0xA0 SHL SUB AND SWAP2 PUSH4 0x8CD47415 SWAP2 PUSH1 0x4 DUP1 DUP4 ADD SWAP3 PUSH1 0x20 SWAP3 SWAP2 SWAP1 DUP3 SWAP1 SUB ADD DUP2 DUP7 DUP1 EXTCODESIZE ISZERO DUP1 ISZERO PUSH2 0x279 JUMPI PUSH1 0x0 DUP1 REVERT JUMPDEST POP GAS STATICCALL ISZERO DUP1 ISZERO PUSH2 0x28D JUMPI RETURNDATASIZE PUSH1 0x0 DUP1 RETURNDATACOPY RETURNDATASIZE PUSH1 0x0 REVERT JUMPDEST POP POP POP POP PUSH1 0x40 MLOAD RETURNDATASIZE PUSH1 0x1F NOT PUSH1 0x1F DUP3 ADD AND DUP3 ADD DUP1 PUSH1 0x40 MSTORE POP DUP2 ADD SWAP1 PUSH2 0x2B1 SWAP2 SWAP1 PUSH2 0x116F JUMP JUMPDEST SWAP1 POP PUSH1 0x0 GAS SWAP1 POP PUSH1 0x0 DUP1 PUSH2 0x2C7 DUP6 DUP8 ADD DUP8 PUSH2 0x1211 JUMP JUMPDEST SWAP2 POP SWAP2 POP PUSH1 0x0 JUMPDEST DUP2 DUP2 LT ISZERO PUSH2 0x4EF JUMPI PUSH1 0x0 DUP6 PUSH1 0x1 PUSH1 0x1 PUSH1 0xA0 SHL SUB AND PUSH4 0xF7A5F254 DUP6 DUP5 DUP2 MLOAD DUP2 LT PUSH2 0x2F9 JUMPI PUSH2 0x2F9 PUSH2 0x1670 JUMP JUMPDEST PUSH1 0x20 MUL PUSH1 0x20 ADD ADD MLOAD PUSH1 0x40 MLOAD DUP3 PUSH4 0xFFFFFFFF AND PUSH1 0xE0 SHL DUP2 MSTORE PUSH1 0x4 ADD PUSH2 0x31F SWAP2 DUP2 MSTORE PUSH1 0x20 ADD SWAP1 JUMP JUMPDEST PUSH1 0x20 PUSH1 0x40 MLOAD DUP1 DUP4 SUB DUP2 DUP7 DUP1 EXTCODESIZE ISZERO DUP1 ISZERO PUSH2 0x337 JUMPI PUSH1 0x0 DUP1 REVERT JUMPDEST POP GAS STATICCALL ISZERO DUP1 ISZERO PUSH2 0x34B JUMPI RETURNDATASIZE PUSH1 0x0 DUP1 RETURNDATACOPY RETURNDATASIZE PUSH1 0x0 REVERT JUMPDEST POP POP POP POP PUSH1 0x40 MLOAD RETURNDATASIZE PUSH1 0x1F NOT PUSH1 0x1F DUP3 ADD AND DUP3 ADD DUP1 PUSH1 0x40 MSTORE POP DUP2 ADD SWAP1 PUSH2 0x36F SWAP2 SWAP1 PUSH2 0x12DF JUMP JUMPDEST SWAP1 POP DUP1 ISZERO PUSH2 0x4DC JUMPI PUSH1 0x0 PUSH1 0x1 PUSH1 0x1 PUSH1 0xA0 SHL SUB DUP8 AND PUSH4 0xF7A95A9E PUSH2 0x393 PUSH1 0x1 DUP6 PUSH2 0x15F8 JUMP JUMPDEST PUSH1 0x40 MLOAD DUP3 PUSH4 0xFFFFFFFF AND PUSH1 0xE0 SHL DUP2 MSTORE PUSH1 0x4 ADD PUSH2 0x3B1 SWAP2 DUP2 MSTORE PUSH1 0x20 ADD SWAP1 JUMP JUMPDEST PUSH2 0x360 PUSH1 0x40 MLOAD DUP1 DUP4 SUB DUP2 DUP7 DUP1 EXTCODESIZE ISZERO DUP1 ISZERO PUSH2 0x3CA JUMPI PUSH1 0x0 DUP1 REVERT JUMPDEST POP GAS STATICCALL ISZERO DUP1 ISZERO PUSH2 0x3DE JUMPI RETURNDATASIZE PUSH1 0x0 DUP1 RETURNDATACOPY RETURNDATASIZE PUSH1 0x0 REVERT JUMPDEST POP POP POP POP PUSH1 0x40 MLOAD RETURNDATASIZE PUSH1 0x1F NOT PUSH1 0x1F DUP3 ADD AND DUP3 ADD DUP1 PUSH1 0x40 MSTORE POP DUP2 ADD SWAP1 PUSH2 0x402 SWAP2 SWAP1 PUSH2 0x133A JUMP JUMPDEST SWAP1 POP DUP1 PUSH1 0x40 ADD MLOAD PUSH1 0x1 PUSH1 0x1 PUSH1 0xA0 SHL SUB AND PUSH4 0xCA9BC69D PUSH1 0x40 MLOAD DUP1 PUSH1 0x60 ADD PUSH1 0x40 MSTORE DUP1 DUP5 PUSH1 0x0 ADD MLOAD DUP2 MSTORE PUSH1 0x20 ADD PUSH1 0x0 PUSH8 0xFFFFFFFFFFFFFFFF DUP2 GT ISZERO PUSH2 0x446 JUMPI PUSH2 0x446 PUSH2 0x1686 JUMP JUMPDEST PUSH1 0x40 MLOAD SWAP1 DUP1 DUP3 MSTORE DUP1 PUSH1 0x1F ADD PUSH1 0x1F NOT AND PUSH1 0x20 ADD DUP3 ADD PUSH1 0x40 MSTORE DUP1 ISZERO PUSH2 0x470 JUMPI PUSH1 0x20 DUP3 ADD DUP2 DUP1 CALLDATASIZE DUP4 CALLDATACOPY ADD SWAP1 POP JUMPDEST POP DUP2 MSTORE PUSH1 0x40 DUP1 MLOAD PUSH1 0x0 DUP2 MSTORE PUSH1 0x20 DUP1 DUP3 ADD DUP4 MSTORE SWAP1 SWAP3 ADD SWAP2 SWAP1 SWAP2 MSTORE MLOAD PUSH1 0x1 PUSH1 0x1 PUSH1 0xE0 SHL SUB NOT PUSH1 0xE0 DUP5 SWAP1 SHL AND DUP2 MSTORE PUSH2 0x4A8 SWAP2 SWAP1 PUSH1 0x4 ADD PUSH2 0x150A JUMP JUMPDEST PUSH1 0x0 PUSH1 0x40 MLOAD DUP1 DUP4 SUB DUP2 PUSH1 0x0 DUP8 DUP1 EXTCODESIZE ISZERO DUP1 ISZERO PUSH2 0x4C2 JUMPI PUSH1 0x0 DUP1 REVERT JUMPDEST POP GAS CALL ISZERO DUP1 ISZERO PUSH2 0x4D6 JUMPI RETURNDATASIZE PUSH1 0x0 DUP1 RETURNDATACOPY RETURNDATASIZE PUSH1 0x0 REVERT JUMPDEST POP POP POP POP POP JUMPDEST POP DUP1 PUSH2 0x4E7 DUP2 PUSH2 0x163F JUMP JUMPDEST SWAP2 POP POP PUSH2 0x2CE JUMP JUMPDEST POP PUSH32 0xD1D8C94A101352389A2FADCDC79EB2EC660D64769F14A1E89C50C6D22225CE8B DUP2 DUP8 DUP8 PUSH2 0x51F GAS DUP9 SWAP1 PUSH2 0xE1F JUMP JUMPDEST GASPRICE PUSH1 0x40 MLOAD PUSH2 0x531 SWAP6 SWAP5 SWAP4 SWAP3 SWAP2 SWAP1 PUSH2 0x1556 JUMP JUMPDEST PUSH1 0x40 MLOAD DUP1 SWAP2 SUB SWAP1 LOG1 POP POP POP POP POP POP JUMP JUMPDEST PUSH1 0x0 SLOAD PUSH1 0x1 PUSH1 0x1 PUSH1 0xA0 SHL SUB AND CALLER EQ PUSH2 0x573 JUMPI PUSH1 0x40 MLOAD PUSH4 0xA59D7F4D PUSH1 0xE0 SHL DUP2 MSTORE CALLER PUSH1 0x4 DUP3 ADD MSTORE PUSH1 0x24 ADD JUMPDEST PUSH1 0x40 MLOAD DUP1 SWAP2 SUB SWAP1 REVERT JUMPDEST PUSH1 0x4 SLOAD DUP2 GT ISZERO PUSH2 0x5A1 JUMPI PUSH1 0x4 DUP1 SLOAD PUSH1 0x40 MLOAD PUSH4 0x7150BBA1 PUSH1 0xE0 SHL DUP2 MSTORE SWAP2 DUP3 ADD DUP4 SWAP1 MSTORE PUSH1 0x24 DUP3 ADD MSTORE PUSH1 0x44 ADD PUSH2 0x56A JUMP JUMPDEST PUSH1 0x3 DUP2 SWAP1 SSTORE PUSH1 0x40 MLOAD DUP2 DUP2 MSTORE PUSH32 0xE7589087CA18F0AD76E3A457747806DE5E2432F4285837617205C045BA950FB6 SWAP1 PUSH1 0x20 ADD JUMPDEST PUSH1 0x40 MLOAD DUP1 SWAP2 SUB SWAP1 LOG1 POP JUMP JUMPDEST PUSH1 0x0 SLOAD PUSH1 0x1 PUSH1 0x1 PUSH1 0xA0 SHL SUB AND CALLER EQ PUSH2 0x60A JUMPI PUSH1 0x40 MLOAD PUSH4 0xA59D7F4D PUSH1 0xE0 SHL DUP2 MSTORE CALLER PUSH1 0x4 DUP3 ADD MSTORE PUSH1 0x24 ADD PUSH2 0x56A JUMP JUMPDEST PUSH1 0x2 DUP1 SLOAD PUSH1 0x1 PUSH1 0x1 PUSH1 0xA0 SHL SUB NOT AND PUSH1 0x1 PUSH1 0x1 PUSH1 0xA0 SHL SUB DUP4 AND SWAP1 DUP2 OR SWAP1 SWAP2 SSTORE PUSH1 0x40 MLOAD SWAP1 DUP2 MSTORE PUSH32 0x1C893EF9379093AF30F458B9E74D2ABA13C499660B68DEC5E29AF7B199C188B9 SWAP1 PUSH1 0x20 ADD PUSH2 0x5D2 JUMP JUMPDEST PUSH1 0x0 SLOAD PUSH1 0x1 PUSH1 0x1 PUSH1 0xA0 SHL SUB AND CALLER EQ PUSH2 0x685 JUMPI PUSH1 0x40 MLOAD PUSH4 0xA59D7F4D PUSH1 0xE0 SHL DUP2 MSTORE CALLER PUSH1 0x4 DUP3 ADD MSTORE PUSH1 0x24 ADD PUSH2 0x56A JUMP JUMPDEST PUSH1 0x5 DUP2 SWAP1 SSTORE PUSH1 0x40 MLOAD DUP2 DUP2 MSTORE PUSH32 0xFB0B2459EF0B436EA50D577DB242217EDFA1E86A7404361AAAE9B6BB406B7E2F SWAP1 PUSH1 0x20 ADD PUSH2 0x5D2 JUMP JUMPDEST PUSH1 0x0 PUSH1 0x60 PUSH1 0x0 PUSH1 0x2 PUSH1 0x0 SWAP1 SLOAD SWAP1 PUSH2 0x100 EXP SWAP1 DIV PUSH1 0x1 PUSH1 0x1 PUSH1 0xA0 SHL SUB AND PUSH1 0x1 PUSH1 0x1 PUSH1 0xA0 SHL SUB AND PUSH4 0x8CD47415 PUSH1 0x40 MLOAD DUP2 PUSH4 0xFFFFFFFF AND PUSH1 0xE0 SHL DUP2 MSTORE PUSH1 0x4 ADD PUSH1 0x20 PUSH1 0x40 MLOAD DUP1 DUP4 SUB DUP2 DUP7 DUP1 EXTCODESIZE ISZERO DUP1 ISZERO PUSH2 0x70E JUMPI PUSH1 0x0 DUP1 REVERT JUMPDEST POP GAS STATICCALL ISZERO DUP1 ISZERO PUSH2 0x722 JUMPI RETURNDATASIZE PUSH1 0x0 DUP1 RETURNDATACOPY RETURNDATASIZE PUSH1 0x0 REVERT JUMPDEST POP POP POP POP PUSH1 0x40 MLOAD RETURNDATASIZE PUSH1 0x1F NOT PUSH1 0x1F DUP3 ADD AND DUP3 ADD DUP1 PUSH1 0x40 MSTORE POP DUP2 ADD SWAP1 PUSH2 0x746 SWAP2 SWAP1 PUSH2 0x116F JUMP JUMPDEST SWAP1 POP PUSH1 0x0 PUSH1 0x3 SLOAD PUSH8 0xFFFFFFFFFFFFFFFF DUP2 GT ISZERO PUSH2 0x765 JUMPI PUSH2 0x765 PUSH2 0x1686 JUMP JUMPDEST PUSH1 0x40 MLOAD SWAP1 DUP1 DUP3 MSTORE DUP1 PUSH1 0x20 MUL PUSH1 0x20 ADD DUP3 ADD PUSH1 0x40 MSTORE DUP1 ISZERO PUSH2 0x78E JUMPI DUP2 PUSH1 0x20 ADD PUSH1 0x20 DUP3 MUL DUP1 CALLDATASIZE DUP4 CALLDATACOPY ADD SWAP1 POP JUMPDEST POP SWAP1 POP PUSH1 0x0 DUP1 PUSH1 0x0 DUP5 PUSH1 0x1 PUSH1 0x1 PUSH1 0xA0 SHL SUB AND PUSH4 0xA827ACF5 PUSH1 0x40 MLOAD DUP2 PUSH4 0xFFFFFFFF AND PUSH1 0xE0 SHL DUP2 MSTORE PUSH1 0x4 ADD PUSH1 0x20 PUSH1 0x40 MLOAD DUP1 DUP4 SUB DUP2 DUP7 DUP1 EXTCODESIZE ISZERO DUP1 ISZERO PUSH2 0x7CF JUMPI PUSH1 0x0 DUP1 REVERT JUMPDEST POP GAS STATICCALL ISZERO DUP1 ISZERO PUSH2 0x7E3 JUMPI RETURNDATASIZE PUSH1 0x0 DUP1 RETURNDATACOPY RETURNDATASIZE PUSH1 0x0 REVERT JUMPDEST POP POP POP POP PUSH1 0x40 MLOAD RETURNDATASIZE PUSH1 0x1F NOT PUSH1 0x1F DUP3 ADD AND DUP3 ADD DUP1 PUSH1 0x40 MSTORE POP DUP2 ADD SWAP1 PUSH2 0x807 SWAP2 SWAP1 PUSH2 0x12DF JUMP JUMPDEST PUSH1 0x5 SLOAD SWAP1 SWAP2 POP JUMPDEST DUP2 DUP2 LT ISZERO PUSH2 0x97D JUMPI PUSH1 0x40 MLOAD PUSH4 0x1816B049 PUSH1 0xE1 SHL DUP2 MSTORE PUSH1 0x4 DUP2 ADD DUP3 SWAP1 MSTORE PUSH1 0x0 SWAP1 PUSH1 0x1 PUSH1 0x1 PUSH1 0xA0 SHL SUB DUP9 AND SWAP1 PUSH4 0x302D6092 SWAP1 PUSH1 0x24 ADD PUSH1 0x20 PUSH1 0x40 MLOAD DUP1 DUP4 SUB DUP2 DUP7 DUP1 EXTCODESIZE ISZERO DUP1 ISZERO PUSH2 0x859 JUMPI PUSH1 0x0 DUP1 REVERT JUMPDEST POP GAS STATICCALL ISZERO DUP1 ISZERO PUSH2 0x86D JUMPI RETURNDATASIZE PUSH1 0x0 DUP1 RETURNDATACOPY RETURNDATASIZE PUSH1 0x0 REVERT JUMPDEST POP POP POP POP PUSH1 0x40 MLOAD RETURNDATASIZE PUSH1 0x1F NOT PUSH1 0x1F DUP3 ADD AND DUP3 ADD DUP1 PUSH1 0x40 MSTORE POP DUP2 ADD SWAP1 PUSH2 0x891 SWAP2 SWAP1 PUSH2 0x12DF JUMP JUMPDEST PUSH1 0x40 MLOAD PUSH4 0xC3742A1 PUSH1 0xE3 SHL DUP2 MSTORE PUSH1 0x4 DUP2 ADD DUP3 SWAP1 MSTORE SWAP1 SWAP2 POP PUSH1 0x1 PUSH1 0x1 PUSH1 0xA0 SHL SUB DUP9 AND SWAP1 PUSH4 0x61BA1508 SWAP1 PUSH1 0x24 ADD PUSH1 0x20 PUSH1 0x40 MLOAD DUP1 DUP4 SUB DUP2 DUP7 DUP1 EXTCODESIZE ISZERO DUP1 ISZERO PUSH2 0x8D4 JUMPI PUSH1 0x0 DUP1 REVERT JUMPDEST POP GAS STATICCALL ISZERO DUP1 ISZERO PUSH2 0x8E8 JUMPI RETURNDATASIZE PUSH1 0x0 DUP1 RETURNDATACOPY RETURNDATASIZE PUSH1 0x0 REVERT JUMPDEST POP POP POP POP PUSH1 0x40 MLOAD RETURNDATASIZE PUSH1 0x1F NOT PUSH1 0x1F DUP3 ADD AND DUP3 ADD DUP1 PUSH1 0x40 MSTORE POP DUP2 ADD SWAP1 PUSH2 0x90C SWAP2 SWAP1 PUSH2 0x12C4 JUMP JUMPDEST ISZERO PUSH2 0x93D JUMPI DUP1 DUP7 DUP7 DUP2 MLOAD DUP2 LT PUSH2 0x924 JUMPI PUSH2 0x924 PUSH2 0x1670 JUMP JUMPDEST PUSH1 0x20 SWAP1 DUP2 MUL SWAP2 SWAP1 SWAP2 ADD ADD MSTORE DUP5 PUSH2 0x939 DUP2 PUSH2 0x163F JUMP JUMPDEST SWAP6 POP POP JUMPDEST DUP4 PUSH2 0x947 DUP2 PUSH2 0x163F JUMP JUMPDEST SWAP5 POP POP PUSH1 0x4 SLOAD DUP5 EQ ISZERO PUSH2 0x95A JUMPI POP PUSH2 0x97D JUMP JUMPDEST PUSH1 0x3 SLOAD DUP6 EQ ISZERO PUSH2 0x96A JUMPI POP PUSH2 0x97D JUMP JUMPDEST POP DUP1 PUSH2 0x975 DUP2 PUSH2 0x163F JUMP JUMPDEST SWAP2 POP POP PUSH2 0x80E JUMP JUMPDEST POP DUP3 ISZERO DUP1 ISZERO SWAP8 POP PUSH2 0x9AD JUMPI DUP4 DUP4 PUSH1 0x40 MLOAD PUSH1 0x20 ADD PUSH2 0x99B SWAP3 SWAP2 SWAP1 PUSH2 0x149F JUMP JUMPDEST PUSH1 0x40 MLOAD PUSH1 0x20 DUP2 DUP4 SUB SUB DUP2 MSTORE SWAP1 PUSH1 0x40 MSTORE SWAP6 POP JUMPDEST POP POP POP POP POP SWAP3 POP SWAP3 SWAP1 POP JUMP JUMPDEST PUSH1 0x0 SLOAD PUSH1 0x1 PUSH1 0x1 PUSH1 0xA0 SHL SUB AND CALLER EQ PUSH2 0x9E6 JUMPI PUSH1 0x40 MLOAD PUSH4 0xA59D7F4D PUSH1 0xE0 SHL DUP2 MSTORE CALLER PUSH1 0x4 DUP3 ADD MSTORE PUSH1 0x24 ADD PUSH2 0x56A JUMP JUMPDEST PUSH1 0x1 DUP1 SLOAD PUSH1 0x1 PUSH1 0x1 PUSH1 0xA0 SHL SUB NOT AND PUSH1 0x1 PUSH1 0x1 PUSH1 0xA0 SHL SUB DUP4 AND SWAP1 DUP2 OR SWAP1 SWAP2 SSTORE PUSH1 0x40 MLOAD SWAP1 DUP2 MSTORE PUSH32 0xEFB5CFA1A8690C124332AB93324539C5C9C4BE03F28AEB8BE86F2D8A0C9FB99B SWAP1 PUSH1 0x20 ADD PUSH2 0x5D2 JUMP JUMPDEST PUSH1 0x0 SLOAD PUSH1 0x1 PUSH1 0x1 PUSH1 0xA0 SHL SUB AND CALLER EQ PUSH2 0xA61 JUMPI PUSH1 0x40 MLOAD PUSH4 0xA59D7F4D PUSH1 0xE0 SHL DUP2 MSTORE CALLER PUSH1 0x4 DUP3 ADD MSTORE PUSH1 0x24 ADD PUSH2 0x56A JUMP JUMPDEST PUSH1 0x3 SLOAD DUP2 LT ISZERO PUSH2 0xA92 JUMPI PUSH1 0x3 SLOAD PUSH1 0x40 MLOAD PUSH4 0x102A6C27 PUSH1 0xE0 SHL DUP2 MSTORE PUSH2 0x56A SWAP2 DUP4 SWAP2 PUSH1 0x4 ADD SWAP2 DUP3 MSTORE PUSH1 0x20 DUP3 ADD MSTORE PUSH1 0x40 ADD SWAP1 JUMP JUMPDEST PUSH1 0x4 DUP2 SWAP1 SSTORE PUSH1 0x40 MLOAD DUP2 DUP2 MSTORE PUSH32 0x8F7E75C44358384D270505281BEF6AD973E53B3785B6D722C4F279F1521D1560 SWAP1 PUSH1 0x20 ADD PUSH2 0x5D2 JUMP JUMPDEST PUSH1 0x0 SLOAD PUSH1 0x1 PUSH1 0x1 PUSH1 0xA0 SHL SUB AND CALLER EQ PUSH2 0xAF4 JUMPI PUSH1 0x40 MLOAD PUSH4 0xA59D7F4D PUSH1 0xE0 SHL DUP2 MSTORE CALLER PUSH1 0x4 DUP3 ADD MSTORE PUSH1 0x24 ADD PUSH2 0x56A JUMP JUMPDEST PUSH1 0x0 DUP1 SLOAD PUSH1 0x1 PUSH1 0x1 PUSH1 0xA0 SHL SUB NOT AND PUSH1 0x1 PUSH1 0x1 PUSH1 0xA0 SHL SUB DUP4 AND SWAP1 DUP2 OR SWAP1 SWAP2 SSTORE PUSH1 0x40 MLOAD SWAP1 DUP2 MSTORE PUSH32 0x54A6385AA0292B04E1EF8513253C17D1863F7CDFC87029D77FD55CC4C2E717E2 SWAP1 PUSH1 0x20 ADD PUSH2 0x5D2 JUMP JUMPDEST PUSH1 0x2 SLOAD PUSH1 0x40 DUP1 MLOAD PUSH4 0x3E10EAF PUSH1 0xE5 SHL DUP2 MSTORE SWAP1 MLOAD PUSH1 0x0 SWAP3 PUSH1 0x1 PUSH1 0x1 PUSH1 0xA0 SHL SUB AND SWAP2 PUSH4 0x7C21D5E0 SWAP2 PUSH1 0x4 DUP1 DUP4 ADD SWAP3 PUSH1 0x20 SWAP3 SWAP2 SWAP1 DUP3 SWAP1 SUB ADD DUP2 DUP7 DUP1 EXTCODESIZE ISZERO DUP1 ISZERO PUSH2 0xB87 JUMPI PUSH1 0x0 DUP1 REVERT JUMPDEST POP GAS STATICCALL ISZERO DUP1 ISZERO PUSH2 0xB9B JUMPI RETURNDATASIZE PUSH1 0x0 DUP1 RETURNDATACOPY RETURNDATASIZE PUSH1 0x0 REVERT JUMPDEST POP POP POP POP PUSH1 0x40 MLOAD RETURNDATASIZE PUSH1 0x1F NOT PUSH1 0x1F DUP3 ADD AND DUP3 ADD DUP1 PUSH1 0x40 MSTORE POP DUP2 ADD SWAP1 PUSH2 0xBBF SWAP2 SWAP1 PUSH2 0x116F JUMP JUMPDEST PUSH1 0x40 MLOAD PUSH4 0x70A08231 PUSH1 0xE0 SHL DUP2 MSTORE ADDRESS PUSH1 0x4 DUP3 ADD MSTORE SWAP1 SWAP2 POP PUSH1 0x0 SWAP1 PUSH1 0x1 PUSH1 0x1 PUSH1 0xA0 SHL SUB DUP9 AND SWAP1 PUSH4 0x70A08231 SWAP1 PUSH1 0x24 ADD PUSH1 0x20 PUSH1 0x40 MLOAD DUP1 DUP4 SUB DUP2 DUP7 DUP1 EXTCODESIZE ISZERO DUP1 ISZERO PUSH2 0xC04 JUMPI PUSH1 0x0 DUP1 REVERT JUMPDEST POP GAS STATICCALL ISZERO DUP1 ISZERO PUSH2 0xC18 JUMPI RETURNDATASIZE PUSH1 0x0 DUP1 RETURNDATACOPY RETURNDATASIZE PUSH1 0x0 REVERT JUMPDEST POP POP POP POP PUSH1 0x40 MLOAD RETURNDATASIZE PUSH1 0x1F NOT PUSH1 0x1F DUP3 ADD AND DUP3 ADD DUP1 PUSH1 0x40 MSTORE POP DUP2 ADD SWAP1 PUSH2 0xC3C SWAP2 SWAP1 PUSH2 0x12DF JUMP JUMPDEST SWAP1 POP PUSH2 0xC49 DUP8 DUP4 DUP4 PUSH2 0xE40 JUMP JUMPDEST PUSH1 0x40 MLOAD PUSH4 0xCEFFB59 PUSH1 0xE3 SHL DUP2 MSTORE PUSH1 0x1 PUSH1 0x1 PUSH1 0xA0 SHL SUB DUP10 DUP2 AND PUSH1 0x4 DUP4 ADD MSTORE DUP9 DUP2 AND PUSH1 0x24 DUP4 ADD MSTORE DUP8 DUP2 AND PUSH1 0x44 DUP4 ADD MSTORE PUSH1 0x64 DUP3 ADD DUP8 SWAP1 MSTORE ADDRESS PUSH1 0x84 DUP4 ADD MSTORE DUP4 AND SWAP1 PUSH4 0x677FDAC8 SWAP1 PUSH1 0xA4 ADD PUSH1 0x40 DUP1 MLOAD DUP1 DUP4 SUB DUP2 PUSH1 0x0 DUP8 DUP1 EXTCODESIZE ISZERO DUP1 ISZERO PUSH2 0xCA8 JUMPI PUSH1 0x0 DUP1 REVERT JUMPDEST POP GAS CALL ISZERO DUP1 ISZERO PUSH2 0xCBC JUMPI RETURNDATASIZE PUSH1 0x0 DUP1 RETURNDATACOPY RETURNDATASIZE PUSH1 0x0 REVERT JUMPDEST POP POP POP POP PUSH1 0x40 MLOAD RETURNDATASIZE PUSH1 0x1F NOT PUSH1 0x1F DUP3 ADD AND DUP3 ADD DUP1 PUSH1 0x40 MSTORE POP DUP2 ADD SWAP1 PUSH2 0xCE0 SWAP2 SWAP1 PUSH2 0x1427 JUMP JUMPDEST POP POP PUSH2 0xCED DUP7 CALLER DUP8 PUSH2 0xE40 JUMP JUMPDEST PUSH1 0x40 MLOAD PUSH4 0x70A08231 PUSH1 0xE0 SHL DUP2 MSTORE ADDRESS PUSH1 0x4 DUP3 ADD MSTORE PUSH1 0x0 SWAP1 PUSH1 0x1 PUSH1 0x1 PUSH1 0xA0 SHL SUB DUP9 AND SWAP1 PUSH4 0x70A08231 SWAP1 PUSH1 0x24 ADD PUSH1 0x20 PUSH1 0x40 MLOAD DUP1 DUP4 SUB DUP2 DUP7 DUP1 EXTCODESIZE ISZERO DUP1 ISZERO PUSH2 0xD2F JUMPI PUSH1 0x0 DUP1 REVERT JUMPDEST POP GAS STATICCALL ISZERO DUP1 ISZERO PUSH2 0xD43 JUMPI RETURNDATASIZE PUSH1 0x0 DUP1 RETURNDATACOPY RETURNDATASIZE PUSH1 0x0 REVERT JUMPDEST POP POP POP POP PUSH1 0x40 MLOAD RETURNDATASIZE PUSH1 0x1F NOT PUSH1 0x1F DUP3 ADD AND DUP3 ADD DUP1 PUSH1 0x40 MSTORE POP DUP2 ADD SWAP1 PUSH2 0xD67 SWAP2 SWAP1 PUSH2 0x12DF JUMP JUMPDEST SWAP1 POP DUP1 ISZERO PUSH2 0xE14 JUMPI PUSH2 0xD7A DUP8 DUP5 DUP4 PUSH2 0xE40 JUMP JUMPDEST PUSH1 0x40 MLOAD PUSH4 0xCEFFB59 PUSH1 0xE3 SHL DUP2 MSTORE PUSH1 0x1 PUSH1 0x1 PUSH1 0xA0 SHL SUB DUP11 DUP2 AND PUSH1 0x4 DUP4 ADD MSTORE DUP9 DUP2 AND PUSH1 0x24 DUP4 ADD MSTORE DUP10 DUP2 AND PUSH1 0x44 DUP4 ADD MSTORE PUSH1 0x0 PUSH1 0x64 DUP4 ADD MSTORE CALLER PUSH1 0x84 DUP4 ADD MSTORE DUP5 AND SWAP1 PUSH4 0x677FDAC8 SWAP1 PUSH1 0xA4 ADD PUSH1 0x40 DUP1 MLOAD DUP1 DUP4 SUB DUP2 PUSH1 0x0 DUP8 DUP1 EXTCODESIZE ISZERO DUP1 ISZERO PUSH2 0xDD9 JUMPI PUSH1 0x0 DUP1 REVERT JUMPDEST POP GAS CALL ISZERO DUP1 ISZERO PUSH2 0xDED JUMPI RETURNDATASIZE PUSH1 0x0 DUP1 RETURNDATACOPY RETURNDATASIZE PUSH1 0x0 REVERT JUMPDEST POP POP POP POP PUSH1 0x40 MLOAD RETURNDATASIZE PUSH1 0x1F NOT PUSH1 0x1F DUP3 ADD AND DUP3 ADD DUP1 PUSH1 0x40 MSTORE POP DUP2 ADD SWAP1 PUSH2 0xE11 SWAP2 SWAP1 PUSH2 0x1427 JUMP JUMPDEST POP POP JUMPDEST POP POP POP POP POP POP POP POP POP JUMP JUMPDEST PUSH1 0x0 DUP3 PUSH2 0xE2C DUP4 DUP3 PUSH2 0x15F8 JUMP JUMPDEST SWAP2 POP DUP2 GT ISZERO PUSH2 0xE3A JUMPI PUSH1 0x0 DUP1 REVERT JUMPDEST SWAP3 SWAP2 POP POP JUMP JUMPDEST PUSH1 0x40 DUP1 MLOAD PUSH1 0x1 PUSH1 0x1 PUSH1 0xA0 SHL SUB DUP5 DUP2 AND PUSH1 0x24 DUP4 ADD MSTORE PUSH1 0x44 DUP1 DUP4 ADD DUP6 SWAP1 MSTORE DUP4 MLOAD DUP1 DUP5 SUB SWAP1 SWAP2 ADD DUP2 MSTORE PUSH1 0x64 SWAP1 SWAP3 ADD DUP4 MSTORE PUSH1 0x20 DUP3 ADD DUP1 MLOAD PUSH1 0x1 PUSH1 0x1 PUSH1 0xE0 SHL SUB AND PUSH4 0xA9059CBB PUSH1 0xE0 SHL OR SWAP1 MSTORE SWAP2 MLOAD PUSH1 0x0 SWAP3 DUP4 SWAP3 SWAP1 DUP8 AND SWAP2 PUSH2 0xE9C SWAP2 SWAP1 PUSH2 0x1483 JUMP JUMPDEST PUSH1 0x0 PUSH1 0x40 MLOAD DUP1 DUP4 SUB DUP2 PUSH1 0x0 DUP7 GAS CALL SWAP2 POP POP RETURNDATASIZE DUP1 PUSH1 0x0 DUP2 EQ PUSH2 0xED9 JUMPI PUSH1 0x40 MLOAD SWAP2 POP PUSH1 0x1F NOT PUSH1 0x3F RETURNDATASIZE ADD AND DUP3 ADD PUSH1 0x40 MSTORE RETURNDATASIZE DUP3 MSTORE RETURNDATASIZE PUSH1 0x0 PUSH1 0x20 DUP5 ADD RETURNDATACOPY PUSH2 0xEDE JUMP JUMPDEST PUSH1 0x60 SWAP2 POP JUMPDEST POP SWAP2 POP SWAP2 POP DUP2 DUP1 ISZERO PUSH2 0xF08 JUMPI POP DUP1 MLOAD ISZERO DUP1 PUSH2 0xF08 JUMPI POP DUP1 DUP1 PUSH1 0x20 ADD SWAP1 MLOAD DUP2 ADD SWAP1 PUSH2 0xF08 SWAP2 SWAP1 PUSH2 0x12C4 JUMP JUMPDEST PUSH2 0xF6A JUMPI PUSH1 0x40 MLOAD PUSH3 0x461BCD PUSH1 0xE5 SHL DUP2 MSTORE PUSH1 0x20 PUSH1 0x4 DUP3 ADD MSTORE PUSH1 0x2D PUSH1 0x24 DUP3 ADD MSTORE PUSH32 0x5472616E7366657248656C7065723A3A736166655472616E736665723A207472 PUSH1 0x44 DUP3 ADD MSTORE PUSH13 0x185B9CD9995C8819985A5B1959 PUSH1 0x9A SHL PUSH1 0x64 DUP3 ADD MSTORE PUSH1 0x84 ADD PUSH2 0x56A JUMP JUMPDEST POP POP POP POP POP JUMP JUMPDEST DUP1 MLOAD PUSH2 0xF7C DUP2 PUSH2 0x169C JUMP JUMPDEST SWAP2 SWAP1 POP JUMP JUMPDEST DUP1 MLOAD DUP1 ISZERO ISZERO DUP2 EQ PUSH2 0xF7C JUMPI PUSH1 0x0 DUP1 REVERT JUMPDEST PUSH1 0x0 DUP1 DUP4 PUSH1 0x1F DUP5 ADD SLT PUSH2 0xFA3 JUMPI PUSH1 0x0 DUP1 REVERT JUMPDEST POP DUP2 CALLDATALOAD PUSH8 0xFFFFFFFFFFFFFFFF DUP2 GT ISZERO PUSH2 0xFBB JUMPI PUSH1 0x0 DUP1 REVERT JUMPDEST PUSH1 0x20 DUP4 ADD SWAP2 POP DUP4 PUSH1 0x20 DUP3 DUP6 ADD ADD GT ISZERO PUSH2 0xFD3 JUMPI PUSH1 0x0 DUP1 REVERT JUMPDEST SWAP3 POP SWAP3 SWAP1 POP JUMP JUMPDEST PUSH1 0x0 PUSH1 0xC0 DUP3 DUP5 SUB SLT ISZERO PUSH2 0xFEC JUMPI PUSH1 0x0 DUP1 REVERT JUMPDEST PUSH1 0x40 MLOAD PUSH1 0xC0 DUP2 ADD DUP2 DUP2 LT PUSH8 0xFFFFFFFFFFFFFFFF DUP3 GT OR ISZERO PUSH2 0x100F JUMPI PUSH2 0x100F PUSH2 0x1686 JUMP JUMPDEST DUP1 PUSH1 0x40 MSTORE POP DUP1 SWAP2 POP DUP3 MLOAD PUSH2 0x1022 DUP2 PUSH2 0x169C JUMP JUMPDEST DUP1 DUP3 MSTORE POP PUSH1 0x20 DUP4 ADD MLOAD PUSH1 0x20 DUP3 ADD MSTORE PUSH1 0x40 DUP4 ADD MLOAD PUSH1 0x40 DUP3 ADD MSTORE PUSH1 0x60 DUP4 ADD MLOAD PUSH1 0x60 DUP3 ADD MSTORE PUSH1 0x80 DUP4 ADD MLOAD PUSH1 0x80 DUP3 ADD MSTORE PUSH1 0xA0 DUP4 ADD MLOAD PUSH1 0xA0 DUP3 ADD MSTORE POP SWAP3 SWAP2 POP POP JUMP JUMPDEST PUSH1 0x0 PUSH1 0x40 DUP3 DUP5 SUB SLT ISZERO PUSH2 0x1071 JUMPI PUSH1 0x0 DUP1 REVERT JUMPDEST PUSH1 0x40 MLOAD PUSH1 0x40 DUP2 ADD DUP2 DUP2 LT PUSH8 0xFFFFFFFFFFFFFFFF DUP3 GT OR ISZERO PUSH2 0x1094 JUMPI PUSH2 0x1094 PUSH2 0x1686 JUMP JUMPDEST DUP1 PUSH1 0x40 MSTORE POP DUP1 SWAP2 POP DUP3 MLOAD PUSH2 0x10A7 DUP2 PUSH2 0x169C JUMP JUMPDEST DUP2 MSTORE PUSH1 0x20 SWAP3 DUP4 ADD MLOAD SWAP3 ADD SWAP2 SWAP1 SWAP2 MSTORE SWAP2 SWAP1 POP JUMP JUMPDEST PUSH1 0x0 PUSH1 0xA0 DUP3 DUP5 SUB SLT ISZERO PUSH2 0x10CC JUMPI PUSH1 0x0 DUP1 REVERT JUMPDEST PUSH1 0x40 MLOAD PUSH1 0xA0 DUP2 ADD DUP2 DUP2 LT PUSH8 0xFFFFFFFFFFFFFFFF DUP3 GT OR ISZERO PUSH2 0x10EF JUMPI PUSH2 0x10EF PUSH2 0x1686 JUMP JUMPDEST PUSH1 0x40 MSTORE SWAP1 POP DUP1 PUSH2 0x10FE DUP4 PUSH2 0xF81 JUMP JUMPDEST DUP2 MSTORE PUSH2 0x110C PUSH1 0x20 DUP5 ADD PUSH2 0xF81 JUMP JUMPDEST PUSH1 0x20 DUP3 ADD MSTORE PUSH2 0x111D PUSH1 0x40 DUP5 ADD PUSH2 0xF81 JUMP JUMPDEST PUSH1 0x40 DUP3 ADD MSTORE PUSH2 0x112E PUSH1 0x60 DUP5 ADD PUSH2 0xF81 JUMP JUMPDEST PUSH1 0x60 DUP3 ADD MSTORE PUSH2 0x113F PUSH1 0x80 DUP5 ADD PUSH2 0xF81 JUMP JUMPDEST PUSH1 0x80 DUP3 ADD MSTORE POP SWAP3 SWAP2 POP POP JUMP JUMPDEST PUSH1 0x0 PUSH1 0x20 DUP3 DUP5 SUB SLT ISZERO PUSH2 0x115D JUMPI PUSH1 0x0 DUP1 REVERT JUMPDEST DUP2 CALLDATALOAD PUSH2 0x1168 DUP2 PUSH2 0x169C JUMP JUMPDEST SWAP4 SWAP3 POP POP POP JUMP JUMPDEST PUSH1 0x0 PUSH1 0x20 DUP3 DUP5 SUB SLT ISZERO PUSH2 0x1181 JUMPI PUSH1 0x0 DUP1 REVERT JUMPDEST DUP2 MLOAD PUSH2 0x1168 DUP2 PUSH2 0x169C JUMP JUMPDEST PUSH1 0x0 DUP1 PUSH1 0x0 DUP1 PUSH1 0x0 DUP1 PUSH1 0xA0 DUP8 DUP10 SUB SLT ISZERO PUSH2 0x11A5 JUMPI PUSH1 0x0 DUP1 REVERT JUMPDEST DUP7 CALLDATALOAD PUSH2 0x11B0 DUP2 PUSH2 0x169C JUMP JUMPDEST SWAP6 POP PUSH1 0x20 DUP8 ADD CALLDATALOAD PUSH2 0x11C0 DUP2 PUSH2 0x169C JUMP JUMPDEST SWAP5 POP PUSH1 0x40 DUP8 ADD CALLDATALOAD PUSH2 0x11D0 DUP2 PUSH2 0x169C JUMP JUMPDEST SWAP4 POP PUSH1 0x60 DUP8 ADD CALLDATALOAD SWAP3 POP PUSH1 0x80 DUP8 ADD CALLDATALOAD PUSH8 0xFFFFFFFFFFFFFFFF DUP2 GT ISZERO PUSH2 0x11F3 JUMPI PUSH1 0x0 DUP1 REVERT JUMPDEST PUSH2 0x11FF DUP10 DUP3 DUP11 ADD PUSH2 0xF91 JUMP JUMPDEST SWAP8 SWAP11 SWAP7 SWAP10 POP SWAP5 SWAP8 POP SWAP3 SWAP6 SWAP4 SWAP5 SWAP3 POP POP POP JUMP JUMPDEST PUSH1 0x0 DUP1 PUSH1 0x40 DUP4 DUP6 SUB SLT ISZERO PUSH2 0x1224 JUMPI PUSH1 0x0 DUP1 REVERT JUMPDEST DUP3 CALLDATALOAD PUSH8 0xFFFFFFFFFFFFFFFF DUP1 DUP3 GT ISZERO PUSH2 0x123C JUMPI PUSH1 0x0 DUP1 REVERT JUMPDEST DUP2 DUP6 ADD SWAP2 POP DUP6 PUSH1 0x1F DUP4 ADD SLT PUSH2 0x1250 JUMPI PUSH1 0x0 DUP1 REVERT JUMPDEST DUP2 CALLDATALOAD PUSH1 0x20 DUP3 DUP3 GT ISZERO PUSH2 0x1264 JUMPI PUSH2 0x1264 PUSH2 0x1686 JUMP JUMPDEST DUP2 PUSH1 0x5 SHL SWAP3 POP PUSH2 0x1275 DUP2 DUP5 ADD PUSH2 0x15C7 JUMP JUMPDEST DUP3 DUP2 MSTORE DUP2 DUP2 ADD SWAP1 DUP6 DUP4 ADD DUP6 DUP8 ADD DUP5 ADD DUP12 LT ISZERO PUSH2 0x1290 JUMPI PUSH1 0x0 DUP1 REVERT JUMPDEST PUSH1 0x0 SWAP7 POP JUMPDEST DUP5 DUP8 LT ISZERO PUSH2 0x12B3 JUMPI DUP1 CALLDATALOAD DUP4 MSTORE PUSH1 0x1 SWAP7 SWAP1 SWAP7 ADD SWAP6 SWAP2 DUP4 ADD SWAP2 DUP4 ADD PUSH2 0x1295 JUMP JUMPDEST POP SWAP10 SWAP8 SWAP1 SWAP2 ADD CALLDATALOAD SWAP8 POP POP POP POP POP POP POP JUMP JUMPDEST PUSH1 0x0 PUSH1 0x20 DUP3 DUP5 SUB SLT ISZERO PUSH2 0x12D6 JUMPI PUSH1 0x0 DUP1 REVERT JUMPDEST PUSH2 0x1168 DUP3 PUSH2 0xF81 JUMP JUMPDEST PUSH1 0x0 PUSH1 0x20 DUP3 DUP5 SUB SLT ISZERO PUSH2 0x12F1 JUMPI PUSH1 0x0 DUP1 REVERT JUMPDEST POP MLOAD SWAP2 SWAP1 POP JUMP JUMPDEST PUSH1 0x0 DUP1 PUSH1 0x20 DUP4 DUP6 SUB SLT ISZERO PUSH2 0x130B JUMPI PUSH1 0x0 DUP1 REVERT JUMPDEST DUP3 CALLDATALOAD PUSH8 0xFFFFFFFFFFFFFFFF DUP2 GT ISZERO PUSH2 0x1322 JUMPI PUSH1 0x0 DUP1 REVERT JUMPDEST PUSH2 0x132E DUP6 DUP3 DUP7 ADD PUSH2 0xF91 JUMP JUMPDEST SWAP1 SWAP7 SWAP1 SWAP6 POP SWAP4 POP POP POP POP JUMP JUMPDEST PUSH1 0x0 PUSH2 0x360 DUP3 DUP5 SUB SLT ISZERO PUSH2 0x134D JUMPI PUSH1 0x0 DUP1 REVERT JUMPDEST PUSH2 0x1355 PUSH2 0x159D JUMP JUMPDEST DUP3 MLOAD DUP2 MSTORE PUSH2 0x1365 PUSH1 0x20 DUP5 ADD PUSH2 0xF71 JUMP JUMPDEST PUSH1 0x20 DUP3 ADD MSTORE PUSH2 0x1376 PUSH1 0x40 DUP5 ADD PUSH2 0xF71 JUMP JUMPDEST PUSH1 0x40 DUP3 ADD MSTORE PUSH2 0x1388 DUP5 PUSH1 0x60 DUP6 ADD PUSH2 0xFDA JUMP JUMPDEST PUSH1 0x60 DUP3 ADD MSTORE PUSH2 0x120 PUSH2 0x139C DUP6 DUP3 DUP7 ADD PUSH2 0x105F JUMP JUMPDEST PUSH1 0x80 DUP4 ADD MSTORE PUSH2 0x160 PUSH2 0x13B0 DUP7 DUP3 DUP8 ADD PUSH2 0xFDA JUMP JUMPDEST PUSH1 0xA0 DUP5 ADD MSTORE PUSH2 0x220 DUP6 ADD MLOAD PUSH1 0xC0 DUP5 ADD MSTORE PUSH2 0x240 DUP6 ADD MLOAD PUSH1 0xE0 DUP5 ADD MSTORE PUSH2 0x260 DUP6 ADD MLOAD PUSH2 0x100 DUP5 ADD MSTORE PUSH2 0x280 DUP6 ADD MLOAD DUP3 DUP5 ADD MSTORE PUSH2 0x13EF DUP7 PUSH2 0x2A0 DUP8 ADD PUSH2 0x10BA JUMP JUMPDEST PUSH2 0x140 DUP5 ADD MSTORE PUSH2 0x1402 PUSH2 0x340 DUP7 ADD PUSH2 0xF71 JUMP JUMPDEST SWAP1 DUP4 ADD MSTORE POP SWAP4 SWAP3 POP POP POP JUMP JUMPDEST PUSH1 0x0 PUSH1 0x20 DUP3 DUP5 SUB SLT ISZERO PUSH2 0x1420 JUMPI PUSH1 0x0 DUP1 REVERT JUMPDEST POP CALLDATALOAD SWAP2 SWAP1 POP JUMP JUMPDEST PUSH1 0x0 DUP1 PUSH1 0x40 DUP4 DUP6 SUB SLT ISZERO PUSH2 0x143A JUMPI PUSH1 0x0 DUP1 REVERT JUMPDEST DUP3 MLOAD SWAP2 POP PUSH1 0x20 DUP4 ADD MLOAD PUSH2 0x144C DUP2 PUSH2 0x169C JUMP JUMPDEST DUP1 SWAP2 POP POP SWAP3 POP SWAP3 SWAP1 POP JUMP JUMPDEST PUSH1 0x0 DUP2 MLOAD DUP1 DUP5 MSTORE PUSH2 0x146F DUP2 PUSH1 0x20 DUP7 ADD PUSH1 0x20 DUP7 ADD PUSH2 0x160F JUMP JUMPDEST PUSH1 0x1F ADD PUSH1 0x1F NOT AND SWAP3 SWAP1 SWAP3 ADD PUSH1 0x20 ADD SWAP3 SWAP2 POP POP JUMP JUMPDEST PUSH1 0x0 DUP3 MLOAD PUSH2 0x1495 DUP2 DUP5 PUSH1 0x20 DUP8 ADD PUSH2 0x160F JUMP JUMPDEST SWAP2 SWAP1 SWAP2 ADD SWAP3 SWAP2 POP POP JUMP JUMPDEST PUSH1 0x40 DUP1 DUP3 MSTORE DUP4 MLOAD SWAP1 DUP3 ADD DUP2 SWAP1 MSTORE PUSH1 0x0 SWAP1 PUSH1 0x20 SWAP1 PUSH1 0x60 DUP5 ADD SWAP1 DUP3 DUP8 ADD DUP5 JUMPDEST DUP3 DUP2 LT ISZERO PUSH2 0x14D8 JUMPI DUP2 MLOAD DUP5 MSTORE SWAP3 DUP5 ADD SWAP3 SWAP1 DUP5 ADD SWAP1 PUSH1 0x1 ADD PUSH2 0x14BC JUMP JUMPDEST POP POP POP SWAP3 ADD SWAP3 SWAP1 SWAP3 MSTORE SWAP3 SWAP2 POP POP JUMP JUMPDEST DUP3 ISZERO ISZERO DUP2 MSTORE PUSH1 0x40 PUSH1 0x20 DUP3 ADD MSTORE PUSH1 0x0 PUSH2 0x1502 PUSH1 0x40 DUP4 ADD DUP5 PUSH2 0x1457 JUMP JUMPDEST SWAP5 SWAP4 POP POP POP POP JUMP JUMPDEST PUSH1 0x20 DUP2 MSTORE DUP2 MLOAD PUSH1 0x20 DUP3 ADD MSTORE PUSH1 0x0 PUSH1 0x20 DUP4 ADD MLOAD PUSH1 0x60 PUSH1 0x40 DUP5 ADD MSTORE PUSH2 0x1530 PUSH1 0x80 DUP5 ADD DUP3 PUSH2 0x1457 JUMP JUMPDEST SWAP1 POP PUSH1 0x40 DUP5 ADD MLOAD PUSH1 0x1F NOT DUP5 DUP4 SUB ADD PUSH1 0x60 DUP6 ADD MSTORE PUSH2 0x154D DUP3 DUP3 PUSH2 0x1457 JUMP JUMPDEST SWAP6 SWAP5 POP POP POP POP POP JUMP JUMPDEST DUP6 DUP2 MSTORE PUSH1 0x80 PUSH1 0x20 DUP3 ADD MSTORE DUP4 PUSH1 0x80 DUP3 ADD MSTORE DUP4 DUP6 PUSH1 0xA0 DUP4 ADD CALLDATACOPY PUSH1 0x0 PUSH1 0xA0 DUP6 DUP4 ADD ADD MSTORE PUSH1 0x0 PUSH1 0xA0 PUSH1 0x1F NOT PUSH1 0x1F DUP8 ADD AND DUP4 ADD ADD SWAP1 POP DUP4 PUSH1 0x40 DUP4 ADD MSTORE DUP3 PUSH1 0x60 DUP4 ADD MSTORE SWAP7 SWAP6 POP POP POP POP POP POP JUMP JUMPDEST PUSH1 0x40 MLOAD PUSH2 0x180 DUP2 ADD PUSH8 0xFFFFFFFFFFFFFFFF DUP2 GT DUP3 DUP3 LT OR ISZERO PUSH2 0x15C1 JUMPI PUSH2 0x15C1 PUSH2 0x1686 JUMP JUMPDEST PUSH1 0x40 MSTORE SWAP1 JUMP JUMPDEST PUSH1 0x40 MLOAD PUSH1 0x1F DUP3 ADD PUSH1 0x1F NOT AND DUP2 ADD PUSH8 0xFFFFFFFFFFFFFFFF DUP2 GT DUP3 DUP3 LT OR ISZERO PUSH2 0x15F0 JUMPI PUSH2 0x15F0 PUSH2 0x1686 JUMP JUMPDEST PUSH1 0x40 MSTORE SWAP2 SWAP1 POP JUMP JUMPDEST PUSH1 0x0 DUP3 DUP3 LT ISZERO PUSH2 0x160A JUMPI PUSH2 0x160A PUSH2 0x165A JUMP JUMPDEST POP SUB SWAP1 JUMP JUMPDEST PUSH1 0x0 JUMPDEST DUP4 DUP2 LT ISZERO PUSH2 0x162A JUMPI DUP2 DUP2 ADD MLOAD DUP4 DUP3 ADD MSTORE PUSH1 0x20 ADD PUSH2 0x1612 JUMP JUMPDEST DUP4 DUP2 GT ISZERO PUSH2 0x1639 JUMPI PUSH1 0x0 DUP5 DUP5 ADD MSTORE JUMPDEST POP POP POP POP JUMP JUMPDEST PUSH1 0x0 PUSH1 0x0 NOT DUP3 EQ ISZERO PUSH2 0x1653 JUMPI PUSH2 0x1653 PUSH2 0x165A JUMP JUMPDEST POP PUSH1 0x1 ADD SWAP1 JUMP JUMPDEST PUSH4 0x4E487B71 PUSH1 0xE0 SHL PUSH1 0x0 MSTORE PUSH1 0x11 PUSH1 0x4 MSTORE PUSH1 0x24 PUSH1 0x0 REVERT JUMPDEST PUSH4 0x4E487B71 PUSH1 0xE0 SHL PUSH1 0x0 MSTORE PUSH1 0x32 PUSH1 0x4 MSTORE PUSH1 0x24 PUSH1 0x0 REVERT JUMPDEST PUSH4 0x4E487B71 PUSH1 0xE0 SHL PUSH1 0x0 MSTORE PUSH1 0x41 PUSH1 0x4 MSTORE PUSH1 0x24 PUSH1 0x0 REVERT JUMPDEST PUSH1 0x1 PUSH1 0x1 PUSH1 0xA0 SHL SUB DUP2 AND DUP2 EQ PUSH2 0x16B1 JUMPI PUSH1 0x0 DUP1 REVERT JUMPDEST POP JUMP INVALID LOG2 PUSH5 0x6970667358 0x22 SLT KECCAK256 0x2A CALLDATALOAD 0xE6 0xE3 PUSH15 0x778AD34AFC2882D70FD46EDB117487 0xD 0x49 PUSH23 0xBEE4FA7DF06C61290864736F6C63430008070033000000 "},"gasEstimates":{"creation":{"codeDepositCost":"1173200","executionCost":"infinite","totalCost":"infinite"},"external":{"batchSize()":"2372","checkUpkeep(bytes)":"infinite","closeCallback(address,address,address,uint256,bytes)":"infinite","factory()":"2359","keeper()":"2426","manager()":"2405","monitorSize()":"2329","performUpkeep(bytes)":"infinite","setBatchSize(uint256)":"27679","setFactory(address)":"27815","setKeeper(address)":"27793","setManager(address)":"27814","setMonitorSize(uint256)":"27734","setStartIndex(uint256)":"25608","startIndex()":"2308"}},"methodIdentifiers":{"batchSize()":"f4daaba1","checkUpkeep(bytes)":"6e04ff0d","closeCallback(address,address,address,uint256,bytes)":"de07be8d","factory()":"c45a0155","keeper()":"aced1661","manager()":"481c6a75","monitorSize()":"860965c6","performUpkeep(bytes)":"4585e33b","setBatchSize(uint256)":"576f35e3","setFactory(address)":"5bb47808","setKeeper(address)":"748747e6","setManager(address)":"d0ebdbe7","setMonitorSize(uint256)":"9bb0dafa","setStartIndex(uint256)":"5ff7d9d5","startIndex()":"3e0e828b"}},"storageLayout":{"storage":[{"astId":741,"contract":"contracts/Monitor.sol:Monitor","label":"manager","offset":0,"slot":"0","type":"t_address"},{"astId":743,"contract":"contracts/Monitor.sol:Monitor","label":"keeper","offset":0,"slot":"1","type":"t_address"},{"astId":745,"contract":"contracts/Monitor.sol:Monitor","label":"factory","offset":0,"slot":"2","type":"t_address"},{"astId":747,"contract":"contracts/Monitor.sol:Monitor","label":"batchSize","offset":0,"slot":"3","type":"t_uint256"},{"astId":749,"contract":"contracts/Monitor.sol:Monitor","label":"monitorSize","offset":0,"slot":"4","type":"t_uint256"},{"astId":751,"contract":"contracts/Monitor.sol:Monitor","label":"startIndex","offset":0,"slot":"5","type":"t_uint256"}],"types":{"t_address":{"encoding":"inplace","label":"address","numberOfBytes":"20"},"t_uint256":{"encoding":"inplace","label":"uint256","numberOfBytes":"32"}}},"userdoc":{"kind":"user","methods":{},"version":1}}}}