{
  "_format": "hh-sol-artifact-1",
  "contractName": "UserStorage",
  "sourceName": "contracts/UserStorage.sol",
  "abi": [
    {
      "inputs": [],
      "stateMutability": "nonpayable",
      "type": "constructor"
    },
    {
      "inputs": [
        {
          "internalType": "uint256",
          "name": "length0",
          "type": "uint256"
        },
        {
          "internalType": "uint256",
          "name": "length1",
          "type": "uint256"
        }
      ],
      "name": "BadLengths",
      "type": "error"
    },
    {
      "inputs": [
        {
          "internalType": "address",
          "name": "sender",
          "type": "address"
        }
      ],
      "name": "Forbidden",
      "type": "error"
    },
    {
      "anonymous": false,
      "inputs": [
        {
          "indexed": false,
          "internalType": "address",
          "name": "manager",
          "type": "address"
        }
      ],
      "name": "SetManager",
      "type": "event"
    },
    {
      "anonymous": false,
      "inputs": [
        {
          "indexed": false,
          "internalType": "address",
          "name": "user",
          "type": "address"
        },
        {
          "indexed": false,
          "internalType": "bool",
          "name": "isOperator",
          "type": "bool"
        }
      ],
      "name": "SetOperator",
      "type": "event"
    },
    {
      "anonymous": false,
      "inputs": [
        {
          "indexed": true,
          "internalType": "address",
          "name": "user",
          "type": "address"
        },
        {
          "indexed": false,
          "internalType": "uint256",
          "name": "membershipLevel",
          "type": "uint256"
        }
      ],
      "name": "UpdateMembership",
      "type": "event"
    },
    {
      "anonymous": false,
      "inputs": [
        {
          "indexed": true,
          "internalType": "address",
          "name": "user",
          "type": "address"
        },
        {
          "indexed": true,
          "internalType": "address",
          "name": "ref",
          "type": "address"
        }
      ],
      "name": "UpdateRef",
      "type": "event"
    },
    {
      "inputs": [
        {
          "internalType": "address",
          "name": "_user",
          "type": "address"
        }
      ],
      "name": "canUpdateDeadline",
      "outputs": [
        {
          "internalType": "bool",
          "name": "",
          "type": "bool"
        }
      ],
      "stateMutability": "view",
      "type": "function"
    },
    {
      "inputs": [
        {
          "internalType": "address",
          "name": "_user",
          "type": "address"
        },
        {
          "internalType": "uint256",
          "name": "_fee",
          "type": "uint256"
        }
      ],
      "name": "discountedFee",
      "outputs": [
        {
          "internalType": "uint256",
          "name": "",
          "type": "uint256"
        }
      ],
      "stateMutability": "view",
      "type": "function"
    },
    {
      "inputs": [
        {
          "internalType": "address",
          "name": "_user",
          "type": "address"
        }
      ],
      "name": "getUserInfo",
      "outputs": [
        {
          "components": [
            {
              "internalType": "address",
              "name": "id",
              "type": "address"
            },
            {
              "internalType": "address",
              "name": "ref",
              "type": "address"
            },
            {
              "internalType": "uint256",
              "name": "membershipLevel",
              "type": "uint256"
            }
          ],
          "internalType": "struct IUserStorage.User",
          "name": "",
          "type": "tuple"
        }
      ],
      "stateMutability": "view",
      "type": "function"
    },
    {
      "inputs": [],
      "name": "manager",
      "outputs": [
        {
          "internalType": "address",
          "name": "",
          "type": "address"
        }
      ],
      "stateMutability": "view",
      "type": "function"
    },
    {
      "inputs": [
        {
          "internalType": "address",
          "name": "",
          "type": "address"
        }
      ],
      "name": "operator",
      "outputs": [
        {
          "internalType": "bool",
          "name": "",
          "type": "bool"
        }
      ],
      "stateMutability": "view",
      "type": "function"
    },
    {
      "inputs": [
        {
          "internalType": "address",
          "name": "_manager",
          "type": "address"
        }
      ],
      "name": "setManager",
      "outputs": [],
      "stateMutability": "nonpayable",
      "type": "function"
    },
    {
      "inputs": [
        {
          "internalType": "address[]",
          "name": "_users",
          "type": "address[]"
        },
        {
          "internalType": "bool[]",
          "name": "_isOperators",
          "type": "bool[]"
        }
      ],
      "name": "setOperators",
      "outputs": [],
      "stateMutability": "nonpayable",
      "type": "function"
    },
    {
      "inputs": [
        {
          "internalType": "address",
          "name": "_user",
          "type": "address"
        },
        {
          "internalType": "uint256",
          "name": "_membershipLevel",
          "type": "uint256"
        }
      ],
      "name": "updateMembership",
      "outputs": [],
      "stateMutability": "nonpayable",
      "type": "function"
    },
    {
      "inputs": [
        {
          "internalType": "address",
          "name": "_user",
          "type": "address"
        },
        {
          "internalType": "address",
          "name": "_ref",
          "type": "address"
        }
      ],
      "name": "updateRef",
      "outputs": [],
      "stateMutability": "nonpayable",
      "type": "function"
    }
  ],
  "bytecode": "0x608060405234801561001057600080fd5b50600080546001600160a01b03191633179055610984806100326000396000f3fe608060405234801561001057600080fd5b50600436106100935760003560e01c80636386c1c7116100665780636386c1c7146101625780637e2421fb146101fa5780639a3073911461020d578063d0ebdbe714610230578063f43050351461024357600080fd5b8063172c717b146100985780632701cc51146100be5780634471097e146100d3578063481c6a7514610137575b600080fd5b6100ab6100a636600461073b565b610256565b6040519081526020015b60405180910390f35b6100d16100cc366004610708565b6102da565b005b6101276100e13660046106e6565b6001600160a01b03908116600090815260026020818152604092839020835160608101855281548616815260018201549095169185019190915201549101819052151590565b60405190151581526020016100b5565b60005461014a906001600160a01b031681565b6040516001600160a01b0390911681526020016100b5565b6101ca6101703660046106e6565b6040805160608082018352600080835260208084018290529284018190526001600160a01b039485168152600280845290849020845192830185528054861683526001810154909516928201929092529201549082015290565b6040805182516001600160a01b0390811682526020808501519091169082015291810151908201526060016100b5565b6100d161020836600461073b565b6103a1565b61012761021b3660046106e6565b60016020526000908152604090205460ff1681565b6100d161023e3660046106e6565b610459565b6100d1610251366004610765565b6104da565b6001600160a01b038083166000908152600260208181526040808420815160608101835281548716815260018201549096169286019290925291015490830181905290919060049083906102ab908390610881565b60408401516102ba90876108bb565b6102c49190610899565b90506102d081866108da565b9695505050505050565b3360009081526001602052604090205460ff166103115760405163a59d7f4d60e01b81523360048201526024015b60405180910390fd5b6001600160a01b038083166000908152600260205260409020805490911661034d5780546001600160a01b0319166001600160a01b0384161781555b6001810180546001600160a01b0319166001600160a01b0384811691821790925560405190918516907f4372db54601a63392e2c6ed06fc43b3c669a66bb660a76b4880fa85664062c7d90600090a3505050565b3360009081526001602052604090205460ff166103d35760405163a59d7f4d60e01b8152336004820152602401610308565b6001600160a01b038083166000908152600260205260409020805490911661040f5780546001600160a01b0319166001600160a01b0384161781555b600281018290556040518281526001600160a01b038416907f11c575aa2d335370607bcb4a86185e19697ffd961d6e35f067b3091962948bdd9060200160405180910390a2505050565b6000546001600160a01b031633146104865760405163a59d7f4d60e01b8152336004820152602401610308565b600080546001600160a01b0319166001600160a01b0383169081179091556040519081527f54a6385aa0292b04e1ef8513253c17d1863f7cdfc87029d77fd55cc4c2e717e29060200160405180910390a150565b6000546001600160a01b031633146105075760405163a59d7f4d60e01b8152336004820152602401610308565b8051825114610536578151815160405163574092f960e01b815260048101929092526024820152604401610308565b60005b82518110156106445781818151811061055457610554610922565b60200260200101516001600085848151811061057257610572610922565b60200260200101516001600160a01b03166001600160a01b0316815260200190815260200160002060006101000a81548160ff0219169083151502179055507f1618a22a3b00b9ac70fd5a82f1f5cdd8cb272bd0f1b740ddf7c26ab05881dd5b8382815181106105e4576105e4610922565b60200260200101518383815181106105fe576105fe610922565b602002602001015160405161062a9291906001600160a01b039290921682521515602082015260400190565b60405180910390a18061063c816108f1565b915050610539565b505050565b80356001600160a01b038116811461066057600080fd5b919050565b600082601f83011261067657600080fd5b8135602061068b6106868361085d565b61082c565b80838252828201915082860187848660051b89010111156106ab57600080fd5b6000805b868110156106d857823580151581146106c6578283fd5b855293850193918501916001016106af565b509198975050505050505050565b6000602082840312156106f857600080fd5b61070182610649565b9392505050565b6000806040838503121561071b57600080fd5b61072483610649565b915061073260208401610649565b90509250929050565b6000806040838503121561074e57600080fd5b61075783610649565b946020939093013593505050565b6000806040838503121561077857600080fd5b823567ffffffffffffffff8082111561079057600080fd5b818501915085601f8301126107a457600080fd5b813560206107b46106868361085d565b8083825282820191508286018a848660051b89010111156107d457600080fd5b600096505b848710156107fe576107ea81610649565b8352600196909601959183019183016107d9565b509650508601359250508082111561081557600080fd5b5061082285828601610665565b9150509250929050565b604051601f8201601f1916810167ffffffffffffffff8111828210171561085557610855610938565b604052919050565b600067ffffffffffffffff82111561087757610877610938565b5060051b60200190565b600082198211156108945761089461090c565b500190565b6000826108b657634e487b7160e01b600052601260045260246000fd5b500490565b60008160001904831182151516156108d5576108d561090c565b500290565b6000828210156108ec576108ec61090c565b500390565b60006000198214156109055761090561090c565b5060010190565b634e487b7160e01b600052601160045260246000fd5b634e487b7160e01b600052603260045260246000fd5b634e487b7160e01b600052604160045260246000fdfea26469706673582212202de9df8e0ad54806ac7f8d77adca93ef8a675d099bb8e11252297f5e98d1333664736f6c63430008070033",
  "linkReferences": {},
  "deployedLinkReferences": {}
}