{
  "_format": "hh-sol-artifact-1",
  "contractName": "UserStorage",
  "sourceName": "contracts/UserStorage.sol",
  "abi": [
    {
      "inputs": [],
      "stateMutability": "nonpayable",
      "type": "constructor"
    },
    {
      "inputs": [
        {
          "internalType": "uint256",
          "name": "length0",
          "type": "uint256"
        },
        {
          "internalType": "uint256",
          "name": "length1",
          "type": "uint256"
        }
      ],
      "name": "BadLengths",
      "type": "error"
    },
    {
      "inputs": [
        {
          "internalType": "address",
          "name": "sender",
          "type": "address"
        }
      ],
      "name": "Forbidden",
      "type": "error"
    },
    {
      "anonymous": false,
      "inputs": [
        {
          "indexed": false,
          "internalType": "address",
          "name": "manager",
          "type": "address"
        }
      ],
      "name": "SetManager",
      "type": "event"
    },
    {
      "anonymous": false,
      "inputs": [
        {
          "indexed": false,
          "internalType": "address",
          "name": "user",
          "type": "address"
        },
        {
          "indexed": false,
          "internalType": "bool",
          "name": "isOperator",
          "type": "bool"
        }
      ],
      "name": "SetOperator",
      "type": "event"
    },
    {
      "anonymous": false,
      "inputs": [
        {
          "indexed": true,
          "internalType": "address",
          "name": "user",
          "type": "address"
        },
        {
          "indexed": false,
          "internalType": "uint256",
          "name": "membershipLevel",
          "type": "uint256"
        }
      ],
      "name": "UpdateMembership",
      "type": "event"
    },
    {
      "anonymous": false,
      "inputs": [
        {
          "indexed": true,
          "internalType": "address",
          "name": "user",
          "type": "address"
        },
        {
          "indexed": true,
          "internalType": "address",
          "name": "ref",
          "type": "address"
        }
      ],
      "name": "UpdateRef",
      "type": "event"
    },
    {
      "inputs": [
        {
          "internalType": "address",
          "name": "_user",
          "type": "address"
        }
      ],
      "name": "canUpdateDeadline",
      "outputs": [
        {
          "internalType": "bool",
          "name": "",
          "type": "bool"
        }
      ],
      "stateMutability": "view",
      "type": "function"
    },
    {
      "inputs": [
        {
          "internalType": "address",
          "name": "_user",
          "type": "address"
        },
        {
          "internalType": "uint256",
          "name": "_fee",
          "type": "uint256"
        }
      ],
      "name": "discountedFee",
      "outputs": [
        {
          "internalType": "uint256",
          "name": "",
          "type": "uint256"
        }
      ],
      "stateMutability": "view",
      "type": "function"
    },
    {
      "inputs": [
        {
          "internalType": "address",
          "name": "_user",
          "type": "address"
        }
      ],
      "name": "getUserInfo",
      "outputs": [
        {
          "components": [
            {
              "internalType": "address",
              "name": "id",
              "type": "address"
            },
            {
              "internalType": "address",
              "name": "ref",
              "type": "address"
            },
            {
              "internalType": "uint256",
              "name": "membershipLevel",
              "type": "uint256"
            }
          ],
          "internalType": "struct IUserStorage.User",
          "name": "",
          "type": "tuple"
        }
      ],
      "stateMutability": "view",
      "type": "function"
    },
    {
      "inputs": [],
      "name": "manager",
      "outputs": [
        {
          "internalType": "address",
          "name": "",
          "type": "address"
        }
      ],
      "stateMutability": "view",
      "type": "function"
    },
    {
      "inputs": [
        {
          "internalType": "address",
          "name": "",
          "type": "address"
        }
      ],
      "name": "operator",
      "outputs": [
        {
          "internalType": "bool",
          "name": "",
          "type": "bool"
        }
      ],
      "stateMutability": "view",
      "type": "function"
    },
    {
      "inputs": [
        {
          "internalType": "address",
          "name": "_manager",
          "type": "address"
        }
      ],
      "name": "setManager",
      "outputs": [],
      "stateMutability": "nonpayable",
      "type": "function"
    },
    {
      "inputs": [
        {
          "internalType": "address[]",
          "name": "_users",
          "type": "address[]"
        },
        {
          "internalType": "bool[]",
          "name": "_isOperators",
          "type": "bool[]"
        }
      ],
      "name": "setOperators",
      "outputs": [],
      "stateMutability": "nonpayable",
      "type": "function"
    },
    {
      "inputs": [
        {
          "internalType": "address",
          "name": "_user",
          "type": "address"
        },
        {
          "internalType": "uint256",
          "name": "_membershipLevel",
          "type": "uint256"
        }
      ],
      "name": "updateMembership",
      "outputs": [],
      "stateMutability": "nonpayable",
      "type": "function"
    },
    {
      "inputs": [
        {
          "internalType": "address",
          "name": "_user",
          "type": "address"
        },
        {
          "internalType": "address",
          "name": "_ref",
          "type": "address"
        }
      ],
      "name": "updateRef",
      "outputs": [],
      "stateMutability": "nonpayable",
      "type": "function"
    }
  ],
  "bytecode": "0x608060405234801561001057600080fd5b50600080546001600160a01b03191633179055610944806100326000396000f3fe608060405234801561001057600080fd5b50600436106100935760003560e01c80636386c1c7116100665780636386c1c7146101225780637e2421fb146101ba5780639a307391146101cd578063d0ebdbe7146101f0578063f43050351461020357600080fd5b8063172c717b146100985780632701cc51146100be5780634471097e146100d3578063481c6a75146100f7575b600080fd5b6100ab6100a63660046106fb565b610216565b6040519081526020015b60405180910390f35b6100d16100cc3660046106c8565b61029a565b005b6100e76100e13660046106a6565b50600190565b60405190151581526020016100b5565b60005461010a906001600160a01b031681565b6040516001600160a01b0390911681526020016100b5565b61018a6101303660046106a6565b6040805160608082018352600080835260208084018290529284018190526001600160a01b039485168152600280845290849020845192830185528054861683526001810154909516928201929092529201549082015290565b6040805182516001600160a01b0390811682526020808501519091169082015291810151908201526060016100b5565b6100d16101c83660046106fb565b610361565b6100e76101db3660046106a6565b60016020526000908152604090205460ff1681565b6100d16101fe3660046106a6565b610419565b6100d1610211366004610725565b61049a565b6001600160a01b0380831660009081526002602081815260408084208151606081018352815487168152600182015490961692860192909252910154908301819052909190600490839061026b908390610841565b604084015161027a908761087b565b6102849190610859565b9050610290818661089a565b9695505050505050565b3360009081526001602052604090205460ff166102d15760405163a59d7f4d60e01b81523360048201526024015b60405180910390fd5b6001600160a01b038083166000908152600260205260409020805490911661030d5780546001600160a01b0319166001600160a01b0384161781555b6001810180546001600160a01b0319166001600160a01b0384811691821790925560405190918516907f4372db54601a63392e2c6ed06fc43b3c669a66bb660a76b4880fa85664062c7d90600090a3505050565b3360009081526001602052604090205460ff166103935760405163a59d7f4d60e01b81523360048201526024016102c8565b6001600160a01b03808316600090815260026020526040902080549091166103cf5780546001600160a01b0319166001600160a01b0384161781555b600281018290556040518281526001600160a01b038416907f11c575aa2d335370607bcb4a86185e19697ffd961d6e35f067b3091962948bdd9060200160405180910390a2505050565b6000546001600160a01b031633146104465760405163a59d7f4d60e01b81523360048201526024016102c8565b600080546001600160a01b0319166001600160a01b0383169081179091556040519081527f54a6385aa0292b04e1ef8513253c17d1863f7cdfc87029d77fd55cc4c2e717e29060200160405180910390a150565b6000546001600160a01b031633146104c75760405163a59d7f4d60e01b81523360048201526024016102c8565b80518251146104f6578151815160405163574092f960e01b8152600481019290925260248201526044016102c8565b60005b825181101561060457818181518110610514576105146108e2565b602002602001015160016000858481518110610532576105326108e2565b60200260200101516001600160a01b03166001600160a01b0316815260200190815260200160002060006101000a81548160ff0219169083151502179055507f1618a22a3b00b9ac70fd5a82f1f5cdd8cb272bd0f1b740ddf7c26ab05881dd5b8382815181106105a4576105a46108e2565b60200260200101518383815181106105be576105be6108e2565b60200260200101516040516105ea9291906001600160a01b039290921682521515602082015260400190565b60405180910390a1806105fc816108b1565b9150506104f9565b505050565b80356001600160a01b038116811461062057600080fd5b919050565b600082601f83011261063657600080fd5b8135602061064b6106468361081d565b6107ec565b80838252828201915082860187848660051b890101111561066b57600080fd5b6000805b868110156106985782358015158114610686578283fd5b8552938501939185019160010161066f565b509198975050505050505050565b6000602082840312156106b857600080fd5b6106c182610609565b9392505050565b600080604083850312156106db57600080fd5b6106e483610609565b91506106f260208401610609565b90509250929050565b6000806040838503121561070e57600080fd5b61071783610609565b946020939093013593505050565b6000806040838503121561073857600080fd5b823567ffffffffffffffff8082111561075057600080fd5b818501915085601f83011261076457600080fd5b813560206107746106468361081d565b8083825282820191508286018a848660051b890101111561079457600080fd5b600096505b848710156107be576107aa81610609565b835260019690960195918301918301610799565b50965050860135925050808211156107d557600080fd5b506107e285828601610625565b9150509250929050565b604051601f8201601f1916810167ffffffffffffffff81118282101715610815576108156108f8565b604052919050565b600067ffffffffffffffff821115610837576108376108f8565b5060051b60200190565b60008219821115610854576108546108cc565b500190565b60008261087657634e487b7160e01b600052601260045260246000fd5b500490565b6000816000190483118215151615610895576108956108cc565b500290565b6000828210156108ac576108ac6108cc565b500390565b60006000198214156108c5576108c56108cc565b5060010190565b634e487b7160e01b600052601160045260246000fd5b634e487b7160e01b600052603260045260246000fd5b634e487b7160e01b600052604160045260246000fdfea2646970667358221220500106dad90e5eede29f12442ad08fa055e9d1abfb5758fe14bd087f899ddf3b64736f6c63430008070033",
  "linkReferences": {},
  "deployedLinkReferences": {}
}