{
  "_format": "hh-sol-artifact-1",
  "contractName": "GMXPriceFeedIntegration",
  "sourceName": "contracts/GMXPriceFeedIntegration.sol",
  "abi": [
    {
      "inputs": [
        {
          "internalType": "address",
          "name": "_feed",
          "type": "address"
        }
      ],
      "stateMutability": "nonpayable",
      "type": "constructor"
    },
    {
      "inputs": [],
      "name": "PRECISION",
      "outputs": [
        {
          "internalType": "uint256",
          "name": "",
          "type": "uint256"
        }
      ],
      "stateMutability": "view",
      "type": "function"
    },
    {
      "inputs": [],
      "name": "feed",
      "outputs": [
        {
          "internalType": "address",
          "name": "",
          "type": "address"
        }
      ],
      "stateMutability": "view",
      "type": "function"
    },
    {
      "inputs": [
        {
          "internalType": "address",
          "name": "_baseToken",
          "type": "address"
        },
        {
          "internalType": "address",
          "name": "_quoteToken",
          "type": "address"
        }
      ],
      "name": "getPrice",
      "outputs": [
        {
          "internalType": "uint256",
          "name": "price",
          "type": "uint256"
        }
      ],
      "stateMutability": "view",
      "type": "function"
    }
  ],
  "bytecode": "0x60a060405234801561001057600080fd5b5060405161033138038061033183398101604081905261002f91610044565b60601b6001600160601b031916608052610074565b60006020828403121561005657600080fd5b81516001600160a01b038116811461006d57600080fd5b9392505050565b60805160601c61029961009860003960008181604b015261012a01526102996000f3fe608060405234801561001057600080fd5b50600436106100415760003560e01c806337a7b7d814610046578063aaf5eb681461008a578063ac41865a146100ac575b600080fd5b61006d7f000000000000000000000000000000000000000000000000000000000000000081565b6040516001600160a01b0390911681526020015b60405180910390f35b61009e6c0c9f2c9cd04674edea4000000081565b604051908152602001610081565b61009e6100ba3660046101c8565b6000806100c684610108565b905080156101015760006100d984610108565b9050816100f36c0c9f2c9cd04674edea4000000083610236565b6100fd9190610214565b9250505b5092915050565b60405163cfed246b60e01b81526001600160a01b0382811660048301526000917f00000000000000000000000000000000000000000000000000000000000000009091169063cfed246b9060240160206040518083038186803b15801561016e57600080fd5b505afa158015610182573d6000803e3d6000fd5b505050506040513d601f19601f820116820180604052508101906101a691906101fb565b92915050565b80356001600160a01b03811681146101c357600080fd5b919050565b600080604083850312156101db57600080fd5b6101e4836101ac565b91506101f2602084016101ac565b90509250929050565b60006020828403121561020d57600080fd5b5051919050565b60008261023157634e487b7160e01b600052601260045260246000fd5b500490565b600081600019048311821515161561025e57634e487b7160e01b600052601160045260246000fd5b50029056fea264697066735822122063c4829bd1ea15a6e909975fa7d75c72f9e10da456dbaa3b3ea7a3442231a13964736f6c63430008070033",
  "linkReferences": {},
  "deployedLinkReferences": {}
}