{
  "_format": "hh-sol-artifact-1",
  "contractName": "SyncswapClassicDEXIntegration",
  "sourceName": "contracts/integrations/SyncswapClassicDEXIntegration.sol",
  "abi": [
    {
      "inputs": [
        {
          "internalType": "address",
          "name": "_factory",
          "type": "address"
        }
      ],
      "stateMutability": "nonpayable",
      "type": "constructor"
    },
    {
      "inputs": [],
      "name": "Locked",
      "type": "error"
    },
    {
      "inputs": [],
      "name": "factory",
      "outputs": [
        {
          "internalType": "address",
          "name": "",
          "type": "address"
        }
      ],
      "stateMutability": "view",
      "type": "function"
    },
    {
      "inputs": [
        {
          "internalType": "address",
          "name": "_tokenIn",
          "type": "address"
        },
        {
          "internalType": "address",
          "name": "_tokenOut",
          "type": "address"
        },
        {
          "internalType": "uint256",
          "name": "_amountOut",
          "type": "uint256"
        }
      ],
      "name": "getAmountIn",
      "outputs": [
        {
          "internalType": "uint256",
          "name": "amountIn",
          "type": "uint256"
        }
      ],
      "stateMutability": "view",
      "type": "function"
    },
    {
      "inputs": [
        {
          "internalType": "address",
          "name": "_tokenIn",
          "type": "address"
        },
        {
          "internalType": "address",
          "name": "_tokenOut",
          "type": "address"
        },
        {
          "internalType": "uint256",
          "name": "_amountIn",
          "type": "uint256"
        }
      ],
      "name": "getAmountOut",
      "outputs": [
        {
          "internalType": "uint256",
          "name": "amountOut",
          "type": "uint256"
        }
      ],
      "stateMutability": "view",
      "type": "function"
    },
    {
      "inputs": [
        {
          "internalType": "address",
          "name": "_tokenIn",
          "type": "address"
        },
        {
          "internalType": "address",
          "name": "_tokenOut",
          "type": "address"
        },
        {
          "internalType": "address",
          "name": "_to",
          "type": "address"
        }
      ],
      "name": "swap",
      "outputs": [
        {
          "internalType": "uint256",
          "name": "amountOut",
          "type": "uint256"
        }
      ],
      "stateMutability": "nonpayable",
      "type": "function"
    },
    {
      "inputs": [
        {
          "internalType": "address",
          "name": "_tokenIn",
          "type": "address"
        },
        {
          "internalType": "address",
          "name": "_tokenOut",
          "type": "address"
        }
      ],
      "name": "validatePair",
      "outputs": [
        {
          "internalType": "bool",
          "name": "",
          "type": "bool"
        }
      ],
      "stateMutability": "view",
      "type": "function"
    }
  ],
  "bytecode": "0x60a0604052600160005534801561001557600080fd5b50604051610b2c380380610b2c83398101604081905261003491610049565b60601b6001600160601b031916608052610079565b60006020828403121561005b57600080fd5b81516001600160a01b038116811461007257600080fd5b9392505050565b60805160601c610a8f61009d6000396000818160d001526106340152610a8f6000f3fe608060405234801561001057600080fd5b50600436106100575760003560e01c80634aa066521461005c57806353b609b5146100825780639331621214610095578063b88c5f91146100a8578063c45a0155146100cb575b600080fd5b61006f61006a366004610889565b61010a565b6040519081526020015b60405180910390f35b61006f610090366004610889565b61011f565b61006f6100a336600461083e565b61012c565b6100bb6100b6366004610805565b6104a7565b6040519015158152602001610079565b6100f27f000000000000000000000000000000000000000000000000000000000000000081565b6040516001600160a01b039091168152602001610079565b60006101178484846104fe565b949350505050565b60006101178484846105b1565b60008054600114610150576040516303cb96db60e21b815260040160405180910390fd5b60008080556040516370a0823160e01b81523060048201526001600160a01b038616906370a082319060240160206040518083038186803b15801561019457600080fd5b505afa1580156101a8573d6000803e3d6000fd5b505050506040513d601f19601f820116820180604052508101906101cc9190610952565b90506101d98585836104fe565b91506000821161024f5760405162461bcd60e51b815260206004820152603660248201527f53796e6373776170436c6173736963496e746567726174696f6e3a20494e535560448201527511919250d251539517d3d55514155517d05353d5539560521b60648201526084015b60405180910390fd5b600061025b868661060a565b90506001600160a01b0381166102c45760405162461bcd60e51b815260206004820152602860248201527f53796e6373776170436c6173736963496e746567726174696f6e3a20494e56416044820152672624a22fa820a4a960c11b6064820152608401610246565b6102cf8682846106b7565b6040516370a0823160e01b81526001600160a01b038581166004830152600091908716906370a082319060240160206040518083038186803b15801561031457600080fd5b505afa158015610328573d6000803e3d6000fd5b505050506040513d601f19601f8201168201806040525081019061034c9190610952565b604080516001600160a01b03808b1660208301528816918101919091526002606082015290915060009060800160408051601f1981840301815290829052637132bb7f60e01b825291506001600160a01b03841690637132bb7f906103ba9084903390600090600401610987565b6040805180830381600087803b1580156103d357600080fd5b505af11580156103e7573d6000803e3d6000fd5b505050506040513d601f19601f8201168201806040525081019061040b91906108ec565b506040516370a0823160e01b81526001600160a01b038781166004830152600091908916906370a082319060240160206040518083038186803b15801561045157600080fd5b505afa158015610465573d6000803e3d6000fd5b505050506040513d601f19601f820116820180604052508101906104899190610952565b905061049583826109ec565b60016000559998505050505050505050565b6000816001600160a01b0316836001600160a01b031614156104cb575060006104f8565b60006104d7848461060a565b90506001600160a01b038116156104f25760019150506104f8565b60009150505b92915050565b60008061050b858561060a565b90506001600160a01b038116156105a95760405160016231ba9d60e11b031981526001600160a01b0386811660048301526024820185905230604483015282169063ff9c8ac6906064015b60206040518083038186803b15801561056e57600080fd5b505afa158015610582573d6000803e3d6000fd5b505050506040513d601f19601f820116820180604052508101906105a69190610952565b91505b509392505050565b6000806105be858561060a565b90506001600160a01b038116156105a95760405163a287c79560e01b81526001600160a01b0385811660048301526024820185905230604483015282169063a287c79590606401610556565b60405163298d501f60e11b81526001600160a01b03838116600483015282811660248301526000917f00000000000000000000000000000000000000000000000000000000000000009091169063531aa03e9060440160206040518083038186803b15801561067857600080fd5b505afa15801561068c573d6000803e3d6000fd5b505050506040513d601f19601f820116820180604052508101906106b091906107e8565b9392505050565b604080516001600160a01b038481166024830152604480830185905283518084039091018152606490920183526020820180516001600160e01b031663a9059cbb60e01b1790529151600092839290871691610713919061096b565b6000604051808303816000865af19150503d8060008114610750576040519150601f19603f3d011682016040523d82523d6000602084013e610755565b606091505b509150915081801561077f57508051158061077f57508080602001905181019061077f91906108ca565b6107e15760405162461bcd60e51b815260206004820152602d60248201527f5472616e7366657248656c7065723a3a736166655472616e736665723a20747260448201526c185b9cd9995c8819985a5b1959609a1b6064820152608401610246565b5050505050565b6000602082840312156107fa57600080fd5b81516106b081610a41565b6000806040838503121561081857600080fd5b823561082381610a41565b9150602083013561083381610a41565b809150509250929050565b60008060006060848603121561085357600080fd5b833561085e81610a41565b9250602084013561086e81610a41565b9150604084013561087e81610a41565b809150509250925092565b60008060006060848603121561089e57600080fd5b83356108a981610a41565b925060208401356108b981610a41565b929592945050506040919091013590565b6000602082840312156108dc57600080fd5b815180151581146106b057600080fd5b6000604082840312156108fe57600080fd5b6040516040810181811067ffffffffffffffff8211171561092f57634e487b7160e01b600052604160045260246000fd5b604052825161093d81610a41565b81526020928301519281019290925250919050565b60006020828403121561096457600080fd5b5051919050565b6000825161097d818460208701610a11565b9190910192915050565b60808152600084518060808401526109a68160a0850160208901610a11565b6001600160a01b03948516602084015292909316604082015260a0601f909201601f19168101818103830160609092019190915260009181019190915260c00192915050565b600082821015610a0c57634e487b7160e01b600052601160045260246000fd5b500390565b60005b83811015610a2c578181015183820152602001610a14565b83811115610a3b576000848401525b50505050565b6001600160a01b0381168114610a5657600080fd5b5056fea2646970667358221220a14f9f598c0eb7b4cf90b432df480049921fb635303d7998149ef808f4a5811c64736f6c63430008070033",
  "linkReferences": {},
  "deployedLinkReferences": {}
}