{
  "_format": "hh-sol-artifact-1",
  "contractName": "PositionStorage",
  "sourceName": "contracts/PositionStorage.sol",
  "abi": [
    {
      "inputs": [
        {
          "internalType": "uint256",
          "name": "currentPrice",
          "type": "uint256"
        },
        {
          "internalType": "uint256",
          "name": "stoplossPrice",
          "type": "uint256"
        }
      ],
      "name": "BadStoplossPrice",
      "type": "error"
    },
    {
      "inputs": [
        {
          "internalType": "uint256",
          "name": "currentPrice",
          "type": "uint256"
        },
        {
          "internalType": "uint256",
          "name": "takeProfitPrice",
          "type": "uint256"
        }
      ],
      "name": "BadTakeProfitPrice",
      "type": "error"
    },
    {
      "inputs": [
        {
          "internalType": "address",
          "name": "sender",
          "type": "address"
        }
      ],
      "name": "Forbidden",
      "type": "error"
    },
    {
      "inputs": [],
      "name": "InitializedAlready",
      "type": "error"
    },
    {
      "inputs": [],
      "name": "InsufficientServiceFee",
      "type": "error"
    },
    {
      "inputs": [],
      "name": "InvalidParameter",
      "type": "error"
    },
    {
      "inputs": [
        {
          "internalType": "bytes32",
          "name": "positionKey",
          "type": "bytes32"
        }
      ],
      "name": "LiquidationMarkedAlready",
      "type": "error"
    },
    {
      "inputs": [
        {
          "internalType": "address",
          "name": "user",
          "type": "address"
        }
      ],
      "name": "NotAllowed",
      "type": "error"
    },
    {
      "inputs": [
        {
          "internalType": "bytes32",
          "name": "positionKey",
          "type": "bytes32"
        }
      ],
      "name": "NotManualExpired",
      "type": "error"
    },
    {
      "inputs": [
        {
          "internalType": "address",
          "name": "owner",
          "type": "address"
        },
        {
          "internalType": "address",
          "name": "updater",
          "type": "address"
        }
      ],
      "name": "NotOwner",
      "type": "error"
    },
    {
      "inputs": [
        {
          "internalType": "bytes32",
          "name": "positionKey",
          "type": "bytes32"
        }
      ],
      "name": "Step1NotDone",
      "type": "error"
    },
    {
      "inputs": [
        {
          "internalType": "bytes32",
          "name": "positionKey",
          "type": "bytes32"
        }
      ],
      "name": "TradePositionClosedAlready",
      "type": "error"
    },
    {
      "inputs": [
        {
          "internalType": "bytes32",
          "name": "positionKey",
          "type": "bytes32"
        }
      ],
      "name": "TradePositionNotClosed",
      "type": "error"
    },
    {
      "inputs": [
        {
          "internalType": "bytes32",
          "name": "positionKey",
          "type": "bytes32"
        }
      ],
      "name": "TradePositionNotExists",
      "type": "error"
    },
    {
      "anonymous": false,
      "inputs": [
        {
          "indexed": true,
          "internalType": "bytes32",
          "name": "positionKey",
          "type": "bytes32"
        }
      ],
      "name": "CloseManuallyStep1TradePosition",
      "type": "event"
    },
    {
      "anonymous": false,
      "inputs": [
        {
          "indexed": true,
          "internalType": "bytes32",
          "name": "positionKey",
          "type": "bytes32"
        },
        {
          "indexed": false,
          "internalType": "address",
          "name": "updater",
          "type": "address"
        }
      ],
      "name": "CloseTradePosition",
      "type": "event"
    },
    {
      "anonymous": false,
      "inputs": [
        {
          "indexed": true,
          "internalType": "bytes32",
          "name": "positionKey",
          "type": "bytes32"
        },
        {
          "indexed": false,
          "internalType": "uint256",
          "name": "time",
          "type": "uint256"
        }
      ],
      "name": "LiquidationMark",
      "type": "event"
    },
    {
      "anonymous": false,
      "inputs": [
        {
          "indexed": true,
          "internalType": "bytes32",
          "name": "positionKey",
          "type": "bytes32"
        }
      ],
      "name": "OpenTradePosition",
      "type": "event"
    },
    {
      "anonymous": false,
      "inputs": [
        {
          "indexed": true,
          "internalType": "bytes32",
          "name": "positionKey",
          "type": "bytes32"
        },
        {
          "indexed": false,
          "internalType": "uint256",
          "name": "amount",
          "type": "uint256"
        },
        {
          "indexed": false,
          "internalType": "uint256",
          "name": "collateralLiqPrice",
          "type": "uint256"
        },
        {
          "indexed": false,
          "internalType": "address",
          "name": "updater",
          "type": "address"
        }
      ],
      "name": "UpdateCollateralAmount",
      "type": "event"
    },
    {
      "anonymous": false,
      "inputs": [
        {
          "indexed": true,
          "internalType": "bytes32",
          "name": "positionKey",
          "type": "bytes32"
        },
        {
          "indexed": false,
          "internalType": "uint256",
          "name": "newDeadline",
          "type": "uint256"
        },
        {
          "indexed": false,
          "internalType": "address",
          "name": "updater",
          "type": "address"
        }
      ],
      "name": "UpdateDeadline",
      "type": "event"
    },
    {
      "anonymous": false,
      "inputs": [
        {
          "indexed": true,
          "internalType": "bytes32",
          "name": "positionKey",
          "type": "bytes32"
        },
        {
          "indexed": false,
          "internalType": "uint256",
          "name": "newTakeProfitPrice",
          "type": "uint256"
        },
        {
          "indexed": false,
          "internalType": "uint256",
          "name": "newStoplossPrice",
          "type": "uint256"
        },
        {
          "indexed": false,
          "internalType": "address",
          "name": "updater",
          "type": "address"
        },
        {
          "indexed": false,
          "internalType": "address",
          "name": "serviceToken",
          "type": "address"
        },
        {
          "indexed": false,
          "internalType": "uint256",
          "name": "serviceFee",
          "type": "uint256"
        }
      ],
      "name": "UpdateTPnSLPrice",
      "type": "event"
    },
    {
      "inputs": [
        {
          "internalType": "bytes32",
          "name": "_positionKey",
          "type": "bytes32"
        }
      ],
      "name": "canLiquidate",
      "outputs": [
        {
          "internalType": "bool",
          "name": "",
          "type": "bool"
        }
      ],
      "stateMutability": "view",
      "type": "function"
    },
    {
      "inputs": [
        {
          "internalType": "bytes32",
          "name": "_positionKey",
          "type": "bytes32"
        }
      ],
      "name": "canLiquidationMark",
      "outputs": [
        {
          "internalType": "bool",
          "name": "",
          "type": "bool"
        }
      ],
      "stateMutability": "view",
      "type": "function"
    },
    {
      "inputs": [
        {
          "internalType": "bytes32",
          "name": "_positionKey",
          "type": "bytes32"
        }
      ],
      "name": "closeManuallyStep1",
      "outputs": [],
      "stateMutability": "nonpayable",
      "type": "function"
    },
    {
      "inputs": [
        {
          "internalType": "bytes32",
          "name": "_positionKey",
          "type": "bytes32"
        }
      ],
      "name": "closeManuallyStep2",
      "outputs": [],
      "stateMutability": "nonpayable",
      "type": "function"
    },
    {
      "inputs": [],
      "name": "factory",
      "outputs": [
        {
          "internalType": "address",
          "name": "",
          "type": "address"
        }
      ],
      "stateMutability": "view",
      "type": "function"
    },
    {
      "inputs": [
        {
          "components": [
            {
              "internalType": "address",
              "name": "owner",
              "type": "address"
            },
            {
              "internalType": "address",
              "name": "baseToken",
              "type": "address"
            },
            {
              "internalType": "address",
              "name": "quoteToken",
              "type": "address"
            },
            {
              "internalType": "address",
              "name": "collateral",
              "type": "address"
            },
            {
              "internalType": "uint256",
              "name": "baseAmount",
              "type": "uint256"
            },
            {
              "internalType": "uint256",
              "name": "quoteAmount",
              "type": "uint256"
            },
            {
              "internalType": "uint256",
              "name": "collateralAmount",
              "type": "uint256"
            },
            {
              "internalType": "uint256",
              "name": "deadline",
              "type": "uint256"
            },
            {
              "internalType": "uint256",
              "name": "stoplossPrice",
              "type": "uint256"
            },
            {
              "internalType": "uint256",
              "name": "takeProfitPrice",
              "type": "uint256"
            }
          ],
          "internalType": "struct IPositionStorage.OpenTradePositionParams",
          "name": "_params",
          "type": "tuple"
        }
      ],
      "name": "getMinCollateralAmount",
      "outputs": [
        {
          "internalType": "uint256",
          "name": "",
          "type": "uint256"
        }
      ],
      "stateMutability": "view",
      "type": "function"
    },
    {
      "inputs": [
        {
          "components": [
            {
              "internalType": "address",
              "name": "owner",
              "type": "address"
            },
            {
              "internalType": "address",
              "name": "baseToken",
              "type": "address"
            },
            {
              "internalType": "address",
              "name": "quoteToken",
              "type": "address"
            },
            {
              "internalType": "address",
              "name": "collateral",
              "type": "address"
            },
            {
              "internalType": "uint256",
              "name": "baseAmount",
              "type": "uint256"
            },
            {
              "internalType": "uint256",
              "name": "quoteAmount",
              "type": "uint256"
            },
            {
              "internalType": "uint256",
              "name": "collateralAmount",
              "type": "uint256"
            },
            {
              "internalType": "uint256",
              "name": "deadline",
              "type": "uint256"
            },
            {
              "internalType": "uint256",
              "name": "stoplossPrice",
              "type": "uint256"
            },
            {
              "internalType": "uint256",
              "name": "takeProfitPrice",
              "type": "uint256"
            }
          ],
          "internalType": "struct IPositionStorage.OpenTradePositionParams",
          "name": "_params",
          "type": "tuple"
        }
      ],
      "name": "getQuoteAmountRange",
      "outputs": [
        {
          "internalType": "uint256",
          "name": "minQuoteAmount",
          "type": "uint256"
        },
        {
          "internalType": "uint256",
          "name": "maxQuoteAmount",
          "type": "uint256"
        }
      ],
      "stateMutability": "view",
      "type": "function"
    },
    {
      "inputs": [
        {
          "internalType": "bytes32",
          "name": "_positionKey",
          "type": "bytes32"
        }
      ],
      "name": "liquidationMark",
      "outputs": [],
      "stateMutability": "nonpayable",
      "type": "function"
    },
    {
      "inputs": [
        {
          "components": [
            {
              "internalType": "bytes32",
              "name": "positionKey",
              "type": "bytes32"
            },
            {
              "internalType": "address",
              "name": "owner",
              "type": "address"
            },
            {
              "internalType": "address",
              "name": "pool",
              "type": "address"
            },
            {
              "components": [
                {
                  "internalType": "address",
                  "name": "id",
                  "type": "address"
                },
                {
                  "internalType": "uint256",
                  "name": "amount",
                  "type": "uint256"
                },
                {
                  "internalType": "uint256",
                  "name": "entryPrice",
                  "type": "uint256"
                },
                {
                  "internalType": "uint256",
                  "name": "liqPrice",
                  "type": "uint256"
                },
                {
                  "internalType": "uint256",
                  "name": "closePrice",
                  "type": "uint256"
                }
              ],
              "internalType": "struct IPositionStorage.BaseToken",
              "name": "baseToken",
              "type": "tuple"
            },
            {
              "components": [
                {
                  "internalType": "address",
                  "name": "id",
                  "type": "address"
                },
                {
                  "internalType": "uint256",
                  "name": "amount",
                  "type": "uint256"
                }
              ],
              "internalType": "struct IPositionStorage.QuoteToken",
              "name": "quoteToken",
              "type": "tuple"
            },
            {
              "components": [
                {
                  "internalType": "address",
                  "name": "id",
                  "type": "address"
                },
                {
                  "internalType": "uint256",
                  "name": "amount",
                  "type": "uint256"
                },
                {
                  "internalType": "uint256",
                  "name": "entryPrice",
                  "type": "uint256"
                },
                {
                  "internalType": "uint256",
                  "name": "liqPrice",
                  "type": "uint256"
                },
                {
                  "internalType": "uint256",
                  "name": "closePrice",
                  "type": "uint256"
                }
              ],
              "internalType": "struct IPositionStorage.Collateral",
              "name": "collateral",
              "type": "tuple"
            },
            {
              "internalType": "uint256",
              "name": "deadline",
              "type": "uint256"
            },
            {
              "internalType": "uint256",
              "name": "stoplossPrice",
              "type": "uint256"
            },
            {
              "internalType": "uint256",
              "name": "takeProfitPrice",
              "type": "uint256"
            },
            {
              "internalType": "uint256",
              "name": "fee",
              "type": "uint256"
            },
            {
              "internalType": "uint256",
              "name": "protocolFee",
              "type": "uint256"
            },
            {
              "components": [
                {
                  "internalType": "bool",
                  "name": "isClosed",
                  "type": "bool"
                },
                {
                  "internalType": "bool",
                  "name": "isRollbacked",
                  "type": "bool"
                },
                {
                  "internalType": "bool",
                  "name": "isClosedManuallyStep1",
                  "type": "bool"
                },
                {
                  "internalType": "bool",
                  "name": "isClosedManuallyStep2",
                  "type": "bool"
                }
              ],
              "internalType": "struct IPositionStorage.Status",
              "name": "status",
              "type": "tuple"
            },
            {
              "internalType": "address",
              "name": "closer",
              "type": "address"
            },
            {
              "internalType": "uint256",
              "name": "liquidationMarkTime",
              "type": "uint256"
            }
          ],
          "internalType": "struct IPositionStorage.TradePosition",
          "name": "_pos",
          "type": "tuple"
        }
      ],
      "name": "openTradePosition",
      "outputs": [
        {
          "internalType": "bytes32",
          "name": "positionKey",
          "type": "bytes32"
        }
      ],
      "stateMutability": "nonpayable",
      "type": "function"
    },
    {
      "inputs": [],
      "name": "poolDeployer",
      "outputs": [
        {
          "internalType": "address",
          "name": "",
          "type": "address"
        }
      ],
      "stateMutability": "view",
      "type": "function"
    },
    {
      "inputs": [
        {
          "internalType": "bytes32",
          "name": "_positionKey",
          "type": "bytes32"
        }
      ],
      "name": "position",
      "outputs": [
        {
          "components": [
            {
              "internalType": "bytes32",
              "name": "positionKey",
              "type": "bytes32"
            },
            {
              "internalType": "address",
              "name": "owner",
              "type": "address"
            },
            {
              "internalType": "address",
              "name": "pool",
              "type": "address"
            },
            {
              "components": [
                {
                  "internalType": "address",
                  "name": "id",
                  "type": "address"
                },
                {
                  "internalType": "uint256",
                  "name": "amount",
                  "type": "uint256"
                },
                {
                  "internalType": "uint256",
                  "name": "entryPrice",
                  "type": "uint256"
                },
                {
                  "internalType": "uint256",
                  "name": "liqPrice",
                  "type": "uint256"
                },
                {
                  "internalType": "uint256",
                  "name": "closePrice",
                  "type": "uint256"
                }
              ],
              "internalType": "struct IPositionStorage.BaseToken",
              "name": "baseToken",
              "type": "tuple"
            },
            {
              "components": [
                {
                  "internalType": "address",
                  "name": "id",
                  "type": "address"
                },
                {
                  "internalType": "uint256",
                  "name": "amount",
                  "type": "uint256"
                }
              ],
              "internalType": "struct IPositionStorage.QuoteToken",
              "name": "quoteToken",
              "type": "tuple"
            },
            {
              "components": [
                {
                  "internalType": "address",
                  "name": "id",
                  "type": "address"
                },
                {
                  "internalType": "uint256",
                  "name": "amount",
                  "type": "uint256"
                },
                {
                  "internalType": "uint256",
                  "name": "entryPrice",
                  "type": "uint256"
                },
                {
                  "internalType": "uint256",
                  "name": "liqPrice",
                  "type": "uint256"
                },
                {
                  "internalType": "uint256",
                  "name": "closePrice",
                  "type": "uint256"
                }
              ],
              "internalType": "struct IPositionStorage.Collateral",
              "name": "collateral",
              "type": "tuple"
            },
            {
              "internalType": "uint256",
              "name": "deadline",
              "type": "uint256"
            },
            {
              "internalType": "uint256",
              "name": "stoplossPrice",
              "type": "uint256"
            },
            {
              "internalType": "uint256",
              "name": "takeProfitPrice",
              "type": "uint256"
            },
            {
              "internalType": "uint256",
              "name": "fee",
              "type": "uint256"
            },
            {
              "internalType": "uint256",
              "name": "protocolFee",
              "type": "uint256"
            },
            {
              "components": [
                {
                  "internalType": "bool",
                  "name": "isClosed",
                  "type": "bool"
                },
                {
                  "internalType": "bool",
                  "name": "isRollbacked",
                  "type": "bool"
                },
                {
                  "internalType": "bool",
                  "name": "isClosedManuallyStep1",
                  "type": "bool"
                },
                {
                  "internalType": "bool",
                  "name": "isClosedManuallyStep2",
                  "type": "bool"
                }
              ],
              "internalType": "struct IPositionStorage.Status",
              "name": "status",
              "type": "tuple"
            },
            {
              "internalType": "address",
              "name": "closer",
              "type": "address"
            },
            {
              "internalType": "uint256",
              "name": "liquidationMarkTime",
              "type": "uint256"
            }
          ],
          "internalType": "struct IPositionStorage.TradePosition",
          "name": "",
          "type": "tuple"
        }
      ],
      "stateMutability": "view",
      "type": "function"
    },
    {
      "inputs": [
        {
          "internalType": "bytes32",
          "name": "",
          "type": "bytes32"
        }
      ],
      "name": "positionKeyToIndex",
      "outputs": [
        {
          "internalType": "uint256",
          "name": "",
          "type": "uint256"
        }
      ],
      "stateMutability": "view",
      "type": "function"
    },
    {
      "inputs": [
        {
          "internalType": "uint256",
          "name": "",
          "type": "uint256"
        }
      ],
      "name": "positionKeys",
      "outputs": [
        {
          "internalType": "bytes32",
          "name": "",
          "type": "bytes32"
        }
      ],
      "stateMutability": "view",
      "type": "function"
    },
    {
      "inputs": [],
      "name": "positionLength",
      "outputs": [
        {
          "internalType": "uint256",
          "name": "",
          "type": "uint256"
        }
      ],
      "stateMutability": "view",
      "type": "function"
    },
    {
      "inputs": [
        {
          "components": [
            {
              "internalType": "address",
              "name": "owner",
              "type": "address"
            },
            {
              "internalType": "address",
              "name": "baseToken",
              "type": "address"
            },
            {
              "internalType": "address",
              "name": "quoteToken",
              "type": "address"
            },
            {
              "internalType": "address",
              "name": "collateral",
              "type": "address"
            },
            {
              "internalType": "uint256",
              "name": "baseAmount",
              "type": "uint256"
            },
            {
              "internalType": "uint256",
              "name": "quoteAmount",
              "type": "uint256"
            },
            {
              "internalType": "uint256",
              "name": "collateralAmount",
              "type": "uint256"
            },
            {
              "internalType": "uint256",
              "name": "deadline",
              "type": "uint256"
            },
            {
              "internalType": "uint256",
              "name": "stoplossPrice",
              "type": "uint256"
            },
            {
              "internalType": "uint256",
              "name": "takeProfitPrice",
              "type": "uint256"
            }
          ],
          "internalType": "struct IPositionStorage.OpenTradePositionParams",
          "name": "_params",
          "type": "tuple"
        }
      ],
      "name": "previewTradePosition",
      "outputs": [
        {
          "components": [
            {
              "internalType": "bytes32",
              "name": "positionKey",
              "type": "bytes32"
            },
            {
              "internalType": "address",
              "name": "owner",
              "type": "address"
            },
            {
              "internalType": "address",
              "name": "pool",
              "type": "address"
            },
            {
              "components": [
                {
                  "internalType": "address",
                  "name": "id",
                  "type": "address"
                },
                {
                  "internalType": "uint256",
                  "name": "amount",
                  "type": "uint256"
                },
                {
                  "internalType": "uint256",
                  "name": "entryPrice",
                  "type": "uint256"
                },
                {
                  "internalType": "uint256",
                  "name": "liqPrice",
                  "type": "uint256"
                },
                {
                  "internalType": "uint256",
                  "name": "closePrice",
                  "type": "uint256"
                }
              ],
              "internalType": "struct IPositionStorage.BaseToken",
              "name": "baseToken",
              "type": "tuple"
            },
            {
              "components": [
                {
                  "internalType": "address",
                  "name": "id",
                  "type": "address"
                },
                {
                  "internalType": "uint256",
                  "name": "amount",
                  "type": "uint256"
                }
              ],
              "internalType": "struct IPositionStorage.QuoteToken",
              "name": "quoteToken",
              "type": "tuple"
            },
            {
              "components": [
                {
                  "internalType": "address",
                  "name": "id",
                  "type": "address"
                },
                {
                  "internalType": "uint256",
                  "name": "amount",
                  "type": "uint256"
                },
                {
                  "internalType": "uint256",
                  "name": "entryPrice",
                  "type": "uint256"
                },
                {
                  "internalType": "uint256",
                  "name": "liqPrice",
                  "type": "uint256"
                },
                {
                  "internalType": "uint256",
                  "name": "closePrice",
                  "type": "uint256"
                }
              ],
              "internalType": "struct IPositionStorage.Collateral",
              "name": "collateral",
              "type": "tuple"
            },
            {
              "internalType": "uint256",
              "name": "deadline",
              "type": "uint256"
            },
            {
              "internalType": "uint256",
              "name": "stoplossPrice",
              "type": "uint256"
            },
            {
              "internalType": "uint256",
              "name": "takeProfitPrice",
              "type": "uint256"
            },
            {
              "internalType": "uint256",
              "name": "fee",
              "type": "uint256"
            },
            {
              "internalType": "uint256",
              "name": "protocolFee",
              "type": "uint256"
            },
            {
              "components": [
                {
                  "internalType": "bool",
                  "name": "isClosed",
                  "type": "bool"
                },
                {
                  "internalType": "bool",
                  "name": "isRollbacked",
                  "type": "bool"
                },
                {
                  "internalType": "bool",
                  "name": "isClosedManuallyStep1",
                  "type": "bool"
                },
                {
                  "internalType": "bool",
                  "name": "isClosedManuallyStep2",
                  "type": "bool"
                }
              ],
              "internalType": "struct IPositionStorage.Status",
              "name": "status",
              "type": "tuple"
            },
            {
              "internalType": "address",
              "name": "closer",
              "type": "address"
            },
            {
              "internalType": "uint256",
              "name": "liquidationMarkTime",
              "type": "uint256"
            }
          ],
          "internalType": "struct IPositionStorage.TradePosition",
          "name": "",
          "type": "tuple"
        }
      ],
      "stateMutability": "view",
      "type": "function"
    },
    {
      "inputs": [
        {
          "components": [
            {
              "internalType": "bytes32",
              "name": "positionKey",
              "type": "bytes32"
            },
            {
              "internalType": "uint256",
              "name": "amount",
              "type": "uint256"
            },
            {
              "internalType": "address",
              "name": "updater",
              "type": "address"
            }
          ],
          "internalType": "struct IPositionStorage.UpdateCollateralAmountParams",
          "name": "_params",
          "type": "tuple"
        }
      ],
      "name": "previewUpdateCollateralAmount",
      "outputs": [
        {
          "internalType": "uint256",
          "name": "collateralLiqPrice",
          "type": "uint256"
        }
      ],
      "stateMutability": "view",
      "type": "function"
    },
    {
      "inputs": [
        {
          "components": [
            {
              "internalType": "bytes32",
              "name": "positionKey",
              "type": "bytes32"
            },
            {
              "internalType": "uint256",
              "name": "deadline",
              "type": "uint256"
            },
            {
              "internalType": "address",
              "name": "updater",
              "type": "address"
            }
          ],
          "internalType": "struct IPositionStorage.UpdateDeadlineParams",
          "name": "_params",
          "type": "tuple"
        }
      ],
      "name": "previewUpdateDeadline",
      "outputs": [
        {
          "internalType": "uint256",
          "name": "fee",
          "type": "uint256"
        },
        {
          "internalType": "uint256",
          "name": "protocolFee",
          "type": "uint256"
        }
      ],
      "stateMutability": "view",
      "type": "function"
    },
    {
      "inputs": [
        {
          "internalType": "bytes32",
          "name": "_positionKey",
          "type": "bytes32"
        },
        {
          "internalType": "address",
          "name": "_updater",
          "type": "address"
        }
      ],
      "name": "rollback",
      "outputs": [],
      "stateMutability": "nonpayable",
      "type": "function"
    },
    {
      "inputs": [
        {
          "internalType": "address",
          "name": "_factory",
          "type": "address"
        }
      ],
      "name": "setFactory",
      "outputs": [],
      "stateMutability": "nonpayable",
      "type": "function"
    },
    {
      "inputs": [
        {
          "internalType": "bytes32",
          "name": "_positionKey",
          "type": "bytes32"
        },
        {
          "internalType": "uint256",
          "name": "_baseValue",
          "type": "uint256"
        },
        {
          "internalType": "uint256",
          "name": "_loss",
          "type": "uint256"
        },
        {
          "internalType": "uint256",
          "name": "_remainingCollateralAmount",
          "type": "uint256"
        }
      ],
      "name": "updateCloseValues",
      "outputs": [],
      "stateMutability": "nonpayable",
      "type": "function"
    },
    {
      "inputs": [
        {
          "components": [
            {
              "internalType": "bytes32",
              "name": "positionKey",
              "type": "bytes32"
            },
            {
              "internalType": "uint256",
              "name": "amount",
              "type": "uint256"
            },
            {
              "internalType": "address",
              "name": "updater",
              "type": "address"
            }
          ],
          "internalType": "struct IPositionStorage.UpdateCollateralAmountParams",
          "name": "_params",
          "type": "tuple"
        }
      ],
      "name": "updateCollateralAmount",
      "outputs": [
        {
          "internalType": "uint256",
          "name": "collateralLiqPrice",
          "type": "uint256"
        }
      ],
      "stateMutability": "nonpayable",
      "type": "function"
    },
    {
      "inputs": [
        {
          "components": [
            {
              "internalType": "bytes32",
              "name": "positionKey",
              "type": "bytes32"
            },
            {
              "internalType": "uint256",
              "name": "deadline",
              "type": "uint256"
            },
            {
              "internalType": "address",
              "name": "updater",
              "type": "address"
            }
          ],
          "internalType": "struct IPositionStorage.UpdateDeadlineParams",
          "name": "_params",
          "type": "tuple"
        }
      ],
      "name": "updateDeadline",
      "outputs": [
        {
          "internalType": "uint256",
          "name": "fee",
          "type": "uint256"
        },
        {
          "internalType": "uint256",
          "name": "protocolFee",
          "type": "uint256"
        }
      ],
      "stateMutability": "nonpayable",
      "type": "function"
    },
    {
      "inputs": [
        {
          "internalType": "bytes32",
          "name": "_positionKey",
          "type": "bytes32"
        },
        {
          "internalType": "address",
          "name": "_updater",
          "type": "address"
        }
      ],
      "name": "updateStatus",
      "outputs": [
        {
          "internalType": "bool",
          "name": "needLiquidate",
          "type": "bool"
        }
      ],
      "stateMutability": "nonpayable",
      "type": "function"
    },
    {
      "inputs": [
        {
          "components": [
            {
              "internalType": "bytes32",
              "name": "positionKey",
              "type": "bytes32"
            },
            {
              "internalType": "uint256",
              "name": "takeProfitPrice",
              "type": "uint256"
            },
            {
              "internalType": "uint256",
              "name": "stoplossPrice",
              "type": "uint256"
            },
            {
              "internalType": "address",
              "name": "updater",
              "type": "address"
            },
            {
              "internalType": "address",
              "name": "serviceToken",
              "type": "address"
            },
            {
              "internalType": "uint256",
              "name": "serviceFee",
              "type": "uint256"
            }
          ],
          "internalType": "struct IPositionStorage.UpdateTPnSLParams",
          "name": "_params",
          "type": "tuple"
        }
      ],
      "name": "updateTPnSL",
      "outputs": [],
      "stateMutability": "nonpayable",
      "type": "function"
    }
  ],
  "bytecode": "0x608060405234801561001057600080fd5b506146be806100206000396000f3fe608060405234801561001057600080fd5b50600436106101585760003560e01c8063957d1fe1116100c3578063c45a01551161007c578063c45a015514610315578063caa1a44f14610328578063e5944f0114610348578063f71139f71461035b578063f76e91fd1461036e578063fc9ffe101461038157600080fd5b8063957d1fe1146102965780639a102341146102b6578063abe06a4d146102c9578063ac00b674146102dc578063b008c058146102ef578063be9f3fec1461030257600080fd5b80635bb47808116101155780635bb478081461021457806361ba1508146102275780636f51535e1461024a57806371e64bca1461025d5780637c08ddc9146102705780638b029d611461028357600080fd5b80632895a2b31461015d5780633119049a1461019057806337f36864146101bb57806349a4d1d1146101ce5780634f26f457146101e3578063539826a61461020b575b600080fd5b61017d61016b366004614086565b60046020526000908152604090205481565b6040519081526020015b60405180910390f35b6001546101a3906001600160a01b031681565b6040516001600160a01b039091168152602001610187565b61017d6101c9366004614292565b610394565b6101e16101dc366004614086565b61077f565b005b6101f66101f1366004614292565b610833565b60408051928352602083019190915201610187565b61017d60035481565b6101e1610222366004614028565b610c20565b61023a610235366004614086565b610cf9565b6040519015158152602001610187565b6101e16102583660046142ae565b610d0a565b61017d61026b366004614101565b6110b9565b61017d61027e366004614292565b611461565b6101e16102913660046140cf565b6117d4565b6102a96102a4366004614086565b6118c7565b60405161018791906143b5565b6101e16102c436600461409f565b611a53565b6101f66102d7366004614101565b611b90565b61023a6102ea36600461409f565b611fc7565b6101e16102fd366004614086565b612126565b6102a9610310366004614101565b6122a1565b6000546101a3906001600160a01b031681565b61017d610336366004614086565b60056020526000908152604090205481565b61023a610356366004614086565b6122b2565b6101e1610369366004614086565b6122db565b61017d61037c3660046141a4565b6123eb565b6101f661038f366004614292565b6126a5565b8051600090815260066020818152604080842081516101c0810183528154815260018201546001600160a01b03908116828601526002830154811682850152835160a0808201865260038501548316825260048086015483890152600586015483880152978501546060808401919091526007860154608080850191909152818601938452875180890189526008880154861681526009880154818b01528187015287518084018952600a88015486168152600b880154818b0152600c880154818a0152600d88015481840152600e8801548183015292860192909252600f86015460c0860152601086015460e08601526011860154610100808701919091526012870154610120870152601387015461014087015287519283018852601487015460ff8082161515855291810482161515848b015262010000810482161515848a01526301000000900416151590820152610160840152601584015482166101808401526016909301546101a083015286549251518451635ba2edab60e11b8152908216968101969096529251909491909216926c0c9f2c9cd04674edea40000000928692859263b745db5692602480840193829003018186803b15801561055c57600080fd5b505afa158015610570573d6000803e3d6000fd5b505050506040513d601f19601f820116820180604052508101906105949190614347565b905060008460800151600001516001600160a01b03168560a00151600001516001600160a01b0316146106465760a08501515160405163095bf1bb60e01b81526001600160a01b0391821660048201529085169063095bf1bb9060240160206040518083038186803b15801561060957600080fd5b505afa15801561061d573d6000803e3d6000fd5b505050506040513d601f19601f820116820180604052508101906106419190614347565b61064a565b6127105b9050600087602001518660a001516020015161066691906145aa565b90506000610676856127106145e4565b606088015160408101516020909101518691610691916145e4565b61069b91906145e4565b6106a591906145c2565b60a08801515160405163017f783b60e61b81526001600160a01b03918216600482015291925060009190881690635fde0ec09060240160206040518083038186803b1580156106f357600080fd5b505afa158015610707573d6000803e3d6000fd5b505050506040513d601f19601f8201168201806040525081019061072b9190614347565b905060008482848b60800151602001516107459190614603565b61074f91906145e4565b61075991906145c2565b90508361076688836145e4565b61077091906145c2565b9b9a5050505050505050505050565b6000818152600660205260409020601481015460ff16156107bb57604051632a2af87d60e11b8152600481018390526024015b60405180910390fd5b6016810154156107e157604051634fd9d2b360e11b8152600481018390526024016107b2565b426107eb83612b73565b1561082e576016820181905560405181815283907fa12564b997ab2a5a96db3485450b11398857b9457f88412f9ad19cdffd43a1ab906020015b60405180910390a25b505050565b8051600090815260066020818152604080842081516101c0810183528154815260018201546001600160a01b03908116828601526002830154811682850152835160a080820186526003850154831682526004808601548389015260058601548388015297850154606083810191909152600786015460808085019190915281860193909352865180880188526008870154851681526009870154818a01528386015286518083018852600a87015485168152600b870154818a0152600c87015481890152600d87015481830152600e8701548185015291850191909152600f85015460c0850152601085015460e08501526011850154610100808601919091526012860154610120860152601386015461014086015286519283018752601486015460ff8082161515855291810482161515848a015262010000810482161515848901526301000000900416151590820152610160830152601583015481166101808301526016909201546101a0820152855483516375e5807960e01b81529351879692959190931693869385936375e58079938382019390929190829003018186803b1580156109e457600080fd5b505afa1580156109f8573d6000803e3d6000fd5b505050506040513d601f19601f82011682018060405250810190610a1c919061404c565b90508260c00151866020015110610c185760808301515160405163ac436bdf60e01b81526001600160a01b03918216600482015260009184169063ac436bdf9060240160206040518083038186803b158015610a7757600080fd5b505afa158015610a8b573d6000803e3d6000fd5b505050506040513d601f19601f82011682018060405250810190610aaf9190614347565b9050610ac16301e133806127106145e4565b8460c001518860200151610ad59190614603565b82866080015160200151610ae991906145e4565b610af391906145e4565b610afd91906145c2565b602085015160405163172c717b60e01b81526001600160a01b0391821660048201526024810183905291975083169063172c717b9060440160206040518083038186803b158015610b4d57600080fd5b505afa158015610b61573d6000803e3d6000fd5b505050506040513d601f19601f82011682018060405250810190610b859190614347565b95506000836001600160a01b03166358f858806040518163ffffffff1660e01b815260040160206040518083038186803b158015610bc257600080fd5b505afa158015610bd6573d6000803e3d6000fd5b505050506040513d601f19601f82011682018060405250810190610bfa9190614347565b9050612710610c0982896145e4565b610c1391906145c2565b955050505b505050915091565b6000546001600160a01b031615610c4a576040516373e833b960e11b815260040160405180910390fd5b600080546001600160a01b0319166001600160a01b0383169081179091556040805163188c824d60e11b81529051633119049a91600480820192602092909190829003018186803b158015610c9e57600080fd5b505afa158015610cb2573d6000803e3d6000fd5b505050506040513d601f19601f82011682018060405250810190610cd6919061404c565b600180546001600160a01b0319166001600160a01b039290921691909117905550565b6000610d0482612b73565b92915050565b600054604051639a30739160e01b81523360048201526001600160a01b03909116908190639a3073919060240160206040518083038186803b158015610d4f57600080fd5b505afa158015610d63573d6000803e3d6000fd5b505050506040513d601f19601f82011682018060405250810190610d879190614069565b610da65760405163a59d7f4d60e01b81523360048201526024016107b2565b81516000908152600660205260409020601481015460ff1615610de2578251604051632a2af87d60e11b815260048101919091526024016107b2565b600181015460608401516001600160a01b03908116911614610e2c5760018101546060840151604051631194af8760e11b81526107b2926001600160a01b0316919060040161439b565b6000826001600160a01b031663e9a4e7a26040518163ffffffff1660e01b815260040160206040518083038186803b158015610e6757600080fd5b505afa158015610e7b573d6000803e3d6000fd5b505050506040513d601f19601f82011682018060405250810190610e9f919061404c565b9050610eb48460800151828660a00151612f32565b6000836001600160a01b031663741bef1a6040518163ffffffff1660e01b815260040160206040518083038186803b158015610eef57600080fd5b505afa158015610f03573d6000803e3d6000fd5b505050506040513d601f19601f82011682018060405250810190610f27919061404c565b60038401546008850154604051637360a1b160e11b81529293506000926001600160a01b038086169363e6c1436293610f689391831692169060040161439b565b60206040518083038186803b158015610f8057600080fd5b505afa158015610f94573d6000803e3d6000fd5b505050506040513d601f19601f82011682018060405250810190610fb89190614347565b905080866020015111610fee5760208601516040516370937bd760e01b81526107b2918391600401918252602082015260400190565b80866040015110611023578086604001516040516316b481fb60e11b81526004016107b2929190918252602082015260400190565b60208601516011850181905560408088015160108701819055885160608a015160808b015160a08c0151945192957f81ee07d89d1396e83e40ae3af89b496f5880d5ef40c390bda7227999681ad2d9956110a99591949193929194855260208501939093526001600160a01b039182166040850152166060830152608082015260a00190565b60405180910390a2505050505050565b60008060008054906101000a90046001600160a01b031690506000816001600160a01b031663741bef1a6040518163ffffffff1660e01b815260040160206040518083038186803b15801561110d57600080fd5b505afa158015611121573d6000803e3d6000fd5b505050506040513d601f19601f82011682018060405250810190611145919061404c565b905060006c0c9f2c9cd04674edea400000009050600080836001600160a01b031663e6c14362886020015189604001516040518363ffffffff1660e01b815260040161119292919061439b565b60206040518083038186803b1580156111aa57600080fd5b505afa1580156111be573d6000803e3d6000fd5b505050506040513d601f19601f820116820180604052508101906111e29190614347565b9050828188608001516111f591906145e4565b6111ff91906145c2565b9150506000846001600160a01b0316636d2745536040518163ffffffff1660e01b815260040160206040518083038186803b15801561123d57600080fd5b505afa158015611251573d6000803e3d6000fd5b505050506040513d601f19601f820116820180604052508101906112759190614347565b6020880151604051635ba2edab60e11b81526001600160a01b0391821660048201529192506000919087169063b745db569060240160206040518083038186803b1580156112c257600080fd5b505afa1580156112d6573d6000803e3d6000fd5b505050506040513d601f19601f820116820180604052508101906112fa9190614347565b9050600088604001516001600160a01b031689606001516001600160a01b0316146113a357606089015160405163095bf1bb60e01b81526001600160a01b0391821660048201529088169063095bf1bb9060240160206040518083038186803b15801561136657600080fd5b505afa15801561137a573d6000803e3d6000fd5b505050506040513d601f19601f8201168201806040525081019061139e9190614347565b6113a7565b6127105b90506000816113b68486614603565b6113c090876145e4565b6113ca91906145c2565b60608b01516040808d01519051637360a1b160e11b81529293506000926001600160a01b038b169263e6c14362926114049260040161439b565b60206040518083038186803b15801561141c57600080fd5b505afa158015611430573d6000803e3d6000fd5b505050506040513d601f19601f820116820180604052508101906114549190614347565b90508061076688846145e4565b80516000908152600660205260408120600154600882015461148f916001600160a01b039081169116612ffd565b6001600160a01b0316336001600160a01b0316146114c25760405163a59d7f4d60e01b81523360048201526024016107b2565b601481015460ff16156114ee578251604051632a2af87d60e11b815260048101919091526024016107b2565b600181015460408401516001600160a01b039081169116146115385760018101546040808501519051631194af8760e11b81526107b2926001600160a01b0316919060040161439b565b600080546003830154604051635ba2edab60e11b81526001600160a01b0391821660048201529116916c0c9f2c9cd04674edea4000000091839063b745db569060240160206040518083038186803b15801561159357600080fd5b505afa1580156115a7573d6000803e3d6000fd5b505050506040513d601f19601f820116820180604052508101906115cb9190614347565b600a85015460405163095bf1bb60e01b81526001600160a01b0391821660048201529192506000919085169063095bf1bb9060240160206040518083038186803b15801561161857600080fd5b505afa15801561162c573d6000803e3d6000fd5b505050506040513d601f19601f820116820180604052508101906116509190614347565b90506000876020015186600a016001015461166b91906145aa565b9050600061167b856127106145e4565b600588015460048901548691611690916145e4565b61169a91906145e4565b6116a491906145c2565b600a88015460405163017f783b60e61b81526001600160a01b03918216600482015291925060009190881690635fde0ec09060240160206040518083038186803b1580156116f157600080fd5b505afa158015611705573d6000803e3d6000fd5b505050506040513d601f19601f820116820180604052508101906117299190614347565b905060008482848b600801600101546117429190614603565b61174c91906145e4565b61175691906145c2565b90508361176388836145e4565b61176d91906145c2565b600d8a0155505088516020808b01516040808d015181519283529282018c90526001600160a01b039092168183015290517f9eadcc5983e9f0a6ecaed53a02a3257cc83e8581346642986340e548338a2db79181900360600190a250505050505050919050565b60008481526006602052604090206001546008820154611800916001600160a01b039081169116612ffd565b6001600160a01b0316336001600160a01b0316146118335760405163a59d7f4d60e01b81523360048201526024016107b2565b601481015460ff1661185b57604051635de41db760e11b8152600481018690526024016107b2565b60048101546c0c9f2c9cd04674edea400000009061187982876145e4565b61188391906145c2565b600783015583156118bf57600b8201546000906118a1908590614603565b9050806118ae83876145e4565b6118b891906145c2565b600e840155505b505050505050565b6118cf613cd9565b5060009081526006602081815260409283902083516101c0810185528154815260018201546001600160a01b03908116828501526002830154811682870152855160a0808201885260038501548316825260048501548287015260058501548289015295840154606082810191909152600785015460808084019190915281850192909252875180890189526008860154841681526009860154818801528285015287518088018952600a86015484168152600b86015481880152600c860154818a0152600d86015481830152600e8601548184015296840196909652600f84015460c0840152601084015460e08401526011840154610100808501919091526012850154610120850152601385015461014085015287519182018852601485015460ff8082161515845291810482161515968301969096526201000086048116151597820197909752630100000090940490951615159383019390935261016083019190915260158101549092166101808201526016909101546101a082015290565b60008281526006602052604090206001546008820154611a7f916001600160a01b039081169116612ffd565b6001600160a01b0316336001600160a01b031614611ab25760405163a59d7f4d60e01b81523360048201526024016107b2565b601481015460ff1615611adb57604051632a2af87d60e11b8152600481018490526024016107b2565b60018101546001600160a01b03838116911614611b1c576001810154604051631194af8760e11b81526107b2916001600160a01b031690849060040161439b565b60148101805461ffff19166101011790556015810180546001600160a01b0319166001600160a01b0384161790558054611b55906130a4565b6040516001600160a01b038316815283907f6a85bd8516bd8204e81aa2933301a26c59fc549b80ea554b8628afbcdf21e2c790602001610825565b6000805460408051633a0df78d60e11b8152905183926001600160a01b0316918391839163741bef1a916004808301926020929190829003018186803b158015611bd957600080fd5b505afa158015611bed573d6000803e3d6000fd5b505050506040513d601f19601f82011682018060405250810190611c11919061404c565b60208601516040808801519051637360a1b160e11b81529293506c0c9f2c9cd04674edea4000000092600092839283926001600160a01b0388169263e6c1436292611c5e9260040161439b565b60206040518083038186803b158015611c7657600080fd5b505afa158015611c8a573d6000803e3d6000fd5b505050506040513d601f19601f82011682018060405250810190611cae9190614347565b905083818a60800151611cc191906145e4565b611ccb91906145c2565b60608a01516040808c01519051637360a1b160e11b81529295506000926001600160a01b0389169263e6c1436292611d059260040161439b565b60206040518083038186803b158015611d1d57600080fd5b505afa158015611d31573d6000803e3d6000fd5b505050506040513d601f19601f82011682018060405250810190611d559190614347565b905084818b60c00151611d6891906145e4565b611d7291906145c2565b925050506000856001600160a01b0316636d2745536040518163ffffffff1660e01b815260040160206040518083038186803b158015611db157600080fd5b505afa158015611dc5573d6000803e3d6000fd5b505050506040513d601f19601f82011682018060405250810190611de99190614347565b60208a0151604051635ba2edab60e11b81526001600160a01b0391821660048201529192506000919088169063b745db569060240160206040518083038186803b158015611e3657600080fd5b505afa158015611e4a573d6000803e3d6000fd5b505050506040513d601f19601f82011682018060405250810190611e6e9190614347565b905060008a604001516001600160a01b03168b606001516001600160a01b031614611f175760608b015160405163095bf1bb60e01b81526001600160a01b0391821660048201529089169063095bf1bb9060240160206040518083038186803b158015611eda57600080fd5b505afa158015611eee573d6000803e3d6000fd5b505050506040513d601f19601f82011682018060405250810190611f129190614347565b611f1b565b6127105b9050600081611f2a8486614603565b611f3490886145e4565b611f3e91906145c2565b905080851015611f5c575060009b8c9b509950505050505050505050565b506000612710611f6c84886145e4565b611f7691906145c2565b90506000612710611f8784886145e4565b611f9191906145c2565b9050612710611fa086896145e4565b611faa91906145c2565b9b50611fb681836145aa565b9a5050505050505050505050915091565b60008281526006602052604081206001546008820154611ff3916001600160a01b039081169116612ffd565b6001600160a01b0316336001600160a01b0316146120265760405163a59d7f4d60e01b81523360048201526024016107b2565b601481015460ff161561204f57604051632a2af87d60e11b8152600481018590526024016107b2565b61205884612b73565b60018201549092506001600160a01b03848116911614801590612079575081155b156120a8576001810154604051631194af8760e11b81526107b2916001600160a01b031690859060040161439b565b60148101805460ff191660011790556015810180546001600160a01b0385166001600160a01b031990911617905580546120e1906130a4565b6040516001600160a01b038416815284907f6a85bd8516bd8204e81aa2933301a26c59fc549b80ea554b8628afbcdf21e2c79060200160405180910390a25092915050565b60008181526006602052604090206001546008820154612152916001600160a01b039081169116612ffd565b6001600160a01b0316336001600160a01b0316146121855760405163a59d7f4d60e01b81523360048201526024016107b2565b601481015460ff16156121ae57604051632a2af87d60e11b8152600481018390526024016107b2565b6000546040805163eddf82bb60e01b815290516001600160a01b0390921691829163eddf82bb916004808301926020929190829003018186803b1580156121f457600080fd5b505afa158015612208573d6000803e3d6000fd5b505050506040513d601f19601f8201168201806040525081019061222c9190614347565b826016015461223b91906145aa565b42101561225e5760405163a2757e2760e01b8152600481018490526024016107b2565b60148201805462ff000019166201000017905560405183907f0de9a071731ad64ea412c199b649f11ada453eb6c8b323fc0769345e62316a4990600090a2505050565b6122a9613cd9565b610d048261311f565b60006122bd82612b73565b8015610d045750506000908152600660205260409020601601541590565b60008181526006602052604090206001546008820154612307916001600160a01b039081169116612ffd565b6001600160a01b0316336001600160a01b03161461233a5760405163a59d7f4d60e01b81523360048201526024016107b2565b601481015460ff161561236357604051632a2af87d60e11b8152600481018390526024016107b2565b601481015462010000900460ff166123915760405163746d2b8160e01b8152600481018390526024016107b2565b60148101805463ff0000ff1916630100000117905580546123b1906130a4565b6040516000815282907f6a85bd8516bd8204e81aa2933301a26c59fc549b80ea554b8628afbcdf21e2c79060200160405180910390a25050565b60015460808201515160009161240c916001600160a01b0390911690612ffd565b6001600160a01b0316336001600160a01b03161461243f5760405163a59d7f4d60e01b81523360048201526024016107b2565b600280543091600061245083614631565b9091555060405160609290921b6bffffffffffffffffffffffff19166020830152603482015260540160408051808303601f1901815291815281516020928301208085526000818152600680855283822087518155878601516001820180546001600160a01b03199081166001600160a01b03938416179091558987015160028401805483169184169190911790556060808b0151805160038087018054861692871692909217909155818b01516004870155818a0151600587015581830151968601969096556080908101516007860155808c0151805160088701805486169187169190911790558a0151600986015560a08c01518051600a870180548616918716919091179055808b0151600b870155808a0151600c87015580830151600d8701550151600e85015560c08b0151600f85015560e08b01516010850155610100808c015160118601556101208c015160128601556101408c015160138601556101608c015180516014870180549c8301519b830151929094015161ffff19909c1690151561ff001916179915159091029890981763ffff00001916620100009815159890980263ff000000191697909717630100000098151598909802979097179095556101808801516015820180549097169516949094179094556101a08601516016909301929092558254909350919061264d83614631565b90915550506003805460009081526004602090815260408083208590559254848352600590915282822055835191517f5fab80b8320f567319e4d7377f5305880481272b952242604af9f7f912af3bdb9190a2919050565b8051600090815260066020526040812060015460088201548392916126d6916001600160a01b039182169116612ffd565b6001600160a01b0316336001600160a01b0316146127095760405163a59d7f4d60e01b81523360048201526024016107b2565b601481015460ff1615612735578351604051632a2af87d60e11b815260048101919091526024016107b2565b600181015460408501516001600160a01b0390811691161461277f5760018101546040808601519051631194af8760e11b81526107b2926001600160a01b0316919060040161439b565b60008054604080516375e5807960e01b815290516001600160a01b03909216929183916375e58079916004808301926020929190829003018186803b1580156127c757600080fd5b505afa1580156127db573d6000803e3d6000fd5b505050506040513d601f19601f820116820180604052508101906127ff919061404c565b604080880151905163223884bf60e11b81526001600160a01b03918216600482015291925060009190831690634471097e9060240160206040518083038186803b15801561284c57600080fd5b505afa158015612860573d6000803e3d6000fd5b505050506040513d601f19601f820116820180604052508101906128849190614069565b9050806128b557604080880151905163fa5cd00f60e01b81526001600160a01b0390911660048201526024016107b2565b83600f01548760200151116128dd57604051630309cb8760e51b815260040160405180910390fd5b600884015460405163ac436bdf60e01b81526001600160a01b03918216600482015260009185169063ac436bdf9060240160206040518083038186803b15801561292657600080fd5b505afa15801561293a573d6000803e3d6000fd5b505050506040513d601f19601f8201168201806040525081019061295e9190614347565b90506129706301e133806127106145e4565b85600f015489602001516129849190614603565b60098701546129949084906145e4565b61299e91906145e4565b6129a891906145c2565b600186015460405163172c717b60e01b81526001600160a01b0391821660048201526024810183905291985084169063172c717b9060440160206040518083038186803b1580156129f857600080fd5b505afa158015612a0c573d6000803e3d6000fd5b505050506040513d601f19601f82011682018060405250810190612a309190614347565b96506000846001600160a01b03166358f858806040518163ffffffff1660e01b815260040160206040518083038186803b158015612a6d57600080fd5b505afa158015612a81573d6000803e3d6000fd5b505050506040513d601f19601f82011682018060405250810190612aa59190614347565b9050612710612ab4828a6145e4565b612abe91906145c2565b965087866008016001016000828254612ad791906145aa565b9250508190555087866012016000828254612af291906145aa565b9250508190555086866013016000828254612b0d91906145aa565b9091555050602089810151600f88018190558a516040808d015181519384526001600160a01b031693830193909352917f058d0b7c2499b80403e5adabcc2c3565b19c921a6781e8d474d2bf925b51f21c910160405180910390a2505050505050915091565b600081815260066020818152604080842081516101c0810183528154815260018201546001600160a01b03908116828601526002830154811682850152835160a0808201865260038501548316825260048501548288015260058501548287015296840154606082810191909152600785015460808084019190915281850192909252855180870187526008860154841681526009860154818901528285015285518089018752600a86015484168152600b86015481890152600c86015481880152600d86015481830152600e8601548184015297840197909752600f84015460c0840152601084015460e08401526011840154610100808501919091526012850154610120850152601385015461014085015285519182018652601485015460ff8082161515845291810482161515978301979097526201000087048116151595820195909552630100000090950490931615159484019490945261016084018390526015810154909116610180840152601601546101a08301525115612cfe5750600092915050565b428160c0015111612d125750600192915050565b6000805460408051633a0df78d60e11b815290516001600160a01b039092169291839163741bef1a916004808301926020929190829003018186803b158015612d5a57600080fd5b505afa158015612d6e573d6000803e3d6000fd5b505050506040513d601f19601f82011682018060405250810190612d92919061404c565b60a084015151608085015151604051637360a1b160e11b81529293506000926001600160a01b0385169263e6c1436292612dce9260040161439b565b60206040518083038186803b158015612de657600080fd5b505afa158015612dfa573d6000803e3d6000fd5b505050506040513d601f19601f82011682018060405250810190612e1e9190614347565b90508360a00151606001518111612e3b5750600195945050505050565b606084015151608085015151604051637360a1b160e11b81526000926001600160a01b0386169263e6c1436292612e7692919060040161439b565b60206040518083038186803b158015612e8e57600080fd5b505afa158015612ea2573d6000803e3d6000fd5b505050506040513d601f19601f82011682018060405250810190612ec69190614347565b905060008560e00151118015612ee057508460e001518111155b80612f0057506000856101000151118015612f0057508461010001518110155b80612f1357508460600151606001518111155b15612f25575060019695505050505050565b5060009695505050505050565b6001600160a01b03831615801590612f4a5750600081115b1561082e576040516370a0823160e01b81523060048201526000906001600160a01b038516906370a082319060240160206040518083038186803b158015612f9157600080fd5b505afa158015612fa5573d6000803e3d6000fd5b505050506040513d601f19601f82011682018060405250810190612fc99190614347565b905081811015612fec576040516310bab5a560e11b815260040160405180910390fd5b612ff7848484613a40565b50505050565b604080516001600160a01b03831660208083019190915282518083038201815282840190935282519201919091206001600160f81b031960608084019190915284901b6bffffffffffffffffffffffff1916606183015260758201527ff1036993f1275518585918ce3130714428155c415f20bed4b4bdbb1d7d87aa71609582015260009060b50160408051601f1981840301815291905280516020909101209392505050565b6000818152600560205260409020546003548082146130e5576000818152600460209081526040808320548584528184208190558352600590915290208290555b600380549060006130f58361461a565b90915550506000908152600460209081526040808320839055938252600590529182209190915550565b613127613cd9565b8160e0015142108015613154575081604001516001600160a01b031682602001516001600160a01b031614155b15613a3b576000805460408051633a0df78d60e11b815290516001600160a01b039092169291839163741bef1a916004808301926020929190829003018186803b1580156131a157600080fd5b505afa1580156131b5573d6000803e3d6000fd5b505050506040513d601f19601f820116820180604052508101906131d9919061404c565b60208501516040808701519051637360a1b160e11b81529293506c0c9f2c9cd04674edea4000000092600092839283926001600160a01b0388169263e6c14362926132269260040161439b565b60206040518083038186803b15801561323e57600080fd5b505afa158015613252573d6000803e3d6000fd5b505050506040513d601f19601f820116820180604052508101906132769190614347565b90508088610100015110158061329157508088610120015111155b156132a157505050505050919050565b838189608001516132b291906145e4565b6132bc91906145c2565b60608901516040808b01519051637360a1b160e11b81529295506000926001600160a01b0389169263e6c14362926132f69260040161439b565b60206040518083038186803b15801561330e57600080fd5b505afa158015613322573d6000803e3d6000fd5b505050506040513d601f19601f820116820180604052508101906133469190614347565b905084818a60c0015161335991906145e4565b61336391906145c2565b925061336e89613b71565b97508188606001516040018181525050808860a00151604001818152505050506000856001600160a01b0316636d2745536040518163ffffffff1660e01b815260040160206040518083038186803b1580156133c957600080fd5b505afa1580156133dd573d6000803e3d6000fd5b505050506040513d601f19601f820116820180604052508101906134019190614347565b6020890151604051635ba2edab60e11b81526001600160a01b0391821660048201529192506000919088169063b745db569060240160206040518083038186803b15801561344e57600080fd5b505afa158015613462573d6000803e3d6000fd5b505050506040513d601f19601f820116820180604052508101906134869190614347565b9050600089604001516001600160a01b03168a606001516001600160a01b03161461352f5760608a015160405163095bf1bb60e01b81526001600160a01b0391821660048201529089169063095bf1bb9060240160206040518083038186803b1580156134f257600080fd5b505afa158015613506573d6000803e3d6000fd5b505050506040513d601f19601f8201168201806040525081019061352a9190614347565b613533565b6127105b90506000816135428486614603565b61354c90886145e4565b61355691906145c2565b90508085101561356e57505050505050505050919050565b50600061271061357e84886145e4565b61358891906145c2565b9050600061271061359986896145e4565b6135a391906145c2565b905060006127106135b485896145e4565b6135be91906145c2565b905060006135cc82856145aa565b9050808e60a0015111806135e35750828e60a00151105b156135f957505050505050505050505050919050565b50505060208b015160405163f5d0e17560e01b81526001600160a01b0391821660048201526000918b169063f5d0e1759060240160206040518083038186803b15801561364557600080fd5b505afa158015613659573d6000803e3d6000fd5b505050506040513d601f19601f8201168201806040525081019061367d9190614347565b9050838c6080015161368f91906145e4565b8861369a83856145e4565b6136a491906145e4565b6136ae91906145c2565b60608c8101518101919091528c015160405163017f783b60e61b81526001600160a01b03918216600482015260009250908b1690635fde0ec09060240160206040518083038186803b15801561370357600080fd5b505afa158015613717573d6000803e3d6000fd5b505050506040513d601f19601f8201168201806040525081019061373b9190614347565b905060008382848f60a001516137519190614603565b61375b91906145e4565b61376591906145c2565b90508087101561377f575050505050505050505050919050565b60c08d015161378e8a836145e4565b61379891906145c2565b60a08d015160600152505060408b810151905163ac436bdf60e01b81526001600160a01b0391821660048201526000918b169063ac436bdf9060240160206040518083038186803b1580156137ec57600080fd5b505afa158015613800573d6000803e3d6000fd5b505050506040513d601f19601f820116820180604052508101906138249190614347565b905060006138386301e133806127106145e4565b428e60e001516138489190614603565b838f60a0015161385891906145e4565b61386291906145e4565b61386c91906145c2565b905060008b6001600160a01b03166375e580796040518163ffffffff1660e01b815260040160206040518083038186803b1580156138a957600080fd5b505afa1580156138bd573d6000803e3d6000fd5b505050506040513d601f19601f820116820180604052508101906138e1919061404c565b8e5160405163172c717b60e01b81526001600160a01b0391821660048201526024810185905291925082169063172c717b9060440160206040518083038186803b15801561392e57600080fd5b505afa158015613942573d6000803e3d6000fd5b505050506040513d601f19601f820116820180604052508101906139669190614347565b915060008c6001600160a01b03166358f858806040518163ffffffff1660e01b815260040160206040518083038186803b1580156139a357600080fd5b505afa1580156139b7573d6000803e3d6000fd5b505050506040513d601f19601f820116820180604052508101906139db9190614347565b6101208f0184905290506127106139f282856145e4565b6139fc91906145c2565b6101408f0152505060015460408e0151613a2393506001600160a01b039091169150612ffd565b6001600160a01b031660408b01525050505050505050505b919050565b604080516001600160a01b038481166024830152604480830185905283518084039091018152606490920183526020820180516001600160e01b031663a9059cbb60e01b1790529151600092839290871691613a9c9190614360565b6000604051808303816000865af19150503d8060008114613ad9576040519150601f19603f3d011682016040523d82523d6000602084013e613ade565b606091505b5091509150818015613b08575080511580613b08575080806020019051810190613b089190614069565b613b6a5760405162461bcd60e51b815260206004820152602d60248201527f5472616e7366657248656c7065723a3a736166655472616e736665723a20747260448201526c185b9cd9995c8819985a5b1959609a1b60648201526084016107b2565b5050505050565b613b79613cd9565b604051806101c001604052806000801916815260200183600001516001600160a01b0316815260200160006001600160a01b031681526020016040518060a0016040528085602001516001600160a01b0316815260200185608001518152602001600081526020016000815260200160008152508152602001604051806040016040528085604001516001600160a01b031681526020018560a0015181525081526020016040518060a0016040528085606001516001600160a01b031681526020018560c0015181526020016000815260200160008152602001600081525081526020018360e001518152602001836101000151815260200183610120015181526020016000815260200160008152602001604051806080016040528060001515815260200160001515815260200160001515815260200160001515815250815260200160006001600160a01b0316815260200160008152509050919050565b604051806101c001604052806000801916815260200160006001600160a01b0316815260200160006001600160a01b03168152602001613d4a6040518060a0016040528060006001600160a01b03168152602001600081526020016000815260200160008152602001600081525090565b8152602001613d75604051806040016040528060006001600160a01b03168152602001600081525090565b8152602001613db56040518060a0016040528060006001600160a01b03168152602001600081526020016000815260200160008152602001600081525090565b81526020016000815260200160008152602001600081526020016000815260200160008152602001613e1060405180608001604052806000151581526020016000151581526020016000151581526020016000151581525090565b815260006020820181905260409091015290565b8035613a3b81614662565b600060a08284031215613e4157600080fd5b60405160a0810181811067ffffffffffffffff82111715613e7257634e487b7160e01b600052604160045260246000fd5b6040529050808235613e8381614662565b80825250602083013560208201526040830135604082015260608301356060820152608083013560808201525092915050565b600060408284031215613ec857600080fd5b6040516040810181811067ffffffffffffffff82111715613ef957634e487b7160e01b600052604160045260246000fd5b6040529050808235613f0a81614662565b8152602092830135920191909152919050565b600060808284031215613f2f57600080fd5b6040516080810181811067ffffffffffffffff82111715613f6057634e487b7160e01b600052604160045260246000fd5b6040529050808235613f718161467a565b81526020830135613f818161467a565b60208201526040830135613f948161467a565b60408201526060830135613fa78161467a565b6060919091015292915050565b600060608284031215613fc657600080fd5b6040516060810181811067ffffffffffffffff82111715613ff757634e487b7160e01b600052604160045260246000fd5b80604052508091508235815260208301356020820152604083013561401b81614662565b6040919091015292915050565b60006020828403121561403a57600080fd5b813561404581614662565b9392505050565b60006020828403121561405e57600080fd5b815161404581614662565b60006020828403121561407b57600080fd5b81516140458161467a565b60006020828403121561409857600080fd5b5035919050565b600080604083850312156140b257600080fd5b8235915060208301356140c481614662565b809150509250929050565b600080600080608085870312156140e557600080fd5b5050823594602084013594506040840135936060013592509050565b6000610140828403121561411457600080fd5b61411c614540565b61412583613e24565b815261413360208401613e24565b602082015261414460408401613e24565b604082015261415560608401613e24565b60608201526080830135608082015260a083013560a082015260c083013560c082015260e083013560e08201526101008084013581830152506101208084013581830152508091505092915050565b600061034082840312156141b757600080fd5b6141bf614578565b823581526141cf60208401613e24565b60208201526141e060408401613e24565b60408201526141f28460608501613e2f565b606082015261010061420685828601613eb6565b608083015261014061421a86828701613e2f565b60a08401526101e085013560c084015261020085013560e084015261022085013582840152610240850135610120840152610260850135818401525050614265846102808501613f1d565b6101608201526142786103008401613e24565b61018082015261032092909201356101a083015250919050565b6000606082840312156142a457600080fd5b6140458383613fb4565b600060c082840312156142c057600080fd5b60405160c0810181811067ffffffffffffffff821117156142f157634e487b7160e01b600052604160045260246000fd5b8060405250823581526020830135602082015260408301356040820152606083013561431c81614662565b6060820152608083013561432f81614662565b608082015260a0928301359281019290925250919050565b60006020828403121561435957600080fd5b5051919050565b6000825160005b818110156143815760208186018101518583015201614367565b81811115614390576000828501525b509190910192915050565b6001600160a01b0392831681529116602082015260400190565b815181526020808301516103408301916143d9908401826001600160a01b03169052565b5060408301516143f460408401826001600160a01b03169052565b506060830151614438606084018280516001600160a01b03168252602080820151908301526040808201519083015260608082015190830152608090810151910152565b5060808301516101006144608185018380516001600160a01b03168252602090810151910152565b60a085015180516001600160a01b0316610140868101919091526020820151610160870152604082015161018087015260608201516101a087015260808201516101c087015290925060c08601516101e086015260e0860151610200860152908501516102208501526101208501516102408501528401516102608401525061016083015180511515610280840152602081015115156102a0840152604081015115156102c0840152606081015115156102e0840152506101808301516001600160a01b038116610300840152506101a083015161032083015292915050565b604051610140810167ffffffffffffffff8111828210171561457257634e487b7160e01b600052604160045260246000fd5b60405290565b6040516101c0810167ffffffffffffffff8111828210171561457257634e487b7160e01b600052604160045260246000fd5b600082198211156145bd576145bd61464c565b500190565b6000826145df57634e487b7160e01b600052601260045260246000fd5b500490565b60008160001904831182151516156145fe576145fe61464c565b500290565b6000828210156146155761461561464c565b500390565b6000816146295761462961464c565b506000190190565b60006000198214156146455761464561464c565b5060010190565b634e487b7160e01b600052601160045260246000fd5b6001600160a01b038116811461467757600080fd5b50565b801515811461467757600080fdfea26469706673582212203ba214084ef8ea69d4d7833f5d781f28a60a0b3783f3b952a43312fb11bdc17964736f6c63430008070033",
  "linkReferences": {},
  "deployedLinkReferences": {}
}