{
  "_format": "hh-sol-artifact-1",
  "contractName": "PositionStorage",
  "sourceName": "contracts/PositionStorage.sol",
  "abi": [
    {
      "inputs": [
        {
          "internalType": "address",
          "name": "sender",
          "type": "address"
        }
      ],
      "name": "Forbidden",
      "type": "error"
    },
    {
      "inputs": [],
      "name": "InitializedAlready",
      "type": "error"
    },
    {
      "inputs": [],
      "name": "InvalidParameter",
      "type": "error"
    },
    {
      "inputs": [
        {
          "internalType": "address",
          "name": "user",
          "type": "address"
        }
      ],
      "name": "NotAllowed",
      "type": "error"
    },
    {
      "inputs": [
        {
          "internalType": "address",
          "name": "owner",
          "type": "address"
        },
        {
          "internalType": "address",
          "name": "updater",
          "type": "address"
        }
      ],
      "name": "NotOwner",
      "type": "error"
    },
    {
      "inputs": [
        {
          "internalType": "bytes32",
          "name": "positionKey",
          "type": "bytes32"
        }
      ],
      "name": "Step1NotDone",
      "type": "error"
    },
    {
      "inputs": [
        {
          "internalType": "bytes32",
          "name": "positionKey",
          "type": "bytes32"
        }
      ],
      "name": "TradePositionClosedAlready",
      "type": "error"
    },
    {
      "inputs": [
        {
          "internalType": "bytes32",
          "name": "positionKey",
          "type": "bytes32"
        }
      ],
      "name": "TradePositionNotClosed",
      "type": "error"
    },
    {
      "inputs": [
        {
          "internalType": "bytes32",
          "name": "positionKey",
          "type": "bytes32"
        }
      ],
      "name": "TradePositionNotExists",
      "type": "error"
    },
    {
      "anonymous": false,
      "inputs": [
        {
          "indexed": true,
          "internalType": "bytes32",
          "name": "positionKey",
          "type": "bytes32"
        }
      ],
      "name": "CloseManuallyStep1TradePosition",
      "type": "event"
    },
    {
      "anonymous": false,
      "inputs": [
        {
          "indexed": true,
          "internalType": "bytes32",
          "name": "positionKey",
          "type": "bytes32"
        },
        {
          "indexed": false,
          "internalType": "address",
          "name": "updater",
          "type": "address"
        }
      ],
      "name": "CloseTradePosition",
      "type": "event"
    },
    {
      "anonymous": false,
      "inputs": [
        {
          "indexed": true,
          "internalType": "bytes32",
          "name": "positionKey",
          "type": "bytes32"
        }
      ],
      "name": "OpenTradePosition",
      "type": "event"
    },
    {
      "anonymous": false,
      "inputs": [
        {
          "indexed": true,
          "internalType": "bytes32",
          "name": "positionKey",
          "type": "bytes32"
        },
        {
          "indexed": false,
          "internalType": "uint256",
          "name": "amount",
          "type": "uint256"
        },
        {
          "indexed": false,
          "internalType": "uint256",
          "name": "collateralLiqPrice",
          "type": "uint256"
        },
        {
          "indexed": false,
          "internalType": "uint256",
          "name": "baseLiqPrice",
          "type": "uint256"
        },
        {
          "indexed": false,
          "internalType": "address",
          "name": "updater",
          "type": "address"
        }
      ],
      "name": "UpdateCollateralAmount",
      "type": "event"
    },
    {
      "anonymous": false,
      "inputs": [
        {
          "indexed": true,
          "internalType": "bytes32",
          "name": "positionKey",
          "type": "bytes32"
        },
        {
          "indexed": false,
          "internalType": "uint256",
          "name": "newDeadline",
          "type": "uint256"
        },
        {
          "indexed": false,
          "internalType": "address",
          "name": "updater",
          "type": "address"
        }
      ],
      "name": "UpdateDeadline",
      "type": "event"
    },
    {
      "anonymous": false,
      "inputs": [
        {
          "indexed": true,
          "internalType": "bytes32",
          "name": "positionKey",
          "type": "bytes32"
        },
        {
          "indexed": false,
          "internalType": "uint256",
          "name": "newStoplossPrice",
          "type": "uint256"
        },
        {
          "indexed": false,
          "internalType": "address",
          "name": "updater",
          "type": "address"
        }
      ],
      "name": "UpdateStoplossPrice",
      "type": "event"
    },
    {
      "inputs": [
        {
          "internalType": "bytes32",
          "name": "_positionKey",
          "type": "bytes32"
        }
      ],
      "name": "canLiquidate",
      "outputs": [
        {
          "internalType": "bool",
          "name": "",
          "type": "bool"
        }
      ],
      "stateMutability": "view",
      "type": "function"
    },
    {
      "inputs": [
        {
          "internalType": "bytes32",
          "name": "_positionKey",
          "type": "bytes32"
        }
      ],
      "name": "closeManuallyStep1",
      "outputs": [],
      "stateMutability": "nonpayable",
      "type": "function"
    },
    {
      "inputs": [
        {
          "internalType": "bytes32",
          "name": "_positionKey",
          "type": "bytes32"
        }
      ],
      "name": "closeManuallyStep2",
      "outputs": [],
      "stateMutability": "nonpayable",
      "type": "function"
    },
    {
      "inputs": [],
      "name": "factory",
      "outputs": [
        {
          "internalType": "address",
          "name": "",
          "type": "address"
        }
      ],
      "stateMutability": "view",
      "type": "function"
    },
    {
      "inputs": [
        {
          "components": [
            {
              "internalType": "address",
              "name": "owner",
              "type": "address"
            },
            {
              "internalType": "address",
              "name": "baseToken",
              "type": "address"
            },
            {
              "internalType": "address",
              "name": "quoteToken",
              "type": "address"
            },
            {
              "internalType": "address",
              "name": "collateral",
              "type": "address"
            },
            {
              "internalType": "uint256",
              "name": "baseAmount",
              "type": "uint256"
            },
            {
              "internalType": "uint256",
              "name": "quoteAmount",
              "type": "uint256"
            },
            {
              "internalType": "uint256",
              "name": "collateralAmount",
              "type": "uint256"
            },
            {
              "internalType": "uint256",
              "name": "deadline",
              "type": "uint256"
            },
            {
              "internalType": "uint256",
              "name": "stoplossPrice",
              "type": "uint256"
            }
          ],
          "internalType": "struct IPositionStorage.OpenTradePositionParams",
          "name": "_params",
          "type": "tuple"
        }
      ],
      "name": "getMinCollateralAmount",
      "outputs": [
        {
          "internalType": "uint256",
          "name": "",
          "type": "uint256"
        }
      ],
      "stateMutability": "view",
      "type": "function"
    },
    {
      "inputs": [
        {
          "components": [
            {
              "internalType": "address",
              "name": "owner",
              "type": "address"
            },
            {
              "internalType": "address",
              "name": "baseToken",
              "type": "address"
            },
            {
              "internalType": "address",
              "name": "quoteToken",
              "type": "address"
            },
            {
              "internalType": "address",
              "name": "collateral",
              "type": "address"
            },
            {
              "internalType": "uint256",
              "name": "baseAmount",
              "type": "uint256"
            },
            {
              "internalType": "uint256",
              "name": "quoteAmount",
              "type": "uint256"
            },
            {
              "internalType": "uint256",
              "name": "collateralAmount",
              "type": "uint256"
            },
            {
              "internalType": "uint256",
              "name": "deadline",
              "type": "uint256"
            },
            {
              "internalType": "uint256",
              "name": "stoplossPrice",
              "type": "uint256"
            }
          ],
          "internalType": "struct IPositionStorage.OpenTradePositionParams",
          "name": "_params",
          "type": "tuple"
        }
      ],
      "name": "getQuoteAmountRange",
      "outputs": [
        {
          "internalType": "uint256",
          "name": "minQuoteAmount",
          "type": "uint256"
        },
        {
          "internalType": "uint256",
          "name": "maxQuoteAmount",
          "type": "uint256"
        }
      ],
      "stateMutability": "view",
      "type": "function"
    },
    {
      "inputs": [
        {
          "components": [
            {
              "internalType": "bytes32",
              "name": "positionKey",
              "type": "bytes32"
            },
            {
              "internalType": "address",
              "name": "owner",
              "type": "address"
            },
            {
              "internalType": "address",
              "name": "pool",
              "type": "address"
            },
            {
              "components": [
                {
                  "internalType": "address",
                  "name": "id",
                  "type": "address"
                },
                {
                  "internalType": "uint256",
                  "name": "amount",
                  "type": "uint256"
                },
                {
                  "internalType": "uint256",
                  "name": "entryPrice",
                  "type": "uint256"
                },
                {
                  "internalType": "uint256",
                  "name": "liqPrice",
                  "type": "uint256"
                },
                {
                  "internalType": "uint256",
                  "name": "closePrice",
                  "type": "uint256"
                }
              ],
              "internalType": "struct IPositionStorage.BaseToken",
              "name": "baseToken",
              "type": "tuple"
            },
            {
              "components": [
                {
                  "internalType": "address",
                  "name": "id",
                  "type": "address"
                },
                {
                  "internalType": "uint256",
                  "name": "amount",
                  "type": "uint256"
                }
              ],
              "internalType": "struct IPositionStorage.QuoteToken",
              "name": "quoteToken",
              "type": "tuple"
            },
            {
              "components": [
                {
                  "internalType": "address",
                  "name": "id",
                  "type": "address"
                },
                {
                  "internalType": "uint256",
                  "name": "amount",
                  "type": "uint256"
                },
                {
                  "internalType": "uint256",
                  "name": "entryPrice",
                  "type": "uint256"
                },
                {
                  "internalType": "uint256",
                  "name": "liqPrice",
                  "type": "uint256"
                },
                {
                  "internalType": "uint256",
                  "name": "closePrice",
                  "type": "uint256"
                }
              ],
              "internalType": "struct IPositionStorage.Collateral",
              "name": "collateral",
              "type": "tuple"
            },
            {
              "internalType": "uint256",
              "name": "deadline",
              "type": "uint256"
            },
            {
              "internalType": "uint256",
              "name": "stoplossPrice",
              "type": "uint256"
            },
            {
              "internalType": "uint256",
              "name": "fee",
              "type": "uint256"
            },
            {
              "internalType": "uint256",
              "name": "protocolFee",
              "type": "uint256"
            },
            {
              "components": [
                {
                  "internalType": "bool",
                  "name": "isClosed",
                  "type": "bool"
                },
                {
                  "internalType": "bool",
                  "name": "isExpired",
                  "type": "bool"
                },
                {
                  "internalType": "bool",
                  "name": "isStoploss",
                  "type": "bool"
                },
                {
                  "internalType": "bool",
                  "name": "isBaseLiquidated",
                  "type": "bool"
                },
                {
                  "internalType": "bool",
                  "name": "isCollateralLiquidated",
                  "type": "bool"
                },
                {
                  "internalType": "bool",
                  "name": "isRollbacked",
                  "type": "bool"
                },
                {
                  "internalType": "bool",
                  "name": "isClosedManuallyStep1",
                  "type": "bool"
                },
                {
                  "internalType": "bool",
                  "name": "isClosedManuallyStep2",
                  "type": "bool"
                }
              ],
              "internalType": "struct IPositionStorage.Status",
              "name": "status",
              "type": "tuple"
            },
            {
              "internalType": "address",
              "name": "closer",
              "type": "address"
            }
          ],
          "internalType": "struct IPositionStorage.TradePosition",
          "name": "_pos",
          "type": "tuple"
        }
      ],
      "name": "openTradePosition",
      "outputs": [
        {
          "internalType": "bytes32",
          "name": "positionKey",
          "type": "bytes32"
        }
      ],
      "stateMutability": "nonpayable",
      "type": "function"
    },
    {
      "inputs": [
        {
          "internalType": "uint256",
          "name": "_index",
          "type": "uint256"
        }
      ],
      "name": "openingPositionKey",
      "outputs": [
        {
          "internalType": "bytes32",
          "name": "",
          "type": "bytes32"
        }
      ],
      "stateMutability": "view",
      "type": "function"
    },
    {
      "inputs": [
        {
          "internalType": "uint256",
          "name": "",
          "type": "uint256"
        }
      ],
      "name": "openingPositionKeys",
      "outputs": [
        {
          "internalType": "bytes32",
          "name": "",
          "type": "bytes32"
        }
      ],
      "stateMutability": "view",
      "type": "function"
    },
    {
      "inputs": [],
      "name": "openingPositionLength",
      "outputs": [
        {
          "internalType": "uint256",
          "name": "",
          "type": "uint256"
        }
      ],
      "stateMutability": "view",
      "type": "function"
    },
    {
      "inputs": [
        {
          "internalType": "uint256",
          "name": "_index",
          "type": "uint256"
        }
      ],
      "name": "position",
      "outputs": [
        {
          "components": [
            {
              "internalType": "bytes32",
              "name": "positionKey",
              "type": "bytes32"
            },
            {
              "internalType": "address",
              "name": "owner",
              "type": "address"
            },
            {
              "internalType": "address",
              "name": "pool",
              "type": "address"
            },
            {
              "components": [
                {
                  "internalType": "address",
                  "name": "id",
                  "type": "address"
                },
                {
                  "internalType": "uint256",
                  "name": "amount",
                  "type": "uint256"
                },
                {
                  "internalType": "uint256",
                  "name": "entryPrice",
                  "type": "uint256"
                },
                {
                  "internalType": "uint256",
                  "name": "liqPrice",
                  "type": "uint256"
                },
                {
                  "internalType": "uint256",
                  "name": "closePrice",
                  "type": "uint256"
                }
              ],
              "internalType": "struct IPositionStorage.BaseToken",
              "name": "baseToken",
              "type": "tuple"
            },
            {
              "components": [
                {
                  "internalType": "address",
                  "name": "id",
                  "type": "address"
                },
                {
                  "internalType": "uint256",
                  "name": "amount",
                  "type": "uint256"
                }
              ],
              "internalType": "struct IPositionStorage.QuoteToken",
              "name": "quoteToken",
              "type": "tuple"
            },
            {
              "components": [
                {
                  "internalType": "address",
                  "name": "id",
                  "type": "address"
                },
                {
                  "internalType": "uint256",
                  "name": "amount",
                  "type": "uint256"
                },
                {
                  "internalType": "uint256",
                  "name": "entryPrice",
                  "type": "uint256"
                },
                {
                  "internalType": "uint256",
                  "name": "liqPrice",
                  "type": "uint256"
                },
                {
                  "internalType": "uint256",
                  "name": "closePrice",
                  "type": "uint256"
                }
              ],
              "internalType": "struct IPositionStorage.Collateral",
              "name": "collateral",
              "type": "tuple"
            },
            {
              "internalType": "uint256",
              "name": "deadline",
              "type": "uint256"
            },
            {
              "internalType": "uint256",
              "name": "stoplossPrice",
              "type": "uint256"
            },
            {
              "internalType": "uint256",
              "name": "fee",
              "type": "uint256"
            },
            {
              "internalType": "uint256",
              "name": "protocolFee",
              "type": "uint256"
            },
            {
              "components": [
                {
                  "internalType": "bool",
                  "name": "isClosed",
                  "type": "bool"
                },
                {
                  "internalType": "bool",
                  "name": "isExpired",
                  "type": "bool"
                },
                {
                  "internalType": "bool",
                  "name": "isStoploss",
                  "type": "bool"
                },
                {
                  "internalType": "bool",
                  "name": "isBaseLiquidated",
                  "type": "bool"
                },
                {
                  "internalType": "bool",
                  "name": "isCollateralLiquidated",
                  "type": "bool"
                },
                {
                  "internalType": "bool",
                  "name": "isRollbacked",
                  "type": "bool"
                },
                {
                  "internalType": "bool",
                  "name": "isClosedManuallyStep1",
                  "type": "bool"
                },
                {
                  "internalType": "bool",
                  "name": "isClosedManuallyStep2",
                  "type": "bool"
                }
              ],
              "internalType": "struct IPositionStorage.Status",
              "name": "status",
              "type": "tuple"
            },
            {
              "internalType": "address",
              "name": "closer",
              "type": "address"
            }
          ],
          "internalType": "struct IPositionStorage.TradePosition",
          "name": "",
          "type": "tuple"
        }
      ],
      "stateMutability": "view",
      "type": "function"
    },
    {
      "inputs": [
        {
          "internalType": "bytes32",
          "name": "_positionKey",
          "type": "bytes32"
        }
      ],
      "name": "positionByKey",
      "outputs": [
        {
          "components": [
            {
              "internalType": "bytes32",
              "name": "positionKey",
              "type": "bytes32"
            },
            {
              "internalType": "address",
              "name": "owner",
              "type": "address"
            },
            {
              "internalType": "address",
              "name": "pool",
              "type": "address"
            },
            {
              "components": [
                {
                  "internalType": "address",
                  "name": "id",
                  "type": "address"
                },
                {
                  "internalType": "uint256",
                  "name": "amount",
                  "type": "uint256"
                },
                {
                  "internalType": "uint256",
                  "name": "entryPrice",
                  "type": "uint256"
                },
                {
                  "internalType": "uint256",
                  "name": "liqPrice",
                  "type": "uint256"
                },
                {
                  "internalType": "uint256",
                  "name": "closePrice",
                  "type": "uint256"
                }
              ],
              "internalType": "struct IPositionStorage.BaseToken",
              "name": "baseToken",
              "type": "tuple"
            },
            {
              "components": [
                {
                  "internalType": "address",
                  "name": "id",
                  "type": "address"
                },
                {
                  "internalType": "uint256",
                  "name": "amount",
                  "type": "uint256"
                }
              ],
              "internalType": "struct IPositionStorage.QuoteToken",
              "name": "quoteToken",
              "type": "tuple"
            },
            {
              "components": [
                {
                  "internalType": "address",
                  "name": "id",
                  "type": "address"
                },
                {
                  "internalType": "uint256",
                  "name": "amount",
                  "type": "uint256"
                },
                {
                  "internalType": "uint256",
                  "name": "entryPrice",
                  "type": "uint256"
                },
                {
                  "internalType": "uint256",
                  "name": "liqPrice",
                  "type": "uint256"
                },
                {
                  "internalType": "uint256",
                  "name": "closePrice",
                  "type": "uint256"
                }
              ],
              "internalType": "struct IPositionStorage.Collateral",
              "name": "collateral",
              "type": "tuple"
            },
            {
              "internalType": "uint256",
              "name": "deadline",
              "type": "uint256"
            },
            {
              "internalType": "uint256",
              "name": "stoplossPrice",
              "type": "uint256"
            },
            {
              "internalType": "uint256",
              "name": "fee",
              "type": "uint256"
            },
            {
              "internalType": "uint256",
              "name": "protocolFee",
              "type": "uint256"
            },
            {
              "components": [
                {
                  "internalType": "bool",
                  "name": "isClosed",
                  "type": "bool"
                },
                {
                  "internalType": "bool",
                  "name": "isExpired",
                  "type": "bool"
                },
                {
                  "internalType": "bool",
                  "name": "isStoploss",
                  "type": "bool"
                },
                {
                  "internalType": "bool",
                  "name": "isBaseLiquidated",
                  "type": "bool"
                },
                {
                  "internalType": "bool",
                  "name": "isCollateralLiquidated",
                  "type": "bool"
                },
                {
                  "internalType": "bool",
                  "name": "isRollbacked",
                  "type": "bool"
                },
                {
                  "internalType": "bool",
                  "name": "isClosedManuallyStep1",
                  "type": "bool"
                },
                {
                  "internalType": "bool",
                  "name": "isClosedManuallyStep2",
                  "type": "bool"
                }
              ],
              "internalType": "struct IPositionStorage.Status",
              "name": "status",
              "type": "tuple"
            },
            {
              "internalType": "address",
              "name": "closer",
              "type": "address"
            }
          ],
          "internalType": "struct IPositionStorage.TradePosition",
          "name": "pos",
          "type": "tuple"
        }
      ],
      "stateMutability": "view",
      "type": "function"
    },
    {
      "inputs": [
        {
          "internalType": "bytes32",
          "name": "",
          "type": "bytes32"
        }
      ],
      "name": "positionIndex",
      "outputs": [
        {
          "internalType": "uint256",
          "name": "",
          "type": "uint256"
        }
      ],
      "stateMutability": "view",
      "type": "function"
    },
    {
      "inputs": [
        {
          "internalType": "address",
          "name": "_user",
          "type": "address"
        },
        {
          "internalType": "uint256",
          "name": "_index",
          "type": "uint256"
        }
      ],
      "name": "positionKeyByUser",
      "outputs": [
        {
          "internalType": "bytes32",
          "name": "",
          "type": "bytes32"
        }
      ],
      "stateMutability": "view",
      "type": "function"
    },
    {
      "inputs": [],
      "name": "positionLength",
      "outputs": [
        {
          "internalType": "uint256",
          "name": "",
          "type": "uint256"
        }
      ],
      "stateMutability": "view",
      "type": "function"
    },
    {
      "inputs": [
        {
          "internalType": "uint256",
          "name": "",
          "type": "uint256"
        }
      ],
      "name": "positions",
      "outputs": [
        {
          "internalType": "bytes32",
          "name": "positionKey",
          "type": "bytes32"
        },
        {
          "internalType": "address",
          "name": "owner",
          "type": "address"
        },
        {
          "internalType": "address",
          "name": "pool",
          "type": "address"
        },
        {
          "components": [
            {
              "internalType": "address",
              "name": "id",
              "type": "address"
            },
            {
              "internalType": "uint256",
              "name": "amount",
              "type": "uint256"
            },
            {
              "internalType": "uint256",
              "name": "entryPrice",
              "type": "uint256"
            },
            {
              "internalType": "uint256",
              "name": "liqPrice",
              "type": "uint256"
            },
            {
              "internalType": "uint256",
              "name": "closePrice",
              "type": "uint256"
            }
          ],
          "internalType": "struct IPositionStorage.BaseToken",
          "name": "baseToken",
          "type": "tuple"
        },
        {
          "components": [
            {
              "internalType": "address",
              "name": "id",
              "type": "address"
            },
            {
              "internalType": "uint256",
              "name": "amount",
              "type": "uint256"
            }
          ],
          "internalType": "struct IPositionStorage.QuoteToken",
          "name": "quoteToken",
          "type": "tuple"
        },
        {
          "components": [
            {
              "internalType": "address",
              "name": "id",
              "type": "address"
            },
            {
              "internalType": "uint256",
              "name": "amount",
              "type": "uint256"
            },
            {
              "internalType": "uint256",
              "name": "entryPrice",
              "type": "uint256"
            },
            {
              "internalType": "uint256",
              "name": "liqPrice",
              "type": "uint256"
            },
            {
              "internalType": "uint256",
              "name": "closePrice",
              "type": "uint256"
            }
          ],
          "internalType": "struct IPositionStorage.Collateral",
          "name": "collateral",
          "type": "tuple"
        },
        {
          "internalType": "uint256",
          "name": "deadline",
          "type": "uint256"
        },
        {
          "internalType": "uint256",
          "name": "stoplossPrice",
          "type": "uint256"
        },
        {
          "internalType": "uint256",
          "name": "fee",
          "type": "uint256"
        },
        {
          "internalType": "uint256",
          "name": "protocolFee",
          "type": "uint256"
        },
        {
          "components": [
            {
              "internalType": "bool",
              "name": "isClosed",
              "type": "bool"
            },
            {
              "internalType": "bool",
              "name": "isExpired",
              "type": "bool"
            },
            {
              "internalType": "bool",
              "name": "isStoploss",
              "type": "bool"
            },
            {
              "internalType": "bool",
              "name": "isBaseLiquidated",
              "type": "bool"
            },
            {
              "internalType": "bool",
              "name": "isCollateralLiquidated",
              "type": "bool"
            },
            {
              "internalType": "bool",
              "name": "isRollbacked",
              "type": "bool"
            },
            {
              "internalType": "bool",
              "name": "isClosedManuallyStep1",
              "type": "bool"
            },
            {
              "internalType": "bool",
              "name": "isClosedManuallyStep2",
              "type": "bool"
            }
          ],
          "internalType": "struct IPositionStorage.Status",
          "name": "status",
          "type": "tuple"
        },
        {
          "internalType": "address",
          "name": "closer",
          "type": "address"
        }
      ],
      "stateMutability": "view",
      "type": "function"
    },
    {
      "inputs": [
        {
          "components": [
            {
              "internalType": "address",
              "name": "owner",
              "type": "address"
            },
            {
              "internalType": "address",
              "name": "baseToken",
              "type": "address"
            },
            {
              "internalType": "address",
              "name": "quoteToken",
              "type": "address"
            },
            {
              "internalType": "address",
              "name": "collateral",
              "type": "address"
            },
            {
              "internalType": "uint256",
              "name": "baseAmount",
              "type": "uint256"
            },
            {
              "internalType": "uint256",
              "name": "quoteAmount",
              "type": "uint256"
            },
            {
              "internalType": "uint256",
              "name": "collateralAmount",
              "type": "uint256"
            },
            {
              "internalType": "uint256",
              "name": "deadline",
              "type": "uint256"
            },
            {
              "internalType": "uint256",
              "name": "stoplossPrice",
              "type": "uint256"
            }
          ],
          "internalType": "struct IPositionStorage.OpenTradePositionParams",
          "name": "_params",
          "type": "tuple"
        }
      ],
      "name": "previewTradePosition",
      "outputs": [
        {
          "components": [
            {
              "internalType": "bytes32",
              "name": "positionKey",
              "type": "bytes32"
            },
            {
              "internalType": "address",
              "name": "owner",
              "type": "address"
            },
            {
              "internalType": "address",
              "name": "pool",
              "type": "address"
            },
            {
              "components": [
                {
                  "internalType": "address",
                  "name": "id",
                  "type": "address"
                },
                {
                  "internalType": "uint256",
                  "name": "amount",
                  "type": "uint256"
                },
                {
                  "internalType": "uint256",
                  "name": "entryPrice",
                  "type": "uint256"
                },
                {
                  "internalType": "uint256",
                  "name": "liqPrice",
                  "type": "uint256"
                },
                {
                  "internalType": "uint256",
                  "name": "closePrice",
                  "type": "uint256"
                }
              ],
              "internalType": "struct IPositionStorage.BaseToken",
              "name": "baseToken",
              "type": "tuple"
            },
            {
              "components": [
                {
                  "internalType": "address",
                  "name": "id",
                  "type": "address"
                },
                {
                  "internalType": "uint256",
                  "name": "amount",
                  "type": "uint256"
                }
              ],
              "internalType": "struct IPositionStorage.QuoteToken",
              "name": "quoteToken",
              "type": "tuple"
            },
            {
              "components": [
                {
                  "internalType": "address",
                  "name": "id",
                  "type": "address"
                },
                {
                  "internalType": "uint256",
                  "name": "amount",
                  "type": "uint256"
                },
                {
                  "internalType": "uint256",
                  "name": "entryPrice",
                  "type": "uint256"
                },
                {
                  "internalType": "uint256",
                  "name": "liqPrice",
                  "type": "uint256"
                },
                {
                  "internalType": "uint256",
                  "name": "closePrice",
                  "type": "uint256"
                }
              ],
              "internalType": "struct IPositionStorage.Collateral",
              "name": "collateral",
              "type": "tuple"
            },
            {
              "internalType": "uint256",
              "name": "deadline",
              "type": "uint256"
            },
            {
              "internalType": "uint256",
              "name": "stoplossPrice",
              "type": "uint256"
            },
            {
              "internalType": "uint256",
              "name": "fee",
              "type": "uint256"
            },
            {
              "internalType": "uint256",
              "name": "protocolFee",
              "type": "uint256"
            },
            {
              "components": [
                {
                  "internalType": "bool",
                  "name": "isClosed",
                  "type": "bool"
                },
                {
                  "internalType": "bool",
                  "name": "isExpired",
                  "type": "bool"
                },
                {
                  "internalType": "bool",
                  "name": "isStoploss",
                  "type": "bool"
                },
                {
                  "internalType": "bool",
                  "name": "isBaseLiquidated",
                  "type": "bool"
                },
                {
                  "internalType": "bool",
                  "name": "isCollateralLiquidated",
                  "type": "bool"
                },
                {
                  "internalType": "bool",
                  "name": "isRollbacked",
                  "type": "bool"
                },
                {
                  "internalType": "bool",
                  "name": "isClosedManuallyStep1",
                  "type": "bool"
                },
                {
                  "internalType": "bool",
                  "name": "isClosedManuallyStep2",
                  "type": "bool"
                }
              ],
              "internalType": "struct IPositionStorage.Status",
              "name": "status",
              "type": "tuple"
            },
            {
              "internalType": "address",
              "name": "closer",
              "type": "address"
            }
          ],
          "internalType": "struct IPositionStorage.TradePosition",
          "name": "",
          "type": "tuple"
        }
      ],
      "stateMutability": "view",
      "type": "function"
    },
    {
      "inputs": [
        {
          "components": [
            {
              "internalType": "bytes32",
              "name": "positionKey",
              "type": "bytes32"
            },
            {
              "internalType": "uint256",
              "name": "amount",
              "type": "uint256"
            },
            {
              "internalType": "address",
              "name": "updater",
              "type": "address"
            }
          ],
          "internalType": "struct IPositionStorage.UpdateCollateralAmountParams",
          "name": "_params",
          "type": "tuple"
        }
      ],
      "name": "previewUpdateCollateralAmount",
      "outputs": [
        {
          "internalType": "uint256",
          "name": "collateralLiqPrice",
          "type": "uint256"
        },
        {
          "internalType": "uint256",
          "name": "baseLiqPrice",
          "type": "uint256"
        }
      ],
      "stateMutability": "view",
      "type": "function"
    },
    {
      "inputs": [
        {
          "components": [
            {
              "internalType": "bytes32",
              "name": "positionKey",
              "type": "bytes32"
            },
            {
              "internalType": "uint256",
              "name": "deadline",
              "type": "uint256"
            },
            {
              "internalType": "address",
              "name": "updater",
              "type": "address"
            }
          ],
          "internalType": "struct IPositionStorage.UpdateDeadlineParams",
          "name": "_params",
          "type": "tuple"
        }
      ],
      "name": "previewUpdateDeadline",
      "outputs": [
        {
          "internalType": "uint256",
          "name": "fee",
          "type": "uint256"
        },
        {
          "internalType": "uint256",
          "name": "protocolFee",
          "type": "uint256"
        }
      ],
      "stateMutability": "view",
      "type": "function"
    },
    {
      "inputs": [
        {
          "internalType": "bytes32",
          "name": "_positionKey",
          "type": "bytes32"
        },
        {
          "internalType": "address",
          "name": "_updater",
          "type": "address"
        }
      ],
      "name": "rollback",
      "outputs": [],
      "stateMutability": "nonpayable",
      "type": "function"
    },
    {
      "inputs": [
        {
          "internalType": "address",
          "name": "_factory",
          "type": "address"
        }
      ],
      "name": "setFactory",
      "outputs": [],
      "stateMutability": "nonpayable",
      "type": "function"
    },
    {
      "inputs": [
        {
          "internalType": "bytes32",
          "name": "_positionKey",
          "type": "bytes32"
        },
        {
          "internalType": "uint256",
          "name": "_baseValue",
          "type": "uint256"
        },
        {
          "internalType": "uint256",
          "name": "_loss",
          "type": "uint256"
        },
        {
          "internalType": "uint256",
          "name": "_remainingCollateralAmount",
          "type": "uint256"
        }
      ],
      "name": "updateCloseValues",
      "outputs": [],
      "stateMutability": "nonpayable",
      "type": "function"
    },
    {
      "inputs": [
        {
          "components": [
            {
              "internalType": "bytes32",
              "name": "positionKey",
              "type": "bytes32"
            },
            {
              "internalType": "uint256",
              "name": "amount",
              "type": "uint256"
            },
            {
              "internalType": "address",
              "name": "updater",
              "type": "address"
            }
          ],
          "internalType": "struct IPositionStorage.UpdateCollateralAmountParams",
          "name": "_params",
          "type": "tuple"
        }
      ],
      "name": "updateCollateralAmount",
      "outputs": [
        {
          "internalType": "uint256",
          "name": "collateralLiqPrice",
          "type": "uint256"
        },
        {
          "internalType": "uint256",
          "name": "baseLiqPrice",
          "type": "uint256"
        }
      ],
      "stateMutability": "nonpayable",
      "type": "function"
    },
    {
      "inputs": [
        {
          "components": [
            {
              "internalType": "bytes32",
              "name": "positionKey",
              "type": "bytes32"
            },
            {
              "internalType": "uint256",
              "name": "deadline",
              "type": "uint256"
            },
            {
              "internalType": "address",
              "name": "updater",
              "type": "address"
            }
          ],
          "internalType": "struct IPositionStorage.UpdateDeadlineParams",
          "name": "_params",
          "type": "tuple"
        }
      ],
      "name": "updateDeadline",
      "outputs": [
        {
          "internalType": "uint256",
          "name": "fee",
          "type": "uint256"
        },
        {
          "internalType": "uint256",
          "name": "protocolFee",
          "type": "uint256"
        }
      ],
      "stateMutability": "nonpayable",
      "type": "function"
    },
    {
      "inputs": [
        {
          "internalType": "bytes32",
          "name": "_positionKey",
          "type": "bytes32"
        },
        {
          "internalType": "address",
          "name": "_updater",
          "type": "address"
        }
      ],
      "name": "updateStatus",
      "outputs": [
        {
          "internalType": "bool",
          "name": "needLiquidate",
          "type": "bool"
        }
      ],
      "stateMutability": "nonpayable",
      "type": "function"
    },
    {
      "inputs": [
        {
          "components": [
            {
              "internalType": "bytes32",
              "name": "positionKey",
              "type": "bytes32"
            },
            {
              "internalType": "uint256",
              "name": "stoplossPrice",
              "type": "uint256"
            },
            {
              "internalType": "address",
              "name": "updater",
              "type": "address"
            }
          ],
          "internalType": "struct IPositionStorage.UpdateStoplossPriceParams",
          "name": "_params",
          "type": "tuple"
        }
      ],
      "name": "updateStoplossPrice",
      "outputs": [],
      "stateMutability": "nonpayable",
      "type": "function"
    },
    {
      "inputs": [
        {
          "internalType": "address",
          "name": "_user",
          "type": "address"
        }
      ],
      "name": "userPositionLength",
      "outputs": [
        {
          "internalType": "uint256",
          "name": "",
          "type": "uint256"
        }
      ],
      "stateMutability": "view",
      "type": "function"
    }
  ],
  "bytecode": "0x608060405234801561001057600080fd5b5061563980620000216000396000f3fe608060405234801561001057600080fd5b50600436106101a95760003560e01c806399fbab88116100f9578063c6663cab11610097578063f71139f711610071578063f71139f7146103da578063f7a5f254146103ed578063f7a95a9e1461040d578063fc9ffe101461042057600080fd5b8063c6663cab1461038b578063da23479f1461039e578063dbd99a13146103b157600080fd5b8063a827acf5116100d3578063a827acf514610332578063ac00b6741461033a578063b008c0581461034d578063c45a01551461036057600080fd5b806399fbab88146102e15780639a1023411461030c578063a0d5d1261461031f57600080fd5b80634f26f457116101665780635bb47808116101405780635bb478081461028557806361ba1508146102985780637c08ddc9146102bb5780638b029d61146102ce57600080fd5b80634f26f45714610257578063539826a61461026a578063558ea8541461027257600080fd5b80630771e3a3146101ae5780631636e199146101d45780631a37982d146101e95780632fb817fc14610209578063302d60921461021c57806337f368641461022f575b600080fd5b6101c16101bc3660046150e8565b610433565b6040519081526020015b60405180910390f35b6101e76101e2366004615253565b61082f565b005b6101fc6101f73660046150e8565b610a1c565b6040516101cb91906153eb565b6101c1610217366004615024565b610a33565b6101c161022a36600461506d565b610a70565b61024261023d366004615253565b610a91565b604080519283526020830191909152016101cb565b610242610265366004615253565b6110e9565b6001546101c1565b6102426102803660046150e8565b611539565b6101e7610293366004614fe3565b6119c2565b6102ab6102a636600461506d565b611a0e565b60405190151581526020016101cb565b6102426102c9366004615253565b611e25565b6101e76102dc3660046150b6565b612489565b6102f46102ef36600461506d565b61270c565b6040516101cb9c9b9a9998979695949392919061534e565b6101e761031a366004615086565b61299d565b6101fc61032d36600461506d565b612b8c565b6002546101c1565b6102ab610348366004615086565b612d7f565b6101e761035b36600461506d565b6131b0565b600054610373906001600160a01b031681565b6040516001600160a01b0390911681526020016101cb565b6101c161039936600461517f565b613332565b6101c16103ac36600461506d565b61380c565b6101c16103bf366004614fe3565b6001600160a01b031660009081526004602052604090205490565b6101e76103e836600461506d565b613833565b6101c16103fb36600461506d565b60036020526000908152604090205481565b6101fc61041b36600461506d565b6139eb565b61024261042e366004615253565b613bc6565b60008060008054906101000a90046001600160a01b031690506000816001600160a01b031663741bef1a6040518163ffffffff1660e01b815260040160206040518083038186803b15801561048757600080fd5b505afa15801561049b573d6000803e3d6000fd5b505050506040513d601f19601f820116820180604052508101906104bf9190615007565b90506000816001600160a01b031663aaf5eb686040518163ffffffff1660e01b815260040160206040518083038186803b1580156104fc57600080fd5b505afa158015610510573d6000803e3d6000fd5b505050506040513d601f19601f82011682018060405250810190610534919061526f565b9050600080836001600160a01b031663e6c14362886020015189604001516040518363ffffffff1660e01b815260040161056f929190615334565b60206040518083038186803b15801561058757600080fd5b505afa15801561059b573d6000803e3d6000fd5b505050506040513d601f19601f820116820180604052508101906105bf919061526f565b9050828188608001516105d2919061557b565b6105dc9190615559565b9150506000846001600160a01b0316636d2745536040518163ffffffff1660e01b815260040160206040518083038186803b15801561061a57600080fd5b505afa15801561062e573d6000803e3d6000fd5b505050506040513d601f19601f82011682018060405250810190610652919061526f565b6020880151604051635ba2edab60e11b81526001600160a01b0391821660048201529192506000919087169063b745db569060240160206040518083038186803b15801561069f57600080fd5b505afa1580156106b3573d6000803e3d6000fd5b505050506040513d601f19601f820116820180604052508101906106d7919061526f565b606089015160405163095bf1bb60e01b81526001600160a01b0391821660048201529192506000919088169063095bf1bb9060240160206040518083038186803b15801561072457600080fd5b505afa158015610738573d6000803e3d6000fd5b505050506040513d601f19601f8201168201806040525081019061075c919061526f565b905060008161076b848661559a565b610775908761557b565b61077f9190615559565b60608b01516040808d01519051637360a1b160e11b81529293506000926001600160a01b038b169263e6c14362926107b992600401615334565b60206040518083038186803b1580156107d157600080fd5b505afa1580156107e5573d6000803e3d6000fd5b505050506040513d601f19601f82011682018060405250810190610809919061526f565b905080610816888461557b565b6108209190615559565b9b9a5050505050505050505050565b8051600090815260036020526040902054806108695781516040516354ec2eeb60e01b815260048101919091526024015b60405180910390fd5b60006001828154811061087e5761087e6155c7565b60009182526020822091546015919091029091016008810154604051634d83bc3360e01b81526001600160a01b039182166004820152919350909116908190634d83bc339060240160206040518083038186803b1580156108de57600080fd5b505afa1580156108f2573d6000803e3d6000fd5b505050506040513d601f19601f820116820180604052508101906109169190615007565b6001600160a01b0316336001600160a01b0316146109495760405163a59d7f4d60e01b8152336004820152602401610860565b601382015460ff1615610975578351604051632a2af87d60e11b81526004810191909152602401610860565b600182015460408501516001600160a01b039081169116146109bf5760018201546040808601519051631194af8760e11b8152610860926001600160a01b03169190600401615334565b60208481015160108401819055855160408088015181519384526001600160a01b031693830193909352917f16ecc3716f8ba588e1f42501972bcac92c1672192e042949e6d3847a1bde9b5d91015b60405180910390a250505050565b610a24614c47565b610a2d82614131565b92915050565b6001600160a01b0382166000908152600460205260408120805483908110610a5d57610a5d6155c7565b9060005260206000200154905092915050565b60028181548110610a8057600080fd5b600091825260209091200154905081565b8051600090815260036020526040812054819080156110e357600060018281548110610abf57610abf6155c7565b60009182526020808320604080516101808101825260159094029091018054845260018101546001600160a01b03908116858501526002820154811685840152825160a080820185526003840154831682526004808501548388015260058501548387015260068501546060848101919091526007860154608080860191909152818a0194909452865180880188526008870154861681526009870154818a0152848a015286518084018852600a87015486168152600b870154818a0152600c87015481890152600d87015481830152600e87015481860152838a0152600f86015460c0808b0191909152601087015460e0808c01919091526011880154610100808d019190915260128901546101208d015289518082018b5260138a015460ff8082161515835292810483161515828e015262010000810483161515828d015263010000008104831615159582019590955264010000000085048216151597810197909752600160281b84048116151595870195909552600160301b83048516151591860191909152600160381b909104909216151591830191909152610140870191909152601490920154811661016086015285548351633a0df78d60e11b81529351959750169493859363741bef1a938084019391929190829003018186803b158015610cae57600080fd5b505afa158015610cc2573d6000803e3d6000fd5b505050506040513d601f19601f82011682018060405250810190610ce69190615007565b90506000816001600160a01b031663aaf5eb686040518163ffffffff1660e01b815260040160206040518083038186803b158015610d2357600080fd5b505afa158015610d37573d6000803e3d6000fd5b505050506040513d601f19601f82011682018060405250810190610d5b919061526f565b60a08501515160405163095bf1bb60e01b81526001600160a01b0391821660048201529192506000919085169063095bf1bb9060240160206040518083038186803b158015610da957600080fd5b505afa158015610dbd573d6000803e3d6000fd5b505050506040513d601f19601f82011682018060405250810190610de1919061526f565b9050600089602001518660a0015160200151610dfd9190615541565b60a087015151608088015151604051637360a1b160e11b815292935060009283926001600160a01b0389169263e6c1436292610e3d929190600401615334565b60206040518083038186803b158015610e5557600080fd5b505afa158015610e69573d6000803e3d6000fd5b505050506040513d601f19601f82011682018060405250810190610e8d919061526f565b9050610e9b8561271061557b565b84610ea6838661557b565b610eb0919061557b565b610eba9190615559565b60a08901515160405163017f783b60e61b81526001600160a01b03918216600482015291935060009250881690635fde0ec09060240160206040518083038186803b158015610f0857600080fd5b505afa158015610f1c573d6000803e3d6000fd5b505050506040513d601f19601f82011682018060405250810190610f40919061526f565b9050610f4c848461557b565b85610f57838561557b565b610f61919061557b565b610f6b9190615559565b606089015151604051635ba2edab60e11b81526001600160a01b039182166004820152919c506000925088169063b745db569060240160206040518083038186803b158015610fb957600080fd5b505afa158015610fcd573d6000803e3d6000fd5b505050506040513d601f19601f82011682018060405250810190610ff1919061526f565b60608901515160405163f5d0e17560e01b81526001600160a01b0391821660048201529192506000919089169063f5d0e1759060240160206040518083038186803b15801561103f57600080fd5b505afa158015611053573d6000803e3d6000fd5b505050506040513d601f19601f82011682018060405250810190611077919061526f565b90508289608001516020015111156110d95760008282858c60800151602001516110a1919061559a565b6110ab919061557b565b6110b59190615559565b60608b0151602001519091506110cb888361557b565b6110d59190615559565b9b50505b5050505050505050505b50915091565b8051600090815260036020526040812054819080156110e357600060018281548110611117576111176155c7565b60009182526020808320604080516101808101825260159094029091018054845260018101546001600160a01b03908116858501526002820154811685840152825160a080820185526003840154831682526004808501548388015260058501548387015260068501546060848101919091526007860154608080860191909152818a0194909452865180880188526008870154861681526009870154818a0152848a015286518084018852600a87015486168152600b870154818a0152600c87015481890152600d87015481830152600e87015481860152838a0152600f86015460c0808b0191909152601087015460e0808c01919091526011880154610100808d019190915260128901546101208d015289518082018b5260138a015460ff8082161515835292810483161515828e015262010000810483161515828d015263010000008104831615159582019590955264010000000085048216151597810197909752600160281b84048116151595870195909552600160301b83048516151591860191909152600160381b9091049092161515918301919091526101408701919091526014909201548116610160860152855483516375e5807960e01b8152935195975016949385936375e58079938084019391929190829003018186803b15801561130657600080fd5b505afa15801561131a573d6000803e3d6000fd5b505050506040513d601f19601f8201168201806040525081019061133e9190615007565b90508260c001518760200151116115305760808301515160405163ac436bdf60e01b81526001600160a01b03918216600482015260009184169063ac436bdf9060240160206040518083038186803b15801561139957600080fd5b505afa1580156113ad573d6000803e3d6000fd5b505050506040513d601f19601f820116820180604052508101906113d1919061526f565b905064496cebb8008460c0015189602001516113ed919061559a565b82866080015160200151611401919061557b565b61140b919061557b565b6114159190615559565b602085015160405163172c717b60e01b81526001600160a01b0391821660048201526024810183905291985083169063172c717b9060440160206040518083038186803b15801561146557600080fd5b505afa158015611479573d6000803e3d6000fd5b505050506040513d601f19601f8201168201806040525081019061149d919061526f565b96506000836001600160a01b03166358f858806040518163ffffffff1660e01b815260040160206040518083038186803b1580156114da57600080fd5b505afa1580156114ee573d6000803e3d6000fd5b505050506040513d601f19601f82011682018060405250810190611512919061526f565b9050612710611521828a61557b565b61152b9190615559565b965050505b50505050915091565b6000805460408051633a0df78d60e11b8152905183926001600160a01b0316918391839163741bef1a916004808301926020929190829003018186803b15801561158257600080fd5b505afa158015611596573d6000803e3d6000fd5b505050506040513d601f19601f820116820180604052508101906115ba9190615007565b90506000816001600160a01b031663aaf5eb686040518163ffffffff1660e01b815260040160206040518083038186803b1580156115f757600080fd5b505afa15801561160b573d6000803e3d6000fd5b505050506040513d601f19601f8201168201806040525081019061162f919061526f565b9050600080836001600160a01b031663e6c1436289602001518a604001516040518363ffffffff1660e01b815260040161166a929190615334565b60206040518083038186803b15801561168257600080fd5b505afa158015611696573d6000803e3d6000fd5b505050506040513d601f19601f820116820180604052508101906116ba919061526f565b9050828189608001516116cd919061557b565b6116d79190615559565b9150506000846001600160a01b0316636d2745536040518163ffffffff1660e01b815260040160206040518083038186803b15801561171557600080fd5b505afa158015611729573d6000803e3d6000fd5b505050506040513d601f19601f8201168201806040525081019061174d919061526f565b6020890151604051635ba2edab60e11b81526001600160a01b0391821660048201529192506000919087169063b745db569060240160206040518083038186803b15801561179a57600080fd5b505afa1580156117ae573d6000803e3d6000fd5b505050506040513d601f19601f820116820180604052508101906117d2919061526f565b60608a015160405163095bf1bb60e01b81526001600160a01b0391821660048201529192506000919088169063095bf1bb9060240160206040518083038186803b15801561181f57600080fd5b505afa158015611833573d6000803e3d6000fd5b505050506040513d601f19601f82011682018060405250810190611857919061526f565b60608b01516040808d01519051637360a1b160e11b81529293506000926001600160a01b038a169263e6c143629261189192600401615334565b60206040518083038186803b1580156118a957600080fd5b505afa1580156118bd573d6000803e3d6000fd5b505050506040513d601f19601f820116820180604052508101906118e1919061526f565b90506000826118f0858761559a565b6118fa908861557b565b6119049190615559565b9050600082611913898461557b565b61191d9190615559565b9050808d60c001511015611940575060009c8d9c509a5050505050505050505050565b50600090506119518761271061557b565b83838e60c00151611962919061557b565b61196c919061557b565b6119769190615559565b9050612710611985868861557b565b61198f9190615559565b9a5061271061199e858861557b565b6119a89190615559565b6119b29082615541565b9950505050505050505050915091565b6000546001600160a01b0316156119ec576040516373e833b960e11b815260040160405180910390fd5b600080546001600160a01b0319166001600160a01b0392909216919091179055565b60008181526003602052604081205480611a2b5750600092915050565b600060018281548110611a4057611a406155c7565b6000918252602091829020604080516101808101825260159093029091018054835260018101546001600160a01b03908116848601526002820154811684840152825160a080820185526003840154831682526004840154828801526005840154828601526006840154606083810191909152600785015460808085019190915281880193909352855180870187526008860154851681526009860154818a01528388015285518083018752600a86015485168152600b860154818a0152600c86015481880152600d86015481830152600e8601548185015282880152600f85015460c080890191909152601086015460e0808a01919091526011870154610100808b019190915260128801546101208b015288518082018a52601389015460ff80821615158352928104831615159c82019c909c52620100008c04821615159981019990995263010000008b0481161515938901939093526401000000008a048316151594880194909452600160281b89048216151592870192909252600160301b88048116151591860191909152600160381b909604909516151594830194909452610140830182905260140154909216610160820152905190915015611c0d575060009392505050565b428160c0015111611c22575060019392505050565b6000805460408051633a0df78d60e11b815290516001600160a01b039092169291839163741bef1a916004808301926020929190829003018186803b158015611c6a57600080fd5b505afa158015611c7e573d6000803e3d6000fd5b505050506040513d601f19601f82011682018060405250810190611ca29190615007565b60a084015151608085015151604051637360a1b160e11b81529293506000926001600160a01b0385169263e6c1436292611cde92600401615334565b60206040518083038186803b158015611cf657600080fd5b505afa158015611d0a573d6000803e3d6000fd5b505050506040513d601f19601f82011682018060405250810190611d2e919061526f565b90508360a00151606001518111611d4c575060019695505050505050565b606084015151608085015151604051637360a1b160e11b81526000926001600160a01b0386169263e6c1436292611d87929190600401615334565b60206040518083038186803b158015611d9f57600080fd5b505afa158015611db3573d6000803e3d6000fd5b505050506040513d601f19601f82011682018060405250810190611dd7919061526f565b905060008560e00151118015611df157508460e001518111155b80611e0457508460600151606001518111155b15611e1757506001979650505050505050565b506000979650505050505050565b8051600090815260036020526040812054819080611e5c5783516040516354ec2eeb60e01b81526004810191909152602401610860565b600060018281548110611e7157611e716155c7565b60009182526020822091546015919091029091016008810154604051634d83bc3360e01b81526001600160a01b039182166004820152919350909116908190634d83bc339060240160206040518083038186803b158015611ed157600080fd5b505afa158015611ee5573d6000803e3d6000fd5b505050506040513d601f19601f82011682018060405250810190611f099190615007565b6001600160a01b0316336001600160a01b031614611f3c5760405163a59d7f4d60e01b8152336004820152602401610860565b601382015460ff1615611f68578551604051632a2af87d60e11b81526004810191909152602401610860565b600182015460408701516001600160a01b03908116911614611fb25760018201546040808801519051631194af8760e11b8152610860926001600160a01b03169190600401615334565b6000816001600160a01b031663741bef1a6040518163ffffffff1660e01b815260040160206040518083038186803b158015611fed57600080fd5b505afa158015612001573d6000803e3d6000fd5b505050506040513d601f19601f820116820180604052508101906120259190615007565b90506000816001600160a01b031663aaf5eb686040518163ffffffff1660e01b815260040160206040518083038186803b15801561206257600080fd5b505afa158015612076573d6000803e3d6000fd5b505050506040513d601f19601f8201168201806040525081019061209a919061526f565b600a85015460405163095bf1bb60e01b81526001600160a01b0391821660048201529192506000919085169063095bf1bb9060240160206040518083038186803b1580156120e757600080fd5b505afa1580156120fb573d6000803e3d6000fd5b505050506040513d601f19601f8201168201806040525081019061211f919061526f565b90506000896020015186600a016001015461213a9190615541565b600a8701546008880154604051637360a1b160e11b815292935060009283926001600160a01b038981169363e6c143629361217e9383169290911690600401615334565b60206040518083038186803b15801561219657600080fd5b505afa1580156121aa573d6000803e3d6000fd5b505050506040513d601f19601f820116820180604052508101906121ce919061526f565b90506121dc8561271061557b565b846121e7838661557b565b6121f1919061557b565b6121fb9190615559565b600a89015460405163017f783b60e61b81526001600160a01b03918216600482015291935060009250881690635fde0ec09060240160206040518083038186803b15801561224857600080fd5b505afa15801561225c573d6000803e3d6000fd5b505050506040513d601f19601f82011682018060405250810190612280919061526f565b905061228c848461557b565b85612297838561557b565b6122a1919061557b565b6122ab9190615559565b6003890154604051635ba2edab60e11b81526001600160a01b039182166004820152919c506000925088169063b745db569060240160206040518083038186803b1580156122f857600080fd5b505afa15801561230c573d6000803e3d6000fd5b505050506040513d601f19601f82011682018060405250810190612330919061526f565b600389015460405163f5d0e17560e01b81526001600160a01b0391821660048201529192506000919089169063f5d0e1759060240160206040518083038186803b15801561237d57600080fd5b505afa158015612391573d6000803e3d6000fd5b505050506040513d601f19601f820116820180604052508101906123b5919061526f565b905082896008016001015411156124115760008282858c600801600101546123dd919061559a565b6123e7919061557b565b6123f19190615559565b60048b0154909150612403888361557b565b61240d9190615559565b9b50505b5050600d87018a9055600687018990558a516020808d01516040808f015181519283529282018e905281018c90526001600160a01b0390911660608201527f31c8ad1ea38b652c0e26ae4e5b255569097fbc4b46f45768030a16ee40f894df9060800160405180910390a25050505050505050915091565b600084815260036020526040902054806124b9576040516354ec2eeb60e01b815260048101869052602401610860565b6000600182815481106124ce576124ce6155c7565b60009182526020822091546015919091029091016008810154604051634d83bc3360e01b81526001600160a01b039182166004820152919350909116908190634d83bc339060240160206040518083038186803b15801561252e57600080fd5b505afa158015612542573d6000803e3d6000fd5b505050506040513d601f19601f820116820180604052508101906125669190615007565b6001600160a01b0316336001600160a01b0316146125995760405163a59d7f4d60e01b8152336004820152602401610860565b601382015460ff166125c157604051635de41db760e11b815260048101889052602401610860565b6000816001600160a01b031663741bef1a6040518163ffffffff1660e01b815260040160206040518083038186803b1580156125fc57600080fd5b505afa158015612610573d6000803e3d6000fd5b505050506040513d601f19601f820116820180604052508101906126349190615007565b90506000816001600160a01b031663aaf5eb686040518163ffffffff1660e01b815260040160206040518083038186803b15801561267157600080fd5b505afa158015612685573d6000803e3d6000fd5b505050506040513d601f19601f820116820180604052508101906126a9919061526f565b60048501549091506126bb828a61557b565b6126c59190615559565b6007850155861561270157600b8401546000906126e390889061559a565b9050806126f0838a61557b565b6126fa9190615559565b600e860155505b505050505050505050565b6001818154811061271c57600080fd5b90600052602060002090601502016000915090508060000154908060010160009054906101000a90046001600160a01b0316908060020160009054906101000a90046001600160a01b031690806003016040518060a00160405290816000820160009054906101000a90046001600160a01b03166001600160a01b03166001600160a01b0316815260200160018201548152602001600282015481526020016003820154815260200160048201548152505090806008016040518060400160405290816000820160009054906101000a90046001600160a01b03166001600160a01b03166001600160a01b031681526020016001820154815250509080600a016040518060a00160405290816000820160009054906101000a90046001600160a01b03166001600160a01b03166001600160a01b031681526020016001820154815260200160028201548152602001600382015481526020016004820154815250509080600f01549080601001549080601101549080601201549080601301604051806101000160405290816000820160009054906101000a900460ff161515151581526020016000820160019054906101000a900460ff161515151581526020016000820160029054906101000a900460ff161515151581526020016000820160039054906101000a900460ff161515151581526020016000820160049054906101000a900460ff161515151581526020016000820160059054906101000a900460ff161515151581526020016000820160069054906101000a900460ff161515151581526020016000820160079054906101000a900460ff161515151581525050908060140160009054906101000a90046001600160a01b031690508c565b600082815260036020526040902054806129cd576040516354ec2eeb60e01b815260048101849052602401610860565b6000600182815481106129e2576129e26155c7565b60009182526020822091546015919091029091016008810154604051634d83bc3360e01b81526001600160a01b039182166004820152919350909116908190634d83bc339060240160206040518083038186803b158015612a4257600080fd5b505afa158015612a56573d6000803e3d6000fd5b505050506040513d601f19601f82011682018060405250810190612a7a9190615007565b6001600160a01b0316336001600160a01b031614612aad5760405163a59d7f4d60e01b8152336004820152602401610860565b601382015460ff1615612ad657604051632a2af87d60e11b815260048101869052602401610860565b60018201546001600160a01b03858116911614612b17576001820154604051631194af8760e11b8152610860916001600160a01b0316908690600401615334565b60138201805465ff00000000ff1916650100000000011790556014820180546001600160a01b0319166001600160a01b03861690811790915560405190815285907f6a85bd8516bd8204e81aa2933301a26c59fc549b80ea554b8628afbcdf21e2c79060200160405180910390a25050505050565b612b94614c47565b6000828152600360205260409020548015612d795760018181548110612bbc57612bbc6155c7565b6000918252602091829020604080516101808101825260159093029091018054835260018101546001600160a01b03908116848601526002820154811684840152825160a080820185526003840154831682526004840154828801526005840154828601526006840154606083810191909152600785015460808085019190915281880193909352855180870187526008860154851681526009860154818a01528388015285518083018752600a86015485168152600b860154818a0152600c86015481880152600d86015481830152600e8601548185015282880152600f85015460c080890191909152601086015460e0808a01919091526011870154610100808b019190915260128801546101208b015288518082018a52601389015460ff80821615158352928104831615159c82019c909c52620100008c04821615159981019990995263010000008b0481161515938901939093526401000000008a048316151594880194909452600160281b89048216151592870192909252600160301b88048116151591860191909152600160381b9096049095161515948301949094526101408301919091526014015490911661016082015291505b50919050565b60008281526003602052604081205480612daf576040516354ec2eeb60e01b815260048101859052602401610860565b600060018281548110612dc457612dc46155c7565b60009182526020822091546015919091029091016008810154604051634d83bc3360e01b81526001600160a01b039182166004820152919350909116908190634d83bc339060240160206040518083038186803b158015612e2457600080fd5b505afa158015612e38573d6000803e3d6000fd5b505050506040513d601f19601f82011682018060405250810190612e5c9190615007565b6001600160a01b0316336001600160a01b031614612e8f5760405163a59d7f4d60e01b8152336004820152602401610860565b601382015460ff1615612eb857604051632a2af87d60e11b815260048101879052602401610860565b4282600f015411612ed95760138201805461ff001916610100179055600193505b6000816001600160a01b031663741bef1a6040518163ffffffff1660e01b815260040160206040518083038186803b158015612f1457600080fd5b505afa158015612f28573d6000803e3d6000fd5b505050506040513d601f19601f82011682018060405250810190612f4c9190615007565b600a8401546008850154604051637360a1b160e11b81529293506000926001600160a01b038086169363e6c1436293612f8d93918316921690600401615334565b60206040518083038186803b158015612fa557600080fd5b505afa158015612fb9573d6000803e3d6000fd5b505050506040513d601f19601f82011682018060405250810190612fdd919061526f565b600d85015490915081116130075760138401805464ff000000001916640100000000179055600195505b60038401546008850154604051637360a1b160e11b81526000926001600160a01b038681169363e6c14362936130469383169290911690600401615334565b60206040518083038186803b15801561305e57600080fd5b505afa158015613072573d6000803e3d6000fd5b505050506040513d601f19601f82011682018060405250810190613096919061526f565b9050600085601001541180156130b0575084601001548111155b156130cd5760138501805462ff0000191662010000179055600196505b600685015481116130f25760138501805463ff00000019166301000000179055600196505b60018501546001600160a01b03898116911614801590613110575086155b1561313f576001850154604051631194af8760e11b8152610860916001600160a01b0316908a90600401615334565b60138501805460ff191660011790556014850180546001600160a01b038a166001600160a01b0319909116811790915560405190815289907f6a85bd8516bd8204e81aa2933301a26c59fc549b80ea554b8628afbcdf21e2c79060200160405180910390a250505050505092915050565b600081815260036020526040902054806131e0576040516354ec2eeb60e01b815260048101839052602401610860565b6000600182815481106131f5576131f56155c7565b60009182526020822091546015919091029091016008810154604051634d83bc3360e01b81526001600160a01b039182166004820152919350909116908190634d83bc339060240160206040518083038186803b15801561325557600080fd5b505afa158015613269573d6000803e3d6000fd5b505050506040513d601f19601f8201168201806040525081019061328d9190615007565b6001600160a01b0316336001600160a01b0316146132c05760405163a59d7f4d60e01b8152336004820152602401610860565b601382015460ff16156132e957604051632a2af87d60e11b815260048101859052602401610860565b60138201805466ff0000000000001916600160301b17905560405184907f0de9a071731ad64ea412c199b649f11ada453eb6c8b323fc0769345e62316a4990600090a250505050565b60008054608083015151604051634d83bc3360e01b81526001600160a01b0391821660048201529116908190634d83bc339060240160206040518083038186803b15801561337f57600080fd5b505afa158015613393573d6000803e3d6000fd5b505050506040513d601f19601f820116820180604052508101906133b79190615007565b6001600160a01b0316336001600160a01b0316146133ea5760405163a59d7f4d60e01b8152336004820152602401610860565b6001546040516bffffffffffffffffffffffff193060601b16602082015260348101919091524260548201526074016040516020818303038152906040528051906020012091508183600001818152505060018390806001815401808255809150506001900390600052602060002090601502016000909190919091506000820151816000015560208201518160010160006101000a8154816001600160a01b0302191690836001600160a01b0316021790555060408201518160020160006101000a8154816001600160a01b0302191690836001600160a01b0316021790555060608201518160030160008201518160000160006101000a8154816001600160a01b0302191690836001600160a01b0316021790555060208201518160010155604082015181600201556060820151816003015560808201518160040155505060808201518160080160008201518160000160006101000a8154816001600160a01b0302191690836001600160a01b0316021790555060208201518160010155505060a082015181600a0160008201518160000160006101000a8154816001600160a01b0302191690836001600160a01b0316021790555060208201518160010155604082015181600201556060820151816003015560808201518160040155505060c082015181600f015560e08201518160100155610100820151816011015561012082015181601201556101408201518160130160008201518160000160006101000a81548160ff02191690831515021790555060208201518160000160016101000a81548160ff02191690831515021790555060408201518160000160026101000a81548160ff02191690831515021790555060608201518160000160036101000a81548160ff02191690831515021790555060808201518160000160046101000a81548160ff02191690831515021790555060a08201518160000160056101000a81548160ff02191690831515021790555060c08201518160000160066101000a81548160ff02191690831515021790555060e08201518160000160076101000a81548160ff02191690831515021790555050506101608201518160140160006101000a8154816001600160a01b0302191690836001600160a01b0316021790555050506001805490506003600085600001518152602001908152602001600020819055506002836000015190806001815401808255809150506001900390600052602060002001600090919091909150556004600084602001516001600160a01b03166001600160a01b031681526020019081526020016000208360000151908060018154018082558091505060019003906000526020600020016000909190919091505582600001517f5fab80b8320f567319e4d7377f5305880481272b952242604af9f7f912af3bdb60405160405180910390a250919050565b600060028281548110613821576138216155c7565b90600052602060002001549050919050565b60008181526003602052604090205480613863576040516354ec2eeb60e01b815260048101839052602401610860565b600060018281548110613878576138786155c7565b60009182526020822091546015919091029091016008810154604051634d83bc3360e01b81526001600160a01b039182166004820152919350909116908190634d83bc339060240160206040518083038186803b1580156138d857600080fd5b505afa1580156138ec573d6000803e3d6000fd5b505050506040513d601f19601f820116820180604052508101906139109190615007565b6001600160a01b0316336001600160a01b0316146139435760405163a59d7f4d60e01b8152336004820152602401610860565b601382015460ff161561396c57604051632a2af87d60e11b815260048101859052602401610860565b6013820154600160301b900460ff1661399b5760405163746d2b8160e01b815260048101859052602401610860565b60138201805467ff000000000000ff19166701000000000000011790556040516000815284907f6a85bd8516bd8204e81aa2933301a26c59fc549b80ea554b8628afbcdf21e2c790602001610a0e565b6139f3614c47565b60018281548110613a0657613a066155c7565b6000918252602091829020604080516101808101825260159093029091018054835260018101546001600160a01b03908116848601526002820154811684840152825160a080820185526003840154831682526004840154828801526005840154828601526006840154606083810191909152600785015460808085019190915281880193909352855180870187526008860154851681526009860154818a01528388015285518083018752600a86015485168152600b860154818a0152600c86015481880152600d86015481830152600e8601548185015282880152600f85015460c080890191909152601086015460e0808a01919091526011870154610100808b019190915260128801546101208b015288518082018a52601389015460ff80821615158352928104831615159c82019c909c52620100008c04821615159981019990995263010000008b0481161515938901939093526401000000008a048316151594880194909452600160281b89048216151592870192909252600160301b88048116151591860191909152600160381b9096049095161515948301949094526101408301919091526014015490911661016082015292915050565b8051600090815260036020526040812054819080613bfd5783516040516354ec2eeb60e01b81526004810191909152602401610860565b600060018281548110613c1257613c126155c7565b60009182526020822091546015919091029091016008810154604051634d83bc3360e01b81526001600160a01b039182166004820152919350909116908190634d83bc339060240160206040518083038186803b158015613c7257600080fd5b505afa158015613c86573d6000803e3d6000fd5b505050506040513d601f19601f82011682018060405250810190613caa9190615007565b6001600160a01b0316336001600160a01b031614613cdd5760405163a59d7f4d60e01b8152336004820152602401610860565b601382015460ff1615613d09578551604051632a2af87d60e11b81526004810191909152602401610860565b600182015460408701516001600160a01b03908116911614613d535760018201546040808801519051631194af8760e11b8152610860926001600160a01b03169190600401615334565b6000816001600160a01b03166375e580796040518163ffffffff1660e01b815260040160206040518083038186803b158015613d8e57600080fd5b505afa158015613da2573d6000803e3d6000fd5b505050506040513d601f19601f82011682018060405250810190613dc69190615007565b604080890151905163223884bf60e11b81526001600160a01b03918216600482015291925060009190831690634471097e9060240160206040518083038186803b158015613e1357600080fd5b505afa158015613e27573d6000803e3d6000fd5b505050506040513d601f19601f82011682018060405250810190613e4b9190615050565b905080613e7c57604080890151905163fa5cd00f60e01b81526001600160a01b039091166004820152602401610860565b83600f0154886020015111613ea457604051630309cb8760e51b815260040160405180910390fd5b600884015460405163ac436bdf60e01b81526001600160a01b03918216600482015260009185169063ac436bdf9060240160206040518083038186803b158015613eed57600080fd5b505afa158015613f01573d6000803e3d6000fd5b505050506040513d601f19601f82011682018060405250810190613f25919061526f565b905064496cebb80085600f01548a60200151613f41919061559a565b6009870154613f5190849061557b565b613f5b919061557b565b613f659190615559565b600186015460405163172c717b60e01b81526001600160a01b0391821660048201526024810183905291995084169063172c717b9060440160206040518083038186803b158015613fb557600080fd5b505afa158015613fc9573d6000803e3d6000fd5b505050506040513d601f19601f82011682018060405250810190613fed919061526f565b97506000846001600160a01b03166358f858806040518163ffffffff1660e01b815260040160206040518083038186803b15801561402a57600080fd5b505afa15801561403e573d6000803e3d6000fd5b505050506040513d601f19601f82011682018060405250810190614062919061526f565b9050612710614071828b61557b565b61407b9190615559565b9750888660080160010160008282546140949190615541565b92505081905550888660110160008282546140af9190615541565b92505081905550878660120160008282546140ca9190615541565b909155505060208a810151600f88018190558b516040808e015181519384526001600160a01b031693830193909352917f058d0b7c2499b80403e5adabcc2c3565b19c921a6781e8d474d2bf925b51f21c910160405180910390a250505050505050915091565b614139614c47565b8160e0015142108015614166575081604001516001600160a01b031682602001516001600160a01b031614155b15614ac7576000805460408051633a0df78d60e11b815290516001600160a01b039092169291839163741bef1a916004808301926020929190829003018186803b1580156141b357600080fd5b505afa1580156141c7573d6000803e3d6000fd5b505050506040513d601f19601f820116820180604052508101906141eb9190615007565b90506000816001600160a01b031663aaf5eb686040518163ffffffff1660e01b815260040160206040518083038186803b15801561422857600080fd5b505afa15801561423c573d6000803e3d6000fd5b505050506040513d601f19601f82011682018060405250810190614260919061526f565b9050600080836001600160a01b031663e6c14362886020015189604001516040518363ffffffff1660e01b815260040161429b929190615334565b60206040518083038186803b1580156142b357600080fd5b505afa1580156142c7573d6000803e3d6000fd5b505050506040513d601f19601f820116820180604052508101906142eb919061526f565b90506142f78782614acc565b95508281886080015161430a919061557b565b6143149190615559565b9150506000846001600160a01b0316636d2745536040518163ffffffff1660e01b815260040160206040518083038186803b15801561435257600080fd5b505afa158015614366573d6000803e3d6000fd5b505050506040513d601f19601f8201168201806040525081019061438a919061526f565b6020880151604051635ba2edab60e11b81526001600160a01b0391821660048201529192506000919087169063b745db569060240160206040518083038186803b1580156143d757600080fd5b505afa1580156143eb573d6000803e3d6000fd5b505050506040513d601f19601f8201168201806040525081019061440f919061526f565b606089015160405163095bf1bb60e01b81526001600160a01b0391821660048201529192506000919088169063095bf1bb9060240160206040518083038186803b15801561445c57600080fd5b505afa158015614470573d6000803e3d6000fd5b505050506040513d601f19601f82011682018060405250810190614494919061526f565b60608a01516040808c01519051637360a1b160e11b81529293506000926001600160a01b038a169263e6c14362926144ce92600401615334565b60206040518083038186803b1580156144e657600080fd5b505afa1580156144fa573d6000803e3d6000fd5b505050506040513d601f19601f8201168201806040525081019061451e919061526f565b905060008261452d858761559a565b614537908861557b565b6145419190615559565b9050600082614550898461557b565b61455a9190615559565b9050808c60c0015110156145775750505050505050505050919050565b50600090506145888761271061557b565b83838d60c00151614599919061557b565b6145a3919061557b565b6145ad9190615559565b905060006127106145be878961557b565b6145c89190615559565b905060006127106145d9878a61557b565b6145e39190615559565b6145ed9084615541565b9050808d60a0015111806146045750818d60a00151105b15614619575050505050505050505050919050565b505060a08a0151604090810183905260608c0151905163017f783b60e61b81526001600160a01b0391821660048201526000918b1690635fde0ec09060240160206040518083038186803b15801561467057600080fd5b505afa158015614684573d6000803e3d6000fd5b505050506040513d601f19601f820116820180604052508101906146a8919061526f565b9050838c60c001516146ba919061557b565b886146c5838561557b565b6146cf919061557b565b6146d99190615559565b60a08c0151606001525060208b015160405163f5d0e17560e01b81526001600160a01b0391821660048201526000918b169063f5d0e1759060240160206040518083038186803b15801561472c57600080fd5b505afa158015614740573d6000803e3d6000fd5b505050506040513d601f19601f82011682018060405250810190614764919061526f565b9050818c60a0015111156147d75760008582848f60a00151614786919061559a565b614790919061557b565b61479a9190615559565b9050808810156147b4575050505050505050505050919050565b60808d01516147c38a8361557b565b6147cd9190615559565b6060808e01510152505b5060408b810151905163ac436bdf60e01b81526001600160a01b0391821660048201526000918b169063ac436bdf9060240160206040518083038186803b15801561482157600080fd5b505afa158015614835573d6000803e3d6000fd5b505050506040513d601f19601f82011682018060405250810190614859919061526f565b905060006301e13380428e60e00151614872919061559a565b838f60a00151614882919061557b565b61488c919061557b565b6148969190615559565b905060008b6001600160a01b03166375e580796040518163ffffffff1660e01b815260040160206040518083038186803b1580156148d357600080fd5b505afa1580156148e7573d6000803e3d6000fd5b505050506040513d601f19601f8201168201806040525081019061490b9190615007565b8e5160405163172c717b60e01b81526001600160a01b0391821660048201526024810185905291925082169063172c717b9060440160206040518083038186803b15801561495857600080fd5b505afa15801561496c573d6000803e3d6000fd5b505050506040513d601f19601f82011682018060405250810190614990919061526f565b915060008c6001600160a01b03166358f858806040518163ffffffff1660e01b815260040160206040518083038186803b1580156149cd57600080fd5b505afa1580156149e1573d6000803e3d6000fd5b505050506040513d601f19601f82011682018060405250810190614a05919061526f565b6101008f018490529050612710614a1c828561557b565b614a269190615559565b6101208f01525050505060408b8101519051634d83bc3360e01b81526001600160a01b039182166004820152908a1690634d83bc339060240160206040518083038186803b158015614a7757600080fd5b505afa158015614a8b573d6000803e3d6000fd5b505050506040513d601f19601f82011682018060405250810190614aaf9190615007565b6001600160a01b031660408b01525050505050505050505b919050565b614ad4614c47565b6040518061018001604052806000801916815260200184600001516001600160a01b0316815260200160006001600160a01b031681526020016040518060a0016040528086602001516001600160a01b03168152602001866080015181526020018581526020016000815260200160008152508152602001604051806040016040528086604001516001600160a01b031681526020018660a0015181525081526020016040518060a0016040528086606001516001600160a01b031681526020018660c0015181526020016000815260200160008152602001600081525081526020018460e0015181526020018461010001518152602001600081526020016000815260200160405180610100016040528060001515815260200160001515815260200160001515815260200160001515815260200160001515815260200160001515815260200160001515815260200160001515815250815260200160006001600160a01b0316815250905092915050565b6040518061018001604052806000801916815260200160006001600160a01b0316815260200160006001600160a01b03168152602001614cb86040518060a0016040528060006001600160a01b03168152602001600081526020016000815260200160008152602001600081525090565b8152602001614ce3604051806040016040528060006001600160a01b03168152602001600081525090565b8152602001614d236040518060a0016040528060006001600160a01b03168152602001600081526020016000815260200160008152602001600081525090565b8152600060208083018290526040808401839052606080850184905260808086018590528251610100810184528581529384018590529183018490528201839052810182905260a081810183905260c0820183905260e08201929092529101908152600060209091015290565b8035614ac7816155dd565b8035614ac7816155f5565b600060a08284031215614db857600080fd5b60405160a0810181811067ffffffffffffffff82111715614de957634e487b7160e01b600052604160045260246000fd5b6040529050808235614dfa816155dd565b80825250602083013560208201526040830135604082015260608301356060820152608083013560808201525092915050565b600060408284031215614e3f57600080fd5b6040516040810181811067ffffffffffffffff82111715614e7057634e487b7160e01b600052604160045260246000fd5b6040529050808235614e81816155dd565b8152602092830135920191909152919050565b6000610100808385031215614ea857600080fd5b6040519081019067ffffffffffffffff82118183101715614ed957634e487b7160e01b600052604160045260246000fd5b8160405280925083359150614eed826155f5565b818152614efc60208501614d9b565b6020820152614f0d60408501614d9b565b6040820152614f1e60608501614d9b565b6060820152614f2f60808501614d9b565b6080820152614f4060a08501614d9b565b60a0820152614f5160c08501614d9b565b60c0820152614f6260e08501614d9b565b60e0820152505092915050565b600060608284031215614f8157600080fd5b6040516060810181811067ffffffffffffffff82111715614fb257634e487b7160e01b600052604160045260246000fd5b806040525080915082358152602083013560208201526040830135614fd6816155dd565b6040919091015292915050565b600060208284031215614ff557600080fd5b8135615000816155dd565b9392505050565b60006020828403121561501957600080fd5b8151615000816155dd565b6000806040838503121561503757600080fd5b8235615042816155dd565b946020939093013593505050565b60006020828403121561506257600080fd5b8151615000816155f5565b60006020828403121561507f57600080fd5b5035919050565b6000806040838503121561509957600080fd5b8235915060208301356150ab816155dd565b809150509250929050565b600080600080608085870312156150cc57600080fd5b5050823594602084013594506040840135936060013592509050565b600061012082840312156150fb57600080fd5b6151036154d7565b61510c83614d90565b815261511a60208401614d90565b602082015261512b60408401614d90565b604082015261513c60608401614d90565b60608201526080830135608082015260a083013560a082015260c083013560c082015260e083013560e08201526101008084013581830152508091505092915050565b6000610380828403121561519257600080fd5b61519a61550f565b823581526151aa60208401614d90565b60208201526151bb60408401614d90565b60408201526151cd8460608501614da6565b60608201526101006151e185828601614e2d565b60808301526101406151f586828701614da6565b60a08401526101e085013560c084015261020085013560e084015261022085013582840152610240850135610120840152615234866102608701614e94565b90830152506152466103608401614d90565b6101608201529392505050565b60006060828403121561526557600080fd5b6150008383614f6f565b60006020828403121561528157600080fd5b5051919050565b80516001600160a01b03168252602080820151908301526040808201519083015260608082015190830152608090810151910152565b80511515825260208101511515602083015260408101511515604083015260608101511515606083015260808101511515608083015260a081015161530760a084018215159052565b5060c081015161531b60c084018215159052565b5060e081015161532f60e084018215159052565b505050565b6001600160a01b0392831681529116602082015260400190565b8c81526001600160a01b038c811660208301528b8116604083015261038082019061537c606084018d615288565b8a516001600160a01b031661010084015260208b01516101208401526153a661014084018b615288565b886101e08401528761020084015286610220840152856102408401526153d06102608401866152be565b808416610360840152509d9c50505050505050505050505050565b8151815260208083015161038083019161540f908401826001600160a01b03169052565b50604083015161542a60408401826001600160a01b03169052565b50606083015161543d6060840182615288565b5060808301516101006154658185018380516001600160a01b03168252602090810151910152565b60a0850151915061014061547b81860184615288565b60c08601516101e086015260e08601516102008601529085015161022085015261012085015161024085015284015190506154ba6102608401826152be565b5061016092909201516001600160a01b0316610360919091015290565b604051610120810167ffffffffffffffff8111828210171561550957634e487b7160e01b600052604160045260246000fd5b60405290565b604051610180810167ffffffffffffffff8111828210171561550957634e487b7160e01b600052604160045260246000fd5b60008219821115615554576155546155b1565b500190565b60008261557657634e487b7160e01b600052601260045260246000fd5b500490565b6000816000190483118215151615615595576155956155b1565b500290565b6000828210156155ac576155ac6155b1565b500390565b634e487b7160e01b600052601160045260246000fd5b634e487b7160e01b600052603260045260246000fd5b6001600160a01b03811681146155f257600080fd5b50565b80151581146155f257600080fdfea2646970667358221220fcc24e8d367024770286965cb620210466785d073c5b9ed8dd7bc64d74724eda64736f6c63430008070033",
  "linkReferences": {},
  "deployedLinkReferences": {}
}