{
  "_format": "hh-sol-artifact-1",
  "contractName": "PositionStorage",
  "sourceName": "contracts/PositionStorage.sol",
  "abi": [
    {
      "inputs": [
        {
          "internalType": "uint256",
          "name": "currentPrice",
          "type": "uint256"
        },
        {
          "internalType": "uint256",
          "name": "stoplossPrice",
          "type": "uint256"
        }
      ],
      "name": "BadStoplossPrice",
      "type": "error"
    },
    {
      "inputs": [
        {
          "internalType": "address",
          "name": "sender",
          "type": "address"
        }
      ],
      "name": "Forbidden",
      "type": "error"
    },
    {
      "inputs": [],
      "name": "InitializedAlready",
      "type": "error"
    },
    {
      "inputs": [],
      "name": "InvalidParameter",
      "type": "error"
    },
    {
      "inputs": [
        {
          "internalType": "bytes32",
          "name": "positionKey",
          "type": "bytes32"
        }
      ],
      "name": "LiquidationMarkedAlready",
      "type": "error"
    },
    {
      "inputs": [
        {
          "internalType": "address",
          "name": "user",
          "type": "address"
        }
      ],
      "name": "NotAllowed",
      "type": "error"
    },
    {
      "inputs": [
        {
          "internalType": "bytes32",
          "name": "positionKey",
          "type": "bytes32"
        }
      ],
      "name": "NotManualExpired",
      "type": "error"
    },
    {
      "inputs": [
        {
          "internalType": "address",
          "name": "owner",
          "type": "address"
        },
        {
          "internalType": "address",
          "name": "updater",
          "type": "address"
        }
      ],
      "name": "NotOwner",
      "type": "error"
    },
    {
      "inputs": [
        {
          "internalType": "bytes32",
          "name": "positionKey",
          "type": "bytes32"
        }
      ],
      "name": "Step1NotDone",
      "type": "error"
    },
    {
      "inputs": [
        {
          "internalType": "bytes32",
          "name": "positionKey",
          "type": "bytes32"
        }
      ],
      "name": "TradePositionClosedAlready",
      "type": "error"
    },
    {
      "inputs": [
        {
          "internalType": "bytes32",
          "name": "positionKey",
          "type": "bytes32"
        }
      ],
      "name": "TradePositionNotClosed",
      "type": "error"
    },
    {
      "inputs": [
        {
          "internalType": "bytes32",
          "name": "positionKey",
          "type": "bytes32"
        }
      ],
      "name": "TradePositionNotExists",
      "type": "error"
    },
    {
      "anonymous": false,
      "inputs": [
        {
          "indexed": true,
          "internalType": "bytes32",
          "name": "positionKey",
          "type": "bytes32"
        }
      ],
      "name": "CloseManuallyStep1TradePosition",
      "type": "event"
    },
    {
      "anonymous": false,
      "inputs": [
        {
          "indexed": true,
          "internalType": "bytes32",
          "name": "positionKey",
          "type": "bytes32"
        },
        {
          "indexed": false,
          "internalType": "address",
          "name": "updater",
          "type": "address"
        }
      ],
      "name": "CloseTradePosition",
      "type": "event"
    },
    {
      "anonymous": false,
      "inputs": [
        {
          "indexed": true,
          "internalType": "bytes32",
          "name": "positionKey",
          "type": "bytes32"
        },
        {
          "indexed": false,
          "internalType": "uint256",
          "name": "time",
          "type": "uint256"
        }
      ],
      "name": "LiquidationMark",
      "type": "event"
    },
    {
      "anonymous": false,
      "inputs": [
        {
          "indexed": true,
          "internalType": "bytes32",
          "name": "positionKey",
          "type": "bytes32"
        }
      ],
      "name": "OpenTradePosition",
      "type": "event"
    },
    {
      "anonymous": false,
      "inputs": [
        {
          "indexed": true,
          "internalType": "bytes32",
          "name": "positionKey",
          "type": "bytes32"
        },
        {
          "indexed": false,
          "internalType": "uint256",
          "name": "amount",
          "type": "uint256"
        },
        {
          "indexed": false,
          "internalType": "uint256",
          "name": "collateralLiqPrice",
          "type": "uint256"
        },
        {
          "indexed": false,
          "internalType": "address",
          "name": "updater",
          "type": "address"
        }
      ],
      "name": "UpdateCollateralAmount",
      "type": "event"
    },
    {
      "anonymous": false,
      "inputs": [
        {
          "indexed": true,
          "internalType": "bytes32",
          "name": "positionKey",
          "type": "bytes32"
        },
        {
          "indexed": false,
          "internalType": "uint256",
          "name": "newDeadline",
          "type": "uint256"
        },
        {
          "indexed": false,
          "internalType": "address",
          "name": "updater",
          "type": "address"
        }
      ],
      "name": "UpdateDeadline",
      "type": "event"
    },
    {
      "anonymous": false,
      "inputs": [
        {
          "indexed": true,
          "internalType": "bytes32",
          "name": "positionKey",
          "type": "bytes32"
        },
        {
          "indexed": false,
          "internalType": "uint256",
          "name": "newStoplossPrice",
          "type": "uint256"
        },
        {
          "indexed": false,
          "internalType": "address",
          "name": "updater",
          "type": "address"
        }
      ],
      "name": "UpdateStoplossPrice",
      "type": "event"
    },
    {
      "inputs": [
        {
          "internalType": "bytes32",
          "name": "_positionKey",
          "type": "bytes32"
        }
      ],
      "name": "canLiquidate",
      "outputs": [
        {
          "internalType": "bool",
          "name": "",
          "type": "bool"
        }
      ],
      "stateMutability": "view",
      "type": "function"
    },
    {
      "inputs": [
        {
          "internalType": "bytes32",
          "name": "_positionKey",
          "type": "bytes32"
        }
      ],
      "name": "canLiquidationMark",
      "outputs": [
        {
          "internalType": "bool",
          "name": "",
          "type": "bool"
        }
      ],
      "stateMutability": "view",
      "type": "function"
    },
    {
      "inputs": [
        {
          "internalType": "bytes32",
          "name": "_positionKey",
          "type": "bytes32"
        }
      ],
      "name": "closeManuallyStep1",
      "outputs": [],
      "stateMutability": "nonpayable",
      "type": "function"
    },
    {
      "inputs": [
        {
          "internalType": "bytes32",
          "name": "_positionKey",
          "type": "bytes32"
        }
      ],
      "name": "closeManuallyStep2",
      "outputs": [],
      "stateMutability": "nonpayable",
      "type": "function"
    },
    {
      "inputs": [],
      "name": "factory",
      "outputs": [
        {
          "internalType": "address",
          "name": "",
          "type": "address"
        }
      ],
      "stateMutability": "view",
      "type": "function"
    },
    {
      "inputs": [
        {
          "components": [
            {
              "internalType": "address",
              "name": "owner",
              "type": "address"
            },
            {
              "internalType": "address",
              "name": "baseToken",
              "type": "address"
            },
            {
              "internalType": "address",
              "name": "quoteToken",
              "type": "address"
            },
            {
              "internalType": "address",
              "name": "collateral",
              "type": "address"
            },
            {
              "internalType": "uint256",
              "name": "baseAmount",
              "type": "uint256"
            },
            {
              "internalType": "uint256",
              "name": "quoteAmount",
              "type": "uint256"
            },
            {
              "internalType": "uint256",
              "name": "collateralAmount",
              "type": "uint256"
            },
            {
              "internalType": "uint256",
              "name": "deadline",
              "type": "uint256"
            },
            {
              "internalType": "uint256",
              "name": "stoplossPrice",
              "type": "uint256"
            }
          ],
          "internalType": "struct IPositionStorage.OpenTradePositionParams",
          "name": "_params",
          "type": "tuple"
        }
      ],
      "name": "getMinCollateralAmount",
      "outputs": [
        {
          "internalType": "uint256",
          "name": "",
          "type": "uint256"
        }
      ],
      "stateMutability": "view",
      "type": "function"
    },
    {
      "inputs": [
        {
          "components": [
            {
              "internalType": "address",
              "name": "owner",
              "type": "address"
            },
            {
              "internalType": "address",
              "name": "baseToken",
              "type": "address"
            },
            {
              "internalType": "address",
              "name": "quoteToken",
              "type": "address"
            },
            {
              "internalType": "address",
              "name": "collateral",
              "type": "address"
            },
            {
              "internalType": "uint256",
              "name": "baseAmount",
              "type": "uint256"
            },
            {
              "internalType": "uint256",
              "name": "quoteAmount",
              "type": "uint256"
            },
            {
              "internalType": "uint256",
              "name": "collateralAmount",
              "type": "uint256"
            },
            {
              "internalType": "uint256",
              "name": "deadline",
              "type": "uint256"
            },
            {
              "internalType": "uint256",
              "name": "stoplossPrice",
              "type": "uint256"
            }
          ],
          "internalType": "struct IPositionStorage.OpenTradePositionParams",
          "name": "_params",
          "type": "tuple"
        }
      ],
      "name": "getQuoteAmountRange",
      "outputs": [
        {
          "internalType": "uint256",
          "name": "minQuoteAmount",
          "type": "uint256"
        },
        {
          "internalType": "uint256",
          "name": "maxQuoteAmount",
          "type": "uint256"
        }
      ],
      "stateMutability": "view",
      "type": "function"
    },
    {
      "inputs": [
        {
          "internalType": "bytes32",
          "name": "_positionKey",
          "type": "bytes32"
        }
      ],
      "name": "liquidationMark",
      "outputs": [],
      "stateMutability": "nonpayable",
      "type": "function"
    },
    {
      "inputs": [
        {
          "components": [
            {
              "internalType": "bytes32",
              "name": "positionKey",
              "type": "bytes32"
            },
            {
              "internalType": "address",
              "name": "owner",
              "type": "address"
            },
            {
              "internalType": "address",
              "name": "pool",
              "type": "address"
            },
            {
              "components": [
                {
                  "internalType": "address",
                  "name": "id",
                  "type": "address"
                },
                {
                  "internalType": "uint256",
                  "name": "amount",
                  "type": "uint256"
                },
                {
                  "internalType": "uint256",
                  "name": "entryPrice",
                  "type": "uint256"
                },
                {
                  "internalType": "uint256",
                  "name": "liqPrice",
                  "type": "uint256"
                },
                {
                  "internalType": "uint256",
                  "name": "closePrice",
                  "type": "uint256"
                }
              ],
              "internalType": "struct IPositionStorage.BaseToken",
              "name": "baseToken",
              "type": "tuple"
            },
            {
              "components": [
                {
                  "internalType": "address",
                  "name": "id",
                  "type": "address"
                },
                {
                  "internalType": "uint256",
                  "name": "amount",
                  "type": "uint256"
                }
              ],
              "internalType": "struct IPositionStorage.QuoteToken",
              "name": "quoteToken",
              "type": "tuple"
            },
            {
              "components": [
                {
                  "internalType": "address",
                  "name": "id",
                  "type": "address"
                },
                {
                  "internalType": "uint256",
                  "name": "amount",
                  "type": "uint256"
                },
                {
                  "internalType": "uint256",
                  "name": "entryPrice",
                  "type": "uint256"
                },
                {
                  "internalType": "uint256",
                  "name": "liqPrice",
                  "type": "uint256"
                },
                {
                  "internalType": "uint256",
                  "name": "closePrice",
                  "type": "uint256"
                }
              ],
              "internalType": "struct IPositionStorage.Collateral",
              "name": "collateral",
              "type": "tuple"
            },
            {
              "internalType": "uint256",
              "name": "deadline",
              "type": "uint256"
            },
            {
              "internalType": "uint256",
              "name": "stoplossPrice",
              "type": "uint256"
            },
            {
              "internalType": "uint256",
              "name": "fee",
              "type": "uint256"
            },
            {
              "internalType": "uint256",
              "name": "protocolFee",
              "type": "uint256"
            },
            {
              "components": [
                {
                  "internalType": "bool",
                  "name": "isClosed",
                  "type": "bool"
                },
                {
                  "internalType": "bool",
                  "name": "isExpired",
                  "type": "bool"
                },
                {
                  "internalType": "bool",
                  "name": "isStoploss",
                  "type": "bool"
                },
                {
                  "internalType": "bool",
                  "name": "isBaseLiquidated",
                  "type": "bool"
                },
                {
                  "internalType": "bool",
                  "name": "isCollateralLiquidated",
                  "type": "bool"
                },
                {
                  "internalType": "bool",
                  "name": "isRollbacked",
                  "type": "bool"
                },
                {
                  "internalType": "bool",
                  "name": "isClosedManuallyStep1",
                  "type": "bool"
                },
                {
                  "internalType": "bool",
                  "name": "isClosedManuallyStep2",
                  "type": "bool"
                }
              ],
              "internalType": "struct IPositionStorage.Status",
              "name": "status",
              "type": "tuple"
            },
            {
              "internalType": "address",
              "name": "closer",
              "type": "address"
            },
            {
              "internalType": "uint256",
              "name": "liquidationMarkTime",
              "type": "uint256"
            }
          ],
          "internalType": "struct IPositionStorage.TradePosition",
          "name": "_pos",
          "type": "tuple"
        }
      ],
      "name": "openTradePosition",
      "outputs": [
        {
          "internalType": "bytes32",
          "name": "positionKey",
          "type": "bytes32"
        }
      ],
      "stateMutability": "nonpayable",
      "type": "function"
    },
    {
      "inputs": [
        {
          "internalType": "bytes32",
          "name": "",
          "type": "bytes32"
        }
      ],
      "name": "openingPositionIndex",
      "outputs": [
        {
          "internalType": "uint256",
          "name": "",
          "type": "uint256"
        }
      ],
      "stateMutability": "view",
      "type": "function"
    },
    {
      "inputs": [
        {
          "internalType": "uint256",
          "name": "_index",
          "type": "uint256"
        }
      ],
      "name": "openingPositionKey",
      "outputs": [
        {
          "internalType": "bytes32",
          "name": "",
          "type": "bytes32"
        }
      ],
      "stateMutability": "view",
      "type": "function"
    },
    {
      "inputs": [
        {
          "internalType": "uint256",
          "name": "",
          "type": "uint256"
        }
      ],
      "name": "openingPositionKeys",
      "outputs": [
        {
          "internalType": "bytes32",
          "name": "",
          "type": "bytes32"
        }
      ],
      "stateMutability": "view",
      "type": "function"
    },
    {
      "inputs": [],
      "name": "openingPositionLength",
      "outputs": [
        {
          "internalType": "uint256",
          "name": "",
          "type": "uint256"
        }
      ],
      "stateMutability": "view",
      "type": "function"
    },
    {
      "inputs": [],
      "name": "poolDeployer",
      "outputs": [
        {
          "internalType": "address",
          "name": "",
          "type": "address"
        }
      ],
      "stateMutability": "view",
      "type": "function"
    },
    {
      "inputs": [
        {
          "internalType": "uint256",
          "name": "_index",
          "type": "uint256"
        }
      ],
      "name": "position",
      "outputs": [
        {
          "components": [
            {
              "internalType": "bytes32",
              "name": "positionKey",
              "type": "bytes32"
            },
            {
              "internalType": "address",
              "name": "owner",
              "type": "address"
            },
            {
              "internalType": "address",
              "name": "pool",
              "type": "address"
            },
            {
              "components": [
                {
                  "internalType": "address",
                  "name": "id",
                  "type": "address"
                },
                {
                  "internalType": "uint256",
                  "name": "amount",
                  "type": "uint256"
                },
                {
                  "internalType": "uint256",
                  "name": "entryPrice",
                  "type": "uint256"
                },
                {
                  "internalType": "uint256",
                  "name": "liqPrice",
                  "type": "uint256"
                },
                {
                  "internalType": "uint256",
                  "name": "closePrice",
                  "type": "uint256"
                }
              ],
              "internalType": "struct IPositionStorage.BaseToken",
              "name": "baseToken",
              "type": "tuple"
            },
            {
              "components": [
                {
                  "internalType": "address",
                  "name": "id",
                  "type": "address"
                },
                {
                  "internalType": "uint256",
                  "name": "amount",
                  "type": "uint256"
                }
              ],
              "internalType": "struct IPositionStorage.QuoteToken",
              "name": "quoteToken",
              "type": "tuple"
            },
            {
              "components": [
                {
                  "internalType": "address",
                  "name": "id",
                  "type": "address"
                },
                {
                  "internalType": "uint256",
                  "name": "amount",
                  "type": "uint256"
                },
                {
                  "internalType": "uint256",
                  "name": "entryPrice",
                  "type": "uint256"
                },
                {
                  "internalType": "uint256",
                  "name": "liqPrice",
                  "type": "uint256"
                },
                {
                  "internalType": "uint256",
                  "name": "closePrice",
                  "type": "uint256"
                }
              ],
              "internalType": "struct IPositionStorage.Collateral",
              "name": "collateral",
              "type": "tuple"
            },
            {
              "internalType": "uint256",
              "name": "deadline",
              "type": "uint256"
            },
            {
              "internalType": "uint256",
              "name": "stoplossPrice",
              "type": "uint256"
            },
            {
              "internalType": "uint256",
              "name": "fee",
              "type": "uint256"
            },
            {
              "internalType": "uint256",
              "name": "protocolFee",
              "type": "uint256"
            },
            {
              "components": [
                {
                  "internalType": "bool",
                  "name": "isClosed",
                  "type": "bool"
                },
                {
                  "internalType": "bool",
                  "name": "isExpired",
                  "type": "bool"
                },
                {
                  "internalType": "bool",
                  "name": "isStoploss",
                  "type": "bool"
                },
                {
                  "internalType": "bool",
                  "name": "isBaseLiquidated",
                  "type": "bool"
                },
                {
                  "internalType": "bool",
                  "name": "isCollateralLiquidated",
                  "type": "bool"
                },
                {
                  "internalType": "bool",
                  "name": "isRollbacked",
                  "type": "bool"
                },
                {
                  "internalType": "bool",
                  "name": "isClosedManuallyStep1",
                  "type": "bool"
                },
                {
                  "internalType": "bool",
                  "name": "isClosedManuallyStep2",
                  "type": "bool"
                }
              ],
              "internalType": "struct IPositionStorage.Status",
              "name": "status",
              "type": "tuple"
            },
            {
              "internalType": "address",
              "name": "closer",
              "type": "address"
            },
            {
              "internalType": "uint256",
              "name": "liquidationMarkTime",
              "type": "uint256"
            }
          ],
          "internalType": "struct IPositionStorage.TradePosition",
          "name": "",
          "type": "tuple"
        }
      ],
      "stateMutability": "view",
      "type": "function"
    },
    {
      "inputs": [
        {
          "internalType": "bytes32",
          "name": "_positionKey",
          "type": "bytes32"
        }
      ],
      "name": "positionByKey",
      "outputs": [
        {
          "components": [
            {
              "internalType": "bytes32",
              "name": "positionKey",
              "type": "bytes32"
            },
            {
              "internalType": "address",
              "name": "owner",
              "type": "address"
            },
            {
              "internalType": "address",
              "name": "pool",
              "type": "address"
            },
            {
              "components": [
                {
                  "internalType": "address",
                  "name": "id",
                  "type": "address"
                },
                {
                  "internalType": "uint256",
                  "name": "amount",
                  "type": "uint256"
                },
                {
                  "internalType": "uint256",
                  "name": "entryPrice",
                  "type": "uint256"
                },
                {
                  "internalType": "uint256",
                  "name": "liqPrice",
                  "type": "uint256"
                },
                {
                  "internalType": "uint256",
                  "name": "closePrice",
                  "type": "uint256"
                }
              ],
              "internalType": "struct IPositionStorage.BaseToken",
              "name": "baseToken",
              "type": "tuple"
            },
            {
              "components": [
                {
                  "internalType": "address",
                  "name": "id",
                  "type": "address"
                },
                {
                  "internalType": "uint256",
                  "name": "amount",
                  "type": "uint256"
                }
              ],
              "internalType": "struct IPositionStorage.QuoteToken",
              "name": "quoteToken",
              "type": "tuple"
            },
            {
              "components": [
                {
                  "internalType": "address",
                  "name": "id",
                  "type": "address"
                },
                {
                  "internalType": "uint256",
                  "name": "amount",
                  "type": "uint256"
                },
                {
                  "internalType": "uint256",
                  "name": "entryPrice",
                  "type": "uint256"
                },
                {
                  "internalType": "uint256",
                  "name": "liqPrice",
                  "type": "uint256"
                },
                {
                  "internalType": "uint256",
                  "name": "closePrice",
                  "type": "uint256"
                }
              ],
              "internalType": "struct IPositionStorage.Collateral",
              "name": "collateral",
              "type": "tuple"
            },
            {
              "internalType": "uint256",
              "name": "deadline",
              "type": "uint256"
            },
            {
              "internalType": "uint256",
              "name": "stoplossPrice",
              "type": "uint256"
            },
            {
              "internalType": "uint256",
              "name": "fee",
              "type": "uint256"
            },
            {
              "internalType": "uint256",
              "name": "protocolFee",
              "type": "uint256"
            },
            {
              "components": [
                {
                  "internalType": "bool",
                  "name": "isClosed",
                  "type": "bool"
                },
                {
                  "internalType": "bool",
                  "name": "isExpired",
                  "type": "bool"
                },
                {
                  "internalType": "bool",
                  "name": "isStoploss",
                  "type": "bool"
                },
                {
                  "internalType": "bool",
                  "name": "isBaseLiquidated",
                  "type": "bool"
                },
                {
                  "internalType": "bool",
                  "name": "isCollateralLiquidated",
                  "type": "bool"
                },
                {
                  "internalType": "bool",
                  "name": "isRollbacked",
                  "type": "bool"
                },
                {
                  "internalType": "bool",
                  "name": "isClosedManuallyStep1",
                  "type": "bool"
                },
                {
                  "internalType": "bool",
                  "name": "isClosedManuallyStep2",
                  "type": "bool"
                }
              ],
              "internalType": "struct IPositionStorage.Status",
              "name": "status",
              "type": "tuple"
            },
            {
              "internalType": "address",
              "name": "closer",
              "type": "address"
            },
            {
              "internalType": "uint256",
              "name": "liquidationMarkTime",
              "type": "uint256"
            }
          ],
          "internalType": "struct IPositionStorage.TradePosition",
          "name": "pos",
          "type": "tuple"
        }
      ],
      "stateMutability": "view",
      "type": "function"
    },
    {
      "inputs": [
        {
          "internalType": "bytes32",
          "name": "",
          "type": "bytes32"
        }
      ],
      "name": "positionIndex",
      "outputs": [
        {
          "internalType": "uint256",
          "name": "",
          "type": "uint256"
        }
      ],
      "stateMutability": "view",
      "type": "function"
    },
    {
      "inputs": [
        {
          "internalType": "address",
          "name": "_user",
          "type": "address"
        },
        {
          "internalType": "uint256",
          "name": "_index",
          "type": "uint256"
        }
      ],
      "name": "positionKeyByUser",
      "outputs": [
        {
          "internalType": "bytes32",
          "name": "",
          "type": "bytes32"
        }
      ],
      "stateMutability": "view",
      "type": "function"
    },
    {
      "inputs": [],
      "name": "positionLength",
      "outputs": [
        {
          "internalType": "uint256",
          "name": "",
          "type": "uint256"
        }
      ],
      "stateMutability": "view",
      "type": "function"
    },
    {
      "inputs": [
        {
          "internalType": "uint256",
          "name": "",
          "type": "uint256"
        }
      ],
      "name": "positions",
      "outputs": [
        {
          "internalType": "bytes32",
          "name": "positionKey",
          "type": "bytes32"
        },
        {
          "internalType": "address",
          "name": "owner",
          "type": "address"
        },
        {
          "internalType": "address",
          "name": "pool",
          "type": "address"
        },
        {
          "components": [
            {
              "internalType": "address",
              "name": "id",
              "type": "address"
            },
            {
              "internalType": "uint256",
              "name": "amount",
              "type": "uint256"
            },
            {
              "internalType": "uint256",
              "name": "entryPrice",
              "type": "uint256"
            },
            {
              "internalType": "uint256",
              "name": "liqPrice",
              "type": "uint256"
            },
            {
              "internalType": "uint256",
              "name": "closePrice",
              "type": "uint256"
            }
          ],
          "internalType": "struct IPositionStorage.BaseToken",
          "name": "baseToken",
          "type": "tuple"
        },
        {
          "components": [
            {
              "internalType": "address",
              "name": "id",
              "type": "address"
            },
            {
              "internalType": "uint256",
              "name": "amount",
              "type": "uint256"
            }
          ],
          "internalType": "struct IPositionStorage.QuoteToken",
          "name": "quoteToken",
          "type": "tuple"
        },
        {
          "components": [
            {
              "internalType": "address",
              "name": "id",
              "type": "address"
            },
            {
              "internalType": "uint256",
              "name": "amount",
              "type": "uint256"
            },
            {
              "internalType": "uint256",
              "name": "entryPrice",
              "type": "uint256"
            },
            {
              "internalType": "uint256",
              "name": "liqPrice",
              "type": "uint256"
            },
            {
              "internalType": "uint256",
              "name": "closePrice",
              "type": "uint256"
            }
          ],
          "internalType": "struct IPositionStorage.Collateral",
          "name": "collateral",
          "type": "tuple"
        },
        {
          "internalType": "uint256",
          "name": "deadline",
          "type": "uint256"
        },
        {
          "internalType": "uint256",
          "name": "stoplossPrice",
          "type": "uint256"
        },
        {
          "internalType": "uint256",
          "name": "fee",
          "type": "uint256"
        },
        {
          "internalType": "uint256",
          "name": "protocolFee",
          "type": "uint256"
        },
        {
          "components": [
            {
              "internalType": "bool",
              "name": "isClosed",
              "type": "bool"
            },
            {
              "internalType": "bool",
              "name": "isExpired",
              "type": "bool"
            },
            {
              "internalType": "bool",
              "name": "isStoploss",
              "type": "bool"
            },
            {
              "internalType": "bool",
              "name": "isBaseLiquidated",
              "type": "bool"
            },
            {
              "internalType": "bool",
              "name": "isCollateralLiquidated",
              "type": "bool"
            },
            {
              "internalType": "bool",
              "name": "isRollbacked",
              "type": "bool"
            },
            {
              "internalType": "bool",
              "name": "isClosedManuallyStep1",
              "type": "bool"
            },
            {
              "internalType": "bool",
              "name": "isClosedManuallyStep2",
              "type": "bool"
            }
          ],
          "internalType": "struct IPositionStorage.Status",
          "name": "status",
          "type": "tuple"
        },
        {
          "internalType": "address",
          "name": "closer",
          "type": "address"
        },
        {
          "internalType": "uint256",
          "name": "liquidationMarkTime",
          "type": "uint256"
        }
      ],
      "stateMutability": "view",
      "type": "function"
    },
    {
      "inputs": [
        {
          "components": [
            {
              "internalType": "address",
              "name": "owner",
              "type": "address"
            },
            {
              "internalType": "address",
              "name": "baseToken",
              "type": "address"
            },
            {
              "internalType": "address",
              "name": "quoteToken",
              "type": "address"
            },
            {
              "internalType": "address",
              "name": "collateral",
              "type": "address"
            },
            {
              "internalType": "uint256",
              "name": "baseAmount",
              "type": "uint256"
            },
            {
              "internalType": "uint256",
              "name": "quoteAmount",
              "type": "uint256"
            },
            {
              "internalType": "uint256",
              "name": "collateralAmount",
              "type": "uint256"
            },
            {
              "internalType": "uint256",
              "name": "deadline",
              "type": "uint256"
            },
            {
              "internalType": "uint256",
              "name": "stoplossPrice",
              "type": "uint256"
            }
          ],
          "internalType": "struct IPositionStorage.OpenTradePositionParams",
          "name": "_params",
          "type": "tuple"
        }
      ],
      "name": "previewTradePosition",
      "outputs": [
        {
          "components": [
            {
              "internalType": "bytes32",
              "name": "positionKey",
              "type": "bytes32"
            },
            {
              "internalType": "address",
              "name": "owner",
              "type": "address"
            },
            {
              "internalType": "address",
              "name": "pool",
              "type": "address"
            },
            {
              "components": [
                {
                  "internalType": "address",
                  "name": "id",
                  "type": "address"
                },
                {
                  "internalType": "uint256",
                  "name": "amount",
                  "type": "uint256"
                },
                {
                  "internalType": "uint256",
                  "name": "entryPrice",
                  "type": "uint256"
                },
                {
                  "internalType": "uint256",
                  "name": "liqPrice",
                  "type": "uint256"
                },
                {
                  "internalType": "uint256",
                  "name": "closePrice",
                  "type": "uint256"
                }
              ],
              "internalType": "struct IPositionStorage.BaseToken",
              "name": "baseToken",
              "type": "tuple"
            },
            {
              "components": [
                {
                  "internalType": "address",
                  "name": "id",
                  "type": "address"
                },
                {
                  "internalType": "uint256",
                  "name": "amount",
                  "type": "uint256"
                }
              ],
              "internalType": "struct IPositionStorage.QuoteToken",
              "name": "quoteToken",
              "type": "tuple"
            },
            {
              "components": [
                {
                  "internalType": "address",
                  "name": "id",
                  "type": "address"
                },
                {
                  "internalType": "uint256",
                  "name": "amount",
                  "type": "uint256"
                },
                {
                  "internalType": "uint256",
                  "name": "entryPrice",
                  "type": "uint256"
                },
                {
                  "internalType": "uint256",
                  "name": "liqPrice",
                  "type": "uint256"
                },
                {
                  "internalType": "uint256",
                  "name": "closePrice",
                  "type": "uint256"
                }
              ],
              "internalType": "struct IPositionStorage.Collateral",
              "name": "collateral",
              "type": "tuple"
            },
            {
              "internalType": "uint256",
              "name": "deadline",
              "type": "uint256"
            },
            {
              "internalType": "uint256",
              "name": "stoplossPrice",
              "type": "uint256"
            },
            {
              "internalType": "uint256",
              "name": "fee",
              "type": "uint256"
            },
            {
              "internalType": "uint256",
              "name": "protocolFee",
              "type": "uint256"
            },
            {
              "components": [
                {
                  "internalType": "bool",
                  "name": "isClosed",
                  "type": "bool"
                },
                {
                  "internalType": "bool",
                  "name": "isExpired",
                  "type": "bool"
                },
                {
                  "internalType": "bool",
                  "name": "isStoploss",
                  "type": "bool"
                },
                {
                  "internalType": "bool",
                  "name": "isBaseLiquidated",
                  "type": "bool"
                },
                {
                  "internalType": "bool",
                  "name": "isCollateralLiquidated",
                  "type": "bool"
                },
                {
                  "internalType": "bool",
                  "name": "isRollbacked",
                  "type": "bool"
                },
                {
                  "internalType": "bool",
                  "name": "isClosedManuallyStep1",
                  "type": "bool"
                },
                {
                  "internalType": "bool",
                  "name": "isClosedManuallyStep2",
                  "type": "bool"
                }
              ],
              "internalType": "struct IPositionStorage.Status",
              "name": "status",
              "type": "tuple"
            },
            {
              "internalType": "address",
              "name": "closer",
              "type": "address"
            },
            {
              "internalType": "uint256",
              "name": "liquidationMarkTime",
              "type": "uint256"
            }
          ],
          "internalType": "struct IPositionStorage.TradePosition",
          "name": "",
          "type": "tuple"
        }
      ],
      "stateMutability": "view",
      "type": "function"
    },
    {
      "inputs": [
        {
          "components": [
            {
              "internalType": "bytes32",
              "name": "positionKey",
              "type": "bytes32"
            },
            {
              "internalType": "uint256",
              "name": "amount",
              "type": "uint256"
            },
            {
              "internalType": "address",
              "name": "updater",
              "type": "address"
            }
          ],
          "internalType": "struct IPositionStorage.UpdateCollateralAmountParams",
          "name": "_params",
          "type": "tuple"
        }
      ],
      "name": "previewUpdateCollateralAmount",
      "outputs": [
        {
          "internalType": "uint256",
          "name": "collateralLiqPrice",
          "type": "uint256"
        }
      ],
      "stateMutability": "view",
      "type": "function"
    },
    {
      "inputs": [
        {
          "components": [
            {
              "internalType": "bytes32",
              "name": "positionKey",
              "type": "bytes32"
            },
            {
              "internalType": "uint256",
              "name": "deadline",
              "type": "uint256"
            },
            {
              "internalType": "address",
              "name": "updater",
              "type": "address"
            }
          ],
          "internalType": "struct IPositionStorage.UpdateDeadlineParams",
          "name": "_params",
          "type": "tuple"
        }
      ],
      "name": "previewUpdateDeadline",
      "outputs": [
        {
          "internalType": "uint256",
          "name": "fee",
          "type": "uint256"
        },
        {
          "internalType": "uint256",
          "name": "protocolFee",
          "type": "uint256"
        }
      ],
      "stateMutability": "view",
      "type": "function"
    },
    {
      "inputs": [
        {
          "internalType": "bytes32",
          "name": "_positionKey",
          "type": "bytes32"
        },
        {
          "internalType": "address",
          "name": "_updater",
          "type": "address"
        }
      ],
      "name": "rollback",
      "outputs": [],
      "stateMutability": "nonpayable",
      "type": "function"
    },
    {
      "inputs": [
        {
          "internalType": "address",
          "name": "_factory",
          "type": "address"
        }
      ],
      "name": "setFactory",
      "outputs": [],
      "stateMutability": "nonpayable",
      "type": "function"
    },
    {
      "inputs": [
        {
          "internalType": "bytes32",
          "name": "_positionKey",
          "type": "bytes32"
        },
        {
          "internalType": "uint256",
          "name": "_baseValue",
          "type": "uint256"
        },
        {
          "internalType": "uint256",
          "name": "_loss",
          "type": "uint256"
        },
        {
          "internalType": "uint256",
          "name": "_remainingCollateralAmount",
          "type": "uint256"
        }
      ],
      "name": "updateCloseValues",
      "outputs": [],
      "stateMutability": "nonpayable",
      "type": "function"
    },
    {
      "inputs": [
        {
          "components": [
            {
              "internalType": "bytes32",
              "name": "positionKey",
              "type": "bytes32"
            },
            {
              "internalType": "uint256",
              "name": "amount",
              "type": "uint256"
            },
            {
              "internalType": "address",
              "name": "updater",
              "type": "address"
            }
          ],
          "internalType": "struct IPositionStorage.UpdateCollateralAmountParams",
          "name": "_params",
          "type": "tuple"
        }
      ],
      "name": "updateCollateralAmount",
      "outputs": [
        {
          "internalType": "uint256",
          "name": "collateralLiqPrice",
          "type": "uint256"
        }
      ],
      "stateMutability": "nonpayable",
      "type": "function"
    },
    {
      "inputs": [
        {
          "components": [
            {
              "internalType": "bytes32",
              "name": "positionKey",
              "type": "bytes32"
            },
            {
              "internalType": "uint256",
              "name": "deadline",
              "type": "uint256"
            },
            {
              "internalType": "address",
              "name": "updater",
              "type": "address"
            }
          ],
          "internalType": "struct IPositionStorage.UpdateDeadlineParams",
          "name": "_params",
          "type": "tuple"
        }
      ],
      "name": "updateDeadline",
      "outputs": [
        {
          "internalType": "uint256",
          "name": "fee",
          "type": "uint256"
        },
        {
          "internalType": "uint256",
          "name": "protocolFee",
          "type": "uint256"
        }
      ],
      "stateMutability": "nonpayable",
      "type": "function"
    },
    {
      "inputs": [
        {
          "internalType": "bytes32",
          "name": "_positionKey",
          "type": "bytes32"
        },
        {
          "internalType": "address",
          "name": "_updater",
          "type": "address"
        }
      ],
      "name": "updateStatus",
      "outputs": [
        {
          "internalType": "bool",
          "name": "needLiquidate",
          "type": "bool"
        }
      ],
      "stateMutability": "nonpayable",
      "type": "function"
    },
    {
      "inputs": [
        {
          "components": [
            {
              "internalType": "bytes32",
              "name": "positionKey",
              "type": "bytes32"
            },
            {
              "internalType": "uint256",
              "name": "stoplossPrice",
              "type": "uint256"
            },
            {
              "internalType": "address",
              "name": "updater",
              "type": "address"
            }
          ],
          "internalType": "struct IPositionStorage.UpdateStoplossPriceParams",
          "name": "_params",
          "type": "tuple"
        }
      ],
      "name": "updateStoplossPrice",
      "outputs": [],
      "stateMutability": "nonpayable",
      "type": "function"
    },
    {
      "inputs": [
        {
          "internalType": "address",
          "name": "_user",
          "type": "address"
        }
      ],
      "name": "userPositionLength",
      "outputs": [
        {
          "internalType": "uint256",
          "name": "",
          "type": "uint256"
        }
      ],
      "stateMutability": "view",
      "type": "function"
    }
  ],
  "bytecode": "0x608060405234801561001057600080fd5b5061571880620000216000396000f3fe608060405234801561001057600080fd5b50600436106101e55760003560e01c80638b029d611161010f578063c56c9693116100a2578063f71139f711610071578063f71139f714610470578063f7a5f25414610483578063f7a95a9e146104a3578063fc9ffe10146104b657600080fd5b8063c56c969314610401578063da23479f14610421578063dbd99a1314610434578063e5944f011461045d57600080fd5b8063a827acf5116100de578063a827acf5146103c0578063ac00b674146103c8578063b008c058146103db578063c45a0155146103ee57600080fd5b80638b029d611461035b57806399fbab881461036e5780639a1023411461039a578063a0d5d126146103ad57600080fd5b806349a4d1d1116101875780635bb47808116101565780635bb47808146102ff57806361ba15081461031257806364b88ac5146103355780637c08ddc91461034857600080fd5b806349a4d1d1146102a95780634f26f457146102bc578063539826a6146102e4578063558ea854146102ec57600080fd5b80632fb817fc116101c35780632fb817fc14610245578063302d6092146102585780633119049a1461026b57806337f368641461029657600080fd5b80630771e3a3146101ea5780631636e199146102105780631a37982d14610225575b600080fd5b6101fd6101f8366004615197565b6104c9565b6040519081526020015b60405180910390f35b61022361021e36600461530f565b6108c5565b005b610238610233366004615197565b610b9d565b60405161020791906154aa565b6101fd6102533660046150d3565b610bb4565b6101fd61026636600461511c565b610bf1565b60015461027e906001600160a01b031681565b6040516001600160a01b039091168152602001610207565b6101fd6102a436600461530f565b610c12565b6102236102b736600461511c565b611134565b6102cf6102ca36600461530f565b611238565b60408051928352602083019190915201610207565b6002546101fd565b6102cf6102fa366004615197565b61169e565b61022361030d366004615099565b611b12565b61032561032036600461511c565b611beb565b6040519015158152602001610207565b6101fd61034336600461522e565b611bf6565b6101fd61035636600461530f565b612097565b610223610369366004615165565b61254a565b61038161037c36600461511c565b61277d565b6040516102079d9c9b9a9998979695949392919061540a565b6102236103a8366004615135565b612a14565b6102386103bb36600461511c565b612bad565b6003546101fd565b6103256103d6366004615135565b612db6565b6102236103e936600461511c565b6131a9565b60005461027e906001600160a01b031681565b6101fd61040f36600461511c565b60046020526000908152604090205481565b6101fd61042f36600461511c565b61337e565b6101fd610442366004615099565b6001600160a01b031660009081526006602052604090205490565b61032561046b36600461511c565b6133a5565b61022361047e36600461511c565b61340c565b6101fd61049136600461511c565b60056020526000908152604090205481565b6102386104b136600461511c565b61357a565b6102cf6104c436600461530f565b613762565b60008060008054906101000a90046001600160a01b031690506000816001600160a01b031663741bef1a6040518163ffffffff1660e01b815260040160206040518083038186803b15801561051d57600080fd5b505afa158015610531573d6000803e3d6000fd5b505050506040513d601f19601f8201168201806040525081019061055591906150b6565b90506000816001600160a01b031663aaf5eb686040518163ffffffff1660e01b815260040160206040518083038186803b15801561059257600080fd5b505afa1580156105a6573d6000803e3d6000fd5b505050506040513d601f19601f820116820180604052508101906105ca919061532b565b9050600080836001600160a01b031663e6c14362886020015189604001516040518363ffffffff1660e01b81526004016106059291906153f0565b60206040518083038186803b15801561061d57600080fd5b505afa158015610631573d6000803e3d6000fd5b505050506040513d601f19601f82011682018060405250810190610655919061532b565b9050828188608001516106689190615644565b6106729190615622565b9150506000846001600160a01b0316636d2745536040518163ffffffff1660e01b815260040160206040518083038186803b1580156106b057600080fd5b505afa1580156106c4573d6000803e3d6000fd5b505050506040513d601f19601f820116820180604052508101906106e8919061532b565b6020880151604051635ba2edab60e11b81526001600160a01b0391821660048201529192506000919087169063b745db569060240160206040518083038186803b15801561073557600080fd5b505afa158015610749573d6000803e3d6000fd5b505050506040513d601f19601f8201168201806040525081019061076d919061532b565b606089015160405163095bf1bb60e01b81526001600160a01b0391821660048201529192506000919088169063095bf1bb9060240160206040518083038186803b1580156107ba57600080fd5b505afa1580156107ce573d6000803e3d6000fd5b505050506040513d601f19601f820116820180604052508101906107f2919061532b565b90506000816108018486615663565b61080b9087615644565b6108159190615622565b60608b01516040808d01519051637360a1b160e11b81529293506000926001600160a01b038b169263e6c143629261084f926004016153f0565b60206040518083038186803b15801561086757600080fd5b505afa15801561087b573d6000803e3d6000fd5b505050506040513d601f19601f8201168201806040525081019061089f919061532b565b9050806108ac8884615644565b6108b69190615622565b9b9a5050505050505050505050565b8051600090815260056020526040902054806108ff5781516040516354ec2eeb60e01b815260048101919091526024015b60405180910390fd5b6000600261090e600184615663565b8154811061091e5761091e6156a6565b60009182526020909120600154601690920201600881015490925061094f916001600160a01b039081169116613c7d565b6001600160a01b0316336001600160a01b0316146109825760405163a59d7f4d60e01b81523360048201526024016108f6565b601381015460ff16156109ae578251604051632a2af87d60e11b815260048101919091526024016108f6565b600181015460408401516001600160a01b039081169116146109f85760018101546040808501519051631194af8760e11b81526108f6926001600160a01b031691906004016153f0565b6000805460408051633a0df78d60e11b815290516001600160a01b039092169291839163741bef1a916004808301926020929190829003018186803b158015610a4057600080fd5b505afa158015610a54573d6000803e3d6000fd5b505050506040513d601f19601f82011682018060405250810190610a7891906150b6565b60038401546008850154604051637360a1b160e11b81529293506000926001600160a01b038086169363e6c1436293610ab9939183169216906004016153f0565b60206040518083038186803b158015610ad157600080fd5b505afa158015610ae5573d6000803e3d6000fd5b505050506040513d601f19601f82011682018060405250810190610b09919061532b565b905080866020015110610b3f5760208601516040516316b481fb60e11b81526108f6918391600401918252602082015260400190565b6020868101516010860181905587516040808a015181519384526001600160a01b031693830193909352917f16ecc3716f8ba588e1f42501972bcac92c1672192e042949e6d3847a1bde9b5d910160405180910390a2505050505050565b610ba5614cf6565b610bae82613d24565b92915050565b6001600160a01b0382166000908152600660205260408120805483908110610bde57610bde6156a6565b9060005260206000200154905092915050565b60038181548110610c0157600080fd5b600091825260209091200154905081565b8051600090815260056020526040812054801561112e5760006002610c38600184615663565b81548110610c4857610c486156a6565b60009182526020808320604080516101a08101825260169094029091018054845260018101546001600160a01b03908116858501526002820154811685840152825160a080820185526003840154831682526004808501548388015260058501548387015260068501546060848101919091526007860154608080860191909152818a0194909452865180880188526008870154861681526009870154818a0152848a015286518084018852600a87015486168152600b870154818a0152600c87015481890152600d87015481830152600e87015481860152838a0152600f86015460c0808b0191909152601087015460e0808c01919091526011880154610100808d019190915260128901546101208d015289518082018b5260138a015460ff8082161515835292810483161515828e015262010000810483161515828d015263010000008104831615159582019590955264010000000085048216151597810197909752600160281b84048116151595870195909552600160301b83048516151591860191909152600160381b9091049092161515918301919091526101408701919091526014830154821661016087015260159092015461018086015285548351633a0df78d60e11b81529351959750169493859363741bef1a938084019391929190829003018186803b158015610e4257600080fd5b505afa158015610e56573d6000803e3d6000fd5b505050506040513d601f19601f82011682018060405250810190610e7a91906150b6565b90506000816001600160a01b031663aaf5eb686040518163ffffffff1660e01b815260040160206040518083038186803b158015610eb757600080fd5b505afa158015610ecb573d6000803e3d6000fd5b505050506040513d601f19601f82011682018060405250810190610eef919061532b565b606085015151604051635ba2edab60e11b81526001600160a01b0391821660048201529192506000919085169063b745db569060240160206040518083038186803b158015610f3d57600080fd5b505afa158015610f51573d6000803e3d6000fd5b505050506040513d601f19601f82011682018060405250810190610f75919061532b565b60a08601515160405163095bf1bb60e01b81526001600160a01b0391821660048201529192506000919086169063095bf1bb9060240160206040518083038186803b158015610fc357600080fd5b505afa158015610fd7573d6000803e3d6000fd5b505050506040513d601f19601f82011682018060405250810190610ffb919061532b565b9050600089602001518760a0015160200151611017919061560a565b9050600061102785612710615644565b60608901516040810151602090910151869161104291615644565b61104c9190615644565b6110569190615622565b60a08901515160405163017f783b60e61b81526001600160a01b03918216600482015291925060009190891690635fde0ec09060240160206040518083038186803b1580156110a457600080fd5b505afa1580156110b8573d6000803e3d6000fd5b505050506040513d601f19601f820116820180604052508101906110dc919061532b565b905060008482848c60800151602001516110f69190615663565b6111009190615644565b61110a9190615622565b9050836111178883615644565b6111219190615622565b9b50505050505050505050505b50919050565b60008181526005602052604090205480611164576040516354ec2eeb60e01b8152600481018390526024016108f6565b60006002611173600184615663565b81548110611183576111836156a6565b60009182526020909120601690910201601381015490915060ff16156111bf57604051632a2af87d60e11b8152600481018490526024016108f6565b6015810154156111e557604051634fd9d2b360e11b8152600481018490526024016108f6565b426111ef84614666565b15611232576015820181905560405181815284907fa12564b997ab2a5a96db3485450b11398857b9457f88412f9ad19cdffd43a1ab906020015b60405180910390a25b50505050565b8051600090815260056020526040812054819080156116985760006002611260600184615663565b81548110611270576112706156a6565b60009182526020808320604080516101a08101825260169094029091018054845260018101546001600160a01b03908116858501526002820154811685840152825160a080820185526003840154831682526004808501548388015260058501548387015260068501546060848101919091526007860154608080860191909152818a0194909452865180880188526008870154861681526009870154818a0152848a015286518084018852600a87015486168152600b870154818a0152600c87015481890152600d87015481830152600e87015481860152838a0152600f86015460c0808b0191909152601087015460e0808c01919091526011880154610100808d019190915260128901546101208d015289518082018b5260138a015460ff8082161515835292810483161515828e015262010000810483161515828d015263010000008104831615159582019590955264010000000085048216151597810197909752600160281b84048116151595870195909552600160301b83048516151591860191909152600160381b90910490921615159183019190915261014087019190915260148301548216610160870152601590920154610180860152855483516375e5807960e01b8152935195975016949385936375e58079938084019391929190829003018186803b15801561146a57600080fd5b505afa15801561147e573d6000803e3d6000fd5b505050506040513d601f19601f820116820180604052508101906114a291906150b6565b90508260c001518760200151106116945760808301515160405163ac436bdf60e01b81526001600160a01b03918216600482015260009184169063ac436bdf9060240160206040518083038186803b1580156114fd57600080fd5b505afa158015611511573d6000803e3d6000fd5b505050506040513d601f19601f82011682018060405250810190611535919061532b565b905064496cebb8008460c0015189602001516115519190615663565b828660800151602001516115659190615644565b61156f9190615644565b6115799190615622565b602085015160405163172c717b60e01b81526001600160a01b0391821660048201526024810183905291985083169063172c717b9060440160206040518083038186803b1580156115c957600080fd5b505afa1580156115dd573d6000803e3d6000fd5b505050506040513d601f19601f82011682018060405250810190611601919061532b565b96506000836001600160a01b03166358f858806040518163ffffffff1660e01b815260040160206040518083038186803b15801561163e57600080fd5b505afa158015611652573d6000803e3d6000fd5b505050506040513d601f19601f82011682018060405250810190611676919061532b565b9050612710611685828a615644565b61168f9190615622565b965050505b5050505b50915091565b6000805460408051633a0df78d60e11b8152905183926001600160a01b0316918391839163741bef1a916004808301926020929190829003018186803b1580156116e757600080fd5b505afa1580156116fb573d6000803e3d6000fd5b505050506040513d601f19601f8201168201806040525081019061171f91906150b6565b90506000816001600160a01b031663aaf5eb686040518163ffffffff1660e01b815260040160206040518083038186803b15801561175c57600080fd5b505afa158015611770573d6000803e3d6000fd5b505050506040513d601f19601f82011682018060405250810190611794919061532b565b90506000806000846001600160a01b031663e6c143628a602001518b604001516040518363ffffffff1660e01b81526004016117d19291906153f0565b60206040518083038186803b1580156117e957600080fd5b505afa1580156117fd573d6000803e3d6000fd5b505050506040513d601f19601f82011682018060405250810190611821919061532b565b905083818a608001516118349190615644565b61183e9190615622565b60608a01516040808c01519051637360a1b160e11b81529295506000926001600160a01b0389169263e6c1436292611878926004016153f0565b60206040518083038186803b15801561189057600080fd5b505afa1580156118a4573d6000803e3d6000fd5b505050506040513d601f19601f820116820180604052508101906118c8919061532b565b905084818b60c001516118db9190615644565b6118e59190615622565b925050506000856001600160a01b0316636d2745536040518163ffffffff1660e01b815260040160206040518083038186803b15801561192457600080fd5b505afa158015611938573d6000803e3d6000fd5b505050506040513d601f19601f8201168201806040525081019061195c919061532b565b60208a0151604051635ba2edab60e11b81526001600160a01b0391821660048201529192506000919088169063b745db569060240160206040518083038186803b1580156119a957600080fd5b505afa1580156119bd573d6000803e3d6000fd5b505050506040513d601f19601f820116820180604052508101906119e1919061532b565b60608b015160405163095bf1bb60e01b81526001600160a01b0391821660048201529192506000919089169063095bf1bb9060240160206040518083038186803b158015611a2e57600080fd5b505afa158015611a42573d6000803e3d6000fd5b505050506040513d601f19601f82011682018060405250810190611a66919061532b565b9050600081611a758486615663565b611a7f9088615644565b611a899190615622565b905080851015611aa7575060009b8c9b509950505050505050505050565b506000612710611ab78488615644565b611ac19190615622565b90506000612710611ad28488615644565b611adc9190615622565b9050612710611aeb8689615644565b611af59190615622565b9b50611b01818361560a565b9a5050505050505050505050915091565b6000546001600160a01b031615611b3c576040516373e833b960e11b815260040160405180910390fd5b600080546001600160a01b0319166001600160a01b0383169081179091556040805163188c824d60e11b81529051633119049a91600480820192602092909190829003018186803b158015611b9057600080fd5b505afa158015611ba4573d6000803e3d6000fd5b505050506040513d601f19601f82011682018060405250810190611bc891906150b6565b600180546001600160a01b0319166001600160a01b039290921691909117905550565b6000610bae82614666565b600154608082015151600091611c17916001600160a01b0390911690613c7d565b6001600160a01b0316336001600160a01b031614611c4a5760405163a59d7f4d60e01b81523360048201526024016108f6565b6002546040516bffffffffffffffffffffffff193060601b16602082015260348101919091524260548201526074016040516020818303038152906040528051906020012090508082600001818152505060028290806001815401808255809150506001900390600052602060002090601602016000909190919091506000820151816000015560208201518160010160006101000a8154816001600160a01b0302191690836001600160a01b0316021790555060408201518160020160006101000a8154816001600160a01b0302191690836001600160a01b0316021790555060608201518160030160008201518160000160006101000a8154816001600160a01b0302191690836001600160a01b0316021790555060208201518160010155604082015181600201556060820151816003015560808201518160040155505060808201518160080160008201518160000160006101000a8154816001600160a01b0302191690836001600160a01b0316021790555060208201518160010155505060a082015181600a0160008201518160000160006101000a8154816001600160a01b0302191690836001600160a01b0316021790555060208201518160010155604082015181600201556060820151816003015560808201518160040155505060c082015181600f015560e08201518160100155610100820151816011015561012082015181601201556101408201518160130160008201518160000160006101000a81548160ff02191690831515021790555060208201518160000160016101000a81548160ff02191690831515021790555060408201518160000160026101000a81548160ff02191690831515021790555060608201518160000160036101000a81548160ff02191690831515021790555060808201518160000160046101000a81548160ff02191690831515021790555060a08201518160000160056101000a81548160ff02191690831515021790555060c08201518160000160066101000a81548160ff02191690831515021790555060e08201518160000160076101000a81548160ff02191690831515021790555050506101608201518160140160006101000a8154816001600160a01b0302191690836001600160a01b03160217905550610180820151816015015550506002805490506005600084600001518152602001908152602001600020819055506003826000015190806001815401808255809150506001900390600052602060002001600090919091909150556003805490506004600084600001518152602001908152602001600020819055506006600083602001516001600160a01b03166001600160a01b031681526020019081526020016000208260000151908060018154018082558091505060019003906000526020600020016000909190919091505581600001517f5fab80b8320f567319e4d7377f5305880481272b952242604af9f7f912af3bdb60405160405180910390a2919050565b8051600090815260056020526040812054806120cc5782516040516354ec2eeb60e01b815260048101919091526024016108f6565b600060026120db600184615663565b815481106120eb576120eb6156a6565b60009182526020909120600154601690920201600881015490925061211c916001600160a01b039081169116613c7d565b6001600160a01b0316336001600160a01b03161461214f5760405163a59d7f4d60e01b81523360048201526024016108f6565b601381015460ff161561217b578351604051632a2af87d60e11b815260048101919091526024016108f6565b600181015460408501516001600160a01b039081169116146121c55760018101546040808601519051631194af8760e11b81526108f6926001600160a01b031691906004016153f0565b6000805460408051633a0df78d60e11b815290516001600160a01b039092169291839163741bef1a916004808301926020929190829003018186803b15801561220d57600080fd5b505afa158015612221573d6000803e3d6000fd5b505050506040513d601f19601f8201168201806040525081019061224591906150b6565b90506000816001600160a01b031663aaf5eb686040518163ffffffff1660e01b815260040160206040518083038186803b15801561228257600080fd5b505afa158015612296573d6000803e3d6000fd5b505050506040513d601f19601f820116820180604052508101906122ba919061532b565b6003850154604051635ba2edab60e11b81526001600160a01b0391821660048201529192506000919085169063b745db569060240160206040518083038186803b15801561230757600080fd5b505afa15801561231b573d6000803e3d6000fd5b505050506040513d601f19601f8201168201806040525081019061233f919061532b565b600a86015460405163095bf1bb60e01b81526001600160a01b0391821660048201529192506000919086169063095bf1bb9060240160206040518083038186803b15801561238c57600080fd5b505afa1580156123a0573d6000803e3d6000fd5b505050506040513d601f19601f820116820180604052508101906123c4919061532b565b90506000896020015187600a01600101546123df919061560a565b905060006123ef85612710615644565b600589015460048a0154869161240491615644565b61240e9190615644565b6124189190615622565b600a89015460405163017f783b60e61b81526001600160a01b03918216600482015291925060009190891690635fde0ec09060240160206040518083038186803b15801561246557600080fd5b505afa158015612479573d6000803e3d6000fd5b505050506040513d601f19601f8201168201806040525081019061249d919061532b565b905060008482848c600801600101546124b69190615663565b6124c09190615644565b6124ca9190615622565b9050836124d78883615644565b6124e19190615622565b600d8b015550508a516020808d01516040808f015181519283529282018e90526001600160a01b039092168183015290517f9eadcc5983e9f0a6ecaed53a02a3257cc83e8581346642986340e548338a2db79181900360600190a2505050505050505050919050565b6000848152600560205260409020548061257a576040516354ec2eeb60e01b8152600481018690526024016108f6565b60006002612589600184615663565b81548110612599576125996156a6565b6000918252602090912060015460169092020160088101549092506125ca916001600160a01b039081169116613c7d565b6001600160a01b0316336001600160a01b0316146125fd5760405163a59d7f4d60e01b81523360048201526024016108f6565b601381015460ff1661262557604051635de41db760e11b8152600481018790526024016108f6565b6000805460408051633a0df78d60e11b815290516001600160a01b039092169291839163741bef1a916004808301926020929190829003018186803b15801561266d57600080fd5b505afa158015612681573d6000803e3d6000fd5b505050506040513d601f19601f820116820180604052508101906126a591906150b6565b90506000816001600160a01b031663aaf5eb686040518163ffffffff1660e01b815260040160206040518083038186803b1580156126e257600080fd5b505afa1580156126f6573d6000803e3d6000fd5b505050506040513d601f19601f8201168201806040525081019061271a919061532b565b600485015490915061272c828a615644565b6127369190615622565b6007850155861561277257600b840154600090612754908890615663565b905080612761838a615644565b61276b9190615622565b600e860155505b505050505050505050565b6002818154811061278d57600080fd5b90600052602060002090601602016000915090508060000154908060010160009054906101000a90046001600160a01b0316908060020160009054906101000a90046001600160a01b031690806003016040518060a00160405290816000820160009054906101000a90046001600160a01b03166001600160a01b03166001600160a01b0316815260200160018201548152602001600282015481526020016003820154815260200160048201548152505090806008016040518060400160405290816000820160009054906101000a90046001600160a01b03166001600160a01b03166001600160a01b031681526020016001820154815250509080600a016040518060a00160405290816000820160009054906101000a90046001600160a01b03166001600160a01b03166001600160a01b031681526020016001820154815260200160028201548152602001600382015481526020016004820154815250509080600f01549080601001549080601101549080601201549080601301604051806101000160405290816000820160009054906101000a900460ff161515151581526020016000820160019054906101000a900460ff161515151581526020016000820160029054906101000a900460ff161515151581526020016000820160039054906101000a900460ff161515151581526020016000820160049054906101000a900460ff161515151581526020016000820160059054906101000a900460ff161515151581526020016000820160069054906101000a900460ff161515151581526020016000820160079054906101000a900460ff161515151581525050908060140160009054906101000a90046001600160a01b031690806015015490508d565b60008281526005602052604090205480612a44576040516354ec2eeb60e01b8152600481018490526024016108f6565b60006002612a53600184615663565b81548110612a6357612a636156a6565b600091825260209091206001546016909202016008810154909250612a94916001600160a01b039081169116613c7d565b6001600160a01b0316336001600160a01b031614612ac75760405163a59d7f4d60e01b81523360048201526024016108f6565b601381015460ff1615612af057604051632a2af87d60e11b8152600481018590526024016108f6565b60018101546001600160a01b03848116911614612b31576001810154604051631194af8760e11b81526108f6916001600160a01b03169085906004016153f0565b60138101805465ff00000000ff1916650100000000011790556014810180546001600160a01b0319166001600160a01b0385161790558054612b7290614a94565b6040516001600160a01b038416815284907f6a85bd8516bd8204e81aa2933301a26c59fc549b80ea554b8628afbcdf21e2c790602001611229565b612bb5614cf6565b600082815260056020526040902054801561112e576002612bd7600183615663565b81548110612be757612be76156a6565b6000918252602091829020604080516101a08101825260169093029091018054835260018101546001600160a01b03908116848601526002820154811684840152825160a080820185526003840154831682526004840154828801526005840154828601526006840154606083810191909152600785015460808085019190915281880193909352855180870187526008860154851681526009860154818a01528388015285518083018752600a86015485168152600b860154818a0152600c86015481880152600d86015481830152600e8601548185015282880152600f85015460c080890191909152601086015460e0808a01919091526011870154610100808b019190915260128801546101208b015288518082018a52601389015460ff80821615158352928104831615159c82019c909c52620100008c04821615159981019990995263010000008b0481161515938901939093526401000000008a048316151594880194909452600160281b89048216151592870192909252600160301b88048116151591860191909152600160381b9096049095161515948301949094526101408301919091526014810154909216610160820152601590910154610180820152915050919050565b60008281526005602052604081205480612de6576040516354ec2eeb60e01b8152600481018590526024016108f6565b60006002612df5600184615663565b81548110612e0557612e056156a6565b600091825260209091206001546016909202016008810154909250612e36916001600160a01b039081169116613c7d565b6001600160a01b0316336001600160a01b031614612e695760405163a59d7f4d60e01b81523360048201526024016108f6565b601381015460ff1615612e9257604051632a2af87d60e11b8152600481018690526024016108f6565b4281600f015411612eb35760138101805461ff001916610100179055600192505b6000805460408051633a0df78d60e11b815290516001600160a01b039092169291839163741bef1a916004808301926020929190829003018186803b158015612efb57600080fd5b505afa158015612f0f573d6000803e3d6000fd5b505050506040513d601f19601f82011682018060405250810190612f3391906150b6565b600a8401546008850154604051637360a1b160e11b81529293506000926001600160a01b038086169363e6c1436293612f74939183169216906004016153f0565b60206040518083038186803b158015612f8c57600080fd5b505afa158015612fa0573d6000803e3d6000fd5b505050506040513d601f19601f82011682018060405250810190612fc4919061532b565b600d8501549091508111612fee5760138401805464ff000000001916640100000000179055600195505b60038401546008850154604051637360a1b160e11b81526000926001600160a01b038681169363e6c143629361302d93831692909116906004016153f0565b60206040518083038186803b15801561304557600080fd5b505afa158015613059573d6000803e3d6000fd5b505050506040513d601f19601f8201168201806040525081019061307d919061532b565b905060008560100154118015613097575084601001548111155b156130b45760138501805462ff0000191662010000179055600196505b600685015481116130d95760138501805463ff00000019166301000000179055600196505b60018501546001600160a01b038981169116148015906130f7575086155b15613126576001850154604051631194af8760e11b81526108f6916001600160a01b0316908a906004016153f0565b60138501805460ff191660011790556014850180546001600160a01b038a166001600160a01b0319909116179055845461315f90614a94565b6040516001600160a01b038916815289907f6a85bd8516bd8204e81aa2933301a26c59fc549b80ea554b8628afbcdf21e2c79060200160405180910390a250505050505092915050565b600081815260056020526040902054806131d9576040516354ec2eeb60e01b8152600481018390526024016108f6565b600060026131e8600184615663565b815481106131f8576131f86156a6565b600091825260209091206001546016909202016008810154909250613229916001600160a01b039081169116613c7d565b6001600160a01b0316336001600160a01b03161461325c5760405163a59d7f4d60e01b81523360048201526024016108f6565b601381015460ff161561328557604051632a2af87d60e11b8152600481018490526024016108f6565b6000546040805163eddf82bb60e01b815290516001600160a01b0390921691829163eddf82bb916004808301926020929190829003018186803b1580156132cb57600080fd5b505afa1580156132df573d6000803e3d6000fd5b505050506040513d601f19601f82011682018060405250810190613303919061532b565b8260150154613312919061560a565b4210156133355760405163a2757e2760e01b8152600481018590526024016108f6565b60138201805466ff0000000000001916600160301b17905560405184907f0de9a071731ad64ea412c199b649f11ada453eb6c8b323fc0769345e62316a4990600090a250505050565b600060038281548110613393576133936156a6565b90600052602060002001549050919050565b600081815260056020526040812054806133c25750600092915050565b6133cb83614666565b8015613405575060026133df600183615663565b815481106133ef576133ef6156a6565b9060005260206000209060160201601501546000145b9392505050565b6000818152600560205260409020548061343c576040516354ec2eeb60e01b8152600481018390526024016108f6565b6000600261344b600184615663565b8154811061345b5761345b6156a6565b60009182526020909120600154601690920201600881015490925061348c916001600160a01b039081169116613c7d565b6001600160a01b0316336001600160a01b0316146134bf5760405163a59d7f4d60e01b81523360048201526024016108f6565b601381015460ff16156134e857604051632a2af87d60e11b8152600481018490526024016108f6565b6013810154600160301b900460ff166135175760405163746d2b8160e01b8152600481018490526024016108f6565b60138101805467ff000000000000ff1916670100000000000001179055805461353f90614a94565b6040516000815283907f6a85bd8516bd8204e81aa2933301a26c59fc549b80ea554b8628afbcdf21e2c79060200160405180910390a2505050565b613582614cf6565b60028281548110613595576135956156a6565b6000918252602091829020604080516101a08101825260169093029091018054835260018101546001600160a01b03908116848601526002820154811684840152825160a080820185526003840154831682526004840154828801526005840154828601526006840154606083810191909152600785015460808085019190915281880193909352855180870187526008860154851681526009860154818a01528388015285518083018752600a86015485168152600b860154818a0152600c86015481880152600d86015481830152600e8601548185015282880152600f85015460c080890191909152601086015460e0808a01919091526011870154610100808b019190915260128801546101208b015288518082018a52601389015460ff80821615158352928104831615159c82019c909c52620100008c04821615159981019990995263010000008b0481161515938901939093526401000000008a048316151594880194909452600160281b89048216151592870192909252600160301b88048116151591860191909152600160381b909604909516151594830194909452610140830191909152601481015490921661016082015260159091015461018082015292915050565b80516000908152600560205260408120548190806137995783516040516354ec2eeb60e01b815260048101919091526024016108f6565b600060026137a8600184615663565b815481106137b8576137b86156a6565b6000918252602090912060015460169092020160088101549092506137e9916001600160a01b039081169116613c7d565b6001600160a01b0316336001600160a01b03161461381c5760405163a59d7f4d60e01b81523360048201526024016108f6565b601381015460ff1615613848578451604051632a2af87d60e11b815260048101919091526024016108f6565b600181015460408601516001600160a01b039081169116146138925760018101546040808701519051631194af8760e11b81526108f6926001600160a01b031691906004016153f0565b60008054604080516375e5807960e01b815290516001600160a01b03909216929183916375e58079916004808301926020929190829003018186803b1580156138da57600080fd5b505afa1580156138ee573d6000803e3d6000fd5b505050506040513d601f19601f8201168201806040525081019061391291906150b6565b604080890151905163223884bf60e11b81526001600160a01b03918216600482015291925060009190831690634471097e9060240160206040518083038186803b15801561395f57600080fd5b505afa158015613973573d6000803e3d6000fd5b505050506040513d601f19601f8201168201806040525081019061399791906150ff565b9050806139c857604080890151905163fa5cd00f60e01b81526001600160a01b0390911660048201526024016108f6565b83600f01548860200151116139f057604051630309cb8760e51b815260040160405180910390fd5b600884015460405163ac436bdf60e01b81526001600160a01b03918216600482015260009185169063ac436bdf9060240160206040518083038186803b158015613a3957600080fd5b505afa158015613a4d573d6000803e3d6000fd5b505050506040513d601f19601f82011682018060405250810190613a71919061532b565b905064496cebb80085600f01548a60200151613a8d9190615663565b6009870154613a9d908490615644565b613aa79190615644565b613ab19190615622565b600186015460405163172c717b60e01b81526001600160a01b0391821660048201526024810183905291995084169063172c717b9060440160206040518083038186803b158015613b0157600080fd5b505afa158015613b15573d6000803e3d6000fd5b505050506040513d601f19601f82011682018060405250810190613b39919061532b565b97506000846001600160a01b03166358f858806040518163ffffffff1660e01b815260040160206040518083038186803b158015613b7657600080fd5b505afa158015613b8a573d6000803e3d6000fd5b505050506040513d601f19601f82011682018060405250810190613bae919061532b565b9050612710613bbd828b615644565b613bc79190615622565b975088866008016001016000828254613be0919061560a565b9250508190555088866011016000828254613bfb919061560a565b9250508190555087866012016000828254613c16919061560a565b909155505060208a810151600f88018190558b516040808e015181519384526001600160a01b031693830193909352917f058d0b7c2499b80403e5adabcc2c3565b19c921a6781e8d474d2bf925b51f21c910160405180910390a250505050505050915091565b604080516001600160a01b03831660208083019190915282518083038201815282840190935282519201919091206001600160f81b031960608084019190915284901b6bffffffffffffffffffffffff1916606183015260758201527f6c6a3125043137214ba9fce2fbc49163378d28fdd84e53dba5c0af27a794e0bf609582015260009060b50160408051601f1981840301815291905280516020909101209392505050565b613d2c614cf6565b8160e0015142108015613d59575081604001516001600160a01b031682602001516001600160a01b031614155b15614661576000805460408051633a0df78d60e11b815290516001600160a01b039092169291839163741bef1a916004808301926020929190829003018186803b158015613da657600080fd5b505afa158015613dba573d6000803e3d6000fd5b505050506040513d601f19601f82011682018060405250810190613dde91906150b6565b90506000816001600160a01b031663aaf5eb686040518163ffffffff1660e01b815260040160206040518083038186803b158015613e1b57600080fd5b505afa158015613e2f573d6000803e3d6000fd5b505050506040513d601f19601f82011682018060405250810190613e53919061532b565b90506000806000846001600160a01b031663e6c1436289602001518a604001516040518363ffffffff1660e01b8152600401613e909291906153f0565b60206040518083038186803b158015613ea857600080fd5b505afa158015613ebc573d6000803e3d6000fd5b505050506040513d601f19601f82011682018060405250810190613ee0919061532b565b90508088610100015110613ef957505050505050919050565b83818960800151613f0a9190615644565b613f149190615622565b60608901516040808b01519051637360a1b160e11b81529295506000926001600160a01b0389169263e6c1436292613f4e926004016153f0565b60206040518083038186803b158015613f6657600080fd5b505afa158015613f7a573d6000803e3d6000fd5b505050506040513d601f19601f82011682018060405250810190613f9e919061532b565b905084818a60c00151613fb19190615644565b613fbb9190615622565b9250613fc689614b74565b97508188606001516040018181525050808860a00151604001818152505050506000856001600160a01b0316636d2745536040518163ffffffff1660e01b815260040160206040518083038186803b15801561402157600080fd5b505afa158015614035573d6000803e3d6000fd5b505050506040513d601f19601f82011682018060405250810190614059919061532b565b6020890151604051635ba2edab60e11b81526001600160a01b0391821660048201529192506000919088169063b745db569060240160206040518083038186803b1580156140a657600080fd5b505afa1580156140ba573d6000803e3d6000fd5b505050506040513d601f19601f820116820180604052508101906140de919061532b565b60608a015160405163095bf1bb60e01b81526001600160a01b0391821660048201529192506000919089169063095bf1bb9060240160206040518083038186803b15801561412b57600080fd5b505afa15801561413f573d6000803e3d6000fd5b505050506040513d601f19601f82011682018060405250810190614163919061532b565b90506000816141728486615663565b61417c9088615644565b6141869190615622565b90508085101561419e57505050505050505050919050565b5060006127106141ae8488615644565b6141b89190615622565b905060006127106141c98689615644565b6141d39190615622565b905060006127106141e48589615644565b6141ee9190615622565b905060006141fc828561560a565b9050808e60a0015111806142135750828e60a00151105b1561422957505050505050505050505050919050565b50505060208b015160405163f5d0e17560e01b81526001600160a01b0391821660048201526000918b169063f5d0e1759060240160206040518083038186803b15801561427557600080fd5b505afa158015614289573d6000803e3d6000fd5b505050506040513d601f19601f820116820180604052508101906142ad919061532b565b9050838c608001516142bf9190615644565b886142ca8385615644565b6142d49190615644565b6142de9190615622565b60608c8101518101919091528c015160405163017f783b60e61b81526001600160a01b03918216600482015260009250908b1690635fde0ec09060240160206040518083038186803b15801561433357600080fd5b505afa158015614347573d6000803e3d6000fd5b505050506040513d601f19601f8201168201806040525081019061436b919061532b565b905060008382848f60a001516143819190615663565b61438b9190615644565b6143959190615622565b9050808710156143af575050505050505050505050919050565b60c08d01516143be8a83615644565b6143c89190615622565b60a08d015160600152505060408b810151905163ac436bdf60e01b81526001600160a01b0391821660048201526000918b169063ac436bdf9060240160206040518083038186803b15801561441c57600080fd5b505afa158015614430573d6000803e3d6000fd5b505050506040513d601f19601f82011682018060405250810190614454919061532b565b9050600064496cebb800428e60e0015161446e9190615663565b838f60a0015161447e9190615644565b6144889190615644565b6144929190615622565b905060008b6001600160a01b03166375e580796040518163ffffffff1660e01b815260040160206040518083038186803b1580156144cf57600080fd5b505afa1580156144e3573d6000803e3d6000fd5b505050506040513d601f19601f8201168201806040525081019061450791906150b6565b8e5160405163172c717b60e01b81526001600160a01b0391821660048201526024810185905291925082169063172c717b9060440160206040518083038186803b15801561455457600080fd5b505afa158015614568573d6000803e3d6000fd5b505050506040513d601f19601f8201168201806040525081019061458c919061532b565b915060008c6001600160a01b03166358f858806040518163ffffffff1660e01b815260040160206040518083038186803b1580156145c957600080fd5b505afa1580156145dd573d6000803e3d6000fd5b505050506040513d601f19601f82011682018060405250810190614601919061532b565b6101008f0184905290506127106146188285615644565b6146229190615622565b6101208f0152505060015460408e015161464993506001600160a01b039091169150613c7d565b6001600160a01b031660408b01525050505050505050505b919050565b600081815260056020526040812054806146835750600092915050565b60006002614692600184615663565b815481106146a2576146a26156a6565b6000918252602091829020604080516101a08101825260169093029091018054835260018101546001600160a01b03908116848601526002820154811684840152825160a080820185526003840154831682526004840154828801526005840154828601526006840154606083810191909152600785015460808085019190915281880193909352855180870187526008860154851681526009860154818a01528388015285518083018752600a86015485168152600b860154818a0152600c86015481880152600d86015481830152600e8601548185015282880152600f85015460c080890191909152601086015460e0808a01919091526011870154610100808b019190915260128801546101208b015288518082018a52601389015460ff80821615158352928104831615159c82019c909c52620100008c04821615159981019990995263010000008b0481161515938901939093526401000000008a048316151594880194909452600160281b89048216151592870192909252600160301b88048116151591860191909152600160381b9096049095161515948301949094526101408301829052601481015490931661016083015260159092015461018082015290519091501561487c575060009392505050565b428160c0015111614891575060019392505050565b6000805460408051633a0df78d60e11b815290516001600160a01b039092169291839163741bef1a916004808301926020929190829003018186803b1580156148d957600080fd5b505afa1580156148ed573d6000803e3d6000fd5b505050506040513d601f19601f8201168201806040525081019061491191906150b6565b60a084015151608085015151604051637360a1b160e11b81529293506000926001600160a01b0385169263e6c143629261494d926004016153f0565b60206040518083038186803b15801561496557600080fd5b505afa158015614979573d6000803e3d6000fd5b505050506040513d601f19601f8201168201806040525081019061499d919061532b565b90508360a001516060015181116149bb575060019695505050505050565b606084015151608085015151604051637360a1b160e11b81526000926001600160a01b0386169263e6c14362926149f69291906004016153f0565b60206040518083038186803b158015614a0e57600080fd5b505afa158015614a22573d6000803e3d6000fd5b505050506040513d601f19601f82011682018060405250810190614a46919061532b565b905060008560e00151118015614a6057508460e001518111155b80614a7357508460600151606001518111155b15614a8657506001979650505050505050565b506000979650505050505050565b600354600082815260046020526040812080549190556001821115614b485780600460006003614ac5600187615663565b81548110614ad557614ad56156a6565b90600052602060002001548152602001908152602001600020819055506003600183614b019190615663565b81548110614b1157614b116156a6565b90600052602060002001546003600183614b2b9190615663565b81548110614b3b57614b3b6156a6565b6000918252602090912001555b6003805480614b5957614b59615690565b60019003818190600052602060002001600090559055505050565b614b7c614cf6565b604051806101a001604052806000801916815260200183600001516001600160a01b0316815260200160006001600160a01b031681526020016040518060a0016040528085602001516001600160a01b0316815260200185608001518152602001600081526020016000815260200160008152508152602001604051806040016040528085604001516001600160a01b031681526020018560a0015181525081526020016040518060a0016040528085606001516001600160a01b031681526020018560c0015181526020016000815260200160008152602001600081525081526020018360e0015181526020018361010001518152602001600081526020016000815260200160405180610100016040528060001515815260200160001515815260200160001515815260200160001515815260200160001515815260200160001515815260200160001515815260200160001515815250815260200160006001600160a01b0316815260200160008152509050919050565b604051806101a001604052806000801916815260200160006001600160a01b0316815260200160006001600160a01b03168152602001614d676040518060a0016040528060006001600160a01b03168152602001600081526020016000815260200160008152602001600081525090565b8152602001614d92604051806040016040528060006001600160a01b03168152602001600081525090565b8152602001614dd26040518060a0016040528060006001600160a01b03168152602001600081526020016000815260200160008152602001600081525090565b8152600060208083018290526040808401839052606080850184905260808086018590528251610100810184528581529384018590529183018490528201839052810182905260a081810183905260c0820183905260e0820192909252910190815260006020820181905260409091015290565b8035614661816156bc565b8035614661816156d4565b600060a08284031215614e6e57600080fd5b60405160a0810181811067ffffffffffffffff82111715614e9f57634e487b7160e01b600052604160045260246000fd5b6040529050808235614eb0816156bc565b80825250602083013560208201526040830135604082015260608301356060820152608083013560808201525092915050565b600060408284031215614ef557600080fd5b6040516040810181811067ffffffffffffffff82111715614f2657634e487b7160e01b600052604160045260246000fd5b6040529050808235614f37816156bc565b8152602092830135920191909152919050565b6000610100808385031215614f5e57600080fd5b6040519081019067ffffffffffffffff82118183101715614f8f57634e487b7160e01b600052604160045260246000fd5b8160405280925083359150614fa3826156d4565b818152614fb260208501614e51565b6020820152614fc360408501614e51565b6040820152614fd460608501614e51565b6060820152614fe560808501614e51565b6080820152614ff660a08501614e51565b60a082015261500760c08501614e51565b60c082015261501860e08501614e51565b60e0820152505092915050565b60006060828403121561503757600080fd5b6040516060810181811067ffffffffffffffff8211171561506857634e487b7160e01b600052604160045260246000fd5b80604052508091508235815260208301356020820152604083013561508c816156bc565b6040919091015292915050565b6000602082840312156150ab57600080fd5b8135613405816156bc565b6000602082840312156150c857600080fd5b8151613405816156bc565b600080604083850312156150e657600080fd5b82356150f1816156bc565b946020939093013593505050565b60006020828403121561511157600080fd5b8151613405816156d4565b60006020828403121561512e57600080fd5b5035919050565b6000806040838503121561514857600080fd5b82359150602083013561515a816156bc565b809150509250929050565b6000806000806080858703121561517b57600080fd5b5050823594602084013594506040840135936060013592509050565b600061012082840312156151aa57600080fd5b6151b26155a0565b6151bb83614e46565b81526151c960208401614e46565b60208201526151da60408401614e46565b60408201526151eb60608401614e46565b60608201526080830135608082015260a083013560a082015260c083013560c082015260e083013560e08201526101008084013581830152508091505092915050565b60006103a0828403121561524157600080fd5b6152496155d8565b8235815261525960208401614e46565b602082015261526a60408401614e46565b604082015261527c8460608501614e5c565b606082015261010061529085828601614ee3565b60808301526101406152a486828701614e5c565b60a08401526101e085013560c084015261020085013560e0840152610220850135828401526102408501356101208401526152e3866102608701614f4a565b90830152506152f56103608401614e46565b610160820152610380929092013561018083015250919050565b60006060828403121561532157600080fd5b6134058383615025565b60006020828403121561533d57600080fd5b5051919050565b80516001600160a01b03168252602080820151908301526040808201519083015260608082015190830152608090810151910152565b80511515825260208101511515602083015260408101511515604083015260608101511515606083015260808101511515608083015260a08101516153c360a084018215159052565b5060c08101516153d760c084018215159052565b5060e08101516153eb60e084018215159052565b505050565b6001600160a01b0392831681529116602082015260400190565b8d81526001600160a01b038d811660208301528c811660408301526103a0820190615438606084018e615344565b8b516001600160a01b031661010084015260208c015161012084015261546261014084018c615344565b896101e084015288610200840152876102208401528661024084015261548c61026084018761537a565b9390931661036082015261038001529b9a5050505050505050505050565b815181526020808301516103a08301916154ce908401826001600160a01b03169052565b5060408301516154e960408401826001600160a01b03169052565b5060608301516154fc6060840182615344565b5060808301516101006155248185018380516001600160a01b03168252602090810151910152565b60a0850151915061014061553a81860184615344565b60c08601516101e086015260e086015161020086015290850151610220850152610120850151610240850152840151905061557961026084018261537a565b506101608301516001600160a01b0316610360830152610180909201516103809091015290565b604051610120810167ffffffffffffffff811182821017156155d257634e487b7160e01b600052604160045260246000fd5b60405290565b6040516101a0810167ffffffffffffffff811182821017156155d257634e487b7160e01b600052604160045260246000fd5b6000821982111561561d5761561d61567a565b500190565b60008261563f57634e487b7160e01b600052601260045260246000fd5b500490565b600081600019048311821515161561565e5761565e61567a565b500290565b6000828210156156755761567561567a565b500390565b634e487b7160e01b600052601160045260246000fd5b634e487b7160e01b600052603160045260246000fd5b634e487b7160e01b600052603260045260246000fd5b6001600160a01b03811681146156d157600080fd5b50565b80151581146156d157600080fdfea2646970667358221220f323f2dbcef83028668fcfa024407eed5828e2c56e9ea72d87a26b567e3b4d4b64736f6c63430008070033",
  "linkReferences": {},
  "deployedLinkReferences": {}
}