{
  "_format": "hh-sol-artifact-1",
  "contractName": "PositionStorage",
  "sourceName": "contracts/PositionStorage.sol",
  "abi": [
    {
      "inputs": [
        {
          "internalType": "uint256",
          "name": "currentPrice",
          "type": "uint256"
        },
        {
          "internalType": "uint256",
          "name": "stoplossPrice",
          "type": "uint256"
        }
      ],
      "name": "BadStoplossPrice",
      "type": "error"
    },
    {
      "inputs": [
        {
          "internalType": "uint256",
          "name": "currentPrice",
          "type": "uint256"
        },
        {
          "internalType": "uint256",
          "name": "takeProfitPrice",
          "type": "uint256"
        }
      ],
      "name": "BadTakeProfitPrice",
      "type": "error"
    },
    {
      "inputs": [
        {
          "internalType": "address",
          "name": "sender",
          "type": "address"
        }
      ],
      "name": "Forbidden",
      "type": "error"
    },
    {
      "inputs": [],
      "name": "InitializedAlready",
      "type": "error"
    },
    {
      "inputs": [],
      "name": "InsufficientServiceFee",
      "type": "error"
    },
    {
      "inputs": [],
      "name": "InvalidParameter",
      "type": "error"
    },
    {
      "inputs": [
        {
          "internalType": "bytes32",
          "name": "positionKey",
          "type": "bytes32"
        }
      ],
      "name": "LiquidationMarkedAlready",
      "type": "error"
    },
    {
      "inputs": [
        {
          "internalType": "address",
          "name": "user",
          "type": "address"
        }
      ],
      "name": "NotAllowed",
      "type": "error"
    },
    {
      "inputs": [
        {
          "internalType": "bytes32",
          "name": "positionKey",
          "type": "bytes32"
        }
      ],
      "name": "NotManualExpired",
      "type": "error"
    },
    {
      "inputs": [
        {
          "internalType": "address",
          "name": "owner",
          "type": "address"
        },
        {
          "internalType": "address",
          "name": "updater",
          "type": "address"
        }
      ],
      "name": "NotOwner",
      "type": "error"
    },
    {
      "inputs": [
        {
          "internalType": "bytes32",
          "name": "positionKey",
          "type": "bytes32"
        }
      ],
      "name": "Step1NotDone",
      "type": "error"
    },
    {
      "inputs": [
        {
          "internalType": "bytes32",
          "name": "positionKey",
          "type": "bytes32"
        }
      ],
      "name": "TradePositionClosedAlready",
      "type": "error"
    },
    {
      "inputs": [
        {
          "internalType": "bytes32",
          "name": "positionKey",
          "type": "bytes32"
        }
      ],
      "name": "TradePositionNotClosed",
      "type": "error"
    },
    {
      "inputs": [
        {
          "internalType": "bytes32",
          "name": "positionKey",
          "type": "bytes32"
        }
      ],
      "name": "TradePositionNotExists",
      "type": "error"
    },
    {
      "anonymous": false,
      "inputs": [
        {
          "indexed": true,
          "internalType": "bytes32",
          "name": "positionKey",
          "type": "bytes32"
        }
      ],
      "name": "CloseManuallyStep1TradePosition",
      "type": "event"
    },
    {
      "anonymous": false,
      "inputs": [
        {
          "indexed": true,
          "internalType": "bytes32",
          "name": "positionKey",
          "type": "bytes32"
        },
        {
          "indexed": false,
          "internalType": "address",
          "name": "updater",
          "type": "address"
        }
      ],
      "name": "CloseTradePosition",
      "type": "event"
    },
    {
      "anonymous": false,
      "inputs": [
        {
          "indexed": true,
          "internalType": "bytes32",
          "name": "positionKey",
          "type": "bytes32"
        },
        {
          "indexed": false,
          "internalType": "uint256",
          "name": "time",
          "type": "uint256"
        }
      ],
      "name": "LiquidationMark",
      "type": "event"
    },
    {
      "anonymous": false,
      "inputs": [
        {
          "indexed": true,
          "internalType": "bytes32",
          "name": "positionKey",
          "type": "bytes32"
        }
      ],
      "name": "OpenTradePosition",
      "type": "event"
    },
    {
      "anonymous": false,
      "inputs": [
        {
          "indexed": true,
          "internalType": "bytes32",
          "name": "positionKey",
          "type": "bytes32"
        },
        {
          "indexed": false,
          "internalType": "uint256",
          "name": "amount",
          "type": "uint256"
        },
        {
          "indexed": false,
          "internalType": "uint256",
          "name": "collateralLiqPrice",
          "type": "uint256"
        },
        {
          "indexed": false,
          "internalType": "address",
          "name": "updater",
          "type": "address"
        }
      ],
      "name": "UpdateCollateralAmount",
      "type": "event"
    },
    {
      "anonymous": false,
      "inputs": [
        {
          "indexed": true,
          "internalType": "bytes32",
          "name": "positionKey",
          "type": "bytes32"
        },
        {
          "indexed": false,
          "internalType": "uint256",
          "name": "newDeadline",
          "type": "uint256"
        },
        {
          "indexed": false,
          "internalType": "address",
          "name": "updater",
          "type": "address"
        }
      ],
      "name": "UpdateDeadline",
      "type": "event"
    },
    {
      "anonymous": false,
      "inputs": [
        {
          "indexed": true,
          "internalType": "bytes32",
          "name": "positionKey",
          "type": "bytes32"
        },
        {
          "indexed": false,
          "internalType": "uint256",
          "name": "newTakeProfitPrice",
          "type": "uint256"
        },
        {
          "indexed": false,
          "internalType": "uint256",
          "name": "newStoplossPrice",
          "type": "uint256"
        },
        {
          "indexed": false,
          "internalType": "address",
          "name": "updater",
          "type": "address"
        },
        {
          "indexed": false,
          "internalType": "address",
          "name": "serviceToken",
          "type": "address"
        },
        {
          "indexed": false,
          "internalType": "uint256",
          "name": "serviceFee",
          "type": "uint256"
        }
      ],
      "name": "UpdateTPnSLPrice",
      "type": "event"
    },
    {
      "inputs": [
        {
          "internalType": "bytes32",
          "name": "_positionKey",
          "type": "bytes32"
        }
      ],
      "name": "canLiquidate",
      "outputs": [
        {
          "internalType": "bool",
          "name": "",
          "type": "bool"
        }
      ],
      "stateMutability": "view",
      "type": "function"
    },
    {
      "inputs": [
        {
          "internalType": "bytes32",
          "name": "_positionKey",
          "type": "bytes32"
        }
      ],
      "name": "canLiquidationMark",
      "outputs": [
        {
          "internalType": "bool",
          "name": "",
          "type": "bool"
        }
      ],
      "stateMutability": "view",
      "type": "function"
    },
    {
      "inputs": [
        {
          "internalType": "bytes32",
          "name": "_positionKey",
          "type": "bytes32"
        }
      ],
      "name": "closeManuallyStep1",
      "outputs": [],
      "stateMutability": "nonpayable",
      "type": "function"
    },
    {
      "inputs": [
        {
          "internalType": "bytes32",
          "name": "_positionKey",
          "type": "bytes32"
        }
      ],
      "name": "closeManuallyStep2",
      "outputs": [],
      "stateMutability": "nonpayable",
      "type": "function"
    },
    {
      "inputs": [],
      "name": "factory",
      "outputs": [
        {
          "internalType": "address",
          "name": "",
          "type": "address"
        }
      ],
      "stateMutability": "view",
      "type": "function"
    },
    {
      "inputs": [
        {
          "components": [
            {
              "internalType": "address",
              "name": "owner",
              "type": "address"
            },
            {
              "internalType": "address",
              "name": "baseToken",
              "type": "address"
            },
            {
              "internalType": "address",
              "name": "quoteToken",
              "type": "address"
            },
            {
              "internalType": "address",
              "name": "collateral",
              "type": "address"
            },
            {
              "internalType": "uint256",
              "name": "baseAmount",
              "type": "uint256"
            },
            {
              "internalType": "uint256",
              "name": "quoteAmount",
              "type": "uint256"
            },
            {
              "internalType": "uint256",
              "name": "collateralAmount",
              "type": "uint256"
            },
            {
              "internalType": "uint256",
              "name": "deadline",
              "type": "uint256"
            },
            {
              "internalType": "uint256",
              "name": "stoplossPrice",
              "type": "uint256"
            },
            {
              "internalType": "uint256",
              "name": "takeProfitPrice",
              "type": "uint256"
            }
          ],
          "internalType": "struct IPositionStorage.OpenTradePositionParams",
          "name": "_params",
          "type": "tuple"
        }
      ],
      "name": "getMinCollateralAmount",
      "outputs": [
        {
          "internalType": "uint256",
          "name": "",
          "type": "uint256"
        }
      ],
      "stateMutability": "view",
      "type": "function"
    },
    {
      "inputs": [
        {
          "components": [
            {
              "internalType": "address",
              "name": "owner",
              "type": "address"
            },
            {
              "internalType": "address",
              "name": "baseToken",
              "type": "address"
            },
            {
              "internalType": "address",
              "name": "quoteToken",
              "type": "address"
            },
            {
              "internalType": "address",
              "name": "collateral",
              "type": "address"
            },
            {
              "internalType": "uint256",
              "name": "baseAmount",
              "type": "uint256"
            },
            {
              "internalType": "uint256",
              "name": "quoteAmount",
              "type": "uint256"
            },
            {
              "internalType": "uint256",
              "name": "collateralAmount",
              "type": "uint256"
            },
            {
              "internalType": "uint256",
              "name": "deadline",
              "type": "uint256"
            },
            {
              "internalType": "uint256",
              "name": "stoplossPrice",
              "type": "uint256"
            },
            {
              "internalType": "uint256",
              "name": "takeProfitPrice",
              "type": "uint256"
            }
          ],
          "internalType": "struct IPositionStorage.OpenTradePositionParams",
          "name": "_params",
          "type": "tuple"
        }
      ],
      "name": "getQuoteAmountRange",
      "outputs": [
        {
          "internalType": "uint256",
          "name": "minQuoteAmount",
          "type": "uint256"
        },
        {
          "internalType": "uint256",
          "name": "maxQuoteAmount",
          "type": "uint256"
        }
      ],
      "stateMutability": "view",
      "type": "function"
    },
    {
      "inputs": [
        {
          "internalType": "bytes32",
          "name": "_positionKey",
          "type": "bytes32"
        }
      ],
      "name": "liquidationMark",
      "outputs": [],
      "stateMutability": "nonpayable",
      "type": "function"
    },
    {
      "inputs": [
        {
          "components": [
            {
              "internalType": "bytes32",
              "name": "positionKey",
              "type": "bytes32"
            },
            {
              "internalType": "address",
              "name": "owner",
              "type": "address"
            },
            {
              "internalType": "address",
              "name": "pool",
              "type": "address"
            },
            {
              "components": [
                {
                  "internalType": "address",
                  "name": "id",
                  "type": "address"
                },
                {
                  "internalType": "uint256",
                  "name": "amount",
                  "type": "uint256"
                },
                {
                  "internalType": "uint256",
                  "name": "entryPrice",
                  "type": "uint256"
                },
                {
                  "internalType": "uint256",
                  "name": "liqPrice",
                  "type": "uint256"
                },
                {
                  "internalType": "uint256",
                  "name": "closePrice",
                  "type": "uint256"
                }
              ],
              "internalType": "struct IPositionStorage.BaseToken",
              "name": "baseToken",
              "type": "tuple"
            },
            {
              "components": [
                {
                  "internalType": "address",
                  "name": "id",
                  "type": "address"
                },
                {
                  "internalType": "uint256",
                  "name": "amount",
                  "type": "uint256"
                }
              ],
              "internalType": "struct IPositionStorage.QuoteToken",
              "name": "quoteToken",
              "type": "tuple"
            },
            {
              "components": [
                {
                  "internalType": "address",
                  "name": "id",
                  "type": "address"
                },
                {
                  "internalType": "uint256",
                  "name": "amount",
                  "type": "uint256"
                },
                {
                  "internalType": "uint256",
                  "name": "entryPrice",
                  "type": "uint256"
                },
                {
                  "internalType": "uint256",
                  "name": "liqPrice",
                  "type": "uint256"
                },
                {
                  "internalType": "uint256",
                  "name": "closePrice",
                  "type": "uint256"
                }
              ],
              "internalType": "struct IPositionStorage.Collateral",
              "name": "collateral",
              "type": "tuple"
            },
            {
              "internalType": "uint256",
              "name": "deadline",
              "type": "uint256"
            },
            {
              "internalType": "uint256",
              "name": "stoplossPrice",
              "type": "uint256"
            },
            {
              "internalType": "uint256",
              "name": "takeProfitPrice",
              "type": "uint256"
            },
            {
              "internalType": "uint256",
              "name": "fee",
              "type": "uint256"
            },
            {
              "internalType": "uint256",
              "name": "protocolFee",
              "type": "uint256"
            },
            {
              "components": [
                {
                  "internalType": "bool",
                  "name": "isClosed",
                  "type": "bool"
                },
                {
                  "internalType": "bool",
                  "name": "isRollbacked",
                  "type": "bool"
                },
                {
                  "internalType": "bool",
                  "name": "isClosedManuallyStep1",
                  "type": "bool"
                },
                {
                  "internalType": "bool",
                  "name": "isClosedManuallyStep2",
                  "type": "bool"
                }
              ],
              "internalType": "struct IPositionStorage.Status",
              "name": "status",
              "type": "tuple"
            },
            {
              "internalType": "address",
              "name": "closer",
              "type": "address"
            },
            {
              "internalType": "uint256",
              "name": "liquidationMarkTime",
              "type": "uint256"
            }
          ],
          "internalType": "struct IPositionStorage.TradePosition",
          "name": "_pos",
          "type": "tuple"
        }
      ],
      "name": "openTradePosition",
      "outputs": [
        {
          "internalType": "bytes32",
          "name": "positionKey",
          "type": "bytes32"
        }
      ],
      "stateMutability": "nonpayable",
      "type": "function"
    },
    {
      "inputs": [],
      "name": "poolDeployer",
      "outputs": [
        {
          "internalType": "address",
          "name": "",
          "type": "address"
        }
      ],
      "stateMutability": "view",
      "type": "function"
    },
    {
      "inputs": [
        {
          "internalType": "bytes32",
          "name": "_positionKey",
          "type": "bytes32"
        }
      ],
      "name": "position",
      "outputs": [
        {
          "components": [
            {
              "internalType": "bytes32",
              "name": "positionKey",
              "type": "bytes32"
            },
            {
              "internalType": "address",
              "name": "owner",
              "type": "address"
            },
            {
              "internalType": "address",
              "name": "pool",
              "type": "address"
            },
            {
              "components": [
                {
                  "internalType": "address",
                  "name": "id",
                  "type": "address"
                },
                {
                  "internalType": "uint256",
                  "name": "amount",
                  "type": "uint256"
                },
                {
                  "internalType": "uint256",
                  "name": "entryPrice",
                  "type": "uint256"
                },
                {
                  "internalType": "uint256",
                  "name": "liqPrice",
                  "type": "uint256"
                },
                {
                  "internalType": "uint256",
                  "name": "closePrice",
                  "type": "uint256"
                }
              ],
              "internalType": "struct IPositionStorage.BaseToken",
              "name": "baseToken",
              "type": "tuple"
            },
            {
              "components": [
                {
                  "internalType": "address",
                  "name": "id",
                  "type": "address"
                },
                {
                  "internalType": "uint256",
                  "name": "amount",
                  "type": "uint256"
                }
              ],
              "internalType": "struct IPositionStorage.QuoteToken",
              "name": "quoteToken",
              "type": "tuple"
            },
            {
              "components": [
                {
                  "internalType": "address",
                  "name": "id",
                  "type": "address"
                },
                {
                  "internalType": "uint256",
                  "name": "amount",
                  "type": "uint256"
                },
                {
                  "internalType": "uint256",
                  "name": "entryPrice",
                  "type": "uint256"
                },
                {
                  "internalType": "uint256",
                  "name": "liqPrice",
                  "type": "uint256"
                },
                {
                  "internalType": "uint256",
                  "name": "closePrice",
                  "type": "uint256"
                }
              ],
              "internalType": "struct IPositionStorage.Collateral",
              "name": "collateral",
              "type": "tuple"
            },
            {
              "internalType": "uint256",
              "name": "deadline",
              "type": "uint256"
            },
            {
              "internalType": "uint256",
              "name": "stoplossPrice",
              "type": "uint256"
            },
            {
              "internalType": "uint256",
              "name": "takeProfitPrice",
              "type": "uint256"
            },
            {
              "internalType": "uint256",
              "name": "fee",
              "type": "uint256"
            },
            {
              "internalType": "uint256",
              "name": "protocolFee",
              "type": "uint256"
            },
            {
              "components": [
                {
                  "internalType": "bool",
                  "name": "isClosed",
                  "type": "bool"
                },
                {
                  "internalType": "bool",
                  "name": "isRollbacked",
                  "type": "bool"
                },
                {
                  "internalType": "bool",
                  "name": "isClosedManuallyStep1",
                  "type": "bool"
                },
                {
                  "internalType": "bool",
                  "name": "isClosedManuallyStep2",
                  "type": "bool"
                }
              ],
              "internalType": "struct IPositionStorage.Status",
              "name": "status",
              "type": "tuple"
            },
            {
              "internalType": "address",
              "name": "closer",
              "type": "address"
            },
            {
              "internalType": "uint256",
              "name": "liquidationMarkTime",
              "type": "uint256"
            }
          ],
          "internalType": "struct IPositionStorage.TradePosition",
          "name": "",
          "type": "tuple"
        }
      ],
      "stateMutability": "view",
      "type": "function"
    },
    {
      "inputs": [
        {
          "internalType": "bytes32",
          "name": "",
          "type": "bytes32"
        }
      ],
      "name": "positionKeyToIndex",
      "outputs": [
        {
          "internalType": "uint256",
          "name": "",
          "type": "uint256"
        }
      ],
      "stateMutability": "view",
      "type": "function"
    },
    {
      "inputs": [
        {
          "internalType": "uint256",
          "name": "",
          "type": "uint256"
        }
      ],
      "name": "positionKeys",
      "outputs": [
        {
          "internalType": "bytes32",
          "name": "",
          "type": "bytes32"
        }
      ],
      "stateMutability": "view",
      "type": "function"
    },
    {
      "inputs": [],
      "name": "positionLength",
      "outputs": [
        {
          "internalType": "uint256",
          "name": "",
          "type": "uint256"
        }
      ],
      "stateMutability": "view",
      "type": "function"
    },
    {
      "inputs": [
        {
          "components": [
            {
              "internalType": "address",
              "name": "owner",
              "type": "address"
            },
            {
              "internalType": "address",
              "name": "baseToken",
              "type": "address"
            },
            {
              "internalType": "address",
              "name": "quoteToken",
              "type": "address"
            },
            {
              "internalType": "address",
              "name": "collateral",
              "type": "address"
            },
            {
              "internalType": "uint256",
              "name": "baseAmount",
              "type": "uint256"
            },
            {
              "internalType": "uint256",
              "name": "quoteAmount",
              "type": "uint256"
            },
            {
              "internalType": "uint256",
              "name": "collateralAmount",
              "type": "uint256"
            },
            {
              "internalType": "uint256",
              "name": "deadline",
              "type": "uint256"
            },
            {
              "internalType": "uint256",
              "name": "stoplossPrice",
              "type": "uint256"
            },
            {
              "internalType": "uint256",
              "name": "takeProfitPrice",
              "type": "uint256"
            }
          ],
          "internalType": "struct IPositionStorage.OpenTradePositionParams",
          "name": "_params",
          "type": "tuple"
        }
      ],
      "name": "previewTradePosition",
      "outputs": [
        {
          "components": [
            {
              "internalType": "bytes32",
              "name": "positionKey",
              "type": "bytes32"
            },
            {
              "internalType": "address",
              "name": "owner",
              "type": "address"
            },
            {
              "internalType": "address",
              "name": "pool",
              "type": "address"
            },
            {
              "components": [
                {
                  "internalType": "address",
                  "name": "id",
                  "type": "address"
                },
                {
                  "internalType": "uint256",
                  "name": "amount",
                  "type": "uint256"
                },
                {
                  "internalType": "uint256",
                  "name": "entryPrice",
                  "type": "uint256"
                },
                {
                  "internalType": "uint256",
                  "name": "liqPrice",
                  "type": "uint256"
                },
                {
                  "internalType": "uint256",
                  "name": "closePrice",
                  "type": "uint256"
                }
              ],
              "internalType": "struct IPositionStorage.BaseToken",
              "name": "baseToken",
              "type": "tuple"
            },
            {
              "components": [
                {
                  "internalType": "address",
                  "name": "id",
                  "type": "address"
                },
                {
                  "internalType": "uint256",
                  "name": "amount",
                  "type": "uint256"
                }
              ],
              "internalType": "struct IPositionStorage.QuoteToken",
              "name": "quoteToken",
              "type": "tuple"
            },
            {
              "components": [
                {
                  "internalType": "address",
                  "name": "id",
                  "type": "address"
                },
                {
                  "internalType": "uint256",
                  "name": "amount",
                  "type": "uint256"
                },
                {
                  "internalType": "uint256",
                  "name": "entryPrice",
                  "type": "uint256"
                },
                {
                  "internalType": "uint256",
                  "name": "liqPrice",
                  "type": "uint256"
                },
                {
                  "internalType": "uint256",
                  "name": "closePrice",
                  "type": "uint256"
                }
              ],
              "internalType": "struct IPositionStorage.Collateral",
              "name": "collateral",
              "type": "tuple"
            },
            {
              "internalType": "uint256",
              "name": "deadline",
              "type": "uint256"
            },
            {
              "internalType": "uint256",
              "name": "stoplossPrice",
              "type": "uint256"
            },
            {
              "internalType": "uint256",
              "name": "takeProfitPrice",
              "type": "uint256"
            },
            {
              "internalType": "uint256",
              "name": "fee",
              "type": "uint256"
            },
            {
              "internalType": "uint256",
              "name": "protocolFee",
              "type": "uint256"
            },
            {
              "components": [
                {
                  "internalType": "bool",
                  "name": "isClosed",
                  "type": "bool"
                },
                {
                  "internalType": "bool",
                  "name": "isRollbacked",
                  "type": "bool"
                },
                {
                  "internalType": "bool",
                  "name": "isClosedManuallyStep1",
                  "type": "bool"
                },
                {
                  "internalType": "bool",
                  "name": "isClosedManuallyStep2",
                  "type": "bool"
                }
              ],
              "internalType": "struct IPositionStorage.Status",
              "name": "status",
              "type": "tuple"
            },
            {
              "internalType": "address",
              "name": "closer",
              "type": "address"
            },
            {
              "internalType": "uint256",
              "name": "liquidationMarkTime",
              "type": "uint256"
            }
          ],
          "internalType": "struct IPositionStorage.TradePosition",
          "name": "",
          "type": "tuple"
        }
      ],
      "stateMutability": "view",
      "type": "function"
    },
    {
      "inputs": [
        {
          "components": [
            {
              "internalType": "bytes32",
              "name": "positionKey",
              "type": "bytes32"
            },
            {
              "internalType": "uint256",
              "name": "amount",
              "type": "uint256"
            },
            {
              "internalType": "address",
              "name": "updater",
              "type": "address"
            },
            {
              "internalType": "address",
              "name": "serviceToken",
              "type": "address"
            },
            {
              "internalType": "uint256",
              "name": "serviceFee",
              "type": "uint256"
            }
          ],
          "internalType": "struct IPositionStorage.UpdateCollateralAmountParams",
          "name": "_params",
          "type": "tuple"
        }
      ],
      "name": "previewUpdateCollateralAmount",
      "outputs": [
        {
          "internalType": "uint256",
          "name": "collateralLiqPrice",
          "type": "uint256"
        }
      ],
      "stateMutability": "view",
      "type": "function"
    },
    {
      "inputs": [
        {
          "components": [
            {
              "internalType": "bytes32",
              "name": "positionKey",
              "type": "bytes32"
            },
            {
              "internalType": "uint256",
              "name": "deadline",
              "type": "uint256"
            },
            {
              "internalType": "address",
              "name": "updater",
              "type": "address"
            },
            {
              "internalType": "address",
              "name": "serviceToken",
              "type": "address"
            },
            {
              "internalType": "uint256",
              "name": "serviceFee",
              "type": "uint256"
            }
          ],
          "internalType": "struct IPositionStorage.UpdateDeadlineParams",
          "name": "_params",
          "type": "tuple"
        }
      ],
      "name": "previewUpdateDeadline",
      "outputs": [
        {
          "internalType": "uint256",
          "name": "fee",
          "type": "uint256"
        },
        {
          "internalType": "uint256",
          "name": "protocolFee",
          "type": "uint256"
        }
      ],
      "stateMutability": "view",
      "type": "function"
    },
    {
      "inputs": [
        {
          "internalType": "bytes32",
          "name": "_positionKey",
          "type": "bytes32"
        },
        {
          "internalType": "address",
          "name": "_updater",
          "type": "address"
        }
      ],
      "name": "rollback",
      "outputs": [],
      "stateMutability": "nonpayable",
      "type": "function"
    },
    {
      "inputs": [
        {
          "internalType": "address",
          "name": "_factory",
          "type": "address"
        }
      ],
      "name": "setFactory",
      "outputs": [],
      "stateMutability": "nonpayable",
      "type": "function"
    },
    {
      "inputs": [
        {
          "internalType": "bytes32",
          "name": "_positionKey",
          "type": "bytes32"
        },
        {
          "internalType": "uint256",
          "name": "_baseValue",
          "type": "uint256"
        },
        {
          "internalType": "uint256",
          "name": "_loss",
          "type": "uint256"
        },
        {
          "internalType": "uint256",
          "name": "_remainingCollateralAmount",
          "type": "uint256"
        }
      ],
      "name": "updateCloseValues",
      "outputs": [],
      "stateMutability": "nonpayable",
      "type": "function"
    },
    {
      "inputs": [
        {
          "components": [
            {
              "internalType": "bytes32",
              "name": "positionKey",
              "type": "bytes32"
            },
            {
              "internalType": "uint256",
              "name": "amount",
              "type": "uint256"
            },
            {
              "internalType": "address",
              "name": "updater",
              "type": "address"
            },
            {
              "internalType": "address",
              "name": "serviceToken",
              "type": "address"
            },
            {
              "internalType": "uint256",
              "name": "serviceFee",
              "type": "uint256"
            }
          ],
          "internalType": "struct IPositionStorage.UpdateCollateralAmountParams",
          "name": "_params",
          "type": "tuple"
        }
      ],
      "name": "updateCollateralAmount",
      "outputs": [
        {
          "internalType": "uint256",
          "name": "collateralLiqPrice",
          "type": "uint256"
        }
      ],
      "stateMutability": "nonpayable",
      "type": "function"
    },
    {
      "inputs": [
        {
          "components": [
            {
              "internalType": "bytes32",
              "name": "positionKey",
              "type": "bytes32"
            },
            {
              "internalType": "uint256",
              "name": "deadline",
              "type": "uint256"
            },
            {
              "internalType": "address",
              "name": "updater",
              "type": "address"
            },
            {
              "internalType": "address",
              "name": "serviceToken",
              "type": "address"
            },
            {
              "internalType": "uint256",
              "name": "serviceFee",
              "type": "uint256"
            }
          ],
          "internalType": "struct IPositionStorage.UpdateDeadlineParams",
          "name": "_params",
          "type": "tuple"
        }
      ],
      "name": "updateDeadline",
      "outputs": [
        {
          "internalType": "uint256",
          "name": "fee",
          "type": "uint256"
        },
        {
          "internalType": "uint256",
          "name": "protocolFee",
          "type": "uint256"
        }
      ],
      "stateMutability": "nonpayable",
      "type": "function"
    },
    {
      "inputs": [
        {
          "internalType": "bytes32",
          "name": "_positionKey",
          "type": "bytes32"
        },
        {
          "internalType": "address",
          "name": "_updater",
          "type": "address"
        }
      ],
      "name": "updateStatus",
      "outputs": [
        {
          "internalType": "bool",
          "name": "needLiquidate",
          "type": "bool"
        }
      ],
      "stateMutability": "nonpayable",
      "type": "function"
    },
    {
      "inputs": [
        {
          "components": [
            {
              "internalType": "bytes32",
              "name": "positionKey",
              "type": "bytes32"
            },
            {
              "internalType": "uint256",
              "name": "takeProfitPrice",
              "type": "uint256"
            },
            {
              "internalType": "uint256",
              "name": "stoplossPrice",
              "type": "uint256"
            },
            {
              "internalType": "address",
              "name": "updater",
              "type": "address"
            },
            {
              "internalType": "address",
              "name": "serviceToken",
              "type": "address"
            },
            {
              "internalType": "uint256",
              "name": "serviceFee",
              "type": "uint256"
            }
          ],
          "internalType": "struct IPositionStorage.UpdateTPnSLParams",
          "name": "_params",
          "type": "tuple"
        }
      ],
      "name": "updateTPnSL",
      "outputs": [],
      "stateMutability": "nonpayable",
      "type": "function"
    }
  ],
  "bytecode": "0x608060405234801561001057600080fd5b5061442b806100206000396000f3fe608060405234801561001057600080fd5b50600436106101585760003560e01c80639a102341116100c3578063c45a01551161007c578063c45a015514610315578063c6f61b0114610328578063caa1a44f1461033b578063e5944f011461035b578063f71139f71461036e578063f76e91fd1461038157600080fd5b80639a102341146102a3578063a55a3092146102b6578063abe06a4d146102c9578063ac00b674146102dc578063b008c058146102ef578063be9f3fec1461030257600080fd5b806361ba15081161011557806361ba1508146102145780636680fda8146102375780636f51535e1461024a57806371e64bca1461025d5780638b029d6114610270578063957d1fe11461028357600080fd5b80632895a2b31461015d5780633119049a1461019057806349a4d1d1146101bb5780635330e353146101d0578063539826a6146101f85780635bb4780814610201575b600080fd5b61017d61016b366004613dfd565b60046020526000908152604090205481565b6040519081526020015b60405180910390f35b6001546101a3906001600160a01b031681565b6040516001600160a01b039091168152602001610187565b6101ce6101c9366004613dfd565b610394565b005b6101e36101de366004614009565b610448565b60408051928352602083019190915201610187565b61017d60035481565b6101ce61020f366004613d9f565b610916565b610227610222366004613dfd565b6109ef565b6040519015158152602001610187565b61017d610245366004614009565b610a00565b6101ce610258366004614025565b610deb565b61017d61026b366004613e78565b611123565b6101ce61027e366004613e46565b6114cb565b610296610291366004613dfd565b6115be565b60405161018791906140f1565b6101ce6102b1366004613e16565b61174a565b6101e36102c4366004614009565b611887565b6101e36102d7366004613e78565b611c74565b6102276102ea366004613e16565b6120ab565b6101ce6102fd366004613dfd565b61220a565b610296610310366004613e78565b612385565b6000546101a3906001600160a01b031681565b61017d610336366004614009565b612396565b61017d610349366004613dfd565b60056020526000908152604090205481565b610227610369366004613dfd565b612723565b6101ce61037c366004613dfd565b61274c565b61017d61038f366004613f1b565b61285c565b6000818152600660205260409020601481015460ff16156103d057604051632a2af87d60e11b8152600481018390526024015b60405180910390fd5b6016810154156103f657604051634fd9d2b360e11b8152600481018390526024016103c7565b4261040083612b16565b15610443576016820181905560405181815283907fa12564b997ab2a5a96db3485450b11398857b9457f88412f9ad19cdffd43a1ab906020015b60405180910390a25b505050565b805160009081526006602052604081206001546008820154839291610479916001600160a01b039182169116612ed5565b6001600160a01b0316336001600160a01b0316146104ac5760405163a59d7f4d60e01b81523360048201526024016103c7565b601481015460ff16156104d8578351604051632a2af87d60e11b815260048101919091526024016103c7565b600181015460408501516001600160a01b039081169116146105225760018101546040808601519051631194af8760e11b81526103c7926001600160a01b031691906004016140d7565b60008054604080516375e5807960e01b815290516001600160a01b03909216929183916375e58079916004808301926020929190829003018186803b15801561056a57600080fd5b505afa15801561057e573d6000803e3d6000fd5b505050506040513d601f19601f820116820180604052508101906105a29190613dc3565b604080880151905163223884bf60e11b81526001600160a01b03918216600482015291925060009190831690634471097e9060240160206040518083038186803b1580156105ef57600080fd5b505afa158015610603573d6000803e3d6000fd5b505050506040513d601f19601f820116820180604052508101906106279190613de0565b90508061065857604080880151905163fa5cd00f60e01b81526001600160a01b0390911660048201526024016103c7565b83600f015487602001511161068057604051630309cb8760e51b815260040160405180910390fd5b600884015460405163ac436bdf60e01b81526001600160a01b03918216600482015260009185169063ac436bdf9060240160206040518083038186803b1580156106c957600080fd5b505afa1580156106dd573d6000803e3d6000fd5b505050506040513d601f19601f8201168201806040525081019061070191906140be565b90506107136301e13380612710614351565b85600f015489602001516107279190614370565b6009870154610737908490614351565b6107419190614351565b61074b919061432f565b600186015460405163172c717b60e01b81526001600160a01b0391821660048201526024810183905291985084169063172c717b9060440160206040518083038186803b15801561079b57600080fd5b505afa1580156107af573d6000803e3d6000fd5b505050506040513d601f19601f820116820180604052508101906107d391906140be565b96506000846001600160a01b03166358f858806040518163ffffffff1660e01b815260040160206040518083038186803b15801561081057600080fd5b505afa158015610824573d6000803e3d6000fd5b505050506040513d601f19601f8201168201806040525081019061084891906140be565b9050612710610857828a614351565b610861919061432f565b96508786600801600101600082825461087a9190614317565b92505081905550878660120160008282546108959190614317565b92505081905550868660130160008282546108b09190614317565b9091555050602089810151600f88018190558a516040808d015181519384526001600160a01b031693830193909352917f058d0b7c2499b80403e5adabcc2c3565b19c921a6781e8d474d2bf925b51f21c910160405180910390a2505050505050915091565b6000546001600160a01b031615610940576040516373e833b960e11b815260040160405180910390fd5b600080546001600160a01b0319166001600160a01b0383169081179091556040805163188c824d60e11b81529051633119049a91600480820192602092909190829003018186803b15801561099457600080fd5b505afa1580156109a8573d6000803e3d6000fd5b505050506040513d601f19601f820116820180604052508101906109cc9190613dc3565b600180546001600160a01b0319166001600160a01b039290921691909117905550565b60006109fa82612b16565b92915050565b8051600090815260066020818152604080842081516101c0810183528154815260018201546001600160a01b03908116828601526002830154811682850152835160a0808201865260038501548316825260048086015483890152600586015483880152978501546060808401919091526007860154608080850191909152818601938452875180890189526008880154861681526009880154818b01528187015287518084018952600a88015486168152600b880154818b0152600c880154818a0152600d88015481840152600e8801548183015292860192909252600f86015460c0860152601086015460e08601526011860154610100808701919091526012870154610120870152601387015461014087015287519283018852601487015460ff8082161515855291810482161515848b015262010000810482161515848a01526301000000900416151590820152610160840152601584015482166101808401526016909301546101a083015286549251518451635ba2edab60e11b8152908216968101969096529251909491909216926c0c9f2c9cd04674edea40000000928692859263b745db5692602480840193829003018186803b158015610bc857600080fd5b505afa158015610bdc573d6000803e3d6000fd5b505050506040513d601f19601f82011682018060405250810190610c0091906140be565b905060008460800151600001516001600160a01b03168560a00151600001516001600160a01b031614610cb25760a08501515160405163095bf1bb60e01b81526001600160a01b0391821660048201529085169063095bf1bb9060240160206040518083038186803b158015610c7557600080fd5b505afa158015610c89573d6000803e3d6000fd5b505050506040513d601f19601f82011682018060405250810190610cad91906140be565b610cb6565b6127105b9050600087602001518660a0015160200151610cd29190614317565b90506000610ce285612710614351565b606088015160408101516020909101518691610cfd91614351565b610d079190614351565b610d11919061432f565b60a08801515160405163017f783b60e61b81526001600160a01b03918216600482015291925060009190881690635fde0ec09060240160206040518083038186803b158015610d5f57600080fd5b505afa158015610d73573d6000803e3d6000fd5b505050506040513d601f19601f82011682018060405250810190610d9791906140be565b905060008482848b6080015160200151610db19190614370565b610dbb9190614351565b610dc5919061432f565b905083610dd28883614351565b610ddc919061432f565b9b9a5050505050505050505050565b600054604051639a30739160e01b81523360048201526001600160a01b03909116908190639a3073919060240160206040518083038186803b158015610e3057600080fd5b505afa158015610e44573d6000803e3d6000fd5b505050506040513d601f19601f82011682018060405250810190610e689190613de0565b610e875760405163a59d7f4d60e01b81523360048201526024016103c7565b81516000908152600660205260409020601481015460ff1615610ec3578251604051632a2af87d60e11b815260048101919091526024016103c7565b600181015460608401516001600160a01b03908116911614610f0d5760018101546060840151604051631194af8760e11b81526103c7926001600160a01b031691906004016140d7565b6000826001600160a01b031663741bef1a6040518163ffffffff1660e01b815260040160206040518083038186803b158015610f4857600080fd5b505afa158015610f5c573d6000803e3d6000fd5b505050506040513d601f19601f82011682018060405250810190610f809190613dc3565b60038301546008840154604051637360a1b160e11b81529293506000926001600160a01b038086169363e6c1436293610fc1939183169216906004016140d7565b60206040518083038186803b158015610fd957600080fd5b505afa158015610fed573d6000803e3d6000fd5b505050506040513d601f19601f8201168201806040525081019061101191906140be565b90506000856020015111801561102b575080856020015111155b156110595760208501516040516370937bd760e01b81526103c7918391600401918252602082015260400190565b8085604001511061108e578085604001516040516316b481fb60e11b81526004016103c7929190918252602082015260400190565b602085015160118401819055604080870151601086018190558751606089015160808a015160a08b0151945192957f81ee07d89d1396e83e40ae3af89b496f5880d5ef40c390bda7227999681ad2d9956111149591949193929194855260208501939093526001600160a01b039182166040850152166060830152608082015260a00190565b60405180910390a25050505050565b60008060008054906101000a90046001600160a01b031690506000816001600160a01b031663741bef1a6040518163ffffffff1660e01b815260040160206040518083038186803b15801561117757600080fd5b505afa15801561118b573d6000803e3d6000fd5b505050506040513d601f19601f820116820180604052508101906111af9190613dc3565b905060006c0c9f2c9cd04674edea400000009050600080836001600160a01b031663e6c14362886020015189604001516040518363ffffffff1660e01b81526004016111fc9291906140d7565b60206040518083038186803b15801561121457600080fd5b505afa158015611228573d6000803e3d6000fd5b505050506040513d601f19601f8201168201806040525081019061124c91906140be565b90508281886080015161125f9190614351565b611269919061432f565b9150506000846001600160a01b0316636d2745536040518163ffffffff1660e01b815260040160206040518083038186803b1580156112a757600080fd5b505afa1580156112bb573d6000803e3d6000fd5b505050506040513d601f19601f820116820180604052508101906112df91906140be565b6020880151604051635ba2edab60e11b81526001600160a01b0391821660048201529192506000919087169063b745db569060240160206040518083038186803b15801561132c57600080fd5b505afa158015611340573d6000803e3d6000fd5b505050506040513d601f19601f8201168201806040525081019061136491906140be565b9050600088604001516001600160a01b031689606001516001600160a01b03161461140d57606089015160405163095bf1bb60e01b81526001600160a01b0391821660048201529088169063095bf1bb9060240160206040518083038186803b1580156113d057600080fd5b505afa1580156113e4573d6000803e3d6000fd5b505050506040513d601f19601f8201168201806040525081019061140891906140be565b611411565b6127105b90506000816114208486614370565b61142a9087614351565b611434919061432f565b60608b01516040808d01519051637360a1b160e11b81529293506000926001600160a01b038b169263e6c143629261146e926004016140d7565b60206040518083038186803b15801561148657600080fd5b505afa15801561149a573d6000803e3d6000fd5b505050506040513d601f19601f820116820180604052508101906114be91906140be565b905080610dd28884614351565b600084815260066020526040902060015460088201546114f7916001600160a01b039081169116612ed5565b6001600160a01b0316336001600160a01b03161461152a5760405163a59d7f4d60e01b81523360048201526024016103c7565b601481015460ff1661155257604051635de41db760e11b8152600481018690526024016103c7565b60048101546c0c9f2c9cd04674edea40000000906115708287614351565b61157a919061432f565b600783015583156115b657600b820154600090611598908590614370565b9050806115a58387614351565b6115af919061432f565b600e840155505b505050505050565b6115c6613a90565b5060009081526006602081815260409283902083516101c0810185528154815260018201546001600160a01b03908116828501526002830154811682870152855160a0808201885260038501548316825260048501548287015260058501548289015295840154606082810191909152600785015460808084019190915281850192909252875180890189526008860154841681526009860154818801528285015287518088018952600a86015484168152600b86015481880152600c860154818a0152600d86015481830152600e8601548184015296840196909652600f84015460c0840152601084015460e08401526011840154610100808501919091526012850154610120850152601385015461014085015287519182018852601485015460ff8082161515845291810482161515968301969096526201000086048116151597820197909752630100000090940490951615159383019390935261016083019190915260158101549092166101808201526016909101546101a082015290565b60008281526006602052604090206001546008820154611776916001600160a01b039081169116612ed5565b6001600160a01b0316336001600160a01b0316146117a95760405163a59d7f4d60e01b81523360048201526024016103c7565b601481015460ff16156117d257604051632a2af87d60e11b8152600481018490526024016103c7565b60018101546001600160a01b03838116911614611813576001810154604051631194af8760e11b81526103c7916001600160a01b03169084906004016140d7565b60148101805461ffff19166101011790556015810180546001600160a01b0319166001600160a01b038416179055805461184c90612f7c565b6040516001600160a01b038316815283907f6a85bd8516bd8204e81aa2933301a26c59fc549b80ea554b8628afbcdf21e2c79060200161043a565b8051600090815260066020818152604080842081516101c0810183528154815260018201546001600160a01b03908116828601526002830154811682850152835160a080820186526003850154831682526004808601548389015260058601548388015297850154606083810191909152600786015460808085019190915281860193909352865180880188526008870154851681526009870154818a01528386015286518083018852600a87015485168152600b870154818a0152600c87015481890152600d87015481830152600e8701548185015291850191909152600f85015460c0850152601085015460e08501526011850154610100808601919091526012860154610120860152601386015461014086015286519283018752601486015460ff8082161515855291810482161515848a015262010000810482161515848901526301000000900416151590820152610160830152601583015481166101808301526016909201546101a0820152855483516375e5807960e01b81529351879692959190931693869385936375e58079938382019390929190829003018186803b158015611a3857600080fd5b505afa158015611a4c573d6000803e3d6000fd5b505050506040513d601f19601f82011682018060405250810190611a709190613dc3565b90508260c00151866020015110611c6c5760808301515160405163ac436bdf60e01b81526001600160a01b03918216600482015260009184169063ac436bdf9060240160206040518083038186803b158015611acb57600080fd5b505afa158015611adf573d6000803e3d6000fd5b505050506040513d601f19601f82011682018060405250810190611b0391906140be565b9050611b156301e13380612710614351565b8460c001518860200151611b299190614370565b82866080015160200151611b3d9190614351565b611b479190614351565b611b51919061432f565b602085015160405163172c717b60e01b81526001600160a01b0391821660048201526024810183905291975083169063172c717b9060440160206040518083038186803b158015611ba157600080fd5b505afa158015611bb5573d6000803e3d6000fd5b505050506040513d601f19601f82011682018060405250810190611bd991906140be565b95506000836001600160a01b03166358f858806040518163ffffffff1660e01b815260040160206040518083038186803b158015611c1657600080fd5b505afa158015611c2a573d6000803e3d6000fd5b505050506040513d601f19601f82011682018060405250810190611c4e91906140be565b9050612710611c5d8289614351565b611c67919061432f565b955050505b505050915091565b6000805460408051633a0df78d60e11b8152905183926001600160a01b0316918391839163741bef1a916004808301926020929190829003018186803b158015611cbd57600080fd5b505afa158015611cd1573d6000803e3d6000fd5b505050506040513d601f19601f82011682018060405250810190611cf59190613dc3565b60208601516040808801519051637360a1b160e11b81529293506c0c9f2c9cd04674edea4000000092600092839283926001600160a01b0388169263e6c1436292611d42926004016140d7565b60206040518083038186803b158015611d5a57600080fd5b505afa158015611d6e573d6000803e3d6000fd5b505050506040513d601f19601f82011682018060405250810190611d9291906140be565b905083818a60800151611da59190614351565b611daf919061432f565b60608a01516040808c01519051637360a1b160e11b81529295506000926001600160a01b0389169263e6c1436292611de9926004016140d7565b60206040518083038186803b158015611e0157600080fd5b505afa158015611e15573d6000803e3d6000fd5b505050506040513d601f19601f82011682018060405250810190611e3991906140be565b905084818b60c00151611e4c9190614351565b611e56919061432f565b925050506000856001600160a01b0316636d2745536040518163ffffffff1660e01b815260040160206040518083038186803b158015611e9557600080fd5b505afa158015611ea9573d6000803e3d6000fd5b505050506040513d601f19601f82011682018060405250810190611ecd91906140be565b60208a0151604051635ba2edab60e11b81526001600160a01b0391821660048201529192506000919088169063b745db569060240160206040518083038186803b158015611f1a57600080fd5b505afa158015611f2e573d6000803e3d6000fd5b505050506040513d601f19601f82011682018060405250810190611f5291906140be565b905060008a604001516001600160a01b03168b606001516001600160a01b031614611ffb5760608b015160405163095bf1bb60e01b81526001600160a01b0391821660048201529089169063095bf1bb9060240160206040518083038186803b158015611fbe57600080fd5b505afa158015611fd2573d6000803e3d6000fd5b505050506040513d601f19601f82011682018060405250810190611ff691906140be565b611fff565b6127105b905060008161200e8486614370565b6120189088614351565b612022919061432f565b905080851015612040575060009b8c9b509950505050505050505050565b5060006127106120508488614351565b61205a919061432f565b9050600061271061206b8488614351565b612075919061432f565b90506127106120848689614351565b61208e919061432f565b9b5061209a8183614317565b9a5050505050505050505050915091565b600082815260066020526040812060015460088201546120d7916001600160a01b039081169116612ed5565b6001600160a01b0316336001600160a01b03161461210a5760405163a59d7f4d60e01b81523360048201526024016103c7565b601481015460ff161561213357604051632a2af87d60e11b8152600481018590526024016103c7565b61213c84612b16565b60018201549092506001600160a01b0384811691161480159061215d575081155b1561218c576001810154604051631194af8760e11b81526103c7916001600160a01b03169085906004016140d7565b60148101805460ff191660011790556015810180546001600160a01b0385166001600160a01b031990911617905580546121c590612f7c565b6040516001600160a01b038416815284907f6a85bd8516bd8204e81aa2933301a26c59fc549b80ea554b8628afbcdf21e2c79060200160405180910390a25092915050565b60008181526006602052604090206001546008820154612236916001600160a01b039081169116612ed5565b6001600160a01b0316336001600160a01b0316146122695760405163a59d7f4d60e01b81523360048201526024016103c7565b601481015460ff161561229257604051632a2af87d60e11b8152600481018390526024016103c7565b6000546040805163eddf82bb60e01b815290516001600160a01b0390921691829163eddf82bb916004808301926020929190829003018186803b1580156122d857600080fd5b505afa1580156122ec573d6000803e3d6000fd5b505050506040513d601f19601f8201168201806040525081019061231091906140be565b826016015461231f9190614317565b4210156123425760405163a2757e2760e01b8152600481018490526024016103c7565b60148201805462ff000019166201000017905560405183907f0de9a071731ad64ea412c199b649f11ada453eb6c8b323fc0769345e62316a4990600090a2505050565b61238d613a90565b6109fa82612ff7565b8051600090815260066020526040812060015460088201546123c4916001600160a01b039081169116612ed5565b6001600160a01b0316336001600160a01b0316146123f75760405163a59d7f4d60e01b81523360048201526024016103c7565b601481015460ff1615612423578251604051632a2af87d60e11b815260048101919091526024016103c7565b600181015460408401516001600160a01b0390811691161461246d5760018101546040808501519051631194af8760e11b81526103c7926001600160a01b031691906004016140d7565b600080546003830154604051635ba2edab60e11b81526001600160a01b0391821660048201529116916c0c9f2c9cd04674edea4000000091839063b745db569060240160206040518083038186803b1580156124c857600080fd5b505afa1580156124dc573d6000803e3d6000fd5b505050506040513d601f19601f8201168201806040525081019061250091906140be565b600a85015460405163095bf1bb60e01b81526001600160a01b0391821660048201529192506000919085169063095bf1bb9060240160206040518083038186803b15801561254d57600080fd5b505afa158015612561573d6000803e3d6000fd5b505050506040513d601f19601f8201168201806040525081019061258591906140be565b90506000876020015186600a01600101546125a09190614317565b905060006125b085612710614351565b6005880154600489015486916125c591614351565b6125cf9190614351565b6125d9919061432f565b600a88015460405163017f783b60e61b81526001600160a01b03918216600482015291925060009190881690635fde0ec09060240160206040518083038186803b15801561262657600080fd5b505afa15801561263a573d6000803e3d6000fd5b505050506040513d601f19601f8201168201806040525081019061265e91906140be565b905060008482848b600801600101546126779190614370565b6126819190614351565b61268b919061432f565b9050836126988883614351565b6126a2919061432f565b600b8a01859055600d8a018190558b5160208d01516040808f01519051939d509194507f9eadcc5983e9f0a6ecaed53a02a3257cc83e8581346642986340e548338a2db7935061270f9290918d9192835260208301919091526001600160a01b0316604082015260600190565b60405180910390a250505050505050919050565b600061272e82612b16565b80156109fa5750506000908152600660205260409020601601541590565b60008181526006602052604090206001546008820154612778916001600160a01b039081169116612ed5565b6001600160a01b0316336001600160a01b0316146127ab5760405163a59d7f4d60e01b81523360048201526024016103c7565b601481015460ff16156127d457604051632a2af87d60e11b8152600481018390526024016103c7565b601481015462010000900460ff166128025760405163746d2b8160e01b8152600481018390526024016103c7565b60148101805463ff0000ff19166301000001179055805461282290612f7c565b6040516000815282907f6a85bd8516bd8204e81aa2933301a26c59fc549b80ea554b8628afbcdf21e2c79060200160405180910390a25050565b60015460808201515160009161287d916001600160a01b0390911690612ed5565b6001600160a01b0316336001600160a01b0316146128b05760405163a59d7f4d60e01b81523360048201526024016103c7565b60028054309160006128c18361439e565b9091555060405160609290921b6bffffffffffffffffffffffff19166020830152603482015260540160408051808303601f1901815291815281516020928301208085526000818152600680855283822087518155878601516001820180546001600160a01b03199081166001600160a01b03938416179091558987015160028401805483169184169190911790556060808b0151805160038087018054861692871692909217909155818b01516004870155818a0151600587015581830151968601969096556080908101516007860155808c0151805160088701805486169187169190911790558a0151600986015560a08c01518051600a870180548616918716919091179055808b0151600b870155808a0151600c87015580830151600d8701550151600e85015560c08b0151600f85015560e08b01516010850155610100808c015160118601556101208c015160128601556101408c015160138601556101608c015180516014870180549c8301519b830151929094015161ffff19909c1690151561ff001916179915159091029890981763ffff00001916620100009815159890980263ff000000191697909717630100000098151598909802979097179095556101808801516015820180549097169516949094179094556101a086015160169093019290925582549093509190612abe8361439e565b90915550506003805460009081526004602090815260408083208590559254848352600590915282822055835191517f5fab80b8320f567319e4d7377f5305880481272b952242604af9f7f912af3bdb9190a2919050565b600081815260066020818152604080842081516101c0810183528154815260018201546001600160a01b03908116828601526002830154811682850152835160a0808201865260038501548316825260048501548288015260058501548287015296840154606082810191909152600785015460808084019190915281850192909252855180870187526008860154841681526009860154818901528285015285518089018752600a86015484168152600b86015481890152600c86015481880152600d86015481830152600e8601548184015297840197909752600f84015460c0840152601084015460e08401526011840154610100808501919091526012850154610120850152601385015461014085015285519182018652601485015460ff8082161515845291810482161515978301979097526201000087048116151595820195909552630100000090950490931615159484019490945261016084018390526015810154909116610180840152601601546101a08301525115612ca15750600092915050565b428160c0015111612cb55750600192915050565b6000805460408051633a0df78d60e11b815290516001600160a01b039092169291839163741bef1a916004808301926020929190829003018186803b158015612cfd57600080fd5b505afa158015612d11573d6000803e3d6000fd5b505050506040513d601f19601f82011682018060405250810190612d359190613dc3565b60a084015151608085015151604051637360a1b160e11b81529293506000926001600160a01b0385169263e6c1436292612d71926004016140d7565b60206040518083038186803b158015612d8957600080fd5b505afa158015612d9d573d6000803e3d6000fd5b505050506040513d601f19601f82011682018060405250810190612dc191906140be565b90508360a00151606001518111612dde5750600195945050505050565b606084015151608085015151604051637360a1b160e11b81526000926001600160a01b0386169263e6c1436292612e199291906004016140d7565b60206040518083038186803b158015612e3157600080fd5b505afa158015612e45573d6000803e3d6000fd5b505050506040513d601f19601f82011682018060405250810190612e6991906140be565b905060008560e00151118015612e8357508460e001518111155b80612ea357506000856101000151118015612ea357508461010001518110155b80612eb657508460600151606001518111155b15612ec8575060019695505050505050565b5060009695505050505050565b604080516001600160a01b03831660208083019190915282518083038201815282840190935282519201919091206001600160f81b031960608084019190915284901b6bffffffffffffffffffffffff1916606183015260758201527f4550c752d748de20a3fa28f4986cedc7e842e4fdcce52cb8e438c4a0bad1fab9609582015260009060b50160408051601f1981840301815291905280516020909101209392505050565b600081815260056020526040902054600354808214612fbd576000818152600460209081526040808320548584528184208190558352600590915290208290555b60038054906000612fcd83614387565b90915550506000908152600460209081526040808320839055938252600590529182209190915550565b612fff613a90565b8160e001514210801561302c575081604001516001600160a01b031682602001516001600160a01b031614155b15613923576000805460408051633a0df78d60e11b815290516001600160a01b039092169291839163741bef1a916004808301926020929190829003018186803b15801561307957600080fd5b505afa15801561308d573d6000803e3d6000fd5b505050506040513d601f19601f820116820180604052508101906130b19190613dc3565b60208501516040808701519051637360a1b160e11b81529293506c0c9f2c9cd04674edea4000000092600092839283926001600160a01b0388169263e6c14362926130fe926004016140d7565b60206040518083038186803b15801561311657600080fd5b505afa15801561312a573d6000803e3d6000fd5b505050506040513d601f19601f8201168201806040525081019061314e91906140be565b9050808861010001511015806131795750600088610120015111801561317957508088610120015111155b1561318957505050505050919050565b8381896080015161319a9190614351565b6131a4919061432f565b60608901516040808b01519051637360a1b160e11b81529295506000926001600160a01b0389169263e6c14362926131de926004016140d7565b60206040518083038186803b1580156131f657600080fd5b505afa15801561320a573d6000803e3d6000fd5b505050506040513d601f19601f8201168201806040525081019061322e91906140be565b905084818a60c001516132419190614351565b61324b919061432f565b925061325689613928565b97508188606001516040018181525050808860a00151604001818152505050506000856001600160a01b0316636d2745536040518163ffffffff1660e01b815260040160206040518083038186803b1580156132b157600080fd5b505afa1580156132c5573d6000803e3d6000fd5b505050506040513d601f19601f820116820180604052508101906132e991906140be565b6020890151604051635ba2edab60e11b81526001600160a01b0391821660048201529192506000919088169063b745db569060240160206040518083038186803b15801561333657600080fd5b505afa15801561334a573d6000803e3d6000fd5b505050506040513d601f19601f8201168201806040525081019061336e91906140be565b9050600089604001516001600160a01b03168a606001516001600160a01b0316146134175760608a015160405163095bf1bb60e01b81526001600160a01b0391821660048201529089169063095bf1bb9060240160206040518083038186803b1580156133da57600080fd5b505afa1580156133ee573d6000803e3d6000fd5b505050506040513d601f19601f8201168201806040525081019061341291906140be565b61341b565b6127105b905060008161342a8486614370565b6134349088614351565b61343e919061432f565b90508085101561345657505050505050505050919050565b5060006127106134668488614351565b613470919061432f565b905060006127106134818689614351565b61348b919061432f565b9050600061271061349c8589614351565b6134a6919061432f565b905060006134b48285614317565b9050808e60a0015111806134cb5750828e60a00151105b156134e157505050505050505050505050919050565b50505060208b015160405163f5d0e17560e01b81526001600160a01b0391821660048201526000918b169063f5d0e1759060240160206040518083038186803b15801561352d57600080fd5b505afa158015613541573d6000803e3d6000fd5b505050506040513d601f19601f8201168201806040525081019061356591906140be565b9050838c608001516135779190614351565b886135828385614351565b61358c9190614351565b613596919061432f565b60608c8101518101919091528c015160405163017f783b60e61b81526001600160a01b03918216600482015260009250908b1690635fde0ec09060240160206040518083038186803b1580156135eb57600080fd5b505afa1580156135ff573d6000803e3d6000fd5b505050506040513d601f19601f8201168201806040525081019061362391906140be565b905060008382848f60a001516136399190614370565b6136439190614351565b61364d919061432f565b905080871015613667575050505050505050505050919050565b60c08d01516136768a83614351565b613680919061432f565b60a08d015160600152505060408b810151905163ac436bdf60e01b81526001600160a01b0391821660048201526000918b169063ac436bdf9060240160206040518083038186803b1580156136d457600080fd5b505afa1580156136e8573d6000803e3d6000fd5b505050506040513d601f19601f8201168201806040525081019061370c91906140be565b905060006137206301e13380612710614351565b428e60e001516137309190614370565b838f60a001516137409190614351565b61374a9190614351565b613754919061432f565b905060008b6001600160a01b03166375e580796040518163ffffffff1660e01b815260040160206040518083038186803b15801561379157600080fd5b505afa1580156137a5573d6000803e3d6000fd5b505050506040513d601f19601f820116820180604052508101906137c99190613dc3565b8e5160405163172c717b60e01b81526001600160a01b0391821660048201526024810185905291925082169063172c717b9060440160206040518083038186803b15801561381657600080fd5b505afa15801561382a573d6000803e3d6000fd5b505050506040513d601f19601f8201168201806040525081019061384e91906140be565b915060008c6001600160a01b03166358f858806040518163ffffffff1660e01b815260040160206040518083038186803b15801561388b57600080fd5b505afa15801561389f573d6000803e3d6000fd5b505050506040513d601f19601f820116820180604052508101906138c391906140be565b6101208f0184905290506127106138da8285614351565b6138e4919061432f565b6101408f0152505060015460408e015161390b93506001600160a01b039091169150612ed5565b6001600160a01b031660408b01525050505050505050505b919050565b613930613a90565b604051806101c001604052806000801916815260200183600001516001600160a01b0316815260200160006001600160a01b031681526020016040518060a0016040528085602001516001600160a01b0316815260200185608001518152602001600081526020016000815260200160008152508152602001604051806040016040528085604001516001600160a01b031681526020018560a0015181525081526020016040518060a0016040528085606001516001600160a01b031681526020018560c0015181526020016000815260200160008152602001600081525081526020018360e001518152602001836101000151815260200183610120015181526020016000815260200160008152602001604051806080016040528060001515815260200160001515815260200160001515815260200160001515815250815260200160006001600160a01b0316815260200160008152509050919050565b604051806101c001604052806000801916815260200160006001600160a01b0316815260200160006001600160a01b03168152602001613b016040518060a0016040528060006001600160a01b03168152602001600081526020016000815260200160008152602001600081525090565b8152602001613b2c604051806040016040528060006001600160a01b03168152602001600081525090565b8152602001613b6c6040518060a0016040528060006001600160a01b03168152602001600081526020016000815260200160008152602001600081525090565b81526020016000815260200160008152602001600081526020016000815260200160008152602001613bc760405180608001604052806000151581526020016000151581526020016000151581526020016000151581525090565b815260006020820181905260409091015290565b8035613923816143cf565b600060a08284031215613bf857600080fd5b613c0061427c565b90508135613c0d816143cf565b808252506020820135602082015260408201356040820152606082013560608201526080820135608082015292915050565b600060408284031215613c5157600080fd5b6040516040810181811067ffffffffffffffff82111715613c8257634e487b7160e01b600052604160045260246000fd5b6040529050808235613c93816143cf565b8152602092830135920191909152919050565b600060808284031215613cb857600080fd5b6040516080810181811067ffffffffffffffff82111715613ce957634e487b7160e01b600052604160045260246000fd5b6040529050808235613cfa816143e7565b81526020830135613d0a816143e7565b60208201526040830135613d1d816143e7565b60408201526060830135613d30816143e7565b6060919091015292915050565b600060a08284031215613d4f57600080fd5b613d5761427c565b905081358152602082013560208201526040820135613d75816143cf565b60408201526060820135613d88816143cf565b806060830152506080820135608082015292915050565b600060208284031215613db157600080fd5b8135613dbc816143cf565b9392505050565b600060208284031215613dd557600080fd5b8151613dbc816143cf565b600060208284031215613df257600080fd5b8151613dbc816143e7565b600060208284031215613e0f57600080fd5b5035919050565b60008060408385031215613e2957600080fd5b823591506020830135613e3b816143cf565b809150509250929050565b60008060008060808587031215613e5c57600080fd5b5050823594602084013594506040840135936060013592509050565b60006101408284031215613e8b57600080fd5b613e936142b3565b613e9c83613bdb565b8152613eaa60208401613bdb565b6020820152613ebb60408401613bdb565b6040820152613ecc60608401613bdb565b60608201526080830135608082015260a083013560a082015260c083013560c082015260e083013560e08201526101008084013581830152506101208084013581830152508091505092915050565b60006103408284031215613f2e57600080fd5b613f366142e5565b82358152613f4660208401613bdb565b6020820152613f5760408401613bdb565b6040820152613f698460608501613be6565b6060820152610100613f7d85828601613c3f565b6080830152610140613f9186828701613be6565b60a08401526101e085013560c084015261020085013560e084015261022085013582840152610240850135610120840152610260850135818401525050613fdc846102808501613ca6565b610160820152613fef6103008401613bdb565b61018082015261032092909201356101a083015250919050565b600060a0828403121561401b57600080fd5b613dbc8383613d3d565b600060c0828403121561403757600080fd5b60405160c0810181811067ffffffffffffffff8211171561406857634e487b7160e01b600052604160045260246000fd5b80604052508235815260208301356020820152604083013560408201526060830135614093816143cf565b606082015260808301356140a6816143cf565b608082015260a0928301359281019290925250919050565b6000602082840312156140d057600080fd5b5051919050565b6001600160a01b0392831681529116602082015260400190565b81518152602080830151610340830191614115908401826001600160a01b03169052565b50604083015161413060408401826001600160a01b03169052565b506060830151614174606084018280516001600160a01b03168252602080820151908301526040808201519083015260608082015190830152608090810151910152565b50608083015161010061419c8185018380516001600160a01b03168252602090810151910152565b60a085015180516001600160a01b0316610140868101919091526020820151610160870152604082015161018087015260608201516101a087015260808201516101c087015290925060c08601516101e086015260e0860151610200860152908501516102208501526101208501516102408501528401516102608401525061016083015180511515610280840152602081015115156102a0840152604081015115156102c0840152606081015115156102e0840152506101808301516001600160a01b038116610300840152506101a083015161032083015292915050565b60405160a0810167ffffffffffffffff811182821017156142ad57634e487b7160e01b600052604160045260246000fd5b60405290565b604051610140810167ffffffffffffffff811182821017156142ad57634e487b7160e01b600052604160045260246000fd5b6040516101c0810167ffffffffffffffff811182821017156142ad57634e487b7160e01b600052604160045260246000fd5b6000821982111561432a5761432a6143b9565b500190565b60008261434c57634e487b7160e01b600052601260045260246000fd5b500490565b600081600019048311821515161561436b5761436b6143b9565b500290565b600082821015614382576143826143b9565b500390565b600081614396576143966143b9565b506000190190565b60006000198214156143b2576143b26143b9565b5060010190565b634e487b7160e01b600052601160045260246000fd5b6001600160a01b03811681146143e457600080fd5b50565b80151581146143e457600080fdfea2646970667358221220245024b55cf561e3eeb10f26c92d03e9e30ef8bc7b6e1e4735fa6f1fb470253e64736f6c63430008070033",
  "linkReferences": {},
  "deployedLinkReferences": {}
}