{
  "_format": "hh-sol-artifact-1",
  "contractName": "PositionStorage",
  "sourceName": "contracts/PositionStorage.sol",
  "abi": [
    {
      "inputs": [
        {
          "internalType": "address",
          "name": "sender",
          "type": "address"
        }
      ],
      "name": "Forbidden",
      "type": "error"
    },
    {
      "inputs": [],
      "name": "InitializedAlready",
      "type": "error"
    },
    {
      "inputs": [],
      "name": "InvalidParameter",
      "type": "error"
    },
    {
      "inputs": [
        {
          "internalType": "bytes32",
          "name": "positionKey",
          "type": "bytes32"
        }
      ],
      "name": "LiquidationMarkedAlready",
      "type": "error"
    },
    {
      "inputs": [
        {
          "internalType": "address",
          "name": "user",
          "type": "address"
        }
      ],
      "name": "NotAllowed",
      "type": "error"
    },
    {
      "inputs": [
        {
          "internalType": "bytes32",
          "name": "positionKey",
          "type": "bytes32"
        }
      ],
      "name": "NotManualExpired",
      "type": "error"
    },
    {
      "inputs": [
        {
          "internalType": "address",
          "name": "owner",
          "type": "address"
        },
        {
          "internalType": "address",
          "name": "updater",
          "type": "address"
        }
      ],
      "name": "NotOwner",
      "type": "error"
    },
    {
      "inputs": [
        {
          "internalType": "bytes32",
          "name": "positionKey",
          "type": "bytes32"
        }
      ],
      "name": "Step1NotDone",
      "type": "error"
    },
    {
      "inputs": [
        {
          "internalType": "bytes32",
          "name": "positionKey",
          "type": "bytes32"
        }
      ],
      "name": "TradePositionClosedAlready",
      "type": "error"
    },
    {
      "inputs": [
        {
          "internalType": "bytes32",
          "name": "positionKey",
          "type": "bytes32"
        }
      ],
      "name": "TradePositionNotClosed",
      "type": "error"
    },
    {
      "inputs": [
        {
          "internalType": "bytes32",
          "name": "positionKey",
          "type": "bytes32"
        }
      ],
      "name": "TradePositionNotExists",
      "type": "error"
    },
    {
      "anonymous": false,
      "inputs": [
        {
          "indexed": true,
          "internalType": "bytes32",
          "name": "positionKey",
          "type": "bytes32"
        }
      ],
      "name": "CloseManuallyStep1TradePosition",
      "type": "event"
    },
    {
      "anonymous": false,
      "inputs": [
        {
          "indexed": true,
          "internalType": "bytes32",
          "name": "positionKey",
          "type": "bytes32"
        },
        {
          "indexed": false,
          "internalType": "address",
          "name": "updater",
          "type": "address"
        }
      ],
      "name": "CloseTradePosition",
      "type": "event"
    },
    {
      "anonymous": false,
      "inputs": [
        {
          "indexed": true,
          "internalType": "bytes32",
          "name": "positionKey",
          "type": "bytes32"
        },
        {
          "indexed": false,
          "internalType": "uint256",
          "name": "time",
          "type": "uint256"
        }
      ],
      "name": "LiquidationMark",
      "type": "event"
    },
    {
      "anonymous": false,
      "inputs": [
        {
          "indexed": true,
          "internalType": "bytes32",
          "name": "positionKey",
          "type": "bytes32"
        }
      ],
      "name": "OpenTradePosition",
      "type": "event"
    },
    {
      "anonymous": false,
      "inputs": [
        {
          "indexed": true,
          "internalType": "bytes32",
          "name": "positionKey",
          "type": "bytes32"
        },
        {
          "indexed": false,
          "internalType": "uint256",
          "name": "amount",
          "type": "uint256"
        },
        {
          "indexed": false,
          "internalType": "uint256",
          "name": "collateralLiqPrice",
          "type": "uint256"
        },
        {
          "indexed": false,
          "internalType": "address",
          "name": "updater",
          "type": "address"
        }
      ],
      "name": "UpdateCollateralAmount",
      "type": "event"
    },
    {
      "anonymous": false,
      "inputs": [
        {
          "indexed": true,
          "internalType": "bytes32",
          "name": "positionKey",
          "type": "bytes32"
        },
        {
          "indexed": false,
          "internalType": "uint256",
          "name": "newDeadline",
          "type": "uint256"
        },
        {
          "indexed": false,
          "internalType": "address",
          "name": "updater",
          "type": "address"
        }
      ],
      "name": "UpdateDeadline",
      "type": "event"
    },
    {
      "anonymous": false,
      "inputs": [
        {
          "indexed": true,
          "internalType": "bytes32",
          "name": "positionKey",
          "type": "bytes32"
        },
        {
          "indexed": false,
          "internalType": "uint256",
          "name": "newStoplossPrice",
          "type": "uint256"
        },
        {
          "indexed": false,
          "internalType": "address",
          "name": "updater",
          "type": "address"
        }
      ],
      "name": "UpdateStoplossPrice",
      "type": "event"
    },
    {
      "inputs": [
        {
          "internalType": "bytes32",
          "name": "_positionKey",
          "type": "bytes32"
        }
      ],
      "name": "canLiquidate",
      "outputs": [
        {
          "internalType": "bool",
          "name": "",
          "type": "bool"
        }
      ],
      "stateMutability": "view",
      "type": "function"
    },
    {
      "inputs": [
        {
          "internalType": "bytes32",
          "name": "_positionKey",
          "type": "bytes32"
        }
      ],
      "name": "canLiquidationMark",
      "outputs": [
        {
          "internalType": "bool",
          "name": "",
          "type": "bool"
        }
      ],
      "stateMutability": "view",
      "type": "function"
    },
    {
      "inputs": [
        {
          "internalType": "bytes32",
          "name": "_positionKey",
          "type": "bytes32"
        }
      ],
      "name": "closeManuallyStep1",
      "outputs": [],
      "stateMutability": "nonpayable",
      "type": "function"
    },
    {
      "inputs": [
        {
          "internalType": "bytes32",
          "name": "_positionKey",
          "type": "bytes32"
        }
      ],
      "name": "closeManuallyStep2",
      "outputs": [],
      "stateMutability": "nonpayable",
      "type": "function"
    },
    {
      "inputs": [],
      "name": "factory",
      "outputs": [
        {
          "internalType": "address",
          "name": "",
          "type": "address"
        }
      ],
      "stateMutability": "view",
      "type": "function"
    },
    {
      "inputs": [
        {
          "components": [
            {
              "internalType": "address",
              "name": "owner",
              "type": "address"
            },
            {
              "internalType": "address",
              "name": "baseToken",
              "type": "address"
            },
            {
              "internalType": "address",
              "name": "quoteToken",
              "type": "address"
            },
            {
              "internalType": "address",
              "name": "collateral",
              "type": "address"
            },
            {
              "internalType": "uint256",
              "name": "baseAmount",
              "type": "uint256"
            },
            {
              "internalType": "uint256",
              "name": "quoteAmount",
              "type": "uint256"
            },
            {
              "internalType": "uint256",
              "name": "collateralAmount",
              "type": "uint256"
            },
            {
              "internalType": "uint256",
              "name": "deadline",
              "type": "uint256"
            },
            {
              "internalType": "uint256",
              "name": "stoplossPrice",
              "type": "uint256"
            }
          ],
          "internalType": "struct IPositionStorage.OpenTradePositionParams",
          "name": "_params",
          "type": "tuple"
        }
      ],
      "name": "getMinCollateralAmount",
      "outputs": [
        {
          "internalType": "uint256",
          "name": "",
          "type": "uint256"
        }
      ],
      "stateMutability": "view",
      "type": "function"
    },
    {
      "inputs": [
        {
          "components": [
            {
              "internalType": "address",
              "name": "owner",
              "type": "address"
            },
            {
              "internalType": "address",
              "name": "baseToken",
              "type": "address"
            },
            {
              "internalType": "address",
              "name": "quoteToken",
              "type": "address"
            },
            {
              "internalType": "address",
              "name": "collateral",
              "type": "address"
            },
            {
              "internalType": "uint256",
              "name": "baseAmount",
              "type": "uint256"
            },
            {
              "internalType": "uint256",
              "name": "quoteAmount",
              "type": "uint256"
            },
            {
              "internalType": "uint256",
              "name": "collateralAmount",
              "type": "uint256"
            },
            {
              "internalType": "uint256",
              "name": "deadline",
              "type": "uint256"
            },
            {
              "internalType": "uint256",
              "name": "stoplossPrice",
              "type": "uint256"
            }
          ],
          "internalType": "struct IPositionStorage.OpenTradePositionParams",
          "name": "_params",
          "type": "tuple"
        }
      ],
      "name": "getQuoteAmountRange",
      "outputs": [
        {
          "internalType": "uint256",
          "name": "minQuoteAmount",
          "type": "uint256"
        },
        {
          "internalType": "uint256",
          "name": "maxQuoteAmount",
          "type": "uint256"
        }
      ],
      "stateMutability": "view",
      "type": "function"
    },
    {
      "inputs": [
        {
          "internalType": "bytes32",
          "name": "_positionKey",
          "type": "bytes32"
        }
      ],
      "name": "liquidationMark",
      "outputs": [],
      "stateMutability": "nonpayable",
      "type": "function"
    },
    {
      "inputs": [
        {
          "components": [
            {
              "internalType": "bytes32",
              "name": "positionKey",
              "type": "bytes32"
            },
            {
              "internalType": "address",
              "name": "owner",
              "type": "address"
            },
            {
              "internalType": "address",
              "name": "pool",
              "type": "address"
            },
            {
              "components": [
                {
                  "internalType": "address",
                  "name": "id",
                  "type": "address"
                },
                {
                  "internalType": "uint256",
                  "name": "amount",
                  "type": "uint256"
                },
                {
                  "internalType": "uint256",
                  "name": "entryPrice",
                  "type": "uint256"
                },
                {
                  "internalType": "uint256",
                  "name": "liqPrice",
                  "type": "uint256"
                },
                {
                  "internalType": "uint256",
                  "name": "closePrice",
                  "type": "uint256"
                }
              ],
              "internalType": "struct IPositionStorage.BaseToken",
              "name": "baseToken",
              "type": "tuple"
            },
            {
              "components": [
                {
                  "internalType": "address",
                  "name": "id",
                  "type": "address"
                },
                {
                  "internalType": "uint256",
                  "name": "amount",
                  "type": "uint256"
                }
              ],
              "internalType": "struct IPositionStorage.QuoteToken",
              "name": "quoteToken",
              "type": "tuple"
            },
            {
              "components": [
                {
                  "internalType": "address",
                  "name": "id",
                  "type": "address"
                },
                {
                  "internalType": "uint256",
                  "name": "amount",
                  "type": "uint256"
                },
                {
                  "internalType": "uint256",
                  "name": "entryPrice",
                  "type": "uint256"
                },
                {
                  "internalType": "uint256",
                  "name": "liqPrice",
                  "type": "uint256"
                },
                {
                  "internalType": "uint256",
                  "name": "closePrice",
                  "type": "uint256"
                }
              ],
              "internalType": "struct IPositionStorage.Collateral",
              "name": "collateral",
              "type": "tuple"
            },
            {
              "internalType": "uint256",
              "name": "deadline",
              "type": "uint256"
            },
            {
              "internalType": "uint256",
              "name": "stoplossPrice",
              "type": "uint256"
            },
            {
              "internalType": "uint256",
              "name": "fee",
              "type": "uint256"
            },
            {
              "internalType": "uint256",
              "name": "protocolFee",
              "type": "uint256"
            },
            {
              "components": [
                {
                  "internalType": "bool",
                  "name": "isClosed",
                  "type": "bool"
                },
                {
                  "internalType": "bool",
                  "name": "isExpired",
                  "type": "bool"
                },
                {
                  "internalType": "bool",
                  "name": "isStoploss",
                  "type": "bool"
                },
                {
                  "internalType": "bool",
                  "name": "isBaseLiquidated",
                  "type": "bool"
                },
                {
                  "internalType": "bool",
                  "name": "isCollateralLiquidated",
                  "type": "bool"
                },
                {
                  "internalType": "bool",
                  "name": "isRollbacked",
                  "type": "bool"
                },
                {
                  "internalType": "bool",
                  "name": "isClosedManuallyStep1",
                  "type": "bool"
                },
                {
                  "internalType": "bool",
                  "name": "isClosedManuallyStep2",
                  "type": "bool"
                }
              ],
              "internalType": "struct IPositionStorage.Status",
              "name": "status",
              "type": "tuple"
            },
            {
              "internalType": "address",
              "name": "closer",
              "type": "address"
            },
            {
              "internalType": "uint256",
              "name": "liquidationMarkTime",
              "type": "uint256"
            }
          ],
          "internalType": "struct IPositionStorage.TradePosition",
          "name": "_pos",
          "type": "tuple"
        }
      ],
      "name": "openTradePosition",
      "outputs": [
        {
          "internalType": "bytes32",
          "name": "positionKey",
          "type": "bytes32"
        }
      ],
      "stateMutability": "nonpayable",
      "type": "function"
    },
    {
      "inputs": [
        {
          "internalType": "uint256",
          "name": "_index",
          "type": "uint256"
        }
      ],
      "name": "openingPositionKey",
      "outputs": [
        {
          "internalType": "bytes32",
          "name": "",
          "type": "bytes32"
        }
      ],
      "stateMutability": "view",
      "type": "function"
    },
    {
      "inputs": [
        {
          "internalType": "uint256",
          "name": "",
          "type": "uint256"
        }
      ],
      "name": "openingPositionKeys",
      "outputs": [
        {
          "internalType": "bytes32",
          "name": "",
          "type": "bytes32"
        }
      ],
      "stateMutability": "view",
      "type": "function"
    },
    {
      "inputs": [],
      "name": "openingPositionLength",
      "outputs": [
        {
          "internalType": "uint256",
          "name": "",
          "type": "uint256"
        }
      ],
      "stateMutability": "view",
      "type": "function"
    },
    {
      "inputs": [
        {
          "internalType": "uint256",
          "name": "_index",
          "type": "uint256"
        }
      ],
      "name": "position",
      "outputs": [
        {
          "components": [
            {
              "internalType": "bytes32",
              "name": "positionKey",
              "type": "bytes32"
            },
            {
              "internalType": "address",
              "name": "owner",
              "type": "address"
            },
            {
              "internalType": "address",
              "name": "pool",
              "type": "address"
            },
            {
              "components": [
                {
                  "internalType": "address",
                  "name": "id",
                  "type": "address"
                },
                {
                  "internalType": "uint256",
                  "name": "amount",
                  "type": "uint256"
                },
                {
                  "internalType": "uint256",
                  "name": "entryPrice",
                  "type": "uint256"
                },
                {
                  "internalType": "uint256",
                  "name": "liqPrice",
                  "type": "uint256"
                },
                {
                  "internalType": "uint256",
                  "name": "closePrice",
                  "type": "uint256"
                }
              ],
              "internalType": "struct IPositionStorage.BaseToken",
              "name": "baseToken",
              "type": "tuple"
            },
            {
              "components": [
                {
                  "internalType": "address",
                  "name": "id",
                  "type": "address"
                },
                {
                  "internalType": "uint256",
                  "name": "amount",
                  "type": "uint256"
                }
              ],
              "internalType": "struct IPositionStorage.QuoteToken",
              "name": "quoteToken",
              "type": "tuple"
            },
            {
              "components": [
                {
                  "internalType": "address",
                  "name": "id",
                  "type": "address"
                },
                {
                  "internalType": "uint256",
                  "name": "amount",
                  "type": "uint256"
                },
                {
                  "internalType": "uint256",
                  "name": "entryPrice",
                  "type": "uint256"
                },
                {
                  "internalType": "uint256",
                  "name": "liqPrice",
                  "type": "uint256"
                },
                {
                  "internalType": "uint256",
                  "name": "closePrice",
                  "type": "uint256"
                }
              ],
              "internalType": "struct IPositionStorage.Collateral",
              "name": "collateral",
              "type": "tuple"
            },
            {
              "internalType": "uint256",
              "name": "deadline",
              "type": "uint256"
            },
            {
              "internalType": "uint256",
              "name": "stoplossPrice",
              "type": "uint256"
            },
            {
              "internalType": "uint256",
              "name": "fee",
              "type": "uint256"
            },
            {
              "internalType": "uint256",
              "name": "protocolFee",
              "type": "uint256"
            },
            {
              "components": [
                {
                  "internalType": "bool",
                  "name": "isClosed",
                  "type": "bool"
                },
                {
                  "internalType": "bool",
                  "name": "isExpired",
                  "type": "bool"
                },
                {
                  "internalType": "bool",
                  "name": "isStoploss",
                  "type": "bool"
                },
                {
                  "internalType": "bool",
                  "name": "isBaseLiquidated",
                  "type": "bool"
                },
                {
                  "internalType": "bool",
                  "name": "isCollateralLiquidated",
                  "type": "bool"
                },
                {
                  "internalType": "bool",
                  "name": "isRollbacked",
                  "type": "bool"
                },
                {
                  "internalType": "bool",
                  "name": "isClosedManuallyStep1",
                  "type": "bool"
                },
                {
                  "internalType": "bool",
                  "name": "isClosedManuallyStep2",
                  "type": "bool"
                }
              ],
              "internalType": "struct IPositionStorage.Status",
              "name": "status",
              "type": "tuple"
            },
            {
              "internalType": "address",
              "name": "closer",
              "type": "address"
            },
            {
              "internalType": "uint256",
              "name": "liquidationMarkTime",
              "type": "uint256"
            }
          ],
          "internalType": "struct IPositionStorage.TradePosition",
          "name": "",
          "type": "tuple"
        }
      ],
      "stateMutability": "view",
      "type": "function"
    },
    {
      "inputs": [
        {
          "internalType": "bytes32",
          "name": "_positionKey",
          "type": "bytes32"
        }
      ],
      "name": "positionByKey",
      "outputs": [
        {
          "components": [
            {
              "internalType": "bytes32",
              "name": "positionKey",
              "type": "bytes32"
            },
            {
              "internalType": "address",
              "name": "owner",
              "type": "address"
            },
            {
              "internalType": "address",
              "name": "pool",
              "type": "address"
            },
            {
              "components": [
                {
                  "internalType": "address",
                  "name": "id",
                  "type": "address"
                },
                {
                  "internalType": "uint256",
                  "name": "amount",
                  "type": "uint256"
                },
                {
                  "internalType": "uint256",
                  "name": "entryPrice",
                  "type": "uint256"
                },
                {
                  "internalType": "uint256",
                  "name": "liqPrice",
                  "type": "uint256"
                },
                {
                  "internalType": "uint256",
                  "name": "closePrice",
                  "type": "uint256"
                }
              ],
              "internalType": "struct IPositionStorage.BaseToken",
              "name": "baseToken",
              "type": "tuple"
            },
            {
              "components": [
                {
                  "internalType": "address",
                  "name": "id",
                  "type": "address"
                },
                {
                  "internalType": "uint256",
                  "name": "amount",
                  "type": "uint256"
                }
              ],
              "internalType": "struct IPositionStorage.QuoteToken",
              "name": "quoteToken",
              "type": "tuple"
            },
            {
              "components": [
                {
                  "internalType": "address",
                  "name": "id",
                  "type": "address"
                },
                {
                  "internalType": "uint256",
                  "name": "amount",
                  "type": "uint256"
                },
                {
                  "internalType": "uint256",
                  "name": "entryPrice",
                  "type": "uint256"
                },
                {
                  "internalType": "uint256",
                  "name": "liqPrice",
                  "type": "uint256"
                },
                {
                  "internalType": "uint256",
                  "name": "closePrice",
                  "type": "uint256"
                }
              ],
              "internalType": "struct IPositionStorage.Collateral",
              "name": "collateral",
              "type": "tuple"
            },
            {
              "internalType": "uint256",
              "name": "deadline",
              "type": "uint256"
            },
            {
              "internalType": "uint256",
              "name": "stoplossPrice",
              "type": "uint256"
            },
            {
              "internalType": "uint256",
              "name": "fee",
              "type": "uint256"
            },
            {
              "internalType": "uint256",
              "name": "protocolFee",
              "type": "uint256"
            },
            {
              "components": [
                {
                  "internalType": "bool",
                  "name": "isClosed",
                  "type": "bool"
                },
                {
                  "internalType": "bool",
                  "name": "isExpired",
                  "type": "bool"
                },
                {
                  "internalType": "bool",
                  "name": "isStoploss",
                  "type": "bool"
                },
                {
                  "internalType": "bool",
                  "name": "isBaseLiquidated",
                  "type": "bool"
                },
                {
                  "internalType": "bool",
                  "name": "isCollateralLiquidated",
                  "type": "bool"
                },
                {
                  "internalType": "bool",
                  "name": "isRollbacked",
                  "type": "bool"
                },
                {
                  "internalType": "bool",
                  "name": "isClosedManuallyStep1",
                  "type": "bool"
                },
                {
                  "internalType": "bool",
                  "name": "isClosedManuallyStep2",
                  "type": "bool"
                }
              ],
              "internalType": "struct IPositionStorage.Status",
              "name": "status",
              "type": "tuple"
            },
            {
              "internalType": "address",
              "name": "closer",
              "type": "address"
            },
            {
              "internalType": "uint256",
              "name": "liquidationMarkTime",
              "type": "uint256"
            }
          ],
          "internalType": "struct IPositionStorage.TradePosition",
          "name": "pos",
          "type": "tuple"
        }
      ],
      "stateMutability": "view",
      "type": "function"
    },
    {
      "inputs": [
        {
          "internalType": "bytes32",
          "name": "",
          "type": "bytes32"
        }
      ],
      "name": "positionIndex",
      "outputs": [
        {
          "internalType": "uint256",
          "name": "",
          "type": "uint256"
        }
      ],
      "stateMutability": "view",
      "type": "function"
    },
    {
      "inputs": [
        {
          "internalType": "address",
          "name": "_user",
          "type": "address"
        },
        {
          "internalType": "uint256",
          "name": "_index",
          "type": "uint256"
        }
      ],
      "name": "positionKeyByUser",
      "outputs": [
        {
          "internalType": "bytes32",
          "name": "",
          "type": "bytes32"
        }
      ],
      "stateMutability": "view",
      "type": "function"
    },
    {
      "inputs": [],
      "name": "positionLength",
      "outputs": [
        {
          "internalType": "uint256",
          "name": "",
          "type": "uint256"
        }
      ],
      "stateMutability": "view",
      "type": "function"
    },
    {
      "inputs": [
        {
          "internalType": "uint256",
          "name": "",
          "type": "uint256"
        }
      ],
      "name": "positions",
      "outputs": [
        {
          "internalType": "bytes32",
          "name": "positionKey",
          "type": "bytes32"
        },
        {
          "internalType": "address",
          "name": "owner",
          "type": "address"
        },
        {
          "internalType": "address",
          "name": "pool",
          "type": "address"
        },
        {
          "components": [
            {
              "internalType": "address",
              "name": "id",
              "type": "address"
            },
            {
              "internalType": "uint256",
              "name": "amount",
              "type": "uint256"
            },
            {
              "internalType": "uint256",
              "name": "entryPrice",
              "type": "uint256"
            },
            {
              "internalType": "uint256",
              "name": "liqPrice",
              "type": "uint256"
            },
            {
              "internalType": "uint256",
              "name": "closePrice",
              "type": "uint256"
            }
          ],
          "internalType": "struct IPositionStorage.BaseToken",
          "name": "baseToken",
          "type": "tuple"
        },
        {
          "components": [
            {
              "internalType": "address",
              "name": "id",
              "type": "address"
            },
            {
              "internalType": "uint256",
              "name": "amount",
              "type": "uint256"
            }
          ],
          "internalType": "struct IPositionStorage.QuoteToken",
          "name": "quoteToken",
          "type": "tuple"
        },
        {
          "components": [
            {
              "internalType": "address",
              "name": "id",
              "type": "address"
            },
            {
              "internalType": "uint256",
              "name": "amount",
              "type": "uint256"
            },
            {
              "internalType": "uint256",
              "name": "entryPrice",
              "type": "uint256"
            },
            {
              "internalType": "uint256",
              "name": "liqPrice",
              "type": "uint256"
            },
            {
              "internalType": "uint256",
              "name": "closePrice",
              "type": "uint256"
            }
          ],
          "internalType": "struct IPositionStorage.Collateral",
          "name": "collateral",
          "type": "tuple"
        },
        {
          "internalType": "uint256",
          "name": "deadline",
          "type": "uint256"
        },
        {
          "internalType": "uint256",
          "name": "stoplossPrice",
          "type": "uint256"
        },
        {
          "internalType": "uint256",
          "name": "fee",
          "type": "uint256"
        },
        {
          "internalType": "uint256",
          "name": "protocolFee",
          "type": "uint256"
        },
        {
          "components": [
            {
              "internalType": "bool",
              "name": "isClosed",
              "type": "bool"
            },
            {
              "internalType": "bool",
              "name": "isExpired",
              "type": "bool"
            },
            {
              "internalType": "bool",
              "name": "isStoploss",
              "type": "bool"
            },
            {
              "internalType": "bool",
              "name": "isBaseLiquidated",
              "type": "bool"
            },
            {
              "internalType": "bool",
              "name": "isCollateralLiquidated",
              "type": "bool"
            },
            {
              "internalType": "bool",
              "name": "isRollbacked",
              "type": "bool"
            },
            {
              "internalType": "bool",
              "name": "isClosedManuallyStep1",
              "type": "bool"
            },
            {
              "internalType": "bool",
              "name": "isClosedManuallyStep2",
              "type": "bool"
            }
          ],
          "internalType": "struct IPositionStorage.Status",
          "name": "status",
          "type": "tuple"
        },
        {
          "internalType": "address",
          "name": "closer",
          "type": "address"
        },
        {
          "internalType": "uint256",
          "name": "liquidationMarkTime",
          "type": "uint256"
        }
      ],
      "stateMutability": "view",
      "type": "function"
    },
    {
      "inputs": [
        {
          "components": [
            {
              "internalType": "address",
              "name": "owner",
              "type": "address"
            },
            {
              "internalType": "address",
              "name": "baseToken",
              "type": "address"
            },
            {
              "internalType": "address",
              "name": "quoteToken",
              "type": "address"
            },
            {
              "internalType": "address",
              "name": "collateral",
              "type": "address"
            },
            {
              "internalType": "uint256",
              "name": "baseAmount",
              "type": "uint256"
            },
            {
              "internalType": "uint256",
              "name": "quoteAmount",
              "type": "uint256"
            },
            {
              "internalType": "uint256",
              "name": "collateralAmount",
              "type": "uint256"
            },
            {
              "internalType": "uint256",
              "name": "deadline",
              "type": "uint256"
            },
            {
              "internalType": "uint256",
              "name": "stoplossPrice",
              "type": "uint256"
            }
          ],
          "internalType": "struct IPositionStorage.OpenTradePositionParams",
          "name": "_params",
          "type": "tuple"
        }
      ],
      "name": "previewTradePosition",
      "outputs": [
        {
          "components": [
            {
              "internalType": "bytes32",
              "name": "positionKey",
              "type": "bytes32"
            },
            {
              "internalType": "address",
              "name": "owner",
              "type": "address"
            },
            {
              "internalType": "address",
              "name": "pool",
              "type": "address"
            },
            {
              "components": [
                {
                  "internalType": "address",
                  "name": "id",
                  "type": "address"
                },
                {
                  "internalType": "uint256",
                  "name": "amount",
                  "type": "uint256"
                },
                {
                  "internalType": "uint256",
                  "name": "entryPrice",
                  "type": "uint256"
                },
                {
                  "internalType": "uint256",
                  "name": "liqPrice",
                  "type": "uint256"
                },
                {
                  "internalType": "uint256",
                  "name": "closePrice",
                  "type": "uint256"
                }
              ],
              "internalType": "struct IPositionStorage.BaseToken",
              "name": "baseToken",
              "type": "tuple"
            },
            {
              "components": [
                {
                  "internalType": "address",
                  "name": "id",
                  "type": "address"
                },
                {
                  "internalType": "uint256",
                  "name": "amount",
                  "type": "uint256"
                }
              ],
              "internalType": "struct IPositionStorage.QuoteToken",
              "name": "quoteToken",
              "type": "tuple"
            },
            {
              "components": [
                {
                  "internalType": "address",
                  "name": "id",
                  "type": "address"
                },
                {
                  "internalType": "uint256",
                  "name": "amount",
                  "type": "uint256"
                },
                {
                  "internalType": "uint256",
                  "name": "entryPrice",
                  "type": "uint256"
                },
                {
                  "internalType": "uint256",
                  "name": "liqPrice",
                  "type": "uint256"
                },
                {
                  "internalType": "uint256",
                  "name": "closePrice",
                  "type": "uint256"
                }
              ],
              "internalType": "struct IPositionStorage.Collateral",
              "name": "collateral",
              "type": "tuple"
            },
            {
              "internalType": "uint256",
              "name": "deadline",
              "type": "uint256"
            },
            {
              "internalType": "uint256",
              "name": "stoplossPrice",
              "type": "uint256"
            },
            {
              "internalType": "uint256",
              "name": "fee",
              "type": "uint256"
            },
            {
              "internalType": "uint256",
              "name": "protocolFee",
              "type": "uint256"
            },
            {
              "components": [
                {
                  "internalType": "bool",
                  "name": "isClosed",
                  "type": "bool"
                },
                {
                  "internalType": "bool",
                  "name": "isExpired",
                  "type": "bool"
                },
                {
                  "internalType": "bool",
                  "name": "isStoploss",
                  "type": "bool"
                },
                {
                  "internalType": "bool",
                  "name": "isBaseLiquidated",
                  "type": "bool"
                },
                {
                  "internalType": "bool",
                  "name": "isCollateralLiquidated",
                  "type": "bool"
                },
                {
                  "internalType": "bool",
                  "name": "isRollbacked",
                  "type": "bool"
                },
                {
                  "internalType": "bool",
                  "name": "isClosedManuallyStep1",
                  "type": "bool"
                },
                {
                  "internalType": "bool",
                  "name": "isClosedManuallyStep2",
                  "type": "bool"
                }
              ],
              "internalType": "struct IPositionStorage.Status",
              "name": "status",
              "type": "tuple"
            },
            {
              "internalType": "address",
              "name": "closer",
              "type": "address"
            },
            {
              "internalType": "uint256",
              "name": "liquidationMarkTime",
              "type": "uint256"
            }
          ],
          "internalType": "struct IPositionStorage.TradePosition",
          "name": "",
          "type": "tuple"
        }
      ],
      "stateMutability": "view",
      "type": "function"
    },
    {
      "inputs": [
        {
          "components": [
            {
              "internalType": "bytes32",
              "name": "positionKey",
              "type": "bytes32"
            },
            {
              "internalType": "uint256",
              "name": "amount",
              "type": "uint256"
            },
            {
              "internalType": "address",
              "name": "updater",
              "type": "address"
            }
          ],
          "internalType": "struct IPositionStorage.UpdateCollateralAmountParams",
          "name": "_params",
          "type": "tuple"
        }
      ],
      "name": "previewUpdateCollateralAmount",
      "outputs": [
        {
          "internalType": "uint256",
          "name": "collateralLiqPrice",
          "type": "uint256"
        }
      ],
      "stateMutability": "view",
      "type": "function"
    },
    {
      "inputs": [
        {
          "components": [
            {
              "internalType": "bytes32",
              "name": "positionKey",
              "type": "bytes32"
            },
            {
              "internalType": "uint256",
              "name": "deadline",
              "type": "uint256"
            },
            {
              "internalType": "address",
              "name": "updater",
              "type": "address"
            }
          ],
          "internalType": "struct IPositionStorage.UpdateDeadlineParams",
          "name": "_params",
          "type": "tuple"
        }
      ],
      "name": "previewUpdateDeadline",
      "outputs": [
        {
          "internalType": "uint256",
          "name": "fee",
          "type": "uint256"
        },
        {
          "internalType": "uint256",
          "name": "protocolFee",
          "type": "uint256"
        }
      ],
      "stateMutability": "view",
      "type": "function"
    },
    {
      "inputs": [
        {
          "internalType": "bytes32",
          "name": "_positionKey",
          "type": "bytes32"
        },
        {
          "internalType": "address",
          "name": "_updater",
          "type": "address"
        }
      ],
      "name": "rollback",
      "outputs": [],
      "stateMutability": "nonpayable",
      "type": "function"
    },
    {
      "inputs": [
        {
          "internalType": "address",
          "name": "_factory",
          "type": "address"
        }
      ],
      "name": "setFactory",
      "outputs": [],
      "stateMutability": "nonpayable",
      "type": "function"
    },
    {
      "inputs": [
        {
          "internalType": "bytes32",
          "name": "_positionKey",
          "type": "bytes32"
        },
        {
          "internalType": "uint256",
          "name": "_baseValue",
          "type": "uint256"
        },
        {
          "internalType": "uint256",
          "name": "_loss",
          "type": "uint256"
        },
        {
          "internalType": "uint256",
          "name": "_remainingCollateralAmount",
          "type": "uint256"
        }
      ],
      "name": "updateCloseValues",
      "outputs": [],
      "stateMutability": "nonpayable",
      "type": "function"
    },
    {
      "inputs": [
        {
          "components": [
            {
              "internalType": "bytes32",
              "name": "positionKey",
              "type": "bytes32"
            },
            {
              "internalType": "uint256",
              "name": "amount",
              "type": "uint256"
            },
            {
              "internalType": "address",
              "name": "updater",
              "type": "address"
            }
          ],
          "internalType": "struct IPositionStorage.UpdateCollateralAmountParams",
          "name": "_params",
          "type": "tuple"
        }
      ],
      "name": "updateCollateralAmount",
      "outputs": [
        {
          "internalType": "uint256",
          "name": "collateralLiqPrice",
          "type": "uint256"
        }
      ],
      "stateMutability": "nonpayable",
      "type": "function"
    },
    {
      "inputs": [
        {
          "components": [
            {
              "internalType": "bytes32",
              "name": "positionKey",
              "type": "bytes32"
            },
            {
              "internalType": "uint256",
              "name": "deadline",
              "type": "uint256"
            },
            {
              "internalType": "address",
              "name": "updater",
              "type": "address"
            }
          ],
          "internalType": "struct IPositionStorage.UpdateDeadlineParams",
          "name": "_params",
          "type": "tuple"
        }
      ],
      "name": "updateDeadline",
      "outputs": [
        {
          "internalType": "uint256",
          "name": "fee",
          "type": "uint256"
        },
        {
          "internalType": "uint256",
          "name": "protocolFee",
          "type": "uint256"
        }
      ],
      "stateMutability": "nonpayable",
      "type": "function"
    },
    {
      "inputs": [
        {
          "internalType": "bytes32",
          "name": "_positionKey",
          "type": "bytes32"
        },
        {
          "internalType": "address",
          "name": "_updater",
          "type": "address"
        }
      ],
      "name": "updateStatus",
      "outputs": [
        {
          "internalType": "bool",
          "name": "needLiquidate",
          "type": "bool"
        }
      ],
      "stateMutability": "nonpayable",
      "type": "function"
    },
    {
      "inputs": [
        {
          "components": [
            {
              "internalType": "bytes32",
              "name": "positionKey",
              "type": "bytes32"
            },
            {
              "internalType": "uint256",
              "name": "stoplossPrice",
              "type": "uint256"
            },
            {
              "internalType": "address",
              "name": "updater",
              "type": "address"
            }
          ],
          "internalType": "struct IPositionStorage.UpdateStoplossPriceParams",
          "name": "_params",
          "type": "tuple"
        }
      ],
      "name": "updateStoplossPrice",
      "outputs": [],
      "stateMutability": "nonpayable",
      "type": "function"
    },
    {
      "inputs": [
        {
          "internalType": "address",
          "name": "_user",
          "type": "address"
        }
      ],
      "name": "userPositionLength",
      "outputs": [
        {
          "internalType": "uint256",
          "name": "",
          "type": "uint256"
        }
      ],
      "stateMutability": "view",
      "type": "function"
    }
  ],
  "bytecode": "0x608060405234801561001057600080fd5b506156a480620000216000396000f3fe608060405234801561001057600080fd5b50600436106101cf5760003560e01c80638b029d6111610104578063c45a0155116100a2578063f71139f711610071578063f71139f714610427578063f7a5f2541461043a578063f7a95a9e1461045a578063fc9ffe101461046d57600080fd5b8063c45a0155146103ad578063da23479f146103d8578063dbd99a13146103eb578063e5944f011461041457600080fd5b8063a0d5d126116100de578063a0d5d1261461036c578063a827acf51461037f578063ac00b67414610387578063b008c0581461039a57600080fd5b80638b029d611461031a57806399fbab881461032d5780639a1023411461035957600080fd5b80634f26f457116101715780635bb478081161014b5780635bb47808146102be57806361ba1508146102d157806364b88ac5146102f45780637c08ddc91461030757600080fd5b80634f26f4571461027b578063539826a6146102a3578063558ea854146102ab57600080fd5b80632fb817fc116101ad5780632fb817fc1461022f578063302d60921461024257806337f368641461025557806349a4d1d11461026857600080fd5b80630771e3a3146101d45780631636e199146101fa5780631a37982d1461020f575b600080fd5b6101e76101e2366004615139565b610480565b6040519081526020015b60405180910390f35b61020d6102083660046152b1565b61087c565b005b61022261021d366004615139565b610a72565b6040516101f1919061544c565b6101e761023d366004615075565b610a89565b6101e76102503660046150be565b610ac6565b6101e76102633660046152b1565b610ae7565b61020d6102763660046150be565b611008565b61028e6102893660046152b1565b611106565b604080519283526020830191909152016101f1565b6001546101e7565b61028e6102b9366004615139565b61156b565b61020d6102cc36600461503b565b6119df565b6102e46102df3660046150be565b611a2b565b60405190151581526020016101f1565b6101e76103023660046151d0565b611a36565b6101e76103153660046152b1565b611f1b565b61020d610328366004615107565b612427565b61034061033b3660046150be565b6126b3565b6040516101f19d9c9b9a999897969594939291906153ac565b61020d6103673660046150d7565b61294a565b61022261037a3660046150be565b612b42565b6002546101e7565b6102e46103953660046150d7565b612d4a565b61020d6103a83660046150be565b613184565b6000546103c0906001600160a01b031681565b6040516001600160a01b0390911681526020016101f1565b6101e76103e63660046150be565b6133b2565b6101e76103f936600461503b565b6001600160a01b031660009081526004602052604090205490565b6102e46104223660046150be565b6133d9565b61020d6104353660046150be565b61343f565b6101e76104483660046150be565b60036020526000908152604090205481565b6102226104683660046150be565b613600565b61028e61047b3660046152b1565b6137e8565b60008060008054906101000a90046001600160a01b031690506000816001600160a01b031663741bef1a6040518163ffffffff1660e01b815260040160206040518083038186803b1580156104d457600080fd5b505afa1580156104e8573d6000803e3d6000fd5b505050506040513d601f19601f8201168201806040525081019061050c9190615058565b90506000816001600160a01b031663aaf5eb686040518163ffffffff1660e01b815260040160206040518083038186803b15801561054957600080fd5b505afa15801561055d573d6000803e3d6000fd5b505050506040513d601f19601f8201168201806040525081019061058191906152cd565b9050600080836001600160a01b031663e6c14362886020015189604001516040518363ffffffff1660e01b81526004016105bc929190615392565b60206040518083038186803b1580156105d457600080fd5b505afa1580156105e8573d6000803e3d6000fd5b505050506040513d601f19601f8201168201806040525081019061060c91906152cd565b90508281886080015161061f91906155e6565b61062991906155c4565b9150506000846001600160a01b0316636d2745536040518163ffffffff1660e01b815260040160206040518083038186803b15801561066757600080fd5b505afa15801561067b573d6000803e3d6000fd5b505050506040513d601f19601f8201168201806040525081019061069f91906152cd565b6020880151604051635ba2edab60e11b81526001600160a01b0391821660048201529192506000919087169063b745db569060240160206040518083038186803b1580156106ec57600080fd5b505afa158015610700573d6000803e3d6000fd5b505050506040513d601f19601f8201168201806040525081019061072491906152cd565b606089015160405163095bf1bb60e01b81526001600160a01b0391821660048201529192506000919088169063095bf1bb9060240160206040518083038186803b15801561077157600080fd5b505afa158015610785573d6000803e3d6000fd5b505050506040513d601f19601f820116820180604052508101906107a991906152cd565b90506000816107b88486615605565b6107c290876155e6565b6107cc91906155c4565b60608b01516040808d01519051637360a1b160e11b81529293506000926001600160a01b038b169263e6c143629261080692600401615392565b60206040518083038186803b15801561081e57600080fd5b505afa158015610832573d6000803e3d6000fd5b505050506040513d601f19601f8201168201806040525081019061085691906152cd565b90508061086388846155e6565b61086d91906155c4565b9b9a5050505050505050505050565b8051600090815260036020526040902054806108b65781516040516354ec2eeb60e01b815260048101919091526024015b60405180910390fd5b600060016108c48184615605565b815481106108d4576108d4615632565b60009182526020822091546016919091029091016008810154604051634d83bc3360e01b81526001600160a01b039182166004820152919350909116908190634d83bc339060240160206040518083038186803b15801561093457600080fd5b505afa158015610948573d6000803e3d6000fd5b505050506040513d601f19601f8201168201806040525081019061096c9190615058565b6001600160a01b0316336001600160a01b03161461099f5760405163a59d7f4d60e01b81523360048201526024016108ad565b601382015460ff16156109cb578351604051632a2af87d60e11b815260048101919091526024016108ad565b600182015460408501516001600160a01b03908116911614610a155760018201546040808601519051631194af8760e11b81526108ad926001600160a01b03169190600401615392565b60208481015160108401819055855160408088015181519384526001600160a01b031693830193909352917f16ecc3716f8ba588e1f42501972bcac92c1672192e042949e6d3847a1bde9b5d91015b60405180910390a250505050565b610a7a614c98565b610a8382613d5c565b92915050565b6001600160a01b0382166000908152600460205260408120805483908110610ab357610ab3615632565b9060005260206000200154905092915050565b60028181548110610ad657600080fd5b600091825260209091200154905081565b805160009081526003602052604081205480156110025760006001610b0c8184615605565b81548110610b1c57610b1c615632565b60009182526020808320604080516101a08101825260169094029091018054845260018101546001600160a01b03908116858501526002820154811685840152825160a080820185526003840154831682526004808501548388015260058501548387015260068501546060848101919091526007860154608080860191909152818a0194909452865180880188526008870154861681526009870154818a0152848a015286518084018852600a87015486168152600b870154818a0152600c87015481890152600d87015481830152600e87015481860152838a0152600f86015460c0808b0191909152601087015460e0808c01919091526011880154610100808d019190915260128901546101208d015289518082018b5260138a015460ff8082161515835292810483161515828e015262010000810483161515828d015263010000008104831615159582019590955264010000000085048216151597810197909752600160281b84048116151595870195909552600160301b83048516151591860191909152600160381b9091049092161515918301919091526101408701919091526014830154821661016087015260159092015461018086015285548351633a0df78d60e11b81529351959750169493859363741bef1a938084019391929190829003018186803b158015610d1657600080fd5b505afa158015610d2a573d6000803e3d6000fd5b505050506040513d601f19601f82011682018060405250810190610d4e9190615058565b90506000816001600160a01b031663aaf5eb686040518163ffffffff1660e01b815260040160206040518083038186803b158015610d8b57600080fd5b505afa158015610d9f573d6000803e3d6000fd5b505050506040513d601f19601f82011682018060405250810190610dc391906152cd565b606085015151604051635ba2edab60e11b81526001600160a01b0391821660048201529192506000919085169063b745db569060240160206040518083038186803b158015610e1157600080fd5b505afa158015610e25573d6000803e3d6000fd5b505050506040513d601f19601f82011682018060405250810190610e4991906152cd565b60a08601515160405163095bf1bb60e01b81526001600160a01b0391821660048201529192506000919086169063095bf1bb9060240160206040518083038186803b158015610e9757600080fd5b505afa158015610eab573d6000803e3d6000fd5b505050506040513d601f19601f82011682018060405250810190610ecf91906152cd565b9050600089602001518760a0015160200151610eeb91906155ac565b90506000610efb856127106155e6565b606089015160408101516020909101518691610f16916155e6565b610f2091906155e6565b610f2a91906155c4565b60a08901515160405163017f783b60e61b81526001600160a01b03918216600482015291925060009190891690635fde0ec09060240160206040518083038186803b158015610f7857600080fd5b505afa158015610f8c573d6000803e3d6000fd5b505050506040513d601f19601f82011682018060405250810190610fb091906152cd565b905060008482848c6080015160200151610fca9190615605565b610fd491906155e6565b610fde91906155c4565b905083610feb88836155e6565b610ff591906155c4565b9b50505050505050505050505b50919050565b60008181526003602052604090205480611038576040516354ec2eeb60e01b8152600481018390526024016108ad565b600060016110468184615605565b8154811061105657611056615632565b60009182526020909120601690910201601381015490915060ff161561109257604051632a2af87d60e11b8152600481018490526024016108ad565b6015810154156110b857604051634fd9d2b360e11b8152600481018490526024016108ad565b426110c2846146e9565b15611100576015820181905560405181815284907fa12564b997ab2a5a96db3485450b11398857b9457f88412f9ad19cdffd43a1ab90602001610a64565b50505050565b805160009081526003602052604081205481908015611565576000600161112d8184615605565b8154811061113d5761113d615632565b60009182526020808320604080516101a08101825260169094029091018054845260018101546001600160a01b03908116858501526002820154811685840152825160a080820185526003840154831682526004808501548388015260058501548387015260068501546060848101919091526007860154608080860191909152818a0194909452865180880188526008870154861681526009870154818a0152848a015286518084018852600a87015486168152600b870154818a0152600c87015481890152600d87015481830152600e87015481860152838a0152600f86015460c0808b0191909152601087015460e0808c01919091526011880154610100808d019190915260128901546101208d015289518082018b5260138a015460ff8082161515835292810483161515828e015262010000810483161515828d015263010000008104831615159582019590955264010000000085048216151597810197909752600160281b84048116151595870195909552600160301b83048516151591860191909152600160381b90910490921615159183019190915261014087019190915260148301548216610160870152601590920154610180860152855483516375e5807960e01b8152935195975016949385936375e58079938084019391929190829003018186803b15801561133757600080fd5b505afa15801561134b573d6000803e3d6000fd5b505050506040513d601f19601f8201168201806040525081019061136f9190615058565b90508260c001518760200151116115615760808301515160405163ac436bdf60e01b81526001600160a01b03918216600482015260009184169063ac436bdf9060240160206040518083038186803b1580156113ca57600080fd5b505afa1580156113de573d6000803e3d6000fd5b505050506040513d601f19601f8201168201806040525081019061140291906152cd565b905064496cebb8008460c00151896020015161141e9190615605565b8286608001516020015161143291906155e6565b61143c91906155e6565b61144691906155c4565b602085015160405163172c717b60e01b81526001600160a01b0391821660048201526024810183905291985083169063172c717b9060440160206040518083038186803b15801561149657600080fd5b505afa1580156114aa573d6000803e3d6000fd5b505050506040513d601f19601f820116820180604052508101906114ce91906152cd565b96506000836001600160a01b03166358f858806040518163ffffffff1660e01b815260040160206040518083038186803b15801561150b57600080fd5b505afa15801561151f573d6000803e3d6000fd5b505050506040513d601f19601f8201168201806040525081019061154391906152cd565b9050612710611552828a6155e6565b61155c91906155c4565b965050505b5050505b50915091565b6000805460408051633a0df78d60e11b8152905183926001600160a01b0316918391839163741bef1a916004808301926020929190829003018186803b1580156115b457600080fd5b505afa1580156115c8573d6000803e3d6000fd5b505050506040513d601f19601f820116820180604052508101906115ec9190615058565b90506000816001600160a01b031663aaf5eb686040518163ffffffff1660e01b815260040160206040518083038186803b15801561162957600080fd5b505afa15801561163d573d6000803e3d6000fd5b505050506040513d601f19601f8201168201806040525081019061166191906152cd565b90506000806000846001600160a01b031663e6c143628a602001518b604001516040518363ffffffff1660e01b815260040161169e929190615392565b60206040518083038186803b1580156116b657600080fd5b505afa1580156116ca573d6000803e3d6000fd5b505050506040513d601f19601f820116820180604052508101906116ee91906152cd565b905083818a6080015161170191906155e6565b61170b91906155c4565b60608a01516040808c01519051637360a1b160e11b81529295506000926001600160a01b0389169263e6c143629261174592600401615392565b60206040518083038186803b15801561175d57600080fd5b505afa158015611771573d6000803e3d6000fd5b505050506040513d601f19601f8201168201806040525081019061179591906152cd565b905084818b60c001516117a891906155e6565b6117b291906155c4565b925050506000856001600160a01b0316636d2745536040518163ffffffff1660e01b815260040160206040518083038186803b1580156117f157600080fd5b505afa158015611805573d6000803e3d6000fd5b505050506040513d601f19601f8201168201806040525081019061182991906152cd565b60208a0151604051635ba2edab60e11b81526001600160a01b0391821660048201529192506000919088169063b745db569060240160206040518083038186803b15801561187657600080fd5b505afa15801561188a573d6000803e3d6000fd5b505050506040513d601f19601f820116820180604052508101906118ae91906152cd565b60608b015160405163095bf1bb60e01b81526001600160a01b0391821660048201529192506000919089169063095bf1bb9060240160206040518083038186803b1580156118fb57600080fd5b505afa15801561190f573d6000803e3d6000fd5b505050506040513d601f19601f8201168201806040525081019061193391906152cd565b90506000816119428486615605565b61194c90886155e6565b61195691906155c4565b905080851015611974575060009b8c9b509950505050505050505050565b50600061271061198484886155e6565b61198e91906155c4565b9050600061271061199f84886155e6565b6119a991906155c4565b90506127106119b886896155e6565b6119c291906155c4565b9b506119ce81836155ac565b9a5050505050505050505050915091565b6000546001600160a01b031615611a09576040516373e833b960e11b815260040160405180910390fd5b600080546001600160a01b0319166001600160a01b0392909216919091179055565b6000610a83826146e9565b60008054608083015151604051634d83bc3360e01b81526001600160a01b0391821660048201529116908190634d83bc339060240160206040518083038186803b158015611a8357600080fd5b505afa158015611a97573d6000803e3d6000fd5b505050506040513d601f19601f82011682018060405250810190611abb9190615058565b6001600160a01b0316336001600160a01b031614611aee5760405163a59d7f4d60e01b81523360048201526024016108ad565b6001546040516bffffffffffffffffffffffff193060601b16602082015260348101919091524260548201526074016040516020818303038152906040528051906020012091508183600001818152505060018390806001815401808255809150506001900390600052602060002090601602016000909190919091506000820151816000015560208201518160010160006101000a8154816001600160a01b0302191690836001600160a01b0316021790555060408201518160020160006101000a8154816001600160a01b0302191690836001600160a01b0316021790555060608201518160030160008201518160000160006101000a8154816001600160a01b0302191690836001600160a01b0316021790555060208201518160010155604082015181600201556060820151816003015560808201518160040155505060808201518160080160008201518160000160006101000a8154816001600160a01b0302191690836001600160a01b0316021790555060208201518160010155505060a082015181600a0160008201518160000160006101000a8154816001600160a01b0302191690836001600160a01b0316021790555060208201518160010155604082015181600201556060820151816003015560808201518160040155505060c082015181600f015560e08201518160100155610100820151816011015561012082015181601201556101408201518160130160008201518160000160006101000a81548160ff02191690831515021790555060208201518160000160016101000a81548160ff02191690831515021790555060408201518160000160026101000a81548160ff02191690831515021790555060608201518160000160036101000a81548160ff02191690831515021790555060808201518160000160046101000a81548160ff02191690831515021790555060a08201518160000160056101000a81548160ff02191690831515021790555060c08201518160000160066101000a81548160ff02191690831515021790555060e08201518160000160076101000a81548160ff02191690831515021790555050506101608201518160140160006101000a8154816001600160a01b0302191690836001600160a01b03160217905550610180820151816015015550506001805490506003600085600001518152602001908152602001600020819055506002836000015190806001815401808255809150506001900390600052602060002001600090919091909150556004600084602001516001600160a01b03166001600160a01b031681526020019081526020016000208360000151908060018154018082558091505060019003906000526020600020016000909190919091505582600001517f5fab80b8320f567319e4d7377f5305880481272b952242604af9f7f912af3bdb60405160405180910390a250919050565b805160009081526003602052604081205480611f505782516040516354ec2eeb60e01b815260048101919091526024016108ad565b60006001611f5e8184615605565b81548110611f6e57611f6e615632565b60009182526020822091546016919091029091016008810154604051634d83bc3360e01b81526001600160a01b039182166004820152919350909116908190634d83bc339060240160206040518083038186803b158015611fce57600080fd5b505afa158015611fe2573d6000803e3d6000fd5b505050506040513d601f19601f820116820180604052508101906120069190615058565b6001600160a01b0316336001600160a01b0316146120395760405163a59d7f4d60e01b81523360048201526024016108ad565b601382015460ff1615612065578451604051632a2af87d60e11b815260048101919091526024016108ad565b600182015460408601516001600160a01b039081169116146120af5760018201546040808701519051631194af8760e11b81526108ad926001600160a01b03169190600401615392565b6000816001600160a01b031663741bef1a6040518163ffffffff1660e01b815260040160206040518083038186803b1580156120ea57600080fd5b505afa1580156120fe573d6000803e3d6000fd5b505050506040513d601f19601f820116820180604052508101906121229190615058565b90506000816001600160a01b031663aaf5eb686040518163ffffffff1660e01b815260040160206040518083038186803b15801561215f57600080fd5b505afa158015612173573d6000803e3d6000fd5b505050506040513d601f19601f8201168201806040525081019061219791906152cd565b6003850154604051635ba2edab60e11b81526001600160a01b0391821660048201529192506000919085169063b745db569060240160206040518083038186803b1580156121e457600080fd5b505afa1580156121f8573d6000803e3d6000fd5b505050506040513d601f19601f8201168201806040525081019061221c91906152cd565b600a86015460405163095bf1bb60e01b81526001600160a01b0391821660048201529192506000919086169063095bf1bb9060240160206040518083038186803b15801561226957600080fd5b505afa15801561227d573d6000803e3d6000fd5b505050506040513d601f19601f820116820180604052508101906122a191906152cd565b90506000896020015187600a01600101546122bc91906155ac565b905060006122cc856127106155e6565b600589015460048a015486916122e1916155e6565b6122eb91906155e6565b6122f591906155c4565b600a89015460405163017f783b60e61b81526001600160a01b03918216600482015291925060009190891690635fde0ec09060240160206040518083038186803b15801561234257600080fd5b505afa158015612356573d6000803e3d6000fd5b505050506040513d601f19601f8201168201806040525081019061237a91906152cd565b905060008482848c600801600101546123939190615605565b61239d91906155e6565b6123a791906155c4565b9050836123b488836155e6565b6123be91906155c4565b600d8b015550508a516020808d01516040808f015181519283529282018e90526001600160a01b039092168183015290517f9eadcc5983e9f0a6ecaed53a02a3257cc83e8581346642986340e548338a2db79181900360600190a2505050505050505050919050565b60008481526003602052604090205480612457576040516354ec2eeb60e01b8152600481018690526024016108ad565b600060016124658184615605565b8154811061247557612475615632565b60009182526020822091546016919091029091016008810154604051634d83bc3360e01b81526001600160a01b039182166004820152919350909116908190634d83bc339060240160206040518083038186803b1580156124d557600080fd5b505afa1580156124e9573d6000803e3d6000fd5b505050506040513d601f19601f8201168201806040525081019061250d9190615058565b6001600160a01b0316336001600160a01b0316146125405760405163a59d7f4d60e01b81523360048201526024016108ad565b601382015460ff1661256857604051635de41db760e11b8152600481018890526024016108ad565b6000816001600160a01b031663741bef1a6040518163ffffffff1660e01b815260040160206040518083038186803b1580156125a357600080fd5b505afa1580156125b7573d6000803e3d6000fd5b505050506040513d601f19601f820116820180604052508101906125db9190615058565b90506000816001600160a01b031663aaf5eb686040518163ffffffff1660e01b815260040160206040518083038186803b15801561261857600080fd5b505afa15801561262c573d6000803e3d6000fd5b505050506040513d601f19601f8201168201806040525081019061265091906152cd565b6004850154909150612662828a6155e6565b61266c91906155c4565b600785015586156126a857600b84015460009061268a908890615605565b905080612697838a6155e6565b6126a191906155c4565b600e860155505b505050505050505050565b600181815481106126c357600080fd5b90600052602060002090601602016000915090508060000154908060010160009054906101000a90046001600160a01b0316908060020160009054906101000a90046001600160a01b031690806003016040518060a00160405290816000820160009054906101000a90046001600160a01b03166001600160a01b03166001600160a01b0316815260200160018201548152602001600282015481526020016003820154815260200160048201548152505090806008016040518060400160405290816000820160009054906101000a90046001600160a01b03166001600160a01b03166001600160a01b031681526020016001820154815250509080600a016040518060a00160405290816000820160009054906101000a90046001600160a01b03166001600160a01b03166001600160a01b031681526020016001820154815260200160028201548152602001600382015481526020016004820154815250509080600f01549080601001549080601101549080601201549080601301604051806101000160405290816000820160009054906101000a900460ff161515151581526020016000820160019054906101000a900460ff161515151581526020016000820160029054906101000a900460ff161515151581526020016000820160039054906101000a900460ff161515151581526020016000820160049054906101000a900460ff161515151581526020016000820160059054906101000a900460ff161515151581526020016000820160069054906101000a900460ff161515151581526020016000820160079054906101000a900460ff161515151581525050908060140160009054906101000a90046001600160a01b031690806015015490508d565b6000828152600360205260409020548061297a576040516354ec2eeb60e01b8152600481018490526024016108ad565b600060016129888184615605565b8154811061299857612998615632565b60009182526020822091546016919091029091016008810154604051634d83bc3360e01b81526001600160a01b039182166004820152919350909116908190634d83bc339060240160206040518083038186803b1580156129f857600080fd5b505afa158015612a0c573d6000803e3d6000fd5b505050506040513d601f19601f82011682018060405250810190612a309190615058565b6001600160a01b0316336001600160a01b031614612a635760405163a59d7f4d60e01b81523360048201526024016108ad565b601382015460ff1615612a8c57604051632a2af87d60e11b8152600481018690526024016108ad565b60018201546001600160a01b03858116911614612acd576001820154604051631194af8760e11b81526108ad916001600160a01b0316908690600401615392565b60138201805465ff00000000ff1916650100000000011790556014820180546001600160a01b0319166001600160a01b03861690811790915560405190815285907f6a85bd8516bd8204e81aa2933301a26c59fc549b80ea554b8628afbcdf21e2c79060200160405180910390a25050505050565b612b4a614c98565b6000828152600360205260409020548015611002576001612b6b8183615605565b81548110612b7b57612b7b615632565b6000918252602091829020604080516101a08101825260169093029091018054835260018101546001600160a01b03908116848601526002820154811684840152825160a080820185526003840154831682526004840154828801526005840154828601526006840154606083810191909152600785015460808085019190915281880193909352855180870187526008860154851681526009860154818a01528388015285518083018752600a86015485168152600b860154818a0152600c86015481880152600d86015481830152600e8601548185015282880152600f85015460c080890191909152601086015460e0808a01919091526011870154610100808b019190915260128801546101208b015288518082018a52601389015460ff80821615158352928104831615159c82019c909c52620100008c04821615159981019990995263010000008b0481161515938901939093526401000000008a048316151594880194909452600160281b89048216151592870192909252600160301b88048116151591860191909152600160381b9096049095161515948301949094526101408301919091526014810154909216610160820152601590910154610180820152915050919050565b60008281526003602052604081205480612d7a576040516354ec2eeb60e01b8152600481018590526024016108ad565b60006001612d888184615605565b81548110612d9857612d98615632565b60009182526020822091546016919091029091016008810154604051634d83bc3360e01b81526001600160a01b039182166004820152919350909116908190634d83bc339060240160206040518083038186803b158015612df857600080fd5b505afa158015612e0c573d6000803e3d6000fd5b505050506040513d601f19601f82011682018060405250810190612e309190615058565b6001600160a01b0316336001600160a01b031614612e635760405163a59d7f4d60e01b81523360048201526024016108ad565b601382015460ff1615612e8c57604051632a2af87d60e11b8152600481018790526024016108ad565b4282600f015411612ead5760138201805461ff001916610100179055600193505b6000816001600160a01b031663741bef1a6040518163ffffffff1660e01b815260040160206040518083038186803b158015612ee857600080fd5b505afa158015612efc573d6000803e3d6000fd5b505050506040513d601f19601f82011682018060405250810190612f209190615058565b600a8401546008850154604051637360a1b160e11b81529293506000926001600160a01b038086169363e6c1436293612f6193918316921690600401615392565b60206040518083038186803b158015612f7957600080fd5b505afa158015612f8d573d6000803e3d6000fd5b505050506040513d601f19601f82011682018060405250810190612fb191906152cd565b600d8501549091508111612fdb5760138401805464ff000000001916640100000000179055600195505b60038401546008850154604051637360a1b160e11b81526000926001600160a01b038681169363e6c143629361301a9383169290911690600401615392565b60206040518083038186803b15801561303257600080fd5b505afa158015613046573d6000803e3d6000fd5b505050506040513d601f19601f8201168201806040525081019061306a91906152cd565b905060008560100154118015613084575084601001548111155b156130a15760138501805462ff0000191662010000179055600196505b600685015481116130c65760138501805463ff00000019166301000000179055600196505b60018501546001600160a01b038981169116148015906130e4575086155b15613113576001850154604051631194af8760e11b81526108ad916001600160a01b0316908a90600401615392565b60138501805460ff191660011790556014850180546001600160a01b038a166001600160a01b0319909116811790915560405190815289907f6a85bd8516bd8204e81aa2933301a26c59fc549b80ea554b8628afbcdf21e2c79060200160405180910390a250505050505092915050565b600081815260036020526040902054806131b4576040516354ec2eeb60e01b8152600481018390526024016108ad565b600060016131c28184615605565b815481106131d2576131d2615632565b60009182526020822091546016919091029091016008810154604051634d83bc3360e01b81526001600160a01b039182166004820152919350909116908190634d83bc339060240160206040518083038186803b15801561323257600080fd5b505afa158015613246573d6000803e3d6000fd5b505050506040513d601f19601f8201168201806040525081019061326a9190615058565b6001600160a01b0316336001600160a01b03161461329d5760405163a59d7f4d60e01b81523360048201526024016108ad565b601382015460ff16156132c657604051632a2af87d60e11b8152600481018590526024016108ad565b806001600160a01b031663eddf82bb6040518163ffffffff1660e01b815260040160206040518083038186803b1580156132ff57600080fd5b505afa158015613313573d6000803e3d6000fd5b505050506040513d601f19601f8201168201806040525081019061333791906152cd565b826015015461334691906155ac565b4210156133695760405163a2757e2760e01b8152600481018590526024016108ad565b60138201805466ff0000000000001916600160301b17905560405184907f0de9a071731ad64ea412c199b649f11ada453eb6c8b323fc0769345e62316a4990600090a250505050565b6000600282815481106133c7576133c7615632565b90600052602060002001549050919050565b600081815260036020526040812054806133f65750600092915050565b6133ff836146e9565b8015613438575060016134128183615605565b8154811061342257613422615632565b9060005260206000209060160201601501546000145b9392505050565b6000818152600360205260409020548061346f576040516354ec2eeb60e01b8152600481018390526024016108ad565b6000600161347d8184615605565b8154811061348d5761348d615632565b60009182526020822091546016919091029091016008810154604051634d83bc3360e01b81526001600160a01b039182166004820152919350909116908190634d83bc339060240160206040518083038186803b1580156134ed57600080fd5b505afa158015613501573d6000803e3d6000fd5b505050506040513d601f19601f820116820180604052508101906135259190615058565b6001600160a01b0316336001600160a01b0316146135585760405163a59d7f4d60e01b81523360048201526024016108ad565b601382015460ff161561358157604051632a2af87d60e11b8152600481018590526024016108ad565b6013820154600160301b900460ff166135b05760405163746d2b8160e01b8152600481018590526024016108ad565b60138201805467ff000000000000ff19166701000000000000011790556040516000815284907f6a85bd8516bd8204e81aa2933301a26c59fc549b80ea554b8628afbcdf21e2c790602001610a64565b613608614c98565b6001828154811061361b5761361b615632565b6000918252602091829020604080516101a08101825260169093029091018054835260018101546001600160a01b03908116848601526002820154811684840152825160a080820185526003840154831682526004840154828801526005840154828601526006840154606083810191909152600785015460808085019190915281880193909352855180870187526008860154851681526009860154818a01528388015285518083018752600a86015485168152600b860154818a0152600c86015481880152600d86015481830152600e8601548185015282880152600f85015460c080890191909152601086015460e0808a01919091526011870154610100808b019190915260128801546101208b015288518082018a52601389015460ff80821615158352928104831615159c82019c909c52620100008c04821615159981019990995263010000008b0481161515938901939093526401000000008a048316151594880194909452600160281b89048216151592870192909252600160301b88048116151591860191909152600160381b909604909516151594830194909452610140830191909152601481015490921661016082015260159091015461018082015292915050565b805160009081526003602052604081205481908061381f5783516040516354ec2eeb60e01b815260048101919091526024016108ad565b6000600161382d8184615605565b8154811061383d5761383d615632565b60009182526020822091546016919091029091016008810154604051634d83bc3360e01b81526001600160a01b039182166004820152919350909116908190634d83bc339060240160206040518083038186803b15801561389d57600080fd5b505afa1580156138b1573d6000803e3d6000fd5b505050506040513d601f19601f820116820180604052508101906138d59190615058565b6001600160a01b0316336001600160a01b0316146139085760405163a59d7f4d60e01b81523360048201526024016108ad565b601382015460ff1615613934578551604051632a2af87d60e11b815260048101919091526024016108ad565b600182015460408701516001600160a01b0390811691161461397e5760018201546040808801519051631194af8760e11b81526108ad926001600160a01b03169190600401615392565b6000816001600160a01b03166375e580796040518163ffffffff1660e01b815260040160206040518083038186803b1580156139b957600080fd5b505afa1580156139cd573d6000803e3d6000fd5b505050506040513d601f19601f820116820180604052508101906139f19190615058565b604080890151905163223884bf60e11b81526001600160a01b03918216600482015291925060009190831690634471097e9060240160206040518083038186803b158015613a3e57600080fd5b505afa158015613a52573d6000803e3d6000fd5b505050506040513d601f19601f82011682018060405250810190613a7691906150a1565b905080613aa757604080890151905163fa5cd00f60e01b81526001600160a01b0390911660048201526024016108ad565b83600f0154886020015111613acf57604051630309cb8760e51b815260040160405180910390fd5b600884015460405163ac436bdf60e01b81526001600160a01b03918216600482015260009185169063ac436bdf9060240160206040518083038186803b158015613b1857600080fd5b505afa158015613b2c573d6000803e3d6000fd5b505050506040513d601f19601f82011682018060405250810190613b5091906152cd565b905064496cebb80085600f01548a60200151613b6c9190615605565b6009870154613b7c9084906155e6565b613b8691906155e6565b613b9091906155c4565b600186015460405163172c717b60e01b81526001600160a01b0391821660048201526024810183905291995084169063172c717b9060440160206040518083038186803b158015613be057600080fd5b505afa158015613bf4573d6000803e3d6000fd5b505050506040513d601f19601f82011682018060405250810190613c1891906152cd565b97506000846001600160a01b03166358f858806040518163ffffffff1660e01b815260040160206040518083038186803b158015613c5557600080fd5b505afa158015613c69573d6000803e3d6000fd5b505050506040513d601f19601f82011682018060405250810190613c8d91906152cd565b9050612710613c9c828b6155e6565b613ca691906155c4565b975088866008016001016000828254613cbf91906155ac565b9250508190555088866011016000828254613cda91906155ac565b9250508190555087866012016000828254613cf591906155ac565b909155505060208a810151600f88018190558b516040808e015181519384526001600160a01b031693830193909352917f058d0b7c2499b80403e5adabcc2c3565b19c921a6781e8d474d2bf925b51f21c910160405180910390a250505050505050915091565b613d64614c98565b8160e0015142108015613d91575081604001516001600160a01b031682602001516001600160a01b031614155b156146e4576000805460408051633a0df78d60e11b815290516001600160a01b039092169291839163741bef1a916004808301926020929190829003018186803b158015613dde57600080fd5b505afa158015613df2573d6000803e3d6000fd5b505050506040513d601f19601f82011682018060405250810190613e169190615058565b90506000816001600160a01b031663aaf5eb686040518163ffffffff1660e01b815260040160206040518083038186803b158015613e5357600080fd5b505afa158015613e67573d6000803e3d6000fd5b505050506040513d601f19601f82011682018060405250810190613e8b91906152cd565b90506000806000846001600160a01b031663e6c1436289602001518a604001516040518363ffffffff1660e01b8152600401613ec8929190615392565b60206040518083038186803b158015613ee057600080fd5b505afa158015613ef4573d6000803e3d6000fd5b505050506040513d601f19601f82011682018060405250810190613f1891906152cd565b905083818960800151613f2b91906155e6565b613f3591906155c4565b60608901516040808b01519051637360a1b160e11b81529295506000926001600160a01b0389169263e6c1436292613f6f92600401615392565b60206040518083038186803b158015613f8757600080fd5b505afa158015613f9b573d6000803e3d6000fd5b505050506040513d601f19601f82011682018060405250810190613fbf91906152cd565b905084818a60c00151613fd291906155e6565b613fdc91906155c4565b9250613fe789614b16565b97508188606001516040018181525050808860a00151604001818152505050506000856001600160a01b0316636d2745536040518163ffffffff1660e01b815260040160206040518083038186803b15801561404257600080fd5b505afa158015614056573d6000803e3d6000fd5b505050506040513d601f19601f8201168201806040525081019061407a91906152cd565b6020890151604051635ba2edab60e11b81526001600160a01b0391821660048201529192506000919088169063b745db569060240160206040518083038186803b1580156140c757600080fd5b505afa1580156140db573d6000803e3d6000fd5b505050506040513d601f19601f820116820180604052508101906140ff91906152cd565b60608a015160405163095bf1bb60e01b81526001600160a01b0391821660048201529192506000919089169063095bf1bb9060240160206040518083038186803b15801561414c57600080fd5b505afa158015614160573d6000803e3d6000fd5b505050506040513d601f19601f8201168201806040525081019061418491906152cd565b90506000816141938486615605565b61419d90886155e6565b6141a791906155c4565b9050808510156141bf57505050505050505050919050565b5060006127106141cf84886155e6565b6141d991906155c4565b905060006127106141ea86896155e6565b6141f491906155c4565b9050600061271061420585896155e6565b61420f91906155c4565b9050600061421d82856155ac565b9050808e60a0015111806142345750828e60a00151105b1561424a57505050505050505050505050919050565b50505060208b015160405163f5d0e17560e01b81526001600160a01b0391821660048201526000918b169063f5d0e1759060240160206040518083038186803b15801561429657600080fd5b505afa1580156142aa573d6000803e3d6000fd5b505050506040513d601f19601f820116820180604052508101906142ce91906152cd565b9050838c608001516142e091906155e6565b886142eb83856155e6565b6142f591906155e6565b6142ff91906155c4565b60608c8101518101919091528c015160405163017f783b60e61b81526001600160a01b03918216600482015260009250908b1690635fde0ec09060240160206040518083038186803b15801561435457600080fd5b505afa158015614368573d6000803e3d6000fd5b505050506040513d601f19601f8201168201806040525081019061438c91906152cd565b905060008382848f60a001516143a29190615605565b6143ac91906155e6565b6143b691906155c4565b9050808710156143d0575050505050505050505050919050565b60c08d01516143df8a836155e6565b6143e991906155c4565b60a08d015160600152505060408b810151905163ac436bdf60e01b81526001600160a01b0391821660048201526000918b169063ac436bdf9060240160206040518083038186803b15801561443d57600080fd5b505afa158015614451573d6000803e3d6000fd5b505050506040513d601f19601f8201168201806040525081019061447591906152cd565b9050600064496cebb800428e60e0015161448f9190615605565b838f60a0015161449f91906155e6565b6144a991906155e6565b6144b391906155c4565b905060008b6001600160a01b03166375e580796040518163ffffffff1660e01b815260040160206040518083038186803b1580156144f057600080fd5b505afa158015614504573d6000803e3d6000fd5b505050506040513d601f19601f820116820180604052508101906145289190615058565b8e5160405163172c717b60e01b81526001600160a01b0391821660048201526024810185905291925082169063172c717b9060440160206040518083038186803b15801561457557600080fd5b505afa158015614589573d6000803e3d6000fd5b505050506040513d601f19601f820116820180604052508101906145ad91906152cd565b915060008c6001600160a01b03166358f858806040518163ffffffff1660e01b815260040160206040518083038186803b1580156145ea57600080fd5b505afa1580156145fe573d6000803e3d6000fd5b505050506040513d601f19601f8201168201806040525081019061462291906152cd565b6101008f01849052905061271061463982856155e6565b61464391906155c4565b6101208f01525050505060408b8101519051634d83bc3360e01b81526001600160a01b039182166004820152908a1690634d83bc339060240160206040518083038186803b15801561469457600080fd5b505afa1580156146a8573d6000803e3d6000fd5b505050506040513d601f19601f820116820180604052508101906146cc9190615058565b6001600160a01b031660408b01525050505050505050505b919050565b600081815260036020526040812054806147065750600092915050565b600060016147148184615605565b8154811061472457614724615632565b6000918252602091829020604080516101a08101825260169093029091018054835260018101546001600160a01b03908116848601526002820154811684840152825160a080820185526003840154831682526004840154828801526005840154828601526006840154606083810191909152600785015460808085019190915281880193909352855180870187526008860154851681526009860154818a01528388015285518083018752600a86015485168152600b860154818a0152600c86015481880152600d86015481830152600e8601548185015282880152600f85015460c080890191909152601086015460e0808a01919091526011870154610100808b019190915260128801546101208b015288518082018a52601389015460ff80821615158352928104831615159c82019c909c52620100008c04821615159981019990995263010000008b0481161515938901939093526401000000008a048316151594880194909452600160281b89048216151592870192909252600160301b88048116151591860191909152600160381b909604909516151594830194909452610140830182905260148101549093166101608301526015909201546101808201529051909150156148fe575060009392505050565b428160c0015111614913575060019392505050565b6000805460408051633a0df78d60e11b815290516001600160a01b039092169291839163741bef1a916004808301926020929190829003018186803b15801561495b57600080fd5b505afa15801561496f573d6000803e3d6000fd5b505050506040513d601f19601f820116820180604052508101906149939190615058565b60a084015151608085015151604051637360a1b160e11b81529293506000926001600160a01b0385169263e6c14362926149cf92600401615392565b60206040518083038186803b1580156149e757600080fd5b505afa1580156149fb573d6000803e3d6000fd5b505050506040513d601f19601f82011682018060405250810190614a1f91906152cd565b90508360a00151606001518111614a3d575060019695505050505050565b606084015151608085015151604051637360a1b160e11b81526000926001600160a01b0386169263e6c1436292614a78929190600401615392565b60206040518083038186803b158015614a9057600080fd5b505afa158015614aa4573d6000803e3d6000fd5b505050506040513d601f19601f82011682018060405250810190614ac891906152cd565b905060008560e00151118015614ae257508460e001518111155b80614af557508460600151606001518111155b15614b0857506001979650505050505050565b506000979650505050505050565b614b1e614c98565b604051806101a001604052806000801916815260200183600001516001600160a01b0316815260200160006001600160a01b031681526020016040518060a0016040528085602001516001600160a01b0316815260200185608001518152602001600081526020016000815260200160008152508152602001604051806040016040528085604001516001600160a01b031681526020018560a0015181525081526020016040518060a0016040528085606001516001600160a01b031681526020018560c0015181526020016000815260200160008152602001600081525081526020018360e0015181526020018361010001518152602001600081526020016000815260200160405180610100016040528060001515815260200160001515815260200160001515815260200160001515815260200160001515815260200160001515815260200160001515815260200160001515815250815260200160006001600160a01b0316815260200160008152509050919050565b604051806101a001604052806000801916815260200160006001600160a01b0316815260200160006001600160a01b03168152602001614d096040518060a0016040528060006001600160a01b03168152602001600081526020016000815260200160008152602001600081525090565b8152602001614d34604051806040016040528060006001600160a01b03168152602001600081525090565b8152602001614d746040518060a0016040528060006001600160a01b03168152602001600081526020016000815260200160008152602001600081525090565b8152600060208083018290526040808401839052606080850184905260808086018590528251610100810184528581529384018590529183018490528201839052810182905260a081810183905260c0820183905260e0820192909252910190815260006020820181905260409091015290565b80356146e481615648565b80356146e481615660565b600060a08284031215614e1057600080fd5b60405160a0810181811067ffffffffffffffff82111715614e4157634e487b7160e01b600052604160045260246000fd5b6040529050808235614e5281615648565b80825250602083013560208201526040830135604082015260608301356060820152608083013560808201525092915050565b600060408284031215614e9757600080fd5b6040516040810181811067ffffffffffffffff82111715614ec857634e487b7160e01b600052604160045260246000fd5b6040529050808235614ed981615648565b8152602092830135920191909152919050565b6000610100808385031215614f0057600080fd5b6040519081019067ffffffffffffffff82118183101715614f3157634e487b7160e01b600052604160045260246000fd5b8160405280925083359150614f4582615660565b818152614f5460208501614df3565b6020820152614f6560408501614df3565b6040820152614f7660608501614df3565b6060820152614f8760808501614df3565b6080820152614f9860a08501614df3565b60a0820152614fa960c08501614df3565b60c0820152614fba60e08501614df3565b60e0820152505092915050565b600060608284031215614fd957600080fd5b6040516060810181811067ffffffffffffffff8211171561500a57634e487b7160e01b600052604160045260246000fd5b80604052508091508235815260208301356020820152604083013561502e81615648565b6040919091015292915050565b60006020828403121561504d57600080fd5b813561343881615648565b60006020828403121561506a57600080fd5b815161343881615648565b6000806040838503121561508857600080fd5b823561509381615648565b946020939093013593505050565b6000602082840312156150b357600080fd5b815161343881615660565b6000602082840312156150d057600080fd5b5035919050565b600080604083850312156150ea57600080fd5b8235915060208301356150fc81615648565b809150509250929050565b6000806000806080858703121561511d57600080fd5b5050823594602084013594506040840135936060013592509050565b6000610120828403121561514c57600080fd5b615154615542565b61515d83614de8565b815261516b60208401614de8565b602082015261517c60408401614de8565b604082015261518d60608401614de8565b60608201526080830135608082015260a083013560a082015260c083013560c082015260e083013560e08201526101008084013581830152508091505092915050565b60006103a082840312156151e357600080fd5b6151eb61557a565b823581526151fb60208401614de8565b602082015261520c60408401614de8565b604082015261521e8460608501614dfe565b606082015261010061523285828601614e85565b608083015261014061524686828701614dfe565b60a08401526101e085013560c084015261020085013560e084015261022085013582840152610240850135610120840152615285866102608701614eec565b90830152506152976103608401614de8565b610160820152610380929092013561018083015250919050565b6000606082840312156152c357600080fd5b6134388383614fc7565b6000602082840312156152df57600080fd5b5051919050565b80516001600160a01b03168252602080820151908301526040808201519083015260608082015190830152608090810151910152565b80511515825260208101511515602083015260408101511515604083015260608101511515606083015260808101511515608083015260a081015161536560a084018215159052565b5060c081015161537960c084018215159052565b5060e081015161538d60e084018215159052565b505050565b6001600160a01b0392831681529116602082015260400190565b8d81526001600160a01b038d811660208301528c811660408301526103a08201906153da606084018e6152e6565b8b516001600160a01b031661010084015260208c015161012084015261540461014084018c6152e6565b896101e084015288610200840152876102208401528661024084015261542e61026084018761531c565b9390931661036082015261038001529b9a5050505050505050505050565b815181526020808301516103a0830191615470908401826001600160a01b03169052565b50604083015161548b60408401826001600160a01b03169052565b50606083015161549e60608401826152e6565b5060808301516101006154c68185018380516001600160a01b03168252602090810151910152565b60a085015191506101406154dc818601846152e6565b60c08601516101e086015260e086015161020086015290850151610220850152610120850151610240850152840151905061551b61026084018261531c565b506101608301516001600160a01b0316610360830152610180909201516103809091015290565b604051610120810167ffffffffffffffff8111828210171561557457634e487b7160e01b600052604160045260246000fd5b60405290565b6040516101a0810167ffffffffffffffff8111828210171561557457634e487b7160e01b600052604160045260246000fd5b600082198211156155bf576155bf61561c565b500190565b6000826155e157634e487b7160e01b600052601260045260246000fd5b500490565b60008160001904831182151516156156005761560061561c565b500290565b6000828210156156175761561761561c565b500390565b634e487b7160e01b600052601160045260246000fd5b634e487b7160e01b600052603260045260246000fd5b6001600160a01b038116811461565d57600080fd5b50565b801515811461565d57600080fdfea2646970667358221220038b8ad6dc5311693b71ecb5cdb7e6dd44aac293ae68f8b7faf1635631fd6a3764736f6c63430008070033",
  "linkReferences": {},
  "deployedLinkReferences": {}
}