{
  "_format": "hh-sol-artifact-1",
  "contractName": "PositionStorage",
  "sourceName": "contracts/PositionStorage.sol",
  "abi": [
    {
      "inputs": [
        {
          "internalType": "address",
          "name": "sender",
          "type": "address"
        }
      ],
      "name": "Forbidden",
      "type": "error"
    },
    {
      "inputs": [],
      "name": "InitializedAlready",
      "type": "error"
    },
    {
      "inputs": [],
      "name": "InvalidParameter",
      "type": "error"
    },
    {
      "inputs": [
        {
          "internalType": "bytes32",
          "name": "positionKey",
          "type": "bytes32"
        }
      ],
      "name": "LiquidationMarkedAlready",
      "type": "error"
    },
    {
      "inputs": [
        {
          "internalType": "address",
          "name": "user",
          "type": "address"
        }
      ],
      "name": "NotAllowed",
      "type": "error"
    },
    {
      "inputs": [
        {
          "internalType": "bytes32",
          "name": "positionKey",
          "type": "bytes32"
        }
      ],
      "name": "NotManualExpired",
      "type": "error"
    },
    {
      "inputs": [
        {
          "internalType": "address",
          "name": "owner",
          "type": "address"
        },
        {
          "internalType": "address",
          "name": "updater",
          "type": "address"
        }
      ],
      "name": "NotOwner",
      "type": "error"
    },
    {
      "inputs": [
        {
          "internalType": "bytes32",
          "name": "positionKey",
          "type": "bytes32"
        }
      ],
      "name": "Step1NotDone",
      "type": "error"
    },
    {
      "inputs": [
        {
          "internalType": "bytes32",
          "name": "positionKey",
          "type": "bytes32"
        }
      ],
      "name": "TradePositionClosedAlready",
      "type": "error"
    },
    {
      "inputs": [
        {
          "internalType": "bytes32",
          "name": "positionKey",
          "type": "bytes32"
        }
      ],
      "name": "TradePositionNotClosed",
      "type": "error"
    },
    {
      "inputs": [
        {
          "internalType": "bytes32",
          "name": "positionKey",
          "type": "bytes32"
        }
      ],
      "name": "TradePositionNotExists",
      "type": "error"
    },
    {
      "anonymous": false,
      "inputs": [
        {
          "indexed": true,
          "internalType": "bytes32",
          "name": "positionKey",
          "type": "bytes32"
        }
      ],
      "name": "CloseManuallyStep1TradePosition",
      "type": "event"
    },
    {
      "anonymous": false,
      "inputs": [
        {
          "indexed": true,
          "internalType": "bytes32",
          "name": "positionKey",
          "type": "bytes32"
        },
        {
          "indexed": false,
          "internalType": "address",
          "name": "updater",
          "type": "address"
        }
      ],
      "name": "CloseTradePosition",
      "type": "event"
    },
    {
      "anonymous": false,
      "inputs": [
        {
          "indexed": true,
          "internalType": "bytes32",
          "name": "positionKey",
          "type": "bytes32"
        },
        {
          "indexed": false,
          "internalType": "uint256",
          "name": "time",
          "type": "uint256"
        }
      ],
      "name": "LiquidationMark",
      "type": "event"
    },
    {
      "anonymous": false,
      "inputs": [
        {
          "indexed": true,
          "internalType": "bytes32",
          "name": "positionKey",
          "type": "bytes32"
        }
      ],
      "name": "OpenTradePosition",
      "type": "event"
    },
    {
      "anonymous": false,
      "inputs": [
        {
          "indexed": true,
          "internalType": "bytes32",
          "name": "positionKey",
          "type": "bytes32"
        },
        {
          "indexed": false,
          "internalType": "uint256",
          "name": "amount",
          "type": "uint256"
        },
        {
          "indexed": false,
          "internalType": "uint256",
          "name": "collateralLiqPrice",
          "type": "uint256"
        },
        {
          "indexed": false,
          "internalType": "uint256",
          "name": "baseLiqPrice",
          "type": "uint256"
        },
        {
          "indexed": false,
          "internalType": "address",
          "name": "updater",
          "type": "address"
        }
      ],
      "name": "UpdateCollateralAmount",
      "type": "event"
    },
    {
      "anonymous": false,
      "inputs": [
        {
          "indexed": true,
          "internalType": "bytes32",
          "name": "positionKey",
          "type": "bytes32"
        },
        {
          "indexed": false,
          "internalType": "uint256",
          "name": "newDeadline",
          "type": "uint256"
        },
        {
          "indexed": false,
          "internalType": "address",
          "name": "updater",
          "type": "address"
        }
      ],
      "name": "UpdateDeadline",
      "type": "event"
    },
    {
      "anonymous": false,
      "inputs": [
        {
          "indexed": true,
          "internalType": "bytes32",
          "name": "positionKey",
          "type": "bytes32"
        },
        {
          "indexed": false,
          "internalType": "uint256",
          "name": "newStoplossPrice",
          "type": "uint256"
        },
        {
          "indexed": false,
          "internalType": "address",
          "name": "updater",
          "type": "address"
        }
      ],
      "name": "UpdateStoplossPrice",
      "type": "event"
    },
    {
      "inputs": [
        {
          "internalType": "bytes32",
          "name": "_positionKey",
          "type": "bytes32"
        }
      ],
      "name": "canLiquidate",
      "outputs": [
        {
          "internalType": "bool",
          "name": "",
          "type": "bool"
        }
      ],
      "stateMutability": "view",
      "type": "function"
    },
    {
      "inputs": [
        {
          "internalType": "bytes32",
          "name": "_positionKey",
          "type": "bytes32"
        }
      ],
      "name": "canLiquidationMark",
      "outputs": [
        {
          "internalType": "bool",
          "name": "",
          "type": "bool"
        }
      ],
      "stateMutability": "view",
      "type": "function"
    },
    {
      "inputs": [
        {
          "internalType": "bytes32",
          "name": "_positionKey",
          "type": "bytes32"
        }
      ],
      "name": "closeManuallyStep1",
      "outputs": [],
      "stateMutability": "nonpayable",
      "type": "function"
    },
    {
      "inputs": [
        {
          "internalType": "bytes32",
          "name": "_positionKey",
          "type": "bytes32"
        }
      ],
      "name": "closeManuallyStep2",
      "outputs": [],
      "stateMutability": "nonpayable",
      "type": "function"
    },
    {
      "inputs": [],
      "name": "factory",
      "outputs": [
        {
          "internalType": "address",
          "name": "",
          "type": "address"
        }
      ],
      "stateMutability": "view",
      "type": "function"
    },
    {
      "inputs": [
        {
          "components": [
            {
              "internalType": "address",
              "name": "owner",
              "type": "address"
            },
            {
              "internalType": "address",
              "name": "baseToken",
              "type": "address"
            },
            {
              "internalType": "address",
              "name": "quoteToken",
              "type": "address"
            },
            {
              "internalType": "address",
              "name": "collateral",
              "type": "address"
            },
            {
              "internalType": "uint256",
              "name": "baseAmount",
              "type": "uint256"
            },
            {
              "internalType": "uint256",
              "name": "quoteAmount",
              "type": "uint256"
            },
            {
              "internalType": "uint256",
              "name": "collateralAmount",
              "type": "uint256"
            },
            {
              "internalType": "uint256",
              "name": "deadline",
              "type": "uint256"
            },
            {
              "internalType": "uint256",
              "name": "stoplossPrice",
              "type": "uint256"
            }
          ],
          "internalType": "struct IPositionStorage.OpenTradePositionParams",
          "name": "_params",
          "type": "tuple"
        }
      ],
      "name": "getMinCollateralAmount",
      "outputs": [
        {
          "internalType": "uint256",
          "name": "",
          "type": "uint256"
        }
      ],
      "stateMutability": "view",
      "type": "function"
    },
    {
      "inputs": [
        {
          "components": [
            {
              "internalType": "address",
              "name": "owner",
              "type": "address"
            },
            {
              "internalType": "address",
              "name": "baseToken",
              "type": "address"
            },
            {
              "internalType": "address",
              "name": "quoteToken",
              "type": "address"
            },
            {
              "internalType": "address",
              "name": "collateral",
              "type": "address"
            },
            {
              "internalType": "uint256",
              "name": "baseAmount",
              "type": "uint256"
            },
            {
              "internalType": "uint256",
              "name": "quoteAmount",
              "type": "uint256"
            },
            {
              "internalType": "uint256",
              "name": "collateralAmount",
              "type": "uint256"
            },
            {
              "internalType": "uint256",
              "name": "deadline",
              "type": "uint256"
            },
            {
              "internalType": "uint256",
              "name": "stoplossPrice",
              "type": "uint256"
            }
          ],
          "internalType": "struct IPositionStorage.OpenTradePositionParams",
          "name": "_params",
          "type": "tuple"
        }
      ],
      "name": "getQuoteAmountRange",
      "outputs": [
        {
          "internalType": "uint256",
          "name": "minQuoteAmount",
          "type": "uint256"
        },
        {
          "internalType": "uint256",
          "name": "maxQuoteAmount",
          "type": "uint256"
        }
      ],
      "stateMutability": "view",
      "type": "function"
    },
    {
      "inputs": [
        {
          "internalType": "bytes32",
          "name": "_positionKey",
          "type": "bytes32"
        }
      ],
      "name": "liquidationMark",
      "outputs": [],
      "stateMutability": "nonpayable",
      "type": "function"
    },
    {
      "inputs": [
        {
          "components": [
            {
              "internalType": "bytes32",
              "name": "positionKey",
              "type": "bytes32"
            },
            {
              "internalType": "address",
              "name": "owner",
              "type": "address"
            },
            {
              "internalType": "address",
              "name": "pool",
              "type": "address"
            },
            {
              "components": [
                {
                  "internalType": "address",
                  "name": "id",
                  "type": "address"
                },
                {
                  "internalType": "uint256",
                  "name": "amount",
                  "type": "uint256"
                },
                {
                  "internalType": "uint256",
                  "name": "entryPrice",
                  "type": "uint256"
                },
                {
                  "internalType": "uint256",
                  "name": "liqPrice",
                  "type": "uint256"
                },
                {
                  "internalType": "uint256",
                  "name": "closePrice",
                  "type": "uint256"
                }
              ],
              "internalType": "struct IPositionStorage.BaseToken",
              "name": "baseToken",
              "type": "tuple"
            },
            {
              "components": [
                {
                  "internalType": "address",
                  "name": "id",
                  "type": "address"
                },
                {
                  "internalType": "uint256",
                  "name": "amount",
                  "type": "uint256"
                }
              ],
              "internalType": "struct IPositionStorage.QuoteToken",
              "name": "quoteToken",
              "type": "tuple"
            },
            {
              "components": [
                {
                  "internalType": "address",
                  "name": "id",
                  "type": "address"
                },
                {
                  "internalType": "uint256",
                  "name": "amount",
                  "type": "uint256"
                },
                {
                  "internalType": "uint256",
                  "name": "entryPrice",
                  "type": "uint256"
                },
                {
                  "internalType": "uint256",
                  "name": "liqPrice",
                  "type": "uint256"
                },
                {
                  "internalType": "uint256",
                  "name": "closePrice",
                  "type": "uint256"
                }
              ],
              "internalType": "struct IPositionStorage.Collateral",
              "name": "collateral",
              "type": "tuple"
            },
            {
              "internalType": "uint256",
              "name": "deadline",
              "type": "uint256"
            },
            {
              "internalType": "uint256",
              "name": "stoplossPrice",
              "type": "uint256"
            },
            {
              "internalType": "uint256",
              "name": "fee",
              "type": "uint256"
            },
            {
              "internalType": "uint256",
              "name": "protocolFee",
              "type": "uint256"
            },
            {
              "components": [
                {
                  "internalType": "bool",
                  "name": "isClosed",
                  "type": "bool"
                },
                {
                  "internalType": "bool",
                  "name": "isExpired",
                  "type": "bool"
                },
                {
                  "internalType": "bool",
                  "name": "isStoploss",
                  "type": "bool"
                },
                {
                  "internalType": "bool",
                  "name": "isBaseLiquidated",
                  "type": "bool"
                },
                {
                  "internalType": "bool",
                  "name": "isCollateralLiquidated",
                  "type": "bool"
                },
                {
                  "internalType": "bool",
                  "name": "isRollbacked",
                  "type": "bool"
                },
                {
                  "internalType": "bool",
                  "name": "isClosedManuallyStep1",
                  "type": "bool"
                },
                {
                  "internalType": "bool",
                  "name": "isClosedManuallyStep2",
                  "type": "bool"
                }
              ],
              "internalType": "struct IPositionStorage.Status",
              "name": "status",
              "type": "tuple"
            },
            {
              "internalType": "address",
              "name": "closer",
              "type": "address"
            },
            {
              "internalType": "uint256",
              "name": "liquidationMarkTime",
              "type": "uint256"
            }
          ],
          "internalType": "struct IPositionStorage.TradePosition",
          "name": "_pos",
          "type": "tuple"
        }
      ],
      "name": "openTradePosition",
      "outputs": [
        {
          "internalType": "bytes32",
          "name": "positionKey",
          "type": "bytes32"
        }
      ],
      "stateMutability": "nonpayable",
      "type": "function"
    },
    {
      "inputs": [
        {
          "internalType": "uint256",
          "name": "_index",
          "type": "uint256"
        }
      ],
      "name": "openingPositionKey",
      "outputs": [
        {
          "internalType": "bytes32",
          "name": "",
          "type": "bytes32"
        }
      ],
      "stateMutability": "view",
      "type": "function"
    },
    {
      "inputs": [
        {
          "internalType": "uint256",
          "name": "",
          "type": "uint256"
        }
      ],
      "name": "openingPositionKeys",
      "outputs": [
        {
          "internalType": "bytes32",
          "name": "",
          "type": "bytes32"
        }
      ],
      "stateMutability": "view",
      "type": "function"
    },
    {
      "inputs": [],
      "name": "openingPositionLength",
      "outputs": [
        {
          "internalType": "uint256",
          "name": "",
          "type": "uint256"
        }
      ],
      "stateMutability": "view",
      "type": "function"
    },
    {
      "inputs": [
        {
          "internalType": "uint256",
          "name": "_index",
          "type": "uint256"
        }
      ],
      "name": "position",
      "outputs": [
        {
          "components": [
            {
              "internalType": "bytes32",
              "name": "positionKey",
              "type": "bytes32"
            },
            {
              "internalType": "address",
              "name": "owner",
              "type": "address"
            },
            {
              "internalType": "address",
              "name": "pool",
              "type": "address"
            },
            {
              "components": [
                {
                  "internalType": "address",
                  "name": "id",
                  "type": "address"
                },
                {
                  "internalType": "uint256",
                  "name": "amount",
                  "type": "uint256"
                },
                {
                  "internalType": "uint256",
                  "name": "entryPrice",
                  "type": "uint256"
                },
                {
                  "internalType": "uint256",
                  "name": "liqPrice",
                  "type": "uint256"
                },
                {
                  "internalType": "uint256",
                  "name": "closePrice",
                  "type": "uint256"
                }
              ],
              "internalType": "struct IPositionStorage.BaseToken",
              "name": "baseToken",
              "type": "tuple"
            },
            {
              "components": [
                {
                  "internalType": "address",
                  "name": "id",
                  "type": "address"
                },
                {
                  "internalType": "uint256",
                  "name": "amount",
                  "type": "uint256"
                }
              ],
              "internalType": "struct IPositionStorage.QuoteToken",
              "name": "quoteToken",
              "type": "tuple"
            },
            {
              "components": [
                {
                  "internalType": "address",
                  "name": "id",
                  "type": "address"
                },
                {
                  "internalType": "uint256",
                  "name": "amount",
                  "type": "uint256"
                },
                {
                  "internalType": "uint256",
                  "name": "entryPrice",
                  "type": "uint256"
                },
                {
                  "internalType": "uint256",
                  "name": "liqPrice",
                  "type": "uint256"
                },
                {
                  "internalType": "uint256",
                  "name": "closePrice",
                  "type": "uint256"
                }
              ],
              "internalType": "struct IPositionStorage.Collateral",
              "name": "collateral",
              "type": "tuple"
            },
            {
              "internalType": "uint256",
              "name": "deadline",
              "type": "uint256"
            },
            {
              "internalType": "uint256",
              "name": "stoplossPrice",
              "type": "uint256"
            },
            {
              "internalType": "uint256",
              "name": "fee",
              "type": "uint256"
            },
            {
              "internalType": "uint256",
              "name": "protocolFee",
              "type": "uint256"
            },
            {
              "components": [
                {
                  "internalType": "bool",
                  "name": "isClosed",
                  "type": "bool"
                },
                {
                  "internalType": "bool",
                  "name": "isExpired",
                  "type": "bool"
                },
                {
                  "internalType": "bool",
                  "name": "isStoploss",
                  "type": "bool"
                },
                {
                  "internalType": "bool",
                  "name": "isBaseLiquidated",
                  "type": "bool"
                },
                {
                  "internalType": "bool",
                  "name": "isCollateralLiquidated",
                  "type": "bool"
                },
                {
                  "internalType": "bool",
                  "name": "isRollbacked",
                  "type": "bool"
                },
                {
                  "internalType": "bool",
                  "name": "isClosedManuallyStep1",
                  "type": "bool"
                },
                {
                  "internalType": "bool",
                  "name": "isClosedManuallyStep2",
                  "type": "bool"
                }
              ],
              "internalType": "struct IPositionStorage.Status",
              "name": "status",
              "type": "tuple"
            },
            {
              "internalType": "address",
              "name": "closer",
              "type": "address"
            },
            {
              "internalType": "uint256",
              "name": "liquidationMarkTime",
              "type": "uint256"
            }
          ],
          "internalType": "struct IPositionStorage.TradePosition",
          "name": "",
          "type": "tuple"
        }
      ],
      "stateMutability": "view",
      "type": "function"
    },
    {
      "inputs": [
        {
          "internalType": "bytes32",
          "name": "_positionKey",
          "type": "bytes32"
        }
      ],
      "name": "positionByKey",
      "outputs": [
        {
          "components": [
            {
              "internalType": "bytes32",
              "name": "positionKey",
              "type": "bytes32"
            },
            {
              "internalType": "address",
              "name": "owner",
              "type": "address"
            },
            {
              "internalType": "address",
              "name": "pool",
              "type": "address"
            },
            {
              "components": [
                {
                  "internalType": "address",
                  "name": "id",
                  "type": "address"
                },
                {
                  "internalType": "uint256",
                  "name": "amount",
                  "type": "uint256"
                },
                {
                  "internalType": "uint256",
                  "name": "entryPrice",
                  "type": "uint256"
                },
                {
                  "internalType": "uint256",
                  "name": "liqPrice",
                  "type": "uint256"
                },
                {
                  "internalType": "uint256",
                  "name": "closePrice",
                  "type": "uint256"
                }
              ],
              "internalType": "struct IPositionStorage.BaseToken",
              "name": "baseToken",
              "type": "tuple"
            },
            {
              "components": [
                {
                  "internalType": "address",
                  "name": "id",
                  "type": "address"
                },
                {
                  "internalType": "uint256",
                  "name": "amount",
                  "type": "uint256"
                }
              ],
              "internalType": "struct IPositionStorage.QuoteToken",
              "name": "quoteToken",
              "type": "tuple"
            },
            {
              "components": [
                {
                  "internalType": "address",
                  "name": "id",
                  "type": "address"
                },
                {
                  "internalType": "uint256",
                  "name": "amount",
                  "type": "uint256"
                },
                {
                  "internalType": "uint256",
                  "name": "entryPrice",
                  "type": "uint256"
                },
                {
                  "internalType": "uint256",
                  "name": "liqPrice",
                  "type": "uint256"
                },
                {
                  "internalType": "uint256",
                  "name": "closePrice",
                  "type": "uint256"
                }
              ],
              "internalType": "struct IPositionStorage.Collateral",
              "name": "collateral",
              "type": "tuple"
            },
            {
              "internalType": "uint256",
              "name": "deadline",
              "type": "uint256"
            },
            {
              "internalType": "uint256",
              "name": "stoplossPrice",
              "type": "uint256"
            },
            {
              "internalType": "uint256",
              "name": "fee",
              "type": "uint256"
            },
            {
              "internalType": "uint256",
              "name": "protocolFee",
              "type": "uint256"
            },
            {
              "components": [
                {
                  "internalType": "bool",
                  "name": "isClosed",
                  "type": "bool"
                },
                {
                  "internalType": "bool",
                  "name": "isExpired",
                  "type": "bool"
                },
                {
                  "internalType": "bool",
                  "name": "isStoploss",
                  "type": "bool"
                },
                {
                  "internalType": "bool",
                  "name": "isBaseLiquidated",
                  "type": "bool"
                },
                {
                  "internalType": "bool",
                  "name": "isCollateralLiquidated",
                  "type": "bool"
                },
                {
                  "internalType": "bool",
                  "name": "isRollbacked",
                  "type": "bool"
                },
                {
                  "internalType": "bool",
                  "name": "isClosedManuallyStep1",
                  "type": "bool"
                },
                {
                  "internalType": "bool",
                  "name": "isClosedManuallyStep2",
                  "type": "bool"
                }
              ],
              "internalType": "struct IPositionStorage.Status",
              "name": "status",
              "type": "tuple"
            },
            {
              "internalType": "address",
              "name": "closer",
              "type": "address"
            },
            {
              "internalType": "uint256",
              "name": "liquidationMarkTime",
              "type": "uint256"
            }
          ],
          "internalType": "struct IPositionStorage.TradePosition",
          "name": "pos",
          "type": "tuple"
        }
      ],
      "stateMutability": "view",
      "type": "function"
    },
    {
      "inputs": [
        {
          "internalType": "bytes32",
          "name": "",
          "type": "bytes32"
        }
      ],
      "name": "positionIndex",
      "outputs": [
        {
          "internalType": "uint256",
          "name": "",
          "type": "uint256"
        }
      ],
      "stateMutability": "view",
      "type": "function"
    },
    {
      "inputs": [
        {
          "internalType": "address",
          "name": "_user",
          "type": "address"
        },
        {
          "internalType": "uint256",
          "name": "_index",
          "type": "uint256"
        }
      ],
      "name": "positionKeyByUser",
      "outputs": [
        {
          "internalType": "bytes32",
          "name": "",
          "type": "bytes32"
        }
      ],
      "stateMutability": "view",
      "type": "function"
    },
    {
      "inputs": [],
      "name": "positionLength",
      "outputs": [
        {
          "internalType": "uint256",
          "name": "",
          "type": "uint256"
        }
      ],
      "stateMutability": "view",
      "type": "function"
    },
    {
      "inputs": [
        {
          "internalType": "uint256",
          "name": "",
          "type": "uint256"
        }
      ],
      "name": "positions",
      "outputs": [
        {
          "internalType": "bytes32",
          "name": "positionKey",
          "type": "bytes32"
        },
        {
          "internalType": "address",
          "name": "owner",
          "type": "address"
        },
        {
          "internalType": "address",
          "name": "pool",
          "type": "address"
        },
        {
          "components": [
            {
              "internalType": "address",
              "name": "id",
              "type": "address"
            },
            {
              "internalType": "uint256",
              "name": "amount",
              "type": "uint256"
            },
            {
              "internalType": "uint256",
              "name": "entryPrice",
              "type": "uint256"
            },
            {
              "internalType": "uint256",
              "name": "liqPrice",
              "type": "uint256"
            },
            {
              "internalType": "uint256",
              "name": "closePrice",
              "type": "uint256"
            }
          ],
          "internalType": "struct IPositionStorage.BaseToken",
          "name": "baseToken",
          "type": "tuple"
        },
        {
          "components": [
            {
              "internalType": "address",
              "name": "id",
              "type": "address"
            },
            {
              "internalType": "uint256",
              "name": "amount",
              "type": "uint256"
            }
          ],
          "internalType": "struct IPositionStorage.QuoteToken",
          "name": "quoteToken",
          "type": "tuple"
        },
        {
          "components": [
            {
              "internalType": "address",
              "name": "id",
              "type": "address"
            },
            {
              "internalType": "uint256",
              "name": "amount",
              "type": "uint256"
            },
            {
              "internalType": "uint256",
              "name": "entryPrice",
              "type": "uint256"
            },
            {
              "internalType": "uint256",
              "name": "liqPrice",
              "type": "uint256"
            },
            {
              "internalType": "uint256",
              "name": "closePrice",
              "type": "uint256"
            }
          ],
          "internalType": "struct IPositionStorage.Collateral",
          "name": "collateral",
          "type": "tuple"
        },
        {
          "internalType": "uint256",
          "name": "deadline",
          "type": "uint256"
        },
        {
          "internalType": "uint256",
          "name": "stoplossPrice",
          "type": "uint256"
        },
        {
          "internalType": "uint256",
          "name": "fee",
          "type": "uint256"
        },
        {
          "internalType": "uint256",
          "name": "protocolFee",
          "type": "uint256"
        },
        {
          "components": [
            {
              "internalType": "bool",
              "name": "isClosed",
              "type": "bool"
            },
            {
              "internalType": "bool",
              "name": "isExpired",
              "type": "bool"
            },
            {
              "internalType": "bool",
              "name": "isStoploss",
              "type": "bool"
            },
            {
              "internalType": "bool",
              "name": "isBaseLiquidated",
              "type": "bool"
            },
            {
              "internalType": "bool",
              "name": "isCollateralLiquidated",
              "type": "bool"
            },
            {
              "internalType": "bool",
              "name": "isRollbacked",
              "type": "bool"
            },
            {
              "internalType": "bool",
              "name": "isClosedManuallyStep1",
              "type": "bool"
            },
            {
              "internalType": "bool",
              "name": "isClosedManuallyStep2",
              "type": "bool"
            }
          ],
          "internalType": "struct IPositionStorage.Status",
          "name": "status",
          "type": "tuple"
        },
        {
          "internalType": "address",
          "name": "closer",
          "type": "address"
        },
        {
          "internalType": "uint256",
          "name": "liquidationMarkTime",
          "type": "uint256"
        }
      ],
      "stateMutability": "view",
      "type": "function"
    },
    {
      "inputs": [
        {
          "components": [
            {
              "internalType": "address",
              "name": "owner",
              "type": "address"
            },
            {
              "internalType": "address",
              "name": "baseToken",
              "type": "address"
            },
            {
              "internalType": "address",
              "name": "quoteToken",
              "type": "address"
            },
            {
              "internalType": "address",
              "name": "collateral",
              "type": "address"
            },
            {
              "internalType": "uint256",
              "name": "baseAmount",
              "type": "uint256"
            },
            {
              "internalType": "uint256",
              "name": "quoteAmount",
              "type": "uint256"
            },
            {
              "internalType": "uint256",
              "name": "collateralAmount",
              "type": "uint256"
            },
            {
              "internalType": "uint256",
              "name": "deadline",
              "type": "uint256"
            },
            {
              "internalType": "uint256",
              "name": "stoplossPrice",
              "type": "uint256"
            }
          ],
          "internalType": "struct IPositionStorage.OpenTradePositionParams",
          "name": "_params",
          "type": "tuple"
        }
      ],
      "name": "previewTradePosition",
      "outputs": [
        {
          "components": [
            {
              "internalType": "bytes32",
              "name": "positionKey",
              "type": "bytes32"
            },
            {
              "internalType": "address",
              "name": "owner",
              "type": "address"
            },
            {
              "internalType": "address",
              "name": "pool",
              "type": "address"
            },
            {
              "components": [
                {
                  "internalType": "address",
                  "name": "id",
                  "type": "address"
                },
                {
                  "internalType": "uint256",
                  "name": "amount",
                  "type": "uint256"
                },
                {
                  "internalType": "uint256",
                  "name": "entryPrice",
                  "type": "uint256"
                },
                {
                  "internalType": "uint256",
                  "name": "liqPrice",
                  "type": "uint256"
                },
                {
                  "internalType": "uint256",
                  "name": "closePrice",
                  "type": "uint256"
                }
              ],
              "internalType": "struct IPositionStorage.BaseToken",
              "name": "baseToken",
              "type": "tuple"
            },
            {
              "components": [
                {
                  "internalType": "address",
                  "name": "id",
                  "type": "address"
                },
                {
                  "internalType": "uint256",
                  "name": "amount",
                  "type": "uint256"
                }
              ],
              "internalType": "struct IPositionStorage.QuoteToken",
              "name": "quoteToken",
              "type": "tuple"
            },
            {
              "components": [
                {
                  "internalType": "address",
                  "name": "id",
                  "type": "address"
                },
                {
                  "internalType": "uint256",
                  "name": "amount",
                  "type": "uint256"
                },
                {
                  "internalType": "uint256",
                  "name": "entryPrice",
                  "type": "uint256"
                },
                {
                  "internalType": "uint256",
                  "name": "liqPrice",
                  "type": "uint256"
                },
                {
                  "internalType": "uint256",
                  "name": "closePrice",
                  "type": "uint256"
                }
              ],
              "internalType": "struct IPositionStorage.Collateral",
              "name": "collateral",
              "type": "tuple"
            },
            {
              "internalType": "uint256",
              "name": "deadline",
              "type": "uint256"
            },
            {
              "internalType": "uint256",
              "name": "stoplossPrice",
              "type": "uint256"
            },
            {
              "internalType": "uint256",
              "name": "fee",
              "type": "uint256"
            },
            {
              "internalType": "uint256",
              "name": "protocolFee",
              "type": "uint256"
            },
            {
              "components": [
                {
                  "internalType": "bool",
                  "name": "isClosed",
                  "type": "bool"
                },
                {
                  "internalType": "bool",
                  "name": "isExpired",
                  "type": "bool"
                },
                {
                  "internalType": "bool",
                  "name": "isStoploss",
                  "type": "bool"
                },
                {
                  "internalType": "bool",
                  "name": "isBaseLiquidated",
                  "type": "bool"
                },
                {
                  "internalType": "bool",
                  "name": "isCollateralLiquidated",
                  "type": "bool"
                },
                {
                  "internalType": "bool",
                  "name": "isRollbacked",
                  "type": "bool"
                },
                {
                  "internalType": "bool",
                  "name": "isClosedManuallyStep1",
                  "type": "bool"
                },
                {
                  "internalType": "bool",
                  "name": "isClosedManuallyStep2",
                  "type": "bool"
                }
              ],
              "internalType": "struct IPositionStorage.Status",
              "name": "status",
              "type": "tuple"
            },
            {
              "internalType": "address",
              "name": "closer",
              "type": "address"
            },
            {
              "internalType": "uint256",
              "name": "liquidationMarkTime",
              "type": "uint256"
            }
          ],
          "internalType": "struct IPositionStorage.TradePosition",
          "name": "",
          "type": "tuple"
        }
      ],
      "stateMutability": "view",
      "type": "function"
    },
    {
      "inputs": [
        {
          "components": [
            {
              "internalType": "bytes32",
              "name": "positionKey",
              "type": "bytes32"
            },
            {
              "internalType": "uint256",
              "name": "amount",
              "type": "uint256"
            },
            {
              "internalType": "address",
              "name": "updater",
              "type": "address"
            }
          ],
          "internalType": "struct IPositionStorage.UpdateCollateralAmountParams",
          "name": "_params",
          "type": "tuple"
        }
      ],
      "name": "previewUpdateCollateralAmount",
      "outputs": [
        {
          "internalType": "uint256",
          "name": "collateralLiqPrice",
          "type": "uint256"
        },
        {
          "internalType": "uint256",
          "name": "baseLiqPrice",
          "type": "uint256"
        }
      ],
      "stateMutability": "view",
      "type": "function"
    },
    {
      "inputs": [
        {
          "components": [
            {
              "internalType": "bytes32",
              "name": "positionKey",
              "type": "bytes32"
            },
            {
              "internalType": "uint256",
              "name": "deadline",
              "type": "uint256"
            },
            {
              "internalType": "address",
              "name": "updater",
              "type": "address"
            }
          ],
          "internalType": "struct IPositionStorage.UpdateDeadlineParams",
          "name": "_params",
          "type": "tuple"
        }
      ],
      "name": "previewUpdateDeadline",
      "outputs": [
        {
          "internalType": "uint256",
          "name": "fee",
          "type": "uint256"
        },
        {
          "internalType": "uint256",
          "name": "protocolFee",
          "type": "uint256"
        }
      ],
      "stateMutability": "view",
      "type": "function"
    },
    {
      "inputs": [
        {
          "internalType": "bytes32",
          "name": "_positionKey",
          "type": "bytes32"
        },
        {
          "internalType": "address",
          "name": "_updater",
          "type": "address"
        }
      ],
      "name": "rollback",
      "outputs": [],
      "stateMutability": "nonpayable",
      "type": "function"
    },
    {
      "inputs": [
        {
          "internalType": "address",
          "name": "_factory",
          "type": "address"
        }
      ],
      "name": "setFactory",
      "outputs": [],
      "stateMutability": "nonpayable",
      "type": "function"
    },
    {
      "inputs": [
        {
          "internalType": "bytes32",
          "name": "_positionKey",
          "type": "bytes32"
        },
        {
          "internalType": "uint256",
          "name": "_baseValue",
          "type": "uint256"
        },
        {
          "internalType": "uint256",
          "name": "_loss",
          "type": "uint256"
        },
        {
          "internalType": "uint256",
          "name": "_remainingCollateralAmount",
          "type": "uint256"
        }
      ],
      "name": "updateCloseValues",
      "outputs": [],
      "stateMutability": "nonpayable",
      "type": "function"
    },
    {
      "inputs": [
        {
          "components": [
            {
              "internalType": "bytes32",
              "name": "positionKey",
              "type": "bytes32"
            },
            {
              "internalType": "uint256",
              "name": "amount",
              "type": "uint256"
            },
            {
              "internalType": "address",
              "name": "updater",
              "type": "address"
            }
          ],
          "internalType": "struct IPositionStorage.UpdateCollateralAmountParams",
          "name": "_params",
          "type": "tuple"
        }
      ],
      "name": "updateCollateralAmount",
      "outputs": [
        {
          "internalType": "uint256",
          "name": "collateralLiqPrice",
          "type": "uint256"
        },
        {
          "internalType": "uint256",
          "name": "baseLiqPrice",
          "type": "uint256"
        }
      ],
      "stateMutability": "nonpayable",
      "type": "function"
    },
    {
      "inputs": [
        {
          "components": [
            {
              "internalType": "bytes32",
              "name": "positionKey",
              "type": "bytes32"
            },
            {
              "internalType": "uint256",
              "name": "deadline",
              "type": "uint256"
            },
            {
              "internalType": "address",
              "name": "updater",
              "type": "address"
            }
          ],
          "internalType": "struct IPositionStorage.UpdateDeadlineParams",
          "name": "_params",
          "type": "tuple"
        }
      ],
      "name": "updateDeadline",
      "outputs": [
        {
          "internalType": "uint256",
          "name": "fee",
          "type": "uint256"
        },
        {
          "internalType": "uint256",
          "name": "protocolFee",
          "type": "uint256"
        }
      ],
      "stateMutability": "nonpayable",
      "type": "function"
    },
    {
      "inputs": [
        {
          "internalType": "bytes32",
          "name": "_positionKey",
          "type": "bytes32"
        },
        {
          "internalType": "address",
          "name": "_updater",
          "type": "address"
        }
      ],
      "name": "updateStatus",
      "outputs": [
        {
          "internalType": "bool",
          "name": "needLiquidate",
          "type": "bool"
        }
      ],
      "stateMutability": "nonpayable",
      "type": "function"
    },
    {
      "inputs": [
        {
          "components": [
            {
              "internalType": "bytes32",
              "name": "positionKey",
              "type": "bytes32"
            },
            {
              "internalType": "uint256",
              "name": "stoplossPrice",
              "type": "uint256"
            },
            {
              "internalType": "address",
              "name": "updater",
              "type": "address"
            }
          ],
          "internalType": "struct IPositionStorage.UpdateStoplossPriceParams",
          "name": "_params",
          "type": "tuple"
        }
      ],
      "name": "updateStoplossPrice",
      "outputs": [],
      "stateMutability": "nonpayable",
      "type": "function"
    },
    {
      "inputs": [
        {
          "internalType": "address",
          "name": "_user",
          "type": "address"
        }
      ],
      "name": "userPositionLength",
      "outputs": [
        {
          "internalType": "uint256",
          "name": "",
          "type": "uint256"
        }
      ],
      "stateMutability": "view",
      "type": "function"
    }
  ],
  "bytecode": "0x608060405234801561001057600080fd5b5061597480620000216000396000f3fe608060405234801561001057600080fd5b50600436106101cf5760003560e01c80638b029d6111610104578063c45a0155116100a2578063f71139f711610071578063f71139f714610427578063f7a5f2541461043a578063f7a95a9e1461045a578063fc9ffe101461046d57600080fd5b8063c45a0155146103ad578063da23479f146103d8578063dbd99a13146103eb578063e5944f011461041457600080fd5b8063a0d5d126116100de578063a0d5d1261461036c578063a827acf51461037f578063ac00b67414610387578063b008c0581461039a57600080fd5b80638b029d611461031a57806399fbab881461032d5780639a1023411461035957600080fd5b80634f26f457116101715780635bb478081161014b5780635bb47808146102be57806361ba1508146102d157806364b88ac5146102f45780637c08ddc91461030757600080fd5b80634f26f45714610290578063539826a6146102a3578063558ea854146102ab57600080fd5b80632fb817fc116101ad5780632fb817fc1461022f578063302d60921461024257806337f368641461025557806349a4d1d11461027d57600080fd5b80630771e3a3146101d45780631636e199146101fa5780631a37982d1461020f575b600080fd5b6101e76101e2366004615409565b610480565b6040519081526020015b60405180910390f35b61020d610208366004615581565b61087c565b005b61022261021d366004615409565b610a72565b6040516101f1919061571c565b6101e761023d366004615345565b610a89565b6101e761025036600461538e565b610ac6565b610268610263366004615581565b610ae7565b604080519283526020830191909152016101f1565b61020d61028b36600461538e565b611153565b61026861029e366004615581565b611251565b6001546101e7565b6102686102b9366004615409565b6116b5565b61020d6102cc36600461530b565b611b3e565b6102e46102df36600461538e565b611b8a565b60405190151581526020016101f1565b6101e76103023660046154a0565b611b95565b610268610315366004615581565b61207a565b61020d6103283660046153d7565b6126e7565b61034061033b36600461538e565b612973565b6040516101f19d9c9b9a9998979695949392919061567c565b61020d6103673660046153a7565b612c0a565b61022261037a36600461538e565b612e02565b6002546101e7565b6102e46103953660046153a7565b61300b565b61020d6103a836600461538e565b613445565b6000546103c0906001600160a01b031681565b6040516001600160a01b0390911681526020016101f1565b6101e76103e636600461538e565b613673565b6101e76103f936600461530b565b6001600160a01b031660009081526004602052604090205490565b6102e461042236600461538e565b61369a565b61020d61043536600461538e565b613700565b6101e761044836600461538e565b60036020526000908152604090205481565b61022261046836600461538e565b6138c1565b61026861047b366004615581565b613aa9565b60008060008054906101000a90046001600160a01b031690506000816001600160a01b031663741bef1a6040518163ffffffff1660e01b815260040160206040518083038186803b1580156104d457600080fd5b505afa1580156104e8573d6000803e3d6000fd5b505050506040513d601f19601f8201168201806040525081019061050c9190615328565b90506000816001600160a01b031663aaf5eb686040518163ffffffff1660e01b815260040160206040518083038186803b15801561054957600080fd5b505afa15801561055d573d6000803e3d6000fd5b505050506040513d601f19601f82011682018060405250810190610581919061559d565b9050600080836001600160a01b031663e6c14362886020015189604001516040518363ffffffff1660e01b81526004016105bc929190615662565b60206040518083038186803b1580156105d457600080fd5b505afa1580156105e8573d6000803e3d6000fd5b505050506040513d601f19601f8201168201806040525081019061060c919061559d565b90508281886080015161061f91906158b6565b6106299190615894565b9150506000846001600160a01b0316636d2745536040518163ffffffff1660e01b815260040160206040518083038186803b15801561066757600080fd5b505afa15801561067b573d6000803e3d6000fd5b505050506040513d601f19601f8201168201806040525081019061069f919061559d565b6020880151604051635ba2edab60e11b81526001600160a01b0391821660048201529192506000919087169063b745db569060240160206040518083038186803b1580156106ec57600080fd5b505afa158015610700573d6000803e3d6000fd5b505050506040513d601f19601f82011682018060405250810190610724919061559d565b606089015160405163095bf1bb60e01b81526001600160a01b0391821660048201529192506000919088169063095bf1bb9060240160206040518083038186803b15801561077157600080fd5b505afa158015610785573d6000803e3d6000fd5b505050506040513d601f19601f820116820180604052508101906107a9919061559d565b90506000816107b884866158d5565b6107c290876158b6565b6107cc9190615894565b60608b01516040808d01519051637360a1b160e11b81529293506000926001600160a01b038b169263e6c143629261080692600401615662565b60206040518083038186803b15801561081e57600080fd5b505afa158015610832573d6000803e3d6000fd5b505050506040513d601f19601f82011682018060405250810190610856919061559d565b90508061086388846158b6565b61086d9190615894565b9b9a5050505050505050505050565b8051600090815260036020526040902054806108b65781516040516354ec2eeb60e01b815260048101919091526024015b60405180910390fd5b600060016108c481846158d5565b815481106108d4576108d4615902565b60009182526020822091546016919091029091016008810154604051634d83bc3360e01b81526001600160a01b039182166004820152919350909116908190634d83bc339060240160206040518083038186803b15801561093457600080fd5b505afa158015610948573d6000803e3d6000fd5b505050506040513d601f19601f8201168201806040525081019061096c9190615328565b6001600160a01b0316336001600160a01b03161461099f5760405163a59d7f4d60e01b81523360048201526024016108ad565b601382015460ff16156109cb578351604051632a2af87d60e11b815260048101919091526024016108ad565b600182015460408501516001600160a01b03908116911614610a155760018201546040808601519051631194af8760e11b81526108ad926001600160a01b03169190600401615662565b60208481015160108401819055855160408088015181519384526001600160a01b031693830193909352917f16ecc3716f8ba588e1f42501972bcac92c1672192e042949e6d3847a1bde9b5d91015b60405180910390a250505050565b610a7a614f68565b610a838261401d565b92915050565b6001600160a01b0382166000908152600460205260408120805483908110610ab357610ab3615902565b9060005260206000200154905092915050565b60028181548110610ad657600080fd5b600091825260209091200154905081565b80516000908152600360205260408120548190801561114d5760006001610b0e81846158d5565b81548110610b1e57610b1e615902565b60009182526020808320604080516101a08101825260169094029091018054845260018101546001600160a01b03908116858501526002820154811685840152825160a080820185526003840154831682526004808501548388015260058501548387015260068501546060848101919091526007860154608080860191909152818a0194909452865180880188526008870154861681526009870154818a0152848a015286518084018852600a87015486168152600b870154818a0152600c87015481890152600d87015481830152600e87015481860152838a0152600f86015460c0808b0191909152601087015460e0808c01919091526011880154610100808d019190915260128901546101208d015289518082018b5260138a015460ff8082161515835292810483161515828e015262010000810483161515828d015263010000008104831615159582019590955264010000000085048216151597810197909752600160281b84048116151595870195909552600160301b83048516151591860191909152600160381b9091049092161515918301919091526101408701919091526014830154821661016087015260159092015461018086015285548351633a0df78d60e11b81529351959750169493859363741bef1a938084019391929190829003018186803b158015610d1857600080fd5b505afa158015610d2c573d6000803e3d6000fd5b505050506040513d601f19601f82011682018060405250810190610d509190615328565b90506000816001600160a01b031663aaf5eb686040518163ffffffff1660e01b815260040160206040518083038186803b158015610d8d57600080fd5b505afa158015610da1573d6000803e3d6000fd5b505050506040513d601f19601f82011682018060405250810190610dc5919061559d565b60a08501515160405163095bf1bb60e01b81526001600160a01b0391821660048201529192506000919085169063095bf1bb9060240160206040518083038186803b158015610e1357600080fd5b505afa158015610e27573d6000803e3d6000fd5b505050506040513d601f19601f82011682018060405250810190610e4b919061559d565b9050600089602001518660a0015160200151610e67919061587c565b60a087015151608088015151604051637360a1b160e11b815292935060009283926001600160a01b0389169263e6c1436292610ea7929190600401615662565b60206040518083038186803b158015610ebf57600080fd5b505afa158015610ed3573d6000803e3d6000fd5b505050506040513d601f19601f82011682018060405250810190610ef7919061559d565b9050610f05856127106158b6565b84610f1083866158b6565b610f1a91906158b6565b610f249190615894565b60a08901515160405163017f783b60e61b81526001600160a01b03918216600482015291935060009250881690635fde0ec09060240160206040518083038186803b158015610f7257600080fd5b505afa158015610f86573d6000803e3d6000fd5b505050506040513d601f19601f82011682018060405250810190610faa919061559d565b9050610fb684846158b6565b85610fc183856158b6565b610fcb91906158b6565b610fd59190615894565b606089015151604051635ba2edab60e11b81526001600160a01b039182166004820152919c506000925088169063b745db569060240160206040518083038186803b15801561102357600080fd5b505afa158015611037573d6000803e3d6000fd5b505050506040513d601f19601f8201168201806040525081019061105b919061559d565b60608901515160405163f5d0e17560e01b81526001600160a01b0391821660048201529192506000919089169063f5d0e1759060240160206040518083038186803b1580156110a957600080fd5b505afa1580156110bd573d6000803e3d6000fd5b505050506040513d601f19601f820116820180604052508101906110e1919061559d565b90508289608001516020015111156111435760008282858c608001516020015161110b91906158d5565b61111591906158b6565b61111f9190615894565b60608b01516020015190915061113588836158b6565b61113f9190615894565b9b50505b5050505050505050505b50915091565b60008181526003602052604090205480611183576040516354ec2eeb60e01b8152600481018390526024016108ad565b6000600161119181846158d5565b815481106111a1576111a1615902565b60009182526020909120601690910201601381015490915060ff16156111dd57604051632a2af87d60e11b8152600481018490526024016108ad565b60158101541561120357604051634fd9d2b360e11b8152600481018490526024016108ad565b4261120d846149b9565b1561124b576015820181905560405181815284907fa12564b997ab2a5a96db3485450b11398857b9457f88412f9ad19cdffd43a1ab90602001610a64565b50505050565b80516000908152600360205260408120548190801561114d576000600161127881846158d5565b8154811061128857611288615902565b60009182526020808320604080516101a08101825260169094029091018054845260018101546001600160a01b03908116858501526002820154811685840152825160a080820185526003840154831682526004808501548388015260058501548387015260068501546060848101919091526007860154608080860191909152818a0194909452865180880188526008870154861681526009870154818a0152848a015286518084018852600a87015486168152600b870154818a0152600c87015481890152600d87015481830152600e87015481860152838a0152600f86015460c0808b0191909152601087015460e0808c01919091526011880154610100808d019190915260128901546101208d015289518082018b5260138a015460ff8082161515835292810483161515828e015262010000810483161515828d015263010000008104831615159582019590955264010000000085048216151597810197909752600160281b84048116151595870195909552600160301b83048516151591860191909152600160381b90910490921615159183019190915261014087019190915260148301548216610160870152601590920154610180860152855483516375e5807960e01b8152935195975016949385936375e58079938084019391929190829003018186803b15801561148257600080fd5b505afa158015611496573d6000803e3d6000fd5b505050506040513d601f19601f820116820180604052508101906114ba9190615328565b90508260c001518760200151116116ac5760808301515160405163ac436bdf60e01b81526001600160a01b03918216600482015260009184169063ac436bdf9060240160206040518083038186803b15801561151557600080fd5b505afa158015611529573d6000803e3d6000fd5b505050506040513d601f19601f8201168201806040525081019061154d919061559d565b905064496cebb8008460c00151896020015161156991906158d5565b8286608001516020015161157d91906158b6565b61158791906158b6565b6115919190615894565b602085015160405163172c717b60e01b81526001600160a01b0391821660048201526024810183905291985083169063172c717b9060440160206040518083038186803b1580156115e157600080fd5b505afa1580156115f5573d6000803e3d6000fd5b505050506040513d601f19601f82011682018060405250810190611619919061559d565b96506000836001600160a01b03166358f858806040518163ffffffff1660e01b815260040160206040518083038186803b15801561165657600080fd5b505afa15801561166a573d6000803e3d6000fd5b505050506040513d601f19601f8201168201806040525081019061168e919061559d565b905061271061169d828a6158b6565b6116a79190615894565b965050505b50505050915091565b6000805460408051633a0df78d60e11b8152905183926001600160a01b0316918391839163741bef1a916004808301926020929190829003018186803b1580156116fe57600080fd5b505afa158015611712573d6000803e3d6000fd5b505050506040513d601f19601f820116820180604052508101906117369190615328565b90506000816001600160a01b031663aaf5eb686040518163ffffffff1660e01b815260040160206040518083038186803b15801561177357600080fd5b505afa158015611787573d6000803e3d6000fd5b505050506040513d601f19601f820116820180604052508101906117ab919061559d565b9050600080836001600160a01b031663e6c1436289602001518a604001516040518363ffffffff1660e01b81526004016117e6929190615662565b60206040518083038186803b1580156117fe57600080fd5b505afa158015611812573d6000803e3d6000fd5b505050506040513d601f19601f82011682018060405250810190611836919061559d565b90508281896080015161184991906158b6565b6118539190615894565b9150506000846001600160a01b0316636d2745536040518163ffffffff1660e01b815260040160206040518083038186803b15801561189157600080fd5b505afa1580156118a5573d6000803e3d6000fd5b505050506040513d601f19601f820116820180604052508101906118c9919061559d565b6020890151604051635ba2edab60e11b81526001600160a01b0391821660048201529192506000919087169063b745db569060240160206040518083038186803b15801561191657600080fd5b505afa15801561192a573d6000803e3d6000fd5b505050506040513d601f19601f8201168201806040525081019061194e919061559d565b60608a015160405163095bf1bb60e01b81526001600160a01b0391821660048201529192506000919088169063095bf1bb9060240160206040518083038186803b15801561199b57600080fd5b505afa1580156119af573d6000803e3d6000fd5b505050506040513d601f19601f820116820180604052508101906119d3919061559d565b60608b01516040808d01519051637360a1b160e11b81529293506000926001600160a01b038a169263e6c1436292611a0d92600401615662565b60206040518083038186803b158015611a2557600080fd5b505afa158015611a39573d6000803e3d6000fd5b505050506040513d601f19601f82011682018060405250810190611a5d919061559d565b9050600082611a6c85876158d5565b611a7690886158b6565b611a809190615894565b9050600082611a8f89846158b6565b611a999190615894565b9050808d60c001511015611abc575060009c8d9c509a5050505050505050505050565b5060009050611acd876127106158b6565b83838e60c00151611ade91906158b6565b611ae891906158b6565b611af29190615894565b9050612710611b0186886158b6565b611b0b9190615894565b9a50612710611b1a85886158b6565b611b249190615894565b611b2e908261587c565b9950505050505050505050915091565b6000546001600160a01b031615611b68576040516373e833b960e11b815260040160405180910390fd5b600080546001600160a01b0319166001600160a01b0392909216919091179055565b6000610a83826149b9565b60008054608083015151604051634d83bc3360e01b81526001600160a01b0391821660048201529116908190634d83bc339060240160206040518083038186803b158015611be257600080fd5b505afa158015611bf6573d6000803e3d6000fd5b505050506040513d601f19601f82011682018060405250810190611c1a9190615328565b6001600160a01b0316336001600160a01b031614611c4d5760405163a59d7f4d60e01b81523360048201526024016108ad565b6001546040516bffffffffffffffffffffffff193060601b16602082015260348101919091524260548201526074016040516020818303038152906040528051906020012091508183600001818152505060018390806001815401808255809150506001900390600052602060002090601602016000909190919091506000820151816000015560208201518160010160006101000a8154816001600160a01b0302191690836001600160a01b0316021790555060408201518160020160006101000a8154816001600160a01b0302191690836001600160a01b0316021790555060608201518160030160008201518160000160006101000a8154816001600160a01b0302191690836001600160a01b0316021790555060208201518160010155604082015181600201556060820151816003015560808201518160040155505060808201518160080160008201518160000160006101000a8154816001600160a01b0302191690836001600160a01b0316021790555060208201518160010155505060a082015181600a0160008201518160000160006101000a8154816001600160a01b0302191690836001600160a01b0316021790555060208201518160010155604082015181600201556060820151816003015560808201518160040155505060c082015181600f015560e08201518160100155610100820151816011015561012082015181601201556101408201518160130160008201518160000160006101000a81548160ff02191690831515021790555060208201518160000160016101000a81548160ff02191690831515021790555060408201518160000160026101000a81548160ff02191690831515021790555060608201518160000160036101000a81548160ff02191690831515021790555060808201518160000160046101000a81548160ff02191690831515021790555060a08201518160000160056101000a81548160ff02191690831515021790555060c08201518160000160066101000a81548160ff02191690831515021790555060e08201518160000160076101000a81548160ff02191690831515021790555050506101608201518160140160006101000a8154816001600160a01b0302191690836001600160a01b03160217905550610180820151816015015550506001805490506003600085600001518152602001908152602001600020819055506002836000015190806001815401808255809150506001900390600052602060002001600090919091909150556004600084602001516001600160a01b03166001600160a01b031681526020019081526020016000208360000151908060018154018082558091505060019003906000526020600020016000909190919091505582600001517f5fab80b8320f567319e4d7377f5305880481272b952242604af9f7f912af3bdb60405160405180910390a250919050565b80516000908152600360205260408120548190806120b15783516040516354ec2eeb60e01b815260048101919091526024016108ad565b600060016120bf81846158d5565b815481106120cf576120cf615902565b60009182526020822091546016919091029091016008810154604051634d83bc3360e01b81526001600160a01b039182166004820152919350909116908190634d83bc339060240160206040518083038186803b15801561212f57600080fd5b505afa158015612143573d6000803e3d6000fd5b505050506040513d601f19601f820116820180604052508101906121679190615328565b6001600160a01b0316336001600160a01b03161461219a5760405163a59d7f4d60e01b81523360048201526024016108ad565b601382015460ff16156121c6578551604051632a2af87d60e11b815260048101919091526024016108ad565b600182015460408701516001600160a01b039081169116146122105760018201546040808801519051631194af8760e11b81526108ad926001600160a01b03169190600401615662565b6000816001600160a01b031663741bef1a6040518163ffffffff1660e01b815260040160206040518083038186803b15801561224b57600080fd5b505afa15801561225f573d6000803e3d6000fd5b505050506040513d601f19601f820116820180604052508101906122839190615328565b90506000816001600160a01b031663aaf5eb686040518163ffffffff1660e01b815260040160206040518083038186803b1580156122c057600080fd5b505afa1580156122d4573d6000803e3d6000fd5b505050506040513d601f19601f820116820180604052508101906122f8919061559d565b600a85015460405163095bf1bb60e01b81526001600160a01b0391821660048201529192506000919085169063095bf1bb9060240160206040518083038186803b15801561234557600080fd5b505afa158015612359573d6000803e3d6000fd5b505050506040513d601f19601f8201168201806040525081019061237d919061559d565b90506000896020015186600a0160010154612398919061587c565b600a8701546008880154604051637360a1b160e11b815292935060009283926001600160a01b038981169363e6c14362936123dc9383169290911690600401615662565b60206040518083038186803b1580156123f457600080fd5b505afa158015612408573d6000803e3d6000fd5b505050506040513d601f19601f8201168201806040525081019061242c919061559d565b905061243a856127106158b6565b8461244583866158b6565b61244f91906158b6565b6124599190615894565b600a89015460405163017f783b60e61b81526001600160a01b03918216600482015291935060009250881690635fde0ec09060240160206040518083038186803b1580156124a657600080fd5b505afa1580156124ba573d6000803e3d6000fd5b505050506040513d601f19601f820116820180604052508101906124de919061559d565b90506124ea84846158b6565b856124f583856158b6565b6124ff91906158b6565b6125099190615894565b6003890154604051635ba2edab60e11b81526001600160a01b039182166004820152919c506000925088169063b745db569060240160206040518083038186803b15801561255657600080fd5b505afa15801561256a573d6000803e3d6000fd5b505050506040513d601f19601f8201168201806040525081019061258e919061559d565b600389015460405163f5d0e17560e01b81526001600160a01b0391821660048201529192506000919089169063f5d0e1759060240160206040518083038186803b1580156125db57600080fd5b505afa1580156125ef573d6000803e3d6000fd5b505050506040513d601f19601f82011682018060405250810190612613919061559d565b9050828960080160010154111561266f5760008282858c6008016001015461263b91906158d5565b61264591906158b6565b61264f9190615894565b60048b015490915061266188836158b6565b61266b9190615894565b9b50505b5050600d87018a9055600687018990558a516020808d01516040808f015181519283529282018e905281018c90526001600160a01b0390911660608201527f31c8ad1ea38b652c0e26ae4e5b255569097fbc4b46f45768030a16ee40f894df9060800160405180910390a25050505050505050915091565b60008481526003602052604090205480612717576040516354ec2eeb60e01b8152600481018690526024016108ad565b6000600161272581846158d5565b8154811061273557612735615902565b60009182526020822091546016919091029091016008810154604051634d83bc3360e01b81526001600160a01b039182166004820152919350909116908190634d83bc339060240160206040518083038186803b15801561279557600080fd5b505afa1580156127a9573d6000803e3d6000fd5b505050506040513d601f19601f820116820180604052508101906127cd9190615328565b6001600160a01b0316336001600160a01b0316146128005760405163a59d7f4d60e01b81523360048201526024016108ad565b601382015460ff1661282857604051635de41db760e11b8152600481018890526024016108ad565b6000816001600160a01b031663741bef1a6040518163ffffffff1660e01b815260040160206040518083038186803b15801561286357600080fd5b505afa158015612877573d6000803e3d6000fd5b505050506040513d601f19601f8201168201806040525081019061289b9190615328565b90506000816001600160a01b031663aaf5eb686040518163ffffffff1660e01b815260040160206040518083038186803b1580156128d857600080fd5b505afa1580156128ec573d6000803e3d6000fd5b505050506040513d601f19601f82011682018060405250810190612910919061559d565b6004850154909150612922828a6158b6565b61292c9190615894565b6007850155861561296857600b84015460009061294a9088906158d5565b905080612957838a6158b6565b6129619190615894565b600e860155505b505050505050505050565b6001818154811061298357600080fd5b90600052602060002090601602016000915090508060000154908060010160009054906101000a90046001600160a01b0316908060020160009054906101000a90046001600160a01b031690806003016040518060a00160405290816000820160009054906101000a90046001600160a01b03166001600160a01b03166001600160a01b0316815260200160018201548152602001600282015481526020016003820154815260200160048201548152505090806008016040518060400160405290816000820160009054906101000a90046001600160a01b03166001600160a01b03166001600160a01b031681526020016001820154815250509080600a016040518060a00160405290816000820160009054906101000a90046001600160a01b03166001600160a01b03166001600160a01b031681526020016001820154815260200160028201548152602001600382015481526020016004820154815250509080600f01549080601001549080601101549080601201549080601301604051806101000160405290816000820160009054906101000a900460ff161515151581526020016000820160019054906101000a900460ff161515151581526020016000820160029054906101000a900460ff161515151581526020016000820160039054906101000a900460ff161515151581526020016000820160049054906101000a900460ff161515151581526020016000820160059054906101000a900460ff161515151581526020016000820160069054906101000a900460ff161515151581526020016000820160079054906101000a900460ff161515151581525050908060140160009054906101000a90046001600160a01b031690806015015490508d565b60008281526003602052604090205480612c3a576040516354ec2eeb60e01b8152600481018490526024016108ad565b60006001612c4881846158d5565b81548110612c5857612c58615902565b60009182526020822091546016919091029091016008810154604051634d83bc3360e01b81526001600160a01b039182166004820152919350909116908190634d83bc339060240160206040518083038186803b158015612cb857600080fd5b505afa158015612ccc573d6000803e3d6000fd5b505050506040513d601f19601f82011682018060405250810190612cf09190615328565b6001600160a01b0316336001600160a01b031614612d235760405163a59d7f4d60e01b81523360048201526024016108ad565b601382015460ff1615612d4c57604051632a2af87d60e11b8152600481018690526024016108ad565b60018201546001600160a01b03858116911614612d8d576001820154604051631194af8760e11b81526108ad916001600160a01b0316908690600401615662565b60138201805465ff00000000ff1916650100000000011790556014820180546001600160a01b0319166001600160a01b03861690811790915560405190815285907f6a85bd8516bd8204e81aa2933301a26c59fc549b80ea554b8628afbcdf21e2c79060200160405180910390a25050505050565b612e0a614f68565b6000828152600360205260409020548015613005576001612e2b81836158d5565b81548110612e3b57612e3b615902565b6000918252602091829020604080516101a08101825260169093029091018054835260018101546001600160a01b03908116848601526002820154811684840152825160a080820185526003840154831682526004840154828801526005840154828601526006840154606083810191909152600785015460808085019190915281880193909352855180870187526008860154851681526009860154818a01528388015285518083018752600a86015485168152600b860154818a0152600c86015481880152600d86015481830152600e8601548185015282880152600f85015460c080890191909152601086015460e0808a01919091526011870154610100808b019190915260128801546101208b015288518082018a52601389015460ff80821615158352928104831615159c82019c909c52620100008c04821615159981019990995263010000008b0481161515938901939093526401000000008a048316151594880194909452600160281b89048216151592870192909252600160301b88048116151591860191909152600160381b909604909516151594830194909452610140830191909152601481015490921661016082015260159091015461018082015291505b50919050565b6000828152600360205260408120548061303b576040516354ec2eeb60e01b8152600481018590526024016108ad565b6000600161304981846158d5565b8154811061305957613059615902565b60009182526020822091546016919091029091016008810154604051634d83bc3360e01b81526001600160a01b039182166004820152919350909116908190634d83bc339060240160206040518083038186803b1580156130b957600080fd5b505afa1580156130cd573d6000803e3d6000fd5b505050506040513d601f19601f820116820180604052508101906130f19190615328565b6001600160a01b0316336001600160a01b0316146131245760405163a59d7f4d60e01b81523360048201526024016108ad565b601382015460ff161561314d57604051632a2af87d60e11b8152600481018790526024016108ad565b4282600f01541161316e5760138201805461ff001916610100179055600193505b6000816001600160a01b031663741bef1a6040518163ffffffff1660e01b815260040160206040518083038186803b1580156131a957600080fd5b505afa1580156131bd573d6000803e3d6000fd5b505050506040513d601f19601f820116820180604052508101906131e19190615328565b600a8401546008850154604051637360a1b160e11b81529293506000926001600160a01b038086169363e6c143629361322293918316921690600401615662565b60206040518083038186803b15801561323a57600080fd5b505afa15801561324e573d6000803e3d6000fd5b505050506040513d601f19601f82011682018060405250810190613272919061559d565b600d850154909150811161329c5760138401805464ff000000001916640100000000179055600195505b60038401546008850154604051637360a1b160e11b81526000926001600160a01b038681169363e6c14362936132db9383169290911690600401615662565b60206040518083038186803b1580156132f357600080fd5b505afa158015613307573d6000803e3d6000fd5b505050506040513d601f19601f8201168201806040525081019061332b919061559d565b905060008560100154118015613345575084601001548111155b156133625760138501805462ff0000191662010000179055600196505b600685015481116133875760138501805463ff00000019166301000000179055600196505b60018501546001600160a01b038981169116148015906133a5575086155b156133d4576001850154604051631194af8760e11b81526108ad916001600160a01b0316908a90600401615662565b60138501805460ff191660011790556014850180546001600160a01b038a166001600160a01b0319909116811790915560405190815289907f6a85bd8516bd8204e81aa2933301a26c59fc549b80ea554b8628afbcdf21e2c79060200160405180910390a250505050505092915050565b60008181526003602052604090205480613475576040516354ec2eeb60e01b8152600481018390526024016108ad565b6000600161348381846158d5565b8154811061349357613493615902565b60009182526020822091546016919091029091016008810154604051634d83bc3360e01b81526001600160a01b039182166004820152919350909116908190634d83bc339060240160206040518083038186803b1580156134f357600080fd5b505afa158015613507573d6000803e3d6000fd5b505050506040513d601f19601f8201168201806040525081019061352b9190615328565b6001600160a01b0316336001600160a01b03161461355e5760405163a59d7f4d60e01b81523360048201526024016108ad565b601382015460ff161561358757604051632a2af87d60e11b8152600481018590526024016108ad565b806001600160a01b031663eddf82bb6040518163ffffffff1660e01b815260040160206040518083038186803b1580156135c057600080fd5b505afa1580156135d4573d6000803e3d6000fd5b505050506040513d601f19601f820116820180604052508101906135f8919061559d565b8260150154613607919061587c565b42101561362a5760405163a2757e2760e01b8152600481018590526024016108ad565b60138201805466ff0000000000001916600160301b17905560405184907f0de9a071731ad64ea412c199b649f11ada453eb6c8b323fc0769345e62316a4990600090a250505050565b60006002828154811061368857613688615902565b90600052602060002001549050919050565b600081815260036020526040812054806136b75750600092915050565b6136c0836149b9565b80156136f9575060016136d381836158d5565b815481106136e3576136e3615902565b9060005260206000209060160201601501546000145b9392505050565b60008181526003602052604090205480613730576040516354ec2eeb60e01b8152600481018390526024016108ad565b6000600161373e81846158d5565b8154811061374e5761374e615902565b60009182526020822091546016919091029091016008810154604051634d83bc3360e01b81526001600160a01b039182166004820152919350909116908190634d83bc339060240160206040518083038186803b1580156137ae57600080fd5b505afa1580156137c2573d6000803e3d6000fd5b505050506040513d601f19601f820116820180604052508101906137e69190615328565b6001600160a01b0316336001600160a01b0316146138195760405163a59d7f4d60e01b81523360048201526024016108ad565b601382015460ff161561384257604051632a2af87d60e11b8152600481018590526024016108ad565b6013820154600160301b900460ff166138715760405163746d2b8160e01b8152600481018590526024016108ad565b60138201805467ff000000000000ff19166701000000000000011790556040516000815284907f6a85bd8516bd8204e81aa2933301a26c59fc549b80ea554b8628afbcdf21e2c790602001610a64565b6138c9614f68565b600182815481106138dc576138dc615902565b6000918252602091829020604080516101a08101825260169093029091018054835260018101546001600160a01b03908116848601526002820154811684840152825160a080820185526003840154831682526004840154828801526005840154828601526006840154606083810191909152600785015460808085019190915281880193909352855180870187526008860154851681526009860154818a01528388015285518083018752600a86015485168152600b860154818a0152600c86015481880152600d86015481830152600e8601548185015282880152600f85015460c080890191909152601086015460e0808a01919091526011870154610100808b019190915260128801546101208b015288518082018a52601389015460ff80821615158352928104831615159c82019c909c52620100008c04821615159981019990995263010000008b0481161515938901939093526401000000008a048316151594880194909452600160281b89048216151592870192909252600160301b88048116151591860191909152600160381b909604909516151594830194909452610140830191909152601481015490921661016082015260159091015461018082015292915050565b8051600090815260036020526040812054819080613ae05783516040516354ec2eeb60e01b815260048101919091526024016108ad565b60006001613aee81846158d5565b81548110613afe57613afe615902565b60009182526020822091546016919091029091016008810154604051634d83bc3360e01b81526001600160a01b039182166004820152919350909116908190634d83bc339060240160206040518083038186803b158015613b5e57600080fd5b505afa158015613b72573d6000803e3d6000fd5b505050506040513d601f19601f82011682018060405250810190613b969190615328565b6001600160a01b0316336001600160a01b031614613bc95760405163a59d7f4d60e01b81523360048201526024016108ad565b601382015460ff1615613bf5578551604051632a2af87d60e11b815260048101919091526024016108ad565b600182015460408701516001600160a01b03908116911614613c3f5760018201546040808801519051631194af8760e11b81526108ad926001600160a01b03169190600401615662565b6000816001600160a01b03166375e580796040518163ffffffff1660e01b815260040160206040518083038186803b158015613c7a57600080fd5b505afa158015613c8e573d6000803e3d6000fd5b505050506040513d601f19601f82011682018060405250810190613cb29190615328565b604080890151905163223884bf60e11b81526001600160a01b03918216600482015291925060009190831690634471097e9060240160206040518083038186803b158015613cff57600080fd5b505afa158015613d13573d6000803e3d6000fd5b505050506040513d601f19601f82011682018060405250810190613d379190615371565b905080613d6857604080890151905163fa5cd00f60e01b81526001600160a01b0390911660048201526024016108ad565b83600f0154886020015111613d9057604051630309cb8760e51b815260040160405180910390fd5b600884015460405163ac436bdf60e01b81526001600160a01b03918216600482015260009185169063ac436bdf9060240160206040518083038186803b158015613dd957600080fd5b505afa158015613ded573d6000803e3d6000fd5b505050506040513d601f19601f82011682018060405250810190613e11919061559d565b905064496cebb80085600f01548a60200151613e2d91906158d5565b6009870154613e3d9084906158b6565b613e4791906158b6565b613e519190615894565b600186015460405163172c717b60e01b81526001600160a01b0391821660048201526024810183905291995084169063172c717b9060440160206040518083038186803b158015613ea157600080fd5b505afa158015613eb5573d6000803e3d6000fd5b505050506040513d601f19601f82011682018060405250810190613ed9919061559d565b97506000846001600160a01b03166358f858806040518163ffffffff1660e01b815260040160206040518083038186803b158015613f1657600080fd5b505afa158015613f2a573d6000803e3d6000fd5b505050506040513d601f19601f82011682018060405250810190613f4e919061559d565b9050612710613f5d828b6158b6565b613f679190615894565b975088866008016001016000828254613f80919061587c565b9250508190555088866011016000828254613f9b919061587c565b9250508190555087866012016000828254613fb6919061587c565b909155505060208a810151600f88018190558b516040808e015181519384526001600160a01b031693830193909352917f058d0b7c2499b80403e5adabcc2c3565b19c921a6781e8d474d2bf925b51f21c910160405180910390a250505050505050915091565b614025614f68565b8160e0015142108015614052575081604001516001600160a01b031682602001516001600160a01b031614155b156149b4576000805460408051633a0df78d60e11b815290516001600160a01b039092169291839163741bef1a916004808301926020929190829003018186803b15801561409f57600080fd5b505afa1580156140b3573d6000803e3d6000fd5b505050506040513d601f19601f820116820180604052508101906140d79190615328565b90506000816001600160a01b031663aaf5eb686040518163ffffffff1660e01b815260040160206040518083038186803b15801561411457600080fd5b505afa158015614128573d6000803e3d6000fd5b505050506040513d601f19601f8201168201806040525081019061414c919061559d565b9050600080836001600160a01b031663e6c14362886020015189604001516040518363ffffffff1660e01b8152600401614187929190615662565b60206040518083038186803b15801561419f57600080fd5b505afa1580156141b3573d6000803e3d6000fd5b505050506040513d601f19601f820116820180604052508101906141d7919061559d565b90506141e38782614de6565b9550828188608001516141f691906158b6565b6142009190615894565b9150506000846001600160a01b0316636d2745536040518163ffffffff1660e01b815260040160206040518083038186803b15801561423e57600080fd5b505afa158015614252573d6000803e3d6000fd5b505050506040513d601f19601f82011682018060405250810190614276919061559d565b6020880151604051635ba2edab60e11b81526001600160a01b0391821660048201529192506000919087169063b745db569060240160206040518083038186803b1580156142c357600080fd5b505afa1580156142d7573d6000803e3d6000fd5b505050506040513d601f19601f820116820180604052508101906142fb919061559d565b606089015160405163095bf1bb60e01b81526001600160a01b0391821660048201529192506000919088169063095bf1bb9060240160206040518083038186803b15801561434857600080fd5b505afa15801561435c573d6000803e3d6000fd5b505050506040513d601f19601f82011682018060405250810190614380919061559d565b60608a01516040808c01519051637360a1b160e11b81529293506000926001600160a01b038a169263e6c14362926143ba92600401615662565b60206040518083038186803b1580156143d257600080fd5b505afa1580156143e6573d6000803e3d6000fd5b505050506040513d601f19601f8201168201806040525081019061440a919061559d565b905060008261441985876158d5565b61442390886158b6565b61442d9190615894565b905060008261443c89846158b6565b6144469190615894565b9050808c60c0015110156144635750505050505050505050919050565b5060009050614474876127106158b6565b83838d60c0015161448591906158b6565b61448f91906158b6565b6144999190615894565b905060006127106144aa87896158b6565b6144b49190615894565b905060006127106144c5878a6158b6565b6144cf9190615894565b6144d9908461587c565b9050808d60a0015111806144f05750818d60a00151105b15614505575050505050505050505050919050565b505060a08a0151604090810183905260608c0151905163017f783b60e61b81526001600160a01b0391821660048201526000918b1690635fde0ec09060240160206040518083038186803b15801561455c57600080fd5b505afa158015614570573d6000803e3d6000fd5b505050506040513d601f19601f82011682018060405250810190614594919061559d565b9050838c60c001516145a691906158b6565b886145b183856158b6565b6145bb91906158b6565b6145c59190615894565b60a08c0151606001525060208b015160405163f5d0e17560e01b81526001600160a01b0391821660048201526000918b169063f5d0e1759060240160206040518083038186803b15801561461857600080fd5b505afa15801561462c573d6000803e3d6000fd5b505050506040513d601f19601f82011682018060405250810190614650919061559d565b9050818c60a0015111156146c35760008582848f60a0015161467291906158d5565b61467c91906158b6565b6146869190615894565b9050808810156146a0575050505050505050505050919050565b60808d01516146af8a836158b6565b6146b99190615894565b6060808e01510152505b5060408b810151905163ac436bdf60e01b81526001600160a01b0391821660048201526000918b169063ac436bdf9060240160206040518083038186803b15801561470d57600080fd5b505afa158015614721573d6000803e3d6000fd5b505050506040513d601f19601f82011682018060405250810190614745919061559d565b9050600064496cebb800428e60e0015161475f91906158d5565b838f60a0015161476f91906158b6565b61477991906158b6565b6147839190615894565b905060008b6001600160a01b03166375e580796040518163ffffffff1660e01b815260040160206040518083038186803b1580156147c057600080fd5b505afa1580156147d4573d6000803e3d6000fd5b505050506040513d601f19601f820116820180604052508101906147f89190615328565b8e5160405163172c717b60e01b81526001600160a01b0391821660048201526024810185905291925082169063172c717b9060440160206040518083038186803b15801561484557600080fd5b505afa158015614859573d6000803e3d6000fd5b505050506040513d601f19601f8201168201806040525081019061487d919061559d565b915060008c6001600160a01b03166358f858806040518163ffffffff1660e01b815260040160206040518083038186803b1580156148ba57600080fd5b505afa1580156148ce573d6000803e3d6000fd5b505050506040513d601f19601f820116820180604052508101906148f2919061559d565b6101008f01849052905061271061490982856158b6565b6149139190615894565b6101208f01525050505060408b8101519051634d83bc3360e01b81526001600160a01b039182166004820152908a1690634d83bc339060240160206040518083038186803b15801561496457600080fd5b505afa158015614978573d6000803e3d6000fd5b505050506040513d601f19601f8201168201806040525081019061499c9190615328565b6001600160a01b031660408b01525050505050505050505b919050565b600081815260036020526040812054806149d65750600092915050565b600060016149e481846158d5565b815481106149f4576149f4615902565b6000918252602091829020604080516101a08101825260169093029091018054835260018101546001600160a01b03908116848601526002820154811684840152825160a080820185526003840154831682526004840154828801526005840154828601526006840154606083810191909152600785015460808085019190915281880193909352855180870187526008860154851681526009860154818a01528388015285518083018752600a86015485168152600b860154818a0152600c86015481880152600d86015481830152600e8601548185015282880152600f85015460c080890191909152601086015460e0808a01919091526011870154610100808b019190915260128801546101208b015288518082018a52601389015460ff80821615158352928104831615159c82019c909c52620100008c04821615159981019990995263010000008b0481161515938901939093526401000000008a048316151594880194909452600160281b89048216151592870192909252600160301b88048116151591860191909152600160381b90960490951615159483019490945261014083018290526014810154909316610160830152601590920154610180820152905190915015614bce575060009392505050565b428160c0015111614be3575060019392505050565b6000805460408051633a0df78d60e11b815290516001600160a01b039092169291839163741bef1a916004808301926020929190829003018186803b158015614c2b57600080fd5b505afa158015614c3f573d6000803e3d6000fd5b505050506040513d601f19601f82011682018060405250810190614c639190615328565b60a084015151608085015151604051637360a1b160e11b81529293506000926001600160a01b0385169263e6c1436292614c9f92600401615662565b60206040518083038186803b158015614cb757600080fd5b505afa158015614ccb573d6000803e3d6000fd5b505050506040513d601f19601f82011682018060405250810190614cef919061559d565b90508360a00151606001518111614d0d575060019695505050505050565b606084015151608085015151604051637360a1b160e11b81526000926001600160a01b0386169263e6c1436292614d48929190600401615662565b60206040518083038186803b158015614d6057600080fd5b505afa158015614d74573d6000803e3d6000fd5b505050506040513d601f19601f82011682018060405250810190614d98919061559d565b905060008560e00151118015614db257508460e001518111155b80614dc557508460600151606001518111155b15614dd857506001979650505050505050565b506000979650505050505050565b614dee614f68565b604051806101a001604052806000801916815260200184600001516001600160a01b0316815260200160006001600160a01b031681526020016040518060a0016040528086602001516001600160a01b03168152602001866080015181526020018581526020016000815260200160008152508152602001604051806040016040528086604001516001600160a01b031681526020018660a0015181525081526020016040518060a0016040528086606001516001600160a01b031681526020018660c0015181526020016000815260200160008152602001600081525081526020018460e0015181526020018461010001518152602001600081526020016000815260200160405180610100016040528060001515815260200160001515815260200160001515815260200160001515815260200160001515815260200160001515815260200160001515815260200160001515815250815260200160006001600160a01b031681526020016000815250905092915050565b604051806101a001604052806000801916815260200160006001600160a01b0316815260200160006001600160a01b03168152602001614fd96040518060a0016040528060006001600160a01b03168152602001600081526020016000815260200160008152602001600081525090565b8152602001615004604051806040016040528060006001600160a01b03168152602001600081525090565b81526020016150446040518060a0016040528060006001600160a01b03168152602001600081526020016000815260200160008152602001600081525090565b8152600060208083018290526040808401839052606080850184905260808086018590528251610100810184528581529384018590529183018490528201839052810182905260a081810183905260c0820183905260e0820192909252910190815260006020820181905260409091015290565b80356149b481615918565b80356149b481615930565b600060a082840312156150e057600080fd5b60405160a0810181811067ffffffffffffffff8211171561511157634e487b7160e01b600052604160045260246000fd5b604052905080823561512281615918565b80825250602083013560208201526040830135604082015260608301356060820152608083013560808201525092915050565b60006040828403121561516757600080fd5b6040516040810181811067ffffffffffffffff8211171561519857634e487b7160e01b600052604160045260246000fd5b60405290508082356151a981615918565b8152602092830135920191909152919050565b60006101008083850312156151d057600080fd5b6040519081019067ffffffffffffffff8211818310171561520157634e487b7160e01b600052604160045260246000fd5b816040528092508335915061521582615930565b818152615224602085016150c3565b6020820152615235604085016150c3565b6040820152615246606085016150c3565b6060820152615257608085016150c3565b608082015261526860a085016150c3565b60a082015261527960c085016150c3565b60c082015261528a60e085016150c3565b60e0820152505092915050565b6000606082840312156152a957600080fd5b6040516060810181811067ffffffffffffffff821117156152da57634e487b7160e01b600052604160045260246000fd5b8060405250809150823581526020830135602082015260408301356152fe81615918565b6040919091015292915050565b60006020828403121561531d57600080fd5b81356136f981615918565b60006020828403121561533a57600080fd5b81516136f981615918565b6000806040838503121561535857600080fd5b823561536381615918565b946020939093013593505050565b60006020828403121561538357600080fd5b81516136f981615930565b6000602082840312156153a057600080fd5b5035919050565b600080604083850312156153ba57600080fd5b8235915060208301356153cc81615918565b809150509250929050565b600080600080608085870312156153ed57600080fd5b5050823594602084013594506040840135936060013592509050565b6000610120828403121561541c57600080fd5b615424615812565b61542d836150b8565b815261543b602084016150b8565b602082015261544c604084016150b8565b604082015261545d606084016150b8565b60608201526080830135608082015260a083013560a082015260c083013560c082015260e083013560e08201526101008084013581830152508091505092915050565b60006103a082840312156154b357600080fd5b6154bb61584a565b823581526154cb602084016150b8565b60208201526154dc604084016150b8565b60408201526154ee84606085016150ce565b606082015261010061550285828601615155565b6080830152610140615516868287016150ce565b60a08401526101e085013560c084015261020085013560e0840152610220850135828401526102408501356101208401526155558661026087016151bc565b908301525061556761036084016150b8565b610160820152610380929092013561018083015250919050565b60006060828403121561559357600080fd5b6136f98383615297565b6000602082840312156155af57600080fd5b5051919050565b80516001600160a01b03168252602080820151908301526040808201519083015260608082015190830152608090810151910152565b80511515825260208101511515602083015260408101511515604083015260608101511515606083015260808101511515608083015260a081015161563560a084018215159052565b5060c081015161564960c084018215159052565b5060e081015161565d60e084018215159052565b505050565b6001600160a01b0392831681529116602082015260400190565b8d81526001600160a01b038d811660208301528c811660408301526103a08201906156aa606084018e6155b6565b8b516001600160a01b031661010084015260208c01516101208401526156d461014084018c6155b6565b896101e08401528861020084015287610220840152866102408401526156fe6102608401876155ec565b9390931661036082015261038001529b9a5050505050505050505050565b815181526020808301516103a0830191615740908401826001600160a01b03169052565b50604083015161575b60408401826001600160a01b03169052565b50606083015161576e60608401826155b6565b5060808301516101006157968185018380516001600160a01b03168252602090810151910152565b60a085015191506101406157ac818601846155b6565b60c08601516101e086015260e08601516102008601529085015161022085015261012085015161024085015284015190506157eb6102608401826155ec565b506101608301516001600160a01b0316610360830152610180909201516103809091015290565b604051610120810167ffffffffffffffff8111828210171561584457634e487b7160e01b600052604160045260246000fd5b60405290565b6040516101a0810167ffffffffffffffff8111828210171561584457634e487b7160e01b600052604160045260246000fd5b6000821982111561588f5761588f6158ec565b500190565b6000826158b157634e487b7160e01b600052601260045260246000fd5b500490565b60008160001904831182151516156158d0576158d06158ec565b500290565b6000828210156158e7576158e76158ec565b500390565b634e487b7160e01b600052601160045260246000fd5b634e487b7160e01b600052603260045260246000fd5b6001600160a01b038116811461592d57600080fd5b50565b801515811461592d57600080fdfea264697066735822122026179983044c0991f1e9d4ef02c05f840cc7ba042bcaf4d992e046216c59fb6d64736f6c63430008070033",
  "linkReferences": {},
  "deployedLinkReferences": {}
}