{
  "_format": "hh-sol-artifact-1",
  "contractName": "SyncswapStablePriceFeedIntegration",
  "sourceName": "contracts/integrations/SyncswapStablePriceFeedIntegration.sol",
  "abi": [
    {
      "inputs": [
        {
          "internalType": "address",
          "name": "_factory",
          "type": "address"
        }
      ],
      "stateMutability": "nonpayable",
      "type": "constructor"
    },
    {
      "inputs": [],
      "name": "PRECISION",
      "outputs": [
        {
          "internalType": "uint256",
          "name": "",
          "type": "uint256"
        }
      ],
      "stateMutability": "view",
      "type": "function"
    },
    {
      "inputs": [],
      "name": "factory",
      "outputs": [
        {
          "internalType": "address",
          "name": "",
          "type": "address"
        }
      ],
      "stateMutability": "view",
      "type": "function"
    },
    {
      "inputs": [
        {
          "internalType": "address",
          "name": "_baseToken",
          "type": "address"
        },
        {
          "internalType": "address",
          "name": "_quoteToken",
          "type": "address"
        }
      ],
      "name": "getPrice",
      "outputs": [
        {
          "internalType": "uint256",
          "name": "price",
          "type": "uint256"
        }
      ],
      "stateMutability": "view",
      "type": "function"
    }
  ],
  "bytecode": "0x60a060405234801561001057600080fd5b5060405161076438038061076483398101604081905261002f91610044565b60601b6001600160601b031916608052610074565b60006020828403121561005657600080fd5b81516001600160a01b038116811461006d57600080fd5b9392505050565b60805160601c6106cc610098600039600081816085015261011901526106cc6000f3fe608060405234801561001057600080fd5b50600436106100415760003560e01c8063aaf5eb6814610046578063ac41865a1461006d578063c45a015514610080575b600080fd5b61005a6c0c9f2c9cd04674edea4000000081565b6040519081526020015b60405180910390f35b61005a61007b36600461047b565b6100bf565b6100a77f000000000000000000000000000000000000000000000000000000000000000081565b6040516001600160a01b039091168152602001610064565b6000816001600160a01b0316836001600160a01b031614156100ef57506c0c9f2c9cd04674edea40000000610451565b60405163298d501f60e11b81526001600160a01b03848116600483015283811660248301526000917f00000000000000000000000000000000000000000000000000000000000000009091169063531aa03e9060440160206040518083038186803b15801561015d57600080fd5b505afa158015610171573d6000803e3d6000fd5b505050506040513d601f19601f820116820180604052508101906101959190610457565b90506001600160a01b03811615610326576040516308b4c54760e41b81523360048201526001600160a01b0385811660248301528481166044830152608060648301526000608483018190529190831690638b4c54709060a40160206040518083038186803b15801561020757600080fd5b505afa15801561021b573d6000803e3d6000fd5b505050506040513d601f19601f8201168201806040525081019061023f91906104b4565b60405160016231ba9d60e11b031981526001600160a01b038781166004830152620186a0602483018190523360448401529293506000919085169063ff9c8ac69060640160206040518083038186803b15801561029b57600080fd5b505afa1580156102af573d6000803e3d6000fd5b505050506040513d601f19601f820116820180604052508101906102d391906104d9565b9050620186a06102e38482610515565b6102f29062ffffff1683610649565b6102fc919061053c565b9050816103166c0c9f2c9cd04674edea4000000083610649565b610320919061053c565b94505050505b6000846001600160a01b031663313ce5676040518163ffffffff1660e01b815260040160206040518083038186803b15801561036157600080fd5b505afa158015610375573d6000803e3d6000fd5b505050506040513d601f19601f8201168201806040525081019061039991906104f2565b60ff1690506000846001600160a01b031663313ce5676040518163ffffffff1660e01b815260040160206040518083038186803b1580156103d957600080fd5b505afa1580156103ed573d6000803e3d6000fd5b505050506040513d601f19601f8201168201806040525081019061041191906104f2565b60ff169050600061042383600a6105a1565b9050600061043283600a6105a1565b90508061043f8388610649565b610449919061053c565b955050505050505b92915050565b60006020828403121561046957600080fd5b81516104748161067e565b9392505050565b6000806040838503121561048e57600080fd5b82356104998161067e565b915060208301356104a98161067e565b809150509250929050565b6000602082840312156104c657600080fd5b815162ffffff8116811461047457600080fd5b6000602082840312156104eb57600080fd5b5051919050565b60006020828403121561050457600080fd5b815160ff8116811461047457600080fd5b600062ffffff80831681851680830382111561053357610533610668565b01949350505050565b60008261055957634e487b7160e01b600052601260045260246000fd5b500490565b600181815b8085111561059957816000190482111561057f5761057f610668565b8085161561058c57918102915b93841c9390800290610563565b509250929050565b600061047483836000826105b757506001610451565b816105c457506000610451565b81600181146105da57600281146105e457610600565b6001915050610451565b60ff8411156105f5576105f5610668565b50506001821b610451565b5060208310610133831016604e8410600b8410161715610623575081810a610451565b61062d838361055e565b806000190482111561064157610641610668565b029392505050565b600081600019048311821515161561066357610663610668565b500290565b634e487b7160e01b600052601160045260246000fd5b6001600160a01b038116811461069357600080fd5b5056fea26469706673582212201d0a0dd4795870d9bbfeb2e803dd0c5af4b5f361fd54bedcae0806c627a0fbef64736f6c63430008070033",
  "linkReferences": {},
  "deployedLinkReferences": {}
}