{
  "_format": "hh-sol-artifact-1",
  "contractName": "DEXAggregator",
  "sourceName": "contracts/DEXAggregator.sol",
  "abi": [
    {
      "inputs": [],
      "stateMutability": "nonpayable",
      "type": "constructor"
    },
    {
      "inputs": [
        {
          "internalType": "address",
          "name": "dex",
          "type": "address"
        }
      ],
      "name": "DEXExistsAlready",
      "type": "error"
    },
    {
      "inputs": [
        {
          "internalType": "address",
          "name": "dex",
          "type": "address"
        }
      ],
      "name": "DEXNotExists",
      "type": "error"
    },
    {
      "inputs": [
        {
          "internalType": "address",
          "name": "sender",
          "type": "address"
        }
      ],
      "name": "Forbidden",
      "type": "error"
    },
    {
      "inputs": [],
      "name": "InsufficientOutput",
      "type": "error"
    },
    {
      "inputs": [],
      "name": "Locked",
      "type": "error"
    },
    {
      "inputs": [],
      "name": "ZeroAddress",
      "type": "error"
    },
    {
      "anonymous": false,
      "inputs": [
        {
          "indexed": true,
          "internalType": "address",
          "name": "user",
          "type": "address"
        },
        {
          "indexed": true,
          "internalType": "address",
          "name": "dex",
          "type": "address"
        },
        {
          "indexed": false,
          "internalType": "string",
          "name": "dexName",
          "type": "string"
        }
      ],
      "name": "AddDEX",
      "type": "event"
    },
    {
      "anonymous": false,
      "inputs": [
        {
          "indexed": true,
          "internalType": "address",
          "name": "user",
          "type": "address"
        },
        {
          "indexed": true,
          "internalType": "address",
          "name": "dex",
          "type": "address"
        },
        {
          "indexed": false,
          "internalType": "string",
          "name": "dexName",
          "type": "string"
        }
      ],
      "name": "RemoveDEX",
      "type": "event"
    },
    {
      "anonymous": false,
      "inputs": [
        {
          "indexed": false,
          "internalType": "address",
          "name": "manager",
          "type": "address"
        }
      ],
      "name": "SetManager",
      "type": "event"
    },
    {
      "anonymous": false,
      "inputs": [
        {
          "indexed": true,
          "internalType": "address",
          "name": "user",
          "type": "address"
        },
        {
          "indexed": true,
          "internalType": "address",
          "name": "to",
          "type": "address"
        },
        {
          "indexed": true,
          "internalType": "address",
          "name": "dex",
          "type": "address"
        },
        {
          "indexed": false,
          "internalType": "address",
          "name": "_tokenIn",
          "type": "address"
        },
        {
          "indexed": false,
          "internalType": "address",
          "name": "_tokenOut",
          "type": "address"
        },
        {
          "indexed": false,
          "internalType": "uint256",
          "name": "amountIn",
          "type": "uint256"
        },
        {
          "indexed": false,
          "internalType": "uint256",
          "name": "amountOut",
          "type": "uint256"
        }
      ],
      "name": "Swap",
      "type": "event"
    },
    {
      "inputs": [
        {
          "internalType": "address",
          "name": "_dex",
          "type": "address"
        },
        {
          "internalType": "string",
          "name": "_dexName",
          "type": "string"
        }
      ],
      "name": "addDEX",
      "outputs": [],
      "stateMutability": "nonpayable",
      "type": "function"
    },
    {
      "inputs": [
        {
          "internalType": "address",
          "name": "",
          "type": "address"
        }
      ],
      "name": "dexIndex",
      "outputs": [
        {
          "internalType": "uint256",
          "name": "",
          "type": "uint256"
        }
      ],
      "stateMutability": "view",
      "type": "function"
    },
    {
      "inputs": [],
      "name": "dexLength",
      "outputs": [
        {
          "internalType": "uint256",
          "name": "",
          "type": "uint256"
        }
      ],
      "stateMutability": "view",
      "type": "function"
    },
    {
      "inputs": [
        {
          "internalType": "uint256",
          "name": "",
          "type": "uint256"
        }
      ],
      "name": "dexNames",
      "outputs": [
        {
          "internalType": "string",
          "name": "",
          "type": "string"
        }
      ],
      "stateMutability": "view",
      "type": "function"
    },
    {
      "inputs": [
        {
          "internalType": "uint256",
          "name": "",
          "type": "uint256"
        }
      ],
      "name": "dexes",
      "outputs": [
        {
          "internalType": "address",
          "name": "",
          "type": "address"
        }
      ],
      "stateMutability": "view",
      "type": "function"
    },
    {
      "inputs": [
        {
          "internalType": "address",
          "name": "_dex",
          "type": "address"
        },
        {
          "internalType": "address",
          "name": "_tokenIn",
          "type": "address"
        },
        {
          "internalType": "address",
          "name": "_tokenOut",
          "type": "address"
        },
        {
          "internalType": "uint256",
          "name": "_amountOut",
          "type": "uint256"
        }
      ],
      "name": "getAmountIn",
      "outputs": [
        {
          "internalType": "uint256",
          "name": "amountIn",
          "type": "uint256"
        },
        {
          "internalType": "address",
          "name": "dex",
          "type": "address"
        }
      ],
      "stateMutability": "view",
      "type": "function"
    },
    {
      "inputs": [
        {
          "internalType": "address",
          "name": "_dex",
          "type": "address"
        },
        {
          "internalType": "address",
          "name": "_tokenIn",
          "type": "address"
        },
        {
          "internalType": "address",
          "name": "_tokenOut",
          "type": "address"
        },
        {
          "internalType": "uint256",
          "name": "_amountIn",
          "type": "uint256"
        }
      ],
      "name": "getAmountOut",
      "outputs": [
        {
          "internalType": "uint256",
          "name": "amountOut",
          "type": "uint256"
        },
        {
          "internalType": "address",
          "name": "dex",
          "type": "address"
        }
      ],
      "stateMutability": "view",
      "type": "function"
    },
    {
      "inputs": [],
      "name": "manager",
      "outputs": [
        {
          "internalType": "address",
          "name": "",
          "type": "address"
        }
      ],
      "stateMutability": "view",
      "type": "function"
    },
    {
      "inputs": [
        {
          "internalType": "address",
          "name": "_dex",
          "type": "address"
        }
      ],
      "name": "removeDEX",
      "outputs": [],
      "stateMutability": "nonpayable",
      "type": "function"
    },
    {
      "inputs": [
        {
          "internalType": "address",
          "name": "_token",
          "type": "address"
        },
        {
          "internalType": "address",
          "name": "_to",
          "type": "address"
        }
      ],
      "name": "rescueFunds",
      "outputs": [],
      "stateMutability": "nonpayable",
      "type": "function"
    },
    {
      "inputs": [
        {
          "internalType": "address",
          "name": "_newManager",
          "type": "address"
        }
      ],
      "name": "setManager",
      "outputs": [],
      "stateMutability": "nonpayable",
      "type": "function"
    },
    {
      "inputs": [
        {
          "internalType": "address",
          "name": "_dex",
          "type": "address"
        },
        {
          "internalType": "address",
          "name": "_tokenIn",
          "type": "address"
        },
        {
          "internalType": "address",
          "name": "_tokenOut",
          "type": "address"
        },
        {
          "internalType": "uint256",
          "name": "_minAmountOut",
          "type": "uint256"
        },
        {
          "internalType": "address",
          "name": "_to",
          "type": "address"
        }
      ],
      "name": "swap",
      "outputs": [
        {
          "internalType": "uint256",
          "name": "amountOut",
          "type": "uint256"
        },
        {
          "internalType": "address",
          "name": "dex",
          "type": "address"
        }
      ],
      "stateMutability": "nonpayable",
      "type": "function"
    },
    {
      "inputs": [
        {
          "internalType": "address",
          "name": "_dex",
          "type": "address"
        },
        {
          "internalType": "address",
          "name": "_tokenIn",
          "type": "address"
        },
        {
          "internalType": "address",
          "name": "_tokenOut",
          "type": "address"
        }
      ],
      "name": "validatePair",
      "outputs": [
        {
          "internalType": "bool",
          "name": "",
          "type": "bool"
        }
      ],
      "stateMutability": "view",
      "type": "function"
    }
  ],
  "bytecode": "0x6080604052600160005534801561001557600080fd5b50600180546001600160a01b0319163317905561169d806100376000396000f3fe608060405234801561001057600080fd5b50600436106100cf5760003560e01c806388a02f231161008c578063d0ebdbe711610066578063d0ebdbe7146101e8578063d7176ca9146101fb578063dcbe43d91461020e578063ec2783091461022157600080fd5b806388a02f23146101925780638c8f3f82146101b2578063af0d9479146101c557600080fd5b80631ff9b6f2146100d4578063481c6a75146100e95780634f54d1ce1461011957806352041b5f146101475780636338a7c01461014f578063677fdac814610162575b600080fd5b6100e76100e23660046112ca565b610234565b005b6001546100fc906001600160a01b031681565b6040516001600160a01b0390911681526020015b60405180910390f35b6101396101273660046112af565b60046020526000908152604090205481565b604051908152602001610110565b600254610139565b6100fc61015d3660046114cd565b61031a565b61017561017036600461138b565b610344565b604080519283526001600160a01b03909116602083015201610110565b6101a56101a03660046114cd565b6104e3565b604051610110919061153f565b6100e76101c03660046112af565b61058f565b6101d86101d33660046112fd565b61086e565b6040519015158152602001610110565b6100e76101f63660046112af565b6109e9565b610175610209366004611340565b610a88565b6100e761021c3660046113e9565b610aa5565b61017561022f366004611340565b610bf9565b600054600114610257576040516303cb96db60e21b815260040160405180910390fd5b600080556001546001600160a01b0316331461028d5760405163a59d7f4d60e01b81523360048201526024015b60405180910390fd5b6040516370a0823160e01b815230600482015261031190839083906001600160a01b038316906370a082319060240160206040518083038186803b1580156102d457600080fd5b505afa1580156102e8573d6000803e3d6000fd5b505050506040513d601f19601f8201168201806040525081019061030c91906114e6565b610dcd565b50506001600055565b6002818154811061032a57600080fd5b6000918252602090912001546001600160a01b0316905081565b60008060005460011461036a576040516303cb96db60e21b815260040160405180910390fd5b60008080556040516370a0823160e01b81523060048201526001600160a01b038816906370a082319060240160206040518083038186803b1580156103ae57600080fd5b505afa1580156103c2573d6000803e3d6000fd5b505050506040513d601f19601f820116820180604052508101906103e691906114e6565b9050856001600160a01b0316876001600160a01b0316141561041857809250879150610413868585610dcd565b6104d1565b6001600160a01b0388166104365761043288888884610efe565b9850505b879150610446888888843061105e565b9250848310156104695760405163bb2875c360e01b815260040160405180910390fd5b610474868585610dcd565b604080516001600160a01b038981168252888116602083015291810183905260608101859052818a169186169033907fbcd252edaaf375d5ac5b4d39fe41496aade4a53dec09f82683b26c71956cd5c89060800160405180910390a45b50600160005590969095509350505050565b600381815481106104f357600080fd5b90600052602060002001600091509050805461050e906115b9565b80601f016020809104026020016040519081016040528092919081815260200182805461053a906115b9565b80156105875780601f1061055c57610100808354040283529160200191610587565b820191906000526020600020905b81548152906001019060200180831161056a57829003601f168201915b505050505081565b6001546001600160a01b031633146105bc5760405163a59d7f4d60e01b8152336004820152602401610284565b60006105c782611100565b600254909150600060036105dc600185611572565b815481106105ec576105ec61163b565b906000526020600020018054610601906115b9565b80601f016020809104026020016040519081016040528092919081815260200182805461062d906115b9565b801561067a5780601f1061064f5761010080835404028352916020019161067a565b820191906000526020600020905b81548152906001019060200180831161065d57829003601f168201915b50505050509050818310156107b1578260046000600261069b600187611572565b815481106106ab576106ab61163b565b60009182526020808320909101546001600160a01b0316835282019290925260400190205560026106dd600184611572565b815481106106ed576106ed61163b565b6000918252602090912001546001600160a01b0316600261070f600186611572565b8154811061071f5761071f61163b565b600091825260209091200180546001600160a01b0319166001600160a01b03929092169190911790556003610755600184611572565b815481106107655761076561163b565b90600052602060002001600360018561077e9190611572565b8154811061078e5761078e61163b565b906000526020600020019080546107a4906115b9565b6107af929190611147565b505b60028054806107c2576107c2611625565b600082815260209020810160001990810180546001600160a01b031916905501905560038054806107f5576107f5611625565b60019003818190600052602060002001600061081191906111d2565b90556001600160a01b038416600081815260046020526040808220919091555133907f9a889cbd34909c90806763fd27698d7d1aff51ecb7ca46ba34240533b3fc93e79061086090859061153f565b60405180910390a350505050565b60006001600160a01b0384166109565760025460005b8181101561094f576002818154811061089f5761089f61163b565b60009182526020909120015460405163b88c5f9160e01b81526001600160a01b03878116600483015286811660248301529091169063b88c5f919060440160206040518083038186803b1580156108f557600080fd5b505afa158015610909573d6000803e3d6000fd5b505050506040513d601f19601f8201168201806040525081019061092d91906114ab565b1561093d576001925050506109e2565b80610947816115f4565b915050610884565b50506109de565b60405163b88c5f9160e01b81526001600160a01b038481166004830152838116602483015285169063b88c5f919060440160206040518083038186803b15801561099f57600080fd5b505afa1580156109b3573d6000803e3d6000fd5b505050506040513d601f19601f820116820180604052508101906109d791906114ab565b90506109e2565b5060005b9392505050565b6001546001600160a01b03163314610a165760405163a59d7f4d60e01b8152336004820152602401610284565b33610a345760405163d92e233d60e01b815260040160405180910390fd5b600180546001600160a01b0319166001600160a01b0383169081179091556040519081527f54a6385aa0292b04e1ef8513253c17d1863f7cdfc87029d77fd55cc4c2e717e29060200160405180910390a150565b600080610a9786868686610efe565b915091505b94509492505050565b6001546001600160a01b03163314610ad25760405163a59d7f4d60e01b8152336004820152602401610284565b6001600160a01b03821660009081526004602052604090205415610b145760405163e3881dd160e01b81526001600160a01b0383166004820152602401610284565b6002805460018082019092557f405787fa12a823e0f2b7631cc41b3ba8828b3321ca811111fa75cd3aa3bb5ace0180546001600160a01b0319166001600160a01b0385161790556003805491820181556000528151610b9a917fc2575a0e9e593c00f959f8c92f12db2869c3395a3b0502d05e2516446f71f85b0190602084019061120f565b506002546001600160a01b0383166000818152600460205260409081902092909255905133907f84bc14b145b95a6508b287538f4c8375deff3970f253c5ccd9168e5f7bf9f50890610bed90859061153f565b60405180910390a35050565b600080836001600160a01b0316856001600160a01b03161415610c20575081905084610a9c565b6001600160a01b038616610d445760025460005b81811015610d3d57600060028281548110610c5157610c5161163b565b6000918252602090912001546040516353b609b560e01b81526001600160a01b03909116906353b609b590610c8e908b908b908b9060040161151b565b60206040518083038186803b158015610ca657600080fd5b505afa158015610cba573d6000803e3d6000fd5b505050506040513d601f19601f82011682018060405250810190610cde91906114e6565b9050841580610cf75750600081118015610cf757508481105b15610d2a5780945060028281548110610d1257610d1261163b565b6000918252602090912001546001600160a01b031693505b5080610d35816115f4565b915050610c34565b5050610a9c565b6040516353b609b560e01b81526001600160a01b038716906353b609b590610d749088908890889060040161151b565b60206040518083038186803b158015610d8c57600080fd5b505afa158015610da0573d6000803e3d6000fd5b505050506040513d601f19601f82011682018060405250810190610dc491906114e6565b96945050505050565b604080516001600160a01b038481166024830152604480830185905283518084039091018152606490920183526020820180516001600160e01b031663a9059cbb60e01b1790529151600092839290871691610e2991906114ff565b6000604051808303816000865af19150503d8060008114610e66576040519150601f19603f3d011682016040523d82523d6000602084013e610e6b565b606091505b5091509150818015610e95575080511580610e95575080806020019051810190610e9591906114ab565b610ef75760405162461bcd60e51b815260206004820152602d60248201527f5472616e7366657248656c7065723a3a736166655472616e736665723a20747260448201526c185b9cd9995c8819985a5b1959609a1b6064820152608401610284565b5050505050565b600080836001600160a01b0316856001600160a01b03161415610f25575081905084610a9c565b6001600160a01b03861661102e5760025460005b81811015610d3d57600060028281548110610f5657610f5661163b565b600091825260209091200154604051632550332960e11b81526001600160a01b0390911690634aa0665290610f93908b908b908b9060040161151b565b60206040518083038186803b158015610fab57600080fd5b505afa158015610fbf573d6000803e3d6000fd5b505050506040513d601f19601f82011682018060405250810190610fe391906114e6565b90508481111561101b57809450600282815481106110035761100361163b565b6000918252602090912001546001600160a01b031693505b5080611026816115f4565b915050610f39565b604051632550332960e11b81526001600160a01b03871690634aa0665290610d749088908890889060040161151b565b600061106b858785610dcd565b604051634998b10960e11b81526001600160a01b03868116600483015285811660248301528381166044830152871690639331621290606401602060405180830381600087803b1580156110be57600080fd5b505af11580156110d2573d6000803e3d6000fd5b505050506040513d601f19601f820116820180604052508101906110f691906114e6565b9695505050505050565b6001600160a01b038116600090815260046020526040902054806111425760405163a793973760e01b81526001600160a01b0383166004820152602401610284565b919050565b828054611153906115b9565b90600052602060002090601f01602090048101928261117557600085556111c2565b82601f1061118657805485556111c2565b828001600101855582156111c257600052602060002091601f016020900482015b828111156111c25782548255916001019190600101906111a7565b506111ce929150611283565b5090565b5080546111de906115b9565b6000825580601f106111ee575050565b601f01602090049060005260206000209081019061120c9190611283565b50565b82805461121b906115b9565b90600052602060002090601f01602090048101928261123d57600085556111c2565b82601f1061125657805160ff19168380011785556111c2565b828001600101855582156111c2579182015b828111156111c2578251825591602001919060010190611268565b5b808211156111ce5760008155600101611284565b80356001600160a01b038116811461114257600080fd5b6000602082840312156112c157600080fd5b6109e282611298565b600080604083850312156112dd57600080fd5b6112e683611298565b91506112f460208401611298565b90509250929050565b60008060006060848603121561131257600080fd5b61131b84611298565b925061132960208501611298565b915061133760408501611298565b90509250925092565b6000806000806080858703121561135657600080fd5b61135f85611298565b935061136d60208601611298565b925061137b60408601611298565b9396929550929360600135925050565b600080600080600060a086880312156113a357600080fd5b6113ac86611298565b94506113ba60208701611298565b93506113c860408701611298565b9250606086013591506113dd60808701611298565b90509295509295909350565b600080604083850312156113fc57600080fd5b61140583611298565b9150602083013567ffffffffffffffff8082111561142257600080fd5b818501915085601f83011261143657600080fd5b81358181111561144857611448611651565b604051601f8201601f19908116603f0116810190838211818310171561147057611470611651565b8160405282815288602084870101111561148957600080fd5b8260208601602083013760006020848301015280955050505050509250929050565b6000602082840312156114bd57600080fd5b815180151581146109e257600080fd5b6000602082840312156114df57600080fd5b5035919050565b6000602082840312156114f857600080fd5b5051919050565b60008251611511818460208701611589565b9190910192915050565b6001600160a01b039384168152919092166020820152604081019190915260600190565b602081526000825180602084015261155e816040850160208701611589565b601f01601f19169190910160400192915050565b6000828210156115845761158461160f565b500390565b60005b838110156115a457818101518382015260200161158c565b838111156115b3576000848401525b50505050565b600181811c908216806115cd57607f821691505b602082108114156115ee57634e487b7160e01b600052602260045260246000fd5b50919050565b60006000198214156116085761160861160f565b5060010190565b634e487b7160e01b600052601160045260246000fd5b634e487b7160e01b600052603160045260246000fd5b634e487b7160e01b600052603260045260246000fd5b634e487b7160e01b600052604160045260246000fdfea2646970667358221220a8b5cd3aa9bc193e33980bc92d7ddfc35e51f2254c7f770acad38c2addf9158b64736f6c63430008070033",
  "linkReferences": {},
  "deployedLinkReferences": {}
}