{
  "_format": "hh-sol-artifact-1",
  "contractName": "DEXAggregator",
  "sourceName": "contracts/DEXAggregator.sol",
  "abi": [
    {
      "inputs": [],
      "stateMutability": "nonpayable",
      "type": "constructor"
    },
    {
      "inputs": [
        {
          "internalType": "address",
          "name": "dex",
          "type": "address"
        }
      ],
      "name": "DEXExistsAlready",
      "type": "error"
    },
    {
      "inputs": [
        {
          "internalType": "address",
          "name": "dex",
          "type": "address"
        }
      ],
      "name": "DEXNotExists",
      "type": "error"
    },
    {
      "inputs": [
        {
          "internalType": "address",
          "name": "sender",
          "type": "address"
        }
      ],
      "name": "Forbidden",
      "type": "error"
    },
    {
      "inputs": [],
      "name": "InsufficientOutput",
      "type": "error"
    },
    {
      "inputs": [],
      "name": "Locked",
      "type": "error"
    },
    {
      "inputs": [],
      "name": "ZeroAddress",
      "type": "error"
    },
    {
      "anonymous": false,
      "inputs": [
        {
          "indexed": true,
          "internalType": "address",
          "name": "user",
          "type": "address"
        },
        {
          "indexed": true,
          "internalType": "address",
          "name": "dex",
          "type": "address"
        },
        {
          "indexed": false,
          "internalType": "string",
          "name": "dexName",
          "type": "string"
        }
      ],
      "name": "AddDEX",
      "type": "event"
    },
    {
      "anonymous": false,
      "inputs": [
        {
          "indexed": true,
          "internalType": "address",
          "name": "user",
          "type": "address"
        },
        {
          "indexed": true,
          "internalType": "address",
          "name": "dex",
          "type": "address"
        },
        {
          "indexed": false,
          "internalType": "string",
          "name": "dexName",
          "type": "string"
        }
      ],
      "name": "RemoveDEX",
      "type": "event"
    },
    {
      "anonymous": false,
      "inputs": [
        {
          "indexed": false,
          "internalType": "address",
          "name": "manager",
          "type": "address"
        }
      ],
      "name": "SetManager",
      "type": "event"
    },
    {
      "anonymous": false,
      "inputs": [
        {
          "indexed": true,
          "internalType": "address",
          "name": "user",
          "type": "address"
        },
        {
          "indexed": true,
          "internalType": "address",
          "name": "to",
          "type": "address"
        },
        {
          "indexed": true,
          "internalType": "address",
          "name": "dex",
          "type": "address"
        },
        {
          "indexed": false,
          "internalType": "address",
          "name": "_tokenIn",
          "type": "address"
        },
        {
          "indexed": false,
          "internalType": "address",
          "name": "_tokenOut",
          "type": "address"
        },
        {
          "indexed": false,
          "internalType": "uint256",
          "name": "amountIn",
          "type": "uint256"
        },
        {
          "indexed": false,
          "internalType": "uint256",
          "name": "amountOut",
          "type": "uint256"
        }
      ],
      "name": "Swap",
      "type": "event"
    },
    {
      "inputs": [
        {
          "internalType": "address",
          "name": "_dex",
          "type": "address"
        },
        {
          "internalType": "string",
          "name": "_dexName",
          "type": "string"
        }
      ],
      "name": "addDEX",
      "outputs": [],
      "stateMutability": "nonpayable",
      "type": "function"
    },
    {
      "inputs": [
        {
          "internalType": "address",
          "name": "",
          "type": "address"
        }
      ],
      "name": "dexIndex",
      "outputs": [
        {
          "internalType": "uint256",
          "name": "",
          "type": "uint256"
        }
      ],
      "stateMutability": "view",
      "type": "function"
    },
    {
      "inputs": [],
      "name": "dexLength",
      "outputs": [
        {
          "internalType": "uint256",
          "name": "",
          "type": "uint256"
        }
      ],
      "stateMutability": "view",
      "type": "function"
    },
    {
      "inputs": [
        {
          "internalType": "uint256",
          "name": "",
          "type": "uint256"
        }
      ],
      "name": "dexNames",
      "outputs": [
        {
          "internalType": "string",
          "name": "",
          "type": "string"
        }
      ],
      "stateMutability": "view",
      "type": "function"
    },
    {
      "inputs": [
        {
          "internalType": "uint256",
          "name": "",
          "type": "uint256"
        }
      ],
      "name": "dexes",
      "outputs": [
        {
          "internalType": "address",
          "name": "",
          "type": "address"
        }
      ],
      "stateMutability": "view",
      "type": "function"
    },
    {
      "inputs": [
        {
          "internalType": "address",
          "name": "_dex",
          "type": "address"
        },
        {
          "internalType": "address",
          "name": "_tokenIn",
          "type": "address"
        },
        {
          "internalType": "address",
          "name": "_tokenOut",
          "type": "address"
        },
        {
          "internalType": "uint256",
          "name": "_amountOut",
          "type": "uint256"
        }
      ],
      "name": "getAmountIn",
      "outputs": [
        {
          "internalType": "uint256",
          "name": "amountIn",
          "type": "uint256"
        },
        {
          "internalType": "address",
          "name": "dex",
          "type": "address"
        }
      ],
      "stateMutability": "view",
      "type": "function"
    },
    {
      "inputs": [
        {
          "internalType": "address",
          "name": "_dex",
          "type": "address"
        },
        {
          "internalType": "address",
          "name": "_tokenIn",
          "type": "address"
        },
        {
          "internalType": "address",
          "name": "_tokenOut",
          "type": "address"
        },
        {
          "internalType": "uint256",
          "name": "_amountIn",
          "type": "uint256"
        }
      ],
      "name": "getAmountOut",
      "outputs": [
        {
          "internalType": "uint256",
          "name": "amountOut",
          "type": "uint256"
        },
        {
          "internalType": "address",
          "name": "dex",
          "type": "address"
        }
      ],
      "stateMutability": "view",
      "type": "function"
    },
    {
      "inputs": [],
      "name": "manager",
      "outputs": [
        {
          "internalType": "address",
          "name": "",
          "type": "address"
        }
      ],
      "stateMutability": "view",
      "type": "function"
    },
    {
      "inputs": [
        {
          "internalType": "address",
          "name": "_dex",
          "type": "address"
        }
      ],
      "name": "removeDEX",
      "outputs": [],
      "stateMutability": "nonpayable",
      "type": "function"
    },
    {
      "inputs": [
        {
          "internalType": "address",
          "name": "_token",
          "type": "address"
        },
        {
          "internalType": "address",
          "name": "_to",
          "type": "address"
        }
      ],
      "name": "rescueFunds",
      "outputs": [],
      "stateMutability": "nonpayable",
      "type": "function"
    },
    {
      "inputs": [
        {
          "internalType": "address",
          "name": "_newManager",
          "type": "address"
        }
      ],
      "name": "setManager",
      "outputs": [],
      "stateMutability": "nonpayable",
      "type": "function"
    },
    {
      "inputs": [
        {
          "internalType": "address",
          "name": "_dex",
          "type": "address"
        },
        {
          "internalType": "address",
          "name": "_tokenIn",
          "type": "address"
        },
        {
          "internalType": "address",
          "name": "_tokenOut",
          "type": "address"
        },
        {
          "internalType": "uint256",
          "name": "_minAmountOut",
          "type": "uint256"
        },
        {
          "internalType": "address",
          "name": "_to",
          "type": "address"
        }
      ],
      "name": "swap",
      "outputs": [
        {
          "internalType": "uint256",
          "name": "amountOut",
          "type": "uint256"
        },
        {
          "internalType": "address",
          "name": "dex",
          "type": "address"
        }
      ],
      "stateMutability": "nonpayable",
      "type": "function"
    },
    {
      "inputs": [
        {
          "internalType": "address",
          "name": "_dex",
          "type": "address"
        },
        {
          "internalType": "address",
          "name": "_tokenIn",
          "type": "address"
        },
        {
          "internalType": "address",
          "name": "_tokenOut",
          "type": "address"
        }
      ],
      "name": "validatePair",
      "outputs": [
        {
          "internalType": "bool",
          "name": "",
          "type": "bool"
        }
      ],
      "stateMutability": "view",
      "type": "function"
    }
  ],
  "bytecode": "0x6080604052600160005534801561001557600080fd5b50600180546001600160a01b031916331790556116ac806100376000396000f3fe608060405234801561001057600080fd5b50600436106100cf5760003560e01c806388a02f231161008c578063d0ebdbe711610066578063d0ebdbe7146101e8578063d7176ca9146101fb578063dcbe43d91461020e578063ec2783091461022157600080fd5b806388a02f23146101925780638c8f3f82146101b2578063af0d9479146101c557600080fd5b80631ff9b6f2146100d4578063481c6a75146100e95780634f54d1ce1461011957806352041b5f146101475780636338a7c01461014f578063677fdac814610162575b600080fd5b6100e76100e23660046112d9565b610234565b005b6001546100fc906001600160a01b031681565b6040516001600160a01b0390911681526020015b60405180910390f35b6101396101273660046112be565b60046020526000908152604090205481565b604051908152602001610110565b600254610139565b6100fc61015d3660046114dc565b61031a565b61017561017036600461139a565b610344565b604080519283526001600160a01b03909116602083015201610110565b6101a56101a03660046114dc565b6104e3565b604051610110919061154e565b6100e76101c03660046112be565b61058f565b6101d86101d336600461130c565b61086e565b6040519015158152602001610110565b6100e76101f63660046112be565b6109e9565b61017561020936600461134f565b610a88565b6100e761021c3660046113f8565b610aa5565b61017561022f36600461134f565b610bf9565b600054600114610257576040516303cb96db60e21b815260040160405180910390fd5b600080556001546001600160a01b0316331461028d5760405163a59d7f4d60e01b81523360048201526024015b60405180910390fd5b6040516370a0823160e01b815230600482015261031190839083906001600160a01b038316906370a082319060240160206040518083038186803b1580156102d457600080fd5b505afa1580156102e8573d6000803e3d6000fd5b505050506040513d601f19601f8201168201806040525081019061030c91906114f5565b610c08565b50506001600055565b6002818154811061032a57600080fd5b6000918252602090912001546001600160a01b0316905081565b60008060005460011461036a576040516303cb96db60e21b815260040160405180910390fd5b60008080556040516370a0823160e01b81523060048201526001600160a01b038816906370a082319060240160206040518083038186803b1580156103ae57600080fd5b505afa1580156103c2573d6000803e3d6000fd5b505050506040513d601f19601f820116820180604052508101906103e691906114f5565b9050856001600160a01b0316876001600160a01b0316141561041857809250879150610413868585610c08565b6104d1565b6001600160a01b0388166104365761043288888884610d39565b9850505b8791506104468888888430610ef9565b9250848310156104695760405163bb2875c360e01b815260040160405180910390fd5b610474868585610c08565b604080516001600160a01b038981168252888116602083015291810183905260608101859052818a169186169033907fbcd252edaaf375d5ac5b4d39fe41496aade4a53dec09f82683b26c71956cd5c89060800160405180910390a45b50600160005590969095509350505050565b600381815481106104f357600080fd5b90600052602060002001600091509050805461050e906115c8565b80601f016020809104026020016040519081016040528092919081815260200182805461053a906115c8565b80156105875780601f1061055c57610100808354040283529160200191610587565b820191906000526020600020905b81548152906001019060200180831161056a57829003601f168201915b505050505081565b6001546001600160a01b031633146105bc5760405163a59d7f4d60e01b8152336004820152602401610284565b60006105c782610f9b565b600254909150600060036105dc600185611581565b815481106105ec576105ec61164a565b906000526020600020018054610601906115c8565b80601f016020809104026020016040519081016040528092919081815260200182805461062d906115c8565b801561067a5780601f1061064f5761010080835404028352916020019161067a565b820191906000526020600020905b81548152906001019060200180831161065d57829003601f168201915b50505050509050818310156107b1578260046000600261069b600187611581565b815481106106ab576106ab61164a565b60009182526020808320909101546001600160a01b0316835282019290925260400190205560026106dd600184611581565b815481106106ed576106ed61164a565b6000918252602090912001546001600160a01b0316600261070f600186611581565b8154811061071f5761071f61164a565b600091825260209091200180546001600160a01b0319166001600160a01b03929092169190911790556003610755600184611581565b815481106107655761076561164a565b90600052602060002001600360018561077e9190611581565b8154811061078e5761078e61164a565b906000526020600020019080546107a4906115c8565b6107af929190611156565b505b60028054806107c2576107c2611634565b600082815260209020810160001990810180546001600160a01b031916905501905560038054806107f5576107f5611634565b60019003818190600052602060002001600061081191906111e1565b90556001600160a01b038416600081815260046020526040808220919091555133907f9a889cbd34909c90806763fd27698d7d1aff51ecb7ca46ba34240533b3fc93e79061086090859061154e565b60405180910390a350505050565b60006001600160a01b0384166109565760025460005b8181101561094f576002818154811061089f5761089f61164a565b60009182526020909120015460405163b88c5f9160e01b81526001600160a01b03878116600483015286811660248301529091169063b88c5f919060440160206040518083038186803b1580156108f557600080fd5b505afa158015610909573d6000803e3d6000fd5b505050506040513d601f19601f8201168201806040525081019061092d91906114ba565b1561093d576001925050506109e2565b8061094781611603565b915050610884565b50506109de565b60405163b88c5f9160e01b81526001600160a01b038481166004830152838116602483015285169063b88c5f919060440160206040518083038186803b15801561099f57600080fd5b505afa1580156109b3573d6000803e3d6000fd5b505050506040513d601f19601f820116820180604052508101906109d791906114ba565b90506109e2565b5060005b9392505050565b6001546001600160a01b03163314610a165760405163a59d7f4d60e01b8152336004820152602401610284565b33610a345760405163d92e233d60e01b815260040160405180910390fd5b600180546001600160a01b0319166001600160a01b0383169081179091556040519081527f54a6385aa0292b04e1ef8513253c17d1863f7cdfc87029d77fd55cc4c2e717e29060200160405180910390a150565b600080610a9786868686610d39565b915091505b94509492505050565b6001546001600160a01b03163314610ad25760405163a59d7f4d60e01b8152336004820152602401610284565b6001600160a01b03821660009081526004602052604090205415610b145760405163e3881dd160e01b81526001600160a01b0383166004820152602401610284565b6002805460018082019092557f405787fa12a823e0f2b7631cc41b3ba8828b3321ca811111fa75cd3aa3bb5ace0180546001600160a01b0319166001600160a01b0385161790556003805491820181556000528151610b9a917fc2575a0e9e593c00f959f8c92f12db2869c3395a3b0502d05e2516446f71f85b0190602084019061121e565b506002546001600160a01b0383166000818152600460205260409081902092909255905133907f84bc14b145b95a6508b287538f4c8375deff3970f253c5ccd9168e5f7bf9f50890610bed90859061154e565b60405180910390a35050565b600080610a9786868686610fe2565b604080516001600160a01b038481166024830152604480830185905283518084039091018152606490920183526020820180516001600160e01b031663a9059cbb60e01b1790529151600092839290871691610c64919061150e565b6000604051808303816000865af19150503d8060008114610ca1576040519150601f19603f3d011682016040523d82523d6000602084013e610ca6565b606091505b5091509150818015610cd0575080511580610cd0575080806020019051810190610cd091906114ba565b610d325760405162461bcd60e51b815260206004820152602d60248201527f5472616e7366657248656c7065723a3a736166655472616e736665723a20747260448201526c185b9cd9995c8819985a5b1959609a1b6064820152608401610284565b5050505050565b600080836001600160a01b0316856001600160a01b03161415610d60575081905084610a9c565b6001600160a01b038616610e705760025460005b81811015610e6957600060028281548110610d9157610d9161164a565b600091825260209091200154604051632550332960e11b81526001600160a01b0390911690634aa0665290610dce908b908b908b9060040161152a565b60206040518083038186803b158015610de657600080fd5b505afa158015610dfa573d6000803e3d6000fd5b505050506040513d601f19601f82011682018060405250810190610e1e91906114f5565b905084811115610e565780945060028281548110610e3e57610e3e61164a565b6000918252602090912001546001600160a01b031693505b5080610e6181611603565b915050610d74565b5050610a9c565b604051632550332960e11b81526001600160a01b03871690634aa0665290610ea09088908890889060040161152a565b60206040518083038186803b158015610eb857600080fd5b505afa158015610ecc573d6000803e3d6000fd5b505050506040513d601f19601f82011682018060405250810190610ef091906114f5565b96945050505050565b6000610f06858785610c08565b604051634998b10960e11b81526001600160a01b03868116600483015285811660248301528381166044830152871690639331621290606401602060405180830381600087803b158015610f5957600080fd5b505af1158015610f6d573d6000803e3d6000fd5b505050506040513d601f19601f82011682018060405250810190610f9191906114f5565b9695505050505050565b6001600160a01b03811660009081526004602052604090205480610fdd5760405163a793973760e01b81526001600160a01b0383166004820152602401610284565b919050565b600080836001600160a01b0316856001600160a01b03161415611009575081905084610a9c565b6001600160a01b0386166111265760025460005b81811015610e695760006002828154811061103a5761103a61164a565b6000918252602090912001546040516353b609b560e01b81526001600160a01b03909116906353b609b590611077908b908b908b9060040161152a565b60206040518083038186803b15801561108f57600080fd5b505afa1580156110a3573d6000803e3d6000fd5b505050506040513d601f19601f820116820180604052508101906110c791906114f5565b90508415806110e057506000811180156110e057508481105b1561111357809450600282815481106110fb576110fb61164a565b6000918252602090912001546001600160a01b031693505b508061111e81611603565b91505061101d565b6040516353b609b560e01b81526001600160a01b038716906353b609b590610ea09088908890889060040161152a565b828054611162906115c8565b90600052602060002090601f01602090048101928261118457600085556111d1565b82601f1061119557805485556111d1565b828001600101855582156111d157600052602060002091601f016020900482015b828111156111d15782548255916001019190600101906111b6565b506111dd929150611292565b5090565b5080546111ed906115c8565b6000825580601f106111fd575050565b601f01602090049060005260206000209081019061121b9190611292565b50565b82805461122a906115c8565b90600052602060002090601f01602090048101928261124c57600085556111d1565b82601f1061126557805160ff19168380011785556111d1565b828001600101855582156111d1579182015b828111156111d1578251825591602001919060010190611277565b5b808211156111dd5760008155600101611293565b80356001600160a01b0381168114610fdd57600080fd5b6000602082840312156112d057600080fd5b6109e2826112a7565b600080604083850312156112ec57600080fd5b6112f5836112a7565b9150611303602084016112a7565b90509250929050565b60008060006060848603121561132157600080fd5b61132a846112a7565b9250611338602085016112a7565b9150611346604085016112a7565b90509250925092565b6000806000806080858703121561136557600080fd5b61136e856112a7565b935061137c602086016112a7565b925061138a604086016112a7565b9396929550929360600135925050565b600080600080600060a086880312156113b257600080fd5b6113bb866112a7565b94506113c9602087016112a7565b93506113d7604087016112a7565b9250606086013591506113ec608087016112a7565b90509295509295909350565b6000806040838503121561140b57600080fd5b611414836112a7565b9150602083013567ffffffffffffffff8082111561143157600080fd5b818501915085601f83011261144557600080fd5b81358181111561145757611457611660565b604051601f8201601f19908116603f0116810190838211818310171561147f5761147f611660565b8160405282815288602084870101111561149857600080fd5b8260208601602083013760006020848301015280955050505050509250929050565b6000602082840312156114cc57600080fd5b815180151581146109e257600080fd5b6000602082840312156114ee57600080fd5b5035919050565b60006020828403121561150757600080fd5b5051919050565b60008251611520818460208701611598565b9190910192915050565b6001600160a01b039384168152919092166020820152604081019190915260600190565b602081526000825180602084015261156d816040850160208701611598565b601f01601f19169190910160400192915050565b6000828210156115935761159361161e565b500390565b60005b838110156115b357818101518382015260200161159b565b838111156115c2576000848401525b50505050565b600181811c908216806115dc57607f821691505b602082108114156115fd57634e487b7160e01b600052602260045260246000fd5b50919050565b60006000198214156116175761161761161e565b5060010190565b634e487b7160e01b600052601160045260246000fd5b634e487b7160e01b600052603160045260246000fd5b634e487b7160e01b600052603260045260246000fd5b634e487b7160e01b600052604160045260246000fdfea26469706673582212200993e73cf72767ecd7ef53e2ab0ea65aeefee284f424d74c4233da8e93499e2764736f6c63430008070033",
  "linkReferences": {},
  "deployedLinkReferences": {}
}