{
  "_format": "hh-sol-artifact-1",
  "contractName": "LiquidationMarker",
  "sourceName": "contracts/LiquidationMarker.sol",
  "abi": [
    {
      "inputs": [
        {
          "internalType": "address",
          "name": "_keeper",
          "type": "address"
        },
        {
          "internalType": "address",
          "name": "_positionStorageAddress",
          "type": "address"
        },
        {
          "internalType": "uint256",
          "name": "_batchSize",
          "type": "uint256"
        },
        {
          "internalType": "uint256",
          "name": "_monitorSize",
          "type": "uint256"
        },
        {
          "internalType": "uint256",
          "name": "_startIndex",
          "type": "uint256"
        }
      ],
      "stateMutability": "nonpayable",
      "type": "constructor"
    },
    {
      "inputs": [
        {
          "internalType": "address",
          "name": "sender",
          "type": "address"
        }
      ],
      "name": "Forbidden",
      "type": "error"
    },
    {
      "inputs": [
        {
          "internalType": "uint256",
          "name": "value",
          "type": "uint256"
        },
        {
          "internalType": "uint256",
          "name": "max",
          "type": "uint256"
        }
      ],
      "name": "TooHighValue",
      "type": "error"
    },
    {
      "inputs": [
        {
          "internalType": "uint256",
          "name": "value",
          "type": "uint256"
        },
        {
          "internalType": "uint256",
          "name": "min",
          "type": "uint256"
        }
      ],
      "name": "TooLowValue",
      "type": "error"
    },
    {
      "anonymous": false,
      "inputs": [
        {
          "indexed": false,
          "internalType": "uint256",
          "name": "count",
          "type": "uint256"
        },
        {
          "indexed": false,
          "internalType": "bytes",
          "name": "performData",
          "type": "bytes"
        },
        {
          "indexed": false,
          "internalType": "uint256",
          "name": "usedGas",
          "type": "uint256"
        },
        {
          "indexed": false,
          "internalType": "uint256",
          "name": "gasPrice",
          "type": "uint256"
        }
      ],
      "name": "ProcessBatch",
      "type": "event"
    },
    {
      "anonymous": false,
      "inputs": [
        {
          "indexed": false,
          "internalType": "uint256",
          "name": "batchSize",
          "type": "uint256"
        }
      ],
      "name": "SetBatchSize",
      "type": "event"
    },
    {
      "anonymous": false,
      "inputs": [
        {
          "indexed": false,
          "internalType": "address",
          "name": "keeper",
          "type": "address"
        }
      ],
      "name": "SetKeeper",
      "type": "event"
    },
    {
      "anonymous": false,
      "inputs": [
        {
          "indexed": false,
          "internalType": "address",
          "name": "manager",
          "type": "address"
        }
      ],
      "name": "SetManager",
      "type": "event"
    },
    {
      "anonymous": false,
      "inputs": [
        {
          "indexed": false,
          "internalType": "uint256",
          "name": "monitorSize",
          "type": "uint256"
        }
      ],
      "name": "SetMonitorSize",
      "type": "event"
    },
    {
      "anonymous": false,
      "inputs": [
        {
          "indexed": false,
          "internalType": "address",
          "name": "positionStorageAddress",
          "type": "address"
        }
      ],
      "name": "SetPositionStorage",
      "type": "event"
    },
    {
      "anonymous": false,
      "inputs": [
        {
          "indexed": false,
          "internalType": "uint256",
          "name": "startIndex",
          "type": "uint256"
        }
      ],
      "name": "SetStartIndex",
      "type": "event"
    },
    {
      "inputs": [],
      "name": "batchSize",
      "outputs": [
        {
          "internalType": "uint256",
          "name": "",
          "type": "uint256"
        }
      ],
      "stateMutability": "view",
      "type": "function"
    },
    {
      "inputs": [
        {
          "internalType": "bytes",
          "name": "",
          "type": "bytes"
        }
      ],
      "name": "checkUpkeep",
      "outputs": [
        {
          "internalType": "bool",
          "name": "upkeepNeeded",
          "type": "bool"
        },
        {
          "internalType": "bytes",
          "name": "performData",
          "type": "bytes"
        }
      ],
      "stateMutability": "view",
      "type": "function"
    },
    {
      "inputs": [],
      "name": "checker",
      "outputs": [
        {
          "internalType": "bool",
          "name": "canExec",
          "type": "bool"
        },
        {
          "internalType": "bytes",
          "name": "execPayload",
          "type": "bytes"
        }
      ],
      "stateMutability": "view",
      "type": "function"
    },
    {
      "inputs": [],
      "name": "keeper",
      "outputs": [
        {
          "internalType": "address",
          "name": "",
          "type": "address"
        }
      ],
      "stateMutability": "view",
      "type": "function"
    },
    {
      "inputs": [],
      "name": "manager",
      "outputs": [
        {
          "internalType": "address",
          "name": "",
          "type": "address"
        }
      ],
      "stateMutability": "view",
      "type": "function"
    },
    {
      "inputs": [],
      "name": "monitorSize",
      "outputs": [
        {
          "internalType": "uint256",
          "name": "",
          "type": "uint256"
        }
      ],
      "stateMutability": "view",
      "type": "function"
    },
    {
      "inputs": [
        {
          "internalType": "bytes",
          "name": "_performData",
          "type": "bytes"
        }
      ],
      "name": "performUpkeep",
      "outputs": [],
      "stateMutability": "nonpayable",
      "type": "function"
    },
    {
      "inputs": [],
      "name": "positionStorageAddress",
      "outputs": [
        {
          "internalType": "address",
          "name": "",
          "type": "address"
        }
      ],
      "stateMutability": "view",
      "type": "function"
    },
    {
      "inputs": [
        {
          "internalType": "uint256",
          "name": "_batchSize",
          "type": "uint256"
        }
      ],
      "name": "setBatchSize",
      "outputs": [],
      "stateMutability": "nonpayable",
      "type": "function"
    },
    {
      "inputs": [
        {
          "internalType": "address",
          "name": "_keeper",
          "type": "address"
        }
      ],
      "name": "setKeeper",
      "outputs": [],
      "stateMutability": "nonpayable",
      "type": "function"
    },
    {
      "inputs": [
        {
          "internalType": "address",
          "name": "_manager",
          "type": "address"
        }
      ],
      "name": "setManager",
      "outputs": [],
      "stateMutability": "nonpayable",
      "type": "function"
    },
    {
      "inputs": [
        {
          "internalType": "uint256",
          "name": "_monitorSize",
          "type": "uint256"
        }
      ],
      "name": "setMonitorSize",
      "outputs": [],
      "stateMutability": "nonpayable",
      "type": "function"
    },
    {
      "inputs": [
        {
          "internalType": "address",
          "name": "_positionStorageAddress",
          "type": "address"
        }
      ],
      "name": "setPositionStorage",
      "outputs": [],
      "stateMutability": "nonpayable",
      "type": "function"
    },
    {
      "inputs": [
        {
          "internalType": "uint256",
          "name": "_startIndex",
          "type": "uint256"
        }
      ],
      "name": "setStartIndex",
      "outputs": [],
      "stateMutability": "nonpayable",
      "type": "function"
    },
    {
      "inputs": [],
      "name": "startIndex",
      "outputs": [
        {
          "internalType": "uint256",
          "name": "",
          "type": "uint256"
        }
      ],
      "stateMutability": "view",
      "type": "function"
    }
  ],
  "bytecode": "0x608060405234801561001057600080fd5b506040516113eb3803806113eb83398101604081905261002f91610097565b600080546001600160a01b03199081163317909155600180546001600160a01b0397881690831617905560028054959096169416939093179093556003556004919091556005556100e5565b80516001600160a01b038116811461009257600080fd5b919050565b600080600080600060a086880312156100af57600080fd5b6100b88661007b565b94506100c66020870161007b565b6040870151606088015160809098015196999198509695945092505050565b6112f7806100f46000396000f3fe608060405234801561001057600080fd5b50600436106100f55760003560e01c8063860965c611610097578063cfd06d9811610066578063cfd06d98146101e7578063d0ebdbe7146101fa578063e427d08c1461020d578063f4daaba11461022057600080fd5b8063860965c6146101b05780639bb0dafa146101b9578063aced1661146101cc578063cf5303cf146101df57600080fd5b8063576f35e3116100d3578063576f35e3146101565780635ff7d9d5146101695780636e04ff0d1461017c578063748747e61461019d57600080fd5b80633e0e828b146100fa5780634585e33b14610116578063481c6a751461012b575b600080fd5b61010360055481565b6040519081526020015b60405180910390f35b610129610124366004610f5c565b610229565b005b60005461013e906001600160a01b031681565b6040516001600160a01b03909116815260200161010d565b6101296101643660046110af565b610450565b6101296101773660046110af565b6104ec565b61018f61018a366004610f5c565b61054e565b60405161010d92919061115d565b6101296101ab366004610e51565b6107d4565b61010360045481565b6101296101c73660046110af565b61084f565b60015461013e906001600160a01b031681565b61018f6108e2565b6101296101f5366004610e51565b610b9d565b610129610208366004610e51565b610c18565b60025461013e906001600160a01b031681565b61010360035481565b6002546001600160a01b031660005a905060008061024985870187610e75565b9150915060005b818110156103fe576000856001600160a01b031663f7a5f25485848151811061027b5761027b61127d565b60200260200101516040518263ffffffff1660e01b81526004016102a191815260200190565b60206040518083038186803b1580156102b957600080fd5b505afa1580156102cd573d6000803e3d6000fd5b505050506040513d601f19601f820116820180604052508101906102f19190610f43565b905080156103eb5760006001600160a01b03871663f7a95a9e610315600185611235565b6040518263ffffffff1660e01b815260040161033391815260200190565b6103a06040518083038186803b15801561034c57600080fd5b505afa158015610360573d6000803e3d6000fd5b505050506040513d601f19601f820116820180604052508101906103849190610fce565b80516040516349a4d1d160e01b81529192506001600160a01b038916916349a4d1d1916103b79160040190815260200190565b600060405180830381600087803b1580156103d157600080fd5b505af11580156103e5573d6000803e3d6000fd5b50505050505b50806103f68161124c565b915050610250565b507fd1d8c94a101352389a2fadcdc79eb2ec660d64769f14a1e89c50c6d22225ce8b8187875a61042e9088611235565b3a604051610440959493929190611193565b60405180910390a1505050505050565b6000546001600160a01b031633146104825760405163a59d7f4d60e01b81523360048201526024015b60405180910390fd5b6004548111156104b05760048054604051637150bba160e01b81529182018390526024820152604401610479565b60038190556040518181527fe7589087ca18f0ad76e3a457747806de5e2432f4285837617205c045ba950fb6906020015b60405180910390a150565b6000546001600160a01b031633146105195760405163a59d7f4d60e01b8152336004820152602401610479565b60058190556040518181527ffb0b2459ef0b436ea50d577db242217edfa1e86a7404361aaae9b6bb406b7e2f906020016104e1565b6002546003546000916060916001600160a01b0390911690839067ffffffffffffffff81111561058057610580611293565b6040519080825280602002602001820160405280156105a9578160200160208202803683370190505b5090506000806000846001600160a01b031663a827acf56040518163ffffffff1660e01b815260040160206040518083038186803b1580156105ea57600080fd5b505afa1580156105fe573d6000803e3d6000fd5b505050506040513d601f19601f820116820180604052508101906106229190610f43565b6005549091505b818110156107985760405163da23479f60e01b8152600481018290526000906001600160a01b0388169063da23479f9060240160206040518083038186803b15801561067457600080fd5b505afa158015610688573d6000803e3d6000fd5b505050506040513d601f19601f820116820180604052508101906106ac9190610f43565b60405163e5944f0160e01b8152600481018290529091506001600160a01b0388169063e5944f019060240160206040518083038186803b1580156106ef57600080fd5b505afa158015610703573d6000803e3d6000fd5b505050506040513d601f19601f820116820180604052508101906107279190610f28565b15610758578086868151811061073f5761073f61127d565b6020908102919091010152846107548161124c565b9550505b836107628161124c565b9450506004548414156107755750610798565b6003548514156107855750610798565b50806107908161124c565b915050610629565b508215801597506107c85783836040516020016107b6929190611115565b60405160208183030381529060405295505b50505050509250929050565b6000546001600160a01b031633146108015760405163a59d7f4d60e01b8152336004820152602401610479565b600180546001600160a01b0319166001600160a01b0383169081179091556040519081527fefb5cfa1a8690c124332ab93324539c5c9c4be03f28aeb8be86f2d8a0c9fb99b906020016104e1565b6000546001600160a01b0316331461087c5760405163a59d7f4d60e01b8152336004820152602401610479565b6003548110156108ad5760035460405163102a6c2760e01b8152610479918391600401918252602082015260400190565b60048190556040518181527f8f7e75c44358384d270505281bef6ad973e53b3785b6d722c4f279f1521d1560906020016104e1565b6002546003546000916060916001600160a01b0390911690839067ffffffffffffffff81111561091457610914611293565b60405190808252806020026020018201604052801561093d578160200160208202803683370190505b5090506000806000846001600160a01b031663a827acf56040518163ffffffff1660e01b815260040160206040518083038186803b15801561097e57600080fd5b505afa158015610992573d6000803e3d6000fd5b505050506040513d601f19601f820116820180604052508101906109b69190610f43565b6005549091505b81811015610b2c5760405163da23479f60e01b8152600481018290526000906001600160a01b0388169063da23479f9060240160206040518083038186803b158015610a0857600080fd5b505afa158015610a1c573d6000803e3d6000fd5b505050506040513d601f19601f82011682018060405250810190610a409190610f43565b60405163e5944f0160e01b8152600481018290529091506001600160a01b0388169063e5944f019060240160206040518083038186803b158015610a8357600080fd5b505afa158015610a97573d6000803e3d6000fd5b505050506040513d601f19601f82011682018060405250810190610abb9190610f28565b15610aec5780868681518110610ad357610ad361127d565b602090810291909101015284610ae88161124c565b9550505b83610af68161124c565b945050600454841415610b095750610b2c565b600354851415610b195750610b2c565b5080610b248161124c565b9150506109bd565b50821580159750610b94578383604051602001610b4a929190611115565b60408051601f1981840301815290829052610b6791602401611180565b60408051601f198184030181529190526020810180516001600160e01b0316634585e33b60e01b17905295505b50505050509091565b6000546001600160a01b03163314610bca5760405163a59d7f4d60e01b8152336004820152602401610479565b600280546001600160a01b0319166001600160a01b0383169081179091556040519081527f632bd7239e9c1fdf0211407c2e23a3f4e7acd95f0cc1870a95afb701c0940010906020016104e1565b6000546001600160a01b03163314610c455760405163a59d7f4d60e01b8152336004820152602401610479565b600080546001600160a01b0319166001600160a01b0383169081179091556040519081527f54a6385aa0292b04e1ef8513253c17d1863f7cdfc87029d77fd55cc4c2e717e2906020016104e1565b8051610c9e816112a9565b919050565b80518015158114610c9e57600080fd5b600060a08284031215610cc557600080fd5b60405160a0810181811067ffffffffffffffff82111715610ce857610ce8611293565b80604052508091508251610cfb816112a9565b80825250602083015160208201526040830151604082015260608301516060820152608083015160808201525092915050565b600060408284031215610d4057600080fd5b6040516040810181811067ffffffffffffffff82111715610d6357610d63611293565b80604052508091508251610d76816112a9565b8152602092830151920191909152919050565b6000610100808385031215610d9d57600080fd5b6040519081019067ffffffffffffffff82118183101715610dc057610dc0611293565b81604052809250610dd084610ca3565b8152610dde60208501610ca3565b6020820152610def60408501610ca3565b6040820152610e0060608501610ca3565b6060820152610e1160808501610ca3565b6080820152610e2260a08501610ca3565b60a0820152610e3360c08501610ca3565b60c0820152610e4460e08501610ca3565b60e0820152505092915050565b600060208284031215610e6357600080fd5b8135610e6e816112a9565b9392505050565b60008060408385031215610e8857600080fd5b823567ffffffffffffffff80821115610ea057600080fd5b818501915085601f830112610eb457600080fd5b8135602082821115610ec857610ec8611293565b8160051b9250610ed9818401611204565b8281528181019085830185870184018b1015610ef457600080fd5b600096505b84871015610f17578035835260019690960195918301918301610ef9565b509997909101359750505050505050565b600060208284031215610f3a57600080fd5b610e6e82610ca3565b600060208284031215610f5557600080fd5b5051919050565b60008060208385031215610f6f57600080fd5b823567ffffffffffffffff80821115610f8757600080fd5b818501915085601f830112610f9b57600080fd5b813581811115610faa57600080fd5b866020828501011115610fbc57600080fd5b60209290920196919550909350505050565b60006103a08284031215610fe157600080fd5b610fe96111da565b82518152610ff960208401610c93565b602082015261100a60408401610c93565b604082015261101c8460608501610cb3565b606082015261010061103085828601610d2e565b608083015261014061104486828701610cb3565b60a08401526101e085015160c084015261020085015160e084015261022085015182840152610240850151610120840152611083866102608701610d89565b90830152506110956103608401610c93565b610160820152610380929092015161018083015250919050565b6000602082840312156110c157600080fd5b5035919050565b6000815180845260005b818110156110ee576020818501810151868301820152016110d2565b81811115611100576000602083870101525b50601f01601f19169290920160200192915050565b604080825283519082018190526000906020906060840190828701845b8281101561114e57815184529284019290840190600101611132565b50505092019290925292915050565b821515815260406020820152600061117860408301846110c8565b949350505050565b602081526000610e6e60208301846110c8565b85815260806020820152836080820152838560a0830137600060a08583010152600060a0601f19601f87011683010190508360408301528260608301529695505050505050565b6040516101a0810167ffffffffffffffff811182821017156111fe576111fe611293565b60405290565b604051601f8201601f1916810167ffffffffffffffff8111828210171561122d5761122d611293565b604052919050565b60008282101561124757611247611267565b500390565b600060001982141561126057611260611267565b5060010190565b634e487b7160e01b600052601160045260246000fd5b634e487b7160e01b600052603260045260246000fd5b634e487b7160e01b600052604160045260246000fd5b6001600160a01b03811681146112be57600080fd5b5056fea26469706673582212207a37702b742e5bbdc4578059214fabc6f5fbd5af3e52515b106be648bd416cbb64736f6c63430008070033",
  "linkReferences": {},
  "deployedLinkReferences": {}
}