{
  "_format": "hh-sol-artifact-1",
  "contractName": "LiquidationMarker",
  "sourceName": "contracts/LiquidationMarker.sol",
  "abi": [
    {
      "inputs": [
        {
          "internalType": "address",
          "name": "_keeper",
          "type": "address"
        },
        {
          "internalType": "address",
          "name": "_positionStorageAddress",
          "type": "address"
        },
        {
          "internalType": "uint256",
          "name": "_batchSize",
          "type": "uint256"
        },
        {
          "internalType": "uint256",
          "name": "_monitorSize",
          "type": "uint256"
        },
        {
          "internalType": "uint256",
          "name": "_startIndex",
          "type": "uint256"
        }
      ],
      "stateMutability": "nonpayable",
      "type": "constructor"
    },
    {
      "inputs": [
        {
          "internalType": "address",
          "name": "sender",
          "type": "address"
        }
      ],
      "name": "Forbidden",
      "type": "error"
    },
    {
      "inputs": [
        {
          "internalType": "uint256",
          "name": "value",
          "type": "uint256"
        },
        {
          "internalType": "uint256",
          "name": "max",
          "type": "uint256"
        }
      ],
      "name": "TooHighValue",
      "type": "error"
    },
    {
      "inputs": [
        {
          "internalType": "uint256",
          "name": "value",
          "type": "uint256"
        },
        {
          "internalType": "uint256",
          "name": "min",
          "type": "uint256"
        }
      ],
      "name": "TooLowValue",
      "type": "error"
    },
    {
      "anonymous": false,
      "inputs": [
        {
          "indexed": false,
          "internalType": "uint256",
          "name": "count",
          "type": "uint256"
        },
        {
          "indexed": false,
          "internalType": "bytes",
          "name": "performData",
          "type": "bytes"
        },
        {
          "indexed": false,
          "internalType": "uint256",
          "name": "usedGas",
          "type": "uint256"
        },
        {
          "indexed": false,
          "internalType": "uint256",
          "name": "gasPrice",
          "type": "uint256"
        }
      ],
      "name": "ProcessBatch",
      "type": "event"
    },
    {
      "anonymous": false,
      "inputs": [
        {
          "indexed": false,
          "internalType": "uint256",
          "name": "batchSize",
          "type": "uint256"
        }
      ],
      "name": "SetBatchSize",
      "type": "event"
    },
    {
      "anonymous": false,
      "inputs": [
        {
          "indexed": false,
          "internalType": "address",
          "name": "keeper",
          "type": "address"
        }
      ],
      "name": "SetKeeper",
      "type": "event"
    },
    {
      "anonymous": false,
      "inputs": [
        {
          "indexed": false,
          "internalType": "address",
          "name": "manager",
          "type": "address"
        }
      ],
      "name": "SetManager",
      "type": "event"
    },
    {
      "anonymous": false,
      "inputs": [
        {
          "indexed": false,
          "internalType": "uint256",
          "name": "monitorSize",
          "type": "uint256"
        }
      ],
      "name": "SetMonitorSize",
      "type": "event"
    },
    {
      "anonymous": false,
      "inputs": [
        {
          "indexed": false,
          "internalType": "address",
          "name": "positionStorageAddress",
          "type": "address"
        }
      ],
      "name": "SetPositionStorage",
      "type": "event"
    },
    {
      "anonymous": false,
      "inputs": [
        {
          "indexed": false,
          "internalType": "uint256",
          "name": "startIndex",
          "type": "uint256"
        }
      ],
      "name": "SetStartIndex",
      "type": "event"
    },
    {
      "inputs": [],
      "name": "batchSize",
      "outputs": [
        {
          "internalType": "uint256",
          "name": "",
          "type": "uint256"
        }
      ],
      "stateMutability": "view",
      "type": "function"
    },
    {
      "inputs": [
        {
          "internalType": "bytes",
          "name": "",
          "type": "bytes"
        }
      ],
      "name": "checkUpkeep",
      "outputs": [
        {
          "internalType": "bool",
          "name": "upkeepNeeded",
          "type": "bool"
        },
        {
          "internalType": "bytes",
          "name": "performData",
          "type": "bytes"
        }
      ],
      "stateMutability": "view",
      "type": "function"
    },
    {
      "inputs": [],
      "name": "checker",
      "outputs": [
        {
          "internalType": "bool",
          "name": "canExec",
          "type": "bool"
        },
        {
          "internalType": "bytes",
          "name": "execPayload",
          "type": "bytes"
        }
      ],
      "stateMutability": "view",
      "type": "function"
    },
    {
      "inputs": [],
      "name": "keeper",
      "outputs": [
        {
          "internalType": "address",
          "name": "",
          "type": "address"
        }
      ],
      "stateMutability": "view",
      "type": "function"
    },
    {
      "inputs": [],
      "name": "manager",
      "outputs": [
        {
          "internalType": "address",
          "name": "",
          "type": "address"
        }
      ],
      "stateMutability": "view",
      "type": "function"
    },
    {
      "inputs": [],
      "name": "monitorSize",
      "outputs": [
        {
          "internalType": "uint256",
          "name": "",
          "type": "uint256"
        }
      ],
      "stateMutability": "view",
      "type": "function"
    },
    {
      "inputs": [
        {
          "internalType": "bytes",
          "name": "_performData",
          "type": "bytes"
        }
      ],
      "name": "performUpkeep",
      "outputs": [],
      "stateMutability": "nonpayable",
      "type": "function"
    },
    {
      "inputs": [],
      "name": "positionStorageAddress",
      "outputs": [
        {
          "internalType": "address",
          "name": "",
          "type": "address"
        }
      ],
      "stateMutability": "view",
      "type": "function"
    },
    {
      "inputs": [
        {
          "internalType": "uint256",
          "name": "_batchSize",
          "type": "uint256"
        }
      ],
      "name": "setBatchSize",
      "outputs": [],
      "stateMutability": "nonpayable",
      "type": "function"
    },
    {
      "inputs": [
        {
          "internalType": "address",
          "name": "_keeper",
          "type": "address"
        }
      ],
      "name": "setKeeper",
      "outputs": [],
      "stateMutability": "nonpayable",
      "type": "function"
    },
    {
      "inputs": [
        {
          "internalType": "address",
          "name": "_manager",
          "type": "address"
        }
      ],
      "name": "setManager",
      "outputs": [],
      "stateMutability": "nonpayable",
      "type": "function"
    },
    {
      "inputs": [
        {
          "internalType": "uint256",
          "name": "_monitorSize",
          "type": "uint256"
        }
      ],
      "name": "setMonitorSize",
      "outputs": [],
      "stateMutability": "nonpayable",
      "type": "function"
    },
    {
      "inputs": [
        {
          "internalType": "address",
          "name": "_positionStorageAddress",
          "type": "address"
        }
      ],
      "name": "setPositionStorage",
      "outputs": [],
      "stateMutability": "nonpayable",
      "type": "function"
    },
    {
      "inputs": [
        {
          "internalType": "uint256",
          "name": "_startIndex",
          "type": "uint256"
        }
      ],
      "name": "setStartIndex",
      "outputs": [],
      "stateMutability": "nonpayable",
      "type": "function"
    },
    {
      "inputs": [],
      "name": "startIndex",
      "outputs": [
        {
          "internalType": "uint256",
          "name": "",
          "type": "uint256"
        }
      ],
      "stateMutability": "view",
      "type": "function"
    }
  ],
  "bytecode": "0x608060405234801561001057600080fd5b5060405161103438038061103483398101604081905261002f91610097565b600080546001600160a01b03199081163317909155600180546001600160a01b0397881690831617905560028054959096169416939093179093556003556004919091556005556100e5565b80516001600160a01b038116811461009257600080fd5b919050565b600080600080600060a086880312156100af57600080fd5b6100b88661007b565b94506100c66020870161007b565b6040870151606088015160809098015196999198509695945092505050565b610f40806100f46000396000f3fe608060405234801561001057600080fd5b50600436106100f55760003560e01c8063860965c611610097578063cfd06d9811610066578063cfd06d98146101e7578063d0ebdbe7146101fa578063e427d08c1461020d578063f4daaba11461022057600080fd5b8063860965c6146101b05780639bb0dafa146101b9578063aced1661146101cc578063cf5303cf146101df57600080fd5b8063576f35e3116100d3578063576f35e3146101565780635ff7d9d5146101695780636e04ff0d1461017c578063748747e61461019d57600080fd5b80633e0e828b146100fa5780634585e33b14610116578063481c6a751461012b575b600080fd5b61010360055481565b6040519081526020015b60405180910390f35b610129610124366004610ce1565b610229565b005b60005461013e906001600160a01b031681565b6040516001600160a01b03909116815260200161010d565b610129610164366004610d53565b610336565b610129610177366004610d53565b6103d2565b61018f61018a366004610ce1565b610434565b60405161010d929190610e01565b6101296101ab366004610bab565b6106d3565b61010360045481565b6101296101c7366004610d53565b61074e565b60015461013e906001600160a01b031681565b61018f6107e1565b6101296101f5366004610bab565b610ab5565b610129610208366004610bab565b610b30565b60025461013e906001600160a01b031681565b61010360035481565b6002546001600160a01b031660005a905060008061024985870187610bdb565b9150915060005b818110156102e457846001600160a01b03166349a4d1d184838151811061027957610279610ede565b60200260200101516040518263ffffffff1660e01b815260040161029f91815260200190565b600060405180830381600087803b1580156102b957600080fd5b505af11580156102cd573d6000803e3d6000fd5b5050505080806102dc90610ead565b915050610250565b507fd1d8c94a101352389a2fadcdc79eb2ec660d64769f14a1e89c50c6d22225ce8b8187875a6103149088610e96565b3a604051610326959493929190610e37565b60405180910390a1505050505050565b6000546001600160a01b031633146103685760405163a59d7f4d60e01b81523360048201526024015b60405180910390fd5b6004548111156103965760048054604051637150bba160e01b8152918201839052602482015260440161035f565b60038190556040518181527fe7589087ca18f0ad76e3a457747806de5e2432f4285837617205c045ba950fb6906020015b60405180910390a150565b6000546001600160a01b031633146103ff5760405163a59d7f4d60e01b815233600482015260240161035f565b60058190556040518181527ffb0b2459ef0b436ea50d577db242217edfa1e86a7404361aaae9b6bb406b7e2f906020016103c7565b6002546003546000916060916001600160a01b0390911690839067ffffffffffffffff81111561046657610466610ef4565b60405190808252806020026020018201604052801561048f578160200160208202803683370190505b5090506000806000846001600160a01b031663539826a66040518163ffffffff1660e01b815260040160206040518083038186803b1580156104d057600080fd5b505afa1580156104e4573d6000803e3d6000fd5b505050506040513d601f19601f820116820180604052508101906105089190610cc8565b9050806005541015610698576005545b818110156106965760006001600160a01b038716632895a2b361053c846001610e7e565b6040518263ffffffff1660e01b815260040161055a91815260200190565b60206040518083038186803b15801561057257600080fd5b505afa158015610586573d6000803e3d6000fd5b505050506040513d601f19601f820116820180604052508101906105aa9190610cc8565b60405163e5944f0160e01b8152600481018290529091506001600160a01b0388169063e5944f019060240160206040518083038186803b1580156105ed57600080fd5b505afa158015610601573d6000803e3d6000fd5b505050506040513d601f19601f820116820180604052508101906106259190610ca6565b15610656578086868151811061063d5761063d610ede565b60209081029190910101528461065281610ead565b9550505b8361066081610ead565b9450506004548414156106735750610696565b6003548514156106835750610696565b508061068e81610ead565b915050610518565b505b8215801597506106c75783836040516020016106b5929190610db9565b60405160208183030381529060405295505b50505050509250929050565b6000546001600160a01b031633146107005760405163a59d7f4d60e01b815233600482015260240161035f565b600180546001600160a01b0319166001600160a01b0383169081179091556040519081527fefb5cfa1a8690c124332ab93324539c5c9c4be03f28aeb8be86f2d8a0c9fb99b906020016103c7565b6000546001600160a01b0316331461077b5760405163a59d7f4d60e01b815233600482015260240161035f565b6003548110156107ac5760035460405163102a6c2760e01b815261035f918391600401918252602082015260400190565b60048190556040518181527f8f7e75c44358384d270505281bef6ad973e53b3785b6d722c4f279f1521d1560906020016103c7565b6002546003546000916060916001600160a01b0390911690839067ffffffffffffffff81111561081357610813610ef4565b60405190808252806020026020018201604052801561083c578160200160208202803683370190505b5090506000806000846001600160a01b031663539826a66040518163ffffffff1660e01b815260040160206040518083038186803b15801561087d57600080fd5b505afa158015610891573d6000803e3d6000fd5b505050506040513d601f19601f820116820180604052508101906108b59190610cc8565b9050806005541015610a45576005545b81811015610a435760006001600160a01b038716632895a2b36108e9846001610e7e565b6040518263ffffffff1660e01b815260040161090791815260200190565b60206040518083038186803b15801561091f57600080fd5b505afa158015610933573d6000803e3d6000fd5b505050506040513d601f19601f820116820180604052508101906109579190610cc8565b60405163e5944f0160e01b8152600481018290529091506001600160a01b0388169063e5944f019060240160206040518083038186803b15801561099a57600080fd5b505afa1580156109ae573d6000803e3d6000fd5b505050506040513d601f19601f820116820180604052508101906109d29190610ca6565b15610a0357808686815181106109ea576109ea610ede565b6020908102919091010152846109ff81610ead565b9550505b83610a0d81610ead565b945050600454841415610a205750610a43565b600354851415610a305750610a43565b5080610a3b81610ead565b9150506108c5565b505b821580159750610aac578383604051602001610a62929190610db9565b60408051601f1981840301815290829052610a7f91602401610e24565b60408051601f198184030181529190526020810180516001600160e01b0316634585e33b60e01b17905295505b50505050509091565b6000546001600160a01b03163314610ae25760405163a59d7f4d60e01b815233600482015260240161035f565b600280546001600160a01b0319166001600160a01b0383169081179091556040519081527f632bd7239e9c1fdf0211407c2e23a3f4e7acd95f0cc1870a95afb701c0940010906020016103c7565b6000546001600160a01b03163314610b5d5760405163a59d7f4d60e01b815233600482015260240161035f565b600080546001600160a01b0319166001600160a01b0383169081179091556040519081527f54a6385aa0292b04e1ef8513253c17d1863f7cdfc87029d77fd55cc4c2e717e2906020016103c7565b600060208284031215610bbd57600080fd5b81356001600160a01b0381168114610bd457600080fd5b9392505050565b60008060408385031215610bee57600080fd5b823567ffffffffffffffff80821115610c0657600080fd5b818501915085601f830112610c1a57600080fd5b8135602082821115610c2e57610c2e610ef4565b8160051b604051601f19603f83011681018181108682111715610c5357610c53610ef4565b604052838152828101945085830182870184018b1015610c7257600080fd5b600096505b84871015610c95578035865260019690960195948301948301610c77565b509997909101359750505050505050565b600060208284031215610cb857600080fd5b81518015158114610bd457600080fd5b600060208284031215610cda57600080fd5b5051919050565b60008060208385031215610cf457600080fd5b823567ffffffffffffffff80821115610d0c57600080fd5b818501915085601f830112610d2057600080fd5b813581811115610d2f57600080fd5b866020828501011115610d4157600080fd5b60209290920196919550909350505050565b600060208284031215610d6557600080fd5b5035919050565b6000815180845260005b81811015610d9257602081850181015186830182015201610d76565b81811115610da4576000602083870101525b50601f01601f19169290920160200192915050565b604080825283519082018190526000906020906060840190828701845b82811015610df257815184529284019290840190600101610dd6565b50505092019290925292915050565b8215158152604060208201526000610e1c6040830184610d6c565b949350505050565b602081526000610bd46020830184610d6c565b85815260806020820152836080820152838560a0830137600060a08583010152600060a0601f19601f87011683010190508360408301528260608301529695505050505050565b60008219821115610e9157610e91610ec8565b500190565b600082821015610ea857610ea8610ec8565b500390565b6000600019821415610ec157610ec1610ec8565b5060010190565b634e487b7160e01b600052601160045260246000fd5b634e487b7160e01b600052603260045260246000fd5b634e487b7160e01b600052604160045260246000fdfea2646970667358221220a620e7c38f333011a2f86e593ce953445c54317d5cba56693cd49f237cbcc05564736f6c63430008070033",
  "linkReferences": {},
  "deployedLinkReferences": {}
}