{
  "_format": "hh-sol-artifact-1",
  "contractName": "UniswapV3PriceFeedIntegration",
  "sourceName": "contracts/UniswapV3PriceFeedIntegration.sol",
  "abi": [
    {
      "inputs": [
        {
          "internalType": "address",
          "name": "_factory",
          "type": "address"
        }
      ],
      "stateMutability": "nonpayable",
      "type": "constructor"
    },
    {
      "inputs": [],
      "name": "PRECISION",
      "outputs": [
        {
          "internalType": "uint256",
          "name": "",
          "type": "uint256"
        }
      ],
      "stateMutability": "view",
      "type": "function"
    },
    {
      "inputs": [],
      "name": "factory",
      "outputs": [
        {
          "internalType": "address",
          "name": "",
          "type": "address"
        }
      ],
      "stateMutability": "view",
      "type": "function"
    },
    {
      "inputs": [
        {
          "internalType": "uint256",
          "name": "",
          "type": "uint256"
        }
      ],
      "name": "feeTiers",
      "outputs": [
        {
          "internalType": "uint24",
          "name": "",
          "type": "uint24"
        }
      ],
      "stateMutability": "view",
      "type": "function"
    },
    {
      "inputs": [
        {
          "internalType": "address",
          "name": "_baseToken",
          "type": "address"
        },
        {
          "internalType": "address",
          "name": "_quoteToken",
          "type": "address"
        }
      ],
      "name": "getPrice",
      "outputs": [
        {
          "internalType": "uint256",
          "name": "price",
          "type": "uint256"
        }
      ],
      "stateMutability": "view",
      "type": "function"
    }
  ],
  "bytecode": "0x610120604052606460a09081526101f460c052610bb860e0526127106101005261002d90600090600461006e565b5034801561003a57600080fd5b5060405161097f38038061097f8339810160408190526100599161012e565b60601b6001600160601b03191660805261015e565b82805482825590600052602060002090600901600a900481019282156101095791602002820160005b838211156100d857835183826101000a81548162ffffff021916908361ffff1602179055509260200192600301602081600201049283019260010302610097565b80156101075782816101000a81549062ffffff02191690556003016020816002010492830192600103026100d8565b505b50610115929150610119565b5090565b5b80821115610115576000815560010161011a565b60006020828403121561014057600080fd5b81516001600160a01b038116811461015757600080fd5b9392505050565b60805160601c6107fd6101826000396000818160b7015261013001526107fd6000f3fe608060405234801561001057600080fd5b506004361061004c5760003560e01c8063230ed44a14610051578063aaf5eb681461007d578063ac41865a1461009f578063c45a0155146100b2575b600080fd5b61006461005f3660046105ed565b6100f1565b60405162ffffff90911681526020015b60405180910390f35b6100916c0c9f2c9cd04674edea4000000081565b604051908152602001610074565b6100916100ad366004610510565b61012a565b6100d97f000000000000000000000000000000000000000000000000000000000000000081565b6040516001600160a01b039091168152602001610074565b6000818154811061010157600080fd5b90600052602060002090600a9182820401919006600302915054906101000a900462ffffff1681565b600080547f00000000000000000000000000000000000000000000000000000000000000008280806001600160a01b038088169089161061016c57868861016f565b87875b9150915060005b8581101561047d576000856001600160a01b0316631698ee828585600086815481106101a4576101a4610799565b60009182526020909120600a8083049091015460405160e087901b6001600160e01b03191681526001600160a01b03958616600482015293909416602484015290066003026101000a90910462ffffff16604482015260640160206040518083038186803b15801561021557600080fd5b505afa158015610229573d6000803e3d6000fd5b505050506040513d601f19601f8201168201806040525081019061024d91906104ec565b90506001600160a01b0381161561046a576040516370a0823160e01b81526001600160a01b03808316600483015282916000918716906370a082319060240160206040518083038186803b1580156102a457600080fd5b505afa1580156102b8573d6000803e3d6000fd5b505050506040513d601f19601f820116820180604052508101906102dc9190610606565b6040516370a0823160e01b81526001600160a01b0385811660048301529192506000918716906370a082319060240160206040518083038186803b15801561032357600080fd5b505afa158015610337573d6000803e3d6000fd5b505050506040513d601f19601f8201168201806040525081019061035b9190610606565b90506000836001600160a01b0316633850c7bd6040518163ffffffff1660e01b815260040160e06040518083038186803b15801561039857600080fd5b505afa1580156103ac573d6000803e3d6000fd5b505050506040513d601f19601f820116820180604052508101906103d09190610549565b505050505050905060006002600160601b6103eb919061069c565b6c0c9f2c9cd04674edea4000000061040d60026001600160a01b03861661069c565b6104179190610749565b6104219190610637565b90506000836c0c9f2c9cd04674edea4000000061043e8488610749565b6104489190610637565b610452919061061f565b90508a81111561046357809a50819d505b5050505050505b508061047581610768565b915050610176565b50851580159061049f5750816001600160a01b0316886001600160a01b031614155b156104ca57856104bd60026c0c9f2c9cd04674edea4000000061069c565b6104c79190610637565b95505b505050505092915050565b805161ffff811681146104e757600080fd5b919050565b6000602082840312156104fe57600080fd5b8151610509816107af565b9392505050565b6000806040838503121561052357600080fd5b823561052e816107af565b9150602083013561053e816107af565b809150509250929050565b600080600080600080600060e0888a03121561056457600080fd5b875161056f816107af565b8097505060208801518060020b811461058757600080fd5b9550610595604089016104d5565b94506105a3606089016104d5565b93506105b1608089016104d5565b925060a088015160ff811681146105c757600080fd5b60c089015190925080151581146105dd57600080fd5b8091505092959891949750929550565b6000602082840312156105ff57600080fd5b5035919050565b60006020828403121561061857600080fd5b5051919050565b6000821982111561063257610632610783565b500190565b60008261065457634e487b7160e01b600052601260045260246000fd5b500490565b600181815b8085111561069457816000190482111561067a5761067a610783565b8085161561068757918102915b93841c939080029061065e565b509250929050565b600061050960ff8416836000826106b557506001610743565b816106c257506000610743565b81600181146106d857600281146106e2576106fe565b6001915050610743565b60ff8411156106f3576106f3610783565b50506001821b610743565b5060208310610133831016604e8410600b8410161715610721575081810a610743565b61072b8383610659565b806000190482111561073f5761073f610783565b0290505b92915050565b600081600019048311821515161561076357610763610783565b500290565b600060001982141561077c5761077c610783565b5060010190565b634e487b7160e01b600052601160045260246000fd5b634e487b7160e01b600052603260045260246000fd5b6001600160a01b03811681146107c457600080fd5b5056fea2646970667358221220b0052e3865122e46ccae3a5771de670d851929605c9457a8867b9201290a79ee64736f6c63430008070033",
  "linkReferences": {},
  "deployedLinkReferences": {}
}