{
  "_format": "hh-sol-artifact-1",
  "contractName": "Factory",
  "sourceName": "contracts/Factory.sol",
  "abi": [
    {
      "inputs": [
        {
          "internalType": "address",
          "name": "_poolDeployer",
          "type": "address"
        },
        {
          "internalType": "address",
          "name": "_positionStorage",
          "type": "address"
        },
        {
          "internalType": "address",
          "name": "_withdrawalMonitor",
          "type": "address"
        },
        {
          "internalType": "address",
          "name": "_userStorage",
          "type": "address"
        },
        {
          "internalType": "address",
          "name": "_priceFeed",
          "type": "address"
        },
        {
          "internalType": "address",
          "name": "_dexAggregator",
          "type": "address"
        }
      ],
      "stateMutability": "nonpayable",
      "type": "constructor"
    },
    {
      "inputs": [
        {
          "internalType": "uint256",
          "name": "length0",
          "type": "uint256"
        },
        {
          "internalType": "uint256",
          "name": "length1",
          "type": "uint256"
        }
      ],
      "name": "BadLengths",
      "type": "error"
    },
    {
      "inputs": [
        {
          "internalType": "address",
          "name": "sender",
          "type": "address"
        }
      ],
      "name": "Forbidden",
      "type": "error"
    },
    {
      "inputs": [
        {
          "internalType": "address",
          "name": "quoteToken",
          "type": "address"
        },
        {
          "internalType": "address",
          "name": "pool",
          "type": "address"
        }
      ],
      "name": "PoolExistsAlready",
      "type": "error"
    },
    {
      "inputs": [
        {
          "internalType": "address",
          "name": "quoteToken",
          "type": "address"
        }
      ],
      "name": "PoolNotExists",
      "type": "error"
    },
    {
      "inputs": [
        {
          "internalType": "uint256",
          "name": "value",
          "type": "uint256"
        },
        {
          "internalType": "uint256",
          "name": "max",
          "type": "uint256"
        }
      ],
      "name": "TooHighValue",
      "type": "error"
    },
    {
      "inputs": [
        {
          "internalType": "uint256",
          "name": "value",
          "type": "uint256"
        },
        {
          "internalType": "uint256",
          "name": "min",
          "type": "uint256"
        }
      ],
      "name": "TooLowValue",
      "type": "error"
    },
    {
      "inputs": [],
      "name": "ZeroAddress",
      "type": "error"
    },
    {
      "anonymous": false,
      "inputs": [
        {
          "indexed": true,
          "internalType": "address",
          "name": "quoteToken",
          "type": "address"
        },
        {
          "indexed": true,
          "internalType": "address",
          "name": "pool",
          "type": "address"
        },
        {
          "indexed": false,
          "internalType": "uint256",
          "name": "interest",
          "type": "uint256"
        },
        {
          "indexed": false,
          "internalType": "uint256",
          "name": "index",
          "type": "uint256"
        }
      ],
      "name": "CreatePool",
      "type": "event"
    },
    {
      "anonymous": false,
      "inputs": [
        {
          "indexed": false,
          "internalType": "address",
          "name": "baseToken",
          "type": "address"
        },
        {
          "indexed": false,
          "internalType": "uint256",
          "name": "lt",
          "type": "uint256"
        }
      ],
      "name": "SetBaseTokenLT",
      "type": "event"
    },
    {
      "anonymous": false,
      "inputs": [
        {
          "indexed": false,
          "internalType": "address",
          "name": "baseToken",
          "type": "address"
        },
        {
          "indexed": false,
          "internalType": "uint256",
          "name": "mut",
          "type": "uint256"
        }
      ],
      "name": "SetBaseTokenMUT",
      "type": "event"
    },
    {
      "anonymous": false,
      "inputs": [
        {
          "indexed": false,
          "internalType": "address",
          "name": "collateral",
          "type": "address"
        },
        {
          "indexed": false,
          "internalType": "uint256",
          "name": "lt",
          "type": "uint256"
        }
      ],
      "name": "SetCollateralLT",
      "type": "event"
    },
    {
      "anonymous": false,
      "inputs": [
        {
          "indexed": false,
          "internalType": "address",
          "name": "baseToken",
          "type": "address"
        },
        {
          "indexed": false,
          "internalType": "uint256",
          "name": "mut",
          "type": "uint256"
        }
      ],
      "name": "SetCollateralMUT",
      "type": "event"
    },
    {
      "anonymous": false,
      "inputs": [
        {
          "indexed": false,
          "internalType": "address",
          "name": "newDexAggregator",
          "type": "address"
        }
      ],
      "name": "SetDEXAggregator",
      "type": "event"
    },
    {
      "anonymous": false,
      "inputs": [
        {
          "indexed": false,
          "internalType": "uint256",
          "name": "newLiquidationFeeRate",
          "type": "uint256"
        }
      ],
      "name": "SetLiquidationFeeRate",
      "type": "event"
    },
    {
      "anonymous": false,
      "inputs": [
        {
          "indexed": false,
          "internalType": "address",
          "name": "newLiquidationFeeTo",
          "type": "address"
        }
      ],
      "name": "SetLiquidationFeeTo",
      "type": "event"
    },
    {
      "anonymous": false,
      "inputs": [
        {
          "indexed": false,
          "internalType": "address",
          "name": "newManager",
          "type": "address"
        }
      ],
      "name": "SetManager",
      "type": "event"
    },
    {
      "anonymous": false,
      "inputs": [
        {
          "indexed": false,
          "internalType": "uint256",
          "name": "newManualExpiration",
          "type": "uint256"
        }
      ],
      "name": "SetManualExpiration",
      "type": "event"
    },
    {
      "anonymous": false,
      "inputs": [
        {
          "indexed": false,
          "internalType": "uint256",
          "name": "newMinQuoteRate",
          "type": "uint256"
        }
      ],
      "name": "SetMinQuoteRate",
      "type": "event"
    },
    {
      "anonymous": false,
      "inputs": [
        {
          "indexed": false,
          "internalType": "address",
          "name": "addr",
          "type": "address"
        },
        {
          "indexed": false,
          "internalType": "bool",
          "name": "isOperator",
          "type": "bool"
        }
      ],
      "name": "SetOperator",
      "type": "event"
    },
    {
      "anonymous": false,
      "inputs": [
        {
          "indexed": false,
          "internalType": "address",
          "name": "newPriceFeed",
          "type": "address"
        }
      ],
      "name": "SetPriceFeed",
      "type": "event"
    },
    {
      "anonymous": false,
      "inputs": [
        {
          "indexed": false,
          "internalType": "uint256",
          "name": "newProtocolFeeRate",
          "type": "uint256"
        }
      ],
      "name": "SetProtocolFeeRate",
      "type": "event"
    },
    {
      "anonymous": false,
      "inputs": [
        {
          "indexed": false,
          "internalType": "address",
          "name": "newProtocolFeeTo",
          "type": "address"
        }
      ],
      "name": "SetProtocolFeeTo",
      "type": "event"
    },
    {
      "anonymous": false,
      "inputs": [
        {
          "indexed": false,
          "internalType": "uint256",
          "name": "newRollbackFee",
          "type": "uint256"
        }
      ],
      "name": "SetRollbackFee",
      "type": "event"
    },
    {
      "anonymous": false,
      "inputs": [
        {
          "indexed": false,
          "internalType": "address",
          "name": "newServiceFeeTo",
          "type": "address"
        }
      ],
      "name": "SetServiceFeeTo",
      "type": "event"
    },
    {
      "anonymous": false,
      "inputs": [
        {
          "indexed": false,
          "internalType": "address",
          "name": "newServiceToken",
          "type": "address"
        }
      ],
      "name": "SetServiceToken",
      "type": "event"
    },
    {
      "anonymous": false,
      "inputs": [
        {
          "indexed": false,
          "internalType": "uint256",
          "name": "newUpdateCollateralAmountFee",
          "type": "uint256"
        }
      ],
      "name": "SetUpdateCollateralAmountFee",
      "type": "event"
    },
    {
      "anonymous": false,
      "inputs": [
        {
          "indexed": false,
          "internalType": "uint256",
          "name": "newUpdateDeadlineFee",
          "type": "uint256"
        }
      ],
      "name": "SetUpdateDeadlineFee",
      "type": "event"
    },
    {
      "anonymous": false,
      "inputs": [
        {
          "indexed": false,
          "internalType": "uint256",
          "name": "newUpdateTPnSLFee",
          "type": "uint256"
        }
      ],
      "name": "SetUpdateTPnSLFee",
      "type": "event"
    },
    {
      "anonymous": false,
      "inputs": [
        {
          "indexed": false,
          "internalType": "address",
          "name": "newUserStorage",
          "type": "address"
        }
      ],
      "name": "SetUserStorage",
      "type": "event"
    },
    {
      "inputs": [
        {
          "internalType": "address",
          "name": "",
          "type": "address"
        }
      ],
      "name": "baseTokenLT",
      "outputs": [
        {
          "internalType": "uint256",
          "name": "",
          "type": "uint256"
        }
      ],
      "stateMutability": "view",
      "type": "function"
    },
    {
      "inputs": [
        {
          "internalType": "address",
          "name": "",
          "type": "address"
        }
      ],
      "name": "baseTokenMUT",
      "outputs": [
        {
          "internalType": "uint256",
          "name": "",
          "type": "uint256"
        }
      ],
      "stateMutability": "view",
      "type": "function"
    },
    {
      "inputs": [
        {
          "internalType": "address",
          "name": "",
          "type": "address"
        }
      ],
      "name": "collateralLT",
      "outputs": [
        {
          "internalType": "uint256",
          "name": "",
          "type": "uint256"
        }
      ],
      "stateMutability": "view",
      "type": "function"
    },
    {
      "inputs": [
        {
          "internalType": "address",
          "name": "",
          "type": "address"
        }
      ],
      "name": "collateralMUT",
      "outputs": [
        {
          "internalType": "uint256",
          "name": "",
          "type": "uint256"
        }
      ],
      "stateMutability": "view",
      "type": "function"
    },
    {
      "inputs": [
        {
          "internalType": "address",
          "name": "_quoteToken",
          "type": "address"
        },
        {
          "internalType": "uint256",
          "name": "_interest",
          "type": "uint256"
        }
      ],
      "name": "createPool",
      "outputs": [
        {
          "internalType": "address payable",
          "name": "pool",
          "type": "address"
        }
      ],
      "stateMutability": "nonpayable",
      "type": "function"
    },
    {
      "inputs": [],
      "name": "dexAggregator",
      "outputs": [
        {
          "internalType": "address",
          "name": "",
          "type": "address"
        }
      ],
      "stateMutability": "view",
      "type": "function"
    },
    {
      "inputs": [
        {
          "internalType": "address",
          "name": "_quoteToken",
          "type": "address"
        }
      ],
      "name": "interest",
      "outputs": [
        {
          "internalType": "uint256",
          "name": "",
          "type": "uint256"
        }
      ],
      "stateMutability": "view",
      "type": "function"
    },
    {
      "inputs": [],
      "name": "liquidationFeeRate",
      "outputs": [
        {
          "internalType": "uint256",
          "name": "",
          "type": "uint256"
        }
      ],
      "stateMutability": "view",
      "type": "function"
    },
    {
      "inputs": [],
      "name": "liquidationFeeTo",
      "outputs": [
        {
          "internalType": "address",
          "name": "",
          "type": "address"
        }
      ],
      "stateMutability": "view",
      "type": "function"
    },
    {
      "inputs": [],
      "name": "manager",
      "outputs": [
        {
          "internalType": "address",
          "name": "",
          "type": "address"
        }
      ],
      "stateMutability": "view",
      "type": "function"
    },
    {
      "inputs": [],
      "name": "manualExpiration",
      "outputs": [
        {
          "internalType": "uint256",
          "name": "",
          "type": "uint256"
        }
      ],
      "stateMutability": "view",
      "type": "function"
    },
    {
      "inputs": [],
      "name": "minQuoteRate",
      "outputs": [
        {
          "internalType": "uint256",
          "name": "",
          "type": "uint256"
        }
      ],
      "stateMutability": "view",
      "type": "function"
    },
    {
      "inputs": [
        {
          "internalType": "address",
          "name": "",
          "type": "address"
        }
      ],
      "name": "operator",
      "outputs": [
        {
          "internalType": "bool",
          "name": "",
          "type": "bool"
        }
      ],
      "stateMutability": "view",
      "type": "function"
    },
    {
      "inputs": [
        {
          "internalType": "address",
          "name": "",
          "type": "address"
        }
      ],
      "name": "poolByQuoteToken",
      "outputs": [
        {
          "internalType": "address",
          "name": "",
          "type": "address"
        }
      ],
      "stateMutability": "view",
      "type": "function"
    },
    {
      "inputs": [],
      "name": "poolDeployer",
      "outputs": [
        {
          "internalType": "address",
          "name": "",
          "type": "address"
        }
      ],
      "stateMutability": "view",
      "type": "function"
    },
    {
      "inputs": [
        {
          "internalType": "address",
          "name": "",
          "type": "address"
        }
      ],
      "name": "poolIndex",
      "outputs": [
        {
          "internalType": "uint256",
          "name": "",
          "type": "uint256"
        }
      ],
      "stateMutability": "view",
      "type": "function"
    },
    {
      "inputs": [],
      "name": "poolLength",
      "outputs": [
        {
          "internalType": "uint256",
          "name": "",
          "type": "uint256"
        }
      ],
      "stateMutability": "view",
      "type": "function"
    },
    {
      "inputs": [
        {
          "internalType": "uint256",
          "name": "",
          "type": "uint256"
        }
      ],
      "name": "pools",
      "outputs": [
        {
          "internalType": "address",
          "name": "",
          "type": "address"
        }
      ],
      "stateMutability": "view",
      "type": "function"
    },
    {
      "inputs": [],
      "name": "positionStorage",
      "outputs": [
        {
          "internalType": "address",
          "name": "",
          "type": "address"
        }
      ],
      "stateMutability": "view",
      "type": "function"
    },
    {
      "inputs": [],
      "name": "priceFeed",
      "outputs": [
        {
          "internalType": "address",
          "name": "",
          "type": "address"
        }
      ],
      "stateMutability": "view",
      "type": "function"
    },
    {
      "inputs": [],
      "name": "protocolFeeRate",
      "outputs": [
        {
          "internalType": "uint256",
          "name": "",
          "type": "uint256"
        }
      ],
      "stateMutability": "view",
      "type": "function"
    },
    {
      "inputs": [],
      "name": "protocolFeeTo",
      "outputs": [
        {
          "internalType": "address",
          "name": "",
          "type": "address"
        }
      ],
      "stateMutability": "view",
      "type": "function"
    },
    {
      "inputs": [],
      "name": "rollbackFee",
      "outputs": [
        {
          "internalType": "uint256",
          "name": "",
          "type": "uint256"
        }
      ],
      "stateMutability": "view",
      "type": "function"
    },
    {
      "inputs": [],
      "name": "serviceFeeTo",
      "outputs": [
        {
          "internalType": "address",
          "name": "",
          "type": "address"
        }
      ],
      "stateMutability": "view",
      "type": "function"
    },
    {
      "inputs": [],
      "name": "serviceToken",
      "outputs": [
        {
          "internalType": "address",
          "name": "",
          "type": "address"
        }
      ],
      "stateMutability": "view",
      "type": "function"
    },
    {
      "inputs": [
        {
          "internalType": "address[]",
          "name": "_baseTokens",
          "type": "address[]"
        },
        {
          "internalType": "uint256[]",
          "name": "_lts",
          "type": "uint256[]"
        }
      ],
      "name": "setBaseTokenLT",
      "outputs": [],
      "stateMutability": "nonpayable",
      "type": "function"
    },
    {
      "inputs": [
        {
          "internalType": "address[]",
          "name": "_baseTokens",
          "type": "address[]"
        },
        {
          "internalType": "uint256[]",
          "name": "_muts",
          "type": "uint256[]"
        }
      ],
      "name": "setBaseTokenMUT",
      "outputs": [],
      "stateMutability": "nonpayable",
      "type": "function"
    },
    {
      "inputs": [
        {
          "internalType": "address[]",
          "name": "_collaterals",
          "type": "address[]"
        },
        {
          "internalType": "uint256[]",
          "name": "_lts",
          "type": "uint256[]"
        }
      ],
      "name": "setCollateralLT",
      "outputs": [],
      "stateMutability": "nonpayable",
      "type": "function"
    },
    {
      "inputs": [
        {
          "internalType": "address[]",
          "name": "_collaterals",
          "type": "address[]"
        },
        {
          "internalType": "uint256[]",
          "name": "_muts",
          "type": "uint256[]"
        }
      ],
      "name": "setCollateralMUT",
      "outputs": [],
      "stateMutability": "nonpayable",
      "type": "function"
    },
    {
      "inputs": [
        {
          "internalType": "address",
          "name": "_dexAggregator",
          "type": "address"
        }
      ],
      "name": "setDEXAggregator",
      "outputs": [],
      "stateMutability": "nonpayable",
      "type": "function"
    },
    {
      "inputs": [
        {
          "internalType": "uint256",
          "name": "_liquidationFeeRate",
          "type": "uint256"
        }
      ],
      "name": "setLiquidationFeeRate",
      "outputs": [],
      "stateMutability": "nonpayable",
      "type": "function"
    },
    {
      "inputs": [
        {
          "internalType": "address",
          "name": "_liquidationFeeTo",
          "type": "address"
        }
      ],
      "name": "setLiquidationFeeTo",
      "outputs": [],
      "stateMutability": "nonpayable",
      "type": "function"
    },
    {
      "inputs": [
        {
          "internalType": "address",
          "name": "_manager",
          "type": "address"
        }
      ],
      "name": "setManager",
      "outputs": [],
      "stateMutability": "nonpayable",
      "type": "function"
    },
    {
      "inputs": [
        {
          "internalType": "uint256",
          "name": "_manualExpiration",
          "type": "uint256"
        }
      ],
      "name": "setManualExpiration",
      "outputs": [],
      "stateMutability": "nonpayable",
      "type": "function"
    },
    {
      "inputs": [
        {
          "internalType": "uint256",
          "name": "_minQuoteRate",
          "type": "uint256"
        }
      ],
      "name": "setMinQuoteRate",
      "outputs": [],
      "stateMutability": "nonpayable",
      "type": "function"
    },
    {
      "inputs": [
        {
          "internalType": "address",
          "name": "_addr",
          "type": "address"
        },
        {
          "internalType": "bool",
          "name": "_isOperator",
          "type": "bool"
        }
      ],
      "name": "setOperator",
      "outputs": [],
      "stateMutability": "nonpayable",
      "type": "function"
    },
    {
      "inputs": [
        {
          "internalType": "address",
          "name": "_quoteToken",
          "type": "address"
        },
        {
          "internalType": "address[]",
          "name": "_baseTokens",
          "type": "address[]"
        },
        {
          "internalType": "bool[]",
          "name": "_tradeables",
          "type": "bool[]"
        }
      ],
      "name": "setPoolBaseTokens",
      "outputs": [],
      "stateMutability": "nonpayable",
      "type": "function"
    },
    {
      "inputs": [
        {
          "internalType": "address",
          "name": "_quoteToken",
          "type": "address"
        },
        {
          "internalType": "uint256",
          "name": "_interest",
          "type": "uint256"
        }
      ],
      "name": "setPoolInterest",
      "outputs": [],
      "stateMutability": "nonpayable",
      "type": "function"
    },
    {
      "inputs": [
        {
          "internalType": "address",
          "name": "_quoteToken",
          "type": "address"
        },
        {
          "internalType": "uint256",
          "name": "_maxOpenInterest",
          "type": "uint256"
        }
      ],
      "name": "setPoolMaxOpenInterest",
      "outputs": [],
      "stateMutability": "nonpayable",
      "type": "function"
    },
    {
      "inputs": [
        {
          "internalType": "address",
          "name": "_priceFeed",
          "type": "address"
        }
      ],
      "name": "setPriceFeed",
      "outputs": [],
      "stateMutability": "nonpayable",
      "type": "function"
    },
    {
      "inputs": [
        {
          "internalType": "uint256",
          "name": "_protocolFeeRate",
          "type": "uint256"
        }
      ],
      "name": "setProtocolFeeRate",
      "outputs": [],
      "stateMutability": "nonpayable",
      "type": "function"
    },
    {
      "inputs": [
        {
          "internalType": "address",
          "name": "_protocolFeeTo",
          "type": "address"
        }
      ],
      "name": "setProtocolFeeTo",
      "outputs": [],
      "stateMutability": "nonpayable",
      "type": "function"
    },
    {
      "inputs": [
        {
          "internalType": "uint256",
          "name": "_rollbackFee",
          "type": "uint256"
        }
      ],
      "name": "setRollbackFee",
      "outputs": [],
      "stateMutability": "nonpayable",
      "type": "function"
    },
    {
      "inputs": [
        {
          "internalType": "address",
          "name": "_serviceFeeTo",
          "type": "address"
        }
      ],
      "name": "setServiceFeeTo",
      "outputs": [],
      "stateMutability": "nonpayable",
      "type": "function"
    },
    {
      "inputs": [
        {
          "internalType": "address",
          "name": "_serviceToken",
          "type": "address"
        }
      ],
      "name": "setServiceToken",
      "outputs": [],
      "stateMutability": "nonpayable",
      "type": "function"
    },
    {
      "inputs": [
        {
          "internalType": "uint256",
          "name": "_updateCollateralAmountFee",
          "type": "uint256"
        }
      ],
      "name": "setUpdateCollateralAmountFee",
      "outputs": [],
      "stateMutability": "nonpayable",
      "type": "function"
    },
    {
      "inputs": [
        {
          "internalType": "uint256",
          "name": "_updateDeadlineFee",
          "type": "uint256"
        }
      ],
      "name": "setUpdateDeadlineFee",
      "outputs": [],
      "stateMutability": "nonpayable",
      "type": "function"
    },
    {
      "inputs": [
        {
          "internalType": "uint256",
          "name": "_updateTPnSLFee",
          "type": "uint256"
        }
      ],
      "name": "setUpdateTPnSLFee",
      "outputs": [],
      "stateMutability": "nonpayable",
      "type": "function"
    },
    {
      "inputs": [
        {
          "internalType": "address",
          "name": "_userStorage",
          "type": "address"
        }
      ],
      "name": "setUserStorage",
      "outputs": [],
      "stateMutability": "nonpayable",
      "type": "function"
    },
    {
      "inputs": [],
      "name": "updateCollateralAmountFee",
      "outputs": [
        {
          "internalType": "uint256",
          "name": "",
          "type": "uint256"
        }
      ],
      "stateMutability": "view",
      "type": "function"
    },
    {
      "inputs": [],
      "name": "updateDeadlineFee",
      "outputs": [
        {
          "internalType": "uint256",
          "name": "",
          "type": "uint256"
        }
      ],
      "stateMutability": "view",
      "type": "function"
    },
    {
      "inputs": [],
      "name": "updateTPnSLFee",
      "outputs": [
        {
          "internalType": "uint256",
          "name": "",
          "type": "uint256"
        }
      ],
      "stateMutability": "view",
      "type": "function"
    },
    {
      "inputs": [],
      "name": "userStorage",
      "outputs": [
        {
          "internalType": "address",
          "name": "",
          "type": "address"
        }
      ],
      "stateMutability": "view",
      "type": "function"
    },
    {
      "inputs": [],
      "name": "withdrawalMonitor",
      "outputs": [
        {
          "internalType": "address",
          "name": "",
          "type": "address"
        }
      ],
      "stateMutability": "view",
      "type": "function"
    }
  ],
  "bytecode": "0x60e06040523480156200001157600080fd5b5060405162002206380380620022068339810160408190526200003491620000d2565b6001600160601b0319606096871b811660805294861b851660a0529290941b90921660c052600180546001600160a01b039384166001600160a01b031991821617909155600280549484169482169490941790935560038054919092169083161790556000805490911633179055612710600e5562015180600f5562000153565b80516001600160a01b0381168114620000cd57600080fd5b919050565b60008060008060008060c08789031215620000ec57600080fd5b620000f787620000b5565b95506200010760208801620000b5565b94506200011760408801620000b5565b93506200012760608801620000b5565b92506200013760808801620000b5565b91506200014760a08801620000b5565b90509295509295509295565b60805160601c60a05160601c60c05160601c6120736200019360003960006105e9015260006105690152600081816103f101526108d901526120736000f3fe608060405234801561001057600080fd5b50600436106103415760003560e01c806390f43680116101b8578063b769296811610104578063e216ab44116100a2578063e9a4e7a21161007c578063e9a4e7a21461077a578063eddf82bb1461078d578063ef36925214610796578063f5d0e175146107a957600080fd5b8063e216ab4414610741578063e47eb30c14610754578063e9561d2a1461076757600080fd5b8063ca10a33a116100de578063ca10a33a146106f5578063d0ebdbe714610708578063dd4fad931461071b578063e0e6799f1461072e57600080fd5b8063b7692968146106c6578063bd2bae9d146106d9578063c7900584146106ec57600080fd5b8063aac9d2b811610171578063b13aa2d61161014b578063b13aa2d61461066a578063b42754a51461067d578063b6a9b90d1461069d578063b745db56146106a657600080fd5b8063aac9d2b814610631578063ac436bdf14610644578063ac4afa381461065757600080fd5b806390f436801461058b5780639142887f1461059e5780639a307391146105b1578063a4fbc0d7146105e4578063a5e1b6281461060b578063aa6dfe031461061e57600080fd5b806358f85880116102925780636d2745531161023057806375e580791161020a57806375e580791461052b5780637c21d5e01461053e5780637eb5c200146105515780638cd474151461056457600080fd5b80636d274553146104fc578063724e78da14610505578063741bef1a1461051857600080fd5b80635fb3b1b51161026c5780635fb3b1b5146104ad5780635fde0ec0146104b65780636629b5d4146104d6578063662dc319146104e957600080fd5b806358f858801461047e5780635d463c30146104875780635ef21b2f1461049a57600080fd5b80632a5025b7116102ff578063481c6a75116102d9578063481c6a751461041c5780634d5c262e1461042f5780634d83bc3314610442578063558a72971461046b57600080fd5b80632a5025b7146103e35780633119049a146103ec5780633c0930371461041357600080fd5b80624ef96714610346578063081e3eda1461035b578063095bf1bb1461037257806312d361711461039257806317aebfdc146103bd5780631faa7eba146103d0575b600080fd5b610359610354366004611ed0565b6107c9565b005b6010545b6040519081526020015b60405180910390f35b61035f610380366004611c99565b60156020526000908152604090205481565b6103a56103a0366004611de2565b610837565b6040516001600160a01b039091168152602001610369565b6103596103cb366004611ed0565b610a0f565b6103596103de366004611e0e565b610a71565b61035f600c5481565b6103a57f000000000000000000000000000000000000000000000000000000000000000081565b61035f600a5481565b6000546103a5906001600160a01b031681565b61035961043d366004611cd3565b610c2f565b6103a5610450366004611c99565b6013602052600090815260409020546001600160a01b031681565b610359610479366004611dad565b610d06565b61035f60055481565b610359610495366004611ed0565b610d96565b6103596104a8366004611c99565b610df8565b61035f60075481565b61035f6104c4366004611c99565b60176020526000908152604090205481565b6103596104e4366004611e0e565b610e73565b6103596104f7366004611c99565b610ffd565b61035f600e5481565b610359610513366004611c99565b611078565b6002546103a5906001600160a01b031681565b6001546103a5906001600160a01b031681565b6003546103a5906001600160a01b031681565b61035961055f366004611e0e565b61111a565b6103a57f000000000000000000000000000000000000000000000000000000000000000081565b610359610599366004611ed0565b6112a4565b6103596105ac366004611c99565b611334565b6105d46105bf366004611c99565b60116020526000908152604090205460ff1681565b6040519015158152602001610369565b6103a57f000000000000000000000000000000000000000000000000000000000000000081565b610359610619366004611ed0565b6113d6565b61035961062c366004611c99565b611438565b61035961063f366004611de2565b6114da565b61035f610652366004611c99565b6115aa565b6103a5610665366004611ed0565b61164d565b610359610678366004611ed0565b611677565b61035f61068b366004611c99565b60126020526000908152604090205481565b61035f600b5481565b61035f6106b4366004611c99565b60146020526000908152604090205481565b6008546103a5906001600160a01b031681565b6006546103a5906001600160a01b031681565b61035f600d5481565b610359610703366004611e0e565b611707565b610359610716366004611c99565b611891565b610359610729366004611ed0565b611933565b61035961073c366004611c99565b611995565b61035961074f366004611c99565b611a37565b610359610762366004611ed0565b611ad9565b610359610775366004611de2565b611b6b565b6009546103a5906001600160a01b031681565b61035f600f5481565b6004546103a5906001600160a01b031681565b61035f6107b7366004611c99565b60166020526000908152604090205481565b6000546001600160a01b031633146107fb5760405163a59d7f4d60e01b81523360048201526024015b60405180910390fd5b600a8190556040518181527fc6ea9765bcfa0141a8ae379f2095c41676ac19b776f813d3f9470083803602a7906020015b60405180910390a150565b600080546001600160a01b031633146108655760405163a59d7f4d60e01b81523360048201526024016107f2565b506001600160a01b038083166000908152601360205260409020541680156108b35760405163084252d560e11b81526001600160a01b038085166004830152821660248201526044016107f2565b6040516327c74f7f60e01b81526001600160a01b038481166004830152602482018490527f000000000000000000000000000000000000000000000000000000000000000016906327c74f7f90604401602060405180830381600087803b15801561091d57600080fd5b505af1158015610931573d6000803e3d6000fd5b505050506040513d601f19601f820116820180604052508101906109559190611cb6565b601080546001810182557f1b6847dc741a1b0cd08d278845f9d819d87b734759afb55fe2de5cb82a9ae6720180546001600160a01b03199081166001600160a01b038581169182179093558354600082815260126020908152604080832093909355948a168082526013865290829020805490941683179093559354845188815293840152939450917f2b441112f88ae4b324ae75fa72f06e95a0bda7bca0621af0cceae2e36b80c909910160405180910390a392915050565b6000546001600160a01b03163314610a3c5760405163a59d7f4d60e01b81523360048201526024016107f2565b600b8190556040518181527f5eb922edd171629beac7d78c6d25ba1ad170190ba5093ed3361ecb93c852761d9060200161082c565b6000546001600160a01b03163314610a9e5760405163a59d7f4d60e01b81523360048201526024016107f2565b8051825114610acd578151815160405163574092f960e01b8152600481019290925260248201526044016107f2565b60005b8251811015610c2a57612710828281518110610aee57610aee611ff9565b60200260200101511115610b3d57818181518110610b0e57610b0e611ff9565b6020026020010151612710604051637150bba160e01b81526004016107f2929190918252602082015260400190565b818181518110610b4f57610b4f611ff9565b602002602001015160156000858481518110610b6d57610b6d611ff9565b60200260200101516001600160a01b03166001600160a01b03168152602001908152602001600020819055507f8add957a7db6c1e209aa088c73a62080ac8d87df445a42425edc183b0d2b3a45838281518110610bcc57610bcc611ff9565b6020026020010151838381518110610be657610be6611ff9565b6020026020010151604051610c109291906001600160a01b03929092168252602082015260400190565b60405180910390a180610c2281611fd0565b915050610ad0565b505050565b6000546001600160a01b03163314610c5c5760405163a59d7f4d60e01b81523360048201526024016107f2565b6001600160a01b038084166000908152601360205260409020541680610ca057604051633f36c1ab60e01b81526001600160a01b03851660048201526024016107f2565b6040516332196a0160e01b81526001600160a01b038216906332196a0190610cce9086908690600401611f02565b600060405180830381600087803b158015610ce857600080fd5b505af1158015610cfc573d6000803e3d6000fd5b5050505050505050565b6000546001600160a01b03163314610d335760405163a59d7f4d60e01b81523360048201526024016107f2565b6001600160a01b038216600081815260116020908152604091829020805460ff19168515159081179091558251938452908301527f1618a22a3b00b9ac70fd5a82f1f5cdd8cb272bd0f1b740ddf7c26ab05881dd5b910160405180910390a15050565b6000546001600160a01b03163314610dc35760405163a59d7f4d60e01b81523360048201526024016107f2565b60078190556040518181527f37740cd8864334fffe6b06452e32307736156de02df2d346c4ef77d649827f329060200161082c565b6000546001600160a01b03163314610e255760405163a59d7f4d60e01b81523360048201526024016107f2565b600880546001600160a01b0319166001600160a01b0383169081179091556040519081527ff11afbeac1d4f4dd22e57c9a7e0f2609bb76b858a038c0a5b45593887c86bd559060200161082c565b6000546001600160a01b03163314610ea05760405163a59d7f4d60e01b81523360048201526024016107f2565b8051825114610ecf578151815160405163574092f960e01b8152600481019290925260248201526044016107f2565b60005b8251811015610c2a57612710828281518110610ef057610ef0611ff9565b60200260200101511115610f1057818181518110610b0e57610b0e611ff9565b818181518110610f2257610f22611ff9565b602002602001015160146000858481518110610f4057610f40611ff9565b60200260200101516001600160a01b03166001600160a01b03168152602001908152602001600020819055507f44d431e2f3cdcfd17ac59dba4b434d2cb8b7d98ec61f6932e706b8d5229ff652838281518110610f9f57610f9f611ff9565b6020026020010151838381518110610fb957610fb9611ff9565b6020026020010151604051610fe39291906001600160a01b03929092168252602082015260400190565b60405180910390a180610ff581611fd0565b915050610ed2565b6000546001600160a01b0316331461102a5760405163a59d7f4d60e01b81523360048201526024016107f2565b600980546001600160a01b0319166001600160a01b0383169081179091556040519081527f7e3d013374f40dc62cec68879efd2d50157b93dfe8fb48bb716e53172e5b0f949060200161082c565b6000546001600160a01b031633146110a55760405163a59d7f4d60e01b81523360048201526024016107f2565b6001600160a01b0381166110cc5760405163d92e233d60e01b815260040160405180910390fd5b600280546001600160a01b0319166001600160a01b0383169081179091556040519081527ff724a45d041687842411f2b977ef22ab8f43c8f1104f4592b42a00f9b34a643d9060200161082c565b6000546001600160a01b031633146111475760405163a59d7f4d60e01b81523360048201526024016107f2565b8051825114611176578151815160405163574092f960e01b8152600481019290925260248201526044016107f2565b60005b8251811015610c2a5761271082828151811061119757611197611ff9565b602002602001015111156111b757818181518110610b0e57610b0e611ff9565b8181815181106111c9576111c9611ff9565b6020026020010151601760008584815181106111e7576111e7611ff9565b60200260200101516001600160a01b03166001600160a01b03168152602001908152602001600020819055507f0b2fbf1cb794ef27c93f2189ce22f82871c05ecfb1d103d7d7bb7090118dc1c683828151811061124657611246611ff9565b602002602001015183838151811061126057611260611ff9565b602002602001015160405161128a9291906001600160a01b03929092168252602082015260400190565b60405180910390a18061129c81611fd0565b915050611179565b6000546001600160a01b031633146112d15760405163a59d7f4d60e01b81523360048201526024016107f2565b6127108110156112ff5760405163102a6c2760e01b81526004810182905261271060248201526044016107f2565b600e8190556040518181527f76ac3f03024a7eaac1162b2497ce4f632a0fe15eac444f9b01fff9620a166c259060200161082c565b6000546001600160a01b031633146113615760405163a59d7f4d60e01b81523360048201526024016107f2565b6001600160a01b0381166113885760405163d92e233d60e01b815260040160405180910390fd5b600180546001600160a01b0319166001600160a01b0383169081179091556040519081527f193361fce04ed0c4e2cb4638cdc21c56d4313f5066142224555c49d3933e7ca49060200161082c565b6000546001600160a01b031633146114035760405163a59d7f4d60e01b81523360048201526024016107f2565b600c8190556040518181527fbc1e854438813a1eff88fabe13d9c164009f178d581d45e9a557f037f957b4919060200161082c565b6000546001600160a01b031633146114655760405163a59d7f4d60e01b81523360048201526024016107f2565b6001600160a01b03811661148c5760405163d92e233d60e01b815260040160405180910390fd5b600380546001600160a01b0319166001600160a01b0383169081179091556040519081527fed2325536fb5243d4b19d1781d46658efaf1b668c1d8a693d050be0dd1cbfd309060200161082c565b6000546001600160a01b031633146115075760405163a59d7f4d60e01b81523360048201526024016107f2565b6001600160a01b03808316600090815260136020526040902054168061154b57604051633f36c1ab60e01b81526001600160a01b03841660048201526024016107f2565b60405162e8433960e51b8152600481018390526001600160a01b03821690631d086720906024015b600060405180830381600087803b15801561158d57600080fd5b505af11580156115a1573d6000803e3d6000fd5b50505050505050565b6001600160a01b03808216600090815260136020526040812054909116806115d55750600092915050565b806001600160a01b031663c392f7666040518163ffffffff1660e01b815260040160206040518083038186803b15801561160e57600080fd5b505afa158015611622573d6000803e3d6000fd5b505050506040513d601f19601f820116820180604052508101906116469190611ee9565b9392505050565b6010818154811061165d57600080fd5b6000918252602090912001546001600160a01b0316905081565b6000546001600160a01b031633146116a45760405163a59d7f4d60e01b81523360048201526024016107f2565b6127108111156116d257604051637150bba160e01b81526004810182905261271060248201526044016107f2565b60058190556040518181527f43c0669c98845a19f0c83c170dafac37d88ab6841d159a3b478365715e09a1199060200161082c565b6000546001600160a01b031633146117345760405163a59d7f4d60e01b81523360048201526024016107f2565b8051825114611763578151815160405163574092f960e01b8152600481019290925260248201526044016107f2565b60005b8251811015610c2a5761271082828151811061178457611784611ff9565b602002602001015111156117a457818181518110610b0e57610b0e611ff9565b8181815181106117b6576117b6611ff9565b6020026020010151601660008584815181106117d4576117d4611ff9565b60200260200101516001600160a01b03166001600160a01b03168152602001908152602001600020819055507f95ce88c220684eb1cbfa29b8c489102dd6ac38a615bd9f16c996786636ebb9ca83828151811061183357611833611ff9565b602002602001015183838151811061184d5761184d611ff9565b60200260200101516040516118779291906001600160a01b03929092168252602082015260400190565b60405180910390a18061188981611fd0565b915050611766565b6000546001600160a01b031633146118be5760405163a59d7f4d60e01b81523360048201526024016107f2565b6001600160a01b0381166118e55760405163d92e233d60e01b815260040160405180910390fd5b600080546001600160a01b0319166001600160a01b0383169081179091556040519081527f54a6385aa0292b04e1ef8513253c17d1863f7cdfc87029d77fd55cc4c2e717e29060200161082c565b6000546001600160a01b031633146119605760405163a59d7f4d60e01b81523360048201526024016107f2565b600d8190556040518181527f0b2ddbbbc17f5fc2d90c43b399e48d7a3d677da0218cd35a024df8a39350bd259060200161082c565b6000546001600160a01b031633146119c25760405163a59d7f4d60e01b81523360048201526024016107f2565b6001600160a01b0381166119e95760405163d92e233d60e01b815260040160405180910390fd5b600480546001600160a01b0319166001600160a01b0383169081179091556040519081527f97011acc091d73d67f71ff78bdb3837ce0103f4a52e95b01f50a28b9f7821ba69060200161082c565b6000546001600160a01b03163314611a645760405163a59d7f4d60e01b81523360048201526024016107f2565b6001600160a01b038116611a8b5760405163d92e233d60e01b815260040160405180910390fd5b600680546001600160a01b0319166001600160a01b0383169081179091556040519081527f59862d5b8f7ef1d8356d180654086286a04107247706e45b034f1fac0b3f7dec9060200161082c565b6000546001600160a01b03163314611b065760405163a59d7f4d60e01b81523360048201526024016107f2565b62015180811015611b365760405163102a6c2760e01b8152600481018290526201518060248201526044016107f2565b600f8190556040518181527f3b655fff5646f76885baca7e1dadf8b8e0095ff01de8f96a0cf75c8d8cfb53d89060200161082c565b6000546001600160a01b03163314611b985760405163a59d7f4d60e01b81523360048201526024016107f2565b6001600160a01b038083166000908152601360205260409020541680611bdc57604051633f36c1ab60e01b81526001600160a01b03841660048201526024016107f2565b6040516340650eef60e01b8152600481018390526001600160a01b038216906340650eef90602401611573565b600082601f830112611c1a57600080fd5b81356020611c2f611c2a83611fac565b611f7b565b80838252828201915082860187848660051b8901011115611c4f57600080fd5b60005b85811015611c77578135611c6581612025565b84529284019290840190600101611c52565b5090979650505050505050565b80358015158114611c9457600080fd5b919050565b600060208284031215611cab57600080fd5b813561164681612025565b600060208284031215611cc857600080fd5b815161164681612025565b600080600060608486031215611ce857600080fd5b8335611cf381612025565b925060208481013567ffffffffffffffff80821115611d1157600080fd5b611d1d88838901611c09565b94506040870135915080821115611d3357600080fd5b508501601f81018713611d4557600080fd5b8035611d53611c2a82611fac565b8082825284820191508484018a868560051b8701011115611d7357600080fd5b600094505b83851015611d9d57611d8981611c84565b835260019490940193918501918501611d78565b5080955050505050509250925092565b60008060408385031215611dc057600080fd5b8235611dcb81612025565b9150611dd960208401611c84565b90509250929050565b60008060408385031215611df557600080fd5b8235611e0081612025565b946020939093013593505050565b60008060408385031215611e2157600080fd5b823567ffffffffffffffff80821115611e3957600080fd5b611e4586838701611c09565b9350602091508185013581811115611e5c57600080fd5b85019050601f81018613611e6f57600080fd5b8035611e7d611c2a82611fac565b80828252848201915084840189868560051b8701011115611e9d57600080fd5b600094505b83851015611ec0578035835260019490940193918501918501611ea2565b5080955050505050509250929050565b600060208284031215611ee257600080fd5b5035919050565b600060208284031215611efb57600080fd5b5051919050565b604080825283519082018190526000906020906060840190828701845b82811015611f445781516001600160a01b031684529284019290840190600101611f1f565b5050508381038285015284518082528583019183019060005b81811015611c77578351151583529284019291840191600101611f5d565b604051601f8201601f1916810167ffffffffffffffff81118282101715611fa457611fa461200f565b604052919050565b600067ffffffffffffffff821115611fc657611fc661200f565b5060051b60200190565b6000600019821415611ff257634e487b7160e01b600052601160045260246000fd5b5060010190565b634e487b7160e01b600052603260045260246000fd5b634e487b7160e01b600052604160045260246000fd5b6001600160a01b038116811461203a57600080fd5b5056fea26469706673582212204bf39f71153233bd3a5136d521b9b74597003ad0ad467c9b2a7a28e9b0c822da64736f6c63430008070033",
  "linkReferences": {},
  "deployedLinkReferences": {}
}