{
  "_format": "hh-sol-artifact-1",
  "contractName": "Factory",
  "sourceName": "contracts/Factory.sol",
  "abi": [
    {
      "inputs": [
        {
          "internalType": "address",
          "name": "_poolDeployer",
          "type": "address"
        },
        {
          "internalType": "address",
          "name": "_positionStorage",
          "type": "address"
        },
        {
          "internalType": "address",
          "name": "_withdrawalMonitor",
          "type": "address"
        },
        {
          "internalType": "address",
          "name": "_userStorage",
          "type": "address"
        },
        {
          "internalType": "address",
          "name": "_priceFeed",
          "type": "address"
        },
        {
          "internalType": "address",
          "name": "_dexAggregator",
          "type": "address"
        }
      ],
      "stateMutability": "nonpayable",
      "type": "constructor"
    },
    {
      "inputs": [
        {
          "internalType": "address",
          "name": "sender",
          "type": "address"
        }
      ],
      "name": "Forbidden",
      "type": "error"
    },
    {
      "inputs": [
        {
          "internalType": "address",
          "name": "quoteToken",
          "type": "address"
        },
        {
          "internalType": "address",
          "name": "pool",
          "type": "address"
        }
      ],
      "name": "PoolExistsAlready",
      "type": "error"
    },
    {
      "inputs": [
        {
          "internalType": "address",
          "name": "quoteToken",
          "type": "address"
        }
      ],
      "name": "PoolNotExists",
      "type": "error"
    },
    {
      "inputs": [
        {
          "internalType": "uint256",
          "name": "value",
          "type": "uint256"
        },
        {
          "internalType": "uint256",
          "name": "max",
          "type": "uint256"
        }
      ],
      "name": "TooHighValue",
      "type": "error"
    },
    {
      "inputs": [
        {
          "internalType": "uint256",
          "name": "value",
          "type": "uint256"
        },
        {
          "internalType": "uint256",
          "name": "min",
          "type": "uint256"
        }
      ],
      "name": "TooLowValue",
      "type": "error"
    },
    {
      "inputs": [],
      "name": "ZeroAddress",
      "type": "error"
    },
    {
      "anonymous": false,
      "inputs": [
        {
          "indexed": true,
          "internalType": "address",
          "name": "quoteToken",
          "type": "address"
        },
        {
          "indexed": true,
          "internalType": "address",
          "name": "pool",
          "type": "address"
        },
        {
          "indexed": false,
          "internalType": "uint256",
          "name": "interest",
          "type": "uint256"
        },
        {
          "indexed": false,
          "internalType": "uint256",
          "name": "index",
          "type": "uint256"
        }
      ],
      "name": "CreatePool",
      "type": "event"
    },
    {
      "anonymous": false,
      "inputs": [
        {
          "indexed": false,
          "internalType": "address",
          "name": "baseToken",
          "type": "address"
        },
        {
          "indexed": false,
          "internalType": "uint256",
          "name": "lt",
          "type": "uint256"
        }
      ],
      "name": "SetBaseTokenLT",
      "type": "event"
    },
    {
      "anonymous": false,
      "inputs": [
        {
          "indexed": false,
          "internalType": "address",
          "name": "baseToken",
          "type": "address"
        },
        {
          "indexed": false,
          "internalType": "uint256",
          "name": "mut",
          "type": "uint256"
        }
      ],
      "name": "SetBaseTokenMUT",
      "type": "event"
    },
    {
      "anonymous": false,
      "inputs": [
        {
          "indexed": false,
          "internalType": "address",
          "name": "collateral",
          "type": "address"
        },
        {
          "indexed": false,
          "internalType": "uint256",
          "name": "lt",
          "type": "uint256"
        }
      ],
      "name": "SetCollateralLT",
      "type": "event"
    },
    {
      "anonymous": false,
      "inputs": [
        {
          "indexed": false,
          "internalType": "address",
          "name": "baseToken",
          "type": "address"
        },
        {
          "indexed": false,
          "internalType": "uint256",
          "name": "mut",
          "type": "uint256"
        }
      ],
      "name": "SetCollateralMUT",
      "type": "event"
    },
    {
      "anonymous": false,
      "inputs": [
        {
          "indexed": false,
          "internalType": "address",
          "name": "newDexAggregator",
          "type": "address"
        }
      ],
      "name": "SetDEXAggregator",
      "type": "event"
    },
    {
      "anonymous": false,
      "inputs": [
        {
          "indexed": false,
          "internalType": "uint256",
          "name": "newLiquidationFeeRate",
          "type": "uint256"
        }
      ],
      "name": "SetLiquidationFeeRate",
      "type": "event"
    },
    {
      "anonymous": false,
      "inputs": [
        {
          "indexed": false,
          "internalType": "address",
          "name": "newLiquidationFeeTo",
          "type": "address"
        }
      ],
      "name": "SetLiquidationFeeTo",
      "type": "event"
    },
    {
      "anonymous": false,
      "inputs": [
        {
          "indexed": false,
          "internalType": "address",
          "name": "newManager",
          "type": "address"
        }
      ],
      "name": "SetManager",
      "type": "event"
    },
    {
      "anonymous": false,
      "inputs": [
        {
          "indexed": false,
          "internalType": "uint256",
          "name": "newManualExpiration",
          "type": "uint256"
        }
      ],
      "name": "SetManualExpiration",
      "type": "event"
    },
    {
      "anonymous": false,
      "inputs": [
        {
          "indexed": false,
          "internalType": "uint256",
          "name": "newMinQuoteRate",
          "type": "uint256"
        }
      ],
      "name": "SetMinQuoteRate",
      "type": "event"
    },
    {
      "anonymous": false,
      "inputs": [
        {
          "indexed": false,
          "internalType": "address",
          "name": "addr",
          "type": "address"
        },
        {
          "indexed": false,
          "internalType": "bool",
          "name": "isOperator",
          "type": "bool"
        }
      ],
      "name": "SetOperator",
      "type": "event"
    },
    {
      "anonymous": false,
      "inputs": [
        {
          "indexed": false,
          "internalType": "address",
          "name": "newPriceFeed",
          "type": "address"
        }
      ],
      "name": "SetPriceFeed",
      "type": "event"
    },
    {
      "anonymous": false,
      "inputs": [
        {
          "indexed": false,
          "internalType": "uint256",
          "name": "newProtocolFeeRate",
          "type": "uint256"
        }
      ],
      "name": "SetProtocolFeeRate",
      "type": "event"
    },
    {
      "anonymous": false,
      "inputs": [
        {
          "indexed": false,
          "internalType": "address",
          "name": "newProtocolFeeTo",
          "type": "address"
        }
      ],
      "name": "SetProtocolFeeTo",
      "type": "event"
    },
    {
      "anonymous": false,
      "inputs": [
        {
          "indexed": false,
          "internalType": "uint256",
          "name": "newRollbackFee",
          "type": "uint256"
        }
      ],
      "name": "SetRollbackFee",
      "type": "event"
    },
    {
      "anonymous": false,
      "inputs": [
        {
          "indexed": false,
          "internalType": "address",
          "name": "newServiceFeeTo",
          "type": "address"
        }
      ],
      "name": "SetServiceFeeTo",
      "type": "event"
    },
    {
      "anonymous": false,
      "inputs": [
        {
          "indexed": false,
          "internalType": "address",
          "name": "newServiceToken",
          "type": "address"
        }
      ],
      "name": "SetServiceToken",
      "type": "event"
    },
    {
      "anonymous": false,
      "inputs": [
        {
          "indexed": false,
          "internalType": "uint256",
          "name": "newUpdateCollateralAmountFee",
          "type": "uint256"
        }
      ],
      "name": "SetUpdateCollateralAmountFee",
      "type": "event"
    },
    {
      "anonymous": false,
      "inputs": [
        {
          "indexed": false,
          "internalType": "uint256",
          "name": "newUpdateDeadlineFee",
          "type": "uint256"
        }
      ],
      "name": "SetUpdateDeadlineFee",
      "type": "event"
    },
    {
      "anonymous": false,
      "inputs": [
        {
          "indexed": false,
          "internalType": "uint256",
          "name": "newUpdateStoplossPriceFee",
          "type": "uint256"
        }
      ],
      "name": "SetUpdateStoplossPriceFee",
      "type": "event"
    },
    {
      "anonymous": false,
      "inputs": [
        {
          "indexed": false,
          "internalType": "address",
          "name": "newUserStorage",
          "type": "address"
        }
      ],
      "name": "SetUserStorage",
      "type": "event"
    },
    {
      "inputs": [
        {
          "internalType": "address",
          "name": "",
          "type": "address"
        }
      ],
      "name": "baseTokenLT",
      "outputs": [
        {
          "internalType": "uint256",
          "name": "",
          "type": "uint256"
        }
      ],
      "stateMutability": "view",
      "type": "function"
    },
    {
      "inputs": [
        {
          "internalType": "address",
          "name": "",
          "type": "address"
        }
      ],
      "name": "baseTokenMUT",
      "outputs": [
        {
          "internalType": "uint256",
          "name": "",
          "type": "uint256"
        }
      ],
      "stateMutability": "view",
      "type": "function"
    },
    {
      "inputs": [
        {
          "internalType": "address",
          "name": "",
          "type": "address"
        }
      ],
      "name": "collateralLT",
      "outputs": [
        {
          "internalType": "uint256",
          "name": "",
          "type": "uint256"
        }
      ],
      "stateMutability": "view",
      "type": "function"
    },
    {
      "inputs": [
        {
          "internalType": "address",
          "name": "",
          "type": "address"
        }
      ],
      "name": "collateralMUT",
      "outputs": [
        {
          "internalType": "uint256",
          "name": "",
          "type": "uint256"
        }
      ],
      "stateMutability": "view",
      "type": "function"
    },
    {
      "inputs": [
        {
          "internalType": "address",
          "name": "_quoteToken",
          "type": "address"
        },
        {
          "internalType": "uint256",
          "name": "_interest",
          "type": "uint256"
        }
      ],
      "name": "createPool",
      "outputs": [
        {
          "internalType": "address payable",
          "name": "pool",
          "type": "address"
        }
      ],
      "stateMutability": "nonpayable",
      "type": "function"
    },
    {
      "inputs": [],
      "name": "dexAggregator",
      "outputs": [
        {
          "internalType": "address",
          "name": "",
          "type": "address"
        }
      ],
      "stateMutability": "view",
      "type": "function"
    },
    {
      "inputs": [
        {
          "internalType": "address",
          "name": "_quoteToken",
          "type": "address"
        }
      ],
      "name": "interest",
      "outputs": [
        {
          "internalType": "uint256",
          "name": "",
          "type": "uint256"
        }
      ],
      "stateMutability": "view",
      "type": "function"
    },
    {
      "inputs": [],
      "name": "liquidationFeeRate",
      "outputs": [
        {
          "internalType": "uint256",
          "name": "",
          "type": "uint256"
        }
      ],
      "stateMutability": "view",
      "type": "function"
    },
    {
      "inputs": [],
      "name": "liquidationFeeTo",
      "outputs": [
        {
          "internalType": "address",
          "name": "",
          "type": "address"
        }
      ],
      "stateMutability": "view",
      "type": "function"
    },
    {
      "inputs": [],
      "name": "manager",
      "outputs": [
        {
          "internalType": "address",
          "name": "",
          "type": "address"
        }
      ],
      "stateMutability": "view",
      "type": "function"
    },
    {
      "inputs": [],
      "name": "manualExpiration",
      "outputs": [
        {
          "internalType": "uint256",
          "name": "",
          "type": "uint256"
        }
      ],
      "stateMutability": "view",
      "type": "function"
    },
    {
      "inputs": [],
      "name": "minQuoteRate",
      "outputs": [
        {
          "internalType": "uint256",
          "name": "",
          "type": "uint256"
        }
      ],
      "stateMutability": "view",
      "type": "function"
    },
    {
      "inputs": [
        {
          "internalType": "address",
          "name": "",
          "type": "address"
        }
      ],
      "name": "operator",
      "outputs": [
        {
          "internalType": "bool",
          "name": "",
          "type": "bool"
        }
      ],
      "stateMutability": "view",
      "type": "function"
    },
    {
      "inputs": [
        {
          "internalType": "address",
          "name": "",
          "type": "address"
        }
      ],
      "name": "poolByQuoteToken",
      "outputs": [
        {
          "internalType": "address",
          "name": "",
          "type": "address"
        }
      ],
      "stateMutability": "view",
      "type": "function"
    },
    {
      "inputs": [],
      "name": "poolDeployer",
      "outputs": [
        {
          "internalType": "address",
          "name": "",
          "type": "address"
        }
      ],
      "stateMutability": "view",
      "type": "function"
    },
    {
      "inputs": [
        {
          "internalType": "address",
          "name": "",
          "type": "address"
        }
      ],
      "name": "poolIndex",
      "outputs": [
        {
          "internalType": "uint256",
          "name": "",
          "type": "uint256"
        }
      ],
      "stateMutability": "view",
      "type": "function"
    },
    {
      "inputs": [],
      "name": "poolLength",
      "outputs": [
        {
          "internalType": "uint256",
          "name": "",
          "type": "uint256"
        }
      ],
      "stateMutability": "view",
      "type": "function"
    },
    {
      "inputs": [
        {
          "internalType": "uint256",
          "name": "",
          "type": "uint256"
        }
      ],
      "name": "pools",
      "outputs": [
        {
          "internalType": "address",
          "name": "",
          "type": "address"
        }
      ],
      "stateMutability": "view",
      "type": "function"
    },
    {
      "inputs": [],
      "name": "positionStorage",
      "outputs": [
        {
          "internalType": "address",
          "name": "",
          "type": "address"
        }
      ],
      "stateMutability": "view",
      "type": "function"
    },
    {
      "inputs": [],
      "name": "priceFeed",
      "outputs": [
        {
          "internalType": "address",
          "name": "",
          "type": "address"
        }
      ],
      "stateMutability": "view",
      "type": "function"
    },
    {
      "inputs": [],
      "name": "protocolFeeRate",
      "outputs": [
        {
          "internalType": "uint256",
          "name": "",
          "type": "uint256"
        }
      ],
      "stateMutability": "view",
      "type": "function"
    },
    {
      "inputs": [],
      "name": "protocolFeeTo",
      "outputs": [
        {
          "internalType": "address",
          "name": "",
          "type": "address"
        }
      ],
      "stateMutability": "view",
      "type": "function"
    },
    {
      "inputs": [],
      "name": "rollbackFee",
      "outputs": [
        {
          "internalType": "uint256",
          "name": "",
          "type": "uint256"
        }
      ],
      "stateMutability": "view",
      "type": "function"
    },
    {
      "inputs": [],
      "name": "serviceFeeTo",
      "outputs": [
        {
          "internalType": "address",
          "name": "",
          "type": "address"
        }
      ],
      "stateMutability": "view",
      "type": "function"
    },
    {
      "inputs": [],
      "name": "serviceToken",
      "outputs": [
        {
          "internalType": "address",
          "name": "",
          "type": "address"
        }
      ],
      "stateMutability": "view",
      "type": "function"
    },
    {
      "inputs": [
        {
          "internalType": "address",
          "name": "_baseToken",
          "type": "address"
        },
        {
          "internalType": "uint256",
          "name": "_lt",
          "type": "uint256"
        }
      ],
      "name": "setBaseTokenLT",
      "outputs": [],
      "stateMutability": "nonpayable",
      "type": "function"
    },
    {
      "inputs": [
        {
          "internalType": "address",
          "name": "_baseToken",
          "type": "address"
        },
        {
          "internalType": "uint256",
          "name": "_mut",
          "type": "uint256"
        }
      ],
      "name": "setBaseTokenMUT",
      "outputs": [],
      "stateMutability": "nonpayable",
      "type": "function"
    },
    {
      "inputs": [
        {
          "internalType": "address",
          "name": "_collateral",
          "type": "address"
        },
        {
          "internalType": "uint256",
          "name": "_lt",
          "type": "uint256"
        }
      ],
      "name": "setCollateralLT",
      "outputs": [],
      "stateMutability": "nonpayable",
      "type": "function"
    },
    {
      "inputs": [
        {
          "internalType": "address",
          "name": "_collateral",
          "type": "address"
        },
        {
          "internalType": "uint256",
          "name": "_mut",
          "type": "uint256"
        }
      ],
      "name": "setCollateralMUT",
      "outputs": [],
      "stateMutability": "nonpayable",
      "type": "function"
    },
    {
      "inputs": [
        {
          "internalType": "address",
          "name": "_dexAggregator",
          "type": "address"
        }
      ],
      "name": "setDEXAggregator",
      "outputs": [],
      "stateMutability": "nonpayable",
      "type": "function"
    },
    {
      "inputs": [
        {
          "internalType": "uint256",
          "name": "_liquidationFeeRate",
          "type": "uint256"
        }
      ],
      "name": "setLiquidationFeeRate",
      "outputs": [],
      "stateMutability": "nonpayable",
      "type": "function"
    },
    {
      "inputs": [
        {
          "internalType": "address",
          "name": "_liquidationFeeTo",
          "type": "address"
        }
      ],
      "name": "setLiquidationFeeTo",
      "outputs": [],
      "stateMutability": "nonpayable",
      "type": "function"
    },
    {
      "inputs": [
        {
          "internalType": "address",
          "name": "_manager",
          "type": "address"
        }
      ],
      "name": "setManager",
      "outputs": [],
      "stateMutability": "nonpayable",
      "type": "function"
    },
    {
      "inputs": [
        {
          "internalType": "uint256",
          "name": "_manualExpiration",
          "type": "uint256"
        }
      ],
      "name": "setManualExpiration",
      "outputs": [],
      "stateMutability": "nonpayable",
      "type": "function"
    },
    {
      "inputs": [
        {
          "internalType": "uint256",
          "name": "_minQuoteRate",
          "type": "uint256"
        }
      ],
      "name": "setMinQuoteRate",
      "outputs": [],
      "stateMutability": "nonpayable",
      "type": "function"
    },
    {
      "inputs": [
        {
          "internalType": "address",
          "name": "_addr",
          "type": "address"
        },
        {
          "internalType": "bool",
          "name": "_isOperator",
          "type": "bool"
        }
      ],
      "name": "setOperator",
      "outputs": [],
      "stateMutability": "nonpayable",
      "type": "function"
    },
    {
      "inputs": [
        {
          "internalType": "address",
          "name": "_quoteToken",
          "type": "address"
        },
        {
          "internalType": "address[]",
          "name": "_baseTokens",
          "type": "address[]"
        },
        {
          "internalType": "bool[]",
          "name": "_tradeables",
          "type": "bool[]"
        }
      ],
      "name": "setPoolBaseTokens",
      "outputs": [],
      "stateMutability": "nonpayable",
      "type": "function"
    },
    {
      "inputs": [
        {
          "internalType": "address",
          "name": "_quoteToken",
          "type": "address"
        },
        {
          "internalType": "uint256",
          "name": "_interest",
          "type": "uint256"
        }
      ],
      "name": "setPoolInterest",
      "outputs": [],
      "stateMutability": "nonpayable",
      "type": "function"
    },
    {
      "inputs": [
        {
          "internalType": "address",
          "name": "_priceFeed",
          "type": "address"
        }
      ],
      "name": "setPriceFeed",
      "outputs": [],
      "stateMutability": "nonpayable",
      "type": "function"
    },
    {
      "inputs": [
        {
          "internalType": "uint256",
          "name": "_protocolFeeRate",
          "type": "uint256"
        }
      ],
      "name": "setProtocolFeeRate",
      "outputs": [],
      "stateMutability": "nonpayable",
      "type": "function"
    },
    {
      "inputs": [
        {
          "internalType": "address",
          "name": "_protocolFeeTo",
          "type": "address"
        }
      ],
      "name": "setProtocolFeeTo",
      "outputs": [],
      "stateMutability": "nonpayable",
      "type": "function"
    },
    {
      "inputs": [
        {
          "internalType": "uint256",
          "name": "_rollbackFee",
          "type": "uint256"
        }
      ],
      "name": "setRollbackFee",
      "outputs": [],
      "stateMutability": "nonpayable",
      "type": "function"
    },
    {
      "inputs": [
        {
          "internalType": "address",
          "name": "_serviceFeeTo",
          "type": "address"
        }
      ],
      "name": "setServiceFeeTo",
      "outputs": [],
      "stateMutability": "nonpayable",
      "type": "function"
    },
    {
      "inputs": [
        {
          "internalType": "address",
          "name": "_serviceToken",
          "type": "address"
        }
      ],
      "name": "setServiceToken",
      "outputs": [],
      "stateMutability": "nonpayable",
      "type": "function"
    },
    {
      "inputs": [
        {
          "internalType": "uint256",
          "name": "_updateCollateralAmountFee",
          "type": "uint256"
        }
      ],
      "name": "setUpdateCollateralAmountFee",
      "outputs": [],
      "stateMutability": "nonpayable",
      "type": "function"
    },
    {
      "inputs": [
        {
          "internalType": "uint256",
          "name": "_updateDeadlineFee",
          "type": "uint256"
        }
      ],
      "name": "setUpdateDeadlineFee",
      "outputs": [],
      "stateMutability": "nonpayable",
      "type": "function"
    },
    {
      "inputs": [
        {
          "internalType": "uint256",
          "name": "_updateStoplossPriceFee",
          "type": "uint256"
        }
      ],
      "name": "setUpdateStoplossPriceFee",
      "outputs": [],
      "stateMutability": "nonpayable",
      "type": "function"
    },
    {
      "inputs": [
        {
          "internalType": "address",
          "name": "_userStorage",
          "type": "address"
        }
      ],
      "name": "setUserStorage",
      "outputs": [],
      "stateMutability": "nonpayable",
      "type": "function"
    },
    {
      "inputs": [],
      "name": "updateCollateralAmountFee",
      "outputs": [
        {
          "internalType": "uint256",
          "name": "",
          "type": "uint256"
        }
      ],
      "stateMutability": "view",
      "type": "function"
    },
    {
      "inputs": [],
      "name": "updateDeadlineFee",
      "outputs": [
        {
          "internalType": "uint256",
          "name": "",
          "type": "uint256"
        }
      ],
      "stateMutability": "view",
      "type": "function"
    },
    {
      "inputs": [],
      "name": "updateStoplossPriceFee",
      "outputs": [
        {
          "internalType": "uint256",
          "name": "",
          "type": "uint256"
        }
      ],
      "stateMutability": "view",
      "type": "function"
    },
    {
      "inputs": [],
      "name": "userStorage",
      "outputs": [
        {
          "internalType": "address",
          "name": "",
          "type": "address"
        }
      ],
      "stateMutability": "view",
      "type": "function"
    },
    {
      "inputs": [],
      "name": "withdrawalMonitor",
      "outputs": [
        {
          "internalType": "address",
          "name": "",
          "type": "address"
        }
      ],
      "stateMutability": "view",
      "type": "function"
    }
  ],
  "bytecode": "0x60e06040523480156200001157600080fd5b5060405162001c8e38038062001c8e8339810160408190526200003491620000d2565b6001600160601b0319606096871b811660805294861b851660a0529290941b90921660c052600180546001600160a01b039384166001600160a01b031991821617909155600280549484169482169490941790935560038054919092169083161790556000805490911633179055612710600e5562278d00600f5562000153565b80516001600160a01b0381168114620000cd57600080fd5b919050565b60008060008060008060c08789031215620000ec57600080fd5b620000f787620000b5565b95506200010760208801620000b5565b94506200011760408801620000b5565b93506200012760608801620000b5565b92506200013760808801620000b5565b91506200014760a08801620000b5565b90509295509295509295565b60805160601c60a05160601c60c05160601c611afb6200019360003960006105ce0152600061054e0152600081816103c301526108ab0152611afb6000f3fe608060405234801561001057600080fd5b50600436106103265760003560e01c80638cd47415116101b8578063b745db5611610104578063e216ab44116100a2578063eddf82bb1161007c578063eddf82bb1461074c578063ef36925214610755578063f5d0e17514610768578063fb56eb711461078857600080fd5b8063e216ab4414610713578063e47eb30c14610726578063e9a4e7a21461073957600080fd5b8063c7900584116100de578063c7900584146106d1578063d0ebdbe7146106da578063dd4fad93146106ed578063e0e6799f1461070057600080fd5b8063b745db561461068b578063b7692968146106ab578063bd2bae9d146106be57600080fd5b8063aa6dfe0311610171578063ac4afa381161014b578063ac4afa381461063c578063b13aa2d61461064f578063b42754a514610662578063b58862e71461068257600080fd5b8063aa6dfe0314610603578063aac9d2b814610616578063ac436bdf1461062957600080fd5b80638cd474151461054957806390f43680146105705780639142887f146105835780639a30739114610596578063a4fbc0d7146105c9578063a5e1b628146105f057600080fd5b806350772b3f116102775780635fde0ec011610230578063724e78da1161020a578063724e78da146104fd578063741bef1a1461051057806375e58079146105235780637c21d5e01461053657600080fd5b80635fde0ec0146104c1578063662dc319146104e15780636d274553146104f457600080fd5b806350772b3f14610463578063558a72971461047657806358f85880146104895780635d463c30146104925780635ef21b2f146104a55780635fb3b1b5146104b857600080fd5b80633119049a116102e45780633c093037116102be5780633c0930371461040b578063481c6a75146104145780634d5c262e146104275780634d83bc331461043a57600080fd5b80633119049a146103be57806336d6135b146103e55780633b0e0e84146103f857600080fd5b80624ef9671461032b578063081e3eda14610340578063095bf1bb1461035757806312d36171146103775780632059bb64146103a25780632a5025b7146103b5575b600080fd5b61033e610339366004611997565b61079b565b005b6010545b6040519081526020015b60405180910390f35b61034461036536600461181f565b60156020526000908152604090205481565b61038a61038536600461196b565b610809565b6040516001600160a01b03909116815260200161034e565b61033e6103b036600461196b565b6109e1565b610344600c5481565b61038a7f000000000000000000000000000000000000000000000000000000000000000081565b61033e6103f3366004611997565b610a95565b61033e61040636600461196b565b610af7565b610344600a5481565b60005461038a906001600160a01b031681565b61033e610435366004611859565b610ba3565b61038a61044836600461181f565b6013602052600090815260409020546001600160a01b031681565b61033e61047136600461196b565b610c7a565b61033e610484366004611936565b610d26565b61034460055481565b61033e6104a0366004611997565b610daf565b61033e6104b336600461181f565b610e11565b61034460075481565b6103446104cf36600461181f565b60176020526000908152604090205481565b61033e6104ef36600461181f565b610e8c565b610344600e5481565b61033e61050b36600461181f565b610f07565b60025461038a906001600160a01b031681565b60015461038a906001600160a01b031681565b60035461038a906001600160a01b031681565b61038a7f000000000000000000000000000000000000000000000000000000000000000081565b61033e61057e366004611997565b610fa9565b61033e61059136600461181f565b611039565b6105b96105a436600461181f565b60116020526000908152604090205460ff1681565b604051901515815260200161034e565b61038a7f000000000000000000000000000000000000000000000000000000000000000081565b61033e6105fe366004611997565b6110db565b61033e61061136600461181f565b61113d565b61033e61062436600461196b565b6111df565b61034461063736600461181f565b6112ae565b61038a61064a366004611997565b611351565b61033e61065d366004611997565b61137b565b61034461067036600461181f565b60126020526000908152604090205481565b610344600b5481565b61034461069936600461181f565b60146020526000908152604090205481565b60085461038a906001600160a01b031681565b60065461038a906001600160a01b031681565b610344600d5481565b61033e6106e836600461181f565b61140b565b61033e6106fb366004611997565b6114ad565b61033e61070e36600461181f565b61150f565b61033e61072136600461181f565b6115b1565b61033e610734366004611997565b611653565b60095461038a906001600160a01b031681565b610344600f5481565b60045461038a906001600160a01b031681565b61034461077636600461181f565b60166020526000908152604090205481565b61033e61079636600461196b565b6116e5565b6000546001600160a01b031633146107cd5760405163a59d7f4d60e01b81523360048201526024015b60405180910390fd5b600a8190556040518181527fc6ea9765bcfa0141a8ae379f2095c41676ac19b776f813d3f9470083803602a7906020015b60405180910390a150565b600080546001600160a01b031633146108375760405163a59d7f4d60e01b81523360048201526024016107c4565b506001600160a01b038083166000908152601360205260409020541680156108855760405163084252d560e11b81526001600160a01b038085166004830152821660248201526044016107c4565b6040516327c74f7f60e01b81526001600160a01b038481166004830152602482018490527f000000000000000000000000000000000000000000000000000000000000000016906327c74f7f90604401602060405180830381600087803b1580156108ef57600080fd5b505af1158015610903573d6000803e3d6000fd5b505050506040513d601f19601f82011682018060405250810190610927919061183c565b601080546001810182557f1b6847dc741a1b0cd08d278845f9d819d87b734759afb55fe2de5cb82a9ae6720180546001600160a01b03199081166001600160a01b038581169182179093558354600082815260126020908152604080832093909355948a168082526013865290829020805490941683179093559354845188815293840152939450917f2b441112f88ae4b324ae75fa72f06e95a0bda7bca0621af0cceae2e36b80c909910160405180910390a392915050565b6000546001600160a01b03163314610a0e5760405163a59d7f4d60e01b81523360048201526024016107c4565b612710811115610a3c57604051637150bba160e01b81526004810182905261271060248201526044016107c4565b6001600160a01b038216600081815260156020908152604091829020849055815192835282018390527f8add957a7db6c1e209aa088c73a62080ac8d87df445a42425edc183b0d2b3a4591015b60405180910390a15050565b6000546001600160a01b03163314610ac25760405163a59d7f4d60e01b81523360048201526024016107c4565b600b8190556040518181527ff08490e6d193bbfc8ad4250871b2ae2e139889261e6276d69d77eb0be7848cc7906020016107fe565b6000546001600160a01b03163314610b245760405163a59d7f4d60e01b81523360048201526024016107c4565b612710811115610b5257604051637150bba160e01b81526004810182905261271060248201526044016107c4565b6001600160a01b038216600081815260166020908152604091829020849055815192835282018390527f95ce88c220684eb1cbfa29b8c489102dd6ac38a615bd9f16c996786636ebb9ca9101610a89565b6000546001600160a01b03163314610bd05760405163a59d7f4d60e01b81523360048201526024016107c4565b6001600160a01b038084166000908152601360205260409020541680610c1457604051633f36c1ab60e01b81526001600160a01b03851660048201526024016107c4565b6040516332196a0160e01b81526001600160a01b038216906332196a0190610c4290869086906004016119c9565b600060405180830381600087803b158015610c5c57600080fd5b505af1158015610c70573d6000803e3d6000fd5b5050505050505050565b6000546001600160a01b03163314610ca75760405163a59d7f4d60e01b81523360048201526024016107c4565b612710811115610cd557604051637150bba160e01b81526004810182905261271060248201526044016107c4565b6001600160a01b038216600081815260176020908152604091829020849055815192835282018390527f0b2fbf1cb794ef27c93f2189ce22f82871c05ecfb1d103d7d7bb7090118dc1c69101610a89565b6000546001600160a01b03163314610d535760405163a59d7f4d60e01b81523360048201526024016107c4565b6001600160a01b038216600081815260116020908152604091829020805460ff19168515159081179091558251938452908301527f1618a22a3b00b9ac70fd5a82f1f5cdd8cb272bd0f1b740ddf7c26ab05881dd5b9101610a89565b6000546001600160a01b03163314610ddc5760405163a59d7f4d60e01b81523360048201526024016107c4565b60078190556040518181527f37740cd8864334fffe6b06452e32307736156de02df2d346c4ef77d649827f32906020016107fe565b6000546001600160a01b03163314610e3e5760405163a59d7f4d60e01b81523360048201526024016107c4565b600880546001600160a01b0319166001600160a01b0383169081179091556040519081527ff11afbeac1d4f4dd22e57c9a7e0f2609bb76b858a038c0a5b45593887c86bd55906020016107fe565b6000546001600160a01b03163314610eb95760405163a59d7f4d60e01b81523360048201526024016107c4565b600980546001600160a01b0319166001600160a01b0383169081179091556040519081527f7e3d013374f40dc62cec68879efd2d50157b93dfe8fb48bb716e53172e5b0f94906020016107fe565b6000546001600160a01b03163314610f345760405163a59d7f4d60e01b81523360048201526024016107c4565b6001600160a01b038116610f5b5760405163d92e233d60e01b815260040160405180910390fd5b600280546001600160a01b0319166001600160a01b0383169081179091556040519081527ff724a45d041687842411f2b977ef22ab8f43c8f1104f4592b42a00f9b34a643d906020016107fe565b6000546001600160a01b03163314610fd65760405163a59d7f4d60e01b81523360048201526024016107c4565b6127108110156110045760405163102a6c2760e01b81526004810182905261271060248201526044016107c4565b600e8190556040518181527f76ac3f03024a7eaac1162b2497ce4f632a0fe15eac444f9b01fff9620a166c25906020016107fe565b6000546001600160a01b031633146110665760405163a59d7f4d60e01b81523360048201526024016107c4565b6001600160a01b03811661108d5760405163d92e233d60e01b815260040160405180910390fd5b600180546001600160a01b0319166001600160a01b0383169081179091556040519081527f193361fce04ed0c4e2cb4638cdc21c56d4313f5066142224555c49d3933e7ca4906020016107fe565b6000546001600160a01b031633146111085760405163a59d7f4d60e01b81523360048201526024016107c4565b600c8190556040518181527fbc1e854438813a1eff88fabe13d9c164009f178d581d45e9a557f037f957b491906020016107fe565b6000546001600160a01b0316331461116a5760405163a59d7f4d60e01b81523360048201526024016107c4565b6001600160a01b0381166111915760405163d92e233d60e01b815260040160405180910390fd5b600380546001600160a01b0319166001600160a01b0383169081179091556040519081527fed2325536fb5243d4b19d1781d46658efaf1b668c1d8a693d050be0dd1cbfd30906020016107fe565b6000546001600160a01b0316331461120c5760405163a59d7f4d60e01b81523360048201526024016107c4565b6001600160a01b03808316600090815260136020526040902054168061125057604051633f36c1ab60e01b81526001600160a01b03841660048201526024016107c4565b60405162e8433960e51b8152600481018390526001600160a01b03821690631d08672090602401600060405180830381600087803b15801561129157600080fd5b505af11580156112a5573d6000803e3d6000fd5b50505050505050565b6001600160a01b03808216600090815260136020526040812054909116806112d95750600092915050565b806001600160a01b031663c392f7666040518163ffffffff1660e01b815260040160206040518083038186803b15801561131257600080fd5b505afa158015611326573d6000803e3d6000fd5b505050506040513d601f19601f8201168201806040525081019061134a91906119b0565b9392505050565b6010818154811061136157600080fd5b6000918252602090912001546001600160a01b0316905081565b6000546001600160a01b031633146113a85760405163a59d7f4d60e01b81523360048201526024016107c4565b6127108111156113d657604051637150bba160e01b81526004810182905261271060248201526044016107c4565b60058190556040518181527f43c0669c98845a19f0c83c170dafac37d88ab6841d159a3b478365715e09a119906020016107fe565b6000546001600160a01b031633146114385760405163a59d7f4d60e01b81523360048201526024016107c4565b6001600160a01b03811661145f5760405163d92e233d60e01b815260040160405180910390fd5b600080546001600160a01b0319166001600160a01b0383169081179091556040519081527f54a6385aa0292b04e1ef8513253c17d1863f7cdfc87029d77fd55cc4c2e717e2906020016107fe565b6000546001600160a01b031633146114da5760405163a59d7f4d60e01b81523360048201526024016107c4565b600d8190556040518181527f0b2ddbbbc17f5fc2d90c43b399e48d7a3d677da0218cd35a024df8a39350bd25906020016107fe565b6000546001600160a01b0316331461153c5760405163a59d7f4d60e01b81523360048201526024016107c4565b6001600160a01b0381166115635760405163d92e233d60e01b815260040160405180910390fd5b600480546001600160a01b0319166001600160a01b0383169081179091556040519081527f97011acc091d73d67f71ff78bdb3837ce0103f4a52e95b01f50a28b9f7821ba6906020016107fe565b6000546001600160a01b031633146115de5760405163a59d7f4d60e01b81523360048201526024016107c4565b6001600160a01b0381166116055760405163d92e233d60e01b815260040160405180910390fd5b600680546001600160a01b0319166001600160a01b0383169081179091556040519081527f59862d5b8f7ef1d8356d180654086286a04107247706e45b034f1fac0b3f7dec906020016107fe565b6000546001600160a01b031633146116805760405163a59d7f4d60e01b81523360048201526024016107c4565b62278d008110156116b05760405163102a6c2760e01b81526004810182905262278d0060248201526044016107c4565b600f8190556040518181527f3b655fff5646f76885baca7e1dadf8b8e0095ff01de8f96a0cf75c8d8cfb53d8906020016107fe565b6000546001600160a01b031633146117125760405163a59d7f4d60e01b81523360048201526024016107c4565b61271081111561174057604051637150bba160e01b81526004810182905261271060248201526044016107c4565b6001600160a01b038216600081815260146020908152604091829020849055815192835282018390527f44d431e2f3cdcfd17ac59dba4b434d2cb8b7d98ec61f6932e706b8d5229ff6529101610a89565b600082601f8301126117a257600080fd5b813560206117b76117b283611a73565b611a42565b80838252828201915082860187848660051b89010111156117d757600080fd5b60005b858110156117fd576117eb8261180a565b845292840192908401906001016117da565b5090979650505050505050565b8035801515811461181a57600080fd5b919050565b60006020828403121561183157600080fd5b813561134a81611aad565b60006020828403121561184e57600080fd5b815161134a81611aad565b60008060006060848603121561186e57600080fd5b833561187981611aad565b925060208481013567ffffffffffffffff8082111561189757600080fd5b818701915087601f8301126118ab57600080fd5b81356118b96117b282611a73565b8082825285820191508585018b878560051b88010111156118d957600080fd5b600095505b838610156119055780356118f181611aad565b8352600195909501949186019186016118de565b5096505050604087013592508083111561191e57600080fd5b505061192c86828701611791565b9150509250925092565b6000806040838503121561194957600080fd5b823561195481611aad565b91506119626020840161180a565b90509250929050565b6000806040838503121561197e57600080fd5b823561198981611aad565b946020939093013593505050565b6000602082840312156119a957600080fd5b5035919050565b6000602082840312156119c257600080fd5b5051919050565b604080825283519082018190526000906020906060840190828701845b82811015611a0b5781516001600160a01b0316845292840192908401906001016119e6565b5050508381038285015284518082528583019183019060005b818110156117fd578351151583529284019291840191600101611a24565b604051601f8201601f1916810167ffffffffffffffff81118282101715611a6b57611a6b611a97565b604052919050565b600067ffffffffffffffff821115611a8d57611a8d611a97565b5060051b60200190565b634e487b7160e01b600052604160045260246000fd5b6001600160a01b0381168114611ac257600080fd5b5056fea2646970667358221220b69139cc86a6b077afcf87e6a7e2dbc70a99630a320ea8edb5c327950999907564736f6c63430008070033",
  "linkReferences": {},
  "deployedLinkReferences": {}
}