{
  "_format": "hh-sol-artifact-1",
  "contractName": "Factory",
  "sourceName": "contracts/Factory.sol",
  "abi": [
    {
      "inputs": [
        {
          "internalType": "address",
          "name": "_poolDeployer",
          "type": "address"
        },
        {
          "internalType": "address",
          "name": "_positionStorage",
          "type": "address"
        },
        {
          "internalType": "address",
          "name": "_withdrawalMonitor",
          "type": "address"
        },
        {
          "internalType": "address",
          "name": "_userStorage",
          "type": "address"
        },
        {
          "internalType": "address",
          "name": "_priceFeed",
          "type": "address"
        },
        {
          "internalType": "address",
          "name": "_dexAggregator",
          "type": "address"
        }
      ],
      "stateMutability": "nonpayable",
      "type": "constructor"
    },
    {
      "inputs": [
        {
          "internalType": "uint256",
          "name": "length0",
          "type": "uint256"
        },
        {
          "internalType": "uint256",
          "name": "length1",
          "type": "uint256"
        }
      ],
      "name": "BadLengths",
      "type": "error"
    },
    {
      "inputs": [
        {
          "internalType": "address",
          "name": "sender",
          "type": "address"
        }
      ],
      "name": "Forbidden",
      "type": "error"
    },
    {
      "inputs": [
        {
          "internalType": "address",
          "name": "quoteToken",
          "type": "address"
        },
        {
          "internalType": "address",
          "name": "pool",
          "type": "address"
        }
      ],
      "name": "PoolExistsAlready",
      "type": "error"
    },
    {
      "inputs": [
        {
          "internalType": "address",
          "name": "quoteToken",
          "type": "address"
        }
      ],
      "name": "PoolNotExists",
      "type": "error"
    },
    {
      "inputs": [
        {
          "internalType": "uint256",
          "name": "value",
          "type": "uint256"
        },
        {
          "internalType": "uint256",
          "name": "max",
          "type": "uint256"
        }
      ],
      "name": "TooHighValue",
      "type": "error"
    },
    {
      "inputs": [
        {
          "internalType": "uint256",
          "name": "value",
          "type": "uint256"
        },
        {
          "internalType": "uint256",
          "name": "min",
          "type": "uint256"
        }
      ],
      "name": "TooLowValue",
      "type": "error"
    },
    {
      "inputs": [],
      "name": "ZeroAddress",
      "type": "error"
    },
    {
      "anonymous": false,
      "inputs": [
        {
          "indexed": true,
          "internalType": "address",
          "name": "quoteToken",
          "type": "address"
        },
        {
          "indexed": true,
          "internalType": "address",
          "name": "pool",
          "type": "address"
        },
        {
          "indexed": false,
          "internalType": "uint256",
          "name": "interest",
          "type": "uint256"
        },
        {
          "indexed": false,
          "internalType": "uint256",
          "name": "index",
          "type": "uint256"
        }
      ],
      "name": "CreatePool",
      "type": "event"
    },
    {
      "anonymous": false,
      "inputs": [
        {
          "indexed": false,
          "internalType": "address",
          "name": "baseToken",
          "type": "address"
        },
        {
          "indexed": false,
          "internalType": "uint256",
          "name": "lt",
          "type": "uint256"
        }
      ],
      "name": "SetBaseTokenLT",
      "type": "event"
    },
    {
      "anonymous": false,
      "inputs": [
        {
          "indexed": false,
          "internalType": "address",
          "name": "baseToken",
          "type": "address"
        },
        {
          "indexed": false,
          "internalType": "uint256",
          "name": "mut",
          "type": "uint256"
        }
      ],
      "name": "SetBaseTokenMUT",
      "type": "event"
    },
    {
      "anonymous": false,
      "inputs": [
        {
          "indexed": false,
          "internalType": "address",
          "name": "collateral",
          "type": "address"
        },
        {
          "indexed": false,
          "internalType": "uint256",
          "name": "lt",
          "type": "uint256"
        }
      ],
      "name": "SetCollateralLT",
      "type": "event"
    },
    {
      "anonymous": false,
      "inputs": [
        {
          "indexed": false,
          "internalType": "address",
          "name": "baseToken",
          "type": "address"
        },
        {
          "indexed": false,
          "internalType": "uint256",
          "name": "mut",
          "type": "uint256"
        }
      ],
      "name": "SetCollateralMUT",
      "type": "event"
    },
    {
      "anonymous": false,
      "inputs": [
        {
          "indexed": false,
          "internalType": "address",
          "name": "newDexAggregator",
          "type": "address"
        }
      ],
      "name": "SetDEXAggregator",
      "type": "event"
    },
    {
      "anonymous": false,
      "inputs": [
        {
          "indexed": false,
          "internalType": "uint256",
          "name": "newLiquidationFeeRate",
          "type": "uint256"
        }
      ],
      "name": "SetLiquidationFeeRate",
      "type": "event"
    },
    {
      "anonymous": false,
      "inputs": [
        {
          "indexed": false,
          "internalType": "address",
          "name": "newLiquidationFeeTo",
          "type": "address"
        }
      ],
      "name": "SetLiquidationFeeTo",
      "type": "event"
    },
    {
      "anonymous": false,
      "inputs": [
        {
          "indexed": false,
          "internalType": "address",
          "name": "newManager",
          "type": "address"
        }
      ],
      "name": "SetManager",
      "type": "event"
    },
    {
      "anonymous": false,
      "inputs": [
        {
          "indexed": false,
          "internalType": "uint256",
          "name": "newManualExpiration",
          "type": "uint256"
        }
      ],
      "name": "SetManualExpiration",
      "type": "event"
    },
    {
      "anonymous": false,
      "inputs": [
        {
          "indexed": false,
          "internalType": "uint256",
          "name": "newMinQuoteRate",
          "type": "uint256"
        }
      ],
      "name": "SetMinQuoteRate",
      "type": "event"
    },
    {
      "anonymous": false,
      "inputs": [
        {
          "indexed": false,
          "internalType": "address",
          "name": "addr",
          "type": "address"
        },
        {
          "indexed": false,
          "internalType": "bool",
          "name": "isOperator",
          "type": "bool"
        }
      ],
      "name": "SetOperator",
      "type": "event"
    },
    {
      "anonymous": false,
      "inputs": [
        {
          "indexed": false,
          "internalType": "address",
          "name": "newPriceFeed",
          "type": "address"
        }
      ],
      "name": "SetPriceFeed",
      "type": "event"
    },
    {
      "anonymous": false,
      "inputs": [
        {
          "indexed": false,
          "internalType": "uint256",
          "name": "newProtocolFeeRate",
          "type": "uint256"
        }
      ],
      "name": "SetProtocolFeeRate",
      "type": "event"
    },
    {
      "anonymous": false,
      "inputs": [
        {
          "indexed": false,
          "internalType": "address",
          "name": "newProtocolFeeTo",
          "type": "address"
        }
      ],
      "name": "SetProtocolFeeTo",
      "type": "event"
    },
    {
      "anonymous": false,
      "inputs": [
        {
          "indexed": false,
          "internalType": "uint256",
          "name": "newRollbackFee",
          "type": "uint256"
        }
      ],
      "name": "SetRollbackFee",
      "type": "event"
    },
    {
      "anonymous": false,
      "inputs": [
        {
          "indexed": false,
          "internalType": "address",
          "name": "newServiceFeeTo",
          "type": "address"
        }
      ],
      "name": "SetServiceFeeTo",
      "type": "event"
    },
    {
      "anonymous": false,
      "inputs": [
        {
          "indexed": false,
          "internalType": "address",
          "name": "newServiceToken",
          "type": "address"
        }
      ],
      "name": "SetServiceToken",
      "type": "event"
    },
    {
      "anonymous": false,
      "inputs": [
        {
          "indexed": false,
          "internalType": "uint256",
          "name": "newUpdateCollateralAmountFee",
          "type": "uint256"
        }
      ],
      "name": "SetUpdateCollateralAmountFee",
      "type": "event"
    },
    {
      "anonymous": false,
      "inputs": [
        {
          "indexed": false,
          "internalType": "uint256",
          "name": "newUpdateDeadlineFee",
          "type": "uint256"
        }
      ],
      "name": "SetUpdateDeadlineFee",
      "type": "event"
    },
    {
      "anonymous": false,
      "inputs": [
        {
          "indexed": false,
          "internalType": "uint256",
          "name": "newUpdateTPnSLFee",
          "type": "uint256"
        }
      ],
      "name": "SetUpdateTPnSLFee",
      "type": "event"
    },
    {
      "anonymous": false,
      "inputs": [
        {
          "indexed": false,
          "internalType": "address",
          "name": "newUserStorage",
          "type": "address"
        }
      ],
      "name": "SetUserStorage",
      "type": "event"
    },
    {
      "inputs": [
        {
          "internalType": "address",
          "name": "",
          "type": "address"
        }
      ],
      "name": "baseTokenLT",
      "outputs": [
        {
          "internalType": "uint256",
          "name": "",
          "type": "uint256"
        }
      ],
      "stateMutability": "view",
      "type": "function"
    },
    {
      "inputs": [
        {
          "internalType": "address",
          "name": "",
          "type": "address"
        }
      ],
      "name": "baseTokenMUT",
      "outputs": [
        {
          "internalType": "uint256",
          "name": "",
          "type": "uint256"
        }
      ],
      "stateMutability": "view",
      "type": "function"
    },
    {
      "inputs": [
        {
          "internalType": "address",
          "name": "",
          "type": "address"
        }
      ],
      "name": "collateralLT",
      "outputs": [
        {
          "internalType": "uint256",
          "name": "",
          "type": "uint256"
        }
      ],
      "stateMutability": "view",
      "type": "function"
    },
    {
      "inputs": [
        {
          "internalType": "address",
          "name": "",
          "type": "address"
        }
      ],
      "name": "collateralMUT",
      "outputs": [
        {
          "internalType": "uint256",
          "name": "",
          "type": "uint256"
        }
      ],
      "stateMutability": "view",
      "type": "function"
    },
    {
      "inputs": [
        {
          "internalType": "address",
          "name": "_quoteToken",
          "type": "address"
        },
        {
          "internalType": "uint256",
          "name": "_interest",
          "type": "uint256"
        }
      ],
      "name": "createPool",
      "outputs": [
        {
          "internalType": "address payable",
          "name": "pool",
          "type": "address"
        }
      ],
      "stateMutability": "nonpayable",
      "type": "function"
    },
    {
      "inputs": [],
      "name": "dexAggregator",
      "outputs": [
        {
          "internalType": "address",
          "name": "",
          "type": "address"
        }
      ],
      "stateMutability": "view",
      "type": "function"
    },
    {
      "inputs": [
        {
          "internalType": "address",
          "name": "_quoteToken",
          "type": "address"
        }
      ],
      "name": "interest",
      "outputs": [
        {
          "internalType": "uint256",
          "name": "",
          "type": "uint256"
        }
      ],
      "stateMutability": "view",
      "type": "function"
    },
    {
      "inputs": [],
      "name": "liquidationFeeRate",
      "outputs": [
        {
          "internalType": "uint256",
          "name": "",
          "type": "uint256"
        }
      ],
      "stateMutability": "view",
      "type": "function"
    },
    {
      "inputs": [],
      "name": "liquidationFeeTo",
      "outputs": [
        {
          "internalType": "address",
          "name": "",
          "type": "address"
        }
      ],
      "stateMutability": "view",
      "type": "function"
    },
    {
      "inputs": [],
      "name": "manager",
      "outputs": [
        {
          "internalType": "address",
          "name": "",
          "type": "address"
        }
      ],
      "stateMutability": "view",
      "type": "function"
    },
    {
      "inputs": [],
      "name": "manualExpiration",
      "outputs": [
        {
          "internalType": "uint256",
          "name": "",
          "type": "uint256"
        }
      ],
      "stateMutability": "view",
      "type": "function"
    },
    {
      "inputs": [],
      "name": "minQuoteRate",
      "outputs": [
        {
          "internalType": "uint256",
          "name": "",
          "type": "uint256"
        }
      ],
      "stateMutability": "view",
      "type": "function"
    },
    {
      "inputs": [
        {
          "internalType": "address",
          "name": "",
          "type": "address"
        }
      ],
      "name": "operator",
      "outputs": [
        {
          "internalType": "bool",
          "name": "",
          "type": "bool"
        }
      ],
      "stateMutability": "view",
      "type": "function"
    },
    {
      "inputs": [
        {
          "internalType": "address",
          "name": "",
          "type": "address"
        }
      ],
      "name": "poolByQuoteToken",
      "outputs": [
        {
          "internalType": "address",
          "name": "",
          "type": "address"
        }
      ],
      "stateMutability": "view",
      "type": "function"
    },
    {
      "inputs": [],
      "name": "poolDeployer",
      "outputs": [
        {
          "internalType": "address",
          "name": "",
          "type": "address"
        }
      ],
      "stateMutability": "view",
      "type": "function"
    },
    {
      "inputs": [
        {
          "internalType": "address",
          "name": "",
          "type": "address"
        }
      ],
      "name": "poolIndex",
      "outputs": [
        {
          "internalType": "uint256",
          "name": "",
          "type": "uint256"
        }
      ],
      "stateMutability": "view",
      "type": "function"
    },
    {
      "inputs": [],
      "name": "poolLength",
      "outputs": [
        {
          "internalType": "uint256",
          "name": "",
          "type": "uint256"
        }
      ],
      "stateMutability": "view",
      "type": "function"
    },
    {
      "inputs": [
        {
          "internalType": "uint256",
          "name": "",
          "type": "uint256"
        }
      ],
      "name": "pools",
      "outputs": [
        {
          "internalType": "address",
          "name": "",
          "type": "address"
        }
      ],
      "stateMutability": "view",
      "type": "function"
    },
    {
      "inputs": [],
      "name": "positionStorage",
      "outputs": [
        {
          "internalType": "address",
          "name": "",
          "type": "address"
        }
      ],
      "stateMutability": "view",
      "type": "function"
    },
    {
      "inputs": [],
      "name": "priceFeed",
      "outputs": [
        {
          "internalType": "address",
          "name": "",
          "type": "address"
        }
      ],
      "stateMutability": "view",
      "type": "function"
    },
    {
      "inputs": [],
      "name": "protocolFeeRate",
      "outputs": [
        {
          "internalType": "uint256",
          "name": "",
          "type": "uint256"
        }
      ],
      "stateMutability": "view",
      "type": "function"
    },
    {
      "inputs": [],
      "name": "protocolFeeTo",
      "outputs": [
        {
          "internalType": "address",
          "name": "",
          "type": "address"
        }
      ],
      "stateMutability": "view",
      "type": "function"
    },
    {
      "inputs": [],
      "name": "rollbackFee",
      "outputs": [
        {
          "internalType": "uint256",
          "name": "",
          "type": "uint256"
        }
      ],
      "stateMutability": "view",
      "type": "function"
    },
    {
      "inputs": [],
      "name": "serviceFeeTo",
      "outputs": [
        {
          "internalType": "address",
          "name": "",
          "type": "address"
        }
      ],
      "stateMutability": "view",
      "type": "function"
    },
    {
      "inputs": [],
      "name": "serviceToken",
      "outputs": [
        {
          "internalType": "address",
          "name": "",
          "type": "address"
        }
      ],
      "stateMutability": "view",
      "type": "function"
    },
    {
      "inputs": [
        {
          "internalType": "address[]",
          "name": "_baseTokens",
          "type": "address[]"
        },
        {
          "internalType": "uint256[]",
          "name": "_lts",
          "type": "uint256[]"
        }
      ],
      "name": "setBaseTokenLT",
      "outputs": [],
      "stateMutability": "nonpayable",
      "type": "function"
    },
    {
      "inputs": [
        {
          "internalType": "address[]",
          "name": "_baseTokens",
          "type": "address[]"
        },
        {
          "internalType": "uint256[]",
          "name": "_muts",
          "type": "uint256[]"
        }
      ],
      "name": "setBaseTokenMUT",
      "outputs": [],
      "stateMutability": "nonpayable",
      "type": "function"
    },
    {
      "inputs": [
        {
          "internalType": "address[]",
          "name": "_collaterals",
          "type": "address[]"
        },
        {
          "internalType": "uint256[]",
          "name": "_lts",
          "type": "uint256[]"
        }
      ],
      "name": "setCollateralLT",
      "outputs": [],
      "stateMutability": "nonpayable",
      "type": "function"
    },
    {
      "inputs": [
        {
          "internalType": "address[]",
          "name": "_collaterals",
          "type": "address[]"
        },
        {
          "internalType": "uint256[]",
          "name": "_muts",
          "type": "uint256[]"
        }
      ],
      "name": "setCollateralMUT",
      "outputs": [],
      "stateMutability": "nonpayable",
      "type": "function"
    },
    {
      "inputs": [
        {
          "internalType": "address",
          "name": "_dexAggregator",
          "type": "address"
        }
      ],
      "name": "setDEXAggregator",
      "outputs": [],
      "stateMutability": "nonpayable",
      "type": "function"
    },
    {
      "inputs": [
        {
          "internalType": "uint256",
          "name": "_liquidationFeeRate",
          "type": "uint256"
        }
      ],
      "name": "setLiquidationFeeRate",
      "outputs": [],
      "stateMutability": "nonpayable",
      "type": "function"
    },
    {
      "inputs": [
        {
          "internalType": "address",
          "name": "_liquidationFeeTo",
          "type": "address"
        }
      ],
      "name": "setLiquidationFeeTo",
      "outputs": [],
      "stateMutability": "nonpayable",
      "type": "function"
    },
    {
      "inputs": [
        {
          "internalType": "address",
          "name": "_manager",
          "type": "address"
        }
      ],
      "name": "setManager",
      "outputs": [],
      "stateMutability": "nonpayable",
      "type": "function"
    },
    {
      "inputs": [
        {
          "internalType": "uint256",
          "name": "_manualExpiration",
          "type": "uint256"
        }
      ],
      "name": "setManualExpiration",
      "outputs": [],
      "stateMutability": "nonpayable",
      "type": "function"
    },
    {
      "inputs": [
        {
          "internalType": "uint256",
          "name": "_minQuoteRate",
          "type": "uint256"
        }
      ],
      "name": "setMinQuoteRate",
      "outputs": [],
      "stateMutability": "nonpayable",
      "type": "function"
    },
    {
      "inputs": [
        {
          "internalType": "address",
          "name": "_addr",
          "type": "address"
        },
        {
          "internalType": "bool",
          "name": "_isOperator",
          "type": "bool"
        }
      ],
      "name": "setOperator",
      "outputs": [],
      "stateMutability": "nonpayable",
      "type": "function"
    },
    {
      "inputs": [
        {
          "internalType": "address",
          "name": "_quoteToken",
          "type": "address"
        },
        {
          "internalType": "address[]",
          "name": "_baseTokens",
          "type": "address[]"
        },
        {
          "internalType": "bool[]",
          "name": "_tradeables",
          "type": "bool[]"
        }
      ],
      "name": "setPoolBaseTokens",
      "outputs": [],
      "stateMutability": "nonpayable",
      "type": "function"
    },
    {
      "inputs": [
        {
          "internalType": "address",
          "name": "_quoteToken",
          "type": "address"
        },
        {
          "internalType": "uint256",
          "name": "_interest",
          "type": "uint256"
        }
      ],
      "name": "setPoolInterest",
      "outputs": [],
      "stateMutability": "nonpayable",
      "type": "function"
    },
    {
      "inputs": [
        {
          "internalType": "address",
          "name": "_quoteToken",
          "type": "address"
        },
        {
          "internalType": "address",
          "name": "_baseToken",
          "type": "address"
        },
        {
          "internalType": "uint256",
          "name": "_maxBaseReserve",
          "type": "uint256"
        }
      ],
      "name": "setPoolMaxBaseReserve",
      "outputs": [],
      "stateMutability": "nonpayable",
      "type": "function"
    },
    {
      "inputs": [
        {
          "internalType": "address",
          "name": "_quoteToken",
          "type": "address"
        },
        {
          "internalType": "address",
          "name": "_collateral",
          "type": "address"
        },
        {
          "internalType": "uint256",
          "name": "_maxCollateralReserve",
          "type": "uint256"
        }
      ],
      "name": "setPoolMaxCollateralReserve",
      "outputs": [],
      "stateMutability": "nonpayable",
      "type": "function"
    },
    {
      "inputs": [
        {
          "internalType": "address",
          "name": "_priceFeed",
          "type": "address"
        }
      ],
      "name": "setPriceFeed",
      "outputs": [],
      "stateMutability": "nonpayable",
      "type": "function"
    },
    {
      "inputs": [
        {
          "internalType": "uint256",
          "name": "_protocolFeeRate",
          "type": "uint256"
        }
      ],
      "name": "setProtocolFeeRate",
      "outputs": [],
      "stateMutability": "nonpayable",
      "type": "function"
    },
    {
      "inputs": [
        {
          "internalType": "address",
          "name": "_protocolFeeTo",
          "type": "address"
        }
      ],
      "name": "setProtocolFeeTo",
      "outputs": [],
      "stateMutability": "nonpayable",
      "type": "function"
    },
    {
      "inputs": [
        {
          "internalType": "uint256",
          "name": "_rollbackFee",
          "type": "uint256"
        }
      ],
      "name": "setRollbackFee",
      "outputs": [],
      "stateMutability": "nonpayable",
      "type": "function"
    },
    {
      "inputs": [
        {
          "internalType": "address",
          "name": "_serviceFeeTo",
          "type": "address"
        }
      ],
      "name": "setServiceFeeTo",
      "outputs": [],
      "stateMutability": "nonpayable",
      "type": "function"
    },
    {
      "inputs": [
        {
          "internalType": "address",
          "name": "_serviceToken",
          "type": "address"
        }
      ],
      "name": "setServiceToken",
      "outputs": [],
      "stateMutability": "nonpayable",
      "type": "function"
    },
    {
      "inputs": [
        {
          "internalType": "uint256",
          "name": "_updateCollateralAmountFee",
          "type": "uint256"
        }
      ],
      "name": "setUpdateCollateralAmountFee",
      "outputs": [],
      "stateMutability": "nonpayable",
      "type": "function"
    },
    {
      "inputs": [
        {
          "internalType": "uint256",
          "name": "_updateDeadlineFee",
          "type": "uint256"
        }
      ],
      "name": "setUpdateDeadlineFee",
      "outputs": [],
      "stateMutability": "nonpayable",
      "type": "function"
    },
    {
      "inputs": [
        {
          "internalType": "uint256",
          "name": "_updateTPnSLFee",
          "type": "uint256"
        }
      ],
      "name": "setUpdateTPnSLFee",
      "outputs": [],
      "stateMutability": "nonpayable",
      "type": "function"
    },
    {
      "inputs": [
        {
          "internalType": "address",
          "name": "_userStorage",
          "type": "address"
        }
      ],
      "name": "setUserStorage",
      "outputs": [],
      "stateMutability": "nonpayable",
      "type": "function"
    },
    {
      "inputs": [],
      "name": "updateCollateralAmountFee",
      "outputs": [
        {
          "internalType": "uint256",
          "name": "",
          "type": "uint256"
        }
      ],
      "stateMutability": "view",
      "type": "function"
    },
    {
      "inputs": [],
      "name": "updateDeadlineFee",
      "outputs": [
        {
          "internalType": "uint256",
          "name": "",
          "type": "uint256"
        }
      ],
      "stateMutability": "view",
      "type": "function"
    },
    {
      "inputs": [],
      "name": "updateTPnSLFee",
      "outputs": [
        {
          "internalType": "uint256",
          "name": "",
          "type": "uint256"
        }
      ],
      "stateMutability": "view",
      "type": "function"
    },
    {
      "inputs": [],
      "name": "userStorage",
      "outputs": [
        {
          "internalType": "address",
          "name": "",
          "type": "address"
        }
      ],
      "stateMutability": "view",
      "type": "function"
    },
    {
      "inputs": [],
      "name": "withdrawalMonitor",
      "outputs": [
        {
          "internalType": "address",
          "name": "",
          "type": "address"
        }
      ],
      "stateMutability": "view",
      "type": "function"
    }
  ],
  "bytecode": "0x60e06040523480156200001157600080fd5b5060405162002322380380620023228339810160408190526200003491620000d2565b6001600160601b0319606096871b811660805294861b851660a0529290941b90921660c052600180546001600160a01b039384166001600160a01b031991821617909155600280549484169482169490941790935560038054919092169083161790556000805490911633179055612710600e5562015180600f5562000153565b80516001600160a01b0381168114620000cd57600080fd5b919050565b60008060008060008060c08789031215620000ec57600080fd5b620000f787620000b5565b95506200010760208801620000b5565b94506200011760408801620000b5565b93506200012760608801620000b5565b92506200013760808801620000b5565b91506200014760a08801620000b5565b90509295509295509295565b60805160601c60a05160601c60c05160601c61218f6200019360003960006106170152600061059701526000818161040c0152610907015261218f6000f3fe608060405234801561001057600080fd5b506004361061035c5760003560e01c80638cd47415116101d3578063b769296811610104578063e0e6799f116100a2578063e9a4e7a21161007c578063e9a4e7a2146107a8578063eddf82bb146107bb578063ef369252146107c4578063f5d0e175146107d757600080fd5b8063e0e6799f1461076f578063e216ab4414610782578063e47eb30c1461079557600080fd5b8063ca10a33a116100de578063ca10a33a14610723578063cbeb259b14610736578063d0ebdbe714610749578063dd4fad931461075c57600080fd5b8063b7692968146106f4578063bd2bae9d14610707578063c79005841461071a57600080fd5b8063aac9d2b811610171578063b13aa2d61161014b578063b13aa2d614610698578063b42754a5146106ab578063b6a9b90d146106cb578063b745db56146106d457600080fd5b8063aac9d2b81461065f578063ac436bdf14610672578063ac4afa381461068557600080fd5b80639a307391116101ad5780639a307391146105df578063a4fbc0d714610612578063a5e1b62814610639578063aa6dfe031461064c57600080fd5b80638cd474151461059257806390f43680146105b95780639142887f146105cc57600080fd5b8063558a7297116102ad578063662dc3191161024b578063741bef1a11610225578063741bef1a1461054657806375e58079146105595780637c21d5e01461056c5780637eb5c2001461057f57600080fd5b8063662dc319146105175780636d2745531461052a578063724e78da1461053357600080fd5b80635ef21b2f116102875780635ef21b2f146104c85780635fb3b1b5146104db5780635fde0ec0146104e45780636629b5d41461050457600080fd5b8063558a72971461049957806358f85880146104ac5780635d463c30146104b557600080fd5b80632a5025b71161031a578063481c6a75116102f4578063481c6a75146104375780634d5c262e1461044a5780634d83bc331461045d57806350e46ff71461048657600080fd5b80632a5025b7146103fe5780633119049a146104075780633c0930371461042e57600080fd5b80624ef96714610361578063081e3eda14610376578063095bf1bb1461038d57806312d36171146103ad57806317aebfdc146103d85780631faa7eba146103eb575b600080fd5b61037461036f366004611fec565b6107f7565b005b6010545b6040519081526020015b60405180910390f35b61037a61039b366004611d74565b60156020526000908152604090205481565b6103c06103bb366004611efe565b610865565b6040516001600160a01b039091168152602001610384565b6103746103e6366004611fec565b610a3d565b6103746103f9366004611f2a565b610a9f565b61037a600c5481565b6103c07f000000000000000000000000000000000000000000000000000000000000000081565b61037a600a5481565b6000546103c0906001600160a01b031681565b610374610458366004611def565b610c5d565b6103c061046b366004611d74565b6013602052600090815260409020546001600160a01b031681565b610374610494366004611dae565b610d34565b6103746104a7366004611ec9565b610dda565b61037a60055481565b6103746104c3366004611fec565b610e6a565b6103746104d6366004611d74565b610ecc565b61037a60075481565b61037a6104f2366004611d74565b60176020526000908152604090205481565b610374610512366004611f2a565b610f47565b610374610525366004611d74565b6110d1565b61037a600e5481565b610374610541366004611d74565b61114c565b6002546103c0906001600160a01b031681565b6001546103c0906001600160a01b031681565b6003546103c0906001600160a01b031681565b61037461058d366004611f2a565b6111ee565b6103c07f000000000000000000000000000000000000000000000000000000000000000081565b6103746105c7366004611fec565b611378565b6103746105da366004611d74565b611408565b6106026105ed366004611d74565b60116020526000908152604090205460ff1681565b6040519015158152602001610384565b6103c07f000000000000000000000000000000000000000000000000000000000000000081565b610374610647366004611fec565b6114aa565b61037461065a366004611d74565b61150c565b61037461066d366004611efe565b6115ae565b61037a610680366004611d74565b61167d565b6103c0610693366004611fec565b611720565b6103746106a6366004611fec565b61174a565b61037a6106b9366004611d74565b60126020526000908152604090205481565b61037a600b5481565b61037a6106e2366004611d74565b60146020526000908152604090205481565b6008546103c0906001600160a01b031681565b6006546103c0906001600160a01b031681565b61037a600d5481565b610374610731366004611f2a565b6117da565b610374610744366004611dae565b611964565b610374610757366004611d74565b611a0a565b61037461076a366004611fec565b611aac565b61037461077d366004611d74565b611b0e565b610374610790366004611d74565b611bb0565b6103746107a3366004611fec565b611c52565b6009546103c0906001600160a01b031681565b61037a600f5481565b6004546103c0906001600160a01b031681565b61037a6107e5366004611d74565b60166020526000908152604090205481565b6000546001600160a01b031633146108295760405163a59d7f4d60e01b81523360048201526024015b60405180910390fd5b600a8190556040518181527fc6ea9765bcfa0141a8ae379f2095c41676ac19b776f813d3f9470083803602a7906020015b60405180910390a150565b600080546001600160a01b031633146108935760405163a59d7f4d60e01b8152336004820152602401610820565b506001600160a01b038083166000908152601360205260409020541680156108e15760405163084252d560e11b81526001600160a01b03808516600483015282166024820152604401610820565b6040516327c74f7f60e01b81526001600160a01b038481166004830152602482018490527f000000000000000000000000000000000000000000000000000000000000000016906327c74f7f90604401602060405180830381600087803b15801561094b57600080fd5b505af115801561095f573d6000803e3d6000fd5b505050506040513d601f19601f820116820180604052508101906109839190611d91565b601080546001810182557f1b6847dc741a1b0cd08d278845f9d819d87b734759afb55fe2de5cb82a9ae6720180546001600160a01b03199081166001600160a01b038581169182179093558354600082815260126020908152604080832093909355948a168082526013865290829020805490941683179093559354845188815293840152939450917f2b441112f88ae4b324ae75fa72f06e95a0bda7bca0621af0cceae2e36b80c909910160405180910390a392915050565b6000546001600160a01b03163314610a6a5760405163a59d7f4d60e01b8152336004820152602401610820565b600b8190556040518181527f5eb922edd171629beac7d78c6d25ba1ad170190ba5093ed3361ecb93c852761d9060200161085a565b6000546001600160a01b03163314610acc5760405163a59d7f4d60e01b8152336004820152602401610820565b8051825114610afb578151815160405163574092f960e01b815260048101929092526024820152604401610820565b60005b8251811015610c5857612710828281518110610b1c57610b1c612115565b60200260200101511115610b6b57818181518110610b3c57610b3c612115565b6020026020010151612710604051637150bba160e01b8152600401610820929190918252602082015260400190565b818181518110610b7d57610b7d612115565b602002602001015160156000858481518110610b9b57610b9b612115565b60200260200101516001600160a01b03166001600160a01b03168152602001908152602001600020819055507f8add957a7db6c1e209aa088c73a62080ac8d87df445a42425edc183b0d2b3a45838281518110610bfa57610bfa612115565b6020026020010151838381518110610c1457610c14612115565b6020026020010151604051610c3e9291906001600160a01b03929092168252602082015260400190565b60405180910390a180610c50816120ec565b915050610afe565b505050565b6000546001600160a01b03163314610c8a5760405163a59d7f4d60e01b8152336004820152602401610820565b6001600160a01b038084166000908152601360205260409020541680610cce57604051633f36c1ab60e01b81526001600160a01b0385166004820152602401610820565b6040516332196a0160e01b81526001600160a01b038216906332196a0190610cfc908690869060040161201e565b600060405180830381600087803b158015610d1657600080fd5b505af1158015610d2a573d6000803e3d6000fd5b5050505050505050565b6000546001600160a01b03163314610d615760405163a59d7f4d60e01b8152336004820152602401610820565b6001600160a01b038084166000908152601360205260409020541680610da557604051633f36c1ab60e01b81526001600160a01b0385166004820152602401610820565b604051637ef539fb60e01b81526001600160a01b03848116600483015260248201849052821690637ef539fb90604401610cfc565b6000546001600160a01b03163314610e075760405163a59d7f4d60e01b8152336004820152602401610820565b6001600160a01b038216600081815260116020908152604091829020805460ff19168515159081179091558251938452908301527f1618a22a3b00b9ac70fd5a82f1f5cdd8cb272bd0f1b740ddf7c26ab05881dd5b910160405180910390a15050565b6000546001600160a01b03163314610e975760405163a59d7f4d60e01b8152336004820152602401610820565b60078190556040518181527f37740cd8864334fffe6b06452e32307736156de02df2d346c4ef77d649827f329060200161085a565b6000546001600160a01b03163314610ef95760405163a59d7f4d60e01b8152336004820152602401610820565b600880546001600160a01b0319166001600160a01b0383169081179091556040519081527ff11afbeac1d4f4dd22e57c9a7e0f2609bb76b858a038c0a5b45593887c86bd559060200161085a565b6000546001600160a01b03163314610f745760405163a59d7f4d60e01b8152336004820152602401610820565b8051825114610fa3578151815160405163574092f960e01b815260048101929092526024820152604401610820565b60005b8251811015610c5857612710828281518110610fc457610fc4612115565b60200260200101511115610fe457818181518110610b3c57610b3c612115565b818181518110610ff657610ff6612115565b60200260200101516014600085848151811061101457611014612115565b60200260200101516001600160a01b03166001600160a01b03168152602001908152602001600020819055507f44d431e2f3cdcfd17ac59dba4b434d2cb8b7d98ec61f6932e706b8d5229ff65283828151811061107357611073612115565b602002602001015183838151811061108d5761108d612115565b60200260200101516040516110b79291906001600160a01b03929092168252602082015260400190565b60405180910390a1806110c9816120ec565b915050610fa6565b6000546001600160a01b031633146110fe5760405163a59d7f4d60e01b8152336004820152602401610820565b600980546001600160a01b0319166001600160a01b0383169081179091556040519081527f7e3d013374f40dc62cec68879efd2d50157b93dfe8fb48bb716e53172e5b0f949060200161085a565b6000546001600160a01b031633146111795760405163a59d7f4d60e01b8152336004820152602401610820565b6001600160a01b0381166111a05760405163d92e233d60e01b815260040160405180910390fd5b600280546001600160a01b0319166001600160a01b0383169081179091556040519081527ff724a45d041687842411f2b977ef22ab8f43c8f1104f4592b42a00f9b34a643d9060200161085a565b6000546001600160a01b0316331461121b5760405163a59d7f4d60e01b8152336004820152602401610820565b805182511461124a578151815160405163574092f960e01b815260048101929092526024820152604401610820565b60005b8251811015610c585761271082828151811061126b5761126b612115565b6020026020010151111561128b57818181518110610b3c57610b3c612115565b81818151811061129d5761129d612115565b6020026020010151601760008584815181106112bb576112bb612115565b60200260200101516001600160a01b03166001600160a01b03168152602001908152602001600020819055507f0b2fbf1cb794ef27c93f2189ce22f82871c05ecfb1d103d7d7bb7090118dc1c683828151811061131a5761131a612115565b602002602001015183838151811061133457611334612115565b602002602001015160405161135e9291906001600160a01b03929092168252602082015260400190565b60405180910390a180611370816120ec565b91505061124d565b6000546001600160a01b031633146113a55760405163a59d7f4d60e01b8152336004820152602401610820565b6127108110156113d35760405163102a6c2760e01b8152600481018290526127106024820152604401610820565b600e8190556040518181527f76ac3f03024a7eaac1162b2497ce4f632a0fe15eac444f9b01fff9620a166c259060200161085a565b6000546001600160a01b031633146114355760405163a59d7f4d60e01b8152336004820152602401610820565b6001600160a01b03811661145c5760405163d92e233d60e01b815260040160405180910390fd5b600180546001600160a01b0319166001600160a01b0383169081179091556040519081527f193361fce04ed0c4e2cb4638cdc21c56d4313f5066142224555c49d3933e7ca49060200161085a565b6000546001600160a01b031633146114d75760405163a59d7f4d60e01b8152336004820152602401610820565b600c8190556040518181527fbc1e854438813a1eff88fabe13d9c164009f178d581d45e9a557f037f957b4919060200161085a565b6000546001600160a01b031633146115395760405163a59d7f4d60e01b8152336004820152602401610820565b6001600160a01b0381166115605760405163d92e233d60e01b815260040160405180910390fd5b600380546001600160a01b0319166001600160a01b0383169081179091556040519081527fed2325536fb5243d4b19d1781d46658efaf1b668c1d8a693d050be0dd1cbfd309060200161085a565b6000546001600160a01b031633146115db5760405163a59d7f4d60e01b8152336004820152602401610820565b6001600160a01b03808316600090815260136020526040902054168061161f57604051633f36c1ab60e01b81526001600160a01b0384166004820152602401610820565b60405162e8433960e51b8152600481018390526001600160a01b03821690631d08672090602401600060405180830381600087803b15801561166057600080fd5b505af1158015611674573d6000803e3d6000fd5b50505050505050565b6001600160a01b03808216600090815260136020526040812054909116806116a85750600092915050565b806001600160a01b031663c392f7666040518163ffffffff1660e01b815260040160206040518083038186803b1580156116e157600080fd5b505afa1580156116f5573d6000803e3d6000fd5b505050506040513d601f19601f820116820180604052508101906117199190612005565b9392505050565b6010818154811061173057600080fd5b6000918252602090912001546001600160a01b0316905081565b6000546001600160a01b031633146117775760405163a59d7f4d60e01b8152336004820152602401610820565b6127108111156117a557604051637150bba160e01b8152600481018290526127106024820152604401610820565b60058190556040518181527f43c0669c98845a19f0c83c170dafac37d88ab6841d159a3b478365715e09a1199060200161085a565b6000546001600160a01b031633146118075760405163a59d7f4d60e01b8152336004820152602401610820565b8051825114611836578151815160405163574092f960e01b815260048101929092526024820152604401610820565b60005b8251811015610c585761271082828151811061185757611857612115565b6020026020010151111561187757818181518110610b3c57610b3c612115565b81818151811061188957611889612115565b6020026020010151601660008584815181106118a7576118a7612115565b60200260200101516001600160a01b03166001600160a01b03168152602001908152602001600020819055507f95ce88c220684eb1cbfa29b8c489102dd6ac38a615bd9f16c996786636ebb9ca83828151811061190657611906612115565b602002602001015183838151811061192057611920612115565b602002602001015160405161194a9291906001600160a01b03929092168252602082015260400190565b60405180910390a18061195c816120ec565b915050611839565b6000546001600160a01b031633146119915760405163a59d7f4d60e01b8152336004820152602401610820565b6001600160a01b0380841660009081526013602052604090205416806119d557604051633f36c1ab60e01b81526001600160a01b0385166004820152602401610820565b60405163f459a9f560e01b81526001600160a01b0384811660048301526024820184905282169063f459a9f590604401610cfc565b6000546001600160a01b03163314611a375760405163a59d7f4d60e01b8152336004820152602401610820565b6001600160a01b038116611a5e5760405163d92e233d60e01b815260040160405180910390fd5b600080546001600160a01b0319166001600160a01b0383169081179091556040519081527f54a6385aa0292b04e1ef8513253c17d1863f7cdfc87029d77fd55cc4c2e717e29060200161085a565b6000546001600160a01b03163314611ad95760405163a59d7f4d60e01b8152336004820152602401610820565b600d8190556040518181527f0b2ddbbbc17f5fc2d90c43b399e48d7a3d677da0218cd35a024df8a39350bd259060200161085a565b6000546001600160a01b03163314611b3b5760405163a59d7f4d60e01b8152336004820152602401610820565b6001600160a01b038116611b625760405163d92e233d60e01b815260040160405180910390fd5b600480546001600160a01b0319166001600160a01b0383169081179091556040519081527f97011acc091d73d67f71ff78bdb3837ce0103f4a52e95b01f50a28b9f7821ba69060200161085a565b6000546001600160a01b03163314611bdd5760405163a59d7f4d60e01b8152336004820152602401610820565b6001600160a01b038116611c045760405163d92e233d60e01b815260040160405180910390fd5b600680546001600160a01b0319166001600160a01b0383169081179091556040519081527f59862d5b8f7ef1d8356d180654086286a04107247706e45b034f1fac0b3f7dec9060200161085a565b6000546001600160a01b03163314611c7f5760405163a59d7f4d60e01b8152336004820152602401610820565b62015180811015611caf5760405163102a6c2760e01b815260048101829052620151806024820152604401610820565b600f8190556040518181527f3b655fff5646f76885baca7e1dadf8b8e0095ff01de8f96a0cf75c8d8cfb53d89060200161085a565b600082601f830112611cf557600080fd5b81356020611d0a611d05836120c8565b612097565b80838252828201915082860187848660051b8901011115611d2a57600080fd5b60005b85811015611d52578135611d4081612141565b84529284019290840190600101611d2d565b5090979650505050505050565b80358015158114611d6f57600080fd5b919050565b600060208284031215611d8657600080fd5b813561171981612141565b600060208284031215611da357600080fd5b815161171981612141565b600080600060608486031215611dc357600080fd5b8335611dce81612141565b92506020840135611dde81612141565b929592945050506040919091013590565b600080600060608486031215611e0457600080fd5b8335611e0f81612141565b925060208481013567ffffffffffffffff80821115611e2d57600080fd5b611e3988838901611ce4565b94506040870135915080821115611e4f57600080fd5b508501601f81018713611e6157600080fd5b8035611e6f611d05826120c8565b8082825284820191508484018a868560051b8701011115611e8f57600080fd5b600094505b83851015611eb957611ea581611d5f565b835260019490940193918501918501611e94565b5080955050505050509250925092565b60008060408385031215611edc57600080fd5b8235611ee781612141565b9150611ef560208401611d5f565b90509250929050565b60008060408385031215611f1157600080fd5b8235611f1c81612141565b946020939093013593505050565b60008060408385031215611f3d57600080fd5b823567ffffffffffffffff80821115611f5557600080fd5b611f6186838701611ce4565b9350602091508185013581811115611f7857600080fd5b85019050601f81018613611f8b57600080fd5b8035611f99611d05826120c8565b80828252848201915084840189868560051b8701011115611fb957600080fd5b600094505b83851015611fdc578035835260019490940193918501918501611fbe565b5080955050505050509250929050565b600060208284031215611ffe57600080fd5b5035919050565b60006020828403121561201757600080fd5b5051919050565b604080825283519082018190526000906020906060840190828701845b828110156120605781516001600160a01b03168452928401929084019060010161203b565b5050508381038285015284518082528583019183019060005b81811015611d52578351151583529284019291840191600101612079565b604051601f8201601f1916810167ffffffffffffffff811182821017156120c0576120c061212b565b604052919050565b600067ffffffffffffffff8211156120e2576120e261212b565b5060051b60200190565b600060001982141561210e57634e487b7160e01b600052601160045260246000fd5b5060010190565b634e487b7160e01b600052603260045260246000fd5b634e487b7160e01b600052604160045260246000fd5b6001600160a01b038116811461215657600080fd5b5056fea264697066735822122072f846cca313247fc53c386f187b53d65df6f891f34ce1692f905ebd4991df5f64736f6c63430008070033",
  "linkReferences": {},
  "deployedLinkReferences": {}
}