{
  "_format": "hh-sol-artifact-1",
  "contractName": "Factory",
  "sourceName": "contracts/Factory.sol",
  "abi": [
    {
      "inputs": [
        {
          "internalType": "address",
          "name": "_poolDeployer",
          "type": "address"
        },
        {
          "internalType": "address",
          "name": "_positionStorage",
          "type": "address"
        },
        {
          "internalType": "address",
          "name": "_withdrawalMonitor",
          "type": "address"
        },
        {
          "internalType": "address",
          "name": "_userStorage",
          "type": "address"
        },
        {
          "internalType": "address",
          "name": "_priceFeed",
          "type": "address"
        },
        {
          "internalType": "address",
          "name": "_dexAggregator",
          "type": "address"
        }
      ],
      "stateMutability": "nonpayable",
      "type": "constructor"
    },
    {
      "inputs": [
        {
          "internalType": "uint256",
          "name": "length0",
          "type": "uint256"
        },
        {
          "internalType": "uint256",
          "name": "length1",
          "type": "uint256"
        }
      ],
      "name": "BadLengths",
      "type": "error"
    },
    {
      "inputs": [
        {
          "internalType": "address",
          "name": "sender",
          "type": "address"
        }
      ],
      "name": "Forbidden",
      "type": "error"
    },
    {
      "inputs": [
        {
          "internalType": "address",
          "name": "quoteToken",
          "type": "address"
        },
        {
          "internalType": "address",
          "name": "pool",
          "type": "address"
        }
      ],
      "name": "PoolExistsAlready",
      "type": "error"
    },
    {
      "inputs": [
        {
          "internalType": "address",
          "name": "quoteToken",
          "type": "address"
        }
      ],
      "name": "PoolNotExists",
      "type": "error"
    },
    {
      "inputs": [
        {
          "internalType": "uint256",
          "name": "value",
          "type": "uint256"
        },
        {
          "internalType": "uint256",
          "name": "max",
          "type": "uint256"
        }
      ],
      "name": "TooHighValue",
      "type": "error"
    },
    {
      "inputs": [
        {
          "internalType": "uint256",
          "name": "value",
          "type": "uint256"
        },
        {
          "internalType": "uint256",
          "name": "min",
          "type": "uint256"
        }
      ],
      "name": "TooLowValue",
      "type": "error"
    },
    {
      "inputs": [],
      "name": "ZeroAddress",
      "type": "error"
    },
    {
      "anonymous": false,
      "inputs": [
        {
          "indexed": true,
          "internalType": "address",
          "name": "quoteToken",
          "type": "address"
        },
        {
          "indexed": true,
          "internalType": "address",
          "name": "pool",
          "type": "address"
        },
        {
          "indexed": false,
          "internalType": "uint256",
          "name": "interest",
          "type": "uint256"
        },
        {
          "indexed": false,
          "internalType": "uint256",
          "name": "index",
          "type": "uint256"
        }
      ],
      "name": "CreatePool",
      "type": "event"
    },
    {
      "anonymous": false,
      "inputs": [
        {
          "indexed": false,
          "internalType": "address",
          "name": "baseToken",
          "type": "address"
        },
        {
          "indexed": false,
          "internalType": "uint256",
          "name": "lt",
          "type": "uint256"
        }
      ],
      "name": "SetBaseTokenLT",
      "type": "event"
    },
    {
      "anonymous": false,
      "inputs": [
        {
          "indexed": false,
          "internalType": "address",
          "name": "baseToken",
          "type": "address"
        },
        {
          "indexed": false,
          "internalType": "uint256",
          "name": "mut",
          "type": "uint256"
        }
      ],
      "name": "SetBaseTokenMUT",
      "type": "event"
    },
    {
      "anonymous": false,
      "inputs": [
        {
          "indexed": false,
          "internalType": "address",
          "name": "collateral",
          "type": "address"
        },
        {
          "indexed": false,
          "internalType": "uint256",
          "name": "lt",
          "type": "uint256"
        }
      ],
      "name": "SetCollateralLT",
      "type": "event"
    },
    {
      "anonymous": false,
      "inputs": [
        {
          "indexed": false,
          "internalType": "address",
          "name": "baseToken",
          "type": "address"
        },
        {
          "indexed": false,
          "internalType": "uint256",
          "name": "mut",
          "type": "uint256"
        }
      ],
      "name": "SetCollateralMUT",
      "type": "event"
    },
    {
      "anonymous": false,
      "inputs": [
        {
          "indexed": false,
          "internalType": "address",
          "name": "newDexAggregator",
          "type": "address"
        }
      ],
      "name": "SetDEXAggregator",
      "type": "event"
    },
    {
      "anonymous": false,
      "inputs": [
        {
          "indexed": false,
          "internalType": "uint256",
          "name": "newLiquidationFeeRate",
          "type": "uint256"
        }
      ],
      "name": "SetLiquidationFeeRate",
      "type": "event"
    },
    {
      "anonymous": false,
      "inputs": [
        {
          "indexed": false,
          "internalType": "address",
          "name": "newLiquidationFeeTo",
          "type": "address"
        }
      ],
      "name": "SetLiquidationFeeTo",
      "type": "event"
    },
    {
      "anonymous": false,
      "inputs": [
        {
          "indexed": false,
          "internalType": "address",
          "name": "newManager",
          "type": "address"
        }
      ],
      "name": "SetManager",
      "type": "event"
    },
    {
      "anonymous": false,
      "inputs": [
        {
          "indexed": false,
          "internalType": "uint256",
          "name": "newManualExpiration",
          "type": "uint256"
        }
      ],
      "name": "SetManualExpiration",
      "type": "event"
    },
    {
      "anonymous": false,
      "inputs": [
        {
          "indexed": false,
          "internalType": "uint256",
          "name": "newMinQuoteRate",
          "type": "uint256"
        }
      ],
      "name": "SetMinQuoteRate",
      "type": "event"
    },
    {
      "anonymous": false,
      "inputs": [
        {
          "indexed": false,
          "internalType": "address",
          "name": "addr",
          "type": "address"
        },
        {
          "indexed": false,
          "internalType": "bool",
          "name": "isOperator",
          "type": "bool"
        }
      ],
      "name": "SetOperator",
      "type": "event"
    },
    {
      "anonymous": false,
      "inputs": [
        {
          "indexed": false,
          "internalType": "address",
          "name": "newPriceFeed",
          "type": "address"
        }
      ],
      "name": "SetPriceFeed",
      "type": "event"
    },
    {
      "anonymous": false,
      "inputs": [
        {
          "indexed": false,
          "internalType": "uint256",
          "name": "newProtocolFeeRate",
          "type": "uint256"
        }
      ],
      "name": "SetProtocolFeeRate",
      "type": "event"
    },
    {
      "anonymous": false,
      "inputs": [
        {
          "indexed": false,
          "internalType": "address",
          "name": "newProtocolFeeTo",
          "type": "address"
        }
      ],
      "name": "SetProtocolFeeTo",
      "type": "event"
    },
    {
      "anonymous": false,
      "inputs": [
        {
          "indexed": false,
          "internalType": "uint256",
          "name": "newRollbackFee",
          "type": "uint256"
        }
      ],
      "name": "SetRollbackFee",
      "type": "event"
    },
    {
      "anonymous": false,
      "inputs": [
        {
          "indexed": false,
          "internalType": "address",
          "name": "newServiceFeeTo",
          "type": "address"
        }
      ],
      "name": "SetServiceFeeTo",
      "type": "event"
    },
    {
      "anonymous": false,
      "inputs": [
        {
          "indexed": false,
          "internalType": "address",
          "name": "newServiceToken",
          "type": "address"
        }
      ],
      "name": "SetServiceToken",
      "type": "event"
    },
    {
      "anonymous": false,
      "inputs": [
        {
          "indexed": false,
          "internalType": "uint256",
          "name": "newUpdateCollateralAmountFee",
          "type": "uint256"
        }
      ],
      "name": "SetUpdateCollateralAmountFee",
      "type": "event"
    },
    {
      "anonymous": false,
      "inputs": [
        {
          "indexed": false,
          "internalType": "uint256",
          "name": "newUpdateDeadlineFee",
          "type": "uint256"
        }
      ],
      "name": "SetUpdateDeadlineFee",
      "type": "event"
    },
    {
      "anonymous": false,
      "inputs": [
        {
          "indexed": false,
          "internalType": "uint256",
          "name": "newUpdateStoplossPriceFee",
          "type": "uint256"
        }
      ],
      "name": "SetUpdateStoplossPriceFee",
      "type": "event"
    },
    {
      "anonymous": false,
      "inputs": [
        {
          "indexed": false,
          "internalType": "address",
          "name": "newUserStorage",
          "type": "address"
        }
      ],
      "name": "SetUserStorage",
      "type": "event"
    },
    {
      "inputs": [
        {
          "internalType": "address",
          "name": "",
          "type": "address"
        }
      ],
      "name": "baseTokenLT",
      "outputs": [
        {
          "internalType": "uint256",
          "name": "",
          "type": "uint256"
        }
      ],
      "stateMutability": "view",
      "type": "function"
    },
    {
      "inputs": [
        {
          "internalType": "address",
          "name": "",
          "type": "address"
        }
      ],
      "name": "baseTokenMUT",
      "outputs": [
        {
          "internalType": "uint256",
          "name": "",
          "type": "uint256"
        }
      ],
      "stateMutability": "view",
      "type": "function"
    },
    {
      "inputs": [
        {
          "internalType": "address",
          "name": "",
          "type": "address"
        }
      ],
      "name": "collateralLT",
      "outputs": [
        {
          "internalType": "uint256",
          "name": "",
          "type": "uint256"
        }
      ],
      "stateMutability": "view",
      "type": "function"
    },
    {
      "inputs": [
        {
          "internalType": "address",
          "name": "",
          "type": "address"
        }
      ],
      "name": "collateralMUT",
      "outputs": [
        {
          "internalType": "uint256",
          "name": "",
          "type": "uint256"
        }
      ],
      "stateMutability": "view",
      "type": "function"
    },
    {
      "inputs": [
        {
          "internalType": "address",
          "name": "_quoteToken",
          "type": "address"
        },
        {
          "internalType": "uint256",
          "name": "_interest",
          "type": "uint256"
        }
      ],
      "name": "createPool",
      "outputs": [
        {
          "internalType": "address payable",
          "name": "pool",
          "type": "address"
        }
      ],
      "stateMutability": "nonpayable",
      "type": "function"
    },
    {
      "inputs": [],
      "name": "dexAggregator",
      "outputs": [
        {
          "internalType": "address",
          "name": "",
          "type": "address"
        }
      ],
      "stateMutability": "view",
      "type": "function"
    },
    {
      "inputs": [
        {
          "internalType": "address",
          "name": "_quoteToken",
          "type": "address"
        }
      ],
      "name": "interest",
      "outputs": [
        {
          "internalType": "uint256",
          "name": "",
          "type": "uint256"
        }
      ],
      "stateMutability": "view",
      "type": "function"
    },
    {
      "inputs": [],
      "name": "liquidationFeeRate",
      "outputs": [
        {
          "internalType": "uint256",
          "name": "",
          "type": "uint256"
        }
      ],
      "stateMutability": "view",
      "type": "function"
    },
    {
      "inputs": [],
      "name": "liquidationFeeTo",
      "outputs": [
        {
          "internalType": "address",
          "name": "",
          "type": "address"
        }
      ],
      "stateMutability": "view",
      "type": "function"
    },
    {
      "inputs": [],
      "name": "manager",
      "outputs": [
        {
          "internalType": "address",
          "name": "",
          "type": "address"
        }
      ],
      "stateMutability": "view",
      "type": "function"
    },
    {
      "inputs": [],
      "name": "manualExpiration",
      "outputs": [
        {
          "internalType": "uint256",
          "name": "",
          "type": "uint256"
        }
      ],
      "stateMutability": "view",
      "type": "function"
    },
    {
      "inputs": [],
      "name": "minQuoteRate",
      "outputs": [
        {
          "internalType": "uint256",
          "name": "",
          "type": "uint256"
        }
      ],
      "stateMutability": "view",
      "type": "function"
    },
    {
      "inputs": [
        {
          "internalType": "address",
          "name": "",
          "type": "address"
        }
      ],
      "name": "operator",
      "outputs": [
        {
          "internalType": "bool",
          "name": "",
          "type": "bool"
        }
      ],
      "stateMutability": "view",
      "type": "function"
    },
    {
      "inputs": [
        {
          "internalType": "address",
          "name": "",
          "type": "address"
        }
      ],
      "name": "poolByQuoteToken",
      "outputs": [
        {
          "internalType": "address",
          "name": "",
          "type": "address"
        }
      ],
      "stateMutability": "view",
      "type": "function"
    },
    {
      "inputs": [],
      "name": "poolDeployer",
      "outputs": [
        {
          "internalType": "address",
          "name": "",
          "type": "address"
        }
      ],
      "stateMutability": "view",
      "type": "function"
    },
    {
      "inputs": [
        {
          "internalType": "address",
          "name": "",
          "type": "address"
        }
      ],
      "name": "poolIndex",
      "outputs": [
        {
          "internalType": "uint256",
          "name": "",
          "type": "uint256"
        }
      ],
      "stateMutability": "view",
      "type": "function"
    },
    {
      "inputs": [],
      "name": "poolLength",
      "outputs": [
        {
          "internalType": "uint256",
          "name": "",
          "type": "uint256"
        }
      ],
      "stateMutability": "view",
      "type": "function"
    },
    {
      "inputs": [
        {
          "internalType": "uint256",
          "name": "",
          "type": "uint256"
        }
      ],
      "name": "pools",
      "outputs": [
        {
          "internalType": "address",
          "name": "",
          "type": "address"
        }
      ],
      "stateMutability": "view",
      "type": "function"
    },
    {
      "inputs": [],
      "name": "positionStorage",
      "outputs": [
        {
          "internalType": "address",
          "name": "",
          "type": "address"
        }
      ],
      "stateMutability": "view",
      "type": "function"
    },
    {
      "inputs": [],
      "name": "priceFeed",
      "outputs": [
        {
          "internalType": "address",
          "name": "",
          "type": "address"
        }
      ],
      "stateMutability": "view",
      "type": "function"
    },
    {
      "inputs": [],
      "name": "protocolFeeRate",
      "outputs": [
        {
          "internalType": "uint256",
          "name": "",
          "type": "uint256"
        }
      ],
      "stateMutability": "view",
      "type": "function"
    },
    {
      "inputs": [],
      "name": "protocolFeeTo",
      "outputs": [
        {
          "internalType": "address",
          "name": "",
          "type": "address"
        }
      ],
      "stateMutability": "view",
      "type": "function"
    },
    {
      "inputs": [],
      "name": "rollbackFee",
      "outputs": [
        {
          "internalType": "uint256",
          "name": "",
          "type": "uint256"
        }
      ],
      "stateMutability": "view",
      "type": "function"
    },
    {
      "inputs": [],
      "name": "serviceFeeTo",
      "outputs": [
        {
          "internalType": "address",
          "name": "",
          "type": "address"
        }
      ],
      "stateMutability": "view",
      "type": "function"
    },
    {
      "inputs": [],
      "name": "serviceToken",
      "outputs": [
        {
          "internalType": "address",
          "name": "",
          "type": "address"
        }
      ],
      "stateMutability": "view",
      "type": "function"
    },
    {
      "inputs": [
        {
          "internalType": "address[]",
          "name": "_baseTokens",
          "type": "address[]"
        },
        {
          "internalType": "uint256[]",
          "name": "_lts",
          "type": "uint256[]"
        }
      ],
      "name": "setBaseTokenLT",
      "outputs": [],
      "stateMutability": "nonpayable",
      "type": "function"
    },
    {
      "inputs": [
        {
          "internalType": "address[]",
          "name": "_baseTokens",
          "type": "address[]"
        },
        {
          "internalType": "uint256[]",
          "name": "_muts",
          "type": "uint256[]"
        }
      ],
      "name": "setBaseTokenMUT",
      "outputs": [],
      "stateMutability": "nonpayable",
      "type": "function"
    },
    {
      "inputs": [
        {
          "internalType": "address[]",
          "name": "_collaterals",
          "type": "address[]"
        },
        {
          "internalType": "uint256[]",
          "name": "_lts",
          "type": "uint256[]"
        }
      ],
      "name": "setCollateralLT",
      "outputs": [],
      "stateMutability": "nonpayable",
      "type": "function"
    },
    {
      "inputs": [
        {
          "internalType": "address[]",
          "name": "_collaterals",
          "type": "address[]"
        },
        {
          "internalType": "uint256[]",
          "name": "_muts",
          "type": "uint256[]"
        }
      ],
      "name": "setCollateralMUT",
      "outputs": [],
      "stateMutability": "nonpayable",
      "type": "function"
    },
    {
      "inputs": [
        {
          "internalType": "address",
          "name": "_dexAggregator",
          "type": "address"
        }
      ],
      "name": "setDEXAggregator",
      "outputs": [],
      "stateMutability": "nonpayable",
      "type": "function"
    },
    {
      "inputs": [
        {
          "internalType": "uint256",
          "name": "_liquidationFeeRate",
          "type": "uint256"
        }
      ],
      "name": "setLiquidationFeeRate",
      "outputs": [],
      "stateMutability": "nonpayable",
      "type": "function"
    },
    {
      "inputs": [
        {
          "internalType": "address",
          "name": "_liquidationFeeTo",
          "type": "address"
        }
      ],
      "name": "setLiquidationFeeTo",
      "outputs": [],
      "stateMutability": "nonpayable",
      "type": "function"
    },
    {
      "inputs": [
        {
          "internalType": "address",
          "name": "_manager",
          "type": "address"
        }
      ],
      "name": "setManager",
      "outputs": [],
      "stateMutability": "nonpayable",
      "type": "function"
    },
    {
      "inputs": [
        {
          "internalType": "uint256",
          "name": "_manualExpiration",
          "type": "uint256"
        }
      ],
      "name": "setManualExpiration",
      "outputs": [],
      "stateMutability": "nonpayable",
      "type": "function"
    },
    {
      "inputs": [
        {
          "internalType": "uint256",
          "name": "_minQuoteRate",
          "type": "uint256"
        }
      ],
      "name": "setMinQuoteRate",
      "outputs": [],
      "stateMutability": "nonpayable",
      "type": "function"
    },
    {
      "inputs": [
        {
          "internalType": "address",
          "name": "_addr",
          "type": "address"
        },
        {
          "internalType": "bool",
          "name": "_isOperator",
          "type": "bool"
        }
      ],
      "name": "setOperator",
      "outputs": [],
      "stateMutability": "nonpayable",
      "type": "function"
    },
    {
      "inputs": [
        {
          "internalType": "address",
          "name": "_quoteToken",
          "type": "address"
        },
        {
          "internalType": "address[]",
          "name": "_baseTokens",
          "type": "address[]"
        },
        {
          "internalType": "bool[]",
          "name": "_tradeables",
          "type": "bool[]"
        }
      ],
      "name": "setPoolBaseTokens",
      "outputs": [],
      "stateMutability": "nonpayable",
      "type": "function"
    },
    {
      "inputs": [
        {
          "internalType": "address",
          "name": "_quoteToken",
          "type": "address"
        },
        {
          "internalType": "uint256",
          "name": "_interest",
          "type": "uint256"
        }
      ],
      "name": "setPoolInterest",
      "outputs": [],
      "stateMutability": "nonpayable",
      "type": "function"
    },
    {
      "inputs": [
        {
          "internalType": "address",
          "name": "_priceFeed",
          "type": "address"
        }
      ],
      "name": "setPriceFeed",
      "outputs": [],
      "stateMutability": "nonpayable",
      "type": "function"
    },
    {
      "inputs": [
        {
          "internalType": "uint256",
          "name": "_protocolFeeRate",
          "type": "uint256"
        }
      ],
      "name": "setProtocolFeeRate",
      "outputs": [],
      "stateMutability": "nonpayable",
      "type": "function"
    },
    {
      "inputs": [
        {
          "internalType": "address",
          "name": "_protocolFeeTo",
          "type": "address"
        }
      ],
      "name": "setProtocolFeeTo",
      "outputs": [],
      "stateMutability": "nonpayable",
      "type": "function"
    },
    {
      "inputs": [
        {
          "internalType": "uint256",
          "name": "_rollbackFee",
          "type": "uint256"
        }
      ],
      "name": "setRollbackFee",
      "outputs": [],
      "stateMutability": "nonpayable",
      "type": "function"
    },
    {
      "inputs": [
        {
          "internalType": "address",
          "name": "_serviceFeeTo",
          "type": "address"
        }
      ],
      "name": "setServiceFeeTo",
      "outputs": [],
      "stateMutability": "nonpayable",
      "type": "function"
    },
    {
      "inputs": [
        {
          "internalType": "address",
          "name": "_serviceToken",
          "type": "address"
        }
      ],
      "name": "setServiceToken",
      "outputs": [],
      "stateMutability": "nonpayable",
      "type": "function"
    },
    {
      "inputs": [
        {
          "internalType": "uint256",
          "name": "_updateCollateralAmountFee",
          "type": "uint256"
        }
      ],
      "name": "setUpdateCollateralAmountFee",
      "outputs": [],
      "stateMutability": "nonpayable",
      "type": "function"
    },
    {
      "inputs": [
        {
          "internalType": "uint256",
          "name": "_updateDeadlineFee",
          "type": "uint256"
        }
      ],
      "name": "setUpdateDeadlineFee",
      "outputs": [],
      "stateMutability": "nonpayable",
      "type": "function"
    },
    {
      "inputs": [
        {
          "internalType": "uint256",
          "name": "_updateStoplossPriceFee",
          "type": "uint256"
        }
      ],
      "name": "setUpdateStoplossPriceFee",
      "outputs": [],
      "stateMutability": "nonpayable",
      "type": "function"
    },
    {
      "inputs": [
        {
          "internalType": "address",
          "name": "_userStorage",
          "type": "address"
        }
      ],
      "name": "setUserStorage",
      "outputs": [],
      "stateMutability": "nonpayable",
      "type": "function"
    },
    {
      "inputs": [],
      "name": "updateCollateralAmountFee",
      "outputs": [
        {
          "internalType": "uint256",
          "name": "",
          "type": "uint256"
        }
      ],
      "stateMutability": "view",
      "type": "function"
    },
    {
      "inputs": [],
      "name": "updateDeadlineFee",
      "outputs": [
        {
          "internalType": "uint256",
          "name": "",
          "type": "uint256"
        }
      ],
      "stateMutability": "view",
      "type": "function"
    },
    {
      "inputs": [],
      "name": "updateStoplossPriceFee",
      "outputs": [
        {
          "internalType": "uint256",
          "name": "",
          "type": "uint256"
        }
      ],
      "stateMutability": "view",
      "type": "function"
    },
    {
      "inputs": [],
      "name": "userStorage",
      "outputs": [
        {
          "internalType": "address",
          "name": "",
          "type": "address"
        }
      ],
      "stateMutability": "view",
      "type": "function"
    },
    {
      "inputs": [],
      "name": "withdrawalMonitor",
      "outputs": [
        {
          "internalType": "address",
          "name": "",
          "type": "address"
        }
      ],
      "stateMutability": "view",
      "type": "function"
    }
  ],
  "bytecode": "0x60e06040523480156200001157600080fd5b5060405162002139380380620021398339810160408190526200003491620000d2565b6001600160601b0319606096871b811660805294861b851660a0529290941b90921660c052600180546001600160a01b039384166001600160a01b031991821617909155600280549484169482169490941790935560038054919092169083161790556000805490911633179055612710600e5562015180600f5562000153565b80516001600160a01b0381168114620000cd57600080fd5b919050565b60008060008060008060c08789031215620000ec57600080fd5b620000f787620000b5565b95506200010760208801620000b5565b94506200011760408801620000b5565b93506200012760608801620000b5565b92506200013760808801620000b5565b91506200014760a08801620000b5565b90509295509295509295565b60805160601c60a05160601c60c05160601c611fa66200019360003960006105ce0152600061054e0152600081816103c301526108ab0152611fa66000f3fe608060405234801561001057600080fd5b50600436106103265760003560e01c80638cd47415116101b8578063b745db5611610104578063e0e6799f116100a2578063e9a4e7a21161007c578063e9a4e7a21461074c578063eddf82bb1461075f578063ef36925214610768578063f5d0e1751461077b57600080fd5b8063e0e6799f14610713578063e216ab4414610726578063e47eb30c1461073957600080fd5b8063c7900584116100de578063c7900584146106d1578063ca10a33a146106da578063d0ebdbe7146106ed578063dd4fad931461070057600080fd5b8063b745db561461068b578063b7692968146106ab578063bd2bae9d146106be57600080fd5b8063aa6dfe0311610171578063ac4afa381161014b578063ac4afa381461063c578063b13aa2d61461064f578063b42754a514610662578063b58862e71461068257600080fd5b8063aa6dfe0314610603578063aac9d2b814610616578063ac436bdf1461062957600080fd5b80638cd474151461054957806390f43680146105705780639142887f146105835780639a30739114610596578063a4fbc0d7146105c9578063a5e1b628146105f057600080fd5b806358f8588011610277578063662dc31911610230578063741bef1a1161020a578063741bef1a146104fd57806375e58079146105105780637c21d5e0146105235780637eb5c2001461053657600080fd5b8063662dc319146104ce5780636d274553146104e1578063724e78da146104ea57600080fd5b806358f85880146104635780635d463c301461046c5780635ef21b2f1461047f5780635fb3b1b5146104925780635fde0ec01461049b5780636629b5d4146104bb57600080fd5b80633119049a116102e4578063481c6a75116102be578063481c6a75146104015780634d5c262e146104145780634d83bc3314610427578063558a72971461045057600080fd5b80633119049a146103be57806336d6135b146103e55780633c093037146103f857600080fd5b80624ef9671461032b578063081e3eda14610340578063095bf1bb1461035757806312d36171146103775780631faa7eba146103a25780632a5025b7146103b5575b600080fd5b61033e610339366004611e03565b61079b565b005b6010545b6040519081526020015b60405180910390f35b610344610365366004611bcc565b60156020526000908152604090205481565b61038a610385366004611d15565b610809565b6040516001600160a01b03909116815260200161034e565b61033e6103b0366004611d41565b6109e1565b610344600c5481565b61038a7f000000000000000000000000000000000000000000000000000000000000000081565b61033e6103f3366004611e03565b610b9f565b610344600a5481565b60005461038a906001600160a01b031681565b61033e610422366004611c06565b610c01565b61038a610435366004611bcc565b6013602052600090815260409020546001600160a01b031681565b61033e61045e366004611ce0565b610cd8565b61034460055481565b61033e61047a366004611e03565b610d68565b61033e61048d366004611bcc565b610dca565b61034460075481565b6103446104a9366004611bcc565b60176020526000908152604090205481565b61033e6104c9366004611d41565b610e45565b61033e6104dc366004611bcc565b610fcf565b610344600e5481565b61033e6104f8366004611bcc565b61104a565b60025461038a906001600160a01b031681565b60015461038a906001600160a01b031681565b60035461038a906001600160a01b031681565b61033e610544366004611d41565b6110ec565b61038a7f000000000000000000000000000000000000000000000000000000000000000081565b61033e61057e366004611e03565b611276565b61033e610591366004611bcc565b611306565b6105b96105a4366004611bcc565b60116020526000908152604090205460ff1681565b604051901515815260200161034e565b61038a7f000000000000000000000000000000000000000000000000000000000000000081565b61033e6105fe366004611e03565b6113a8565b61033e610611366004611bcc565b61140a565b61033e610624366004611d15565b6114ac565b610344610637366004611bcc565b61157b565b61038a61064a366004611e03565b61161e565b61033e61065d366004611e03565b611648565b610344610670366004611bcc565b60126020526000908152604090205481565b610344600b5481565b610344610699366004611bcc565b60146020526000908152604090205481565b60085461038a906001600160a01b031681565b60065461038a906001600160a01b031681565b610344600d5481565b61033e6106e8366004611d41565b6116d8565b61033e6106fb366004611bcc565b611862565b61033e61070e366004611e03565b611904565b61033e610721366004611bcc565b611966565b61033e610734366004611bcc565b611a08565b61033e610747366004611e03565b611aaa565b60095461038a906001600160a01b031681565b610344600f5481565b60045461038a906001600160a01b031681565b610344610789366004611bcc565b60166020526000908152604090205481565b6000546001600160a01b031633146107cd5760405163a59d7f4d60e01b81523360048201526024015b60405180910390fd5b600a8190556040518181527fc6ea9765bcfa0141a8ae379f2095c41676ac19b776f813d3f9470083803602a7906020015b60405180910390a150565b600080546001600160a01b031633146108375760405163a59d7f4d60e01b81523360048201526024016107c4565b506001600160a01b038083166000908152601360205260409020541680156108855760405163084252d560e11b81526001600160a01b038085166004830152821660248201526044016107c4565b6040516327c74f7f60e01b81526001600160a01b038481166004830152602482018490527f000000000000000000000000000000000000000000000000000000000000000016906327c74f7f90604401602060405180830381600087803b1580156108ef57600080fd5b505af1158015610903573d6000803e3d6000fd5b505050506040513d601f19601f820116820180604052508101906109279190611be9565b601080546001810182557f1b6847dc741a1b0cd08d278845f9d819d87b734759afb55fe2de5cb82a9ae6720180546001600160a01b03199081166001600160a01b038581169182179093558354600082815260126020908152604080832093909355948a168082526013865290829020805490941683179093559354845188815293840152939450917f2b441112f88ae4b324ae75fa72f06e95a0bda7bca0621af0cceae2e36b80c909910160405180910390a392915050565b6000546001600160a01b03163314610a0e5760405163a59d7f4d60e01b81523360048201526024016107c4565b8051825114610a3d578151815160405163574092f960e01b8152600481019290925260248201526044016107c4565b60005b8251811015610b9a57612710828281518110610a5e57610a5e611f2c565b60200260200101511115610aad57818181518110610a7e57610a7e611f2c565b6020026020010151612710604051637150bba160e01b81526004016107c4929190918252602082015260400190565b818181518110610abf57610abf611f2c565b602002602001015160156000858481518110610add57610add611f2c565b60200260200101516001600160a01b03166001600160a01b03168152602001908152602001600020819055507f8add957a7db6c1e209aa088c73a62080ac8d87df445a42425edc183b0d2b3a45838281518110610b3c57610b3c611f2c565b6020026020010151838381518110610b5657610b56611f2c565b6020026020010151604051610b809291906001600160a01b03929092168252602082015260400190565b60405180910390a180610b9281611f03565b915050610a40565b505050565b6000546001600160a01b03163314610bcc5760405163a59d7f4d60e01b81523360048201526024016107c4565b600b8190556040518181527ff08490e6d193bbfc8ad4250871b2ae2e139889261e6276d69d77eb0be7848cc7906020016107fe565b6000546001600160a01b03163314610c2e5760405163a59d7f4d60e01b81523360048201526024016107c4565b6001600160a01b038084166000908152601360205260409020541680610c7257604051633f36c1ab60e01b81526001600160a01b03851660048201526024016107c4565b6040516332196a0160e01b81526001600160a01b038216906332196a0190610ca09086908690600401611e35565b600060405180830381600087803b158015610cba57600080fd5b505af1158015610cce573d6000803e3d6000fd5b5050505050505050565b6000546001600160a01b03163314610d055760405163a59d7f4d60e01b81523360048201526024016107c4565b6001600160a01b038216600081815260116020908152604091829020805460ff19168515159081179091558251938452908301527f1618a22a3b00b9ac70fd5a82f1f5cdd8cb272bd0f1b740ddf7c26ab05881dd5b910160405180910390a15050565b6000546001600160a01b03163314610d955760405163a59d7f4d60e01b81523360048201526024016107c4565b60078190556040518181527f37740cd8864334fffe6b06452e32307736156de02df2d346c4ef77d649827f32906020016107fe565b6000546001600160a01b03163314610df75760405163a59d7f4d60e01b81523360048201526024016107c4565b600880546001600160a01b0319166001600160a01b0383169081179091556040519081527ff11afbeac1d4f4dd22e57c9a7e0f2609bb76b858a038c0a5b45593887c86bd55906020016107fe565b6000546001600160a01b03163314610e725760405163a59d7f4d60e01b81523360048201526024016107c4565b8051825114610ea1578151815160405163574092f960e01b8152600481019290925260248201526044016107c4565b60005b8251811015610b9a57612710828281518110610ec257610ec2611f2c565b60200260200101511115610ee257818181518110610a7e57610a7e611f2c565b818181518110610ef457610ef4611f2c565b602002602001015160146000858481518110610f1257610f12611f2c565b60200260200101516001600160a01b03166001600160a01b03168152602001908152602001600020819055507f44d431e2f3cdcfd17ac59dba4b434d2cb8b7d98ec61f6932e706b8d5229ff652838281518110610f7157610f71611f2c565b6020026020010151838381518110610f8b57610f8b611f2c565b6020026020010151604051610fb59291906001600160a01b03929092168252602082015260400190565b60405180910390a180610fc781611f03565b915050610ea4565b6000546001600160a01b03163314610ffc5760405163a59d7f4d60e01b81523360048201526024016107c4565b600980546001600160a01b0319166001600160a01b0383169081179091556040519081527f7e3d013374f40dc62cec68879efd2d50157b93dfe8fb48bb716e53172e5b0f94906020016107fe565b6000546001600160a01b031633146110775760405163a59d7f4d60e01b81523360048201526024016107c4565b6001600160a01b03811661109e5760405163d92e233d60e01b815260040160405180910390fd5b600280546001600160a01b0319166001600160a01b0383169081179091556040519081527ff724a45d041687842411f2b977ef22ab8f43c8f1104f4592b42a00f9b34a643d906020016107fe565b6000546001600160a01b031633146111195760405163a59d7f4d60e01b81523360048201526024016107c4565b8051825114611148578151815160405163574092f960e01b8152600481019290925260248201526044016107c4565b60005b8251811015610b9a5761271082828151811061116957611169611f2c565b6020026020010151111561118957818181518110610a7e57610a7e611f2c565b81818151811061119b5761119b611f2c565b6020026020010151601760008584815181106111b9576111b9611f2c565b60200260200101516001600160a01b03166001600160a01b03168152602001908152602001600020819055507f0b2fbf1cb794ef27c93f2189ce22f82871c05ecfb1d103d7d7bb7090118dc1c683828151811061121857611218611f2c565b602002602001015183838151811061123257611232611f2c565b602002602001015160405161125c9291906001600160a01b03929092168252602082015260400190565b60405180910390a18061126e81611f03565b91505061114b565b6000546001600160a01b031633146112a35760405163a59d7f4d60e01b81523360048201526024016107c4565b6127108110156112d15760405163102a6c2760e01b81526004810182905261271060248201526044016107c4565b600e8190556040518181527f76ac3f03024a7eaac1162b2497ce4f632a0fe15eac444f9b01fff9620a166c25906020016107fe565b6000546001600160a01b031633146113335760405163a59d7f4d60e01b81523360048201526024016107c4565b6001600160a01b03811661135a5760405163d92e233d60e01b815260040160405180910390fd5b600180546001600160a01b0319166001600160a01b0383169081179091556040519081527f193361fce04ed0c4e2cb4638cdc21c56d4313f5066142224555c49d3933e7ca4906020016107fe565b6000546001600160a01b031633146113d55760405163a59d7f4d60e01b81523360048201526024016107c4565b600c8190556040518181527fbc1e854438813a1eff88fabe13d9c164009f178d581d45e9a557f037f957b491906020016107fe565b6000546001600160a01b031633146114375760405163a59d7f4d60e01b81523360048201526024016107c4565b6001600160a01b03811661145e5760405163d92e233d60e01b815260040160405180910390fd5b600380546001600160a01b0319166001600160a01b0383169081179091556040519081527fed2325536fb5243d4b19d1781d46658efaf1b668c1d8a693d050be0dd1cbfd30906020016107fe565b6000546001600160a01b031633146114d95760405163a59d7f4d60e01b81523360048201526024016107c4565b6001600160a01b03808316600090815260136020526040902054168061151d57604051633f36c1ab60e01b81526001600160a01b03841660048201526024016107c4565b60405162e8433960e51b8152600481018390526001600160a01b03821690631d08672090602401600060405180830381600087803b15801561155e57600080fd5b505af1158015611572573d6000803e3d6000fd5b50505050505050565b6001600160a01b03808216600090815260136020526040812054909116806115a65750600092915050565b806001600160a01b031663c392f7666040518163ffffffff1660e01b815260040160206040518083038186803b1580156115df57600080fd5b505afa1580156115f3573d6000803e3d6000fd5b505050506040513d601f19601f820116820180604052508101906116179190611e1c565b9392505050565b6010818154811061162e57600080fd5b6000918252602090912001546001600160a01b0316905081565b6000546001600160a01b031633146116755760405163a59d7f4d60e01b81523360048201526024016107c4565b6127108111156116a357604051637150bba160e01b81526004810182905261271060248201526044016107c4565b60058190556040518181527f43c0669c98845a19f0c83c170dafac37d88ab6841d159a3b478365715e09a119906020016107fe565b6000546001600160a01b031633146117055760405163a59d7f4d60e01b81523360048201526024016107c4565b8051825114611734578151815160405163574092f960e01b8152600481019290925260248201526044016107c4565b60005b8251811015610b9a5761271082828151811061175557611755611f2c565b6020026020010151111561177557818181518110610a7e57610a7e611f2c565b81818151811061178757611787611f2c565b6020026020010151601660008584815181106117a5576117a5611f2c565b60200260200101516001600160a01b03166001600160a01b03168152602001908152602001600020819055507f95ce88c220684eb1cbfa29b8c489102dd6ac38a615bd9f16c996786636ebb9ca83828151811061180457611804611f2c565b602002602001015183838151811061181e5761181e611f2c565b60200260200101516040516118489291906001600160a01b03929092168252602082015260400190565b60405180910390a18061185a81611f03565b915050611737565b6000546001600160a01b0316331461188f5760405163a59d7f4d60e01b81523360048201526024016107c4565b6001600160a01b0381166118b65760405163d92e233d60e01b815260040160405180910390fd5b600080546001600160a01b0319166001600160a01b0383169081179091556040519081527f54a6385aa0292b04e1ef8513253c17d1863f7cdfc87029d77fd55cc4c2e717e2906020016107fe565b6000546001600160a01b031633146119315760405163a59d7f4d60e01b81523360048201526024016107c4565b600d8190556040518181527f0b2ddbbbc17f5fc2d90c43b399e48d7a3d677da0218cd35a024df8a39350bd25906020016107fe565b6000546001600160a01b031633146119935760405163a59d7f4d60e01b81523360048201526024016107c4565b6001600160a01b0381166119ba5760405163d92e233d60e01b815260040160405180910390fd5b600480546001600160a01b0319166001600160a01b0383169081179091556040519081527f97011acc091d73d67f71ff78bdb3837ce0103f4a52e95b01f50a28b9f7821ba6906020016107fe565b6000546001600160a01b03163314611a355760405163a59d7f4d60e01b81523360048201526024016107c4565b6001600160a01b038116611a5c5760405163d92e233d60e01b815260040160405180910390fd5b600680546001600160a01b0319166001600160a01b0383169081179091556040519081527f59862d5b8f7ef1d8356d180654086286a04107247706e45b034f1fac0b3f7dec906020016107fe565b6000546001600160a01b03163314611ad75760405163a59d7f4d60e01b81523360048201526024016107c4565b62015180811015611b075760405163102a6c2760e01b8152600481018290526201518060248201526044016107c4565b600f8190556040518181527f3b655fff5646f76885baca7e1dadf8b8e0095ff01de8f96a0cf75c8d8cfb53d8906020016107fe565b600082601f830112611b4d57600080fd5b81356020611b62611b5d83611edf565b611eae565b80838252828201915082860187848660051b8901011115611b8257600080fd5b60005b85811015611baa578135611b9881611f58565b84529284019290840190600101611b85565b5090979650505050505050565b80358015158114611bc757600080fd5b919050565b600060208284031215611bde57600080fd5b813561161781611f58565b600060208284031215611bfb57600080fd5b815161161781611f58565b600080600060608486031215611c1b57600080fd5b8335611c2681611f58565b925060208481013567ffffffffffffffff80821115611c4457600080fd5b611c5088838901611b3c565b94506040870135915080821115611c6657600080fd5b508501601f81018713611c7857600080fd5b8035611c86611b5d82611edf565b8082825284820191508484018a868560051b8701011115611ca657600080fd5b600094505b83851015611cd057611cbc81611bb7565b835260019490940193918501918501611cab565b5080955050505050509250925092565b60008060408385031215611cf357600080fd5b8235611cfe81611f58565b9150611d0c60208401611bb7565b90509250929050565b60008060408385031215611d2857600080fd5b8235611d3381611f58565b946020939093013593505050565b60008060408385031215611d5457600080fd5b823567ffffffffffffffff80821115611d6c57600080fd5b611d7886838701611b3c565b9350602091508185013581811115611d8f57600080fd5b85019050601f81018613611da257600080fd5b8035611db0611b5d82611edf565b80828252848201915084840189868560051b8701011115611dd057600080fd5b600094505b83851015611df3578035835260019490940193918501918501611dd5565b5080955050505050509250929050565b600060208284031215611e1557600080fd5b5035919050565b600060208284031215611e2e57600080fd5b5051919050565b604080825283519082018190526000906020906060840190828701845b82811015611e775781516001600160a01b031684529284019290840190600101611e52565b5050508381038285015284518082528583019183019060005b81811015611baa578351151583529284019291840191600101611e90565b604051601f8201601f1916810167ffffffffffffffff81118282101715611ed757611ed7611f42565b604052919050565b600067ffffffffffffffff821115611ef957611ef9611f42565b5060051b60200190565b6000600019821415611f2557634e487b7160e01b600052601160045260246000fd5b5060010190565b634e487b7160e01b600052603260045260246000fd5b634e487b7160e01b600052604160045260246000fd5b6001600160a01b0381168114611f6d57600080fd5b5056fea2646970667358221220bb8d9bde3d8969dcaf681eaa68171da37a2b753c10fd6b9e96e7f4988bf9f45764736f6c63430008070033",
  "linkReferences": {},
  "deployedLinkReferences": {}
}