{
  "_format": "hh-sol-artifact-1",
  "contractName": "Monitor",
  "sourceName": "contracts/Monitor.sol",
  "abi": [
    {
      "inputs": [
        {
          "internalType": "address",
          "name": "_keeper",
          "type": "address"
        },
        {
          "internalType": "address",
          "name": "_factory",
          "type": "address"
        },
        {
          "internalType": "uint256",
          "name": "_batchSize",
          "type": "uint256"
        },
        {
          "internalType": "uint256",
          "name": "_monitorSize",
          "type": "uint256"
        },
        {
          "internalType": "uint256",
          "name": "_startIndex",
          "type": "uint256"
        }
      ],
      "stateMutability": "nonpayable",
      "type": "constructor"
    },
    {
      "inputs": [
        {
          "internalType": "address",
          "name": "sender",
          "type": "address"
        }
      ],
      "name": "Forbidden",
      "type": "error"
    },
    {
      "inputs": [
        {
          "internalType": "uint256",
          "name": "value",
          "type": "uint256"
        },
        {
          "internalType": "uint256",
          "name": "max",
          "type": "uint256"
        }
      ],
      "name": "TooHighValue",
      "type": "error"
    },
    {
      "inputs": [
        {
          "internalType": "uint256",
          "name": "value",
          "type": "uint256"
        },
        {
          "internalType": "uint256",
          "name": "min",
          "type": "uint256"
        }
      ],
      "name": "TooLowValue",
      "type": "error"
    },
    {
      "anonymous": false,
      "inputs": [
        {
          "indexed": false,
          "internalType": "uint256",
          "name": "count",
          "type": "uint256"
        },
        {
          "indexed": false,
          "internalType": "bytes",
          "name": "performData",
          "type": "bytes"
        },
        {
          "indexed": false,
          "internalType": "uint256",
          "name": "usedGas",
          "type": "uint256"
        },
        {
          "indexed": false,
          "internalType": "uint256",
          "name": "gasPrice",
          "type": "uint256"
        }
      ],
      "name": "ProcessBatch",
      "type": "event"
    },
    {
      "anonymous": false,
      "inputs": [
        {
          "indexed": false,
          "internalType": "uint256",
          "name": "batchSize",
          "type": "uint256"
        }
      ],
      "name": "SetBatchSize",
      "type": "event"
    },
    {
      "anonymous": false,
      "inputs": [
        {
          "indexed": false,
          "internalType": "address",
          "name": "factory",
          "type": "address"
        }
      ],
      "name": "SetFactory",
      "type": "event"
    },
    {
      "anonymous": false,
      "inputs": [
        {
          "indexed": false,
          "internalType": "address",
          "name": "keeper",
          "type": "address"
        }
      ],
      "name": "SetKeeper",
      "type": "event"
    },
    {
      "anonymous": false,
      "inputs": [
        {
          "indexed": false,
          "internalType": "address",
          "name": "manager",
          "type": "address"
        }
      ],
      "name": "SetManager",
      "type": "event"
    },
    {
      "anonymous": false,
      "inputs": [
        {
          "indexed": false,
          "internalType": "uint256",
          "name": "monitorSize",
          "type": "uint256"
        }
      ],
      "name": "SetMonitorSize",
      "type": "event"
    },
    {
      "anonymous": false,
      "inputs": [
        {
          "indexed": false,
          "internalType": "uint256",
          "name": "startIndex",
          "type": "uint256"
        }
      ],
      "name": "SetStartIndex",
      "type": "event"
    },
    {
      "inputs": [],
      "name": "batchSize",
      "outputs": [
        {
          "internalType": "uint256",
          "name": "",
          "type": "uint256"
        }
      ],
      "stateMutability": "view",
      "type": "function"
    },
    {
      "inputs": [
        {
          "internalType": "bytes",
          "name": "",
          "type": "bytes"
        }
      ],
      "name": "checkUpkeep",
      "outputs": [
        {
          "internalType": "bool",
          "name": "upkeepNeeded",
          "type": "bool"
        },
        {
          "internalType": "bytes",
          "name": "performData",
          "type": "bytes"
        }
      ],
      "stateMutability": "view",
      "type": "function"
    },
    {
      "inputs": [],
      "name": "checker",
      "outputs": [
        {
          "internalType": "bool",
          "name": "canExec",
          "type": "bool"
        },
        {
          "internalType": "bytes",
          "name": "execPayload",
          "type": "bytes"
        }
      ],
      "stateMutability": "view",
      "type": "function"
    },
    {
      "inputs": [
        {
          "internalType": "address",
          "name": "_tokenIn",
          "type": "address"
        },
        {
          "internalType": "address",
          "name": "_tokenOut",
          "type": "address"
        },
        {
          "internalType": "uint256",
          "name": "_amountOut",
          "type": "uint256"
        },
        {
          "internalType": "bytes",
          "name": "",
          "type": "bytes"
        }
      ],
      "name": "closeCallback",
      "outputs": [],
      "stateMutability": "nonpayable",
      "type": "function"
    },
    {
      "inputs": [],
      "name": "factory",
      "outputs": [
        {
          "internalType": "address",
          "name": "",
          "type": "address"
        }
      ],
      "stateMutability": "view",
      "type": "function"
    },
    {
      "inputs": [],
      "name": "keeper",
      "outputs": [
        {
          "internalType": "address",
          "name": "",
          "type": "address"
        }
      ],
      "stateMutability": "view",
      "type": "function"
    },
    {
      "inputs": [],
      "name": "manager",
      "outputs": [
        {
          "internalType": "address",
          "name": "",
          "type": "address"
        }
      ],
      "stateMutability": "view",
      "type": "function"
    },
    {
      "inputs": [],
      "name": "monitorSize",
      "outputs": [
        {
          "internalType": "uint256",
          "name": "",
          "type": "uint256"
        }
      ],
      "stateMutability": "view",
      "type": "function"
    },
    {
      "inputs": [
        {
          "internalType": "bytes",
          "name": "_performData",
          "type": "bytes"
        }
      ],
      "name": "performUpkeep",
      "outputs": [],
      "stateMutability": "nonpayable",
      "type": "function"
    },
    {
      "inputs": [],
      "name": "positionStorage",
      "outputs": [
        {
          "internalType": "address",
          "name": "",
          "type": "address"
        }
      ],
      "stateMutability": "view",
      "type": "function"
    },
    {
      "inputs": [
        {
          "internalType": "uint256",
          "name": "_batchSize",
          "type": "uint256"
        }
      ],
      "name": "setBatchSize",
      "outputs": [],
      "stateMutability": "nonpayable",
      "type": "function"
    },
    {
      "inputs": [
        {
          "internalType": "address",
          "name": "_factory",
          "type": "address"
        }
      ],
      "name": "setFactory",
      "outputs": [],
      "stateMutability": "nonpayable",
      "type": "function"
    },
    {
      "inputs": [
        {
          "internalType": "address",
          "name": "_keeper",
          "type": "address"
        }
      ],
      "name": "setKeeper",
      "outputs": [],
      "stateMutability": "nonpayable",
      "type": "function"
    },
    {
      "inputs": [
        {
          "internalType": "address",
          "name": "_manager",
          "type": "address"
        }
      ],
      "name": "setManager",
      "outputs": [],
      "stateMutability": "nonpayable",
      "type": "function"
    },
    {
      "inputs": [
        {
          "internalType": "uint256",
          "name": "_monitorSize",
          "type": "uint256"
        }
      ],
      "name": "setMonitorSize",
      "outputs": [],
      "stateMutability": "nonpayable",
      "type": "function"
    },
    {
      "inputs": [
        {
          "internalType": "uint256",
          "name": "_startIndex",
          "type": "uint256"
        }
      ],
      "name": "setStartIndex",
      "outputs": [],
      "stateMutability": "nonpayable",
      "type": "function"
    },
    {
      "inputs": [],
      "name": "startIndex",
      "outputs": [
        {
          "internalType": "uint256",
          "name": "",
          "type": "uint256"
        }
      ],
      "stateMutability": "view",
      "type": "function"
    }
  ],
  "bytecode": "0x60806040523480156200001157600080fd5b5060405162001ab038038062001ab083398101604081905262000034916200015a565b60008054336001600160a01b0319918216179091556001805482166001600160a01b03888116919091179091556002805490921690861690811790915560408051638cd4741560e01b81529051638cd4741591600480820192602092909190829003018186803b158015620000a857600080fd5b505afa158015620000bd573d6000803e3d6000fd5b505050506040513d601f19601f82011682018060405250810190620000e3919062000135565b600380546001600160a01b0319166001600160a01b039290921691909117905560049290925560055560065550620001ad9050565b80516001600160a01b03811681146200013057600080fd5b919050565b6000602082840312156200014857600080fd5b620001538262000118565b9392505050565b600080600080600060a086880312156200017357600080fd5b6200017e8662000118565b94506200018e6020870162000118565b6040870151606088015160809098015196999198509695945092505050565b6118f380620001bd6000396000f3fe608060405234801561001057600080fd5b506004361061010b5760003560e01c8063860965c6116100a2578063c45a015511610071578063c45a01551461021b578063cf5303cf1461022e578063d0ebdbe714610236578063e761f9dc14610249578063f4daaba11461025c57600080fd5b8063860965c6146101d95780638cd47415146101e25780639bb0dafa146101f5578063aced16611461020857600080fd5b80635bb47808116100de5780635bb478081461017f5780635ff7d9d5146101925780636e04ff0d146101a5578063748747e6146101c657600080fd5b80633e0e828b146101105780634585e33b1461012c578063481c6a7514610141578063576f35e31461016c575b600080fd5b61011960065481565b6040519081526020015b60405180910390f35b61013f61013a3660046114bb565b610265565b005b600054610154906001600160a01b031681565b6040516001600160a01b039091168152602001610123565b61013f61017a3660046115eb565b610470565b61013f61018d366004611320565b61050f565b61013f6101a03660046115eb565b610616565b6101b86101b33660046114bb565b610678565b6040516101239291906116c4565b61013f6101d4366004611320565b610908565b61011960055481565b600354610154906001600160a01b031681565b61013f6102033660046115eb565b610983565b600154610154906001600160a01b031681565b600254610154906001600160a01b031681565b6101b8610a13565b61013f610244366004611320565b610cd8565b61013f610257366004611361565b610d53565b61011960045481565b6003546001600160a01b031660005a9050600080610285858701876113d4565b9150915060005b8181101561041e576000856001600160a01b031663957d1fe18584815181106102b7576102b7611879565b60200260200101516040518263ffffffff1660e01b81526004016102dd91815260200190565b6103406040518083038186803b1580156102f657600080fd5b505afa15801561030a573d6000803e3d6000fd5b505050506040513d601f19601f8201168201806040525081019061032e91906114fd565b905080604001516001600160a01b031663fba0c814604051806080016040528084600001518152602001600067ffffffffffffffff8111156103725761037261188f565b6040519080825280601f01601f19166020018201604052801561039c576020820181803683370190505b50815260408051600081526020808201835283015230918101919091525160e083901b6001600160e01b03191681526103d891906004016116fa565b600060405180830381600087803b1580156103f257600080fd5b505af1158015610406573d6000803e3d6000fd5b5050505050808061041690611848565b91505061028c565b507fd1d8c94a101352389a2fadcdc79eb2ec660d64769f14a1e89c50c6d22225ce8b8187875a61044e9088611801565b3a60405161046095949392919061175f565b60405180910390a1505050505050565b6000546001600160a01b031633146104a25760405163a59d7f4d60e01b81523360048201526024015b60405180910390fd5b6005548111156104d357600554604051637150bba160e01b8152610499918391600401918252602082015260400190565b60048190556040518181527fe7589087ca18f0ad76e3a457747806de5e2432f4285837617205c045ba950fb6906020015b60405180910390a150565b6000546001600160a01b0316331461053c5760405163a59d7f4d60e01b8152336004820152602401610499565b600280546001600160a01b0319166001600160a01b03831690811790915560408051638cd4741560e01b81529051638cd4741591600480820192602092909190829003018186803b15801561059057600080fd5b505afa1580156105a4573d6000803e3d6000fd5b505050506040513d601f19601f820116820180604052508101906105c89190611344565b600380546001600160a01b0319166001600160a01b0392831617905560405190821681527f1c893ef9379093af30f458b9e74d2aba13c499660b68dec5e29af7b199c188b990602001610504565b6000546001600160a01b031633146106435760405163a59d7f4d60e01b8152336004820152602401610499565b60068190556040518181527ffb0b2459ef0b436ea50d577db242217edfa1e86a7404361aaae9b6bb406b7e2f90602001610504565b6003546004546000916060916001600160a01b0390911690839067ffffffffffffffff8111156106aa576106aa61188f565b6040519080825280602002602001820160405280156106d3578160200160208202803683370190505b5090506000806000846001600160a01b031663539826a66040518163ffffffff1660e01b815260040160206040518083038186803b15801561071457600080fd5b505afa158015610728573d6000803e3d6000fd5b505050506040513d601f19601f8201168201806040525081019061074c91906114a2565b90508060065410156108cd576006545b818110156108cb57604051632895a2b360e01b8152600481018290526000906001600160a01b03881690632895a2b39060240160206040518083038186803b1580156107a757600080fd5b505afa1580156107bb573d6000803e3d6000fd5b505050506040513d601f19601f820116820180604052508101906107df91906114a2565b604051630c3742a160e31b8152600481018290529091506001600160a01b038816906361ba15089060240160206040518083038186803b15801561082257600080fd5b505afa158015610836573d6000803e3d6000fd5b505050506040513d601f19601f8201168201806040525081019061085a9190611487565b1561088b578086868151811061087257610872611879565b60209081029190910101528461088781611848565b9550505b8361089581611848565b9450506005548414156108a857506108cb565b6004548514156108b857506108cb565b50806108c381611848565b91505061075c565b505b8215801597506108fc5783836040516020016108ea92919061167c565b60405160208183030381529060405295505b50505050509250929050565b6000546001600160a01b031633146109355760405163a59d7f4d60e01b8152336004820152602401610499565b600180546001600160a01b0319166001600160a01b0383169081179091556040519081527fefb5cfa1a8690c124332ab93324539c5c9c4be03f28aeb8be86f2d8a0c9fb99b90602001610504565b6000546001600160a01b031633146109b05760405163a59d7f4d60e01b8152336004820152602401610499565b6004548110156109de576004805460405163102a6c2760e01b81529182018390526024820152604401610499565b60058190556040518181527f8f7e75c44358384d270505281bef6ad973e53b3785b6d722c4f279f1521d156090602001610504565b6003546004546000916060916001600160a01b0390911690839067ffffffffffffffff811115610a4557610a4561188f565b604051908082528060200260200182016040528015610a6e578160200160208202803683370190505b5090506000806000846001600160a01b031663539826a66040518163ffffffff1660e01b815260040160206040518083038186803b158015610aaf57600080fd5b505afa158015610ac3573d6000803e3d6000fd5b505050506040513d601f19601f82011682018060405250810190610ae791906114a2565b9050806006541015610c68576006545b81811015610c6657604051632895a2b360e01b8152600481018290526000906001600160a01b03881690632895a2b39060240160206040518083038186803b158015610b4257600080fd5b505afa158015610b56573d6000803e3d6000fd5b505050506040513d601f19601f82011682018060405250810190610b7a91906114a2565b604051630c3742a160e31b8152600481018290529091506001600160a01b038816906361ba15089060240160206040518083038186803b158015610bbd57600080fd5b505afa158015610bd1573d6000803e3d6000fd5b505050506040513d601f19601f82011682018060405250810190610bf59190611487565b15610c265780868681518110610c0d57610c0d611879565b602090810291909101015284610c2281611848565b9550505b83610c3081611848565b945050600554841415610c435750610c66565b600454851415610c535750610c66565b5080610c5e81611848565b915050610af7565b505b821580159750610ccf578383604051602001610c8592919061167c565b60408051601f1981840301815290829052610ca2916024016116e7565b60408051601f198184030181529190526020810180516001600160e01b0316634585e33b60e01b17905295505b50505050509091565b6000546001600160a01b03163314610d055760405163a59d7f4d60e01b8152336004820152602401610499565b600080546001600160a01b0319166001600160a01b0383169081179091556040519081527f54a6385aa0292b04e1ef8513253c17d1863f7cdfc87029d77fd55cc4c2e717e290602001610504565b600254604080516303e10eaf60e51b815290516000926001600160a01b031691637c21d5e0916004808301926020929190829003018186803b158015610d9857600080fd5b505afa158015610dac573d6000803e3d6000fd5b505050506040513d601f19601f82011682018060405250810190610dd09190611344565b6040516370a0823160e01b81523060048201529091506000906001600160a01b038816906370a082319060240160206040518083038186803b158015610e1557600080fd5b505afa158015610e29573d6000803e3d6000fd5b505050506040513d601f19601f82011682018060405250810190610e4d91906114a2565b9050610e5a878383611030565b604051630ceffb5960e31b8152600060048201526001600160a01b03888116602483015287811660448301526064820187905230608483015283169063677fdac89060a4016040805180830381600087803b158015610eb857600080fd5b505af1158015610ecc573d6000803e3d6000fd5b505050506040513d601f19601f82011682018060405250810190610ef09190611604565b5050610efd863387611030565b6040516370a0823160e01b81523060048201526000906001600160a01b038816906370a082319060240160206040518083038186803b158015610f3f57600080fd5b505afa158015610f53573d6000803e3d6000fd5b505050506040513d601f19601f82011682018060405250810190610f7791906114a2565b9050801561102657610f8a878483611030565b604051630ceffb5960e31b81526000600482018190526001600160a01b0389811660248401528a81166044840152606483019190915233608483015284169063677fdac89060a4016040805180830381600087803b158015610feb57600080fd5b505af1158015610fff573d6000803e3d6000fd5b505050506040513d601f19601f820116820180604052508101906110239190611604565b50505b5050505050505050565b604080516001600160a01b038481166024830152604480830185905283518084039091018152606490920183526020820180516001600160e01b031663a9059cbb60e01b179052915160009283929087169161108c9190611660565b6000604051808303816000865af19150503d80600081146110c9576040519150601f19603f3d011682016040523d82523d6000602084013e6110ce565b606091505b50915091508180156110f85750805115806110f85750808060200190518101906110f89190611487565b61115a5760405162461bcd60e51b815260206004820152602d60248201527f5472616e7366657248656c7065723a3a736166655472616e736665723a20747260448201526c185b9cd9995c8819985a5b1959609a1b6064820152608401610499565b5050505050565b805161116c816118a5565b919050565b8051801515811461116c57600080fd5b60008083601f84011261119357600080fd5b50813567ffffffffffffffff8111156111ab57600080fd5b6020830191508360208285010111156111c357600080fd5b9250929050565b600060a082840312156111dc57600080fd5b60405160a0810181811067ffffffffffffffff821117156111ff576111ff61188f565b80604052508091508251611212816118a5565b80825250602083015160208201526040830151604082015260608301516060820152608083015160808201525092915050565b60006040828403121561125757600080fd5b6040516040810181811067ffffffffffffffff8211171561127a5761127a61188f565b8060405250809150825161128d816118a5565b8152602092830151920191909152919050565b6000608082840312156112b257600080fd5b6040516080810181811067ffffffffffffffff821117156112d5576112d561188f565b6040529050806112e483611171565b81526112f260208401611171565b602082015261130360408401611171565b604082015261131460608401611171565b60608201525092915050565b60006020828403121561133257600080fd5b813561133d816118a5565b9392505050565b60006020828403121561135657600080fd5b815161133d816118a5565b60008060008060006080868803121561137957600080fd5b8535611384816118a5565b94506020860135611394816118a5565b935060408601359250606086013567ffffffffffffffff8111156113b757600080fd5b6113c388828901611181565b969995985093965092949392505050565b600080604083850312156113e757600080fd5b823567ffffffffffffffff808211156113ff57600080fd5b818501915085601f83011261141357600080fd5b81356020828211156114275761142761188f565b8160051b92506114388184016117d0565b8281528181019085830185870184018b101561145357600080fd5b600096505b84871015611476578035835260019690960195918301918301611458565b509997909101359750505050505050565b60006020828403121561149957600080fd5b61133d82611171565b6000602082840312156114b457600080fd5b5051919050565b600080602083850312156114ce57600080fd5b823567ffffffffffffffff8111156114e557600080fd5b6114f185828601611181565b90969095509350505050565b6000610340828403121561151057600080fd5b6115186117a6565b8251815261152860208401611161565b602082015261153960408401611161565b604082015261154b84606085016111ca565b606082015261010061155f85828601611245565b6080830152610140611573868287016111ca565b60a08401526101e085015160c084015261020085015160e0840152610220850151828401526102408501516101208401526102608501518184015250506115be8461028085016112a0565b6101608201526115d16103008401611161565b61018082015261032092909201516101a083015250919050565b6000602082840312156115fd57600080fd5b5035919050565b6000806040838503121561161757600080fd5b825191506020830151611629816118a5565b809150509250929050565b6000815180845261164c816020860160208601611818565b601f01601f19169290920160200192915050565b60008251611672818460208701611818565b9190910192915050565b604080825283519082018190526000906020906060840190828701845b828110156116b557815184529284019290840190600101611699565b50505092019290925292915050565b82151581526040602082015260006116df6040830184611634565b949350505050565b60208152600061133d6020830184611634565b6020815281516020820152600060208301516080604084015261172060a0840182611634565b90506040840151601f1984830301606085015261173d8282611634565b606095909501516001600160a01b031660809490940193909352509192915050565b85815260806020820152836080820152838560a0830137600060a08583010152600060a0601f19601f87011683010190508360408301528260608301529695505050505050565b6040516101c0810167ffffffffffffffff811182821017156117ca576117ca61188f565b60405290565b604051601f8201601f1916810167ffffffffffffffff811182821017156117f9576117f961188f565b604052919050565b60008282101561181357611813611863565b500390565b60005b8381101561183357818101518382015260200161181b565b83811115611842576000848401525b50505050565b600060001982141561185c5761185c611863565b5060010190565b634e487b7160e01b600052601160045260246000fd5b634e487b7160e01b600052603260045260246000fd5b634e487b7160e01b600052604160045260246000fd5b6001600160a01b03811681146118ba57600080fd5b5056fea26469706673582212203391396715d16bd8f1b29790600a0a26d14274255b47bfd9091b27552dccf86364736f6c63430008070033",
  "linkReferences": {},
  "deployedLinkReferences": {}
}