{
  "_format": "hh-sol-artifact-1",
  "contractName": "Monitor",
  "sourceName": "contracts/Monitor.sol",
  "abi": [
    {
      "inputs": [
        {
          "internalType": "address",
          "name": "_keeper",
          "type": "address"
        },
        {
          "internalType": "address",
          "name": "_factory",
          "type": "address"
        },
        {
          "internalType": "uint256",
          "name": "_batchSize",
          "type": "uint256"
        },
        {
          "internalType": "uint256",
          "name": "_monitorSize",
          "type": "uint256"
        },
        {
          "internalType": "uint256",
          "name": "_startIndex",
          "type": "uint256"
        }
      ],
      "stateMutability": "nonpayable",
      "type": "constructor"
    },
    {
      "inputs": [
        {
          "internalType": "address",
          "name": "sender",
          "type": "address"
        }
      ],
      "name": "Forbidden",
      "type": "error"
    },
    {
      "inputs": [],
      "name": "InsufficientOutput",
      "type": "error"
    },
    {
      "inputs": [
        {
          "internalType": "uint256",
          "name": "value",
          "type": "uint256"
        },
        {
          "internalType": "uint256",
          "name": "max",
          "type": "uint256"
        }
      ],
      "name": "TooHighValue",
      "type": "error"
    },
    {
      "inputs": [
        {
          "internalType": "uint256",
          "name": "value",
          "type": "uint256"
        },
        {
          "internalType": "uint256",
          "name": "min",
          "type": "uint256"
        }
      ],
      "name": "TooLowValue",
      "type": "error"
    },
    {
      "anonymous": false,
      "inputs": [
        {
          "indexed": false,
          "internalType": "uint256",
          "name": "count",
          "type": "uint256"
        },
        {
          "indexed": false,
          "internalType": "bytes",
          "name": "performData",
          "type": "bytes"
        },
        {
          "indexed": false,
          "internalType": "uint256",
          "name": "usedGas",
          "type": "uint256"
        },
        {
          "indexed": false,
          "internalType": "uint256",
          "name": "gasPrice",
          "type": "uint256"
        }
      ],
      "name": "ProcessBatch",
      "type": "event"
    },
    {
      "anonymous": false,
      "inputs": [
        {
          "indexed": false,
          "internalType": "uint256",
          "name": "batchSize",
          "type": "uint256"
        }
      ],
      "name": "SetBatchSize",
      "type": "event"
    },
    {
      "anonymous": false,
      "inputs": [
        {
          "indexed": false,
          "internalType": "address",
          "name": "factory",
          "type": "address"
        }
      ],
      "name": "SetFactory",
      "type": "event"
    },
    {
      "anonymous": false,
      "inputs": [
        {
          "indexed": false,
          "internalType": "address",
          "name": "keeper",
          "type": "address"
        }
      ],
      "name": "SetKeeper",
      "type": "event"
    },
    {
      "anonymous": false,
      "inputs": [
        {
          "indexed": false,
          "internalType": "address",
          "name": "manager",
          "type": "address"
        }
      ],
      "name": "SetManager",
      "type": "event"
    },
    {
      "anonymous": false,
      "inputs": [
        {
          "indexed": false,
          "internalType": "address",
          "name": "metaAggregator",
          "type": "address"
        }
      ],
      "name": "SetMetaAggregator",
      "type": "event"
    },
    {
      "anonymous": false,
      "inputs": [
        {
          "indexed": false,
          "internalType": "uint256",
          "name": "monitorSize",
          "type": "uint256"
        }
      ],
      "name": "SetMonitorSize",
      "type": "event"
    },
    {
      "anonymous": false,
      "inputs": [
        {
          "indexed": false,
          "internalType": "uint256",
          "name": "startIndex",
          "type": "uint256"
        }
      ],
      "name": "SetStartIndex",
      "type": "event"
    },
    {
      "inputs": [],
      "name": "batchSize",
      "outputs": [
        {
          "internalType": "uint256",
          "name": "",
          "type": "uint256"
        }
      ],
      "stateMutability": "view",
      "type": "function"
    },
    {
      "inputs": [
        {
          "internalType": "bytes",
          "name": "",
          "type": "bytes"
        }
      ],
      "name": "checkUpkeep",
      "outputs": [
        {
          "internalType": "bool",
          "name": "upkeepNeeded",
          "type": "bool"
        },
        {
          "internalType": "bytes",
          "name": "performData",
          "type": "bytes"
        }
      ],
      "stateMutability": "view",
      "type": "function"
    },
    {
      "inputs": [],
      "name": "checker",
      "outputs": [
        {
          "internalType": "bool",
          "name": "canExec",
          "type": "bool"
        },
        {
          "internalType": "bytes",
          "name": "execPayload",
          "type": "bytes"
        }
      ],
      "stateMutability": "view",
      "type": "function"
    },
    {
      "inputs": [
        {
          "internalType": "bytes32",
          "name": "_positionKey",
          "type": "bytes32"
        },
        {
          "internalType": "bytes",
          "name": "_data0",
          "type": "bytes"
        },
        {
          "internalType": "bytes",
          "name": "_data1",
          "type": "bytes"
        }
      ],
      "name": "close",
      "outputs": [],
      "stateMutability": "nonpayable",
      "type": "function"
    },
    {
      "inputs": [
        {
          "internalType": "address",
          "name": "_tokenIn",
          "type": "address"
        },
        {
          "internalType": "address",
          "name": "_tokenOut",
          "type": "address"
        },
        {
          "internalType": "uint256",
          "name": "_minAmountOut",
          "type": "uint256"
        },
        {
          "internalType": "bytes",
          "name": "_data",
          "type": "bytes"
        }
      ],
      "name": "closeCallback",
      "outputs": [],
      "stateMutability": "nonpayable",
      "type": "function"
    },
    {
      "inputs": [],
      "name": "factory",
      "outputs": [
        {
          "internalType": "address",
          "name": "",
          "type": "address"
        }
      ],
      "stateMutability": "view",
      "type": "function"
    },
    {
      "inputs": [],
      "name": "keeper",
      "outputs": [
        {
          "internalType": "address",
          "name": "",
          "type": "address"
        }
      ],
      "stateMutability": "view",
      "type": "function"
    },
    {
      "inputs": [],
      "name": "manager",
      "outputs": [
        {
          "internalType": "address",
          "name": "",
          "type": "address"
        }
      ],
      "stateMutability": "view",
      "type": "function"
    },
    {
      "inputs": [],
      "name": "metaAggregator",
      "outputs": [
        {
          "internalType": "address",
          "name": "",
          "type": "address"
        }
      ],
      "stateMutability": "view",
      "type": "function"
    },
    {
      "inputs": [],
      "name": "monitorSize",
      "outputs": [
        {
          "internalType": "uint256",
          "name": "",
          "type": "uint256"
        }
      ],
      "stateMutability": "view",
      "type": "function"
    },
    {
      "inputs": [
        {
          "internalType": "bytes",
          "name": "_performData",
          "type": "bytes"
        }
      ],
      "name": "performUpkeep",
      "outputs": [],
      "stateMutability": "nonpayable",
      "type": "function"
    },
    {
      "inputs": [
        {
          "internalType": "bytes",
          "name": "_performData",
          "type": "bytes"
        }
      ],
      "name": "performUpkeepWithSwapData",
      "outputs": [],
      "stateMutability": "nonpayable",
      "type": "function"
    },
    {
      "inputs": [],
      "name": "positionStorage",
      "outputs": [
        {
          "internalType": "address",
          "name": "",
          "type": "address"
        }
      ],
      "stateMutability": "view",
      "type": "function"
    },
    {
      "inputs": [
        {
          "internalType": "uint256",
          "name": "_batchSize",
          "type": "uint256"
        }
      ],
      "name": "setBatchSize",
      "outputs": [],
      "stateMutability": "nonpayable",
      "type": "function"
    },
    {
      "inputs": [
        {
          "internalType": "address",
          "name": "_factory",
          "type": "address"
        }
      ],
      "name": "setFactory",
      "outputs": [],
      "stateMutability": "nonpayable",
      "type": "function"
    },
    {
      "inputs": [
        {
          "internalType": "address",
          "name": "_keeper",
          "type": "address"
        }
      ],
      "name": "setKeeper",
      "outputs": [],
      "stateMutability": "nonpayable",
      "type": "function"
    },
    {
      "inputs": [
        {
          "internalType": "address",
          "name": "_manager",
          "type": "address"
        }
      ],
      "name": "setManager",
      "outputs": [],
      "stateMutability": "nonpayable",
      "type": "function"
    },
    {
      "inputs": [
        {
          "internalType": "address",
          "name": "_newMetaAggregator",
          "type": "address"
        }
      ],
      "name": "setMetaAggregator",
      "outputs": [],
      "stateMutability": "nonpayable",
      "type": "function"
    },
    {
      "inputs": [
        {
          "internalType": "uint256",
          "name": "_monitorSize",
          "type": "uint256"
        }
      ],
      "name": "setMonitorSize",
      "outputs": [],
      "stateMutability": "nonpayable",
      "type": "function"
    },
    {
      "inputs": [
        {
          "internalType": "uint256",
          "name": "_startIndex",
          "type": "uint256"
        }
      ],
      "name": "setStartIndex",
      "outputs": [],
      "stateMutability": "nonpayable",
      "type": "function"
    },
    {
      "inputs": [],
      "name": "startIndex",
      "outputs": [
        {
          "internalType": "uint256",
          "name": "",
          "type": "uint256"
        }
      ],
      "stateMutability": "view",
      "type": "function"
    }
  ],
  "bytecode": "0x60806040523480156200001157600080fd5b5060405162001f0238038062001f0283398101604081905262000034916200015a565b60008054336001600160a01b0319918216179091556001805482166001600160a01b03888116919091179091556002805490921690861690811790915560408051638cd4741560e01b81529051638cd4741591600480820192602092909190829003018186803b158015620000a857600080fd5b505afa158015620000bd573d6000803e3d6000fd5b505050506040513d601f19601f82011682018060405250810190620000e3919062000135565b600380546001600160a01b0319166001600160a01b039290921691909117905560059290925560065560075550620001ad9050565b80516001600160a01b03811681146200013057600080fd5b919050565b6000602082840312156200014857600080fd5b620001538262000118565b9392505050565b600080600080600060a086880312156200017357600080fd5b6200017e8662000118565b94506200018e6020870162000118565b6040870151606088015160809098015196999198509695945092505050565b611d4580620001bd6000396000f3fe608060405234801561001057600080fd5b50600436106101375760003560e01c80638cd47415116100b8578063cee6031f1161007c578063cee6031f14610280578063cf5303cf14610293578063d0ebdbe71461029b578063db3a0e2f146102ae578063e761f9dc146102c1578063f4daaba1146102d457600080fd5b80638cd47415146102215780639bb0dafa14610234578063aced166114610247578063ae7db4511461025a578063c45a01551461026d57600080fd5b80635bb47808116100ff5780635bb47808146101be5780635ff7d9d5146101d15780636e04ff0d146101e4578063748747e614610205578063860965c61461021857600080fd5b80633e0e828b1461013c5780633e7efed5146101585780634585e33b14610183578063481c6a7514610198578063576f35e3146101ab575b600080fd5b61014560075481565b6040519081526020015b60405180910390f35b60045461016b906001600160a01b031681565b6040516001600160a01b03909116815260200161014f565b61019661019136600461187d565b6102dd565b005b60005461016b906001600160a01b031681565b6101966101b93660046119ac565b6103d9565b6101966101cc366004611657565b610478565b6101966101df3660046119ac565b61057f565b6101f76101f236600461187d565b6105e1565b60405161014f929190611af6565b610196610213366004611657565b61087f565b61014560065481565b60035461016b906001600160a01b031681565b6101966102423660046119ac565b6108fa565b60015461016b906001600160a01b031681565b610196610268366004611811565b61098d565b60025461016b906001600160a01b031681565b61019661028e366004611657565b61099e565b6101f7610a19565b6101966102a9366004611657565b610cec565b6101966102bc36600461187d565b610d67565b6101966102cf366004611698565b610e4c565b61014560055481565b60005a90506000806102f184860186611799565b9150915060005b818110156103885761037683828151811061031557610315611ccb565b602002602001015160006001600160401b0381111561033657610336611ce1565b6040519080825280601f01601f191660200182016040528015610360576020820181803683370190505b50604080516000815260208101909152306110ef565b8061038081611c9a565b9150506102f8565b507fd1d8c94a101352389a2fadcdc79eb2ec660d64769f14a1e89c50c6d22225ce8b8186865a6103b89088611c53565b3a6040516103ca959493929190611b91565b60405180910390a15050505050565b6000546001600160a01b0316331461040b5760405163a59d7f4d60e01b81523360048201526024015b60405180910390fd5b60065481111561043c57600654604051637150bba160e01b8152610402918391600401918252602082015260400190565b60058190556040518181527fe7589087ca18f0ad76e3a457747806de5e2432f4285837617205c045ba950fb6906020015b60405180910390a150565b6000546001600160a01b031633146104a55760405163a59d7f4d60e01b8152336004820152602401610402565b600280546001600160a01b0319166001600160a01b03831690811790915560408051638cd4741560e01b81529051638cd4741591600480820192602092909190829003018186803b1580156104f957600080fd5b505afa15801561050d573d6000803e3d6000fd5b505050506040513d601f19601f82011682018060405250810190610531919061167b565b600380546001600160a01b0319166001600160a01b0392831617905560405190821681527f1c893ef9379093af30f458b9e74d2aba13c499660b68dec5e29af7b199c188b99060200161046d565b6000546001600160a01b031633146105ac5760405163a59d7f4d60e01b8152336004820152602401610402565b60078190556040518181527ffb0b2459ef0b436ea50d577db242217edfa1e86a7404361aaae9b6bb406b7e2f9060200161046d565b6003546005546000916060916001600160a01b039091169083906001600160401b0381111561061257610612611ce1565b60405190808252806020026020018201604052801561063b578160200160208202803683370190505b5090506000806000846001600160a01b031663539826a66040518163ffffffff1660e01b815260040160206040518083038186803b15801561067c57600080fd5b505afa158015610690573d6000803e3d6000fd5b505050506040513d601f19601f820116820180604052508101906106b491906117f8565b9050806007541015610844576007545b818110156108425760006001600160a01b038716632895a2b36106e8846001611c3b565b6040518263ffffffff1660e01b815260040161070691815260200190565b60206040518083038186803b15801561071e57600080fd5b505afa158015610732573d6000803e3d6000fd5b505050506040513d601f19601f8201168201806040525081019061075691906117f8565b604051630c3742a160e31b8152600481018290529091506001600160a01b038816906361ba15089060240160206040518083038186803b15801561079957600080fd5b505afa1580156107ad573d6000803e3d6000fd5b505050506040513d601f19601f820116820180604052508101906107d191906117dd565b1561080257808686815181106107e9576107e9611ccb565b6020908102919091010152846107fe81611c9a565b9550505b8361080c81611c9a565b94505060065484141561081f5750610842565b60055485141561082f5750610842565b508061083a81611c9a565b9150506106c4565b505b821580159750610873578383604051602001610861929190611aae565b60405160208183030381529060405295505b50505050509250929050565b6000546001600160a01b031633146108ac5760405163a59d7f4d60e01b8152336004820152602401610402565b600180546001600160a01b0319166001600160a01b0383169081179091556040519081527fefb5cfa1a8690c124332ab93324539c5c9c4be03f28aeb8be86f2d8a0c9fb99b9060200161046d565b6000546001600160a01b031633146109275760405163a59d7f4d60e01b8152336004820152602401610402565b6005548110156109585760055460405163102a6c2760e01b8152610402918391600401918252602082015260400190565b60068190556040518181527f8f7e75c44358384d270505281bef6ad973e53b3785b6d722c4f279f1521d15609060200161046d565b610999838383336110ef565b505050565b6000546001600160a01b031633146109cb5760405163a59d7f4d60e01b8152336004820152602401610402565b600480546001600160a01b0319166001600160a01b0383169081179091556040519081527ffdeec6d79a6bee7503b67f2a1c0b6cc5bcec78247f137ca75d1dff8453b746d79060200161046d565b6003546005546000916060916001600160a01b039091169083906001600160401b03811115610a4a57610a4a611ce1565b604051908082528060200260200182016040528015610a73578160200160208202803683370190505b5090506000806000846001600160a01b031663539826a66040518163ffffffff1660e01b815260040160206040518083038186803b158015610ab457600080fd5b505afa158015610ac8573d6000803e3d6000fd5b505050506040513d601f19601f82011682018060405250810190610aec91906117f8565b9050806007541015610c7c576007545b81811015610c7a5760006001600160a01b038716632895a2b3610b20846001611c3b565b6040518263ffffffff1660e01b8152600401610b3e91815260200190565b60206040518083038186803b158015610b5657600080fd5b505afa158015610b6a573d6000803e3d6000fd5b505050506040513d601f19601f82011682018060405250810190610b8e91906117f8565b604051630c3742a160e31b8152600481018290529091506001600160a01b038816906361ba15089060240160206040518083038186803b158015610bd157600080fd5b505afa158015610be5573d6000803e3d6000fd5b505050506040513d601f19601f82011682018060405250810190610c0991906117dd565b15610c3a5780868681518110610c2157610c21611ccb565b602090810291909101015284610c3681611c9a565b9550505b83610c4481611c9a565b945050600654841415610c575750610c7a565b600554851415610c675750610c7a565b5080610c7281611c9a565b915050610afc565b505b821580159750610ce3578383604051602001610c99929190611aae565b60408051601f1981840301815290829052610cb691602401611b19565b60408051601f198184030181529190526020810180516001600160e01b0316634585e33b60e01b17905295505b50505050509091565b6000546001600160a01b03163314610d195760405163a59d7f4d60e01b8152336004820152602401610402565b600080546001600160a01b0319166001600160a01b0383169081179091556040519081527f54a6385aa0292b04e1ef8513253c17d1863f7cdfc87029d77fd55cc4c2e717e29060200161046d565b60005a90506000808080610d7d8688018861170a565b935093509350935060005b81811015610df957610de7858281518110610da557610da5611ccb565b6020026020010151858381518110610dbf57610dbf611ccb565b6020026020010151858481518110610dd957610dd9611ccb565b6020026020010151306110ef565b80610df181611c9a565b915050610d88565b507fd1d8c94a101352389a2fadcdc79eb2ec660d64769f14a1e89c50c6d22225ce8b8188885a610e29908a611c53565b3a604051610e3b959493929190611b91565b60405180910390a150505050505050565b6040516370a0823160e01b81523060048201526000906001600160a01b038716906370a082319060240160206040518083038186803b158015610e8e57600080fd5b505afa158015610ea2573d6000803e3d6000fd5b505050506040513d601f19601f82011682018060405250810190610ec691906117f8565b6004549091506000906001600160a01b03161580610ee2575082155b1561101757600254604080516303e10eaf60e51b815290516001600160a01b03909216916000918391637c21d5e091600480820192602092909190829003018186803b158015610f3157600080fd5b505afa158015610f45573d6000803e3d6000fd5b505050506040513d601f19601f82011682018060405250810190610f69919061167b565b9050610f768982866111f9565b604051630ceffb5960e31b8152600060048201526001600160a01b038a8116602483015289811660448301526064820189905230608483015282169063677fdac89060a4016040805180830381600087803b158015610fd457600080fd5b505af1158015610fe8573d6000803e3d6000fd5b505050506040513d601f19601f8201168201806040525081019061100c91906119c5565b5092506110ba915050565b6004546001600160a01b031661102e8882856111f9565b604051631fa196a960e21b81526001600160a01b03821690637e865aa490611064908b908b908b9030908c908c90600401611a66565b602060405180830381600087803b15801561107e57600080fd5b505af1158015611092573d6000803e3d6000fd5b505050506040513d601f19601f820116820180604052508101906110b691906117f8565b9150505b848110156110db5760405163bb2875c360e01b815260040160405180910390fd5b6110e68633836111f9565b50505050505050565b60035460405163957d1fe160e01b8152600481018690526000916001600160a01b03169063957d1fe1906024016103406040518083038186803b15801561113557600080fd5b505afa158015611149573d6000803e3d6000fd5b505050506040513d601f19601f8201168201806040525081019061116d91906118be565b604080820151815160808101835283518152602081018890528083018790526001600160a01b0386811660608301529251633ee8320560e21b815293945091169163fba0c814916111c091600401611b2c565b600060405180830381600087803b1580156111da57600080fd5b505af11580156111ee573d6000803e3d6000fd5b505050505050505050565b604080516001600160a01b038481166024830152604480830185905283518084039091018152606490920183526020820180516001600160e01b031663a9059cbb60e01b17905291516000928392908716916112559190611a4a565b6000604051808303816000865af19150503d8060008114611292576040519150601f19603f3d011682016040523d82523d6000602084013e611297565b606091505b50915091508180156112c15750805115806112c15750808060200190518101906112c191906117dd565b6113235760405162461bcd60e51b815260206004820152602d60248201527f5472616e7366657248656c7065723a3a736166655472616e736665723a20747260448201526c185b9cd9995c8819985a5b1959609a1b6064820152608401610402565b5050505050565b805161133581611cf7565b919050565b600082601f83011261134b57600080fd5b8135602061136061135b83611c18565b611be8565b80838252828201915082860187848660051b890101111561138057600080fd5b60005b8581101561139f57813584529284019290840190600101611383565b5090979650505050505050565b600082601f8301126113bd57600080fd5b813560206113cd61135b83611c18565b80838252828201915082860187848660051b89010111156113ed57600080fd5b6000805b8681101561142f5782356001600160401b0381111561140e578283fd5b61141c8b88838d0101611495565b86525093850193918501916001016113f1565b509198975050505050505050565b8051801515811461133557600080fd5b60008083601f84011261145f57600080fd5b5081356001600160401b0381111561147657600080fd5b60208301915083602082850101111561148e57600080fd5b9250929050565b600082601f8301126114a657600080fd5b81356001600160401b038111156114bf576114bf611ce1565b6114d2601f8201601f1916602001611be8565b8181528460208386010111156114e757600080fd5b816020850160208301376000918101602001919091529392505050565b600060a0828403121561151657600080fd5b60405160a081018181106001600160401b038211171561153857611538611ce1565b8060405250809150825161154b81611cf7565b80825250602083015160208201526040830151604082015260608301516060820152608083015160808201525092915050565b60006040828403121561159057600080fd5b604051604081018181106001600160401b03821117156115b2576115b2611ce1565b806040525080915082516115c581611cf7565b8152602092830151920191909152919050565b6000608082840312156115ea57600080fd5b604051608081018181106001600160401b038211171561160c5761160c611ce1565b60405290508061161b8361143d565b81526116296020840161143d565b602082015261163a6040840161143d565b604082015261164b6060840161143d565b60608201525092915050565b60006020828403121561166957600080fd5b813561167481611cf7565b9392505050565b60006020828403121561168d57600080fd5b815161167481611cf7565b6000806000806000608086880312156116b057600080fd5b85356116bb81611cf7565b945060208601356116cb81611cf7565b93506040860135925060608601356001600160401b038111156116ed57600080fd5b6116f98882890161144d565b969995985093965092949392505050565b6000806000806080858703121561172057600080fd5b84356001600160401b038082111561173757600080fd5b6117438883890161133a565b9550602087013591508082111561175957600080fd5b611765888389016113ac565b9450604087013591508082111561177b57600080fd5b50611788878288016113ac565b949793965093946060013593505050565b600080604083850312156117ac57600080fd5b82356001600160401b038111156117c257600080fd5b6117ce8582860161133a565b95602094909401359450505050565b6000602082840312156117ef57600080fd5b6116748261143d565b60006020828403121561180a57600080fd5b5051919050565b60008060006060848603121561182657600080fd5b8335925060208401356001600160401b038082111561184457600080fd5b61185087838801611495565b9350604086013591508082111561186657600080fd5b5061187386828701611495565b9150509250925092565b6000806020838503121561189057600080fd5b82356001600160401b038111156118a657600080fd5b6118b28582860161144d565b90969095509350505050565b600061034082840312156118d157600080fd5b6118d9611bbf565b825181526118e96020840161132a565b60208201526118fa6040840161132a565b604082015261190c8460608501611504565b60608201526101006119208582860161157e565b608083015261014061193486828701611504565b60a08401526101e085015160c084015261020085015160e08401526102208501518284015261024085015161012084015261026085015181840152505061197f8461028085016115d8565b610160820152611992610300840161132a565b61018082015261032092909201516101a083015250919050565b6000602082840312156119be57600080fd5b5035919050565b600080604083850312156119d857600080fd5b8251915060208301516119ea81611cf7565b809150509250929050565b81835281816020850137506000828201602090810191909152601f909101601f19169091010190565b60008151808452611a36816020860160208601611c6a565b601f01601f19169290920160200192915050565b60008251611a5c818460208701611c6a565b9190910192915050565b6001600160a01b0387811682528681166020830152604082018690528416606082015260a060808201819052600090611aa290830184866119f5565b98975050505050505050565b604080825283519082018190526000906020906060840190828701845b82811015611ae757815184529284019290840190600101611acb565b50505092019290925292915050565b8215158152604060208201526000611b116040830184611a1e565b949350505050565b6020815260006116746020830184611a1e565b60208152815160208201526000602083015160806040840152611b5260a0840182611a1e565b90506040840151601f19848303016060850152611b6f8282611a1e565b606095909501516001600160a01b031660809490940193909352509192915050565b858152608060208201526000611bab6080830186886119f5565b604083019490945250606001529392505050565b6040516101c081016001600160401b0381118282101715611be257611be2611ce1565b60405290565b604051601f8201601f191681016001600160401b0381118282101715611c1057611c10611ce1565b604052919050565b60006001600160401b03821115611c3157611c31611ce1565b5060051b60200190565b60008219821115611c4e57611c4e611cb5565b500190565b600082821015611c6557611c65611cb5565b500390565b60005b83811015611c85578181015183820152602001611c6d565b83811115611c94576000848401525b50505050565b6000600019821415611cae57611cae611cb5565b5060010190565b634e487b7160e01b600052601160045260246000fd5b634e487b7160e01b600052603260045260246000fd5b634e487b7160e01b600052604160045260246000fd5b6001600160a01b0381168114611d0c57600080fd5b5056fea26469706673582212202d18614be8a0755cf7d91eb714e9640fa2f01e52b9c1b6aca4eeac1f78c6c43c64736f6c63430008070033",
  "linkReferences": {},
  "deployedLinkReferences": {}
}