{
  "_format": "hh-sol-artifact-1",
  "contractName": "Monitor",
  "sourceName": "contracts/Monitor.sol",
  "abi": [
    {
      "inputs": [
        {
          "internalType": "address",
          "name": "_keeper",
          "type": "address"
        },
        {
          "internalType": "address",
          "name": "_factory",
          "type": "address"
        },
        {
          "internalType": "uint256",
          "name": "_batchSize",
          "type": "uint256"
        },
        {
          "internalType": "uint256",
          "name": "_monitorSize",
          "type": "uint256"
        },
        {
          "internalType": "uint256",
          "name": "_startIndex",
          "type": "uint256"
        }
      ],
      "stateMutability": "nonpayable",
      "type": "constructor"
    },
    {
      "inputs": [
        {
          "internalType": "address",
          "name": "sender",
          "type": "address"
        }
      ],
      "name": "Forbidden",
      "type": "error"
    },
    {
      "inputs": [],
      "name": "InsufficientOutput",
      "type": "error"
    },
    {
      "inputs": [
        {
          "internalType": "uint256",
          "name": "value",
          "type": "uint256"
        },
        {
          "internalType": "uint256",
          "name": "max",
          "type": "uint256"
        }
      ],
      "name": "TooHighValue",
      "type": "error"
    },
    {
      "inputs": [
        {
          "internalType": "uint256",
          "name": "value",
          "type": "uint256"
        },
        {
          "internalType": "uint256",
          "name": "min",
          "type": "uint256"
        }
      ],
      "name": "TooLowValue",
      "type": "error"
    },
    {
      "anonymous": false,
      "inputs": [
        {
          "indexed": false,
          "internalType": "uint256",
          "name": "count",
          "type": "uint256"
        },
        {
          "indexed": false,
          "internalType": "bytes",
          "name": "performData",
          "type": "bytes"
        },
        {
          "indexed": false,
          "internalType": "uint256",
          "name": "usedGas",
          "type": "uint256"
        },
        {
          "indexed": false,
          "internalType": "uint256",
          "name": "gasPrice",
          "type": "uint256"
        }
      ],
      "name": "ProcessBatch",
      "type": "event"
    },
    {
      "anonymous": false,
      "inputs": [
        {
          "indexed": false,
          "internalType": "uint256",
          "name": "batchSize",
          "type": "uint256"
        }
      ],
      "name": "SetBatchSize",
      "type": "event"
    },
    {
      "anonymous": false,
      "inputs": [
        {
          "indexed": false,
          "internalType": "address",
          "name": "factory",
          "type": "address"
        }
      ],
      "name": "SetFactory",
      "type": "event"
    },
    {
      "anonymous": false,
      "inputs": [
        {
          "indexed": false,
          "internalType": "address",
          "name": "keeper",
          "type": "address"
        }
      ],
      "name": "SetKeeper",
      "type": "event"
    },
    {
      "anonymous": false,
      "inputs": [
        {
          "indexed": false,
          "internalType": "address",
          "name": "manager",
          "type": "address"
        }
      ],
      "name": "SetManager",
      "type": "event"
    },
    {
      "anonymous": false,
      "inputs": [
        {
          "indexed": false,
          "internalType": "address",
          "name": "metaAggregator",
          "type": "address"
        }
      ],
      "name": "SetMetaAggregator",
      "type": "event"
    },
    {
      "anonymous": false,
      "inputs": [
        {
          "indexed": false,
          "internalType": "uint256",
          "name": "monitorSize",
          "type": "uint256"
        }
      ],
      "name": "SetMonitorSize",
      "type": "event"
    },
    {
      "anonymous": false,
      "inputs": [
        {
          "indexed": false,
          "internalType": "uint256",
          "name": "startIndex",
          "type": "uint256"
        }
      ],
      "name": "SetStartIndex",
      "type": "event"
    },
    {
      "inputs": [],
      "name": "batchSize",
      "outputs": [
        {
          "internalType": "uint256",
          "name": "",
          "type": "uint256"
        }
      ],
      "stateMutability": "view",
      "type": "function"
    },
    {
      "inputs": [
        {
          "internalType": "bytes",
          "name": "",
          "type": "bytes"
        }
      ],
      "name": "checkUpkeep",
      "outputs": [
        {
          "internalType": "bool",
          "name": "upkeepNeeded",
          "type": "bool"
        },
        {
          "internalType": "bytes",
          "name": "performData",
          "type": "bytes"
        }
      ],
      "stateMutability": "view",
      "type": "function"
    },
    {
      "inputs": [],
      "name": "checker",
      "outputs": [
        {
          "internalType": "bool",
          "name": "canExec",
          "type": "bool"
        },
        {
          "internalType": "bytes",
          "name": "execPayload",
          "type": "bytes"
        }
      ],
      "stateMutability": "view",
      "type": "function"
    },
    {
      "inputs": [
        {
          "internalType": "bytes32",
          "name": "_positionKey",
          "type": "bytes32"
        },
        {
          "internalType": "bytes",
          "name": "_data0",
          "type": "bytes"
        },
        {
          "internalType": "bytes",
          "name": "_data1",
          "type": "bytes"
        }
      ],
      "name": "close",
      "outputs": [],
      "stateMutability": "nonpayable",
      "type": "function"
    },
    {
      "inputs": [
        {
          "internalType": "address",
          "name": "_tokenIn",
          "type": "address"
        },
        {
          "internalType": "address",
          "name": "_tokenOut",
          "type": "address"
        },
        {
          "internalType": "uint256",
          "name": "_minAmountOut",
          "type": "uint256"
        },
        {
          "internalType": "bytes",
          "name": "_data",
          "type": "bytes"
        }
      ],
      "name": "closeCallback",
      "outputs": [],
      "stateMutability": "nonpayable",
      "type": "function"
    },
    {
      "inputs": [],
      "name": "factory",
      "outputs": [
        {
          "internalType": "address",
          "name": "",
          "type": "address"
        }
      ],
      "stateMutability": "view",
      "type": "function"
    },
    {
      "inputs": [],
      "name": "keeper",
      "outputs": [
        {
          "internalType": "address",
          "name": "",
          "type": "address"
        }
      ],
      "stateMutability": "view",
      "type": "function"
    },
    {
      "inputs": [],
      "name": "manager",
      "outputs": [
        {
          "internalType": "address",
          "name": "",
          "type": "address"
        }
      ],
      "stateMutability": "view",
      "type": "function"
    },
    {
      "inputs": [],
      "name": "metaAggregator",
      "outputs": [
        {
          "internalType": "address",
          "name": "",
          "type": "address"
        }
      ],
      "stateMutability": "view",
      "type": "function"
    },
    {
      "inputs": [],
      "name": "monitorSize",
      "outputs": [
        {
          "internalType": "uint256",
          "name": "",
          "type": "uint256"
        }
      ],
      "stateMutability": "view",
      "type": "function"
    },
    {
      "inputs": [
        {
          "internalType": "bytes",
          "name": "_performData",
          "type": "bytes"
        }
      ],
      "name": "performUpkeep",
      "outputs": [],
      "stateMutability": "nonpayable",
      "type": "function"
    },
    {
      "inputs": [],
      "name": "positionStorage",
      "outputs": [
        {
          "internalType": "address",
          "name": "",
          "type": "address"
        }
      ],
      "stateMutability": "view",
      "type": "function"
    },
    {
      "inputs": [
        {
          "internalType": "uint256",
          "name": "_batchSize",
          "type": "uint256"
        }
      ],
      "name": "setBatchSize",
      "outputs": [],
      "stateMutability": "nonpayable",
      "type": "function"
    },
    {
      "inputs": [
        {
          "internalType": "address",
          "name": "_factory",
          "type": "address"
        }
      ],
      "name": "setFactory",
      "outputs": [],
      "stateMutability": "nonpayable",
      "type": "function"
    },
    {
      "inputs": [
        {
          "internalType": "address",
          "name": "_keeper",
          "type": "address"
        }
      ],
      "name": "setKeeper",
      "outputs": [],
      "stateMutability": "nonpayable",
      "type": "function"
    },
    {
      "inputs": [
        {
          "internalType": "address",
          "name": "_manager",
          "type": "address"
        }
      ],
      "name": "setManager",
      "outputs": [],
      "stateMutability": "nonpayable",
      "type": "function"
    },
    {
      "inputs": [
        {
          "internalType": "address",
          "name": "_newMetaAggregator",
          "type": "address"
        }
      ],
      "name": "setMetaAggregator",
      "outputs": [],
      "stateMutability": "nonpayable",
      "type": "function"
    },
    {
      "inputs": [
        {
          "internalType": "uint256",
          "name": "_monitorSize",
          "type": "uint256"
        }
      ],
      "name": "setMonitorSize",
      "outputs": [],
      "stateMutability": "nonpayable",
      "type": "function"
    },
    {
      "inputs": [
        {
          "internalType": "uint256",
          "name": "_startIndex",
          "type": "uint256"
        }
      ],
      "name": "setStartIndex",
      "outputs": [],
      "stateMutability": "nonpayable",
      "type": "function"
    },
    {
      "inputs": [],
      "name": "startIndex",
      "outputs": [
        {
          "internalType": "uint256",
          "name": "",
          "type": "uint256"
        }
      ],
      "stateMutability": "view",
      "type": "function"
    }
  ],
  "bytecode": "0x60806040523480156200001157600080fd5b5060405162001cb838038062001cb883398101604081905262000034916200015a565b60008054336001600160a01b0319918216179091556001805482166001600160a01b03888116919091179091556002805490921690861690811790915560408051638cd4741560e01b81529051638cd4741591600480820192602092909190829003018186803b158015620000a857600080fd5b505afa158015620000bd573d6000803e3d6000fd5b505050506040513d601f19601f82011682018060405250810190620000e3919062000135565b600380546001600160a01b0319166001600160a01b039290921691909117905560059290925560065560075550620001ad9050565b80516001600160a01b03811681146200013057600080fd5b919050565b6000602082840312156200014857600080fd5b620001538262000118565b9392505050565b600080600080600060a086880312156200017357600080fd5b6200017e8662000118565b94506200018e6020870162000118565b6040870151606088015160809098015196999198509695945092505050565b611afb80620001bd6000396000f3fe608060405234801561001057600080fd5b506004361061012c5760003560e01c80638cd47415116100ad578063cee6031f11610071578063cee6031f14610275578063cf5303cf14610288578063d0ebdbe714610290578063e761f9dc146102a3578063f4daaba1146102b657600080fd5b80638cd47415146102165780639bb0dafa14610229578063aced16611461023c578063ae7db4511461024f578063c45a01551461026257600080fd5b80635bb47808116100f45780635bb47808146101b35780635ff7d9d5146101c65780636e04ff0d146101d9578063748747e6146101fa578063860965c61461020d57600080fd5b80633e0e828b146101315780633e7efed51461014d5780634585e33b14610178578063481c6a751461018d578063576f35e3146101a0575b600080fd5b61013a60075481565b6040519081526020015b60405180910390f35b600454610160906001600160a01b031681565b6040516001600160a01b039091168152602001610144565b61018b610186366004611656565b6102bf565b005b600054610160906001600160a01b031681565b61018b6101ae366004611785565b6103bb565b61018b6101c1366004611451565b61045a565b61018b6101d4366004611785565b610561565b6101ec6101e7366004611656565b6105c3565b6040516101449291906118cf565b61018b610208366004611451565b610861565b61013a60065481565b600354610160906001600160a01b031681565b61018b610237366004611785565b6108dc565b600154610160906001600160a01b031681565b61018b61025d3660046115ea565b61096f565b600254610160906001600160a01b031681565b61018b610283366004611451565b610980565b6101ec6109fb565b61018b61029e366004611451565b610cce565b61018b6102b1366004611492565b610d49565b61013a60055481565b60005a90506000806102d384860186611504565b9150915060005b8181101561036a576103588382815181106102f7576102f7611a81565b602002602001015160006001600160401b0381111561031857610318611a97565b6040519080825280601f01601f191660200182016040528015610342576020820181803683370190505b5060408051600081526020810190915230610fec565b8061036281611a50565b9150506102da565b507fd1d8c94a101352389a2fadcdc79eb2ec660d64769f14a1e89c50c6d22225ce8b8186865a61039a9088611a09565b3a6040516103ac95949392919061196a565b60405180910390a15050505050565b6000546001600160a01b031633146103ed5760405163a59d7f4d60e01b81523360048201526024015b60405180910390fd5b60065481111561041e57600654604051637150bba160e01b81526103e4918391600401918252602082015260400190565b60058190556040518181527fe7589087ca18f0ad76e3a457747806de5e2432f4285837617205c045ba950fb6906020015b60405180910390a150565b6000546001600160a01b031633146104875760405163a59d7f4d60e01b81523360048201526024016103e4565b600280546001600160a01b0319166001600160a01b03831690811790915560408051638cd4741560e01b81529051638cd4741591600480820192602092909190829003018186803b1580156104db57600080fd5b505afa1580156104ef573d6000803e3d6000fd5b505050506040513d601f19601f820116820180604052508101906105139190611475565b600380546001600160a01b0319166001600160a01b0392831617905560405190821681527f1c893ef9379093af30f458b9e74d2aba13c499660b68dec5e29af7b199c188b99060200161044f565b6000546001600160a01b0316331461058e5760405163a59d7f4d60e01b81523360048201526024016103e4565b60078190556040518181527ffb0b2459ef0b436ea50d577db242217edfa1e86a7404361aaae9b6bb406b7e2f9060200161044f565b6003546005546000916060916001600160a01b039091169083906001600160401b038111156105f4576105f4611a97565b60405190808252806020026020018201604052801561061d578160200160208202803683370190505b5090506000806000846001600160a01b031663539826a66040518163ffffffff1660e01b815260040160206040518083038186803b15801561065e57600080fd5b505afa158015610672573d6000803e3d6000fd5b505050506040513d601f19601f8201168201806040525081019061069691906115d1565b9050806007541015610826576007545b818110156108245760006001600160a01b038716632895a2b36106ca8460016119f1565b6040518263ffffffff1660e01b81526004016106e891815260200190565b60206040518083038186803b15801561070057600080fd5b505afa158015610714573d6000803e3d6000fd5b505050506040513d601f19601f8201168201806040525081019061073891906115d1565b604051630c3742a160e31b8152600481018290529091506001600160a01b038816906361ba15089060240160206040518083038186803b15801561077b57600080fd5b505afa15801561078f573d6000803e3d6000fd5b505050506040513d601f19601f820116820180604052508101906107b391906115b6565b156107e457808686815181106107cb576107cb611a81565b6020908102919091010152846107e081611a50565b9550505b836107ee81611a50565b9450506006548414156108015750610824565b6005548514156108115750610824565b508061081c81611a50565b9150506106a6565b505b821580159750610855578383604051602001610843929190611887565b60405160208183030381529060405295505b50505050509250929050565b6000546001600160a01b0316331461088e5760405163a59d7f4d60e01b81523360048201526024016103e4565b600180546001600160a01b0319166001600160a01b0383169081179091556040519081527fefb5cfa1a8690c124332ab93324539c5c9c4be03f28aeb8be86f2d8a0c9fb99b9060200161044f565b6000546001600160a01b031633146109095760405163a59d7f4d60e01b81523360048201526024016103e4565b60055481101561093a5760055460405163102a6c2760e01b81526103e4918391600401918252602082015260400190565b60068190556040518181527f8f7e75c44358384d270505281bef6ad973e53b3785b6d722c4f279f1521d15609060200161044f565b61097b83838333610fec565b505050565b6000546001600160a01b031633146109ad5760405163a59d7f4d60e01b81523360048201526024016103e4565b600480546001600160a01b0319166001600160a01b0383169081179091556040519081527ffdeec6d79a6bee7503b67f2a1c0b6cc5bcec78247f137ca75d1dff8453b746d79060200161044f565b6003546005546000916060916001600160a01b039091169083906001600160401b03811115610a2c57610a2c611a97565b604051908082528060200260200182016040528015610a55578160200160208202803683370190505b5090506000806000846001600160a01b031663539826a66040518163ffffffff1660e01b815260040160206040518083038186803b158015610a9657600080fd5b505afa158015610aaa573d6000803e3d6000fd5b505050506040513d601f19601f82011682018060405250810190610ace91906115d1565b9050806007541015610c5e576007545b81811015610c5c5760006001600160a01b038716632895a2b3610b028460016119f1565b6040518263ffffffff1660e01b8152600401610b2091815260200190565b60206040518083038186803b158015610b3857600080fd5b505afa158015610b4c573d6000803e3d6000fd5b505050506040513d601f19601f82011682018060405250810190610b7091906115d1565b604051630c3742a160e31b8152600481018290529091506001600160a01b038816906361ba15089060240160206040518083038186803b158015610bb357600080fd5b505afa158015610bc7573d6000803e3d6000fd5b505050506040513d601f19601f82011682018060405250810190610beb91906115b6565b15610c1c5780868681518110610c0357610c03611a81565b602090810291909101015284610c1881611a50565b9550505b83610c2681611a50565b945050600654841415610c395750610c5c565b600554851415610c495750610c5c565b5080610c5481611a50565b915050610ade565b505b821580159750610cc5578383604051602001610c7b929190611887565b60408051601f1981840301815290829052610c98916024016118f2565b60408051601f198184030181529190526020810180516001600160e01b0316634585e33b60e01b17905295505b50505050509091565b6000546001600160a01b03163314610cfb5760405163a59d7f4d60e01b81523360048201526024016103e4565b600080546001600160a01b0319166001600160a01b0383169081179091556040519081527f54a6385aa0292b04e1ef8513253c17d1863f7cdfc87029d77fd55cc4c2e717e29060200161044f565b6040516370a0823160e01b81523060048201526000906001600160a01b038716906370a082319060240160206040518083038186803b158015610d8b57600080fd5b505afa158015610d9f573d6000803e3d6000fd5b505050506040513d601f19601f82011682018060405250810190610dc391906115d1565b6004549091506000906001600160a01b03161580610ddf575082155b15610f1457600254604080516303e10eaf60e51b815290516001600160a01b03909216916000918391637c21d5e091600480820192602092909190829003018186803b158015610e2e57600080fd5b505afa158015610e42573d6000803e3d6000fd5b505050506040513d601f19601f82011682018060405250810190610e669190611475565b9050610e738982866110f6565b604051630ceffb5960e31b8152600060048201526001600160a01b038a8116602483015289811660448301526064820189905230608483015282169063677fdac89060a4016040805180830381600087803b158015610ed157600080fd5b505af1158015610ee5573d6000803e3d6000fd5b505050506040513d601f19601f82011682018060405250810190610f09919061179e565b509250610fb7915050565b6004546001600160a01b0316610f2b8882856110f6565b604051631fa196a960e21b81526001600160a01b03821690637e865aa490610f61908b908b908b9030908c908c9060040161183f565b602060405180830381600087803b158015610f7b57600080fd5b505af1158015610f8f573d6000803e3d6000fd5b505050506040513d601f19601f82011682018060405250810190610fb391906115d1565b9150505b84811015610fd85760405163bb2875c360e01b815260040160405180910390fd5b610fe38633836110f6565b50505050505050565b60035460405163957d1fe160e01b8152600481018690526000916001600160a01b03169063957d1fe1906024016103406040518083038186803b15801561103257600080fd5b505afa158015611046573d6000803e3d6000fd5b505050506040513d601f19601f8201168201806040525081019061106a9190611697565b604080820151815160808101835283518152602081018890528083018790526001600160a01b0386811660608301529251633ee8320560e21b815293945091169163fba0c814916110bd91600401611905565b600060405180830381600087803b1580156110d757600080fd5b505af11580156110eb573d6000803e3d6000fd5b505050505050505050565b604080516001600160a01b038481166024830152604480830185905283518084039091018152606490920183526020820180516001600160e01b031663a9059cbb60e01b17905291516000928392908716916111529190611823565b6000604051808303816000865af19150503d806000811461118f576040519150601f19603f3d011682016040523d82523d6000602084013e611194565b606091505b50915091508180156111be5750805115806111be5750808060200190518101906111be91906115b6565b6112205760405162461bcd60e51b815260206004820152602d60248201527f5472616e7366657248656c7065723a3a736166655472616e736665723a20747260448201526c185b9cd9995c8819985a5b1959609a1b60648201526084016103e4565b5050505050565b805161123281611aad565b919050565b8051801515811461123257600080fd5b60008083601f84011261125957600080fd5b5081356001600160401b0381111561127057600080fd5b60208301915083602082850101111561128857600080fd5b9250929050565b600082601f8301126112a057600080fd5b81356001600160401b038111156112b9576112b9611a97565b6112cc601f8201601f19166020016119c1565b8181528460208386010111156112e157600080fd5b816020850160208301376000918101602001919091529392505050565b600060a0828403121561131057600080fd5b60405160a081018181106001600160401b038211171561133257611332611a97565b8060405250809150825161134581611aad565b80825250602083015160208201526040830151604082015260608301516060820152608083015160808201525092915050565b60006040828403121561138a57600080fd5b604051604081018181106001600160401b03821117156113ac576113ac611a97565b806040525080915082516113bf81611aad565b8152602092830151920191909152919050565b6000608082840312156113e457600080fd5b604051608081018181106001600160401b038211171561140657611406611a97565b60405290508061141583611237565b815261142360208401611237565b602082015261143460408401611237565b604082015261144560608401611237565b60608201525092915050565b60006020828403121561146357600080fd5b813561146e81611aad565b9392505050565b60006020828403121561148757600080fd5b815161146e81611aad565b6000806000806000608086880312156114aa57600080fd5b85356114b581611aad565b945060208601356114c581611aad565b93506040860135925060608601356001600160401b038111156114e757600080fd5b6114f388828901611247565b969995985093965092949392505050565b6000806040838503121561151757600080fd5b82356001600160401b038082111561152e57600080fd5b818501915085601f83011261154257600080fd5b813560208282111561155657611556611a97565b8160051b92506115678184016119c1565b8281528181019085830185870184018b101561158257600080fd5b600096505b848710156115a5578035835260019690960195918301918301611587565b509997909101359750505050505050565b6000602082840312156115c857600080fd5b61146e82611237565b6000602082840312156115e357600080fd5b5051919050565b6000806000606084860312156115ff57600080fd5b8335925060208401356001600160401b038082111561161d57600080fd5b6116298783880161128f565b9350604086013591508082111561163f57600080fd5b5061164c8682870161128f565b9150509250925092565b6000806020838503121561166957600080fd5b82356001600160401b0381111561167f57600080fd5b61168b85828601611247565b90969095509350505050565b600061034082840312156116aa57600080fd5b6116b2611998565b825181526116c260208401611227565b60208201526116d360408401611227565b60408201526116e584606085016112fe565b60608201526101006116f985828601611378565b608083015261014061170d868287016112fe565b60a08401526101e085015160c084015261020085015160e0840152610220850151828401526102408501516101208401526102608501518184015250506117588461028085016113d2565b61016082015261176b6103008401611227565b61018082015261032092909201516101a083015250919050565b60006020828403121561179757600080fd5b5035919050565b600080604083850312156117b157600080fd5b8251915060208301516117c381611aad565b809150509250929050565b81835281816020850137506000828201602090810191909152601f909101601f19169091010190565b6000815180845261180f816020860160208601611a20565b601f01601f19169290920160200192915050565b60008251611835818460208701611a20565b9190910192915050565b6001600160a01b0387811682528681166020830152604082018690528416606082015260a06080820181905260009061187b90830184866117ce565b98975050505050505050565b604080825283519082018190526000906020906060840190828701845b828110156118c0578151845292840192908401906001016118a4565b50505092019290925292915050565b82151581526040602082015260006118ea60408301846117f7565b949350505050565b60208152600061146e60208301846117f7565b6020815281516020820152600060208301516080604084015261192b60a08401826117f7565b90506040840151601f1984830301606085015261194882826117f7565b606095909501516001600160a01b031660809490940193909352509192915050565b8581526080602082015260006119846080830186886117ce565b604083019490945250606001529392505050565b6040516101c081016001600160401b03811182821017156119bb576119bb611a97565b60405290565b604051601f8201601f191681016001600160401b03811182821017156119e9576119e9611a97565b604052919050565b60008219821115611a0457611a04611a6b565b500190565b600082821015611a1b57611a1b611a6b565b500390565b60005b83811015611a3b578181015183820152602001611a23565b83811115611a4a576000848401525b50505050565b6000600019821415611a6457611a64611a6b565b5060010190565b634e487b7160e01b600052601160045260246000fd5b634e487b7160e01b600052603260045260246000fd5b634e487b7160e01b600052604160045260246000fd5b6001600160a01b0381168114611ac257600080fd5b5056fea26469706673582212202c746b5126b0f8357d4630f4add04f26072378aa20ac28c7e3af08196e8109be64736f6c63430008070033",
  "linkReferences": {},
  "deployedLinkReferences": {}
}