{
  "_format": "hh-sol-artifact-1",
  "contractName": "Monitor",
  "sourceName": "contracts/Monitor.sol",
  "abi": [
    {
      "inputs": [
        {
          "internalType": "address",
          "name": "_keeper",
          "type": "address"
        },
        {
          "internalType": "address",
          "name": "_factory",
          "type": "address"
        },
        {
          "internalType": "uint256",
          "name": "_batchSize",
          "type": "uint256"
        },
        {
          "internalType": "uint256",
          "name": "_monitorSize",
          "type": "uint256"
        },
        {
          "internalType": "uint256",
          "name": "_startIndex",
          "type": "uint256"
        }
      ],
      "stateMutability": "nonpayable",
      "type": "constructor"
    },
    {
      "inputs": [
        {
          "internalType": "address",
          "name": "sender",
          "type": "address"
        }
      ],
      "name": "Forbidden",
      "type": "error"
    },
    {
      "inputs": [
        {
          "internalType": "uint256",
          "name": "value",
          "type": "uint256"
        },
        {
          "internalType": "uint256",
          "name": "max",
          "type": "uint256"
        }
      ],
      "name": "TooHighValue",
      "type": "error"
    },
    {
      "inputs": [
        {
          "internalType": "uint256",
          "name": "value",
          "type": "uint256"
        },
        {
          "internalType": "uint256",
          "name": "min",
          "type": "uint256"
        }
      ],
      "name": "TooLowValue",
      "type": "error"
    },
    {
      "anonymous": false,
      "inputs": [
        {
          "indexed": false,
          "internalType": "uint256",
          "name": "count",
          "type": "uint256"
        },
        {
          "indexed": false,
          "internalType": "bytes",
          "name": "performData",
          "type": "bytes"
        },
        {
          "indexed": false,
          "internalType": "uint256",
          "name": "usedGas",
          "type": "uint256"
        },
        {
          "indexed": false,
          "internalType": "uint256",
          "name": "gasPrice",
          "type": "uint256"
        }
      ],
      "name": "ProcessBatch",
      "type": "event"
    },
    {
      "anonymous": false,
      "inputs": [
        {
          "indexed": false,
          "internalType": "uint256",
          "name": "batchSize",
          "type": "uint256"
        }
      ],
      "name": "SetBatchSize",
      "type": "event"
    },
    {
      "anonymous": false,
      "inputs": [
        {
          "indexed": false,
          "internalType": "address",
          "name": "factory",
          "type": "address"
        }
      ],
      "name": "SetFactory",
      "type": "event"
    },
    {
      "anonymous": false,
      "inputs": [
        {
          "indexed": false,
          "internalType": "address",
          "name": "keeper",
          "type": "address"
        }
      ],
      "name": "SetKeeper",
      "type": "event"
    },
    {
      "anonymous": false,
      "inputs": [
        {
          "indexed": false,
          "internalType": "address",
          "name": "manager",
          "type": "address"
        }
      ],
      "name": "SetManager",
      "type": "event"
    },
    {
      "anonymous": false,
      "inputs": [
        {
          "indexed": false,
          "internalType": "uint256",
          "name": "monitorSize",
          "type": "uint256"
        }
      ],
      "name": "SetMonitorSize",
      "type": "event"
    },
    {
      "anonymous": false,
      "inputs": [
        {
          "indexed": false,
          "internalType": "uint256",
          "name": "startIndex",
          "type": "uint256"
        }
      ],
      "name": "SetStartIndex",
      "type": "event"
    },
    {
      "inputs": [],
      "name": "batchSize",
      "outputs": [
        {
          "internalType": "uint256",
          "name": "",
          "type": "uint256"
        }
      ],
      "stateMutability": "view",
      "type": "function"
    },
    {
      "inputs": [
        {
          "internalType": "bytes",
          "name": "",
          "type": "bytes"
        }
      ],
      "name": "checkUpkeep",
      "outputs": [
        {
          "internalType": "bool",
          "name": "upkeepNeeded",
          "type": "bool"
        },
        {
          "internalType": "bytes",
          "name": "performData",
          "type": "bytes"
        }
      ],
      "stateMutability": "view",
      "type": "function"
    },
    {
      "inputs": [
        {
          "internalType": "address",
          "name": "_tokenIn",
          "type": "address"
        },
        {
          "internalType": "address",
          "name": "_tokenOut",
          "type": "address"
        },
        {
          "internalType": "uint256",
          "name": "_amountOut",
          "type": "uint256"
        },
        {
          "internalType": "bytes",
          "name": "",
          "type": "bytes"
        }
      ],
      "name": "closeCallback",
      "outputs": [],
      "stateMutability": "nonpayable",
      "type": "function"
    },
    {
      "inputs": [],
      "name": "factory",
      "outputs": [
        {
          "internalType": "address",
          "name": "",
          "type": "address"
        }
      ],
      "stateMutability": "view",
      "type": "function"
    },
    {
      "inputs": [],
      "name": "keeper",
      "outputs": [
        {
          "internalType": "address",
          "name": "",
          "type": "address"
        }
      ],
      "stateMutability": "view",
      "type": "function"
    },
    {
      "inputs": [],
      "name": "manager",
      "outputs": [
        {
          "internalType": "address",
          "name": "",
          "type": "address"
        }
      ],
      "stateMutability": "view",
      "type": "function"
    },
    {
      "inputs": [],
      "name": "monitorSize",
      "outputs": [
        {
          "internalType": "uint256",
          "name": "",
          "type": "uint256"
        }
      ],
      "stateMutability": "view",
      "type": "function"
    },
    {
      "inputs": [
        {
          "internalType": "bytes",
          "name": "_performData",
          "type": "bytes"
        }
      ],
      "name": "performUpkeep",
      "outputs": [],
      "stateMutability": "nonpayable",
      "type": "function"
    },
    {
      "inputs": [
        {
          "internalType": "uint256",
          "name": "_batchSize",
          "type": "uint256"
        }
      ],
      "name": "setBatchSize",
      "outputs": [],
      "stateMutability": "nonpayable",
      "type": "function"
    },
    {
      "inputs": [
        {
          "internalType": "address",
          "name": "_factory",
          "type": "address"
        }
      ],
      "name": "setFactory",
      "outputs": [],
      "stateMutability": "nonpayable",
      "type": "function"
    },
    {
      "inputs": [
        {
          "internalType": "address",
          "name": "_keeper",
          "type": "address"
        }
      ],
      "name": "setKeeper",
      "outputs": [],
      "stateMutability": "nonpayable",
      "type": "function"
    },
    {
      "inputs": [
        {
          "internalType": "address",
          "name": "_manager",
          "type": "address"
        }
      ],
      "name": "setManager",
      "outputs": [],
      "stateMutability": "nonpayable",
      "type": "function"
    },
    {
      "inputs": [
        {
          "internalType": "uint256",
          "name": "_monitorSize",
          "type": "uint256"
        }
      ],
      "name": "setMonitorSize",
      "outputs": [],
      "stateMutability": "nonpayable",
      "type": "function"
    },
    {
      "inputs": [
        {
          "internalType": "uint256",
          "name": "_startIndex",
          "type": "uint256"
        }
      ],
      "name": "setStartIndex",
      "outputs": [],
      "stateMutability": "nonpayable",
      "type": "function"
    },
    {
      "inputs": [],
      "name": "startIndex",
      "outputs": [
        {
          "internalType": "uint256",
          "name": "",
          "type": "uint256"
        }
      ],
      "stateMutability": "view",
      "type": "function"
    }
  ],
  "bytecode": "0x608060405234801561001057600080fd5b50604051620017f8380380620017f883398101604081905261003191610099565b600080546001600160a01b03199081163317909155600180546001600160a01b0397881690831617905560028054959096169416939093179093556003556004919091556005556100e7565b80516001600160a01b038116811461009457600080fd5b919050565b600080600080600060a086880312156100b157600080fd5b6100ba8661007d565b94506100c86020870161007d565b6040870151606088015160809098015196999198509695945092505050565b61170180620000f76000396000f3fe608060405234801561001057600080fd5b50600436106100f55760003560e01c8063748747e611610097578063c45a015511610066578063c45a0155146101f2578063d0ebdbe714610205578063e761f9dc14610218578063f4daaba11461022b57600080fd5b8063748747e6146101b0578063860965c6146101c35780639bb0dafa146101cc578063aced1661146101df57600080fd5b8063576f35e3116100d3578063576f35e3146101565780635bb47808146101695780635ff7d9d51461017c5780636e04ff0d1461018f57600080fd5b80633e0e828b146100fa5780634585e33b14610116578063481c6a751461012b575b600080fd5b61010360055481565b6040519081526020015b60405180910390f35b6101296101243660046112f6565b610234565b005b60005461013e906001600160a01b031681565b6040516001600160a01b03909116815260200161010d565b61012961016436600461140c565b610545565b61012961017736600461115b565b6105e1565b61012961018a36600461140c565b61065c565b6101a261019d3660046112f6565b6106be565b60405161010d9291906114e5565b6101296101be36600461115b565b6109bd565b61010360045481565b6101296101da36600461140c565b610a38565b60015461013e906001600160a01b031681565b60025461013e906001600160a01b031681565b61012961021336600461115b565b610acb565b61012961022636600461119c565b610b46565b61010360035481565b60025460408051638cd4741560e01b815290516000926001600160a01b031691638cd47415916004808301926020929190829003018186803b15801561027957600080fd5b505afa15801561028d573d6000803e3d6000fd5b505050506040513d601f19601f820116820180604052508101906102b1919061117f565b905060005a90506000806102c78587018761120f565b9150915060005b818110156104f3576000856001600160a01b031663f7a5f2548584815181106102f9576102f9611687565b60200260200101516040518263ffffffff1660e01b815260040161031f91815260200190565b60206040518083038186803b15801561033757600080fd5b505afa15801561034b573d6000803e3d6000fd5b505050506040513d601f19601f8201168201806040525081019061036f91906112dd565b905080156104e05760006001600160a01b03871663f7a95a9e61039360018561160f565b6040518263ffffffff1660e01b81526004016103b191815260200190565b6103806040518083038186803b1580156103ca57600080fd5b505afa1580156103de573d6000803e3d6000fd5b505050506040513d601f19601f820116820180604052508101906104029190611338565b905080604001516001600160a01b031663fba0c814604051806080016040528084600001518152602001600067ffffffffffffffff8111156104465761044661169d565b6040519080825280601f01601f191660200182016040528015610470576020820181803683370190505b50815260408051600081526020808201835283015230918101919091525160e083901b6001600160e01b03191681526104ac9190600401611508565b600060405180830381600087803b1580156104c657600080fd5b505af11580156104da573d6000803e3d6000fd5b50505050505b50806104eb81611656565b9150506102ce565b507fd1d8c94a101352389a2fadcdc79eb2ec660d64769f14a1e89c50c6d22225ce8b8187875a610523908861160f565b3a60405161053595949392919061156d565b60405180910390a1505050505050565b6000546001600160a01b031633146105775760405163a59d7f4d60e01b81523360048201526024015b60405180910390fd5b6004548111156105a55760048054604051637150bba160e01b8152918201839052602482015260440161056e565b60038190556040518181527fe7589087ca18f0ad76e3a457747806de5e2432f4285837617205c045ba950fb6906020015b60405180910390a150565b6000546001600160a01b0316331461060e5760405163a59d7f4d60e01b815233600482015260240161056e565b600280546001600160a01b0319166001600160a01b0383169081179091556040519081527f1c893ef9379093af30f458b9e74d2aba13c499660b68dec5e29af7b199c188b9906020016105d6565b6000546001600160a01b031633146106895760405163a59d7f4d60e01b815233600482015260240161056e565b60058190556040518181527ffb0b2459ef0b436ea50d577db242217edfa1e86a7404361aaae9b6bb406b7e2f906020016105d6565b600060606000600260009054906101000a90046001600160a01b03166001600160a01b0316638cd474156040518163ffffffff1660e01b815260040160206040518083038186803b15801561071257600080fd5b505afa158015610726573d6000803e3d6000fd5b505050506040513d601f19601f8201168201806040525081019061074a919061117f565b9050600060035467ffffffffffffffff8111156107695761076961169d565b604051908082528060200260200182016040528015610792578160200160208202803683370190505b5090506000806000846001600160a01b031663a827acf56040518163ffffffff1660e01b815260040160206040518083038186803b1580156107d357600080fd5b505afa1580156107e7573d6000803e3d6000fd5b505050506040513d601f19601f8201168201806040525081019061080b91906112dd565b6005549091505b818110156109815760405163da23479f60e01b8152600481018290526000906001600160a01b0388169063da23479f9060240160206040518083038186803b15801561085d57600080fd5b505afa158015610871573d6000803e3d6000fd5b505050506040513d601f19601f8201168201806040525081019061089591906112dd565b604051630c3742a160e31b8152600481018290529091506001600160a01b038816906361ba15089060240160206040518083038186803b1580156108d857600080fd5b505afa1580156108ec573d6000803e3d6000fd5b505050506040513d601f19601f8201168201806040525081019061091091906112c2565b15610941578086868151811061092857610928611687565b60209081029190910101528461093d81611656565b9550505b8361094b81611656565b94505060045484141561095e5750610981565b60035485141561096e5750610981565b508061097981611656565b915050610812565b508215801597506109b157838360405160200161099f92919061149d565b60405160208183030381529060405295505b50505050509250929050565b6000546001600160a01b031633146109ea5760405163a59d7f4d60e01b815233600482015260240161056e565b600180546001600160a01b0319166001600160a01b0383169081179091556040519081527fefb5cfa1a8690c124332ab93324539c5c9c4be03f28aeb8be86f2d8a0c9fb99b906020016105d6565b6000546001600160a01b03163314610a655760405163a59d7f4d60e01b815233600482015260240161056e565b600354811015610a965760035460405163102a6c2760e01b815261056e918391600401918252602082015260400190565b60048190556040518181527f8f7e75c44358384d270505281bef6ad973e53b3785b6d722c4f279f1521d1560906020016105d6565b6000546001600160a01b03163314610af85760405163a59d7f4d60e01b815233600482015260240161056e565b600080546001600160a01b0319166001600160a01b0383169081179091556040519081527f54a6385aa0292b04e1ef8513253c17d1863f7cdfc87029d77fd55cc4c2e717e2906020016105d6565b600254604080516303e10eaf60e51b815290516000926001600160a01b031691637c21d5e0916004808301926020929190829003018186803b158015610b8b57600080fd5b505afa158015610b9f573d6000803e3d6000fd5b505050506040513d601f19601f82011682018060405250810190610bc3919061117f565b6040516370a0823160e01b81523060048201529091506000906001600160a01b038816906370a082319060240160206040518083038186803b158015610c0857600080fd5b505afa158015610c1c573d6000803e3d6000fd5b505050506040513d601f19601f82011682018060405250810190610c4091906112dd565b9050610c4d878383610e23565b604051630ceffb5960e31b8152600060048201526001600160a01b03888116602483015287811660448301526064820187905230608483015283169063677fdac89060a4016040805180830381600087803b158015610cab57600080fd5b505af1158015610cbf573d6000803e3d6000fd5b505050506040513d601f19601f82011682018060405250810190610ce39190611425565b5050610cf0863387610e23565b6040516370a0823160e01b81523060048201526000906001600160a01b038816906370a082319060240160206040518083038186803b158015610d3257600080fd5b505afa158015610d46573d6000803e3d6000fd5b505050506040513d601f19601f82011682018060405250810190610d6a91906112dd565b90508015610e1957610d7d878483610e23565b604051630ceffb5960e31b81526000600482018190526001600160a01b0389811660248401528a81166044840152606483019190915233608483015284169063677fdac89060a4016040805180830381600087803b158015610dde57600080fd5b505af1158015610df2573d6000803e3d6000fd5b505050506040513d601f19601f82011682018060405250810190610e169190611425565b50505b5050505050505050565b604080516001600160a01b038481166024830152604480830185905283518084039091018152606490920183526020820180516001600160e01b031663a9059cbb60e01b1790529151600092839290871691610e7f9190611481565b6000604051808303816000865af19150503d8060008114610ebc576040519150601f19603f3d011682016040523d82523d6000602084013e610ec1565b606091505b5091509150818015610eeb575080511580610eeb575080806020019051810190610eeb91906112c2565b610f4d5760405162461bcd60e51b815260206004820152602d60248201527f5472616e7366657248656c7065723a3a736166655472616e736665723a20747260448201526c185b9cd9995c8819985a5b1959609a1b606482015260840161056e565b5050505050565b8051610f5f816116b3565b919050565b80518015158114610f5f57600080fd5b60008083601f840112610f8657600080fd5b50813567ffffffffffffffff811115610f9e57600080fd5b602083019150836020828501011115610fb657600080fd5b9250929050565b600060a08284031215610fcf57600080fd5b60405160a0810181811067ffffffffffffffff82111715610ff257610ff261169d565b80604052508091508251611005816116b3565b80825250602083015160208201526040830151604082015260608301516060820152608083015160808201525092915050565b60006040828403121561104a57600080fd5b6040516040810181811067ffffffffffffffff8211171561106d5761106d61169d565b80604052508091508251611080816116b3565b8152602092830151920191909152919050565b60006101008083850312156110a757600080fd5b6040519081019067ffffffffffffffff821181831017156110ca576110ca61169d565b816040528092506110da84610f64565b81526110e860208501610f64565b60208201526110f960408501610f64565b604082015261110a60608501610f64565b606082015261111b60808501610f64565b608082015261112c60a08501610f64565b60a082015261113d60c08501610f64565b60c082015261114e60e08501610f64565b60e0820152505092915050565b60006020828403121561116d57600080fd5b8135611178816116b3565b9392505050565b60006020828403121561119157600080fd5b8151611178816116b3565b6000806000806000608086880312156111b457600080fd5b85356111bf816116b3565b945060208601356111cf816116b3565b935060408601359250606086013567ffffffffffffffff8111156111f257600080fd5b6111fe88828901610f74565b969995985093965092949392505050565b6000806040838503121561122257600080fd5b823567ffffffffffffffff8082111561123a57600080fd5b818501915085601f83011261124e57600080fd5b81356020828211156112625761126261169d565b8160051b92506112738184016115de565b8281528181019085830185870184018b101561128e57600080fd5b600096505b848710156112b1578035835260019690960195918301918301611293565b509997909101359750505050505050565b6000602082840312156112d457600080fd5b61117882610f64565b6000602082840312156112ef57600080fd5b5051919050565b6000806020838503121561130957600080fd5b823567ffffffffffffffff81111561132057600080fd5b61132c85828601610f74565b90969095509350505050565b6000610380828403121561134b57600080fd5b6113536115b4565b8251815261136360208401610f54565b602082015261137460408401610f54565b60408201526113868460608501610fbd565b606082015261010061139a85828601611038565b60808301526101406113ae86828701610fbd565b60a08401526101e085015160c084015261020085015160e0840152610220850151828401526102408501516101208401526113ed866102608701611093565b90830152506113ff6103608401610f54565b6101608201529392505050565b60006020828403121561141e57600080fd5b5035919050565b6000806040838503121561143857600080fd5b82519150602083015161144a816116b3565b809150509250929050565b6000815180845261146d816020860160208601611626565b601f01601f19169290920160200192915050565b60008251611493818460208701611626565b9190910192915050565b604080825283519082018190526000906020906060840190828701845b828110156114d6578151845292840192908401906001016114ba565b50505092019290925292915050565b82151581526040602082015260006115006040830184611455565b949350505050565b6020815281516020820152600060208301516080604084015261152e60a0840182611455565b90506040840151601f1984830301606085015261154b8282611455565b606095909501516001600160a01b031660809490940193909352509192915050565b85815260806020820152836080820152838560a0830137600060a08583010152600060a0601f19601f87011683010190508360408301528260608301529695505050505050565b604051610180810167ffffffffffffffff811182821017156115d8576115d861169d565b60405290565b604051601f8201601f1916810167ffffffffffffffff811182821017156116075761160761169d565b604052919050565b60008282101561162157611621611671565b500390565b60005b83811015611641578181015183820152602001611629565b83811115611650576000848401525b50505050565b600060001982141561166a5761166a611671565b5060010190565b634e487b7160e01b600052601160045260246000fd5b634e487b7160e01b600052603260045260246000fd5b634e487b7160e01b600052604160045260246000fd5b6001600160a01b03811681146116c857600080fd5b5056fea26469706673582212207543b64da95b52b3d9d3240507d6c1cbd3b971d56ca861895853f347bee2404764736f6c63430008070033",
  "linkReferences": {},
  "deployedLinkReferences": {}
}