{
  "_format": "hh-sol-artifact-1",
  "contractName": "Monitor",
  "sourceName": "contracts/Monitor.sol",
  "abi": [
    {
      "inputs": [
        {
          "internalType": "address",
          "name": "_keeper",
          "type": "address"
        },
        {
          "internalType": "address",
          "name": "_factory",
          "type": "address"
        },
        {
          "internalType": "uint256",
          "name": "_batchSize",
          "type": "uint256"
        },
        {
          "internalType": "uint256",
          "name": "_monitorSize",
          "type": "uint256"
        },
        {
          "internalType": "uint256",
          "name": "_startIndex",
          "type": "uint256"
        }
      ],
      "stateMutability": "nonpayable",
      "type": "constructor"
    },
    {
      "inputs": [
        {
          "internalType": "address",
          "name": "sender",
          "type": "address"
        }
      ],
      "name": "Forbidden",
      "type": "error"
    },
    {
      "inputs": [],
      "name": "InsufficientOutput",
      "type": "error"
    },
    {
      "inputs": [
        {
          "internalType": "uint256",
          "name": "value",
          "type": "uint256"
        },
        {
          "internalType": "uint256",
          "name": "max",
          "type": "uint256"
        }
      ],
      "name": "TooHighValue",
      "type": "error"
    },
    {
      "inputs": [
        {
          "internalType": "uint256",
          "name": "value",
          "type": "uint256"
        },
        {
          "internalType": "uint256",
          "name": "min",
          "type": "uint256"
        }
      ],
      "name": "TooLowValue",
      "type": "error"
    },
    {
      "anonymous": false,
      "inputs": [
        {
          "indexed": false,
          "internalType": "uint256",
          "name": "count",
          "type": "uint256"
        },
        {
          "indexed": false,
          "internalType": "bytes",
          "name": "performData",
          "type": "bytes"
        },
        {
          "indexed": false,
          "internalType": "uint256",
          "name": "usedGas",
          "type": "uint256"
        },
        {
          "indexed": false,
          "internalType": "uint256",
          "name": "gasPrice",
          "type": "uint256"
        }
      ],
      "name": "ProcessBatch",
      "type": "event"
    },
    {
      "anonymous": false,
      "inputs": [
        {
          "indexed": false,
          "internalType": "uint256",
          "name": "batchSize",
          "type": "uint256"
        }
      ],
      "name": "SetBatchSize",
      "type": "event"
    },
    {
      "anonymous": false,
      "inputs": [
        {
          "indexed": false,
          "internalType": "address",
          "name": "factory",
          "type": "address"
        }
      ],
      "name": "SetFactory",
      "type": "event"
    },
    {
      "anonymous": false,
      "inputs": [
        {
          "indexed": false,
          "internalType": "address",
          "name": "keeper",
          "type": "address"
        }
      ],
      "name": "SetKeeper",
      "type": "event"
    },
    {
      "anonymous": false,
      "inputs": [
        {
          "indexed": false,
          "internalType": "address",
          "name": "manager",
          "type": "address"
        }
      ],
      "name": "SetManager",
      "type": "event"
    },
    {
      "anonymous": false,
      "inputs": [
        {
          "indexed": false,
          "internalType": "address",
          "name": "metaAggregator",
          "type": "address"
        }
      ],
      "name": "SetMetaAggregator",
      "type": "event"
    },
    {
      "anonymous": false,
      "inputs": [
        {
          "indexed": false,
          "internalType": "uint256",
          "name": "monitorSize",
          "type": "uint256"
        }
      ],
      "name": "SetMonitorSize",
      "type": "event"
    },
    {
      "anonymous": false,
      "inputs": [
        {
          "indexed": false,
          "internalType": "uint256",
          "name": "startIndex",
          "type": "uint256"
        }
      ],
      "name": "SetStartIndex",
      "type": "event"
    },
    {
      "inputs": [],
      "name": "batchSize",
      "outputs": [
        {
          "internalType": "uint256",
          "name": "",
          "type": "uint256"
        }
      ],
      "stateMutability": "view",
      "type": "function"
    },
    {
      "inputs": [
        {
          "internalType": "bytes",
          "name": "",
          "type": "bytes"
        }
      ],
      "name": "checkUpkeep",
      "outputs": [
        {
          "internalType": "bool",
          "name": "upkeepNeeded",
          "type": "bool"
        },
        {
          "internalType": "bytes",
          "name": "performData",
          "type": "bytes"
        }
      ],
      "stateMutability": "view",
      "type": "function"
    },
    {
      "inputs": [],
      "name": "checker",
      "outputs": [
        {
          "internalType": "bool",
          "name": "canExec",
          "type": "bool"
        },
        {
          "internalType": "bytes",
          "name": "execPayload",
          "type": "bytes"
        }
      ],
      "stateMutability": "view",
      "type": "function"
    },
    {
      "inputs": [
        {
          "internalType": "bytes32",
          "name": "_positionKey",
          "type": "bytes32"
        },
        {
          "internalType": "bytes",
          "name": "_data0",
          "type": "bytes"
        },
        {
          "internalType": "bytes",
          "name": "_data1",
          "type": "bytes"
        }
      ],
      "name": "close",
      "outputs": [],
      "stateMutability": "nonpayable",
      "type": "function"
    },
    {
      "inputs": [
        {
          "internalType": "address",
          "name": "_tokenIn",
          "type": "address"
        },
        {
          "internalType": "address",
          "name": "_tokenOut",
          "type": "address"
        },
        {
          "internalType": "uint256",
          "name": "_minAmountOut",
          "type": "uint256"
        },
        {
          "internalType": "bytes",
          "name": "_data",
          "type": "bytes"
        }
      ],
      "name": "closeCallback",
      "outputs": [],
      "stateMutability": "nonpayable",
      "type": "function"
    },
    {
      "inputs": [],
      "name": "factory",
      "outputs": [
        {
          "internalType": "address",
          "name": "",
          "type": "address"
        }
      ],
      "stateMutability": "view",
      "type": "function"
    },
    {
      "inputs": [],
      "name": "keeper",
      "outputs": [
        {
          "internalType": "address",
          "name": "",
          "type": "address"
        }
      ],
      "stateMutability": "view",
      "type": "function"
    },
    {
      "inputs": [],
      "name": "manager",
      "outputs": [
        {
          "internalType": "address",
          "name": "",
          "type": "address"
        }
      ],
      "stateMutability": "view",
      "type": "function"
    },
    {
      "inputs": [],
      "name": "metaAggregator",
      "outputs": [
        {
          "internalType": "address",
          "name": "",
          "type": "address"
        }
      ],
      "stateMutability": "view",
      "type": "function"
    },
    {
      "inputs": [],
      "name": "monitorSize",
      "outputs": [
        {
          "internalType": "uint256",
          "name": "",
          "type": "uint256"
        }
      ],
      "stateMutability": "view",
      "type": "function"
    },
    {
      "inputs": [
        {
          "internalType": "bytes",
          "name": "_performData",
          "type": "bytes"
        }
      ],
      "name": "performUpkeep",
      "outputs": [],
      "stateMutability": "nonpayable",
      "type": "function"
    },
    {
      "inputs": [],
      "name": "positionStorage",
      "outputs": [
        {
          "internalType": "address",
          "name": "",
          "type": "address"
        }
      ],
      "stateMutability": "view",
      "type": "function"
    },
    {
      "inputs": [
        {
          "internalType": "uint256",
          "name": "_batchSize",
          "type": "uint256"
        }
      ],
      "name": "setBatchSize",
      "outputs": [],
      "stateMutability": "nonpayable",
      "type": "function"
    },
    {
      "inputs": [
        {
          "internalType": "address",
          "name": "_factory",
          "type": "address"
        }
      ],
      "name": "setFactory",
      "outputs": [],
      "stateMutability": "nonpayable",
      "type": "function"
    },
    {
      "inputs": [
        {
          "internalType": "address",
          "name": "_keeper",
          "type": "address"
        }
      ],
      "name": "setKeeper",
      "outputs": [],
      "stateMutability": "nonpayable",
      "type": "function"
    },
    {
      "inputs": [
        {
          "internalType": "address",
          "name": "_manager",
          "type": "address"
        }
      ],
      "name": "setManager",
      "outputs": [],
      "stateMutability": "nonpayable",
      "type": "function"
    },
    {
      "inputs": [
        {
          "internalType": "address",
          "name": "_newMetaAggregator",
          "type": "address"
        }
      ],
      "name": "setMetaAggregator",
      "outputs": [],
      "stateMutability": "nonpayable",
      "type": "function"
    },
    {
      "inputs": [
        {
          "internalType": "uint256",
          "name": "_monitorSize",
          "type": "uint256"
        }
      ],
      "name": "setMonitorSize",
      "outputs": [],
      "stateMutability": "nonpayable",
      "type": "function"
    },
    {
      "inputs": [
        {
          "internalType": "uint256",
          "name": "_startIndex",
          "type": "uint256"
        }
      ],
      "name": "setStartIndex",
      "outputs": [],
      "stateMutability": "nonpayable",
      "type": "function"
    },
    {
      "inputs": [],
      "name": "startIndex",
      "outputs": [
        {
          "internalType": "uint256",
          "name": "",
          "type": "uint256"
        }
      ],
      "stateMutability": "view",
      "type": "function"
    }
  ],
  "bytecode": "0x60806040523480156200001157600080fd5b5060405162001c8238038062001c8283398101604081905262000034916200015a565b60008054336001600160a01b0319918216179091556001805482166001600160a01b03888116919091179091556002805490921690861690811790915560408051638cd4741560e01b81529051638cd4741591600480820192602092909190829003018186803b158015620000a857600080fd5b505afa158015620000bd573d6000803e3d6000fd5b505050506040513d601f19601f82011682018060405250810190620000e3919062000135565b600380546001600160a01b0319166001600160a01b039290921691909117905560059290925560065560075550620001ad9050565b80516001600160a01b03811681146200013057600080fd5b919050565b6000602082840312156200014857600080fd5b620001538262000118565b9392505050565b600080600080600060a086880312156200017357600080fd5b6200017e8662000118565b94506200018e6020870162000118565b6040870151606088015160809098015196999198509695945092505050565b611ac580620001bd6000396000f3fe608060405234801561001057600080fd5b506004361061012c5760003560e01c80638cd47415116100ad578063cee6031f11610071578063cee6031f14610275578063cf5303cf14610288578063d0ebdbe714610290578063e761f9dc146102a3578063f4daaba1146102b657600080fd5b80638cd47415146102165780639bb0dafa14610229578063aced16611461023c578063ae7db4511461024f578063c45a01551461026257600080fd5b80635bb47808116100f45780635bb47808146101b35780635ff7d9d5146101c65780636e04ff0d146101d9578063748747e6146101fa578063860965c61461020d57600080fd5b80633e0e828b146101315780633e7efed51461014d5780634585e33b14610178578063481c6a751461018d578063576f35e3146101a0575b600080fd5b61013a60075481565b6040519081526020015b60405180910390f35b600454610160906001600160a01b031681565b6040516001600160a01b039091168152602001610144565b61018b610186366004611638565b6102bf565b005b600054610160906001600160a01b031681565b61018b6101ae366004611767565b6103bb565b61018b6101c1366004611433565b61045a565b61018b6101d4366004611767565b610561565b6101ec6101e7366004611638565b6105c3565b6040516101449291906118b1565b61018b610208366004611433565b610852565b61013a60065481565b600354610160906001600160a01b031681565b61018b610237366004611767565b6108cd565b600154610160906001600160a01b031681565b61018b61025d3660046115cc565b610960565b600254610160906001600160a01b031681565b61018b610283366004611433565b610971565b6101ec6109ec565b61018b61029e366004611433565b610cb0565b61018b6102b1366004611474565b610d2b565b61013a60055481565b60005a90506000806102d3848601866114e6565b9150915060005b8181101561036a576103588382815181106102f7576102f7611a4b565b602002602001015160006001600160401b0381111561031857610318611a61565b6040519080825280601f01601f191660200182016040528015610342576020820181803683370190505b5060408051600081526020810190915230610fce565b8061036281611a1a565b9150506102da565b507fd1d8c94a101352389a2fadcdc79eb2ec660d64769f14a1e89c50c6d22225ce8b8186865a61039a90886119d3565b3a6040516103ac95949392919061194c565b60405180910390a15050505050565b6000546001600160a01b031633146103ed5760405163a59d7f4d60e01b81523360048201526024015b60405180910390fd5b60065481111561041e57600654604051637150bba160e01b81526103e4918391600401918252602082015260400190565b60058190556040518181527fe7589087ca18f0ad76e3a457747806de5e2432f4285837617205c045ba950fb6906020015b60405180910390a150565b6000546001600160a01b031633146104875760405163a59d7f4d60e01b81523360048201526024016103e4565b600280546001600160a01b0319166001600160a01b03831690811790915560408051638cd4741560e01b81529051638cd4741591600480820192602092909190829003018186803b1580156104db57600080fd5b505afa1580156104ef573d6000803e3d6000fd5b505050506040513d601f19601f820116820180604052508101906105139190611457565b600380546001600160a01b0319166001600160a01b0392831617905560405190821681527f1c893ef9379093af30f458b9e74d2aba13c499660b68dec5e29af7b199c188b99060200161044f565b6000546001600160a01b0316331461058e5760405163a59d7f4d60e01b81523360048201526024016103e4565b60078190556040518181527ffb0b2459ef0b436ea50d577db242217edfa1e86a7404361aaae9b6bb406b7e2f9060200161044f565b6003546005546000916060916001600160a01b039091169083906001600160401b038111156105f4576105f4611a61565b60405190808252806020026020018201604052801561061d578160200160208202803683370190505b5090506000806000846001600160a01b031663539826a66040518163ffffffff1660e01b815260040160206040518083038186803b15801561065e57600080fd5b505afa158015610672573d6000803e3d6000fd5b505050506040513d601f19601f8201168201806040525081019061069691906115b3565b9050806007541015610817576007545b8181101561081557604051632895a2b360e01b8152600481018290526000906001600160a01b03881690632895a2b39060240160206040518083038186803b1580156106f157600080fd5b505afa158015610705573d6000803e3d6000fd5b505050506040513d601f19601f8201168201806040525081019061072991906115b3565b604051630c3742a160e31b8152600481018290529091506001600160a01b038816906361ba15089060240160206040518083038186803b15801561076c57600080fd5b505afa158015610780573d6000803e3d6000fd5b505050506040513d601f19601f820116820180604052508101906107a49190611598565b156107d557808686815181106107bc576107bc611a4b565b6020908102919091010152846107d181611a1a565b9550505b836107df81611a1a565b9450506006548414156107f25750610815565b6005548514156108025750610815565b508061080d81611a1a565b9150506106a6565b505b821580159750610846578383604051602001610834929190611869565b60405160208183030381529060405295505b50505050509250929050565b6000546001600160a01b0316331461087f5760405163a59d7f4d60e01b81523360048201526024016103e4565b600180546001600160a01b0319166001600160a01b0383169081179091556040519081527fefb5cfa1a8690c124332ab93324539c5c9c4be03f28aeb8be86f2d8a0c9fb99b9060200161044f565b6000546001600160a01b031633146108fa5760405163a59d7f4d60e01b81523360048201526024016103e4565b60055481101561092b5760055460405163102a6c2760e01b81526103e4918391600401918252602082015260400190565b60068190556040518181527f8f7e75c44358384d270505281bef6ad973e53b3785b6d722c4f279f1521d15609060200161044f565b61096c83838333610fce565b505050565b6000546001600160a01b0316331461099e5760405163a59d7f4d60e01b81523360048201526024016103e4565b600480546001600160a01b0319166001600160a01b0383169081179091556040519081527ffdeec6d79a6bee7503b67f2a1c0b6cc5bcec78247f137ca75d1dff8453b746d79060200161044f565b6003546005546000916060916001600160a01b039091169083906001600160401b03811115610a1d57610a1d611a61565b604051908082528060200260200182016040528015610a46578160200160208202803683370190505b5090506000806000846001600160a01b031663539826a66040518163ffffffff1660e01b815260040160206040518083038186803b158015610a8757600080fd5b505afa158015610a9b573d6000803e3d6000fd5b505050506040513d601f19601f82011682018060405250810190610abf91906115b3565b9050806007541015610c40576007545b81811015610c3e57604051632895a2b360e01b8152600481018290526000906001600160a01b03881690632895a2b39060240160206040518083038186803b158015610b1a57600080fd5b505afa158015610b2e573d6000803e3d6000fd5b505050506040513d601f19601f82011682018060405250810190610b5291906115b3565b604051630c3742a160e31b8152600481018290529091506001600160a01b038816906361ba15089060240160206040518083038186803b158015610b9557600080fd5b505afa158015610ba9573d6000803e3d6000fd5b505050506040513d601f19601f82011682018060405250810190610bcd9190611598565b15610bfe5780868681518110610be557610be5611a4b565b602090810291909101015284610bfa81611a1a565b9550505b83610c0881611a1a565b945050600654841415610c1b5750610c3e565b600554851415610c2b5750610c3e565b5080610c3681611a1a565b915050610acf565b505b821580159750610ca7578383604051602001610c5d929190611869565b60408051601f1981840301815290829052610c7a916024016118d4565b60408051601f198184030181529190526020810180516001600160e01b0316634585e33b60e01b17905295505b50505050509091565b6000546001600160a01b03163314610cdd5760405163a59d7f4d60e01b81523360048201526024016103e4565b600080546001600160a01b0319166001600160a01b0383169081179091556040519081527f54a6385aa0292b04e1ef8513253c17d1863f7cdfc87029d77fd55cc4c2e717e29060200161044f565b6040516370a0823160e01b81523060048201526000906001600160a01b038716906370a082319060240160206040518083038186803b158015610d6d57600080fd5b505afa158015610d81573d6000803e3d6000fd5b505050506040513d601f19601f82011682018060405250810190610da591906115b3565b6004549091506000906001600160a01b03161580610dc1575082155b15610ef657600254604080516303e10eaf60e51b815290516001600160a01b03909216916000918391637c21d5e091600480820192602092909190829003018186803b158015610e1057600080fd5b505afa158015610e24573d6000803e3d6000fd5b505050506040513d601f19601f82011682018060405250810190610e489190611457565b9050610e558982866110d8565b604051630ceffb5960e31b8152600060048201526001600160a01b038a8116602483015289811660448301526064820189905230608483015282169063677fdac89060a4016040805180830381600087803b158015610eb357600080fd5b505af1158015610ec7573d6000803e3d6000fd5b505050506040513d601f19601f82011682018060405250810190610eeb9190611780565b509250610f99915050565b6004546001600160a01b0316610f0d8882856110d8565b604051631fa196a960e21b81526001600160a01b03821690637e865aa490610f43908b908b908b9030908c908c90600401611821565b602060405180830381600087803b158015610f5d57600080fd5b505af1158015610f71573d6000803e3d6000fd5b505050506040513d601f19601f82011682018060405250810190610f9591906115b3565b9150505b84811015610fba5760405163bb2875c360e01b815260040160405180910390fd5b610fc58633836110d8565b50505050505050565b60035460405163957d1fe160e01b8152600481018690526000916001600160a01b03169063957d1fe1906024016103406040518083038186803b15801561101457600080fd5b505afa158015611028573d6000803e3d6000fd5b505050506040513d601f19601f8201168201806040525081019061104c9190611679565b604080820151815160808101835283518152602081018890528083018790526001600160a01b0386811660608301529251633ee8320560e21b815293945091169163fba0c8149161109f916004016118e7565b600060405180830381600087803b1580156110b957600080fd5b505af11580156110cd573d6000803e3d6000fd5b505050505050505050565b604080516001600160a01b038481166024830152604480830185905283518084039091018152606490920183526020820180516001600160e01b031663a9059cbb60e01b17905291516000928392908716916111349190611805565b6000604051808303816000865af19150503d8060008114611171576040519150601f19603f3d011682016040523d82523d6000602084013e611176565b606091505b50915091508180156111a05750805115806111a05750808060200190518101906111a09190611598565b6112025760405162461bcd60e51b815260206004820152602d60248201527f5472616e7366657248656c7065723a3a736166655472616e736665723a20747260448201526c185b9cd9995c8819985a5b1959609a1b60648201526084016103e4565b5050505050565b805161121481611a77565b919050565b8051801515811461121457600080fd5b60008083601f84011261123b57600080fd5b5081356001600160401b0381111561125257600080fd5b60208301915083602082850101111561126a57600080fd5b9250929050565b600082601f83011261128257600080fd5b81356001600160401b0381111561129b5761129b611a61565b6112ae601f8201601f19166020016119a3565b8181528460208386010111156112c357600080fd5b816020850160208301376000918101602001919091529392505050565b600060a082840312156112f257600080fd5b60405160a081018181106001600160401b038211171561131457611314611a61565b8060405250809150825161132781611a77565b80825250602083015160208201526040830151604082015260608301516060820152608083015160808201525092915050565b60006040828403121561136c57600080fd5b604051604081018181106001600160401b038211171561138e5761138e611a61565b806040525080915082516113a181611a77565b8152602092830151920191909152919050565b6000608082840312156113c657600080fd5b604051608081018181106001600160401b03821117156113e8576113e8611a61565b6040529050806113f783611219565b815261140560208401611219565b602082015261141660408401611219565b604082015261142760608401611219565b60608201525092915050565b60006020828403121561144557600080fd5b813561145081611a77565b9392505050565b60006020828403121561146957600080fd5b815161145081611a77565b60008060008060006080868803121561148c57600080fd5b853561149781611a77565b945060208601356114a781611a77565b93506040860135925060608601356001600160401b038111156114c957600080fd5b6114d588828901611229565b969995985093965092949392505050565b600080604083850312156114f957600080fd5b82356001600160401b038082111561151057600080fd5b818501915085601f83011261152457600080fd5b813560208282111561153857611538611a61565b8160051b92506115498184016119a3565b8281528181019085830185870184018b101561156457600080fd5b600096505b84871015611587578035835260019690960195918301918301611569565b509997909101359750505050505050565b6000602082840312156115aa57600080fd5b61145082611219565b6000602082840312156115c557600080fd5b5051919050565b6000806000606084860312156115e157600080fd5b8335925060208401356001600160401b03808211156115ff57600080fd5b61160b87838801611271565b9350604086013591508082111561162157600080fd5b5061162e86828701611271565b9150509250925092565b6000806020838503121561164b57600080fd5b82356001600160401b0381111561166157600080fd5b61166d85828601611229565b90969095509350505050565b6000610340828403121561168c57600080fd5b61169461197a565b825181526116a460208401611209565b60208201526116b560408401611209565b60408201526116c784606085016112e0565b60608201526101006116db8582860161135a565b60808301526101406116ef868287016112e0565b60a08401526101e085015160c084015261020085015160e08401526102208501518284015261024085015161012084015261026085015181840152505061173a8461028085016113b4565b61016082015261174d6103008401611209565b61018082015261032092909201516101a083015250919050565b60006020828403121561177957600080fd5b5035919050565b6000806040838503121561179357600080fd5b8251915060208301516117a581611a77565b809150509250929050565b81835281816020850137506000828201602090810191909152601f909101601f19169091010190565b600081518084526117f18160208601602086016119ea565b601f01601f19169290920160200192915050565b600082516118178184602087016119ea565b9190910192915050565b6001600160a01b0387811682528681166020830152604082018690528416606082015260a06080820181905260009061185d90830184866117b0565b98975050505050505050565b604080825283519082018190526000906020906060840190828701845b828110156118a257815184529284019290840190600101611886565b50505092019290925292915050565b82151581526040602082015260006118cc60408301846117d9565b949350505050565b60208152600061145060208301846117d9565b6020815281516020820152600060208301516080604084015261190d60a08401826117d9565b90506040840151601f1984830301606085015261192a82826117d9565b606095909501516001600160a01b031660809490940193909352509192915050565b8581526080602082015260006119666080830186886117b0565b604083019490945250606001529392505050565b6040516101c081016001600160401b038111828210171561199d5761199d611a61565b60405290565b604051601f8201601f191681016001600160401b03811182821017156119cb576119cb611a61565b604052919050565b6000828210156119e5576119e5611a35565b500390565b60005b83811015611a055781810151838201526020016119ed565b83811115611a14576000848401525b50505050565b6000600019821415611a2e57611a2e611a35565b5060010190565b634e487b7160e01b600052601160045260246000fd5b634e487b7160e01b600052603260045260246000fd5b634e487b7160e01b600052604160045260246000fd5b6001600160a01b0381168114611a8c57600080fd5b5056fea2646970667358221220b032653efb10700af8e7b73e40586b289db9361c66edf0bf39e50d5f53d8fb4564736f6c63430008070033",
  "linkReferences": {},
  "deployedLinkReferences": {}
}