{
  "_format": "hh-sol-artifact-1",
  "contractName": "Monitor",
  "sourceName": "contracts/Monitor.sol",
  "abi": [
    {
      "inputs": [
        {
          "internalType": "address",
          "name": "_keeper",
          "type": "address"
        },
        {
          "internalType": "address",
          "name": "_factory",
          "type": "address"
        },
        {
          "internalType": "uint256",
          "name": "_batchSize",
          "type": "uint256"
        },
        {
          "internalType": "uint256",
          "name": "_monitorSize",
          "type": "uint256"
        },
        {
          "internalType": "uint256",
          "name": "_startIndex",
          "type": "uint256"
        }
      ],
      "stateMutability": "nonpayable",
      "type": "constructor"
    },
    {
      "inputs": [
        {
          "internalType": "address",
          "name": "sender",
          "type": "address"
        }
      ],
      "name": "Forbidden",
      "type": "error"
    },
    {
      "inputs": [],
      "name": "InsufficientOutput",
      "type": "error"
    },
    {
      "inputs": [
        {
          "internalType": "uint256",
          "name": "value",
          "type": "uint256"
        },
        {
          "internalType": "uint256",
          "name": "max",
          "type": "uint256"
        }
      ],
      "name": "TooHighValue",
      "type": "error"
    },
    {
      "inputs": [
        {
          "internalType": "uint256",
          "name": "value",
          "type": "uint256"
        },
        {
          "internalType": "uint256",
          "name": "min",
          "type": "uint256"
        }
      ],
      "name": "TooLowValue",
      "type": "error"
    },
    {
      "anonymous": false,
      "inputs": [
        {
          "indexed": false,
          "internalType": "uint256",
          "name": "count",
          "type": "uint256"
        },
        {
          "indexed": false,
          "internalType": "bytes",
          "name": "performData",
          "type": "bytes"
        },
        {
          "indexed": false,
          "internalType": "uint256",
          "name": "usedGas",
          "type": "uint256"
        },
        {
          "indexed": false,
          "internalType": "uint256",
          "name": "gasPrice",
          "type": "uint256"
        }
      ],
      "name": "ProcessBatch",
      "type": "event"
    },
    {
      "anonymous": false,
      "inputs": [
        {
          "indexed": false,
          "internalType": "uint256",
          "name": "batchSize",
          "type": "uint256"
        }
      ],
      "name": "SetBatchSize",
      "type": "event"
    },
    {
      "anonymous": false,
      "inputs": [
        {
          "indexed": false,
          "internalType": "address",
          "name": "factory",
          "type": "address"
        }
      ],
      "name": "SetFactory",
      "type": "event"
    },
    {
      "anonymous": false,
      "inputs": [
        {
          "indexed": false,
          "internalType": "address",
          "name": "keeper",
          "type": "address"
        }
      ],
      "name": "SetKeeper",
      "type": "event"
    },
    {
      "anonymous": false,
      "inputs": [
        {
          "indexed": false,
          "internalType": "address",
          "name": "manager",
          "type": "address"
        }
      ],
      "name": "SetManager",
      "type": "event"
    },
    {
      "anonymous": false,
      "inputs": [
        {
          "indexed": false,
          "internalType": "uint256",
          "name": "monitorSize",
          "type": "uint256"
        }
      ],
      "name": "SetMonitorSize",
      "type": "event"
    },
    {
      "anonymous": false,
      "inputs": [
        {
          "indexed": false,
          "internalType": "uint256",
          "name": "startIndex",
          "type": "uint256"
        }
      ],
      "name": "SetStartIndex",
      "type": "event"
    },
    {
      "inputs": [],
      "name": "batchSize",
      "outputs": [
        {
          "internalType": "uint256",
          "name": "",
          "type": "uint256"
        }
      ],
      "stateMutability": "view",
      "type": "function"
    },
    {
      "inputs": [
        {
          "internalType": "bytes",
          "name": "",
          "type": "bytes"
        }
      ],
      "name": "checkUpkeep",
      "outputs": [
        {
          "internalType": "bool",
          "name": "upkeepNeeded",
          "type": "bool"
        },
        {
          "internalType": "bytes",
          "name": "performData",
          "type": "bytes"
        }
      ],
      "stateMutability": "view",
      "type": "function"
    },
    {
      "inputs": [],
      "name": "checker",
      "outputs": [
        {
          "internalType": "bool",
          "name": "canExec",
          "type": "bool"
        },
        {
          "internalType": "bytes",
          "name": "execPayload",
          "type": "bytes"
        }
      ],
      "stateMutability": "view",
      "type": "function"
    },
    {
      "inputs": [
        {
          "internalType": "address",
          "name": "_tokenIn",
          "type": "address"
        },
        {
          "internalType": "address",
          "name": "_tokenOut",
          "type": "address"
        },
        {
          "internalType": "uint256",
          "name": "_minAmountOut",
          "type": "uint256"
        },
        {
          "internalType": "bytes",
          "name": "",
          "type": "bytes"
        }
      ],
      "name": "closeCallback",
      "outputs": [],
      "stateMutability": "nonpayable",
      "type": "function"
    },
    {
      "inputs": [],
      "name": "factory",
      "outputs": [
        {
          "internalType": "address",
          "name": "",
          "type": "address"
        }
      ],
      "stateMutability": "view",
      "type": "function"
    },
    {
      "inputs": [],
      "name": "keeper",
      "outputs": [
        {
          "internalType": "address",
          "name": "",
          "type": "address"
        }
      ],
      "stateMutability": "view",
      "type": "function"
    },
    {
      "inputs": [],
      "name": "manager",
      "outputs": [
        {
          "internalType": "address",
          "name": "",
          "type": "address"
        }
      ],
      "stateMutability": "view",
      "type": "function"
    },
    {
      "inputs": [],
      "name": "monitorSize",
      "outputs": [
        {
          "internalType": "uint256",
          "name": "",
          "type": "uint256"
        }
      ],
      "stateMutability": "view",
      "type": "function"
    },
    {
      "inputs": [
        {
          "internalType": "bytes",
          "name": "_performData",
          "type": "bytes"
        }
      ],
      "name": "performUpkeep",
      "outputs": [],
      "stateMutability": "nonpayable",
      "type": "function"
    },
    {
      "inputs": [],
      "name": "positionStorage",
      "outputs": [
        {
          "internalType": "address",
          "name": "",
          "type": "address"
        }
      ],
      "stateMutability": "view",
      "type": "function"
    },
    {
      "inputs": [
        {
          "internalType": "uint256",
          "name": "_batchSize",
          "type": "uint256"
        }
      ],
      "name": "setBatchSize",
      "outputs": [],
      "stateMutability": "nonpayable",
      "type": "function"
    },
    {
      "inputs": [
        {
          "internalType": "address",
          "name": "_factory",
          "type": "address"
        }
      ],
      "name": "setFactory",
      "outputs": [],
      "stateMutability": "nonpayable",
      "type": "function"
    },
    {
      "inputs": [
        {
          "internalType": "address",
          "name": "_keeper",
          "type": "address"
        }
      ],
      "name": "setKeeper",
      "outputs": [],
      "stateMutability": "nonpayable",
      "type": "function"
    },
    {
      "inputs": [
        {
          "internalType": "address",
          "name": "_manager",
          "type": "address"
        }
      ],
      "name": "setManager",
      "outputs": [],
      "stateMutability": "nonpayable",
      "type": "function"
    },
    {
      "inputs": [
        {
          "internalType": "uint256",
          "name": "_monitorSize",
          "type": "uint256"
        }
      ],
      "name": "setMonitorSize",
      "outputs": [],
      "stateMutability": "nonpayable",
      "type": "function"
    },
    {
      "inputs": [
        {
          "internalType": "uint256",
          "name": "_startIndex",
          "type": "uint256"
        }
      ],
      "name": "setStartIndex",
      "outputs": [],
      "stateMutability": "nonpayable",
      "type": "function"
    },
    {
      "inputs": [],
      "name": "startIndex",
      "outputs": [
        {
          "internalType": "uint256",
          "name": "",
          "type": "uint256"
        }
      ],
      "stateMutability": "view",
      "type": "function"
    }
  ],
  "bytecode": "0x60806040523480156200001157600080fd5b50604051620019ae380380620019ae83398101604081905262000034916200015a565b60008054336001600160a01b0319918216179091556001805482166001600160a01b03888116919091179091556002805490921690861690811790915560408051638cd4741560e01b81529051638cd4741591600480820192602092909190829003018186803b158015620000a857600080fd5b505afa158015620000bd573d6000803e3d6000fd5b505050506040513d601f19601f82011682018060405250810190620000e3919062000135565b600380546001600160a01b0319166001600160a01b039290921691909117905560049290925560055560065550620001ad9050565b80516001600160a01b03811681146200013057600080fd5b919050565b6000602082840312156200014857600080fd5b620001538262000118565b9392505050565b600080600080600060a086880312156200017357600080fd5b6200017e8662000118565b94506200018e6020870162000118565b6040870151606088015160809098015196999198509695945092505050565b6117f180620001bd6000396000f3fe608060405234801561001057600080fd5b506004361061010b5760003560e01c8063860965c6116100a2578063c45a015511610071578063c45a01551461021b578063cf5303cf1461022e578063d0ebdbe714610236578063e761f9dc14610249578063f4daaba11461025c57600080fd5b8063860965c6146101d95780638cd47415146101e25780639bb0dafa146101f5578063aced16611461020857600080fd5b80635bb47808116100de5780635bb478081461017f5780635ff7d9d5146101925780636e04ff0d146101a5578063748747e6146101c657600080fd5b80633e0e828b146101105780634585e33b1461012c578063481c6a7514610141578063576f35e31461016c575b600080fd5b61011960065481565b6040519081526020015b60405180910390f35b61013f61013a3660046113b9565b610265565b005b600054610154906001600160a01b031681565b6040516001600160a01b039091168152602001610123565b61013f61017a3660046114e9565b610470565b61013f61018d36600461121e565b61050f565b61013f6101a03660046114e9565b610616565b6101b86101b33660046113b9565b610678565b6040516101239291906115c2565b61013f6101d436600461121e565b610908565b61011960055481565b600354610154906001600160a01b031681565b61013f6102033660046114e9565b610983565b600154610154906001600160a01b031681565b600254610154906001600160a01b031681565b6101b8610a13565b61013f61024436600461121e565b610cd8565b61013f61025736600461125f565b610d53565b61011960045481565b6003546001600160a01b031660005a9050600080610285858701876112d2565b9150915060005b8181101561041e576000856001600160a01b031663957d1fe18584815181106102b7576102b7611777565b60200260200101516040518263ffffffff1660e01b81526004016102dd91815260200190565b6103406040518083038186803b1580156102f657600080fd5b505afa15801561030a573d6000803e3d6000fd5b505050506040513d601f19601f8201168201806040525081019061032e91906113fb565b905080604001516001600160a01b031663fba0c814604051806080016040528084600001518152602001600067ffffffffffffffff8111156103725761037261178d565b6040519080825280601f01601f19166020018201604052801561039c576020820181803683370190505b50815260408051600081526020808201835283015230918101919091525160e083901b6001600160e01b03191681526103d891906004016115f8565b600060405180830381600087803b1580156103f257600080fd5b505af1158015610406573d6000803e3d6000fd5b5050505050808061041690611746565b91505061028c565b507fd1d8c94a101352389a2fadcdc79eb2ec660d64769f14a1e89c50c6d22225ce8b8187875a61044e90886116ff565b3a60405161046095949392919061165d565b60405180910390a1505050505050565b6000546001600160a01b031633146104a25760405163a59d7f4d60e01b81523360048201526024015b60405180910390fd5b6005548111156104d357600554604051637150bba160e01b8152610499918391600401918252602082015260400190565b60048190556040518181527fe7589087ca18f0ad76e3a457747806de5e2432f4285837617205c045ba950fb6906020015b60405180910390a150565b6000546001600160a01b0316331461053c5760405163a59d7f4d60e01b8152336004820152602401610499565b600280546001600160a01b0319166001600160a01b03831690811790915560408051638cd4741560e01b81529051638cd4741591600480820192602092909190829003018186803b15801561059057600080fd5b505afa1580156105a4573d6000803e3d6000fd5b505050506040513d601f19601f820116820180604052508101906105c89190611242565b600380546001600160a01b0319166001600160a01b0392831617905560405190821681527f1c893ef9379093af30f458b9e74d2aba13c499660b68dec5e29af7b199c188b990602001610504565b6000546001600160a01b031633146106435760405163a59d7f4d60e01b8152336004820152602401610499565b60068190556040518181527ffb0b2459ef0b436ea50d577db242217edfa1e86a7404361aaae9b6bb406b7e2f90602001610504565b6003546004546000916060916001600160a01b0390911690839067ffffffffffffffff8111156106aa576106aa61178d565b6040519080825280602002602001820160405280156106d3578160200160208202803683370190505b5090506000806000846001600160a01b031663539826a66040518163ffffffff1660e01b815260040160206040518083038186803b15801561071457600080fd5b505afa158015610728573d6000803e3d6000fd5b505050506040513d601f19601f8201168201806040525081019061074c91906113a0565b90508060065410156108cd576006545b818110156108cb57604051632895a2b360e01b8152600481018290526000906001600160a01b03881690632895a2b39060240160206040518083038186803b1580156107a757600080fd5b505afa1580156107bb573d6000803e3d6000fd5b505050506040513d601f19601f820116820180604052508101906107df91906113a0565b604051630c3742a160e31b8152600481018290529091506001600160a01b038816906361ba15089060240160206040518083038186803b15801561082257600080fd5b505afa158015610836573d6000803e3d6000fd5b505050506040513d601f19601f8201168201806040525081019061085a9190611385565b1561088b578086868151811061087257610872611777565b60209081029190910101528461088781611746565b9550505b8361089581611746565b9450506005548414156108a857506108cb565b6004548514156108b857506108cb565b50806108c381611746565b91505061075c565b505b8215801597506108fc5783836040516020016108ea92919061157a565b60405160208183030381529060405295505b50505050509250929050565b6000546001600160a01b031633146109355760405163a59d7f4d60e01b8152336004820152602401610499565b600180546001600160a01b0319166001600160a01b0383169081179091556040519081527fefb5cfa1a8690c124332ab93324539c5c9c4be03f28aeb8be86f2d8a0c9fb99b90602001610504565b6000546001600160a01b031633146109b05760405163a59d7f4d60e01b8152336004820152602401610499565b6004548110156109de576004805460405163102a6c2760e01b81529182018390526024820152604401610499565b60058190556040518181527f8f7e75c44358384d270505281bef6ad973e53b3785b6d722c4f279f1521d156090602001610504565b6003546004546000916060916001600160a01b0390911690839067ffffffffffffffff811115610a4557610a4561178d565b604051908082528060200260200182016040528015610a6e578160200160208202803683370190505b5090506000806000846001600160a01b031663539826a66040518163ffffffff1660e01b815260040160206040518083038186803b158015610aaf57600080fd5b505afa158015610ac3573d6000803e3d6000fd5b505050506040513d601f19601f82011682018060405250810190610ae791906113a0565b9050806006541015610c68576006545b81811015610c6657604051632895a2b360e01b8152600481018290526000906001600160a01b03881690632895a2b39060240160206040518083038186803b158015610b4257600080fd5b505afa158015610b56573d6000803e3d6000fd5b505050506040513d601f19601f82011682018060405250810190610b7a91906113a0565b604051630c3742a160e31b8152600481018290529091506001600160a01b038816906361ba15089060240160206040518083038186803b158015610bbd57600080fd5b505afa158015610bd1573d6000803e3d6000fd5b505050506040513d601f19601f82011682018060405250810190610bf59190611385565b15610c265780868681518110610c0d57610c0d611777565b602090810291909101015284610c2281611746565b9550505b83610c3081611746565b945050600554841415610c435750610c66565b600454851415610c535750610c66565b5080610c5e81611746565b915050610af7565b505b821580159750610ccf578383604051602001610c8592919061157a565b60408051601f1981840301815290829052610ca2916024016115e5565b60408051601f198184030181529190526020810180516001600160e01b0316634585e33b60e01b17905295505b50505050509091565b6000546001600160a01b03163314610d055760405163a59d7f4d60e01b8152336004820152602401610499565b600080546001600160a01b0319166001600160a01b0383169081179091556040519081527f54a6385aa0292b04e1ef8513253c17d1863f7cdfc87029d77fd55cc4c2e717e290602001610504565b600254604080516303e10eaf60e51b815290516000926001600160a01b031691637c21d5e0916004808301926020929190829003018186803b158015610d9857600080fd5b505afa158015610dac573d6000803e3d6000fd5b505050506040513d601f19601f82011682018060405250810190610dd09190611242565b6040516370a0823160e01b81523060048201529091506000906001600160a01b038816906370a082319060240160206040518083038186803b158015610e1557600080fd5b505afa158015610e29573d6000803e3d6000fd5b505050506040513d601f19601f82011682018060405250810190610e4d91906113a0565b9050610e5a878383610f2e565b604051630ceffb5960e31b81526000600482018190526001600160a01b03898116602484015288811660448401526064830188905230608484015290919084169063677fdac89060a4016040805180830381600087803b158015610ebd57600080fd5b505af1158015610ed1573d6000803e3d6000fd5b505050506040513d601f19601f82011682018060405250810190610ef59190611502565b50905085811015610f195760405163bb2875c360e01b815260040160405180910390fd5b610f24873383610f2e565b5050505050505050565b604080516001600160a01b038481166024830152604480830185905283518084039091018152606490920183526020820180516001600160e01b031663a9059cbb60e01b1790529151600092839290871691610f8a919061155e565b6000604051808303816000865af19150503d8060008114610fc7576040519150601f19603f3d011682016040523d82523d6000602084013e610fcc565b606091505b5091509150818015610ff6575080511580610ff6575080806020019051810190610ff69190611385565b6110585760405162461bcd60e51b815260206004820152602d60248201527f5472616e7366657248656c7065723a3a736166655472616e736665723a20747260448201526c185b9cd9995c8819985a5b1959609a1b6064820152608401610499565b5050505050565b805161106a816117a3565b919050565b8051801515811461106a57600080fd5b60008083601f84011261109157600080fd5b50813567ffffffffffffffff8111156110a957600080fd5b6020830191508360208285010111156110c157600080fd5b9250929050565b600060a082840312156110da57600080fd5b60405160a0810181811067ffffffffffffffff821117156110fd576110fd61178d565b80604052508091508251611110816117a3565b80825250602083015160208201526040830151604082015260608301516060820152608083015160808201525092915050565b60006040828403121561115557600080fd5b6040516040810181811067ffffffffffffffff821117156111785761117861178d565b8060405250809150825161118b816117a3565b8152602092830151920191909152919050565b6000608082840312156111b057600080fd5b6040516080810181811067ffffffffffffffff821117156111d3576111d361178d565b6040529050806111e28361106f565b81526111f06020840161106f565b60208201526112016040840161106f565b60408201526112126060840161106f565b60608201525092915050565b60006020828403121561123057600080fd5b813561123b816117a3565b9392505050565b60006020828403121561125457600080fd5b815161123b816117a3565b60008060008060006080868803121561127757600080fd5b8535611282816117a3565b94506020860135611292816117a3565b935060408601359250606086013567ffffffffffffffff8111156112b557600080fd5b6112c18882890161107f565b969995985093965092949392505050565b600080604083850312156112e557600080fd5b823567ffffffffffffffff808211156112fd57600080fd5b818501915085601f83011261131157600080fd5b81356020828211156113255761132561178d565b8160051b92506113368184016116ce565b8281528181019085830185870184018b101561135157600080fd5b600096505b84871015611374578035835260019690960195918301918301611356565b509997909101359750505050505050565b60006020828403121561139757600080fd5b61123b8261106f565b6000602082840312156113b257600080fd5b5051919050565b600080602083850312156113cc57600080fd5b823567ffffffffffffffff8111156113e357600080fd5b6113ef8582860161107f565b90969095509350505050565b6000610340828403121561140e57600080fd5b6114166116a4565b825181526114266020840161105f565b60208201526114376040840161105f565b604082015261144984606085016110c8565b606082015261010061145d85828601611143565b6080830152610140611471868287016110c8565b60a08401526101e085015160c084015261020085015160e0840152610220850151828401526102408501516101208401526102608501518184015250506114bc84610280850161119e565b6101608201526114cf610300840161105f565b61018082015261032092909201516101a083015250919050565b6000602082840312156114fb57600080fd5b5035919050565b6000806040838503121561151557600080fd5b825191506020830151611527816117a3565b809150509250929050565b6000815180845261154a816020860160208601611716565b601f01601f19169290920160200192915050565b60008251611570818460208701611716565b9190910192915050565b604080825283519082018190526000906020906060840190828701845b828110156115b357815184529284019290840190600101611597565b50505092019290925292915050565b82151581526040602082015260006115dd6040830184611532565b949350505050565b60208152600061123b6020830184611532565b6020815281516020820152600060208301516080604084015261161e60a0840182611532565b90506040840151601f1984830301606085015261163b8282611532565b606095909501516001600160a01b031660809490940193909352509192915050565b85815260806020820152836080820152838560a0830137600060a08583010152600060a0601f19601f87011683010190508360408301528260608301529695505050505050565b6040516101c0810167ffffffffffffffff811182821017156116c8576116c861178d565b60405290565b604051601f8201601f1916810167ffffffffffffffff811182821017156116f7576116f761178d565b604052919050565b60008282101561171157611711611761565b500390565b60005b83811015611731578181015183820152602001611719565b83811115611740576000848401525b50505050565b600060001982141561175a5761175a611761565b5060010190565b634e487b7160e01b600052601160045260246000fd5b634e487b7160e01b600052603260045260246000fd5b634e487b7160e01b600052604160045260246000fd5b6001600160a01b03811681146117b857600080fd5b5056fea2646970667358221220d2911ee34f43b5d1b3ed575abfba60c53db43be3faccbeddb835bdfcdf86cd8c64736f6c63430008070033",
  "linkReferences": {},
  "deployedLinkReferences": {}
}