{
  "_format": "hh-sol-artifact-1",
  "contractName": "Monitor",
  "sourceName": "contracts/Monitor.sol",
  "abi": [
    {
      "inputs": [
        {
          "internalType": "address",
          "name": "_keeper",
          "type": "address"
        },
        {
          "internalType": "address",
          "name": "_factory",
          "type": "address"
        },
        {
          "internalType": "uint256",
          "name": "_batchSize",
          "type": "uint256"
        },
        {
          "internalType": "uint256",
          "name": "_monitorSize",
          "type": "uint256"
        },
        {
          "internalType": "uint256",
          "name": "_startIndex",
          "type": "uint256"
        }
      ],
      "stateMutability": "nonpayable",
      "type": "constructor"
    },
    {
      "inputs": [
        {
          "internalType": "address",
          "name": "sender",
          "type": "address"
        }
      ],
      "name": "Forbidden",
      "type": "error"
    },
    {
      "inputs": [
        {
          "internalType": "uint256",
          "name": "value",
          "type": "uint256"
        },
        {
          "internalType": "uint256",
          "name": "max",
          "type": "uint256"
        }
      ],
      "name": "TooHighValue",
      "type": "error"
    },
    {
      "inputs": [
        {
          "internalType": "uint256",
          "name": "value",
          "type": "uint256"
        },
        {
          "internalType": "uint256",
          "name": "min",
          "type": "uint256"
        }
      ],
      "name": "TooLowValue",
      "type": "error"
    },
    {
      "anonymous": false,
      "inputs": [
        {
          "indexed": false,
          "internalType": "uint256",
          "name": "count",
          "type": "uint256"
        },
        {
          "indexed": false,
          "internalType": "bytes",
          "name": "performData",
          "type": "bytes"
        },
        {
          "indexed": false,
          "internalType": "uint256",
          "name": "usedGas",
          "type": "uint256"
        },
        {
          "indexed": false,
          "internalType": "uint256",
          "name": "gasPrice",
          "type": "uint256"
        }
      ],
      "name": "ProcessBatch",
      "type": "event"
    },
    {
      "anonymous": false,
      "inputs": [
        {
          "indexed": false,
          "internalType": "uint256",
          "name": "batchSize",
          "type": "uint256"
        }
      ],
      "name": "SetBatchSize",
      "type": "event"
    },
    {
      "anonymous": false,
      "inputs": [
        {
          "indexed": false,
          "internalType": "address",
          "name": "factory",
          "type": "address"
        }
      ],
      "name": "SetFactory",
      "type": "event"
    },
    {
      "anonymous": false,
      "inputs": [
        {
          "indexed": false,
          "internalType": "address",
          "name": "keeper",
          "type": "address"
        }
      ],
      "name": "SetKeeper",
      "type": "event"
    },
    {
      "anonymous": false,
      "inputs": [
        {
          "indexed": false,
          "internalType": "address",
          "name": "manager",
          "type": "address"
        }
      ],
      "name": "SetManager",
      "type": "event"
    },
    {
      "anonymous": false,
      "inputs": [
        {
          "indexed": false,
          "internalType": "uint256",
          "name": "monitorSize",
          "type": "uint256"
        }
      ],
      "name": "SetMonitorSize",
      "type": "event"
    },
    {
      "anonymous": false,
      "inputs": [
        {
          "indexed": false,
          "internalType": "uint256",
          "name": "startIndex",
          "type": "uint256"
        }
      ],
      "name": "SetStartIndex",
      "type": "event"
    },
    {
      "inputs": [],
      "name": "batchSize",
      "outputs": [
        {
          "internalType": "uint256",
          "name": "",
          "type": "uint256"
        }
      ],
      "stateMutability": "view",
      "type": "function"
    },
    {
      "inputs": [
        {
          "internalType": "bytes",
          "name": "",
          "type": "bytes"
        }
      ],
      "name": "checkUpkeep",
      "outputs": [
        {
          "internalType": "bool",
          "name": "upkeepNeeded",
          "type": "bool"
        },
        {
          "internalType": "bytes",
          "name": "performData",
          "type": "bytes"
        }
      ],
      "stateMutability": "view",
      "type": "function"
    },
    {
      "inputs": [],
      "name": "checker",
      "outputs": [
        {
          "internalType": "bool",
          "name": "canExec",
          "type": "bool"
        },
        {
          "internalType": "bytes",
          "name": "execPayload",
          "type": "bytes"
        }
      ],
      "stateMutability": "view",
      "type": "function"
    },
    {
      "inputs": [
        {
          "internalType": "address",
          "name": "_tokenIn",
          "type": "address"
        },
        {
          "internalType": "address",
          "name": "_tokenOut",
          "type": "address"
        },
        {
          "internalType": "uint256",
          "name": "_amountOut",
          "type": "uint256"
        },
        {
          "internalType": "bytes",
          "name": "",
          "type": "bytes"
        }
      ],
      "name": "closeCallback",
      "outputs": [],
      "stateMutability": "nonpayable",
      "type": "function"
    },
    {
      "inputs": [],
      "name": "factory",
      "outputs": [
        {
          "internalType": "address",
          "name": "",
          "type": "address"
        }
      ],
      "stateMutability": "view",
      "type": "function"
    },
    {
      "inputs": [],
      "name": "keeper",
      "outputs": [
        {
          "internalType": "address",
          "name": "",
          "type": "address"
        }
      ],
      "stateMutability": "view",
      "type": "function"
    },
    {
      "inputs": [],
      "name": "manager",
      "outputs": [
        {
          "internalType": "address",
          "name": "",
          "type": "address"
        }
      ],
      "stateMutability": "view",
      "type": "function"
    },
    {
      "inputs": [],
      "name": "monitorSize",
      "outputs": [
        {
          "internalType": "uint256",
          "name": "",
          "type": "uint256"
        }
      ],
      "stateMutability": "view",
      "type": "function"
    },
    {
      "inputs": [
        {
          "internalType": "bytes",
          "name": "_performData",
          "type": "bytes"
        }
      ],
      "name": "performUpkeep",
      "outputs": [],
      "stateMutability": "nonpayable",
      "type": "function"
    },
    {
      "inputs": [
        {
          "internalType": "uint256",
          "name": "_batchSize",
          "type": "uint256"
        }
      ],
      "name": "setBatchSize",
      "outputs": [],
      "stateMutability": "nonpayable",
      "type": "function"
    },
    {
      "inputs": [
        {
          "internalType": "address",
          "name": "_factory",
          "type": "address"
        }
      ],
      "name": "setFactory",
      "outputs": [],
      "stateMutability": "nonpayable",
      "type": "function"
    },
    {
      "inputs": [
        {
          "internalType": "address",
          "name": "_keeper",
          "type": "address"
        }
      ],
      "name": "setKeeper",
      "outputs": [],
      "stateMutability": "nonpayable",
      "type": "function"
    },
    {
      "inputs": [
        {
          "internalType": "address",
          "name": "_manager",
          "type": "address"
        }
      ],
      "name": "setManager",
      "outputs": [],
      "stateMutability": "nonpayable",
      "type": "function"
    },
    {
      "inputs": [
        {
          "internalType": "uint256",
          "name": "_monitorSize",
          "type": "uint256"
        }
      ],
      "name": "setMonitorSize",
      "outputs": [],
      "stateMutability": "nonpayable",
      "type": "function"
    },
    {
      "inputs": [
        {
          "internalType": "uint256",
          "name": "_startIndex",
          "type": "uint256"
        }
      ],
      "name": "setStartIndex",
      "outputs": [],
      "stateMutability": "nonpayable",
      "type": "function"
    },
    {
      "inputs": [],
      "name": "startIndex",
      "outputs": [
        {
          "internalType": "uint256",
          "name": "",
          "type": "uint256"
        }
      ],
      "stateMutability": "view",
      "type": "function"
    }
  ],
  "bytecode": "0x60806040523480156200001157600080fd5b5060405162001b6938038062001b6983398101604081905262000034916200009e565b600080546001600160a01b03199081163317909155600180546001600160a01b039788169083161790556002805495909616941693909317909355600355600491909155600555620000f1565b80516001600160a01b03811681146200009957600080fd5b919050565b600080600080600060a08688031215620000b757600080fd5b620000c28662000081565b9450620000d26020870162000081565b6040870151606088015160809098015196999198509695945092505050565b611a6880620001016000396000f3fe608060405234801561001057600080fd5b50600436106101005760003560e01c8063860965c611610097578063cf5303cf11610066578063cf5303cf14610210578063d0ebdbe714610218578063e761f9dc1461022b578063f4daaba11461023e57600080fd5b8063860965c6146101ce5780639bb0dafa146101d7578063aced1661146101ea578063c45a0155146101fd57600080fd5b80635bb47808116100d35780635bb47808146101745780635ff7d9d5146101875780636e04ff0d1461019a578063748747e6146101bb57600080fd5b80633e0e828b146101055780634585e33b14610121578063481c6a7514610136578063576f35e314610161575b600080fd5b61010e60055481565b6040519081526020015b60405180910390f35b61013461012f36600461163d565b610247565b005b600054610149906001600160a01b031681565b6040516001600160a01b039091168152602001610118565b61013461016f366004611760565b610558565b6101346101823660046114a2565b6105f4565b610134610195366004611760565b61066f565b6101ad6101a836600461163d565b6106d1565b604051610118929190611839565b6101346101c93660046114a2565b6109d0565b61010e60045481565b6101346101e5366004611760565b610a4b565b600154610149906001600160a01b031681565b600254610149906001600160a01b031681565b6101ad610ade565b6101346102263660046114a2565b610e12565b6101346102393660046114e3565b610e8d565b61010e60035481565b60025460408051638cd4741560e01b815290516000926001600160a01b031691638cd47415916004808301926020929190829003018186803b15801561028c57600080fd5b505afa1580156102a0573d6000803e3d6000fd5b505050506040513d601f19601f820116820180604052508101906102c491906114c6565b905060005a90506000806102da85870187611556565b9150915060005b81811015610506576000856001600160a01b031663f7a5f25485848151811061030c5761030c6119ee565b60200260200101516040518263ffffffff1660e01b815260040161033291815260200190565b60206040518083038186803b15801561034a57600080fd5b505afa15801561035e573d6000803e3d6000fd5b505050506040513d601f19601f820116820180604052508101906103829190611624565b905080156104f35760006001600160a01b03871663f7a95a9e6103a6600185611976565b6040518263ffffffff1660e01b81526004016103c491815260200190565b6103a06040518083038186803b1580156103dd57600080fd5b505afa1580156103f1573d6000803e3d6000fd5b505050506040513d601f19601f82011682018060405250810190610415919061167f565b905080604001516001600160a01b031663fba0c814604051806080016040528084600001518152602001600067ffffffffffffffff81111561045957610459611a04565b6040519080825280601f01601f191660200182016040528015610483576020820181803683370190505b50815260408051600081526020808201835283015230918101919091525160e083901b6001600160e01b03191681526104bf919060040161186f565b600060405180830381600087803b1580156104d957600080fd5b505af11580156104ed573d6000803e3d6000fd5b50505050505b50806104fe816119bd565b9150506102e1565b507fd1d8c94a101352389a2fadcdc79eb2ec660d64769f14a1e89c50c6d22225ce8b8187875a6105369088611976565b3a6040516105489594939291906118d4565b60405180910390a1505050505050565b6000546001600160a01b0316331461058a5760405163a59d7f4d60e01b81523360048201526024015b60405180910390fd5b6004548111156105b85760048054604051637150bba160e01b81529182018390526024820152604401610581565b60038190556040518181527fe7589087ca18f0ad76e3a457747806de5e2432f4285837617205c045ba950fb6906020015b60405180910390a150565b6000546001600160a01b031633146106215760405163a59d7f4d60e01b8152336004820152602401610581565b600280546001600160a01b0319166001600160a01b0383169081179091556040519081527f1c893ef9379093af30f458b9e74d2aba13c499660b68dec5e29af7b199c188b9906020016105e9565b6000546001600160a01b0316331461069c5760405163a59d7f4d60e01b8152336004820152602401610581565b60058190556040518181527ffb0b2459ef0b436ea50d577db242217edfa1e86a7404361aaae9b6bb406b7e2f906020016105e9565b600060606000600260009054906101000a90046001600160a01b03166001600160a01b0316638cd474156040518163ffffffff1660e01b815260040160206040518083038186803b15801561072557600080fd5b505afa158015610739573d6000803e3d6000fd5b505050506040513d601f19601f8201168201806040525081019061075d91906114c6565b9050600060035467ffffffffffffffff81111561077c5761077c611a04565b6040519080825280602002602001820160405280156107a5578160200160208202803683370190505b5090506000806000846001600160a01b031663a827acf56040518163ffffffff1660e01b815260040160206040518083038186803b1580156107e657600080fd5b505afa1580156107fa573d6000803e3d6000fd5b505050506040513d601f19601f8201168201806040525081019061081e9190611624565b6005549091505b818110156109945760405163da23479f60e01b8152600481018290526000906001600160a01b0388169063da23479f9060240160206040518083038186803b15801561087057600080fd5b505afa158015610884573d6000803e3d6000fd5b505050506040513d601f19601f820116820180604052508101906108a89190611624565b604051630c3742a160e31b8152600481018290529091506001600160a01b038816906361ba15089060240160206040518083038186803b1580156108eb57600080fd5b505afa1580156108ff573d6000803e3d6000fd5b505050506040513d601f19601f820116820180604052508101906109239190611609565b15610954578086868151811061093b5761093b6119ee565b602090810291909101015284610950816119bd565b9550505b8361095e816119bd565b9450506004548414156109715750610994565b6003548514156109815750610994565b508061098c816119bd565b915050610825565b508215801597506109c45783836040516020016109b29291906117f1565b60405160208183030381529060405295505b50505050509250929050565b6000546001600160a01b031633146109fd5760405163a59d7f4d60e01b8152336004820152602401610581565b600180546001600160a01b0319166001600160a01b0383169081179091556040519081527fefb5cfa1a8690c124332ab93324539c5c9c4be03f28aeb8be86f2d8a0c9fb99b906020016105e9565b6000546001600160a01b03163314610a785760405163a59d7f4d60e01b8152336004820152602401610581565b600354811015610aa95760035460405163102a6c2760e01b8152610581918391600401918252602082015260400190565b60048190556040518181527f8f7e75c44358384d270505281bef6ad973e53b3785b6d722c4f279f1521d1560906020016105e9565b600060606000600260009054906101000a90046001600160a01b03166001600160a01b0316638cd474156040518163ffffffff1660e01b815260040160206040518083038186803b158015610b3257600080fd5b505afa158015610b46573d6000803e3d6000fd5b505050506040513d601f19601f82011682018060405250810190610b6a91906114c6565b9050600060035467ffffffffffffffff811115610b8957610b89611a04565b604051908082528060200260200182016040528015610bb2578160200160208202803683370190505b5090506000806000846001600160a01b031663a827acf56040518163ffffffff1660e01b815260040160206040518083038186803b158015610bf357600080fd5b505afa158015610c07573d6000803e3d6000fd5b505050506040513d601f19601f82011682018060405250810190610c2b9190611624565b6005549091505b81811015610da15760405163da23479f60e01b8152600481018290526000906001600160a01b0388169063da23479f9060240160206040518083038186803b158015610c7d57600080fd5b505afa158015610c91573d6000803e3d6000fd5b505050506040513d601f19601f82011682018060405250810190610cb59190611624565b604051630c3742a160e31b8152600481018290529091506001600160a01b038816906361ba15089060240160206040518083038186803b158015610cf857600080fd5b505afa158015610d0c573d6000803e3d6000fd5b505050506040513d601f19601f82011682018060405250810190610d309190611609565b15610d615780868681518110610d4857610d486119ee565b602090810291909101015284610d5d816119bd565b9550505b83610d6b816119bd565b945050600454841415610d7e5750610da1565b600354851415610d8e5750610da1565b5080610d99816119bd565b915050610c32565b50821580159750610e09578383604051602001610dbf9291906117f1565b60408051601f1981840301815290829052610ddc9160240161185c565b60408051601f198184030181529190526020810180516001600160e01b0316634585e33b60e01b17905295505b50505050509091565b6000546001600160a01b03163314610e3f5760405163a59d7f4d60e01b8152336004820152602401610581565b600080546001600160a01b0319166001600160a01b0383169081179091556040519081527f54a6385aa0292b04e1ef8513253c17d1863f7cdfc87029d77fd55cc4c2e717e2906020016105e9565b600254604080516303e10eaf60e51b815290516000926001600160a01b031691637c21d5e0916004808301926020929190829003018186803b158015610ed257600080fd5b505afa158015610ee6573d6000803e3d6000fd5b505050506040513d601f19601f82011682018060405250810190610f0a91906114c6565b6040516370a0823160e01b81523060048201529091506000906001600160a01b038816906370a082319060240160206040518083038186803b158015610f4f57600080fd5b505afa158015610f63573d6000803e3d6000fd5b505050506040513d601f19601f82011682018060405250810190610f879190611624565b9050610f9487838361116a565b604051630ceffb5960e31b8152600060048201526001600160a01b03888116602483015287811660448301526064820187905230608483015283169063677fdac89060a4016040805180830381600087803b158015610ff257600080fd5b505af1158015611006573d6000803e3d6000fd5b505050506040513d601f19601f8201168201806040525081019061102a9190611779565b505061103786338761116a565b6040516370a0823160e01b81523060048201526000906001600160a01b038816906370a082319060240160206040518083038186803b15801561107957600080fd5b505afa15801561108d573d6000803e3d6000fd5b505050506040513d601f19601f820116820180604052508101906110b19190611624565b90508015611160576110c487848361116a565b604051630ceffb5960e31b81526000600482018190526001600160a01b0389811660248401528a81166044840152606483019190915233608483015284169063677fdac89060a4016040805180830381600087803b15801561112557600080fd5b505af1158015611139573d6000803e3d6000fd5b505050506040513d601f19601f8201168201806040525081019061115d9190611779565b50505b5050505050505050565b604080516001600160a01b038481166024830152604480830185905283518084039091018152606490920183526020820180516001600160e01b031663a9059cbb60e01b17905291516000928392908716916111c691906117d5565b6000604051808303816000865af19150503d8060008114611203576040519150601f19603f3d011682016040523d82523d6000602084013e611208565b606091505b50915091508180156112325750805115806112325750808060200190518101906112329190611609565b6112945760405162461bcd60e51b815260206004820152602d60248201527f5472616e7366657248656c7065723a3a736166655472616e736665723a20747260448201526c185b9cd9995c8819985a5b1959609a1b6064820152608401610581565b5050505050565b80516112a681611a1a565b919050565b805180151581146112a657600080fd5b60008083601f8401126112cd57600080fd5b50813567ffffffffffffffff8111156112e557600080fd5b6020830191508360208285010111156112fd57600080fd5b9250929050565b600060a0828403121561131657600080fd5b60405160a0810181811067ffffffffffffffff8211171561133957611339611a04565b8060405250809150825161134c81611a1a565b80825250602083015160208201526040830151604082015260608301516060820152608083015160808201525092915050565b60006040828403121561139157600080fd5b6040516040810181811067ffffffffffffffff821117156113b4576113b4611a04565b806040525080915082516113c781611a1a565b8152602092830151920191909152919050565b60006101008083850312156113ee57600080fd5b6040519081019067ffffffffffffffff8211818310171561141157611411611a04565b81604052809250611421846112ab565b815261142f602085016112ab565b6020820152611440604085016112ab565b6040820152611451606085016112ab565b6060820152611462608085016112ab565b608082015261147360a085016112ab565b60a082015261148460c085016112ab565b60c082015261149560e085016112ab565b60e0820152505092915050565b6000602082840312156114b457600080fd5b81356114bf81611a1a565b9392505050565b6000602082840312156114d857600080fd5b81516114bf81611a1a565b6000806000806000608086880312156114fb57600080fd5b853561150681611a1a565b9450602086013561151681611a1a565b935060408601359250606086013567ffffffffffffffff81111561153957600080fd5b611545888289016112bb565b969995985093965092949392505050565b6000806040838503121561156957600080fd5b823567ffffffffffffffff8082111561158157600080fd5b818501915085601f83011261159557600080fd5b81356020828211156115a9576115a9611a04565b8160051b92506115ba818401611945565b8281528181019085830185870184018b10156115d557600080fd5b600096505b848710156115f85780358352600196909601959183019183016115da565b509997909101359750505050505050565b60006020828403121561161b57600080fd5b6114bf826112ab565b60006020828403121561163657600080fd5b5051919050565b6000806020838503121561165057600080fd5b823567ffffffffffffffff81111561166757600080fd5b611673858286016112bb565b90969095509350505050565b60006103a0828403121561169257600080fd5b61169a61191b565b825181526116aa6020840161129b565b60208201526116bb6040840161129b565b60408201526116cd8460608501611304565b60608201526101006116e18582860161137f565b60808301526101406116f586828701611304565b60a08401526101e085015160c084015261020085015160e0840152610220850151828401526102408501516101208401526117348661026087016113da565b9083015250611746610360840161129b565b610160820152610380929092015161018083015250919050565b60006020828403121561177257600080fd5b5035919050565b6000806040838503121561178c57600080fd5b82519150602083015161179e81611a1a565b809150509250929050565b600081518084526117c181602086016020860161198d565b601f01601f19169290920160200192915050565b600082516117e781846020870161198d565b9190910192915050565b604080825283519082018190526000906020906060840190828701845b8281101561182a5781518452928401929084019060010161180e565b50505092019290925292915050565b821515815260406020820152600061185460408301846117a9565b949350505050565b6020815260006114bf60208301846117a9565b6020815281516020820152600060208301516080604084015261189560a08401826117a9565b90506040840151601f198483030160608501526118b282826117a9565b606095909501516001600160a01b031660809490940193909352509192915050565b85815260806020820152836080820152838560a0830137600060a08583010152600060a0601f19601f87011683010190508360408301528260608301529695505050505050565b6040516101a0810167ffffffffffffffff8111828210171561193f5761193f611a04565b60405290565b604051601f8201601f1916810167ffffffffffffffff8111828210171561196e5761196e611a04565b604052919050565b600082821015611988576119886119d8565b500390565b60005b838110156119a8578181015183820152602001611990565b838111156119b7576000848401525b50505050565b60006000198214156119d1576119d16119d8565b5060010190565b634e487b7160e01b600052601160045260246000fd5b634e487b7160e01b600052603260045260246000fd5b634e487b7160e01b600052604160045260246000fd5b6001600160a01b0381168114611a2f57600080fd5b5056fea26469706673582212204d80baf08add58394165279529f94c14bf2b5d88bdfc32c5103d1defaf8644e764736f6c63430008070033",
  "linkReferences": {},
  "deployedLinkReferences": {}
}