{
  "_format": "hh-sol-artifact-1",
  "contractName": "Router",
  "sourceName": "contracts/Router.sol",
  "abi": [
    {
      "inputs": [
        {
          "internalType": "address",
          "name": "_factory",
          "type": "address"
        },
        {
          "internalType": "address",
          "name": "_WETH",
          "type": "address"
        }
      ],
      "stateMutability": "nonpayable",
      "type": "constructor"
    },
    {
      "inputs": [
        {
          "internalType": "address",
          "name": "sender",
          "type": "address"
        }
      ],
      "name": "Forbidden",
      "type": "error"
    },
    {
      "inputs": [],
      "name": "InsufficientInput",
      "type": "error"
    },
    {
      "inputs": [],
      "name": "InsufficientOutput",
      "type": "error"
    },
    {
      "inputs": [],
      "name": "InvalidParameters",
      "type": "error"
    },
    {
      "inputs": [
        {
          "internalType": "address",
          "name": "pool",
          "type": "address"
        }
      ],
      "name": "InvalidPool",
      "type": "error"
    },
    {
      "inputs": [],
      "name": "TransactionTooOld",
      "type": "error"
    },
    {
      "inputs": [],
      "name": "ZeroAddress",
      "type": "error"
    },
    {
      "anonymous": false,
      "inputs": [
        {
          "indexed": false,
          "internalType": "address",
          "name": "manager",
          "type": "address"
        }
      ],
      "name": "SetManager",
      "type": "event"
    },
    {
      "anonymous": false,
      "inputs": [
        {
          "indexed": false,
          "internalType": "address",
          "name": "manager",
          "type": "address"
        }
      ],
      "name": "SetMetaAggregator",
      "type": "event"
    },
    {
      "inputs": [],
      "name": "WETH",
      "outputs": [
        {
          "internalType": "address",
          "name": "",
          "type": "address"
        }
      ],
      "stateMutability": "view",
      "type": "function"
    },
    {
      "inputs": [
        {
          "components": [
            {
              "internalType": "address",
              "name": "pool",
              "type": "address"
            },
            {
              "internalType": "bytes32",
              "name": "positionKey",
              "type": "bytes32"
            },
            {
              "internalType": "bytes",
              "name": "data0",
              "type": "bytes"
            },
            {
              "internalType": "bytes",
              "name": "data1",
              "type": "bytes"
            },
            {
              "internalType": "uint256",
              "name": "txDeadline",
              "type": "uint256"
            }
          ],
          "internalType": "struct IRouter.CloseTradePositionParams",
          "name": "_params",
          "type": "tuple"
        }
      ],
      "name": "close",
      "outputs": [],
      "stateMutability": "nonpayable",
      "type": "function"
    },
    {
      "inputs": [
        {
          "internalType": "address",
          "name": "_tokenIn",
          "type": "address"
        },
        {
          "internalType": "address",
          "name": "_tokenOut",
          "type": "address"
        },
        {
          "internalType": "uint256",
          "name": "_minAmountOut",
          "type": "uint256"
        },
        {
          "internalType": "bytes",
          "name": "_data",
          "type": "bytes"
        }
      ],
      "name": "closeCallback",
      "outputs": [],
      "stateMutability": "nonpayable",
      "type": "function"
    },
    {
      "inputs": [],
      "name": "factory",
      "outputs": [
        {
          "internalType": "address",
          "name": "",
          "type": "address"
        }
      ],
      "stateMutability": "view",
      "type": "function"
    },
    {
      "inputs": [],
      "name": "manager",
      "outputs": [
        {
          "internalType": "address",
          "name": "",
          "type": "address"
        }
      ],
      "stateMutability": "view",
      "type": "function"
    },
    {
      "inputs": [],
      "name": "metaAggregator",
      "outputs": [
        {
          "internalType": "address",
          "name": "",
          "type": "address"
        }
      ],
      "stateMutability": "view",
      "type": "function"
    },
    {
      "inputs": [
        {
          "components": [
            {
              "internalType": "address",
              "name": "baseToken",
              "type": "address"
            },
            {
              "internalType": "address",
              "name": "quoteToken",
              "type": "address"
            },
            {
              "internalType": "address",
              "name": "collateral",
              "type": "address"
            },
            {
              "internalType": "uint256",
              "name": "baseAmount",
              "type": "uint256"
            },
            {
              "internalType": "uint256",
              "name": "quoteAmount",
              "type": "uint256"
            },
            {
              "internalType": "uint256",
              "name": "collateralAmount",
              "type": "uint256"
            },
            {
              "internalType": "uint256",
              "name": "deadline",
              "type": "uint256"
            },
            {
              "internalType": "uint256",
              "name": "stoplossPrice",
              "type": "uint256"
            },
            {
              "internalType": "uint256",
              "name": "takeProfitPrice",
              "type": "uint256"
            },
            {
              "internalType": "uint256",
              "name": "txDeadline",
              "type": "uint256"
            }
          ],
          "internalType": "struct IRouter.OpenTradePositionParams",
          "name": "_params",
          "type": "tuple"
        }
      ],
      "name": "open",
      "outputs": [
        {
          "internalType": "bytes32",
          "name": "positionKey",
          "type": "bytes32"
        }
      ],
      "stateMutability": "nonpayable",
      "type": "function"
    },
    {
      "inputs": [
        {
          "components": [
            {
              "internalType": "address",
              "name": "baseToken",
              "type": "address"
            },
            {
              "internalType": "address",
              "name": "quoteToken",
              "type": "address"
            },
            {
              "internalType": "address",
              "name": "collateral",
              "type": "address"
            },
            {
              "internalType": "uint256",
              "name": "baseAmount",
              "type": "uint256"
            },
            {
              "internalType": "uint256",
              "name": "quoteAmount",
              "type": "uint256"
            },
            {
              "internalType": "uint256",
              "name": "collateralAmount",
              "type": "uint256"
            },
            {
              "internalType": "uint256",
              "name": "deadline",
              "type": "uint256"
            },
            {
              "internalType": "uint256",
              "name": "stoplossPrice",
              "type": "uint256"
            },
            {
              "internalType": "uint256",
              "name": "takeProfitPrice",
              "type": "uint256"
            },
            {
              "internalType": "uint256",
              "name": "txDeadline",
              "type": "uint256"
            }
          ],
          "internalType": "struct IRouter.OpenTradePositionParams",
          "name": "_params",
          "type": "tuple"
        }
      ],
      "name": "openETH",
      "outputs": [
        {
          "internalType": "bytes32",
          "name": "positionKey",
          "type": "bytes32"
        }
      ],
      "stateMutability": "payable",
      "type": "function"
    },
    {
      "inputs": [
        {
          "components": [
            {
              "internalType": "address",
              "name": "baseToken",
              "type": "address"
            },
            {
              "internalType": "address",
              "name": "quoteToken",
              "type": "address"
            },
            {
              "internalType": "address",
              "name": "collateral",
              "type": "address"
            },
            {
              "internalType": "uint256",
              "name": "baseAmount",
              "type": "uint256"
            },
            {
              "internalType": "uint256",
              "name": "quoteAmount",
              "type": "uint256"
            },
            {
              "internalType": "uint256",
              "name": "collateralAmount",
              "type": "uint256"
            },
            {
              "internalType": "uint256",
              "name": "deadline",
              "type": "uint256"
            },
            {
              "internalType": "uint256",
              "name": "stoplossPrice",
              "type": "uint256"
            },
            {
              "internalType": "uint256",
              "name": "takeProfitPrice",
              "type": "uint256"
            },
            {
              "internalType": "uint256",
              "name": "txDeadline",
              "type": "uint256"
            }
          ],
          "internalType": "struct IRouter.OpenTradePositionParams",
          "name": "_params",
          "type": "tuple"
        }
      ],
      "name": "openWithEthAsBaseToken",
      "outputs": [
        {
          "internalType": "bytes32",
          "name": "positionKey",
          "type": "bytes32"
        }
      ],
      "stateMutability": "payable",
      "type": "function"
    },
    {
      "inputs": [
        {
          "components": [
            {
              "internalType": "address",
              "name": "baseToken",
              "type": "address"
            },
            {
              "internalType": "address",
              "name": "quoteToken",
              "type": "address"
            },
            {
              "internalType": "address",
              "name": "collateral",
              "type": "address"
            },
            {
              "internalType": "uint256",
              "name": "baseAmount",
              "type": "uint256"
            },
            {
              "internalType": "uint256",
              "name": "quoteAmount",
              "type": "uint256"
            },
            {
              "internalType": "uint256",
              "name": "collateralAmount",
              "type": "uint256"
            },
            {
              "internalType": "uint256",
              "name": "deadline",
              "type": "uint256"
            },
            {
              "internalType": "uint256",
              "name": "stoplossPrice",
              "type": "uint256"
            },
            {
              "internalType": "uint256",
              "name": "takeProfitPrice",
              "type": "uint256"
            },
            {
              "internalType": "uint256",
              "name": "txDeadline",
              "type": "uint256"
            }
          ],
          "internalType": "struct IRouter.OpenTradePositionParams",
          "name": "_params",
          "type": "tuple"
        }
      ],
      "name": "openWithEthAsCollateral",
      "outputs": [
        {
          "internalType": "bytes32",
          "name": "positionKey",
          "type": "bytes32"
        }
      ],
      "stateMutability": "payable",
      "type": "function"
    },
    {
      "inputs": [],
      "name": "poolDeployer",
      "outputs": [
        {
          "internalType": "address",
          "name": "",
          "type": "address"
        }
      ],
      "stateMutability": "view",
      "type": "function"
    },
    {
      "inputs": [],
      "name": "positionStorage",
      "outputs": [
        {
          "internalType": "address",
          "name": "",
          "type": "address"
        }
      ],
      "stateMutability": "view",
      "type": "function"
    },
    {
      "inputs": [
        {
          "components": [
            {
              "internalType": "address",
              "name": "baseToken",
              "type": "address"
            },
            {
              "internalType": "address",
              "name": "quoteToken",
              "type": "address"
            },
            {
              "internalType": "address",
              "name": "collateral",
              "type": "address"
            },
            {
              "internalType": "uint256",
              "name": "baseAmount",
              "type": "uint256"
            },
            {
              "internalType": "uint256",
              "name": "quoteAmount",
              "type": "uint256"
            },
            {
              "internalType": "uint256",
              "name": "collateralAmount",
              "type": "uint256"
            },
            {
              "internalType": "uint256",
              "name": "deadline",
              "type": "uint256"
            },
            {
              "internalType": "uint256",
              "name": "stoplossPrice",
              "type": "uint256"
            },
            {
              "internalType": "uint256",
              "name": "takeProfitPrice",
              "type": "uint256"
            },
            {
              "internalType": "uint256",
              "name": "txDeadline",
              "type": "uint256"
            }
          ],
          "internalType": "struct IRouter.OpenTradePositionParams",
          "name": "_params",
          "type": "tuple"
        }
      ],
      "name": "preview",
      "outputs": [
        {
          "components": [
            {
              "internalType": "bytes32",
              "name": "positionKey",
              "type": "bytes32"
            },
            {
              "internalType": "address",
              "name": "owner",
              "type": "address"
            },
            {
              "internalType": "address",
              "name": "pool",
              "type": "address"
            },
            {
              "components": [
                {
                  "internalType": "address",
                  "name": "id",
                  "type": "address"
                },
                {
                  "internalType": "uint256",
                  "name": "amount",
                  "type": "uint256"
                },
                {
                  "internalType": "uint256",
                  "name": "entryPrice",
                  "type": "uint256"
                },
                {
                  "internalType": "uint256",
                  "name": "liqPrice",
                  "type": "uint256"
                },
                {
                  "internalType": "uint256",
                  "name": "closePrice",
                  "type": "uint256"
                }
              ],
              "internalType": "struct IPositionStorage.BaseToken",
              "name": "baseToken",
              "type": "tuple"
            },
            {
              "components": [
                {
                  "internalType": "address",
                  "name": "id",
                  "type": "address"
                },
                {
                  "internalType": "uint256",
                  "name": "amount",
                  "type": "uint256"
                }
              ],
              "internalType": "struct IPositionStorage.QuoteToken",
              "name": "quoteToken",
              "type": "tuple"
            },
            {
              "components": [
                {
                  "internalType": "address",
                  "name": "id",
                  "type": "address"
                },
                {
                  "internalType": "uint256",
                  "name": "amount",
                  "type": "uint256"
                },
                {
                  "internalType": "uint256",
                  "name": "entryPrice",
                  "type": "uint256"
                },
                {
                  "internalType": "uint256",
                  "name": "liqPrice",
                  "type": "uint256"
                },
                {
                  "internalType": "uint256",
                  "name": "closePrice",
                  "type": "uint256"
                }
              ],
              "internalType": "struct IPositionStorage.Collateral",
              "name": "collateral",
              "type": "tuple"
            },
            {
              "internalType": "uint256",
              "name": "deadline",
              "type": "uint256"
            },
            {
              "internalType": "uint256",
              "name": "stoplossPrice",
              "type": "uint256"
            },
            {
              "internalType": "uint256",
              "name": "takeProfitPrice",
              "type": "uint256"
            },
            {
              "internalType": "uint256",
              "name": "fee",
              "type": "uint256"
            },
            {
              "internalType": "uint256",
              "name": "protocolFee",
              "type": "uint256"
            },
            {
              "components": [
                {
                  "internalType": "bool",
                  "name": "isClosed",
                  "type": "bool"
                },
                {
                  "internalType": "bool",
                  "name": "isRollbacked",
                  "type": "bool"
                },
                {
                  "internalType": "bool",
                  "name": "isClosedManuallyStep1",
                  "type": "bool"
                },
                {
                  "internalType": "bool",
                  "name": "isClosedManuallyStep2",
                  "type": "bool"
                }
              ],
              "internalType": "struct IPositionStorage.Status",
              "name": "status",
              "type": "tuple"
            },
            {
              "internalType": "address",
              "name": "closer",
              "type": "address"
            },
            {
              "internalType": "uint256",
              "name": "liquidationMarkTime",
              "type": "uint256"
            }
          ],
          "internalType": "struct IPositionStorage.TradePosition",
          "name": "",
          "type": "tuple"
        }
      ],
      "stateMutability": "view",
      "type": "function"
    },
    {
      "inputs": [
        {
          "components": [
            {
              "internalType": "address",
              "name": "pool",
              "type": "address"
            },
            {
              "internalType": "bytes32",
              "name": "positionKey",
              "type": "bytes32"
            },
            {
              "internalType": "uint256",
              "name": "txDeadline",
              "type": "uint256"
            }
          ],
          "internalType": "struct IRouter.RollbackTradePositionParams",
          "name": "_params",
          "type": "tuple"
        }
      ],
      "name": "rollback",
      "outputs": [],
      "stateMutability": "nonpayable",
      "type": "function"
    },
    {
      "inputs": [
        {
          "internalType": "address",
          "name": "_newManager",
          "type": "address"
        }
      ],
      "name": "setManager",
      "outputs": [],
      "stateMutability": "nonpayable",
      "type": "function"
    },
    {
      "inputs": [
        {
          "internalType": "address",
          "name": "_newMetaAggregator",
          "type": "address"
        }
      ],
      "name": "setMetaAggregator",
      "outputs": [],
      "stateMutability": "nonpayable",
      "type": "function"
    },
    {
      "inputs": [
        {
          "components": [
            {
              "internalType": "address",
              "name": "pool",
              "type": "address"
            },
            {
              "internalType": "bytes32",
              "name": "positionKey",
              "type": "bytes32"
            },
            {
              "internalType": "uint256",
              "name": "amount",
              "type": "uint256"
            },
            {
              "internalType": "uint256",
              "name": "txDeadline",
              "type": "uint256"
            }
          ],
          "internalType": "struct IRouter.UpdateCollateralAmountParams",
          "name": "_params",
          "type": "tuple"
        }
      ],
      "name": "updateCollateralAmount",
      "outputs": [
        {
          "internalType": "uint256",
          "name": "collateralLiqPrice",
          "type": "uint256"
        }
      ],
      "stateMutability": "nonpayable",
      "type": "function"
    },
    {
      "inputs": [
        {
          "components": [
            {
              "internalType": "address",
              "name": "pool",
              "type": "address"
            },
            {
              "internalType": "bytes32",
              "name": "positionKey",
              "type": "bytes32"
            },
            {
              "internalType": "uint256",
              "name": "deadline",
              "type": "uint256"
            },
            {
              "internalType": "uint256",
              "name": "txDeadline",
              "type": "uint256"
            }
          ],
          "internalType": "struct IRouter.UpdateDeadlineParams",
          "name": "_params",
          "type": "tuple"
        }
      ],
      "name": "updateDeadline",
      "outputs": [],
      "stateMutability": "nonpayable",
      "type": "function"
    },
    {
      "inputs": [
        {
          "components": [
            {
              "internalType": "address",
              "name": "pool",
              "type": "address"
            },
            {
              "internalType": "bytes32",
              "name": "positionKey",
              "type": "bytes32"
            },
            {
              "internalType": "uint256",
              "name": "takeProfitPrice",
              "type": "uint256"
            },
            {
              "internalType": "uint256",
              "name": "stoplossPrice",
              "type": "uint256"
            },
            {
              "internalType": "uint256",
              "name": "txDeadline",
              "type": "uint256"
            }
          ],
          "internalType": "struct IRouter.UpdateTPnSLParams",
          "name": "_params",
          "type": "tuple"
        }
      ],
      "name": "updateTPnSL",
      "outputs": [],
      "stateMutability": "nonpayable",
      "type": "function"
    },
    {
      "stateMutability": "payable",
      "type": "receive"
    }
  ],
  "bytecode": "0x6101006040523480156200001257600080fd5b5060405162003241380380620032418339810160408190526200003591620001c9565b600080546001600160a01b031916331790556001600160601b0319606083811b821660a05282901b166080526040805163188c824d60e11b815290516001600160a01b03841691633119049a916004808301926020929190829003018186803b158015620000a257600080fd5b505afa158015620000b7573d6000803e3d6000fd5b505050506040513d601f19601f82011682018060405250810190620000dd9190620001a4565b6001600160a01b031660c0816001600160a01b031660601b81525050816001600160a01b0316638cd474156040518163ffffffff1660e01b815260040160206040518083038186803b1580156200013357600080fd5b505afa15801562000148573d6000803e3d6000fd5b505050506040513d601f19601f820116820180604052508101906200016e9190620001a4565b60601b6001600160601b03191660e05250620002019050565b80516001600160a01b03811681146200019f57600080fd5b919050565b600060208284031215620001b757600080fd5b620001c28262000187565b9392505050565b60008060408385031215620001dd57600080fd5b620001e88362000187565b9150620001f86020840162000187565b90509250929050565b60805160601c60a05160601c60c05160601c60e05160601c612f7c620002c5600039600081816102800152818161077101528181610ad001528181610f940152611455015260008181610194015281816104fe015281816110ac015281816113d801526118b9015260008181610388015281816106a701528181610a0601528181610d6d0152818161126e015281816115cf0152611be0015260008181610128015281816102e7015281816104500152818161102c01526118390152612f7c6000f3fe6080604052600436106101185760003560e01c806393408dd8116100a0578063c45a015511610064578063c45a015514610376578063c6ad7ff1146103aa578063cee6031f146103bd578063d0ebdbe7146103dd578063e761f9dc146103fd57600080fd5b806393408dd8146102b5578063ad5c4648146102d5578063b7c1a10e14610309578063b82026b514610329578063b86bdf631461035657600080fd5b8063481c6a75116100e7578063481c6a751461020e5780634b129dc51461022e578063701121bc1461024e5780638cd474151461026e578063924695a7146102a257600080fd5b80632841d0a31461015c5780633119049a1461018257806334ab16ff146101ce5780633e7efed5146101ee57600080fd5b3661015757336001600160a01b037f0000000000000000000000000000000000000000000000000000000000000000161461015557610155612f02565b005b600080fd5b61016f61016a3660046127e7565b61041d565b6040519081526020015b60405180910390f35b34801561018e57600080fd5b506101b67f000000000000000000000000000000000000000000000000000000000000000081565b6040516001600160a01b039091168152602001610179565b3480156101da57600080fd5b506101556101e9366004612883565b610660565b3480156101fa57600080fd5b506001546101b6906001600160a01b031681565b34801561021a57600080fd5b506000546101b6906001600160a01b031681565b34801561023a57600080fd5b5061016f6102493660046129d3565b6109b7565b34801561025a57600080fd5b506101556102693660046129ef565b610d26565b34801561027a57600080fd5b506101b67f000000000000000000000000000000000000000000000000000000000000000081565b61016f6102b03660046127e7565b610ffb565b3480156102c157600080fd5b506101556102d036600461272c565b611224565b3480156102e157600080fd5b506101b67f000000000000000000000000000000000000000000000000000000000000000081565b34801561031557600080fd5b5061016f6103243660046127e7565b6113a2565b34801561033557600080fd5b506103496103443660046127e7565b611449565b6040516101799190612c4b565b34801561036257600080fd5b506101556103713660046129d3565b611588565b34801561038257600080fd5b506101b67f000000000000000000000000000000000000000000000000000000000000000081565b61016f6103b83660046127e7565b611808565b3480156103c957600080fd5b506101556103d836600461261f565b611a1d565b3480156103e957600080fd5b506101556103f836600461261f565b611a9f565b34801561040957600080fd5b50610155610418366004612659565b611b41565b60008161012001518061042d4290565b111561044c57604051632a0c45bf60e21b815260040160405180910390fd5b82517f0000000000000000000000000000000000000000000000000000000000000000906001600160a01b0380831691161415806104a05750806001600160a01b031684604001516001600160a01b031614155b156104be57604051630e52390960e41b815260040160405180910390fd5b600084606001518560a001516104d49190612eb0565b9050803410156104f75760405163f8b3bb6160e01b815260040160405180910390fd5b60006105277f00000000000000000000000000000000000000000000000000000000000000008760200151611df1565b90506001600160a01b03811661056057604051630f4c971b60e21b81526001600160a01b03821660048201526024015b60405180910390fd5b85604001516001600160a01b031663d0e30db0836040518263ffffffff1660e01b81526004016000604051808303818588803b15801561059f57600080fd5b505af11580156105b3573d6000803e3d6000fd5b505050604080890151905163a9059cbb60e01b81526001600160a01b03858116600483015260248201879052909116925063a9059cbb9150604401602060405180830381600087803b15801561060857600080fd5b505af115801561061c573d6000803e3d6000fd5b505050506040513d601f19601f8201168201806040525081019061064091906126f8565b61064c5761064c612f02565b6106568187611e98565b9695505050505050565b60408101518042111561068657604051632a0c45bf60e21b815260040160405180910390fd5b815160405163b42754a560e01b81526001600160a01b0391821660048201527f0000000000000000000000000000000000000000000000000000000000000000916000919083169063b42754a59060240160206040518083038186803b1580156106ef57600080fd5b505afa158015610703573d6000803e3d6000fd5b505050506040513d601f19601f820116820180604052508101906107279190612713565b905080610755578351604051630f4c971b60e21b81526001600160a01b039091166004820152602401610557565b602084015160405163957d1fe160e01b815260048101919091527f0000000000000000000000000000000000000000000000000000000000000000906000906001600160a01b0383169063957d1fe1906024016103406040518083038186803b1580156107c157600080fd5b505afa1580156107d5573d6000803e3d6000fd5b505050506040513d601f19601f820116820180604052508101906107f991906128e5565b905061081b816080015160000151338860000151846080015160200151611fa6565b6000846001600160a01b031663b76929686040518163ffffffff1660e01b815260040160206040518083038186803b15801561085657600080fd5b505afa15801561086a573d6000803e3d6000fd5b505050506040513d601f19601f8201168201806040525081019061088e919061263c565b90506000856001600160a01b0316633c0930376040518163ffffffff1660e01b815260040160206040518083038186803b1580156108cb57600080fd5b505afa1580156108df573d6000803e3d6000fd5b505050506040513d601f19601f820116820180604052508101906109039190612713565b90506109108683836120e4565b8751604080516080810182526020808c01518252339082019081526001600160a01b0386811683850190815260608401878152945163019972a560e41b815293516004850152915181166024840152905181166044830152915160648201529116906319972a5090608401600060405180830381600087803b15801561099557600080fd5b505af11580156109a9573d6000803e3d6000fd5b505050505050505050505050565b60008160600151806109c64290565b11156109e557604051632a0c45bf60e21b815260040160405180910390fd5b825160405163b42754a560e01b81526001600160a01b0391821660048201527f0000000000000000000000000000000000000000000000000000000000000000916000919083169063b42754a59060240160206040518083038186803b158015610a4e57600080fd5b505afa158015610a62573d6000803e3d6000fd5b505050506040513d601f19601f82011682018060405250810190610a869190612713565b905080610ab4578451604051630f4c971b60e21b81526001600160a01b039091166004820152602401610557565b602085015160405163957d1fe160e01b815260048101919091527f0000000000000000000000000000000000000000000000000000000000000000906000906001600160a01b0383169063957d1fe1906024016103406040518083038186803b158015610b2057600080fd5b505afa158015610b34573d6000803e3d6000fd5b505050506040513d601f19601f82011682018060405250810190610b5891906128e5565b9050610b768160a00151600001513389600001518a60400151611fa6565b6000846001600160a01b031663b76929686040518163ffffffff1660e01b815260040160206040518083038186803b158015610bb157600080fd5b505afa158015610bc5573d6000803e3d6000fd5b505050506040513d601f19601f82011682018060405250810190610be9919061263c565b90506000856001600160a01b0316632a5025b76040518163ffffffff1660e01b815260040160206040518083038186803b158015610c2657600080fd5b505afa158015610c3a573d6000803e3d6000fd5b505050506040513d601f19601f82011682018060405250810190610c5e9190612713565b9050610c6b8683836120e4565b88516040805160a0810182526020808d01518252828d01519082015233818301526001600160a01b03858116606083015260808201859052915163c6f61b0160e01b8152919092169163c6f61b0191610cc79190600401612dd6565b602060405180830381600087803b158015610ce157600080fd5b505af1158015610cf5573d6000803e3d6000fd5b505050506040513d601f19601f82011682018060405250810190610d199190612713565b9998505050505050505050565b608081015180421115610d4c57604051632a0c45bf60e21b815260040160405180910390fd5b815160405163b42754a560e01b81526001600160a01b0391821660048201527f0000000000000000000000000000000000000000000000000000000000000000916000919083169063b42754a59060240160206040518083038186803b158015610db557600080fd5b505afa158015610dc9573d6000803e3d6000fd5b505050506040513d601f19601f82011682018060405250810190610ded9190612713565b905080610e1b578351604051630f4c971b60e21b81526001600160a01b039091166004820152602401610557565b6000826001600160a01b031663b76929686040518163ffffffff1660e01b815260040160206040518083038186803b158015610e5657600080fd5b505afa158015610e6a573d6000803e3d6000fd5b505050506040513d601f19601f82011682018060405250810190610e8e919061263c565b90506000836001600160a01b031663b6a9b90d6040518163ffffffff1660e01b815260040160206040518083038186803b158015610ecb57600080fd5b505afa158015610edf573d6000803e3d6000fd5b505050506040513d601f19601f82011682018060405250810190610f039190612713565b9050610f108483836120e4565b6040805160c0810182526020888101518252888301519082019081526060808a0151838501908152339184019182526001600160a01b038781166080860190815260a0860188815296516337a8a9af60e11b8152955160048701529351602486015290516044850152905181166064840152905181166084830152915160a48201527f000000000000000000000000000000000000000000000000000000000000000091821690636f51535e9060c401600060405180830381600087803b158015610fda57600080fd5b505af1158015610fee573d6000803e3d6000fd5b5050505050505050505050565b60008161012001518061100b4290565b111561102a57604051632a0c45bf60e21b815260040160405180910390fd5b7f00000000000000000000000000000000000000000000000000000000000000006001600160a01b031683604001516001600160a01b03161461108057604051630e52390960e41b815260040160405180910390fd5b8260a001513410156110a55760405163f8b3bb6160e01b815260040160405180910390fd5b60006110d57f00000000000000000000000000000000000000000000000000000000000000008560200151611df1565b90506001600160a01b03811661110957604051630f4c971b60e21b81526001600160a01b0382166004820152602401610557565b83604001516001600160a01b031663d0e30db08560a001516040518263ffffffff1660e01b81526004016000604051808303818588803b15801561114c57600080fd5b505af1158015611160573d6000803e3d6000fd5b50505060408087015160a0880151915163a9059cbb60e01b81526001600160a01b03868116600483015260248201939093529116925063a9059cbb9150604401602060405180830381600087803b1580156111ba57600080fd5b505af11580156111ce573d6000803e3d6000fd5b505050506040513d601f19601f820116820180604052508101906111f291906126f8565b6111fe576111fe612f02565b611212846000015133838760600151611fa6565b61121c8185611e98565b949350505050565b60808101518042111561124a57604051632a0c45bf60e21b815260040160405180910390fd5b815160405163b42754a560e01b81526001600160a01b0391821660048201526000917f0000000000000000000000000000000000000000000000000000000000000000169063b42754a59060240160206040518083038186803b1580156112b057600080fd5b505afa1580156112c4573d6000803e3d6000fd5b505050506040513d601f19601f820116820180604052508101906112e89190612713565b905080611316578251604051630f4c971b60e21b81526001600160a01b039091166004820152602401610557565b825160408051608081018252602080870151825282870151908201526060808701518284015233908201529051633ee8320560e21b81526001600160a01b039092169163fba0c8149161136b91600401612b3d565b600060405180830381600087803b15801561138557600080fd5b505af1158015611399573d6000803e3d6000fd5b50505050505050565b6000816101200151806113b24290565b11156113d157604051632a0c45bf60e21b815260040160405180910390fd5b60006114017f00000000000000000000000000000000000000000000000000000000000000008560200151611df1565b90506001600160a01b03811661143557604051630f4c971b60e21b81526001600160a01b0382166004820152602401610557565b6111fe846040015133838760a00151611fa6565b6114516122b9565b60007f00000000000000000000000000000000000000000000000000000000000000009050806001600160a01b031663be9f3fec604051806101400160405280336001600160a01b0316815260200186600001516001600160a01b0316815260200186602001516001600160a01b0316815260200186604001516001600160a01b0316815260200186606001518152602001866080015181526020018660a0015181526020018660c0015181526020018660e0015181526020018661010001518152506040518263ffffffff1660e01b81526004016115309190612ba2565b6103406040518083038186803b15801561154957600080fd5b505afa15801561155d573d6000803e3d6000fd5b505050506040513d601f19601f8201168201806040525081019061158191906128e5565b9392505050565b6060810151804211156115ae57604051632a0c45bf60e21b815260040160405180910390fd5b815160405163b42754a560e01b81526001600160a01b0391821660048201527f0000000000000000000000000000000000000000000000000000000000000000916000919083169063b42754a59060240160206040518083038186803b15801561161757600080fd5b505afa15801561162b573d6000803e3d6000fd5b505050506040513d601f19601f8201168201806040525081019061164f9190612713565b90508061167d578351604051630f4c971b60e21b81526001600160a01b039091166004820152602401610557565b6000826001600160a01b031663b76929686040518163ffffffff1660e01b815260040160206040518083038186803b1580156116b857600080fd5b505afa1580156116cc573d6000803e3d6000fd5b505050506040513d601f19601f820116820180604052508101906116f0919061263c565b90506000836001600160a01b031663c79005846040518163ffffffff1660e01b815260040160206040518083038186803b15801561172d57600080fd5b505afa158015611741573d6000803e3d6000fd5b505050506040513d601f19601f820116820180604052508101906117659190612713565b90506117728483836120e4565b85516040805160a0810182526020808a01518252828a01519082015233818301526001600160a01b038581166060830152608082018590529151635330e35360e01b81529190921691635330e353916117ce9190600401612dd6565b600060405180830381600087803b1580156117e857600080fd5b505af11580156117fc573d6000803e3d6000fd5b50505050505050505050565b6000816101200151806118184290565b111561183757604051632a0c45bf60e21b815260040160405180910390fd5b7f00000000000000000000000000000000000000000000000000000000000000006001600160a01b031683600001516001600160a01b03161461188d57604051630e52390960e41b815260040160405180910390fd5b82606001513410156118b25760405163f8b3bb6160e01b815260040160405180910390fd5b60006118e27f00000000000000000000000000000000000000000000000000000000000000008560200151611df1565b90506001600160a01b03811661191657604051630f4c971b60e21b81526001600160a01b0382166004820152602401610557565b83600001516001600160a01b031663d0e30db085606001516040518263ffffffff1660e01b81526004016000604051808303818588803b15801561195957600080fd5b505af115801561196d573d6000803e3d6000fd5b50508651606088015160405163a9059cbb60e01b81526001600160a01b03878116600483015260248201929092529116935063a9059cbb92506044019050602060405180830381600087803b1580156119c557600080fd5b505af11580156119d9573d6000803e3d6000fd5b505050506040513d601f19601f820116820180604052508101906119fd91906126f8565b611a0957611a09612f02565b611212846040015133838760a00151611fa6565b6000546001600160a01b03163314611a4a5760405163a59d7f4d60e01b8152336004820152602401610557565b600180546001600160a01b0319166001600160a01b0383169081179091556040519081527ffdeec6d79a6bee7503b67f2a1c0b6cc5bcec78247f137ca75d1dff8453b746d7906020015b60405180910390a150565b6000546001600160a01b03163314611acc5760405163a59d7f4d60e01b8152336004820152602401610557565b6001600160a01b038116611af35760405163d92e233d60e01b815260040160405180910390fd5b600080546001600160a01b0319166001600160a01b0383169081179091556040519081527f54a6385aa0292b04e1ef8513253c17d1863f7cdfc87029d77fd55cc4c2e717e290602001611a94565b6040516370a0823160e01b81523060048201526000906001600160a01b038716906370a082319060240160206040518083038186803b158015611b8357600080fd5b505afa158015611b97573d6000803e3d6000fd5b505050506040513d601f19601f82011682018060405250810190611bbb9190612713565b6001549091506000906001600160a01b03161580611bd7575082155b15611d225760007f000000000000000000000000000000000000000000000000000000000000000090506000816001600160a01b0316637c21d5e06040518163ffffffff1660e01b815260040160206040518083038186803b158015611c3c57600080fd5b505afa158015611c50573d6000803e3d6000fd5b505050506040513d601f19601f82011682018060405250810190611c74919061263c565b9050611c81898286612188565b604051630ceffb5960e31b8152600060048201526001600160a01b038a8116602483015289811660448301526064820189905230608483015282169063677fdac89060a4016040805180830381600087803b158015611cdf57600080fd5b505af1158015611cf3573d6000803e3d6000fd5b505050506040513d601f19601f82011682018060405250810190611d179190612a68565b509250611dc5915050565b6001546001600160a01b0316611d39888285612188565b604051631fa196a960e21b81526001600160a01b03821690637e865aa490611d6f908b908b908b9030908c908c90600401612ae0565b602060405180830381600087803b158015611d8957600080fd5b505af1158015611d9d573d6000803e3d6000fd5b505050506040513d601f19601f82011682018060405250810190611dc19190612713565b9150505b84811015611de65760405163bb2875c360e01b815260040160405180910390fd5b611399863383612188565b604080516001600160a01b03831660208083019190915282518083038201815282840190935282519201919091206001600160f81b031960608084019190915284901b6bffffffffffffffffffffffff1916606183015260758201527f4550c752d748de20a3fa28f4986cedc7e842e4fdcce52cb8e438c4a0bad1fab9609582015260009060b50160408051601f1981840301815291905280516020909101209392505050565b6000826001600160a01b031663122f7e8b604051806101400160405280336001600160a01b0316815260200185600001516001600160a01b0316815260200185602001516001600160a01b0316815260200185604001516001600160a01b0316815260200185606001518152602001856080015181526020018560a0015181526020018560c0015181526020018560e0015181526020018561010001518152506040518263ffffffff1660e01b8152600401611f549190612ba2565b602060405180830381600087803b158015611f6e57600080fd5b505af1158015611f82573d6000803e3d6000fd5b505050506040513d601f19601f820116820180604052508101906115819190612713565b604080516001600160a01b0385811660248301528481166044830152606480830185905283518084039091018152608490920183526020820180516001600160e01b03166323b872dd60e01b179052915160009283929088169161200a9190612ac4565b6000604051808303816000865af19150503d8060008114612047576040519150601f19603f3d011682016040523d82523d6000602084013e61204c565b606091505b509150915081801561207657508051158061207657508080602001905181019061207691906126f8565b6120dc5760405162461bcd60e51b815260206004820152603160248201527f5472616e7366657248656c7065723a3a7472616e7366657246726f6d3a207472604482015270185b9cd9995c919c9bdb4819985a5b1959607a1b6064820152608401610557565b505050505050565b6001600160a01b038216158015906120fc5750600081115b15612183576000836001600160a01b031663e9a4e7a26040518163ffffffff1660e01b815260040160206040518083038186803b15801561213c57600080fd5b505afa158015612150573d6000803e3d6000fd5b505050506040513d601f19601f82011682018060405250810190612174919061263c565b9050612181838284612188565b505b505050565b604080516001600160a01b038481166024830152604480830185905283518084039091018152606490920183526020820180516001600160e01b031663a9059cbb60e01b17905291516000928392908716916121e49190612ac4565b6000604051808303816000865af19150503d8060008114612221576040519150601f19603f3d011682016040523d82523d6000602084013e612226565b606091505b509150915081801561225057508051158061225057508080602001905181019061225091906126f8565b6122b25760405162461bcd60e51b815260206004820152602d60248201527f5472616e7366657248656c7065723a3a736166655472616e736665723a20747260448201526c185b9cd9995c8819985a5b1959609a1b6064820152608401610557565b5050505050565b604051806101c001604052806000801916815260200160006001600160a01b0316815260200160006001600160a01b0316815260200161232a6040518060a0016040528060006001600160a01b03168152602001600081526020016000815260200160008152602001600081525090565b8152602001612355604051806040016040528060006001600160a01b03168152602001600081525090565b81526020016123956040518060a0016040528060006001600160a01b03168152602001600081526020016000815260200160008152602001600081525090565b815260200160008152602001600081526020016000815260200160008152602001600081526020016123f060405180608001604052806000151581526020016000151581526020016000151581526020016000151581525090565b815260006020820181905260409091015290565b803561240f81612f2e565b919050565b805161240f81612f2e565b8051801515811461240f57600080fd5b600082601f83011261244057600080fd5b813567ffffffffffffffff8082111561245b5761245b612f18565b604051601f8301601f19908116603f0116810190828211818310171561248357612483612f18565b8160405283815286602085880101111561249c57600080fd5b836020870160208301376000602085830101528094505050505092915050565b600060a082840312156124ce57600080fd5b6124d6612e1c565b905081516124e381612f2e565b808252506020820151602082015260408201516040820152606082015160608201526080820151608082015292915050565b60006040828403121561252757600080fd5b6040516040810181811067ffffffffffffffff8211171561254a5761254a612f18565b8060405250809150825161255d81612f2e565b8152602092830151920191909152919050565b60006080828403121561258257600080fd5b61258a612e45565b90506125958261241f565b81526125a36020830161241f565b60208201526125b46040830161241f565b60408201526125c56060830161241f565b606082015292915050565b6000608082840312156125e257600080fd5b6125ea612e45565b905081356125f781612f2e565b8082525060208201356020820152604082013560408201526060820135606082015292915050565b60006020828403121561263157600080fd5b813561158181612f2e565b60006020828403121561264e57600080fd5b815161158181612f2e565b60008060008060006080868803121561267157600080fd5b853561267c81612f2e565b9450602086013561268c81612f2e565b935060408601359250606086013567ffffffffffffffff808211156126b057600080fd5b818801915088601f8301126126c457600080fd5b8135818111156126d357600080fd5b8960208285010111156126e557600080fd5b9699959850939650602001949392505050565b60006020828403121561270a57600080fd5b6115818261241f565b60006020828403121561272557600080fd5b5051919050565b60006020828403121561273e57600080fd5b813567ffffffffffffffff8082111561275657600080fd5b9083019060a0828603121561276a57600080fd5b612772612e1c565b823561277d81612f2e565b81526020838101359082015260408301358281111561279b57600080fd5b6127a78782860161242f565b6040830152506060830135828111156127bf57600080fd5b6127cb8782860161242f565b6060830152506080830135608082015280935050505092915050565b600061014082840312156127fa57600080fd5b612802612e68565b61280b83612404565b815261281960208401612404565b602082015261282a60408401612404565b6040820152606083013560608201526080830135608082015260a083013560a082015260c083013560c082015260e083013560e08201526101008084013581830152506101208084013581830152508091505092915050565b60006060828403121561289557600080fd5b6040516060810181811067ffffffffffffffff821117156128b8576128b8612f18565b60405282356128c681612f2e565b8152602083810135908201526040928301359281019290925250919050565b600061034082840312156128f857600080fd5b612900612e8c565b8251815261291060208401612414565b602082015261292160408401612414565b604082015261293384606085016124bc565b606082015261010061294785828601612515565b608083015261014061295b868287016124bc565b60a08401526101e085015160c084015261020085015160e0840152610220850151828401526102408501516101208401526102608501518184015250506129a6846102808501612570565b6101608201526129b96103008401612414565b61018082015261032092909201516101a083015250919050565b6000608082840312156129e557600080fd5b61158183836125d0565b600060a08284031215612a0157600080fd5b60405160a0810181811067ffffffffffffffff82111715612a2457612a24612f18565b6040528235612a3281612f2e565b80825250602083013560208201526040830135604082015260608301356060820152608083013560808201528091505092915050565b60008060408385031215612a7b57600080fd5b825191506020830151612a8d81612f2e565b809150509250929050565b60008151808452612ab0816020860160208601612ed6565b601f01601f19169290920160200192915050565b60008251612ad6818460208701612ed6565b9190910192915050565b6001600160a01b0387811682528681166020830152604082018690528416606082015260a06080820181905281018290526000828460c0840137600060c0848401015260c0601f19601f8501168301019050979650505050505050565b60208152815160208201526000602083015160806040840152612b6360a0840182612a98565b90506040840151601f19848303016060850152612b808282612a98565b606095909501516001600160a01b031660809490940193909352509192915050565b81516001600160a01b0316815261014081016020830151612bce60208401826001600160a01b03169052565b506040830151612be960408401826001600160a01b03169052565b506060830151612c0460608401826001600160a01b03169052565b506080830151608083015260a083015160a083015260c083015160c083015260e083015160e083015261010080840151818401525061012080840151818401525092915050565b81518152602080830151610340830191612c6f908401826001600160a01b03169052565b506040830151612c8a60408401826001600160a01b03169052565b506060830151612cce606084018280516001600160a01b03168252602080820151908301526040808201519083015260608082015190830152608090810151910152565b506080830151610100612cf68185018380516001600160a01b03168252602090810151910152565b60a085015180516001600160a01b0316610140868101919091526020820151610160870152604082015161018087015260608201516101a087015260808201516101c087015290925060c08601516101e086015260e0860151610200860152908501516102208501526101208501516102408501528401516102608401525061016083015180511515610280840152602081015115156102a0840152604081015115156102c0840152606081015115156102e0840152506101808301516001600160a01b038116610300840152506101a083015161032083015292915050565b81518152602080830151908201526040808301516001600160a01b0390811691830191909152606080840151909116908201526080918201519181019190915260a00190565b60405160a0810167ffffffffffffffff81118282101715612e3f57612e3f612f18565b60405290565b6040516080810167ffffffffffffffff81118282101715612e3f57612e3f612f18565b604051610140810167ffffffffffffffff81118282101715612e3f57612e3f612f18565b6040516101c0810167ffffffffffffffff81118282101715612e3f57612e3f612f18565b60008219821115612ed157634e487b7160e01b600052601160045260246000fd5b500190565b60005b83811015612ef1578181015183820152602001612ed9565b838111156121815750506000910152565b634e487b7160e01b600052600160045260246000fd5b634e487b7160e01b600052604160045260246000fd5b6001600160a01b0381168114612f4357600080fd5b5056fea2646970667358221220b939bd5ba3e61261c977c90c9010df0048fe99a081c6fcdb75d69d1d79829d7b64736f6c63430008070033",
  "linkReferences": {},
  "deployedLinkReferences": {}
}