{
  "_format": "hh-sol-artifact-1",
  "contractName": "Router",
  "sourceName": "contracts/Router.sol",
  "abi": [
    {
      "inputs": [
        {
          "internalType": "address",
          "name": "_factory",
          "type": "address"
        },
        {
          "internalType": "address",
          "name": "_WETH",
          "type": "address"
        }
      ],
      "stateMutability": "nonpayable",
      "type": "constructor"
    },
    {
      "inputs": [],
      "name": "InsufficientInput",
      "type": "error"
    },
    {
      "inputs": [],
      "name": "InvalidParameters",
      "type": "error"
    },
    {
      "inputs": [
        {
          "internalType": "address",
          "name": "pool",
          "type": "address"
        }
      ],
      "name": "InvalidPool",
      "type": "error"
    },
    {
      "inputs": [],
      "name": "TransactionTooOld",
      "type": "error"
    },
    {
      "inputs": [],
      "name": "WETH",
      "outputs": [
        {
          "internalType": "address",
          "name": "",
          "type": "address"
        }
      ],
      "stateMutability": "view",
      "type": "function"
    },
    {
      "inputs": [
        {
          "components": [
            {
              "internalType": "address",
              "name": "pool",
              "type": "address"
            },
            {
              "internalType": "bytes32",
              "name": "positionKey",
              "type": "bytes32"
            },
            {
              "internalType": "uint256",
              "name": "txDeadline",
              "type": "uint256"
            }
          ],
          "internalType": "struct IRouter.CloseTradePositionParams",
          "name": "_params",
          "type": "tuple"
        }
      ],
      "name": "close",
      "outputs": [],
      "stateMutability": "nonpayable",
      "type": "function"
    },
    {
      "inputs": [
        {
          "internalType": "address",
          "name": "_tokenIn",
          "type": "address"
        },
        {
          "internalType": "address",
          "name": "_tokenOut",
          "type": "address"
        },
        {
          "internalType": "uint256",
          "name": "_amountOut",
          "type": "uint256"
        },
        {
          "internalType": "bytes",
          "name": "",
          "type": "bytes"
        }
      ],
      "name": "closeCallback",
      "outputs": [],
      "stateMutability": "nonpayable",
      "type": "function"
    },
    {
      "inputs": [],
      "name": "factory",
      "outputs": [
        {
          "internalType": "address",
          "name": "",
          "type": "address"
        }
      ],
      "stateMutability": "view",
      "type": "function"
    },
    {
      "inputs": [
        {
          "components": [
            {
              "internalType": "address",
              "name": "baseToken",
              "type": "address"
            },
            {
              "internalType": "address",
              "name": "quoteToken",
              "type": "address"
            },
            {
              "internalType": "address",
              "name": "collateral",
              "type": "address"
            },
            {
              "internalType": "uint256",
              "name": "baseAmount",
              "type": "uint256"
            },
            {
              "internalType": "uint256",
              "name": "quoteAmount",
              "type": "uint256"
            },
            {
              "internalType": "uint256",
              "name": "collateralAmount",
              "type": "uint256"
            },
            {
              "internalType": "uint256",
              "name": "deadline",
              "type": "uint256"
            },
            {
              "internalType": "uint256",
              "name": "stoplossPrice",
              "type": "uint256"
            },
            {
              "internalType": "uint256",
              "name": "txDeadline",
              "type": "uint256"
            }
          ],
          "internalType": "struct IRouter.OpenTradePositionParams",
          "name": "_params",
          "type": "tuple"
        }
      ],
      "name": "open",
      "outputs": [
        {
          "internalType": "bytes32",
          "name": "positionKey",
          "type": "bytes32"
        }
      ],
      "stateMutability": "nonpayable",
      "type": "function"
    },
    {
      "inputs": [
        {
          "components": [
            {
              "internalType": "address",
              "name": "baseToken",
              "type": "address"
            },
            {
              "internalType": "address",
              "name": "quoteToken",
              "type": "address"
            },
            {
              "internalType": "address",
              "name": "collateral",
              "type": "address"
            },
            {
              "internalType": "uint256",
              "name": "baseAmount",
              "type": "uint256"
            },
            {
              "internalType": "uint256",
              "name": "quoteAmount",
              "type": "uint256"
            },
            {
              "internalType": "uint256",
              "name": "collateralAmount",
              "type": "uint256"
            },
            {
              "internalType": "uint256",
              "name": "deadline",
              "type": "uint256"
            },
            {
              "internalType": "uint256",
              "name": "stoplossPrice",
              "type": "uint256"
            },
            {
              "internalType": "uint256",
              "name": "txDeadline",
              "type": "uint256"
            }
          ],
          "internalType": "struct IRouter.OpenTradePositionParams",
          "name": "_params",
          "type": "tuple"
        }
      ],
      "name": "openETH",
      "outputs": [
        {
          "internalType": "bytes32",
          "name": "positionKey",
          "type": "bytes32"
        }
      ],
      "stateMutability": "payable",
      "type": "function"
    },
    {
      "inputs": [
        {
          "components": [
            {
              "internalType": "address",
              "name": "baseToken",
              "type": "address"
            },
            {
              "internalType": "address",
              "name": "quoteToken",
              "type": "address"
            },
            {
              "internalType": "address",
              "name": "collateral",
              "type": "address"
            },
            {
              "internalType": "uint256",
              "name": "baseAmount",
              "type": "uint256"
            },
            {
              "internalType": "uint256",
              "name": "quoteAmount",
              "type": "uint256"
            },
            {
              "internalType": "uint256",
              "name": "collateralAmount",
              "type": "uint256"
            },
            {
              "internalType": "uint256",
              "name": "deadline",
              "type": "uint256"
            },
            {
              "internalType": "uint256",
              "name": "stoplossPrice",
              "type": "uint256"
            },
            {
              "internalType": "uint256",
              "name": "txDeadline",
              "type": "uint256"
            }
          ],
          "internalType": "struct IRouter.OpenTradePositionParams",
          "name": "_params",
          "type": "tuple"
        }
      ],
      "name": "openWithEthAsBaseToken",
      "outputs": [
        {
          "internalType": "bytes32",
          "name": "positionKey",
          "type": "bytes32"
        }
      ],
      "stateMutability": "payable",
      "type": "function"
    },
    {
      "inputs": [
        {
          "components": [
            {
              "internalType": "address",
              "name": "baseToken",
              "type": "address"
            },
            {
              "internalType": "address",
              "name": "quoteToken",
              "type": "address"
            },
            {
              "internalType": "address",
              "name": "collateral",
              "type": "address"
            },
            {
              "internalType": "uint256",
              "name": "baseAmount",
              "type": "uint256"
            },
            {
              "internalType": "uint256",
              "name": "quoteAmount",
              "type": "uint256"
            },
            {
              "internalType": "uint256",
              "name": "collateralAmount",
              "type": "uint256"
            },
            {
              "internalType": "uint256",
              "name": "deadline",
              "type": "uint256"
            },
            {
              "internalType": "uint256",
              "name": "stoplossPrice",
              "type": "uint256"
            },
            {
              "internalType": "uint256",
              "name": "txDeadline",
              "type": "uint256"
            }
          ],
          "internalType": "struct IRouter.OpenTradePositionParams",
          "name": "_params",
          "type": "tuple"
        }
      ],
      "name": "openWithEthAsCollateral",
      "outputs": [
        {
          "internalType": "bytes32",
          "name": "positionKey",
          "type": "bytes32"
        }
      ],
      "stateMutability": "payable",
      "type": "function"
    },
    {
      "inputs": [],
      "name": "poolDeployer",
      "outputs": [
        {
          "internalType": "address",
          "name": "",
          "type": "address"
        }
      ],
      "stateMutability": "view",
      "type": "function"
    },
    {
      "inputs": [
        {
          "components": [
            {
              "internalType": "address",
              "name": "baseToken",
              "type": "address"
            },
            {
              "internalType": "address",
              "name": "quoteToken",
              "type": "address"
            },
            {
              "internalType": "address",
              "name": "collateral",
              "type": "address"
            },
            {
              "internalType": "uint256",
              "name": "baseAmount",
              "type": "uint256"
            },
            {
              "internalType": "uint256",
              "name": "quoteAmount",
              "type": "uint256"
            },
            {
              "internalType": "uint256",
              "name": "collateralAmount",
              "type": "uint256"
            },
            {
              "internalType": "uint256",
              "name": "deadline",
              "type": "uint256"
            },
            {
              "internalType": "uint256",
              "name": "stoplossPrice",
              "type": "uint256"
            },
            {
              "internalType": "uint256",
              "name": "txDeadline",
              "type": "uint256"
            }
          ],
          "internalType": "struct IRouter.OpenTradePositionParams",
          "name": "_params",
          "type": "tuple"
        }
      ],
      "name": "preview",
      "outputs": [
        {
          "components": [
            {
              "internalType": "bytes32",
              "name": "positionKey",
              "type": "bytes32"
            },
            {
              "internalType": "address",
              "name": "owner",
              "type": "address"
            },
            {
              "internalType": "address",
              "name": "pool",
              "type": "address"
            },
            {
              "components": [
                {
                  "internalType": "address",
                  "name": "id",
                  "type": "address"
                },
                {
                  "internalType": "uint256",
                  "name": "amount",
                  "type": "uint256"
                },
                {
                  "internalType": "uint256",
                  "name": "entryPrice",
                  "type": "uint256"
                },
                {
                  "internalType": "uint256",
                  "name": "liqPrice",
                  "type": "uint256"
                },
                {
                  "internalType": "uint256",
                  "name": "closePrice",
                  "type": "uint256"
                }
              ],
              "internalType": "struct IPositionStorage.BaseToken",
              "name": "baseToken",
              "type": "tuple"
            },
            {
              "components": [
                {
                  "internalType": "address",
                  "name": "id",
                  "type": "address"
                },
                {
                  "internalType": "uint256",
                  "name": "amount",
                  "type": "uint256"
                }
              ],
              "internalType": "struct IPositionStorage.QuoteToken",
              "name": "quoteToken",
              "type": "tuple"
            },
            {
              "components": [
                {
                  "internalType": "address",
                  "name": "id",
                  "type": "address"
                },
                {
                  "internalType": "uint256",
                  "name": "amount",
                  "type": "uint256"
                },
                {
                  "internalType": "uint256",
                  "name": "entryPrice",
                  "type": "uint256"
                },
                {
                  "internalType": "uint256",
                  "name": "liqPrice",
                  "type": "uint256"
                },
                {
                  "internalType": "uint256",
                  "name": "closePrice",
                  "type": "uint256"
                }
              ],
              "internalType": "struct IPositionStorage.Collateral",
              "name": "collateral",
              "type": "tuple"
            },
            {
              "internalType": "uint256",
              "name": "deadline",
              "type": "uint256"
            },
            {
              "internalType": "uint256",
              "name": "stoplossPrice",
              "type": "uint256"
            },
            {
              "internalType": "uint256",
              "name": "fee",
              "type": "uint256"
            },
            {
              "internalType": "uint256",
              "name": "protocolFee",
              "type": "uint256"
            },
            {
              "components": [
                {
                  "internalType": "bool",
                  "name": "isClosed",
                  "type": "bool"
                },
                {
                  "internalType": "bool",
                  "name": "isExpired",
                  "type": "bool"
                },
                {
                  "internalType": "bool",
                  "name": "isStoploss",
                  "type": "bool"
                },
                {
                  "internalType": "bool",
                  "name": "isBaseLiquidated",
                  "type": "bool"
                },
                {
                  "internalType": "bool",
                  "name": "isCollateralLiquidated",
                  "type": "bool"
                },
                {
                  "internalType": "bool",
                  "name": "isRollbacked",
                  "type": "bool"
                },
                {
                  "internalType": "bool",
                  "name": "isClosedManuallyStep1",
                  "type": "bool"
                },
                {
                  "internalType": "bool",
                  "name": "isClosedManuallyStep2",
                  "type": "bool"
                }
              ],
              "internalType": "struct IPositionStorage.Status",
              "name": "status",
              "type": "tuple"
            },
            {
              "internalType": "address",
              "name": "closer",
              "type": "address"
            },
            {
              "internalType": "uint256",
              "name": "liquidationMarkTime",
              "type": "uint256"
            }
          ],
          "internalType": "struct IPositionStorage.TradePosition",
          "name": "",
          "type": "tuple"
        }
      ],
      "stateMutability": "view",
      "type": "function"
    },
    {
      "inputs": [
        {
          "components": [
            {
              "internalType": "address",
              "name": "pool",
              "type": "address"
            },
            {
              "internalType": "bytes32",
              "name": "positionKey",
              "type": "bytes32"
            },
            {
              "internalType": "uint256",
              "name": "txDeadline",
              "type": "uint256"
            }
          ],
          "internalType": "struct IRouter.RollbackTradePositionParams",
          "name": "_params",
          "type": "tuple"
        }
      ],
      "name": "rollback",
      "outputs": [],
      "stateMutability": "nonpayable",
      "type": "function"
    },
    {
      "inputs": [
        {
          "components": [
            {
              "internalType": "address",
              "name": "pool",
              "type": "address"
            },
            {
              "internalType": "bytes32",
              "name": "positionKey",
              "type": "bytes32"
            },
            {
              "internalType": "uint256",
              "name": "amount",
              "type": "uint256"
            },
            {
              "internalType": "uint256",
              "name": "txDeadline",
              "type": "uint256"
            }
          ],
          "internalType": "struct IRouter.UpdateCollateralAmountParams",
          "name": "_params",
          "type": "tuple"
        }
      ],
      "name": "updateCollateralAmount",
      "outputs": [
        {
          "internalType": "uint256",
          "name": "collateralLiqPrice",
          "type": "uint256"
        }
      ],
      "stateMutability": "nonpayable",
      "type": "function"
    },
    {
      "inputs": [
        {
          "components": [
            {
              "internalType": "address",
              "name": "pool",
              "type": "address"
            },
            {
              "internalType": "bytes32",
              "name": "positionKey",
              "type": "bytes32"
            },
            {
              "internalType": "uint256",
              "name": "deadline",
              "type": "uint256"
            },
            {
              "internalType": "uint256",
              "name": "txDeadline",
              "type": "uint256"
            }
          ],
          "internalType": "struct IRouter.UpdateDeadlineParams",
          "name": "_params",
          "type": "tuple"
        }
      ],
      "name": "updateDeadline",
      "outputs": [],
      "stateMutability": "nonpayable",
      "type": "function"
    },
    {
      "inputs": [
        {
          "components": [
            {
              "internalType": "address",
              "name": "pool",
              "type": "address"
            },
            {
              "internalType": "bytes32",
              "name": "positionKey",
              "type": "bytes32"
            },
            {
              "internalType": "uint256",
              "name": "stoplossPrice",
              "type": "uint256"
            },
            {
              "internalType": "uint256",
              "name": "txDeadline",
              "type": "uint256"
            }
          ],
          "internalType": "struct IRouter.UpdateStoplossPriceParams",
          "name": "_params",
          "type": "tuple"
        }
      ],
      "name": "updateStoplossPrice",
      "outputs": [],
      "stateMutability": "nonpayable",
      "type": "function"
    },
    {
      "stateMutability": "payable",
      "type": "receive"
    }
  ],
  "bytecode": "0x60e06040523480156200001157600080fd5b5060405162002fb838038062002fb8833981016040819052620000349162000125565b6001600160601b0319606083811b821660a05282901b166080526040805163188c824d60e11b815290516001600160a01b03841691633119049a916004808301926020929190829003018186803b1580156200008f57600080fd5b505afa158015620000a4573d6000803e3d6000fd5b505050506040513d601f19601f82011682018060405250810190620000ca919062000100565b60601b6001600160601b03191660c052506200015d9050565b80516001600160a01b0381168114620000fb57600080fd5b919050565b6000602082840312156200011357600080fd5b6200011e82620000e3565b9392505050565b600080604083850312156200013957600080fd5b6200014483620000e3565b91506200015460208401620000e3565b90509250929050565b60805160601c60a05160601c60c05160601c612dba620001fe6000396000818161015d015281816103e301528181611151015281816112a301526118d90152600081816102dd015281816105a70152818161095f01528181610cf201528181610ed10152818161144a015281816116180152611a4101526000818160f10152818161028901528181610363015281816111f501526118590152612dba6000f3fe6080604052600436106100e15760003560e01c806399f6fabd1161007f578063b86bdf6311610059578063b86bdf63146102ab578063c45a0155146102cb578063e0683618146102ff578063e761f9dc1461031257600080fd5b806399f6fabd146102445780639a50c46314610257578063ad5c46481461027757600080fd5b80634b129dc5116100bb5780634b129dc5146101b75780634c675a9f146101d757806356416bec1461020457806362e1af8a1461022457600080fd5b80632bb6c51b146101255780633119049a1461014b57806334ab16ff1461019757600080fd5b3661012057336001600160a01b037f0000000000000000000000000000000000000000000000000000000000000000161461011e5761011e612d40565b005b600080fd5b6101386101333660046127a9565b610332565b6040519081526020015b60405180910390f35b34801561015757600080fd5b5061017f7f000000000000000000000000000000000000000000000000000000000000000081565b6040516001600160a01b039091168152602001610142565b3480156101a357600080fd5b5061011e6101b236600461278d565b610560565b3480156101c357600080fd5b506101386101d236600461291a565b610910565b3480156101e357600080fd5b506101f76101f23660046127a9565b610ce6565b6040516101429190612afe565b34801561021057600080fd5b5061011e61021f36600461291a565b610e8a565b34801561023057600080fd5b5061013861023f3660046127a9565b61111b565b6101386102523660046127a9565b6111c2565b34801561026357600080fd5b5061011e61027236600461278d565b611400565b34801561028357600080fd5b5061017f7f000000000000000000000000000000000000000000000000000000000000000081565b3480156102b757600080fd5b5061011e6102c636600461291a565b6115d1565b3480156102d757600080fd5b5061017f7f000000000000000000000000000000000000000000000000000000000000000081565b61013861030d3660046127a9565b611828565b34801561031e57600080fd5b5061011e61032d3660046126ba565b611a3d565b6000816101000151806103424290565b111561036157604051632a0c45bf60e21b815260040160405180910390fd5b7f00000000000000000000000000000000000000000000000000000000000000006001600160a01b031683604001516001600160a01b0316146103b757604051630e52390960e41b815260040160405180910390fd5b8260a001513410156103dc5760405163f8b3bb6160e01b815260040160405180910390fd5b600061040c7f00000000000000000000000000000000000000000000000000000000000000008560200151611e51565b90506001600160a01b03811661044557604051630f4c971b60e21b81526001600160a01b03821660048201526024015b60405180910390fd5b83604001516001600160a01b031663d0e30db08560a001516040518263ffffffff1660e01b81526004016000604051808303818588803b15801561048857600080fd5b505af115801561049c573d6000803e3d6000fd5b50505060408087015160a0880151915163a9059cbb60e01b81526001600160a01b03868116600483015260248201939093529116925063a9059cbb9150604401602060405180830381600087803b1580156104f657600080fd5b505af115801561050a573d6000803e3d6000fd5b505050506040513d601f19601f8201168201806040525081019061052e9190612759565b61053a5761053a612d40565b61054e846000015133838760600151611ef8565b6105588185612036565b949350505050565b60408101518042111561058657604051632a0c45bf60e21b815260040160405180910390fd5b815160405163b42754a560e01b81526001600160a01b0391821660048201527f0000000000000000000000000000000000000000000000000000000000000000916000919083169063b42754a59060240160206040518083038186803b1580156105ef57600080fd5b505afa158015610603573d6000803e3d6000fd5b505050506040513d601f19601f820116820180604052508101906106279190612774565b905080610655578351604051630f4c971b60e21b81526001600160a01b03909116600482015260240161043c565b6000826001600160a01b0316638cd474156040518163ffffffff1660e01b815260040160206040518083038186803b15801561069057600080fd5b505afa1580156106a4573d6000803e3d6000fd5b505050506040513d601f19601f820116820180604052508101906106c8919061269d565b90506000816001600160a01b031663a0d5d12687602001516040518263ffffffff1660e01b81526004016106fe91815260200190565b6103a06040518083038186803b15801561071757600080fd5b505afa15801561072b573d6000803e3d6000fd5b505050506040513d601f19601f8201168201806040525081019061074f9190612839565b9050610771816080015160000151338860000151846080015160200151611ef8565b6000846001600160a01b031663b76929686040518163ffffffff1660e01b815260040160206040518083038186803b1580156107ac57600080fd5b505afa1580156107c0573d6000803e3d6000fd5b505050506040513d601f19601f820116820180604052508101906107e4919061269d565b90506000856001600160a01b0316633c0930376040518163ffffffff1660e01b815260040160206040518083038186803b15801561082157600080fd5b505afa158015610835573d6000803e3d6000fd5b505050506040513d601f19601f820116820180604052508101906108599190612774565b90506001600160a01b038216158015906108735750600081115b156108885761088882338a6000015184611ef8565b87516040805180820182526020808c0151825233908201908152915163d43c1b6960e01b81529051600482015290516001600160a01b0390811660248301529091169063d43c1b6990604401600060405180830381600087803b1580156108ee57600080fd5b505af1158015610902573d6000803e3d6000fd5b505050505050505050505050565b600081606001518061091f4290565b111561093e57604051632a0c45bf60e21b815260040160405180910390fd5b825160405163b42754a560e01b81526001600160a01b0391821660048201527f0000000000000000000000000000000000000000000000000000000000000000916000919083169063b42754a59060240160206040518083038186803b1580156109a757600080fd5b505afa1580156109bb573d6000803e3d6000fd5b505050506040513d601f19601f820116820180604052508101906109df9190612774565b905080610a0d578451604051630f4c971b60e21b81526001600160a01b03909116600482015260240161043c565b6000826001600160a01b0316638cd474156040518163ffffffff1660e01b815260040160206040518083038186803b158015610a4857600080fd5b505afa158015610a5c573d6000803e3d6000fd5b505050506040513d601f19601f82011682018060405250810190610a80919061269d565b90506000816001600160a01b031663a0d5d12688602001516040518263ffffffff1660e01b8152600401610ab691815260200190565b6103a06040518083038186803b158015610acf57600080fd5b505afa158015610ae3573d6000803e3d6000fd5b505050506040513d601f19601f82011682018060405250810190610b079190612839565b9050610b258160a00151600001513389600001518a60400151611ef8565b6000846001600160a01b031663b76929686040518163ffffffff1660e01b815260040160206040518083038186803b158015610b6057600080fd5b505afa158015610b74573d6000803e3d6000fd5b505050506040513d601f19601f82011682018060405250810190610b98919061269d565b90506000856001600160a01b0316632a5025b76040518163ffffffff1660e01b815260040160206040518083038186803b158015610bd557600080fd5b505afa158015610be9573d6000803e3d6000fd5b505050506040513d601f19601f82011682018060405250810190610c0d9190612774565b90506001600160a01b03821615801590610c275750600081115b15610c3c57610c3c82338b6000015184611ef8565b8851604080516060810182526020808d01518252828d01519082015233818301529051637c08ddc960e01b81526001600160a01b0390921691637c08ddc991610c8791600401612c56565b602060405180830381600087803b158015610ca157600080fd5b505af1158015610cb5573d6000803e3d6000fd5b505050506040513d601f19601f82011682018060405250810190610cd99190612774565b9998505050505050505050565b610cee61226a565b60007f00000000000000000000000000000000000000000000000000000000000000006001600160a01b0316638cd474156040518163ffffffff1660e01b815260040160206040518083038186803b158015610d4957600080fd5b505afa158015610d5d573d6000803e3d6000fd5b505050506040513d601f19601f82011682018060405250810190610d81919061269d565b9050806001600160a01b0316631a37982d604051806101200160405280336001600160a01b0316815260200186600001516001600160a01b0316815260200186602001516001600160a01b0316815260200186604001516001600160a01b0316815260200186606001518152602001866080015181526020018660a0015181526020018660c0015181526020018660e001518152506040518263ffffffff1660e01b8152600401610e329190612a89565b6103a06040518083038186803b158015610e4b57600080fd5b505afa158015610e5f573d6000803e3d6000fd5b505050506040513d601f19601f82011682018060405250810190610e839190612839565b9392505050565b606081015180421115610eb057604051632a0c45bf60e21b815260040160405180910390fd5b815160405163b42754a560e01b81526001600160a01b0391821660048201527f0000000000000000000000000000000000000000000000000000000000000000916000919083169063b42754a59060240160206040518083038186803b158015610f1957600080fd5b505afa158015610f2d573d6000803e3d6000fd5b505050506040513d601f19601f82011682018060405250810190610f519190612774565b905080610f7f578351604051630f4c971b60e21b81526001600160a01b03909116600482015260240161043c565b6000826001600160a01b031663b76929686040518163ffffffff1660e01b815260040160206040518083038186803b158015610fba57600080fd5b505afa158015610fce573d6000803e3d6000fd5b505050506040513d601f19601f82011682018060405250810190610ff2919061269d565b90506000836001600160a01b031663b58862e76040518163ffffffff1660e01b815260040160206040518083038186803b15801561102f57600080fd5b505afa158015611043573d6000803e3d6000fd5b505050506040513d601f19601f820116820180604052508101906110679190612774565b90506001600160a01b038216158015906110815750600081115b15611096576110968233886000015184611ef8565b8551604080516060810182526020808a01518252828a01519082015233818301529051631636e19960e01b81526001600160a01b0390921691631636e199916110e191600401612c56565b600060405180830381600087803b1580156110fb57600080fd5b505af115801561110f573d6000803e3d6000fd5b50505050505050505050565b60008161010001518061112b4290565b111561114a57604051632a0c45bf60e21b815260040160405180910390fd5b600061117a7f00000000000000000000000000000000000000000000000000000000000000008560200151611e51565b90506001600160a01b0381166111ae57604051630f4c971b60e21b81526001600160a01b038216600482015260240161043c565b61053a846040015133838760a00151611ef8565b6000816101000151806111d24290565b11156111f157604051632a0c45bf60e21b815260040160405180910390fd5b82517f0000000000000000000000000000000000000000000000000000000000000000906001600160a01b0380831691161415806112455750806001600160a01b031684604001516001600160a01b031614155b1561126357604051630e52390960e41b815260040160405180910390fd5b600084606001518560a001516112799190612cea565b90508034101561129c5760405163f8b3bb6160e01b815260040160405180910390fd5b60006112cc7f00000000000000000000000000000000000000000000000000000000000000008760200151611e51565b90506001600160a01b03811661130057604051630f4c971b60e21b81526001600160a01b038216600482015260240161043c565b85604001516001600160a01b031663d0e30db0836040518263ffffffff1660e01b81526004016000604051808303818588803b15801561133f57600080fd5b505af1158015611353573d6000803e3d6000fd5b505050604080890151905163a9059cbb60e01b81526001600160a01b03858116600483015260248201879052909116925063a9059cbb9150604401602060405180830381600087803b1580156113a857600080fd5b505af11580156113bc573d6000803e3d6000fd5b505050506040513d601f19601f820116820180604052508101906113e09190612759565b6113ec576113ec612d40565b6113f68187612036565b9695505050505050565b60408101518042111561142657604051632a0c45bf60e21b815260040160405180910390fd5b815160405163b42754a560e01b81526001600160a01b0391821660048201526000917f0000000000000000000000000000000000000000000000000000000000000000169063b42754a59060240160206040518083038186803b15801561148c57600080fd5b505afa1580156114a0573d6000803e3d6000fd5b505050506040513d601f19601f820116820180604052508101906114c49190612774565b9050806114f2578251604051630f4c971b60e21b81526001600160a01b03909116600482015260240161043c565b82600001516001600160a01b031663fba0c814604051806080016040528086602001518152602001600067ffffffffffffffff81111561153457611534612d56565b6040519080825280601f01601f19166020018201604052801561155e576020820181803683370190505b50815260408051600081526020808201835283015233918101919091525160e083901b6001600160e01b031916815261159a9190600401612a24565b600060405180830381600087803b1580156115b457600080fd5b505af11580156115c8573d6000803e3d6000fd5b50505050505050565b6060810151804211156115f757604051632a0c45bf60e21b815260040160405180910390fd5b815160405163b42754a560e01b81526001600160a01b0391821660048201527f0000000000000000000000000000000000000000000000000000000000000000916000919083169063b42754a59060240160206040518083038186803b15801561166057600080fd5b505afa158015611674573d6000803e3d6000fd5b505050506040513d601f19601f820116820180604052508101906116989190612774565b9050806116c6578351604051630f4c971b60e21b81526001600160a01b03909116600482015260240161043c565b6000826001600160a01b031663b76929686040518163ffffffff1660e01b815260040160206040518083038186803b15801561170157600080fd5b505afa158015611715573d6000803e3d6000fd5b505050506040513d601f19601f82011682018060405250810190611739919061269d565b90506000836001600160a01b031663c79005846040518163ffffffff1660e01b815260040160206040518083038186803b15801561177657600080fd5b505afa15801561178a573d6000803e3d6000fd5b505050506040513d601f19601f820116820180604052508101906117ae9190612774565b90506001600160a01b038216158015906117c85750600081115b156117dd576117dd8233886000015184611ef8565b8551604080516060810182526020808a01518252828a01519082015233818301529051630fc9ffe160e41b81526001600160a01b039092169163fc9ffe10916110e191600401612c56565b6000816101000151806118384290565b111561185757604051632a0c45bf60e21b815260040160405180910390fd5b7f00000000000000000000000000000000000000000000000000000000000000006001600160a01b031683600001516001600160a01b0316146118ad57604051630e52390960e41b815260040160405180910390fd5b82606001513410156118d25760405163f8b3bb6160e01b815260040160405180910390fd5b60006119027f00000000000000000000000000000000000000000000000000000000000000008560200151611e51565b90506001600160a01b03811661193657604051630f4c971b60e21b81526001600160a01b038216600482015260240161043c565b83600001516001600160a01b031663d0e30db085606001516040518263ffffffff1660e01b81526004016000604051808303818588803b15801561197957600080fd5b505af115801561198d573d6000803e3d6000fd5b50508651606088015160405163a9059cbb60e01b81526001600160a01b03878116600483015260248201929092529116935063a9059cbb92506044019050602060405180830381600087803b1580156119e557600080fd5b505af11580156119f9573d6000803e3d6000fd5b505050506040513d601f19601f82011682018060405250810190611a1d9190612759565b611a2957611a29612d40565b61054e846040015133838760a00151611ef8565b60007f000000000000000000000000000000000000000000000000000000000000000090506000816001600160a01b0316637c21d5e06040518163ffffffff1660e01b815260040160206040518083038186803b158015611a9d57600080fd5b505afa158015611ab1573d6000803e3d6000fd5b505050506040513d601f19601f82011682018060405250810190611ad5919061269d565b6040516370a0823160e01b81523060048201529091506000906001600160a01b038916906370a082319060240160206040518083038186803b158015611b1a57600080fd5b505afa158015611b2e573d6000803e3d6000fd5b505050506040513d601f19601f82011682018060405250810190611b529190612774565b9050611b5f888383612139565b604051630ceffb5960e31b8152600060048201526001600160a01b03898116602483015288811660448301526064820188905230608483015283169063677fdac89060a4016040805180830381600087803b158015611bbd57600080fd5b505af1158015611bd1573d6000803e3d6000fd5b505050506040513d601f19601f82011682018060405250810190611bf59190612936565b5050611c02873388612139565b6040516370a0823160e01b81523060048201526000906001600160a01b038916906370a082319060240160206040518083038186803b158015611c4457600080fd5b505afa158015611c58573d6000803e3d6000fd5b505050506040513d601f19601f82011682018060405250810190611c7c9190612774565b90508015611e465760405163d7176ca960e01b81526000600482018190526001600160a01b038a811660248401528b811660448401526064830184905290919085169063d7176ca990608401604080518083038186803b158015611cdf57600080fd5b505afa158015611cf3573d6000803e3d6000fd5b505050506040513d601f19601f82011682018060405250810190611d179190612936565b5090508015611dcb57611d2b898584612139565b604051630ceffb5960e31b81526000600482018190526001600160a01b038b811660248401528c81166044840152606483019190915233608483015285169063677fdac89060a4016040805180830381600087803b158015611d8c57600080fd5b505af1158015611da0573d6000803e3d6000fd5b505050506040513d601f19601f82011682018060405250810190611dc49190612936565b505061110f565b61110f89866001600160a01b031663ef3692526040518163ffffffff1660e01b815260040160206040518083038186803b158015611e0857600080fd5b505afa158015611e1c573d6000803e3d6000fd5b505050506040513d601f19601f82011682018060405250810190611e40919061269d565b84612139565b505050505050505050565b604080516001600160a01b03831660208083019190915282518083038201815282840190935282519201919091206001600160f81b031960608084019190915284901b6bffffffffffffffffffffffff1916606183015260758201527f6c6a3125043137214ba9fce2fbc49163378d28fdd84e53dba5c0af27a794e0bf609582015260009060b50160408051601f1981840301815291905280516020909101209392505050565b604080516001600160a01b0385811660248301528481166044830152606480830185905283518084039091018152608490920183526020820180516001600160e01b03166323b872dd60e01b1790529151600092839290881691611f5c9190612a08565b6000604051808303816000865af19150503d8060008114611f99576040519150601f19603f3d011682016040523d82523d6000602084013e611f9e565b606091505b5091509150818015611fc8575080511580611fc8575080806020019051810190611fc89190612759565b61202e5760405162461bcd60e51b815260206004820152603160248201527f5472616e7366657248656c7065723a3a7472616e7366657246726f6d3a207472604482015270185b9cd9995c919c9bdb4819985a5b1959607a1b606482015260840161043c565b505050505050565b6000826001600160a01b03166341ba5951604051806101200160405280336001600160a01b0316815260200185600001516001600160a01b0316815260200185602001516001600160a01b0316815260200185604001516001600160a01b0316815260200185606001518152602001856080015181526020018560a0015181526020018560c0015181526020018560e001518152506040518263ffffffff1660e01b81526004016120e79190612a89565b602060405180830381600087803b15801561210157600080fd5b505af1158015612115573d6000803e3d6000fd5b505050506040513d601f19601f82011682018060405250810190610e839190612774565b604080516001600160a01b038481166024830152604480830185905283518084039091018152606490920183526020820180516001600160e01b031663a9059cbb60e01b17905291516000928392908716916121959190612a08565b6000604051808303816000865af19150503d80600081146121d2576040519150601f19603f3d011682016040523d82523d6000602084013e6121d7565b606091505b50915091508180156122015750805115806122015750808060200190518101906122019190612759565b6122635760405162461bcd60e51b815260206004820152602d60248201527f5472616e7366657248656c7065723a3a736166655472616e736665723a20747260448201526c185b9cd9995c8819985a5b1959609a1b606482015260840161043c565b5050505050565b604051806101a001604052806000801916815260200160006001600160a01b0316815260200160006001600160a01b031681526020016122db6040518060a0016040528060006001600160a01b03168152602001600081526020016000815260200160008152602001600081525090565b8152602001612306604051806040016040528060006001600160a01b03168152602001600081525090565b81526020016123466040518060a0016040528060006001600160a01b03168152602001600081526020016000815260200160008152602001600081525090565b8152600060208083018290526040808401839052606080850184905260808086018590528251610100810184528581529384018590529183018490528201839052810182905260a081810183905260c0820183905260e0820192909252910190815260006020820181905260409091015290565b80356123c581612d6c565b919050565b80516123c581612d6c565b805180151581146123c557600080fd5b600060a082840312156123f757600080fd5b60405160a0810181811067ffffffffffffffff8211171561242857634e487b7160e01b600052604160045260246000fd5b8060405250809150825161243b81612d6c565b80825250602083015160208201526040830151604082015260608301516060820152608083015160808201525092915050565b60006060828403121561248057600080fd5b6040516060810181811067ffffffffffffffff821117156124b157634e487b7160e01b600052604160045260246000fd5b60405290508082356124c281612d6c565b8082525060208301356020820152604083013560408201525092915050565b6000604082840312156124f357600080fd5b6040516040810181811067ffffffffffffffff8211171561252457634e487b7160e01b600052604160045260246000fd5b8060405250809150825161253781612d6c565b8152602092830151920191909152919050565b600061010080838503121561255e57600080fd5b6040519081019067ffffffffffffffff8211818310171561258f57634e487b7160e01b600052604160045260246000fd5b8160405280925061259f846123d5565b81526125ad602085016123d5565b60208201526125be604085016123d5565b60408201526125cf606085016123d5565b60608201526125e0608085016123d5565b60808201526125f160a085016123d5565b60a082015261260260c085016123d5565b60c082015261261360e085016123d5565b60e0820152505092915050565b60006080828403121561263257600080fd5b6040516080810181811067ffffffffffffffff8211171561266357634e487b7160e01b600052604160045260246000fd5b604052905080823561267481612d6c565b808252506020830135602082015260408301356040820152606083013560608201525092915050565b6000602082840312156126af57600080fd5b8151610e8381612d6c565b6000806000806000608086880312156126d257600080fd5b85356126dd81612d6c565b945060208601356126ed81612d6c565b935060408601359250606086013567ffffffffffffffff8082111561271157600080fd5b818801915088601f83011261272557600080fd5b81358181111561273457600080fd5b89602082850101111561274657600080fd5b9699959850939650602001949392505050565b60006020828403121561276b57600080fd5b610e83826123d5565b60006020828403121561278657600080fd5b5051919050565b60006060828403121561279f57600080fd5b610e83838361246e565b600061012082840312156127bc57600080fd5b6127c4612c80565b6127cd836123ba565b81526127db602084016123ba565b60208201526127ec604084016123ba565b6040820152606083013560608201526080830135608082015260a083013560a082015260c083013560c082015260e083013560e08201526101008084013581830152508091505092915050565b60006103a0828403121561284c57600080fd5b612854612cb8565b82518152612864602084016123ca565b6020820152612875604084016123ca565b604082015261288784606085016123e5565b606082015261010061289b858286016124e1565b60808301526101406128af868287016123e5565b60a08401526101e085015160c084015261020085015160e0840152610220850151828401526102408501516101208401526128ee86610260870161254a565b908301525061290061036084016123ca565b610160820152610380929092015161018083015250919050565b60006080828403121561292c57600080fd5b610e838383612620565b6000806040838503121561294957600080fd5b82519150602083015161295b81612d6c565b809150509250929050565b6000815180845261297e816020860160208601612d10565b601f01601f19169290920160200192915050565b80511515825260208101511515602083015260408101511515604083015260608101511515606083015260808101511515608083015260a08101516129db60a084018215159052565b5060c08101516129ef60c084018215159052565b5060e0810151612a0360e084018215159052565b505050565b60008251612a1a818460208701612d10565b9190910192915050565b60208152815160208201526000602083015160806040840152612a4a60a0840182612966565b90506040840151601f19848303016060850152612a678282612966565b606095909501516001600160a01b031660809490940193909352509192915050565b81516001600160a01b03908116825260208084015182169083015260408084015182169083015260608084015191821690830152610120820190506080830151608083015260a083015160a083015260c083015160c083015260e083015160e083015261010080840151818401525092915050565b815181526020808301516103a0830191612b22908401826001600160a01b03169052565b506040830151612b3d60408401826001600160a01b03169052565b506060830151612b81606084018280516001600160a01b03168252602080820151908301526040808201519083015260608082015190830152608090810151910152565b506080830151610100612ba98185018380516001600160a01b03168252602090810151910152565b60a085015180516001600160a01b0316610140868101919091526020820151610160870152604082015161018087015260608201516101a08701526080909101516101c086015260c08601516101e086015260e0860151610200860152908501516102208501526101208501516102408501528401519050612c2f610260840182612992565b506101608301516001600160a01b0316610360830152610180909201516103809091015290565b81518152602080830151908201526040918201516001600160a01b03169181019190915260600190565b604051610120810167ffffffffffffffff81118282101715612cb257634e487b7160e01b600052604160045260246000fd5b60405290565b6040516101a0810167ffffffffffffffff81118282101715612cb257634e487b7160e01b600052604160045260246000fd5b60008219821115612d0b57634e487b7160e01b600052601160045260246000fd5b500190565b60005b83811015612d2b578181015183820152602001612d13565b83811115612d3a576000848401525b50505050565b634e487b7160e01b600052600160045260246000fd5b634e487b7160e01b600052604160045260246000fd5b6001600160a01b0381168114612d8157600080fd5b5056fea264697066735822122038d73f49cac94fde6dee94251f47e02acf4a163da785ba1d7a80e75cd3515c6f64736f6c63430008070033",
  "linkReferences": {},
  "deployedLinkReferences": {}
}