{
  "_format": "hh-sol-artifact-1",
  "contractName": "Router",
  "sourceName": "contracts/Router.sol",
  "abi": [
    {
      "inputs": [
        {
          "internalType": "address",
          "name": "_factory",
          "type": "address"
        },
        {
          "internalType": "address",
          "name": "_WETH",
          "type": "address"
        }
      ],
      "stateMutability": "nonpayable",
      "type": "constructor"
    },
    {
      "inputs": [],
      "name": "ExceedMaxExpiryTime",
      "type": "error"
    },
    {
      "inputs": [
        {
          "internalType": "address",
          "name": "sender",
          "type": "address"
        }
      ],
      "name": "Forbidden",
      "type": "error"
    },
    {
      "inputs": [],
      "name": "InsufficientInput",
      "type": "error"
    },
    {
      "inputs": [],
      "name": "InsufficientOutput",
      "type": "error"
    },
    {
      "inputs": [],
      "name": "InvalidParameters",
      "type": "error"
    },
    {
      "inputs": [
        {
          "internalType": "address",
          "name": "pool",
          "type": "address"
        }
      ],
      "name": "InvalidPool",
      "type": "error"
    },
    {
      "inputs": [],
      "name": "TransactionTooOld",
      "type": "error"
    },
    {
      "inputs": [],
      "name": "ZeroAddress",
      "type": "error"
    },
    {
      "anonymous": false,
      "inputs": [
        {
          "indexed": false,
          "internalType": "address",
          "name": "manager",
          "type": "address"
        }
      ],
      "name": "SetManager",
      "type": "event"
    },
    {
      "anonymous": false,
      "inputs": [
        {
          "indexed": false,
          "internalType": "uint256",
          "name": "maxExpiryTime",
          "type": "uint256"
        }
      ],
      "name": "SetMaxExpiryTime",
      "type": "event"
    },
    {
      "anonymous": false,
      "inputs": [
        {
          "indexed": false,
          "internalType": "address",
          "name": "metagregator",
          "type": "address"
        }
      ],
      "name": "SetMetaAggregator",
      "type": "event"
    },
    {
      "inputs": [],
      "name": "WETH",
      "outputs": [
        {
          "internalType": "address",
          "name": "",
          "type": "address"
        }
      ],
      "stateMutability": "view",
      "type": "function"
    },
    {
      "inputs": [
        {
          "components": [
            {
              "internalType": "address",
              "name": "pool",
              "type": "address"
            },
            {
              "internalType": "bytes32",
              "name": "positionKey",
              "type": "bytes32"
            },
            {
              "internalType": "bytes",
              "name": "data0",
              "type": "bytes"
            },
            {
              "internalType": "bytes",
              "name": "data1",
              "type": "bytes"
            },
            {
              "internalType": "uint256",
              "name": "txDeadline",
              "type": "uint256"
            }
          ],
          "internalType": "struct IRouter.CloseTradePositionParams",
          "name": "_params",
          "type": "tuple"
        }
      ],
      "name": "close",
      "outputs": [],
      "stateMutability": "nonpayable",
      "type": "function"
    },
    {
      "inputs": [
        {
          "internalType": "address",
          "name": "_tokenIn",
          "type": "address"
        },
        {
          "internalType": "address",
          "name": "_tokenOut",
          "type": "address"
        },
        {
          "internalType": "uint256",
          "name": "_minAmountOut",
          "type": "uint256"
        },
        {
          "internalType": "bytes",
          "name": "_data",
          "type": "bytes"
        }
      ],
      "name": "closeCallback",
      "outputs": [],
      "stateMutability": "nonpayable",
      "type": "function"
    },
    {
      "inputs": [],
      "name": "factory",
      "outputs": [
        {
          "internalType": "address",
          "name": "",
          "type": "address"
        }
      ],
      "stateMutability": "view",
      "type": "function"
    },
    {
      "inputs": [],
      "name": "manager",
      "outputs": [
        {
          "internalType": "address",
          "name": "",
          "type": "address"
        }
      ],
      "stateMutability": "view",
      "type": "function"
    },
    {
      "inputs": [],
      "name": "maxExpiryTime",
      "outputs": [
        {
          "internalType": "uint256",
          "name": "",
          "type": "uint256"
        }
      ],
      "stateMutability": "view",
      "type": "function"
    },
    {
      "inputs": [],
      "name": "metaAggregator",
      "outputs": [
        {
          "internalType": "address",
          "name": "",
          "type": "address"
        }
      ],
      "stateMutability": "view",
      "type": "function"
    },
    {
      "inputs": [
        {
          "components": [
            {
              "internalType": "address",
              "name": "baseToken",
              "type": "address"
            },
            {
              "internalType": "address",
              "name": "quoteToken",
              "type": "address"
            },
            {
              "internalType": "address",
              "name": "collateral",
              "type": "address"
            },
            {
              "internalType": "uint256",
              "name": "baseAmount",
              "type": "uint256"
            },
            {
              "internalType": "uint256",
              "name": "quoteAmount",
              "type": "uint256"
            },
            {
              "internalType": "uint256",
              "name": "collateralAmount",
              "type": "uint256"
            },
            {
              "internalType": "uint256",
              "name": "deadline",
              "type": "uint256"
            },
            {
              "internalType": "uint256",
              "name": "stoplossPrice",
              "type": "uint256"
            },
            {
              "internalType": "uint256",
              "name": "takeProfitPrice",
              "type": "uint256"
            },
            {
              "internalType": "uint256",
              "name": "txDeadline",
              "type": "uint256"
            }
          ],
          "internalType": "struct IRouter.OpenTradePositionParams",
          "name": "_params",
          "type": "tuple"
        }
      ],
      "name": "open",
      "outputs": [
        {
          "internalType": "bytes32",
          "name": "positionKey",
          "type": "bytes32"
        }
      ],
      "stateMutability": "nonpayable",
      "type": "function"
    },
    {
      "inputs": [
        {
          "components": [
            {
              "internalType": "address",
              "name": "baseToken",
              "type": "address"
            },
            {
              "internalType": "address",
              "name": "quoteToken",
              "type": "address"
            },
            {
              "internalType": "address",
              "name": "collateral",
              "type": "address"
            },
            {
              "internalType": "uint256",
              "name": "baseAmount",
              "type": "uint256"
            },
            {
              "internalType": "uint256",
              "name": "quoteAmount",
              "type": "uint256"
            },
            {
              "internalType": "uint256",
              "name": "collateralAmount",
              "type": "uint256"
            },
            {
              "internalType": "uint256",
              "name": "deadline",
              "type": "uint256"
            },
            {
              "internalType": "uint256",
              "name": "stoplossPrice",
              "type": "uint256"
            },
            {
              "internalType": "uint256",
              "name": "takeProfitPrice",
              "type": "uint256"
            },
            {
              "internalType": "uint256",
              "name": "txDeadline",
              "type": "uint256"
            }
          ],
          "internalType": "struct IRouter.OpenTradePositionParams",
          "name": "_params",
          "type": "tuple"
        }
      ],
      "name": "openETH",
      "outputs": [
        {
          "internalType": "bytes32",
          "name": "positionKey",
          "type": "bytes32"
        }
      ],
      "stateMutability": "payable",
      "type": "function"
    },
    {
      "inputs": [
        {
          "components": [
            {
              "internalType": "address",
              "name": "baseToken",
              "type": "address"
            },
            {
              "internalType": "address",
              "name": "quoteToken",
              "type": "address"
            },
            {
              "internalType": "address",
              "name": "collateral",
              "type": "address"
            },
            {
              "internalType": "uint256",
              "name": "baseAmount",
              "type": "uint256"
            },
            {
              "internalType": "uint256",
              "name": "quoteAmount",
              "type": "uint256"
            },
            {
              "internalType": "uint256",
              "name": "collateralAmount",
              "type": "uint256"
            },
            {
              "internalType": "uint256",
              "name": "deadline",
              "type": "uint256"
            },
            {
              "internalType": "uint256",
              "name": "stoplossPrice",
              "type": "uint256"
            },
            {
              "internalType": "uint256",
              "name": "takeProfitPrice",
              "type": "uint256"
            },
            {
              "internalType": "uint256",
              "name": "txDeadline",
              "type": "uint256"
            }
          ],
          "internalType": "struct IRouter.OpenTradePositionParams",
          "name": "_params",
          "type": "tuple"
        }
      ],
      "name": "openWithEthAsBaseToken",
      "outputs": [
        {
          "internalType": "bytes32",
          "name": "positionKey",
          "type": "bytes32"
        }
      ],
      "stateMutability": "payable",
      "type": "function"
    },
    {
      "inputs": [
        {
          "components": [
            {
              "internalType": "address",
              "name": "baseToken",
              "type": "address"
            },
            {
              "internalType": "address",
              "name": "quoteToken",
              "type": "address"
            },
            {
              "internalType": "address",
              "name": "collateral",
              "type": "address"
            },
            {
              "internalType": "uint256",
              "name": "baseAmount",
              "type": "uint256"
            },
            {
              "internalType": "uint256",
              "name": "quoteAmount",
              "type": "uint256"
            },
            {
              "internalType": "uint256",
              "name": "collateralAmount",
              "type": "uint256"
            },
            {
              "internalType": "uint256",
              "name": "deadline",
              "type": "uint256"
            },
            {
              "internalType": "uint256",
              "name": "stoplossPrice",
              "type": "uint256"
            },
            {
              "internalType": "uint256",
              "name": "takeProfitPrice",
              "type": "uint256"
            },
            {
              "internalType": "uint256",
              "name": "txDeadline",
              "type": "uint256"
            }
          ],
          "internalType": "struct IRouter.OpenTradePositionParams",
          "name": "_params",
          "type": "tuple"
        }
      ],
      "name": "openWithEthAsCollateral",
      "outputs": [
        {
          "internalType": "bytes32",
          "name": "positionKey",
          "type": "bytes32"
        }
      ],
      "stateMutability": "payable",
      "type": "function"
    },
    {
      "inputs": [],
      "name": "poolDeployer",
      "outputs": [
        {
          "internalType": "address",
          "name": "",
          "type": "address"
        }
      ],
      "stateMutability": "view",
      "type": "function"
    },
    {
      "inputs": [],
      "name": "positionStorage",
      "outputs": [
        {
          "internalType": "address",
          "name": "",
          "type": "address"
        }
      ],
      "stateMutability": "view",
      "type": "function"
    },
    {
      "inputs": [
        {
          "components": [
            {
              "internalType": "address",
              "name": "baseToken",
              "type": "address"
            },
            {
              "internalType": "address",
              "name": "quoteToken",
              "type": "address"
            },
            {
              "internalType": "address",
              "name": "collateral",
              "type": "address"
            },
            {
              "internalType": "uint256",
              "name": "baseAmount",
              "type": "uint256"
            },
            {
              "internalType": "uint256",
              "name": "quoteAmount",
              "type": "uint256"
            },
            {
              "internalType": "uint256",
              "name": "collateralAmount",
              "type": "uint256"
            },
            {
              "internalType": "uint256",
              "name": "deadline",
              "type": "uint256"
            },
            {
              "internalType": "uint256",
              "name": "stoplossPrice",
              "type": "uint256"
            },
            {
              "internalType": "uint256",
              "name": "takeProfitPrice",
              "type": "uint256"
            },
            {
              "internalType": "uint256",
              "name": "txDeadline",
              "type": "uint256"
            }
          ],
          "internalType": "struct IRouter.OpenTradePositionParams",
          "name": "_params",
          "type": "tuple"
        }
      ],
      "name": "preview",
      "outputs": [
        {
          "components": [
            {
              "internalType": "bytes32",
              "name": "positionKey",
              "type": "bytes32"
            },
            {
              "internalType": "address",
              "name": "owner",
              "type": "address"
            },
            {
              "internalType": "address",
              "name": "pool",
              "type": "address"
            },
            {
              "components": [
                {
                  "internalType": "address",
                  "name": "id",
                  "type": "address"
                },
                {
                  "internalType": "uint256",
                  "name": "amount",
                  "type": "uint256"
                },
                {
                  "internalType": "uint256",
                  "name": "entryPrice",
                  "type": "uint256"
                },
                {
                  "internalType": "uint256",
                  "name": "liqPrice",
                  "type": "uint256"
                },
                {
                  "internalType": "uint256",
                  "name": "closePrice",
                  "type": "uint256"
                }
              ],
              "internalType": "struct IPositionStorage.BaseToken",
              "name": "baseToken",
              "type": "tuple"
            },
            {
              "components": [
                {
                  "internalType": "address",
                  "name": "id",
                  "type": "address"
                },
                {
                  "internalType": "uint256",
                  "name": "amount",
                  "type": "uint256"
                }
              ],
              "internalType": "struct IPositionStorage.QuoteToken",
              "name": "quoteToken",
              "type": "tuple"
            },
            {
              "components": [
                {
                  "internalType": "address",
                  "name": "id",
                  "type": "address"
                },
                {
                  "internalType": "uint256",
                  "name": "amount",
                  "type": "uint256"
                },
                {
                  "internalType": "uint256",
                  "name": "entryPrice",
                  "type": "uint256"
                },
                {
                  "internalType": "uint256",
                  "name": "liqPrice",
                  "type": "uint256"
                },
                {
                  "internalType": "uint256",
                  "name": "closePrice",
                  "type": "uint256"
                }
              ],
              "internalType": "struct IPositionStorage.Collateral",
              "name": "collateral",
              "type": "tuple"
            },
            {
              "internalType": "uint256",
              "name": "deadline",
              "type": "uint256"
            },
            {
              "internalType": "uint256",
              "name": "stoplossPrice",
              "type": "uint256"
            },
            {
              "internalType": "uint256",
              "name": "takeProfitPrice",
              "type": "uint256"
            },
            {
              "internalType": "uint256",
              "name": "fee",
              "type": "uint256"
            },
            {
              "internalType": "uint256",
              "name": "protocolFee",
              "type": "uint256"
            },
            {
              "components": [
                {
                  "internalType": "bool",
                  "name": "isClosed",
                  "type": "bool"
                },
                {
                  "internalType": "bool",
                  "name": "isRollbacked",
                  "type": "bool"
                },
                {
                  "internalType": "bool",
                  "name": "isClosedManuallyStep1",
                  "type": "bool"
                },
                {
                  "internalType": "bool",
                  "name": "isClosedManuallyStep2",
                  "type": "bool"
                }
              ],
              "internalType": "struct IPositionStorage.Status",
              "name": "status",
              "type": "tuple"
            },
            {
              "internalType": "address",
              "name": "closer",
              "type": "address"
            },
            {
              "internalType": "uint256",
              "name": "liquidationMarkTime",
              "type": "uint256"
            }
          ],
          "internalType": "struct IPositionStorage.TradePosition",
          "name": "",
          "type": "tuple"
        }
      ],
      "stateMutability": "view",
      "type": "function"
    },
    {
      "inputs": [
        {
          "components": [
            {
              "internalType": "address",
              "name": "pool",
              "type": "address"
            },
            {
              "internalType": "bytes32",
              "name": "positionKey",
              "type": "bytes32"
            },
            {
              "internalType": "uint256",
              "name": "txDeadline",
              "type": "uint256"
            }
          ],
          "internalType": "struct IRouter.RollbackTradePositionParams",
          "name": "_params",
          "type": "tuple"
        }
      ],
      "name": "rollback",
      "outputs": [],
      "stateMutability": "nonpayable",
      "type": "function"
    },
    {
      "inputs": [
        {
          "internalType": "address",
          "name": "_newManager",
          "type": "address"
        }
      ],
      "name": "setManager",
      "outputs": [],
      "stateMutability": "nonpayable",
      "type": "function"
    },
    {
      "inputs": [
        {
          "internalType": "uint256",
          "name": "_newMaxExpiryTime",
          "type": "uint256"
        }
      ],
      "name": "setMaxExpiryTime",
      "outputs": [],
      "stateMutability": "nonpayable",
      "type": "function"
    },
    {
      "inputs": [
        {
          "internalType": "address",
          "name": "_newMetaAggregator",
          "type": "address"
        }
      ],
      "name": "setMetaAggregator",
      "outputs": [],
      "stateMutability": "nonpayable",
      "type": "function"
    },
    {
      "inputs": [
        {
          "components": [
            {
              "internalType": "address",
              "name": "pool",
              "type": "address"
            },
            {
              "internalType": "bytes32",
              "name": "positionKey",
              "type": "bytes32"
            },
            {
              "internalType": "uint256",
              "name": "amount",
              "type": "uint256"
            },
            {
              "internalType": "uint256",
              "name": "txDeadline",
              "type": "uint256"
            }
          ],
          "internalType": "struct IRouter.UpdateCollateralAmountParams",
          "name": "_params",
          "type": "tuple"
        }
      ],
      "name": "updateCollateralAmount",
      "outputs": [
        {
          "internalType": "uint256",
          "name": "collateralLiqPrice",
          "type": "uint256"
        }
      ],
      "stateMutability": "nonpayable",
      "type": "function"
    },
    {
      "inputs": [
        {
          "components": [
            {
              "internalType": "address",
              "name": "pool",
              "type": "address"
            },
            {
              "internalType": "bytes32",
              "name": "positionKey",
              "type": "bytes32"
            },
            {
              "internalType": "uint256",
              "name": "deadline",
              "type": "uint256"
            },
            {
              "internalType": "uint256",
              "name": "txDeadline",
              "type": "uint256"
            }
          ],
          "internalType": "struct IRouter.UpdateDeadlineParams",
          "name": "_params",
          "type": "tuple"
        }
      ],
      "name": "updateDeadline",
      "outputs": [],
      "stateMutability": "nonpayable",
      "type": "function"
    },
    {
      "inputs": [
        {
          "components": [
            {
              "internalType": "address",
              "name": "pool",
              "type": "address"
            },
            {
              "internalType": "bytes32",
              "name": "positionKey",
              "type": "bytes32"
            },
            {
              "internalType": "uint256",
              "name": "takeProfitPrice",
              "type": "uint256"
            },
            {
              "internalType": "uint256",
              "name": "stoplossPrice",
              "type": "uint256"
            },
            {
              "internalType": "uint256",
              "name": "txDeadline",
              "type": "uint256"
            }
          ],
          "internalType": "struct IRouter.UpdateTPnSLParams",
          "name": "_params",
          "type": "tuple"
        }
      ],
      "name": "updateTPnSL",
      "outputs": [],
      "stateMutability": "nonpayable",
      "type": "function"
    },
    {
      "stateMutability": "payable",
      "type": "receive"
    }
  ],
  "bytecode": "0x6101006040523480156200001257600080fd5b50604051620033d1380380620033d18339810160408190526200003591620001cf565b600080546001600160a01b031916331790556001600160601b0319606083811b821660a05282901b166080526040805163188c824d60e11b815290516001600160a01b03841691633119049a916004808301926020929190829003018186803b158015620000a257600080fd5b505afa158015620000b7573d6000803e3d6000fd5b505050506040513d601f19601f82011682018060405250810190620000dd9190620001aa565b6001600160a01b031660c0816001600160a01b031660601b81525050816001600160a01b0316638cd474156040518163ffffffff1660e01b815260040160206040518083038186803b1580156200013357600080fd5b505afa15801562000148573d6000803e3d6000fd5b505050506040513d601f19601f820116820180604052508101906200016e9190620001aa565b60601b6001600160601b03191660e05250506224ea0060025562000207565b80516001600160a01b0381168114620001a557600080fd5b919050565b600060208284031215620001bd57600080fd5b620001c8826200018d565b9392505050565b60008060408385031215620001e357600080fd5b620001ee836200018d565b9150620001fe602084016200018d565b90509250929050565b60805160601c60a05160601c60c05160601c60e05160601c613106620002cb600039600081816102cc015281816107f001528181610b4f0152818161107c01526115a30152600081816101aa0152818161057c015281816111c7015281816115260152611a310152600081816103d40152818161072601528181610a8501528181610e550152818161138a0152818161174f0152611d5101526000818161013e01528181610333015281816104ce0152818161114701526119b101526131066000f3fe60806040526004361061012e5760003560e01c8063924695a7116100ab578063b86bdf631161006f578063b86bdf63146103a2578063c45a0155146103c2578063c6ad7ff1146103f6578063cee6031f14610409578063d0ebdbe714610429578063e761f9dc1461044957600080fd5b8063924695a7146102ee57806393408dd814610301578063ad5c464814610321578063b7c1a10e14610355578063b82026b51461037557600080fd5b80634b129dc5116100f25780634b129dc514610244578063514e154a14610264578063701121bc14610284578063733789c4146102a45780638cd47415146102ba57600080fd5b80632841d0a3146101725780633119049a1461019857806334ab16ff146101e45780633e7efed514610204578063481c6a751461022457600080fd5b3661016d57336001600160a01b037f0000000000000000000000000000000000000000000000000000000000000000161461016b5761016b61308c565b005b600080fd5b610185610180366004612958565b610469565b6040519081526020015b60405180910390f35b3480156101a457600080fd5b506101cc7f000000000000000000000000000000000000000000000000000000000000000081565b6040516001600160a01b03909116815260200161018f565b3480156101f057600080fd5b5061016b6101ff3660046129f4565b6106df565b34801561021057600080fd5b506001546101cc906001600160a01b031681565b34801561023057600080fd5b506000546101cc906001600160a01b031681565b34801561025057600080fd5b5061018561025f366004612b44565b610a36565b34801561027057600080fd5b5061016b61027f366004612bd9565b610da5565b34801561029057600080fd5b5061016b61029f366004612b60565b610e0e565b3480156102b057600080fd5b5061018560025481565b3480156102c657600080fd5b506101cc7f000000000000000000000000000000000000000000000000000000000000000081565b6101856102fc366004612958565b6110e4565b34801561030d57600080fd5b5061016b61031c36600461289d565b611340565b34801561032d57600080fd5b506101cc7f000000000000000000000000000000000000000000000000000000000000000081565b34801561036157600080fd5b50610185610370366004612958565b6114be565b34801561038157600080fd5b50610395610390366004612958565b611597565b60405161018f9190612dd5565b3480156103ae57600080fd5b5061016b6103bd366004612b44565b6116d6565b3480156103ce57600080fd5b506101cc7f000000000000000000000000000000000000000000000000000000000000000081565b610185610404366004612958565b61194e565b34801561041557600080fd5b5061016b610424366004612790565b611b95565b34801561043557600080fd5b5061016b610444366004612790565b611c10565b34801561045557600080fd5b5061016b6104643660046127ca565b611cb2565b6000816101200151806104794290565b111561049857604051632a0c45bf60e21b815260040160405180910390fd5b60c08301516002546104aa904261303a565b8111156104ca5760405163ba43490b60e01b815260040160405180910390fd5b83517f0000000000000000000000000000000000000000000000000000000000000000906001600160a01b03808316911614158061051e5750806001600160a01b031685604001516001600160a01b031614155b1561053c57604051630e52390960e41b815260040160405180910390fd5b600085606001518660a00151610552919061303a565b9050803410156105755760405163f8b3bb6160e01b815260040160405180910390fd5b60006105a57f00000000000000000000000000000000000000000000000000000000000000008860200151611f62565b90506001600160a01b0381166105de57604051630f4c971b60e21b81526001600160a01b03821660048201526024015b60405180910390fd5b86604001516001600160a01b031663d0e30db0836040518263ffffffff1660e01b81526004016000604051808303818588803b15801561061d57600080fd5b505af1158015610631573d6000803e3d6000fd5b5050506040808a0151905163a9059cbb60e01b81526001600160a01b03858116600483015260248201879052909116925063a9059cbb9150604401602060405180830381600087803b15801561068657600080fd5b505af115801561069a573d6000803e3d6000fd5b505050506040513d601f19601f820116820180604052508101906106be9190612869565b6106ca576106ca61308c565b6106d48188612009565b979650505050505050565b60408101518042111561070557604051632a0c45bf60e21b815260040160405180910390fd5b815160405163b42754a560e01b81526001600160a01b0391821660048201527f0000000000000000000000000000000000000000000000000000000000000000916000919083169063b42754a59060240160206040518083038186803b15801561076e57600080fd5b505afa158015610782573d6000803e3d6000fd5b505050506040513d601f19601f820116820180604052508101906107a69190612884565b9050806107d4578351604051630f4c971b60e21b81526001600160a01b0390911660048201526024016105d5565b602084015160405163957d1fe160e01b815260048101919091527f0000000000000000000000000000000000000000000000000000000000000000906000906001600160a01b0383169063957d1fe1906024016103406040518083038186803b15801561084057600080fd5b505afa158015610854573d6000803e3d6000fd5b505050506040513d601f19601f820116820180604052508101906108789190612a56565b905061089a816080015160000151338860000151846080015160200151612117565b6000846001600160a01b031663b76929686040518163ffffffff1660e01b815260040160206040518083038186803b1580156108d557600080fd5b505afa1580156108e9573d6000803e3d6000fd5b505050506040513d601f19601f8201168201806040525081019061090d91906127ad565b90506000856001600160a01b0316633c0930376040518163ffffffff1660e01b815260040160206040518083038186803b15801561094a57600080fd5b505afa15801561095e573d6000803e3d6000fd5b505050506040513d601f19601f820116820180604052508101906109829190612884565b905061098f868383612255565b8751604080516080810182526020808c01518252339082019081526001600160a01b0386811683850190815260608401878152945163019972a560e41b815293516004850152915181166024840152905181166044830152915160648201529116906319972a5090608401600060405180830381600087803b158015610a1457600080fd5b505af1158015610a28573d6000803e3d6000fd5b505050505050505050505050565b6000816060015180610a454290565b1115610a6457604051632a0c45bf60e21b815260040160405180910390fd5b825160405163b42754a560e01b81526001600160a01b0391821660048201527f0000000000000000000000000000000000000000000000000000000000000000916000919083169063b42754a59060240160206040518083038186803b158015610acd57600080fd5b505afa158015610ae1573d6000803e3d6000fd5b505050506040513d601f19601f82011682018060405250810190610b059190612884565b905080610b33578451604051630f4c971b60e21b81526001600160a01b0390911660048201526024016105d5565b602085015160405163957d1fe160e01b815260048101919091527f0000000000000000000000000000000000000000000000000000000000000000906000906001600160a01b0383169063957d1fe1906024016103406040518083038186803b158015610b9f57600080fd5b505afa158015610bb3573d6000803e3d6000fd5b505050506040513d601f19601f82011682018060405250810190610bd79190612a56565b9050610bf58160a00151600001513389600001518a60400151612117565b6000846001600160a01b031663b76929686040518163ffffffff1660e01b815260040160206040518083038186803b158015610c3057600080fd5b505afa158015610c44573d6000803e3d6000fd5b505050506040513d601f19601f82011682018060405250810190610c6891906127ad565b90506000856001600160a01b0316632a5025b76040518163ffffffff1660e01b815260040160206040518083038186803b158015610ca557600080fd5b505afa158015610cb9573d6000803e3d6000fd5b505050506040513d601f19601f82011682018060405250810190610cdd9190612884565b9050610cea868383612255565b88516040805160a0810182526020808d01518252828d01519082015233818301526001600160a01b03858116606083015260808201859052915163c6f61b0160e01b8152919092169163c6f61b0191610d469190600401612f60565b602060405180830381600087803b158015610d6057600080fd5b505af1158015610d74573d6000803e3d6000fd5b505050506040513d601f19601f82011682018060405250810190610d989190612884565b9998505050505050505050565b6000546001600160a01b03163314610dd25760405163a59d7f4d60e01b81523360048201526024016105d5565b60028190556040518181527f3f4ec0000816edbb07bad08583bd30d372e9a8de6b9b04c03cf6a54cfb90594f906020015b60405180910390a150565b608081015180421115610e3457604051632a0c45bf60e21b815260040160405180910390fd5b815160405163b42754a560e01b81526001600160a01b0391821660048201527f0000000000000000000000000000000000000000000000000000000000000000916000919083169063b42754a59060240160206040518083038186803b158015610e9d57600080fd5b505afa158015610eb1573d6000803e3d6000fd5b505050506040513d601f19601f82011682018060405250810190610ed59190612884565b905080610f03578351604051630f4c971b60e21b81526001600160a01b0390911660048201526024016105d5565b6000826001600160a01b031663b76929686040518163ffffffff1660e01b815260040160206040518083038186803b158015610f3e57600080fd5b505afa158015610f52573d6000803e3d6000fd5b505050506040513d601f19601f82011682018060405250810190610f7691906127ad565b90506000836001600160a01b031663b6a9b90d6040518163ffffffff1660e01b815260040160206040518083038186803b158015610fb357600080fd5b505afa158015610fc7573d6000803e3d6000fd5b505050506040513d601f19601f82011682018060405250810190610feb9190612884565b9050610ff8848383612255565b6040805160c0810182526020888101518252888301519082019081526060808a0151838501908152339184019182526001600160a01b038781166080860190815260a0860188815296516337a8a9af60e11b8152955160048701529351602486015290516044850152905181166064840152905181166084830152915160a48201527f000000000000000000000000000000000000000000000000000000000000000091821690636f51535e9060c4015b600060405180830381600087803b1580156110c357600080fd5b505af11580156110d7573d6000803e3d6000fd5b5050505050505050505050565b6000816101200151806110f44290565b111561111357604051632a0c45bf60e21b815260040160405180910390fd5b60c0830151600254611125904261303a565b8111156111455760405163ba43490b60e01b815260040160405180910390fd5b7f00000000000000000000000000000000000000000000000000000000000000006001600160a01b031684604001516001600160a01b03161461119b57604051630e52390960e41b815260040160405180910390fd5b8360a001513410156111c05760405163f8b3bb6160e01b815260040160405180910390fd5b60006111f07f00000000000000000000000000000000000000000000000000000000000000008660200151611f62565b90506001600160a01b03811661122457604051630f4c971b60e21b81526001600160a01b03821660048201526024016105d5565b84604001516001600160a01b031663d0e30db08660a001516040518263ffffffff1660e01b81526004016000604051808303818588803b15801561126757600080fd5b505af115801561127b573d6000803e3d6000fd5b50505060408088015160a0890151915163a9059cbb60e01b81526001600160a01b03868116600483015260248201939093529116925063a9059cbb9150604401602060405180830381600087803b1580156112d557600080fd5b505af11580156112e9573d6000803e3d6000fd5b505050506040513d601f19601f8201168201806040525081019061130d9190612869565b6113195761131961308c565b61132d856000015133838860600151612117565b6113378186612009565b95945050505050565b60808101518042111561136657604051632a0c45bf60e21b815260040160405180910390fd5b815160405163b42754a560e01b81526001600160a01b0391821660048201526000917f0000000000000000000000000000000000000000000000000000000000000000169063b42754a59060240160206040518083038186803b1580156113cc57600080fd5b505afa1580156113e0573d6000803e3d6000fd5b505050506040513d601f19601f820116820180604052508101906114049190612884565b905080611432578251604051630f4c971b60e21b81526001600160a01b0390911660048201526024016105d5565b825160408051608081018252602080870151825282870151908201526060808701518284015233908201529051633ee8320560e21b81526001600160a01b039092169163fba0c8149161148791600401612cc7565b600060405180830381600087803b1580156114a157600080fd5b505af11580156114b5573d6000803e3d6000fd5b50505050505050565b6000816101200151806114ce4290565b11156114ed57604051632a0c45bf60e21b815260040160405180910390fd5b60c08301516002546114ff904261303a565b81111561151f5760405163ba43490b60e01b815260040160405180910390fd5b600061154f7f00000000000000000000000000000000000000000000000000000000000000008660200151611f62565b90506001600160a01b03811661158357604051630f4c971b60e21b81526001600160a01b03821660048201526024016105d5565b611319856040015133838860a00151612117565b61159f61242a565b60007f00000000000000000000000000000000000000000000000000000000000000009050806001600160a01b031663be9f3fec604051806101400160405280336001600160a01b0316815260200186600001516001600160a01b0316815260200186602001516001600160a01b0316815260200186604001516001600160a01b0316815260200186606001518152602001866080015181526020018660a0015181526020018660c0015181526020018660e0015181526020018661010001518152506040518263ffffffff1660e01b815260040161167e9190612d2c565b6103406040518083038186803b15801561169757600080fd5b505afa1580156116ab573d6000803e3d6000fd5b505050506040513d601f19601f820116820180604052508101906116cf9190612a56565b9392505050565b6060810151804211156116fc57604051632a0c45bf60e21b815260040160405180910390fd5b604082015160025461170e904261303a565b81111561172e5760405163ba43490b60e01b815260040160405180910390fd5b825160405163b42754a560e01b81526001600160a01b0391821660048201527f0000000000000000000000000000000000000000000000000000000000000000916000919083169063b42754a59060240160206040518083038186803b15801561179757600080fd5b505afa1580156117ab573d6000803e3d6000fd5b505050506040513d601f19601f820116820180604052508101906117cf9190612884565b9050806117fd578451604051630f4c971b60e21b81526001600160a01b0390911660048201526024016105d5565b6000826001600160a01b031663b76929686040518163ffffffff1660e01b815260040160206040518083038186803b15801561183857600080fd5b505afa15801561184c573d6000803e3d6000fd5b505050506040513d601f19601f8201168201806040525081019061187091906127ad565b90506000836001600160a01b031663c79005846040518163ffffffff1660e01b815260040160206040518083038186803b1580156118ad57600080fd5b505afa1580156118c1573d6000803e3d6000fd5b505050506040513d601f19601f820116820180604052508101906118e59190612884565b90506118f2848383612255565b86516040805160a0810182526020808b01518252828b01519082015233818301526001600160a01b038581166060830152608082018590529151635330e35360e01b81529190921691635330e353916110a99190600401612f60565b60008161012001518061195e4290565b111561197d57604051632a0c45bf60e21b815260040160405180910390fd5b60c083015160025461198f904261303a565b8111156119af5760405163ba43490b60e01b815260040160405180910390fd5b7f00000000000000000000000000000000000000000000000000000000000000006001600160a01b031684600001516001600160a01b031614611a0557604051630e52390960e41b815260040160405180910390fd5b8360600151341015611a2a5760405163f8b3bb6160e01b815260040160405180910390fd5b6000611a5a7f00000000000000000000000000000000000000000000000000000000000000008660200151611f62565b90506001600160a01b038116611a8e57604051630f4c971b60e21b81526001600160a01b03821660048201526024016105d5565b84600001516001600160a01b031663d0e30db086606001516040518263ffffffff1660e01b81526004016000604051808303818588803b158015611ad157600080fd5b505af1158015611ae5573d6000803e3d6000fd5b50508751606089015160405163a9059cbb60e01b81526001600160a01b03878116600483015260248201929092529116935063a9059cbb92506044019050602060405180830381600087803b158015611b3d57600080fd5b505af1158015611b51573d6000803e3d6000fd5b505050506040513d601f19601f82011682018060405250810190611b759190612869565b611b8157611b8161308c565b61132d856040015133838860a00151612117565b6000546001600160a01b03163314611bc25760405163a59d7f4d60e01b81523360048201526024016105d5565b600180546001600160a01b0319166001600160a01b0383169081179091556040519081527ffdeec6d79a6bee7503b67f2a1c0b6cc5bcec78247f137ca75d1dff8453b746d790602001610e03565b6000546001600160a01b03163314611c3d5760405163a59d7f4d60e01b81523360048201526024016105d5565b6001600160a01b038116611c645760405163d92e233d60e01b815260040160405180910390fd5b600080546001600160a01b0319166001600160a01b0383169081179091556040519081527f54a6385aa0292b04e1ef8513253c17d1863f7cdfc87029d77fd55cc4c2e717e290602001610e03565b6040516370a0823160e01b81523060048201526000906001600160a01b038716906370a082319060240160206040518083038186803b158015611cf457600080fd5b505afa158015611d08573d6000803e3d6000fd5b505050506040513d601f19601f82011682018060405250810190611d2c9190612884565b6001549091506000906001600160a01b03161580611d48575082155b15611e935760007f000000000000000000000000000000000000000000000000000000000000000090506000816001600160a01b0316637c21d5e06040518163ffffffff1660e01b815260040160206040518083038186803b158015611dad57600080fd5b505afa158015611dc1573d6000803e3d6000fd5b505050506040513d601f19601f82011682018060405250810190611de591906127ad565b9050611df28982866122f9565b604051630ceffb5960e31b8152600060048201526001600160a01b038a8116602483015289811660448301526064820189905230608483015282169063677fdac89060a4016040805180830381600087803b158015611e5057600080fd5b505af1158015611e64573d6000803e3d6000fd5b505050506040513d601f19601f82011682018060405250810190611e889190612bf2565b509250611f36915050565b6001546001600160a01b0316611eaa8882856122f9565b604051631fa196a960e21b81526001600160a01b03821690637e865aa490611ee0908b908b908b9030908c908c90600401612c6a565b602060405180830381600087803b158015611efa57600080fd5b505af1158015611f0e573d6000803e3d6000fd5b505050506040513d601f19601f82011682018060405250810190611f329190612884565b9150505b84811015611f575760405163bb2875c360e01b815260040160405180910390fd5b6114b58633836122f9565b604080516001600160a01b03831660208083019190915282518083038201815282840190935282519201919091206001600160f81b031960608084019190915284901b6bffffffffffffffffffffffff1916606183015260758201527f4550c752d748de20a3fa28f4986cedc7e842e4fdcce52cb8e438c4a0bad1fab9609582015260009060b50160408051601f1981840301815291905280516020909101209392505050565b6000826001600160a01b031663122f7e8b604051806101400160405280336001600160a01b0316815260200185600001516001600160a01b0316815260200185602001516001600160a01b0316815260200185604001516001600160a01b0316815260200185606001518152602001856080015181526020018560a0015181526020018560c0015181526020018560e0015181526020018561010001518152506040518263ffffffff1660e01b81526004016120c59190612d2c565b602060405180830381600087803b1580156120df57600080fd5b505af11580156120f3573d6000803e3d6000fd5b505050506040513d601f19601f820116820180604052508101906116cf9190612884565b604080516001600160a01b0385811660248301528481166044830152606480830185905283518084039091018152608490920183526020820180516001600160e01b03166323b872dd60e01b179052915160009283929088169161217b9190612c4e565b6000604051808303816000865af19150503d80600081146121b8576040519150601f19603f3d011682016040523d82523d6000602084013e6121bd565b606091505b50915091508180156121e75750805115806121e75750808060200190518101906121e79190612869565b61224d5760405162461bcd60e51b815260206004820152603160248201527f5472616e7366657248656c7065723a3a7472616e7366657246726f6d3a207472604482015270185b9cd9995c919c9bdb4819985a5b1959607a1b60648201526084016105d5565b505050505050565b6001600160a01b0382161580159061226d5750600081115b156122f4576000836001600160a01b031663e9a4e7a26040518163ffffffff1660e01b815260040160206040518083038186803b1580156122ad57600080fd5b505afa1580156122c1573d6000803e3d6000fd5b505050506040513d601f19601f820116820180604052508101906122e591906127ad565b90506122f28382846122f9565b505b505050565b604080516001600160a01b038481166024830152604480830185905283518084039091018152606490920183526020820180516001600160e01b031663a9059cbb60e01b17905291516000928392908716916123559190612c4e565b6000604051808303816000865af19150503d8060008114612392576040519150601f19603f3d011682016040523d82523d6000602084013e612397565b606091505b50915091508180156123c15750805115806123c15750808060200190518101906123c19190612869565b6124235760405162461bcd60e51b815260206004820152602d60248201527f5472616e7366657248656c7065723a3a736166655472616e736665723a20747260448201526c185b9cd9995c8819985a5b1959609a1b60648201526084016105d5565b5050505050565b604051806101c001604052806000801916815260200160006001600160a01b0316815260200160006001600160a01b0316815260200161249b6040518060a0016040528060006001600160a01b03168152602001600081526020016000815260200160008152602001600081525090565b81526020016124c6604051806040016040528060006001600160a01b03168152602001600081525090565b81526020016125066040518060a0016040528060006001600160a01b03168152602001600081526020016000815260200160008152602001600081525090565b8152602001600081526020016000815260200160008152602001600081526020016000815260200161256160405180608001604052806000151581526020016000151581526020016000151581526020016000151581525090565b815260006020820181905260409091015290565b8035612580816130b8565b919050565b8051612580816130b8565b8051801515811461258057600080fd5b600082601f8301126125b157600080fd5b813567ffffffffffffffff808211156125cc576125cc6130a2565b604051601f8301601f19908116603f011681019082821181831017156125f4576125f46130a2565b8160405283815286602085880101111561260d57600080fd5b836020870160208301376000602085830101528094505050505092915050565b600060a0828403121561263f57600080fd5b612647612fa6565b90508151612654816130b8565b808252506020820151602082015260408201516040820152606082015160608201526080820151608082015292915050565b60006040828403121561269857600080fd5b6040516040810181811067ffffffffffffffff821117156126bb576126bb6130a2565b806040525080915082516126ce816130b8565b8152602092830151920191909152919050565b6000608082840312156126f357600080fd5b6126fb612fcf565b905061270682612590565b815261271460208301612590565b602082015261272560408301612590565b604082015261273660608301612590565b606082015292915050565b60006080828403121561275357600080fd5b61275b612fcf565b90508135612768816130b8565b8082525060208201356020820152604082013560408201526060820135606082015292915050565b6000602082840312156127a257600080fd5b81356116cf816130b8565b6000602082840312156127bf57600080fd5b81516116cf816130b8565b6000806000806000608086880312156127e257600080fd5b85356127ed816130b8565b945060208601356127fd816130b8565b935060408601359250606086013567ffffffffffffffff8082111561282157600080fd5b818801915088601f83011261283557600080fd5b81358181111561284457600080fd5b89602082850101111561285657600080fd5b9699959850939650602001949392505050565b60006020828403121561287b57600080fd5b6116cf82612590565b60006020828403121561289657600080fd5b5051919050565b6000602082840312156128af57600080fd5b813567ffffffffffffffff808211156128c757600080fd5b9083019060a082860312156128db57600080fd5b6128e3612fa6565b82356128ee816130b8565b81526020838101359082015260408301358281111561290c57600080fd5b612918878286016125a0565b60408301525060608301358281111561293057600080fd5b61293c878286016125a0565b6060830152506080830135608082015280935050505092915050565b6000610140828403121561296b57600080fd5b612973612ff2565b61297c83612575565b815261298a60208401612575565b602082015261299b60408401612575565b6040820152606083013560608201526080830135608082015260a083013560a082015260c083013560c082015260e083013560e08201526101008084013581830152506101208084013581830152508091505092915050565b600060608284031215612a0657600080fd5b6040516060810181811067ffffffffffffffff82111715612a2957612a296130a2565b6040528235612a37816130b8565b8152602083810135908201526040928301359281019290925250919050565b60006103408284031215612a6957600080fd5b612a71613016565b82518152612a8160208401612585565b6020820152612a9260408401612585565b6040820152612aa4846060850161262d565b6060820152610100612ab885828601612686565b6080830152610140612acc8682870161262d565b60a08401526101e085015160c084015261020085015160e084015261022085015182840152610240850151610120840152610260850151818401525050612b178461028085016126e1565b610160820152612b2a6103008401612585565b61018082015261032092909201516101a083015250919050565b600060808284031215612b5657600080fd5b6116cf8383612741565b600060a08284031215612b7257600080fd5b60405160a0810181811067ffffffffffffffff82111715612b9557612b956130a2565b6040528235612ba3816130b8565b80825250602083013560208201526040830135604082015260608301356060820152608083013560808201528091505092915050565b600060208284031215612beb57600080fd5b5035919050565b60008060408385031215612c0557600080fd5b825191506020830151612c17816130b8565b809150509250929050565b60008151808452612c3a816020860160208601613060565b601f01601f19169290920160200192915050565b60008251612c60818460208701613060565b9190910192915050565b6001600160a01b0387811682528681166020830152604082018690528416606082015260a06080820181905281018290526000828460c0840137600060c0848401015260c0601f19601f8501168301019050979650505050505050565b60208152815160208201526000602083015160806040840152612ced60a0840182612c22565b90506040840151601f19848303016060850152612d0a8282612c22565b606095909501516001600160a01b031660809490940193909352509192915050565b81516001600160a01b0316815261014081016020830151612d5860208401826001600160a01b03169052565b506040830151612d7360408401826001600160a01b03169052565b506060830151612d8e60608401826001600160a01b03169052565b506080830151608083015260a083015160a083015260c083015160c083015260e083015160e083015261010080840151818401525061012080840151818401525092915050565b81518152602080830151610340830191612df9908401826001600160a01b03169052565b506040830151612e1460408401826001600160a01b03169052565b506060830151612e58606084018280516001600160a01b03168252602080820151908301526040808201519083015260608082015190830152608090810151910152565b506080830151610100612e808185018380516001600160a01b03168252602090810151910152565b60a085015180516001600160a01b0316610140868101919091526020820151610160870152604082015161018087015260608201516101a087015260808201516101c087015290925060c08601516101e086015260e0860151610200860152908501516102208501526101208501516102408501528401516102608401525061016083015180511515610280840152602081015115156102a0840152604081015115156102c0840152606081015115156102e0840152506101808301516001600160a01b038116610300840152506101a083015161032083015292915050565b81518152602080830151908201526040808301516001600160a01b0390811691830191909152606080840151909116908201526080918201519181019190915260a00190565b60405160a0810167ffffffffffffffff81118282101715612fc957612fc96130a2565b60405290565b6040516080810167ffffffffffffffff81118282101715612fc957612fc96130a2565b604051610140810167ffffffffffffffff81118282101715612fc957612fc96130a2565b6040516101c0810167ffffffffffffffff81118282101715612fc957612fc96130a2565b6000821982111561305b57634e487b7160e01b600052601160045260246000fd5b500190565b60005b8381101561307b578181015183820152602001613063565b838111156122f25750506000910152565b634e487b7160e01b600052600160045260246000fd5b634e487b7160e01b600052604160045260246000fd5b6001600160a01b03811681146130cd57600080fd5b5056fea2646970667358221220567a0d57abd3c81f377bee85eea1f1604c0b2f0798b99bc9cad90d91740cc7ea64736f6c63430008070033",
  "linkReferences": {},
  "deployedLinkReferences": {}
}