{
  "_format": "hh-sol-artifact-1",
  "contractName": "Router",
  "sourceName": "contracts/Router.sol",
  "abi": [
    {
      "inputs": [
        {
          "internalType": "address",
          "name": "_factory",
          "type": "address"
        },
        {
          "internalType": "address",
          "name": "_WETH",
          "type": "address"
        }
      ],
      "stateMutability": "nonpayable",
      "type": "constructor"
    },
    {
      "inputs": [],
      "name": "InsufficientInput",
      "type": "error"
    },
    {
      "inputs": [],
      "name": "InvalidParameters",
      "type": "error"
    },
    {
      "inputs": [
        {
          "internalType": "address",
          "name": "pool",
          "type": "address"
        }
      ],
      "name": "InvalidPool",
      "type": "error"
    },
    {
      "inputs": [],
      "name": "TransactionTooOld",
      "type": "error"
    },
    {
      "inputs": [],
      "name": "WETH",
      "outputs": [
        {
          "internalType": "address",
          "name": "",
          "type": "address"
        }
      ],
      "stateMutability": "view",
      "type": "function"
    },
    {
      "inputs": [
        {
          "components": [
            {
              "internalType": "address",
              "name": "pool",
              "type": "address"
            },
            {
              "internalType": "bytes32",
              "name": "positionKey",
              "type": "bytes32"
            },
            {
              "internalType": "uint256",
              "name": "txDeadline",
              "type": "uint256"
            }
          ],
          "internalType": "struct IRouter.CloseTradePositionParams",
          "name": "_params",
          "type": "tuple"
        }
      ],
      "name": "close",
      "outputs": [],
      "stateMutability": "nonpayable",
      "type": "function"
    },
    {
      "inputs": [
        {
          "internalType": "address",
          "name": "_tokenIn",
          "type": "address"
        },
        {
          "internalType": "address",
          "name": "_tokenOut",
          "type": "address"
        },
        {
          "internalType": "uint256",
          "name": "_amountOut",
          "type": "uint256"
        },
        {
          "internalType": "bytes",
          "name": "",
          "type": "bytes"
        }
      ],
      "name": "closeCallback",
      "outputs": [],
      "stateMutability": "nonpayable",
      "type": "function"
    },
    {
      "inputs": [],
      "name": "factory",
      "outputs": [
        {
          "internalType": "address",
          "name": "",
          "type": "address"
        }
      ],
      "stateMutability": "view",
      "type": "function"
    },
    {
      "inputs": [
        {
          "components": [
            {
              "internalType": "address",
              "name": "baseToken",
              "type": "address"
            },
            {
              "internalType": "address",
              "name": "quoteToken",
              "type": "address"
            },
            {
              "internalType": "address",
              "name": "collateral",
              "type": "address"
            },
            {
              "internalType": "uint256",
              "name": "baseAmount",
              "type": "uint256"
            },
            {
              "internalType": "uint256",
              "name": "quoteAmount",
              "type": "uint256"
            },
            {
              "internalType": "uint256",
              "name": "collateralAmount",
              "type": "uint256"
            },
            {
              "internalType": "uint256",
              "name": "deadline",
              "type": "uint256"
            },
            {
              "internalType": "uint256",
              "name": "stoplossPrice",
              "type": "uint256"
            },
            {
              "internalType": "uint256",
              "name": "txDeadline",
              "type": "uint256"
            }
          ],
          "internalType": "struct IRouter.OpenTradePositionParams",
          "name": "_params",
          "type": "tuple"
        }
      ],
      "name": "open",
      "outputs": [
        {
          "internalType": "bytes32",
          "name": "positionKey",
          "type": "bytes32"
        }
      ],
      "stateMutability": "nonpayable",
      "type": "function"
    },
    {
      "inputs": [
        {
          "components": [
            {
              "internalType": "address",
              "name": "baseToken",
              "type": "address"
            },
            {
              "internalType": "address",
              "name": "quoteToken",
              "type": "address"
            },
            {
              "internalType": "address",
              "name": "collateral",
              "type": "address"
            },
            {
              "internalType": "uint256",
              "name": "baseAmount",
              "type": "uint256"
            },
            {
              "internalType": "uint256",
              "name": "quoteAmount",
              "type": "uint256"
            },
            {
              "internalType": "uint256",
              "name": "collateralAmount",
              "type": "uint256"
            },
            {
              "internalType": "uint256",
              "name": "deadline",
              "type": "uint256"
            },
            {
              "internalType": "uint256",
              "name": "stoplossPrice",
              "type": "uint256"
            },
            {
              "internalType": "uint256",
              "name": "txDeadline",
              "type": "uint256"
            }
          ],
          "internalType": "struct IRouter.OpenTradePositionParams",
          "name": "_params",
          "type": "tuple"
        }
      ],
      "name": "openETH",
      "outputs": [
        {
          "internalType": "bytes32",
          "name": "positionKey",
          "type": "bytes32"
        }
      ],
      "stateMutability": "payable",
      "type": "function"
    },
    {
      "inputs": [
        {
          "components": [
            {
              "internalType": "address",
              "name": "baseToken",
              "type": "address"
            },
            {
              "internalType": "address",
              "name": "quoteToken",
              "type": "address"
            },
            {
              "internalType": "address",
              "name": "collateral",
              "type": "address"
            },
            {
              "internalType": "uint256",
              "name": "baseAmount",
              "type": "uint256"
            },
            {
              "internalType": "uint256",
              "name": "quoteAmount",
              "type": "uint256"
            },
            {
              "internalType": "uint256",
              "name": "collateralAmount",
              "type": "uint256"
            },
            {
              "internalType": "uint256",
              "name": "deadline",
              "type": "uint256"
            },
            {
              "internalType": "uint256",
              "name": "stoplossPrice",
              "type": "uint256"
            },
            {
              "internalType": "uint256",
              "name": "txDeadline",
              "type": "uint256"
            }
          ],
          "internalType": "struct IRouter.OpenTradePositionParams",
          "name": "_params",
          "type": "tuple"
        }
      ],
      "name": "openWithEthAsBaseToken",
      "outputs": [
        {
          "internalType": "bytes32",
          "name": "positionKey",
          "type": "bytes32"
        }
      ],
      "stateMutability": "payable",
      "type": "function"
    },
    {
      "inputs": [
        {
          "components": [
            {
              "internalType": "address",
              "name": "baseToken",
              "type": "address"
            },
            {
              "internalType": "address",
              "name": "quoteToken",
              "type": "address"
            },
            {
              "internalType": "address",
              "name": "collateral",
              "type": "address"
            },
            {
              "internalType": "uint256",
              "name": "baseAmount",
              "type": "uint256"
            },
            {
              "internalType": "uint256",
              "name": "quoteAmount",
              "type": "uint256"
            },
            {
              "internalType": "uint256",
              "name": "collateralAmount",
              "type": "uint256"
            },
            {
              "internalType": "uint256",
              "name": "deadline",
              "type": "uint256"
            },
            {
              "internalType": "uint256",
              "name": "stoplossPrice",
              "type": "uint256"
            },
            {
              "internalType": "uint256",
              "name": "txDeadline",
              "type": "uint256"
            }
          ],
          "internalType": "struct IRouter.OpenTradePositionParams",
          "name": "_params",
          "type": "tuple"
        }
      ],
      "name": "openWithEthAsCollateral",
      "outputs": [
        {
          "internalType": "bytes32",
          "name": "positionKey",
          "type": "bytes32"
        }
      ],
      "stateMutability": "payable",
      "type": "function"
    },
    {
      "inputs": [
        {
          "components": [
            {
              "internalType": "address",
              "name": "baseToken",
              "type": "address"
            },
            {
              "internalType": "address",
              "name": "quoteToken",
              "type": "address"
            },
            {
              "internalType": "address",
              "name": "collateral",
              "type": "address"
            },
            {
              "internalType": "uint256",
              "name": "baseAmount",
              "type": "uint256"
            },
            {
              "internalType": "uint256",
              "name": "quoteAmount",
              "type": "uint256"
            },
            {
              "internalType": "uint256",
              "name": "collateralAmount",
              "type": "uint256"
            },
            {
              "internalType": "uint256",
              "name": "deadline",
              "type": "uint256"
            },
            {
              "internalType": "uint256",
              "name": "stoplossPrice",
              "type": "uint256"
            },
            {
              "internalType": "uint256",
              "name": "txDeadline",
              "type": "uint256"
            }
          ],
          "internalType": "struct IRouter.OpenTradePositionParams",
          "name": "_params",
          "type": "tuple"
        }
      ],
      "name": "preview",
      "outputs": [
        {
          "components": [
            {
              "internalType": "bytes32",
              "name": "positionKey",
              "type": "bytes32"
            },
            {
              "internalType": "address",
              "name": "owner",
              "type": "address"
            },
            {
              "internalType": "address",
              "name": "pool",
              "type": "address"
            },
            {
              "components": [
                {
                  "internalType": "address",
                  "name": "id",
                  "type": "address"
                },
                {
                  "internalType": "uint256",
                  "name": "amount",
                  "type": "uint256"
                },
                {
                  "internalType": "uint256",
                  "name": "entryPrice",
                  "type": "uint256"
                },
                {
                  "internalType": "uint256",
                  "name": "liqPrice",
                  "type": "uint256"
                },
                {
                  "internalType": "uint256",
                  "name": "closePrice",
                  "type": "uint256"
                }
              ],
              "internalType": "struct IPositionStorage.BaseToken",
              "name": "baseToken",
              "type": "tuple"
            },
            {
              "components": [
                {
                  "internalType": "address",
                  "name": "id",
                  "type": "address"
                },
                {
                  "internalType": "uint256",
                  "name": "amount",
                  "type": "uint256"
                }
              ],
              "internalType": "struct IPositionStorage.QuoteToken",
              "name": "quoteToken",
              "type": "tuple"
            },
            {
              "components": [
                {
                  "internalType": "address",
                  "name": "id",
                  "type": "address"
                },
                {
                  "internalType": "uint256",
                  "name": "amount",
                  "type": "uint256"
                },
                {
                  "internalType": "uint256",
                  "name": "entryPrice",
                  "type": "uint256"
                },
                {
                  "internalType": "uint256",
                  "name": "liqPrice",
                  "type": "uint256"
                },
                {
                  "internalType": "uint256",
                  "name": "closePrice",
                  "type": "uint256"
                }
              ],
              "internalType": "struct IPositionStorage.Collateral",
              "name": "collateral",
              "type": "tuple"
            },
            {
              "internalType": "uint256",
              "name": "deadline",
              "type": "uint256"
            },
            {
              "internalType": "uint256",
              "name": "stoplossPrice",
              "type": "uint256"
            },
            {
              "internalType": "uint256",
              "name": "fee",
              "type": "uint256"
            },
            {
              "internalType": "uint256",
              "name": "protocolFee",
              "type": "uint256"
            },
            {
              "components": [
                {
                  "internalType": "bool",
                  "name": "isClosed",
                  "type": "bool"
                },
                {
                  "internalType": "bool",
                  "name": "isExpired",
                  "type": "bool"
                },
                {
                  "internalType": "bool",
                  "name": "isStoploss",
                  "type": "bool"
                },
                {
                  "internalType": "bool",
                  "name": "isBaseLiquidated",
                  "type": "bool"
                },
                {
                  "internalType": "bool",
                  "name": "isCollateralLiquidated",
                  "type": "bool"
                },
                {
                  "internalType": "bool",
                  "name": "isRollbacked",
                  "type": "bool"
                },
                {
                  "internalType": "bool",
                  "name": "isClosedManuallyStep1",
                  "type": "bool"
                },
                {
                  "internalType": "bool",
                  "name": "isClosedManuallyStep2",
                  "type": "bool"
                }
              ],
              "internalType": "struct IPositionStorage.Status",
              "name": "status",
              "type": "tuple"
            },
            {
              "internalType": "address",
              "name": "closer",
              "type": "address"
            },
            {
              "internalType": "uint256",
              "name": "liquidationMarkTime",
              "type": "uint256"
            }
          ],
          "internalType": "struct IPositionStorage.TradePosition",
          "name": "",
          "type": "tuple"
        }
      ],
      "stateMutability": "view",
      "type": "function"
    },
    {
      "inputs": [
        {
          "components": [
            {
              "internalType": "address",
              "name": "pool",
              "type": "address"
            },
            {
              "internalType": "bytes32",
              "name": "positionKey",
              "type": "bytes32"
            },
            {
              "internalType": "uint256",
              "name": "txDeadline",
              "type": "uint256"
            }
          ],
          "internalType": "struct IRouter.RollbackTradePositionParams",
          "name": "_params",
          "type": "tuple"
        }
      ],
      "name": "rollback",
      "outputs": [],
      "stateMutability": "nonpayable",
      "type": "function"
    },
    {
      "inputs": [
        {
          "components": [
            {
              "internalType": "address",
              "name": "pool",
              "type": "address"
            },
            {
              "internalType": "bytes32",
              "name": "positionKey",
              "type": "bytes32"
            },
            {
              "internalType": "uint256",
              "name": "amount",
              "type": "uint256"
            },
            {
              "internalType": "uint256",
              "name": "txDeadline",
              "type": "uint256"
            }
          ],
          "internalType": "struct IRouter.UpdateCollateralAmountParams",
          "name": "_params",
          "type": "tuple"
        }
      ],
      "name": "updateCollateralAmount",
      "outputs": [
        {
          "internalType": "uint256",
          "name": "collateralLiqPrice",
          "type": "uint256"
        }
      ],
      "stateMutability": "nonpayable",
      "type": "function"
    },
    {
      "inputs": [
        {
          "components": [
            {
              "internalType": "address",
              "name": "pool",
              "type": "address"
            },
            {
              "internalType": "bytes32",
              "name": "positionKey",
              "type": "bytes32"
            },
            {
              "internalType": "uint256",
              "name": "deadline",
              "type": "uint256"
            },
            {
              "internalType": "uint256",
              "name": "txDeadline",
              "type": "uint256"
            }
          ],
          "internalType": "struct IRouter.UpdateDeadlineParams",
          "name": "_params",
          "type": "tuple"
        }
      ],
      "name": "updateDeadline",
      "outputs": [],
      "stateMutability": "nonpayable",
      "type": "function"
    },
    {
      "inputs": [
        {
          "components": [
            {
              "internalType": "address",
              "name": "pool",
              "type": "address"
            },
            {
              "internalType": "bytes32",
              "name": "positionKey",
              "type": "bytes32"
            },
            {
              "internalType": "uint256",
              "name": "stoplossPrice",
              "type": "uint256"
            },
            {
              "internalType": "uint256",
              "name": "txDeadline",
              "type": "uint256"
            }
          ],
          "internalType": "struct IRouter.UpdateStoplossPriceParams",
          "name": "_params",
          "type": "tuple"
        }
      ],
      "name": "updateStoplossPrice",
      "outputs": [],
      "stateMutability": "nonpayable",
      "type": "function"
    },
    {
      "stateMutability": "payable",
      "type": "receive"
    }
  ],
  "bytecode": "0x60c06040523480156200001157600080fd5b5060405162002c2f38038062002c2f833981016040819052620000349162000070565b6001600160601b0319606092831b811660a052911b16608052620000a8565b80516001600160a01b03811681146200006b57600080fd5b919050565b600080604083850312156200008457600080fd5b6200008f8362000053565b91506200009f6020840162000053565b90509250929050565b60805160601c60a05160601c612af36200013c6000396000818161028e015281816103b4015281816105c90152818161086401528181610add01528181610cbc01528181610f22015281816110e5015281816112dd015281816114ab0152818161178c015261194501526000818160d601528181610222015281816103140152818161101701526116ec0152612af36000f3fe6080604052600436106100c65760003560e01c806399f6fabd1161007f578063b86bdf6311610059578063b86bdf631461025c578063c45a01551461027c578063e0683618146102b0578063e761f9dc146102c357600080fd5b806399f6fabd146101dd5780639a50c463146101f0578063ad5c46481461021057600080fd5b80632bb6c51b1461010a57806334ab16ff146101305780634b129dc5146101505780634c675a9f1461017057806356416bec1461019d57806362e1af8a146101bd57600080fd5b3661010557336001600160a01b037f0000000000000000000000000000000000000000000000000000000000000000161461010357610103612a79565b005b600080fd5b61011d6101183660046124e2565b6102e3565b6040519081526020015b60405180910390f35b34801561013c57600080fd5b5061010361014b3660046124c6565b610582565b34801561015c57600080fd5b5061011d61016b366004612653565b610815565b34801561017c57600080fd5b5061019061018b3660046124e2565b610ad1565b6040516101279190612837565b3480156101a957600080fd5b506101036101b8366004612653565b610c75565b3480156101c957600080fd5b5061011d6101d83660046124e2565b610ecc565b61011d6101eb3660046124e2565b610fe4565b3480156101fc57600080fd5b5061010361020b3660046124c6565b611293565b34801561021c57600080fd5b506102447f000000000000000000000000000000000000000000000000000000000000000081565b6040516001600160a01b039091168152602001610127565b34801561026857600080fd5b50610103610277366004612653565b611464565b34801561028857600080fd5b506102447f000000000000000000000000000000000000000000000000000000000000000081565b61011d6102be3660046124e2565b6116bb565b3480156102cf57600080fd5b506101036102de3660046123f3565b611941565b6000816101000151806102f34290565b111561031257604051632a0c45bf60e21b815260040160405180910390fd5b7f00000000000000000000000000000000000000000000000000000000000000006001600160a01b031683604001516001600160a01b03161461036857604051630e52390960e41b815260040160405180910390fd5b8260a0015134101561038d5760405163f8b3bb6160e01b815260040160405180910390fd5b6020830151604051634d83bc3360e01b81526001600160a01b0391821660048201526000917f00000000000000000000000000000000000000000000000000000000000000001690634d83bc339060240160206040518083038186803b1580156103f657600080fd5b505afa15801561040a573d6000803e3d6000fd5b505050506040513d601f19601f8201168201806040525081019061042e91906123d6565b90506001600160a01b03811661046757604051630f4c971b60e21b81526001600160a01b03821660048201526024015b60405180910390fd5b83604001516001600160a01b031663d0e30db08560a001516040518263ffffffff1660e01b81526004016000604051808303818588803b1580156104aa57600080fd5b505af11580156104be573d6000803e3d6000fd5b50505060408087015160a0880151915163a9059cbb60e01b81526001600160a01b03868116600483015260248201939093529116925063a9059cbb9150604401602060405180830381600087803b15801561051857600080fd5b505af115801561052c573d6000803e3d6000fd5b505050506040513d601f19601f820116820180604052508101906105509190612492565b61055c5761055c612a79565b610570846000015133838760600151611c31565b61057a8185611d6f565b949350505050565b6040810151804211156105a857604051632a0c45bf60e21b815260040160405180910390fd5b815160405163b42754a560e01b81526001600160a01b0391821660048201527f0000000000000000000000000000000000000000000000000000000000000000916000919083169063b42754a59060240160206040518083038186803b15801561061157600080fd5b505afa158015610625573d6000803e3d6000fd5b505050506040513d601f19601f8201168201806040525081019061064991906124ad565b905080610677578351604051630f4c971b60e21b81526001600160a01b03909116600482015260240161045e565b6000826001600160a01b031663b76929686040518163ffffffff1660e01b815260040160206040518083038186803b1580156106b257600080fd5b505afa1580156106c6573d6000803e3d6000fd5b505050506040513d601f19601f820116820180604052508101906106ea91906123d6565b90506000836001600160a01b0316633c0930376040518163ffffffff1660e01b815260040160206040518083038186803b15801561072757600080fd5b505afa15801561073b573d6000803e3d6000fd5b505050506040513d601f19601f8201168201806040525081019061075f91906124ad565b90506001600160a01b038216158015906107795750600081115b1561078e5761078e8233886000015184611c31565b85516040805180820182526020808a0151825233908201908152915163d43c1b6960e01b81529051600482015290516001600160a01b0390811660248301529091169063d43c1b69906044015b600060405180830381600087803b1580156107f557600080fd5b505af1158015610809573d6000803e3d6000fd5b50505050505050505050565b60008160600151806108244290565b111561084357604051632a0c45bf60e21b815260040160405180910390fd5b825160405163b42754a560e01b81526001600160a01b0391821660048201527f0000000000000000000000000000000000000000000000000000000000000000916000919083169063b42754a59060240160206040518083038186803b1580156108ac57600080fd5b505afa1580156108c0573d6000803e3d6000fd5b505050506040513d601f19601f820116820180604052508101906108e491906124ad565b905080610912578451604051630f4c971b60e21b81526001600160a01b03909116600482015260240161045e565b6000826001600160a01b031663b76929686040518163ffffffff1660e01b815260040160206040518083038186803b15801561094d57600080fd5b505afa158015610961573d6000803e3d6000fd5b505050506040513d601f19601f8201168201806040525081019061098591906123d6565b90506000836001600160a01b0316632a5025b76040518163ffffffff1660e01b815260040160206040518083038186803b1580156109c257600080fd5b505afa1580156109d6573d6000803e3d6000fd5b505050506040513d601f19601f820116820180604052508101906109fa91906124ad565b90506001600160a01b03821615801590610a145750600081115b15610a2957610a298233896000015184611c31565b8651604080516060810182526020808b01518252828b01519082015233818301529051637c08ddc960e01b81526001600160a01b0390921691637c08ddc991610a749160040161298f565b602060405180830381600087803b158015610a8e57600080fd5b505af1158015610aa2573d6000803e3d6000fd5b505050506040513d601f19601f82011682018060405250810190610ac691906124ad565b979650505050505050565b610ad9611fa3565b60007f00000000000000000000000000000000000000000000000000000000000000006001600160a01b0316638cd474156040518163ffffffff1660e01b815260040160206040518083038186803b158015610b3457600080fd5b505afa158015610b48573d6000803e3d6000fd5b505050506040513d601f19601f82011682018060405250810190610b6c91906123d6565b9050806001600160a01b0316631a37982d604051806101200160405280336001600160a01b0316815260200186600001516001600160a01b0316815260200186602001516001600160a01b0316815260200186604001516001600160a01b0316815260200186606001518152602001866080015181526020018660a0015181526020018660c0015181526020018660e001518152506040518263ffffffff1660e01b8152600401610c1d91906127c2565b6103a06040518083038186803b158015610c3657600080fd5b505afa158015610c4a573d6000803e3d6000fd5b505050506040513d601f19601f82011682018060405250810190610c6e9190612572565b9392505050565b606081015180421115610c9b57604051632a0c45bf60e21b815260040160405180910390fd5b815160405163b42754a560e01b81526001600160a01b0391821660048201527f0000000000000000000000000000000000000000000000000000000000000000916000919083169063b42754a59060240160206040518083038186803b158015610d0457600080fd5b505afa158015610d18573d6000803e3d6000fd5b505050506040513d601f19601f82011682018060405250810190610d3c91906124ad565b905080610d6a578351604051630f4c971b60e21b81526001600160a01b03909116600482015260240161045e565b6000826001600160a01b031663b76929686040518163ffffffff1660e01b815260040160206040518083038186803b158015610da557600080fd5b505afa158015610db9573d6000803e3d6000fd5b505050506040513d601f19601f82011682018060405250810190610ddd91906123d6565b90506000836001600160a01b031663b58862e76040518163ffffffff1660e01b815260040160206040518083038186803b158015610e1a57600080fd5b505afa158015610e2e573d6000803e3d6000fd5b505050506040513d601f19601f82011682018060405250810190610e5291906124ad565b90506001600160a01b03821615801590610e6c5750600081115b15610e8157610e818233886000015184611c31565b8551604080516060810182526020808a01518252828a01519082015233818301529051631636e19960e01b81526001600160a01b0390921691631636e199916107db9160040161298f565b600081610100015180610edc4290565b1115610efb57604051632a0c45bf60e21b815260040160405180910390fd5b6020830151604051634d83bc3360e01b81526001600160a01b0391821660048201526000917f00000000000000000000000000000000000000000000000000000000000000001690634d83bc339060240160206040518083038186803b158015610f6457600080fd5b505afa158015610f78573d6000803e3d6000fd5b505050506040513d601f19601f82011682018060405250810190610f9c91906123d6565b90506001600160a01b038116610fd057604051630f4c971b60e21b81526001600160a01b038216600482015260240161045e565b61055c846040015133838760a00151611c31565b600081610100015180610ff44290565b111561101357604051632a0c45bf60e21b815260040160405180910390fd5b82517f0000000000000000000000000000000000000000000000000000000000000000906001600160a01b0380831691161415806110675750806001600160a01b031684604001516001600160a01b031614155b1561108557604051630e52390960e41b815260040160405180910390fd5b600084606001518560a0015161109b9190612a23565b9050803410156110be5760405163f8b3bb6160e01b815260040160405180910390fd5b6020850151604051634d83bc3360e01b81526001600160a01b0391821660048201526000917f00000000000000000000000000000000000000000000000000000000000000001690634d83bc339060240160206040518083038186803b15801561112757600080fd5b505afa15801561113b573d6000803e3d6000fd5b505050506040513d601f19601f8201168201806040525081019061115f91906123d6565b90506001600160a01b03811661119357604051630f4c971b60e21b81526001600160a01b038216600482015260240161045e565b85604001516001600160a01b031663d0e30db0836040518263ffffffff1660e01b81526004016000604051808303818588803b1580156111d257600080fd5b505af11580156111e6573d6000803e3d6000fd5b505050604080890151905163a9059cbb60e01b81526001600160a01b03858116600483015260248201879052909116925063a9059cbb9150604401602060405180830381600087803b15801561123b57600080fd5b505af115801561124f573d6000803e3d6000fd5b505050506040513d601f19601f820116820180604052508101906112739190612492565b61127f5761127f612a79565b6112898187611d6f565b9695505050505050565b6040810151804211156112b957604051632a0c45bf60e21b815260040160405180910390fd5b815160405163b42754a560e01b81526001600160a01b0391821660048201526000917f0000000000000000000000000000000000000000000000000000000000000000169063b42754a59060240160206040518083038186803b15801561131f57600080fd5b505afa158015611333573d6000803e3d6000fd5b505050506040513d601f19601f8201168201806040525081019061135791906124ad565b905080611385578251604051630f4c971b60e21b81526001600160a01b03909116600482015260240161045e565b82600001516001600160a01b031663fba0c814604051806080016040528086602001518152602001600067ffffffffffffffff8111156113c7576113c7612a8f565b6040519080825280601f01601f1916602001820160405280156113f1576020820181803683370190505b50815260408051600081526020808201835283015233918101919091525160e083901b6001600160e01b031916815261142d919060040161275d565b600060405180830381600087803b15801561144757600080fd5b505af115801561145b573d6000803e3d6000fd5b50505050505050565b60608101518042111561148a57604051632a0c45bf60e21b815260040160405180910390fd5b815160405163b42754a560e01b81526001600160a01b0391821660048201527f0000000000000000000000000000000000000000000000000000000000000000916000919083169063b42754a59060240160206040518083038186803b1580156114f357600080fd5b505afa158015611507573d6000803e3d6000fd5b505050506040513d601f19601f8201168201806040525081019061152b91906124ad565b905080611559578351604051630f4c971b60e21b81526001600160a01b03909116600482015260240161045e565b6000826001600160a01b031663b76929686040518163ffffffff1660e01b815260040160206040518083038186803b15801561159457600080fd5b505afa1580156115a8573d6000803e3d6000fd5b505050506040513d601f19601f820116820180604052508101906115cc91906123d6565b90506000836001600160a01b031663c79005846040518163ffffffff1660e01b815260040160206040518083038186803b15801561160957600080fd5b505afa15801561161d573d6000803e3d6000fd5b505050506040513d601f19601f8201168201806040525081019061164191906124ad565b90506001600160a01b0382161580159061165b5750600081115b15611670576116708233886000015184611c31565b8551604080516060810182526020808a01518252828a01519082015233818301529051630fc9ffe160e41b81526001600160a01b039092169163fc9ffe10916107db9160040161298f565b6000816101000151806116cb4290565b11156116ea57604051632a0c45bf60e21b815260040160405180910390fd5b7f00000000000000000000000000000000000000000000000000000000000000006001600160a01b031683600001516001600160a01b03161461174057604051630e52390960e41b815260040160405180910390fd5b82606001513410156117655760405163f8b3bb6160e01b815260040160405180910390fd5b6020830151604051634d83bc3360e01b81526001600160a01b0391821660048201526000917f00000000000000000000000000000000000000000000000000000000000000001690634d83bc339060240160206040518083038186803b1580156117ce57600080fd5b505afa1580156117e2573d6000803e3d6000fd5b505050506040513d601f19601f8201168201806040525081019061180691906123d6565b90506001600160a01b03811661183a57604051630f4c971b60e21b81526001600160a01b038216600482015260240161045e565b83600001516001600160a01b031663d0e30db085606001516040518263ffffffff1660e01b81526004016000604051808303818588803b15801561187d57600080fd5b505af1158015611891573d6000803e3d6000fd5b50508651606088015160405163a9059cbb60e01b81526001600160a01b03878116600483015260248201929092529116935063a9059cbb92506044019050602060405180830381600087803b1580156118e957600080fd5b505af11580156118fd573d6000803e3d6000fd5b505050506040513d601f19601f820116820180604052508101906119219190612492565b61192d5761192d612a79565b610570846040015133838760a00151611c31565b60007f00000000000000000000000000000000000000000000000000000000000000006001600160a01b0316637c21d5e06040518163ffffffff1660e01b815260040160206040518083038186803b15801561199c57600080fd5b505afa1580156119b0573d6000803e3d6000fd5b505050506040513d601f19601f820116820180604052508101906119d491906123d6565b6040516370a0823160e01b81523060048201529091506000906001600160a01b038816906370a082319060240160206040518083038186803b158015611a1957600080fd5b505afa158015611a2d573d6000803e3d6000fd5b505050506040513d601f19601f82011682018060405250810190611a5191906124ad565b9050611a5e878383611e72565b604051630ceffb5960e31b8152600060048201526001600160a01b03888116602483015287811660448301526064820187905230608483015283169063677fdac89060a4016040805180830381600087803b158015611abc57600080fd5b505af1158015611ad0573d6000803e3d6000fd5b505050506040513d601f19601f82011682018060405250810190611af4919061266f565b5050611b01863387611e72565b6040516370a0823160e01b81523060048201526000906001600160a01b038816906370a082319060240160206040518083038186803b158015611b4357600080fd5b505afa158015611b57573d6000803e3d6000fd5b505050506040513d601f19601f82011682018060405250810190611b7b91906124ad565b90508015611c2757611b8e878483611e72565b604051630ceffb5960e31b81526000600482018190526001600160a01b0389811660248401528a81166044840152606483019190915233608483015284169063677fdac89060a4016040805180830381600087803b158015611bef57600080fd5b505af1158015611c03573d6000803e3d6000fd5b505050506040513d601f19601f82011682018060405250810190610809919061266f565b5050505050505050565b604080516001600160a01b0385811660248301528481166044830152606480830185905283518084039091018152608490920183526020820180516001600160e01b03166323b872dd60e01b1790529151600092839290881691611c959190612741565b6000604051808303816000865af19150503d8060008114611cd2576040519150601f19603f3d011682016040523d82523d6000602084013e611cd7565b606091505b5091509150818015611d01575080511580611d01575080806020019051810190611d019190612492565b611d675760405162461bcd60e51b815260206004820152603160248201527f5472616e7366657248656c7065723a3a7472616e7366657246726f6d3a207472604482015270185b9cd9995c919c9bdb4819985a5b1959607a1b606482015260840161045e565b505050505050565b6000826001600160a01b03166341ba5951604051806101200160405280336001600160a01b0316815260200185600001516001600160a01b0316815260200185602001516001600160a01b0316815260200185604001516001600160a01b0316815260200185606001518152602001856080015181526020018560a0015181526020018560c0015181526020018560e001518152506040518263ffffffff1660e01b8152600401611e2091906127c2565b602060405180830381600087803b158015611e3a57600080fd5b505af1158015611e4e573d6000803e3d6000fd5b505050506040513d601f19601f82011682018060405250810190610c6e91906124ad565b604080516001600160a01b038481166024830152604480830185905283518084039091018152606490920183526020820180516001600160e01b031663a9059cbb60e01b1790529151600092839290871691611ece9190612741565b6000604051808303816000865af19150503d8060008114611f0b576040519150601f19603f3d011682016040523d82523d6000602084013e611f10565b606091505b5091509150818015611f3a575080511580611f3a575080806020019051810190611f3a9190612492565b611f9c5760405162461bcd60e51b815260206004820152602d60248201527f5472616e7366657248656c7065723a3a736166655472616e736665723a20747260448201526c185b9cd9995c8819985a5b1959609a1b606482015260840161045e565b5050505050565b604051806101a001604052806000801916815260200160006001600160a01b0316815260200160006001600160a01b031681526020016120146040518060a0016040528060006001600160a01b03168152602001600081526020016000815260200160008152602001600081525090565b815260200161203f604051806040016040528060006001600160a01b03168152602001600081525090565b815260200161207f6040518060a0016040528060006001600160a01b03168152602001600081526020016000815260200160008152602001600081525090565b8152600060208083018290526040808401839052606080850184905260808086018590528251610100810184528581529384018590529183018490528201839052810182905260a081810183905260c0820183905260e0820192909252910190815260006020820181905260409091015290565b80356120fe81612aa5565b919050565b80516120fe81612aa5565b805180151581146120fe57600080fd5b600060a0828403121561213057600080fd5b60405160a0810181811067ffffffffffffffff8211171561216157634e487b7160e01b600052604160045260246000fd5b8060405250809150825161217481612aa5565b80825250602083015160208201526040830151604082015260608301516060820152608083015160808201525092915050565b6000606082840312156121b957600080fd5b6040516060810181811067ffffffffffffffff821117156121ea57634e487b7160e01b600052604160045260246000fd5b60405290508082356121fb81612aa5565b8082525060208301356020820152604083013560408201525092915050565b60006040828403121561222c57600080fd5b6040516040810181811067ffffffffffffffff8211171561225d57634e487b7160e01b600052604160045260246000fd5b8060405250809150825161227081612aa5565b8152602092830151920191909152919050565b600061010080838503121561229757600080fd5b6040519081019067ffffffffffffffff821181831017156122c857634e487b7160e01b600052604160045260246000fd5b816040528092506122d88461210e565b81526122e66020850161210e565b60208201526122f76040850161210e565b60408201526123086060850161210e565b60608201526123196080850161210e565b608082015261232a60a0850161210e565b60a082015261233b60c0850161210e565b60c082015261234c60e0850161210e565b60e0820152505092915050565b60006080828403121561236b57600080fd5b6040516080810181811067ffffffffffffffff8211171561239c57634e487b7160e01b600052604160045260246000fd5b60405290508082356123ad81612aa5565b808252506020830135602082015260408301356040820152606083013560608201525092915050565b6000602082840312156123e857600080fd5b8151610c6e81612aa5565b60008060008060006080868803121561240b57600080fd5b853561241681612aa5565b9450602086013561242681612aa5565b935060408601359250606086013567ffffffffffffffff8082111561244a57600080fd5b818801915088601f83011261245e57600080fd5b81358181111561246d57600080fd5b89602082850101111561247f57600080fd5b9699959850939650602001949392505050565b6000602082840312156124a457600080fd5b610c6e8261210e565b6000602082840312156124bf57600080fd5b5051919050565b6000606082840312156124d857600080fd5b610c6e83836121a7565b600061012082840312156124f557600080fd5b6124fd6129b9565b612506836120f3565b8152612514602084016120f3565b6020820152612525604084016120f3565b6040820152606083013560608201526080830135608082015260a083013560a082015260c083013560c082015260e083013560e08201526101008084013581830152508091505092915050565b60006103a0828403121561258557600080fd5b61258d6129f1565b8251815261259d60208401612103565b60208201526125ae60408401612103565b60408201526125c0846060850161211e565b60608201526101006125d48582860161221a565b60808301526101406125e88682870161211e565b60a08401526101e085015160c084015261020085015160e084015261022085015182840152610240850151610120840152612627866102608701612283565b90830152506126396103608401612103565b610160820152610380929092015161018083015250919050565b60006080828403121561266557600080fd5b610c6e8383612359565b6000806040838503121561268257600080fd5b82519150602083015161269481612aa5565b809150509250929050565b600081518084526126b7816020860160208601612a49565b601f01601f19169290920160200192915050565b80511515825260208101511515602083015260408101511515604083015260608101511515606083015260808101511515608083015260a081015161271460a084018215159052565b5060c081015161272860c084018215159052565b5060e081015161273c60e084018215159052565b505050565b60008251612753818460208701612a49565b9190910192915050565b6020815281516020820152600060208301516080604084015261278360a084018261269f565b90506040840151601f198483030160608501526127a0828261269f565b606095909501516001600160a01b031660809490940193909352509192915050565b81516001600160a01b03908116825260208084015182169083015260408084015182169083015260608084015191821690830152610120820190506080830151608083015260a083015160a083015260c083015160c083015260e083015160e083015261010080840151818401525092915050565b815181526020808301516103a083019161285b908401826001600160a01b03169052565b50604083015161287660408401826001600160a01b03169052565b5060608301516128ba606084018280516001600160a01b03168252602080820151908301526040808201519083015260608082015190830152608090810151910152565b5060808301516101006128e28185018380516001600160a01b03168252602090810151910152565b60a085015180516001600160a01b0316610140868101919091526020820151610160870152604082015161018087015260608201516101a08701526080909101516101c086015260c08601516101e086015260e08601516102008601529085015161022085015261012085015161024085015284015190506129686102608401826126cb565b506101608301516001600160a01b0316610360830152610180909201516103809091015290565b81518152602080830151908201526040918201516001600160a01b03169181019190915260600190565b604051610120810167ffffffffffffffff811182821017156129eb57634e487b7160e01b600052604160045260246000fd5b60405290565b6040516101a0810167ffffffffffffffff811182821017156129eb57634e487b7160e01b600052604160045260246000fd5b60008219821115612a4457634e487b7160e01b600052601160045260246000fd5b500190565b60005b83811015612a64578181015183820152602001612a4c565b83811115612a73576000848401525b50505050565b634e487b7160e01b600052600160045260246000fd5b634e487b7160e01b600052604160045260246000fd5b6001600160a01b0381168114612aba57600080fd5b5056fea264697066735822122023176de539bf8eb36e5a58d7ad031ad6409a6091afcb50a452fd2780e878b7c264736f6c63430008070033",
  "linkReferences": {},
  "deployedLinkReferences": {}
}