{
  "_format": "hh-sol-artifact-1",
  "contractName": "Router",
  "sourceName": "contracts/Router.sol",
  "abi": [
    {
      "inputs": [
        {
          "internalType": "address",
          "name": "_factory",
          "type": "address"
        },
        {
          "internalType": "address",
          "name": "_WETH",
          "type": "address"
        }
      ],
      "stateMutability": "nonpayable",
      "type": "constructor"
    },
    {
      "inputs": [],
      "name": "InsufficientInput",
      "type": "error"
    },
    {
      "inputs": [],
      "name": "InsufficientOutput",
      "type": "error"
    },
    {
      "inputs": [],
      "name": "InvalidParameters",
      "type": "error"
    },
    {
      "inputs": [
        {
          "internalType": "address",
          "name": "pool",
          "type": "address"
        }
      ],
      "name": "InvalidPool",
      "type": "error"
    },
    {
      "inputs": [],
      "name": "TransactionTooOld",
      "type": "error"
    },
    {
      "inputs": [],
      "name": "WETH",
      "outputs": [
        {
          "internalType": "address",
          "name": "",
          "type": "address"
        }
      ],
      "stateMutability": "view",
      "type": "function"
    },
    {
      "inputs": [
        {
          "components": [
            {
              "internalType": "address",
              "name": "pool",
              "type": "address"
            },
            {
              "internalType": "bytes32",
              "name": "positionKey",
              "type": "bytes32"
            },
            {
              "internalType": "uint256",
              "name": "txDeadline",
              "type": "uint256"
            }
          ],
          "internalType": "struct IRouter.CloseTradePositionParams",
          "name": "_params",
          "type": "tuple"
        }
      ],
      "name": "close",
      "outputs": [],
      "stateMutability": "nonpayable",
      "type": "function"
    },
    {
      "inputs": [
        {
          "internalType": "address",
          "name": "_tokenIn",
          "type": "address"
        },
        {
          "internalType": "address",
          "name": "_tokenOut",
          "type": "address"
        },
        {
          "internalType": "uint256",
          "name": "_minAmountOut",
          "type": "uint256"
        },
        {
          "internalType": "bytes",
          "name": "",
          "type": "bytes"
        }
      ],
      "name": "closeCallback",
      "outputs": [],
      "stateMutability": "nonpayable",
      "type": "function"
    },
    {
      "inputs": [],
      "name": "factory",
      "outputs": [
        {
          "internalType": "address",
          "name": "",
          "type": "address"
        }
      ],
      "stateMutability": "view",
      "type": "function"
    },
    {
      "inputs": [
        {
          "components": [
            {
              "internalType": "address",
              "name": "baseToken",
              "type": "address"
            },
            {
              "internalType": "address",
              "name": "quoteToken",
              "type": "address"
            },
            {
              "internalType": "address",
              "name": "collateral",
              "type": "address"
            },
            {
              "internalType": "uint256",
              "name": "baseAmount",
              "type": "uint256"
            },
            {
              "internalType": "uint256",
              "name": "quoteAmount",
              "type": "uint256"
            },
            {
              "internalType": "uint256",
              "name": "collateralAmount",
              "type": "uint256"
            },
            {
              "internalType": "uint256",
              "name": "deadline",
              "type": "uint256"
            },
            {
              "internalType": "uint256",
              "name": "stoplossPrice",
              "type": "uint256"
            },
            {
              "internalType": "uint256",
              "name": "takeProfitPrice",
              "type": "uint256"
            },
            {
              "internalType": "uint256",
              "name": "txDeadline",
              "type": "uint256"
            }
          ],
          "internalType": "struct IRouter.OpenTradePositionParams",
          "name": "_params",
          "type": "tuple"
        }
      ],
      "name": "open",
      "outputs": [
        {
          "internalType": "bytes32",
          "name": "positionKey",
          "type": "bytes32"
        }
      ],
      "stateMutability": "nonpayable",
      "type": "function"
    },
    {
      "inputs": [
        {
          "components": [
            {
              "internalType": "address",
              "name": "baseToken",
              "type": "address"
            },
            {
              "internalType": "address",
              "name": "quoteToken",
              "type": "address"
            },
            {
              "internalType": "address",
              "name": "collateral",
              "type": "address"
            },
            {
              "internalType": "uint256",
              "name": "baseAmount",
              "type": "uint256"
            },
            {
              "internalType": "uint256",
              "name": "quoteAmount",
              "type": "uint256"
            },
            {
              "internalType": "uint256",
              "name": "collateralAmount",
              "type": "uint256"
            },
            {
              "internalType": "uint256",
              "name": "deadline",
              "type": "uint256"
            },
            {
              "internalType": "uint256",
              "name": "stoplossPrice",
              "type": "uint256"
            },
            {
              "internalType": "uint256",
              "name": "takeProfitPrice",
              "type": "uint256"
            },
            {
              "internalType": "uint256",
              "name": "txDeadline",
              "type": "uint256"
            }
          ],
          "internalType": "struct IRouter.OpenTradePositionParams",
          "name": "_params",
          "type": "tuple"
        }
      ],
      "name": "openETH",
      "outputs": [
        {
          "internalType": "bytes32",
          "name": "positionKey",
          "type": "bytes32"
        }
      ],
      "stateMutability": "payable",
      "type": "function"
    },
    {
      "inputs": [
        {
          "components": [
            {
              "internalType": "address",
              "name": "baseToken",
              "type": "address"
            },
            {
              "internalType": "address",
              "name": "quoteToken",
              "type": "address"
            },
            {
              "internalType": "address",
              "name": "collateral",
              "type": "address"
            },
            {
              "internalType": "uint256",
              "name": "baseAmount",
              "type": "uint256"
            },
            {
              "internalType": "uint256",
              "name": "quoteAmount",
              "type": "uint256"
            },
            {
              "internalType": "uint256",
              "name": "collateralAmount",
              "type": "uint256"
            },
            {
              "internalType": "uint256",
              "name": "deadline",
              "type": "uint256"
            },
            {
              "internalType": "uint256",
              "name": "stoplossPrice",
              "type": "uint256"
            },
            {
              "internalType": "uint256",
              "name": "takeProfitPrice",
              "type": "uint256"
            },
            {
              "internalType": "uint256",
              "name": "txDeadline",
              "type": "uint256"
            }
          ],
          "internalType": "struct IRouter.OpenTradePositionParams",
          "name": "_params",
          "type": "tuple"
        }
      ],
      "name": "openWithEthAsBaseToken",
      "outputs": [
        {
          "internalType": "bytes32",
          "name": "positionKey",
          "type": "bytes32"
        }
      ],
      "stateMutability": "payable",
      "type": "function"
    },
    {
      "inputs": [
        {
          "components": [
            {
              "internalType": "address",
              "name": "baseToken",
              "type": "address"
            },
            {
              "internalType": "address",
              "name": "quoteToken",
              "type": "address"
            },
            {
              "internalType": "address",
              "name": "collateral",
              "type": "address"
            },
            {
              "internalType": "uint256",
              "name": "baseAmount",
              "type": "uint256"
            },
            {
              "internalType": "uint256",
              "name": "quoteAmount",
              "type": "uint256"
            },
            {
              "internalType": "uint256",
              "name": "collateralAmount",
              "type": "uint256"
            },
            {
              "internalType": "uint256",
              "name": "deadline",
              "type": "uint256"
            },
            {
              "internalType": "uint256",
              "name": "stoplossPrice",
              "type": "uint256"
            },
            {
              "internalType": "uint256",
              "name": "takeProfitPrice",
              "type": "uint256"
            },
            {
              "internalType": "uint256",
              "name": "txDeadline",
              "type": "uint256"
            }
          ],
          "internalType": "struct IRouter.OpenTradePositionParams",
          "name": "_params",
          "type": "tuple"
        }
      ],
      "name": "openWithEthAsCollateral",
      "outputs": [
        {
          "internalType": "bytes32",
          "name": "positionKey",
          "type": "bytes32"
        }
      ],
      "stateMutability": "payable",
      "type": "function"
    },
    {
      "inputs": [],
      "name": "poolDeployer",
      "outputs": [
        {
          "internalType": "address",
          "name": "",
          "type": "address"
        }
      ],
      "stateMutability": "view",
      "type": "function"
    },
    {
      "inputs": [],
      "name": "positionStorage",
      "outputs": [
        {
          "internalType": "address",
          "name": "",
          "type": "address"
        }
      ],
      "stateMutability": "view",
      "type": "function"
    },
    {
      "inputs": [
        {
          "components": [
            {
              "internalType": "address",
              "name": "baseToken",
              "type": "address"
            },
            {
              "internalType": "address",
              "name": "quoteToken",
              "type": "address"
            },
            {
              "internalType": "address",
              "name": "collateral",
              "type": "address"
            },
            {
              "internalType": "uint256",
              "name": "baseAmount",
              "type": "uint256"
            },
            {
              "internalType": "uint256",
              "name": "quoteAmount",
              "type": "uint256"
            },
            {
              "internalType": "uint256",
              "name": "collateralAmount",
              "type": "uint256"
            },
            {
              "internalType": "uint256",
              "name": "deadline",
              "type": "uint256"
            },
            {
              "internalType": "uint256",
              "name": "stoplossPrice",
              "type": "uint256"
            },
            {
              "internalType": "uint256",
              "name": "takeProfitPrice",
              "type": "uint256"
            },
            {
              "internalType": "uint256",
              "name": "txDeadline",
              "type": "uint256"
            }
          ],
          "internalType": "struct IRouter.OpenTradePositionParams",
          "name": "_params",
          "type": "tuple"
        }
      ],
      "name": "preview",
      "outputs": [
        {
          "components": [
            {
              "internalType": "bytes32",
              "name": "positionKey",
              "type": "bytes32"
            },
            {
              "internalType": "address",
              "name": "owner",
              "type": "address"
            },
            {
              "internalType": "address",
              "name": "pool",
              "type": "address"
            },
            {
              "components": [
                {
                  "internalType": "address",
                  "name": "id",
                  "type": "address"
                },
                {
                  "internalType": "uint256",
                  "name": "amount",
                  "type": "uint256"
                },
                {
                  "internalType": "uint256",
                  "name": "entryPrice",
                  "type": "uint256"
                },
                {
                  "internalType": "uint256",
                  "name": "liqPrice",
                  "type": "uint256"
                },
                {
                  "internalType": "uint256",
                  "name": "closePrice",
                  "type": "uint256"
                }
              ],
              "internalType": "struct IPositionStorage.BaseToken",
              "name": "baseToken",
              "type": "tuple"
            },
            {
              "components": [
                {
                  "internalType": "address",
                  "name": "id",
                  "type": "address"
                },
                {
                  "internalType": "uint256",
                  "name": "amount",
                  "type": "uint256"
                }
              ],
              "internalType": "struct IPositionStorage.QuoteToken",
              "name": "quoteToken",
              "type": "tuple"
            },
            {
              "components": [
                {
                  "internalType": "address",
                  "name": "id",
                  "type": "address"
                },
                {
                  "internalType": "uint256",
                  "name": "amount",
                  "type": "uint256"
                },
                {
                  "internalType": "uint256",
                  "name": "entryPrice",
                  "type": "uint256"
                },
                {
                  "internalType": "uint256",
                  "name": "liqPrice",
                  "type": "uint256"
                },
                {
                  "internalType": "uint256",
                  "name": "closePrice",
                  "type": "uint256"
                }
              ],
              "internalType": "struct IPositionStorage.Collateral",
              "name": "collateral",
              "type": "tuple"
            },
            {
              "internalType": "uint256",
              "name": "deadline",
              "type": "uint256"
            },
            {
              "internalType": "uint256",
              "name": "stoplossPrice",
              "type": "uint256"
            },
            {
              "internalType": "uint256",
              "name": "takeProfitPrice",
              "type": "uint256"
            },
            {
              "internalType": "uint256",
              "name": "fee",
              "type": "uint256"
            },
            {
              "internalType": "uint256",
              "name": "protocolFee",
              "type": "uint256"
            },
            {
              "components": [
                {
                  "internalType": "bool",
                  "name": "isClosed",
                  "type": "bool"
                },
                {
                  "internalType": "bool",
                  "name": "isRollbacked",
                  "type": "bool"
                },
                {
                  "internalType": "bool",
                  "name": "isClosedManuallyStep1",
                  "type": "bool"
                },
                {
                  "internalType": "bool",
                  "name": "isClosedManuallyStep2",
                  "type": "bool"
                }
              ],
              "internalType": "struct IPositionStorage.Status",
              "name": "status",
              "type": "tuple"
            },
            {
              "internalType": "address",
              "name": "closer",
              "type": "address"
            },
            {
              "internalType": "uint256",
              "name": "liquidationMarkTime",
              "type": "uint256"
            }
          ],
          "internalType": "struct IPositionStorage.TradePosition",
          "name": "",
          "type": "tuple"
        }
      ],
      "stateMutability": "view",
      "type": "function"
    },
    {
      "inputs": [
        {
          "components": [
            {
              "internalType": "address",
              "name": "pool",
              "type": "address"
            },
            {
              "internalType": "bytes32",
              "name": "positionKey",
              "type": "bytes32"
            },
            {
              "internalType": "uint256",
              "name": "txDeadline",
              "type": "uint256"
            }
          ],
          "internalType": "struct IRouter.RollbackTradePositionParams",
          "name": "_params",
          "type": "tuple"
        }
      ],
      "name": "rollback",
      "outputs": [],
      "stateMutability": "nonpayable",
      "type": "function"
    },
    {
      "inputs": [
        {
          "components": [
            {
              "internalType": "address",
              "name": "pool",
              "type": "address"
            },
            {
              "internalType": "bytes32",
              "name": "positionKey",
              "type": "bytes32"
            },
            {
              "internalType": "uint256",
              "name": "amount",
              "type": "uint256"
            },
            {
              "internalType": "uint256",
              "name": "txDeadline",
              "type": "uint256"
            }
          ],
          "internalType": "struct IRouter.UpdateCollateralAmountParams",
          "name": "_params",
          "type": "tuple"
        }
      ],
      "name": "updateCollateralAmount",
      "outputs": [
        {
          "internalType": "uint256",
          "name": "collateralLiqPrice",
          "type": "uint256"
        }
      ],
      "stateMutability": "nonpayable",
      "type": "function"
    },
    {
      "inputs": [
        {
          "components": [
            {
              "internalType": "address",
              "name": "pool",
              "type": "address"
            },
            {
              "internalType": "bytes32",
              "name": "positionKey",
              "type": "bytes32"
            },
            {
              "internalType": "uint256",
              "name": "deadline",
              "type": "uint256"
            },
            {
              "internalType": "uint256",
              "name": "txDeadline",
              "type": "uint256"
            }
          ],
          "internalType": "struct IRouter.UpdateDeadlineParams",
          "name": "_params",
          "type": "tuple"
        }
      ],
      "name": "updateDeadline",
      "outputs": [],
      "stateMutability": "nonpayable",
      "type": "function"
    },
    {
      "inputs": [
        {
          "components": [
            {
              "internalType": "address",
              "name": "pool",
              "type": "address"
            },
            {
              "internalType": "bytes32",
              "name": "positionKey",
              "type": "bytes32"
            },
            {
              "internalType": "uint256",
              "name": "takeProfitPrice",
              "type": "uint256"
            },
            {
              "internalType": "uint256",
              "name": "stoplossPrice",
              "type": "uint256"
            },
            {
              "internalType": "uint256",
              "name": "txDeadline",
              "type": "uint256"
            }
          ],
          "internalType": "struct IRouter.UpdateTPnSLParams",
          "name": "_params",
          "type": "tuple"
        }
      ],
      "name": "updateTPnSL",
      "outputs": [],
      "stateMutability": "nonpayable",
      "type": "function"
    },
    {
      "stateMutability": "payable",
      "type": "receive"
    }
  ],
  "bytecode": "0x6101006040523480156200001257600080fd5b5060405162002eb638038062002eb68339810160408190526200003591620001b7565b6001600160601b0319606083811b821660a05282901b166080526040805163188c824d60e11b815290516001600160a01b03841691633119049a916004808301926020929190829003018186803b1580156200009057600080fd5b505afa158015620000a5573d6000803e3d6000fd5b505050506040513d601f19601f82011682018060405250810190620000cb919062000192565b6001600160a01b031660c0816001600160a01b031660601b81525050816001600160a01b0316638cd474156040518163ffffffff1660e01b815260040160206040518083038186803b1580156200012157600080fd5b505afa15801562000136573d6000803e3d6000fd5b505050506040513d601f19601f820116820180604052508101906200015c919062000192565b60601b6001600160601b03191660e05250620001ef9050565b80516001600160a01b03811681146200018d57600080fd5b919050565b600060208284031215620001a557600080fd5b620001b08262000175565b9392505050565b60008060408385031215620001cb57600080fd5b620001d68362000175565b9150620001e66020840162000175565b90509250929050565b60805160601c60a05160601c60c05160601c60e05160601c612c04620002b260003960008181610214015281816106c501528181610a2401528181610ee801526113fc01526000818161016801528181610452015281816110000152818161137f015261186001526000818161031c015281816105fb0152818161095a01528181610cc1015281816111c20152818161157601526119c801526000818160fc0152818161027b015281816103a401528181610f8001526117e00152612c046000f3fe6080604052600436106100ec5760003560e01c80639a50c4631161008a578063b86bdf6311610059578063b86bdf63146102ea578063c45a01551461030a578063c6ad7ff11461033e578063e761f9dc1461035157600080fd5b80639a50c46314610249578063ad5c464814610269578063b7c1a10e1461029d578063b82026b5146102bd57600080fd5b80634b129dc5116100c65780634b129dc5146101c2578063701121bc146101e25780638cd4741514610202578063924695a71461023657600080fd5b80632841d0a3146101305780633119049a1461015657806334ab16ff146101a257600080fd5b3661012b57336001600160a01b037f0000000000000000000000000000000000000000000000000000000000000000161461012957610129612b8a565b005b600080fd5b61014361013e366004612519565b610371565b6040519081526020015b60405180910390f35b34801561016257600080fd5b5061018a7f000000000000000000000000000000000000000000000000000000000000000081565b6040516001600160a01b03909116815260200161014d565b3480156101ae57600080fd5b506101296101bd3660046124fd565b6105b4565b3480156101ce57600080fd5b506101436101dd3660046126a3565b61090b565b3480156101ee57600080fd5b506101296101fd3660046126bf565b610c7a565b34801561020e57600080fd5b5061018a7f000000000000000000000000000000000000000000000000000000000000000081565b610143610244366004612519565b610f4f565b34801561025557600080fd5b506101296102643660046124fd565b611178565b34801561027557600080fd5b5061018a7f000000000000000000000000000000000000000000000000000000000000000081565b3480156102a957600080fd5b506101436102b8366004612519565b611349565b3480156102c957600080fd5b506102dd6102d8366004612519565b6113f0565b60405161014d91906128cc565b3480156102f657600080fd5b506101296103053660046126a3565b61152f565b34801561031657600080fd5b5061018a7f000000000000000000000000000000000000000000000000000000000000000081565b61014361034c366004612519565b6117af565b34801561035d57600080fd5b5061012961036c36600461242a565b6119c4565b6000816101200151806103814290565b11156103a057604051632a0c45bf60e21b815260040160405180910390fd5b82517f0000000000000000000000000000000000000000000000000000000000000000906001600160a01b0380831691161415806103f45750806001600160a01b031684604001516001600160a01b031614155b1561041257604051630e52390960e41b815260040160405180910390fd5b600084606001518560a001516104289190612b38565b90508034101561044b5760405163f8b3bb6160e01b815260040160405180910390fd5b600061047b7f00000000000000000000000000000000000000000000000000000000000000008760200151611bbb565b90506001600160a01b0381166104b457604051630f4c971b60e21b81526001600160a01b03821660048201526024015b60405180910390fd5b85604001516001600160a01b031663d0e30db0836040518263ffffffff1660e01b81526004016000604051808303818588803b1580156104f357600080fd5b505af1158015610507573d6000803e3d6000fd5b505050604080890151905163a9059cbb60e01b81526001600160a01b03858116600483015260248201879052909116925063a9059cbb9150604401602060405180830381600087803b15801561055c57600080fd5b505af1158015610570573d6000803e3d6000fd5b505050506040513d601f19601f8201168201806040525081019061059491906124c9565b6105a0576105a0612b8a565b6105aa8187611c62565b9695505050505050565b6040810151804211156105da57604051632a0c45bf60e21b815260040160405180910390fd5b815160405163b42754a560e01b81526001600160a01b0391821660048201527f0000000000000000000000000000000000000000000000000000000000000000916000919083169063b42754a59060240160206040518083038186803b15801561064357600080fd5b505afa158015610657573d6000803e3d6000fd5b505050506040513d601f19601f8201168201806040525081019061067b91906124e4565b9050806106a9578351604051630f4c971b60e21b81526001600160a01b0390911660048201526024016104ab565b602084015160405163957d1fe160e01b815260048101919091527f0000000000000000000000000000000000000000000000000000000000000000906000906001600160a01b0383169063957d1fe1906024016103406040518083038186803b15801561071557600080fd5b505afa158015610729573d6000803e3d6000fd5b505050506040513d601f19601f8201168201806040525081019061074d91906125b5565b905061076f816080015160000151338860000151846080015160200151611d70565b6000846001600160a01b031663b76929686040518163ffffffff1660e01b815260040160206040518083038186803b1580156107aa57600080fd5b505afa1580156107be573d6000803e3d6000fd5b505050506040513d601f19601f820116820180604052508101906107e2919061240d565b90506000856001600160a01b0316633c0930376040518163ffffffff1660e01b815260040160206040518083038186803b15801561081f57600080fd5b505afa158015610833573d6000803e3d6000fd5b505050506040513d601f19601f8201168201806040525081019061085791906124e4565b9050610864868383611eae565b8751604080516080810182526020808c01518252339082019081526001600160a01b0386811683850190815260608401878152945163019972a560e41b815293516004850152915181166024840152905181166044830152915160648201529116906319972a5090608401600060405180830381600087803b1580156108e957600080fd5b505af11580156108fd573d6000803e3d6000fd5b505050505050505050505050565b600081606001518061091a4290565b111561093957604051632a0c45bf60e21b815260040160405180910390fd5b825160405163b42754a560e01b81526001600160a01b0391821660048201527f0000000000000000000000000000000000000000000000000000000000000000916000919083169063b42754a59060240160206040518083038186803b1580156109a257600080fd5b505afa1580156109b6573d6000803e3d6000fd5b505050506040513d601f19601f820116820180604052508101906109da91906124e4565b905080610a08578451604051630f4c971b60e21b81526001600160a01b0390911660048201526024016104ab565b602085015160405163957d1fe160e01b815260048101919091527f0000000000000000000000000000000000000000000000000000000000000000906000906001600160a01b0383169063957d1fe1906024016103406040518083038186803b158015610a7457600080fd5b505afa158015610a88573d6000803e3d6000fd5b505050506040513d601f19601f82011682018060405250810190610aac91906125b5565b9050610aca8160a00151600001513389600001518a60400151611d70565b6000846001600160a01b031663b76929686040518163ffffffff1660e01b815260040160206040518083038186803b158015610b0557600080fd5b505afa158015610b19573d6000803e3d6000fd5b505050506040513d601f19601f82011682018060405250810190610b3d919061240d565b90506000856001600160a01b0316632a5025b76040518163ffffffff1660e01b815260040160206040518083038186803b158015610b7a57600080fd5b505afa158015610b8e573d6000803e3d6000fd5b505050506040513d601f19601f82011682018060405250810190610bb291906124e4565b9050610bbf868383611eae565b88516040805160a0810182526020808d01518252828d01519082015233818301526001600160a01b03858116606083015260808201859052915163c6f61b0160e01b8152919092169163c6f61b0191610c1b9190600401612a57565b602060405180830381600087803b158015610c3557600080fd5b505af1158015610c49573d6000803e3d6000fd5b505050506040513d601f19601f82011682018060405250810190610c6d91906124e4565b9998505050505050505050565b608081015180421115610ca057604051632a0c45bf60e21b815260040160405180910390fd5b815160405163b42754a560e01b81526001600160a01b0391821660048201527f0000000000000000000000000000000000000000000000000000000000000000916000919083169063b42754a59060240160206040518083038186803b158015610d0957600080fd5b505afa158015610d1d573d6000803e3d6000fd5b505050506040513d601f19601f82011682018060405250810190610d4191906124e4565b905080610d6f578351604051630f4c971b60e21b81526001600160a01b0390911660048201526024016104ab565b6000826001600160a01b031663b76929686040518163ffffffff1660e01b815260040160206040518083038186803b158015610daa57600080fd5b505afa158015610dbe573d6000803e3d6000fd5b505050506040513d601f19601f82011682018060405250810190610de2919061240d565b90506000836001600160a01b031663b6a9b90d6040518163ffffffff1660e01b815260040160206040518083038186803b158015610e1f57600080fd5b505afa158015610e33573d6000803e3d6000fd5b505050506040513d601f19601f82011682018060405250810190610e5791906124e4565b9050610e64848383611eae565b6040805160c0810182526020888101518252888301519082019081526060808a0151838501908152339184019182526001600160a01b038781166080860190815260a0860188815296516337a8a9af60e11b8152955160048701529351602486015290516044850152905181166064840152905181166084830152915160a48201527f000000000000000000000000000000000000000000000000000000000000000091821690636f51535e9060c401600060405180830381600087803b158015610f2e57600080fd5b505af1158015610f42573d6000803e3d6000fd5b5050505050505050505050565b600081610120015180610f5f4290565b1115610f7e57604051632a0c45bf60e21b815260040160405180910390fd5b7f00000000000000000000000000000000000000000000000000000000000000006001600160a01b031683604001516001600160a01b031614610fd457604051630e52390960e41b815260040160405180910390fd5b8260a00151341015610ff95760405163f8b3bb6160e01b815260040160405180910390fd5b60006110297f00000000000000000000000000000000000000000000000000000000000000008560200151611bbb565b90506001600160a01b03811661105d57604051630f4c971b60e21b81526001600160a01b03821660048201526024016104ab565b83604001516001600160a01b031663d0e30db08560a001516040518263ffffffff1660e01b81526004016000604051808303818588803b1580156110a057600080fd5b505af11580156110b4573d6000803e3d6000fd5b50505060408087015160a0880151915163a9059cbb60e01b81526001600160a01b03868116600483015260248201939093529116925063a9059cbb9150604401602060405180830381600087803b15801561110e57600080fd5b505af1158015611122573d6000803e3d6000fd5b505050506040513d601f19601f8201168201806040525081019061114691906124c9565b61115257611152612b8a565b611166846000015133838760600151611d70565b6111708185611c62565b949350505050565b60408101518042111561119e57604051632a0c45bf60e21b815260040160405180910390fd5b815160405163b42754a560e01b81526001600160a01b0391821660048201526000917f0000000000000000000000000000000000000000000000000000000000000000169063b42754a59060240160206040518083038186803b15801561120457600080fd5b505afa158015611218573d6000803e3d6000fd5b505050506040513d601f19601f8201168201806040525081019061123c91906124e4565b90508061126a578251604051630f4c971b60e21b81526001600160a01b0390911660048201526024016104ab565b82600001516001600160a01b031663fba0c814604051806080016040528086602001518152602001600067ffffffffffffffff8111156112ac576112ac612ba0565b6040519080825280601f01601f1916602001820160405280156112d6576020820181803683370190505b50815260408051600081526020808201835283015233918101919091525160e083901b6001600160e01b031916815261131291906004016127be565b600060405180830381600087803b15801561132c57600080fd5b505af1158015611340573d6000803e3d6000fd5b50505050505050565b6000816101200151806113594290565b111561137857604051632a0c45bf60e21b815260040160405180910390fd5b60006113a87f00000000000000000000000000000000000000000000000000000000000000008560200151611bbb565b90506001600160a01b0381166113dc57604051630f4c971b60e21b81526001600160a01b03821660048201526024016104ab565b611152846040015133838760a00151611d70565b6113f8612083565b60007f00000000000000000000000000000000000000000000000000000000000000009050806001600160a01b031663be9f3fec604051806101400160405280336001600160a01b0316815260200186600001516001600160a01b0316815260200186602001516001600160a01b0316815260200186604001516001600160a01b0316815260200186606001518152602001866080015181526020018660a0015181526020018660c0015181526020018660e0015181526020018661010001518152506040518263ffffffff1660e01b81526004016114d79190612823565b6103406040518083038186803b1580156114f057600080fd5b505afa158015611504573d6000803e3d6000fd5b505050506040513d601f19601f8201168201806040525081019061152891906125b5565b9392505050565b60608101518042111561155557604051632a0c45bf60e21b815260040160405180910390fd5b815160405163b42754a560e01b81526001600160a01b0391821660048201527f0000000000000000000000000000000000000000000000000000000000000000916000919083169063b42754a59060240160206040518083038186803b1580156115be57600080fd5b505afa1580156115d2573d6000803e3d6000fd5b505050506040513d601f19601f820116820180604052508101906115f691906124e4565b905080611624578351604051630f4c971b60e21b81526001600160a01b0390911660048201526024016104ab565b6000826001600160a01b031663b76929686040518163ffffffff1660e01b815260040160206040518083038186803b15801561165f57600080fd5b505afa158015611673573d6000803e3d6000fd5b505050506040513d601f19601f82011682018060405250810190611697919061240d565b90506000836001600160a01b031663c79005846040518163ffffffff1660e01b815260040160206040518083038186803b1580156116d457600080fd5b505afa1580156116e8573d6000803e3d6000fd5b505050506040513d601f19601f8201168201806040525081019061170c91906124e4565b9050611719848383611eae565b85516040805160a0810182526020808a01518252828a01519082015233818301526001600160a01b038581166060830152608082018590529151635330e35360e01b81529190921691635330e353916117759190600401612a57565b600060405180830381600087803b15801561178f57600080fd5b505af11580156117a3573d6000803e3d6000fd5b50505050505050505050565b6000816101200151806117bf4290565b11156117de57604051632a0c45bf60e21b815260040160405180910390fd5b7f00000000000000000000000000000000000000000000000000000000000000006001600160a01b031683600001516001600160a01b03161461183457604051630e52390960e41b815260040160405180910390fd5b82606001513410156118595760405163f8b3bb6160e01b815260040160405180910390fd5b60006118897f00000000000000000000000000000000000000000000000000000000000000008560200151611bbb565b90506001600160a01b0381166118bd57604051630f4c971b60e21b81526001600160a01b03821660048201526024016104ab565b83600001516001600160a01b031663d0e30db085606001516040518263ffffffff1660e01b81526004016000604051808303818588803b15801561190057600080fd5b505af1158015611914573d6000803e3d6000fd5b50508651606088015160405163a9059cbb60e01b81526001600160a01b03878116600483015260248201929092529116935063a9059cbb92506044019050602060405180830381600087803b15801561196c57600080fd5b505af1158015611980573d6000803e3d6000fd5b505050506040513d601f19601f820116820180604052508101906119a491906124c9565b6119b0576119b0612b8a565b611166846040015133838760a00151611d70565b60007f000000000000000000000000000000000000000000000000000000000000000090506000816001600160a01b0316637c21d5e06040518163ffffffff1660e01b815260040160206040518083038186803b158015611a2457600080fd5b505afa158015611a38573d6000803e3d6000fd5b505050506040513d601f19601f82011682018060405250810190611a5c919061240d565b6040516370a0823160e01b81523060048201529091506000906001600160a01b038916906370a082319060240160206040518083038186803b158015611aa157600080fd5b505afa158015611ab5573d6000803e3d6000fd5b505050506040513d601f19601f82011682018060405250810190611ad991906124e4565b9050611ae6888383611f52565b604051630ceffb5960e31b81526000600482018190526001600160a01b038a8116602484015289811660448401526064830189905230608484015290919084169063677fdac89060a4016040805180830381600087803b158015611b4957600080fd5b505af1158015611b5d573d6000803e3d6000fd5b505050506040513d601f19601f82011682018060405250810190611b819190612746565b50905086811015611ba55760405163bb2875c360e01b815260040160405180910390fd5b611bb0883383611f52565b505050505050505050565b604080516001600160a01b03831660208083019190915282518083038201815282840190935282519201919091206001600160f81b031960608084019190915284901b6bffffffffffffffffffffffff1916606183015260758201527f85970aad0aa062e9032b0ba70eeae1cda380d31cca64216eb4b3892162e07366609582015260009060b50160408051601f1981840301815291905280516020909101209392505050565b6000826001600160a01b031663122f7e8b604051806101400160405280336001600160a01b0316815260200185600001516001600160a01b0316815260200185602001516001600160a01b0316815260200185604001516001600160a01b0316815260200185606001518152602001856080015181526020018560a0015181526020018560c0015181526020018560e0015181526020018561010001518152506040518263ffffffff1660e01b8152600401611d1e9190612823565b602060405180830381600087803b158015611d3857600080fd5b505af1158015611d4c573d6000803e3d6000fd5b505050506040513d601f19601f8201168201806040525081019061152891906124e4565b604080516001600160a01b0385811660248301528481166044830152606480830185905283518084039091018152608490920183526020820180516001600160e01b03166323b872dd60e01b1790529151600092839290881691611dd491906127a2565b6000604051808303816000865af19150503d8060008114611e11576040519150601f19603f3d011682016040523d82523d6000602084013e611e16565b606091505b5091509150818015611e40575080511580611e40575080806020019051810190611e4091906124c9565b611ea65760405162461bcd60e51b815260206004820152603160248201527f5472616e7366657248656c7065723a3a7472616e7366657246726f6d3a207472604482015270185b9cd9995c919c9bdb4819985a5b1959607a1b60648201526084016104ab565b505050505050565b6001600160a01b03821615801590611ec65750600081115b15611f4d576000836001600160a01b031663e9a4e7a26040518163ffffffff1660e01b815260040160206040518083038186803b158015611f0657600080fd5b505afa158015611f1a573d6000803e3d6000fd5b505050506040513d601f19601f82011682018060405250810190611f3e919061240d565b9050611f4b838284611f52565b505b505050565b604080516001600160a01b038481166024830152604480830185905283518084039091018152606490920183526020820180516001600160e01b031663a9059cbb60e01b1790529151600092839290871691611fae91906127a2565b6000604051808303816000865af19150503d8060008114611feb576040519150601f19603f3d011682016040523d82523d6000602084013e611ff0565b606091505b509150915081801561201a57508051158061201a57508080602001905181019061201a91906124c9565b61207c5760405162461bcd60e51b815260206004820152602d60248201527f5472616e7366657248656c7065723a3a736166655472616e736665723a20747260448201526c185b9cd9995c8819985a5b1959609a1b60648201526084016104ab565b5050505050565b604051806101c001604052806000801916815260200160006001600160a01b0316815260200160006001600160a01b031681526020016120f46040518060a0016040528060006001600160a01b03168152602001600081526020016000815260200160008152602001600081525090565b815260200161211f604051806040016040528060006001600160a01b03168152602001600081525090565b815260200161215f6040518060a0016040528060006001600160a01b03168152602001600081526020016000815260200160008152602001600081525090565b815260200160008152602001600081526020016000815260200160008152602001600081526020016121ba60405180608001604052806000151581526020016000151581526020016000151581526020016000151581525090565b815260006020820181905260409091015290565b80356121d981612bb6565b919050565b80516121d981612bb6565b805180151581146121d957600080fd5b600060a0828403121561220b57600080fd5b60405160a0810181811067ffffffffffffffff8211171561223c57634e487b7160e01b600052604160045260246000fd5b8060405250809150825161224f81612bb6565b80825250602083015160208201526040830151604082015260608301516060820152608083015160808201525092915050565b60006060828403121561229457600080fd5b6040516060810181811067ffffffffffffffff821117156122c557634e487b7160e01b600052604160045260246000fd5b60405290508082356122d681612bb6565b8082525060208301356020820152604083013560408201525092915050565b60006040828403121561230757600080fd5b6040516040810181811067ffffffffffffffff8211171561233857634e487b7160e01b600052604160045260246000fd5b8060405250809150825161234b81612bb6565b8152602092830151920191909152919050565b60006080828403121561237057600080fd5b612378612a9d565b9050612383826121e9565b8152612391602083016121e9565b60208201526123a2604083016121e9565b60408201526123b3606083016121e9565b606082015292915050565b6000608082840312156123d057600080fd5b6123d8612a9d565b905081356123e581612bb6565b8082525060208201356020820152604082013560408201526060820135606082015292915050565b60006020828403121561241f57600080fd5b815161152881612bb6565b60008060008060006080868803121561244257600080fd5b853561244d81612bb6565b9450602086013561245d81612bb6565b935060408601359250606086013567ffffffffffffffff8082111561248157600080fd5b818801915088601f83011261249557600080fd5b8135818111156124a457600080fd5b8960208285010111156124b657600080fd5b9699959850939650602001949392505050565b6000602082840312156124db57600080fd5b611528826121e9565b6000602082840312156124f657600080fd5b5051919050565b60006060828403121561250f57600080fd5b6115288383612282565b6000610140828403121561252c57600080fd5b612534612ad4565b61253d836121ce565b815261254b602084016121ce565b602082015261255c604084016121ce565b6040820152606083013560608201526080830135608082015260a083013560a082015260c083013560c082015260e083013560e08201526101008084013581830152506101208084013581830152508091505092915050565b600061034082840312156125c857600080fd5b6125d0612b06565b825181526125e0602084016121de565b60208201526125f1604084016121de565b604082015261260384606085016121f9565b6060820152610100612617858286016122f5565b608083015261014061262b868287016121f9565b60a08401526101e085015160c084015261020085015160e08401526102208501518284015261024085015161012084015261026085015181840152505061267684610280850161235e565b61016082015261268961030084016121de565b61018082015261032092909201516101a083015250919050565b6000608082840312156126b557600080fd5b61152883836123be565b600060a082840312156126d157600080fd5b60405160a0810181811067ffffffffffffffff8211171561270257634e487b7160e01b600052604160045260246000fd5b604052823561271081612bb6565b80825250602083013560208201526040830135604082015260608301356060820152608083013560808201528091505092915050565b6000806040838503121561275957600080fd5b82519150602083015161276b81612bb6565b809150509250929050565b6000815180845261278e816020860160208601612b5e565b601f01601f19169290920160200192915050565b600082516127b4818460208701612b5e565b9190910192915050565b602081528151602082015260006020830151608060408401526127e460a0840182612776565b90506040840151601f198483030160608501526128018282612776565b606095909501516001600160a01b031660809490940193909352509192915050565b81516001600160a01b031681526101408101602083015161284f60208401826001600160a01b03169052565b50604083015161286a60408401826001600160a01b03169052565b50606083015161288560608401826001600160a01b03169052565b506080830151608083015260a083015160a083015260c083015160c083015260e083015160e083015261010080840151818401525061012080840151818401525092915050565b815181526020808301516103408301916128f0908401826001600160a01b03169052565b50604083015161290b60408401826001600160a01b03169052565b50606083015161294f606084018280516001600160a01b03168252602080820151908301526040808201519083015260608082015190830152608090810151910152565b5060808301516101006129778185018380516001600160a01b03168252602090810151910152565b60a085015180516001600160a01b0316610140868101919091526020820151610160870152604082015161018087015260608201516101a087015260808201516101c087015290925060c08601516101e086015260e0860151610200860152908501516102208501526101208501516102408501528401516102608401525061016083015180511515610280840152602081015115156102a0840152604081015115156102c0840152606081015115156102e0840152506101808301516001600160a01b038116610300840152506101a083015161032083015292915050565b81518152602080830151908201526040808301516001600160a01b0390811691830191909152606080840151909116908201526080918201519181019190915260a00190565b6040516080810167ffffffffffffffff81118282101715612ace57634e487b7160e01b600052604160045260246000fd5b60405290565b604051610140810167ffffffffffffffff81118282101715612ace57634e487b7160e01b600052604160045260246000fd5b6040516101c0810167ffffffffffffffff81118282101715612ace57634e487b7160e01b600052604160045260246000fd5b60008219821115612b5957634e487b7160e01b600052601160045260246000fd5b500190565b60005b83811015612b79578181015183820152602001612b61565b83811115611f4b5750506000910152565b634e487b7160e01b600052600160045260246000fd5b634e487b7160e01b600052604160045260246000fd5b6001600160a01b0381168114612bcb57600080fd5b5056fea26469706673582212200bf74e6c23d4ba338fea9742edab11925fc67e8667ae9c4265818618c5a1f01964736f6c63430008070033",
  "linkReferences": {},
  "deployedLinkReferences": {}
}