{
  "_format": "hh-sol-artifact-1",
  "contractName": "Router",
  "sourceName": "contracts/Router.sol",
  "abi": [
    {
      "inputs": [
        {
          "internalType": "address",
          "name": "_factory",
          "type": "address"
        },
        {
          "internalType": "address",
          "name": "_WETH",
          "type": "address"
        }
      ],
      "stateMutability": "nonpayable",
      "type": "constructor"
    },
    {
      "inputs": [],
      "name": "InsufficientInput",
      "type": "error"
    },
    {
      "inputs": [],
      "name": "InvalidParameters",
      "type": "error"
    },
    {
      "inputs": [
        {
          "internalType": "address",
          "name": "pool",
          "type": "address"
        }
      ],
      "name": "InvalidPool",
      "type": "error"
    },
    {
      "inputs": [],
      "name": "TransactionTooOld",
      "type": "error"
    },
    {
      "inputs": [],
      "name": "WETH",
      "outputs": [
        {
          "internalType": "address",
          "name": "",
          "type": "address"
        }
      ],
      "stateMutability": "view",
      "type": "function"
    },
    {
      "inputs": [
        {
          "components": [
            {
              "internalType": "address",
              "name": "pool",
              "type": "address"
            },
            {
              "internalType": "bytes32",
              "name": "positionKey",
              "type": "bytes32"
            },
            {
              "internalType": "uint256",
              "name": "txDeadline",
              "type": "uint256"
            }
          ],
          "internalType": "struct IRouter.CloseTradePositionParams",
          "name": "_params",
          "type": "tuple"
        }
      ],
      "name": "close",
      "outputs": [],
      "stateMutability": "nonpayable",
      "type": "function"
    },
    {
      "inputs": [
        {
          "internalType": "address",
          "name": "_tokenIn",
          "type": "address"
        },
        {
          "internalType": "address",
          "name": "_tokenOut",
          "type": "address"
        },
        {
          "internalType": "uint256",
          "name": "_amountOut",
          "type": "uint256"
        },
        {
          "internalType": "bytes",
          "name": "",
          "type": "bytes"
        }
      ],
      "name": "closeCallback",
      "outputs": [],
      "stateMutability": "nonpayable",
      "type": "function"
    },
    {
      "inputs": [],
      "name": "factory",
      "outputs": [
        {
          "internalType": "address",
          "name": "",
          "type": "address"
        }
      ],
      "stateMutability": "view",
      "type": "function"
    },
    {
      "inputs": [
        {
          "components": [
            {
              "internalType": "address",
              "name": "baseToken",
              "type": "address"
            },
            {
              "internalType": "address",
              "name": "quoteToken",
              "type": "address"
            },
            {
              "internalType": "address",
              "name": "collateral",
              "type": "address"
            },
            {
              "internalType": "uint256",
              "name": "baseAmount",
              "type": "uint256"
            },
            {
              "internalType": "uint256",
              "name": "quoteAmount",
              "type": "uint256"
            },
            {
              "internalType": "uint256",
              "name": "collateralAmount",
              "type": "uint256"
            },
            {
              "internalType": "uint256",
              "name": "deadline",
              "type": "uint256"
            },
            {
              "internalType": "uint256",
              "name": "stoplossPrice",
              "type": "uint256"
            },
            {
              "internalType": "uint256",
              "name": "txDeadline",
              "type": "uint256"
            }
          ],
          "internalType": "struct IRouter.OpenTradePositionParams",
          "name": "_params",
          "type": "tuple"
        }
      ],
      "name": "open",
      "outputs": [
        {
          "internalType": "bytes32",
          "name": "positionKey",
          "type": "bytes32"
        }
      ],
      "stateMutability": "nonpayable",
      "type": "function"
    },
    {
      "inputs": [
        {
          "components": [
            {
              "internalType": "address",
              "name": "baseToken",
              "type": "address"
            },
            {
              "internalType": "address",
              "name": "quoteToken",
              "type": "address"
            },
            {
              "internalType": "address",
              "name": "collateral",
              "type": "address"
            },
            {
              "internalType": "uint256",
              "name": "baseAmount",
              "type": "uint256"
            },
            {
              "internalType": "uint256",
              "name": "quoteAmount",
              "type": "uint256"
            },
            {
              "internalType": "uint256",
              "name": "collateralAmount",
              "type": "uint256"
            },
            {
              "internalType": "uint256",
              "name": "deadline",
              "type": "uint256"
            },
            {
              "internalType": "uint256",
              "name": "stoplossPrice",
              "type": "uint256"
            },
            {
              "internalType": "uint256",
              "name": "txDeadline",
              "type": "uint256"
            }
          ],
          "internalType": "struct IRouter.OpenTradePositionParams",
          "name": "_params",
          "type": "tuple"
        }
      ],
      "name": "openETH",
      "outputs": [
        {
          "internalType": "bytes32",
          "name": "positionKey",
          "type": "bytes32"
        }
      ],
      "stateMutability": "payable",
      "type": "function"
    },
    {
      "inputs": [
        {
          "components": [
            {
              "internalType": "address",
              "name": "baseToken",
              "type": "address"
            },
            {
              "internalType": "address",
              "name": "quoteToken",
              "type": "address"
            },
            {
              "internalType": "address",
              "name": "collateral",
              "type": "address"
            },
            {
              "internalType": "uint256",
              "name": "baseAmount",
              "type": "uint256"
            },
            {
              "internalType": "uint256",
              "name": "quoteAmount",
              "type": "uint256"
            },
            {
              "internalType": "uint256",
              "name": "collateralAmount",
              "type": "uint256"
            },
            {
              "internalType": "uint256",
              "name": "deadline",
              "type": "uint256"
            },
            {
              "internalType": "uint256",
              "name": "stoplossPrice",
              "type": "uint256"
            },
            {
              "internalType": "uint256",
              "name": "txDeadline",
              "type": "uint256"
            }
          ],
          "internalType": "struct IRouter.OpenTradePositionParams",
          "name": "_params",
          "type": "tuple"
        }
      ],
      "name": "openWithEthAsBaseToken",
      "outputs": [
        {
          "internalType": "bytes32",
          "name": "positionKey",
          "type": "bytes32"
        }
      ],
      "stateMutability": "payable",
      "type": "function"
    },
    {
      "inputs": [
        {
          "components": [
            {
              "internalType": "address",
              "name": "baseToken",
              "type": "address"
            },
            {
              "internalType": "address",
              "name": "quoteToken",
              "type": "address"
            },
            {
              "internalType": "address",
              "name": "collateral",
              "type": "address"
            },
            {
              "internalType": "uint256",
              "name": "baseAmount",
              "type": "uint256"
            },
            {
              "internalType": "uint256",
              "name": "quoteAmount",
              "type": "uint256"
            },
            {
              "internalType": "uint256",
              "name": "collateralAmount",
              "type": "uint256"
            },
            {
              "internalType": "uint256",
              "name": "deadline",
              "type": "uint256"
            },
            {
              "internalType": "uint256",
              "name": "stoplossPrice",
              "type": "uint256"
            },
            {
              "internalType": "uint256",
              "name": "txDeadline",
              "type": "uint256"
            }
          ],
          "internalType": "struct IRouter.OpenTradePositionParams",
          "name": "_params",
          "type": "tuple"
        }
      ],
      "name": "openWithEthAsCollateral",
      "outputs": [
        {
          "internalType": "bytes32",
          "name": "positionKey",
          "type": "bytes32"
        }
      ],
      "stateMutability": "payable",
      "type": "function"
    },
    {
      "inputs": [
        {
          "components": [
            {
              "internalType": "address",
              "name": "baseToken",
              "type": "address"
            },
            {
              "internalType": "address",
              "name": "quoteToken",
              "type": "address"
            },
            {
              "internalType": "address",
              "name": "collateral",
              "type": "address"
            },
            {
              "internalType": "uint256",
              "name": "baseAmount",
              "type": "uint256"
            },
            {
              "internalType": "uint256",
              "name": "quoteAmount",
              "type": "uint256"
            },
            {
              "internalType": "uint256",
              "name": "collateralAmount",
              "type": "uint256"
            },
            {
              "internalType": "uint256",
              "name": "deadline",
              "type": "uint256"
            },
            {
              "internalType": "uint256",
              "name": "stoplossPrice",
              "type": "uint256"
            },
            {
              "internalType": "uint256",
              "name": "txDeadline",
              "type": "uint256"
            }
          ],
          "internalType": "struct IRouter.OpenTradePositionParams",
          "name": "_params",
          "type": "tuple"
        }
      ],
      "name": "preview",
      "outputs": [
        {
          "components": [
            {
              "internalType": "bytes32",
              "name": "positionKey",
              "type": "bytes32"
            },
            {
              "internalType": "address",
              "name": "owner",
              "type": "address"
            },
            {
              "internalType": "address",
              "name": "pool",
              "type": "address"
            },
            {
              "components": [
                {
                  "internalType": "address",
                  "name": "id",
                  "type": "address"
                },
                {
                  "internalType": "uint256",
                  "name": "amount",
                  "type": "uint256"
                },
                {
                  "internalType": "uint256",
                  "name": "entryPrice",
                  "type": "uint256"
                },
                {
                  "internalType": "uint256",
                  "name": "liqPrice",
                  "type": "uint256"
                },
                {
                  "internalType": "uint256",
                  "name": "closePrice",
                  "type": "uint256"
                }
              ],
              "internalType": "struct IPositionStorage.BaseToken",
              "name": "baseToken",
              "type": "tuple"
            },
            {
              "components": [
                {
                  "internalType": "address",
                  "name": "id",
                  "type": "address"
                },
                {
                  "internalType": "uint256",
                  "name": "amount",
                  "type": "uint256"
                }
              ],
              "internalType": "struct IPositionStorage.QuoteToken",
              "name": "quoteToken",
              "type": "tuple"
            },
            {
              "components": [
                {
                  "internalType": "address",
                  "name": "id",
                  "type": "address"
                },
                {
                  "internalType": "uint256",
                  "name": "amount",
                  "type": "uint256"
                },
                {
                  "internalType": "uint256",
                  "name": "entryPrice",
                  "type": "uint256"
                },
                {
                  "internalType": "uint256",
                  "name": "liqPrice",
                  "type": "uint256"
                },
                {
                  "internalType": "uint256",
                  "name": "closePrice",
                  "type": "uint256"
                }
              ],
              "internalType": "struct IPositionStorage.Collateral",
              "name": "collateral",
              "type": "tuple"
            },
            {
              "internalType": "uint256",
              "name": "deadline",
              "type": "uint256"
            },
            {
              "internalType": "uint256",
              "name": "stoplossPrice",
              "type": "uint256"
            },
            {
              "internalType": "uint256",
              "name": "fee",
              "type": "uint256"
            },
            {
              "internalType": "uint256",
              "name": "protocolFee",
              "type": "uint256"
            },
            {
              "components": [
                {
                  "internalType": "bool",
                  "name": "isClosed",
                  "type": "bool"
                },
                {
                  "internalType": "bool",
                  "name": "isExpired",
                  "type": "bool"
                },
                {
                  "internalType": "bool",
                  "name": "isStoploss",
                  "type": "bool"
                },
                {
                  "internalType": "bool",
                  "name": "isBaseLiquidated",
                  "type": "bool"
                },
                {
                  "internalType": "bool",
                  "name": "isCollateralLiquidated",
                  "type": "bool"
                },
                {
                  "internalType": "bool",
                  "name": "isRollbacked",
                  "type": "bool"
                },
                {
                  "internalType": "bool",
                  "name": "isClosedManuallyStep1",
                  "type": "bool"
                },
                {
                  "internalType": "bool",
                  "name": "isClosedManuallyStep2",
                  "type": "bool"
                }
              ],
              "internalType": "struct IPositionStorage.Status",
              "name": "status",
              "type": "tuple"
            },
            {
              "internalType": "address",
              "name": "closer",
              "type": "address"
            },
            {
              "internalType": "uint256",
              "name": "liquidationMarkTime",
              "type": "uint256"
            }
          ],
          "internalType": "struct IPositionStorage.TradePosition",
          "name": "",
          "type": "tuple"
        }
      ],
      "stateMutability": "view",
      "type": "function"
    },
    {
      "inputs": [
        {
          "components": [
            {
              "internalType": "address",
              "name": "pool",
              "type": "address"
            },
            {
              "internalType": "bytes32",
              "name": "positionKey",
              "type": "bytes32"
            },
            {
              "internalType": "uint256",
              "name": "txDeadline",
              "type": "uint256"
            }
          ],
          "internalType": "struct IRouter.RollbackTradePositionParams",
          "name": "_params",
          "type": "tuple"
        }
      ],
      "name": "rollback",
      "outputs": [],
      "stateMutability": "nonpayable",
      "type": "function"
    },
    {
      "inputs": [
        {
          "components": [
            {
              "internalType": "address",
              "name": "pool",
              "type": "address"
            },
            {
              "internalType": "bytes32",
              "name": "positionKey",
              "type": "bytes32"
            },
            {
              "internalType": "uint256",
              "name": "amount",
              "type": "uint256"
            },
            {
              "internalType": "uint256",
              "name": "txDeadline",
              "type": "uint256"
            }
          ],
          "internalType": "struct IRouter.UpdateCollateralAmountParams",
          "name": "_params",
          "type": "tuple"
        }
      ],
      "name": "updateCollateralAmount",
      "outputs": [
        {
          "internalType": "uint256",
          "name": "collateralLiqPrice",
          "type": "uint256"
        },
        {
          "internalType": "uint256",
          "name": "baseLiqPrice",
          "type": "uint256"
        }
      ],
      "stateMutability": "nonpayable",
      "type": "function"
    },
    {
      "inputs": [
        {
          "components": [
            {
              "internalType": "address",
              "name": "pool",
              "type": "address"
            },
            {
              "internalType": "bytes32",
              "name": "positionKey",
              "type": "bytes32"
            },
            {
              "internalType": "uint256",
              "name": "deadline",
              "type": "uint256"
            },
            {
              "internalType": "uint256",
              "name": "txDeadline",
              "type": "uint256"
            }
          ],
          "internalType": "struct IRouter.UpdateDeadlineParams",
          "name": "_params",
          "type": "tuple"
        }
      ],
      "name": "updateDeadline",
      "outputs": [],
      "stateMutability": "nonpayable",
      "type": "function"
    },
    {
      "inputs": [
        {
          "components": [
            {
              "internalType": "address",
              "name": "pool",
              "type": "address"
            },
            {
              "internalType": "bytes32",
              "name": "positionKey",
              "type": "bytes32"
            },
            {
              "internalType": "uint256",
              "name": "stoplossPrice",
              "type": "uint256"
            },
            {
              "internalType": "uint256",
              "name": "txDeadline",
              "type": "uint256"
            }
          ],
          "internalType": "struct IRouter.UpdateStoplossPriceParams",
          "name": "_params",
          "type": "tuple"
        }
      ],
      "name": "updateStoplossPrice",
      "outputs": [],
      "stateMutability": "nonpayable",
      "type": "function"
    },
    {
      "stateMutability": "payable",
      "type": "receive"
    }
  ],
  "bytecode": "0x60c06040523480156200001157600080fd5b5060405162002c6c38038062002c6c833981016040819052620000349162000070565b6001600160601b0319606092831b811660a052911b16608052620000a8565b80516001600160a01b03811681146200006b57600080fd5b919050565b600080604083850312156200008457600080fd5b6200008f8362000053565b91506200009f6020840162000053565b90509250929050565b60805160601c60a05160601c612b306200013c600039600081816102a3015281816103c9015281816105de0152818161087a01528181610af601528181610cd501528181610f3b015281816110fe015281816112f6015281816114c4015281816117a5015261195e01526000818160d601528181610237015281816103290152818161103001526117050152612b306000f3fe6080604052600436106100c65760003560e01c806399f6fabd1161007f578063b86bdf6311610059578063b86bdf6314610271578063c45a015514610291578063e0683618146102c5578063e761f9dc146102d857600080fd5b806399f6fabd146101f25780639a50c46314610205578063ad5c46481461022557600080fd5b80632bb6c51b1461010a57806334ab16ff146101305780634b129dc5146101505780634c675a9f1461018557806356416bec146101b257806362e1af8a146101d257600080fd5b3661010557336001600160a01b037f0000000000000000000000000000000000000000000000000000000000000000161461010357610103612ab6565b005b600080fd5b61011d6101183660046124fb565b6102f8565b6040519081526020015b60405180910390f35b34801561013c57600080fd5b5061010361014b3660046124df565b610597565b34801561015c57600080fd5b5061017061016b36600461266c565b61082a565b60408051928352602083019190915201610127565b34801561019157600080fd5b506101a56101a03660046124fb565b610aea565b6040516101279190612874565b3480156101be57600080fd5b506101036101cd36600461266c565b610c8e565b3480156101de57600080fd5b5061011d6101ed3660046124fb565b610ee5565b61011d6102003660046124fb565b610ffd565b34801561021157600080fd5b506101036102203660046124df565b6112ac565b34801561023157600080fd5b506102597f000000000000000000000000000000000000000000000000000000000000000081565b6040516001600160a01b039091168152602001610127565b34801561027d57600080fd5b5061010361028c36600461266c565b61147d565b34801561029d57600080fd5b506102597f000000000000000000000000000000000000000000000000000000000000000081565b61011d6102d33660046124fb565b6116d4565b3480156102e457600080fd5b506101036102f336600461240c565b61195a565b6000816101000151806103084290565b111561032757604051632a0c45bf60e21b815260040160405180910390fd5b7f00000000000000000000000000000000000000000000000000000000000000006001600160a01b031683604001516001600160a01b03161461037d57604051630e52390960e41b815260040160405180910390fd5b8260a001513410156103a25760405163f8b3bb6160e01b815260040160405180910390fd5b6020830151604051634d83bc3360e01b81526001600160a01b0391821660048201526000917f00000000000000000000000000000000000000000000000000000000000000001690634d83bc339060240160206040518083038186803b15801561040b57600080fd5b505afa15801561041f573d6000803e3d6000fd5b505050506040513d601f19601f8201168201806040525081019061044391906123ef565b90506001600160a01b03811661047c57604051630f4c971b60e21b81526001600160a01b03821660048201526024015b60405180910390fd5b83604001516001600160a01b031663d0e30db08560a001516040518263ffffffff1660e01b81526004016000604051808303818588803b1580156104bf57600080fd5b505af11580156104d3573d6000803e3d6000fd5b50505060408087015160a0880151915163a9059cbb60e01b81526001600160a01b03868116600483015260248201939093529116925063a9059cbb9150604401602060405180830381600087803b15801561052d57600080fd5b505af1158015610541573d6000803e3d6000fd5b505050506040513d601f19601f8201168201806040525081019061056591906124ab565b61057157610571612ab6565b610585846000015133838760600151611c4a565b61058f8185611d88565b949350505050565b6040810151804211156105bd57604051632a0c45bf60e21b815260040160405180910390fd5b815160405163b42754a560e01b81526001600160a01b0391821660048201527f0000000000000000000000000000000000000000000000000000000000000000916000919083169063b42754a59060240160206040518083038186803b15801561062657600080fd5b505afa15801561063a573d6000803e3d6000fd5b505050506040513d601f19601f8201168201806040525081019061065e91906124c6565b90508061068c578351604051630f4c971b60e21b81526001600160a01b039091166004820152602401610473565b6000826001600160a01b031663b76929686040518163ffffffff1660e01b815260040160206040518083038186803b1580156106c757600080fd5b505afa1580156106db573d6000803e3d6000fd5b505050506040513d601f19601f820116820180604052508101906106ff91906123ef565b90506000836001600160a01b0316633c0930376040518163ffffffff1660e01b815260040160206040518083038186803b15801561073c57600080fd5b505afa158015610750573d6000803e3d6000fd5b505050506040513d601f19601f8201168201806040525081019061077491906124c6565b90506001600160a01b0382161580159061078e5750600081115b156107a3576107a38233886000015184611c4a565b85516040805180820182526020808a0151825233908201908152915163d43c1b6960e01b81529051600482015290516001600160a01b0390811660248301529091169063d43c1b69906044015b600060405180830381600087803b15801561080a57600080fd5b505af115801561081e573d6000803e3d6000fd5b50505050505050505050565b60008082606001518061083a4290565b111561085957604051632a0c45bf60e21b815260040160405180910390fd5b835160405163b42754a560e01b81526001600160a01b0391821660048201527f0000000000000000000000000000000000000000000000000000000000000000916000919083169063b42754a59060240160206040518083038186803b1580156108c257600080fd5b505afa1580156108d6573d6000803e3d6000fd5b505050506040513d601f19601f820116820180604052508101906108fa91906124c6565b905080610928578551604051630f4c971b60e21b81526001600160a01b039091166004820152602401610473565b6000826001600160a01b031663b76929686040518163ffffffff1660e01b815260040160206040518083038186803b15801561096357600080fd5b505afa158015610977573d6000803e3d6000fd5b505050506040513d601f19601f8201168201806040525081019061099b91906123ef565b90506000836001600160a01b0316632a5025b76040518163ffffffff1660e01b815260040160206040518083038186803b1580156109d857600080fd5b505afa1580156109ec573d6000803e3d6000fd5b505050506040513d601f19601f82011682018060405250810190610a1091906124c6565b90506001600160a01b03821615801590610a2a5750600081115b15610a3f57610a3f82338a6000015184611c4a565b8751604080516060810182526020808c01518252828c01519082015233818301529051637c08ddc960e01b81526001600160a01b0390921691637c08ddc991610a8a916004016129cc565b6040805180830381600087803b158015610aa357600080fd5b505af1158015610ab7573d6000803e3d6000fd5b505050506040513d601f19601f82011682018060405250810190610adb91906126b8565b90999098509650505050505050565b610af2611fbc565b60007f00000000000000000000000000000000000000000000000000000000000000006001600160a01b0316638cd474156040518163ffffffff1660e01b815260040160206040518083038186803b158015610b4d57600080fd5b505afa158015610b61573d6000803e3d6000fd5b505050506040513d601f19601f82011682018060405250810190610b8591906123ef565b9050806001600160a01b0316631a37982d604051806101200160405280336001600160a01b0316815260200186600001516001600160a01b0316815260200186602001516001600160a01b0316815260200186604001516001600160a01b0316815260200186606001518152602001866080015181526020018660a0015181526020018660c0015181526020018660e001518152506040518263ffffffff1660e01b8152600401610c3691906127ff565b6103a06040518083038186803b158015610c4f57600080fd5b505afa158015610c63573d6000803e3d6000fd5b505050506040513d601f19601f82011682018060405250810190610c87919061258b565b9392505050565b606081015180421115610cb457604051632a0c45bf60e21b815260040160405180910390fd5b815160405163b42754a560e01b81526001600160a01b0391821660048201527f0000000000000000000000000000000000000000000000000000000000000000916000919083169063b42754a59060240160206040518083038186803b158015610d1d57600080fd5b505afa158015610d31573d6000803e3d6000fd5b505050506040513d601f19601f82011682018060405250810190610d5591906124c6565b905080610d83578351604051630f4c971b60e21b81526001600160a01b039091166004820152602401610473565b6000826001600160a01b031663b76929686040518163ffffffff1660e01b815260040160206040518083038186803b158015610dbe57600080fd5b505afa158015610dd2573d6000803e3d6000fd5b505050506040513d601f19601f82011682018060405250810190610df691906123ef565b90506000836001600160a01b031663b58862e76040518163ffffffff1660e01b815260040160206040518083038186803b158015610e3357600080fd5b505afa158015610e47573d6000803e3d6000fd5b505050506040513d601f19601f82011682018060405250810190610e6b91906124c6565b90506001600160a01b03821615801590610e855750600081115b15610e9a57610e9a8233886000015184611c4a565b8551604080516060810182526020808a01518252828a01519082015233818301529051631636e19960e01b81526001600160a01b0390921691631636e199916107f0916004016129cc565b600081610100015180610ef54290565b1115610f1457604051632a0c45bf60e21b815260040160405180910390fd5b6020830151604051634d83bc3360e01b81526001600160a01b0391821660048201526000917f00000000000000000000000000000000000000000000000000000000000000001690634d83bc339060240160206040518083038186803b158015610f7d57600080fd5b505afa158015610f91573d6000803e3d6000fd5b505050506040513d601f19601f82011682018060405250810190610fb591906123ef565b90506001600160a01b038116610fe957604051630f4c971b60e21b81526001600160a01b0382166004820152602401610473565b610571846040015133838760a00151611c4a565b60008161010001518061100d4290565b111561102c57604051632a0c45bf60e21b815260040160405180910390fd5b82517f0000000000000000000000000000000000000000000000000000000000000000906001600160a01b0380831691161415806110805750806001600160a01b031684604001516001600160a01b031614155b1561109e57604051630e52390960e41b815260040160405180910390fd5b600084606001518560a001516110b49190612a60565b9050803410156110d75760405163f8b3bb6160e01b815260040160405180910390fd5b6020850151604051634d83bc3360e01b81526001600160a01b0391821660048201526000917f00000000000000000000000000000000000000000000000000000000000000001690634d83bc339060240160206040518083038186803b15801561114057600080fd5b505afa158015611154573d6000803e3d6000fd5b505050506040513d601f19601f8201168201806040525081019061117891906123ef565b90506001600160a01b0381166111ac57604051630f4c971b60e21b81526001600160a01b0382166004820152602401610473565b85604001516001600160a01b031663d0e30db0836040518263ffffffff1660e01b81526004016000604051808303818588803b1580156111eb57600080fd5b505af11580156111ff573d6000803e3d6000fd5b505050604080890151905163a9059cbb60e01b81526001600160a01b03858116600483015260248201879052909116925063a9059cbb9150604401602060405180830381600087803b15801561125457600080fd5b505af1158015611268573d6000803e3d6000fd5b505050506040513d601f19601f8201168201806040525081019061128c91906124ab565b61129857611298612ab6565b6112a28187611d88565b9695505050505050565b6040810151804211156112d257604051632a0c45bf60e21b815260040160405180910390fd5b815160405163b42754a560e01b81526001600160a01b0391821660048201526000917f0000000000000000000000000000000000000000000000000000000000000000169063b42754a59060240160206040518083038186803b15801561133857600080fd5b505afa15801561134c573d6000803e3d6000fd5b505050506040513d601f19601f8201168201806040525081019061137091906124c6565b90508061139e578251604051630f4c971b60e21b81526001600160a01b039091166004820152602401610473565b82600001516001600160a01b031663fba0c814604051806080016040528086602001518152602001600067ffffffffffffffff8111156113e0576113e0612acc565b6040519080825280601f01601f19166020018201604052801561140a576020820181803683370190505b50815260408051600081526020808201835283015233918101919091525160e083901b6001600160e01b0319168152611446919060040161279a565b600060405180830381600087803b15801561146057600080fd5b505af1158015611474573d6000803e3d6000fd5b50505050505050565b6060810151804211156114a357604051632a0c45bf60e21b815260040160405180910390fd5b815160405163b42754a560e01b81526001600160a01b0391821660048201527f0000000000000000000000000000000000000000000000000000000000000000916000919083169063b42754a59060240160206040518083038186803b15801561150c57600080fd5b505afa158015611520573d6000803e3d6000fd5b505050506040513d601f19601f8201168201806040525081019061154491906124c6565b905080611572578351604051630f4c971b60e21b81526001600160a01b039091166004820152602401610473565b6000826001600160a01b031663b76929686040518163ffffffff1660e01b815260040160206040518083038186803b1580156115ad57600080fd5b505afa1580156115c1573d6000803e3d6000fd5b505050506040513d601f19601f820116820180604052508101906115e591906123ef565b90506000836001600160a01b031663c79005846040518163ffffffff1660e01b815260040160206040518083038186803b15801561162257600080fd5b505afa158015611636573d6000803e3d6000fd5b505050506040513d601f19601f8201168201806040525081019061165a91906124c6565b90506001600160a01b038216158015906116745750600081115b15611689576116898233886000015184611c4a565b8551604080516060810182526020808a01518252828a01519082015233818301529051630fc9ffe160e41b81526001600160a01b039092169163fc9ffe10916107f0916004016129cc565b6000816101000151806116e44290565b111561170357604051632a0c45bf60e21b815260040160405180910390fd5b7f00000000000000000000000000000000000000000000000000000000000000006001600160a01b031683600001516001600160a01b03161461175957604051630e52390960e41b815260040160405180910390fd5b826060015134101561177e5760405163f8b3bb6160e01b815260040160405180910390fd5b6020830151604051634d83bc3360e01b81526001600160a01b0391821660048201526000917f00000000000000000000000000000000000000000000000000000000000000001690634d83bc339060240160206040518083038186803b1580156117e757600080fd5b505afa1580156117fb573d6000803e3d6000fd5b505050506040513d601f19601f8201168201806040525081019061181f91906123ef565b90506001600160a01b03811661185357604051630f4c971b60e21b81526001600160a01b0382166004820152602401610473565b83600001516001600160a01b031663d0e30db085606001516040518263ffffffff1660e01b81526004016000604051808303818588803b15801561189657600080fd5b505af11580156118aa573d6000803e3d6000fd5b50508651606088015160405163a9059cbb60e01b81526001600160a01b03878116600483015260248201929092529116935063a9059cbb92506044019050602060405180830381600087803b15801561190257600080fd5b505af1158015611916573d6000803e3d6000fd5b505050506040513d601f19601f8201168201806040525081019061193a91906124ab565b61194657611946612ab6565b610585846040015133838760a00151611c4a565b60007f00000000000000000000000000000000000000000000000000000000000000006001600160a01b0316637c21d5e06040518163ffffffff1660e01b815260040160206040518083038186803b1580156119b557600080fd5b505afa1580156119c9573d6000803e3d6000fd5b505050506040513d601f19601f820116820180604052508101906119ed91906123ef565b6040516370a0823160e01b81523060048201529091506000906001600160a01b038816906370a082319060240160206040518083038186803b158015611a3257600080fd5b505afa158015611a46573d6000803e3d6000fd5b505050506040513d601f19601f82011682018060405250810190611a6a91906124c6565b9050611a77878383611e8b565b604051630ceffb5960e31b8152600060048201526001600160a01b03888116602483015287811660448301526064820187905230608483015283169063677fdac89060a4016040805180830381600087803b158015611ad557600080fd5b505af1158015611ae9573d6000803e3d6000fd5b505050506040513d601f19601f82011682018060405250810190611b0d9190612688565b5050611b1a863387611e8b565b6040516370a0823160e01b81523060048201526000906001600160a01b038816906370a082319060240160206040518083038186803b158015611b5c57600080fd5b505afa158015611b70573d6000803e3d6000fd5b505050506040513d601f19601f82011682018060405250810190611b9491906124c6565b90508015611c4057611ba7878483611e8b565b604051630ceffb5960e31b81526000600482018190526001600160a01b0389811660248401528a81166044840152606483019190915233608483015284169063677fdac89060a4016040805180830381600087803b158015611c0857600080fd5b505af1158015611c1c573d6000803e3d6000fd5b505050506040513d601f19601f8201168201806040525081019061081e9190612688565b5050505050505050565b604080516001600160a01b0385811660248301528481166044830152606480830185905283518084039091018152608490920183526020820180516001600160e01b03166323b872dd60e01b1790529151600092839290881691611cae919061277e565b6000604051808303816000865af19150503d8060008114611ceb576040519150601f19603f3d011682016040523d82523d6000602084013e611cf0565b606091505b5091509150818015611d1a575080511580611d1a575080806020019051810190611d1a91906124ab565b611d805760405162461bcd60e51b815260206004820152603160248201527f5472616e7366657248656c7065723a3a7472616e7366657246726f6d3a207472604482015270185b9cd9995c919c9bdb4819985a5b1959607a1b6064820152608401610473565b505050505050565b6000826001600160a01b03166341ba5951604051806101200160405280336001600160a01b0316815260200185600001516001600160a01b0316815260200185602001516001600160a01b0316815260200185604001516001600160a01b0316815260200185606001518152602001856080015181526020018560a0015181526020018560c0015181526020018560e001518152506040518263ffffffff1660e01b8152600401611e3991906127ff565b602060405180830381600087803b158015611e5357600080fd5b505af1158015611e67573d6000803e3d6000fd5b505050506040513d601f19601f82011682018060405250810190610c8791906124c6565b604080516001600160a01b038481166024830152604480830185905283518084039091018152606490920183526020820180516001600160e01b031663a9059cbb60e01b1790529151600092839290871691611ee7919061277e565b6000604051808303816000865af19150503d8060008114611f24576040519150601f19603f3d011682016040523d82523d6000602084013e611f29565b606091505b5091509150818015611f53575080511580611f53575080806020019051810190611f5391906124ab565b611fb55760405162461bcd60e51b815260206004820152602d60248201527f5472616e7366657248656c7065723a3a736166655472616e736665723a20747260448201526c185b9cd9995c8819985a5b1959609a1b6064820152608401610473565b5050505050565b604051806101a001604052806000801916815260200160006001600160a01b0316815260200160006001600160a01b0316815260200161202d6040518060a0016040528060006001600160a01b03168152602001600081526020016000815260200160008152602001600081525090565b8152602001612058604051806040016040528060006001600160a01b03168152602001600081525090565b81526020016120986040518060a0016040528060006001600160a01b03168152602001600081526020016000815260200160008152602001600081525090565b8152600060208083018290526040808401839052606080850184905260808086018590528251610100810184528581529384018590529183018490528201839052810182905260a081810183905260c0820183905260e0820192909252910190815260006020820181905260409091015290565b803561211781612ae2565b919050565b805161211781612ae2565b8051801515811461211757600080fd5b600060a0828403121561214957600080fd5b60405160a0810181811067ffffffffffffffff8211171561217a57634e487b7160e01b600052604160045260246000fd5b8060405250809150825161218d81612ae2565b80825250602083015160208201526040830151604082015260608301516060820152608083015160808201525092915050565b6000606082840312156121d257600080fd5b6040516060810181811067ffffffffffffffff8211171561220357634e487b7160e01b600052604160045260246000fd5b604052905080823561221481612ae2565b8082525060208301356020820152604083013560408201525092915050565b60006040828403121561224557600080fd5b6040516040810181811067ffffffffffffffff8211171561227657634e487b7160e01b600052604160045260246000fd5b8060405250809150825161228981612ae2565b8152602092830151920191909152919050565b60006101008083850312156122b057600080fd5b6040519081019067ffffffffffffffff821181831017156122e157634e487b7160e01b600052604160045260246000fd5b816040528092506122f184612127565b81526122ff60208501612127565b602082015261231060408501612127565b604082015261232160608501612127565b606082015261233260808501612127565b608082015261234360a08501612127565b60a082015261235460c08501612127565b60c082015261236560e08501612127565b60e0820152505092915050565b60006080828403121561238457600080fd5b6040516080810181811067ffffffffffffffff821117156123b557634e487b7160e01b600052604160045260246000fd5b60405290508082356123c681612ae2565b808252506020830135602082015260408301356040820152606083013560608201525092915050565b60006020828403121561240157600080fd5b8151610c8781612ae2565b60008060008060006080868803121561242457600080fd5b853561242f81612ae2565b9450602086013561243f81612ae2565b935060408601359250606086013567ffffffffffffffff8082111561246357600080fd5b818801915088601f83011261247757600080fd5b81358181111561248657600080fd5b89602082850101111561249857600080fd5b9699959850939650602001949392505050565b6000602082840312156124bd57600080fd5b610c8782612127565b6000602082840312156124d857600080fd5b5051919050565b6000606082840312156124f157600080fd5b610c8783836121c0565b6000610120828403121561250e57600080fd5b6125166129f6565b61251f8361210c565b815261252d6020840161210c565b602082015261253e6040840161210c565b6040820152606083013560608201526080830135608082015260a083013560a082015260c083013560c082015260e083013560e08201526101008084013581830152508091505092915050565b60006103a0828403121561259e57600080fd5b6125a6612a2e565b825181526125b66020840161211c565b60208201526125c76040840161211c565b60408201526125d98460608501612137565b60608201526101006125ed85828601612233565b608083015261014061260186828701612137565b60a08401526101e085015160c084015261020085015160e08401526102208501518284015261024085015161012084015261264086610260870161229c565b9083015250612652610360840161211c565b610160820152610380929092015161018083015250919050565b60006080828403121561267e57600080fd5b610c878383612372565b6000806040838503121561269b57600080fd5b8251915060208301516126ad81612ae2565b809150509250929050565b600080604083850312156126cb57600080fd5b505080516020909101519092909150565b600081518084526126f4816020860160208601612a86565b601f01601f19169290920160200192915050565b80511515825260208101511515602083015260408101511515604083015260608101511515606083015260808101511515608083015260a081015161275160a084018215159052565b5060c081015161276560c084018215159052565b5060e081015161277960e084018215159052565b505050565b60008251612790818460208701612a86565b9190910192915050565b602081528151602082015260006020830151608060408401526127c060a08401826126dc565b90506040840151601f198483030160608501526127dd82826126dc565b606095909501516001600160a01b031660809490940193909352509192915050565b81516001600160a01b03908116825260208084015182169083015260408084015182169083015260608084015191821690830152610120820190506080830151608083015260a083015160a083015260c083015160c083015260e083015160e083015261010080840151818401525092915050565b815181526020808301516103a0830191612898908401826001600160a01b03169052565b5060408301516128b360408401826001600160a01b03169052565b5060608301516128f7606084018280516001600160a01b03168252602080820151908301526040808201519083015260608082015190830152608090810151910152565b50608083015161010061291f8185018380516001600160a01b03168252602090810151910152565b60a085015180516001600160a01b0316610140868101919091526020820151610160870152604082015161018087015260608201516101a08701526080909101516101c086015260c08601516101e086015260e08601516102008601529085015161022085015261012085015161024085015284015190506129a5610260840182612708565b506101608301516001600160a01b0316610360830152610180909201516103809091015290565b81518152602080830151908201526040918201516001600160a01b03169181019190915260600190565b604051610120810167ffffffffffffffff81118282101715612a2857634e487b7160e01b600052604160045260246000fd5b60405290565b6040516101a0810167ffffffffffffffff81118282101715612a2857634e487b7160e01b600052604160045260246000fd5b60008219821115612a8157634e487b7160e01b600052601160045260246000fd5b500190565b60005b83811015612aa1578181015183820152602001612a89565b83811115612ab0576000848401525b50505050565b634e487b7160e01b600052600160045260246000fd5b634e487b7160e01b600052604160045260246000fd5b6001600160a01b0381168114612af757600080fd5b5056fea26469706673582212202586132356c148422653362a5c92989ab2392b2bf197ecc1226147e8c8573bae64736f6c63430008070033",
  "linkReferences": {},
  "deployedLinkReferences": {}
}