{
  "_format": "hh-sol-artifact-1",
  "contractName": "PriceFeed",
  "sourceName": "contracts/PriceFeed.sol",
  "abi": [
    {
      "inputs": [],
      "stateMutability": "nonpayable",
      "type": "constructor"
    },
    {
      "inputs": [
        {
          "internalType": "address",
          "name": "sender",
          "type": "address"
        }
      ],
      "name": "Forbidden",
      "type": "error"
    },
    {
      "anonymous": false,
      "inputs": [
        {
          "indexed": false,
          "internalType": "address[]",
          "name": "integrations",
          "type": "address[]"
        }
      ],
      "name": "SetIntegrations",
      "type": "event"
    },
    {
      "anonymous": false,
      "inputs": [
        {
          "indexed": false,
          "internalType": "address",
          "name": "manager",
          "type": "address"
        }
      ],
      "name": "SetManager",
      "type": "event"
    },
    {
      "inputs": [],
      "name": "PRECISION",
      "outputs": [
        {
          "internalType": "uint256",
          "name": "",
          "type": "uint256"
        }
      ],
      "stateMutability": "view",
      "type": "function"
    },
    {
      "inputs": [
        {
          "internalType": "address",
          "name": "_baseToken",
          "type": "address"
        },
        {
          "internalType": "address",
          "name": "_quoteToken",
          "type": "address"
        }
      ],
      "name": "getHighestPrice",
      "outputs": [
        {
          "internalType": "uint256",
          "name": "highest",
          "type": "uint256"
        }
      ],
      "stateMutability": "view",
      "type": "function"
    },
    {
      "inputs": [
        {
          "internalType": "address",
          "name": "_baseToken",
          "type": "address"
        },
        {
          "internalType": "address",
          "name": "_quoteToken",
          "type": "address"
        }
      ],
      "name": "getLowestPrice",
      "outputs": [
        {
          "internalType": "uint256",
          "name": "lowest",
          "type": "uint256"
        }
      ],
      "stateMutability": "view",
      "type": "function"
    },
    {
      "inputs": [
        {
          "internalType": "address",
          "name": "_baseToken",
          "type": "address"
        },
        {
          "internalType": "address",
          "name": "_quoteToken",
          "type": "address"
        }
      ],
      "name": "getPrice",
      "outputs": [
        {
          "internalType": "uint256",
          "name": "highest",
          "type": "uint256"
        },
        {
          "internalType": "uint256",
          "name": "lowest",
          "type": "uint256"
        }
      ],
      "stateMutability": "view",
      "type": "function"
    },
    {
      "inputs": [
        {
          "internalType": "uint256",
          "name": "",
          "type": "uint256"
        }
      ],
      "name": "integrations",
      "outputs": [
        {
          "internalType": "address",
          "name": "",
          "type": "address"
        }
      ],
      "stateMutability": "view",
      "type": "function"
    },
    {
      "inputs": [],
      "name": "manager",
      "outputs": [
        {
          "internalType": "address",
          "name": "",
          "type": "address"
        }
      ],
      "stateMutability": "view",
      "type": "function"
    },
    {
      "inputs": [
        {
          "internalType": "address[]",
          "name": "_integrations",
          "type": "address[]"
        }
      ],
      "name": "setIntegrations",
      "outputs": [],
      "stateMutability": "nonpayable",
      "type": "function"
    },
    {
      "inputs": [
        {
          "internalType": "address",
          "name": "_manager",
          "type": "address"
        }
      ],
      "name": "setManager",
      "outputs": [],
      "stateMutability": "nonpayable",
      "type": "function"
    }
  ],
  "bytecode": "0x608060405234801561001057600080fd5b50600080546001600160a01b03191633179055610d70806100326000396000f3fe608060405234801561001057600080fd5b50600436106100885760003560e01c8063aaf5eb681161005b578063aaf5eb6814610106578063ac41865a14610119578063d0ebdbe714610141578063e6c143621461015457600080fd5b8063104668611461008d5780631a102f67146100a2578063481c6a75146100c8578063790bde32146100f3575b600080fd5b6100a061009b366004610a43565b610167565b005b6100b56100b0366004610a10565b6101e7565b6040519081526020015b60405180910390f35b6000546100db906001600160a01b031681565b6040516001600160a01b0390911681526020016100bf565b6100db610101366004610b0f565b61044f565b6100b568327cb2734119d3b7a9601e1b81565b61012c610127366004610a10565b610479565b604080519283526020830191909152016100bf565b6100a061014f3660046109f5565b610712565b6100b5610162366004610a10565b61078d565b6000546001600160a01b031633146101995760405163a59d7f4d60e01b81523360048201526024015b60405180910390fd5b80516101ac90600190602084019061095f565b507fe8da2c09baa9c936046abefef4abff853a37f76be3ce70b45b3aaee2409ffae1816040516101dc9190610b64565b60405180910390a150565b6000816001600160a01b0316836001600160a01b03161415610216575068327cb2734119d3b7a9601e1b610449565b60015460005b8181101561031d5760006001828154811061023957610239610d0e565b60009182526020822001546001600160a01b0316915061025a8288886108cc565b90508015610308576000826001600160a01b031663aaf5eb686040518163ffffffff1660e01b815260040160206040518083038186803b15801561029d57600080fd5b505afa1580156102b1573d6000803e3d6000fd5b505050506040513d601f19601f820116820180604052508101906102d59190610b28565b9050806102ee68327cb2734119d3b7a9601e1b84610cbe565b6102f89190610bb1565b915085821115610306578195505b505b5050808061031590610cdd565b91505061021c565b506000846001600160a01b031663313ce5676040518163ffffffff1660e01b815260040160206040518083038186803b15801561035957600080fd5b505afa15801561036d573d6000803e3d6000fd5b505050506040513d601f19601f820116820180604052508101906103919190610b41565b60ff1690506000846001600160a01b031663313ce5676040518163ffffffff1660e01b815260040160206040518083038186803b1580156103d157600080fd5b505afa1580156103e5573d6000803e3d6000fd5b505050506040513d601f19601f820116820180604052508101906104099190610b41565b60ff169050600061041b83600a610c16565b9050600061042a83600a610c16565b9050816104378288610cbe565b6104419190610bb1565b955050505050505b92915050565b6001818154811061045f57600080fd5b6000918252602090912001546001600160a01b0316905081565b600080826001600160a01b0316846001600160a01b031614156104ac575068327cb2734119d3b7a9601e1b90508061070b565b60015460005b818110156105c8576000600182815481106104cf576104cf610d0e565b60009182526020822001546001600160a01b031691506104f08289896108cc565b905080156105b3576000826001600160a01b031663aaf5eb686040518163ffffffff1660e01b815260040160206040518083038186803b15801561053357600080fd5b505afa158015610547573d6000803e3d6000fd5b505050506040513d601f19601f8201168201806040525081019061056b9190610b28565b90508061058468327cb2734119d3b7a9601e1b84610cbe565b61058e9190610bb1565b91508682111561059c578196505b858210806105a8575085155b156105b1578195505b505b505080806105c090610cdd565b9150506104b2565b506000856001600160a01b031663313ce5676040518163ffffffff1660e01b815260040160206040518083038186803b15801561060457600080fd5b505afa158015610618573d6000803e3d6000fd5b505050506040513d601f19601f8201168201806040525081019061063c9190610b41565b60ff1690506000856001600160a01b031663313ce5676040518163ffffffff1660e01b815260040160206040518083038186803b15801561067c57600080fd5b505afa158015610690573d6000803e3d6000fd5b505050506040513d601f19601f820116820180604052508101906106b49190610b41565b60ff16905060006106c683600a610c16565b905060006106d583600a610c16565b9050816106e28289610cbe565b6106ec9190610bb1565b9650816106f98288610cbe565b6107039190610bb1565b955050505050505b9250929050565b6000546001600160a01b0316331461073f5760405163a59d7f4d60e01b8152336004820152602401610190565b600080546001600160a01b0319166001600160a01b0383169081179091556040519081527f54a6385aa0292b04e1ef8513253c17d1863f7cdfc87029d77fd55cc4c2e717e2906020016101dc565b6000816001600160a01b0316836001600160a01b031614156107bc575068327cb2734119d3b7a9601e1b610449565b60015460005b8181101561031d576000600182815481106107df576107df610d0e565b60009182526020822001546001600160a01b031691506108008288886108cc565b905080156108b7576000826001600160a01b031663aaf5eb686040518163ffffffff1660e01b815260040160206040518083038186803b15801561084357600080fd5b505afa158015610857573d6000803e3d6000fd5b505050506040513d601f19601f8201168201806040525081019061087b9190610b28565b90508061089468327cb2734119d3b7a9601e1b84610cbe565b61089e9190610bb1565b9150858210806108ac575085155b156108b5578195505b505b505080806108c490610cdd565b9150506107c2565b604051635620c32d60e11b81526001600160a01b03838116600483015282811660248301526000919085169063ac41865a9060440160206040518083038186803b15801561091957600080fd5b505afa925050508015610949575060408051601f3d908101601f1916820190925261094691810190610b28565b60015b61095557506000610958565b90505b9392505050565b8280548282559060005260206000209081019282156109b4579160200282015b828111156109b457825182546001600160a01b0319166001600160a01b0390911617825560209092019160019091019061097f565b506109c09291506109c4565b5090565b5b808211156109c057600081556001016109c5565b80356001600160a01b03811681146109f057600080fd5b919050565b600060208284031215610a0757600080fd5b610958826109d9565b60008060408385031215610a2357600080fd5b610a2c836109d9565b9150610a3a602084016109d9565b90509250929050565b60006020808385031215610a5657600080fd5b823567ffffffffffffffff80821115610a6e57600080fd5b818501915085601f830112610a8257600080fd5b813581811115610a9457610a94610d24565b8060051b604051601f19603f83011681018181108582111715610ab957610ab9610d24565b604052828152858101935084860182860187018a1015610ad857600080fd5b600095505b83861015610b0257610aee816109d9565b855260019590950194938601938601610add565b5098975050505050505050565b600060208284031215610b2157600080fd5b5035919050565b600060208284031215610b3a57600080fd5b5051919050565b600060208284031215610b5357600080fd5b815160ff8116811461095857600080fd5b6020808252825182820181905260009190848201906040850190845b81811015610ba55783516001600160a01b031683529284019291840191600101610b80565b50909695505050505050565b600082610bce57634e487b7160e01b600052601260045260246000fd5b500490565b600181815b80851115610c0e578160001904821115610bf457610bf4610cf8565b80851615610c0157918102915b93841c9390800290610bd8565b509250929050565b60006109588383600082610c2c57506001610449565b81610c3957506000610449565b8160018114610c4f5760028114610c5957610c75565b6001915050610449565b60ff841115610c6a57610c6a610cf8565b50506001821b610449565b5060208310610133831016604e8410600b8410161715610c98575081810a610449565b610ca28383610bd3565b8060001904821115610cb657610cb6610cf8565b029392505050565b6000816000190483118215151615610cd857610cd8610cf8565b500290565b6000600019821415610cf157610cf1610cf8565b5060010190565b634e487b7160e01b600052601160045260246000fd5b634e487b7160e01b600052603260045260246000fd5b634e487b7160e01b600052604160045260246000fdfea2646970667358221220f8823e58dab5eef4ec45f73f1778dcb1e4c660de0543195379dea3a81b3543ec64736f6c63430008070033",
  "linkReferences": {},
  "deployedLinkReferences": {}
}