{
  "_format": "hh-sol-artifact-1",
  "contractName": "PriceFeed",
  "sourceName": "contracts/PriceFeed.sol",
  "abi": [
    {
      "inputs": [],
      "stateMutability": "nonpayable",
      "type": "constructor"
    },
    {
      "inputs": [
        {
          "internalType": "address",
          "name": "sender",
          "type": "address"
        }
      ],
      "name": "Forbidden",
      "type": "error"
    },
    {
      "anonymous": false,
      "inputs": [
        {
          "indexed": false,
          "internalType": "address[]",
          "name": "integrations",
          "type": "address[]"
        }
      ],
      "name": "SetIntegrations",
      "type": "event"
    },
    {
      "anonymous": false,
      "inputs": [
        {
          "indexed": false,
          "internalType": "address",
          "name": "manager",
          "type": "address"
        }
      ],
      "name": "SetManager",
      "type": "event"
    },
    {
      "inputs": [],
      "name": "PRECISION",
      "outputs": [
        {
          "internalType": "uint256",
          "name": "",
          "type": "uint256"
        }
      ],
      "stateMutability": "view",
      "type": "function"
    },
    {
      "inputs": [
        {
          "internalType": "address",
          "name": "_baseToken",
          "type": "address"
        },
        {
          "internalType": "address",
          "name": "_quoteToken",
          "type": "address"
        }
      ],
      "name": "getHighestPrice",
      "outputs": [
        {
          "internalType": "uint256",
          "name": "highest",
          "type": "uint256"
        }
      ],
      "stateMutability": "view",
      "type": "function"
    },
    {
      "inputs": [
        {
          "internalType": "address",
          "name": "_baseToken",
          "type": "address"
        },
        {
          "internalType": "address",
          "name": "_quoteToken",
          "type": "address"
        }
      ],
      "name": "getLowestPrice",
      "outputs": [
        {
          "internalType": "uint256",
          "name": "lowest",
          "type": "uint256"
        }
      ],
      "stateMutability": "view",
      "type": "function"
    },
    {
      "inputs": [
        {
          "internalType": "address",
          "name": "_baseToken",
          "type": "address"
        },
        {
          "internalType": "address",
          "name": "_quoteToken",
          "type": "address"
        }
      ],
      "name": "getPrice",
      "outputs": [
        {
          "internalType": "uint256",
          "name": "highest",
          "type": "uint256"
        },
        {
          "internalType": "uint256",
          "name": "lowest",
          "type": "uint256"
        }
      ],
      "stateMutability": "view",
      "type": "function"
    },
    {
      "inputs": [
        {
          "internalType": "uint256",
          "name": "",
          "type": "uint256"
        }
      ],
      "name": "integrations",
      "outputs": [
        {
          "internalType": "address",
          "name": "",
          "type": "address"
        }
      ],
      "stateMutability": "view",
      "type": "function"
    },
    {
      "inputs": [],
      "name": "manager",
      "outputs": [
        {
          "internalType": "address",
          "name": "",
          "type": "address"
        }
      ],
      "stateMutability": "view",
      "type": "function"
    },
    {
      "inputs": [
        {
          "internalType": "address[]",
          "name": "_integrations",
          "type": "address[]"
        }
      ],
      "name": "setIntegrations",
      "outputs": [],
      "stateMutability": "nonpayable",
      "type": "function"
    },
    {
      "inputs": [
        {
          "internalType": "address",
          "name": "_manager",
          "type": "address"
        }
      ],
      "name": "setManager",
      "outputs": [],
      "stateMutability": "nonpayable",
      "type": "function"
    }
  ],
  "bytecode": "0x608060405234801561001057600080fd5b50600080546001600160a01b03191633179055610e22806100326000396000f3fe608060405234801561001057600080fd5b50600436106100885760003560e01c8063aaf5eb681161005b578063aaf5eb6814610106578063ac41865a14610119578063d0ebdbe714610141578063e6c143621461015457600080fd5b8063104668611461008d5780631a102f67146100a2578063481c6a75146100c8578063790bde32146100f3575b600080fd5b6100a061009b366004610af5565b610167565b005b6100b56100b0366004610ac2565b6101e7565b6040519081526020015b60405180910390f35b6000546100db906001600160a01b031681565b6040516001600160a01b0390911681526020016100bf565b6100db610101366004610bc1565b6104b7565b6100b568327cb2734119d3b7a9601e1b81565b61012c610127366004610ac2565b6104e1565b604080519283526020830191909152016100bf565b6100a061014f366004610aa0565b6107e5565b6100b5610162366004610ac2565b610860565b6000546001600160a01b031633146101995760405163a59d7f4d60e01b81523360048201526024015b60405180910390fd5b80516101ac906001906020840190610a0a565b507fe8da2c09baa9c936046abefef4abff853a37f76be3ce70b45b3aaee2409ffae1816040516101dc9190610c16565b60405180910390a150565b6000816001600160a01b0316836001600160a01b03161415610216575068327cb2734119d3b7a9601e1b6104b1565b60015460005b818110156103855760006001828154811061023957610239610dc0565b6000918252602082200154604051635620c32d60e11b81526001600160a01b03898116600483015288811660248301529091169250829063ac41865a9060440160206040518083038186803b15801561029157600080fd5b505afa1580156102a5573d6000803e3d6000fd5b505050506040513d601f19601f820116820180604052508101906102c99190610bda565b90506000826001600160a01b031663aaf5eb686040518163ffffffff1660e01b815260040160206040518083038186803b15801561030657600080fd5b505afa15801561031a573d6000803e3d6000fd5b505050506040513d601f19601f8201168201806040525081019061033e9190610bda565b90508061035768327cb2734119d3b7a9601e1b84610d70565b6103619190610c63565b91508582111561036f578195505b505050808061037d90610d8f565b91505061021c565b506000846001600160a01b031663313ce5676040518163ffffffff1660e01b815260040160206040518083038186803b1580156103c157600080fd5b505afa1580156103d5573d6000803e3d6000fd5b505050506040513d601f19601f820116820180604052508101906103f99190610bf3565b60ff1690506000846001600160a01b031663313ce5676040518163ffffffff1660e01b815260040160206040518083038186803b15801561043957600080fd5b505afa15801561044d573d6000803e3d6000fd5b505050506040513d601f19601f820116820180604052508101906104719190610bf3565b60ff169050600061048383600a610cc8565b9050600061049283600a610cc8565b90508161049f8288610d70565b6104a99190610c63565b955050505050505b92915050565b600181815481106104c757600080fd5b6000918252602090912001546001600160a01b0316905081565b600080826001600160a01b0316846001600160a01b03161415610514575068327cb2734119d3b7a9601e1b9050806107de565b60015460005b8181101561069b5760006001828154811061053757610537610dc0565b6000918252602082200154604051635620c32d60e11b81526001600160a01b038a8116600483015289811660248301529091169250829063ac41865a9060440160206040518083038186803b15801561058f57600080fd5b505afa1580156105a3573d6000803e3d6000fd5b505050506040513d601f19601f820116820180604052508101906105c79190610bda565b90506000826001600160a01b031663aaf5eb686040518163ffffffff1660e01b815260040160206040518083038186803b15801561060457600080fd5b505afa158015610618573d6000803e3d6000fd5b505050506040513d601f19601f8201168201806040525081019061063c9190610bda565b90508061065568327cb2734119d3b7a9601e1b84610d70565b61065f9190610c63565b91508682111561066d578196505b60008211801561067c57508582105b15610685578195505b505050808061069390610d8f565b91505061051a565b506000856001600160a01b031663313ce5676040518163ffffffff1660e01b815260040160206040518083038186803b1580156106d757600080fd5b505afa1580156106eb573d6000803e3d6000fd5b505050506040513d601f19601f8201168201806040525081019061070f9190610bf3565b60ff1690506000856001600160a01b031663313ce5676040518163ffffffff1660e01b815260040160206040518083038186803b15801561074f57600080fd5b505afa158015610763573d6000803e3d6000fd5b505050506040513d601f19601f820116820180604052508101906107879190610bf3565b60ff169050600061079983600a610cc8565b905060006107a883600a610cc8565b9050816107b58289610d70565b6107bf9190610c63565b9650816107cc8288610d70565b6107d69190610c63565b955050505050505b9250929050565b6000546001600160a01b031633146108125760405163a59d7f4d60e01b8152336004820152602401610190565b600080546001600160a01b0319166001600160a01b0383169081179091556040519081527f54a6385aa0292b04e1ef8513253c17d1863f7cdfc87029d77fd55cc4c2e717e2906020016101dc565b6000816001600160a01b0316836001600160a01b0316141561088f575068327cb2734119d3b7a9601e1b6104b1565b60015460005b81811015610385576000600182815481106108b2576108b2610dc0565b6000918252602082200154604051635620c32d60e11b81526001600160a01b03898116600483015288811660248301529091169250829063ac41865a9060440160206040518083038186803b15801561090a57600080fd5b505afa15801561091e573d6000803e3d6000fd5b505050506040513d601f19601f820116820180604052508101906109429190610bda565b90506000826001600160a01b031663aaf5eb686040518163ffffffff1660e01b815260040160206040518083038186803b15801561097f57600080fd5b505afa158015610993573d6000803e3d6000fd5b505050506040513d601f19601f820116820180604052508101906109b79190610bda565b9050806109d068327cb2734119d3b7a9601e1b84610d70565b6109da9190610c63565b91506000821180156109eb57508582105b156109f4578195505b5050508080610a0290610d8f565b915050610895565b828054828255906000526020600020908101928215610a5f579160200282015b82811115610a5f57825182546001600160a01b0319166001600160a01b03909116178255602090920191600190910190610a2a565b50610a6b929150610a6f565b5090565b5b80821115610a6b5760008155600101610a70565b80356001600160a01b0381168114610a9b57600080fd5b919050565b600060208284031215610ab257600080fd5b610abb82610a84565b9392505050565b60008060408385031215610ad557600080fd5b610ade83610a84565b9150610aec60208401610a84565b90509250929050565b60006020808385031215610b0857600080fd5b823567ffffffffffffffff80821115610b2057600080fd5b818501915085601f830112610b3457600080fd5b813581811115610b4657610b46610dd6565b8060051b604051601f19603f83011681018181108582111715610b6b57610b6b610dd6565b604052828152858101935084860182860187018a1015610b8a57600080fd5b600095505b83861015610bb457610ba081610a84565b855260019590950194938601938601610b8f565b5098975050505050505050565b600060208284031215610bd357600080fd5b5035919050565b600060208284031215610bec57600080fd5b5051919050565b600060208284031215610c0557600080fd5b815160ff81168114610abb57600080fd5b6020808252825182820181905260009190848201906040850190845b81811015610c575783516001600160a01b031683529284019291840191600101610c32565b50909695505050505050565b600082610c8057634e487b7160e01b600052601260045260246000fd5b500490565b600181815b80851115610cc0578160001904821115610ca657610ca6610daa565b80851615610cb357918102915b93841c9390800290610c8a565b509250929050565b6000610abb8383600082610cde575060016104b1565b81610ceb575060006104b1565b8160018114610d015760028114610d0b57610d27565b60019150506104b1565b60ff841115610d1c57610d1c610daa565b50506001821b6104b1565b5060208310610133831016604e8410600b8410161715610d4a575081810a6104b1565b610d548383610c85565b8060001904821115610d6857610d68610daa565b029392505050565b6000816000190483118215151615610d8a57610d8a610daa565b500290565b6000600019821415610da357610da3610daa565b5060010190565b634e487b7160e01b600052601160045260246000fd5b634e487b7160e01b600052603260045260246000fd5b634e487b7160e01b600052604160045260246000fdfea2646970667358221220812300f0a1624841962594f34fd7c784d00e1d5bceacceb158dbe864d744d2b864736f6c63430008070033",
  "linkReferences": {},
  "deployedLinkReferences": {}
}