{
  "_format": "hh-sol-artifact-1",
  "contractName": "SyncswapStableDEXIntegration",
  "sourceName": "contracts/integrations/SyncswapStableDEXIntegration.sol",
  "abi": [
    {
      "inputs": [
        {
          "internalType": "address",
          "name": "_factory",
          "type": "address"
        }
      ],
      "stateMutability": "nonpayable",
      "type": "constructor"
    },
    {
      "inputs": [],
      "name": "Locked",
      "type": "error"
    },
    {
      "inputs": [],
      "name": "factory",
      "outputs": [
        {
          "internalType": "address",
          "name": "",
          "type": "address"
        }
      ],
      "stateMutability": "view",
      "type": "function"
    },
    {
      "inputs": [
        {
          "internalType": "address",
          "name": "_tokenIn",
          "type": "address"
        },
        {
          "internalType": "address",
          "name": "_tokenOut",
          "type": "address"
        },
        {
          "internalType": "uint256",
          "name": "_amountOut",
          "type": "uint256"
        }
      ],
      "name": "getAmountIn",
      "outputs": [
        {
          "internalType": "uint256",
          "name": "amountIn",
          "type": "uint256"
        }
      ],
      "stateMutability": "view",
      "type": "function"
    },
    {
      "inputs": [
        {
          "internalType": "address",
          "name": "_tokenIn",
          "type": "address"
        },
        {
          "internalType": "address",
          "name": "_tokenOut",
          "type": "address"
        },
        {
          "internalType": "uint256",
          "name": "_amountIn",
          "type": "uint256"
        }
      ],
      "name": "getAmountOut",
      "outputs": [
        {
          "internalType": "uint256",
          "name": "amountOut",
          "type": "uint256"
        }
      ],
      "stateMutability": "view",
      "type": "function"
    },
    {
      "inputs": [
        {
          "internalType": "address",
          "name": "_tokenIn",
          "type": "address"
        },
        {
          "internalType": "address",
          "name": "_tokenOut",
          "type": "address"
        },
        {
          "internalType": "address",
          "name": "_to",
          "type": "address"
        }
      ],
      "name": "swap",
      "outputs": [
        {
          "internalType": "uint256",
          "name": "amountOut",
          "type": "uint256"
        }
      ],
      "stateMutability": "nonpayable",
      "type": "function"
    },
    {
      "inputs": [
        {
          "internalType": "address",
          "name": "_tokenIn",
          "type": "address"
        },
        {
          "internalType": "address",
          "name": "_tokenOut",
          "type": "address"
        }
      ],
      "name": "validatePair",
      "outputs": [
        {
          "internalType": "bool",
          "name": "",
          "type": "bool"
        }
      ],
      "stateMutability": "view",
      "type": "function"
    }
  ],
  "bytecode": "0x60a0604052600160005534801561001557600080fd5b50604051610b2a380380610b2a83398101604081905261003491610049565b60601b6001600160601b031916608052610079565b60006020828403121561005b57600080fd5b81516001600160a01b038116811461007257600080fd5b9392505050565b60805160601c610a8d61009d6000396000818160d001526106320152610a8d6000f3fe608060405234801561001057600080fd5b50600436106100575760003560e01c80634aa066521461005c57806353b609b5146100825780639331621214610095578063b88c5f91146100a8578063c45a0155146100cb575b600080fd5b61006f61006a366004610887565b61010a565b6040519081526020015b60405180910390f35b61006f610090366004610887565b61011f565b61006f6100a336600461083c565b61012c565b6100bb6100b6366004610803565b6104a5565b6040519015158152602001610079565b6100f27f000000000000000000000000000000000000000000000000000000000000000081565b6040516001600160a01b039091168152602001610079565b60006101178484846104fc565b949350505050565b60006101178484846105af565b60008054600114610150576040516303cb96db60e21b815260040160405180910390fd5b60008080556040516370a0823160e01b81523060048201526001600160a01b038616906370a082319060240160206040518083038186803b15801561019457600080fd5b505afa1580156101a8573d6000803e3d6000fd5b505050506040513d601f19601f820116820180604052508101906101cc9190610950565b90506101d98585836104fc565b91506000821161024e5760405162461bcd60e51b815260206004820152603560248201527f53796e6373776170537461626c65496e746567726174696f6e3a20494e535546604482015274119250d251539517d3d55514155517d05353d55395605a1b60648201526084015b60405180910390fd5b600061025a8686610608565b90506001600160a01b0381166102c25760405162461bcd60e51b815260206004820152602760248201527f53796e6373776170537461626c65496e746567726174696f6e3a20494e56414c60448201526624a22fa820a4a960c91b6064820152608401610245565b6102cd8682846106b5565b6040516370a0823160e01b81526001600160a01b038581166004830152600091908716906370a082319060240160206040518083038186803b15801561031257600080fd5b505afa158015610326573d6000803e3d6000fd5b505050506040513d601f19601f8201168201806040525081019061034a9190610950565b604080516001600160a01b03808b1660208301528816918101919091526002606082015290915060009060800160408051601f1981840301815290829052637132bb7f60e01b825291506001600160a01b03841690637132bb7f906103b89084903390600090600401610985565b6040805180830381600087803b1580156103d157600080fd5b505af11580156103e5573d6000803e3d6000fd5b505050506040513d601f19601f8201168201806040525081019061040991906108ea565b506040516370a0823160e01b81526001600160a01b038781166004830152600091908916906370a082319060240160206040518083038186803b15801561044f57600080fd5b505afa158015610463573d6000803e3d6000fd5b505050506040513d601f19601f820116820180604052508101906104879190610950565b905061049383826109ea565b60016000559998505050505050505050565b6000816001600160a01b0316836001600160a01b031614156104c9575060006104f6565b60006104d58484610608565b90506001600160a01b038116156104f05760019150506104f6565b60009150505b92915050565b6000806105098585610608565b90506001600160a01b038116156105a75760405160016231ba9d60e11b031981526001600160a01b0386811660048301526024820185905230604483015282169063ff9c8ac6906064015b60206040518083038186803b15801561056c57600080fd5b505afa158015610580573d6000803e3d6000fd5b505050506040513d601f19601f820116820180604052508101906105a49190610950565b91505b509392505050565b6000806105bc8585610608565b90506001600160a01b038116156105a75760405163a287c79560e01b81526001600160a01b0385811660048301526024820185905230604483015282169063a287c79590606401610554565b60405163298d501f60e11b81526001600160a01b03838116600483015282811660248301526000917f00000000000000000000000000000000000000000000000000000000000000009091169063531aa03e9060440160206040518083038186803b15801561067657600080fd5b505afa15801561068a573d6000803e3d6000fd5b505050506040513d601f19601f820116820180604052508101906106ae91906107e6565b9392505050565b604080516001600160a01b038481166024830152604480830185905283518084039091018152606490920183526020820180516001600160e01b031663a9059cbb60e01b17905291516000928392908716916107119190610969565b6000604051808303816000865af19150503d806000811461074e576040519150601f19603f3d011682016040523d82523d6000602084013e610753565b606091505b509150915081801561077d57508051158061077d57508080602001905181019061077d91906108c8565b6107df5760405162461bcd60e51b815260206004820152602d60248201527f5472616e7366657248656c7065723a3a736166655472616e736665723a20747260448201526c185b9cd9995c8819985a5b1959609a1b6064820152608401610245565b5050505050565b6000602082840312156107f857600080fd5b81516106ae81610a3f565b6000806040838503121561081657600080fd5b823561082181610a3f565b9150602083013561083181610a3f565b809150509250929050565b60008060006060848603121561085157600080fd5b833561085c81610a3f565b9250602084013561086c81610a3f565b9150604084013561087c81610a3f565b809150509250925092565b60008060006060848603121561089c57600080fd5b83356108a781610a3f565b925060208401356108b781610a3f565b929592945050506040919091013590565b6000602082840312156108da57600080fd5b815180151581146106ae57600080fd5b6000604082840312156108fc57600080fd5b6040516040810181811067ffffffffffffffff8211171561092d57634e487b7160e01b600052604160045260246000fd5b604052825161093b81610a3f565b81526020928301519281019290925250919050565b60006020828403121561096257600080fd5b5051919050565b6000825161097b818460208701610a0f565b9190910192915050565b60808152600084518060808401526109a48160a0850160208901610a0f565b6001600160a01b03948516602084015292909316604082015260a0601f909201601f19168101818103830160609092019190915260009181019190915260c00192915050565b600082821015610a0a57634e487b7160e01b600052601160045260246000fd5b500390565b60005b83811015610a2a578181015183820152602001610a12565b83811115610a39576000848401525b50505050565b6001600160a01b0381168114610a5457600080fd5b5056fea2646970667358221220c5e8b0a4dff03adea2eff3eca470317f78fde38adaec7824d19b54faf319dcff64736f6c63430008070033",
  "linkReferences": {},
  "deployedLinkReferences": {}
}