{
  "_format": "hh-sol-artifact-1",
  "contractName": "MuteDEXIntegration",
  "sourceName": "contracts/integrations/MuteDEXIntegration.sol",
  "abi": [
    {
      "inputs": [
        {
          "internalType": "address",
          "name": "_router",
          "type": "address"
        }
      ],
      "stateMutability": "nonpayable",
      "type": "constructor"
    },
    {
      "inputs": [],
      "name": "Locked",
      "type": "error"
    },
    {
      "inputs": [
        {
          "internalType": "address",
          "name": "_tokenIn",
          "type": "address"
        },
        {
          "internalType": "address",
          "name": "_tokenOut",
          "type": "address"
        },
        {
          "internalType": "uint256",
          "name": "_amountOut",
          "type": "uint256"
        }
      ],
      "name": "getAmountIn",
      "outputs": [
        {
          "internalType": "uint256",
          "name": "amountIn",
          "type": "uint256"
        }
      ],
      "stateMutability": "view",
      "type": "function"
    },
    {
      "inputs": [
        {
          "internalType": "address",
          "name": "_tokenIn",
          "type": "address"
        },
        {
          "internalType": "address",
          "name": "_tokenOut",
          "type": "address"
        },
        {
          "internalType": "uint256",
          "name": "_amountIn",
          "type": "uint256"
        }
      ],
      "name": "getAmountOut",
      "outputs": [
        {
          "internalType": "uint256",
          "name": "amountOut",
          "type": "uint256"
        }
      ],
      "stateMutability": "view",
      "type": "function"
    },
    {
      "inputs": [],
      "name": "router",
      "outputs": [
        {
          "internalType": "address",
          "name": "",
          "type": "address"
        }
      ],
      "stateMutability": "view",
      "type": "function"
    },
    {
      "inputs": [
        {
          "internalType": "address",
          "name": "_tokenIn",
          "type": "address"
        },
        {
          "internalType": "address",
          "name": "_tokenOut",
          "type": "address"
        },
        {
          "internalType": "address",
          "name": "_to",
          "type": "address"
        }
      ],
      "name": "swap",
      "outputs": [
        {
          "internalType": "uint256",
          "name": "amountOut",
          "type": "uint256"
        }
      ],
      "stateMutability": "nonpayable",
      "type": "function"
    },
    {
      "inputs": [
        {
          "internalType": "address",
          "name": "_tokenIn",
          "type": "address"
        },
        {
          "internalType": "address",
          "name": "_tokenOut",
          "type": "address"
        }
      ],
      "name": "validatePair",
      "outputs": [
        {
          "internalType": "bool",
          "name": "",
          "type": "bool"
        }
      ],
      "stateMutability": "view",
      "type": "function"
    }
  ],
  "bytecode": "0x60a0604052600160005534801561001557600080fd5b50604051610d35380380610d3583398101604081905261003491610049565b60601b6001600160601b031916608052610079565b60006020828403121561005b57600080fd5b81516001600160a01b038116811461007257600080fd5b9392505050565b60805160601c610c8a6100ab6000396000818160d40152818161025b01528181610599015261071e0152610c8a6000f3fe608060405234801561001057600080fd5b50600436106100575760003560e01c80634aa066521461005c57806353b609b5146100825780639331621214610099578063b88c5f91146100ac578063f887ea40146100cf575b600080fd5b61006f61006a366004610991565b61010e565b6040519081526020015b60405180910390f35b61006f610090366004610991565b60009392505050565b61006f6100a7366004610946565b610124565b6100bf6100ba36600461090d565b610568565b6040519015158152602001610079565b6100f67f000000000000000000000000000000000000000000000000000000000000000081565b6040516001600160a01b039091168152602001610079565b600061011b8484846106eb565b50949350505050565b60008054600114610148576040516303cb96db60e21b815260040160405180910390fd5b60008080556040516370a0823160e01b81523060048201526001600160a01b038616906370a082319060240160206040518083038186803b15801561018c57600080fd5b505afa1580156101a0573d6000803e3d6000fd5b505050506040513d601f19601f820116820180604052508101906101c49190610ab2565b905060006101d38686846106eb565b90935090508261023e5760405162461bcd60e51b815260206004820152602b60248201527f4d757465496e746567726174696f6e3a20494e53554646494349454e545f4f5560448201526a1514155517d05353d5539560aa1b60648201526084015b60405180910390fd5b604051636eb1769f60e11b81523060048201526001600160a01b037f00000000000000000000000000000000000000000000000000000000000000008181166024840152919088169063dd62ed3e9060440160206040518083038186803b1580156102a857600080fd5b505afa1580156102bc573d6000803e3d6000fd5b505050506040513d601f19601f820116820180604052508101906102e09190610ab2565b6102f1576102f187826000196107a5565b6040516370a0823160e01b81526001600160a01b038681166004830152600091908816906370a082319060240160206040518083038186803b15801561033657600080fd5b505afa15801561034a573d6000803e3d6000fd5b505050506040513d601f19601f8201168201806040525081019061036e9190610ab2565b604080516002808252606082018352929350600092909160208301908036833701905050905088816000815181106103a8576103a8610c10565b60200260200101906001600160a01b031690816001600160a01b03168152505087816001815181106103dc576103dc610c10565b6001600160a01b039290921660209283029190910190910152604080516001808252818301909252600091816020016020820280368337019050509050848160008151811061042d5761042d610c10565b9115156020928302919091019091015260405163c694d55d60e01b81526001600160a01b0385169063c694d55d9061047490899060009087908e9042908990600401610b3b565b600060405180830381600087803b15801561048e57600080fd5b505af11580156104a2573d6000803e3d6000fd5b505050506040513d6000823e601f3d908101601f191682016040526104ca91908101906109d2565b506040516370a0823160e01b81526001600160a01b038981166004830152600091908b16906370a082319060240160206040518083038186803b15801561051057600080fd5b505afa158015610524573d6000803e3d6000fd5b505050506040513d601f19601f820116820180604052508101906105489190610ab2565b90506105548482610beb565b60016000559b9a5050505050505050505050565b60405163260f701f60e11b81526001600160a01b0383811660048301528281166024830152600060448301819052917f000000000000000000000000000000000000000000000000000000000000000091839190831690634c1ee03e9060640160206040518083038186803b1580156105e057600080fd5b505afa1580156105f4573d6000803e3d6000fd5b505050506040513d601f19601f8201168201806040525081019061061891906108e9565b90506001600160a01b03811615610634576001925050506106e5565b60405163260f701f60e11b81526001600160a01b03868116600483015285811660248301526001604483015260009190841690634c1ee03e9060640160206040518083038186803b15801561068857600080fd5b505afa15801561069c573d6000803e3d6000fd5b505050506040513d601f19601f820116820180604052508101906106c091906108e9565b90506001600160a01b038116156106dd57600193505050506106e5565b600093505050505b92915050565b604051635e1e632560e01b8152600481018290526001600160a01b038481166024830152838116604483015260009182917f00000000000000000000000000000000000000000000000000000000000000001690635e1e63259060640160606040518083038186803b15801561076057600080fd5b505afa158015610774573d6000803e3d6000fd5b505050506040513d601f19601f820116820180604052508101906107989190610acb565b5090969095509350505050565b604080516001600160a01b038481166024830152604480830185905283518084039091018152606490920183526020820180516001600160e01b031663095ea7b360e01b17905291516000928392908716916108019190610b00565b6000604051808303816000865af19150503d806000811461083e576040519150601f19603f3d011682016040523d82523d6000602084013e610843565b606091505b509150915081801561086d57508051158061086d57508080602001905181019061086d9190610a97565b6108cd5760405162461bcd60e51b815260206004820152602b60248201527f5472616e7366657248656c7065723a3a73616665417070726f76653a2061707060448201526a1c9bdd994819985a5b195960aa1b6064820152608401610235565b5050505050565b805180151581146108e457600080fd5b919050565b6000602082840312156108fb57600080fd5b815161090681610c3c565b9392505050565b6000806040838503121561092057600080fd5b823561092b81610c3c565b9150602083013561093b81610c3c565b809150509250929050565b60008060006060848603121561095b57600080fd5b833561096681610c3c565b9250602084013561097681610c3c565b9150604084013561098681610c3c565b809150509250925092565b6000806000606084860312156109a657600080fd5b83356109b181610c3c565b925060208401356109c181610c3c565b929592945050506040919091013590565b600060208083850312156109e557600080fd5b825167ffffffffffffffff808211156109fd57600080fd5b818501915085601f830112610a1157600080fd5b815181811115610a2357610a23610c26565b8060051b604051601f19603f83011681018181108582111715610a4857610a48610c26565b604052828152858101935084860182860187018a1015610a6757600080fd5b600095505b83861015610a8a578051855260019590950194938601938601610a6c565b5098975050505050505050565b600060208284031215610aa957600080fd5b610906826108d4565b600060208284031215610ac457600080fd5b5051919050565b600080600060608486031215610ae057600080fd5b83519250610af0602085016108d4565b9150604084015190509250925092565b6000825160005b81811015610b215760208186018101518583015201610b07565b81811115610b30576000828501525b509190910192915050565b600060c082018883526020888185015260c0604085015281885180845260e086019150828a01935060005b81811015610b8b5784516001600160a01b031683529383019391830191600101610b66565b50506001600160a01b03881660608601526080850187905284810360a0860152855180825290820192508186019060005b81811015610bda578251151585529383019391830191600101610bbc565b50929b9a5050505050505050505050565b600082821015610c0b57634e487b7160e01b600052601160045260246000fd5b500390565b634e487b7160e01b600052603260045260246000fd5b634e487b7160e01b600052604160045260246000fd5b6001600160a01b0381168114610c5157600080fd5b5056fea264697066735822122028cee24ab66968ffbf779a091c958ba0b89ebb8214e6cc3b1d0fce4ca3fd708164736f6c63430008070033",
  "linkReferences": {},
  "deployedLinkReferences": {}
}