{
  "_format": "hh-sol-artifact-1",
  "contractName": "UniswapV3PriceFeedIntegration",
  "sourceName": "contracts/integrations/UniswapV3PriceFeedIntegration.sol",
  "abi": [
    {
      "inputs": [
        {
          "internalType": "address",
          "name": "_factory",
          "type": "address"
        }
      ],
      "stateMutability": "nonpayable",
      "type": "constructor"
    },
    {
      "inputs": [],
      "name": "PRECISION",
      "outputs": [
        {
          "internalType": "uint256",
          "name": "",
          "type": "uint256"
        }
      ],
      "stateMutability": "view",
      "type": "function"
    },
    {
      "inputs": [],
      "name": "factory",
      "outputs": [
        {
          "internalType": "address",
          "name": "",
          "type": "address"
        }
      ],
      "stateMutability": "view",
      "type": "function"
    },
    {
      "inputs": [
        {
          "internalType": "uint256",
          "name": "",
          "type": "uint256"
        }
      ],
      "name": "feeTiers",
      "outputs": [
        {
          "internalType": "uint24",
          "name": "",
          "type": "uint24"
        }
      ],
      "stateMutability": "view",
      "type": "function"
    },
    {
      "inputs": [
        {
          "internalType": "address",
          "name": "_baseToken",
          "type": "address"
        },
        {
          "internalType": "address",
          "name": "_quoteToken",
          "type": "address"
        }
      ],
      "name": "getPrice",
      "outputs": [
        {
          "internalType": "uint256",
          "name": "price",
          "type": "uint256"
        }
      ],
      "stateMutability": "view",
      "type": "function"
    }
  ],
  "bytecode": "0x610120604052606460a09081526101f460c052610bb860e0526127106101005261002d90600090600461006e565b5034801561003a57600080fd5b50604051610c7e380380610c7e8339810160408190526100599161012e565b60601b6001600160601b03191660805261015e565b82805482825590600052602060002090600901600a900481019282156101095791602002820160005b838211156100d857835183826101000a81548162ffffff021916908361ffff1602179055509260200192600301602081600201049283019260010302610097565b80156101075782816101000a81549062ffffff02191690556003016020816002010492830192600103026100d8565b505b50610115929150610119565b5090565b5b80821115610115576000815560010161011a565b60006020828403121561014057600080fd5b81516001600160a01b038116811461015757600080fd5b9392505050565b60805160601c610afc6101826000396000818160b701526101610152610afc6000f3fe608060405234801561001057600080fd5b506004361061004c5760003560e01c8063230ed44a14610051578063aaf5eb681461007d578063ac41865a1461009f578063c45a0155146100b2575b600080fd5b61006461005f3660046108af565b6100f1565b60405162ffffff90911681526020015b60405180910390f35b6100916c0c9f2c9cd04674edea4000000081565b604051908152602001610074565b6100916100ad3660046107db565b61012a565b6100d97f000000000000000000000000000000000000000000000000000000000000000081565b6040516001600160a01b039091168152602001610074565b6000818154811061010157600080fd5b90600052602060002090600a9182820401919006600302915054906101000a900462ffffff1681565b6000816001600160a01b0316836001600160a01b0316141561015a57506c0c9f2c9cd04674edea40000000610614565b60008054907f00000000000000000000000000000000000000000000000000000000000000009080806001600160a01b038088169089161061019d5786886101a0565b87875b9150915060005b85811015610498576000856001600160a01b0316631698ee828585600086815481106101d5576101d5610a98565b60009182526020909120600a8083049091015460405160e087901b6001600160e01b03191681526001600160a01b03958616600482015293909416602484015290066003026101000a90910462ffffff16604482015260640160206040518083038186803b15801561024657600080fd5b505afa15801561025a573d6000803e3d6000fd5b505050506040513d601f19601f8201168201806040525081019061027e91906107be565b90506001600160a01b03811615610485576040516370a0823160e01b81526001600160a01b03808316600483015282916000918716906370a082319060240160206040518083038186803b1580156102d557600080fd5b505afa1580156102e9573d6000803e3d6000fd5b505050506040513d601f19601f8201168201806040525081019061030d91906108c8565b6040516370a0823160e01b81526001600160a01b0385811660048301529192506000918716906370a082319060240160206040518083038186803b15801561035457600080fd5b505afa158015610368573d6000803e3d6000fd5b505050506040513d601f19601f8201168201806040525081019061038c91906108c8565b90506000836001600160a01b0316633850c7bd6040518163ffffffff1660e01b815260040160e06040518083038186803b1580156103c957600080fd5b505afa1580156103dd573d6000803e3d6000fd5b505050506040513d601f19601f820116820180604052508101906104019190610814565b5050505050509050600061043c6002836001600160a01b03166104249190610985565b6c0c9f2c9cd04674edea40000000600160c01b61061a565b90506000836c0c9f2c9cd04674edea400000006104598488610a31565b6104639190610914565b61046d91906108fc565b90508a81111561047e57809a50819d505b5050505050505b508061049081610a67565b9150506101a7565b5085158015906104ba5750816001600160a01b0316886001600160a01b031614155b156104e557856104d860026c0c9f2c9cd04674edea40000000610985565b6104e29190610914565b95505b6000886001600160a01b031663313ce5676040518163ffffffff1660e01b815260040160206040518083038186803b15801561052057600080fd5b505afa158015610534573d6000803e3d6000fd5b505050506040513d601f19601f8201168201806040525081019061055891906108e1565b60ff1690506000886001600160a01b031663313ce5676040518163ffffffff1660e01b815260040160206040518083038186803b15801561059857600080fd5b505afa1580156105ac573d6000803e3d6000fd5b505050506040513d601f19601f820116820180604052508101906105d091906108e1565b60ff16905060006105e283600a610979565b905060006105f183600a610979565b9050806105fe838c610a31565b6106089190610914565b99505050505050505050505b92915050565b600080806000198587098587029250828110838203039150508060001415610654576000841161064957600080fd5b50829004905061078f565b80841161066057600080fd5b6000848688098084039381119092039190506000610680861960016108fc565b86169586900495938490049360008190030460010190506106a18184610a31565b9093179260006106b2876003610a31565b60021890506106c18188610a31565b6106cc906002610a50565b6106d69082610a31565b90506106e28188610a31565b6106ed906002610a50565b6106f79082610a31565b90506107038188610a31565b61070e906002610a50565b6107189082610a31565b90506107248188610a31565b61072f906002610a50565b6107399082610a31565b90506107458188610a31565b610750906002610a50565b61075a9082610a31565b90506107668188610a31565b610771906002610a50565b61077b9082610a31565b90506107878186610a31565b955050505050505b9392505050565b805161ffff811681146107a857600080fd5b919050565b805160ff811681146107a857600080fd5b6000602082840312156107d057600080fd5b815161078f81610aae565b600080604083850312156107ee57600080fd5b82356107f981610aae565b9150602083013561080981610aae565b809150509250929050565b600080600080600080600060e0888a03121561082f57600080fd5b875161083a81610aae565b8097505060208801518060020b811461085257600080fd5b955061086060408901610796565b945061086e60608901610796565b935061087c60808901610796565b925061088a60a089016107ad565b915060c0880151801515811461089f57600080fd5b8091505092959891949750929550565b6000602082840312156108c157600080fd5b5035919050565b6000602082840312156108da57600080fd5b5051919050565b6000602082840312156108f357600080fd5b61078f826107ad565b6000821982111561090f5761090f610a82565b500190565b60008261093157634e487b7160e01b600052601260045260246000fd5b500490565b600181815b8085111561097157816000190482111561095757610957610a82565b8085161561096457918102915b93841c939080029061093b565b509250929050565b600061078f8383610990565b600061078f60ff8416835b60008261099f57506001610614565b816109ac57506000610614565b81600181146109c257600281146109cc576109e8565b6001915050610614565b60ff8411156109dd576109dd610a82565b50506001821b610614565b5060208310610133831016604e8410600b8410161715610a0b575081810a610614565b610a158383610936565b8060001904821115610a2957610a29610a82565b029392505050565b6000816000190483118215151615610a4b57610a4b610a82565b500290565b600082821015610a6257610a62610a82565b500390565b6000600019821415610a7b57610a7b610a82565b5060010190565b634e487b7160e01b600052601160045260246000fd5b634e487b7160e01b600052603260045260246000fd5b6001600160a01b0381168114610ac357600080fd5b5056fea264697066735822122027121c817fd017bb5c0cb5ab3ed92b7d452984a15d4e13660327db439a7d77e964736f6c63430008070033",
  "linkReferences": {},
  "deployedLinkReferences": {}
}