{
  "_format": "hh-sol-artifact-1",
  "contractName": "TradePositionReader",
  "sourceName": "contracts/TradePositionReader.sol",
  "abi": [
    {
      "inputs": [
        {
          "internalType": "address",
          "name": "_factory",
          "type": "address"
        },
        {
          "internalType": "address",
          "name": "_user",
          "type": "address"
        }
      ],
      "name": "allUserPositions",
      "outputs": [
        {
          "components": [
            {
              "components": [
                {
                  "internalType": "string",
                  "name": "ticker",
                  "type": "string"
                },
                {
                  "internalType": "address",
                  "name": "pool",
                  "type": "address"
                },
                {
                  "components": [
                    {
                      "internalType": "address",
                      "name": "token",
                      "type": "address"
                    },
                    {
                      "internalType": "string",
                      "name": "name",
                      "type": "string"
                    },
                    {
                      "internalType": "string",
                      "name": "symbol",
                      "type": "string"
                    },
                    {
                      "internalType": "uint256",
                      "name": "decimals",
                      "type": "uint256"
                    }
                  ],
                  "internalType": "struct Token",
                  "name": "baseToken",
                  "type": "tuple"
                },
                {
                  "components": [
                    {
                      "internalType": "address",
                      "name": "token",
                      "type": "address"
                    },
                    {
                      "internalType": "string",
                      "name": "name",
                      "type": "string"
                    },
                    {
                      "internalType": "string",
                      "name": "symbol",
                      "type": "string"
                    },
                    {
                      "internalType": "uint256",
                      "name": "decimals",
                      "type": "uint256"
                    }
                  ],
                  "internalType": "struct Token",
                  "name": "quoteToken",
                  "type": "tuple"
                },
                {
                  "internalType": "uint256",
                  "name": "baseTokenLT",
                  "type": "uint256"
                }
              ],
              "internalType": "struct Pair",
              "name": "pair",
              "type": "tuple"
            },
            {
              "components": [
                {
                  "internalType": "address",
                  "name": "token",
                  "type": "address"
                },
                {
                  "internalType": "string",
                  "name": "name",
                  "type": "string"
                },
                {
                  "internalType": "string",
                  "name": "symbol",
                  "type": "string"
                },
                {
                  "internalType": "uint256",
                  "name": "decimals",
                  "type": "uint256"
                }
              ],
              "internalType": "struct Token",
              "name": "collateral",
              "type": "tuple"
            },
            {
              "components": [
                {
                  "internalType": "bytes32",
                  "name": "positionKey",
                  "type": "bytes32"
                },
                {
                  "internalType": "address",
                  "name": "owner",
                  "type": "address"
                },
                {
                  "internalType": "address",
                  "name": "pool",
                  "type": "address"
                },
                {
                  "components": [
                    {
                      "internalType": "address",
                      "name": "id",
                      "type": "address"
                    },
                    {
                      "internalType": "uint256",
                      "name": "amount",
                      "type": "uint256"
                    },
                    {
                      "internalType": "uint256",
                      "name": "entryPrice",
                      "type": "uint256"
                    },
                    {
                      "internalType": "uint256",
                      "name": "liqPrice",
                      "type": "uint256"
                    },
                    {
                      "internalType": "uint256",
                      "name": "closePrice",
                      "type": "uint256"
                    }
                  ],
                  "internalType": "struct IPositionStorage.BaseToken",
                  "name": "baseToken",
                  "type": "tuple"
                },
                {
                  "components": [
                    {
                      "internalType": "address",
                      "name": "id",
                      "type": "address"
                    },
                    {
                      "internalType": "uint256",
                      "name": "amount",
                      "type": "uint256"
                    }
                  ],
                  "internalType": "struct IPositionStorage.QuoteToken",
                  "name": "quoteToken",
                  "type": "tuple"
                },
                {
                  "components": [
                    {
                      "internalType": "address",
                      "name": "id",
                      "type": "address"
                    },
                    {
                      "internalType": "uint256",
                      "name": "amount",
                      "type": "uint256"
                    },
                    {
                      "internalType": "uint256",
                      "name": "entryPrice",
                      "type": "uint256"
                    },
                    {
                      "internalType": "uint256",
                      "name": "liqPrice",
                      "type": "uint256"
                    },
                    {
                      "internalType": "uint256",
                      "name": "closePrice",
                      "type": "uint256"
                    }
                  ],
                  "internalType": "struct IPositionStorage.Collateral",
                  "name": "collateral",
                  "type": "tuple"
                },
                {
                  "internalType": "uint256",
                  "name": "deadline",
                  "type": "uint256"
                },
                {
                  "internalType": "uint256",
                  "name": "stoplossPrice",
                  "type": "uint256"
                },
                {
                  "internalType": "uint256",
                  "name": "fee",
                  "type": "uint256"
                },
                {
                  "internalType": "uint256",
                  "name": "protocolFee",
                  "type": "uint256"
                },
                {
                  "components": [
                    {
                      "internalType": "bool",
                      "name": "isClosed",
                      "type": "bool"
                    },
                    {
                      "internalType": "bool",
                      "name": "isExpired",
                      "type": "bool"
                    },
                    {
                      "internalType": "bool",
                      "name": "isStoploss",
                      "type": "bool"
                    },
                    {
                      "internalType": "bool",
                      "name": "isBaseLiquidated",
                      "type": "bool"
                    },
                    {
                      "internalType": "bool",
                      "name": "isCollateralLiquidated",
                      "type": "bool"
                    },
                    {
                      "internalType": "bool",
                      "name": "isRollbacked",
                      "type": "bool"
                    },
                    {
                      "internalType": "bool",
                      "name": "isClosedManuallyStep1",
                      "type": "bool"
                    },
                    {
                      "internalType": "bool",
                      "name": "isClosedManuallyStep2",
                      "type": "bool"
                    }
                  ],
                  "internalType": "struct IPositionStorage.Status",
                  "name": "status",
                  "type": "tuple"
                },
                {
                  "internalType": "address",
                  "name": "closer",
                  "type": "address"
                }
              ],
              "internalType": "struct IPositionStorage.TradePosition",
              "name": "detail",
              "type": "tuple"
            }
          ],
          "internalType": "struct TradePosition[]",
          "name": "",
          "type": "tuple[]"
        }
      ],
      "stateMutability": "view",
      "type": "function"
    },
    {
      "inputs": [
        {
          "internalType": "address",
          "name": "_pool",
          "type": "address"
        },
        {
          "internalType": "address",
          "name": "_baseToken",
          "type": "address"
        }
      ],
      "name": "pair",
      "outputs": [
        {
          "components": [
            {
              "internalType": "string",
              "name": "ticker",
              "type": "string"
            },
            {
              "internalType": "address",
              "name": "pool",
              "type": "address"
            },
            {
              "components": [
                {
                  "internalType": "address",
                  "name": "token",
                  "type": "address"
                },
                {
                  "internalType": "string",
                  "name": "name",
                  "type": "string"
                },
                {
                  "internalType": "string",
                  "name": "symbol",
                  "type": "string"
                },
                {
                  "internalType": "uint256",
                  "name": "decimals",
                  "type": "uint256"
                }
              ],
              "internalType": "struct Token",
              "name": "baseToken",
              "type": "tuple"
            },
            {
              "components": [
                {
                  "internalType": "address",
                  "name": "token",
                  "type": "address"
                },
                {
                  "internalType": "string",
                  "name": "name",
                  "type": "string"
                },
                {
                  "internalType": "string",
                  "name": "symbol",
                  "type": "string"
                },
                {
                  "internalType": "uint256",
                  "name": "decimals",
                  "type": "uint256"
                }
              ],
              "internalType": "struct Token",
              "name": "quoteToken",
              "type": "tuple"
            },
            {
              "internalType": "uint256",
              "name": "baseTokenLT",
              "type": "uint256"
            }
          ],
          "internalType": "struct Pair",
          "name": "",
          "type": "tuple"
        }
      ],
      "stateMutability": "view",
      "type": "function"
    },
    {
      "inputs": [
        {
          "internalType": "address",
          "name": "_factory",
          "type": "address"
        },
        {
          "internalType": "bytes32",
          "name": "_positionKey",
          "type": "bytes32"
        }
      ],
      "name": "positionDetail",
      "outputs": [
        {
          "components": [
            {
              "internalType": "bytes32",
              "name": "positionKey",
              "type": "bytes32"
            },
            {
              "internalType": "address",
              "name": "owner",
              "type": "address"
            },
            {
              "internalType": "address",
              "name": "pool",
              "type": "address"
            },
            {
              "components": [
                {
                  "internalType": "address",
                  "name": "id",
                  "type": "address"
                },
                {
                  "internalType": "uint256",
                  "name": "amount",
                  "type": "uint256"
                },
                {
                  "internalType": "uint256",
                  "name": "entryPrice",
                  "type": "uint256"
                },
                {
                  "internalType": "uint256",
                  "name": "liqPrice",
                  "type": "uint256"
                },
                {
                  "internalType": "uint256",
                  "name": "closePrice",
                  "type": "uint256"
                }
              ],
              "internalType": "struct IPositionStorage.BaseToken",
              "name": "baseToken",
              "type": "tuple"
            },
            {
              "components": [
                {
                  "internalType": "address",
                  "name": "id",
                  "type": "address"
                },
                {
                  "internalType": "uint256",
                  "name": "amount",
                  "type": "uint256"
                }
              ],
              "internalType": "struct IPositionStorage.QuoteToken",
              "name": "quoteToken",
              "type": "tuple"
            },
            {
              "components": [
                {
                  "internalType": "address",
                  "name": "id",
                  "type": "address"
                },
                {
                  "internalType": "uint256",
                  "name": "amount",
                  "type": "uint256"
                },
                {
                  "internalType": "uint256",
                  "name": "entryPrice",
                  "type": "uint256"
                },
                {
                  "internalType": "uint256",
                  "name": "liqPrice",
                  "type": "uint256"
                },
                {
                  "internalType": "uint256",
                  "name": "closePrice",
                  "type": "uint256"
                }
              ],
              "internalType": "struct IPositionStorage.Collateral",
              "name": "collateral",
              "type": "tuple"
            },
            {
              "internalType": "uint256",
              "name": "deadline",
              "type": "uint256"
            },
            {
              "internalType": "uint256",
              "name": "stoplossPrice",
              "type": "uint256"
            },
            {
              "internalType": "uint256",
              "name": "fee",
              "type": "uint256"
            },
            {
              "internalType": "uint256",
              "name": "protocolFee",
              "type": "uint256"
            },
            {
              "components": [
                {
                  "internalType": "bool",
                  "name": "isClosed",
                  "type": "bool"
                },
                {
                  "internalType": "bool",
                  "name": "isExpired",
                  "type": "bool"
                },
                {
                  "internalType": "bool",
                  "name": "isStoploss",
                  "type": "bool"
                },
                {
                  "internalType": "bool",
                  "name": "isBaseLiquidated",
                  "type": "bool"
                },
                {
                  "internalType": "bool",
                  "name": "isCollateralLiquidated",
                  "type": "bool"
                },
                {
                  "internalType": "bool",
                  "name": "isRollbacked",
                  "type": "bool"
                },
                {
                  "internalType": "bool",
                  "name": "isClosedManuallyStep1",
                  "type": "bool"
                },
                {
                  "internalType": "bool",
                  "name": "isClosedManuallyStep2",
                  "type": "bool"
                }
              ],
              "internalType": "struct IPositionStorage.Status",
              "name": "status",
              "type": "tuple"
            },
            {
              "internalType": "address",
              "name": "closer",
              "type": "address"
            }
          ],
          "internalType": "struct IPositionStorage.TradePosition",
          "name": "",
          "type": "tuple"
        }
      ],
      "stateMutability": "view",
      "type": "function"
    },
    {
      "inputs": [
        {
          "internalType": "address",
          "name": "_positionStorage",
          "type": "address"
        },
        {
          "internalType": "bytes32",
          "name": "_positionKey",
          "type": "bytes32"
        }
      ],
      "name": "positionDetailByStorage",
      "outputs": [
        {
          "components": [
            {
              "internalType": "bytes32",
              "name": "positionKey",
              "type": "bytes32"
            },
            {
              "internalType": "address",
              "name": "owner",
              "type": "address"
            },
            {
              "internalType": "address",
              "name": "pool",
              "type": "address"
            },
            {
              "components": [
                {
                  "internalType": "address",
                  "name": "id",
                  "type": "address"
                },
                {
                  "internalType": "uint256",
                  "name": "amount",
                  "type": "uint256"
                },
                {
                  "internalType": "uint256",
                  "name": "entryPrice",
                  "type": "uint256"
                },
                {
                  "internalType": "uint256",
                  "name": "liqPrice",
                  "type": "uint256"
                },
                {
                  "internalType": "uint256",
                  "name": "closePrice",
                  "type": "uint256"
                }
              ],
              "internalType": "struct IPositionStorage.BaseToken",
              "name": "baseToken",
              "type": "tuple"
            },
            {
              "components": [
                {
                  "internalType": "address",
                  "name": "id",
                  "type": "address"
                },
                {
                  "internalType": "uint256",
                  "name": "amount",
                  "type": "uint256"
                }
              ],
              "internalType": "struct IPositionStorage.QuoteToken",
              "name": "quoteToken",
              "type": "tuple"
            },
            {
              "components": [
                {
                  "internalType": "address",
                  "name": "id",
                  "type": "address"
                },
                {
                  "internalType": "uint256",
                  "name": "amount",
                  "type": "uint256"
                },
                {
                  "internalType": "uint256",
                  "name": "entryPrice",
                  "type": "uint256"
                },
                {
                  "internalType": "uint256",
                  "name": "liqPrice",
                  "type": "uint256"
                },
                {
                  "internalType": "uint256",
                  "name": "closePrice",
                  "type": "uint256"
                }
              ],
              "internalType": "struct IPositionStorage.Collateral",
              "name": "collateral",
              "type": "tuple"
            },
            {
              "internalType": "uint256",
              "name": "deadline",
              "type": "uint256"
            },
            {
              "internalType": "uint256",
              "name": "stoplossPrice",
              "type": "uint256"
            },
            {
              "internalType": "uint256",
              "name": "fee",
              "type": "uint256"
            },
            {
              "internalType": "uint256",
              "name": "protocolFee",
              "type": "uint256"
            },
            {
              "components": [
                {
                  "internalType": "bool",
                  "name": "isClosed",
                  "type": "bool"
                },
                {
                  "internalType": "bool",
                  "name": "isExpired",
                  "type": "bool"
                },
                {
                  "internalType": "bool",
                  "name": "isStoploss",
                  "type": "bool"
                },
                {
                  "internalType": "bool",
                  "name": "isBaseLiquidated",
                  "type": "bool"
                },
                {
                  "internalType": "bool",
                  "name": "isCollateralLiquidated",
                  "type": "bool"
                },
                {
                  "internalType": "bool",
                  "name": "isRollbacked",
                  "type": "bool"
                },
                {
                  "internalType": "bool",
                  "name": "isClosedManuallyStep1",
                  "type": "bool"
                },
                {
                  "internalType": "bool",
                  "name": "isClosedManuallyStep2",
                  "type": "bool"
                }
              ],
              "internalType": "struct IPositionStorage.Status",
              "name": "status",
              "type": "tuple"
            },
            {
              "internalType": "address",
              "name": "closer",
              "type": "address"
            }
          ],
          "internalType": "struct IPositionStorage.TradePosition",
          "name": "",
          "type": "tuple"
        }
      ],
      "stateMutability": "view",
      "type": "function"
    },
    {
      "inputs": [
        {
          "internalType": "address",
          "name": "_pool",
          "type": "address"
        },
        {
          "components": [
            {
              "internalType": "address",
              "name": "owner",
              "type": "address"
            },
            {
              "internalType": "address",
              "name": "baseToken",
              "type": "address"
            },
            {
              "internalType": "address",
              "name": "quoteToken",
              "type": "address"
            },
            {
              "internalType": "address",
              "name": "collateral",
              "type": "address"
            },
            {
              "internalType": "uint256",
              "name": "baseAmount",
              "type": "uint256"
            },
            {
              "internalType": "uint256",
              "name": "quoteAmount",
              "type": "uint256"
            },
            {
              "internalType": "uint256",
              "name": "collateralAmount",
              "type": "uint256"
            },
            {
              "internalType": "uint256",
              "name": "deadline",
              "type": "uint256"
            },
            {
              "internalType": "uint256",
              "name": "stoplossPrice",
              "type": "uint256"
            }
          ],
          "internalType": "struct IPositionStorage.OpenTradePositionParams",
          "name": "_params",
          "type": "tuple"
        }
      ],
      "name": "previewPosition",
      "outputs": [
        {
          "components": [
            {
              "internalType": "bytes32",
              "name": "positionKey",
              "type": "bytes32"
            },
            {
              "internalType": "address",
              "name": "owner",
              "type": "address"
            },
            {
              "internalType": "address",
              "name": "pool",
              "type": "address"
            },
            {
              "components": [
                {
                  "internalType": "address",
                  "name": "id",
                  "type": "address"
                },
                {
                  "internalType": "uint256",
                  "name": "amount",
                  "type": "uint256"
                },
                {
                  "internalType": "uint256",
                  "name": "entryPrice",
                  "type": "uint256"
                },
                {
                  "internalType": "uint256",
                  "name": "liqPrice",
                  "type": "uint256"
                },
                {
                  "internalType": "uint256",
                  "name": "closePrice",
                  "type": "uint256"
                }
              ],
              "internalType": "struct IPositionStorage.BaseToken",
              "name": "baseToken",
              "type": "tuple"
            },
            {
              "components": [
                {
                  "internalType": "address",
                  "name": "id",
                  "type": "address"
                },
                {
                  "internalType": "uint256",
                  "name": "amount",
                  "type": "uint256"
                }
              ],
              "internalType": "struct IPositionStorage.QuoteToken",
              "name": "quoteToken",
              "type": "tuple"
            },
            {
              "components": [
                {
                  "internalType": "address",
                  "name": "id",
                  "type": "address"
                },
                {
                  "internalType": "uint256",
                  "name": "amount",
                  "type": "uint256"
                },
                {
                  "internalType": "uint256",
                  "name": "entryPrice",
                  "type": "uint256"
                },
                {
                  "internalType": "uint256",
                  "name": "liqPrice",
                  "type": "uint256"
                },
                {
                  "internalType": "uint256",
                  "name": "closePrice",
                  "type": "uint256"
                }
              ],
              "internalType": "struct IPositionStorage.Collateral",
              "name": "collateral",
              "type": "tuple"
            },
            {
              "internalType": "uint256",
              "name": "deadline",
              "type": "uint256"
            },
            {
              "internalType": "uint256",
              "name": "stoplossPrice",
              "type": "uint256"
            },
            {
              "internalType": "uint256",
              "name": "fee",
              "type": "uint256"
            },
            {
              "internalType": "uint256",
              "name": "protocolFee",
              "type": "uint256"
            },
            {
              "components": [
                {
                  "internalType": "bool",
                  "name": "isClosed",
                  "type": "bool"
                },
                {
                  "internalType": "bool",
                  "name": "isExpired",
                  "type": "bool"
                },
                {
                  "internalType": "bool",
                  "name": "isStoploss",
                  "type": "bool"
                },
                {
                  "internalType": "bool",
                  "name": "isBaseLiquidated",
                  "type": "bool"
                },
                {
                  "internalType": "bool",
                  "name": "isCollateralLiquidated",
                  "type": "bool"
                },
                {
                  "internalType": "bool",
                  "name": "isRollbacked",
                  "type": "bool"
                },
                {
                  "internalType": "bool",
                  "name": "isClosedManuallyStep1",
                  "type": "bool"
                },
                {
                  "internalType": "bool",
                  "name": "isClosedManuallyStep2",
                  "type": "bool"
                }
              ],
              "internalType": "struct IPositionStorage.Status",
              "name": "status",
              "type": "tuple"
            },
            {
              "internalType": "address",
              "name": "closer",
              "type": "address"
            }
          ],
          "internalType": "struct IPositionStorage.TradePosition",
          "name": "",
          "type": "tuple"
        }
      ],
      "stateMutability": "view",
      "type": "function"
    }
  ],
  "bytecode": "0x608060405234801561001057600080fd5b506119a5806100206000396000f3fe608060405234801561001057600080fd5b50600436106100575760003560e01c8063064dd7031461005c57806318c13f59146100855780638672d545146100a557806389f5471d146100c5578063d1e42b39146100d8575b600080fd5b61006f61006a366004611214565b6100eb565b60405161007c9190611856565b60405180910390f35b6100986100933660046111db565b61027a565b60405161007c91906117a7565b6100b86100b33660046111db565b6106a0565b60405161007c9190611843565b61006f6100d3366004611214565b610b76565b61006f6100e6366004611240565b610c8c565b6100f3610e08565b6000836001600160a01b0316638cd474156040518163ffffffff1660e01b815260040160206040518083038186803b15801561012e57600080fd5b505afa158015610142573d6000803e3d6000fd5b505050506040513d601f19601f8201168201806040525081019061016691906111b7565b604051633de97c9560e21b8152600481018590529091506000906001600160a01b0383169063f7a5f2549060240160206040518083038186803b1580156101ac57600080fd5b505afa1580156101c0573d6000803e3d6000fd5b505050506040513d601f19601f820116820180604052508101906101e49190611300565b90506001600160a01b03821663f7a95a9e6102006001846118b3565b6040518263ffffffff1660e01b815260040161021e91815260200190565b6103806040518083038186803b15801561023757600080fd5b505afa15801561024b573d6000803e3d6000fd5b505050506040513d601f19601f8201168201806040525081019061026f91906113c6565b925050505b92915050565b60606000836001600160a01b0316638cd474156040518163ffffffff1660e01b815260040160206040518083038186803b1580156102b757600080fd5b505afa1580156102cb573d6000803e3d6000fd5b505050506040513d601f19601f820116820180604052508101906102ef91906111b7565b60405163dbd99a1360e01b81526001600160a01b03858116600483015291925060009183169063dbd99a139060240160206040518083038186803b15801561033657600080fd5b505afa15801561034a573d6000803e3d6000fd5b505050506040513d601f19601f8201168201806040525081019061036e9190611300565b905060008167ffffffffffffffff81111561038b5761038b611941565b6040519080825280602002602001820160405280156103c457816020015b6103b1610f51565b8152602001906001900390816103a95790505b50905060005b8281101561069657604051630bee05ff60e21b81526001600160a01b0387811660048301526024820183905260009190861690632fb817fc9060440160206040518083038186803b15801561041e57600080fd5b505afa158015610432573d6000803e3d6000fd5b505050506040513d601f19601f820116820180604052508101906104569190611300565b905060006104648683610b76565b9050808484815181106104795761047961192b565b60200260200101516040018190525061049e81604001518260600151600001516106a0565b8484815181106104b0576104b061192b565b60200260200101516000018190525060008160a001516000015190506000816001600160a01b03166395d89b416040518163ffffffff1660e01b815260040160006040518083038186803b15801561050757600080fd5b505afa15801561051b573d6000803e3d6000fd5b505050506040513d6000823e601f3d908101601f191682016040526105439190810190611319565b905060405180608001604052808460a00151600001516001600160a01b03168152602001836001600160a01b03166306fdde036040518163ffffffff1660e01b815260040160006040518083038186803b1580156105a057600080fd5b505afa1580156105b4573d6000803e3d6000fd5b505050506040513d6000823e601f3d908101601f191682016040526105dc9190810190611319565b8152602001828152602001836001600160a01b031663313ce5676040518163ffffffff1660e01b815260040160206040518083038186803b15801561062057600080fd5b505afa158015610634573d6000803e3d6000fd5b505050506040513d601f19601f82011682018060405250810190610658919061149a565b60ff168152508686815181106106705761067061192b565b60200260200101516020018190525050505050808061068e906118fa565b9150506103ca565b5095945050505050565b6106a8610f83565b6000836001600160a01b031663c45a01556040518163ffffffff1660e01b815260040160206040518083038186803b1580156106e357600080fd5b505afa1580156106f7573d6000803e3d6000fd5b505050506040513d601f19601f8201168201806040525081019061071b91906111b7565b90506000846001600160a01b031663217a4b706040518163ffffffff1660e01b815260040160206040518083038186803b15801561075857600080fd5b505afa15801561076c573d6000803e3d6000fd5b505050506040513d601f19601f8201168201806040525081019061079091906111b7565b90506000816001600160a01b03166395d89b416040518163ffffffff1660e01b815260040160006040518083038186803b1580156107cd57600080fd5b505afa1580156107e1573d6000803e3d6000fd5b505050506040513d6000823e601f3d908101601f191682016040526108099190810190611319565b90506000856001600160a01b03166395d89b416040518163ffffffff1660e01b815260040160006040518083038186803b15801561084657600080fd5b505afa15801561085a573d6000803e3d6000fd5b505050506040513d6000823e601f3d908101601f191682016040526108829190810190611319565b6040805160a081019091529091508061089f838560c0840161176b565b6040516020818303038152906040528152602001886001600160a01b031681526020016040518060800160405280896001600160a01b03168152602001896001600160a01b03166306fdde036040518163ffffffff1660e01b815260040160006040518083038186803b15801561091557600080fd5b505afa158015610929573d6000803e3d6000fd5b505050506040513d6000823e601f3d908101601f191682016040526109519190810190611319565b8152602001848152602001896001600160a01b031663313ce5676040518163ffffffff1660e01b815260040160206040518083038186803b15801561099557600080fd5b505afa1580156109a9573d6000803e3d6000fd5b505050506040513d601f19601f820116820180604052508101906109cd919061149a565b60ff1681525081526020016040518060800160405280866001600160a01b03168152602001866001600160a01b03166306fdde036040518163ffffffff1660e01b815260040160006040518083038186803b158015610a2b57600080fd5b505afa158015610a3f573d6000803e3d6000fd5b505050506040513d6000823e601f3d908101601f19168201604052610a679190810190611319565b8152602001858152602001866001600160a01b031663313ce5676040518163ffffffff1660e01b815260040160206040518083038186803b158015610aab57600080fd5b505afa158015610abf573d6000803e3d6000fd5b505050506040513d601f19601f82011682018060405250810190610ae3919061149a565b60ff169052815260405163f5d0e17560e01b81526001600160a01b03898116600483015260209092019187169063f5d0e1759060240160206040518083038186803b158015610b3157600080fd5b505afa158015610b45573d6000803e3d6000fd5b505050506040513d601f19601f82011682018060405250810190610b699190611300565b9052979650505050505050565b610b7e610e08565b604051633de97c9560e21b8152600481018390526000906001600160a01b0385169063f7a5f2549060240160206040518083038186803b158015610bc157600080fd5b505afa158015610bd5573d6000803e3d6000fd5b505050506040513d601f19601f82011682018060405250810190610bf99190611300565b90506001600160a01b03841663f7a95a9e610c156001846118b3565b6040518263ffffffff1660e01b8152600401610c3391815260200190565b6103806040518083038186803b158015610c4c57600080fd5b505afa158015610c60573d6000803e3d6000fd5b505050506040513d601f19601f82011682018060405250810190610c8491906113c6565b949350505050565b610c94610e08565b6000836001600160a01b031663c45a01556040518163ffffffff1660e01b815260040160206040518083038186803b158015610ccf57600080fd5b505afa158015610ce3573d6000803e3d6000fd5b505050506040513d601f19601f82011682018060405250810190610d0791906111b7565b90506000816001600160a01b0316638cd474156040518163ffffffff1660e01b815260040160206040518083038186803b158015610d4457600080fd5b505afa158015610d58573d6000803e3d6000fd5b505050506040513d601f19601f82011682018060405250810190610d7c91906111b7565b60408051631a37982d60e01b815286516001600160a01b03908116600483015260208801518116602483015291870151821660448201526060870151821660648201526080870151608482015260a087015160a482015260c087015160c482015260e087015160e4820152610100870151610104820152919250821690631a37982d906101240161021e565b6040518061018001604052806000801916815260200160006001600160a01b0316815260200160006001600160a01b03168152602001610e796040518060a0016040528060006001600160a01b03168152602001600081526020016000815260200160008152602001600081525090565b8152602001610ea4604051806040016040528060006001600160a01b03168152602001600081525090565b8152602001610ee46040518060a0016040528060006001600160a01b03168152602001600081526020016000815260200160008152602001600081525090565b8152600060208083018290526040808401839052606080850184905260808086018590528251610100810184528581529384018590529183018490528201839052810182905260a081810183905260c0820183905260e08201929092529101908152600060209091015290565b6040518060600160405280610f64610f83565b8152602001610f71610fbd565b8152602001610f7e610e08565b905290565b6040805160a0810182526060815260006020820152908101610fa3610fbd565b8152602001610fb0610fbd565b8152602001600081525090565b604051806080016040528060006001600160a01b031681526020016060815260200160608152602001600081525090565b8035610ff981611957565b919050565b8051610ff981611957565b80518015158114610ff957600080fd5b600060a0828403121561102b57600080fd5b60405160a0810181811067ffffffffffffffff8211171561104e5761104e611941565b8060405250809150825161106181611957565b80825250602083015160208201526040830151604082015260608301516060820152608083015160808201525092915050565b6000604082840312156110a657600080fd5b6040516040810181811067ffffffffffffffff821117156110c9576110c9611941565b806040525080915082516110dc81611957565b8152602092830151920191909152919050565b600061010080838503121561110357600080fd5b6040519081019067ffffffffffffffff8211818310171561112657611126611941565b8160405280925061113684611009565b815261114460208501611009565b602082015261115560408501611009565b604082015261116660608501611009565b606082015261117760808501611009565b608082015261118860a08501611009565b60a082015261119960c08501611009565b60c08201526111aa60e08501611009565b60e0820152505092915050565b6000602082840312156111c957600080fd5b81516111d481611957565b9392505050565b600080604083850312156111ee57600080fd5b82356111f981611957565b9150602083013561120981611957565b809150509250929050565b6000806040838503121561122757600080fd5b823561123281611957565b946020939093013593505050565b60008082840361014081121561125557600080fd5b833561126081611957565b9250610120601f19820181131561127657600080fd5b61127e611865565b915061128c60208601610fee565b825261129a60408601610fee565b60208301526112ab60608601610fee565b60408301526112bc60808601610fee565b606083015260a0850135608083015260c085013560a083015260e085013560c08301526101008086013560e084015281860135818401525050809150509250929050565b60006020828403121561131257600080fd5b5051919050565b60006020828403121561132b57600080fd5b815167ffffffffffffffff8082111561134357600080fd5b818401915084601f83011261135757600080fd5b81518181111561136957611369611941565b604051601f8201601f19908116603f0116810190838211818310171561139157611391611941565b816040528281528760208487010111156113aa57600080fd5b6113bb8360208301602088016118ca565b979650505050505050565b600061038082840312156113d957600080fd5b6113e161188f565b825181526113f160208401610ffe565b602082015261140260408401610ffe565b60408201526114148460608501611019565b606082015261010061142885828601611094565b608083015261014061143c86828701611019565b60a08401526101e085015160c084015261020085015160e08401526102208501518284015261024085015161012084015261147b8661026087016110ef565b908301525061148d6103608401610ffe565b6101608201529392505050565b6000602082840312156114ac57600080fd5b815160ff811681146111d457600080fd5b600081518084526114d58160208601602086016118ca565b601f01601f19169290920160200192915050565b6000815160a084526114fe60a08501826114bd565b905060018060a01b0360208401511660208501526040830151848203604086015261152982826115d0565b9150506060830151848203606086015261154382826115d0565b915050608083015160808501528091505092915050565b80511515825260208101511515602083015260408101511515604083015260608101511515606083015260808101511515608083015260a08101516115a360a084018215159052565b5060c08101516115b760c084018215159052565b5060e08101516115cb60e084018215159052565b505050565b60018060a01b03815116825260006020820151608060208501526115f760808501826114bd565b90506040830151848203604086015261161082826114bd565b915050606083015160608501528091505092915050565b80518252602081015161164560208401826001600160a01b03169052565b50604081015161166060408401826001600160a01b03169052565b5060608101516116a4606084018280516001600160a01b03168252602080820151908301526040808201519083015260608082015190830152608090810151910152565b5060808101516101006116cc8185018380516001600160a01b03168252602090810151910152565b60a083015180516001600160a01b0316610140868101919091526020820151610160870152604082015161018087015260608201516101a08701526080909101516101c086015260c08401516101e086015260e084015161020086015290830151610220850152610120830151610240850152820151905061175261026084018261155a565b5061016001516001600160a01b03166103609190910152565b6000835161177d8184602088016118ca565b602f60f81b908301908152835161179b8160018401602088016118ca565b01600101949350505050565b60006020808301818452808551808352604092508286019150828160051b87010184880160005b8381101561183557603f1989840301855281516103c081518186526117f5828701826114e9565b915050888201518582038a87015261180d82826115d0565b91505087820151915061182288860183611627565b95880195935050908601906001016117ce565b509098975050505050505050565b6020815260006111d460208301846114e9565b61038081016102748284611627565b604051610120810167ffffffffffffffff8111828210171561188957611889611941565b60405290565b604051610180810167ffffffffffffffff8111828210171561188957611889611941565b6000828210156118c5576118c5611915565b500390565b60005b838110156118e55781810151838201526020016118cd565b838111156118f4576000848401525b50505050565b600060001982141561190e5761190e611915565b5060010190565b634e487b7160e01b600052601160045260246000fd5b634e487b7160e01b600052603260045260246000fd5b634e487b7160e01b600052604160045260246000fd5b6001600160a01b038116811461196c57600080fd5b5056fea2646970667358221220db9b39afc8339ddb2bfef113157e9921a739a3fb404a96c9cc22d0f490c6503464736f6c63430008070033",
  "linkReferences": {},
  "deployedLinkReferences": {}
}