{
  "_format": "hh-sol-artifact-1",
  "contractName": "Pool",
  "sourceName": "contracts/Pool.sol",
  "abi": [
    {
      "inputs": [
        {
          "internalType": "uint256",
          "name": "length0",
          "type": "uint256"
        },
        {
          "internalType": "uint256",
          "name": "length1",
          "type": "uint256"
        }
      ],
      "name": "BadLengths",
      "type": "error"
    },
    {
      "inputs": [
        {
          "internalType": "address",
          "name": "to",
          "type": "address"
        },
        {
          "internalType": "uint256",
          "name": "value",
          "type": "uint256"
        }
      ],
      "name": "EthTransferFailed",
      "type": "error"
    },
    {
      "inputs": [],
      "name": "ExceedMaxReserve",
      "type": "error"
    },
    {
      "inputs": [
        {
          "internalType": "address",
          "name": "sender",
          "type": "address"
        }
      ],
      "name": "Forbidden",
      "type": "error"
    },
    {
      "inputs": [],
      "name": "InitializedAlready",
      "type": "error"
    },
    {
      "inputs": [
        {
          "internalType": "uint256",
          "name": "amount",
          "type": "uint256"
        },
        {
          "internalType": "uint256",
          "name": "neededAmount",
          "type": "uint256"
        }
      ],
      "name": "InsufficientCollateral",
      "type": "error"
    },
    {
      "inputs": [],
      "name": "InsufficientInput",
      "type": "error"
    },
    {
      "inputs": [],
      "name": "InsufficientOutput",
      "type": "error"
    },
    {
      "inputs": [],
      "name": "InvalidParameters",
      "type": "error"
    },
    {
      "inputs": [],
      "name": "Locked",
      "type": "error"
    },
    {
      "inputs": [
        {
          "internalType": "address",
          "name": "token",
          "type": "address"
        },
        {
          "internalType": "address",
          "name": "to",
          "type": "address"
        },
        {
          "internalType": "uint256",
          "name": "value",
          "type": "uint256"
        }
      ],
      "name": "TransferFailed",
      "type": "error"
    },
    {
      "inputs": [
        {
          "internalType": "address",
          "name": "token",
          "type": "address"
        }
      ],
      "name": "UntradeableBaseToken",
      "type": "error"
    },
    {
      "inputs": [],
      "name": "ZeroValue",
      "type": "error"
    },
    {
      "anonymous": false,
      "inputs": [
        {
          "indexed": true,
          "internalType": "address",
          "name": "sender",
          "type": "address"
        },
        {
          "indexed": false,
          "internalType": "uint256",
          "name": "liquidity",
          "type": "uint256"
        }
      ],
      "name": "Burn",
      "type": "event"
    },
    {
      "anonymous": false,
      "inputs": [
        {
          "indexed": true,
          "internalType": "address",
          "name": "sender",
          "type": "address"
        },
        {
          "indexed": true,
          "internalType": "address",
          "name": "owner",
          "type": "address"
        },
        {
          "indexed": true,
          "internalType": "bytes32",
          "name": "positionKey",
          "type": "bytes32"
        },
        {
          "indexed": false,
          "internalType": "address",
          "name": "baseToken",
          "type": "address"
        },
        {
          "indexed": false,
          "internalType": "address",
          "name": "closer",
          "type": "address"
        },
        {
          "indexed": false,
          "internalType": "uint256",
          "name": "liquidationFee",
          "type": "uint256"
        }
      ],
      "name": "Close",
      "type": "event"
    },
    {
      "anonymous": false,
      "inputs": [
        {
          "indexed": true,
          "internalType": "address",
          "name": "sender",
          "type": "address"
        },
        {
          "indexed": true,
          "internalType": "bytes32",
          "name": "positionKey",
          "type": "bytes32"
        },
        {
          "indexed": true,
          "internalType": "address",
          "name": "executor",
          "type": "address"
        }
      ],
      "name": "CloseManuallyStep1",
      "type": "event"
    },
    {
      "anonymous": false,
      "inputs": [
        {
          "indexed": true,
          "internalType": "address",
          "name": "sender",
          "type": "address"
        },
        {
          "indexed": true,
          "internalType": "address",
          "name": "to",
          "type": "address"
        },
        {
          "indexed": false,
          "internalType": "uint256",
          "name": "amount",
          "type": "uint256"
        }
      ],
      "name": "Collect",
      "type": "event"
    },
    {
      "anonymous": false,
      "inputs": [
        {
          "indexed": true,
          "internalType": "address",
          "name": "sender",
          "type": "address"
        },
        {
          "indexed": true,
          "internalType": "address",
          "name": "to",
          "type": "address"
        },
        {
          "indexed": false,
          "internalType": "uint256",
          "name": "liquidity",
          "type": "uint256"
        }
      ],
      "name": "Mint",
      "type": "event"
    },
    {
      "anonymous": false,
      "inputs": [
        {
          "indexed": true,
          "internalType": "address",
          "name": "sender",
          "type": "address"
        },
        {
          "indexed": true,
          "internalType": "address",
          "name": "owner",
          "type": "address"
        },
        {
          "indexed": true,
          "internalType": "bytes32",
          "name": "positionKey",
          "type": "bytes32"
        },
        {
          "indexed": false,
          "internalType": "address",
          "name": "baseToken",
          "type": "address"
        },
        {
          "indexed": false,
          "internalType": "address",
          "name": "quoteToken",
          "type": "address"
        },
        {
          "indexed": false,
          "internalType": "address",
          "name": "collateral",
          "type": "address"
        },
        {
          "indexed": false,
          "internalType": "uint256",
          "name": "baseAmount",
          "type": "uint256"
        },
        {
          "indexed": false,
          "internalType": "uint256",
          "name": "quoteAmount",
          "type": "uint256"
        },
        {
          "indexed": false,
          "internalType": "uint256",
          "name": "collateralAmount",
          "type": "uint256"
        },
        {
          "indexed": false,
          "internalType": "uint256",
          "name": "fee",
          "type": "uint256"
        },
        {
          "indexed": false,
          "internalType": "uint256",
          "name": "protocolFee",
          "type": "uint256"
        }
      ],
      "name": "Open",
      "type": "event"
    },
    {
      "anonymous": false,
      "inputs": [
        {
          "indexed": true,
          "internalType": "address",
          "name": "sender",
          "type": "address"
        },
        {
          "indexed": true,
          "internalType": "bytes32",
          "name": "positionKey",
          "type": "bytes32"
        },
        {
          "indexed": false,
          "internalType": "address",
          "name": "rollbacker",
          "type": "address"
        },
        {
          "indexed": false,
          "internalType": "address",
          "name": "serviceToken",
          "type": "address"
        },
        {
          "indexed": false,
          "internalType": "uint256",
          "name": "serviceFee",
          "type": "uint256"
        }
      ],
      "name": "Rollback",
      "type": "event"
    },
    {
      "anonymous": false,
      "inputs": [
        {
          "indexed": false,
          "internalType": "address",
          "name": "baseToken",
          "type": "address"
        },
        {
          "indexed": false,
          "internalType": "address",
          "name": "quoteToken",
          "type": "address"
        },
        {
          "indexed": false,
          "internalType": "bool",
          "name": "tradeable",
          "type": "bool"
        }
      ],
      "name": "SetBaseToken",
      "type": "event"
    },
    {
      "anonymous": false,
      "inputs": [
        {
          "indexed": false,
          "internalType": "uint256",
          "name": "newInterest",
          "type": "uint256"
        }
      ],
      "name": "SetInterest",
      "type": "event"
    },
    {
      "anonymous": false,
      "inputs": [
        {
          "indexed": false,
          "internalType": "address",
          "name": "baseToken",
          "type": "address"
        },
        {
          "indexed": false,
          "internalType": "uint256",
          "name": "nexMaxBaseReserve",
          "type": "uint256"
        }
      ],
      "name": "SetMaxBaseReserve",
      "type": "event"
    },
    {
      "anonymous": false,
      "inputs": [
        {
          "indexed": false,
          "internalType": "address",
          "name": "collateral",
          "type": "address"
        },
        {
          "indexed": false,
          "internalType": "uint256",
          "name": "nexMaxCollateralReserve",
          "type": "uint256"
        }
      ],
      "name": "SetMaxCollateralReserve",
      "type": "event"
    },
    {
      "anonymous": false,
      "inputs": [
        {
          "indexed": false,
          "internalType": "address",
          "name": "baseToken",
          "type": "address"
        },
        {
          "indexed": false,
          "internalType": "uint256",
          "name": "newReserve",
          "type": "uint256"
        }
      ],
      "name": "UpdateBaseReserve",
      "type": "event"
    },
    {
      "anonymous": false,
      "inputs": [
        {
          "indexed": true,
          "internalType": "address",
          "name": "sender",
          "type": "address"
        },
        {
          "indexed": true,
          "internalType": "bytes32",
          "name": "positionKey",
          "type": "bytes32"
        },
        {
          "indexed": false,
          "internalType": "uint256",
          "name": "amount",
          "type": "uint256"
        },
        {
          "indexed": false,
          "internalType": "uint256",
          "name": "newCollateralLiqPrice",
          "type": "uint256"
        },
        {
          "indexed": false,
          "internalType": "address",
          "name": "updater",
          "type": "address"
        },
        {
          "indexed": false,
          "internalType": "address",
          "name": "serviceToken",
          "type": "address"
        },
        {
          "indexed": false,
          "internalType": "uint256",
          "name": "serviceFee",
          "type": "uint256"
        }
      ],
      "name": "UpdateCollateralAmount",
      "type": "event"
    },
    {
      "anonymous": false,
      "inputs": [
        {
          "indexed": false,
          "internalType": "address",
          "name": "collateral",
          "type": "address"
        },
        {
          "indexed": false,
          "internalType": "uint256",
          "name": "newReserve",
          "type": "uint256"
        }
      ],
      "name": "UpdateCollateralReserve",
      "type": "event"
    },
    {
      "anonymous": false,
      "inputs": [
        {
          "indexed": true,
          "internalType": "address",
          "name": "sender",
          "type": "address"
        },
        {
          "indexed": true,
          "internalType": "bytes32",
          "name": "positionKey",
          "type": "bytes32"
        },
        {
          "indexed": false,
          "internalType": "address",
          "name": "baseToken",
          "type": "address"
        },
        {
          "indexed": false,
          "internalType": "address",
          "name": "quoteToken",
          "type": "address"
        },
        {
          "indexed": false,
          "internalType": "uint256",
          "name": "newDeadline",
          "type": "uint256"
        },
        {
          "indexed": false,
          "internalType": "uint256",
          "name": "fee",
          "type": "uint256"
        },
        {
          "indexed": false,
          "internalType": "uint256",
          "name": "protocolFee",
          "type": "uint256"
        },
        {
          "indexed": false,
          "internalType": "address",
          "name": "updater",
          "type": "address"
        },
        {
          "indexed": false,
          "internalType": "address",
          "name": "serviceToken",
          "type": "address"
        },
        {
          "indexed": false,
          "internalType": "uint256",
          "name": "serviceFee",
          "type": "uint256"
        }
      ],
      "name": "UpdateDeadline",
      "type": "event"
    },
    {
      "anonymous": false,
      "inputs": [
        {
          "indexed": false,
          "internalType": "uint256",
          "name": "newFee",
          "type": "uint256"
        }
      ],
      "name": "UpdateFee",
      "type": "event"
    },
    {
      "anonymous": false,
      "inputs": [
        {
          "indexed": false,
          "internalType": "uint256",
          "name": "newProtocolFee",
          "type": "uint256"
        }
      ],
      "name": "UpdateProtocolFee",
      "type": "event"
    },
    {
      "anonymous": false,
      "inputs": [
        {
          "indexed": false,
          "internalType": "uint256",
          "name": "newQuoteInDebt",
          "type": "uint256"
        }
      ],
      "name": "UpdateQuoteInDebt",
      "type": "event"
    },
    {
      "anonymous": false,
      "inputs": [
        {
          "indexed": false,
          "internalType": "uint256",
          "name": "newQuoteReserve",
          "type": "uint256"
        }
      ],
      "name": "UpdateQuoteReserve",
      "type": "event"
    },
    {
      "anonymous": false,
      "inputs": [
        {
          "indexed": false,
          "internalType": "uint256",
          "name": "newWithdrawingLiquidity",
          "type": "uint256"
        }
      ],
      "name": "UpdateWithdrawingLiquidity",
      "type": "event"
    },
    {
      "inputs": [],
      "name": "accFee",
      "outputs": [
        {
          "internalType": "uint256",
          "name": "",
          "type": "uint256"
        }
      ],
      "stateMutability": "view",
      "type": "function"
    },
    {
      "inputs": [],
      "name": "accFeePerShare",
      "outputs": [
        {
          "internalType": "uint256",
          "name": "",
          "type": "uint256"
        }
      ],
      "stateMutability": "view",
      "type": "function"
    },
    {
      "inputs": [],
      "name": "accProtocolFee",
      "outputs": [
        {
          "internalType": "uint256",
          "name": "",
          "type": "uint256"
        }
      ],
      "stateMutability": "view",
      "type": "function"
    },
    {
      "inputs": [
        {
          "internalType": "uint256",
          "name": "_liquidity",
          "type": "uint256"
        },
        {
          "internalType": "address",
          "name": "_to",
          "type": "address"
        },
        {
          "internalType": "bytes",
          "name": "_data",
          "type": "bytes"
        }
      ],
      "name": "addBurnRequest",
      "outputs": [
        {
          "internalType": "uint256",
          "name": "",
          "type": "uint256"
        }
      ],
      "stateMutability": "nonpayable",
      "type": "function"
    },
    {
      "inputs": [],
      "name": "availLiquidity",
      "outputs": [],
      "stateMutability": "nonpayable",
      "type": "function"
    },
    {
      "inputs": [],
      "name": "availableLiquidity",
      "outputs": [
        {
          "internalType": "uint256",
          "name": "",
          "type": "uint256"
        }
      ],
      "stateMutability": "view",
      "type": "function"
    },
    {
      "inputs": [
        {
          "internalType": "address",
          "name": "",
          "type": "address"
        }
      ],
      "name": "baseReserve",
      "outputs": [
        {
          "internalType": "uint256",
          "name": "",
          "type": "uint256"
        }
      ],
      "stateMutability": "view",
      "type": "function"
    },
    {
      "inputs": [
        {
          "components": [
            {
              "internalType": "uint256",
              "name": "index",
              "type": "uint256"
            },
            {
              "internalType": "address",
              "name": "owner",
              "type": "address"
            },
            {
              "internalType": "address",
              "name": "quoteToken",
              "type": "address"
            },
            {
              "internalType": "uint256",
              "name": "liquidity",
              "type": "uint256"
            },
            {
              "internalType": "address",
              "name": "to",
              "type": "address"
            },
            {
              "internalType": "bytes",
              "name": "data",
              "type": "bytes"
            }
          ],
          "internalType": "struct IWithdrawalMonitor.WithdrawalRequest",
          "name": "_request",
          "type": "tuple"
        }
      ],
      "name": "burn",
      "outputs": [],
      "stateMutability": "nonpayable",
      "type": "function"
    },
    {
      "inputs": [
        {
          "internalType": "address",
          "name": "_owner",
          "type": "address"
        }
      ],
      "name": "claimableFee",
      "outputs": [
        {
          "internalType": "uint256",
          "name": "amount",
          "type": "uint256"
        }
      ],
      "stateMutability": "view",
      "type": "function"
    },
    {
      "inputs": [
        {
          "components": [
            {
              "internalType": "bytes32",
              "name": "positionKey",
              "type": "bytes32"
            },
            {
              "internalType": "bytes",
              "name": "data0",
              "type": "bytes"
            },
            {
              "internalType": "bytes",
              "name": "data1",
              "type": "bytes"
            },
            {
              "internalType": "address",
              "name": "closer",
              "type": "address"
            }
          ],
          "internalType": "struct IPositionStorage.CloseTradePositionParams",
          "name": "_params",
          "type": "tuple"
        }
      ],
      "name": "close",
      "outputs": [],
      "stateMutability": "nonpayable",
      "type": "function"
    },
    {
      "inputs": [
        {
          "internalType": "bytes32",
          "name": "_positionKey",
          "type": "bytes32"
        },
        {
          "internalType": "address",
          "name": "_executor",
          "type": "address"
        }
      ],
      "name": "closeManuallyStep1",
      "outputs": [],
      "stateMutability": "nonpayable",
      "type": "function"
    },
    {
      "inputs": [
        {
          "internalType": "bytes32",
          "name": "_positionKey",
          "type": "bytes32"
        },
        {
          "internalType": "uint256",
          "name": "_baseValue",
          "type": "uint256"
        },
        {
          "internalType": "uint256",
          "name": "_remainingCollateralAmount",
          "type": "uint256"
        },
        {
          "internalType": "uint256",
          "name": "_liquidationFee",
          "type": "uint256"
        }
      ],
      "name": "closeManuallyStep2",
      "outputs": [],
      "stateMutability": "nonpayable",
      "type": "function"
    },
    {
      "inputs": [
        {
          "internalType": "address",
          "name": "",
          "type": "address"
        }
      ],
      "name": "collateralReserve",
      "outputs": [
        {
          "internalType": "uint256",
          "name": "",
          "type": "uint256"
        }
      ],
      "stateMutability": "view",
      "type": "function"
    },
    {
      "inputs": [
        {
          "internalType": "address",
          "name": "_to",
          "type": "address"
        },
        {
          "internalType": "uint256",
          "name": "_amount",
          "type": "uint256"
        }
      ],
      "name": "collect",
      "outputs": [],
      "stateMutability": "nonpayable",
      "type": "function"
    },
    {
      "inputs": [],
      "name": "factory",
      "outputs": [
        {
          "internalType": "address",
          "name": "",
          "type": "address"
        }
      ],
      "stateMutability": "view",
      "type": "function"
    },
    {
      "inputs": [
        {
          "internalType": "address",
          "name": "_factory",
          "type": "address"
        },
        {
          "internalType": "address",
          "name": "_quoteToken",
          "type": "address"
        },
        {
          "internalType": "uint256",
          "name": "_interest",
          "type": "uint256"
        }
      ],
      "name": "initialize",
      "outputs": [],
      "stateMutability": "nonpayable",
      "type": "function"
    },
    {
      "inputs": [],
      "name": "interest",
      "outputs": [
        {
          "internalType": "uint256",
          "name": "",
          "type": "uint256"
        }
      ],
      "stateMutability": "view",
      "type": "function"
    },
    {
      "inputs": [
        {
          "internalType": "address",
          "name": "",
          "type": "address"
        }
      ],
      "name": "liquidityPosition",
      "outputs": [
        {
          "internalType": "uint256",
          "name": "liquidity",
          "type": "uint256"
        },
        {
          "internalType": "uint256",
          "name": "feeDebt",
          "type": "uint256"
        },
        {
          "internalType": "uint256",
          "name": "pendingFee",
          "type": "uint256"
        },
        {
          "internalType": "uint256",
          "name": "withdrawingLiquidity",
          "type": "uint256"
        }
      ],
      "stateMutability": "view",
      "type": "function"
    },
    {
      "inputs": [
        {
          "internalType": "address",
          "name": "",
          "type": "address"
        }
      ],
      "name": "maxBaseReserve",
      "outputs": [
        {
          "internalType": "uint256",
          "name": "",
          "type": "uint256"
        }
      ],
      "stateMutability": "view",
      "type": "function"
    },
    {
      "inputs": [
        {
          "internalType": "address",
          "name": "",
          "type": "address"
        }
      ],
      "name": "maxCollateralReserve",
      "outputs": [
        {
          "internalType": "uint256",
          "name": "",
          "type": "uint256"
        }
      ],
      "stateMutability": "view",
      "type": "function"
    },
    {
      "inputs": [
        {
          "internalType": "address",
          "name": "_to",
          "type": "address"
        },
        {
          "internalType": "uint256",
          "name": "_liquidity",
          "type": "uint256"
        },
        {
          "internalType": "bytes",
          "name": "_data",
          "type": "bytes"
        }
      ],
      "name": "mint",
      "outputs": [],
      "stateMutability": "nonpayable",
      "type": "function"
    },
    {
      "inputs": [
        {
          "components": [
            {
              "internalType": "address",
              "name": "owner",
              "type": "address"
            },
            {
              "internalType": "address",
              "name": "baseToken",
              "type": "address"
            },
            {
              "internalType": "address",
              "name": "quoteToken",
              "type": "address"
            },
            {
              "internalType": "address",
              "name": "collateral",
              "type": "address"
            },
            {
              "internalType": "uint256",
              "name": "baseAmount",
              "type": "uint256"
            },
            {
              "internalType": "uint256",
              "name": "quoteAmount",
              "type": "uint256"
            },
            {
              "internalType": "uint256",
              "name": "collateralAmount",
              "type": "uint256"
            },
            {
              "internalType": "uint256",
              "name": "deadline",
              "type": "uint256"
            },
            {
              "internalType": "uint256",
              "name": "stoplossPrice",
              "type": "uint256"
            },
            {
              "internalType": "uint256",
              "name": "takeProfitPrice",
              "type": "uint256"
            }
          ],
          "internalType": "struct IPositionStorage.OpenTradePositionParams",
          "name": "_params",
          "type": "tuple"
        }
      ],
      "name": "open",
      "outputs": [
        {
          "internalType": "bytes32",
          "name": "positionKey",
          "type": "bytes32"
        }
      ],
      "stateMutability": "nonpayable",
      "type": "function"
    },
    {
      "inputs": [],
      "name": "positionStorage",
      "outputs": [
        {
          "internalType": "address",
          "name": "",
          "type": "address"
        }
      ],
      "stateMutability": "view",
      "type": "function"
    },
    {
      "inputs": [],
      "name": "precision",
      "outputs": [
        {
          "internalType": "uint256",
          "name": "",
          "type": "uint256"
        }
      ],
      "stateMutability": "view",
      "type": "function"
    },
    {
      "inputs": [],
      "name": "quoteInDebt",
      "outputs": [
        {
          "internalType": "uint256",
          "name": "",
          "type": "uint256"
        }
      ],
      "stateMutability": "view",
      "type": "function"
    },
    {
      "inputs": [],
      "name": "quoteReserve",
      "outputs": [
        {
          "internalType": "uint256",
          "name": "",
          "type": "uint256"
        }
      ],
      "stateMutability": "view",
      "type": "function"
    },
    {
      "inputs": [],
      "name": "quoteToken",
      "outputs": [
        {
          "internalType": "address",
          "name": "",
          "type": "address"
        }
      ],
      "stateMutability": "view",
      "type": "function"
    },
    {
      "inputs": [
        {
          "components": [
            {
              "internalType": "bytes32",
              "name": "positionKey",
              "type": "bytes32"
            },
            {
              "internalType": "address",
              "name": "rollbacker",
              "type": "address"
            },
            {
              "internalType": "address",
              "name": "serviceToken",
              "type": "address"
            },
            {
              "internalType": "uint256",
              "name": "serviceFee",
              "type": "uint256"
            }
          ],
          "internalType": "struct IPositionStorage.RollbackTradePositionParams",
          "name": "_params",
          "type": "tuple"
        }
      ],
      "name": "rollback",
      "outputs": [],
      "stateMutability": "nonpayable",
      "type": "function"
    },
    {
      "inputs": [
        {
          "internalType": "address[]",
          "name": "_baseTokens",
          "type": "address[]"
        },
        {
          "internalType": "bool[]",
          "name": "_tradeables",
          "type": "bool[]"
        }
      ],
      "name": "setBaseTokens",
      "outputs": [],
      "stateMutability": "nonpayable",
      "type": "function"
    },
    {
      "inputs": [
        {
          "internalType": "uint256",
          "name": "_interest",
          "type": "uint256"
        }
      ],
      "name": "setInterest",
      "outputs": [],
      "stateMutability": "nonpayable",
      "type": "function"
    },
    {
      "inputs": [
        {
          "internalType": "address",
          "name": "_baseToken",
          "type": "address"
        },
        {
          "internalType": "uint256",
          "name": "_maxBaseReserve",
          "type": "uint256"
        }
      ],
      "name": "setMaxBaseReserve",
      "outputs": [],
      "stateMutability": "nonpayable",
      "type": "function"
    },
    {
      "inputs": [
        {
          "internalType": "address",
          "name": "_collateral",
          "type": "address"
        },
        {
          "internalType": "uint256",
          "name": "_maxCollateralReserve",
          "type": "uint256"
        }
      ],
      "name": "setMaxCollateralReserve",
      "outputs": [],
      "stateMutability": "nonpayable",
      "type": "function"
    },
    {
      "inputs": [
        {
          "internalType": "address",
          "name": "",
          "type": "address"
        }
      ],
      "name": "tradeableBaseToken",
      "outputs": [
        {
          "internalType": "bool",
          "name": "",
          "type": "bool"
        }
      ],
      "stateMutability": "view",
      "type": "function"
    },
    {
      "inputs": [
        {
          "components": [
            {
              "internalType": "bytes32",
              "name": "positionKey",
              "type": "bytes32"
            },
            {
              "internalType": "uint256",
              "name": "amount",
              "type": "uint256"
            },
            {
              "internalType": "address",
              "name": "updater",
              "type": "address"
            },
            {
              "internalType": "address",
              "name": "serviceToken",
              "type": "address"
            },
            {
              "internalType": "uint256",
              "name": "serviceFee",
              "type": "uint256"
            }
          ],
          "internalType": "struct IPositionStorage.UpdateCollateralAmountParams",
          "name": "_params",
          "type": "tuple"
        }
      ],
      "name": "updateCollateralAmount",
      "outputs": [
        {
          "internalType": "uint256",
          "name": "collateralLiqPrice",
          "type": "uint256"
        }
      ],
      "stateMutability": "nonpayable",
      "type": "function"
    },
    {
      "inputs": [
        {
          "components": [
            {
              "internalType": "bytes32",
              "name": "positionKey",
              "type": "bytes32"
            },
            {
              "internalType": "uint256",
              "name": "deadline",
              "type": "uint256"
            },
            {
              "internalType": "address",
              "name": "updater",
              "type": "address"
            },
            {
              "internalType": "address",
              "name": "serviceToken",
              "type": "address"
            },
            {
              "internalType": "uint256",
              "name": "serviceFee",
              "type": "uint256"
            }
          ],
          "internalType": "struct IPositionStorage.UpdateDeadlineParams",
          "name": "_params",
          "type": "tuple"
        }
      ],
      "name": "updateDeadline",
      "outputs": [],
      "stateMutability": "nonpayable",
      "type": "function"
    },
    {
      "inputs": [],
      "name": "withdrawalMonitor",
      "outputs": [
        {
          "internalType": "address",
          "name": "",
          "type": "address"
        }
      ],
      "stateMutability": "view",
      "type": "function"
    },
    {
      "inputs": [],
      "name": "withdrawingLiquidity",
      "outputs": [
        {
          "internalType": "uint256",
          "name": "",
          "type": "uint256"
        }
      ],
      "stateMutability": "view",
      "type": "function"
    }
  ],
  "bytecode": "0x6080604052600160005534801561001557600080fd5b50614dbf806100256000396000f3fe608060405234801561001057600080fd5b50600436106102275760003560e01c80638cd4741511610130578063c6f61b01116100b8578063dd3b829a1161007c578063dd3b829a146104e6578063f459a9f5146104ef578063fb2b74b214610502578063fba0c81414610515578063ffc9dcbb1461052857600080fd5b8063c6f61b0114610442578063d3b5dc3b14610455578063d489197d1461045e578063d4fd69051461047e578063d8f2cab7146104d357600080fd5b8063a4fbc0d7116100ff578063a4fbc0d714610402578063ada3112f14610415578063ba3439221461041e578063c392f76614610426578063c45a01551461042f57600080fd5b80638cd47415146103c057806394d008ef146103d35780639da771f4146103e6578063a1c59afc146103ef57600080fd5b80635330e353116101b35780636b8357ac116101825780636b8357ac146103525780636c8c400e1461036557806374375359146103855780637ef539fb1461038d5780638b6e00fa146103a057600080fd5b80635330e3531461031057806359129e7514610323578063653741ff14610336578063685b61d01461034957600080fd5b806319972a50116101fa57806319972a50146102a35780631d086720146102b6578063217a4b70146102c957806327014e33146102f457806332196a01146102fd57600080fd5b80630121c7771461022c5780630adcf0f514610248578063122f7e8b1461027b5780631794bb3c1461028e575b600080fd5b610235600b5481565b6040519081526020015b60405180910390f35b61026b610256366004613fdf565b600f6020526000908152604090205460ff1681565b604051901515815260200161023f565b6102356102893660046142f3565b610548565b6102a161029c366004614019565b6109ef565b005b6102a16102b1366004614396565b610bea565b6102a16102c4366004614575565b610f48565b6004546102dc906001600160a01b031681565b6040516001600160a01b03909116815260200161023f565b610235600d5481565b6102a161030b3660046140e1565b610fb1565b6102a161031e3660046144a0565b61113b565b6102a16103313660046141df565b6113ef565b6102356103443660046145b3565b611679565b610235600a5481565b6102a161036036600461405a565b6117b2565b610235610373366004613fdf565b60076020526000908152604090205481565b610235611906565b6102a161039b36600461405a565b611915565b6102356103ae366004613fdf565b60116020526000908152604090205481565b6002546102dc906001600160a01b031681565b6102a16103e1366004614086565b61199b565b61023560095481565b6102356103fd366004613fdf565b611c5b565b6003546102dc906001600160a01b031681565b610235600c5481565b6102a1611cf5565b61023560065481565b6001546102dc906001600160a01b031681565b6102356104503660046144a0565b611d29565b61023560055481565b61023561046c366004613fdf565b60086020526000908152604090205481565b6104b361048c366004613fdf565b60126020526000908152604090208054600182015460028301546003909301549192909184565b60408051948552602085019390935291830152606082015260800161023f565b6102a16104e136600461420f565b612000565b610235600e5481565b6102a16104fd36600461405a565b61255b565b6102a16105103660046144bc565b6125d9565b6102a16105233660046142b7565b6129d0565b610235610536366004613fdf565b60106020526000908152604090205481565b6000805460011461056c576040516303cb96db60e21b815260040160405180910390fd5b60008080556020808401516001600160a01b03168252600f9052604090205460ff166105c057602082015160405162bb3a2960e81b81526001600160a01b0390911660048201526024015b60405180910390fd5b602080830180516001600160a01b03908116600090815260078452604080822054608088015194519093168252601090945292909220546106019190614b40565b118061064c57506060820180516001600160a01b0390811660009081526008602090815260408083205460c0880151955190941683526011909152902054909161064a91614b40565b115b1561066a576040516328622c6560e01b815260040160405180910390fd5b6004546001600160a01b039081166040840181905260208401519091168114156106a757604051630e52390960e41b815260040160405180910390fd5b6106b0836130f6565b6106cd5760405163f8b3bb6160e01b815260040160405180910390fd5b600254604051632fa7cffb60e21b81526001600160a01b0390911690600090829063be9f3fec9061070290889060040161475d565b6103406040518083038186803b15801561071b57600080fd5b505afa15801561072f573d6000803e3d6000fd5b505050506040513d601f19601f8201168201806040525081019061075391906143b2565b60208101519091506001600160a01b031661078157604051630e52390960e41b815260040160405180910390fd5b600081610120015182608001516020015161079c9190614cc6565b905060006107a8613425565b9050808211156107cb5760405163bb2875c360e01b815260040160405180910390fd5b60405163f76e91fd60e01b81526001600160a01b0385169063f76e91fd906107f7908690600401614806565b602060405180830381600087803b15801561081157600080fd5b505af1158015610825573d6000803e3d6000fd5b505050506040513d601f19601f8201168201806040525081019061084991906141c6565b95508660a00151600a60008282546108619190614b40565b9091555050610140830151600d805460009061087e908490614b40565b909155505060808701516020808901516001600160a01b0316600090815260109091526040812080549091906108b5908490614b40565b909155505060c087015160608801516001600160a01b0316600090815260116020526040812080549091906108eb908490614b40565b909155505061014083015161012084015161090e9161090991614cc6565b61345e565b61091d858860000151846134d8565b8587600001516001600160a01b0316336001600160a01b03167f6fa15176f59ef643f98e48bb7bbcdc1f7ed128c889a18626d6c28f6e7e2dece48a602001518b604001518c606001518d608001518e60a001518f60c001518c61012001518d61014001516040516109d79897969594939291906001600160a01b03988916815296881660208801529490961660408601526060850192909252608084015260a083015260c082019290925260e08101919091526101000190565b60405180910390a45050600160005550919392505050565b6001546001600160a01b031615610a19576040516373e833b960e11b815260040160405180910390fd5b600180546001600160a01b0319166001600160a01b03851690811790915560408051638cd4741560e01b81529051638cd4741591600480820192602092909190829003018186803b158015610a6d57600080fd5b505afa158015610a81573d6000803e3d6000fd5b505050506040513d601f19601f82011682018060405250810190610aa59190613ffc565b600260006101000a8154816001600160a01b0302191690836001600160a01b03160217905550826001600160a01b031663a4fbc0d76040518163ffffffff1660e01b815260040160206040518083038186803b158015610b0457600080fd5b505afa158015610b18573d6000803e3d6000fd5b505050506040513d601f19601f82011682018060405250810190610b3c9190613ffc565b600380546001600160a01b039283166001600160a01b0319918216179091556004805492851692909116821781556040805163313ce56760e01b8152905163313ce56792828101926020929190829003018186803b158015610b9d57600080fd5b505afa158015610bb1573d6000803e3d6000fd5b505050506040513d601f19601f82011682018060405250810190610bd5919061461a565b610be090600a614bbd565b6005556006555050565b600054600114610c0d576040516303cb96db60e21b815260040160405180910390fd5b60008055600154604051639a30739160e01b81523360048201526001600160a01b0390911690639a3073919060240160206040518083038186803b158015610c5457600080fd5b505afa158015610c68573d6000803e3d6000fd5b505050506040513d601f19601f82011682018060405250810190610c8c91906141a9565b610cab5760405163a59d7f4d60e01b81523360048201526024016105b7565b60025460405163957d1fe160e01b8152823560048201526001600160a01b0390911690600090829063957d1fe1906024016103406040518083038186803b158015610cf557600080fd5b505afa158015610d09573d6000803e3d6000fd5b505050506040513d601f19601f82011682018060405250810190610d2d91906143b2565b90506000610d39613609565b9050816080015160200151811015610d645760405163f8b3bb6160e01b815260040160405180910390fd5b6001600160a01b038316639a1023418535610d856040880160208901613fdf565b6040516001600160e01b031960e085901b16815260048101929092526001600160a01b03166024820152604401600060405180830381600087803b158015610dcc57600080fd5b505af1158015610de0573d6000803e3d6000fd5b50505050816080015160200151600a6000828254610dfe9190614cc6565b9091555050608082015160200151600b8054600090610e1e908490614b40565b9091555050606082015160208082015191516001600160a01b031660009081526010909152604081208054909190610e57908490614cc6565b909155505060a082015160208082015191516001600160a01b031660009081526011909152604081208054909190610e90908490614cc6565b909155505060608201518051602080850151920151610eaf92906134d8565b60a08201518051602080850151920151610ec992906134d8565b8151337f415e462bce09ff3142dc51f9a6878d89bb34d75a21bc8ffc7fc397eccce872e9610efd6040880160208901613fdf565b610f0d6060890160408a01613fdf565b604080516001600160a01b0393841681529290911660208301526060808a0135918301919091520160405180910390a3505060016000555050565b6001546001600160a01b03163314610f755760405163a59d7f4d60e01b81523360048201526024016105b7565b60068190556040518181527f81ed86e8cfa3004fc54732477c3eda4f4c606394a0b423aba78153a3e696f65d906020015b60405180910390a150565b6001546001600160a01b03163314610fde5760405163a59d7f4d60e01b81523360048201526024016105b7565b600454815183516001600160a01b03909216911461101c578251825160405163574092f960e01b8152600481019290925260248201526044016105b7565b60005b83518110156111355782818151811061103a5761103a614d3a565b6020026020010151600f600086848151811061105857611058614d3a565b60200260200101516001600160a01b03166001600160a01b0316815260200190815260200160002060006101000a81548160ff0219169083151502179055507fec4f975deac1f5c1d92fd5f7a2b08d2c4e3e60215ab50703da45f8f8e9f2fc9b8482815181106110ca576110ca614d3a565b6020026020010151838584815181106110e5576110e5614d3a565b602002602001015160405161111b939291906001600160a01b039384168152919092166020820152901515604082015260600190565b60405180910390a18061112d81614d09565b91505061101f565b50505050565b60005460011461115e576040516303cb96db60e21b815260040160405180910390fd5b60008055600154604051639a30739160e01b81523360048201526001600160a01b0390911690639a3073919060240160206040518083038186803b1580156111a557600080fd5b505afa1580156111b9573d6000803e3d6000fd5b505050506040513d601f19601f820116820180604052508101906111dd91906141a9565b6111fc5760405163a59d7f4d60e01b81523360048201526024016105b7565b600254815160405163957d1fe160e01b81526001600160a01b0390921691600091839163957d1fe1916112359160040190815260200190565b6103406040518083038186803b15801561124e57600080fd5b505afa158015611262573d6000803e3d6000fd5b505050506040513d601f19601f8201168201806040525081019061128691906143b2565b9050600080836001600160a01b0316635330e353866040518263ffffffff1660e01b81526004016112b79190614991565b6040805180830381600087803b1580156112d057600080fd5b505af11580156112e4573d6000803e3d6000fd5b505050506040513d601f19601f8201168201806040525081019061130891906145f6565b9150915081600a600082825461131e9190614b40565b9250508190555080600d60008282546113379190614b40565b9091555061134a90506109098284614cc6565b845160608481015151608080870151516020808b01516040808d0151878e0151868f015183516001600160a01b03998a168152968916958701959095529185019290925295830189905292820187905291831660a08201529190921660c082015260e081019190915233907f02bde35fb6c4387120ff67d8e52f04c37f08b2a8235cd8a731848afda59f622e906101000160405180910390a350506001600055505050565b600054600114611412576040516303cb96db60e21b815260040160405180910390fd5b60008055600154604051639a30739160e01b81523360048201526001600160a01b0390911690639a3073919060240160206040518083038186803b15801561145957600080fd5b505afa15801561146d573d6000803e3d6000fd5b505050506040513d601f19601f8201168201806040525081019061149191906141a9565b6114b05760405163a59d7f4d60e01b81523360048201526024016105b7565b600254604051631601180b60e31b8152600481018490526001600160a01b0390911690819063b008c05890602401600060405180830381600087803b1580156114f857600080fd5b505af115801561150c573d6000803e3d6000fd5b505060405163957d1fe160e01b815260048101869052600092506001600160a01b038416915063957d1fe1906024016103406040518083038186803b15801561155457600080fd5b505afa158015611568573d6000803e3d6000fd5b505050506040513d601f19601f8201168201806040525081019061158c91906143b2565b90506115a9816060015160000151848360600151602001516134d8565b6115c48160a0015160000151848360a00151602001516134d8565b606081015160208082015191516001600160a01b0316600090815260109091526040812080549091906115f8908490614cc6565b909155505060a081015160208082015191516001600160a01b031660009081526011909152604081208054909190611631908490614cc6565b90915550506040516001600160a01b03841690859033907f1cc79853bbf119208b3fab3b7d33fcdb6ceaee7c8b16b89bdb389ed3b51ad17c90600090a4505060016000555050565b6000805460011461169d576040516303cb96db60e21b815260040160405180910390fd5b6000808055338152601260205260409020805460038201546116bf9088614b40565b11156116de5760405163bb2875c360e01b815260040160405180910390fd5b858160030160008282546116f29190614b40565b9250508190555085600b600082825461170b9190614b40565b90915550506003546004805460405163130e06fd60e31b81526001600160a01b0393841693849363987037e893611750933393909116918d918d918d918d91016146ed565b602060405180830381600087803b15801561176a57600080fd5b505af115801561177e573d6000803e3d6000fd5b505050506040513d601f19601f820116820180604052508101906117a291906141c6565b6001600055979650505050505050565b6000546001146117d5576040516303cb96db60e21b815260040160405180910390fd5b6000805580156118fd57336000908152601260205260409020600e5460055482541561183b5760018301548354829061180e9085614c68565b6118189190614b58565b6118229190614cc6565b8360020160008282546118359190614b40565b90915550505b825481906118499084614c68565b6118539190614b58565b6001840155600283015484118061186b5750600c5484115b156118895760405163bb2875c360e01b815260040160405180910390fd5b8383600201600082825461189d9190614cc6565b90915550506004546118b9906001600160a01b031686866134d8565b6040518481526001600160a01b0386169033907f1314fd112a381beea61539dbd21ec04afcff2662ac7d1b83273aade1f53d1b979060200160405180910390a35050505b50506001600055565b6000611910613425565b905090565b6001546001600160a01b031633146119425760405163a59d7f4d60e01b81523360048201526024016105b7565b6001600160a01b038216600081815260076020908152604091829020849055815192835282018390527f12bac67b5c48ed91ab11f81f31bddd21affdd5f1b2d5125d9ed9f6bcf808bf9191015b60405180910390a15050565b6000546001146119be576040516303cb96db60e21b815260040160405180910390fd5b60008080556004546001600160a01b03868116835260126020526040909220600e54600554825494909316939192909115611a3357600183015483548290611a069085614c68565b611a109190614b58565b611a1a9190614cc6565b836002016000828254611a2d9190614b40565b90915550505b86836000016000828254611a479190614b40565b909155505082548190611a5a9084614c68565b611a649190614b58565b83600101819055508660096000828254611a7e9190614b40565b90915550611a8c90506136d4565b6040516370a0823160e01b81523060048201526000906001600160a01b038616906370a082319060240160206040518083038186803b158015611ace57600080fd5b505afa158015611ae2573d6000803e3d6000fd5b505050506040513d601f19601f82011682018060405250810190611b0691906141c6565b6040516303a3bcd760e01b815290915033906303a3bcd790611b329088908c908c908c90600401614735565b600060405180830381600087803b158015611b4c57600080fd5b505af1158015611b60573d6000803e3d6000fd5b50506040516370a0823160e01b8152306004820152600092506001600160a01b03881691506370a082319060240160206040518083038186803b158015611ba657600080fd5b505afa158015611bba573d6000803e3d6000fd5b505050506040513d601f19601f82011682018060405250810190611bde91906141c6565b9050611bea8983614b40565b811015611c0a5760405163f8b3bb6160e01b815260040160405180910390fd5b6040518981526001600160a01b038b169033907fab8530f87dc9b59234c4623bf917212bb2536d647574c8e7e5da92c2ede0c9f89060200160405180910390a3505060016000555050505050505050565b6001600160a01b03811660009081526012602090815260408083208151608081018352815480825260018301549482018590526002830154938201939093526003909101546060820152600554600e549193929091611cba9190614c68565b611cc49190614b58565b8260400151611cd39190614b40565b611cdd9190614cc6565b9150600c54821115611cef57600c5491505b50919050565b6003546001600160a01b03163314611d225760405163a59d7f4d60e01b81523360048201526024016105b7565b6000600b55565b60008054600114611d4d576040516303cb96db60e21b815260040160405180910390fd5b60008055600154604051639a30739160e01b81523360048201526001600160a01b0390911690639a3073919060240160206040518083038186803b158015611d9457600080fd5b505afa158015611da8573d6000803e3d6000fd5b505050506040513d601f19601f82011682018060405250810190611dcc91906141a9565b611deb5760405163a59d7f4d60e01b81523360048201526024016105b7565b600254825160405163957d1fe160e01b81526001600160a01b0390921691600091839163957d1fe191611e249160040190815260200190565b6103406040518083038186803b158015611e3d57600080fd5b505afa158015611e51573d6000803e3d6000fd5b505050506040513d601f19601f82011682018060405250810190611e7591906143b2565b90506000611e8a8260a001516000015161378c565b90508460200151811015611eb15760405163f8b3bb6160e01b815260040160405180910390fd5b60405163c6f61b0160e01b81526001600160a01b0384169063c6f61b0190611edd908890600401614991565b602060405180830381600087803b158015611ef757600080fd5b505af1158015611f0b573d6000803e3d6000fd5b505050506040513d601f19601f82011682018060405250810190611f2f91906141c6565b93508460200151601160008460a00151600001516001600160a01b03166001600160a01b031681526020019081526020016000206000828254611f729190614b40565b909155505084516020860151604080880151606089015160808a0151925133947f55c8ac91237f6fa939a79c1699293ce14171d61728c7cc56a131f51758fa598f94611feb9491938c9390919094855260208501939093526001600160a01b039182166040850152166060830152608082015260a00190565b60405180910390a35050600160005550919050565b600054600114612023576040516303cb96db60e21b815260040160405180910390fd5b60008055600154604051639a30739160e01b81523360048201526001600160a01b0390911690639a3073919060240160206040518083038186803b15801561206a57600080fd5b505afa15801561207e573d6000803e3d6000fd5b505050506040513d601f19601f820116820180604052508101906120a291906141a9565b6120c15760405163a59d7f4d60e01b81523360048201526024016105b7565b60025460405163957d1fe160e01b8152600481018690526001600160a01b0390911690600090829063957d1fe1906024016103406040518083038186803b15801561210b57600080fd5b505afa15801561211f573d6000803e3d6000fd5b505050506040513d601f19601f8201168201806040525081019061214391906143b2565b60808101515160a0820151519192506001600160a01b03918216911614156121ac57600061216f613609565b90508361217c8688614b40565b6121869190614b40565b8110156121a65760405163f8b3bb6160e01b815260040160405180910390fd5b506122cb565b60006121b6613609565b90506121c28487614b40565b8110156121e25760405163f8b3bb6160e01b815260040160405180910390fd5b60a082018051516001600160a01b039081166000908152601160209081526040808320548551518516845260109092528083205494515190516370a0823160e01b815230600482015291949316906370a082319060240160206040518083038186803b15801561225157600080fd5b505afa158015612265573d6000803e3d6000fd5b505050506040513d601f19601f8201168201806040525081019061228991906141c6565b90506000826122988584614cc6565b6122a29190614cc6565b9050888110156122c55760405163f8b3bb6160e01b815260040160405180910390fd5b50505050505b60405163f71139f760e01b8152600481018790526001600160a01b0383169063f71139f790602401600060405180830381600087803b15801561230d57600080fd5b505af1158015612321573d6000803e3d6000fd5b505050506000808483608001516020015161233c9190614b40565b905080871015612353576123508782614cc6565b91505b8251604051638b029d6160e01b815260048101919091526024810188905260448101839052606481018790526001600160a01b03851690638b029d6190608401600060405180830381600087803b1580156123ad57600080fd5b505af11580156123c1573d6000803e3d6000fd5b50505050826080015160200151600a60008282546123df9190614cc6565b9091555050608083015160200151600b80546000906123ff908490614b40565b9091555050841561249e576001546040805163bd2bae9d60e01b815290516000926001600160a01b03169163bd2bae9d916004808301926020929190829003018186803b15801561244f57600080fd5b505afa158015612463573d6000803e3d6000fd5b505050506040513d601f19601f820116820180604052508101906124879190613ffc565b905061249c84608001516000015182886134d8565b505b816124d05760006124af8289614cc6565b905080156124ce576124ce8460800151600001518560200151836134d8565b505b85156124ed576124ed8360a00151600001518460200151886134d8565b60208381015160608086015151604080516001600160a01b039283168152339581018690529081018a90528c94919093169290917fad34241f9e3b3d38652a7493d4e07da1f3e88afa819a546544b20de727f2ffd8910160405180910390a450506001600055505050505050565b6001546001600160a01b031633146125885760405163a59d7f4d60e01b81523360048201526024016105b7565b6001600160a01b038216600081815260086020908152604091829020849055815192835282018390527fa8b8a829e7a217367f4ab0a17b3092f4cee0fbc1d6cc11c0b24a2c70298c004e910161198f565b6000546001146125fc576040516303cb96db60e21b815260040160405180910390fd5b600080556003546001600160a01b031633811461262e5760405163a59d7f4d60e01b81523360048201526024016105b7565b6020808301516001600160a01b031660009081526012909152604090206003810154606084015111156126745760405163bb2875c360e01b815260040160405180910390fd5b600b548360600151111561268c576000600b556126a8565b8260600151600b60008282546126a29190614cc6565b90915550505b600e546005548254156126f5576001830154835482906126c89085614c68565b6126d29190614b58565b6126dc9190614cc6565b8360020160008282546126ef9190614b40565b90915550505b846060015183600001600082825461270d9190614cc6565b9091555050606085015160038401805460009061272b908490614cc6565b90915550508254819061273e9084614c68565b6127489190614b58565b6001840155606085015160098054600090612764908490614cc6565b9091555061277290506136d4565b60a0850151511561296957600085606001518660a0015160405160240161279a9291906149d7565b60408051601f19818403018152918152602080830180516001600160e01b031663462cc8ff60e11b179052880151905191925060009182916001600160a01b0316906127e7908590614692565b6000604051808303816000865af19150503d8060008114612824576040519150601f19603f3d011682016040523d82523d6000602084013e612829565b606091505b509150915081612965576044815110156128e7578751604051634d4a6fbb60e01b81526001600160a01b03891691634d4a6fbb916128b091906004019081526040602082018190526024908201527f43616c6c6261636b207472616e73616374696f6e206661696c65642073696c656060820152636e746c7960e01b608082015260a00190565b600060405180830381600087803b1580156128ca57600080fd5b505af11580156128de573d6000803e3d6000fd5b50505050612965565b600481019050866001600160a01b0316634d4a6fbb8960000151838060200190518101906129159190614241565b6040518363ffffffff1660e01b81526004016129329291906149d7565b600060405180830381600087803b15801561294c57600080fd5b505af1158015612960573d6000803e3d6000fd5b505050505b5050505b6004546080860151606087015161298a926001600160a01b031691906134d8565b606085015160405190815233907fcc16f5dbb4873280815c1ee09dbd06736cffcc184412cf7a71a0fdb75d397ca59060200160405180910390a250506001600055505050565b6000546001146129f3576040516303cb96db60e21b815260040160405180910390fd5b60008055600154604051639a30739160e01b81523360048201526001600160a01b0390911690639a3073919060240160206040518083038186803b158015612a3a57600080fd5b505afa158015612a4e573d6000803e3d6000fd5b505050506040513d601f19601f82011682018060405250810190612a7291906141a9565b612a915760405163a59d7f4d60e01b81523360048201526024016105b7565b6001546002546001600160a01b03918216911660008163ac00b6748535612abe6080880160608901613fdf565b6040516001600160e01b031960e085901b16815260048101929092526001600160a01b03166024820152604401602060405180830381600087803b158015612b0557600080fd5b505af1158015612b19573d6000803e3d6000fd5b505050506040513d601f19601f82011682018060405250810190612b3d91906141a9565b60405163957d1fe160e01b8152853560048201529091506000906001600160a01b0384169063957d1fe1906024016103406040518083038186803b158015612b8457600080fd5b505afa158015612b98573d6000803e3d6000fd5b505050506040513d601f19601f82011682018060405250810190612bbc91906143b2565b90506000612bd682612bd160208901896149f0565b613871565b6080830151602001519091506000908415612c87576000876001600160a01b0316635fb3b1b56040518163ffffffff1660e01b815260040160206040518083038186803b158015612c2657600080fd5b505afa158015612c3a573d6000803e3d6000fd5b505050506040513d601f19601f82011682018060405250810190612c5e91906141c6565b9050612710612c6d8284614c68565b612c779190614b58565b9250612c838383614b40565b9150505b600080600083861015612e3d57612c9e8685614cc6565b60808801515160a0890151519194508492506001600160a01b03918216911614612e005760008a6001600160a01b0316637c21d5e06040518163ffffffff1660e01b815260040160206040518083038186803b158015612cfd57600080fd5b505afa158015612d11573d6000803e3d6000fd5b505050506040513d601f19601f82011682018060405250810190612d359190613ffc565b60a08901515160808a01515160405163ec27830960e01b8152600060048201526001600160a01b03928316602482015290821660448201526064810187905291925082169063ec27830990608401604080518083038186803b158015612d9a57600080fd5b505afa158015612dae573d6000803e3d6000fd5b505050506040513d601f19601f82011682018060405250810190612dd2919061458e565b5080925050612df28883868f8060400190612ded91906149f0565b613a2d565b612dfc9084614b40565b9250505b8660a0015160200151811115612e3d5760a087015160200151604051632c1f8ef160e21b81526004810191909152602481018290526044016105b7565b808760a0015160200151612e519190614cc6565b612e5b9083614b40565b8751604051638b029d6160e01b815260048101919091526024810188905260448101859052606481018290529092506001600160a01b038a169150638b029d6190608401600060405180830381600087803b158015612eb957600080fd5b505af1158015612ecd573d6000803e3d6000fd5b50505050856080015160200151600a6000828254612eeb9190614cc6565b9091555050608086015160200151600b8054600090612f0b908490614b40565b9091555050606086015160208082015191516001600160a01b031660009081526010909152604081208054909190612f44908490614cc6565b909155505060a086015160208082015191516001600160a01b031660009081526011909152604081208054909190612f7d908490614cc6565b90915550508315613012576000896001600160a01b031663bd2bae9d6040518163ffffffff1660e01b815260040160206040518083038186803b158015612fc357600080fd5b505afa158015612fd7573d6000803e3d6000fd5b505050506040513d601f19601f82011682018060405250810190612ffb9190613ffc565b905061301087608001516000015182876134d8565b505b816130445760006130238487614cc6565b90508015613042576130428760800151600001518860200151836134d8565b505b8015613061576130618660a00151600001518760200151836134d8565b856000015186602001516001600160a01b0316336001600160a01b03167fad34241f9e3b3d38652a7493d4e07da1f3e88afa819a546544b20de727f2ffd88960600151600001518e60600160208101906130bb9190613fdf565b604080516001600160a01b039384168152929091166020830152810189905260600160405180910390a4505060016000555050505050505050565b600081602001516001600160a01b031682606001516001600160a01b0316146133315760608201516040516370a0823160e01b81523060048201526000916001600160a01b0316906370a082319060240160206040518083038186803b15801561315f57600080fd5b505afa158015613173573d6000803e3d6000fd5b505050506040513d601f19601f8201168201806040525081019061319791906141c6565b6060840180516001600160a01b03908116600090815260106020908152604080832054945190931682526011905220549192506131d391614b40565b6131dd9082614cc6565b905082604001516001600160a01b031683606001516001600160a01b0316141561323857600d54600c54600a546009546132179190614cc6565b6132219190614cc6565b61322b9190614cc6565b6132359082614cc6565b90505b8260c0015181101561324d5750600092915050565b60208301516040516370a0823160e01b81523060048201526000916001600160a01b0316906370a082319060240160206040518083038186803b15801561329357600080fd5b505afa1580156132a7573d6000803e3d6000fd5b505050506040513d601f19601f820116820180604052508101906132cb91906141c6565b602080860180516001600160a01b039081166000908152601084526040808220549351909216815260119093529091205491925061330891614b40565b6133129082614cc6565b9050836080015181101561332a575060009392505050565b505061341d565b60608201516040516370a0823160e01b81523060048201526000916001600160a01b0316906370a082319060240160206040518083038186803b15801561337757600080fd5b505afa15801561338b573d6000803e3d6000fd5b505050506040513d601f19601f820116820180604052508101906133af91906141c6565b6060840180516001600160a01b03908116600090815260106020908152604080832054945190931682526011905220549192506133eb91614b40565b6133f59082614cc6565b905082608001518360c0015161340b9190614b40565b81101561341b5750600092915050565b505b506001919050565b600080600b54600a5460095461343b9190614c87565b6134459190614c87565b9050600081126134555780613458565b60005b91505090565b80600c60008282546134709190614b40565b90915550506009546005546134859083614c68565b61348f9190614b58565b600e60008282546134a09190614b40565b9091555050600c546040519081527f38e229a7f3f9c329892d08eb37c4e91ccac6d12c798d394990ca4f56028ec26690602001610fa6565b604080516001600160a01b038481166024830152604480830185905283518084039091018152606490920183526020820180516001600160e01b031663a9059cbb60e01b17905291516000928392908716916135349190614692565b6000604051808303816000865af19150503d8060008114613571576040519150601f19603f3d011682016040523d82523d6000602084013e613576565b606091505b50915091508180156135a05750805115806135a05750808060200190518101906135a091906141a9565b6136025760405162461bcd60e51b815260206004820152602d60248201527f5472616e7366657248656c7065723a3a736166655472616e736665723a20747260448201526c185b9cd9995c8819985a5b1959609a1b60648201526084016105b7565b5050505050565b600480546040516370a0823160e01b815230928101929092526000916001600160a01b0390911690829082906370a082319060240160206040518083038186803b15801561365657600080fd5b505afa15801561366a573d6000803e3d6000fd5b505050506040513d601f19601f8201168201806040525081019061368e91906141c6565b9050600a546009546136a09190614cc6565b6001600160a01b0383166000908152601160205260409020546136c39083614cc6565b6136cd9190614cc6565b9250505090565b600d548015613789576001546040805163779b492960e11b815290516000926001600160a01b03169163ef369252916004808301926020929190829003018186803b15801561372257600080fd5b505afa158015613736573d6000803e3d6000fd5b505050506040513d601f19601f8201168201806040525081019061375a9190613ffc565b90506001600160a01b03811615613787576000600d55600454613787906001600160a01b031682846134d8565b505b50565b6004546000906001600160a01b03838116911614156137b3576137ad613609565b92915050565b6040516370a0823160e01b81523060048201526000906001600160a01b038416906370a082319060240160206040518083038186803b1580156137f557600080fd5b505afa158015613809573d6000803e3d6000fd5b505050506040513d601f19601f8201168201806040525081019061382d91906141c6565b6001600160a01b038416600090815260106020908152604080832054601190925290912054919250906138609083614cc6565b61386a9190614cc6565b9392505050565b6080830151516040516370a0823160e01b815230600482015260009182916001600160a01b03909116906370a082319060240160206040518083038186803b1580156138bc57600080fd5b505afa1580156138d0573d6000803e3d6000fd5b505050506040513d601f19601f820116820180604052508101906138f491906141c6565b9050613911856060015160000151338760600151602001516134d8565b6060850151516080860151516040516339d87e7760e21b8152339263e761f9dc92613945926000908a908a906004016146ae565b600060405180830381600087803b15801561395f57600080fd5b505af1158015613973573d6000803e3d6000fd5b505050506080850151516040516370a0823160e01b81523060048201526000916001600160a01b0316906370a082319060240160206040518083038186803b1580156139be57600080fd5b505afa1580156139d2573d6000803e3d6000fd5b505050506040513d601f19601f820116820180604052508101906139f691906141c6565b905081811015613a195760405163f8b3bb6160e01b815260040160405180910390fd5b613a238282614cc6565b9695505050505050565b60a0850151516040516370a0823160e01b815230600482015260009182916001600160a01b03909116906370a082319060240160206040518083038186803b158015613a7857600080fd5b505afa158015613a8c573d6000803e3d6000fd5b505050506040513d601f19601f82011682018060405250810190613ab091906141c6565b6080880151516040516370a0823160e01b81523060048201529192506000916001600160a01b03909116906370a082319060240160206040518083038186803b158015613afc57600080fd5b505afa158015613b10573d6000803e3d6000fd5b505050506040513d601f19601f82011682018060405250810190613b3491906141c6565b9050613b498860a001516000015133896134d8565b60a0880151516080890151516040516339d87e7760e21b8152339263e761f9dc92613b7c928b908b908b906004016146ae565b600060405180830381600087803b158015613b9657600080fd5b505af1158015613baa573d6000803e3d6000fd5b5050505060a0880151516040516370a0823160e01b81523060048201526000916001600160a01b0316906370a082319060240160206040518083038186803b158015613bf557600080fd5b505afa158015613c09573d6000803e3d6000fd5b505050506040513d601f19601f82011682018060405250810190613c2d91906141c6565b60808a0151516040516370a0823160e01b81523060048201529192506000916001600160a01b03909116906370a082319060240160206040518083038186803b158015613c7957600080fd5b505afa158015613c8d573d6000803e3d6000fd5b505050506040513d601f19601f82011682018060405250810190613cb191906141c6565b9050613cbd8884614b40565b811015613cdd5760405163f8b3bb6160e01b815260040160405180910390fd5b613ce78985614cc6565b613cf19083614cc6565b9a9950505050505050505050565b8035613d0a81614d66565b919050565b8051613d0a81614d66565b600082601f830112613d2b57600080fd5b81356020613d40613d3b83614af6565b614ac6565b80838252828201915082860187848660051b8901011115613d6057600080fd5b60005b85811015613d88578135613d7681614d7b565b84529284019290840190600101613d63565b5090979650505050505050565b60008083601f840112613da757600080fd5b5081356001600160401b03811115613dbe57600080fd5b602083019150836020828501011115613dd657600080fd5b9250929050565b600082601f830112613dee57600080fd5b8135613dfc613d3b82614b19565b818152846020838601011115613e1157600080fd5b816020850160208301376000918101602001919091529392505050565b600060a08284031215613e4057600080fd5b613e48614a36565b90508151613e5581614d66565b808252506020820151602082015260408201516040820152606082015160608201526080820151608082015292915050565b600060808284031215611cef57600080fd5b600060408284031215613eab57600080fd5b604051604081018181106001600160401b0382111715613ecd57613ecd614d50565b80604052508091508251613ee081614d66565b8152602092830151920191909152919050565b600060808284031215613f0557600080fd5b604051608081018181106001600160401b0382111715613f2757613f27614d50565b80604052508091508251613f3a81614d7b565b81526020830151613f4a81614d7b565b60208201526040830151613f5d81614d7b565b60408201526060830151613f7081614d7b565b6060919091015292915050565b600060a08284031215613f8f57600080fd5b613f97614a36565b905081358152602082013560208201526040820135613fb581614d66565b60408201526060820135613fc881614d66565b806060830152506080820135608082015292915050565b600060208284031215613ff157600080fd5b813561386a81614d66565b60006020828403121561400e57600080fd5b815161386a81614d66565b60008060006060848603121561402e57600080fd5b833561403981614d66565b9250602084013561404981614d66565b929592945050506040919091013590565b6000806040838503121561406d57600080fd5b823561407881614d66565b946020939093013593505050565b6000806000806060858703121561409c57600080fd5b84356140a781614d66565b93506020850135925060408501356001600160401b038111156140c957600080fd5b6140d587828801613d95565b95989497509550505050565b600080604083850312156140f457600080fd5b82356001600160401b038082111561410b57600080fd5b818501915085601f83011261411f57600080fd5b8135602061412f613d3b83614af6565b8083825282820191508286018a848660051b890101111561414f57600080fd5b600096505b8487101561417b57803561416781614d66565b835260019690960195918301918301614154565b509650508601359250508082111561419257600080fd5b5061419f85828601613d1a565b9150509250929050565b6000602082840312156141bb57600080fd5b815161386a81614d7b565b6000602082840312156141d857600080fd5b5051919050565b600080604083850312156141f257600080fd5b82359150602083013561420481614d66565b809150509250929050565b6000806000806080858703121561422557600080fd5b5050823594602084013594506040840135936060013592509050565b60006020828403121561425357600080fd5b81516001600160401b0381111561426957600080fd5b8201601f8101841361427a57600080fd5b8051614288613d3b82614b19565b81815285602083850101111561429d57600080fd5b6142ae826020830160208601614cdd565b95945050505050565b6000602082840312156142c957600080fd5b81356001600160401b038111156142df57600080fd5b6142eb84828501613e87565b949350505050565b6000610140828403121561430657600080fd5b61430e614a5e565b61431783613cff565b815261432560208401613cff565b602082015261433660408401613cff565b604082015261434760608401613cff565b60608201526080830135608082015260a083013560a082015260c083013560c082015260e083013560e08201526101008084013581830152506101208084013581830152508091505092915050565b6000608082840312156143a857600080fd5b61386a8383613e87565b600061034082840312156143c557600080fd5b6143cd614a81565b825181526143dd60208401613d0f565b60208201526143ee60408401613d0f565b60408201526144008460608501613e2e565b606082015261010061441485828601613e99565b608083015261014061442886828701613e2e565b60a08401526101e085015160c084015261020085015160e084015261022085015182840152610240850151610120840152610260850151818401525050614473846102808501613ef3565b6101608201526144866103008401613d0f565b61018082015261032092909201516101a083015250919050565b600060a082840312156144b257600080fd5b61386a8383613f7d565b6000602082840312156144ce57600080fd5b81356001600160401b03808211156144e557600080fd5b9083019060c082860312156144f957600080fd5b614501614aa4565b82358152602083013561451381614d66565b6020820152604083013561452681614d66565b604082015260608381013590820152608083013561454381614d66565b608082015260a08301358281111561455a57600080fd5b61456687828601613ddd565b60a08301525095945050505050565b60006020828403121561458757600080fd5b5035919050565b600080604083850312156145a157600080fd5b82519150602083015161420481614d66565b600080600080606085870312156145c957600080fd5b8435935060208501356145db81614d66565b925060408501356001600160401b038111156140c957600080fd5b6000806040838503121561460957600080fd5b505080516020909101519092909150565b60006020828403121561462c57600080fd5b815160ff8116811461386a57600080fd5b81835281816020850137506000828201602090810191909152601f909101601f19169091010190565b6000815180845261467e816020860160208601614cdd565b601f01601f19169290920160200192915050565b600082516146a4818460208701614cdd565b9190910192915050565b6001600160a01b03868116825285166020820152604081018490526080606082018190526000906146e2908301848661463d565b979650505050505050565b6001600160a01b0387811682528681166020830152604082018690528416606082015260a060808201819052600090614729908301848661463d565b98975050505050505050565b60018060a01b0385168152836020820152606060408201526000613a2360608301848661463d565b81516001600160a01b031681526101408101602083015161478960208401826001600160a01b03169052565b5060408301516147a460408401826001600160a01b03169052565b5060608301516147bf60608401826001600160a01b03169052565b506080830151608083015260a083015160a083015260c083015160c083015260e083015160e083015261010080840151818401525061012080840151818401525092915050565b8151815260208083015161034083019161482a908401826001600160a01b03169052565b50604083015161484560408401826001600160a01b03169052565b506060830151614889606084018280516001600160a01b03168252602080820151908301526040808201519083015260608082015190830152608090810151910152565b5060808301516101006148b18185018380516001600160a01b03168252602090810151910152565b60a085015180516001600160a01b0316610140868101919091526020820151610160870152604082015161018087015260608201516101a087015260808201516101c087015290925060c08601516101e086015260e0860151610200860152908501516102208501526101208501516102408501528401516102608401525061016083015180511515610280840152602081015115156102a0840152604081015115156102c0840152606081015115156102e0840152506101808301516001600160a01b038116610300840152506101a083015161032083015292915050565b81518152602080830151908201526040808301516001600160a01b0390811691830191909152606080840151909116908201526080808301519082015260a081016137ad565b8281526040602082015260006142eb6040830184614666565b6000808335601e19843603018112614a0757600080fd5b8301803591506001600160401b03821115614a2157600080fd5b602001915036819003821315613dd657600080fd5b60405160a081016001600160401b0381118282101715614a5857614a58614d50565b60405290565b60405161014081016001600160401b0381118282101715614a5857614a58614d50565b6040516101c081016001600160401b0381118282101715614a5857614a58614d50565b60405160c081016001600160401b0381118282101715614a5857614a58614d50565b604051601f8201601f191681016001600160401b0381118282101715614aee57614aee614d50565b604052919050565b60006001600160401b03821115614b0f57614b0f614d50565b5060051b60200190565b60006001600160401b03821115614b3257614b32614d50565b50601f01601f191660200190565b60008219821115614b5357614b53614d24565b500190565b600082614b7557634e487b7160e01b600052601260045260246000fd5b500490565b600181815b80851115614bb5578160001904821115614b9b57614b9b614d24565b80851615614ba857918102915b93841c9390800290614b7f565b509250929050565b600061386a60ff841683600082614bd6575060016137ad565b81614be3575060006137ad565b8160018114614bf95760028114614c0357614c1f565b60019150506137ad565b60ff841115614c1457614c14614d24565b50506001821b6137ad565b5060208310610133831016604e8410600b8410161715614c42575081810a6137ad565b614c4c8383614b7a565b8060001904821115614c6057614c60614d24565b029392505050565b6000816000190483118215151615614c8257614c82614d24565b500290565b60008083128015600160ff1b850184121615614ca557614ca5614d24565b6001600160ff1b0384018313811615614cc057614cc0614d24565b50500390565b600082821015614cd857614cd8614d24565b500390565b60005b83811015614cf8578181015183820152602001614ce0565b838111156111355750506000910152565b6000600019821415614d1d57614d1d614d24565b5060010190565b634e487b7160e01b600052601160045260246000fd5b634e487b7160e01b600052603260045260246000fd5b634e487b7160e01b600052604160045260246000fd5b6001600160a01b038116811461378957600080fd5b801515811461378957600080fdfea2646970667358221220a5a9471afe4e1cf767641ccf7fc74e53d09806960ef08c9b3ff74d502daa088664736f6c63430008070033",
  "linkReferences": {},
  "deployedLinkReferences": {}
}