{
  "_format": "hh-sol-artifact-1",
  "contractName": "Pool",
  "sourceName": "contracts/Pool.sol",
  "abi": [
    {
      "inputs": [
        {
          "internalType": "uint256",
          "name": "length0",
          "type": "uint256"
        },
        {
          "internalType": "uint256",
          "name": "length1",
          "type": "uint256"
        }
      ],
      "name": "BadLengths",
      "type": "error"
    },
    {
      "inputs": [
        {
          "internalType": "address",
          "name": "to",
          "type": "address"
        },
        {
          "internalType": "uint256",
          "name": "value",
          "type": "uint256"
        }
      ],
      "name": "EthTransferFailed",
      "type": "error"
    },
    {
      "inputs": [
        {
          "internalType": "address",
          "name": "sender",
          "type": "address"
        }
      ],
      "name": "Forbidden",
      "type": "error"
    },
    {
      "inputs": [],
      "name": "InitializedAlready",
      "type": "error"
    },
    {
      "inputs": [
        {
          "internalType": "uint256",
          "name": "amount",
          "type": "uint256"
        },
        {
          "internalType": "uint256",
          "name": "neededAmount",
          "type": "uint256"
        }
      ],
      "name": "InsufficientCollateral",
      "type": "error"
    },
    {
      "inputs": [],
      "name": "InsufficientInput",
      "type": "error"
    },
    {
      "inputs": [],
      "name": "InsufficientOutput",
      "type": "error"
    },
    {
      "inputs": [],
      "name": "InvalidParameters",
      "type": "error"
    },
    {
      "inputs": [],
      "name": "Locked",
      "type": "error"
    },
    {
      "inputs": [
        {
          "internalType": "address",
          "name": "token",
          "type": "address"
        },
        {
          "internalType": "address",
          "name": "to",
          "type": "address"
        },
        {
          "internalType": "uint256",
          "name": "value",
          "type": "uint256"
        }
      ],
      "name": "TransferFailed",
      "type": "error"
    },
    {
      "inputs": [
        {
          "internalType": "address",
          "name": "token",
          "type": "address"
        },
        {
          "internalType": "address",
          "name": "quoteToken",
          "type": "address"
        }
      ],
      "name": "WrongPool",
      "type": "error"
    },
    {
      "inputs": [],
      "name": "ZeroValue",
      "type": "error"
    },
    {
      "anonymous": false,
      "inputs": [
        {
          "indexed": true,
          "internalType": "address",
          "name": "sender",
          "type": "address"
        },
        {
          "indexed": false,
          "internalType": "uint256",
          "name": "liquidity",
          "type": "uint256"
        }
      ],
      "name": "Burn",
      "type": "event"
    },
    {
      "anonymous": false,
      "inputs": [
        {
          "indexed": true,
          "internalType": "address",
          "name": "sender",
          "type": "address"
        },
        {
          "indexed": true,
          "internalType": "address",
          "name": "owner",
          "type": "address"
        },
        {
          "indexed": true,
          "internalType": "bytes32",
          "name": "positionKey",
          "type": "bytes32"
        },
        {
          "indexed": false,
          "internalType": "address",
          "name": "baseToken",
          "type": "address"
        },
        {
          "indexed": false,
          "internalType": "address",
          "name": "closer",
          "type": "address"
        },
        {
          "indexed": false,
          "internalType": "uint256",
          "name": "liquidationFee",
          "type": "uint256"
        }
      ],
      "name": "Close",
      "type": "event"
    },
    {
      "anonymous": false,
      "inputs": [
        {
          "indexed": true,
          "internalType": "address",
          "name": "sender",
          "type": "address"
        },
        {
          "indexed": true,
          "internalType": "bytes32",
          "name": "positionKey",
          "type": "bytes32"
        },
        {
          "indexed": true,
          "internalType": "address",
          "name": "executor",
          "type": "address"
        }
      ],
      "name": "CloseManuallyStep1",
      "type": "event"
    },
    {
      "anonymous": false,
      "inputs": [
        {
          "indexed": true,
          "internalType": "address",
          "name": "sender",
          "type": "address"
        },
        {
          "indexed": true,
          "internalType": "address",
          "name": "to",
          "type": "address"
        },
        {
          "indexed": false,
          "internalType": "uint256",
          "name": "amount",
          "type": "uint256"
        }
      ],
      "name": "Collect",
      "type": "event"
    },
    {
      "anonymous": false,
      "inputs": [
        {
          "indexed": true,
          "internalType": "address",
          "name": "sender",
          "type": "address"
        },
        {
          "indexed": true,
          "internalType": "address",
          "name": "to",
          "type": "address"
        },
        {
          "indexed": false,
          "internalType": "uint256",
          "name": "liquidity",
          "type": "uint256"
        }
      ],
      "name": "Mint",
      "type": "event"
    },
    {
      "anonymous": false,
      "inputs": [
        {
          "indexed": true,
          "internalType": "address",
          "name": "sender",
          "type": "address"
        },
        {
          "indexed": true,
          "internalType": "address",
          "name": "owner",
          "type": "address"
        },
        {
          "indexed": true,
          "internalType": "bytes32",
          "name": "positionKey",
          "type": "bytes32"
        },
        {
          "indexed": false,
          "internalType": "address",
          "name": "baseToken",
          "type": "address"
        },
        {
          "indexed": false,
          "internalType": "address",
          "name": "quoteToken",
          "type": "address"
        },
        {
          "indexed": false,
          "internalType": "address",
          "name": "collateral",
          "type": "address"
        },
        {
          "indexed": false,
          "internalType": "uint256",
          "name": "baseAmount",
          "type": "uint256"
        },
        {
          "indexed": false,
          "internalType": "uint256",
          "name": "quoteAmount",
          "type": "uint256"
        },
        {
          "indexed": false,
          "internalType": "uint256",
          "name": "collateralAmount",
          "type": "uint256"
        },
        {
          "indexed": false,
          "internalType": "uint256",
          "name": "fee",
          "type": "uint256"
        },
        {
          "indexed": false,
          "internalType": "uint256",
          "name": "protocolFee",
          "type": "uint256"
        }
      ],
      "name": "Open",
      "type": "event"
    },
    {
      "anonymous": false,
      "inputs": [
        {
          "indexed": true,
          "internalType": "address",
          "name": "sender",
          "type": "address"
        },
        {
          "indexed": true,
          "internalType": "bytes32",
          "name": "positionKey",
          "type": "bytes32"
        },
        {
          "indexed": false,
          "internalType": "address",
          "name": "rollbacker",
          "type": "address"
        },
        {
          "indexed": false,
          "internalType": "address",
          "name": "serviceToken",
          "type": "address"
        },
        {
          "indexed": false,
          "internalType": "uint256",
          "name": "serviceFee",
          "type": "uint256"
        }
      ],
      "name": "Rollback",
      "type": "event"
    },
    {
      "anonymous": false,
      "inputs": [
        {
          "indexed": false,
          "internalType": "address",
          "name": "baseToken",
          "type": "address"
        },
        {
          "indexed": false,
          "internalType": "address",
          "name": "quoteToken",
          "type": "address"
        },
        {
          "indexed": false,
          "internalType": "bool",
          "name": "tradeable",
          "type": "bool"
        }
      ],
      "name": "SetBaseToken",
      "type": "event"
    },
    {
      "anonymous": false,
      "inputs": [
        {
          "indexed": false,
          "internalType": "uint256",
          "name": "newInterest",
          "type": "uint256"
        }
      ],
      "name": "SetInterest",
      "type": "event"
    },
    {
      "anonymous": false,
      "inputs": [
        {
          "indexed": false,
          "internalType": "address",
          "name": "baseToken",
          "type": "address"
        },
        {
          "indexed": false,
          "internalType": "uint256",
          "name": "newReserve",
          "type": "uint256"
        }
      ],
      "name": "UpdateBaseReserve",
      "type": "event"
    },
    {
      "anonymous": false,
      "inputs": [
        {
          "indexed": true,
          "internalType": "address",
          "name": "sender",
          "type": "address"
        },
        {
          "indexed": true,
          "internalType": "bytes32",
          "name": "positionKey",
          "type": "bytes32"
        },
        {
          "indexed": false,
          "internalType": "uint256",
          "name": "amount",
          "type": "uint256"
        },
        {
          "indexed": false,
          "internalType": "uint256",
          "name": "newCollateralLiqPrice",
          "type": "uint256"
        },
        {
          "indexed": false,
          "internalType": "uint256",
          "name": "newBaseLiqPrice",
          "type": "uint256"
        },
        {
          "indexed": false,
          "internalType": "address",
          "name": "updater",
          "type": "address"
        },
        {
          "indexed": false,
          "internalType": "address",
          "name": "serviceToken",
          "type": "address"
        },
        {
          "indexed": false,
          "internalType": "uint256",
          "name": "serviceFee",
          "type": "uint256"
        }
      ],
      "name": "UpdateCollateralAmount",
      "type": "event"
    },
    {
      "anonymous": false,
      "inputs": [
        {
          "indexed": false,
          "internalType": "address",
          "name": "collateral",
          "type": "address"
        },
        {
          "indexed": false,
          "internalType": "uint256",
          "name": "newReserve",
          "type": "uint256"
        }
      ],
      "name": "UpdateCollateralReserve",
      "type": "event"
    },
    {
      "anonymous": false,
      "inputs": [
        {
          "indexed": true,
          "internalType": "address",
          "name": "sender",
          "type": "address"
        },
        {
          "indexed": true,
          "internalType": "bytes32",
          "name": "positionKey",
          "type": "bytes32"
        },
        {
          "indexed": false,
          "internalType": "address",
          "name": "baseToken",
          "type": "address"
        },
        {
          "indexed": false,
          "internalType": "address",
          "name": "quoteToken",
          "type": "address"
        },
        {
          "indexed": false,
          "internalType": "uint256",
          "name": "newDeadline",
          "type": "uint256"
        },
        {
          "indexed": false,
          "internalType": "uint256",
          "name": "fee",
          "type": "uint256"
        },
        {
          "indexed": false,
          "internalType": "uint256",
          "name": "protocolFee",
          "type": "uint256"
        },
        {
          "indexed": false,
          "internalType": "address",
          "name": "updater",
          "type": "address"
        },
        {
          "indexed": false,
          "internalType": "address",
          "name": "serviceToken",
          "type": "address"
        },
        {
          "indexed": false,
          "internalType": "uint256",
          "name": "serviceFee",
          "type": "uint256"
        }
      ],
      "name": "UpdateDeadline",
      "type": "event"
    },
    {
      "anonymous": false,
      "inputs": [
        {
          "indexed": false,
          "internalType": "uint256",
          "name": "newFee",
          "type": "uint256"
        }
      ],
      "name": "UpdateFee",
      "type": "event"
    },
    {
      "anonymous": false,
      "inputs": [
        {
          "indexed": false,
          "internalType": "uint256",
          "name": "newProtocolFee",
          "type": "uint256"
        }
      ],
      "name": "UpdateProtocolFee",
      "type": "event"
    },
    {
      "anonymous": false,
      "inputs": [
        {
          "indexed": false,
          "internalType": "uint256",
          "name": "newQuoteInDebt",
          "type": "uint256"
        }
      ],
      "name": "UpdateQuoteInDebt",
      "type": "event"
    },
    {
      "anonymous": false,
      "inputs": [
        {
          "indexed": false,
          "internalType": "uint256",
          "name": "newQuoteReserve",
          "type": "uint256"
        }
      ],
      "name": "UpdateQuoteReserve",
      "type": "event"
    },
    {
      "anonymous": false,
      "inputs": [
        {
          "indexed": true,
          "internalType": "address",
          "name": "sender",
          "type": "address"
        },
        {
          "indexed": true,
          "internalType": "bytes32",
          "name": "positionKey",
          "type": "bytes32"
        },
        {
          "indexed": false,
          "internalType": "uint256",
          "name": "newStoplossPrice",
          "type": "uint256"
        },
        {
          "indexed": false,
          "internalType": "address",
          "name": "updater",
          "type": "address"
        },
        {
          "indexed": false,
          "internalType": "address",
          "name": "serviceToken",
          "type": "address"
        },
        {
          "indexed": false,
          "internalType": "uint256",
          "name": "serviceFee",
          "type": "uint256"
        }
      ],
      "name": "UpdateStoplossPrice",
      "type": "event"
    },
    {
      "anonymous": false,
      "inputs": [
        {
          "indexed": false,
          "internalType": "uint256",
          "name": "newWithdrawingLiquidity",
          "type": "uint256"
        }
      ],
      "name": "UpdateWithdrawingLiquidity",
      "type": "event"
    },
    {
      "inputs": [],
      "name": "accFee",
      "outputs": [
        {
          "internalType": "uint256",
          "name": "",
          "type": "uint256"
        }
      ],
      "stateMutability": "view",
      "type": "function"
    },
    {
      "inputs": [],
      "name": "accFeePerShare",
      "outputs": [
        {
          "internalType": "uint256",
          "name": "",
          "type": "uint256"
        }
      ],
      "stateMutability": "view",
      "type": "function"
    },
    {
      "inputs": [],
      "name": "accProtocolFee",
      "outputs": [
        {
          "internalType": "uint256",
          "name": "",
          "type": "uint256"
        }
      ],
      "stateMutability": "view",
      "type": "function"
    },
    {
      "inputs": [
        {
          "internalType": "uint256",
          "name": "_liquidity",
          "type": "uint256"
        },
        {
          "internalType": "address",
          "name": "_to",
          "type": "address"
        },
        {
          "internalType": "bytes",
          "name": "_data",
          "type": "bytes"
        }
      ],
      "name": "addBurnRequest",
      "outputs": [
        {
          "internalType": "uint256",
          "name": "",
          "type": "uint256"
        }
      ],
      "stateMutability": "nonpayable",
      "type": "function"
    },
    {
      "inputs": [],
      "name": "availLiquidity",
      "outputs": [],
      "stateMutability": "nonpayable",
      "type": "function"
    },
    {
      "inputs": [],
      "name": "availableLiquidity",
      "outputs": [
        {
          "internalType": "uint256",
          "name": "",
          "type": "uint256"
        }
      ],
      "stateMutability": "view",
      "type": "function"
    },
    {
      "inputs": [
        {
          "internalType": "address",
          "name": "",
          "type": "address"
        }
      ],
      "name": "baseReserve",
      "outputs": [
        {
          "internalType": "uint256",
          "name": "",
          "type": "uint256"
        }
      ],
      "stateMutability": "view",
      "type": "function"
    },
    {
      "inputs": [
        {
          "components": [
            {
              "internalType": "uint256",
              "name": "index",
              "type": "uint256"
            },
            {
              "internalType": "address",
              "name": "owner",
              "type": "address"
            },
            {
              "internalType": "address",
              "name": "quoteToken",
              "type": "address"
            },
            {
              "internalType": "uint256",
              "name": "liquidity",
              "type": "uint256"
            },
            {
              "internalType": "address",
              "name": "to",
              "type": "address"
            },
            {
              "internalType": "bytes",
              "name": "data",
              "type": "bytes"
            },
            {
              "internalType": "string",
              "name": "callbackResult",
              "type": "string"
            }
          ],
          "internalType": "struct IWithdrawalMonitor.WithdrawalRequest",
          "name": "_request",
          "type": "tuple"
        }
      ],
      "name": "burn",
      "outputs": [],
      "stateMutability": "nonpayable",
      "type": "function"
    },
    {
      "inputs": [
        {
          "internalType": "address",
          "name": "_owner",
          "type": "address"
        }
      ],
      "name": "claimableFee",
      "outputs": [
        {
          "internalType": "uint256",
          "name": "amount",
          "type": "uint256"
        }
      ],
      "stateMutability": "view",
      "type": "function"
    },
    {
      "inputs": [
        {
          "components": [
            {
              "internalType": "bytes32",
              "name": "positionKey",
              "type": "bytes32"
            },
            {
              "internalType": "bytes",
              "name": "data0",
              "type": "bytes"
            },
            {
              "internalType": "bytes",
              "name": "data1",
              "type": "bytes"
            },
            {
              "internalType": "address",
              "name": "closer",
              "type": "address"
            }
          ],
          "internalType": "struct IPositionStorage.CloseTradePositionParams",
          "name": "_params",
          "type": "tuple"
        }
      ],
      "name": "close",
      "outputs": [],
      "stateMutability": "nonpayable",
      "type": "function"
    },
    {
      "inputs": [
        {
          "internalType": "bytes32",
          "name": "_positionKey",
          "type": "bytes32"
        },
        {
          "internalType": "address",
          "name": "_executor",
          "type": "address"
        }
      ],
      "name": "closeManuallyStep1",
      "outputs": [],
      "stateMutability": "nonpayable",
      "type": "function"
    },
    {
      "inputs": [
        {
          "internalType": "bytes32",
          "name": "_positionKey",
          "type": "bytes32"
        },
        {
          "internalType": "uint256",
          "name": "_baseValue",
          "type": "uint256"
        },
        {
          "internalType": "uint256",
          "name": "_remainingCollateralAmount",
          "type": "uint256"
        },
        {
          "internalType": "uint256",
          "name": "_liquidationFee",
          "type": "uint256"
        }
      ],
      "name": "closeManuallyStep2",
      "outputs": [],
      "stateMutability": "nonpayable",
      "type": "function"
    },
    {
      "inputs": [
        {
          "internalType": "address",
          "name": "",
          "type": "address"
        }
      ],
      "name": "collateralReserve",
      "outputs": [
        {
          "internalType": "uint256",
          "name": "",
          "type": "uint256"
        }
      ],
      "stateMutability": "view",
      "type": "function"
    },
    {
      "inputs": [
        {
          "internalType": "address",
          "name": "_to",
          "type": "address"
        },
        {
          "internalType": "uint256",
          "name": "_amount",
          "type": "uint256"
        }
      ],
      "name": "collect",
      "outputs": [],
      "stateMutability": "nonpayable",
      "type": "function"
    },
    {
      "inputs": [],
      "name": "factory",
      "outputs": [
        {
          "internalType": "address",
          "name": "",
          "type": "address"
        }
      ],
      "stateMutability": "view",
      "type": "function"
    },
    {
      "inputs": [
        {
          "internalType": "address",
          "name": "_factory",
          "type": "address"
        },
        {
          "internalType": "address",
          "name": "_quoteToken",
          "type": "address"
        },
        {
          "internalType": "uint256",
          "name": "_interest",
          "type": "uint256"
        }
      ],
      "name": "initialize",
      "outputs": [],
      "stateMutability": "nonpayable",
      "type": "function"
    },
    {
      "inputs": [],
      "name": "interest",
      "outputs": [
        {
          "internalType": "uint256",
          "name": "",
          "type": "uint256"
        }
      ],
      "stateMutability": "view",
      "type": "function"
    },
    {
      "inputs": [
        {
          "internalType": "address",
          "name": "",
          "type": "address"
        }
      ],
      "name": "liquidityPosition",
      "outputs": [
        {
          "internalType": "uint256",
          "name": "liquidity",
          "type": "uint256"
        },
        {
          "internalType": "uint256",
          "name": "feeDebt",
          "type": "uint256"
        },
        {
          "internalType": "uint256",
          "name": "pendingFee",
          "type": "uint256"
        },
        {
          "internalType": "uint256",
          "name": "withdrawingLiquidity",
          "type": "uint256"
        }
      ],
      "stateMutability": "view",
      "type": "function"
    },
    {
      "inputs": [
        {
          "internalType": "address",
          "name": "_to",
          "type": "address"
        },
        {
          "internalType": "uint256",
          "name": "_liquidity",
          "type": "uint256"
        },
        {
          "internalType": "bytes",
          "name": "_data",
          "type": "bytes"
        }
      ],
      "name": "mint",
      "outputs": [],
      "stateMutability": "nonpayable",
      "type": "function"
    },
    {
      "inputs": [
        {
          "components": [
            {
              "internalType": "address",
              "name": "owner",
              "type": "address"
            },
            {
              "internalType": "address",
              "name": "baseToken",
              "type": "address"
            },
            {
              "internalType": "address",
              "name": "quoteToken",
              "type": "address"
            },
            {
              "internalType": "address",
              "name": "collateral",
              "type": "address"
            },
            {
              "internalType": "uint256",
              "name": "baseAmount",
              "type": "uint256"
            },
            {
              "internalType": "uint256",
              "name": "quoteAmount",
              "type": "uint256"
            },
            {
              "internalType": "uint256",
              "name": "collateralAmount",
              "type": "uint256"
            },
            {
              "internalType": "uint256",
              "name": "deadline",
              "type": "uint256"
            },
            {
              "internalType": "uint256",
              "name": "stoplossPrice",
              "type": "uint256"
            }
          ],
          "internalType": "struct IPositionStorage.OpenTradePositionParams",
          "name": "_params",
          "type": "tuple"
        }
      ],
      "name": "open",
      "outputs": [
        {
          "internalType": "bytes32",
          "name": "positionKey",
          "type": "bytes32"
        }
      ],
      "stateMutability": "nonpayable",
      "type": "function"
    },
    {
      "inputs": [],
      "name": "precision",
      "outputs": [
        {
          "internalType": "uint256",
          "name": "",
          "type": "uint256"
        }
      ],
      "stateMutability": "view",
      "type": "function"
    },
    {
      "inputs": [],
      "name": "quoteInDebt",
      "outputs": [
        {
          "internalType": "uint256",
          "name": "",
          "type": "uint256"
        }
      ],
      "stateMutability": "view",
      "type": "function"
    },
    {
      "inputs": [],
      "name": "quoteReserve",
      "outputs": [
        {
          "internalType": "uint256",
          "name": "",
          "type": "uint256"
        }
      ],
      "stateMutability": "view",
      "type": "function"
    },
    {
      "inputs": [],
      "name": "quoteToken",
      "outputs": [
        {
          "internalType": "address",
          "name": "",
          "type": "address"
        }
      ],
      "stateMutability": "view",
      "type": "function"
    },
    {
      "inputs": [
        {
          "components": [
            {
              "internalType": "bytes32",
              "name": "positionKey",
              "type": "bytes32"
            },
            {
              "internalType": "address",
              "name": "rollbacker",
              "type": "address"
            }
          ],
          "internalType": "struct IPositionStorage.RollbackTradePositionParams",
          "name": "_params",
          "type": "tuple"
        }
      ],
      "name": "rollback",
      "outputs": [],
      "stateMutability": "nonpayable",
      "type": "function"
    },
    {
      "inputs": [
        {
          "internalType": "address[]",
          "name": "_baseTokens",
          "type": "address[]"
        },
        {
          "internalType": "bool[]",
          "name": "_tradeables",
          "type": "bool[]"
        }
      ],
      "name": "setBaseTokens",
      "outputs": [],
      "stateMutability": "nonpayable",
      "type": "function"
    },
    {
      "inputs": [
        {
          "internalType": "uint256",
          "name": "_interest",
          "type": "uint256"
        }
      ],
      "name": "setInterest",
      "outputs": [],
      "stateMutability": "nonpayable",
      "type": "function"
    },
    {
      "inputs": [
        {
          "internalType": "address",
          "name": "",
          "type": "address"
        }
      ],
      "name": "tradeableBaseToken",
      "outputs": [
        {
          "internalType": "bool",
          "name": "",
          "type": "bool"
        }
      ],
      "stateMutability": "view",
      "type": "function"
    },
    {
      "inputs": [
        {
          "components": [
            {
              "internalType": "bytes32",
              "name": "positionKey",
              "type": "bytes32"
            },
            {
              "internalType": "uint256",
              "name": "amount",
              "type": "uint256"
            },
            {
              "internalType": "address",
              "name": "updater",
              "type": "address"
            }
          ],
          "internalType": "struct IPositionStorage.UpdateCollateralAmountParams",
          "name": "_params",
          "type": "tuple"
        }
      ],
      "name": "updateCollateralAmount",
      "outputs": [
        {
          "internalType": "uint256",
          "name": "collateralLiqPrice",
          "type": "uint256"
        },
        {
          "internalType": "uint256",
          "name": "baseLiqPrice",
          "type": "uint256"
        }
      ],
      "stateMutability": "nonpayable",
      "type": "function"
    },
    {
      "inputs": [
        {
          "components": [
            {
              "internalType": "bytes32",
              "name": "positionKey",
              "type": "bytes32"
            },
            {
              "internalType": "uint256",
              "name": "deadline",
              "type": "uint256"
            },
            {
              "internalType": "address",
              "name": "updater",
              "type": "address"
            }
          ],
          "internalType": "struct IPositionStorage.UpdateDeadlineParams",
          "name": "_params",
          "type": "tuple"
        }
      ],
      "name": "updateDeadline",
      "outputs": [],
      "stateMutability": "nonpayable",
      "type": "function"
    },
    {
      "inputs": [
        {
          "components": [
            {
              "internalType": "bytes32",
              "name": "positionKey",
              "type": "bytes32"
            },
            {
              "internalType": "uint256",
              "name": "stoplossPrice",
              "type": "uint256"
            },
            {
              "internalType": "address",
              "name": "updater",
              "type": "address"
            }
          ],
          "internalType": "struct IPositionStorage.UpdateStoplossPriceParams",
          "name": "_params",
          "type": "tuple"
        }
      ],
      "name": "updateStoplossPrice",
      "outputs": [],
      "stateMutability": "nonpayable",
      "type": "function"
    },
    {
      "inputs": [],
      "name": "withdrawingLiquidity",
      "outputs": [
        {
          "internalType": "uint256",
          "name": "",
          "type": "uint256"
        }
      ],
      "stateMutability": "view",
      "type": "function"
    }
  ],
  "bytecode": "0x6080604052600160005534801561001557600080fd5b506158c880620000266000396000f3fe608060405234801561001057600080fd5b50600436106101f05760003560e01c80638da11bfb1161010f578063d3b5dc3b116100a2578063dd3b829a11610071578063dd3b829a1461045e578063fba0c81414610467578063fc9ffe101461047a578063ffc9dcbb1461048d57600080fd5b8063d3b5dc3b146103da578063d43c1b69146103e3578063d4fd6905146103f6578063d8f2cab71461044b57600080fd5b8063ada3112f116100de578063ada3112f146103ad578063ba343922146103b6578063c392f766146103be578063c45a0155146103c757600080fd5b80638da11bfb1461036b57806394d008ef1461037e5780639da771f414610391578063a1c59afc1461039a57600080fd5b806341ba5951116101875780636b8357ac116101565780636b8357ac14610308578063743753591461031b5780637c08ddc9146103235780638b6e00fa1461034b57600080fd5b806341ba5951146102c657806359129e75146102d9578063653741ff146102ec578063685b61d0146102ff57600080fd5b80631d086720116101c35780631d0867201461026c578063217a4b701461027f57806327014e33146102aa57806332196a01146102b357600080fd5b80630121c777146101f55780630adcf0f5146102115780631636e199146102445780631794bb3c14610259575b600080fd5b6101fe60075481565b6040519081526020015b60405180910390f35b61023461021f366004614bb8565b600b6020526000908152604090205460ff1681565b6040519015158152602001610208565b610257610252366004615047565b6104ad565b005b610257610267366004614bf2565b6107cb565b61025761027a36600461513a565b6108a6565b600254610292906001600160a01b031681565b6040516001600160a01b039091168152602001610208565b6101fe60095481565b6102576102c1366004614cba565b61090f565b6101fe6102d4366004614eca565b610a99565b6102576102e7366004614db8565b610f65565b6101fe6102fa366004615178565b61125f565b6101fe60065481565b610257610316366004614c33565b6113fa565b6101fe611556565b610336610331366004615047565b611565565b60408051928352602083019190915201610208565b6101fe610359366004614bb8565b600d6020526000908152604090205481565b610257610379366004615063565b6118a4565b61025761038c366004614c5f565b611dd7565b6101fe60055481565b6101fe6103a8366004614bb8565b61208e565b6101fe60085481565b610257612127565b6101fe60045481565b600154610292906001600160a01b031681565b6101fe60035481565b6102576103f1366004614f61565b6121ec565b61042b610404366004614bb8565b600e6020526000908152604090208054600182015460028301546003909301549192909184565b604080519485526020850193909352918301526060820152608001610208565b610257610459366004614de8565b6127a4565b6101fe600a5481565b610257610475366004614e90565b612d60565b610257610488366004615047565b61357d565b6101fe61049b366004614bb8565b600c6020526000908152604090205481565b6000546001146104d0576040516303cb96db60e21b815260040160405180910390fd5b60008055600154604051639a30739160e01b81523360048201526001600160a01b0390911690639a3073919060240160206040518083038186803b15801561051757600080fd5b505afa15801561052b573d6000803e3d6000fd5b505050506040513d601f19601f8201168201806040525081019061054f9190614d82565b6105735760405163a59d7f4d60e01b81523360048201526024015b60405180910390fd5b600154604080516316ed252d60e31b815290516001600160a01b0390921691600091839163b769296891600480820192602092909190829003018186803b1580156105bd57600080fd5b505afa1580156105d1573d6000803e3d6000fd5b505050506040513d601f19601f820116820180604052508101906105f59190614bd5565b90506000826001600160a01b031663b58862e76040518163ffffffff1660e01b815260040160206040518083038186803b15801561063257600080fd5b505afa158015610646573d6000803e3d6000fd5b505050506040513d601f19601f8201168201806040525081019061066a9190614d9f565b905061067783838361399d565b6000836001600160a01b0316638cd474156040518163ffffffff1660e01b815260040160206040518083038186803b1580156106b257600080fd5b505afa1580156106c6573d6000803e3d6000fd5b505050506040513d601f19601f820116820180604052508101906106ea9190614bd5565b604051631636e19960e01b81529091506001600160a01b03821690631636e1999061071990889060040161550f565b600060405180830381600087803b15801561073357600080fd5b505af1158015610747573d6000803e3d6000fd5b505050508460000151336001600160a01b03167f7c0fff48e86bd50569aca67e1ee9743c3f93cf5e0aab3bf35f9c8ae0579c29538760200151886040015187876040516107b794939291909384526001600160a01b03928316602085015291166040830152606082015260800190565b60405180910390a350506001600055505050565b6001546001600160a01b0316156107f5576040516373e833b960e11b815260040160405180910390fd5b600180546001600160a01b038086166001600160a01b0319928316179092556002805492851692909116821790556040805163313ce56760e01b8152905163313ce56791600480820192602092909190829003018186803b15801561085957600080fd5b505afa15801561086d573d6000803e3d6000fd5b505050506040513d601f19601f8201168201806040525081019061089191906151df565b61089c90600a615705565b6003556004555050565b6001546001600160a01b031633146108d35760405163a59d7f4d60e01b815233600482015260240161056a565b60048190556040518181527f81ed86e8cfa3004fc54732477c3eda4f4c606394a0b423aba78153a3e696f65d906020015b60405180910390a150565b6001546001600160a01b0316331461093c5760405163a59d7f4d60e01b815233600482015260240161056a565b600254815183516001600160a01b03909216911461097a578251825160405163574092f960e01b81526004810192909252602482015260440161056a565b60005b8351811015610a935782818151811061099857610998615843565b6020026020010151600b60008684815181106109b6576109b6615843565b60200260200101516001600160a01b03166001600160a01b0316815260200190815260200160002060006101000a81548160ff0219169083151502179055507fec4f975deac1f5c1d92fd5f7a2b08d2c4e3e60215ab50703da45f8f8e9f2fc9b848281518110610a2857610a28615843565b602002602001015183858481518110610a4357610a43615843565b6020026020010151604051610a79939291906001600160a01b039384168152919092166020820152901515604082015260600190565b60405180910390a180610a8b81615812565b91505061097d565b50505050565b60008054600114610abd576040516303cb96db60e21b815260040160405180910390fd5b6000805560025460408301516001600160a01b0391821691168114610b0e576040808401519051630158332360e41b81526001600160a01b039182166004820152908216602482015260440161056a565b82604001516001600160a01b031683602001516001600160a01b03161415610b4957604051630e52390960e41b815260040160405180910390fd5b610b5283613a70565b610b6f5760405163f8b3bb6160e01b815260040160405180910390fd5b60015460408051638cd4741560e01b815290516000926001600160a01b031691638cd47415916004808301926020929190829003018186803b158015610bb457600080fd5b505afa158015610bc8573d6000803e3d6000fd5b505050506040513d601f19601f82011682018060405250810190610bec9190614bd5565b60408051631a37982d60e01b815286516001600160a01b03908116600483015260208801518116602483015291870151821660448201526060870151821660648201526080870151608482015260a087015160a482015260c087015160c482015260e087015160e482015261010087015161010482015291925060009190831690631a37982d90610124016103806040518083038186803b158015610c9057600080fd5b505afa158015610ca4573d6000803e3d6000fd5b505050506040513d601f19601f82011682018060405250810190610cc89190614f73565b60208101519091506001600160a01b0316610cf657604051630e52390960e41b815260040160405180910390fd5b6000816101000151826080015160200151610d1191906157cf565b90506000610d1d613d9f565b905080821115610d405760405163bb2875c360e01b815260040160405180910390fd5b60405163c6663cab60e01b81526001600160a01b0385169063c6663cab90610d6c9086906004016153c1565b602060405180830381600087803b158015610d8657600080fd5b505af1158015610d9a573d6000803e3d6000fd5b505050506040513d601f19601f82011682018060405250810190610dbe9190614d9f565b9550610dda8760a00151600654610dd59190615688565b613e80565b610df8836101200151846101000151610df391906157cf565b613eb5565b610e13836101200151600954610e0e9190615688565b613f2f565b60208088015160808901516001600160a01b0382166000908152600c909352604090922054610e4a92610e4591615688565b613f64565b606087015160c08801516001600160a01b0382166000908152600d6020526040902054610e809291610e7b91615688565b613fbd565b610e938588600001518960a0015161400e565b8587600001516001600160a01b0316336001600160a01b03167f6fa15176f59ef643f98e48bb7bbcdc1f7ed128c889a18626d6c28f6e7e2dece48a602001518b604001518c606001518d608001518e60a001518f60c001518c61010001518d6101200151604051610f4d9897969594939291906001600160a01b03988916815296881660208801529490961660408601526060850192909252608084015260a083015260c082019290925260e08101919091526101000190565b60405180910390a45050600160005550919392505050565b600054600114610f88576040516303cb96db60e21b815260040160405180910390fd5b60008055600154604051639a30739160e01b81523360048201526001600160a01b0390911690639a3073919060240160206040518083038186803b158015610fcf57600080fd5b505afa158015610fe3573d6000803e3d6000fd5b505050506040513d601f19601f820116820180604052508101906110079190614d82565b6110265760405163a59d7f4d60e01b815233600482015260240161056a565b60015460408051638cd4741560e01b815290516000926001600160a01b031691638cd47415916004808301926020929190829003018186803b15801561106b57600080fd5b505afa15801561107f573d6000803e3d6000fd5b505050506040513d601f19601f820116820180604052508101906110a39190614bd5565b604051631601180b60e31b8152600481018590529091506001600160a01b0382169063b008c05890602401600060405180830381600087803b1580156110e857600080fd5b505af11580156110fc573d6000803e3d6000fd5b505060405163506ae89360e11b815260048101869052600092506001600160a01b038416915063a0d5d126906024016103806040518083038186803b15801561114457600080fd5b505afa158015611158573d6000803e3d6000fd5b505050506040513d601f19601f8201168201806040525081019061117c9190614f73565b90506111998160600151600001518483606001516020015161400e565b6111b48160a0015160000151848360a001516020015161400e565b606081015180516020918201516001600160a01b0382166000908152600c9093526040909220546111e892610e45916157cf565b60a081015180516020918201516001600160a01b0382166000908152600d90935260409092205461121c92610e7b916157cf565b6040516001600160a01b03841690859033907f1cc79853bbf119208b3fab3b7d33fcdb6ceaee7c8b16b89bdb389ed3b51ad17c90600090a4505060016000555050565b60008054600114611283576040516303cb96db60e21b815260040160405180910390fd5b6000808055338152600e60205260409020805460038201546112a59088615688565b11156112c45760405163bb2875c360e01b815260040160405180910390fd5b858160030160008282546112d89190615688565b90915550506001546040805163a4fbc0d760e01b815290516000926001600160a01b03169163a4fbc0d7916004808301926020929190829003018186803b15801561132257600080fd5b505afa158015611336573d6000803e3d6000fd5b505050506040513d601f19601f8201168201806040525081019061135a9190614bd5565b60025460405163130e06fd60e31b81529192506001600160a01b038084169263987037e8926113989233929116908c908c908c908c90600401615308565b602060405180830381600087803b1580156113b257600080fd5b505af11580156113c6573d6000803e3d6000fd5b505050506040513d601f19601f820116820180604052508101906113ea9190614d9f565b6001600055979650505050505050565b60005460011461141d576040516303cb96db60e21b815260040160405180910390fd5b600080558061143f57604051637c946ed760e01b815260040160405180910390fd5b336000908152600e60205260409020600a5460035482541561149b5760018301548354829061146e90856157b0565b61147891906156a0565b61148291906157cf565b8360020160008282546114959190615688565b90915550505b825481906114a990846157b0565b6114b391906156a0565b600184015560028301548411806114cb575060085484115b156114e95760405163bb2875c360e01b815260040160405180910390fd5b838360020160008282546114fd91906157cf565b9091555050600254611519906001600160a01b0316868661400e565b6040518481526001600160a01b0386169033907f1314fd112a381beea61539dbd21ec04afcff2662ac7d1b83273aade1f53d1b97906020016107b7565b6000611560613d9f565b905090565b60008060005460011461158b576040516303cb96db60e21b815260040160405180910390fd5b60008055600154604051639a30739160e01b81523360048201526001600160a01b0390911690639a3073919060240160206040518083038186803b1580156115d257600080fd5b505afa1580156115e6573d6000803e3d6000fd5b505050506040513d601f19601f8201168201806040525081019061160a9190614d82565b6116295760405163a59d7f4d60e01b815233600482015260240161056a565b600154604080516316ed252d60e31b815290516001600160a01b0390921691600091839163b769296891600480820192602092909190829003018186803b15801561167357600080fd5b505afa158015611687573d6000803e3d6000fd5b505050506040513d601f19601f820116820180604052508101906116ab9190614bd5565b90506000826001600160a01b0316632a5025b76040518163ffffffff1660e01b815260040160206040518083038186803b1580156116e857600080fd5b505afa1580156116fc573d6000803e3d6000fd5b505050506040513d601f19601f820116820180604052508101906117209190614d9f565b905061172d83838361399d565b6000836001600160a01b0316638cd474156040518163ffffffff1660e01b815260040160206040518083038186803b15801561176857600080fd5b505afa15801561177c573d6000803e3d6000fd5b505050506040513d601f19601f820116820180604052508101906117a09190614bd5565b604051637c08ddc960e01b81529091506001600160a01b03821690637c08ddc9906117cf908a9060040161550f565b6040805180830381600087803b1580156117e857600080fd5b505af11580156117fc573d6000803e3d6000fd5b505050506040513d601f19601f8201168201806040525081019061182091906151bb565b88516020808b01516040808d0151815192835292820186905281018490526001600160a01b039182166060820152908716608082015260a081018690529298509096509033907f8569ee396f8645b751317bd06902606babc21aa65fcc4292837416cb826924ad9060c00160405180910390a3505050506001600081905550915091565b6000546001146118c7576040516303cb96db60e21b815260040160405180910390fd5b600080556001546040805163a4fbc0d760e01b815290516001600160a01b039092169163a4fbc0d791600480820192602092909190829003018186803b15801561191057600080fd5b505afa158015611924573d6000803e3d6000fd5b505050506040513d601f19601f820116820180604052508101906119489190614bd5565b6001600160a01b0316336001600160a01b03161461197b5760405163a59d7f4d60e01b815233600482015260240161056a565b6020808201516001600160a01b03166000908152600e909152604090206003810154606083015111156119c15760405163bb2875c360e01b815260040160405180910390fd5b6007546060830151811015611a1a5760006119da613d9f565b90506119e68183615688565b84606001511115611a0a5760405163bb2875c360e01b815260040160405180910390fd5b611a14600061412c565b50611a32565b611a32836060015182611a2d91906157cf565b61412c565b600a54600354835415611a7f57600184015484548290611a5290856157b0565b611a5c91906156a0565b611a6691906157cf565b846002016000828254611a799190615688565b90915550505b8460600151846000016000828254611a9791906157cf565b90915550506060850151600385018054600090611ab59084906157cf565b909155505083548190611ac890846157b0565b611ad291906156a0565b60018501556060850151600554611af191611aec916157cf565b614161565b611af9614196565b60a08501515115611d70576001546040805163a4fbc0d760e01b815290516000926001600160a01b03169163a4fbc0d7916004808301926020929190829003018186803b158015611b4957600080fd5b505afa158015611b5d573d6000803e3d6000fd5b505050506040513d601f19601f82011682018060405250810190611b819190614bd5565b9050600086606001518760a00151604051602401611ba0929190615539565b60408051601f19818403018152918152602080830180516001600160e01b031663462cc8ff60e11b179052890151905191925060009182916001600160a01b031690611bed9085906152c8565b6000604051808303816000865af19150503d8060008114611c2a576040519150601f19603f3d011682016040523d82523d6000602084013e611c2f565b606091505b509150915081611d6b57604481511015611ced578851604051634d4a6fbb60e01b81526001600160a01b03861691634d4a6fbb91611cb691906004019081526040602082018190526024908201527f43616c6c6261636b207472616e73616374696f6e206661696c65642073696c656060820152636e746c7960e01b608082015260a00190565b600060405180830381600087803b158015611cd057600080fd5b505af1158015611ce4573d6000803e3d6000fd5b50505050611d6b565b600481019050836001600160a01b0316634d4a6fbb8a6000015183806020019051810190611d1b9190614e1a565b6040518363ffffffff1660e01b8152600401611d38929190615539565b600060405180830381600087803b158015611d5257600080fd5b505af1158015611d66573d6000803e3d6000fd5b505050505b505050505b60025460808601516060870151611d91926001600160a01b0316919061400e565b606085015160405190815233907fcc16f5dbb4873280815c1ee09dbd06736cffcc184412cf7a71a0fdb75d397ca59060200160405180910390a250506001600055505050565b600054600114611dfa576040516303cb96db60e21b815260040160405180910390fd5b60008080556002546001600160a01b038681168352600e6020526040909220600a54600354825494909316939192909115611e6f57600183015483548290611e4290856157b0565b611e4c91906156a0565b611e5691906157cf565b836002016000828254611e699190615688565b90915550505b86836000016000828254611e839190615688565b909155505082548190611e9690846157b0565b611ea091906156a0565b6001840155600554611eb790611aec908990615688565b611ebf614196565b6040516370a0823160e01b81523060048201526000906001600160a01b038616906370a082319060240160206040518083038186803b158015611f0157600080fd5b505afa158015611f15573d6000803e3d6000fd5b505050506040513d601f19601f82011682018060405250810190611f399190614d9f565b6040516303a3bcd760e01b815290915033906303a3bcd790611f659088908c908c908c9060040161538f565b600060405180830381600087803b158015611f7f57600080fd5b505af1158015611f93573d6000803e3d6000fd5b50506040516370a0823160e01b8152306004820152600092506001600160a01b03881691506370a082319060240160206040518083038186803b158015611fd957600080fd5b505afa158015611fed573d6000803e3d6000fd5b505050506040513d601f19601f820116820180604052508101906120119190614d9f565b905061201d8983615688565b81101561203d5760405163f8b3bb6160e01b815260040160405180910390fd5b6040518981526001600160a01b038b169033907fab8530f87dc9b59234c4623bf917212bb2536d647574c8e7e5da92c2ede0c9f89060200160405180910390a3505060016000555050505050505050565b6001600160a01b0381166000908152600e6020908152604080832081516080810183528154808252600183015494820185905260028301549382019390935260039182015460608201529054600a5491939290916120ec91906157b0565b6120f691906156a0565b82604001516121059190615688565b61210f91906157cf565b91506008548211156121215760085491505b50919050565b600160009054906101000a90046001600160a01b03166001600160a01b031663a4fbc0d76040518163ffffffff1660e01b815260040160206040518083038186803b15801561217557600080fd5b505afa158015612189573d6000803e3d6000fd5b505050506040513d601f19601f820116820180604052508101906121ad9190614bd5565b6001600160a01b0316336001600160a01b0316146121e05760405163a59d7f4d60e01b815233600482015260240161056a565b6121ea600061412c565b565b60005460011461220f576040516303cb96db60e21b815260040160405180910390fd5b60008055600154604051639a30739160e01b81523360048201526001600160a01b0390911690639a3073919060240160206040518083038186803b15801561225657600080fd5b505afa15801561226a573d6000803e3d6000fd5b505050506040513d601f19601f8201168201806040525081019061228e9190614d82565b6122ad5760405163a59d7f4d60e01b815233600482015260240161056a565b60015460408051638cd4741560e01b815290516001600160a01b03909216916000918391638cd4741591600480820192602092909190829003018186803b1580156122f757600080fd5b505afa15801561230b573d6000803e3d6000fd5b505050506040513d601f19601f8201168201806040525081019061232f9190614bd5565b60405163506ae89360e11b8152843560048201529091506000906001600160a01b0383169063a0d5d126906024016103806040518083038186803b15801561237657600080fd5b505afa15801561238a573d6000803e3d6000fd5b505050506040513d601f19601f820116820180604052508101906123ae9190614f73565b90506000836001600160a01b031663b76929686040518163ffffffff1660e01b815260040160206040518083038186803b1580156123eb57600080fd5b505afa1580156123ff573d6000803e3d6000fd5b505050506040513d601f19601f820116820180604052508101906124239190614bd5565b90506000846001600160a01b0316633c0930376040518163ffffffff1660e01b815260040160206040518083038186803b15801561246057600080fd5b505afa158015612474573d6000803e3d6000fd5b505050506040513d601f19601f820116820180604052508101906124989190614d9f565b6002549091506001600160a01b03838116911614156124f75760006124bb614253565b9050818460800151602001516124d19190615688565b8110156124f15760405163f8b3bb6160e01b815260040160405180910390fd5b5061255d565b6000612501614253565b905083608001516020015181101561252c5760405163f8b3bb6160e01b815260040160405180910390fd5b60006125378461430e565b90508281101561255a5760405163f8b3bb6160e01b815260040160405180910390fd5b50505b6001600160a01b038216158015906125755750600081115b156125fc576000856001600160a01b031663e9a4e7a26040518163ffffffff1660e01b815260040160206040518083038186803b1580156125b557600080fd5b505afa1580156125c9573d6000803e3d6000fd5b505050506040513d601f19601f820116820180604052508101906125ed9190614bd5565b90506125fa83828461400e565b505b6001600160a01b038416639a102341873561261d60408a0160208b01614bb8565b6040516001600160e01b031960e085901b16815260048101929092526001600160a01b03166024820152604401600060405180830381600087803b15801561266457600080fd5b505af1158015612678573d6000803e3d6000fd5b50505050612695836080015160200151600654610dd591906157cf565b6126ae836080015160200151600754611a2d9190615688565b606083015180516020918201516001600160a01b0382166000908152600c9093526040909220546126e292610e45916157cf565b60a083015180516020918201516001600160a01b0382166000908152600d90935260409092205461271692610e7b916157cf565b60608301518051602080860151920151612730929061400e565b60a0830151805160208086015192015161274a929061400e565b8251337f415e462bce09ff3142dc51f9a6878d89bb34d75a21bc8ffc7fc397eccce872e961277e60408a0160208b01614bb8565b858560405161278f939291906152e4565b60405180910390a35050600160005550505050565b6000546001146127c7576040516303cb96db60e21b815260040160405180910390fd5b60008055600154604051639a30739160e01b81523360048201526001600160a01b0390911690639a3073919060240160206040518083038186803b15801561280e57600080fd5b505afa158015612822573d6000803e3d6000fd5b505050506040513d601f19601f820116820180604052508101906128469190614d82565b6128655760405163a59d7f4d60e01b815233600482015260240161056a565b60015460408051638cd4741560e01b815290516000926001600160a01b031691638cd47415916004808301926020929190829003018186803b1580156128aa57600080fd5b505afa1580156128be573d6000803e3d6000fd5b505050506040513d601f19601f820116820180604052508101906128e29190614bd5565b60405163506ae89360e11b8152600481018790529091506000906001600160a01b0383169063a0d5d126906024016103806040518083038186803b15801561292957600080fd5b505afa15801561293d573d6000803e3d6000fd5b505050506040513d601f19601f820116820180604052508101906129619190614f73565b60808101515160a0820151519192506001600160a01b03918216911614156129ca57600061298d614253565b90508361299a8688615688565b6129a49190615688565b8110156129c45760405163f8b3bb6160e01b815260040160405180910390fd5b50612ae9565b60006129d4614253565b90506129e08487615688565b811015612a005760405163f8b3bb6160e01b815260040160405180910390fd5b60a082018051516001600160a01b039081166000908152600d602090815260408083205485515185168452600c9092528083205494515190516370a0823160e01b815230600482015291949316906370a082319060240160206040518083038186803b158015612a6f57600080fd5b505afa158015612a83573d6000803e3d6000fd5b505050506040513d601f19601f82011682018060405250810190612aa79190614d9f565b9050600082612ab685846157cf565b612ac091906157cf565b905088811015612ae35760405163f8b3bb6160e01b815260040160405180910390fd5b50505050505b60405163f71139f760e01b8152600481018790526001600160a01b0383169063f71139f790602401600060405180830381600087803b158015612b2b57600080fd5b505af1158015612b3f573d6000803e3d6000fd5b5050505060008084836080015160200151612b5a9190615688565b905080871015612b7157612b6e87826157cf565b91505b8251604051638b029d6160e01b815260048101919091526024810188905260448101839052606481018790526001600160a01b03851690638b029d6190608401600060405180830381600087803b158015612bcb57600080fd5b505af1158015612bdf573d6000803e3d6000fd5b50505050612bfc836080015160200151600654610dd591906157cf565b612c15836080015160200151600754611a2d9190615688565b8415612caf576001546040805163bd2bae9d60e01b815290516000926001600160a01b03169163bd2bae9d916004808301926020929190829003018186803b158015612c6057600080fd5b505afa158015612c74573d6000803e3d6000fd5b505050506040513d601f19601f82011682018060405250810190612c989190614bd5565b9050612cad846080015160000151828861400e565b505b81612ce1576000612cc082896157cf565b90508015612cdf57612cdf84608001516000015185602001518361400e565b505b8515612cfe57612cfe8360a001516000015184602001518861400e565b60208301516060840151516040518a926001600160a01b03169133917fad34241f9e3b3d38652a7493d4e07da1f3e88afa819a546544b20de727f2ffd891612d499184908c906152e4565b60405180910390a450506001600055505050505050565b600054600114612d83576040516303cb96db60e21b815260040160405180910390fd5b60008055600154604051639a30739160e01b81523360048201526001600160a01b0390911690639a3073919060240160206040518083038186803b158015612dca57600080fd5b505afa158015612dde573d6000803e3d6000fd5b505050506040513d601f19601f82011682018060405250810190612e029190614d82565b612e215760405163a59d7f4d60e01b815233600482015260240161056a565b60015460408051638cd4741560e01b815290516001600160a01b03909216916000918391638cd4741591600480820192602092909190829003018186803b158015612e6b57600080fd5b505afa158015612e7f573d6000803e3d6000fd5b505050506040513d601f19601f82011682018060405250810190612ea39190614bd5565b905060006001600160a01b03821663ac00b6748535612ec86080880160608901614bb8565b6040516001600160e01b031960e085901b16815260048101929092526001600160a01b03166024820152604401602060405180830381600087803b158015612f0f57600080fd5b505af1158015612f23573d6000803e3d6000fd5b505050506040513d601f19601f82011682018060405250810190612f479190614d82565b60405163506ae89360e11b8152853560048201529091506000906001600160a01b0384169063a0d5d126906024016103806040518083038186803b158015612f8e57600080fd5b505afa158015612fa2573d6000803e3d6000fd5b505050506040513d601f19601f82011682018060405250810190612fc69190614f73565b90506000846001600160a01b0316637c21d5e06040518163ffffffff1660e01b815260040160206040518083038186803b15801561300357600080fd5b505afa158015613017573d6000803e3d6000fd5b505050506040513d601f19601f8201168201806040525081019061303b9190614bd5565b6060830151805160808501515160209092015160405163d7176ca960e01b81526000600482018190526001600160a01b0393841660248301529383166044820152606481019190915292935090919083169063d7176ca990608401604080518083038186803b1580156130ad57600080fd5b505afa1580156130c1573d6000803e3d6000fd5b505050506040513d601f19601f820116820180604052508101906130e59190615153565b5090506130ff83826130fa60208b018b61555a565b6143f3565b60808301516020015160009085156131ad576000886001600160a01b0316635fb3b1b56040518163ffffffff1660e01b815260040160206040518083038186803b15801561314c57600080fd5b505afa158015613160573d6000803e3d6000fd5b505050506040513d601f19601f820116820180604052508101906131849190614d9f565b905061271061319382846157b0565b61319d91906156a0565b92506131a98383615688565b9150505b6000806000838610156132ec576131c486856157cf565b60808901515160a08a0151519194508492506001600160a01b039182169116146132ec5760a08801515160808901515160405163ec27830960e01b8152600060048201526001600160a01b0392831660248201529082166044820152606481018590529088169063ec27830990608401604080518083038186803b15801561324b57600080fd5b505afa15801561325f573d6000803e3d6000fd5b505050506040513d601f19601f820116820180604052508101906132839190615153565b5060a0890151602001519091508111156132c45760a088015160200151604051632c1f8ef160e21b815260048101919091526024810182905260440161056a565b6132df8882858f80604001906132da919061555a565b6145a7565b6132e99083615688565b91505b808860a001516020015161330091906157cf565b61330a9083615688565b8851604051638b029d6160e01b815260048101919091526024810188905260448101859052606481018290529092506001600160a01b038b169150638b029d6190608401600060405180830381600087803b15801561336857600080fd5b505af115801561337c573d6000803e3d6000fd5b50505050613399876080015160200151600654610dd591906157cf565b6133b2876080015160200151600754611a2d9190615688565b606087015180516020918201516001600160a01b0382166000908152600c9093526040909220546133e692610e45916157cf565b60a087015180516020918201516001600160a01b0382166000908152600d90935260409092205461341a92610e7b916157cf565b83156134aa5760008a6001600160a01b031663bd2bae9d6040518163ffffffff1660e01b815260040160206040518083038186803b15801561345b57600080fd5b505afa15801561346f573d6000803e3d6000fd5b505050506040513d601f19601f820116820180604052508101906134939190614bd5565b90506134a8886080015160000151828761400e565b505b816134dc5760006134bb84876157cf565b905080156134da576134da88608001516000015189602001518361400e565b505b80156134f9576134f98760a001516000015188602001518361400e565b866000015187602001516001600160a01b0316336001600160a01b03167fad34241f9e3b3d38652a7493d4e07da1f3e88afa819a546544b20de727f2ffd88a60600151600001518f60600160208101906135539190614bb8565b89604051613563939291906152e4565b60405180910390a450506001600055505050505050505050565b6000546001146135a0576040516303cb96db60e21b815260040160405180910390fd5b60008055600154604051639a30739160e01b81523360048201526001600160a01b0390911690639a3073919060240160206040518083038186803b1580156135e757600080fd5b505afa1580156135fb573d6000803e3d6000fd5b505050506040513d601f19601f8201168201806040525081019061361f9190614d82565b61363e5760405163a59d7f4d60e01b815233600482015260240161056a565b600154604080516316ed252d60e31b815290516001600160a01b0390921691600091839163b769296891600480820192602092909190829003018186803b15801561368857600080fd5b505afa15801561369c573d6000803e3d6000fd5b505050506040513d601f19601f820116820180604052508101906136c09190614bd5565b90506000826001600160a01b031663c79005846040518163ffffffff1660e01b815260040160206040518083038186803b1580156136fd57600080fd5b505afa158015613711573d6000803e3d6000fd5b505050506040513d601f19601f820116820180604052508101906137359190614d9f565b905061374283838361399d565b6000836001600160a01b0316638cd474156040518163ffffffff1660e01b815260040160206040518083038186803b15801561377d57600080fd5b505afa158015613791573d6000803e3d6000fd5b505050506040513d601f19601f820116820180604052508101906137b59190614bd5565b855160405163506ae89360e11b815260048101919091529091506000906001600160a01b0383169063a0d5d126906024016103806040518083038186803b1580156137ff57600080fd5b505afa158015613813573d6000803e3d6000fd5b505050506040513d601f19601f820116820180604052508101906138379190614f73565b9050600080836001600160a01b031663fc9ffe10896040518263ffffffff1660e01b8152600401613868919061550f565b6040805180830381600087803b15801561388157600080fd5b505af1158015613895573d6000803e3d6000fd5b505050506040513d601f19601f820116820180604052508101906138b991906151bb565b90925090506138cb610df382846157cf565b6138dc81600954610e0e9190615688565b8760000151336001600160a01b03167f02bde35fb6c4387120ff67d8e52f04c37f08b2a8235cd8a731848afda59f622e8560600151600001518660800151600001518c6020015187878f604001518e8e6040516139869897969594939291906001600160a01b0398891681529688166020880152604087019590955260608601939093526080850191909152841660a084015290921660c082015260e08101919091526101000190565b60405180910390a350506001600055505050505050565b6001600160a01b038216158015906139b55750600081115b15613a6b5760006139c58361430e565b9050818110156139e85760405163f8b3bb6160e01b815260040160405180910390fd5b6000846001600160a01b031663e9a4e7a26040518163ffffffff1660e01b815260040160206040518083038186803b158015613a2357600080fd5b505afa158015613a37573d6000803e3d6000fd5b505050506040513d601f19601f82011682018060405250810190613a5b9190614bd5565b9050613a6884828561400e565b50505b505050565b600081602001516001600160a01b031682606001516001600160a01b031614613cab5760608201516040516370a0823160e01b81523060048201526000916001600160a01b0316906370a082319060240160206040518083038186803b158015613ad957600080fd5b505afa158015613aed573d6000803e3d6000fd5b505050506040513d601f19601f82011682018060405250810190613b119190614d9f565b6060840180516001600160a01b039081166000908152600c602090815260408083205494519093168252600d90522054919250613b4d91615688565b613b5790826157cf565b905082604001516001600160a01b031683606001516001600160a01b03161415613bb257600954600854600654600554613b9191906157cf565b613b9b91906157cf565b613ba591906157cf565b613baf90826157cf565b90505b8260c00151811015613bc75750600092915050565b60208301516040516370a0823160e01b81523060048201526000916001600160a01b0316906370a082319060240160206040518083038186803b158015613c0d57600080fd5b505afa158015613c21573d6000803e3d6000fd5b505050506040513d601f19601f82011682018060405250810190613c459190614d9f565b602080860180516001600160a01b039081166000908152600c845260408082205493519092168152600d90935290912054919250613c8291615688565b613c8c90826157cf565b90508360800151811015613ca4575060009392505050565b5050613d97565b60608201516040516370a0823160e01b81523060048201526000916001600160a01b0316906370a082319060240160206040518083038186803b158015613cf157600080fd5b505afa158015613d05573d6000803e3d6000fd5b505050506040513d601f19601f82011682018060405250810190613d299190614d9f565b6060840180516001600160a01b039081166000908152600c602090815260408083205494519093168252600d90522054919250613d6591615688565b613d6f90826157cf565b905082608001518360c00151613d859190615688565b811015613d955750600092915050565b505b506001919050565b6002546040516370a0823160e01b81523060048201526000916001600160a01b031690829082906370a082319060240160206040518083038186803b158015613de757600080fd5b505afa158015613dfb573d6000803e3d6000fd5b505050506040513d601f19601f82011682018060405250810190613e1f9190614d9f565b9050600954600854600d6000856001600160a01b03166001600160a01b031681526020019081526020016000205460075484613e5b91906157cf565b613e6591906157cf565b613e6f91906157cf565b613e7991906157cf565b9250505090565b60068190556040518181527f26a8db85dd35b30712c42ae882de1d59c395aed810477ed980623164802cf14290602001610904565b8060086000828254613ec79190615688565b9091555050600554600354613edc90836157b0565b613ee691906156a0565b600a6000828254613ef79190615688565b90915550506008546040519081527f38e229a7f3f9c329892d08eb37c4e91ccac6d12c798d394990ca4f56028ec26690602001610904565b60098190556040518181527f02f1bb46a1dd6774772e223bfa9c733cea598e6b1ac69187d1c614a04cfd1c3690602001610904565b6001600160a01b0382166000818152600c6020908152604091829020849055815192835282018390527f650aa761fa5f576577cdc0c020d74fa8bb091213a82ee311b7a274d9aa4f955991015b60405180910390a15050565b6001600160a01b0382166000818152600d6020908152604091829020849055815192835282018390527f63eb39417416506dc369967fba1b44e6418801a4a6845581c06cada91448c5c39101613fb1565b604080518082018252601981527f7472616e7366657228616464726573732c75696e74323536290000000000000060209182015281516001600160a01b0385811660248301526044808301869052845180840390910181526064909201845291810180516001600160e01b031663a9059cbb60e01b1790529151600092839287169161409a91906152c8565b6000604051808303816000865af19150503d80600081146140d7576040519150601f19603f3d011682016040523d82523d6000602084013e6140dc565b606091505b50915091508115806141085750805115806141065750808060200190518101906141069190614d82565b155b15613a68578484846040516317e3057d60e31b815260040161056a939291906152e4565b60078190556040518181527f2af1c3635b0d3de42213bf1f6e7979fc04bf2c07ff6d71fe72ccd76b9a045ea190602001610904565b60058190556040518181527f044141ecee2fb3c75d1699b968fa546a18dfa4ee1d705699d81751270b38595190602001610904565b6009548015614250576001546040805163779b492960e11b815290516000926001600160a01b03169163ef369252916004808301926020929190829003018186803b1580156141e457600080fd5b505afa1580156141f8573d6000803e3d6000fd5b505050506040513d601f19601f8201168201806040525081019061421c9190614bd5565b90506001600160a01b0381161561424e576142376000613f2f565b60025461424e906001600160a01b0316828461400e565b505b50565b6002546040516370a0823160e01b81523060048201526000916001600160a01b031690829082906370a082319060240160206040518083038186803b15801561429b57600080fd5b505afa1580156142af573d6000803e3d6000fd5b505050506040513d601f19601f820116820180604052508101906142d39190614d9f565b90506006546005546142e591906157cf565b6009546008546001600160a01b0385166000908152600d6020526040902054613e5b90856157cf565b6002546000906001600160a01b03838116911614156143355761432f614253565b92915050565b6040516370a0823160e01b81523060048201526000906001600160a01b038416906370a082319060240160206040518083038186803b15801561437757600080fd5b505afa15801561438b573d6000803e3d6000fd5b505050506040513d601f19601f820116820180604052508101906143af9190614d9f565b6001600160a01b0384166000908152600c6020908152604080832054600d90925290912054919250906143e290836157cf565b6143ec91906157cf565b9392505050565b6080840151516040516370a0823160e01b81523060048201526000916001600160a01b0316906370a082319060240160206040518083038186803b15801561443a57600080fd5b505afa15801561444e573d6000803e3d6000fd5b505050506040513d601f19601f820116820180604052508101906144729190614d9f565b905061448f8560600151600001513387606001516020015161400e565b6060850151516080860151516040516339d87e7760e21b8152339263e761f9dc926144c292899089908990600401615350565b600060405180830381600087803b1580156144dc57600080fd5b505af11580156144f0573d6000803e3d6000fd5b505050506080850151516040516370a0823160e01b81523060048201526000916001600160a01b0316906370a082319060240160206040518083038186803b15801561453b57600080fd5b505afa15801561454f573d6000803e3d6000fd5b505050506040513d601f19601f820116820180604052508101906145739190614d9f565b905061457f8583615688565b81101561459f5760405163f8b3bb6160e01b815260040160405180910390fd5b505050505050565b60a0850151516040516370a0823160e01b815230600482015260009182916001600160a01b03909116906370a082319060240160206040518083038186803b1580156145f257600080fd5b505afa158015614606573d6000803e3d6000fd5b505050506040513d601f19601f8201168201806040525081019061462a9190614d9f565b6080880151516040516370a0823160e01b81523060048201529192506000916001600160a01b03909116906370a082319060240160206040518083038186803b15801561467657600080fd5b505afa15801561468a573d6000803e3d6000fd5b505050506040513d601f19601f820116820180604052508101906146ae9190614d9f565b90506146c38860a0015160000151338961400e565b60a0880151516080890151516040516339d87e7760e21b8152339263e761f9dc926146f6928b908b908b90600401615350565b600060405180830381600087803b15801561471057600080fd5b505af1158015614724573d6000803e3d6000fd5b5050505060a0880151516040516370a0823160e01b81523060048201526000916001600160a01b0316906370a082319060240160206040518083038186803b15801561476f57600080fd5b505afa158015614783573d6000803e3d6000fd5b505050506040513d601f19601f820116820180604052508101906147a79190614d9f565b60808a0151516040516370a0823160e01b81523060048201529192506000916001600160a01b03909116906370a082319060240160206040518083038186803b1580156147f357600080fd5b505afa158015614807573d6000803e3d6000fd5b505050506040513d601f19601f8201168201806040525081019061482b9190614d9f565b90506148378884615688565b8110156148575760405163f8b3bb6160e01b815260040160405180910390fd5b61486189856157cf565b61486b90836157cf565b9a9950505050505050505050565b80356148848161586f565b919050565b80516148848161586f565b600082601f8301126148a557600080fd5b813560206148ba6148b58361563e565b61560e565b80838252828201915082860187848660051b89010111156148da57600080fd5b60005b858110156149025781356148f081615884565b845292840192908401906001016148dd565b5090979650505050505050565b805161488481615884565b60008083601f84011261492c57600080fd5b5081356001600160401b0381111561494357600080fd5b60208301915083602082850101111561495b57600080fd5b9250929050565b600082601f83011261497357600080fd5b81356149816148b582615661565b81815284602083860101111561499657600080fd5b816020850160208301376000918101602001919091529392505050565b600060a082840312156149c557600080fd5b60405160a081018181106001600160401b03821117156149e7576149e7615859565b806040525080915082516149fa8161586f565b80825250602083015160208201526040830151604082015260608301516060820152608083015160808201525092915050565b600060408284031215614a3f57600080fd5b604051604081018181106001600160401b0382111715614a6157614a61615859565b80604052508091508251614a748161586f565b8152602092830151920191909152919050565b6000610100808385031215614a9b57600080fd5b604051908101906001600160401b0382118183101715614abd57614abd615859565b8160405280925083519150614ad182615884565b818152614ae06020850161490f565b6020820152614af16040850161490f565b6040820152614b026060850161490f565b6060820152614b136080850161490f565b6080820152614b2460a0850161490f565b60a0820152614b3560c0850161490f565b60c0820152614b4660e0850161490f565b60e0820152505092915050565b600060608284031215614b6557600080fd5b604051606081018181106001600160401b0382111715614b8757614b87615859565b806040525080915082358152602083013560208201526040830135614bab8161586f565b6040919091015292915050565b600060208284031215614bca57600080fd5b81356143ec8161586f565b600060208284031215614be757600080fd5b81516143ec8161586f565b600080600060608486031215614c0757600080fd5b8335614c128161586f565b92506020840135614c228161586f565b929592945050506040919091013590565b60008060408385031215614c4657600080fd5b8235614c518161586f565b946020939093013593505050565b60008060008060608587031215614c7557600080fd5b8435614c808161586f565b93506020850135925060408501356001600160401b03811115614ca257600080fd5b614cae8782880161491a565b95989497509550505050565b60008060408385031215614ccd57600080fd5b82356001600160401b0380821115614ce457600080fd5b818501915085601f830112614cf857600080fd5b81356020614d086148b58361563e565b8083825282820191508286018a848660051b8901011115614d2857600080fd5b600096505b84871015614d54578035614d408161586f565b835260019690960195918301918301614d2d565b5096505086013592505080821115614d6b57600080fd5b50614d7885828601614894565b9150509250929050565b600060208284031215614d9457600080fd5b81516143ec81615884565b600060208284031215614db157600080fd5b5051919050565b60008060408385031215614dcb57600080fd5b823591506020830135614ddd8161586f565b809150509250929050565b60008060008060808587031215614dfe57600080fd5b5050823594602084013594506040840135936060013592509050565b600060208284031215614e2c57600080fd5b81516001600160401b03811115614e4257600080fd5b8201601f81018413614e5357600080fd5b8051614e616148b582615661565b818152856020838501011115614e7657600080fd5b614e878260208301602086016157e6565b95945050505050565b600060208284031215614ea257600080fd5b81356001600160401b03811115614eb857600080fd5b8201608081850312156143ec57600080fd5b60006101208284031215614edd57600080fd5b614ee56155a0565b614eee83614879565b8152614efc60208401614879565b6020820152614f0d60408401614879565b6040820152614f1e60608401614879565b60608201526080830135608082015260a083013560a082015260c083013560c082015260e083013560e08201526101008084013581830152508091505092915050565b60006040828403121561212157600080fd5b60006103808284031215614f8657600080fd5b614f8e6155c9565b82518152614f9e60208401614889565b6020820152614faf60408401614889565b6040820152614fc184606085016149b3565b6060820152610100614fd585828601614a2d565b6080830152610140614fe9868287016149b3565b60a08401526101e085015160c084015261020085015160e084015261022085015182840152610240850151610120840152615028866102608701614a87565b908301525061503a6103608401614889565b6101608201529392505050565b60006060828403121561505957600080fd5b6143ec8383614b53565b60006020828403121561507557600080fd5b81356001600160401b038082111561508c57600080fd5b9083019060e082860312156150a057600080fd5b6150a86155ec565b823581526150b860208401614879565b60208201526150c960408401614879565b6040820152606083013560608201526150e460808401614879565b608082015260a0830135828111156150fb57600080fd5b61510787828601614962565b60a08301525060c08301358281111561511f57600080fd5b61512b87828601614962565b60c08301525095945050505050565b60006020828403121561514c57600080fd5b5035919050565b6000806040838503121561516657600080fd5b825191506020830151614ddd8161586f565b6000806000806060858703121561518e57600080fd5b8435935060208501356151a08161586f565b925060408501356001600160401b03811115614ca257600080fd5b600080604083850312156151ce57600080fd5b505080516020909101519092909150565b6000602082840312156151f157600080fd5b815160ff811681146143ec57600080fd5b81835281816020850137506000828201602090810191909152601f909101601f19169091010190565b600081518084526152438160208601602086016157e6565b601f01601f19169290920160200192915050565b80511515825260208101511515602083015260408101511515604083015260608101511515606083015260808101511515608083015260a08101516152a060a084018215159052565b5060c08101516152b460c084018215159052565b5060e0810151613a6b60e084018215159052565b600082516152da8184602087016157e6565b9190910192915050565b6001600160a01b039384168152919092166020820152604081019190915260600190565b6001600160a01b0387811682528681166020830152604082018690528416606082015260a0608082018190526000906153449083018486615202565b98975050505050505050565b6001600160a01b03868116825285166020820152604081018490526080606082018190526000906153849083018486615202565b979650505050505050565b60018060a01b03851681528360208201526060604082015260006153b7606083018486615202565b9695505050505050565b815181526020808301516103808301916153e5908401826001600160a01b03169052565b50604083015161540060408401826001600160a01b03169052565b506060830151615444606084018280516001600160a01b03168252602080820151908301526040808201519083015260608082015190830152608090810151910152565b50608083015161010061546c8185018380516001600160a01b03168252602090810151910152565b60a085015180516001600160a01b0316610140868101919091526020820151610160870152604082015161018087015260608201516101a08701526080909101516101c086015260c08601516101e086015260e08601516102008601529085015161022085015261012085015161024085015284015190506154f2610260840182615257565b5061016092909201516001600160a01b0316610360919091015290565b81518152602080830151908201526040808301516001600160a01b0316908201526060810161432f565b828152604060208201526000615552604083018461522b565b949350505050565b6000808335601e1984360301811261557157600080fd5b8301803591506001600160401b0382111561558b57600080fd5b60200191503681900382131561495b57600080fd5b60405161012081016001600160401b03811182821017156155c3576155c3615859565b60405290565b60405161018081016001600160401b03811182821017156155c3576155c3615859565b60405160e081016001600160401b03811182821017156155c3576155c3615859565b604051601f8201601f191681016001600160401b038111828210171561563657615636615859565b604052919050565b60006001600160401b0382111561565757615657615859565b5060051b60200190565b60006001600160401b0382111561567a5761567a615859565b50601f01601f191660200190565b6000821982111561569b5761569b61582d565b500190565b6000826156bd57634e487b7160e01b600052601260045260246000fd5b500490565b600181815b808511156156fd5781600019048211156156e3576156e361582d565b808516156156f057918102915b93841c93908002906156c7565b509250929050565b60006143ec60ff84168360008261571e5750600161432f565b8161572b5750600061432f565b8160018114615741576002811461574b57615767565b600191505061432f565b60ff84111561575c5761575c61582d565b50506001821b61432f565b5060208310610133831016604e8410600b841016171561578a575081810a61432f565b61579483836156c2565b80600019048211156157a8576157a861582d565b029392505050565b60008160001904831182151516156157ca576157ca61582d565b500290565b6000828210156157e1576157e161582d565b500390565b60005b838110156158015781810151838201526020016157e9565b83811115610a935750506000910152565b60006000198214156158265761582661582d565b5060010190565b634e487b7160e01b600052601160045260246000fd5b634e487b7160e01b600052603260045260246000fd5b634e487b7160e01b600052604160045260246000fd5b6001600160a01b038116811461425057600080fd5b801515811461425057600080fdfea2646970667358221220eeee6df12377ab9f1f24f067d494dbf817721d2d757939f8051b0f2d48ad14d764736f6c63430008070033",
  "linkReferences": {},
  "deployedLinkReferences": {}
}