{
  "_format": "hh-sol-artifact-1",
  "contractName": "Pool",
  "sourceName": "contracts/Pool.sol",
  "abi": [
    {
      "inputs": [
        {
          "internalType": "uint256",
          "name": "length0",
          "type": "uint256"
        },
        {
          "internalType": "uint256",
          "name": "length1",
          "type": "uint256"
        }
      ],
      "name": "BadLengths",
      "type": "error"
    },
    {
      "inputs": [
        {
          "internalType": "address",
          "name": "to",
          "type": "address"
        },
        {
          "internalType": "uint256",
          "name": "value",
          "type": "uint256"
        }
      ],
      "name": "EthTransferFailed",
      "type": "error"
    },
    {
      "inputs": [],
      "name": "ExceedMaxOpenInterest",
      "type": "error"
    },
    {
      "inputs": [
        {
          "internalType": "address",
          "name": "sender",
          "type": "address"
        }
      ],
      "name": "Forbidden",
      "type": "error"
    },
    {
      "inputs": [],
      "name": "InitializedAlready",
      "type": "error"
    },
    {
      "inputs": [
        {
          "internalType": "uint256",
          "name": "amount",
          "type": "uint256"
        },
        {
          "internalType": "uint256",
          "name": "neededAmount",
          "type": "uint256"
        }
      ],
      "name": "InsufficientCollateral",
      "type": "error"
    },
    {
      "inputs": [],
      "name": "InsufficientInput",
      "type": "error"
    },
    {
      "inputs": [],
      "name": "InsufficientOutput",
      "type": "error"
    },
    {
      "inputs": [],
      "name": "InvalidParameters",
      "type": "error"
    },
    {
      "inputs": [],
      "name": "Locked",
      "type": "error"
    },
    {
      "inputs": [
        {
          "internalType": "address",
          "name": "token",
          "type": "address"
        },
        {
          "internalType": "address",
          "name": "to",
          "type": "address"
        },
        {
          "internalType": "uint256",
          "name": "value",
          "type": "uint256"
        }
      ],
      "name": "TransferFailed",
      "type": "error"
    },
    {
      "inputs": [
        {
          "internalType": "address",
          "name": "token",
          "type": "address"
        }
      ],
      "name": "UntradeableBaseToken",
      "type": "error"
    },
    {
      "inputs": [],
      "name": "ZeroValue",
      "type": "error"
    },
    {
      "anonymous": false,
      "inputs": [
        {
          "indexed": true,
          "internalType": "address",
          "name": "sender",
          "type": "address"
        },
        {
          "indexed": false,
          "internalType": "uint256",
          "name": "liquidity",
          "type": "uint256"
        }
      ],
      "name": "Burn",
      "type": "event"
    },
    {
      "anonymous": false,
      "inputs": [
        {
          "indexed": true,
          "internalType": "address",
          "name": "sender",
          "type": "address"
        },
        {
          "indexed": true,
          "internalType": "address",
          "name": "owner",
          "type": "address"
        },
        {
          "indexed": true,
          "internalType": "bytes32",
          "name": "positionKey",
          "type": "bytes32"
        },
        {
          "indexed": false,
          "internalType": "address",
          "name": "baseToken",
          "type": "address"
        },
        {
          "indexed": false,
          "internalType": "address",
          "name": "closer",
          "type": "address"
        },
        {
          "indexed": false,
          "internalType": "uint256",
          "name": "liquidationFee",
          "type": "uint256"
        }
      ],
      "name": "Close",
      "type": "event"
    },
    {
      "anonymous": false,
      "inputs": [
        {
          "indexed": true,
          "internalType": "address",
          "name": "sender",
          "type": "address"
        },
        {
          "indexed": true,
          "internalType": "bytes32",
          "name": "positionKey",
          "type": "bytes32"
        },
        {
          "indexed": true,
          "internalType": "address",
          "name": "executor",
          "type": "address"
        }
      ],
      "name": "CloseManuallyStep1",
      "type": "event"
    },
    {
      "anonymous": false,
      "inputs": [
        {
          "indexed": true,
          "internalType": "address",
          "name": "sender",
          "type": "address"
        },
        {
          "indexed": true,
          "internalType": "address",
          "name": "to",
          "type": "address"
        },
        {
          "indexed": false,
          "internalType": "uint256",
          "name": "amount",
          "type": "uint256"
        }
      ],
      "name": "Collect",
      "type": "event"
    },
    {
      "anonymous": false,
      "inputs": [
        {
          "indexed": true,
          "internalType": "address",
          "name": "sender",
          "type": "address"
        },
        {
          "indexed": true,
          "internalType": "address",
          "name": "to",
          "type": "address"
        },
        {
          "indexed": false,
          "internalType": "uint256",
          "name": "liquidity",
          "type": "uint256"
        }
      ],
      "name": "Mint",
      "type": "event"
    },
    {
      "anonymous": false,
      "inputs": [
        {
          "indexed": true,
          "internalType": "address",
          "name": "sender",
          "type": "address"
        },
        {
          "indexed": true,
          "internalType": "address",
          "name": "owner",
          "type": "address"
        },
        {
          "indexed": true,
          "internalType": "bytes32",
          "name": "positionKey",
          "type": "bytes32"
        },
        {
          "indexed": false,
          "internalType": "address",
          "name": "baseToken",
          "type": "address"
        },
        {
          "indexed": false,
          "internalType": "address",
          "name": "quoteToken",
          "type": "address"
        },
        {
          "indexed": false,
          "internalType": "address",
          "name": "collateral",
          "type": "address"
        },
        {
          "indexed": false,
          "internalType": "uint256",
          "name": "baseAmount",
          "type": "uint256"
        },
        {
          "indexed": false,
          "internalType": "uint256",
          "name": "quoteAmount",
          "type": "uint256"
        },
        {
          "indexed": false,
          "internalType": "uint256",
          "name": "collateralAmount",
          "type": "uint256"
        },
        {
          "indexed": false,
          "internalType": "uint256",
          "name": "fee",
          "type": "uint256"
        },
        {
          "indexed": false,
          "internalType": "uint256",
          "name": "protocolFee",
          "type": "uint256"
        }
      ],
      "name": "Open",
      "type": "event"
    },
    {
      "anonymous": false,
      "inputs": [
        {
          "indexed": true,
          "internalType": "address",
          "name": "sender",
          "type": "address"
        },
        {
          "indexed": true,
          "internalType": "bytes32",
          "name": "positionKey",
          "type": "bytes32"
        },
        {
          "indexed": false,
          "internalType": "address",
          "name": "rollbacker",
          "type": "address"
        },
        {
          "indexed": false,
          "internalType": "address",
          "name": "serviceToken",
          "type": "address"
        },
        {
          "indexed": false,
          "internalType": "uint256",
          "name": "serviceFee",
          "type": "uint256"
        }
      ],
      "name": "Rollback",
      "type": "event"
    },
    {
      "anonymous": false,
      "inputs": [
        {
          "indexed": false,
          "internalType": "address",
          "name": "baseToken",
          "type": "address"
        },
        {
          "indexed": false,
          "internalType": "address",
          "name": "quoteToken",
          "type": "address"
        },
        {
          "indexed": false,
          "internalType": "bool",
          "name": "tradeable",
          "type": "bool"
        }
      ],
      "name": "SetBaseToken",
      "type": "event"
    },
    {
      "anonymous": false,
      "inputs": [
        {
          "indexed": false,
          "internalType": "uint256",
          "name": "newInterest",
          "type": "uint256"
        }
      ],
      "name": "SetInterest",
      "type": "event"
    },
    {
      "anonymous": false,
      "inputs": [
        {
          "indexed": false,
          "internalType": "uint256",
          "name": "newMaxOpenInterest",
          "type": "uint256"
        }
      ],
      "name": "SetMaxOpenInterest",
      "type": "event"
    },
    {
      "anonymous": false,
      "inputs": [
        {
          "indexed": false,
          "internalType": "address",
          "name": "baseToken",
          "type": "address"
        },
        {
          "indexed": false,
          "internalType": "uint256",
          "name": "newReserve",
          "type": "uint256"
        }
      ],
      "name": "UpdateBaseReserve",
      "type": "event"
    },
    {
      "anonymous": false,
      "inputs": [
        {
          "indexed": true,
          "internalType": "address",
          "name": "sender",
          "type": "address"
        },
        {
          "indexed": true,
          "internalType": "bytes32",
          "name": "positionKey",
          "type": "bytes32"
        },
        {
          "indexed": false,
          "internalType": "uint256",
          "name": "amount",
          "type": "uint256"
        },
        {
          "indexed": false,
          "internalType": "uint256",
          "name": "newCollateralLiqPrice",
          "type": "uint256"
        },
        {
          "indexed": false,
          "internalType": "address",
          "name": "updater",
          "type": "address"
        },
        {
          "indexed": false,
          "internalType": "address",
          "name": "serviceToken",
          "type": "address"
        },
        {
          "indexed": false,
          "internalType": "uint256",
          "name": "serviceFee",
          "type": "uint256"
        }
      ],
      "name": "UpdateCollateralAmount",
      "type": "event"
    },
    {
      "anonymous": false,
      "inputs": [
        {
          "indexed": false,
          "internalType": "address",
          "name": "collateral",
          "type": "address"
        },
        {
          "indexed": false,
          "internalType": "uint256",
          "name": "newReserve",
          "type": "uint256"
        }
      ],
      "name": "UpdateCollateralReserve",
      "type": "event"
    },
    {
      "anonymous": false,
      "inputs": [
        {
          "indexed": true,
          "internalType": "address",
          "name": "sender",
          "type": "address"
        },
        {
          "indexed": true,
          "internalType": "bytes32",
          "name": "positionKey",
          "type": "bytes32"
        },
        {
          "indexed": false,
          "internalType": "address",
          "name": "baseToken",
          "type": "address"
        },
        {
          "indexed": false,
          "internalType": "address",
          "name": "quoteToken",
          "type": "address"
        },
        {
          "indexed": false,
          "internalType": "uint256",
          "name": "newDeadline",
          "type": "uint256"
        },
        {
          "indexed": false,
          "internalType": "uint256",
          "name": "fee",
          "type": "uint256"
        },
        {
          "indexed": false,
          "internalType": "uint256",
          "name": "protocolFee",
          "type": "uint256"
        },
        {
          "indexed": false,
          "internalType": "address",
          "name": "updater",
          "type": "address"
        },
        {
          "indexed": false,
          "internalType": "address",
          "name": "serviceToken",
          "type": "address"
        },
        {
          "indexed": false,
          "internalType": "uint256",
          "name": "serviceFee",
          "type": "uint256"
        }
      ],
      "name": "UpdateDeadline",
      "type": "event"
    },
    {
      "anonymous": false,
      "inputs": [
        {
          "indexed": false,
          "internalType": "uint256",
          "name": "newFee",
          "type": "uint256"
        }
      ],
      "name": "UpdateFee",
      "type": "event"
    },
    {
      "anonymous": false,
      "inputs": [
        {
          "indexed": false,
          "internalType": "uint256",
          "name": "newProtocolFee",
          "type": "uint256"
        }
      ],
      "name": "UpdateProtocolFee",
      "type": "event"
    },
    {
      "anonymous": false,
      "inputs": [
        {
          "indexed": false,
          "internalType": "uint256",
          "name": "newQuoteInDebt",
          "type": "uint256"
        }
      ],
      "name": "UpdateQuoteInDebt",
      "type": "event"
    },
    {
      "anonymous": false,
      "inputs": [
        {
          "indexed": false,
          "internalType": "uint256",
          "name": "newQuoteReserve",
          "type": "uint256"
        }
      ],
      "name": "UpdateQuoteReserve",
      "type": "event"
    },
    {
      "anonymous": false,
      "inputs": [
        {
          "indexed": false,
          "internalType": "uint256",
          "name": "newWithdrawingLiquidity",
          "type": "uint256"
        }
      ],
      "name": "UpdateWithdrawingLiquidity",
      "type": "event"
    },
    {
      "inputs": [],
      "name": "accFee",
      "outputs": [
        {
          "internalType": "uint256",
          "name": "",
          "type": "uint256"
        }
      ],
      "stateMutability": "view",
      "type": "function"
    },
    {
      "inputs": [],
      "name": "accFeePerShare",
      "outputs": [
        {
          "internalType": "uint256",
          "name": "",
          "type": "uint256"
        }
      ],
      "stateMutability": "view",
      "type": "function"
    },
    {
      "inputs": [],
      "name": "accProtocolFee",
      "outputs": [
        {
          "internalType": "uint256",
          "name": "",
          "type": "uint256"
        }
      ],
      "stateMutability": "view",
      "type": "function"
    },
    {
      "inputs": [
        {
          "internalType": "uint256",
          "name": "_liquidity",
          "type": "uint256"
        },
        {
          "internalType": "address",
          "name": "_to",
          "type": "address"
        },
        {
          "internalType": "bytes",
          "name": "_data",
          "type": "bytes"
        }
      ],
      "name": "addBurnRequest",
      "outputs": [
        {
          "internalType": "uint256",
          "name": "",
          "type": "uint256"
        }
      ],
      "stateMutability": "nonpayable",
      "type": "function"
    },
    {
      "inputs": [],
      "name": "availLiquidity",
      "outputs": [],
      "stateMutability": "nonpayable",
      "type": "function"
    },
    {
      "inputs": [],
      "name": "availableLiquidity",
      "outputs": [
        {
          "internalType": "uint256",
          "name": "",
          "type": "uint256"
        }
      ],
      "stateMutability": "view",
      "type": "function"
    },
    {
      "inputs": [
        {
          "internalType": "address",
          "name": "",
          "type": "address"
        }
      ],
      "name": "baseReserve",
      "outputs": [
        {
          "internalType": "uint256",
          "name": "",
          "type": "uint256"
        }
      ],
      "stateMutability": "view",
      "type": "function"
    },
    {
      "inputs": [
        {
          "components": [
            {
              "internalType": "uint256",
              "name": "index",
              "type": "uint256"
            },
            {
              "internalType": "address",
              "name": "owner",
              "type": "address"
            },
            {
              "internalType": "address",
              "name": "quoteToken",
              "type": "address"
            },
            {
              "internalType": "uint256",
              "name": "liquidity",
              "type": "uint256"
            },
            {
              "internalType": "address",
              "name": "to",
              "type": "address"
            },
            {
              "internalType": "bytes",
              "name": "data",
              "type": "bytes"
            }
          ],
          "internalType": "struct IWithdrawalMonitor.WithdrawalRequest",
          "name": "_request",
          "type": "tuple"
        }
      ],
      "name": "burn",
      "outputs": [],
      "stateMutability": "nonpayable",
      "type": "function"
    },
    {
      "inputs": [
        {
          "internalType": "address",
          "name": "_owner",
          "type": "address"
        }
      ],
      "name": "claimableFee",
      "outputs": [
        {
          "internalType": "uint256",
          "name": "amount",
          "type": "uint256"
        }
      ],
      "stateMutability": "view",
      "type": "function"
    },
    {
      "inputs": [
        {
          "components": [
            {
              "internalType": "bytes32",
              "name": "positionKey",
              "type": "bytes32"
            },
            {
              "internalType": "bytes",
              "name": "data0",
              "type": "bytes"
            },
            {
              "internalType": "bytes",
              "name": "data1",
              "type": "bytes"
            },
            {
              "internalType": "address",
              "name": "closer",
              "type": "address"
            }
          ],
          "internalType": "struct IPositionStorage.CloseTradePositionParams",
          "name": "_params",
          "type": "tuple"
        }
      ],
      "name": "close",
      "outputs": [],
      "stateMutability": "nonpayable",
      "type": "function"
    },
    {
      "inputs": [
        {
          "internalType": "bytes32",
          "name": "_positionKey",
          "type": "bytes32"
        },
        {
          "internalType": "address",
          "name": "_executor",
          "type": "address"
        }
      ],
      "name": "closeManuallyStep1",
      "outputs": [],
      "stateMutability": "nonpayable",
      "type": "function"
    },
    {
      "inputs": [
        {
          "internalType": "bytes32",
          "name": "_positionKey",
          "type": "bytes32"
        },
        {
          "internalType": "uint256",
          "name": "_baseValue",
          "type": "uint256"
        },
        {
          "internalType": "uint256",
          "name": "_remainingCollateralAmount",
          "type": "uint256"
        },
        {
          "internalType": "uint256",
          "name": "_liquidationFee",
          "type": "uint256"
        }
      ],
      "name": "closeManuallyStep2",
      "outputs": [],
      "stateMutability": "nonpayable",
      "type": "function"
    },
    {
      "inputs": [
        {
          "internalType": "address",
          "name": "",
          "type": "address"
        }
      ],
      "name": "collateralReserve",
      "outputs": [
        {
          "internalType": "uint256",
          "name": "",
          "type": "uint256"
        }
      ],
      "stateMutability": "view",
      "type": "function"
    },
    {
      "inputs": [
        {
          "internalType": "address",
          "name": "_to",
          "type": "address"
        },
        {
          "internalType": "uint256",
          "name": "_amount",
          "type": "uint256"
        }
      ],
      "name": "collect",
      "outputs": [],
      "stateMutability": "nonpayable",
      "type": "function"
    },
    {
      "inputs": [],
      "name": "factory",
      "outputs": [
        {
          "internalType": "address",
          "name": "",
          "type": "address"
        }
      ],
      "stateMutability": "view",
      "type": "function"
    },
    {
      "inputs": [
        {
          "internalType": "address",
          "name": "_factory",
          "type": "address"
        },
        {
          "internalType": "address",
          "name": "_quoteToken",
          "type": "address"
        },
        {
          "internalType": "uint256",
          "name": "_interest",
          "type": "uint256"
        }
      ],
      "name": "initialize",
      "outputs": [],
      "stateMutability": "nonpayable",
      "type": "function"
    },
    {
      "inputs": [],
      "name": "interest",
      "outputs": [
        {
          "internalType": "uint256",
          "name": "",
          "type": "uint256"
        }
      ],
      "stateMutability": "view",
      "type": "function"
    },
    {
      "inputs": [
        {
          "internalType": "address",
          "name": "",
          "type": "address"
        }
      ],
      "name": "liquidityPosition",
      "outputs": [
        {
          "internalType": "uint256",
          "name": "liquidity",
          "type": "uint256"
        },
        {
          "internalType": "uint256",
          "name": "feeDebt",
          "type": "uint256"
        },
        {
          "internalType": "uint256",
          "name": "pendingFee",
          "type": "uint256"
        },
        {
          "internalType": "uint256",
          "name": "withdrawingLiquidity",
          "type": "uint256"
        }
      ],
      "stateMutability": "view",
      "type": "function"
    },
    {
      "inputs": [],
      "name": "maxOpenInterest",
      "outputs": [
        {
          "internalType": "uint256",
          "name": "",
          "type": "uint256"
        }
      ],
      "stateMutability": "view",
      "type": "function"
    },
    {
      "inputs": [
        {
          "internalType": "address",
          "name": "_to",
          "type": "address"
        },
        {
          "internalType": "uint256",
          "name": "_liquidity",
          "type": "uint256"
        },
        {
          "internalType": "bytes",
          "name": "_data",
          "type": "bytes"
        }
      ],
      "name": "mint",
      "outputs": [],
      "stateMutability": "nonpayable",
      "type": "function"
    },
    {
      "inputs": [
        {
          "components": [
            {
              "internalType": "address",
              "name": "owner",
              "type": "address"
            },
            {
              "internalType": "address",
              "name": "baseToken",
              "type": "address"
            },
            {
              "internalType": "address",
              "name": "quoteToken",
              "type": "address"
            },
            {
              "internalType": "address",
              "name": "collateral",
              "type": "address"
            },
            {
              "internalType": "uint256",
              "name": "baseAmount",
              "type": "uint256"
            },
            {
              "internalType": "uint256",
              "name": "quoteAmount",
              "type": "uint256"
            },
            {
              "internalType": "uint256",
              "name": "collateralAmount",
              "type": "uint256"
            },
            {
              "internalType": "uint256",
              "name": "deadline",
              "type": "uint256"
            },
            {
              "internalType": "uint256",
              "name": "stoplossPrice",
              "type": "uint256"
            },
            {
              "internalType": "uint256",
              "name": "takeProfitPrice",
              "type": "uint256"
            }
          ],
          "internalType": "struct IPositionStorage.OpenTradePositionParams",
          "name": "_params",
          "type": "tuple"
        }
      ],
      "name": "open",
      "outputs": [
        {
          "internalType": "bytes32",
          "name": "positionKey",
          "type": "bytes32"
        }
      ],
      "stateMutability": "nonpayable",
      "type": "function"
    },
    {
      "inputs": [],
      "name": "openInterest",
      "outputs": [
        {
          "internalType": "uint256",
          "name": "",
          "type": "uint256"
        }
      ],
      "stateMutability": "view",
      "type": "function"
    },
    {
      "inputs": [],
      "name": "positionStorage",
      "outputs": [
        {
          "internalType": "address",
          "name": "",
          "type": "address"
        }
      ],
      "stateMutability": "view",
      "type": "function"
    },
    {
      "inputs": [],
      "name": "precision",
      "outputs": [
        {
          "internalType": "uint256",
          "name": "",
          "type": "uint256"
        }
      ],
      "stateMutability": "view",
      "type": "function"
    },
    {
      "inputs": [],
      "name": "quoteInDebt",
      "outputs": [
        {
          "internalType": "uint256",
          "name": "",
          "type": "uint256"
        }
      ],
      "stateMutability": "view",
      "type": "function"
    },
    {
      "inputs": [],
      "name": "quoteReserve",
      "outputs": [
        {
          "internalType": "uint256",
          "name": "",
          "type": "uint256"
        }
      ],
      "stateMutability": "view",
      "type": "function"
    },
    {
      "inputs": [],
      "name": "quoteToken",
      "outputs": [
        {
          "internalType": "address",
          "name": "",
          "type": "address"
        }
      ],
      "stateMutability": "view",
      "type": "function"
    },
    {
      "inputs": [
        {
          "components": [
            {
              "internalType": "bytes32",
              "name": "positionKey",
              "type": "bytes32"
            },
            {
              "internalType": "address",
              "name": "rollbacker",
              "type": "address"
            },
            {
              "internalType": "address",
              "name": "serviceToken",
              "type": "address"
            },
            {
              "internalType": "uint256",
              "name": "serviceFee",
              "type": "uint256"
            }
          ],
          "internalType": "struct IPositionStorage.RollbackTradePositionParams",
          "name": "_params",
          "type": "tuple"
        }
      ],
      "name": "rollback",
      "outputs": [],
      "stateMutability": "nonpayable",
      "type": "function"
    },
    {
      "inputs": [
        {
          "internalType": "address[]",
          "name": "_baseTokens",
          "type": "address[]"
        },
        {
          "internalType": "bool[]",
          "name": "_tradeables",
          "type": "bool[]"
        }
      ],
      "name": "setBaseTokens",
      "outputs": [],
      "stateMutability": "nonpayable",
      "type": "function"
    },
    {
      "inputs": [
        {
          "internalType": "uint256",
          "name": "_interest",
          "type": "uint256"
        }
      ],
      "name": "setInterest",
      "outputs": [],
      "stateMutability": "nonpayable",
      "type": "function"
    },
    {
      "inputs": [
        {
          "internalType": "uint256",
          "name": "_maxOpenInterest",
          "type": "uint256"
        }
      ],
      "name": "setMaxOpenInterest",
      "outputs": [],
      "stateMutability": "nonpayable",
      "type": "function"
    },
    {
      "inputs": [
        {
          "internalType": "address",
          "name": "",
          "type": "address"
        }
      ],
      "name": "tradeableBaseToken",
      "outputs": [
        {
          "internalType": "bool",
          "name": "",
          "type": "bool"
        }
      ],
      "stateMutability": "view",
      "type": "function"
    },
    {
      "inputs": [
        {
          "components": [
            {
              "internalType": "bytes32",
              "name": "positionKey",
              "type": "bytes32"
            },
            {
              "internalType": "uint256",
              "name": "amount",
              "type": "uint256"
            },
            {
              "internalType": "address",
              "name": "updater",
              "type": "address"
            },
            {
              "internalType": "address",
              "name": "serviceToken",
              "type": "address"
            },
            {
              "internalType": "uint256",
              "name": "serviceFee",
              "type": "uint256"
            }
          ],
          "internalType": "struct IPositionStorage.UpdateCollateralAmountParams",
          "name": "_params",
          "type": "tuple"
        }
      ],
      "name": "updateCollateralAmount",
      "outputs": [
        {
          "internalType": "uint256",
          "name": "collateralLiqPrice",
          "type": "uint256"
        }
      ],
      "stateMutability": "nonpayable",
      "type": "function"
    },
    {
      "inputs": [
        {
          "components": [
            {
              "internalType": "bytes32",
              "name": "positionKey",
              "type": "bytes32"
            },
            {
              "internalType": "uint256",
              "name": "deadline",
              "type": "uint256"
            },
            {
              "internalType": "address",
              "name": "updater",
              "type": "address"
            },
            {
              "internalType": "address",
              "name": "serviceToken",
              "type": "address"
            },
            {
              "internalType": "uint256",
              "name": "serviceFee",
              "type": "uint256"
            }
          ],
          "internalType": "struct IPositionStorage.UpdateDeadlineParams",
          "name": "_params",
          "type": "tuple"
        }
      ],
      "name": "updateDeadline",
      "outputs": [],
      "stateMutability": "nonpayable",
      "type": "function"
    },
    {
      "inputs": [],
      "name": "withdrawalMonitor",
      "outputs": [
        {
          "internalType": "address",
          "name": "",
          "type": "address"
        }
      ],
      "stateMutability": "view",
      "type": "function"
    },
    {
      "inputs": [],
      "name": "withdrawingLiquidity",
      "outputs": [
        {
          "internalType": "uint256",
          "name": "",
          "type": "uint256"
        }
      ],
      "stateMutability": "view",
      "type": "function"
    }
  ],
  "bytecode": "0x6080604052600160005534801561001557600080fd5b50614d4e806100256000396000f3fe608060405234801561001057600080fd5b506004361061021c5760003560e01c806394d008ef11610125578063d3b5dc3b116100ad578063dd3b829a1161007c578063dd3b829a146104a4578063fa5a2e62146104ad578063fb2b74b2146104b6578063fba0c814146104c9578063ffc9dcbb146104dc57600080fd5b8063d3b5dc3b1461042a578063d4fd690514610433578063d8f2cab714610488578063dc6638f41461049b57600080fd5b8063ada3112f116100f4578063ada3112f146103ea578063ba343922146103f3578063c392f766146103fb578063c45a015514610404578063c6f61b011461041757600080fd5b806394d008ef146103a85780639da771f4146103bb578063a1c59afc146103c4578063a4fbc0d7146103d757600080fd5b806340650eef116101a8578063685b61d011610177578063685b61d0146103515780636b8357ac1461035a578063743753591461036d5780638b6e00fa146103755780638cd474151461039557600080fd5b806340650eef146103055780635330e3531461031857806359129e751461032b578063653741ff1461033e57600080fd5b806319972a50116101ef57806319972a50146102985780631d086720146102ab578063217a4b70146102be57806327014e33146102e957806332196a01146102f257600080fd5b80630121c777146102215780630adcf0f51461023d578063122f7e8b146102705780631794bb3c14610283575b600080fd5b61022a600b5481565b6040519081526020015b60405180910390f35b61026061024b366004613fa3565b600f6020526000908152604090205460ff1681565b6040519015158152602001610234565b61022a61027e3660046142b7565b6104fc565b610296610291366004613fdd565b61094d565b005b6102966102a636600461435a565b610b48565b6102966102b9366004614539565b610ec6565b6004546102d1906001600160a01b031681565b6040516001600160a01b039091168152602001610234565b61022a600d5481565b6102966103003660046140a5565b610f2f565b610296610313366004614539565b6110b9565b610296610326366004614464565b61111b565b6102966103393660046141a3565b6113b6565b61022a61034c366004614577565b611640565b61022a600a5481565b61029661036836600461401e565b611779565b61022a6118cd565b61022a610383366004613fa3565b60116020526000908152604090205481565b6002546102d1906001600160a01b031681565b6102966103b636600461404a565b6118dc565b61022a60095481565b61022a6103d2366004613fa3565b611b9c565b6003546102d1906001600160a01b031681565b61022a600c5481565b610296611c36565b61022a60065481565b6001546102d1906001600160a01b031681565b61022a610425366004614464565b611c6a565b61022a60055481565b610468610441366004613fa3565b60126020526000908152604090208054600182015460028301546003909301549192909184565b604080519485526020850193909352918301526060820152608001610234565b6102966104963660046141d3565b611f41565b61022a60075481565b61022a600e5481565b61022a60085481565b6102966104c4366004614480565b6124bc565b6102966104d736600461427b565b6128f0565b61022a6104ea366004613fa3565b60106020526000908152604090205481565b60008054600114610520576040516303cb96db60e21b815260040160405180910390fd5b60008080556020808401516001600160a01b03168252600f9052604090205460ff1661057457602082015160405162bb3a2960e81b81526001600160a01b0390911660048201526024015b60405180910390fd5b6007548260a001516008546105899190614b0e565b11156105a85760405163554028e760e11b815260040160405180910390fd5b6004546001600160a01b039081166040840181905260208401519091168114156105e557604051630e52390960e41b815260040160405180910390fd5b6105ee836130dc565b61060b5760405163f8b3bb6160e01b815260040160405180910390fd5b600254604051632fa7cffb60e21b81526001600160a01b0390911690600090829063be9f3fec9061064090889060040161472b565b6103406040518083038186803b15801561065957600080fd5b505afa15801561066d573d6000803e3d6000fd5b505050506040513d601f19601f820116820180604052508101906106919190614376565b60208101519091506001600160a01b03166106bf57604051630e52390960e41b815260040160405180910390fd5b60008161012001518260800151602001516106da9190614c55565b905060006106e661340b565b9050808211156107095760405163bb2875c360e01b815260040160405180910390fd5b60405163f76e91fd60e01b81526001600160a01b0385169063f76e91fd906107359086906004016147d4565b602060405180830381600087803b15801561074f57600080fd5b505af1158015610763573d6000803e3d6000fd5b505050506040513d601f19601f82011682018060405250810190610787919061418a565b95508660a00151600a600082825461079f9190614b0e565b9091555050610140830151600d80546000906107bc908490614b0e565b909155505060808701516020808901516001600160a01b0316600090815260109091526040812080549091906107f3908490614b0e565b909155505060c087015160608801516001600160a01b031660009081526011602052604081208054909190610829908490614b0e565b909155505060808301516020015160088054600090610849908490614b0e565b909155505061014083015161012084015161086c9161086791614c55565b61342a565b61087b858860000151846134a4565b8587600001516001600160a01b0316336001600160a01b03167f6fa15176f59ef643f98e48bb7bbcdc1f7ed128c889a18626d6c28f6e7e2dece48a602001518b604001518c606001518d608001518e60a001518f60c001518c61012001518d61014001516040516109359897969594939291906001600160a01b03988916815296881660208801529490961660408601526060850192909252608084015260a083015260c082019290925260e08101919091526101000190565b60405180910390a45050600160005550919392505050565b6001546001600160a01b031615610977576040516373e833b960e11b815260040160405180910390fd5b600180546001600160a01b0319166001600160a01b03851690811790915560408051638cd4741560e01b81529051638cd4741591600480820192602092909190829003018186803b1580156109cb57600080fd5b505afa1580156109df573d6000803e3d6000fd5b505050506040513d601f19601f82011682018060405250810190610a039190613fc0565b600260006101000a8154816001600160a01b0302191690836001600160a01b03160217905550826001600160a01b031663a4fbc0d76040518163ffffffff1660e01b815260040160206040518083038186803b158015610a6257600080fd5b505afa158015610a76573d6000803e3d6000fd5b505050506040513d601f19601f82011682018060405250810190610a9a9190613fc0565b600380546001600160a01b039283166001600160a01b0319918216179091556004805492851692909116821781556040805163313ce56760e01b8152905163313ce56792828101926020929190829003018186803b158015610afb57600080fd5b505afa158015610b0f573d6000803e3d6000fd5b505050506040513d601f19601f82011682018060405250810190610b3391906145de565b610b3e90600a614b8b565b6005556006555050565b600054600114610b6b576040516303cb96db60e21b815260040160405180910390fd5b60008055600154604051639a30739160e01b81523360048201526001600160a01b0390911690639a3073919060240160206040518083038186803b158015610bb257600080fd5b505afa158015610bc6573d6000803e3d6000fd5b505050506040513d601f19601f82011682018060405250810190610bea919061416d565b610c095760405163a59d7f4d60e01b815233600482015260240161056b565b60025460405163957d1fe160e01b8152823560048201526001600160a01b0390911690600090829063957d1fe1906024016103406040518083038186803b158015610c5357600080fd5b505afa158015610c67573d6000803e3d6000fd5b505050506040513d601f19601f82011682018060405250810190610c8b9190614376565b90506000610c976135d5565b9050816080015160200151811015610cc25760405163f8b3bb6160e01b815260040160405180910390fd5b6001600160a01b038316639a1023418535610ce36040880160208901613fa3565b6040516001600160e01b031960e085901b16815260048101929092526001600160a01b03166024820152604401600060405180830381600087803b158015610d2a57600080fd5b505af1158015610d3e573d6000803e3d6000fd5b50505050816080015160200151600a6000828254610d5c9190614c55565b9091555050608082015160200151600b8054600090610d7c908490614b0e565b9091555050606082015160208082015191516001600160a01b031660009081526010909152604081208054909190610db5908490614c55565b909155505060a082015160208082015191516001600160a01b031660009081526011909152604081208054909190610dee908490614c55565b909155505060808201516020015160088054600090610e0e908490614c55565b909155505060608201518051602080850151920151610e2d92906134a4565b60a08201518051602080850151920151610e4792906134a4565b8151337f415e462bce09ff3142dc51f9a6878d89bb34d75a21bc8ffc7fc397eccce872e9610e7b6040880160208901613fa3565b610e8b6060890160408a01613fa3565b604080516001600160a01b0393841681529290911660208301526060808a0135918301919091520160405180910390a3505060016000555050565b6001546001600160a01b03163314610ef35760405163a59d7f4d60e01b815233600482015260240161056b565b60068190556040518181527f81ed86e8cfa3004fc54732477c3eda4f4c606394a0b423aba78153a3e696f65d906020015b60405180910390a150565b6001546001600160a01b03163314610f5c5760405163a59d7f4d60e01b815233600482015260240161056b565b600454815183516001600160a01b039092169114610f9a578251825160405163574092f960e01b81526004810192909252602482015260440161056b565b60005b83518110156110b357828181518110610fb857610fb8614cc9565b6020026020010151600f6000868481518110610fd657610fd6614cc9565b60200260200101516001600160a01b03166001600160a01b0316815260200190815260200160002060006101000a81548160ff0219169083151502179055507fec4f975deac1f5c1d92fd5f7a2b08d2c4e3e60215ab50703da45f8f8e9f2fc9b84828151811061104857611048614cc9565b60200260200101518385848151811061106357611063614cc9565b6020026020010151604051611099939291906001600160a01b039384168152919092166020820152901515604082015260600190565b60405180910390a1806110ab81614c98565b915050610f9d565b50505050565b6001546001600160a01b031633146110e65760405163a59d7f4d60e01b815233600482015260240161056b565b60078190556040518181527f9290d3ed14fa81f8d341842ac22f26e4bb4449e0d0a8566656d54dafae29198e90602001610f24565b60005460011461113e576040516303cb96db60e21b815260040160405180910390fd5b60008055600154604051639a30739160e01b81523360048201526001600160a01b0390911690639a3073919060240160206040518083038186803b15801561118557600080fd5b505afa158015611199573d6000803e3d6000fd5b505050506040513d601f19601f820116820180604052508101906111bd919061416d565b6111dc5760405163a59d7f4d60e01b815233600482015260240161056b565b600254815160405163957d1fe160e01b81526001600160a01b0390921691600091839163957d1fe1916112159160040190815260200190565b6103406040518083038186803b15801561122e57600080fd5b505afa158015611242573d6000803e3d6000fd5b505050506040513d601f19601f820116820180604052508101906112669190614376565b9050600080836001600160a01b0316635330e353866040518263ffffffff1660e01b8152600401611297919061495f565b6040805180830381600087803b1580156112b057600080fd5b505af11580156112c4573d6000803e3d6000fd5b505050506040513d601f19601f820116820180604052508101906112e891906145ba565b90925090506112fa6108678284614c55565b80600d600082825461130c9190614b0e565b9091555050845160608481015151608080870151516020808b01516040808d0151878e0151868f015183516001600160a01b03998a168152968916958701959095529185019290925295830189905292820187905291831660a08201529190921660c082015260e081019190915233907f02bde35fb6c4387120ff67d8e52f04c37f08b2a8235cd8a731848afda59f622e906101000160405180910390a350506001600055505050565b6000546001146113d9576040516303cb96db60e21b815260040160405180910390fd5b60008055600154604051639a30739160e01b81523360048201526001600160a01b0390911690639a3073919060240160206040518083038186803b15801561142057600080fd5b505afa158015611434573d6000803e3d6000fd5b505050506040513d601f19601f82011682018060405250810190611458919061416d565b6114775760405163a59d7f4d60e01b815233600482015260240161056b565b600254604051631601180b60e31b8152600481018490526001600160a01b0390911690819063b008c05890602401600060405180830381600087803b1580156114bf57600080fd5b505af11580156114d3573d6000803e3d6000fd5b505060405163957d1fe160e01b815260048101869052600092506001600160a01b038416915063957d1fe1906024016103406040518083038186803b15801561151b57600080fd5b505afa15801561152f573d6000803e3d6000fd5b505050506040513d601f19601f820116820180604052508101906115539190614376565b9050611570816060015160000151848360600151602001516134a4565b61158b8160a0015160000151848360a00151602001516134a4565b606081015160208082015191516001600160a01b0316600090815260109091526040812080549091906115bf908490614c55565b909155505060a081015160208082015191516001600160a01b0316600090815260119091526040812080549091906115f8908490614c55565b90915550506040516001600160a01b03841690859033907f1cc79853bbf119208b3fab3b7d33fcdb6ceaee7c8b16b89bdb389ed3b51ad17c90600090a4505060016000555050565b60008054600114611664576040516303cb96db60e21b815260040160405180910390fd5b6000808055338152601260205260409020805460038201546116869088614b0e565b11156116a55760405163bb2875c360e01b815260040160405180910390fd5b858160030160008282546116b99190614b0e565b9250508190555085600b60008282546116d29190614b0e565b90915550506003546004805460405163130e06fd60e31b81526001600160a01b0393841693849363987037e893611717933393909116918d918d918d918d9101614672565b602060405180830381600087803b15801561173157600080fd5b505af1158015611745573d6000803e3d6000fd5b505050506040513d601f19601f82011682018060405250810190611769919061418a565b6001600055979650505050505050565b60005460011461179c576040516303cb96db60e21b815260040160405180910390fd5b6000805580156118c457336000908152601260205260409020600e54600554825415611802576001830154835482906117d59085614c36565b6117df9190614b26565b6117e99190614c55565b8360020160008282546117fc9190614b0e565b90915550505b825481906118109084614c36565b61181a9190614b26565b600184015560028301548411806118325750600c5484115b156118505760405163bb2875c360e01b815260040160405180910390fd5b838360020160008282546118649190614c55565b9091555050600454611880906001600160a01b031686866134a4565b6040518481526001600160a01b0386169033907f1314fd112a381beea61539dbd21ec04afcff2662ac7d1b83273aade1f53d1b979060200160405180910390a35050505b50506001600055565b60006118d761340b565b905090565b6000546001146118ff576040516303cb96db60e21b815260040160405180910390fd5b60008080556004546001600160a01b03868116835260126020526040909220600e54600554825494909316939192909115611974576001830154835482906119479085614c36565b6119519190614b26565b61195b9190614c55565b83600201600082825461196e9190614b0e565b90915550505b868360000160008282546119889190614b0e565b90915550508254819061199b9084614c36565b6119a59190614b26565b836001018190555086600960008282546119bf9190614b0e565b909155506119cd90506136a0565b6040516370a0823160e01b81523060048201526000906001600160a01b038616906370a082319060240160206040518083038186803b158015611a0f57600080fd5b505afa158015611a23573d6000803e3d6000fd5b505050506040513d601f19601f82011682018060405250810190611a47919061418a565b6040516303a3bcd760e01b815290915033906303a3bcd790611a739088908c908c908c906004016146f9565b600060405180830381600087803b158015611a8d57600080fd5b505af1158015611aa1573d6000803e3d6000fd5b50506040516370a0823160e01b8152306004820152600092506001600160a01b03881691506370a082319060240160206040518083038186803b158015611ae757600080fd5b505afa158015611afb573d6000803e3d6000fd5b505050506040513d601f19601f82011682018060405250810190611b1f919061418a565b9050611b2b8983614b0e565b811015611b4b5760405163f8b3bb6160e01b815260040160405180910390fd5b6040518981526001600160a01b038b169033907fab8530f87dc9b59234c4623bf917212bb2536d647574c8e7e5da92c2ede0c9f89060200160405180910390a3505060016000555050505050505050565b6001600160a01b03811660009081526012602090815260408083208151608081018352815480825260018301549482018590526002830154938201939093526003909101546060820152600554600e549193929091611bfb9190614c36565b611c059190614b26565b8260400151611c149190614b0e565b611c1e9190614c55565b9150600c54821115611c3057600c5491505b50919050565b6003546001600160a01b03163314611c635760405163a59d7f4d60e01b815233600482015260240161056b565b6000600b55565b60008054600114611c8e576040516303cb96db60e21b815260040160405180910390fd5b60008055600154604051639a30739160e01b81523360048201526001600160a01b0390911690639a3073919060240160206040518083038186803b158015611cd557600080fd5b505afa158015611ce9573d6000803e3d6000fd5b505050506040513d601f19601f82011682018060405250810190611d0d919061416d565b611d2c5760405163a59d7f4d60e01b815233600482015260240161056b565b600254825160405163957d1fe160e01b81526001600160a01b0390921691600091839163957d1fe191611d659160040190815260200190565b6103406040518083038186803b158015611d7e57600080fd5b505afa158015611d92573d6000803e3d6000fd5b505050506040513d601f19601f82011682018060405250810190611db69190614376565b90506000611dcb8260a0015160000151613758565b90508460200151811015611df25760405163f8b3bb6160e01b815260040160405180910390fd5b60405163c6f61b0160e01b81526001600160a01b0384169063c6f61b0190611e1e90889060040161495f565b602060405180830381600087803b158015611e3857600080fd5b505af1158015611e4c573d6000803e3d6000fd5b505050506040513d601f19601f82011682018060405250810190611e70919061418a565b93508460200151601160008460a00151600001516001600160a01b03166001600160a01b031681526020019081526020016000206000828254611eb39190614b0e565b909155505084516020860151604080880151606089015160808a0151925133947f55c8ac91237f6fa939a79c1699293ce14171d61728c7cc56a131f51758fa598f94611f2c9491938c9390919094855260208501939093526001600160a01b039182166040850152166060830152608082015260a00190565b60405180910390a35050600160005550919050565b600054600114611f64576040516303cb96db60e21b815260040160405180910390fd5b60008055600154604051639a30739160e01b81523360048201526001600160a01b0390911690639a3073919060240160206040518083038186803b158015611fab57600080fd5b505afa158015611fbf573d6000803e3d6000fd5b505050506040513d601f19601f82011682018060405250810190611fe3919061416d565b6120025760405163a59d7f4d60e01b815233600482015260240161056b565b60025460405163957d1fe160e01b8152600481018690526001600160a01b0390911690600090829063957d1fe1906024016103406040518083038186803b15801561204c57600080fd5b505afa158015612060573d6000803e3d6000fd5b505050506040513d601f19601f820116820180604052508101906120849190614376565b60808101515160a0820151519192506001600160a01b03918216911614156120ed5760006120b06135d5565b9050836120bd8688614b0e565b6120c79190614b0e565b8110156120e75760405163f8b3bb6160e01b815260040160405180910390fd5b5061220c565b60006120f76135d5565b90506121038487614b0e565b8110156121235760405163f8b3bb6160e01b815260040160405180910390fd5b60a082018051516001600160a01b039081166000908152601160209081526040808320548551518516845260109092528083205494515190516370a0823160e01b815230600482015291949316906370a082319060240160206040518083038186803b15801561219257600080fd5b505afa1580156121a6573d6000803e3d6000fd5b505050506040513d601f19601f820116820180604052508101906121ca919061418a565b90506000826121d98584614c55565b6121e39190614c55565b9050888110156122065760405163f8b3bb6160e01b815260040160405180910390fd5b50505050505b60405163f71139f760e01b8152600481018790526001600160a01b0383169063f71139f790602401600060405180830381600087803b15801561224e57600080fd5b505af1158015612262573d6000803e3d6000fd5b505050506000808483608001516020015161227d9190614b0e565b905080871015612294576122918782614c55565b91505b8251604051638b029d6160e01b815260048101919091526024810188905260448101839052606481018790526001600160a01b03851690638b029d6190608401600060405180830381600087803b1580156122ee57600080fd5b505af1158015612302573d6000803e3d6000fd5b50505050826080015160200151600a60008282546123209190614c55565b9091555050608083015160200151600b8054600090612340908490614b0e565b909155505060808301516020015160088054600090612360908490614c55565b909155505084156123ff576001546040805163bd2bae9d60e01b815290516000926001600160a01b03169163bd2bae9d916004808301926020929190829003018186803b1580156123b057600080fd5b505afa1580156123c4573d6000803e3d6000fd5b505050506040513d601f19601f820116820180604052508101906123e89190613fc0565b90506123fd84608001516000015182886134a4565b505b816124315760006124108289614c55565b9050801561242f5761242f8460800151600001518560200151836134a4565b505b851561244e5761244e8360a00151600001518460200151886134a4565b60208381015160608086015151604080516001600160a01b039283168152339581018690529081018a90528c94919093169290917fad34241f9e3b3d38652a7493d4e07da1f3e88afa819a546544b20de727f2ffd8910160405180910390a450506001600055505050505050565b6000546001146124df576040516303cb96db60e21b815260040160405180910390fd5b600080556003546001600160a01b03163381146125115760405163a59d7f4d60e01b815233600482015260240161056b565b6020808301516001600160a01b031660009081526012909152604090206003810154606084015111156125575760405163bb2875c360e01b815260040160405180910390fd5b600b5460608401518110156125ab57600061257061340b565b905061257c8183614b0e565b856060015111156125a05760405163bb2875c360e01b815260040160405180910390fd5b506000600b556125c7565b8360600151600b60008282546125c19190614c55565b90915550505b600e54600554835415612614576001840154845482906125e79085614c36565b6125f19190614b26565b6125fb9190614c55565b84600201600082825461260e9190614b0e565b90915550505b856060015184600001600082825461262c9190614c55565b9091555050606086015160038501805460009061264a908490614c55565b90915550508354819061265d9084614c36565b6126679190614b26565b6001850155606086015160098054600090612683908490614c55565b9091555061269190506136a0565b60a0860151511561288857600086606001518760a001516040516024016126b99291906149a5565b60408051601f19818403018152918152602080830180516001600160e01b031663462cc8ff60e11b179052890151905191925060009182916001600160a01b031690612706908590614656565b6000604051808303816000865af19150503d8060008114612743576040519150601f19603f3d011682016040523d82523d6000602084013e612748565b606091505b50915091508161288457604481511015612806578851604051634d4a6fbb60e01b81526001600160a01b038a1691634d4a6fbb916127cf91906004019081526040602082018190526024908201527f43616c6c6261636b207472616e73616374696f6e206661696c65642073696c656060820152636e746c7960e01b608082015260a00190565b600060405180830381600087803b1580156127e957600080fd5b505af11580156127fd573d6000803e3d6000fd5b50505050612884565b600481019050876001600160a01b0316634d4a6fbb8a60000151838060200190518101906128349190614205565b6040518363ffffffff1660e01b81526004016128519291906149a5565b600060405180830381600087803b15801561286b57600080fd5b505af115801561287f573d6000803e3d6000fd5b505050505b5050505b600454608087015160608801516128a9926001600160a01b031691906134a4565b606086015160405190815233907fcc16f5dbb4873280815c1ee09dbd06736cffcc184412cf7a71a0fdb75d397ca59060200160405180910390a25050600160005550505050565b600054600114612913576040516303cb96db60e21b815260040160405180910390fd5b60008055600154604051639a30739160e01b81523360048201526001600160a01b0390911690639a3073919060240160206040518083038186803b15801561295a57600080fd5b505afa15801561296e573d6000803e3d6000fd5b505050506040513d601f19601f82011682018060405250810190612992919061416d565b6129b15760405163a59d7f4d60e01b815233600482015260240161056b565b6001546002546001600160a01b03918216911660008163ac00b67485356129de6080880160608901613fa3565b6040516001600160e01b031960e085901b16815260048101929092526001600160a01b03166024820152604401602060405180830381600087803b158015612a2557600080fd5b505af1158015612a39573d6000803e3d6000fd5b505050506040513d601f19601f82011682018060405250810190612a5d919061416d565b60405163957d1fe160e01b8152853560048201529091506000906001600160a01b0384169063957d1fe1906024016103406040518083038186803b158015612aa457600080fd5b505afa158015612ab8573d6000803e3d6000fd5b505050506040513d601f19601f82011682018060405250810190612adc9190614376565b90506000846001600160a01b0316637c21d5e06040518163ffffffff1660e01b815260040160206040518083038186803b158015612b1957600080fd5b505afa158015612b2d573d6000803e3d6000fd5b505050506040513d601f19601f82011682018060405250810190612b519190613fc0565b6060830151805160808501515160209092015160405163d7176ca960e01b81526000600482018190526001600160a01b0393841660248301529383166044820152606481019190915292935090919083169063d7176ca990608401604080518083038186803b158015612bc357600080fd5b505afa158015612bd7573d6000803e3d6000fd5b505050506040513d601f19601f82011682018060405250810190612bfb9190614552565b509050612c158382612c1060208b018b6149be565b61383d565b6080830151602001516000908515612cc3576000886001600160a01b0316635fb3b1b56040518163ffffffff1660e01b815260040160206040518083038186803b158015612c6257600080fd5b505afa158015612c76573d6000803e3d6000fd5b505050506040513d601f19601f82011682018060405250810190612c9a919061418a565b9050612710612ca98284614c36565b612cb39190614b26565b9250612cbf8383614b0e565b9150505b600080600083861015612e0257612cda8685614c55565b60808901515160a08a0151519194508492506001600160a01b03918216911614612e025760a08801515160808901515160405163ec27830960e01b8152600060048201526001600160a01b0392831660248201529082166044820152606481018590529088169063ec27830990608401604080518083038186803b158015612d6157600080fd5b505afa158015612d75573d6000803e3d6000fd5b505050506040513d601f19601f82011682018060405250810190612d999190614552565b5060a089015160200151909150811115612dda5760a088015160200151604051632c1f8ef160e21b815260048101919091526024810182905260440161056b565b612df58882858f8060400190612df091906149be565b6139f1565b612dff9083614b0e565b91505b808860a0015160200151612e169190614c55565b612e209083614b0e565b8851604051638b029d6160e01b815260048101919091526024810188905260448101859052606481018290529092506001600160a01b038b169150638b029d6190608401600060405180830381600087803b158015612e7e57600080fd5b505af1158015612e92573d6000803e3d6000fd5b50505050866080015160200151600a6000828254612eb09190614c55565b9091555050608087015160200151600b8054600090612ed0908490614b0e565b9091555050606087015160208082015191516001600160a01b031660009081526010909152604081208054909190612f09908490614c55565b909155505060a087015160208082015191516001600160a01b031660009081526011909152604081208054909190612f42908490614c55565b909155505060808701516020015160088054600090612f62908490614c55565b90915550508315612ff75760008a6001600160a01b031663bd2bae9d6040518163ffffffff1660e01b815260040160206040518083038186803b158015612fa857600080fd5b505afa158015612fbc573d6000803e3d6000fd5b505050506040513d601f19601f82011682018060405250810190612fe09190613fc0565b9050612ff588608001516000015182876134a4565b505b816130295760006130088487614c55565b90508015613027576130278860800151600001518960200151836134a4565b505b8015613046576130468760a00151600001518860200151836134a4565b866000015187602001516001600160a01b0316336001600160a01b03167fad34241f9e3b3d38652a7493d4e07da1f3e88afa819a546544b20de727f2ffd88a60600151600001518f60600160208101906130a09190613fa3565b604080516001600160a01b039384168152929091166020830152810189905260600160405180910390a450506001600055505050505050505050565b600081602001516001600160a01b031682606001516001600160a01b0316146133175760608201516040516370a0823160e01b81523060048201526000916001600160a01b0316906370a082319060240160206040518083038186803b15801561314557600080fd5b505afa158015613159573d6000803e3d6000fd5b505050506040513d601f19601f8201168201806040525081019061317d919061418a565b6060840180516001600160a01b03908116600090815260106020908152604080832054945190931682526011905220549192506131b991614b0e565b6131c39082614c55565b905082604001516001600160a01b031683606001516001600160a01b0316141561321e57600d54600c54600a546009546131fd9190614c55565b6132079190614c55565b6132119190614c55565b61321b9082614c55565b90505b8260c001518110156132335750600092915050565b60208301516040516370a0823160e01b81523060048201526000916001600160a01b0316906370a082319060240160206040518083038186803b15801561327957600080fd5b505afa15801561328d573d6000803e3d6000fd5b505050506040513d601f19601f820116820180604052508101906132b1919061418a565b602080860180516001600160a01b03908116600090815260108452604080822054935190921681526011909352909120549192506132ee91614b0e565b6132f89082614c55565b90508360800151811015613310575060009392505050565b5050613403565b60608201516040516370a0823160e01b81523060048201526000916001600160a01b0316906370a082319060240160206040518083038186803b15801561335d57600080fd5b505afa158015613371573d6000803e3d6000fd5b505050506040513d601f19601f82011682018060405250810190613395919061418a565b6060840180516001600160a01b03908116600090815260106020908152604080832054945190931682526011905220549192506133d191614b0e565b6133db9082614c55565b905082608001518360c001516133f19190614b0e565b8110156134015750600092915050565b505b506001919050565b6000600b54600a546009546134209190614c55565b6118d79190614c55565b80600c600082825461343c9190614b0e565b90915550506009546005546134519083614c36565b61345b9190614b26565b600e600082825461346c9190614b0e565b9091555050600c546040519081527f38e229a7f3f9c329892d08eb37c4e91ccac6d12c798d394990ca4f56028ec26690602001610f24565b604080516001600160a01b038481166024830152604480830185905283518084039091018152606490920183526020820180516001600160e01b031663a9059cbb60e01b17905291516000928392908716916135009190614656565b6000604051808303816000865af19150503d806000811461353d576040519150601f19603f3d011682016040523d82523d6000602084013e613542565b606091505b509150915081801561356c57508051158061356c57508080602001905181019061356c919061416d565b6135ce5760405162461bcd60e51b815260206004820152602d60248201527f5472616e7366657248656c7065723a3a736166655472616e736665723a20747260448201526c185b9cd9995c8819985a5b1959609a1b606482015260840161056b565b5050505050565b600480546040516370a0823160e01b815230928101929092526000916001600160a01b0390911690829082906370a082319060240160206040518083038186803b15801561362257600080fd5b505afa158015613636573d6000803e3d6000fd5b505050506040513d601f19601f8201168201806040525081019061365a919061418a565b9050600a5460095461366c9190614c55565b6001600160a01b03831660009081526011602052604090205461368f9083614c55565b6136999190614c55565b9250505090565b600d548015613755576001546040805163779b492960e11b815290516000926001600160a01b03169163ef369252916004808301926020929190829003018186803b1580156136ee57600080fd5b505afa158015613702573d6000803e3d6000fd5b505050506040513d601f19601f820116820180604052508101906137269190613fc0565b90506001600160a01b03811615613753576000600d55600454613753906001600160a01b031682846134a4565b505b50565b6004546000906001600160a01b038381169116141561377f576137796135d5565b92915050565b6040516370a0823160e01b81523060048201526000906001600160a01b038416906370a082319060240160206040518083038186803b1580156137c157600080fd5b505afa1580156137d5573d6000803e3d6000fd5b505050506040513d601f19601f820116820180604052508101906137f9919061418a565b6001600160a01b0384166000908152601060209081526040808320546011909252909120549192509061382c9083614c55565b6138369190614c55565b9392505050565b6080840151516040516370a0823160e01b81523060048201526000916001600160a01b0316906370a082319060240160206040518083038186803b15801561388457600080fd5b505afa158015613898573d6000803e3d6000fd5b505050506040513d601f19601f820116820180604052508101906138bc919061418a565b90506138d9856060015160000151338760600151602001516134a4565b6060850151516080860151516040516339d87e7760e21b8152339263e761f9dc9261390c928990899089906004016146ba565b600060405180830381600087803b15801561392657600080fd5b505af115801561393a573d6000803e3d6000fd5b505050506080850151516040516370a0823160e01b81523060048201526000916001600160a01b0316906370a082319060240160206040518083038186803b15801561398557600080fd5b505afa158015613999573d6000803e3d6000fd5b505050506040513d601f19601f820116820180604052508101906139bd919061418a565b90506139c98583614b0e565b8110156139e95760405163f8b3bb6160e01b815260040160405180910390fd5b505050505050565b60a0850151516040516370a0823160e01b815230600482015260009182916001600160a01b03909116906370a082319060240160206040518083038186803b158015613a3c57600080fd5b505afa158015613a50573d6000803e3d6000fd5b505050506040513d601f19601f82011682018060405250810190613a74919061418a565b6080880151516040516370a0823160e01b81523060048201529192506000916001600160a01b03909116906370a082319060240160206040518083038186803b158015613ac057600080fd5b505afa158015613ad4573d6000803e3d6000fd5b505050506040513d601f19601f82011682018060405250810190613af8919061418a565b9050613b0d8860a001516000015133896134a4565b60a0880151516080890151516040516339d87e7760e21b8152339263e761f9dc92613b40928b908b908b906004016146ba565b600060405180830381600087803b158015613b5a57600080fd5b505af1158015613b6e573d6000803e3d6000fd5b5050505060a0880151516040516370a0823160e01b81523060048201526000916001600160a01b0316906370a082319060240160206040518083038186803b158015613bb957600080fd5b505afa158015613bcd573d6000803e3d6000fd5b505050506040513d601f19601f82011682018060405250810190613bf1919061418a565b60808a0151516040516370a0823160e01b81523060048201529192506000916001600160a01b03909116906370a082319060240160206040518083038186803b158015613c3d57600080fd5b505afa158015613c51573d6000803e3d6000fd5b505050506040513d601f19601f82011682018060405250810190613c75919061418a565b9050613c818884614b0e565b811015613ca15760405163f8b3bb6160e01b815260040160405180910390fd5b613cab8985614c55565b613cb59083614c55565b9a9950505050505050505050565b8035613cce81614cf5565b919050565b8051613cce81614cf5565b600082601f830112613cef57600080fd5b81356020613d04613cff83614ac4565b614a94565b80838252828201915082860187848660051b8901011115613d2457600080fd5b60005b85811015613d4c578135613d3a81614d0a565b84529284019290840190600101613d27565b5090979650505050505050565b60008083601f840112613d6b57600080fd5b5081356001600160401b03811115613d8257600080fd5b602083019150836020828501011115613d9a57600080fd5b9250929050565b600082601f830112613db257600080fd5b8135613dc0613cff82614ae7565b818152846020838601011115613dd557600080fd5b816020850160208301376000918101602001919091529392505050565b600060a08284031215613e0457600080fd5b613e0c614a04565b90508151613e1981614cf5565b808252506020820151602082015260408201516040820152606082015160608201526080820151608082015292915050565b600060808284031215611c3057600080fd5b600060408284031215613e6f57600080fd5b604051604081018181106001600160401b0382111715613e9157613e91614cdf565b80604052508091508251613ea481614cf5565b8152602092830151920191909152919050565b600060808284031215613ec957600080fd5b604051608081018181106001600160401b0382111715613eeb57613eeb614cdf565b80604052508091508251613efe81614d0a565b81526020830151613f0e81614d0a565b60208201526040830151613f2181614d0a565b60408201526060830151613f3481614d0a565b6060919091015292915050565b600060a08284031215613f5357600080fd5b613f5b614a04565b905081358152602082013560208201526040820135613f7981614cf5565b60408201526060820135613f8c81614cf5565b806060830152506080820135608082015292915050565b600060208284031215613fb557600080fd5b813561383681614cf5565b600060208284031215613fd257600080fd5b815161383681614cf5565b600080600060608486031215613ff257600080fd5b8335613ffd81614cf5565b9250602084013561400d81614cf5565b929592945050506040919091013590565b6000806040838503121561403157600080fd5b823561403c81614cf5565b946020939093013593505050565b6000806000806060858703121561406057600080fd5b843561406b81614cf5565b93506020850135925060408501356001600160401b0381111561408d57600080fd5b61409987828801613d59565b95989497509550505050565b600080604083850312156140b857600080fd5b82356001600160401b03808211156140cf57600080fd5b818501915085601f8301126140e357600080fd5b813560206140f3613cff83614ac4565b8083825282820191508286018a848660051b890101111561411357600080fd5b600096505b8487101561413f57803561412b81614cf5565b835260019690960195918301918301614118565b509650508601359250508082111561415657600080fd5b5061416385828601613cde565b9150509250929050565b60006020828403121561417f57600080fd5b815161383681614d0a565b60006020828403121561419c57600080fd5b5051919050565b600080604083850312156141b657600080fd5b8235915060208301356141c881614cf5565b809150509250929050565b600080600080608085870312156141e957600080fd5b5050823594602084013594506040840135936060013592509050565b60006020828403121561421757600080fd5b81516001600160401b0381111561422d57600080fd5b8201601f8101841361423e57600080fd5b805161424c613cff82614ae7565b81815285602083850101111561426157600080fd5b614272826020830160208601614c6c565b95945050505050565b60006020828403121561428d57600080fd5b81356001600160401b038111156142a357600080fd5b6142af84828501613e4b565b949350505050565b600061014082840312156142ca57600080fd5b6142d2614a2c565b6142db83613cc3565b81526142e960208401613cc3565b60208201526142fa60408401613cc3565b604082015261430b60608401613cc3565b60608201526080830135608082015260a083013560a082015260c083013560c082015260e083013560e08201526101008084013581830152506101208084013581830152508091505092915050565b60006080828403121561436c57600080fd5b6138368383613e4b565b6000610340828403121561438957600080fd5b614391614a4f565b825181526143a160208401613cd3565b60208201526143b260408401613cd3565b60408201526143c48460608501613df2565b60608201526101006143d885828601613e5d565b60808301526101406143ec86828701613df2565b60a08401526101e085015160c084015261020085015160e084015261022085015182840152610240850151610120840152610260850151818401525050614437846102808501613eb7565b61016082015261444a6103008401613cd3565b61018082015261032092909201516101a083015250919050565b600060a0828403121561447657600080fd5b6138368383613f41565b60006020828403121561449257600080fd5b81356001600160401b03808211156144a957600080fd5b9083019060c082860312156144bd57600080fd5b6144c5614a72565b8235815260208301356144d781614cf5565b602082015260408301356144ea81614cf5565b604082015260608381013590820152608083013561450781614cf5565b608082015260a08301358281111561451e57600080fd5b61452a87828601613da1565b60a08301525095945050505050565b60006020828403121561454b57600080fd5b5035919050565b6000806040838503121561456557600080fd5b8251915060208301516141c881614cf5565b6000806000806060858703121561458d57600080fd5b84359350602085013561459f81614cf5565b925060408501356001600160401b0381111561408d57600080fd5b600080604083850312156145cd57600080fd5b505080516020909101519092909150565b6000602082840312156145f057600080fd5b815160ff8116811461383657600080fd5b81835281816020850137506000828201602090810191909152601f909101601f19169091010190565b60008151808452614642816020860160208601614c6c565b601f01601f19169290920160200192915050565b60008251614668818460208701614c6c565b9190910192915050565b6001600160a01b0387811682528681166020830152604082018690528416606082015260a0608082018190526000906146ae9083018486614601565b98975050505050505050565b6001600160a01b03868116825285166020820152604081018490526080606082018190526000906146ee9083018486614601565b979650505050505050565b60018060a01b0385168152836020820152606060408201526000614721606083018486614601565b9695505050505050565b81516001600160a01b031681526101408101602083015161475760208401826001600160a01b03169052565b50604083015161477260408401826001600160a01b03169052565b50606083015161478d60608401826001600160a01b03169052565b506080830151608083015260a083015160a083015260c083015160c083015260e083015160e083015261010080840151818401525061012080840151818401525092915050565b815181526020808301516103408301916147f8908401826001600160a01b03169052565b50604083015161481360408401826001600160a01b03169052565b506060830151614857606084018280516001600160a01b03168252602080820151908301526040808201519083015260608082015190830152608090810151910152565b50608083015161010061487f8185018380516001600160a01b03168252602090810151910152565b60a085015180516001600160a01b0316610140868101919091526020820151610160870152604082015161018087015260608201516101a087015260808201516101c087015290925060c08601516101e086015260e0860151610200860152908501516102208501526101208501516102408501528401516102608401525061016083015180511515610280840152602081015115156102a0840152604081015115156102c0840152606081015115156102e0840152506101808301516001600160a01b038116610300840152506101a083015161032083015292915050565b81518152602080830151908201526040808301516001600160a01b0390811691830191909152606080840151909116908201526080808301519082015260a08101613779565b8281526040602082015260006142af604083018461462a565b6000808335601e198436030181126149d557600080fd5b8301803591506001600160401b038211156149ef57600080fd5b602001915036819003821315613d9a57600080fd5b60405160a081016001600160401b0381118282101715614a2657614a26614cdf565b60405290565b60405161014081016001600160401b0381118282101715614a2657614a26614cdf565b6040516101c081016001600160401b0381118282101715614a2657614a26614cdf565b60405160c081016001600160401b0381118282101715614a2657614a26614cdf565b604051601f8201601f191681016001600160401b0381118282101715614abc57614abc614cdf565b604052919050565b60006001600160401b03821115614add57614add614cdf565b5060051b60200190565b60006001600160401b03821115614b0057614b00614cdf565b50601f01601f191660200190565b60008219821115614b2157614b21614cb3565b500190565b600082614b4357634e487b7160e01b600052601260045260246000fd5b500490565b600181815b80851115614b83578160001904821115614b6957614b69614cb3565b80851615614b7657918102915b93841c9390800290614b4d565b509250929050565b600061383660ff841683600082614ba457506001613779565b81614bb157506000613779565b8160018114614bc75760028114614bd157614bed565b6001915050613779565b60ff841115614be257614be2614cb3565b50506001821b613779565b5060208310610133831016604e8410600b8410161715614c10575081810a613779565b614c1a8383614b48565b8060001904821115614c2e57614c2e614cb3565b029392505050565b6000816000190483118215151615614c5057614c50614cb3565b500290565b600082821015614c6757614c67614cb3565b500390565b60005b83811015614c87578181015183820152602001614c6f565b838111156110b35750506000910152565b6000600019821415614cac57614cac614cb3565b5060010190565b634e487b7160e01b600052601160045260246000fd5b634e487b7160e01b600052603260045260246000fd5b634e487b7160e01b600052604160045260246000fd5b6001600160a01b038116811461375557600080fd5b801515811461375557600080fdfea264697066735822122050dc0cce0465e02521e8215947679181935b08e987a20aa2d1270587f513b47464736f6c63430008070033",
  "linkReferences": {},
  "deployedLinkReferences": {}
}