{
  "_format": "hh-sol-artifact-1",
  "contractName": "Pool",
  "sourceName": "contracts/Pool.sol",
  "abi": [
    {
      "inputs": [
        {
          "internalType": "uint256",
          "name": "length0",
          "type": "uint256"
        },
        {
          "internalType": "uint256",
          "name": "length1",
          "type": "uint256"
        }
      ],
      "name": "BadLengths",
      "type": "error"
    },
    {
      "inputs": [
        {
          "internalType": "address",
          "name": "to",
          "type": "address"
        },
        {
          "internalType": "uint256",
          "name": "value",
          "type": "uint256"
        }
      ],
      "name": "EthTransferFailed",
      "type": "error"
    },
    {
      "inputs": [
        {
          "internalType": "address",
          "name": "sender",
          "type": "address"
        }
      ],
      "name": "Forbidden",
      "type": "error"
    },
    {
      "inputs": [],
      "name": "InitializedAlready",
      "type": "error"
    },
    {
      "inputs": [
        {
          "internalType": "uint256",
          "name": "amount",
          "type": "uint256"
        },
        {
          "internalType": "uint256",
          "name": "neededAmount",
          "type": "uint256"
        }
      ],
      "name": "InsufficientCollateral",
      "type": "error"
    },
    {
      "inputs": [],
      "name": "InsufficientInput",
      "type": "error"
    },
    {
      "inputs": [],
      "name": "InsufficientOutput",
      "type": "error"
    },
    {
      "inputs": [],
      "name": "InvalidParameters",
      "type": "error"
    },
    {
      "inputs": [],
      "name": "Locked",
      "type": "error"
    },
    {
      "inputs": [
        {
          "internalType": "address",
          "name": "token",
          "type": "address"
        },
        {
          "internalType": "address",
          "name": "to",
          "type": "address"
        },
        {
          "internalType": "uint256",
          "name": "value",
          "type": "uint256"
        }
      ],
      "name": "TransferFailed",
      "type": "error"
    },
    {
      "inputs": [
        {
          "internalType": "address",
          "name": "token",
          "type": "address"
        },
        {
          "internalType": "address",
          "name": "quoteToken",
          "type": "address"
        }
      ],
      "name": "WrongPool",
      "type": "error"
    },
    {
      "inputs": [],
      "name": "ZeroValue",
      "type": "error"
    },
    {
      "anonymous": false,
      "inputs": [
        {
          "indexed": true,
          "internalType": "address",
          "name": "sender",
          "type": "address"
        },
        {
          "indexed": false,
          "internalType": "uint256",
          "name": "liquidity",
          "type": "uint256"
        }
      ],
      "name": "Burn",
      "type": "event"
    },
    {
      "anonymous": false,
      "inputs": [
        {
          "indexed": true,
          "internalType": "address",
          "name": "sender",
          "type": "address"
        },
        {
          "indexed": true,
          "internalType": "address",
          "name": "owner",
          "type": "address"
        },
        {
          "indexed": true,
          "internalType": "bytes32",
          "name": "positionKey",
          "type": "bytes32"
        },
        {
          "indexed": false,
          "internalType": "address",
          "name": "baseToken",
          "type": "address"
        },
        {
          "indexed": false,
          "internalType": "address",
          "name": "closer",
          "type": "address"
        },
        {
          "indexed": false,
          "internalType": "uint256",
          "name": "liquidationFee",
          "type": "uint256"
        }
      ],
      "name": "Close",
      "type": "event"
    },
    {
      "anonymous": false,
      "inputs": [
        {
          "indexed": true,
          "internalType": "address",
          "name": "sender",
          "type": "address"
        },
        {
          "indexed": true,
          "internalType": "bytes32",
          "name": "positionKey",
          "type": "bytes32"
        },
        {
          "indexed": true,
          "internalType": "address",
          "name": "executor",
          "type": "address"
        }
      ],
      "name": "CloseManuallyStep1",
      "type": "event"
    },
    {
      "anonymous": false,
      "inputs": [
        {
          "indexed": true,
          "internalType": "address",
          "name": "sender",
          "type": "address"
        },
        {
          "indexed": true,
          "internalType": "address",
          "name": "to",
          "type": "address"
        },
        {
          "indexed": false,
          "internalType": "uint256",
          "name": "amount",
          "type": "uint256"
        }
      ],
      "name": "Collect",
      "type": "event"
    },
    {
      "anonymous": false,
      "inputs": [
        {
          "indexed": true,
          "internalType": "address",
          "name": "sender",
          "type": "address"
        },
        {
          "indexed": true,
          "internalType": "address",
          "name": "to",
          "type": "address"
        },
        {
          "indexed": false,
          "internalType": "uint256",
          "name": "liquidity",
          "type": "uint256"
        }
      ],
      "name": "Mint",
      "type": "event"
    },
    {
      "anonymous": false,
      "inputs": [
        {
          "indexed": true,
          "internalType": "address",
          "name": "sender",
          "type": "address"
        },
        {
          "indexed": true,
          "internalType": "address",
          "name": "owner",
          "type": "address"
        },
        {
          "indexed": true,
          "internalType": "bytes32",
          "name": "positionKey",
          "type": "bytes32"
        },
        {
          "indexed": false,
          "internalType": "address",
          "name": "baseToken",
          "type": "address"
        },
        {
          "indexed": false,
          "internalType": "address",
          "name": "quoteToken",
          "type": "address"
        },
        {
          "indexed": false,
          "internalType": "address",
          "name": "collateral",
          "type": "address"
        },
        {
          "indexed": false,
          "internalType": "uint256",
          "name": "baseAmount",
          "type": "uint256"
        },
        {
          "indexed": false,
          "internalType": "uint256",
          "name": "quoteAmount",
          "type": "uint256"
        },
        {
          "indexed": false,
          "internalType": "uint256",
          "name": "collateralAmount",
          "type": "uint256"
        },
        {
          "indexed": false,
          "internalType": "uint256",
          "name": "fee",
          "type": "uint256"
        },
        {
          "indexed": false,
          "internalType": "uint256",
          "name": "protocolFee",
          "type": "uint256"
        }
      ],
      "name": "Open",
      "type": "event"
    },
    {
      "anonymous": false,
      "inputs": [
        {
          "indexed": true,
          "internalType": "address",
          "name": "sender",
          "type": "address"
        },
        {
          "indexed": true,
          "internalType": "bytes32",
          "name": "positionKey",
          "type": "bytes32"
        },
        {
          "indexed": false,
          "internalType": "address",
          "name": "rollbacker",
          "type": "address"
        },
        {
          "indexed": false,
          "internalType": "address",
          "name": "serviceToken",
          "type": "address"
        },
        {
          "indexed": false,
          "internalType": "uint256",
          "name": "serviceFee",
          "type": "uint256"
        }
      ],
      "name": "Rollback",
      "type": "event"
    },
    {
      "anonymous": false,
      "inputs": [
        {
          "indexed": false,
          "internalType": "address",
          "name": "baseToken",
          "type": "address"
        },
        {
          "indexed": false,
          "internalType": "address",
          "name": "quoteToken",
          "type": "address"
        },
        {
          "indexed": false,
          "internalType": "bool",
          "name": "tradeable",
          "type": "bool"
        }
      ],
      "name": "SetBaseToken",
      "type": "event"
    },
    {
      "anonymous": false,
      "inputs": [
        {
          "indexed": false,
          "internalType": "uint256",
          "name": "newInterest",
          "type": "uint256"
        }
      ],
      "name": "SetInterest",
      "type": "event"
    },
    {
      "anonymous": false,
      "inputs": [
        {
          "indexed": false,
          "internalType": "address",
          "name": "baseToken",
          "type": "address"
        },
        {
          "indexed": false,
          "internalType": "uint256",
          "name": "newReserve",
          "type": "uint256"
        }
      ],
      "name": "UpdateBaseReserve",
      "type": "event"
    },
    {
      "anonymous": false,
      "inputs": [
        {
          "indexed": true,
          "internalType": "address",
          "name": "sender",
          "type": "address"
        },
        {
          "indexed": true,
          "internalType": "bytes32",
          "name": "positionKey",
          "type": "bytes32"
        },
        {
          "indexed": false,
          "internalType": "uint256",
          "name": "amount",
          "type": "uint256"
        },
        {
          "indexed": false,
          "internalType": "uint256",
          "name": "newCollateralLiqPrice",
          "type": "uint256"
        },
        {
          "indexed": false,
          "internalType": "address",
          "name": "updater",
          "type": "address"
        },
        {
          "indexed": false,
          "internalType": "address",
          "name": "serviceToken",
          "type": "address"
        },
        {
          "indexed": false,
          "internalType": "uint256",
          "name": "serviceFee",
          "type": "uint256"
        }
      ],
      "name": "UpdateCollateralAmount",
      "type": "event"
    },
    {
      "anonymous": false,
      "inputs": [
        {
          "indexed": false,
          "internalType": "address",
          "name": "collateral",
          "type": "address"
        },
        {
          "indexed": false,
          "internalType": "uint256",
          "name": "newReserve",
          "type": "uint256"
        }
      ],
      "name": "UpdateCollateralReserve",
      "type": "event"
    },
    {
      "anonymous": false,
      "inputs": [
        {
          "indexed": true,
          "internalType": "address",
          "name": "sender",
          "type": "address"
        },
        {
          "indexed": true,
          "internalType": "bytes32",
          "name": "positionKey",
          "type": "bytes32"
        },
        {
          "indexed": false,
          "internalType": "address",
          "name": "baseToken",
          "type": "address"
        },
        {
          "indexed": false,
          "internalType": "address",
          "name": "quoteToken",
          "type": "address"
        },
        {
          "indexed": false,
          "internalType": "uint256",
          "name": "newDeadline",
          "type": "uint256"
        },
        {
          "indexed": false,
          "internalType": "uint256",
          "name": "fee",
          "type": "uint256"
        },
        {
          "indexed": false,
          "internalType": "uint256",
          "name": "protocolFee",
          "type": "uint256"
        },
        {
          "indexed": false,
          "internalType": "address",
          "name": "updater",
          "type": "address"
        },
        {
          "indexed": false,
          "internalType": "address",
          "name": "serviceToken",
          "type": "address"
        },
        {
          "indexed": false,
          "internalType": "uint256",
          "name": "serviceFee",
          "type": "uint256"
        }
      ],
      "name": "UpdateDeadline",
      "type": "event"
    },
    {
      "anonymous": false,
      "inputs": [
        {
          "indexed": false,
          "internalType": "uint256",
          "name": "newFee",
          "type": "uint256"
        }
      ],
      "name": "UpdateFee",
      "type": "event"
    },
    {
      "anonymous": false,
      "inputs": [
        {
          "indexed": false,
          "internalType": "uint256",
          "name": "newProtocolFee",
          "type": "uint256"
        }
      ],
      "name": "UpdateProtocolFee",
      "type": "event"
    },
    {
      "anonymous": false,
      "inputs": [
        {
          "indexed": false,
          "internalType": "uint256",
          "name": "newQuoteInDebt",
          "type": "uint256"
        }
      ],
      "name": "UpdateQuoteInDebt",
      "type": "event"
    },
    {
      "anonymous": false,
      "inputs": [
        {
          "indexed": false,
          "internalType": "uint256",
          "name": "newQuoteReserve",
          "type": "uint256"
        }
      ],
      "name": "UpdateQuoteReserve",
      "type": "event"
    },
    {
      "anonymous": false,
      "inputs": [
        {
          "indexed": true,
          "internalType": "address",
          "name": "sender",
          "type": "address"
        },
        {
          "indexed": true,
          "internalType": "bytes32",
          "name": "positionKey",
          "type": "bytes32"
        },
        {
          "indexed": false,
          "internalType": "uint256",
          "name": "newStoplossPrice",
          "type": "uint256"
        },
        {
          "indexed": false,
          "internalType": "address",
          "name": "updater",
          "type": "address"
        },
        {
          "indexed": false,
          "internalType": "address",
          "name": "serviceToken",
          "type": "address"
        },
        {
          "indexed": false,
          "internalType": "uint256",
          "name": "serviceFee",
          "type": "uint256"
        }
      ],
      "name": "UpdateStoplossPrice",
      "type": "event"
    },
    {
      "anonymous": false,
      "inputs": [
        {
          "indexed": false,
          "internalType": "uint256",
          "name": "newWithdrawingLiquidity",
          "type": "uint256"
        }
      ],
      "name": "UpdateWithdrawingLiquidity",
      "type": "event"
    },
    {
      "inputs": [],
      "name": "accFee",
      "outputs": [
        {
          "internalType": "uint256",
          "name": "",
          "type": "uint256"
        }
      ],
      "stateMutability": "view",
      "type": "function"
    },
    {
      "inputs": [],
      "name": "accFeePerShare",
      "outputs": [
        {
          "internalType": "uint256",
          "name": "",
          "type": "uint256"
        }
      ],
      "stateMutability": "view",
      "type": "function"
    },
    {
      "inputs": [],
      "name": "accProtocolFee",
      "outputs": [
        {
          "internalType": "uint256",
          "name": "",
          "type": "uint256"
        }
      ],
      "stateMutability": "view",
      "type": "function"
    },
    {
      "inputs": [
        {
          "internalType": "uint256",
          "name": "_liquidity",
          "type": "uint256"
        },
        {
          "internalType": "address",
          "name": "_to",
          "type": "address"
        },
        {
          "internalType": "bytes",
          "name": "_data",
          "type": "bytes"
        }
      ],
      "name": "addBurnRequest",
      "outputs": [
        {
          "internalType": "uint256",
          "name": "",
          "type": "uint256"
        }
      ],
      "stateMutability": "nonpayable",
      "type": "function"
    },
    {
      "inputs": [],
      "name": "availLiquidity",
      "outputs": [],
      "stateMutability": "nonpayable",
      "type": "function"
    },
    {
      "inputs": [],
      "name": "availableLiquidity",
      "outputs": [
        {
          "internalType": "uint256",
          "name": "",
          "type": "uint256"
        }
      ],
      "stateMutability": "view",
      "type": "function"
    },
    {
      "inputs": [
        {
          "internalType": "address",
          "name": "",
          "type": "address"
        }
      ],
      "name": "baseReserve",
      "outputs": [
        {
          "internalType": "uint256",
          "name": "",
          "type": "uint256"
        }
      ],
      "stateMutability": "view",
      "type": "function"
    },
    {
      "inputs": [
        {
          "components": [
            {
              "internalType": "uint256",
              "name": "index",
              "type": "uint256"
            },
            {
              "internalType": "address",
              "name": "owner",
              "type": "address"
            },
            {
              "internalType": "address",
              "name": "quoteToken",
              "type": "address"
            },
            {
              "internalType": "uint256",
              "name": "liquidity",
              "type": "uint256"
            },
            {
              "internalType": "address",
              "name": "to",
              "type": "address"
            },
            {
              "internalType": "bytes",
              "name": "data",
              "type": "bytes"
            },
            {
              "internalType": "string",
              "name": "callbackResult",
              "type": "string"
            }
          ],
          "internalType": "struct IWithdrawalMonitor.WithdrawalRequest",
          "name": "_request",
          "type": "tuple"
        }
      ],
      "name": "burn",
      "outputs": [],
      "stateMutability": "nonpayable",
      "type": "function"
    },
    {
      "inputs": [
        {
          "internalType": "address",
          "name": "_owner",
          "type": "address"
        }
      ],
      "name": "claimableFee",
      "outputs": [
        {
          "internalType": "uint256",
          "name": "amount",
          "type": "uint256"
        }
      ],
      "stateMutability": "view",
      "type": "function"
    },
    {
      "inputs": [
        {
          "components": [
            {
              "internalType": "bytes32",
              "name": "positionKey",
              "type": "bytes32"
            },
            {
              "internalType": "bytes",
              "name": "data0",
              "type": "bytes"
            },
            {
              "internalType": "bytes",
              "name": "data1",
              "type": "bytes"
            },
            {
              "internalType": "address",
              "name": "closer",
              "type": "address"
            }
          ],
          "internalType": "struct IPositionStorage.CloseTradePositionParams",
          "name": "_params",
          "type": "tuple"
        }
      ],
      "name": "close",
      "outputs": [],
      "stateMutability": "nonpayable",
      "type": "function"
    },
    {
      "inputs": [
        {
          "internalType": "bytes32",
          "name": "_positionKey",
          "type": "bytes32"
        },
        {
          "internalType": "address",
          "name": "_executor",
          "type": "address"
        }
      ],
      "name": "closeManuallyStep1",
      "outputs": [],
      "stateMutability": "nonpayable",
      "type": "function"
    },
    {
      "inputs": [
        {
          "internalType": "bytes32",
          "name": "_positionKey",
          "type": "bytes32"
        },
        {
          "internalType": "uint256",
          "name": "_baseValue",
          "type": "uint256"
        },
        {
          "internalType": "uint256",
          "name": "_remainingCollateralAmount",
          "type": "uint256"
        },
        {
          "internalType": "uint256",
          "name": "_liquidationFee",
          "type": "uint256"
        }
      ],
      "name": "closeManuallyStep2",
      "outputs": [],
      "stateMutability": "nonpayable",
      "type": "function"
    },
    {
      "inputs": [
        {
          "internalType": "address",
          "name": "",
          "type": "address"
        }
      ],
      "name": "collateralReserve",
      "outputs": [
        {
          "internalType": "uint256",
          "name": "",
          "type": "uint256"
        }
      ],
      "stateMutability": "view",
      "type": "function"
    },
    {
      "inputs": [
        {
          "internalType": "address",
          "name": "_to",
          "type": "address"
        },
        {
          "internalType": "uint256",
          "name": "_amount",
          "type": "uint256"
        }
      ],
      "name": "collect",
      "outputs": [],
      "stateMutability": "nonpayable",
      "type": "function"
    },
    {
      "inputs": [],
      "name": "factory",
      "outputs": [
        {
          "internalType": "address",
          "name": "",
          "type": "address"
        }
      ],
      "stateMutability": "view",
      "type": "function"
    },
    {
      "inputs": [
        {
          "internalType": "address",
          "name": "_factory",
          "type": "address"
        },
        {
          "internalType": "address",
          "name": "_quoteToken",
          "type": "address"
        },
        {
          "internalType": "uint256",
          "name": "_interest",
          "type": "uint256"
        }
      ],
      "name": "initialize",
      "outputs": [],
      "stateMutability": "nonpayable",
      "type": "function"
    },
    {
      "inputs": [],
      "name": "interest",
      "outputs": [
        {
          "internalType": "uint256",
          "name": "",
          "type": "uint256"
        }
      ],
      "stateMutability": "view",
      "type": "function"
    },
    {
      "inputs": [
        {
          "internalType": "address",
          "name": "",
          "type": "address"
        }
      ],
      "name": "liquidityPosition",
      "outputs": [
        {
          "internalType": "uint256",
          "name": "liquidity",
          "type": "uint256"
        },
        {
          "internalType": "uint256",
          "name": "feeDebt",
          "type": "uint256"
        },
        {
          "internalType": "uint256",
          "name": "pendingFee",
          "type": "uint256"
        },
        {
          "internalType": "uint256",
          "name": "withdrawingLiquidity",
          "type": "uint256"
        }
      ],
      "stateMutability": "view",
      "type": "function"
    },
    {
      "inputs": [
        {
          "internalType": "address",
          "name": "_to",
          "type": "address"
        },
        {
          "internalType": "uint256",
          "name": "_liquidity",
          "type": "uint256"
        },
        {
          "internalType": "bytes",
          "name": "_data",
          "type": "bytes"
        }
      ],
      "name": "mint",
      "outputs": [],
      "stateMutability": "nonpayable",
      "type": "function"
    },
    {
      "inputs": [
        {
          "components": [
            {
              "internalType": "address",
              "name": "owner",
              "type": "address"
            },
            {
              "internalType": "address",
              "name": "baseToken",
              "type": "address"
            },
            {
              "internalType": "address",
              "name": "quoteToken",
              "type": "address"
            },
            {
              "internalType": "address",
              "name": "collateral",
              "type": "address"
            },
            {
              "internalType": "uint256",
              "name": "baseAmount",
              "type": "uint256"
            },
            {
              "internalType": "uint256",
              "name": "quoteAmount",
              "type": "uint256"
            },
            {
              "internalType": "uint256",
              "name": "collateralAmount",
              "type": "uint256"
            },
            {
              "internalType": "uint256",
              "name": "deadline",
              "type": "uint256"
            },
            {
              "internalType": "uint256",
              "name": "stoplossPrice",
              "type": "uint256"
            }
          ],
          "internalType": "struct IPositionStorage.OpenTradePositionParams",
          "name": "_params",
          "type": "tuple"
        }
      ],
      "name": "open",
      "outputs": [
        {
          "internalType": "bytes32",
          "name": "positionKey",
          "type": "bytes32"
        }
      ],
      "stateMutability": "nonpayable",
      "type": "function"
    },
    {
      "inputs": [],
      "name": "precision",
      "outputs": [
        {
          "internalType": "uint256",
          "name": "",
          "type": "uint256"
        }
      ],
      "stateMutability": "view",
      "type": "function"
    },
    {
      "inputs": [],
      "name": "quoteInDebt",
      "outputs": [
        {
          "internalType": "uint256",
          "name": "",
          "type": "uint256"
        }
      ],
      "stateMutability": "view",
      "type": "function"
    },
    {
      "inputs": [],
      "name": "quoteReserve",
      "outputs": [
        {
          "internalType": "uint256",
          "name": "",
          "type": "uint256"
        }
      ],
      "stateMutability": "view",
      "type": "function"
    },
    {
      "inputs": [],
      "name": "quoteToken",
      "outputs": [
        {
          "internalType": "address",
          "name": "",
          "type": "address"
        }
      ],
      "stateMutability": "view",
      "type": "function"
    },
    {
      "inputs": [
        {
          "components": [
            {
              "internalType": "bytes32",
              "name": "positionKey",
              "type": "bytes32"
            },
            {
              "internalType": "address",
              "name": "rollbacker",
              "type": "address"
            }
          ],
          "internalType": "struct IPositionStorage.RollbackTradePositionParams",
          "name": "_params",
          "type": "tuple"
        }
      ],
      "name": "rollback",
      "outputs": [],
      "stateMutability": "nonpayable",
      "type": "function"
    },
    {
      "inputs": [
        {
          "internalType": "address[]",
          "name": "_baseTokens",
          "type": "address[]"
        },
        {
          "internalType": "bool[]",
          "name": "_tradeables",
          "type": "bool[]"
        }
      ],
      "name": "setBaseTokens",
      "outputs": [],
      "stateMutability": "nonpayable",
      "type": "function"
    },
    {
      "inputs": [
        {
          "internalType": "uint256",
          "name": "_interest",
          "type": "uint256"
        }
      ],
      "name": "setInterest",
      "outputs": [],
      "stateMutability": "nonpayable",
      "type": "function"
    },
    {
      "inputs": [
        {
          "internalType": "address",
          "name": "",
          "type": "address"
        }
      ],
      "name": "tradeableBaseToken",
      "outputs": [
        {
          "internalType": "bool",
          "name": "",
          "type": "bool"
        }
      ],
      "stateMutability": "view",
      "type": "function"
    },
    {
      "inputs": [
        {
          "components": [
            {
              "internalType": "bytes32",
              "name": "positionKey",
              "type": "bytes32"
            },
            {
              "internalType": "uint256",
              "name": "amount",
              "type": "uint256"
            },
            {
              "internalType": "address",
              "name": "updater",
              "type": "address"
            }
          ],
          "internalType": "struct IPositionStorage.UpdateCollateralAmountParams",
          "name": "_params",
          "type": "tuple"
        }
      ],
      "name": "updateCollateralAmount",
      "outputs": [
        {
          "internalType": "uint256",
          "name": "collateralLiqPrice",
          "type": "uint256"
        }
      ],
      "stateMutability": "nonpayable",
      "type": "function"
    },
    {
      "inputs": [
        {
          "components": [
            {
              "internalType": "bytes32",
              "name": "positionKey",
              "type": "bytes32"
            },
            {
              "internalType": "uint256",
              "name": "deadline",
              "type": "uint256"
            },
            {
              "internalType": "address",
              "name": "updater",
              "type": "address"
            }
          ],
          "internalType": "struct IPositionStorage.UpdateDeadlineParams",
          "name": "_params",
          "type": "tuple"
        }
      ],
      "name": "updateDeadline",
      "outputs": [],
      "stateMutability": "nonpayable",
      "type": "function"
    },
    {
      "inputs": [
        {
          "components": [
            {
              "internalType": "bytes32",
              "name": "positionKey",
              "type": "bytes32"
            },
            {
              "internalType": "uint256",
              "name": "stoplossPrice",
              "type": "uint256"
            },
            {
              "internalType": "address",
              "name": "updater",
              "type": "address"
            }
          ],
          "internalType": "struct IPositionStorage.UpdateStoplossPriceParams",
          "name": "_params",
          "type": "tuple"
        }
      ],
      "name": "updateStoplossPrice",
      "outputs": [],
      "stateMutability": "nonpayable",
      "type": "function"
    },
    {
      "inputs": [],
      "name": "withdrawingLiquidity",
      "outputs": [
        {
          "internalType": "uint256",
          "name": "",
          "type": "uint256"
        }
      ],
      "stateMutability": "view",
      "type": "function"
    }
  ],
  "bytecode": "0x6080604052600160005534801561001557600080fd5b506158be80620000266000396000f3fe608060405234801561001057600080fd5b50600436106101f05760003560e01c80638da11bfb1161010f578063d3b5dc3b116100a2578063dd3b829a11610071578063dd3b829a14610449578063fba0c81414610452578063fc9ffe1014610465578063ffc9dcbb1461047857600080fd5b8063d3b5dc3b146103c5578063d43c1b69146103ce578063d4fd6905146103e1578063d8f2cab71461043657600080fd5b8063ada3112f116100de578063ada3112f14610398578063ba343922146103a1578063c392f766146103a9578063c45a0155146103b257600080fd5b80638da11bfb1461035657806394d008ef146103695780639da771f41461037c578063a1c59afc1461038557600080fd5b806341ba5951116101875780636b8357ac116101565780636b8357ac14610308578063743753591461031b5780637c08ddc9146103235780638b6e00fa1461033657600080fd5b806341ba5951146102c657806359129e75146102d9578063653741ff146102ec578063685b61d0146102ff57600080fd5b80631d086720116101c35780631d0867201461026c578063217a4b701461027f57806327014e33146102aa57806332196a01146102b357600080fd5b80630121c777146101f55780630adcf0f5146102115780631636e199146102445780631794bb3c14610259575b600080fd5b6101fe60075481565b6040519081526020015b60405180910390f35b61023461021f366004614b97565b600b6020526000908152604090205460ff1681565b6040519015158152602001610208565b610257610252366004615033565b610498565b005b610257610267366004614bd1565b6107b6565b61025761027a366004615126565b610891565b600254610292906001600160a01b031681565b6040516001600160a01b039091168152602001610208565b6101fe60095481565b6102576102c1366004614c99565b6108fa565b6101fe6102d4366004614ea9565b610a84565b6102576102e7366004614d97565b610f50565b6101fe6102fa366004615164565b61124a565b6101fe60065481565b610257610316366004614c12565b6113e5565b6101fe611541565b6101fe610331366004615033565b611550565b6101fe610344366004614b97565b600d6020526000908152604090205481565b61025761036436600461504f565b611883565b610257610377366004614c3e565b611db6565b6101fe60055481565b6101fe610393366004614b97565b61206d565b6101fe60085481565b610257612106565b6101fe60045481565b600154610292906001600160a01b031681565b6101fe60035481565b6102576103dc366004614f40565b6121cb565b6104166103ef366004614b97565b600e6020526000908152604090208054600182015460028301546003909301549192909184565b604080519485526020850193909352918301526060820152608001610208565b610257610444366004614dc7565b612783565b6101fe600a5481565b610257610460366004614e6f565b612d3f565b610257610473366004615033565b61355c565b6101fe610486366004614b97565b600c6020526000908152604090205481565b6000546001146104bb576040516303cb96db60e21b815260040160405180910390fd5b60008055600154604051639a30739160e01b81523360048201526001600160a01b0390911690639a3073919060240160206040518083038186803b15801561050257600080fd5b505afa158015610516573d6000803e3d6000fd5b505050506040513d601f19601f8201168201806040525081019061053a9190614d61565b61055e5760405163a59d7f4d60e01b81523360048201526024015b60405180910390fd5b600154604080516316ed252d60e31b815290516001600160a01b0390921691600091839163b769296891600480820192602092909190829003018186803b1580156105a857600080fd5b505afa1580156105bc573d6000803e3d6000fd5b505050506040513d601f19601f820116820180604052508101906105e09190614bb4565b90506000826001600160a01b031663b58862e76040518163ffffffff1660e01b815260040160206040518083038186803b15801561061d57600080fd5b505afa158015610631573d6000803e3d6000fd5b505050506040513d601f19601f820116820180604052508101906106559190614d7e565b905061066283838361397c565b6000836001600160a01b0316638cd474156040518163ffffffff1660e01b815260040160206040518083038186803b15801561069d57600080fd5b505afa1580156106b1573d6000803e3d6000fd5b505050506040513d601f19601f820116820180604052508101906106d59190614bb4565b604051631636e19960e01b81529091506001600160a01b03821690631636e19990610704908890600401615505565b600060405180830381600087803b15801561071e57600080fd5b505af1158015610732573d6000803e3d6000fd5b505050508460000151336001600160a01b03167f7c0fff48e86bd50569aca67e1ee9743c3f93cf5e0aab3bf35f9c8ae0579c29538760200151886040015187876040516107a294939291909384526001600160a01b03928316602085015291166040830152606082015260800190565b60405180910390a350506001600055505050565b6001546001600160a01b0316156107e0576040516373e833b960e11b815260040160405180910390fd5b600180546001600160a01b038086166001600160a01b0319928316179092556002805492851692909116821790556040805163313ce56760e01b8152905163313ce56791600480820192602092909190829003018186803b15801561084457600080fd5b505afa158015610858573d6000803e3d6000fd5b505050506040513d601f19601f8201168201806040525081019061087c91906151cb565b61088790600a6156fb565b6003556004555050565b6001546001600160a01b031633146108be5760405163a59d7f4d60e01b8152336004820152602401610555565b60048190556040518181527f81ed86e8cfa3004fc54732477c3eda4f4c606394a0b423aba78153a3e696f65d906020015b60405180910390a150565b6001546001600160a01b031633146109275760405163a59d7f4d60e01b8152336004820152602401610555565b600254815183516001600160a01b039092169114610965578251825160405163574092f960e01b815260048101929092526024820152604401610555565b60005b8351811015610a7e5782818151811061098357610983615839565b6020026020010151600b60008684815181106109a1576109a1615839565b60200260200101516001600160a01b03166001600160a01b0316815260200190815260200160002060006101000a81548160ff0219169083151502179055507fec4f975deac1f5c1d92fd5f7a2b08d2c4e3e60215ab50703da45f8f8e9f2fc9b848281518110610a1357610a13615839565b602002602001015183858481518110610a2e57610a2e615839565b6020026020010151604051610a64939291906001600160a01b039384168152919092166020820152901515604082015260600190565b60405180910390a180610a7681615808565b915050610968565b50505050565b60008054600114610aa8576040516303cb96db60e21b815260040160405180910390fd5b6000805560025460408301516001600160a01b0391821691168114610af9576040808401519051630158332360e41b81526001600160a01b0391821660048201529082166024820152604401610555565b82604001516001600160a01b031683602001516001600160a01b03161415610b3457604051630e52390960e41b815260040160405180910390fd5b610b3d83613a4f565b610b5a5760405163f8b3bb6160e01b815260040160405180910390fd5b60015460408051638cd4741560e01b815290516000926001600160a01b031691638cd47415916004808301926020929190829003018186803b158015610b9f57600080fd5b505afa158015610bb3573d6000803e3d6000fd5b505050506040513d601f19601f82011682018060405250810190610bd79190614bb4565b60408051631a37982d60e01b815286516001600160a01b03908116600483015260208801518116602483015291870151821660448201526060870151821660648201526080870151608482015260a087015160a482015260c087015160c482015260e087015160e482015261010087015161010482015291925060009190831690631a37982d90610124016103a06040518083038186803b158015610c7b57600080fd5b505afa158015610c8f573d6000803e3d6000fd5b505050506040513d601f19601f82011682018060405250810190610cb39190614f52565b60208101519091506001600160a01b0316610ce157604051630e52390960e41b815260040160405180910390fd5b6000816101000151826080015160200151610cfc91906157c5565b90506000610d08613d7e565b905080821115610d2b5760405163bb2875c360e01b815260040160405180910390fd5b6040516364b88ac560e01b81526001600160a01b038516906364b88ac590610d579086906004016153ad565b602060405180830381600087803b158015610d7157600080fd5b505af1158015610d85573d6000803e3d6000fd5b505050506040513d601f19601f82011682018060405250810190610da99190614d7e565b9550610dc58760a00151600654610dc0919061567e565b613e5f565b610de3836101200151846101000151610dde91906157c5565b613e94565b610dfe836101200151600954610df9919061567e565b613f0e565b60208088015160808901516001600160a01b0382166000908152600c909352604090922054610e3592610e309161567e565b613f43565b606087015160c08801516001600160a01b0382166000908152600d6020526040902054610e6b9291610e669161567e565b613f9c565b610e7e8588600001518960a00151613fed565b8587600001516001600160a01b0316336001600160a01b03167f6fa15176f59ef643f98e48bb7bbcdc1f7ed128c889a18626d6c28f6e7e2dece48a602001518b604001518c606001518d608001518e60a001518f60c001518c61010001518d6101200151604051610f389897969594939291906001600160a01b03988916815296881660208801529490961660408601526060850192909252608084015260a083015260c082019290925260e08101919091526101000190565b60405180910390a45050600160005550919392505050565b600054600114610f73576040516303cb96db60e21b815260040160405180910390fd5b60008055600154604051639a30739160e01b81523360048201526001600160a01b0390911690639a3073919060240160206040518083038186803b158015610fba57600080fd5b505afa158015610fce573d6000803e3d6000fd5b505050506040513d601f19601f82011682018060405250810190610ff29190614d61565b6110115760405163a59d7f4d60e01b8152336004820152602401610555565b60015460408051638cd4741560e01b815290516000926001600160a01b031691638cd47415916004808301926020929190829003018186803b15801561105657600080fd5b505afa15801561106a573d6000803e3d6000fd5b505050506040513d601f19601f8201168201806040525081019061108e9190614bb4565b604051631601180b60e31b8152600481018590529091506001600160a01b0382169063b008c05890602401600060405180830381600087803b1580156110d357600080fd5b505af11580156110e7573d6000803e3d6000fd5b505060405163506ae89360e11b815260048101869052600092506001600160a01b038416915063a0d5d126906024016103a06040518083038186803b15801561112f57600080fd5b505afa158015611143573d6000803e3d6000fd5b505050506040513d601f19601f820116820180604052508101906111679190614f52565b905061118481606001516000015184836060015160200151613fed565b61119f8160a0015160000151848360a0015160200151613fed565b606081015180516020918201516001600160a01b0382166000908152600c9093526040909220546111d392610e30916157c5565b60a081015180516020918201516001600160a01b0382166000908152600d90935260409092205461120792610e66916157c5565b6040516001600160a01b03841690859033907f1cc79853bbf119208b3fab3b7d33fcdb6ceaee7c8b16b89bdb389ed3b51ad17c90600090a4505060016000555050565b6000805460011461126e576040516303cb96db60e21b815260040160405180910390fd5b6000808055338152600e6020526040902080546003820154611290908861567e565b11156112af5760405163bb2875c360e01b815260040160405180910390fd5b858160030160008282546112c3919061567e565b90915550506001546040805163a4fbc0d760e01b815290516000926001600160a01b03169163a4fbc0d7916004808301926020929190829003018186803b15801561130d57600080fd5b505afa158015611321573d6000803e3d6000fd5b505050506040513d601f19601f820116820180604052508101906113459190614bb4565b60025460405163130e06fd60e31b81529192506001600160a01b038084169263987037e8926113839233929116908c908c908c908c906004016152f4565b602060405180830381600087803b15801561139d57600080fd5b505af11580156113b1573d6000803e3d6000fd5b505050506040513d601f19601f820116820180604052508101906113d59190614d7e565b6001600055979650505050505050565b600054600114611408576040516303cb96db60e21b815260040160405180910390fd5b600080558061142a57604051637c946ed760e01b815260040160405180910390fd5b336000908152600e60205260409020600a546003548254156114865760018301548354829061145990856157a6565b6114639190615696565b61146d91906157c5565b836002016000828254611480919061567e565b90915550505b8254819061149490846157a6565b61149e9190615696565b600184015560028301548411806114b6575060085484115b156114d45760405163bb2875c360e01b815260040160405180910390fd5b838360020160008282546114e891906157c5565b9091555050600254611504906001600160a01b03168686613fed565b6040518481526001600160a01b0386169033907f1314fd112a381beea61539dbd21ec04afcff2662ac7d1b83273aade1f53d1b97906020016107a2565b600061154b613d7e565b905090565b60008054600114611574576040516303cb96db60e21b815260040160405180910390fd5b60008055600154604051639a30739160e01b81523360048201526001600160a01b0390911690639a3073919060240160206040518083038186803b1580156115bb57600080fd5b505afa1580156115cf573d6000803e3d6000fd5b505050506040513d601f19601f820116820180604052508101906115f39190614d61565b6116125760405163a59d7f4d60e01b8152336004820152602401610555565b600154604080516316ed252d60e31b815290516001600160a01b0390921691600091839163b769296891600480820192602092909190829003018186803b15801561165c57600080fd5b505afa158015611670573d6000803e3d6000fd5b505050506040513d601f19601f820116820180604052508101906116949190614bb4565b90506000826001600160a01b0316632a5025b76040518163ffffffff1660e01b815260040160206040518083038186803b1580156116d157600080fd5b505afa1580156116e5573d6000803e3d6000fd5b505050506040513d601f19601f820116820180604052508101906117099190614d7e565b905061171683838361397c565b6000836001600160a01b0316638cd474156040518163ffffffff1660e01b815260040160206040518083038186803b15801561175157600080fd5b505afa158015611765573d6000803e3d6000fd5b505050506040513d601f19601f820116820180604052508101906117899190614bb4565b604051637c08ddc960e01b81529091506001600160a01b03821690637c08ddc9906117b8908990600401615505565b602060405180830381600087803b1580156117d257600080fd5b505af11580156117e6573d6000803e3d6000fd5b505050506040513d601f19601f8201168201806040525081019061180a9190614d7e565b86516020808901516040808b015181519283529282018590526001600160a01b03928316908201529086166060820152608081018590529196509033907f55c8ac91237f6fa939a79c1699293ce14171d61728c7cc56a131f51758fa598f9060a00160405180910390a350506001600055509092915050565b6000546001146118a6576040516303cb96db60e21b815260040160405180910390fd5b600080556001546040805163a4fbc0d760e01b815290516001600160a01b039092169163a4fbc0d791600480820192602092909190829003018186803b1580156118ef57600080fd5b505afa158015611903573d6000803e3d6000fd5b505050506040513d601f19601f820116820180604052508101906119279190614bb4565b6001600160a01b0316336001600160a01b03161461195a5760405163a59d7f4d60e01b8152336004820152602401610555565b6020808201516001600160a01b03166000908152600e909152604090206003810154606083015111156119a05760405163bb2875c360e01b815260040160405180910390fd5b60075460608301518110156119f95760006119b9613d7e565b90506119c5818361567e565b846060015111156119e95760405163bb2875c360e01b815260040160405180910390fd5b6119f3600061410b565b50611a11565b611a11836060015182611a0c91906157c5565b61410b565b600a54600354835415611a5e57600184015484548290611a3190856157a6565b611a3b9190615696565b611a4591906157c5565b846002016000828254611a58919061567e565b90915550505b8460600151846000016000828254611a7691906157c5565b90915550506060850151600385018054600090611a949084906157c5565b909155505083548190611aa790846157a6565b611ab19190615696565b60018501556060850151600554611ad091611acb916157c5565b614140565b611ad8614175565b60a08501515115611d4f576001546040805163a4fbc0d760e01b815290516000926001600160a01b03169163a4fbc0d7916004808301926020929190829003018186803b158015611b2857600080fd5b505afa158015611b3c573d6000803e3d6000fd5b505050506040513d601f19601f82011682018060405250810190611b609190614bb4565b9050600086606001518760a00151604051602401611b7f92919061552f565b60408051601f19818403018152918152602080830180516001600160e01b031663462cc8ff60e11b179052890151905191925060009182916001600160a01b031690611bcc9085906152b4565b6000604051808303816000865af19150503d8060008114611c09576040519150601f19603f3d011682016040523d82523d6000602084013e611c0e565b606091505b509150915081611d4a57604481511015611ccc578851604051634d4a6fbb60e01b81526001600160a01b03861691634d4a6fbb91611c9591906004019081526040602082018190526024908201527f43616c6c6261636b207472616e73616374696f6e206661696c65642073696c656060820152636e746c7960e01b608082015260a00190565b600060405180830381600087803b158015611caf57600080fd5b505af1158015611cc3573d6000803e3d6000fd5b50505050611d4a565b600481019050836001600160a01b0316634d4a6fbb8a6000015183806020019051810190611cfa9190614df9565b6040518363ffffffff1660e01b8152600401611d1792919061552f565b600060405180830381600087803b158015611d3157600080fd5b505af1158015611d45573d6000803e3d6000fd5b505050505b505050505b60025460808601516060870151611d70926001600160a01b03169190613fed565b606085015160405190815233907fcc16f5dbb4873280815c1ee09dbd06736cffcc184412cf7a71a0fdb75d397ca59060200160405180910390a250506001600055505050565b600054600114611dd9576040516303cb96db60e21b815260040160405180910390fd5b60008080556002546001600160a01b038681168352600e6020526040909220600a54600354825494909316939192909115611e4e57600183015483548290611e2190856157a6565b611e2b9190615696565b611e3591906157c5565b836002016000828254611e48919061567e565b90915550505b86836000016000828254611e62919061567e565b909155505082548190611e7590846157a6565b611e7f9190615696565b6001840155600554611e9690611acb90899061567e565b611e9e614175565b6040516370a0823160e01b81523060048201526000906001600160a01b038616906370a082319060240160206040518083038186803b158015611ee057600080fd5b505afa158015611ef4573d6000803e3d6000fd5b505050506040513d601f19601f82011682018060405250810190611f189190614d7e565b6040516303a3bcd760e01b815290915033906303a3bcd790611f449088908c908c908c9060040161537b565b600060405180830381600087803b158015611f5e57600080fd5b505af1158015611f72573d6000803e3d6000fd5b50506040516370a0823160e01b8152306004820152600092506001600160a01b03881691506370a082319060240160206040518083038186803b158015611fb857600080fd5b505afa158015611fcc573d6000803e3d6000fd5b505050506040513d601f19601f82011682018060405250810190611ff09190614d7e565b9050611ffc898361567e565b81101561201c5760405163f8b3bb6160e01b815260040160405180910390fd5b6040518981526001600160a01b038b169033907fab8530f87dc9b59234c4623bf917212bb2536d647574c8e7e5da92c2ede0c9f89060200160405180910390a3505060016000555050505050505050565b6001600160a01b0381166000908152600e6020908152604080832081516080810183528154808252600183015494820185905260028301549382019390935260039182015460608201529054600a5491939290916120cb91906157a6565b6120d59190615696565b82604001516120e4919061567e565b6120ee91906157c5565b91506008548211156121005760085491505b50919050565b600160009054906101000a90046001600160a01b03166001600160a01b031663a4fbc0d76040518163ffffffff1660e01b815260040160206040518083038186803b15801561215457600080fd5b505afa158015612168573d6000803e3d6000fd5b505050506040513d601f19601f8201168201806040525081019061218c9190614bb4565b6001600160a01b0316336001600160a01b0316146121bf5760405163a59d7f4d60e01b8152336004820152602401610555565b6121c9600061410b565b565b6000546001146121ee576040516303cb96db60e21b815260040160405180910390fd5b60008055600154604051639a30739160e01b81523360048201526001600160a01b0390911690639a3073919060240160206040518083038186803b15801561223557600080fd5b505afa158015612249573d6000803e3d6000fd5b505050506040513d601f19601f8201168201806040525081019061226d9190614d61565b61228c5760405163a59d7f4d60e01b8152336004820152602401610555565b60015460408051638cd4741560e01b815290516001600160a01b03909216916000918391638cd4741591600480820192602092909190829003018186803b1580156122d657600080fd5b505afa1580156122ea573d6000803e3d6000fd5b505050506040513d601f19601f8201168201806040525081019061230e9190614bb4565b60405163506ae89360e11b8152843560048201529091506000906001600160a01b0383169063a0d5d126906024016103a06040518083038186803b15801561235557600080fd5b505afa158015612369573d6000803e3d6000fd5b505050506040513d601f19601f8201168201806040525081019061238d9190614f52565b90506000836001600160a01b031663b76929686040518163ffffffff1660e01b815260040160206040518083038186803b1580156123ca57600080fd5b505afa1580156123de573d6000803e3d6000fd5b505050506040513d601f19601f820116820180604052508101906124029190614bb4565b90506000846001600160a01b0316633c0930376040518163ffffffff1660e01b815260040160206040518083038186803b15801561243f57600080fd5b505afa158015612453573d6000803e3d6000fd5b505050506040513d601f19601f820116820180604052508101906124779190614d7e565b6002549091506001600160a01b03838116911614156124d657600061249a614232565b9050818460800151602001516124b0919061567e565b8110156124d05760405163f8b3bb6160e01b815260040160405180910390fd5b5061253c565b60006124e0614232565b905083608001516020015181101561250b5760405163f8b3bb6160e01b815260040160405180910390fd5b6000612516846142ed565b9050828110156125395760405163f8b3bb6160e01b815260040160405180910390fd5b50505b6001600160a01b038216158015906125545750600081115b156125db576000856001600160a01b031663e9a4e7a26040518163ffffffff1660e01b815260040160206040518083038186803b15801561259457600080fd5b505afa1580156125a8573d6000803e3d6000fd5b505050506040513d601f19601f820116820180604052508101906125cc9190614bb4565b90506125d9838284613fed565b505b6001600160a01b038416639a10234187356125fc60408a0160208b01614b97565b6040516001600160e01b031960e085901b16815260048101929092526001600160a01b03166024820152604401600060405180830381600087803b15801561264357600080fd5b505af1158015612657573d6000803e3d6000fd5b50505050612674836080015160200151600654610dc091906157c5565b61268d836080015160200151600754611a0c919061567e565b606083015180516020918201516001600160a01b0382166000908152600c9093526040909220546126c192610e30916157c5565b60a083015180516020918201516001600160a01b0382166000908152600d9093526040909220546126f592610e66916157c5565b6060830151805160208086015192015161270f9290613fed565b60a083015180516020808601519201516127299290613fed565b8251337f415e462bce09ff3142dc51f9a6878d89bb34d75a21bc8ffc7fc397eccce872e961275d60408a0160208b01614b97565b858560405161276e939291906152d0565b60405180910390a35050600160005550505050565b6000546001146127a6576040516303cb96db60e21b815260040160405180910390fd5b60008055600154604051639a30739160e01b81523360048201526001600160a01b0390911690639a3073919060240160206040518083038186803b1580156127ed57600080fd5b505afa158015612801573d6000803e3d6000fd5b505050506040513d601f19601f820116820180604052508101906128259190614d61565b6128445760405163a59d7f4d60e01b8152336004820152602401610555565b60015460408051638cd4741560e01b815290516000926001600160a01b031691638cd47415916004808301926020929190829003018186803b15801561288957600080fd5b505afa15801561289d573d6000803e3d6000fd5b505050506040513d601f19601f820116820180604052508101906128c19190614bb4565b60405163506ae89360e11b8152600481018790529091506000906001600160a01b0383169063a0d5d126906024016103a06040518083038186803b15801561290857600080fd5b505afa15801561291c573d6000803e3d6000fd5b505050506040513d601f19601f820116820180604052508101906129409190614f52565b60808101515160a0820151519192506001600160a01b03918216911614156129a957600061296c614232565b905083612979868861567e565b612983919061567e565b8110156129a35760405163f8b3bb6160e01b815260040160405180910390fd5b50612ac8565b60006129b3614232565b90506129bf848761567e565b8110156129df5760405163f8b3bb6160e01b815260040160405180910390fd5b60a082018051516001600160a01b039081166000908152600d602090815260408083205485515185168452600c9092528083205494515190516370a0823160e01b815230600482015291949316906370a082319060240160206040518083038186803b158015612a4e57600080fd5b505afa158015612a62573d6000803e3d6000fd5b505050506040513d601f19601f82011682018060405250810190612a869190614d7e565b9050600082612a9585846157c5565b612a9f91906157c5565b905088811015612ac25760405163f8b3bb6160e01b815260040160405180910390fd5b50505050505b60405163f71139f760e01b8152600481018790526001600160a01b0383169063f71139f790602401600060405180830381600087803b158015612b0a57600080fd5b505af1158015612b1e573d6000803e3d6000fd5b5050505060008084836080015160200151612b39919061567e565b905080871015612b5057612b4d87826157c5565b91505b8251604051638b029d6160e01b815260048101919091526024810188905260448101839052606481018790526001600160a01b03851690638b029d6190608401600060405180830381600087803b158015612baa57600080fd5b505af1158015612bbe573d6000803e3d6000fd5b50505050612bdb836080015160200151600654610dc091906157c5565b612bf4836080015160200151600754611a0c919061567e565b8415612c8e576001546040805163bd2bae9d60e01b815290516000926001600160a01b03169163bd2bae9d916004808301926020929190829003018186803b158015612c3f57600080fd5b505afa158015612c53573d6000803e3d6000fd5b505050506040513d601f19601f82011682018060405250810190612c779190614bb4565b9050612c8c8460800151600001518288613fed565b505b81612cc0576000612c9f82896157c5565b90508015612cbe57612cbe846080015160000151856020015183613fed565b505b8515612cdd57612cdd8360a0015160000151846020015188613fed565b60208301516060840151516040518a926001600160a01b03169133917fad34241f9e3b3d38652a7493d4e07da1f3e88afa819a546544b20de727f2ffd891612d289184908c906152d0565b60405180910390a450506001600055505050505050565b600054600114612d62576040516303cb96db60e21b815260040160405180910390fd5b60008055600154604051639a30739160e01b81523360048201526001600160a01b0390911690639a3073919060240160206040518083038186803b158015612da957600080fd5b505afa158015612dbd573d6000803e3d6000fd5b505050506040513d601f19601f82011682018060405250810190612de19190614d61565b612e005760405163a59d7f4d60e01b8152336004820152602401610555565b60015460408051638cd4741560e01b815290516001600160a01b03909216916000918391638cd4741591600480820192602092909190829003018186803b158015612e4a57600080fd5b505afa158015612e5e573d6000803e3d6000fd5b505050506040513d601f19601f82011682018060405250810190612e829190614bb4565b905060006001600160a01b03821663ac00b6748535612ea76080880160608901614b97565b6040516001600160e01b031960e085901b16815260048101929092526001600160a01b03166024820152604401602060405180830381600087803b158015612eee57600080fd5b505af1158015612f02573d6000803e3d6000fd5b505050506040513d601f19601f82011682018060405250810190612f269190614d61565b60405163506ae89360e11b8152853560048201529091506000906001600160a01b0384169063a0d5d126906024016103a06040518083038186803b158015612f6d57600080fd5b505afa158015612f81573d6000803e3d6000fd5b505050506040513d601f19601f82011682018060405250810190612fa59190614f52565b90506000846001600160a01b0316637c21d5e06040518163ffffffff1660e01b815260040160206040518083038186803b158015612fe257600080fd5b505afa158015612ff6573d6000803e3d6000fd5b505050506040513d601f19601f8201168201806040525081019061301a9190614bb4565b6060830151805160808501515160209092015160405163d7176ca960e01b81526000600482018190526001600160a01b0393841660248301529383166044820152606481019190915292935090919083169063d7176ca990608401604080518083038186803b15801561308c57600080fd5b505afa1580156130a0573d6000803e3d6000fd5b505050506040513d601f19601f820116820180604052508101906130c4919061513f565b5090506130de83826130d960208b018b615550565b6143d2565b608083015160200151600090851561318c576000886001600160a01b0316635fb3b1b56040518163ffffffff1660e01b815260040160206040518083038186803b15801561312b57600080fd5b505afa15801561313f573d6000803e3d6000fd5b505050506040513d601f19601f820116820180604052508101906131639190614d7e565b905061271061317282846157a6565b61317c9190615696565b9250613188838361567e565b9150505b6000806000838610156132cb576131a386856157c5565b60808901515160a08a0151519194508492506001600160a01b039182169116146132cb5760a08801515160808901515160405163ec27830960e01b8152600060048201526001600160a01b0392831660248201529082166044820152606481018590529088169063ec27830990608401604080518083038186803b15801561322a57600080fd5b505afa15801561323e573d6000803e3d6000fd5b505050506040513d601f19601f82011682018060405250810190613262919061513f565b5060a0890151602001519091508111156132a35760a088015160200151604051632c1f8ef160e21b8152600481019190915260248101829052604401610555565b6132be8882858f80604001906132b99190615550565b614586565b6132c8908361567e565b91505b808860a00151602001516132df91906157c5565b6132e9908361567e565b8851604051638b029d6160e01b815260048101919091526024810188905260448101859052606481018290529092506001600160a01b038b169150638b029d6190608401600060405180830381600087803b15801561334757600080fd5b505af115801561335b573d6000803e3d6000fd5b50505050613378876080015160200151600654610dc091906157c5565b613391876080015160200151600754611a0c919061567e565b606087015180516020918201516001600160a01b0382166000908152600c9093526040909220546133c592610e30916157c5565b60a087015180516020918201516001600160a01b0382166000908152600d9093526040909220546133f992610e66916157c5565b83156134895760008a6001600160a01b031663bd2bae9d6040518163ffffffff1660e01b815260040160206040518083038186803b15801561343a57600080fd5b505afa15801561344e573d6000803e3d6000fd5b505050506040513d601f19601f820116820180604052508101906134729190614bb4565b90506134878860800151600001518287613fed565b505b816134bb57600061349a84876157c5565b905080156134b9576134b9886080015160000151896020015183613fed565b505b80156134d8576134d88760a0015160000151886020015183613fed565b866000015187602001516001600160a01b0316336001600160a01b03167fad34241f9e3b3d38652a7493d4e07da1f3e88afa819a546544b20de727f2ffd88a60600151600001518f60600160208101906135329190614b97565b89604051613542939291906152d0565b60405180910390a450506001600055505050505050505050565b60005460011461357f576040516303cb96db60e21b815260040160405180910390fd5b60008055600154604051639a30739160e01b81523360048201526001600160a01b0390911690639a3073919060240160206040518083038186803b1580156135c657600080fd5b505afa1580156135da573d6000803e3d6000fd5b505050506040513d601f19601f820116820180604052508101906135fe9190614d61565b61361d5760405163a59d7f4d60e01b8152336004820152602401610555565b600154604080516316ed252d60e31b815290516001600160a01b0390921691600091839163b769296891600480820192602092909190829003018186803b15801561366757600080fd5b505afa15801561367b573d6000803e3d6000fd5b505050506040513d601f19601f8201168201806040525081019061369f9190614bb4565b90506000826001600160a01b031663c79005846040518163ffffffff1660e01b815260040160206040518083038186803b1580156136dc57600080fd5b505afa1580156136f0573d6000803e3d6000fd5b505050506040513d601f19601f820116820180604052508101906137149190614d7e565b905061372183838361397c565b6000836001600160a01b0316638cd474156040518163ffffffff1660e01b815260040160206040518083038186803b15801561375c57600080fd5b505afa158015613770573d6000803e3d6000fd5b505050506040513d601f19601f820116820180604052508101906137949190614bb4565b855160405163506ae89360e11b815260048101919091529091506000906001600160a01b0383169063a0d5d126906024016103a06040518083038186803b1580156137de57600080fd5b505afa1580156137f2573d6000803e3d6000fd5b505050506040513d601f19601f820116820180604052508101906138169190614f52565b9050600080836001600160a01b031663fc9ffe10896040518263ffffffff1660e01b81526004016138479190615505565b6040805180830381600087803b15801561386057600080fd5b505af1158015613874573d6000803e3d6000fd5b505050506040513d601f19601f8201168201806040525081019061389891906151a7565b90925090506138aa610dde82846157c5565b6138bb81600954610df9919061567e565b8760000151336001600160a01b03167f02bde35fb6c4387120ff67d8e52f04c37f08b2a8235cd8a731848afda59f622e8560600151600001518660800151600001518c6020015187878f604001518e8e6040516139659897969594939291906001600160a01b0398891681529688166020880152604087019590955260608601939093526080850191909152841660a084015290921660c082015260e08101919091526101000190565b60405180910390a350506001600055505050505050565b6001600160a01b038216158015906139945750600081115b15613a4a5760006139a4836142ed565b9050818110156139c75760405163f8b3bb6160e01b815260040160405180910390fd5b6000846001600160a01b031663e9a4e7a26040518163ffffffff1660e01b815260040160206040518083038186803b158015613a0257600080fd5b505afa158015613a16573d6000803e3d6000fd5b505050506040513d601f19601f82011682018060405250810190613a3a9190614bb4565b9050613a47848285613fed565b50505b505050565b600081602001516001600160a01b031682606001516001600160a01b031614613c8a5760608201516040516370a0823160e01b81523060048201526000916001600160a01b0316906370a082319060240160206040518083038186803b158015613ab857600080fd5b505afa158015613acc573d6000803e3d6000fd5b505050506040513d601f19601f82011682018060405250810190613af09190614d7e565b6060840180516001600160a01b039081166000908152600c602090815260408083205494519093168252600d90522054919250613b2c9161567e565b613b3690826157c5565b905082604001516001600160a01b031683606001516001600160a01b03161415613b9157600954600854600654600554613b7091906157c5565b613b7a91906157c5565b613b8491906157c5565b613b8e90826157c5565b90505b8260c00151811015613ba65750600092915050565b60208301516040516370a0823160e01b81523060048201526000916001600160a01b0316906370a082319060240160206040518083038186803b158015613bec57600080fd5b505afa158015613c00573d6000803e3d6000fd5b505050506040513d601f19601f82011682018060405250810190613c249190614d7e565b602080860180516001600160a01b039081166000908152600c845260408082205493519092168152600d90935290912054919250613c619161567e565b613c6b90826157c5565b90508360800151811015613c83575060009392505050565b5050613d76565b60608201516040516370a0823160e01b81523060048201526000916001600160a01b0316906370a082319060240160206040518083038186803b158015613cd057600080fd5b505afa158015613ce4573d6000803e3d6000fd5b505050506040513d601f19601f82011682018060405250810190613d089190614d7e565b6060840180516001600160a01b039081166000908152600c602090815260408083205494519093168252600d90522054919250613d449161567e565b613d4e90826157c5565b905082608001518360c00151613d64919061567e565b811015613d745750600092915050565b505b506001919050565b6002546040516370a0823160e01b81523060048201526000916001600160a01b031690829082906370a082319060240160206040518083038186803b158015613dc657600080fd5b505afa158015613dda573d6000803e3d6000fd5b505050506040513d601f19601f82011682018060405250810190613dfe9190614d7e565b9050600954600854600d6000856001600160a01b03166001600160a01b031681526020019081526020016000205460075484613e3a91906157c5565b613e4491906157c5565b613e4e91906157c5565b613e5891906157c5565b9250505090565b60068190556040518181527f26a8db85dd35b30712c42ae882de1d59c395aed810477ed980623164802cf142906020016108ef565b8060086000828254613ea6919061567e565b9091555050600554600354613ebb90836157a6565b613ec59190615696565b600a6000828254613ed6919061567e565b90915550506008546040519081527f38e229a7f3f9c329892d08eb37c4e91ccac6d12c798d394990ca4f56028ec266906020016108ef565b60098190556040518181527f02f1bb46a1dd6774772e223bfa9c733cea598e6b1ac69187d1c614a04cfd1c36906020016108ef565b6001600160a01b0382166000818152600c6020908152604091829020849055815192835282018390527f650aa761fa5f576577cdc0c020d74fa8bb091213a82ee311b7a274d9aa4f955991015b60405180910390a15050565b6001600160a01b0382166000818152600d6020908152604091829020849055815192835282018390527f63eb39417416506dc369967fba1b44e6418801a4a6845581c06cada91448c5c39101613f90565b604080518082018252601981527f7472616e7366657228616464726573732c75696e74323536290000000000000060209182015281516001600160a01b0385811660248301526044808301869052845180840390910181526064909201845291810180516001600160e01b031663a9059cbb60e01b1790529151600092839287169161407991906152b4565b6000604051808303816000865af19150503d80600081146140b6576040519150601f19603f3d011682016040523d82523d6000602084013e6140bb565b606091505b50915091508115806140e75750805115806140e55750808060200190518101906140e59190614d61565b155b15613a47578484846040516317e3057d60e31b8152600401610555939291906152d0565b60078190556040518181527f2af1c3635b0d3de42213bf1f6e7979fc04bf2c07ff6d71fe72ccd76b9a045ea1906020016108ef565b60058190556040518181527f044141ecee2fb3c75d1699b968fa546a18dfa4ee1d705699d81751270b385951906020016108ef565b600954801561422f576001546040805163779b492960e11b815290516000926001600160a01b03169163ef369252916004808301926020929190829003018186803b1580156141c357600080fd5b505afa1580156141d7573d6000803e3d6000fd5b505050506040513d601f19601f820116820180604052508101906141fb9190614bb4565b90506001600160a01b0381161561422d576142166000613f0e565b60025461422d906001600160a01b03168284613fed565b505b50565b6002546040516370a0823160e01b81523060048201526000916001600160a01b031690829082906370a082319060240160206040518083038186803b15801561427a57600080fd5b505afa15801561428e573d6000803e3d6000fd5b505050506040513d601f19601f820116820180604052508101906142b29190614d7e565b90506006546005546142c491906157c5565b6009546008546001600160a01b0385166000908152600d6020526040902054613e3a90856157c5565b6002546000906001600160a01b03838116911614156143145761430e614232565b92915050565b6040516370a0823160e01b81523060048201526000906001600160a01b038416906370a082319060240160206040518083038186803b15801561435657600080fd5b505afa15801561436a573d6000803e3d6000fd5b505050506040513d601f19601f8201168201806040525081019061438e9190614d7e565b6001600160a01b0384166000908152600c6020908152604080832054600d90925290912054919250906143c190836157c5565b6143cb91906157c5565b9392505050565b6080840151516040516370a0823160e01b81523060048201526000916001600160a01b0316906370a082319060240160206040518083038186803b15801561441957600080fd5b505afa15801561442d573d6000803e3d6000fd5b505050506040513d601f19601f820116820180604052508101906144519190614d7e565b905061446e85606001516000015133876060015160200151613fed565b6060850151516080860151516040516339d87e7760e21b8152339263e761f9dc926144a19289908990899060040161533c565b600060405180830381600087803b1580156144bb57600080fd5b505af11580156144cf573d6000803e3d6000fd5b505050506080850151516040516370a0823160e01b81523060048201526000916001600160a01b0316906370a082319060240160206040518083038186803b15801561451a57600080fd5b505afa15801561452e573d6000803e3d6000fd5b505050506040513d601f19601f820116820180604052508101906145529190614d7e565b905061455e858361567e565b81101561457e5760405163f8b3bb6160e01b815260040160405180910390fd5b505050505050565b60a0850151516040516370a0823160e01b815230600482015260009182916001600160a01b03909116906370a082319060240160206040518083038186803b1580156145d157600080fd5b505afa1580156145e5573d6000803e3d6000fd5b505050506040513d601f19601f820116820180604052508101906146099190614d7e565b6080880151516040516370a0823160e01b81523060048201529192506000916001600160a01b03909116906370a082319060240160206040518083038186803b15801561465557600080fd5b505afa158015614669573d6000803e3d6000fd5b505050506040513d601f19601f8201168201806040525081019061468d9190614d7e565b90506146a28860a00151600001513389613fed565b60a0880151516080890151516040516339d87e7760e21b8152339263e761f9dc926146d5928b908b908b9060040161533c565b600060405180830381600087803b1580156146ef57600080fd5b505af1158015614703573d6000803e3d6000fd5b5050505060a0880151516040516370a0823160e01b81523060048201526000916001600160a01b0316906370a082319060240160206040518083038186803b15801561474e57600080fd5b505afa158015614762573d6000803e3d6000fd5b505050506040513d601f19601f820116820180604052508101906147869190614d7e565b60808a0151516040516370a0823160e01b81523060048201529192506000916001600160a01b03909116906370a082319060240160206040518083038186803b1580156147d257600080fd5b505afa1580156147e6573d6000803e3d6000fd5b505050506040513d601f19601f8201168201806040525081019061480a9190614d7e565b9050614816888461567e565b8110156148365760405163f8b3bb6160e01b815260040160405180910390fd5b61484089856157c5565b61484a90836157c5565b9a9950505050505050505050565b803561486381615865565b919050565b805161486381615865565b600082601f83011261488457600080fd5b8135602061489961489483615634565b615604565b80838252828201915082860187848660051b89010111156148b957600080fd5b60005b858110156148e15781356148cf8161587a565b845292840192908401906001016148bc565b5090979650505050505050565b80516148638161587a565b60008083601f84011261490b57600080fd5b5081356001600160401b0381111561492257600080fd5b60208301915083602082850101111561493a57600080fd5b9250929050565b600082601f83011261495257600080fd5b813561496061489482615657565b81815284602083860101111561497557600080fd5b816020850160208301376000918101602001919091529392505050565b600060a082840312156149a457600080fd5b60405160a081018181106001600160401b03821117156149c6576149c661584f565b806040525080915082516149d981615865565b80825250602083015160208201526040830151604082015260608301516060820152608083015160808201525092915050565b600060408284031215614a1e57600080fd5b604051604081018181106001600160401b0382111715614a4057614a4061584f565b80604052508091508251614a5381615865565b8152602092830151920191909152919050565b6000610100808385031215614a7a57600080fd5b604051908101906001600160401b0382118183101715614a9c57614a9c61584f565b8160405280925083519150614ab08261587a565b818152614abf602085016148ee565b6020820152614ad0604085016148ee565b6040820152614ae1606085016148ee565b6060820152614af2608085016148ee565b6080820152614b0360a085016148ee565b60a0820152614b1460c085016148ee565b60c0820152614b2560e085016148ee565b60e0820152505092915050565b600060608284031215614b4457600080fd5b604051606081018181106001600160401b0382111715614b6657614b6661584f565b806040525080915082358152602083013560208201526040830135614b8a81615865565b6040919091015292915050565b600060208284031215614ba957600080fd5b81356143cb81615865565b600060208284031215614bc657600080fd5b81516143cb81615865565b600080600060608486031215614be657600080fd5b8335614bf181615865565b92506020840135614c0181615865565b929592945050506040919091013590565b60008060408385031215614c2557600080fd5b8235614c3081615865565b946020939093013593505050565b60008060008060608587031215614c5457600080fd5b8435614c5f81615865565b93506020850135925060408501356001600160401b03811115614c8157600080fd5b614c8d878288016148f9565b95989497509550505050565b60008060408385031215614cac57600080fd5b82356001600160401b0380821115614cc357600080fd5b818501915085601f830112614cd757600080fd5b81356020614ce761489483615634565b8083825282820191508286018a848660051b8901011115614d0757600080fd5b600096505b84871015614d33578035614d1f81615865565b835260019690960195918301918301614d0c565b5096505086013592505080821115614d4a57600080fd5b50614d5785828601614873565b9150509250929050565b600060208284031215614d7357600080fd5b81516143cb8161587a565b600060208284031215614d9057600080fd5b5051919050565b60008060408385031215614daa57600080fd5b823591506020830135614dbc81615865565b809150509250929050565b60008060008060808587031215614ddd57600080fd5b5050823594602084013594506040840135936060013592509050565b600060208284031215614e0b57600080fd5b81516001600160401b03811115614e2157600080fd5b8201601f81018413614e3257600080fd5b8051614e4061489482615657565b818152856020838501011115614e5557600080fd5b614e668260208301602086016157dc565b95945050505050565b600060208284031215614e8157600080fd5b81356001600160401b03811115614e9757600080fd5b8201608081850312156143cb57600080fd5b60006101208284031215614ebc57600080fd5b614ec4615596565b614ecd83614858565b8152614edb60208401614858565b6020820152614eec60408401614858565b6040820152614efd60608401614858565b60608201526080830135608082015260a083013560a082015260c083013560c082015260e083013560e08201526101008084013581830152508091505092915050565b60006040828403121561210057600080fd5b60006103a08284031215614f6557600080fd5b614f6d6155bf565b82518152614f7d60208401614868565b6020820152614f8e60408401614868565b6040820152614fa08460608501614992565b6060820152610100614fb485828601614a0c565b6080830152610140614fc886828701614992565b60a08401526101e085015160c084015261020085015160e084015261022085015182840152610240850151610120840152615007866102608701614a66565b90830152506150196103608401614868565b610160820152610380929092015161018083015250919050565b60006060828403121561504557600080fd5b6143cb8383614b32565b60006020828403121561506157600080fd5b81356001600160401b038082111561507857600080fd5b9083019060e0828603121561508c57600080fd5b6150946155e2565b823581526150a460208401614858565b60208201526150b560408401614858565b6040820152606083013560608201526150d060808401614858565b608082015260a0830135828111156150e757600080fd5b6150f387828601614941565b60a08301525060c08301358281111561510b57600080fd5b61511787828601614941565b60c08301525095945050505050565b60006020828403121561513857600080fd5b5035919050565b6000806040838503121561515257600080fd5b825191506020830151614dbc81615865565b6000806000806060858703121561517a57600080fd5b84359350602085013561518c81615865565b925060408501356001600160401b03811115614c8157600080fd5b600080604083850312156151ba57600080fd5b505080516020909101519092909150565b6000602082840312156151dd57600080fd5b815160ff811681146143cb57600080fd5b81835281816020850137506000828201602090810191909152601f909101601f19169091010190565b6000815180845261522f8160208601602086016157dc565b601f01601f19169290920160200192915050565b80511515825260208101511515602083015260408101511515604083015260608101511515606083015260808101511515608083015260a081015161528c60a084018215159052565b5060c08101516152a060c084018215159052565b5060e0810151613a4a60e084018215159052565b600082516152c68184602087016157dc565b9190910192915050565b6001600160a01b039384168152919092166020820152604081019190915260600190565b6001600160a01b0387811682528681166020830152604082018690528416606082015260a06080820181905260009061533090830184866151ee565b98975050505050505050565b6001600160a01b038681168252851660208201526040810184905260806060820181905260009061537090830184866151ee565b979650505050505050565b60018060a01b03851681528360208201526060604082015260006153a36060830184866151ee565b9695505050505050565b815181526020808301516103a08301916153d1908401826001600160a01b03169052565b5060408301516153ec60408401826001600160a01b03169052565b506060830151615430606084018280516001600160a01b03168252602080820151908301526040808201519083015260608082015190830152608090810151910152565b5060808301516101006154588185018380516001600160a01b03168252602090810151910152565b60a085015180516001600160a01b0316610140868101919091526020820151610160870152604082015161018087015260608201516101a08701526080909101516101c086015260c08601516101e086015260e08601516102008601529085015161022085015261012085015161024085015284015190506154de610260840182615243565b506101608301516001600160a01b0316610360830152610180909201516103809091015290565b81518152602080830151908201526040808301516001600160a01b0316908201526060810161430e565b8281526040602082015260006155486040830184615217565b949350505050565b6000808335601e1984360301811261556757600080fd5b8301803591506001600160401b0382111561558157600080fd5b60200191503681900382131561493a57600080fd5b60405161012081016001600160401b03811182821017156155b9576155b961584f565b60405290565b6040516101a081016001600160401b03811182821017156155b9576155b961584f565b60405160e081016001600160401b03811182821017156155b9576155b961584f565b604051601f8201601f191681016001600160401b038111828210171561562c5761562c61584f565b604052919050565b60006001600160401b0382111561564d5761564d61584f565b5060051b60200190565b60006001600160401b038211156156705761567061584f565b50601f01601f191660200190565b6000821982111561569157615691615823565b500190565b6000826156b357634e487b7160e01b600052601260045260246000fd5b500490565b600181815b808511156156f35781600019048211156156d9576156d9615823565b808516156156e657918102915b93841c93908002906156bd565b509250929050565b60006143cb60ff8416836000826157145750600161430e565b816157215750600061430e565b816001811461573757600281146157415761575d565b600191505061430e565b60ff84111561575257615752615823565b50506001821b61430e565b5060208310610133831016604e8410600b8410161715615780575081810a61430e565b61578a83836156b8565b806000190482111561579e5761579e615823565b029392505050565b60008160001904831182151516156157c0576157c0615823565b500290565b6000828210156157d7576157d7615823565b500390565b60005b838110156157f75781810151838201526020016157df565b83811115610a7e5750506000910152565b600060001982141561581c5761581c615823565b5060010190565b634e487b7160e01b600052601160045260246000fd5b634e487b7160e01b600052603260045260246000fd5b634e487b7160e01b600052604160045260246000fd5b6001600160a01b038116811461422f57600080fd5b801515811461422f57600080fdfea2646970667358221220ea6d9c7ff01f714810dff54f8b1830f38056875c914e1616cc43b41be1654ac864736f6c63430008070033",
  "linkReferences": {},
  "deployedLinkReferences": {}
}