{
  "_format": "hh-sol-artifact-1",
  "contractName": "Pool",
  "sourceName": "contracts/Pool.sol",
  "abi": [
    {
      "inputs": [
        {
          "internalType": "uint256",
          "name": "length0",
          "type": "uint256"
        },
        {
          "internalType": "uint256",
          "name": "length1",
          "type": "uint256"
        }
      ],
      "name": "BadLengths",
      "type": "error"
    },
    {
      "inputs": [
        {
          "internalType": "address",
          "name": "to",
          "type": "address"
        },
        {
          "internalType": "uint256",
          "name": "value",
          "type": "uint256"
        }
      ],
      "name": "EthTransferFailed",
      "type": "error"
    },
    {
      "inputs": [],
      "name": "ExceedMaxOpenInterest",
      "type": "error"
    },
    {
      "inputs": [
        {
          "internalType": "address",
          "name": "sender",
          "type": "address"
        }
      ],
      "name": "Forbidden",
      "type": "error"
    },
    {
      "inputs": [],
      "name": "InitializedAlready",
      "type": "error"
    },
    {
      "inputs": [
        {
          "internalType": "uint256",
          "name": "amount",
          "type": "uint256"
        },
        {
          "internalType": "uint256",
          "name": "neededAmount",
          "type": "uint256"
        }
      ],
      "name": "InsufficientCollateral",
      "type": "error"
    },
    {
      "inputs": [],
      "name": "InsufficientInput",
      "type": "error"
    },
    {
      "inputs": [],
      "name": "InsufficientOutput",
      "type": "error"
    },
    {
      "inputs": [],
      "name": "InvalidParameters",
      "type": "error"
    },
    {
      "inputs": [],
      "name": "Locked",
      "type": "error"
    },
    {
      "inputs": [
        {
          "internalType": "address",
          "name": "token",
          "type": "address"
        },
        {
          "internalType": "address",
          "name": "to",
          "type": "address"
        },
        {
          "internalType": "uint256",
          "name": "value",
          "type": "uint256"
        }
      ],
      "name": "TransferFailed",
      "type": "error"
    },
    {
      "inputs": [
        {
          "internalType": "address",
          "name": "token",
          "type": "address"
        }
      ],
      "name": "UntradeableBaseToken",
      "type": "error"
    },
    {
      "inputs": [
        {
          "internalType": "address",
          "name": "token",
          "type": "address"
        },
        {
          "internalType": "address",
          "name": "quoteToken",
          "type": "address"
        }
      ],
      "name": "WrongPool",
      "type": "error"
    },
    {
      "inputs": [],
      "name": "ZeroValue",
      "type": "error"
    },
    {
      "anonymous": false,
      "inputs": [
        {
          "indexed": true,
          "internalType": "address",
          "name": "sender",
          "type": "address"
        },
        {
          "indexed": false,
          "internalType": "uint256",
          "name": "liquidity",
          "type": "uint256"
        }
      ],
      "name": "Burn",
      "type": "event"
    },
    {
      "anonymous": false,
      "inputs": [
        {
          "indexed": true,
          "internalType": "address",
          "name": "sender",
          "type": "address"
        },
        {
          "indexed": true,
          "internalType": "address",
          "name": "owner",
          "type": "address"
        },
        {
          "indexed": true,
          "internalType": "bytes32",
          "name": "positionKey",
          "type": "bytes32"
        },
        {
          "indexed": false,
          "internalType": "address",
          "name": "baseToken",
          "type": "address"
        },
        {
          "indexed": false,
          "internalType": "address",
          "name": "closer",
          "type": "address"
        },
        {
          "indexed": false,
          "internalType": "uint256",
          "name": "liquidationFee",
          "type": "uint256"
        }
      ],
      "name": "Close",
      "type": "event"
    },
    {
      "anonymous": false,
      "inputs": [
        {
          "indexed": true,
          "internalType": "address",
          "name": "sender",
          "type": "address"
        },
        {
          "indexed": true,
          "internalType": "bytes32",
          "name": "positionKey",
          "type": "bytes32"
        },
        {
          "indexed": true,
          "internalType": "address",
          "name": "executor",
          "type": "address"
        }
      ],
      "name": "CloseManuallyStep1",
      "type": "event"
    },
    {
      "anonymous": false,
      "inputs": [
        {
          "indexed": true,
          "internalType": "address",
          "name": "sender",
          "type": "address"
        },
        {
          "indexed": true,
          "internalType": "address",
          "name": "to",
          "type": "address"
        },
        {
          "indexed": false,
          "internalType": "uint256",
          "name": "amount",
          "type": "uint256"
        }
      ],
      "name": "Collect",
      "type": "event"
    },
    {
      "anonymous": false,
      "inputs": [
        {
          "indexed": true,
          "internalType": "address",
          "name": "sender",
          "type": "address"
        },
        {
          "indexed": true,
          "internalType": "address",
          "name": "to",
          "type": "address"
        },
        {
          "indexed": false,
          "internalType": "uint256",
          "name": "liquidity",
          "type": "uint256"
        }
      ],
      "name": "Mint",
      "type": "event"
    },
    {
      "anonymous": false,
      "inputs": [
        {
          "indexed": true,
          "internalType": "address",
          "name": "sender",
          "type": "address"
        },
        {
          "indexed": true,
          "internalType": "address",
          "name": "owner",
          "type": "address"
        },
        {
          "indexed": true,
          "internalType": "bytes32",
          "name": "positionKey",
          "type": "bytes32"
        },
        {
          "indexed": false,
          "internalType": "address",
          "name": "baseToken",
          "type": "address"
        },
        {
          "indexed": false,
          "internalType": "address",
          "name": "quoteToken",
          "type": "address"
        },
        {
          "indexed": false,
          "internalType": "address",
          "name": "collateral",
          "type": "address"
        },
        {
          "indexed": false,
          "internalType": "uint256",
          "name": "baseAmount",
          "type": "uint256"
        },
        {
          "indexed": false,
          "internalType": "uint256",
          "name": "quoteAmount",
          "type": "uint256"
        },
        {
          "indexed": false,
          "internalType": "uint256",
          "name": "collateralAmount",
          "type": "uint256"
        },
        {
          "indexed": false,
          "internalType": "uint256",
          "name": "fee",
          "type": "uint256"
        },
        {
          "indexed": false,
          "internalType": "uint256",
          "name": "protocolFee",
          "type": "uint256"
        }
      ],
      "name": "Open",
      "type": "event"
    },
    {
      "anonymous": false,
      "inputs": [
        {
          "indexed": true,
          "internalType": "address",
          "name": "sender",
          "type": "address"
        },
        {
          "indexed": true,
          "internalType": "bytes32",
          "name": "positionKey",
          "type": "bytes32"
        },
        {
          "indexed": false,
          "internalType": "address",
          "name": "rollbacker",
          "type": "address"
        },
        {
          "indexed": false,
          "internalType": "address",
          "name": "serviceToken",
          "type": "address"
        },
        {
          "indexed": false,
          "internalType": "uint256",
          "name": "serviceFee",
          "type": "uint256"
        }
      ],
      "name": "Rollback",
      "type": "event"
    },
    {
      "anonymous": false,
      "inputs": [
        {
          "indexed": false,
          "internalType": "address",
          "name": "baseToken",
          "type": "address"
        },
        {
          "indexed": false,
          "internalType": "address",
          "name": "quoteToken",
          "type": "address"
        },
        {
          "indexed": false,
          "internalType": "bool",
          "name": "tradeable",
          "type": "bool"
        }
      ],
      "name": "SetBaseToken",
      "type": "event"
    },
    {
      "anonymous": false,
      "inputs": [
        {
          "indexed": false,
          "internalType": "uint256",
          "name": "newInterest",
          "type": "uint256"
        }
      ],
      "name": "SetInterest",
      "type": "event"
    },
    {
      "anonymous": false,
      "inputs": [
        {
          "indexed": false,
          "internalType": "uint256",
          "name": "newMaxOpenInterest",
          "type": "uint256"
        }
      ],
      "name": "SetMaxOpenInterest",
      "type": "event"
    },
    {
      "anonymous": false,
      "inputs": [
        {
          "indexed": false,
          "internalType": "address",
          "name": "baseToken",
          "type": "address"
        },
        {
          "indexed": false,
          "internalType": "uint256",
          "name": "newReserve",
          "type": "uint256"
        }
      ],
      "name": "UpdateBaseReserve",
      "type": "event"
    },
    {
      "anonymous": false,
      "inputs": [
        {
          "indexed": true,
          "internalType": "address",
          "name": "sender",
          "type": "address"
        },
        {
          "indexed": true,
          "internalType": "bytes32",
          "name": "positionKey",
          "type": "bytes32"
        },
        {
          "indexed": false,
          "internalType": "uint256",
          "name": "amount",
          "type": "uint256"
        },
        {
          "indexed": false,
          "internalType": "uint256",
          "name": "newCollateralLiqPrice",
          "type": "uint256"
        },
        {
          "indexed": false,
          "internalType": "address",
          "name": "updater",
          "type": "address"
        },
        {
          "indexed": false,
          "internalType": "address",
          "name": "serviceToken",
          "type": "address"
        },
        {
          "indexed": false,
          "internalType": "uint256",
          "name": "serviceFee",
          "type": "uint256"
        }
      ],
      "name": "UpdateCollateralAmount",
      "type": "event"
    },
    {
      "anonymous": false,
      "inputs": [
        {
          "indexed": false,
          "internalType": "address",
          "name": "collateral",
          "type": "address"
        },
        {
          "indexed": false,
          "internalType": "uint256",
          "name": "newReserve",
          "type": "uint256"
        }
      ],
      "name": "UpdateCollateralReserve",
      "type": "event"
    },
    {
      "anonymous": false,
      "inputs": [
        {
          "indexed": true,
          "internalType": "address",
          "name": "sender",
          "type": "address"
        },
        {
          "indexed": true,
          "internalType": "bytes32",
          "name": "positionKey",
          "type": "bytes32"
        },
        {
          "indexed": false,
          "internalType": "address",
          "name": "baseToken",
          "type": "address"
        },
        {
          "indexed": false,
          "internalType": "address",
          "name": "quoteToken",
          "type": "address"
        },
        {
          "indexed": false,
          "internalType": "uint256",
          "name": "newDeadline",
          "type": "uint256"
        },
        {
          "indexed": false,
          "internalType": "uint256",
          "name": "fee",
          "type": "uint256"
        },
        {
          "indexed": false,
          "internalType": "uint256",
          "name": "protocolFee",
          "type": "uint256"
        },
        {
          "indexed": false,
          "internalType": "address",
          "name": "updater",
          "type": "address"
        },
        {
          "indexed": false,
          "internalType": "address",
          "name": "serviceToken",
          "type": "address"
        },
        {
          "indexed": false,
          "internalType": "uint256",
          "name": "serviceFee",
          "type": "uint256"
        }
      ],
      "name": "UpdateDeadline",
      "type": "event"
    },
    {
      "anonymous": false,
      "inputs": [
        {
          "indexed": false,
          "internalType": "uint256",
          "name": "newFee",
          "type": "uint256"
        }
      ],
      "name": "UpdateFee",
      "type": "event"
    },
    {
      "anonymous": false,
      "inputs": [
        {
          "indexed": false,
          "internalType": "uint256",
          "name": "newProtocolFee",
          "type": "uint256"
        }
      ],
      "name": "UpdateProtocolFee",
      "type": "event"
    },
    {
      "anonymous": false,
      "inputs": [
        {
          "indexed": false,
          "internalType": "uint256",
          "name": "newQuoteInDebt",
          "type": "uint256"
        }
      ],
      "name": "UpdateQuoteInDebt",
      "type": "event"
    },
    {
      "anonymous": false,
      "inputs": [
        {
          "indexed": false,
          "internalType": "uint256",
          "name": "newQuoteReserve",
          "type": "uint256"
        }
      ],
      "name": "UpdateQuoteReserve",
      "type": "event"
    },
    {
      "anonymous": false,
      "inputs": [
        {
          "indexed": true,
          "internalType": "address",
          "name": "sender",
          "type": "address"
        },
        {
          "indexed": true,
          "internalType": "bytes32",
          "name": "positionKey",
          "type": "bytes32"
        },
        {
          "indexed": false,
          "internalType": "uint256",
          "name": "newStoplossPrice",
          "type": "uint256"
        },
        {
          "indexed": false,
          "internalType": "address",
          "name": "updater",
          "type": "address"
        },
        {
          "indexed": false,
          "internalType": "address",
          "name": "serviceToken",
          "type": "address"
        },
        {
          "indexed": false,
          "internalType": "uint256",
          "name": "serviceFee",
          "type": "uint256"
        }
      ],
      "name": "UpdateStoplossPrice",
      "type": "event"
    },
    {
      "anonymous": false,
      "inputs": [
        {
          "indexed": false,
          "internalType": "uint256",
          "name": "newWithdrawingLiquidity",
          "type": "uint256"
        }
      ],
      "name": "UpdateWithdrawingLiquidity",
      "type": "event"
    },
    {
      "inputs": [],
      "name": "accFee",
      "outputs": [
        {
          "internalType": "uint256",
          "name": "",
          "type": "uint256"
        }
      ],
      "stateMutability": "view",
      "type": "function"
    },
    {
      "inputs": [],
      "name": "accFeePerShare",
      "outputs": [
        {
          "internalType": "uint256",
          "name": "",
          "type": "uint256"
        }
      ],
      "stateMutability": "view",
      "type": "function"
    },
    {
      "inputs": [],
      "name": "accProtocolFee",
      "outputs": [
        {
          "internalType": "uint256",
          "name": "",
          "type": "uint256"
        }
      ],
      "stateMutability": "view",
      "type": "function"
    },
    {
      "inputs": [
        {
          "internalType": "uint256",
          "name": "_liquidity",
          "type": "uint256"
        },
        {
          "internalType": "address",
          "name": "_to",
          "type": "address"
        },
        {
          "internalType": "bytes",
          "name": "_data",
          "type": "bytes"
        }
      ],
      "name": "addBurnRequest",
      "outputs": [
        {
          "internalType": "uint256",
          "name": "",
          "type": "uint256"
        }
      ],
      "stateMutability": "nonpayable",
      "type": "function"
    },
    {
      "inputs": [],
      "name": "availLiquidity",
      "outputs": [],
      "stateMutability": "nonpayable",
      "type": "function"
    },
    {
      "inputs": [],
      "name": "availableLiquidity",
      "outputs": [
        {
          "internalType": "uint256",
          "name": "",
          "type": "uint256"
        }
      ],
      "stateMutability": "view",
      "type": "function"
    },
    {
      "inputs": [
        {
          "internalType": "address",
          "name": "",
          "type": "address"
        }
      ],
      "name": "baseReserve",
      "outputs": [
        {
          "internalType": "uint256",
          "name": "",
          "type": "uint256"
        }
      ],
      "stateMutability": "view",
      "type": "function"
    },
    {
      "inputs": [
        {
          "components": [
            {
              "internalType": "uint256",
              "name": "index",
              "type": "uint256"
            },
            {
              "internalType": "address",
              "name": "owner",
              "type": "address"
            },
            {
              "internalType": "address",
              "name": "quoteToken",
              "type": "address"
            },
            {
              "internalType": "uint256",
              "name": "liquidity",
              "type": "uint256"
            },
            {
              "internalType": "address",
              "name": "to",
              "type": "address"
            },
            {
              "internalType": "bytes",
              "name": "data",
              "type": "bytes"
            },
            {
              "internalType": "string",
              "name": "callbackResult",
              "type": "string"
            }
          ],
          "internalType": "struct IWithdrawalMonitor.WithdrawalRequest",
          "name": "_request",
          "type": "tuple"
        }
      ],
      "name": "burn",
      "outputs": [],
      "stateMutability": "nonpayable",
      "type": "function"
    },
    {
      "inputs": [
        {
          "internalType": "address",
          "name": "_owner",
          "type": "address"
        }
      ],
      "name": "claimableFee",
      "outputs": [
        {
          "internalType": "uint256",
          "name": "amount",
          "type": "uint256"
        }
      ],
      "stateMutability": "view",
      "type": "function"
    },
    {
      "inputs": [
        {
          "components": [
            {
              "internalType": "bytes32",
              "name": "positionKey",
              "type": "bytes32"
            },
            {
              "internalType": "bytes",
              "name": "data0",
              "type": "bytes"
            },
            {
              "internalType": "bytes",
              "name": "data1",
              "type": "bytes"
            },
            {
              "internalType": "address",
              "name": "closer",
              "type": "address"
            }
          ],
          "internalType": "struct IPositionStorage.CloseTradePositionParams",
          "name": "_params",
          "type": "tuple"
        }
      ],
      "name": "close",
      "outputs": [],
      "stateMutability": "nonpayable",
      "type": "function"
    },
    {
      "inputs": [
        {
          "internalType": "bytes32",
          "name": "_positionKey",
          "type": "bytes32"
        },
        {
          "internalType": "address",
          "name": "_executor",
          "type": "address"
        }
      ],
      "name": "closeManuallyStep1",
      "outputs": [],
      "stateMutability": "nonpayable",
      "type": "function"
    },
    {
      "inputs": [
        {
          "internalType": "bytes32",
          "name": "_positionKey",
          "type": "bytes32"
        },
        {
          "internalType": "uint256",
          "name": "_baseValue",
          "type": "uint256"
        },
        {
          "internalType": "uint256",
          "name": "_remainingCollateralAmount",
          "type": "uint256"
        },
        {
          "internalType": "uint256",
          "name": "_liquidationFee",
          "type": "uint256"
        }
      ],
      "name": "closeManuallyStep2",
      "outputs": [],
      "stateMutability": "nonpayable",
      "type": "function"
    },
    {
      "inputs": [
        {
          "internalType": "address",
          "name": "",
          "type": "address"
        }
      ],
      "name": "collateralReserve",
      "outputs": [
        {
          "internalType": "uint256",
          "name": "",
          "type": "uint256"
        }
      ],
      "stateMutability": "view",
      "type": "function"
    },
    {
      "inputs": [
        {
          "internalType": "address",
          "name": "_to",
          "type": "address"
        },
        {
          "internalType": "uint256",
          "name": "_amount",
          "type": "uint256"
        }
      ],
      "name": "collect",
      "outputs": [],
      "stateMutability": "nonpayable",
      "type": "function"
    },
    {
      "inputs": [],
      "name": "factory",
      "outputs": [
        {
          "internalType": "address",
          "name": "",
          "type": "address"
        }
      ],
      "stateMutability": "view",
      "type": "function"
    },
    {
      "inputs": [
        {
          "internalType": "address",
          "name": "_factory",
          "type": "address"
        },
        {
          "internalType": "address",
          "name": "_quoteToken",
          "type": "address"
        },
        {
          "internalType": "uint256",
          "name": "_interest",
          "type": "uint256"
        }
      ],
      "name": "initialize",
      "outputs": [],
      "stateMutability": "nonpayable",
      "type": "function"
    },
    {
      "inputs": [],
      "name": "interest",
      "outputs": [
        {
          "internalType": "uint256",
          "name": "",
          "type": "uint256"
        }
      ],
      "stateMutability": "view",
      "type": "function"
    },
    {
      "inputs": [
        {
          "internalType": "address",
          "name": "",
          "type": "address"
        }
      ],
      "name": "liquidityPosition",
      "outputs": [
        {
          "internalType": "uint256",
          "name": "liquidity",
          "type": "uint256"
        },
        {
          "internalType": "uint256",
          "name": "feeDebt",
          "type": "uint256"
        },
        {
          "internalType": "uint256",
          "name": "pendingFee",
          "type": "uint256"
        },
        {
          "internalType": "uint256",
          "name": "withdrawingLiquidity",
          "type": "uint256"
        }
      ],
      "stateMutability": "view",
      "type": "function"
    },
    {
      "inputs": [],
      "name": "maxOpenInterest",
      "outputs": [
        {
          "internalType": "uint256",
          "name": "",
          "type": "uint256"
        }
      ],
      "stateMutability": "view",
      "type": "function"
    },
    {
      "inputs": [
        {
          "internalType": "address",
          "name": "_to",
          "type": "address"
        },
        {
          "internalType": "uint256",
          "name": "_liquidity",
          "type": "uint256"
        },
        {
          "internalType": "bytes",
          "name": "_data",
          "type": "bytes"
        }
      ],
      "name": "mint",
      "outputs": [],
      "stateMutability": "nonpayable",
      "type": "function"
    },
    {
      "inputs": [
        {
          "components": [
            {
              "internalType": "address",
              "name": "owner",
              "type": "address"
            },
            {
              "internalType": "address",
              "name": "baseToken",
              "type": "address"
            },
            {
              "internalType": "address",
              "name": "quoteToken",
              "type": "address"
            },
            {
              "internalType": "address",
              "name": "collateral",
              "type": "address"
            },
            {
              "internalType": "uint256",
              "name": "baseAmount",
              "type": "uint256"
            },
            {
              "internalType": "uint256",
              "name": "quoteAmount",
              "type": "uint256"
            },
            {
              "internalType": "uint256",
              "name": "collateralAmount",
              "type": "uint256"
            },
            {
              "internalType": "uint256",
              "name": "deadline",
              "type": "uint256"
            },
            {
              "internalType": "uint256",
              "name": "stoplossPrice",
              "type": "uint256"
            }
          ],
          "internalType": "struct IPositionStorage.OpenTradePositionParams",
          "name": "_params",
          "type": "tuple"
        }
      ],
      "name": "open",
      "outputs": [
        {
          "internalType": "bytes32",
          "name": "positionKey",
          "type": "bytes32"
        }
      ],
      "stateMutability": "nonpayable",
      "type": "function"
    },
    {
      "inputs": [],
      "name": "openInterest",
      "outputs": [
        {
          "internalType": "uint256",
          "name": "",
          "type": "uint256"
        }
      ],
      "stateMutability": "view",
      "type": "function"
    },
    {
      "inputs": [],
      "name": "precision",
      "outputs": [
        {
          "internalType": "uint256",
          "name": "",
          "type": "uint256"
        }
      ],
      "stateMutability": "view",
      "type": "function"
    },
    {
      "inputs": [],
      "name": "quoteInDebt",
      "outputs": [
        {
          "internalType": "uint256",
          "name": "",
          "type": "uint256"
        }
      ],
      "stateMutability": "view",
      "type": "function"
    },
    {
      "inputs": [],
      "name": "quoteReserve",
      "outputs": [
        {
          "internalType": "uint256",
          "name": "",
          "type": "uint256"
        }
      ],
      "stateMutability": "view",
      "type": "function"
    },
    {
      "inputs": [],
      "name": "quoteToken",
      "outputs": [
        {
          "internalType": "address",
          "name": "",
          "type": "address"
        }
      ],
      "stateMutability": "view",
      "type": "function"
    },
    {
      "inputs": [
        {
          "components": [
            {
              "internalType": "bytes32",
              "name": "positionKey",
              "type": "bytes32"
            },
            {
              "internalType": "address",
              "name": "rollbacker",
              "type": "address"
            }
          ],
          "internalType": "struct IPositionStorage.RollbackTradePositionParams",
          "name": "_params",
          "type": "tuple"
        }
      ],
      "name": "rollback",
      "outputs": [],
      "stateMutability": "nonpayable",
      "type": "function"
    },
    {
      "inputs": [
        {
          "internalType": "address[]",
          "name": "_baseTokens",
          "type": "address[]"
        },
        {
          "internalType": "bool[]",
          "name": "_tradeables",
          "type": "bool[]"
        }
      ],
      "name": "setBaseTokens",
      "outputs": [],
      "stateMutability": "nonpayable",
      "type": "function"
    },
    {
      "inputs": [
        {
          "internalType": "uint256",
          "name": "_interest",
          "type": "uint256"
        }
      ],
      "name": "setInterest",
      "outputs": [],
      "stateMutability": "nonpayable",
      "type": "function"
    },
    {
      "inputs": [
        {
          "internalType": "uint256",
          "name": "_maxOpenInterest",
          "type": "uint256"
        }
      ],
      "name": "setMaxOpenInterest",
      "outputs": [],
      "stateMutability": "nonpayable",
      "type": "function"
    },
    {
      "inputs": [
        {
          "internalType": "address",
          "name": "",
          "type": "address"
        }
      ],
      "name": "tradeableBaseToken",
      "outputs": [
        {
          "internalType": "bool",
          "name": "",
          "type": "bool"
        }
      ],
      "stateMutability": "view",
      "type": "function"
    },
    {
      "inputs": [
        {
          "components": [
            {
              "internalType": "bytes32",
              "name": "positionKey",
              "type": "bytes32"
            },
            {
              "internalType": "uint256",
              "name": "amount",
              "type": "uint256"
            },
            {
              "internalType": "address",
              "name": "updater",
              "type": "address"
            }
          ],
          "internalType": "struct IPositionStorage.UpdateCollateralAmountParams",
          "name": "_params",
          "type": "tuple"
        }
      ],
      "name": "updateCollateralAmount",
      "outputs": [
        {
          "internalType": "uint256",
          "name": "collateralLiqPrice",
          "type": "uint256"
        }
      ],
      "stateMutability": "nonpayable",
      "type": "function"
    },
    {
      "inputs": [
        {
          "components": [
            {
              "internalType": "bytes32",
              "name": "positionKey",
              "type": "bytes32"
            },
            {
              "internalType": "uint256",
              "name": "deadline",
              "type": "uint256"
            },
            {
              "internalType": "address",
              "name": "updater",
              "type": "address"
            }
          ],
          "internalType": "struct IPositionStorage.UpdateDeadlineParams",
          "name": "_params",
          "type": "tuple"
        }
      ],
      "name": "updateDeadline",
      "outputs": [],
      "stateMutability": "nonpayable",
      "type": "function"
    },
    {
      "inputs": [
        {
          "components": [
            {
              "internalType": "bytes32",
              "name": "positionKey",
              "type": "bytes32"
            },
            {
              "internalType": "uint256",
              "name": "stoplossPrice",
              "type": "uint256"
            },
            {
              "internalType": "address",
              "name": "updater",
              "type": "address"
            }
          ],
          "internalType": "struct IPositionStorage.UpdateStoplossPriceParams",
          "name": "_params",
          "type": "tuple"
        }
      ],
      "name": "updateStoplossPrice",
      "outputs": [],
      "stateMutability": "nonpayable",
      "type": "function"
    },
    {
      "inputs": [],
      "name": "withdrawingLiquidity",
      "outputs": [
        {
          "internalType": "uint256",
          "name": "",
          "type": "uint256"
        }
      ],
      "stateMutability": "view",
      "type": "function"
    }
  ],
  "bytecode": "0x6080604052600160005534801561001557600080fd5b50615c3c80620000266000396000f3fe608060405234801561001057600080fd5b50600436106102115760003560e01c80638da11bfb11610125578063d43c1b69116100ad578063dd3b829a1161007c578063dd3b829a14610486578063fa5a2e621461048f578063fba0c81414610498578063fc9ffe10146104ab578063ffc9dcbb146104be57600080fd5b8063d43c1b6914610402578063d4fd690514610415578063d8f2cab71461046a578063dc6638f41461047d57600080fd5b8063ada3112f116100f4578063ada3112f146103cc578063ba343922146103d5578063c392f766146103dd578063c45a0155146103e6578063d3b5dc3b146103f957600080fd5b80638da11bfb1461038a57806394d008ef1461039d5780639da771f4146103b0578063a1c59afc146103b957600080fd5b806340650eef116101a8578063685b61d011610177578063685b61d0146103335780636b8357ac1461033c578063743753591461034f5780637c08ddc9146103575780638b6e00fa1461036a57600080fd5b806340650eef146102e757806341ba5951146102fa57806359129e751461030d578063653741ff1461032057600080fd5b80631d086720116101e45780631d0867201461028d578063217a4b70146102a057806327014e33146102cb57806332196a01146102d457600080fd5b80630121c777146102165780630adcf0f5146102325780631636e199146102655780631794bb3c1461027a575b600080fd5b61021f60095481565b6040519081526020015b60405180910390f35b610255610240366004614f15565b600d6020526000908152604090205460ff1681565b6040519015158152602001610229565b6102786102733660046153b1565b6104de565b005b610278610288366004614f4f565b6107fc565b61027861029b3660046154a4565b6108d7565b6002546102b3906001600160a01b031681565b6040516001600160a01b039091168152602001610229565b61021f600b5481565b6102786102e2366004615017565b610940565b6102786102f53660046154a4565b610aca565b61021f610308366004615227565b610b2c565b61027861031b366004615115565b611094565b61021f61032e3660046154e2565b61138e565b61021f60085481565b61027861034a366004614f90565b611540565b61021f611694565b61021f6103653660046153b1565b6116a3565b61021f610378366004614f15565b600f6020526000908152604090205481565b6102786103983660046153cd565b611c26565b6102786103ab366004614fbc565b612154565b61021f60075481565b61021f6103c7366004614f15565b61240b565b61021f600a5481565b6102786124a4565b61021f60045481565b6001546102b3906001600160a01b031681565b61021f60035481565b6102786104103660046152be565b612569565b61044a610423366004614f15565b60106020526000908152604090208054600182015460028301546003909301549192909184565b604080519485526020850193909352918301526060820152608001610229565b610278610478366004615145565b612b7a565b61021f60055481565b61021f600c5481565b61021f60065481565b6102786104a63660046151ed565b613155565b6102786104b93660046153b1565b613991565b61021f6104cc366004614f15565b600e6020526000908152604090205481565b600054600114610501576040516303cb96db60e21b815260040160405180910390fd5b60008055600154604051639a30739160e01b81523360048201526001600160a01b0390911690639a3073919060240160206040518083038186803b15801561054857600080fd5b505afa15801561055c573d6000803e3d6000fd5b505050506040513d601f19601f8201168201806040525081019061058091906150df565b6105a45760405163a59d7f4d60e01b81523360048201526024015b60405180910390fd5b600154604080516316ed252d60e31b815290516001600160a01b0390921691600091839163b769296891600480820192602092909190829003018186803b1580156105ee57600080fd5b505afa158015610602573d6000803e3d6000fd5b505050506040513d601f19601f820116820180604052508101906106269190614f32565b90506000826001600160a01b031663b58862e76040518163ffffffff1660e01b815260040160206040518083038186803b15801561066357600080fd5b505afa158015610677573d6000803e3d6000fd5b505050506040513d601f19601f8201168201806040525081019061069b91906150fc565b90506106a8838383613db1565b6000836001600160a01b0316638cd474156040518163ffffffff1660e01b815260040160206040518083038186803b1580156106e357600080fd5b505afa1580156106f7573d6000803e3d6000fd5b505050506040513d601f19601f8201168201806040525081019061071b9190614f32565b604051631636e19960e01b81529091506001600160a01b03821690631636e1999061074a908890600401615883565b600060405180830381600087803b15801561076457600080fd5b505af1158015610778573d6000803e3d6000fd5b505050508460000151336001600160a01b03167f7c0fff48e86bd50569aca67e1ee9743c3f93cf5e0aab3bf35f9c8ae0579c29538760200151886040015187876040516107e894939291909384526001600160a01b03928316602085015291166040830152606082015260800190565b60405180910390a350506001600055505050565b6001546001600160a01b031615610826576040516373e833b960e11b815260040160405180910390fd5b600180546001600160a01b038086166001600160a01b0319928316179092556002805492851692909116821790556040805163313ce56760e01b8152905163313ce56791600480820192602092909190829003018186803b15801561088a57600080fd5b505afa15801561089e573d6000803e3d6000fd5b505050506040513d601f19601f820116820180604052508101906108c29190615549565b6108cd90600a615a79565b6003556004555050565b6001546001600160a01b031633146109045760405163a59d7f4d60e01b815233600482015260240161059b565b60048190556040518181527f81ed86e8cfa3004fc54732477c3eda4f4c606394a0b423aba78153a3e696f65d906020015b60405180910390a150565b6001546001600160a01b0316331461096d5760405163a59d7f4d60e01b815233600482015260240161059b565b600254815183516001600160a01b0390921691146109ab578251825160405163574092f960e01b81526004810192909252602482015260440161059b565b60005b8351811015610ac4578281815181106109c9576109c9615bb7565b6020026020010151600d60008684815181106109e7576109e7615bb7565b60200260200101516001600160a01b03166001600160a01b0316815260200190815260200160002060006101000a81548160ff0219169083151502179055507fec4f975deac1f5c1d92fd5f7a2b08d2c4e3e60215ab50703da45f8f8e9f2fc9b848281518110610a5957610a59615bb7565b602002602001015183858481518110610a7457610a74615bb7565b6020026020010151604051610aaa939291906001600160a01b039384168152919092166020820152901515604082015260600190565b60405180910390a180610abc81615b86565b9150506109ae565b50505050565b6001546001600160a01b03163314610af75760405163a59d7f4d60e01b815233600482015260240161059b565b60058190556040518181527f9290d3ed14fa81f8d341842ac22f26e4bb4449e0d0a8566656d54dafae29198e90602001610935565b60008054600114610b50576040516303cb96db60e21b815260040160405180910390fd5b6000805560025460408301516001600160a01b0391821691168114610ba1576040808401519051630158332360e41b81526001600160a01b039182166004820152908216602482015260440161059b565b82604001516001600160a01b031683602001516001600160a01b03161415610bdc57604051630e52390960e41b815260040160405180910390fd5b6020808401516001600160a01b03166000908152600d909152604090205460ff16610c2a57602083015160405162bb3a2960e81b81526001600160a01b03909116600482015260240161059b565b610c3383613e84565b610c505760405163f8b3bb6160e01b815260040160405180910390fd5b6005548360a00151600654610c6591906159fc565b1115610c845760405163554028e760e11b815260040160405180910390fd5b60015460408051638cd4741560e01b815290516000926001600160a01b031691638cd47415916004808301926020929190829003018186803b158015610cc957600080fd5b505afa158015610cdd573d6000803e3d6000fd5b505050506040513d601f19601f82011682018060405250810190610d019190614f32565b60408051631a37982d60e01b815286516001600160a01b03908116600483015260208801518116602483015291870151821660448201526060870151821660648201526080870151608482015260a087015160a482015260c087015160c482015260e087015160e482015261010087015161010482015291925060009190831690631a37982d90610124016103a06040518083038186803b158015610da557600080fd5b505afa158015610db9573d6000803e3d6000fd5b505050506040513d601f19601f82011682018060405250810190610ddd91906152d0565b60208101519091506001600160a01b0316610e0b57604051630e52390960e41b815260040160405180910390fd5b6000816101000151826080015160200151610e269190615b43565b90506000610e326141b3565b905080821115610e555760405163bb2875c360e01b815260040160405180910390fd5b6040516364b88ac560e01b81526001600160a01b038516906364b88ac590610e8190869060040161572b565b602060405180830381600087803b158015610e9b57600080fd5b505af1158015610eaf573d6000803e3d6000fd5b505050506040513d601f19601f82011682018060405250810190610ed391906150fc565b9550610eef8760a00151600854610eea91906159fc565b6141d2565b610f0d836101200151846101000151610f089190615b43565b614207565b610f28836101200151600b54610f2391906159fc565b614281565b60208088015160808901516001600160a01b0382166000908152600e909352604090922054610f5f92610f5a916159fc565b6142b6565b606087015160c08801516001600160a01b0382166000908152600f6020526040902054610f959291610f90916159fc565b61430f565b82608001516020015160066000828254610faf91906159fc565b90915550508651610fc290869084614360565b8587600001516001600160a01b0316336001600160a01b03167f6fa15176f59ef643f98e48bb7bbcdc1f7ed128c889a18626d6c28f6e7e2dece48a602001518b604001518c606001518d608001518e60a001518f60c001518c61010001518d610120015160405161107c9897969594939291906001600160a01b03988916815296881660208801529490961660408601526060850192909252608084015260a083015260c082019290925260e08101919091526101000190565b60405180910390a45050600160005550919392505050565b6000546001146110b7576040516303cb96db60e21b815260040160405180910390fd5b60008055600154604051639a30739160e01b81523360048201526001600160a01b0390911690639a3073919060240160206040518083038186803b1580156110fe57600080fd5b505afa158015611112573d6000803e3d6000fd5b505050506040513d601f19601f8201168201806040525081019061113691906150df565b6111555760405163a59d7f4d60e01b815233600482015260240161059b565b60015460408051638cd4741560e01b815290516000926001600160a01b031691638cd47415916004808301926020929190829003018186803b15801561119a57600080fd5b505afa1580156111ae573d6000803e3d6000fd5b505050506040513d601f19601f820116820180604052508101906111d29190614f32565b604051631601180b60e31b8152600481018590529091506001600160a01b0382169063b008c05890602401600060405180830381600087803b15801561121757600080fd5b505af115801561122b573d6000803e3d6000fd5b505060405163506ae89360e11b815260048101869052600092506001600160a01b038416915063a0d5d126906024016103a06040518083038186803b15801561127357600080fd5b505afa158015611287573d6000803e3d6000fd5b505050506040513d601f19601f820116820180604052508101906112ab91906152d0565b90506112c881606001516000015184836060015160200151614360565b6112e38160a0015160000151848360a0015160200151614360565b606081015180516020918201516001600160a01b0382166000908152600e90935260409092205461131792610f5a91615b43565b60a081015180516020918201516001600160a01b0382166000908152600f90935260409092205461134b92610f9091615b43565b6040516001600160a01b03841690859033907f1cc79853bbf119208b3fab3b7d33fcdb6ceaee7c8b16b89bdb389ed3b51ad17c90600090a4505060016000555050565b600080546001146113b2576040516303cb96db60e21b815260040160405180910390fd5b6000808055338152601060205260409020805460038201546113d490886159fc565b11156113f35760405163bb2875c360e01b815260040160405180910390fd5b8581600301600082825461140791906159fc565b90915550506009546114239061141e9088906159fc565b61447e565b6001546040805163a4fbc0d760e01b815290516000926001600160a01b03169163a4fbc0d7916004808301926020929190829003018186803b15801561146857600080fd5b505afa15801561147c573d6000803e3d6000fd5b505050506040513d601f19601f820116820180604052508101906114a09190614f32565b60025460405163130e06fd60e31b81529192506001600160a01b038084169263987037e8926114de9233929116908c908c908c908c90600401615672565b602060405180830381600087803b1580156114f857600080fd5b505af115801561150c573d6000803e3d6000fd5b505050506040513d601f19601f8201168201806040525081019061153091906150fc565b6001600055979650505050505050565b600054600114611563576040516303cb96db60e21b815260040160405180910390fd5b60008055801561168b57336000908152601060205260409020600c546003548254156115c95760018301548354829061159c9085615b24565b6115a69190615a14565b6115b09190615b43565b8360020160008282546115c391906159fc565b90915550505b825481906115d79084615b24565b6115e19190615a14565b600184015560028301548411806115f95750600a5484115b156116175760405163bb2875c360e01b815260040160405180910390fd5b8383600201600082825461162b9190615b43565b9091555050600254611647906001600160a01b03168686614360565b6040518481526001600160a01b0386169033907f1314fd112a381beea61539dbd21ec04afcff2662ac7d1b83273aade1f53d1b979060200160405180910390a35050505b50506001600055565b600061169e6141b3565b905090565b600080546001146116c7576040516303cb96db60e21b815260040160405180910390fd5b60008055600154604051639a30739160e01b81523360048201526001600160a01b0390911690639a3073919060240160206040518083038186803b15801561170e57600080fd5b505afa158015611722573d6000803e3d6000fd5b505050506040513d601f19601f8201168201806040525081019061174691906150df565b6117655760405163a59d7f4d60e01b815233600482015260240161059b565b60015460408051638cd4741560e01b815290516001600160a01b03909216916000918391638cd4741591600480820192602092909190829003018186803b1580156117af57600080fd5b505afa1580156117c3573d6000803e3d6000fd5b505050506040513d601f19601f820116820180604052508101906117e79190614f32565b845160405163506ae89360e11b815260048101919091529091506000906001600160a01b0383169063a0d5d126906024016103a06040518083038186803b15801561183157600080fd5b505afa158015611845573d6000803e3d6000fd5b505050506040513d601f19601f8201168201806040525081019061186991906152d0565b90506000836001600160a01b031663b76929686040518163ffffffff1660e01b815260040160206040518083038186803b1580156118a657600080fd5b505afa1580156118ba573d6000803e3d6000fd5b505050506040513d601f19601f820116820180604052508101906118de9190614f32565b90506000846001600160a01b0316632a5025b76040518163ffffffff1660e01b815260040160206040518083038186803b15801561191b57600080fd5b505afa15801561192f573d6000803e3d6000fd5b505050506040513d601f19601f8201168201806040525081019061195391906150fc565b90506001600160a01b0382161580159061196d5750600081115b15611abf5760a0830151516001600160a01b03838116911614156119ce576000611996836144b3565b90508188602001516119a891906159fc565b8110156119c85760405163f8b3bb6160e01b815260040160405180910390fd5b50611a39565b60006119e18460a00151600001516144b3565b90508760200151811015611a085760405163f8b3bb6160e01b815260040160405180910390fd5b6000611a13846144b3565b905082811015611a365760405163f8b3bb6160e01b815260040160405180910390fd5b50505b6000856001600160a01b031663e9a4e7a26040518163ffffffff1660e01b815260040160206040518083038186803b158015611a7457600080fd5b505afa158015611a88573d6000803e3d6000fd5b505050506040513d601f19601f82011682018060405250810190611aac9190614f32565b9050611ab9838284614360565b50611afb565b6000611ad28460a00151600001516144b3565b90508760200151811015611af95760405163f8b3bb6160e01b815260040160405180910390fd5b505b604051637c08ddc960e01b81526001600160a01b03851690637c08ddc990611b27908a90600401615883565b602060405180830381600087803b158015611b4157600080fd5b505af1158015611b55573d6000803e3d6000fd5b505050506040513d601f19601f82011682018060405250810190611b7991906150fc565b60a0840151516020808a01516001600160a01b0383166000908152600f909252604090912054929850611bb092610f9091906159fc565b86516020808901516040808b015181519283529282018a90526001600160a01b039283169082015290841660608201526080810183905233907f55c8ac91237f6fa939a79c1699293ce14171d61728c7cc56a131f51758fa598f9060a00160405180910390a35050600160005550919392505050565b600054600114611c49576040516303cb96db60e21b815260040160405180910390fd5b600080556001546040805163a4fbc0d760e01b815290516001600160a01b039092169163a4fbc0d791600480820192602092909190829003018186803b158015611c9257600080fd5b505afa158015611ca6573d6000803e3d6000fd5b505050506040513d601f19601f82011682018060405250810190611cca9190614f32565b6001600160a01b0316336001600160a01b031614611cfd5760405163a59d7f4d60e01b815233600482015260240161059b565b6020808201516001600160a01b03166000908152601090915260409020600381015460608301511115611d435760405163bb2875c360e01b815260040160405180910390fd5b6009546060830151811015611d9c576000611d5c6141b3565b9050611d6881836159fc565b84606001511115611d8c5760405163bb2875c360e01b815260040160405180910390fd5b611d96600061447e565b50611daf565b611daf83606001518261141e9190615b43565b600c54600354835415611dfc57600184015484548290611dcf9085615b24565b611dd99190615a14565b611de39190615b43565b846002016000828254611df691906159fc565b90915550505b8460600151846000016000828254611e149190615b43565b90915550506060850151600385018054600090611e32908490615b43565b909155505083548190611e459084615b24565b611e4f9190615a14565b60018501556060850151600754611e6e91611e6991615b43565b614598565b611e766145cd565b60a085015151156120ed576001546040805163a4fbc0d760e01b815290516000926001600160a01b03169163a4fbc0d7916004808301926020929190829003018186803b158015611ec657600080fd5b505afa158015611eda573d6000803e3d6000fd5b505050506040513d601f19601f82011682018060405250810190611efe9190614f32565b9050600086606001518760a00151604051602401611f1d9291906158ad565b60408051601f19818403018152918152602080830180516001600160e01b031663462cc8ff60e11b179052890151905191925060009182916001600160a01b031690611f6a908590615632565b6000604051808303816000865af19150503d8060008114611fa7576040519150601f19603f3d011682016040523d82523d6000602084013e611fac565b606091505b5091509150816120e85760448151101561206a578851604051634d4a6fbb60e01b81526001600160a01b03861691634d4a6fbb9161203391906004019081526040602082018190526024908201527f43616c6c6261636b207472616e73616374696f6e206661696c65642073696c656060820152636e746c7960e01b608082015260a00190565b600060405180830381600087803b15801561204d57600080fd5b505af1158015612061573d6000803e3d6000fd5b505050506120e8565b600481019050836001600160a01b0316634d4a6fbb8a60000151838060200190518101906120989190615177565b6040518363ffffffff1660e01b81526004016120b59291906158ad565b600060405180830381600087803b1580156120cf57600080fd5b505af11580156120e3573d6000803e3d6000fd5b505050505b505050505b6002546080860151606087015161210e926001600160a01b03169190614360565b606085015160405190815233907fcc16f5dbb4873280815c1ee09dbd06736cffcc184412cf7a71a0fdb75d397ca59060200160405180910390a250506001600055505050565b600054600114612177576040516303cb96db60e21b815260040160405180910390fd5b60008080556002546001600160a01b03868116835260106020526040909220600c546003548254949093169391929091156121ec576001830154835482906121bf9085615b24565b6121c99190615a14565b6121d39190615b43565b8360020160008282546121e691906159fc565b90915550505b8683600001600082825461220091906159fc565b9091555050825481906122139084615b24565b61221d9190615a14565b600184015560075461223490611e699089906159fc565b61223c6145cd565b6040516370a0823160e01b81523060048201526000906001600160a01b038616906370a082319060240160206040518083038186803b15801561227e57600080fd5b505afa158015612292573d6000803e3d6000fd5b505050506040513d601f19601f820116820180604052508101906122b691906150fc565b6040516303a3bcd760e01b815290915033906303a3bcd7906122e29088908c908c908c906004016156f9565b600060405180830381600087803b1580156122fc57600080fd5b505af1158015612310573d6000803e3d6000fd5b50506040516370a0823160e01b8152306004820152600092506001600160a01b03881691506370a082319060240160206040518083038186803b15801561235657600080fd5b505afa15801561236a573d6000803e3d6000fd5b505050506040513d601f19601f8201168201806040525081019061238e91906150fc565b905061239a89836159fc565b8110156123ba5760405163f8b3bb6160e01b815260040160405180910390fd5b6040518981526001600160a01b038b169033907fab8530f87dc9b59234c4623bf917212bb2536d647574c8e7e5da92c2ede0c9f89060200160405180910390a3505060016000555050505050505050565b6001600160a01b038116600090815260106020908152604080832081516080810183528154808252600183015494820185905260028301549382019390935260039182015460608201529054600c5491939290916124699190615b24565b6124739190615a14565b826040015161248291906159fc565b61248c9190615b43565b9150600a5482111561249e57600a5491505b50919050565b600160009054906101000a90046001600160a01b03166001600160a01b031663a4fbc0d76040518163ffffffff1660e01b815260040160206040518083038186803b1580156124f257600080fd5b505afa158015612506573d6000803e3d6000fd5b505050506040513d601f19601f8201168201806040525081019061252a9190614f32565b6001600160a01b0316336001600160a01b03161461255d5760405163a59d7f4d60e01b815233600482015260240161059b565b612567600061447e565b565b60005460011461258c576040516303cb96db60e21b815260040160405180910390fd5b60008055600154604051639a30739160e01b81523360048201526001600160a01b0390911690639a3073919060240160206040518083038186803b1580156125d357600080fd5b505afa1580156125e7573d6000803e3d6000fd5b505050506040513d601f19601f8201168201806040525081019061260b91906150df565b61262a5760405163a59d7f4d60e01b815233600482015260240161059b565b60015460408051638cd4741560e01b815290516001600160a01b03909216916000918391638cd4741591600480820192602092909190829003018186803b15801561267457600080fd5b505afa158015612688573d6000803e3d6000fd5b505050506040513d601f19601f820116820180604052508101906126ac9190614f32565b60405163506ae89360e11b8152843560048201529091506000906001600160a01b0383169063a0d5d126906024016103a06040518083038186803b1580156126f357600080fd5b505afa158015612707573d6000803e3d6000fd5b505050506040513d601f19601f8201168201806040525081019061272b91906152d0565b90506000836001600160a01b031663b76929686040518163ffffffff1660e01b815260040160206040518083038186803b15801561276857600080fd5b505afa15801561277c573d6000803e3d6000fd5b505050506040513d601f19601f820116820180604052508101906127a09190614f32565b90506000846001600160a01b0316633c0930376040518163ffffffff1660e01b815260040160206040518083038186803b1580156127dd57600080fd5b505afa1580156127f1573d6000803e3d6000fd5b505050506040513d601f19601f8201168201806040525081019061281591906150fc565b90506001600160a01b0382161580159061282f5750600081115b1561297c576002546001600160a01b038381169116141561289057600061285461468a565b90508184608001516020015161286a91906159fc565b81101561288a5760405163f8b3bb6160e01b815260040160405180910390fd5b506128f6565b600061289a61468a565b90508360800151602001518110156128c55760405163f8b3bb6160e01b815260040160405180910390fd5b60006128d0846144b3565b9050828110156128f35760405163f8b3bb6160e01b815260040160405180910390fd5b50505b6000856001600160a01b031663e9a4e7a26040518163ffffffff1660e01b815260040160206040518083038186803b15801561293157600080fd5b505afa158015612945573d6000803e3d6000fd5b505050506040513d601f19601f820116820180604052508101906129699190614f32565b9050612976838284614360565b506129b3565b600061298661468a565b90508360800151602001518110156129b15760405163f8b3bb6160e01b815260040160405180910390fd5b505b6001600160a01b038416639a10234187356129d460408a0160208b01614f15565b6040516001600160e01b031960e085901b16815260048101929092526001600160a01b03166024820152604401600060405180830381600087803b158015612a1b57600080fd5b505af1158015612a2f573d6000803e3d6000fd5b50505050612a4c836080015160200151600854610eea9190615b43565b612a6583608001516020015160095461141e91906159fc565b606083015180516020918201516001600160a01b0382166000908152600e909352604090922054612a9992610f5a91615b43565b60a083015180516020918201516001600160a01b0382166000908152600f909352604090922054612acd92610f9091615b43565b82608001516020015160066000828254612ae79190615b43565b909155505060608301518051602080860151920151612b069290614360565b60a08301518051602080860151920151612b209290614360565b8251337f415e462bce09ff3142dc51f9a6878d89bb34d75a21bc8ffc7fc397eccce872e9612b5460408a0160208b01614f15565b8585604051612b659392919061564e565b60405180910390a35050600160005550505050565b600054600114612b9d576040516303cb96db60e21b815260040160405180910390fd5b60008055600154604051639a30739160e01b81523360048201526001600160a01b0390911690639a3073919060240160206040518083038186803b158015612be457600080fd5b505afa158015612bf8573d6000803e3d6000fd5b505050506040513d601f19601f82011682018060405250810190612c1c91906150df565b612c3b5760405163a59d7f4d60e01b815233600482015260240161059b565b60015460408051638cd4741560e01b815290516000926001600160a01b031691638cd47415916004808301926020929190829003018186803b158015612c8057600080fd5b505afa158015612c94573d6000803e3d6000fd5b505050506040513d601f19601f82011682018060405250810190612cb89190614f32565b60405163506ae89360e11b8152600481018790529091506000906001600160a01b0383169063a0d5d126906024016103a06040518083038186803b158015612cff57600080fd5b505afa158015612d13573d6000803e3d6000fd5b505050506040513d601f19601f82011682018060405250810190612d3791906152d0565b60808101515160a0820151519192506001600160a01b0391821691161415612da0576000612d6361468a565b905083612d7086886159fc565b612d7a91906159fc565b811015612d9a5760405163f8b3bb6160e01b815260040160405180910390fd5b50612ebf565b6000612daa61468a565b9050612db684876159fc565b811015612dd65760405163f8b3bb6160e01b815260040160405180910390fd5b60a082018051516001600160a01b039081166000908152600f602090815260408083205485515185168452600e9092528083205494515190516370a0823160e01b815230600482015291949316906370a082319060240160206040518083038186803b158015612e4557600080fd5b505afa158015612e59573d6000803e3d6000fd5b505050506040513d601f19601f82011682018060405250810190612e7d91906150fc565b9050600082612e8c8584615b43565b612e969190615b43565b905088811015612eb95760405163f8b3bb6160e01b815260040160405180910390fd5b50505050505b60405163f71139f760e01b8152600481018790526001600160a01b0383169063f71139f790602401600060405180830381600087803b158015612f0157600080fd5b505af1158015612f15573d6000803e3d6000fd5b5050505060008084836080015160200151612f3091906159fc565b905080871015612f4757612f448782615b43565b91505b8251604051638b029d6160e01b815260048101919091526024810188905260448101839052606481018790526001600160a01b03851690638b029d6190608401600060405180830381600087803b158015612fa157600080fd5b505af1158015612fb5573d6000803e3d6000fd5b50505050612fd2836080015160200151600854610eea9190615b43565b612feb83608001516020015160095461141e91906159fc565b826080015160200151600660008282546130059190615b43565b909155505084156130a4576001546040805163bd2bae9d60e01b815290516000926001600160a01b03169163bd2bae9d916004808301926020929190829003018186803b15801561305557600080fd5b505afa158015613069573d6000803e3d6000fd5b505050506040513d601f19601f8201168201806040525081019061308d9190614f32565b90506130a28460800151600001518288614360565b505b816130d65760006130b58289615b43565b905080156130d4576130d4846080015160000151856020015183614360565b505b85156130f3576130f38360a0015160000151846020015188614360565b60208301516060840151516040518a926001600160a01b03169133917fad34241f9e3b3d38652a7493d4e07da1f3e88afa819a546544b20de727f2ffd89161313e9184908c9061564e565b60405180910390a450506001600055505050505050565b600054600114613178576040516303cb96db60e21b815260040160405180910390fd5b60008055600154604051639a30739160e01b81523360048201526001600160a01b0390911690639a3073919060240160206040518083038186803b1580156131bf57600080fd5b505afa1580156131d3573d6000803e3d6000fd5b505050506040513d601f19601f820116820180604052508101906131f791906150df565b6132165760405163a59d7f4d60e01b815233600482015260240161059b565b60015460408051638cd4741560e01b815290516001600160a01b03909216916000918391638cd4741591600480820192602092909190829003018186803b15801561326057600080fd5b505afa158015613274573d6000803e3d6000fd5b505050506040513d601f19601f820116820180604052508101906132989190614f32565b905060006001600160a01b03821663ac00b67485356132bd6080880160608901614f15565b6040516001600160e01b031960e085901b16815260048101929092526001600160a01b03166024820152604401602060405180830381600087803b15801561330457600080fd5b505af1158015613318573d6000803e3d6000fd5b505050506040513d601f19601f8201168201806040525081019061333c91906150df565b60405163506ae89360e11b8152853560048201529091506000906001600160a01b0384169063a0d5d126906024016103a06040518083038186803b15801561338357600080fd5b505afa158015613397573d6000803e3d6000fd5b505050506040513d601f19601f820116820180604052508101906133bb91906152d0565b90506000846001600160a01b0316637c21d5e06040518163ffffffff1660e01b815260040160206040518083038186803b1580156133f857600080fd5b505afa15801561340c573d6000803e3d6000fd5b505050506040513d601f19601f820116820180604052508101906134309190614f32565b6060830151805160808501515160209092015160405163d7176ca960e01b81526000600482018190526001600160a01b0393841660248301529383166044820152606481019190915292935090919083169063d7176ca990608401604080518083038186803b1580156134a257600080fd5b505afa1580156134b6573d6000803e3d6000fd5b505050506040513d601f19601f820116820180604052508101906134da91906154bd565b5090506134f483826134ef60208b018b6158ce565b614750565b60808301516020015160009085156135a2576000886001600160a01b0316635fb3b1b56040518163ffffffff1660e01b815260040160206040518083038186803b15801561354157600080fd5b505afa158015613555573d6000803e3d6000fd5b505050506040513d601f19601f8201168201806040525081019061357991906150fc565b90506127106135888284615b24565b6135929190615a14565b925061359e83836159fc565b9150505b6000806000838610156136e1576135b98685615b43565b60808901515160a08a0151519194508492506001600160a01b039182169116146136e15760a08801515160808901515160405163ec27830960e01b8152600060048201526001600160a01b0392831660248201529082166044820152606481018590529088169063ec27830990608401604080518083038186803b15801561364057600080fd5b505afa158015613654573d6000803e3d6000fd5b505050506040513d601f19601f8201168201806040525081019061367891906154bd565b5060a0890151602001519091508111156136b95760a088015160200151604051632c1f8ef160e21b815260048101919091526024810182905260440161059b565b6136d48882858f80604001906136cf91906158ce565b614904565b6136de90836159fc565b91505b808860a00151602001516136f59190615b43565b6136ff90836159fc565b8851604051638b029d6160e01b815260048101919091526024810188905260448101859052606481018290529092506001600160a01b038b169150638b029d6190608401600060405180830381600087803b15801561375d57600080fd5b505af1158015613771573d6000803e3d6000fd5b5050505061378e876080015160200151600854610eea9190615b43565b6137a787608001516020015160095461141e91906159fc565b606087015180516020918201516001600160a01b0382166000908152600e9093526040909220546137db92610f5a91615b43565b60a087015180516020918201516001600160a01b0382166000908152600f90935260409092205461380f92610f9091615b43565b866080015160200151600660008282546138299190615b43565b909155505083156138be5760008a6001600160a01b031663bd2bae9d6040518163ffffffff1660e01b815260040160206040518083038186803b15801561386f57600080fd5b505afa158015613883573d6000803e3d6000fd5b505050506040513d601f19601f820116820180604052508101906138a79190614f32565b90506138bc8860800151600001518287614360565b505b816138f05760006138cf8487615b43565b905080156138ee576138ee886080015160000151896020015183614360565b505b801561390d5761390d8760a0015160000151886020015183614360565b866000015187602001516001600160a01b0316336001600160a01b03167fad34241f9e3b3d38652a7493d4e07da1f3e88afa819a546544b20de727f2ffd88a60600151600001518f60600160208101906139679190614f15565b896040516139779392919061564e565b60405180910390a450506001600055505050505050505050565b6000546001146139b4576040516303cb96db60e21b815260040160405180910390fd5b60008055600154604051639a30739160e01b81523360048201526001600160a01b0390911690639a3073919060240160206040518083038186803b1580156139fb57600080fd5b505afa158015613a0f573d6000803e3d6000fd5b505050506040513d601f19601f82011682018060405250810190613a3391906150df565b613a525760405163a59d7f4d60e01b815233600482015260240161059b565b600154604080516316ed252d60e31b815290516001600160a01b0390921691600091839163b769296891600480820192602092909190829003018186803b158015613a9c57600080fd5b505afa158015613ab0573d6000803e3d6000fd5b505050506040513d601f19601f82011682018060405250810190613ad49190614f32565b90506000826001600160a01b031663c79005846040518163ffffffff1660e01b815260040160206040518083038186803b158015613b1157600080fd5b505afa158015613b25573d6000803e3d6000fd5b505050506040513d601f19601f82011682018060405250810190613b4991906150fc565b9050613b56838383613db1565b6000836001600160a01b0316638cd474156040518163ffffffff1660e01b815260040160206040518083038186803b158015613b9157600080fd5b505afa158015613ba5573d6000803e3d6000fd5b505050506040513d601f19601f82011682018060405250810190613bc99190614f32565b855160405163506ae89360e11b815260048101919091529091506000906001600160a01b0383169063a0d5d126906024016103a06040518083038186803b158015613c1357600080fd5b505afa158015613c27573d6000803e3d6000fd5b505050506040513d601f19601f82011682018060405250810190613c4b91906152d0565b9050600080836001600160a01b031663fc9ffe10896040518263ffffffff1660e01b8152600401613c7c9190615883565b6040805180830381600087803b158015613c9557600080fd5b505af1158015613ca9573d6000803e3d6000fd5b505050506040513d601f19601f82011682018060405250810190613ccd9190615525565b9092509050613cdf610f088284615b43565b613cf081600b54610f2391906159fc565b8760000151336001600160a01b03167f02bde35fb6c4387120ff67d8e52f04c37f08b2a8235cd8a731848afda59f622e8560600151600001518660800151600001518c6020015187878f604001518e8e604051613d9a9897969594939291906001600160a01b0398891681529688166020880152604087019590955260608601939093526080850191909152841660a084015290921660c082015260e08101919091526101000190565b60405180910390a350506001600055505050505050565b6001600160a01b03821615801590613dc95750600081115b15613e7f576000613dd9836144b3565b905081811015613dfc5760405163f8b3bb6160e01b815260040160405180910390fd5b6000846001600160a01b031663e9a4e7a26040518163ffffffff1660e01b815260040160206040518083038186803b158015613e3757600080fd5b505afa158015613e4b573d6000803e3d6000fd5b505050506040513d601f19601f82011682018060405250810190613e6f9190614f32565b9050613e7c848285614360565b50505b505050565b600081602001516001600160a01b031682606001516001600160a01b0316146140bf5760608201516040516370a0823160e01b81523060048201526000916001600160a01b0316906370a082319060240160206040518083038186803b158015613eed57600080fd5b505afa158015613f01573d6000803e3d6000fd5b505050506040513d601f19601f82011682018060405250810190613f2591906150fc565b6060840180516001600160a01b039081166000908152600e602090815260408083205494519093168252600f90522054919250613f61916159fc565b613f6b9082615b43565b905082604001516001600160a01b031683606001516001600160a01b03161415613fc657600b54600a54600854600754613fa59190615b43565b613faf9190615b43565b613fb99190615b43565b613fc39082615b43565b90505b8260c00151811015613fdb5750600092915050565b60208301516040516370a0823160e01b81523060048201526000916001600160a01b0316906370a082319060240160206040518083038186803b15801561402157600080fd5b505afa158015614035573d6000803e3d6000fd5b505050506040513d601f19601f8201168201806040525081019061405991906150fc565b602080860180516001600160a01b039081166000908152600e845260408082205493519092168152600f90935290912054919250614096916159fc565b6140a09082615b43565b905083608001518110156140b8575060009392505050565b50506141ab565b60608201516040516370a0823160e01b81523060048201526000916001600160a01b0316906370a082319060240160206040518083038186803b15801561410557600080fd5b505afa158015614119573d6000803e3d6000fd5b505050506040513d601f19601f8201168201806040525081019061413d91906150fc565b6060840180516001600160a01b039081166000908152600e602090815260408083205494519093168252600f90522054919250614179916159fc565b6141839082615b43565b905082608001518360c0015161419991906159fc565b8110156141a95750600092915050565b505b506001919050565b60006009546008546007546141c89190615b43565b61169e9190615b43565b60088190556040518181527f26a8db85dd35b30712c42ae882de1d59c395aed810477ed980623164802cf14290602001610935565b80600a600082825461421991906159fc565b909155505060075460035461422e9083615b24565b6142389190615a14565b600c600082825461424991906159fc565b9091555050600a546040519081527f38e229a7f3f9c329892d08eb37c4e91ccac6d12c798d394990ca4f56028ec26690602001610935565b600b8190556040518181527f02f1bb46a1dd6774772e223bfa9c733cea598e6b1ac69187d1c614a04cfd1c3690602001610935565b6001600160a01b0382166000818152600e6020908152604091829020849055815192835282018390527f650aa761fa5f576577cdc0c020d74fa8bb091213a82ee311b7a274d9aa4f955991015b60405180910390a15050565b6001600160a01b0382166000818152600f6020908152604091829020849055815192835282018390527f63eb39417416506dc369967fba1b44e6418801a4a6845581c06cada91448c5c39101614303565b604080518082018252601981527f7472616e7366657228616464726573732c75696e74323536290000000000000060209182015281516001600160a01b0385811660248301526044808301869052845180840390910181526064909201845291810180516001600160e01b031663a9059cbb60e01b179052915160009283928716916143ec9190615632565b6000604051808303816000865af19150503d8060008114614429576040519150601f19603f3d011682016040523d82523d6000602084013e61442e565b606091505b509150915081158061445a57508051158061445857508080602001905181019061445891906150df565b155b15613e7c578484846040516317e3057d60e31b815260040161059b9392919061564e565b60098190556040518181527f2af1c3635b0d3de42213bf1f6e7979fc04bf2c07ff6d71fe72ccd76b9a045ea190602001610935565b6002546000906001600160a01b03838116911614156144da576144d461468a565b92915050565b6040516370a0823160e01b81523060048201526000906001600160a01b038416906370a082319060240160206040518083038186803b15801561451c57600080fd5b505afa158015614530573d6000803e3d6000fd5b505050506040513d601f19601f8201168201806040525081019061455491906150fc565b6001600160a01b0384166000908152600e6020908152604080832054600f90925290912054919250906145879083615b43565b6145919190615b43565b9392505050565b60078190556040518181527f044141ecee2fb3c75d1699b968fa546a18dfa4ee1d705699d81751270b38595190602001610935565b600b548015614687576001546040805163779b492960e11b815290516000926001600160a01b03169163ef369252916004808301926020929190829003018186803b15801561461b57600080fd5b505afa15801561462f573d6000803e3d6000fd5b505050506040513d601f19601f820116820180604052508101906146539190614f32565b90506001600160a01b038116156146855761466e6000614281565b600254614685906001600160a01b03168284614360565b505b50565b6002546040516370a0823160e01b81523060048201526000916001600160a01b031690829082906370a082319060240160206040518083038186803b1580156146d257600080fd5b505afa1580156146e6573d6000803e3d6000fd5b505050506040513d601f19601f8201168201806040525081019061470a91906150fc565b905060085460075461471c9190615b43565b6001600160a01b0383166000908152600f602052604090205461473f9083615b43565b6147499190615b43565b9250505090565b6080840151516040516370a0823160e01b81523060048201526000916001600160a01b0316906370a082319060240160206040518083038186803b15801561479757600080fd5b505afa1580156147ab573d6000803e3d6000fd5b505050506040513d601f19601f820116820180604052508101906147cf91906150fc565b90506147ec85606001516000015133876060015160200151614360565b6060850151516080860151516040516339d87e7760e21b8152339263e761f9dc9261481f928990899089906004016156ba565b600060405180830381600087803b15801561483957600080fd5b505af115801561484d573d6000803e3d6000fd5b505050506080850151516040516370a0823160e01b81523060048201526000916001600160a01b0316906370a082319060240160206040518083038186803b15801561489857600080fd5b505afa1580156148ac573d6000803e3d6000fd5b505050506040513d601f19601f820116820180604052508101906148d091906150fc565b90506148dc85836159fc565b8110156148fc5760405163f8b3bb6160e01b815260040160405180910390fd5b505050505050565b60a0850151516040516370a0823160e01b815230600482015260009182916001600160a01b03909116906370a082319060240160206040518083038186803b15801561494f57600080fd5b505afa158015614963573d6000803e3d6000fd5b505050506040513d601f19601f8201168201806040525081019061498791906150fc565b6080880151516040516370a0823160e01b81523060048201529192506000916001600160a01b03909116906370a082319060240160206040518083038186803b1580156149d357600080fd5b505afa1580156149e7573d6000803e3d6000fd5b505050506040513d601f19601f82011682018060405250810190614a0b91906150fc565b9050614a208860a00151600001513389614360565b60a0880151516080890151516040516339d87e7760e21b8152339263e761f9dc92614a53928b908b908b906004016156ba565b600060405180830381600087803b158015614a6d57600080fd5b505af1158015614a81573d6000803e3d6000fd5b5050505060a0880151516040516370a0823160e01b81523060048201526000916001600160a01b0316906370a082319060240160206040518083038186803b158015614acc57600080fd5b505afa158015614ae0573d6000803e3d6000fd5b505050506040513d601f19601f82011682018060405250810190614b0491906150fc565b60808a0151516040516370a0823160e01b81523060048201529192506000916001600160a01b03909116906370a082319060240160206040518083038186803b158015614b5057600080fd5b505afa158015614b64573d6000803e3d6000fd5b505050506040513d601f19601f82011682018060405250810190614b8891906150fc565b9050614b9488846159fc565b811015614bb45760405163f8b3bb6160e01b815260040160405180910390fd5b614bbe8985615b43565b614bc89083615b43565b9a9950505050505050505050565b8035614be181615be3565b919050565b8051614be181615be3565b600082601f830112614c0257600080fd5b81356020614c17614c12836159b2565b615982565b80838252828201915082860187848660051b8901011115614c3757600080fd5b60005b85811015614c5f578135614c4d81615bf8565b84529284019290840190600101614c3a565b5090979650505050505050565b8051614be181615bf8565b60008083601f840112614c8957600080fd5b5081356001600160401b03811115614ca057600080fd5b602083019150836020828501011115614cb857600080fd5b9250929050565b600082601f830112614cd057600080fd5b8135614cde614c12826159d5565b818152846020838601011115614cf357600080fd5b816020850160208301376000918101602001919091529392505050565b600060a08284031215614d2257600080fd5b60405160a081018181106001600160401b0382111715614d4457614d44615bcd565b80604052508091508251614d5781615be3565b80825250602083015160208201526040830151604082015260608301516060820152608083015160808201525092915050565b600060408284031215614d9c57600080fd5b604051604081018181106001600160401b0382111715614dbe57614dbe615bcd565b80604052508091508251614dd181615be3565b8152602092830151920191909152919050565b6000610100808385031215614df857600080fd5b604051908101906001600160401b0382118183101715614e1a57614e1a615bcd565b8160405280925083519150614e2e82615bf8565b818152614e3d60208501614c6c565b6020820152614e4e60408501614c6c565b6040820152614e5f60608501614c6c565b6060820152614e7060808501614c6c565b6080820152614e8160a08501614c6c565b60a0820152614e9260c08501614c6c565b60c0820152614ea360e08501614c6c565b60e0820152505092915050565b600060608284031215614ec257600080fd5b604051606081018181106001600160401b0382111715614ee457614ee4615bcd565b806040525080915082358152602083013560208201526040830135614f0881615be3565b6040919091015292915050565b600060208284031215614f2757600080fd5b813561459181615be3565b600060208284031215614f4457600080fd5b815161459181615be3565b600080600060608486031215614f6457600080fd5b8335614f6f81615be3565b92506020840135614f7f81615be3565b929592945050506040919091013590565b60008060408385031215614fa357600080fd5b8235614fae81615be3565b946020939093013593505050565b60008060008060608587031215614fd257600080fd5b8435614fdd81615be3565b93506020850135925060408501356001600160401b03811115614fff57600080fd5b61500b87828801614c77565b95989497509550505050565b6000806040838503121561502a57600080fd5b82356001600160401b038082111561504157600080fd5b818501915085601f83011261505557600080fd5b81356020615065614c12836159b2565b8083825282820191508286018a848660051b890101111561508557600080fd5b600096505b848710156150b157803561509d81615be3565b83526001969096019591830191830161508a565b50965050860135925050808211156150c857600080fd5b506150d585828601614bf1565b9150509250929050565b6000602082840312156150f157600080fd5b815161459181615bf8565b60006020828403121561510e57600080fd5b5051919050565b6000806040838503121561512857600080fd5b82359150602083013561513a81615be3565b809150509250929050565b6000806000806080858703121561515b57600080fd5b5050823594602084013594506040840135936060013592509050565b60006020828403121561518957600080fd5b81516001600160401b0381111561519f57600080fd5b8201601f810184136151b057600080fd5b80516151be614c12826159d5565b8181528560208385010111156151d357600080fd5b6151e4826020830160208601615b5a565b95945050505050565b6000602082840312156151ff57600080fd5b81356001600160401b0381111561521557600080fd5b82016080818503121561459157600080fd5b6000610120828403121561523a57600080fd5b615242615914565b61524b83614bd6565b815261525960208401614bd6565b602082015261526a60408401614bd6565b604082015261527b60608401614bd6565b60608201526080830135608082015260a083013560a082015260c083013560c082015260e083013560e08201526101008084013581830152508091505092915050565b60006040828403121561249e57600080fd5b60006103a082840312156152e357600080fd5b6152eb61593d565b825181526152fb60208401614be6565b602082015261530c60408401614be6565b604082015261531e8460608501614d10565b606082015261010061533285828601614d8a565b608083015261014061534686828701614d10565b60a08401526101e085015160c084015261020085015160e084015261022085015182840152610240850151610120840152615385866102608701614de4565b90830152506153976103608401614be6565b610160820152610380929092015161018083015250919050565b6000606082840312156153c357600080fd5b6145918383614eb0565b6000602082840312156153df57600080fd5b81356001600160401b03808211156153f657600080fd5b9083019060e0828603121561540a57600080fd5b615412615960565b8235815261542260208401614bd6565b602082015261543360408401614bd6565b60408201526060830135606082015261544e60808401614bd6565b608082015260a08301358281111561546557600080fd5b61547187828601614cbf565b60a08301525060c08301358281111561548957600080fd5b61549587828601614cbf565b60c08301525095945050505050565b6000602082840312156154b657600080fd5b5035919050565b600080604083850312156154d057600080fd5b82519150602083015161513a81615be3565b600080600080606085870312156154f857600080fd5b84359350602085013561550a81615be3565b925060408501356001600160401b03811115614fff57600080fd5b6000806040838503121561553857600080fd5b505080516020909101519092909150565b60006020828403121561555b57600080fd5b815160ff8116811461459157600080fd5b81835281816020850137506000828201602090810191909152601f909101601f19169091010190565b600081518084526155ad816020860160208601615b5a565b601f01601f19169290920160200192915050565b80511515825260208101511515602083015260408101511515604083015260608101511515606083015260808101511515608083015260a081015161560a60a084018215159052565b5060c081015161561e60c084018215159052565b5060e0810151613e7f60e084018215159052565b60008251615644818460208701615b5a565b9190910192915050565b6001600160a01b039384168152919092166020820152604081019190915260600190565b6001600160a01b0387811682528681166020830152604082018690528416606082015260a0608082018190526000906156ae908301848661556c565b98975050505050505050565b6001600160a01b03868116825285166020820152604081018490526080606082018190526000906156ee908301848661556c565b979650505050505050565b60018060a01b038516815283602082015260606040820152600061572160608301848661556c565b9695505050505050565b815181526020808301516103a083019161574f908401826001600160a01b03169052565b50604083015161576a60408401826001600160a01b03169052565b5060608301516157ae606084018280516001600160a01b03168252602080820151908301526040808201519083015260608082015190830152608090810151910152565b5060808301516101006157d68185018380516001600160a01b03168252602090810151910152565b60a085015180516001600160a01b0316610140868101919091526020820151610160870152604082015161018087015260608201516101a08701526080909101516101c086015260c08601516101e086015260e086015161020086015290850151610220850152610120850151610240850152840151905061585c6102608401826155c1565b506101608301516001600160a01b0316610360830152610180909201516103809091015290565b81518152602080830151908201526040808301516001600160a01b031690820152606081016144d4565b8281526040602082015260006158c66040830184615595565b949350505050565b6000808335601e198436030181126158e557600080fd5b8301803591506001600160401b038211156158ff57600080fd5b602001915036819003821315614cb857600080fd5b60405161012081016001600160401b038111828210171561593757615937615bcd565b60405290565b6040516101a081016001600160401b038111828210171561593757615937615bcd565b60405160e081016001600160401b038111828210171561593757615937615bcd565b604051601f8201601f191681016001600160401b03811182821017156159aa576159aa615bcd565b604052919050565b60006001600160401b038211156159cb576159cb615bcd565b5060051b60200190565b60006001600160401b038211156159ee576159ee615bcd565b50601f01601f191660200190565b60008219821115615a0f57615a0f615ba1565b500190565b600082615a3157634e487b7160e01b600052601260045260246000fd5b500490565b600181815b80851115615a71578160001904821115615a5757615a57615ba1565b80851615615a6457918102915b93841c9390800290615a3b565b509250929050565b600061459160ff841683600082615a92575060016144d4565b81615a9f575060006144d4565b8160018114615ab55760028114615abf57615adb565b60019150506144d4565b60ff841115615ad057615ad0615ba1565b50506001821b6144d4565b5060208310610133831016604e8410600b8410161715615afe575081810a6144d4565b615b088383615a36565b8060001904821115615b1c57615b1c615ba1565b029392505050565b6000816000190483118215151615615b3e57615b3e615ba1565b500290565b600082821015615b5557615b55615ba1565b500390565b60005b83811015615b75578181015183820152602001615b5d565b83811115610ac45750506000910152565b6000600019821415615b9a57615b9a615ba1565b5060010190565b634e487b7160e01b600052601160045260246000fd5b634e487b7160e01b600052603260045260246000fd5b634e487b7160e01b600052604160045260246000fd5b6001600160a01b038116811461468757600080fd5b801515811461468757600080fdfea26469706673582212202cd89e300bbe608ff64bc6d1d5a1c2c58ebffeb06be29778d0617c1bda59786664736f6c63430008070033",
  "linkReferences": {},
  "deployedLinkReferences": {}
}