{
  "_format": "hh-sol-artifact-1",
  "contractName": "PoolReader",
  "sourceName": "contracts/PoolReader.sol",
  "abi": [
    {
      "inputs": [
        {
          "internalType": "address",
          "name": "_factory",
          "type": "address"
        }
      ],
      "name": "allPoolDetails",
      "outputs": [
        {
          "components": [
            {
              "internalType": "address",
              "name": "pool",
              "type": "address"
            },
            {
              "internalType": "address",
              "name": "quoteToken",
              "type": "address"
            },
            {
              "internalType": "string",
              "name": "quoteSymbol",
              "type": "string"
            },
            {
              "internalType": "uint256",
              "name": "quoteDecimals",
              "type": "uint256"
            },
            {
              "internalType": "uint256",
              "name": "quoteReserve",
              "type": "uint256"
            },
            {
              "internalType": "uint256",
              "name": "quoteInDebt",
              "type": "uint256"
            },
            {
              "internalType": "uint256",
              "name": "withdrawingLiquidity",
              "type": "uint256"
            },
            {
              "internalType": "uint256",
              "name": "availableLiquidity",
              "type": "uint256"
            },
            {
              "internalType": "uint256",
              "name": "interest",
              "type": "uint256"
            }
          ],
          "internalType": "struct PoolDetail[]",
          "name": "",
          "type": "tuple[]"
        }
      ],
      "stateMutability": "view",
      "type": "function"
    },
    {
      "inputs": [
        {
          "internalType": "address",
          "name": "_factory",
          "type": "address"
        }
      ],
      "name": "allPools",
      "outputs": [
        {
          "internalType": "address[]",
          "name": "",
          "type": "address[]"
        }
      ],
      "stateMutability": "view",
      "type": "function"
    },
    {
      "inputs": [
        {
          "internalType": "address",
          "name": "_pool",
          "type": "address"
        }
      ],
      "name": "poolDetail",
      "outputs": [
        {
          "components": [
            {
              "internalType": "address",
              "name": "pool",
              "type": "address"
            },
            {
              "internalType": "address",
              "name": "quoteToken",
              "type": "address"
            },
            {
              "internalType": "string",
              "name": "quoteSymbol",
              "type": "string"
            },
            {
              "internalType": "uint256",
              "name": "quoteDecimals",
              "type": "uint256"
            },
            {
              "internalType": "uint256",
              "name": "quoteReserve",
              "type": "uint256"
            },
            {
              "internalType": "uint256",
              "name": "quoteInDebt",
              "type": "uint256"
            },
            {
              "internalType": "uint256",
              "name": "withdrawingLiquidity",
              "type": "uint256"
            },
            {
              "internalType": "uint256",
              "name": "availableLiquidity",
              "type": "uint256"
            },
            {
              "internalType": "uint256",
              "name": "interest",
              "type": "uint256"
            }
          ],
          "internalType": "struct PoolDetail",
          "name": "",
          "type": "tuple"
        }
      ],
      "stateMutability": "view",
      "type": "function"
    }
  ],
  "bytecode": "0x608060405234801561001057600080fd5b50610abc806100206000396000f3fe608060405234801561001057600080fd5b50600436106100415760003560e01c806350a9ba901461004657806386882e621461006f57806398b722d91461008f575b600080fd5b610059610054366004610743565b6100af565b6040516100669190610974565b60405180910390f35b61008261007d366004610743565b61017c565b6040516100669190610927565b6100a261009d366004610743565b6102f9565b60405161006691906109d6565b606060006100bc8361017c565b90506000815167ffffffffffffffff8111156100da576100da610a58565b60405190808252806020026020018201604052801561011357816020015b6101006106e5565b8152602001906001900390816100f85790505b50905060005b82518110156101745761014483828151811061013757610137610a42565b60200260200101516102f9565b82828151811061015657610156610a42565b6020026020010181905250808061016c90610a19565b915050610119565b509392505050565b60606000826001600160a01b031663081e3eda6040518163ffffffff1660e01b815260040160206040518083038186803b1580156101b957600080fd5b505afa1580156101cd573d6000803e3d6000fd5b505050506040513d601f19601f820116820180604052508101906101f19190610831565b905060008167ffffffffffffffff81111561020e5761020e610a58565b604051908082528060200260200182016040528015610237578160200160208202803683370190505b50905060005b82811015610174576040516315895f4760e31b8152600481018290526001600160a01b0386169063ac4afa389060240160206040518083038186803b15801561028557600080fd5b505afa158015610299573d6000803e3d6000fd5b505050506040513d601f19601f820116820180604052508101906102bd9190610767565b8282815181106102cf576102cf610a42565b6001600160a01b0390921660209283029190910190910152806102f181610a19565b91505061023d565b6103016106e5565b6000826001600160a01b031663217a4b706040518163ffffffff1660e01b815260040160206040518083038186803b15801561033c57600080fd5b505afa158015610350573d6000803e3d6000fd5b505050506040513d601f19601f820116820180604052508101906103749190610767565b9050604051806101200160405280846001600160a01b03168152602001826001600160a01b03168152602001826001600160a01b03166395d89b416040518163ffffffff1660e01b815260040160006040518083038186803b1580156103d957600080fd5b505afa1580156103ed573d6000803e3d6000fd5b505050506040513d6000823e601f3d908101601f191682016040526104159190810190610784565b8152602001826001600160a01b031663313ce5676040518163ffffffff1660e01b815260040160206040518083038186803b15801561045357600080fd5b505afa158015610467573d6000803e3d6000fd5b505050506040513d601f19601f8201168201806040525081019061048b919061084a565b60ff168152602001846001600160a01b0316639da771f46040518163ffffffff1660e01b815260040160206040518083038186803b1580156104cc57600080fd5b505afa1580156104e0573d6000803e3d6000fd5b505050506040513d601f19601f820116820180604052508101906105049190610831565b8152602001846001600160a01b031663685b61d06040518163ffffffff1660e01b815260040160206040518083038186803b15801561054257600080fd5b505afa158015610556573d6000803e3d6000fd5b505050506040513d601f19601f8201168201806040525081019061057a9190610831565b8152602001846001600160a01b0316630121c7776040518163ffffffff1660e01b815260040160206040518083038186803b1580156105b857600080fd5b505afa1580156105cc573d6000803e3d6000fd5b505050506040513d601f19601f820116820180604052508101906105f09190610831565b8152602001846001600160a01b031663743753596040518163ffffffff1660e01b815260040160206040518083038186803b15801561062e57600080fd5b505afa158015610642573d6000803e3d6000fd5b505050506040513d601f19601f820116820180604052508101906106669190610831565b8152602001846001600160a01b031663c392f7666040518163ffffffff1660e01b815260040160206040518083038186803b1580156106a457600080fd5b505afa1580156106b8573d6000803e3d6000fd5b505050506040513d601f19601f820116820180604052508101906106dc9190610831565b90529392505050565b60405180610120016040528060006001600160a01b0316815260200160006001600160a01b03168152602001606081526020016000815260200160008152602001600081526020016000815260200160008152602001600081525090565b60006020828403121561075557600080fd5b813561076081610a6e565b9392505050565b60006020828403121561077957600080fd5b815161076081610a6e565b60006020828403121561079657600080fd5b815167ffffffffffffffff808211156107ae57600080fd5b818401915084601f8301126107c257600080fd5b8151818111156107d4576107d4610a58565b604051601f8201601f19908116603f011681019083821181831017156107fc576107fc610a58565b8160405282815287602084870101111561081557600080fd5b6108268360208301602088016109e9565b979650505050505050565b60006020828403121561084357600080fd5b5051919050565b60006020828403121561085c57600080fd5b815160ff8116811461076057600080fd5b600081518084526108858160208601602086016109e9565b601f01601f19169290920160200192915050565b600061012060018060a01b03835116845260208301516108c460208601826001600160a01b03169052565b5060408301518160408601526108dc8286018261086d565b915050606083015160608501526080830151608085015260a083015160a085015260c083015160c085015260e083015160e08501526101008084015181860152508091505092915050565b6020808252825182820181905260009190848201906040850190845b818110156109685783516001600160a01b031683529284019291840191600101610943565b50909695505050505050565b6000602080830181845280855180835260408601915060408160051b870101925083870160005b828110156109c957603f198886030184526109b7858351610899565b9450928501929085019060010161099b565b5092979650505050505050565b6020815260006107606020830184610899565b60005b83811015610a045781810151838201526020016109ec565b83811115610a13576000848401525b50505050565b6000600019821415610a3b57634e487b7160e01b600052601160045260246000fd5b5060010190565b634e487b7160e01b600052603260045260246000fd5b634e487b7160e01b600052604160045260246000fd5b6001600160a01b0381168114610a8357600080fd5b5056fea2646970667358221220889ec6aaab5323e97692735deb0c5db4553b34ecfe3bfaf7ba616c1b4a96d1c564736f6c63430008070033",
  "linkReferences": {},
  "deployedLinkReferences": {}
}