{
  "_format": "hh-sol-artifact-1",
  "contractName": "UniswapV3DEXIntegration",
  "sourceName": "contracts/integrations/UniswapV3DEXIntegration.sol",
  "abi": [
    {
      "inputs": [
        {
          "internalType": "address",
          "name": "_factory",
          "type": "address"
        },
        {
          "internalType": "address",
          "name": "_quoter",
          "type": "address"
        },
        {
          "internalType": "address",
          "name": "_router",
          "type": "address"
        }
      ],
      "stateMutability": "nonpayable",
      "type": "constructor"
    },
    {
      "inputs": [],
      "name": "Locked",
      "type": "error"
    },
    {
      "inputs": [],
      "name": "factory",
      "outputs": [
        {
          "internalType": "address",
          "name": "",
          "type": "address"
        }
      ],
      "stateMutability": "view",
      "type": "function"
    },
    {
      "inputs": [
        {
          "internalType": "uint256",
          "name": "",
          "type": "uint256"
        }
      ],
      "name": "feeTiers",
      "outputs": [
        {
          "internalType": "uint24",
          "name": "",
          "type": "uint24"
        }
      ],
      "stateMutability": "view",
      "type": "function"
    },
    {
      "inputs": [
        {
          "internalType": "address",
          "name": "_tokenIn",
          "type": "address"
        },
        {
          "internalType": "address",
          "name": "_tokenOut",
          "type": "address"
        },
        {
          "internalType": "uint256",
          "name": "_amountOut",
          "type": "uint256"
        }
      ],
      "name": "getAmountIn",
      "outputs": [
        {
          "internalType": "uint256",
          "name": "amountIn",
          "type": "uint256"
        }
      ],
      "stateMutability": "view",
      "type": "function"
    },
    {
      "inputs": [
        {
          "internalType": "address",
          "name": "_tokenIn",
          "type": "address"
        },
        {
          "internalType": "address",
          "name": "_tokenOut",
          "type": "address"
        },
        {
          "internalType": "uint256",
          "name": "_amountIn",
          "type": "uint256"
        }
      ],
      "name": "getAmountOut",
      "outputs": [
        {
          "internalType": "uint256",
          "name": "amountOut",
          "type": "uint256"
        }
      ],
      "stateMutability": "view",
      "type": "function"
    },
    {
      "inputs": [],
      "name": "quoter",
      "outputs": [
        {
          "internalType": "address",
          "name": "",
          "type": "address"
        }
      ],
      "stateMutability": "view",
      "type": "function"
    },
    {
      "inputs": [],
      "name": "router",
      "outputs": [
        {
          "internalType": "address",
          "name": "",
          "type": "address"
        }
      ],
      "stateMutability": "view",
      "type": "function"
    },
    {
      "inputs": [
        {
          "internalType": "address",
          "name": "_tokenIn",
          "type": "address"
        },
        {
          "internalType": "address",
          "name": "_tokenOut",
          "type": "address"
        },
        {
          "internalType": "address",
          "name": "_to",
          "type": "address"
        }
      ],
      "name": "swap",
      "outputs": [
        {
          "internalType": "uint256",
          "name": "amountOut",
          "type": "uint256"
        }
      ],
      "stateMutability": "nonpayable",
      "type": "function"
    },
    {
      "inputs": [
        {
          "internalType": "address",
          "name": "_tokenIn",
          "type": "address"
        },
        {
          "internalType": "address",
          "name": "_tokenOut",
          "type": "address"
        }
      ],
      "name": "validatePair",
      "outputs": [
        {
          "internalType": "bool",
          "name": "",
          "type": "bool"
        }
      ],
      "stateMutability": "view",
      "type": "function"
    }
  ],
  "bytecode": "0x60e0604052600160005534801561001557600080fd5b506040516111993803806111998339810160408190526100349161014a565b6001600160601b0319606093841b811660805291831b821660a05290911b1660c0526001805480820182556000829052600a8082047fb10e2d527612073b26eecdfd717e6a320cf44b4afac2b0732d9fcbe2b7fa0cf69081018054600394849006850261010090810a6064810262ffffff91820219909316929092179092558554808701875584810484018054918690068702840a6101f48102908402199092169190911790558554808701875584810484018054918690068702840a610bb8810290840219909216919091179055855480870190965583860490920180549390950690930290920a61271081029202191617905561018d565b80516001600160a01b038116811461014557600080fd5b919050565b60008060006060848603121561015f57600080fd5b6101688461012e565b92506101766020850161012e565b91506101846040850161012e565b90509250925092565b60805160601c60a05160601c60c05160601c610fb86101e16000396000818161018e015261035b0152600081816101670152818161086a0152610a8301526000818161012801526106b80152610fb86000f3fe608060405234801561001057600080fd5b50600436106100885760003560e01c8063b88c5f911161005b578063b88c5f9114610100578063c45a015514610123578063c6bbd5a714610162578063f887ea401461018957600080fd5b8063230ed44a1461008d5780634aa06652146100b957806353b609b5146100da57806393316212146100ed575b600080fd5b6100a061009b366004610e51565b6101b0565b60405162ffffff90911681526020015b60405180910390f35b6100cc6100c7366004610dee565b6101e9565b6040519081526020016100b0565b6100cc6100e8366004610dee565b6101ff565b6100cc6100fb366004610da3565b61020c565b61011361010e366004610d6a565b610611565b60405190151581526020016100b0565b61014a7f000000000000000000000000000000000000000000000000000000000000000081565b6040516001600160a01b0390911681526020016100b0565b61014a7f000000000000000000000000000000000000000000000000000000000000000081565b61014a7f000000000000000000000000000000000000000000000000000000000000000081565b600181815481106101c057600080fd5b90600052602060002090600a9182820401919006600302915054906101000a900462ffffff1681565b60006101f68484846107e4565b50949350505050565b60006101f68484846109fd565b60008054600114610230576040516303cb96db60e21b815260040160405180910390fd5b60008080556040516370a0823160e01b81523060048201526001600160a01b038616906370a082319060240160206040518083038186803b15801561027457600080fd5b505afa158015610288573d6000803e3d6000fd5b505050506040513d601f19601f820116820180604052508101906102ac9190610e6a565b905060006102bb8686846107e4565b909350905082158015906102d4575060008162ffffff16115b61033e5760405162461bcd60e51b815260206004820152603060248201527f556e69737761705633496e746567726174696f6e3a20494e535546464943494560448201526f139517d3d55514155517d05353d5539560821b60648201526084015b60405180910390fd5b604051636eb1769f60e11b81523060048201526001600160a01b037f00000000000000000000000000000000000000000000000000000000000000008181166024840152919088169063dd62ed3e9060440160206040518083038186803b1580156103a857600080fd5b505afa1580156103bc573d6000803e3d6000fd5b505050506040513d601f19601f820116820180604052508101906103e09190610e6a565b6103f1576103f18782600019610c17565b6040516370a0823160e01b81526001600160a01b038681166004830152600091908816906370a082319060240160206040518083038186803b15801561043657600080fd5b505afa15801561044a573d6000803e3d6000fd5b505050506040513d601f19601f8201168201806040525081019061046e9190610e6a565b60408051610100810182526001600160a01b038b811682528a81166020830190815262ffffff8881168486019081528c841660608601908152426080870190815260a087018d8152600060c0890181815260e08a01918252995163414bf38960e01b81529851881660048a0152955187166024890152925190931660448701525184166064860152905160848501525160a4840152925160c48301529151821660e482015291925083169063414bf3899061010401602060405180830381600087803b15801561053d57600080fd5b505af1158015610551573d6000803e3d6000fd5b505050506040513d601f19601f820116820180604052508101906105759190610e6a565b506040516370a0823160e01b81526001600160a01b038781166004830152600091908916906370a082319060240160206040518083038186803b1580156105bb57600080fd5b505afa1580156105cf573d6000803e3d6000fd5b505050506040513d601f19601f820116820180604052508101906105f39190610e6a565b90506105ff8282610f07565b60016000559998505050505050505050565b6000816001600160a01b0316836001600160a01b03161415610635575060006107de565b600060018054806020026020016040519081016040528092919081815260200182805480156106ad57602002820191906000526020600020906000905b82829054906101000a900462ffffff1662ffffff16815260200190600301906020826002010492830192600103820291508084116106725790505b5050505050905060007f0000000000000000000000000000000000000000000000000000000000000000905060005b82518160ff1610156107d6576000826001600160a01b0316631698ee828888878660ff168151811061071057610710610f54565b60209081029190910101516040516001600160e01b031960e086901b1681526001600160a01b03938416600482015292909116602483015262ffffff16604482015260640160206040518083038186803b15801561076d57600080fd5b505afa158015610781573d6000803e3d6000fd5b505050506040513d601f19601f820116820180604052508101906107a59190610d46565b90506001600160a01b038116156107c35760019450505050506107de565b50806107ce81610f1e565b9150506106dc565b506000925050505b92915050565b6000806000600180548060200260200160405190810160405280929190818152602001828054801561085f57602002820191906000526020600020906000905b82829054906101000a900462ffffff1662ffffff16815260200190600301906020826002010492830192600103820291508084116108245790505b5050505050905060007f0000000000000000000000000000000000000000000000000000000000000000905060005b82518160ff1610156109f2576000826001600160a01b031663c6a5026a6040518060a001604052808c6001600160a01b031681526020018b6001600160a01b031681526020018a8152602001878660ff16815181106108ef576108ef610f54565b602002602001015162ffffff16815260200160006001600160a01b03168152506040518263ffffffff1660e01b815260040161092b9190610ebe565b60206040518083038186803b15801561094357600080fd5b505afa925050508015610973575060408051601f3d908101601f1916820190925261097091810190610e6a565b60015b6109b1573d8080156109a1576040519150601f19603f3d011682016040523d82523d6000602084013e6109a6565b606091505b5060009150506109b4565b90505b858111156109df57809550838260ff16815181106109d4576109d4610f54565b602002602001015194505b50806109ea81610f1e565b91505061088e565b505050935093915050565b60008060006001805480602002602001604051908101604052809291908181526020018280548015610a7857602002820191906000526020600020906000905b82829054906101000a900462ffffff1662ffffff1681526020019060030190602082600201049283019260010382029150808411610a3d5790505b5050505050905060007f0000000000000000000000000000000000000000000000000000000000000000905060005b82518160ff1610156109f2576000826001600160a01b031663bd21704a6040518060a001604052808c6001600160a01b031681526020018b6001600160a01b031681526020018a8152602001878660ff1681518110610b0857610b08610f54565b602002602001015162ffffff16815260200160006001600160a01b03168152506040518263ffffffff1660e01b8152600401610b449190610ebe565b60206040518083038186803b158015610b5c57600080fd5b505afa925050508015610b8c575060408051601f3d908101601f19168201909252610b8991810190610e6a565b60015b610bca573d808015610bba576040519150601f19603f3d011682016040523d82523d6000602084013e610bbf565b606091505b506000915050610bcd565b90505b600081118015610bdc57508581105b15610c0457809550838260ff1681518110610bf957610bf9610f54565b602002602001015194505b5080610c0f81610f1e565b915050610aa7565b604080516001600160a01b038481166024830152604480830185905283518084039091018152606490920183526020820180516001600160e01b031663095ea7b360e01b1790529151600092839290871691610c739190610e83565b6000604051808303816000865af19150503d8060008114610cb0576040519150601f19603f3d011682016040523d82523d6000602084013e610cb5565b606091505b5091509150818015610cdf575080511580610cdf575080806020019051810190610cdf9190610e2f565b610d3f5760405162461bcd60e51b815260206004820152602b60248201527f5472616e7366657248656c7065723a3a73616665417070726f76653a2061707060448201526a1c9bdd994819985a5b195960aa1b6064820152608401610335565b5050505050565b600060208284031215610d5857600080fd5b8151610d6381610f6a565b9392505050565b60008060408385031215610d7d57600080fd5b8235610d8881610f6a565b91506020830135610d9881610f6a565b809150509250929050565b600080600060608486031215610db857600080fd5b8335610dc381610f6a565b92506020840135610dd381610f6a565b91506040840135610de381610f6a565b809150509250925092565b600080600060608486031215610e0357600080fd5b8335610e0e81610f6a565b92506020840135610e1e81610f6a565b929592945050506040919091013590565b600060208284031215610e4157600080fd5b81518015158114610d6357600080fd5b600060208284031215610e6357600080fd5b5035919050565b600060208284031215610e7c57600080fd5b5051919050565b6000825160005b81811015610ea45760208186018101518583015201610e8a565b81811115610eb3576000828501525b509190910192915050565b60a081016107de828480516001600160a01b0390811683526020808301518216908401526040808301519084015260608083015162ffffff169084015260809182015116910152565b600082821015610f1957610f19610f3e565b500390565b600060ff821660ff811415610f3557610f35610f3e565b60010192915050565b634e487b7160e01b600052601160045260246000fd5b634e487b7160e01b600052603260045260246000fd5b6001600160a01b0381168114610f7f57600080fd5b5056fea26469706673582212209d6ad02f70a7c2af7164b0c7c2f0a88e15b863705507589b67f9275f372742c164736f6c63430008070033",
  "linkReferences": {},
  "deployedLinkReferences": {}
}