{
  "_format": "hh-sol-artifact-1",
  "contractName": "WithdrawalMonitor",
  "sourceName": "contracts/WithdrawalMonitor.sol",
  "abi": [
    {
      "inputs": [
        {
          "internalType": "address",
          "name": "_keeper",
          "type": "address"
        }
      ],
      "stateMutability": "nonpayable",
      "type": "constructor"
    },
    {
      "inputs": [
        {
          "internalType": "address",
          "name": "to",
          "type": "address"
        },
        {
          "internalType": "uint256",
          "name": "value",
          "type": "uint256"
        }
      ],
      "name": "EthTransferFailed",
      "type": "error"
    },
    {
      "inputs": [
        {
          "internalType": "address",
          "name": "sender",
          "type": "address"
        }
      ],
      "name": "Forbidden",
      "type": "error"
    },
    {
      "inputs": [],
      "name": "InitializedAlready",
      "type": "error"
    },
    {
      "inputs": [
        {
          "internalType": "address",
          "name": "token",
          "type": "address"
        },
        {
          "internalType": "address",
          "name": "to",
          "type": "address"
        },
        {
          "internalType": "uint256",
          "name": "value",
          "type": "uint256"
        }
      ],
      "name": "TransferFailed",
      "type": "error"
    },
    {
      "anonymous": false,
      "inputs": [
        {
          "indexed": true,
          "internalType": "address",
          "name": "pool",
          "type": "address"
        },
        {
          "indexed": true,
          "internalType": "uint256",
          "name": "index",
          "type": "uint256"
        },
        {
          "indexed": false,
          "internalType": "address",
          "name": "owner",
          "type": "address"
        },
        {
          "indexed": false,
          "internalType": "address",
          "name": "quoteToken",
          "type": "address"
        },
        {
          "indexed": false,
          "internalType": "uint256",
          "name": "liquidity",
          "type": "uint256"
        },
        {
          "indexed": false,
          "internalType": "address",
          "name": "to",
          "type": "address"
        },
        {
          "indexed": false,
          "internalType": "bytes",
          "name": "data",
          "type": "bytes"
        }
      ],
      "name": "AddRequest",
      "type": "event"
    },
    {
      "anonymous": false,
      "inputs": [
        {
          "indexed": true,
          "internalType": "address",
          "name": "pool",
          "type": "address"
        },
        {
          "indexed": true,
          "internalType": "uint256",
          "name": "index",
          "type": "uint256"
        }
      ],
      "name": "FulfillRequest",
      "type": "event"
    },
    {
      "anonymous": false,
      "inputs": [
        {
          "indexed": false,
          "internalType": "uint256",
          "name": "count",
          "type": "uint256"
        },
        {
          "indexed": false,
          "internalType": "bytes",
          "name": "performData",
          "type": "bytes"
        },
        {
          "indexed": false,
          "internalType": "uint256",
          "name": "usedGas",
          "type": "uint256"
        },
        {
          "indexed": false,
          "internalType": "uint256",
          "name": "gasPrice",
          "type": "uint256"
        }
      ],
      "name": "ProcessBatch",
      "type": "event"
    },
    {
      "anonymous": false,
      "inputs": [
        {
          "indexed": false,
          "internalType": "address",
          "name": "keeper",
          "type": "address"
        }
      ],
      "name": "SetKeeper",
      "type": "event"
    },
    {
      "anonymous": false,
      "inputs": [
        {
          "indexed": false,
          "internalType": "address",
          "name": "manager",
          "type": "address"
        }
      ],
      "name": "SetManager",
      "type": "event"
    },
    {
      "anonymous": false,
      "inputs": [
        {
          "indexed": true,
          "internalType": "address",
          "name": "pool",
          "type": "address"
        },
        {
          "indexed": true,
          "internalType": "uint256",
          "name": "index",
          "type": "uint256"
        },
        {
          "indexed": false,
          "internalType": "string",
          "name": "result",
          "type": "string"
        }
      ],
      "name": "UpdateCallbackResult",
      "type": "event"
    },
    {
      "inputs": [
        {
          "internalType": "address",
          "name": "_owner",
          "type": "address"
        },
        {
          "internalType": "address",
          "name": "_quoteToken",
          "type": "address"
        },
        {
          "internalType": "uint256",
          "name": "_liquidity",
          "type": "uint256"
        },
        {
          "internalType": "address",
          "name": "_to",
          "type": "address"
        },
        {
          "internalType": "bytes",
          "name": "_data",
          "type": "bytes"
        }
      ],
      "name": "addRequest",
      "outputs": [
        {
          "internalType": "uint256",
          "name": "index",
          "type": "uint256"
        }
      ],
      "stateMutability": "nonpayable",
      "type": "function"
    },
    {
      "inputs": [
        {
          "internalType": "bytes",
          "name": "",
          "type": "bytes"
        }
      ],
      "name": "checkUpkeep",
      "outputs": [
        {
          "internalType": "bool",
          "name": "upkeepNeeded",
          "type": "bool"
        },
        {
          "internalType": "bytes",
          "name": "performData",
          "type": "bytes"
        }
      ],
      "stateMutability": "view",
      "type": "function"
    },
    {
      "inputs": [],
      "name": "checker",
      "outputs": [
        {
          "internalType": "bool",
          "name": "canExec",
          "type": "bool"
        },
        {
          "internalType": "bytes",
          "name": "execPayload",
          "type": "bytes"
        }
      ],
      "stateMutability": "view",
      "type": "function"
    },
    {
      "inputs": [
        {
          "internalType": "address",
          "name": "",
          "type": "address"
        }
      ],
      "name": "currentIndex",
      "outputs": [
        {
          "internalType": "uint256",
          "name": "",
          "type": "uint256"
        }
      ],
      "stateMutability": "view",
      "type": "function"
    },
    {
      "inputs": [
        {
          "internalType": "address",
          "name": "_pool",
          "type": "address"
        }
      ],
      "name": "execute",
      "outputs": [],
      "stateMutability": "nonpayable",
      "type": "function"
    },
    {
      "inputs": [],
      "name": "factory",
      "outputs": [
        {
          "internalType": "address",
          "name": "",
          "type": "address"
        }
      ],
      "stateMutability": "view",
      "type": "function"
    },
    {
      "inputs": [],
      "name": "keeper",
      "outputs": [
        {
          "internalType": "address",
          "name": "",
          "type": "address"
        }
      ],
      "stateMutability": "view",
      "type": "function"
    },
    {
      "inputs": [],
      "name": "manager",
      "outputs": [
        {
          "internalType": "address",
          "name": "",
          "type": "address"
        }
      ],
      "stateMutability": "view",
      "type": "function"
    },
    {
      "inputs": [
        {
          "internalType": "bytes",
          "name": "_performData",
          "type": "bytes"
        }
      ],
      "name": "performUpkeep",
      "outputs": [],
      "stateMutability": "nonpayable",
      "type": "function"
    },
    {
      "inputs": [],
      "name": "poolDeployer",
      "outputs": [
        {
          "internalType": "address",
          "name": "",
          "type": "address"
        }
      ],
      "stateMutability": "view",
      "type": "function"
    },
    {
      "inputs": [
        {
          "internalType": "address",
          "name": "",
          "type": "address"
        },
        {
          "internalType": "uint256",
          "name": "",
          "type": "uint256"
        }
      ],
      "name": "request",
      "outputs": [
        {
          "internalType": "uint256",
          "name": "index",
          "type": "uint256"
        },
        {
          "internalType": "address",
          "name": "owner",
          "type": "address"
        },
        {
          "internalType": "address",
          "name": "quoteToken",
          "type": "address"
        },
        {
          "internalType": "uint256",
          "name": "liquidity",
          "type": "uint256"
        },
        {
          "internalType": "address",
          "name": "to",
          "type": "address"
        },
        {
          "internalType": "bytes",
          "name": "data",
          "type": "bytes"
        },
        {
          "internalType": "string",
          "name": "callbackResult",
          "type": "string"
        }
      ],
      "stateMutability": "view",
      "type": "function"
    },
    {
      "inputs": [
        {
          "internalType": "address",
          "name": "_pool",
          "type": "address"
        }
      ],
      "name": "requestLength",
      "outputs": [
        {
          "internalType": "uint256",
          "name": "",
          "type": "uint256"
        }
      ],
      "stateMutability": "view",
      "type": "function"
    },
    {
      "inputs": [
        {
          "internalType": "address",
          "name": "_factory",
          "type": "address"
        }
      ],
      "name": "setFactory",
      "outputs": [],
      "stateMutability": "nonpayable",
      "type": "function"
    },
    {
      "inputs": [
        {
          "internalType": "address",
          "name": "_keeper",
          "type": "address"
        }
      ],
      "name": "setKeeper",
      "outputs": [],
      "stateMutability": "nonpayable",
      "type": "function"
    },
    {
      "inputs": [
        {
          "internalType": "address",
          "name": "_manager",
          "type": "address"
        }
      ],
      "name": "setManager",
      "outputs": [],
      "stateMutability": "nonpayable",
      "type": "function"
    },
    {
      "inputs": [
        {
          "internalType": "uint256",
          "name": "_index",
          "type": "uint256"
        },
        {
          "internalType": "string",
          "name": "_result",
          "type": "string"
        }
      ],
      "name": "updateCallbackResult",
      "outputs": [],
      "stateMutability": "nonpayable",
      "type": "function"
    }
  ],
  "bytecode": "0x608060405234801561001057600080fd5b50604051611fb9380380611fb983398101604081905261002f91610062565b60028054336001600160a01b031991821617909155600380549091166001600160a01b0392909216919091179055610092565b60006020828403121561007457600080fd5b81516001600160a01b038116811461008b57600080fd5b9392505050565b611f18806100a16000396000f3fe608060405234801561001057600080fd5b50600436106101005760003560e01c8063748747e611610097578063c45a015511610066578063c45a015514610247578063c8c01a551461025a578063cf5303cf14610280578063d0ebdbe71461028857600080fd5b8063748747e6146101e5578063939124f7146101f8578063987037e814610221578063aced16611461023457600080fd5b80634b64e492116100d35780634b64e4921461018b5780634d4a6fbb1461019e5780635bb47808146101b15780636e04ff0d146101c457600080fd5b80633119049a146101055780633b9418fd146101355780634585e33b14610163578063481c6a7514610178575b600080fd5b600154610118906001600160a01b031681565b6040516001600160a01b0390911681526020015b60405180910390f35b6101556101433660046118d1565b60056020526000908152604090205481565b60405190815260200161012c565b610176610171366004611a82565b61029b565b005b600254610118906001600160a01b031681565b6101766101993660046118d1565b610349565b6101766101ac366004611add565b610355565b6101766101bf3660046118d1565b6103e6565b6101d76101d2366004611a82565b6104bf565b60405161012c929190611c8b565b6101766101f33660046118d1565b6109c6565b6101556102063660046118d1565b6001600160a01b031660009081526004602052604090205490565b61015561022f366004611912565b610a4d565b600354610118906001600160a01b031681565b600054610118906001600160a01b031681565b61026d610268366004611997565b610cb4565b60405161012c9796959493929190611d46565b6101d7610e32565b6101766102963660046118d1565b61136e565b60005a90506000806102af848601866119c3565b9150915060005b818110156102f85760008382815181106102d2576102d2611ea1565b602002602001015190506102e5816113e9565b50806102f081611e70565b9150506102b6565b507fd1d8c94a101352389a2fadcdc79eb2ec660d64769f14a1e89c50c6d22225ce8b8186865a6103289088611e1e565b3a60405161033a959493929190611da7565b60405180910390a15050505050565b610352816113e9565b50565b33600090815260046020526040812080548490811061037657610376611ea1565b906000526020600020906007020190508181600601908051906020019061039e9291906117ef565b5082336001600160a01b03167f7f71e78cc7abf40379c8c57fb0f6c0f236701c3ff370c190496c883b1a71d034846040516103d99190611cae565b60405180910390a3505050565b6000546001600160a01b031615610410576040516373e833b960e11b815260040160405180910390fd5b600080546001600160a01b0319166001600160a01b0383169081179091556040805163188c824d60e11b81529051633119049a91600480820192602092909190829003018186803b15801561046457600080fd5b505afa158015610478573d6000803e3d6000fd5b505050506040513d601f19601f8201168201806040525081019061049c91906118f5565b600180546001600160a01b0319166001600160a01b039290921691909117905550565b600080546040805163040f1f6d60e11b815290516060926001600160a01b0316918491839163081e3eda916004808301926020929190829003018186803b15801561050957600080fd5b505afa15801561051d573d6000803e3d6000fd5b505050506040513d601f19601f820116820180604052508101906105419190611ac4565b905060008167ffffffffffffffff81111561055e5761055e611eb7565b604051908082528060200260200182016040528015610587578160200160208202803683370190505b5090506000805b8381101561098b576040516315895f4760e31b8152600481018290526000906001600160a01b0387169063ac4afa389060240160206040518083038186803b1580156105d957600080fd5b505afa1580156105ed573d6000803e3d6000fd5b505050506040513d601f19601f8201168201806040525081019061061191906118f5565b90506000816001600160a01b0316630121c7776040518163ffffffff1660e01b815260040160206040518083038186803b15801561064e57600080fd5b505afa158015610662573d6000803e3d6000fd5b505050506040513d601f19601f820116820180604052508101906106869190611ac4565b6001600160a01b038316600090815260056020908152604080832054600490925290912054919250908114156106fa5781156106f557828686815181106106cf576106cf611ea1565b6001600160a01b0390921660209283029190910190910152846106f181611e70565b9550505b610975565b6001600160a01b038316600090815260046020526040812080548390811061072457610724611ea1565b60009182526020918290206040805160e08101825260079093029091018054835260018101546001600160a01b03908116948401949094526002810154841691830191909152600381015460608301526004810154909216608082015260058201805491929160a08401919061079990611e35565b80601f01602080910402602001604051908101604052809291908181526020018280546107c590611e35565b80156108125780601f106107e757610100808354040283529160200191610812565b820191906000526020600020905b8154815290600101906020018083116107f557829003601f168201915b5050505050815260200160068201805461082b90611e35565b80601f016020809104026020016040519081016040528092919081815260200182805461085790611e35565b80156108a45780601f10610879576101008083540402835291602001916108a4565b820191906000526020600020905b81548152906001019060200180831161088757829003601f168201915b50505050508152505090506000846001600160a01b031663743753596040518163ffffffff1660e01b815260040160206040518083038186803b1580156108ea57600080fd5b505afa1580156108fe573d6000803e3d6000fd5b505050506040513d601f19601f820116820180604052508101906109229190611ac4565b60608301519091506109348583611e06565b10610972578488888151811061094c5761094c611ea1565b6001600160a01b03909216602092830291909101909101528661096e81611e70565b9750505b50505b505050808061098390611e70565b91505061058e565b508015801596506109bb5781816040516020016109a9929190611c3a565b60405160208183030381529060405294505b505050509250929050565b6002546001600160a01b031633146109f85760405163a59d7f4d60e01b81523360048201526024015b60405180910390fd5b600380546001600160a01b0319166001600160a01b0383169081179091556040519081527fefb5cfa1a8690c124332ab93324539c5c9c4be03f28aeb8be86f2d8a0c9fb99b906020015b60405180910390a150565b600154604080516001600160a01b03881660208083019190915282518083038201815282840184528051908201206001600160f81b03196060808501919091529490941b6bffffffffffffffffffffffff1916606183015260758201939093527f6c6a3125043137214ba9fce2fbc49163378d28fdd84e53dba5c0af27a794e0bf6095808301919091528251808303909101815260b59091019091528051910120600090336001600160a01b03821614610b1c5760405163a59d7f4d60e01b81523360048201526024016109ef565b6001600160a01b038082166000908152600460209081526040918290208054835160e0810185528181528d8616818501528c861681860152606081018c9052948a1660808601528351601f89018490048402810184019094528784529550929160a08301918890889081908401838280828437600092018290525093855250506040805160208181018352848252948501528554600181810188559684529284902085516007909402019283558484015195830180546001600160a01b039788166001600160a01b031991821617909155908501516002840180549188169183169190911790556060850151600384015560808501516004840180549190971691161790945560a083015180519394509092610c3e92600585019201906117ef565b5060c08201518051610c5a9160068401916020909101906117ef565b50505081816001600160a01b03167fc8be3d2db5246448b9fe265c3e6e450f43babe00021a84d4077563ae625ece848a8a8a8a8a8a604051610ca196959493929190611bf2565b60405180910390a3509695505050505050565b60046020528160005260406000208181548110610cd057600080fd5b60009182526020909120600790910201805460018201546002830154600384015460048501546005860180549598506001600160a01b039485169750928416959194931692909190610d2190611e35565b80601f0160208091040260200160405190810160405280929190818152602001828054610d4d90611e35565b8015610d9a5780601f10610d6f57610100808354040283529160200191610d9a565b820191906000526020600020905b815481529060010190602001808311610d7d57829003601f168201915b505050505090806006018054610daf90611e35565b80601f0160208091040260200160405190810160405280929190818152602001828054610ddb90611e35565b8015610e285780601f10610dfd57610100808354040283529160200191610e28565b820191906000526020600020905b815481529060010190602001808311610e0b57829003601f168201915b5050505050905087565b600080546040805163040f1f6d60e11b815290516060926001600160a01b0316918491839163081e3eda916004808301926020929190829003018186803b158015610e7c57600080fd5b505afa158015610e90573d6000803e3d6000fd5b505050506040513d601f19601f82011682018060405250810190610eb49190611ac4565b905060008167ffffffffffffffff811115610ed157610ed1611eb7565b604051908082528060200260200182016040528015610efa578160200160208202803683370190505b5090506000805b838110156112fe576040516315895f4760e31b8152600481018290526000906001600160a01b0387169063ac4afa389060240160206040518083038186803b158015610f4c57600080fd5b505afa158015610f60573d6000803e3d6000fd5b505050506040513d601f19601f82011682018060405250810190610f8491906118f5565b90506000816001600160a01b0316630121c7776040518163ffffffff1660e01b815260040160206040518083038186803b158015610fc157600080fd5b505afa158015610fd5573d6000803e3d6000fd5b505050506040513d601f19601f82011682018060405250810190610ff99190611ac4565b6001600160a01b0383166000908152600560209081526040808320546004909252909120549192509081141561106d578115611068578286868151811061104257611042611ea1565b6001600160a01b03909216602092830291909101909101528461106481611e70565b9550505b6112e8565b6001600160a01b038316600090815260046020526040812080548390811061109757611097611ea1565b60009182526020918290206040805160e08101825260079093029091018054835260018101546001600160a01b03908116948401949094526002810154841691830191909152600381015460608301526004810154909216608082015260058201805491929160a08401919061110c90611e35565b80601f016020809104026020016040519081016040528092919081815260200182805461113890611e35565b80156111855780601f1061115a57610100808354040283529160200191611185565b820191906000526020600020905b81548152906001019060200180831161116857829003601f168201915b5050505050815260200160068201805461119e90611e35565b80601f01602080910402602001604051908101604052809291908181526020018280546111ca90611e35565b80156112175780601f106111ec57610100808354040283529160200191611217565b820191906000526020600020905b8154815290600101906020018083116111fa57829003601f168201915b50505050508152505090506000846001600160a01b031663743753596040518163ffffffff1660e01b815260040160206040518083038186803b15801561125d57600080fd5b505afa158015611271573d6000803e3d6000fd5b505050506040513d601f19601f820116820180604052508101906112959190611ac4565b60608301519091506112a78583611e06565b106112e557848888815181106112bf576112bf611ea1565b6001600160a01b0390921660209283029190910190910152866112e181611e70565b9750505b50505b50505080806112f690611e70565b915050610f01565b5080158015965061136657818160405160200161131c929190611c3a565b60408051601f198184030181529082905261133991602401611cae565b60408051601f198184030181529190526020810180516001600160e01b0316634585e33b60e01b17905294505b505050509091565b6002546001600160a01b0316331461139b5760405163a59d7f4d60e01b81523360048201526024016109ef565b600280546001600160a01b0319166001600160a01b0383169081179091556040519081527f54a6385aa0292b04e1ef8513253c17d1863f7cdfc87029d77fd55cc4c2e717e290602001610a42565b6000816001600160a01b0316630121c7776040518163ffffffff1660e01b815260040160206040518083038186803b15801561142457600080fd5b505afa158015611438573d6000803e3d6000fd5b505050506040513d601f19601f8201168201806040525081019061145c9190611ac4565b6001600160a01b038316600090815260056020908152604080832054600490925290912054919250908114156114eb5781156114e657826001600160a01b031663ba3439226040518163ffffffff1660e01b8152600401600060405180830381600087803b1580156114cd57600080fd5b505af11580156114e1573d6000803e3d6000fd5b505050505b505050565b6001600160a01b038316600090815260046020526040812080548390811061151557611515611ea1565b60009182526020918290206040805160e08101825260079093029091018054835260018101546001600160a01b03908116948401949094526002810154841691830191909152600381015460608301526004810154909216608082015260058201805491929160a08401919061158a90611e35565b80601f01602080910402602001604051908101604052809291908181526020018280546115b690611e35565b80156116035780601f106115d857610100808354040283529160200191611603565b820191906000526020600020905b8154815290600101906020018083116115e657829003601f168201915b5050505050815260200160068201805461161c90611e35565b80601f016020809104026020016040519081016040528092919081815260200182805461164890611e35565b80156116955780601f1061166a57610100808354040283529160200191611695565b820191906000526020600020905b81548152906001019060200180831161167857829003601f168201915b50505050508152505090506000846001600160a01b031663743753596040518163ffffffff1660e01b815260040160206040518083038186803b1580156116db57600080fd5b505afa1580156116ef573d6000803e3d6000fd5b505050506040513d601f19601f820116820180604052508101906117139190611ac4565b60608301519091506117258583611e06565b106117e857604051638da11bfb60e01b81526001600160a01b03861690638da11bfb90611756908590600401611cc1565b600060405180830381600087803b15801561177057600080fd5b505af1158015611784573d6000803e3d6000fd5b505050506001600160a01b03851660009081526005602052604081208054916117ac83611e70565b909155505081516040516001600160a01b038716907ff0ca3c7e5de9e5056ab0040b7b22ec3f0d8f1d34854d9c7751c9d135019c16cf90600090a35b5050505050565b8280546117fb90611e35565b90600052602060002090601f01602090048101928261181d5760008555611863565b82601f1061183657805160ff1916838001178555611863565b82800160010185558215611863579182015b82811115611863578251825591602001919060010190611848565b5061186f929150611873565b5090565b5b8082111561186f5760008155600101611874565b60008083601f84011261189a57600080fd5b50813567ffffffffffffffff8111156118b257600080fd5b6020830191508360208285010111156118ca57600080fd5b9250929050565b6000602082840312156118e357600080fd5b81356118ee81611ecd565b9392505050565b60006020828403121561190757600080fd5b81516118ee81611ecd565b60008060008060008060a0878903121561192b57600080fd5b863561193681611ecd565b9550602087013561194681611ecd565b945060408701359350606087013561195d81611ecd565b9250608087013567ffffffffffffffff81111561197957600080fd5b61198589828a01611888565b979a9699509497509295939492505050565b600080604083850312156119aa57600080fd5b82356119b581611ecd565b946020939093013593505050565b600080604083850312156119d657600080fd5b823567ffffffffffffffff808211156119ee57600080fd5b818501915085601f830112611a0257600080fd5b8135602082821115611a1657611a16611eb7565b8160051b9250611a27818401611dd5565b8281528181019085830185870184018b1015611a4257600080fd5b600096505b84871015611a715780359550611a5c86611ecd565b85835260019690960195918301918301611a47565b509997909101359750505050505050565b60008060208385031215611a9557600080fd5b823567ffffffffffffffff811115611aac57600080fd5b611ab885828601611888565b90969095509350505050565b600060208284031215611ad657600080fd5b5051919050565b60008060408385031215611af057600080fd5b8235915060208084013567ffffffffffffffff80821115611b1057600080fd5b818601915086601f830112611b2457600080fd5b813581811115611b3657611b36611eb7565b611b48601f8201601f19168501611dd5565b91508082528784828501011115611b5e57600080fd5b80848401858401376000848284010152508093505050509250929050565b81835281816020850137506000828201602090810191909152601f909101601f19169091010190565b6000815180845260005b81811015611bcb57602081850181015186830182015201611baf565b81811115611bdd576000602083870101525b50601f01601f19169290920160200192915050565b6001600160a01b0387811682528681166020830152604082018690528416606082015260a060808201819052600090611c2e9083018486611b7c565b98975050505050505050565b604080825283519082018190526000906020906060840190828701845b82811015611c7c5781516001600160a01b031684529284019290840190600101611c57565b50505092019290925292915050565b8215158152604060208201526000611ca66040830184611ba5565b949350505050565b6020815260006118ee6020830184611ba5565b60208152815160208201526000602083015160018060a01b038082166040850152806040860151166060850152606085015160808501528060808601511660a0850152505060a083015160e060c0840152611d20610100840182611ba5565b905060c0840151601f198483030160e0850152611d3d8282611ba5565b95945050505050565b8781526001600160a01b0387811660208301528681166040830152606082018690528416608082015260e060a08201819052600090611d8790830185611ba5565b82810360c0840152611d998185611ba5565b9a9950505050505050505050565b858152608060208201526000611dc1608083018688611b7c565b604083019490945250606001529392505050565b604051601f8201601f1916810167ffffffffffffffff81118282101715611dfe57611dfe611eb7565b604052919050565b60008219821115611e1957611e19611e8b565b500190565b600082821015611e3057611e30611e8b565b500390565b600181811c90821680611e4957607f821691505b60208210811415611e6a57634e487b7160e01b600052602260045260246000fd5b50919050565b6000600019821415611e8457611e84611e8b565b5060010190565b634e487b7160e01b600052601160045260246000fd5b634e487b7160e01b600052603260045260246000fd5b634e487b7160e01b600052604160045260246000fd5b6001600160a01b038116811461035257600080fdfea2646970667358221220bf92588a3a15c24e303c89e229b6246c41ca9edefc3921d239b2bd3f47a95cc464736f6c63430008070033",
  "linkReferences": {},
  "deployedLinkReferences": {}
}