{
  "_format": "hh-sol-artifact-1",
  "contractName": "WithdrawalMonitor",
  "sourceName": "contracts/WithdrawalMonitor.sol",
  "abi": [
    {
      "inputs": [
        {
          "internalType": "address",
          "name": "_keeper",
          "type": "address"
        }
      ],
      "stateMutability": "nonpayable",
      "type": "constructor"
    },
    {
      "inputs": [
        {
          "internalType": "address",
          "name": "to",
          "type": "address"
        },
        {
          "internalType": "uint256",
          "name": "value",
          "type": "uint256"
        }
      ],
      "name": "EthTransferFailed",
      "type": "error"
    },
    {
      "inputs": [
        {
          "internalType": "address",
          "name": "sender",
          "type": "address"
        }
      ],
      "name": "Forbidden",
      "type": "error"
    },
    {
      "inputs": [],
      "name": "InitializedAlready",
      "type": "error"
    },
    {
      "inputs": [
        {
          "internalType": "address",
          "name": "token",
          "type": "address"
        },
        {
          "internalType": "address",
          "name": "to",
          "type": "address"
        },
        {
          "internalType": "uint256",
          "name": "value",
          "type": "uint256"
        }
      ],
      "name": "TransferFailed",
      "type": "error"
    },
    {
      "anonymous": false,
      "inputs": [
        {
          "indexed": true,
          "internalType": "address",
          "name": "pool",
          "type": "address"
        },
        {
          "indexed": true,
          "internalType": "uint256",
          "name": "index",
          "type": "uint256"
        },
        {
          "indexed": false,
          "internalType": "address",
          "name": "owner",
          "type": "address"
        },
        {
          "indexed": false,
          "internalType": "address",
          "name": "quoteToken",
          "type": "address"
        },
        {
          "indexed": false,
          "internalType": "uint256",
          "name": "liquidity",
          "type": "uint256"
        },
        {
          "indexed": false,
          "internalType": "address",
          "name": "to",
          "type": "address"
        },
        {
          "indexed": false,
          "internalType": "bytes",
          "name": "data",
          "type": "bytes"
        }
      ],
      "name": "AddRequest",
      "type": "event"
    },
    {
      "anonymous": false,
      "inputs": [
        {
          "indexed": true,
          "internalType": "address",
          "name": "pool",
          "type": "address"
        },
        {
          "indexed": true,
          "internalType": "uint256",
          "name": "index",
          "type": "uint256"
        }
      ],
      "name": "FulfillRequest",
      "type": "event"
    },
    {
      "anonymous": false,
      "inputs": [
        {
          "indexed": false,
          "internalType": "uint256",
          "name": "count",
          "type": "uint256"
        },
        {
          "indexed": false,
          "internalType": "bytes",
          "name": "performData",
          "type": "bytes"
        },
        {
          "indexed": false,
          "internalType": "uint256",
          "name": "usedGas",
          "type": "uint256"
        },
        {
          "indexed": false,
          "internalType": "uint256",
          "name": "gasPrice",
          "type": "uint256"
        }
      ],
      "name": "ProcessBatch",
      "type": "event"
    },
    {
      "anonymous": false,
      "inputs": [
        {
          "indexed": false,
          "internalType": "address",
          "name": "keeper",
          "type": "address"
        }
      ],
      "name": "SetKeeper",
      "type": "event"
    },
    {
      "anonymous": false,
      "inputs": [
        {
          "indexed": false,
          "internalType": "address",
          "name": "manager",
          "type": "address"
        }
      ],
      "name": "SetManager",
      "type": "event"
    },
    {
      "anonymous": false,
      "inputs": [
        {
          "indexed": true,
          "internalType": "address",
          "name": "pool",
          "type": "address"
        },
        {
          "indexed": true,
          "internalType": "uint256",
          "name": "index",
          "type": "uint256"
        },
        {
          "indexed": false,
          "internalType": "string",
          "name": "result",
          "type": "string"
        }
      ],
      "name": "UpdateCallbackResult",
      "type": "event"
    },
    {
      "inputs": [
        {
          "internalType": "address",
          "name": "_owner",
          "type": "address"
        },
        {
          "internalType": "address",
          "name": "_quoteToken",
          "type": "address"
        },
        {
          "internalType": "uint256",
          "name": "_liquidity",
          "type": "uint256"
        },
        {
          "internalType": "address",
          "name": "_to",
          "type": "address"
        },
        {
          "internalType": "bytes",
          "name": "_data",
          "type": "bytes"
        }
      ],
      "name": "addRequest",
      "outputs": [
        {
          "internalType": "uint256",
          "name": "index",
          "type": "uint256"
        }
      ],
      "stateMutability": "nonpayable",
      "type": "function"
    },
    {
      "inputs": [
        {
          "internalType": "bytes",
          "name": "",
          "type": "bytes"
        }
      ],
      "name": "checkUpkeep",
      "outputs": [
        {
          "internalType": "bool",
          "name": "upkeepNeeded",
          "type": "bool"
        },
        {
          "internalType": "bytes",
          "name": "performData",
          "type": "bytes"
        }
      ],
      "stateMutability": "view",
      "type": "function"
    },
    {
      "inputs": [],
      "name": "checker",
      "outputs": [
        {
          "internalType": "bool",
          "name": "canExec",
          "type": "bool"
        },
        {
          "internalType": "bytes",
          "name": "execPayload",
          "type": "bytes"
        }
      ],
      "stateMutability": "view",
      "type": "function"
    },
    {
      "inputs": [
        {
          "internalType": "address",
          "name": "",
          "type": "address"
        }
      ],
      "name": "currentIndex",
      "outputs": [
        {
          "internalType": "uint256",
          "name": "",
          "type": "uint256"
        }
      ],
      "stateMutability": "view",
      "type": "function"
    },
    {
      "inputs": [
        {
          "internalType": "address",
          "name": "_pool",
          "type": "address"
        }
      ],
      "name": "execute",
      "outputs": [],
      "stateMutability": "nonpayable",
      "type": "function"
    },
    {
      "inputs": [],
      "name": "factory",
      "outputs": [
        {
          "internalType": "address",
          "name": "",
          "type": "address"
        }
      ],
      "stateMutability": "view",
      "type": "function"
    },
    {
      "inputs": [],
      "name": "keeper",
      "outputs": [
        {
          "internalType": "address",
          "name": "",
          "type": "address"
        }
      ],
      "stateMutability": "view",
      "type": "function"
    },
    {
      "inputs": [],
      "name": "manager",
      "outputs": [
        {
          "internalType": "address",
          "name": "",
          "type": "address"
        }
      ],
      "stateMutability": "view",
      "type": "function"
    },
    {
      "inputs": [
        {
          "internalType": "bytes",
          "name": "_performData",
          "type": "bytes"
        }
      ],
      "name": "performUpkeep",
      "outputs": [],
      "stateMutability": "nonpayable",
      "type": "function"
    },
    {
      "inputs": [],
      "name": "poolDeployer",
      "outputs": [
        {
          "internalType": "address",
          "name": "",
          "type": "address"
        }
      ],
      "stateMutability": "view",
      "type": "function"
    },
    {
      "inputs": [
        {
          "internalType": "address",
          "name": "",
          "type": "address"
        },
        {
          "internalType": "uint256",
          "name": "",
          "type": "uint256"
        }
      ],
      "name": "request",
      "outputs": [
        {
          "internalType": "uint256",
          "name": "index",
          "type": "uint256"
        },
        {
          "internalType": "address",
          "name": "owner",
          "type": "address"
        },
        {
          "internalType": "address",
          "name": "quoteToken",
          "type": "address"
        },
        {
          "internalType": "uint256",
          "name": "liquidity",
          "type": "uint256"
        },
        {
          "internalType": "address",
          "name": "to",
          "type": "address"
        },
        {
          "internalType": "bytes",
          "name": "data",
          "type": "bytes"
        }
      ],
      "stateMutability": "view",
      "type": "function"
    },
    {
      "inputs": [
        {
          "internalType": "address",
          "name": "_pool",
          "type": "address"
        }
      ],
      "name": "requestLength",
      "outputs": [
        {
          "internalType": "uint256",
          "name": "",
          "type": "uint256"
        }
      ],
      "stateMutability": "view",
      "type": "function"
    },
    {
      "inputs": [
        {
          "internalType": "address",
          "name": "_factory",
          "type": "address"
        }
      ],
      "name": "setFactory",
      "outputs": [],
      "stateMutability": "nonpayable",
      "type": "function"
    },
    {
      "inputs": [
        {
          "internalType": "address",
          "name": "_keeper",
          "type": "address"
        }
      ],
      "name": "setKeeper",
      "outputs": [],
      "stateMutability": "nonpayable",
      "type": "function"
    },
    {
      "inputs": [
        {
          "internalType": "address",
          "name": "_manager",
          "type": "address"
        }
      ],
      "name": "setManager",
      "outputs": [],
      "stateMutability": "nonpayable",
      "type": "function"
    },
    {
      "inputs": [
        {
          "internalType": "uint256",
          "name": "_index",
          "type": "uint256"
        },
        {
          "internalType": "string",
          "name": "_result",
          "type": "string"
        }
      ],
      "name": "updateCallbackResult",
      "outputs": [],
      "stateMutability": "nonpayable",
      "type": "function"
    }
  ],
  "bytecode": "0x608060405234801561001057600080fd5b50604051611cb9380380611cb983398101604081905261002f91610062565b60028054336001600160a01b031991821617909155600380549091166001600160a01b0392909216919091179055610092565b60006020828403121561007457600080fd5b81516001600160a01b038116811461008b57600080fd5b9392505050565b611c18806100a16000396000f3fe608060405234801561001057600080fd5b50600436106101005760003560e01c8063748747e611610097578063c45a015511610066578063c45a015514610247578063c8c01a551461025a578063cf5303cf1461027f578063d0ebdbe71461028757600080fd5b8063748747e6146101e5578063939124f7146101f8578063987037e814610221578063aced16611461023457600080fd5b80634b64e492116100d35780634b64e4921461018b5780634d4a6fbb1461019e5780635bb47808146101b15780636e04ff0d146101c457600080fd5b80633119049a146101055780633b9418fd146101355780634585e33b14610163578063481c6a7514610178575b600080fd5b600154610118906001600160a01b031681565b6040516001600160a01b0390911681526020015b60405180910390f35b610155610143366004611619565b60056020526000908152604090205481565b60405190815260200161012c565b6101766101713660046117ca565b61029a565b005b600254610118906001600160a01b031681565b610176610199366004611619565b610348565b6101766101ac366004611825565b610354565b6101766101bf366004611619565b61039a565b6101d76101d23660046117ca565b610473565b60405161012c9291906119d3565b6101766101f3366004611619565b6108e8565b610155610206366004611619565b6001600160a01b031660009081526004602052604090205490565b61015561022f36600461165a565b61096f565b600354610118906001600160a01b031681565b600054610118906001600160a01b031681565b61026d6102683660046116df565b610bae565b60405161012c96959493929190611a66565b6101d7610c9e565b610176610295366004611619565b611148565b60005a90506000806102ae8486018661170b565b9150915060005b818110156102f75760008382815181106102d1576102d1611ba1565b602002602001015190506102e4816111c3565b50806102ef81611b70565b9150506102b5565b507fd1d8c94a101352389a2fadcdc79eb2ec660d64769f14a1e89c50c6d22225ce8b8186865a6103279088611b1e565b3a604051610339959493929190611aa7565b60405180910390a15050505050565b610351816111c3565b50565b81336001600160a01b03167f7f71e78cc7abf40379c8c57fb0f6c0f236701c3ff370c190496c883b1a71d0348360405161038e91906119f6565b60405180910390a35050565b6000546001600160a01b0316156103c4576040516373e833b960e11b815260040160405180910390fd5b600080546001600160a01b0319166001600160a01b0383169081179091556040805163188c824d60e11b81529051633119049a91600480820192602092909190829003018186803b15801561041857600080fd5b505afa15801561042c573d6000803e3d6000fd5b505050506040513d601f19601f82011682018060405250810190610450919061163d565b600180546001600160a01b0319166001600160a01b039290921691909117905550565b600080546040805163040f1f6d60e11b815290516060926001600160a01b0316918491839163081e3eda916004808301926020929190829003018186803b1580156104bd57600080fd5b505afa1580156104d1573d6000803e3d6000fd5b505050506040513d601f19601f820116820180604052508101906104f5919061180c565b905060008167ffffffffffffffff81111561051257610512611bb7565b60405190808252806020026020018201604052801561053b578160200160208202803683370190505b5090506000805b838110156108ad576040516315895f4760e31b8152600481018290526000906001600160a01b0387169063ac4afa389060240160206040518083038186803b15801561058d57600080fd5b505afa1580156105a1573d6000803e3d6000fd5b505050506040513d601f19601f820116820180604052508101906105c5919061163d565b90506000816001600160a01b0316630121c7776040518163ffffffff1660e01b815260040160206040518083038186803b15801561060257600080fd5b505afa158015610616573d6000803e3d6000fd5b505050506040513d601f19601f8201168201806040525081019061063a919061180c565b6001600160a01b038316600090815260056020908152604080832054600490925290912054919250908114156106ae5781156106a9578286868151811061068357610683611ba1565b6001600160a01b0390921660209283029190910190910152846106a581611b70565b9550505b610897565b6001600160a01b03831660009081526004602052604081208054839081106106d8576106d8611ba1565b60009182526020918290206040805160c08101825260069093029091018054835260018101546001600160a01b03908116948401949094526002810154841691830191909152600381015460608301526004810154909216608082015260058201805491929160a08401919061074d90611b35565b80601f016020809104026020016040519081016040528092919081815260200182805461077990611b35565b80156107c65780601f1061079b576101008083540402835291602001916107c6565b820191906000526020600020905b8154815290600101906020018083116107a957829003601f168201915b50505050508152505090506000846001600160a01b031663743753596040518163ffffffff1660e01b815260040160206040518083038186803b15801561080c57600080fd5b505afa158015610820573d6000803e3d6000fd5b505050506040513d601f19601f82011682018060405250810190610844919061180c565b60608301519091506108568583611b06565b10610894578488888151811061086e5761086e611ba1565b6001600160a01b03909216602092830291909101909101528661089081611b70565b9750505b50505b50505080806108a590611b70565b915050610542565b508015801596506108dd5781816040516020016108cb929190611982565b60405160208183030381529060405294505b505050509250929050565b6002546001600160a01b0316331461091a5760405163a59d7f4d60e01b81523360048201526024015b60405180910390fd5b600380546001600160a01b0319166001600160a01b0383169081179091556040519081527fefb5cfa1a8690c124332ab93324539c5c9c4be03f28aeb8be86f2d8a0c9fb99b906020015b60405180910390a150565b600154604080516001600160a01b03881660208083019190915282518083038201815282840184528051908201206001600160f81b03196060808501919091529490941b6bffffffffffffffffffffffff1916606183015260758201939093527f85970aad0aa062e9032b0ba70eeae1cda380d31cca64216eb4b3892162e073666095808301919091528251808303909101815260b59091019091528051910120600090336001600160a01b03821614610a3e5760405163a59d7f4d60e01b8152336004820152602401610911565b6001600160a01b038082166000908152600460209081526040918290208054835160c0810185528181528d8616818501528c861681860152606081018c9052948a1660808601528351601f89018490048402810184019094528784529550929160a08301918890889081908401838280828437600092018290525093909452505083546001818101865594825260209182902084516006909202019081558184015194810180546001600160a01b039687166001600160a01b03199182161790915560408501516002830180549188169183169190911790556060850151600383015560808501516004830180549190971691161790945560a08301518051939493610b54935060058501929190910190611537565b50505081816001600160a01b03167fc8be3d2db5246448b9fe265c3e6e450f43babe00021a84d4077563ae625ece848a8a8a8a8a8a604051610b9b9695949392919061193a565b60405180910390a3509695505050505050565b60046020528160005260406000208181548110610bca57600080fd5b60009182526020909120600690910201805460018201546002830154600384015460048501546005860180549598506001600160a01b039485169750928416959194931692909190610c1b90611b35565b80601f0160208091040260200160405190810160405280929190818152602001828054610c4790611b35565b8015610c945780601f10610c6957610100808354040283529160200191610c94565b820191906000526020600020905b815481529060010190602001808311610c7757829003601f168201915b5050505050905086565b600080546040805163040f1f6d60e11b815290516060926001600160a01b0316918491839163081e3eda916004808301926020929190829003018186803b158015610ce857600080fd5b505afa158015610cfc573d6000803e3d6000fd5b505050506040513d601f19601f82011682018060405250810190610d20919061180c565b905060008167ffffffffffffffff811115610d3d57610d3d611bb7565b604051908082528060200260200182016040528015610d66578160200160208202803683370190505b5090506000805b838110156110d8576040516315895f4760e31b8152600481018290526000906001600160a01b0387169063ac4afa389060240160206040518083038186803b158015610db857600080fd5b505afa158015610dcc573d6000803e3d6000fd5b505050506040513d601f19601f82011682018060405250810190610df0919061163d565b90506000816001600160a01b0316630121c7776040518163ffffffff1660e01b815260040160206040518083038186803b158015610e2d57600080fd5b505afa158015610e41573d6000803e3d6000fd5b505050506040513d601f19601f82011682018060405250810190610e65919061180c565b6001600160a01b03831660009081526005602090815260408083205460049092529091205491925090811415610ed9578115610ed45782868681518110610eae57610eae611ba1565b6001600160a01b039092166020928302919091019091015284610ed081611b70565b9550505b6110c2565b6001600160a01b0383166000908152600460205260408120805483908110610f0357610f03611ba1565b60009182526020918290206040805160c08101825260069093029091018054835260018101546001600160a01b03908116948401949094526002810154841691830191909152600381015460608301526004810154909216608082015260058201805491929160a084019190610f7890611b35565b80601f0160208091040260200160405190810160405280929190818152602001828054610fa490611b35565b8015610ff15780601f10610fc657610100808354040283529160200191610ff1565b820191906000526020600020905b815481529060010190602001808311610fd457829003601f168201915b50505050508152505090506000846001600160a01b031663743753596040518163ffffffff1660e01b815260040160206040518083038186803b15801561103757600080fd5b505afa15801561104b573d6000803e3d6000fd5b505050506040513d601f19601f8201168201806040525081019061106f919061180c565b60608301519091506110818583611b06565b106110bf578488888151811061109957611099611ba1565b6001600160a01b0390921660209283029190910190910152866110bb81611b70565b9750505b50505b50505080806110d090611b70565b915050610d6d565b508015801596506111405781816040516020016110f6929190611982565b60408051601f1981840301815290829052611113916024016119f6565b60408051601f198184030181529190526020810180516001600160e01b0316634585e33b60e01b17905294505b505050509091565b6002546001600160a01b031633146111755760405163a59d7f4d60e01b8152336004820152602401610911565b600280546001600160a01b0319166001600160a01b0383169081179091556040519081527f54a6385aa0292b04e1ef8513253c17d1863f7cdfc87029d77fd55cc4c2e717e290602001610964565b6000816001600160a01b0316630121c7776040518163ffffffff1660e01b815260040160206040518083038186803b1580156111fe57600080fd5b505afa158015611212573d6000803e3d6000fd5b505050506040513d601f19601f82011682018060405250810190611236919061180c565b6001600160a01b038316600090815260056020908152604080832054600490925290912054919250908114156112c55781156112c057826001600160a01b031663ba3439226040518163ffffffff1660e01b8152600401600060405180830381600087803b1580156112a757600080fd5b505af11580156112bb573d6000803e3d6000fd5b505050505b505050565b6001600160a01b03831660009081526004602052604081208054839081106112ef576112ef611ba1565b60009182526020918290206040805160c08101825260069093029091018054835260018101546001600160a01b03908116948401949094526002810154841691830191909152600381015460608301526004810154909216608082015260058201805491929160a08401919061136490611b35565b80601f016020809104026020016040519081016040528092919081815260200182805461139090611b35565b80156113dd5780601f106113b2576101008083540402835291602001916113dd565b820191906000526020600020905b8154815290600101906020018083116113c057829003601f168201915b50505050508152505090506000846001600160a01b031663743753596040518163ffffffff1660e01b815260040160206040518083038186803b15801561142357600080fd5b505afa158015611437573d6000803e3d6000fd5b505050506040513d601f19601f8201168201806040525081019061145b919061180c565b606083015190915061146d8583611b06565b1061153057604051637d95ba5960e11b81526001600160a01b0386169063fb2b74b29061149e908590600401611a09565b600060405180830381600087803b1580156114b857600080fd5b505af11580156114cc573d6000803e3d6000fd5b505050506001600160a01b03851660009081526005602052604081208054916114f483611b70565b909155505081516040516001600160a01b038716907ff0ca3c7e5de9e5056ab0040b7b22ec3f0d8f1d34854d9c7751c9d135019c16cf90600090a35b5050505050565b82805461154390611b35565b90600052602060002090601f01602090048101928261156557600085556115ab565b82601f1061157e57805160ff19168380011785556115ab565b828001600101855582156115ab579182015b828111156115ab578251825591602001919060010190611590565b506115b79291506115bb565b5090565b5b808211156115b757600081556001016115bc565b60008083601f8401126115e257600080fd5b50813567ffffffffffffffff8111156115fa57600080fd5b60208301915083602082850101111561161257600080fd5b9250929050565b60006020828403121561162b57600080fd5b813561163681611bcd565b9392505050565b60006020828403121561164f57600080fd5b815161163681611bcd565b60008060008060008060a0878903121561167357600080fd5b863561167e81611bcd565b9550602087013561168e81611bcd565b94506040870135935060608701356116a581611bcd565b9250608087013567ffffffffffffffff8111156116c157600080fd5b6116cd89828a016115d0565b979a9699509497509295939492505050565b600080604083850312156116f257600080fd5b82356116fd81611bcd565b946020939093013593505050565b6000806040838503121561171e57600080fd5b823567ffffffffffffffff8082111561173657600080fd5b818501915085601f83011261174a57600080fd5b813560208282111561175e5761175e611bb7565b8160051b925061176f818401611ad5565b8281528181019085830185870184018b101561178a57600080fd5b600096505b848710156117b957803595506117a486611bcd565b8583526001969096019591830191830161178f565b509997909101359750505050505050565b600080602083850312156117dd57600080fd5b823567ffffffffffffffff8111156117f457600080fd5b611800858286016115d0565b90969095509350505050565b60006020828403121561181e57600080fd5b5051919050565b6000806040838503121561183857600080fd5b8235915060208084013567ffffffffffffffff8082111561185857600080fd5b818601915086601f83011261186c57600080fd5b81358181111561187e5761187e611bb7565b611890601f8201601f19168501611ad5565b915080825287848285010111156118a657600080fd5b80848401858401376000848284010152508093505050509250929050565b81835281816020850137506000828201602090810191909152601f909101601f19169091010190565b6000815180845260005b81811015611913576020818501810151868301820152016118f7565b81811115611925576000602083870101525b50601f01601f19169290920160200192915050565b6001600160a01b0387811682528681166020830152604082018690528416606082015260a06080820181905260009061197690830184866118c4565b98975050505050505050565b604080825283519082018190526000906020906060840190828701845b828110156119c45781516001600160a01b03168452928401929084019060010161199f565b50505092019290925292915050565b82151581526040602082015260006119ee60408301846118ed565b949350505050565b60208152600061163660208301846118ed565b60208152815160208201526000602083015160018060a01b038082166040850152806040860151166060850152606085015160808501528060808601511660a0850152505060a083015160c0808401526119ee60e08401826118ed565b8681526001600160a01b0386811660208301528581166040830152606082018590528316608082015260c060a08201819052600090611976908301846118ed565b858152608060208201526000611ac16080830186886118c4565b604083019490945250606001529392505050565b604051601f8201601f1916810167ffffffffffffffff81118282101715611afe57611afe611bb7565b604052919050565b60008219821115611b1957611b19611b8b565b500190565b600082821015611b3057611b30611b8b565b500390565b600181811c90821680611b4957607f821691505b60208210811415611b6a57634e487b7160e01b600052602260045260246000fd5b50919050565b6000600019821415611b8457611b84611b8b565b5060010190565b634e487b7160e01b600052601160045260246000fd5b634e487b7160e01b600052603260045260246000fd5b634e487b7160e01b600052604160045260246000fd5b6001600160a01b038116811461035157600080fdfea2646970667358221220eb96134996eab613fdd023d34767c2dabd336e45b054de0ad4231abc11bfe0c264736f6c63430008070033",
  "linkReferences": {},
  "deployedLinkReferences": {}
}