{
  "_format": "hh-sol-artifact-1",
  "contractName": "WithdrawalMonitor",
  "sourceName": "contracts/WithdrawalMonitor.sol",
  "abi": [
    {
      "inputs": [
        {
          "internalType": "address",
          "name": "_keeper",
          "type": "address"
        }
      ],
      "stateMutability": "nonpayable",
      "type": "constructor"
    },
    {
      "inputs": [
        {
          "internalType": "address",
          "name": "to",
          "type": "address"
        },
        {
          "internalType": "uint256",
          "name": "value",
          "type": "uint256"
        }
      ],
      "name": "EthTransferFailed",
      "type": "error"
    },
    {
      "inputs": [
        {
          "internalType": "address",
          "name": "sender",
          "type": "address"
        }
      ],
      "name": "Forbidden",
      "type": "error"
    },
    {
      "inputs": [],
      "name": "InitializedAlready",
      "type": "error"
    },
    {
      "inputs": [
        {
          "internalType": "address",
          "name": "token",
          "type": "address"
        },
        {
          "internalType": "address",
          "name": "to",
          "type": "address"
        },
        {
          "internalType": "uint256",
          "name": "value",
          "type": "uint256"
        }
      ],
      "name": "TransferFailed",
      "type": "error"
    },
    {
      "anonymous": false,
      "inputs": [
        {
          "indexed": true,
          "internalType": "address",
          "name": "pool",
          "type": "address"
        },
        {
          "indexed": true,
          "internalType": "uint256",
          "name": "index",
          "type": "uint256"
        },
        {
          "indexed": false,
          "internalType": "address",
          "name": "owner",
          "type": "address"
        },
        {
          "indexed": false,
          "internalType": "address",
          "name": "quoteToken",
          "type": "address"
        },
        {
          "indexed": false,
          "internalType": "uint256",
          "name": "liquidity",
          "type": "uint256"
        },
        {
          "indexed": false,
          "internalType": "address",
          "name": "to",
          "type": "address"
        },
        {
          "indexed": false,
          "internalType": "bytes",
          "name": "data",
          "type": "bytes"
        }
      ],
      "name": "AddRequest",
      "type": "event"
    },
    {
      "anonymous": false,
      "inputs": [
        {
          "indexed": true,
          "internalType": "address",
          "name": "pool",
          "type": "address"
        },
        {
          "indexed": true,
          "internalType": "uint256",
          "name": "index",
          "type": "uint256"
        }
      ],
      "name": "FulfillRequest",
      "type": "event"
    },
    {
      "anonymous": false,
      "inputs": [
        {
          "indexed": false,
          "internalType": "uint256",
          "name": "count",
          "type": "uint256"
        },
        {
          "indexed": false,
          "internalType": "bytes",
          "name": "performData",
          "type": "bytes"
        },
        {
          "indexed": false,
          "internalType": "uint256",
          "name": "usedGas",
          "type": "uint256"
        },
        {
          "indexed": false,
          "internalType": "uint256",
          "name": "gasPrice",
          "type": "uint256"
        }
      ],
      "name": "ProcessBatch",
      "type": "event"
    },
    {
      "anonymous": false,
      "inputs": [
        {
          "indexed": false,
          "internalType": "address",
          "name": "keeper",
          "type": "address"
        }
      ],
      "name": "SetKeeper",
      "type": "event"
    },
    {
      "anonymous": false,
      "inputs": [
        {
          "indexed": false,
          "internalType": "address",
          "name": "manager",
          "type": "address"
        }
      ],
      "name": "SetManager",
      "type": "event"
    },
    {
      "anonymous": false,
      "inputs": [
        {
          "indexed": true,
          "internalType": "address",
          "name": "pool",
          "type": "address"
        },
        {
          "indexed": true,
          "internalType": "uint256",
          "name": "index",
          "type": "uint256"
        },
        {
          "indexed": false,
          "internalType": "string",
          "name": "result",
          "type": "string"
        }
      ],
      "name": "UpdateCallbackResult",
      "type": "event"
    },
    {
      "inputs": [
        {
          "internalType": "address",
          "name": "_owner",
          "type": "address"
        },
        {
          "internalType": "address",
          "name": "_quoteToken",
          "type": "address"
        },
        {
          "internalType": "uint256",
          "name": "_liquidity",
          "type": "uint256"
        },
        {
          "internalType": "address",
          "name": "_to",
          "type": "address"
        },
        {
          "internalType": "bytes",
          "name": "_data",
          "type": "bytes"
        }
      ],
      "name": "addRequest",
      "outputs": [
        {
          "internalType": "uint256",
          "name": "index",
          "type": "uint256"
        }
      ],
      "stateMutability": "nonpayable",
      "type": "function"
    },
    {
      "inputs": [
        {
          "internalType": "bytes",
          "name": "",
          "type": "bytes"
        }
      ],
      "name": "checkUpkeep",
      "outputs": [
        {
          "internalType": "bool",
          "name": "upkeepNeeded",
          "type": "bool"
        },
        {
          "internalType": "bytes",
          "name": "performData",
          "type": "bytes"
        }
      ],
      "stateMutability": "view",
      "type": "function"
    },
    {
      "inputs": [
        {
          "internalType": "address",
          "name": "",
          "type": "address"
        }
      ],
      "name": "currentIndex",
      "outputs": [
        {
          "internalType": "uint256",
          "name": "",
          "type": "uint256"
        }
      ],
      "stateMutability": "view",
      "type": "function"
    },
    {
      "inputs": [
        {
          "internalType": "address",
          "name": "_pool",
          "type": "address"
        }
      ],
      "name": "execute",
      "outputs": [],
      "stateMutability": "nonpayable",
      "type": "function"
    },
    {
      "inputs": [],
      "name": "factory",
      "outputs": [
        {
          "internalType": "address",
          "name": "",
          "type": "address"
        }
      ],
      "stateMutability": "view",
      "type": "function"
    },
    {
      "inputs": [],
      "name": "keeper",
      "outputs": [
        {
          "internalType": "address",
          "name": "",
          "type": "address"
        }
      ],
      "stateMutability": "view",
      "type": "function"
    },
    {
      "inputs": [],
      "name": "manager",
      "outputs": [
        {
          "internalType": "address",
          "name": "",
          "type": "address"
        }
      ],
      "stateMutability": "view",
      "type": "function"
    },
    {
      "inputs": [
        {
          "internalType": "bytes",
          "name": "_performData",
          "type": "bytes"
        }
      ],
      "name": "performUpkeep",
      "outputs": [],
      "stateMutability": "nonpayable",
      "type": "function"
    },
    {
      "inputs": [
        {
          "internalType": "address",
          "name": "",
          "type": "address"
        },
        {
          "internalType": "uint256",
          "name": "",
          "type": "uint256"
        }
      ],
      "name": "request",
      "outputs": [
        {
          "internalType": "uint256",
          "name": "index",
          "type": "uint256"
        },
        {
          "internalType": "address",
          "name": "owner",
          "type": "address"
        },
        {
          "internalType": "address",
          "name": "quoteToken",
          "type": "address"
        },
        {
          "internalType": "uint256",
          "name": "liquidity",
          "type": "uint256"
        },
        {
          "internalType": "address",
          "name": "to",
          "type": "address"
        },
        {
          "internalType": "bytes",
          "name": "data",
          "type": "bytes"
        },
        {
          "internalType": "string",
          "name": "callbackResult",
          "type": "string"
        }
      ],
      "stateMutability": "view",
      "type": "function"
    },
    {
      "inputs": [
        {
          "internalType": "address",
          "name": "_pool",
          "type": "address"
        }
      ],
      "name": "requestLength",
      "outputs": [
        {
          "internalType": "uint256",
          "name": "",
          "type": "uint256"
        }
      ],
      "stateMutability": "view",
      "type": "function"
    },
    {
      "inputs": [
        {
          "internalType": "address",
          "name": "_factory",
          "type": "address"
        }
      ],
      "name": "setFactory",
      "outputs": [],
      "stateMutability": "nonpayable",
      "type": "function"
    },
    {
      "inputs": [
        {
          "internalType": "address",
          "name": "_keeper",
          "type": "address"
        }
      ],
      "name": "setKeeper",
      "outputs": [],
      "stateMutability": "nonpayable",
      "type": "function"
    },
    {
      "inputs": [
        {
          "internalType": "address",
          "name": "_manager",
          "type": "address"
        }
      ],
      "name": "setManager",
      "outputs": [],
      "stateMutability": "nonpayable",
      "type": "function"
    },
    {
      "inputs": [
        {
          "internalType": "uint256",
          "name": "_index",
          "type": "uint256"
        },
        {
          "internalType": "string",
          "name": "_result",
          "type": "string"
        }
      ],
      "name": "updateCallbackResult",
      "outputs": [],
      "stateMutability": "nonpayable",
      "type": "function"
    }
  ],
  "bytecode": "0x608060405234801561001057600080fd5b5060405161199b38038061199b83398101604081905261002f91610062565b60018054336001600160a01b031991821617909155600280549091166001600160a01b0392909216919091179055610092565b60006020828403121561007457600080fd5b81516001600160a01b038116811461008b57600080fd5b9392505050565b6118fa806100a16000396000f3fe608060405234801561001057600080fd5b50600436106100ea5760003560e01c8063748747e61161008c578063aced166111610066578063aced16611461020b578063c45a01551461021e578063c8c01a5514610231578063d0ebdbe71461025757600080fd5b8063748747e6146101bc578063939124f7146101cf578063987037e8146101f857600080fd5b80634b64e492116100c85780634b64e492146101625780634d4a6fbb146101755780635bb47808146101885780636e04ff0d1461019b57600080fd5b80633b9418fd146100ef5780634585e33b14610122578063481c6a7514610137575b600080fd5b61010f6100fd3660046112b3565b60046020526000908152604090205481565b6040519081526020015b60405180910390f35b610135610130366004611464565b61026a565b005b60015461014a906001600160a01b031681565b6040516001600160a01b039091168152602001610119565b6101356101703660046112b3565b610318565b6101356101833660046114bf565b610324565b6101356101963660046112b3565b6103b5565b6101ae6101a9366004611464565b610401565b60405161011992919061166d565b6101356101ca3660046112b3565b610908565b61010f6101dd3660046112b3565b6001600160a01b031660009081526003602052604090205490565b61010f6102063660046112f4565b61098f565b60025461014a906001600160a01b031681565b60005461014a906001600160a01b031681565b61024461023f366004611379565b610bd2565b6040516101199796959493929190611728565b6101356102653660046112b3565b610d50565b60005a905060008061027e848601866113a5565b9150915060005b818110156102c75760008382815181106102a1576102a1611883565b602002602001015190506102b481610dcb565b50806102bf81611852565b915050610285565b507fd1d8c94a101352389a2fadcdc79eb2ec660d64769f14a1e89c50c6d22225ce8b8186865a6102f79088611800565b3a604051610309959493929190611789565b60405180910390a15050505050565b61032181610dcb565b50565b33600090815260036020526040812080548490811061034557610345611883565b906000526020600020906007020190508181600601908051906020019061036d9291906111d1565b5082336001600160a01b03167f7f71e78cc7abf40379c8c57fb0f6c0f236701c3ff370c190496c883b1a71d034846040516103a89190611690565b60405180910390a3505050565b6000546001600160a01b0316156103df576040516373e833b960e11b815260040160405180910390fd5b600080546001600160a01b0319166001600160a01b0392909216919091179055565b600080546040805163040f1f6d60e11b815290516060926001600160a01b0316918491839163081e3eda916004808301926020929190829003018186803b15801561044b57600080fd5b505afa15801561045f573d6000803e3d6000fd5b505050506040513d601f19601f8201168201806040525081019061048391906114a6565b905060008167ffffffffffffffff8111156104a0576104a0611899565b6040519080825280602002602001820160405280156104c9578160200160208202803683370190505b5090506000805b838110156108cd576040516315895f4760e31b8152600481018290526000906001600160a01b0387169063ac4afa389060240160206040518083038186803b15801561051b57600080fd5b505afa15801561052f573d6000803e3d6000fd5b505050506040513d601f19601f8201168201806040525081019061055391906112d7565b90506000816001600160a01b0316630121c7776040518163ffffffff1660e01b815260040160206040518083038186803b15801561059057600080fd5b505afa1580156105a4573d6000803e3d6000fd5b505050506040513d601f19601f820116820180604052508101906105c891906114a6565b6001600160a01b0383166000908152600460209081526040808320546003909252909120549192509081141561063c578115610637578286868151811061061157610611611883565b6001600160a01b03909216602092830291909101909101528461063381611852565b9550505b6108b7565b6001600160a01b038316600090815260036020526040812080548390811061066657610666611883565b60009182526020918290206040805160e08101825260079093029091018054835260018101546001600160a01b03908116948401949094526002810154841691830191909152600381015460608301526004810154909216608082015260058201805491929160a0840191906106db90611817565b80601f016020809104026020016040519081016040528092919081815260200182805461070790611817565b80156107545780601f1061072957610100808354040283529160200191610754565b820191906000526020600020905b81548152906001019060200180831161073757829003601f168201915b5050505050815260200160068201805461076d90611817565b80601f016020809104026020016040519081016040528092919081815260200182805461079990611817565b80156107e65780601f106107bb576101008083540402835291602001916107e6565b820191906000526020600020905b8154815290600101906020018083116107c957829003601f168201915b50505050508152505090506000846001600160a01b031663743753596040518163ffffffff1660e01b815260040160206040518083038186803b15801561082c57600080fd5b505afa158015610840573d6000803e3d6000fd5b505050506040513d601f19601f8201168201806040525081019061086491906114a6565b606083015190915061087685836117e8565b106108b4578488888151811061088e5761088e611883565b6001600160a01b0390921660209283029190910190910152866108b081611852565b9750505b50505b50505080806108c590611852565b9150506104d0565b508015801596506108fd5781816040516020016108eb92919061161c565b60405160208183030381529060405294505b505050509250929050565b6001546001600160a01b0316331461093a5760405163a59d7f4d60e01b81523360048201526024015b60405180910390fd5b600280546001600160a01b0319166001600160a01b0383169081179091556040519081527fefb5cfa1a8690c124332ab93324539c5c9c4be03f28aeb8be86f2d8a0c9fb99b906020015b60405180910390a150565b60008054604051634d83bc3360e01b81526001600160a01b03888116600483015283921690634d83bc339060240160206040518083038186803b1580156109d557600080fd5b505afa1580156109e9573d6000803e3d6000fd5b505050506040513d601f19601f82011682018060405250810190610a0d91906112d7565b9050336001600160a01b03821614610a3a5760405163a59d7f4d60e01b8152336004820152602401610931565b6001600160a01b038082166000908152600360209081526040918290208054835160e0810185528181528d8616818501528c861681860152606081018c9052948a1660808601528351601f89018490048402810184019094528784529550929160a08301918890889081908401838280828437600092018290525093855250506040805160208181018352848252948501528554600181810188559684529284902085516007909402019283558484015195830180546001600160a01b039788166001600160a01b031991821617909155908501516002840180549188169183169190911790556060850151600384015560808501516004840180549190971691161790945560a083015180519394509092610b5c92600585019201906111d1565b5060c08201518051610b789160068401916020909101906111d1565b50505081816001600160a01b03167fc8be3d2db5246448b9fe265c3e6e450f43babe00021a84d4077563ae625ece848a8a8a8a8a8a604051610bbf969594939291906115d4565b60405180910390a3509695505050505050565b60036020528160005260406000208181548110610bee57600080fd5b60009182526020909120600790910201805460018201546002830154600384015460048501546005860180549598506001600160a01b039485169750928416959194931692909190610c3f90611817565b80601f0160208091040260200160405190810160405280929190818152602001828054610c6b90611817565b8015610cb85780601f10610c8d57610100808354040283529160200191610cb8565b820191906000526020600020905b815481529060010190602001808311610c9b57829003601f168201915b505050505090806006018054610ccd90611817565b80601f0160208091040260200160405190810160405280929190818152602001828054610cf990611817565b8015610d465780601f10610d1b57610100808354040283529160200191610d46565b820191906000526020600020905b815481529060010190602001808311610d2957829003601f168201915b5050505050905087565b6001546001600160a01b03163314610d7d5760405163a59d7f4d60e01b8152336004820152602401610931565b600180546001600160a01b0319166001600160a01b0383169081179091556040519081527f54a6385aa0292b04e1ef8513253c17d1863f7cdfc87029d77fd55cc4c2e717e290602001610984565b6000816001600160a01b0316630121c7776040518163ffffffff1660e01b815260040160206040518083038186803b158015610e0657600080fd5b505afa158015610e1a573d6000803e3d6000fd5b505050506040513d601f19601f82011682018060405250810190610e3e91906114a6565b6001600160a01b03831660009081526004602090815260408083205460039092529091205491925090811415610ecd578115610ec857826001600160a01b031663ba3439226040518163ffffffff1660e01b8152600401600060405180830381600087803b158015610eaf57600080fd5b505af1158015610ec3573d6000803e3d6000fd5b505050505b505050565b6001600160a01b0383166000908152600360205260408120805483908110610ef757610ef7611883565b60009182526020918290206040805160e08101825260079093029091018054835260018101546001600160a01b03908116948401949094526002810154841691830191909152600381015460608301526004810154909216608082015260058201805491929160a084019190610f6c90611817565b80601f0160208091040260200160405190810160405280929190818152602001828054610f9890611817565b8015610fe55780601f10610fba57610100808354040283529160200191610fe5565b820191906000526020600020905b815481529060010190602001808311610fc857829003601f168201915b50505050508152602001600682018054610ffe90611817565b80601f016020809104026020016040519081016040528092919081815260200182805461102a90611817565b80156110775780601f1061104c57610100808354040283529160200191611077565b820191906000526020600020905b81548152906001019060200180831161105a57829003601f168201915b50505050508152505090506000846001600160a01b031663743753596040518163ffffffff1660e01b815260040160206040518083038186803b1580156110bd57600080fd5b505afa1580156110d1573d6000803e3d6000fd5b505050506040513d601f19601f820116820180604052508101906110f591906114a6565b606083015190915061110785836117e8565b106111ca57604051638da11bfb60e01b81526001600160a01b03861690638da11bfb906111389085906004016116a3565b600060405180830381600087803b15801561115257600080fd5b505af1158015611166573d6000803e3d6000fd5b505050506001600160a01b038516600090815260046020526040812080549161118e83611852565b909155505081516040516001600160a01b038716907ff0ca3c7e5de9e5056ab0040b7b22ec3f0d8f1d34854d9c7751c9d135019c16cf90600090a35b5050505050565b8280546111dd90611817565b90600052602060002090601f0160209004810192826111ff5760008555611245565b82601f1061121857805160ff1916838001178555611245565b82800160010185558215611245579182015b8281111561124557825182559160200191906001019061122a565b50611251929150611255565b5090565b5b808211156112515760008155600101611256565b60008083601f84011261127c57600080fd5b50813567ffffffffffffffff81111561129457600080fd5b6020830191508360208285010111156112ac57600080fd5b9250929050565b6000602082840312156112c557600080fd5b81356112d0816118af565b9392505050565b6000602082840312156112e957600080fd5b81516112d0816118af565b60008060008060008060a0878903121561130d57600080fd5b8635611318816118af565b95506020870135611328816118af565b945060408701359350606087013561133f816118af565b9250608087013567ffffffffffffffff81111561135b57600080fd5b61136789828a0161126a565b979a9699509497509295939492505050565b6000806040838503121561138c57600080fd5b8235611397816118af565b946020939093013593505050565b600080604083850312156113b857600080fd5b823567ffffffffffffffff808211156113d057600080fd5b818501915085601f8301126113e457600080fd5b81356020828211156113f8576113f8611899565b8160051b92506114098184016117b7565b8281528181019085830185870184018b101561142457600080fd5b600096505b84871015611453578035955061143e866118af565b85835260019690960195918301918301611429565b509997909101359750505050505050565b6000806020838503121561147757600080fd5b823567ffffffffffffffff81111561148e57600080fd5b61149a8582860161126a565b90969095509350505050565b6000602082840312156114b857600080fd5b5051919050565b600080604083850312156114d257600080fd5b8235915060208084013567ffffffffffffffff808211156114f257600080fd5b818601915086601f83011261150657600080fd5b81358181111561151857611518611899565b61152a601f8201601f191685016117b7565b9150808252878482850101111561154057600080fd5b80848401858401376000848284010152508093505050509250929050565b81835281816020850137506000828201602090810191909152601f909101601f19169091010190565b6000815180845260005b818110156115ad57602081850181015186830182015201611591565b818111156115bf576000602083870101525b50601f01601f19169290920160200192915050565b6001600160a01b0387811682528681166020830152604082018690528416606082015260a060808201819052600090611610908301848661155e565b98975050505050505050565b604080825283519082018190526000906020906060840190828701845b8281101561165e5781516001600160a01b031684529284019290840190600101611639565b50505092019290925292915050565b82151581526040602082015260006116886040830184611587565b949350505050565b6020815260006112d06020830184611587565b60208152815160208201526000602083015160018060a01b038082166040850152806040860151166060850152606085015160808501528060808601511660a0850152505060a083015160e060c0840152611702610100840182611587565b905060c0840151601f198483030160e085015261171f8282611587565b95945050505050565b8781526001600160a01b0387811660208301528681166040830152606082018690528416608082015260e060a0820181905260009061176990830185611587565b82810360c084015261177b8185611587565b9a9950505050505050505050565b8581526080602082015260006117a360808301868861155e565b604083019490945250606001529392505050565b604051601f8201601f1916810167ffffffffffffffff811182821017156117e0576117e0611899565b604052919050565b600082198211156117fb576117fb61186d565b500190565b6000828210156118125761181261186d565b500390565b600181811c9082168061182b57607f821691505b6020821081141561184c57634e487b7160e01b600052602260045260246000fd5b50919050565b60006000198214156118665761186661186d565b5060010190565b634e487b7160e01b600052601160045260246000fd5b634e487b7160e01b600052603260045260246000fd5b634e487b7160e01b600052604160045260246000fd5b6001600160a01b038116811461032157600080fdfea264697066735822122021b2623c01b6963946cce47e776027c5ca1ec7e0df8f8cead3df2e5db774644564736f6c63430008070033",
  "linkReferences": {},
  "deployedLinkReferences": {}
}