{
  "_format": "hh-sol-artifact-1",
  "contractName": "WithdrawalMonitor",
  "sourceName": "contracts/WithdrawalMonitor.sol",
  "abi": [
    {
      "inputs": [
        {
          "internalType": "address",
          "name": "_keeper",
          "type": "address"
        }
      ],
      "stateMutability": "nonpayable",
      "type": "constructor"
    },
    {
      "inputs": [
        {
          "internalType": "address",
          "name": "to",
          "type": "address"
        },
        {
          "internalType": "uint256",
          "name": "value",
          "type": "uint256"
        }
      ],
      "name": "EthTransferFailed",
      "type": "error"
    },
    {
      "inputs": [
        {
          "internalType": "address",
          "name": "sender",
          "type": "address"
        }
      ],
      "name": "Forbidden",
      "type": "error"
    },
    {
      "inputs": [],
      "name": "InitializedAlready",
      "type": "error"
    },
    {
      "inputs": [
        {
          "internalType": "address",
          "name": "token",
          "type": "address"
        },
        {
          "internalType": "address",
          "name": "to",
          "type": "address"
        },
        {
          "internalType": "uint256",
          "name": "value",
          "type": "uint256"
        }
      ],
      "name": "TransferFailed",
      "type": "error"
    },
    {
      "anonymous": false,
      "inputs": [
        {
          "indexed": true,
          "internalType": "address",
          "name": "pool",
          "type": "address"
        },
        {
          "indexed": true,
          "internalType": "uint256",
          "name": "index",
          "type": "uint256"
        },
        {
          "indexed": false,
          "internalType": "address",
          "name": "owner",
          "type": "address"
        },
        {
          "indexed": false,
          "internalType": "address",
          "name": "quoteToken",
          "type": "address"
        },
        {
          "indexed": false,
          "internalType": "uint256",
          "name": "liquidity",
          "type": "uint256"
        },
        {
          "indexed": false,
          "internalType": "address",
          "name": "to",
          "type": "address"
        },
        {
          "indexed": false,
          "internalType": "bytes",
          "name": "data",
          "type": "bytes"
        }
      ],
      "name": "AddRequest",
      "type": "event"
    },
    {
      "anonymous": false,
      "inputs": [
        {
          "indexed": true,
          "internalType": "address",
          "name": "pool",
          "type": "address"
        },
        {
          "indexed": true,
          "internalType": "uint256",
          "name": "index",
          "type": "uint256"
        }
      ],
      "name": "FulfillRequest",
      "type": "event"
    },
    {
      "anonymous": false,
      "inputs": [
        {
          "indexed": false,
          "internalType": "uint256",
          "name": "count",
          "type": "uint256"
        },
        {
          "indexed": false,
          "internalType": "bytes",
          "name": "performData",
          "type": "bytes"
        },
        {
          "indexed": false,
          "internalType": "uint256",
          "name": "usedGas",
          "type": "uint256"
        },
        {
          "indexed": false,
          "internalType": "uint256",
          "name": "gasPrice",
          "type": "uint256"
        }
      ],
      "name": "ProcessBatch",
      "type": "event"
    },
    {
      "anonymous": false,
      "inputs": [
        {
          "indexed": false,
          "internalType": "address",
          "name": "keeper",
          "type": "address"
        }
      ],
      "name": "SetKeeper",
      "type": "event"
    },
    {
      "anonymous": false,
      "inputs": [
        {
          "indexed": false,
          "internalType": "address",
          "name": "manager",
          "type": "address"
        }
      ],
      "name": "SetManager",
      "type": "event"
    },
    {
      "anonymous": false,
      "inputs": [
        {
          "indexed": true,
          "internalType": "address",
          "name": "pool",
          "type": "address"
        },
        {
          "indexed": true,
          "internalType": "uint256",
          "name": "index",
          "type": "uint256"
        },
        {
          "indexed": false,
          "internalType": "string",
          "name": "result",
          "type": "string"
        }
      ],
      "name": "UpdateCallbackResult",
      "type": "event"
    },
    {
      "inputs": [
        {
          "internalType": "address",
          "name": "_owner",
          "type": "address"
        },
        {
          "internalType": "address",
          "name": "_quoteToken",
          "type": "address"
        },
        {
          "internalType": "uint256",
          "name": "_liquidity",
          "type": "uint256"
        },
        {
          "internalType": "address",
          "name": "_to",
          "type": "address"
        },
        {
          "internalType": "bytes",
          "name": "_data",
          "type": "bytes"
        }
      ],
      "name": "addRequest",
      "outputs": [
        {
          "internalType": "uint256",
          "name": "index",
          "type": "uint256"
        }
      ],
      "stateMutability": "nonpayable",
      "type": "function"
    },
    {
      "inputs": [
        {
          "internalType": "bytes",
          "name": "",
          "type": "bytes"
        }
      ],
      "name": "checkUpkeep",
      "outputs": [
        {
          "internalType": "bool",
          "name": "upkeepNeeded",
          "type": "bool"
        },
        {
          "internalType": "bytes",
          "name": "performData",
          "type": "bytes"
        }
      ],
      "stateMutability": "view",
      "type": "function"
    },
    {
      "inputs": [],
      "name": "checker",
      "outputs": [
        {
          "internalType": "bool",
          "name": "canExec",
          "type": "bool"
        },
        {
          "internalType": "bytes",
          "name": "execPayload",
          "type": "bytes"
        }
      ],
      "stateMutability": "view",
      "type": "function"
    },
    {
      "inputs": [
        {
          "internalType": "address",
          "name": "",
          "type": "address"
        }
      ],
      "name": "currentIndex",
      "outputs": [
        {
          "internalType": "uint256",
          "name": "",
          "type": "uint256"
        }
      ],
      "stateMutability": "view",
      "type": "function"
    },
    {
      "inputs": [
        {
          "internalType": "address",
          "name": "_pool",
          "type": "address"
        }
      ],
      "name": "execute",
      "outputs": [],
      "stateMutability": "nonpayable",
      "type": "function"
    },
    {
      "inputs": [],
      "name": "factory",
      "outputs": [
        {
          "internalType": "address",
          "name": "",
          "type": "address"
        }
      ],
      "stateMutability": "view",
      "type": "function"
    },
    {
      "inputs": [],
      "name": "keeper",
      "outputs": [
        {
          "internalType": "address",
          "name": "",
          "type": "address"
        }
      ],
      "stateMutability": "view",
      "type": "function"
    },
    {
      "inputs": [],
      "name": "manager",
      "outputs": [
        {
          "internalType": "address",
          "name": "",
          "type": "address"
        }
      ],
      "stateMutability": "view",
      "type": "function"
    },
    {
      "inputs": [
        {
          "internalType": "bytes",
          "name": "_performData",
          "type": "bytes"
        }
      ],
      "name": "performUpkeep",
      "outputs": [],
      "stateMutability": "nonpayable",
      "type": "function"
    },
    {
      "inputs": [
        {
          "internalType": "address",
          "name": "",
          "type": "address"
        },
        {
          "internalType": "uint256",
          "name": "",
          "type": "uint256"
        }
      ],
      "name": "request",
      "outputs": [
        {
          "internalType": "uint256",
          "name": "index",
          "type": "uint256"
        },
        {
          "internalType": "address",
          "name": "owner",
          "type": "address"
        },
        {
          "internalType": "address",
          "name": "quoteToken",
          "type": "address"
        },
        {
          "internalType": "uint256",
          "name": "liquidity",
          "type": "uint256"
        },
        {
          "internalType": "address",
          "name": "to",
          "type": "address"
        },
        {
          "internalType": "bytes",
          "name": "data",
          "type": "bytes"
        },
        {
          "internalType": "string",
          "name": "callbackResult",
          "type": "string"
        }
      ],
      "stateMutability": "view",
      "type": "function"
    },
    {
      "inputs": [
        {
          "internalType": "address",
          "name": "_pool",
          "type": "address"
        }
      ],
      "name": "requestLength",
      "outputs": [
        {
          "internalType": "uint256",
          "name": "",
          "type": "uint256"
        }
      ],
      "stateMutability": "view",
      "type": "function"
    },
    {
      "inputs": [
        {
          "internalType": "address",
          "name": "_factory",
          "type": "address"
        }
      ],
      "name": "setFactory",
      "outputs": [],
      "stateMutability": "nonpayable",
      "type": "function"
    },
    {
      "inputs": [
        {
          "internalType": "address",
          "name": "_keeper",
          "type": "address"
        }
      ],
      "name": "setKeeper",
      "outputs": [],
      "stateMutability": "nonpayable",
      "type": "function"
    },
    {
      "inputs": [
        {
          "internalType": "address",
          "name": "_manager",
          "type": "address"
        }
      ],
      "name": "setManager",
      "outputs": [],
      "stateMutability": "nonpayable",
      "type": "function"
    },
    {
      "inputs": [
        {
          "internalType": "uint256",
          "name": "_index",
          "type": "uint256"
        },
        {
          "internalType": "string",
          "name": "_result",
          "type": "string"
        }
      ],
      "name": "updateCallbackResult",
      "outputs": [],
      "stateMutability": "nonpayable",
      "type": "function"
    }
  ],
  "bytecode": "0x608060405234801561001057600080fd5b50604051611eea380380611eea83398101604081905261002f91610062565b60018054336001600160a01b031991821617909155600280549091166001600160a01b0392909216919091179055610092565b60006020828403121561007457600080fd5b81516001600160a01b038116811461008b57600080fd5b9392505050565b611e49806100a16000396000f3fe608060405234801561001057600080fd5b50600436106100f55760003560e01c8063748747e611610097578063c45a015511610066578063c45a015514610229578063c8c01a551461023c578063cf5303cf14610262578063d0ebdbe71461026a57600080fd5b8063748747e6146101c7578063939124f7146101da578063987037e814610203578063aced16611461021657600080fd5b80634b64e492116100d35780634b64e4921461016d5780634d4a6fbb146101805780635bb47808146101935780636e04ff0d146101a657600080fd5b80633b9418fd146100fa5780634585e33b1461012d578063481c6a7514610142575b600080fd5b61011a610108366004611802565b60046020526000908152604090205481565b6040519081526020015b60405180910390f35b61014061013b3660046119b3565b61027d565b005b600154610155906001600160a01b031681565b6040516001600160a01b039091168152602001610124565b61014061017b366004611802565b61032b565b61014061018e366004611a0e565b610337565b6101406101a1366004611802565b6103c8565b6101b96101b43660046119b3565b610414565b604051610124929190611bbc565b6101406101d5366004611802565b61091b565b61011a6101e8366004611802565b6001600160a01b031660009081526003602052604090205490565b61011a610211366004611843565b6109a2565b600254610155906001600160a01b031681565b600054610155906001600160a01b031681565b61024f61024a3660046118c8565b610be5565b6040516101249796959493929190611c77565b6101b9610d63565b610140610278366004611802565b61129f565b60005a9050600080610291848601866118f4565b9150915060005b818110156102da5760008382815181106102b4576102b4611dd2565b602002602001015190506102c78161131a565b50806102d281611da1565b915050610298565b507fd1d8c94a101352389a2fadcdc79eb2ec660d64769f14a1e89c50c6d22225ce8b8186865a61030a9088611d4f565b3a60405161031c959493929190611cd8565b60405180910390a15050505050565b6103348161131a565b50565b33600090815260036020526040812080548490811061035857610358611dd2565b9060005260206000209060070201905081816006019080519060200190610380929190611720565b5082336001600160a01b03167f7f71e78cc7abf40379c8c57fb0f6c0f236701c3ff370c190496c883b1a71d034846040516103bb9190611bdf565b60405180910390a3505050565b6000546001600160a01b0316156103f2576040516373e833b960e11b815260040160405180910390fd5b600080546001600160a01b0319166001600160a01b0392909216919091179055565b600080546040805163040f1f6d60e11b815290516060926001600160a01b0316918491839163081e3eda916004808301926020929190829003018186803b15801561045e57600080fd5b505afa158015610472573d6000803e3d6000fd5b505050506040513d601f19601f8201168201806040525081019061049691906119f5565b905060008167ffffffffffffffff8111156104b3576104b3611de8565b6040519080825280602002602001820160405280156104dc578160200160208202803683370190505b5090506000805b838110156108e0576040516315895f4760e31b8152600481018290526000906001600160a01b0387169063ac4afa389060240160206040518083038186803b15801561052e57600080fd5b505afa158015610542573d6000803e3d6000fd5b505050506040513d601f19601f820116820180604052508101906105669190611826565b90506000816001600160a01b0316630121c7776040518163ffffffff1660e01b815260040160206040518083038186803b1580156105a357600080fd5b505afa1580156105b7573d6000803e3d6000fd5b505050506040513d601f19601f820116820180604052508101906105db91906119f5565b6001600160a01b0383166000908152600460209081526040808320546003909252909120549192509081141561064f57811561064a578286868151811061062457610624611dd2565b6001600160a01b03909216602092830291909101909101528461064681611da1565b9550505b6108ca565b6001600160a01b038316600090815260036020526040812080548390811061067957610679611dd2565b60009182526020918290206040805160e08101825260079093029091018054835260018101546001600160a01b03908116948401949094526002810154841691830191909152600381015460608301526004810154909216608082015260058201805491929160a0840191906106ee90611d66565b80601f016020809104026020016040519081016040528092919081815260200182805461071a90611d66565b80156107675780601f1061073c57610100808354040283529160200191610767565b820191906000526020600020905b81548152906001019060200180831161074a57829003601f168201915b5050505050815260200160068201805461078090611d66565b80601f01602080910402602001604051908101604052809291908181526020018280546107ac90611d66565b80156107f95780601f106107ce576101008083540402835291602001916107f9565b820191906000526020600020905b8154815290600101906020018083116107dc57829003601f168201915b50505050508152505090506000846001600160a01b031663743753596040518163ffffffff1660e01b815260040160206040518083038186803b15801561083f57600080fd5b505afa158015610853573d6000803e3d6000fd5b505050506040513d601f19601f8201168201806040525081019061087791906119f5565b60608301519091506108898583611d37565b106108c757848888815181106108a1576108a1611dd2565b6001600160a01b0390921660209283029190910190910152866108c381611da1565b9750505b50505b50505080806108d890611da1565b9150506104e3565b508015801596506109105781816040516020016108fe929190611b6b565b60405160208183030381529060405294505b505050509250929050565b6001546001600160a01b0316331461094d5760405163a59d7f4d60e01b81523360048201526024015b60405180910390fd5b600280546001600160a01b0319166001600160a01b0383169081179091556040519081527fefb5cfa1a8690c124332ab93324539c5c9c4be03f28aeb8be86f2d8a0c9fb99b906020015b60405180910390a150565b60008054604051634d83bc3360e01b81526001600160a01b03888116600483015283921690634d83bc339060240160206040518083038186803b1580156109e857600080fd5b505afa1580156109fc573d6000803e3d6000fd5b505050506040513d601f19601f82011682018060405250810190610a209190611826565b9050336001600160a01b03821614610a4d5760405163a59d7f4d60e01b8152336004820152602401610944565b6001600160a01b038082166000908152600360209081526040918290208054835160e0810185528181528d8616818501528c861681860152606081018c9052948a1660808601528351601f89018490048402810184019094528784529550929160a08301918890889081908401838280828437600092018290525093855250506040805160208181018352848252948501528554600181810188559684529284902085516007909402019283558484015195830180546001600160a01b039788166001600160a01b031991821617909155908501516002840180549188169183169190911790556060850151600384015560808501516004840180549190971691161790945560a083015180519394509092610b6f9260058501920190611720565b5060c08201518051610b8b916006840191602090910190611720565b50505081816001600160a01b03167fc8be3d2db5246448b9fe265c3e6e450f43babe00021a84d4077563ae625ece848a8a8a8a8a8a604051610bd296959493929190611b23565b60405180910390a3509695505050505050565b60036020528160005260406000208181548110610c0157600080fd5b60009182526020909120600790910201805460018201546002830154600384015460048501546005860180549598506001600160a01b039485169750928416959194931692909190610c5290611d66565b80601f0160208091040260200160405190810160405280929190818152602001828054610c7e90611d66565b8015610ccb5780601f10610ca057610100808354040283529160200191610ccb565b820191906000526020600020905b815481529060010190602001808311610cae57829003601f168201915b505050505090806006018054610ce090611d66565b80601f0160208091040260200160405190810160405280929190818152602001828054610d0c90611d66565b8015610d595780601f10610d2e57610100808354040283529160200191610d59565b820191906000526020600020905b815481529060010190602001808311610d3c57829003601f168201915b5050505050905087565b600080546040805163040f1f6d60e11b815290516060926001600160a01b0316918491839163081e3eda916004808301926020929190829003018186803b158015610dad57600080fd5b505afa158015610dc1573d6000803e3d6000fd5b505050506040513d601f19601f82011682018060405250810190610de591906119f5565b905060008167ffffffffffffffff811115610e0257610e02611de8565b604051908082528060200260200182016040528015610e2b578160200160208202803683370190505b5090506000805b8381101561122f576040516315895f4760e31b8152600481018290526000906001600160a01b0387169063ac4afa389060240160206040518083038186803b158015610e7d57600080fd5b505afa158015610e91573d6000803e3d6000fd5b505050506040513d601f19601f82011682018060405250810190610eb59190611826565b90506000816001600160a01b0316630121c7776040518163ffffffff1660e01b815260040160206040518083038186803b158015610ef257600080fd5b505afa158015610f06573d6000803e3d6000fd5b505050506040513d601f19601f82011682018060405250810190610f2a91906119f5565b6001600160a01b03831660009081526004602090815260408083205460039092529091205491925090811415610f9e578115610f995782868681518110610f7357610f73611dd2565b6001600160a01b039092166020928302919091019091015284610f9581611da1565b9550505b611219565b6001600160a01b0383166000908152600360205260408120805483908110610fc857610fc8611dd2565b60009182526020918290206040805160e08101825260079093029091018054835260018101546001600160a01b03908116948401949094526002810154841691830191909152600381015460608301526004810154909216608082015260058201805491929160a08401919061103d90611d66565b80601f016020809104026020016040519081016040528092919081815260200182805461106990611d66565b80156110b65780601f1061108b576101008083540402835291602001916110b6565b820191906000526020600020905b81548152906001019060200180831161109957829003601f168201915b505050505081526020016006820180546110cf90611d66565b80601f01602080910402602001604051908101604052809291908181526020018280546110fb90611d66565b80156111485780601f1061111d57610100808354040283529160200191611148565b820191906000526020600020905b81548152906001019060200180831161112b57829003601f168201915b50505050508152505090506000846001600160a01b031663743753596040518163ffffffff1660e01b815260040160206040518083038186803b15801561118e57600080fd5b505afa1580156111a2573d6000803e3d6000fd5b505050506040513d601f19601f820116820180604052508101906111c691906119f5565b60608301519091506111d88583611d37565b1061121657848888815181106111f0576111f0611dd2565b6001600160a01b03909216602092830291909101909101528661121281611da1565b9750505b50505b505050808061122790611da1565b915050610e32565b5080158015965061129757818160405160200161124d929190611b6b565b60408051601f198184030181529082905261126a91602401611bdf565b60408051601f198184030181529190526020810180516001600160e01b0316634585e33b60e01b17905294505b505050509091565b6001546001600160a01b031633146112cc5760405163a59d7f4d60e01b8152336004820152602401610944565b600180546001600160a01b0319166001600160a01b0383169081179091556040519081527f54a6385aa0292b04e1ef8513253c17d1863f7cdfc87029d77fd55cc4c2e717e290602001610997565b6000816001600160a01b0316630121c7776040518163ffffffff1660e01b815260040160206040518083038186803b15801561135557600080fd5b505afa158015611369573d6000803e3d6000fd5b505050506040513d601f19601f8201168201806040525081019061138d91906119f5565b6001600160a01b0383166000908152600460209081526040808320546003909252909120549192509081141561141c57811561141757826001600160a01b031663ba3439226040518163ffffffff1660e01b8152600401600060405180830381600087803b1580156113fe57600080fd5b505af1158015611412573d6000803e3d6000fd5b505050505b505050565b6001600160a01b038316600090815260036020526040812080548390811061144657611446611dd2565b60009182526020918290206040805160e08101825260079093029091018054835260018101546001600160a01b03908116948401949094526002810154841691830191909152600381015460608301526004810154909216608082015260058201805491929160a0840191906114bb90611d66565b80601f01602080910402602001604051908101604052809291908181526020018280546114e790611d66565b80156115345780601f1061150957610100808354040283529160200191611534565b820191906000526020600020905b81548152906001019060200180831161151757829003601f168201915b5050505050815260200160068201805461154d90611d66565b80601f016020809104026020016040519081016040528092919081815260200182805461157990611d66565b80156115c65780601f1061159b576101008083540402835291602001916115c6565b820191906000526020600020905b8154815290600101906020018083116115a957829003601f168201915b50505050508152505090506000846001600160a01b031663743753596040518163ffffffff1660e01b815260040160206040518083038186803b15801561160c57600080fd5b505afa158015611620573d6000803e3d6000fd5b505050506040513d601f19601f8201168201806040525081019061164491906119f5565b60608301519091506116568583611d37565b1061171957604051638da11bfb60e01b81526001600160a01b03861690638da11bfb90611687908590600401611bf2565b600060405180830381600087803b1580156116a157600080fd5b505af11580156116b5573d6000803e3d6000fd5b505050506001600160a01b03851660009081526004602052604081208054916116dd83611da1565b909155505081516040516001600160a01b038716907ff0ca3c7e5de9e5056ab0040b7b22ec3f0d8f1d34854d9c7751c9d135019c16cf90600090a35b5050505050565b82805461172c90611d66565b90600052602060002090601f01602090048101928261174e5760008555611794565b82601f1061176757805160ff1916838001178555611794565b82800160010185558215611794579182015b82811115611794578251825591602001919060010190611779565b506117a09291506117a4565b5090565b5b808211156117a057600081556001016117a5565b60008083601f8401126117cb57600080fd5b50813567ffffffffffffffff8111156117e357600080fd5b6020830191508360208285010111156117fb57600080fd5b9250929050565b60006020828403121561181457600080fd5b813561181f81611dfe565b9392505050565b60006020828403121561183857600080fd5b815161181f81611dfe565b60008060008060008060a0878903121561185c57600080fd5b863561186781611dfe565b9550602087013561187781611dfe565b945060408701359350606087013561188e81611dfe565b9250608087013567ffffffffffffffff8111156118aa57600080fd5b6118b689828a016117b9565b979a9699509497509295939492505050565b600080604083850312156118db57600080fd5b82356118e681611dfe565b946020939093013593505050565b6000806040838503121561190757600080fd5b823567ffffffffffffffff8082111561191f57600080fd5b818501915085601f83011261193357600080fd5b813560208282111561194757611947611de8565b8160051b9250611958818401611d06565b8281528181019085830185870184018b101561197357600080fd5b600096505b848710156119a2578035955061198d86611dfe565b85835260019690960195918301918301611978565b509997909101359750505050505050565b600080602083850312156119c657600080fd5b823567ffffffffffffffff8111156119dd57600080fd5b6119e9858286016117b9565b90969095509350505050565b600060208284031215611a0757600080fd5b5051919050565b60008060408385031215611a2157600080fd5b8235915060208084013567ffffffffffffffff80821115611a4157600080fd5b818601915086601f830112611a5557600080fd5b813581811115611a6757611a67611de8565b611a79601f8201601f19168501611d06565b91508082528784828501011115611a8f57600080fd5b80848401858401376000848284010152508093505050509250929050565b81835281816020850137506000828201602090810191909152601f909101601f19169091010190565b6000815180845260005b81811015611afc57602081850181015186830182015201611ae0565b81811115611b0e576000602083870101525b50601f01601f19169290920160200192915050565b6001600160a01b0387811682528681166020830152604082018690528416606082015260a060808201819052600090611b5f9083018486611aad565b98975050505050505050565b604080825283519082018190526000906020906060840190828701845b82811015611bad5781516001600160a01b031684529284019290840190600101611b88565b50505092019290925292915050565b8215158152604060208201526000611bd76040830184611ad6565b949350505050565b60208152600061181f6020830184611ad6565b60208152815160208201526000602083015160018060a01b038082166040850152806040860151166060850152606085015160808501528060808601511660a0850152505060a083015160e060c0840152611c51610100840182611ad6565b905060c0840151601f198483030160e0850152611c6e8282611ad6565b95945050505050565b8781526001600160a01b0387811660208301528681166040830152606082018690528416608082015260e060a08201819052600090611cb890830185611ad6565b82810360c0840152611cca8185611ad6565b9a9950505050505050505050565b858152608060208201526000611cf2608083018688611aad565b604083019490945250606001529392505050565b604051601f8201601f1916810167ffffffffffffffff81118282101715611d2f57611d2f611de8565b604052919050565b60008219821115611d4a57611d4a611dbc565b500190565b600082821015611d6157611d61611dbc565b500390565b600181811c90821680611d7a57607f821691505b60208210811415611d9b57634e487b7160e01b600052602260045260246000fd5b50919050565b6000600019821415611db557611db5611dbc565b5060010190565b634e487b7160e01b600052601160045260246000fd5b634e487b7160e01b600052603260045260246000fd5b634e487b7160e01b600052604160045260246000fd5b6001600160a01b038116811461033457600080fdfea2646970667358221220fbd73ac99f8e7ab47cef30b979c1e196faec16d3487718a82a9de7b3d53dc9e264736f6c63430008070033",
  "linkReferences": {},
  "deployedLinkReferences": {}
}