{
  "_format": "hh-sol-artifact-1",
  "contractName": "NonfungiblePositionManager",
  "sourceName": "contracts/NonfungiblePositionManager.sol",
  "abi": [
    {
      "inputs": [
        {
          "internalType": "address",
          "name": "_factory",
          "type": "address"
        },
        {
          "internalType": "address",
          "name": "_WETH9",
          "type": "address"
        },
        {
          "internalType": "address",
          "name": "_tokenDescriptor_",
          "type": "address"
        }
      ],
      "stateMutability": "nonpayable",
      "type": "constructor"
    },
    {
      "inputs": [],
      "name": "CallFailed1",
      "type": "error"
    },
    {
      "inputs": [],
      "name": "CallFailed2",
      "type": "error"
    },
    {
      "inputs": [],
      "name": "EmptyArrays",
      "type": "error"
    },
    {
      "inputs": [
        {
          "internalType": "address",
          "name": "sender",
          "type": "address"
        }
      ],
      "name": "Forbidden",
      "type": "error"
    },
    {
      "inputs": [],
      "name": "InsufficientOutput",
      "type": "error"
    },
    {
      "inputs": [
        {
          "internalType": "uint256",
          "name": "tokenId",
          "type": "uint256"
        }
      ],
      "name": "InvalidTokenID",
      "type": "error"
    },
    {
      "inputs": [
        {
          "internalType": "uint256",
          "name": "tokenId",
          "type": "uint256"
        }
      ],
      "name": "NotCleared",
      "type": "error"
    },
    {
      "inputs": [],
      "name": "TransactionTooOld",
      "type": "error"
    },
    {
      "anonymous": false,
      "inputs": [
        {
          "indexed": true,
          "internalType": "uint256",
          "name": "tokenId",
          "type": "uint256"
        },
        {
          "indexed": false,
          "internalType": "address",
          "name": "token",
          "type": "address"
        },
        {
          "indexed": false,
          "internalType": "uint256",
          "name": "liquidity",
          "type": "uint256"
        },
        {
          "indexed": false,
          "internalType": "uint256",
          "name": "requestIndex",
          "type": "uint256"
        }
      ],
      "name": "AddDecreaseLiquidityRequest",
      "type": "event"
    },
    {
      "anonymous": false,
      "inputs": [
        {
          "indexed": true,
          "internalType": "address",
          "name": "owner",
          "type": "address"
        },
        {
          "indexed": true,
          "internalType": "address",
          "name": "approved",
          "type": "address"
        },
        {
          "indexed": true,
          "internalType": "uint256",
          "name": "tokenId",
          "type": "uint256"
        }
      ],
      "name": "Approval",
      "type": "event"
    },
    {
      "anonymous": false,
      "inputs": [
        {
          "indexed": true,
          "internalType": "address",
          "name": "owner",
          "type": "address"
        },
        {
          "indexed": true,
          "internalType": "address",
          "name": "operator",
          "type": "address"
        },
        {
          "indexed": false,
          "internalType": "bool",
          "name": "approved",
          "type": "bool"
        }
      ],
      "name": "ApprovalForAll",
      "type": "event"
    },
    {
      "anonymous": false,
      "inputs": [
        {
          "indexed": true,
          "internalType": "uint256",
          "name": "tokenId",
          "type": "uint256"
        },
        {
          "indexed": false,
          "internalType": "address",
          "name": "token",
          "type": "address"
        },
        {
          "indexed": false,
          "internalType": "uint256",
          "name": "amount",
          "type": "uint256"
        }
      ],
      "name": "Collect",
      "type": "event"
    },
    {
      "anonymous": false,
      "inputs": [
        {
          "indexed": true,
          "internalType": "uint256",
          "name": "tokenId",
          "type": "uint256"
        },
        {
          "indexed": false,
          "internalType": "address",
          "name": "token",
          "type": "address"
        },
        {
          "indexed": false,
          "internalType": "uint256",
          "name": "liquidity",
          "type": "uint256"
        }
      ],
      "name": "DecreaseLiquidity",
      "type": "event"
    },
    {
      "anonymous": false,
      "inputs": [
        {
          "indexed": true,
          "internalType": "uint256",
          "name": "tokenId",
          "type": "uint256"
        },
        {
          "indexed": false,
          "internalType": "address",
          "name": "token",
          "type": "address"
        },
        {
          "indexed": false,
          "internalType": "uint256",
          "name": "liquidity",
          "type": "uint256"
        }
      ],
      "name": "IncreaseLiquidity",
      "type": "event"
    },
    {
      "anonymous": false,
      "inputs": [
        {
          "indexed": true,
          "internalType": "address",
          "name": "from",
          "type": "address"
        },
        {
          "indexed": true,
          "internalType": "address",
          "name": "to",
          "type": "address"
        },
        {
          "indexed": true,
          "internalType": "uint256",
          "name": "tokenId",
          "type": "uint256"
        }
      ],
      "name": "Transfer",
      "type": "event"
    },
    {
      "inputs": [],
      "name": "DOMAIN_SEPARATOR",
      "outputs": [
        {
          "internalType": "bytes32",
          "name": "",
          "type": "bytes32"
        }
      ],
      "stateMutability": "view",
      "type": "function"
    },
    {
      "inputs": [],
      "name": "PERMIT_TYPEHASH",
      "outputs": [
        {
          "internalType": "bytes32",
          "name": "",
          "type": "bytes32"
        }
      ],
      "stateMutability": "view",
      "type": "function"
    },
    {
      "inputs": [],
      "name": "WETH9",
      "outputs": [
        {
          "internalType": "address",
          "name": "",
          "type": "address"
        }
      ],
      "stateMutability": "view",
      "type": "function"
    },
    {
      "inputs": [
        {
          "components": [
            {
              "internalType": "uint256",
              "name": "tokenId",
              "type": "uint256"
            },
            {
              "internalType": "uint256",
              "name": "liquidity",
              "type": "uint256"
            },
            {
              "internalType": "uint256",
              "name": "deadline",
              "type": "uint256"
            }
          ],
          "internalType": "struct INonfungiblePositionManager.DecreaseLiquidityParams",
          "name": "_params",
          "type": "tuple"
        }
      ],
      "name": "addDecreaseLiquidityRequest",
      "outputs": [],
      "stateMutability": "payable",
      "type": "function"
    },
    {
      "inputs": [
        {
          "components": [
            {
              "internalType": "address",
              "name": "target",
              "type": "address"
            },
            {
              "internalType": "bytes",
              "name": "callData",
              "type": "bytes"
            }
          ],
          "internalType": "struct Multicall.Call[]",
          "name": "_calls",
          "type": "tuple[]"
        }
      ],
      "name": "aggregate",
      "outputs": [
        {
          "internalType": "uint256",
          "name": "blockNumber",
          "type": "uint256"
        },
        {
          "internalType": "bytes[]",
          "name": "returnData",
          "type": "bytes[]"
        }
      ],
      "stateMutability": "nonpayable",
      "type": "function"
    },
    {
      "inputs": [
        {
          "internalType": "address",
          "name": "to",
          "type": "address"
        },
        {
          "internalType": "uint256",
          "name": "tokenId",
          "type": "uint256"
        }
      ],
      "name": "approve",
      "outputs": [],
      "stateMutability": "nonpayable",
      "type": "function"
    },
    {
      "inputs": [
        {
          "internalType": "address",
          "name": "owner",
          "type": "address"
        }
      ],
      "name": "balanceOf",
      "outputs": [
        {
          "internalType": "uint256",
          "name": "",
          "type": "uint256"
        }
      ],
      "stateMutability": "view",
      "type": "function"
    },
    {
      "inputs": [
        {
          "components": [
            {
              "internalType": "address",
              "name": "target",
              "type": "address"
            },
            {
              "internalType": "bytes",
              "name": "callData",
              "type": "bytes"
            }
          ],
          "internalType": "struct Multicall.Call[]",
          "name": "_calls",
          "type": "tuple[]"
        }
      ],
      "name": "blockAndAggregate",
      "outputs": [
        {
          "internalType": "uint256",
          "name": "blockNumber",
          "type": "uint256"
        },
        {
          "internalType": "bytes32",
          "name": "blockHash",
          "type": "bytes32"
        },
        {
          "components": [
            {
              "internalType": "bool",
              "name": "success",
              "type": "bool"
            },
            {
              "internalType": "bytes",
              "name": "returnData",
              "type": "bytes"
            }
          ],
          "internalType": "struct Multicall.Result[]",
          "name": "returnData",
          "type": "tuple[]"
        }
      ],
      "stateMutability": "nonpayable",
      "type": "function"
    },
    {
      "inputs": [
        {
          "internalType": "uint256",
          "name": "_tokenId",
          "type": "uint256"
        }
      ],
      "name": "burn",
      "outputs": [],
      "stateMutability": "payable",
      "type": "function"
    },
    {
      "inputs": [
        {
          "internalType": "uint256",
          "name": "_liquidity",
          "type": "uint256"
        },
        {
          "internalType": "bytes",
          "name": "_data",
          "type": "bytes"
        }
      ],
      "name": "burnCallback",
      "outputs": [],
      "stateMutability": "nonpayable",
      "type": "function"
    },
    {
      "inputs": [
        {
          "components": [
            {
              "internalType": "uint256[]",
              "name": "tokenIds",
              "type": "uint256[]"
            },
            {
              "internalType": "address",
              "name": "to",
              "type": "address"
            }
          ],
          "internalType": "struct INonfungiblePositionManager.CollectParams",
          "name": "_params",
          "type": "tuple"
        }
      ],
      "name": "collect",
      "outputs": [
        {
          "internalType": "uint256",
          "name": "amount",
          "type": "uint256"
        }
      ],
      "stateMutability": "payable",
      "type": "function"
    },
    {
      "inputs": [],
      "name": "factory",
      "outputs": [
        {
          "internalType": "address",
          "name": "",
          "type": "address"
        }
      ],
      "stateMutability": "view",
      "type": "function"
    },
    {
      "inputs": [
        {
          "internalType": "uint256",
          "name": "tokenId",
          "type": "uint256"
        }
      ],
      "name": "getApproved",
      "outputs": [
        {
          "internalType": "address",
          "name": "",
          "type": "address"
        }
      ],
      "stateMutability": "view",
      "type": "function"
    },
    {
      "inputs": [
        {
          "internalType": "uint256",
          "name": "_blockNumber",
          "type": "uint256"
        }
      ],
      "name": "getBlockHash",
      "outputs": [
        {
          "internalType": "bytes32",
          "name": "blockHash",
          "type": "bytes32"
        }
      ],
      "stateMutability": "view",
      "type": "function"
    },
    {
      "inputs": [],
      "name": "getBlockNumber",
      "outputs": [
        {
          "internalType": "uint256",
          "name": "blockNumber",
          "type": "uint256"
        }
      ],
      "stateMutability": "view",
      "type": "function"
    },
    {
      "inputs": [],
      "name": "getCurrentBlockCoinbase",
      "outputs": [
        {
          "internalType": "address",
          "name": "coinbase",
          "type": "address"
        }
      ],
      "stateMutability": "view",
      "type": "function"
    },
    {
      "inputs": [],
      "name": "getCurrentBlockDifficulty",
      "outputs": [
        {
          "internalType": "uint256",
          "name": "difficulty",
          "type": "uint256"
        }
      ],
      "stateMutability": "view",
      "type": "function"
    },
    {
      "inputs": [],
      "name": "getCurrentBlockGasLimit",
      "outputs": [
        {
          "internalType": "uint256",
          "name": "gaslimit",
          "type": "uint256"
        }
      ],
      "stateMutability": "view",
      "type": "function"
    },
    {
      "inputs": [],
      "name": "getCurrentBlockTimestamp",
      "outputs": [
        {
          "internalType": "uint256",
          "name": "timestamp",
          "type": "uint256"
        }
      ],
      "stateMutability": "view",
      "type": "function"
    },
    {
      "inputs": [
        {
          "internalType": "address",
          "name": "_addr",
          "type": "address"
        }
      ],
      "name": "getEthBalance",
      "outputs": [
        {
          "internalType": "uint256",
          "name": "balance",
          "type": "uint256"
        }
      ],
      "stateMutability": "view",
      "type": "function"
    },
    {
      "inputs": [],
      "name": "getLastBlockHash",
      "outputs": [
        {
          "internalType": "bytes32",
          "name": "blockHash",
          "type": "bytes32"
        }
      ],
      "stateMutability": "view",
      "type": "function"
    },
    {
      "inputs": [
        {
          "components": [
            {
              "internalType": "uint256",
              "name": "tokenId",
              "type": "uint256"
            },
            {
              "internalType": "uint256",
              "name": "liquidity",
              "type": "uint256"
            },
            {
              "internalType": "uint256",
              "name": "deadline",
              "type": "uint256"
            }
          ],
          "internalType": "struct INonfungiblePositionManager.IncreaseLiquidityParams",
          "name": "_params",
          "type": "tuple"
        }
      ],
      "name": "increaseLiquidity",
      "outputs": [],
      "stateMutability": "payable",
      "type": "function"
    },
    {
      "inputs": [
        {
          "internalType": "address",
          "name": "owner",
          "type": "address"
        },
        {
          "internalType": "address",
          "name": "operator",
          "type": "address"
        }
      ],
      "name": "isApprovedForAll",
      "outputs": [
        {
          "internalType": "bool",
          "name": "",
          "type": "bool"
        }
      ],
      "stateMutability": "view",
      "type": "function"
    },
    {
      "inputs": [
        {
          "components": [
            {
              "internalType": "address",
              "name": "token",
              "type": "address"
            },
            {
              "internalType": "uint256",
              "name": "liquidity",
              "type": "uint256"
            },
            {
              "internalType": "address",
              "name": "to",
              "type": "address"
            },
            {
              "internalType": "uint256",
              "name": "deadline",
              "type": "uint256"
            }
          ],
          "internalType": "struct INonfungiblePositionManager.MintParams",
          "name": "_params",
          "type": "tuple"
        }
      ],
      "name": "mint",
      "outputs": [
        {
          "internalType": "uint256",
          "name": "tokenId",
          "type": "uint256"
        }
      ],
      "stateMutability": "payable",
      "type": "function"
    },
    {
      "inputs": [
        {
          "internalType": "address",
          "name": "_token",
          "type": "address"
        },
        {
          "internalType": "uint256",
          "name": "_liquidity",
          "type": "uint256"
        },
        {
          "internalType": "bytes",
          "name": "_data",
          "type": "bytes"
        }
      ],
      "name": "mintCallback",
      "outputs": [],
      "stateMutability": "nonpayable",
      "type": "function"
    },
    {
      "inputs": [],
      "name": "name",
      "outputs": [
        {
          "internalType": "string",
          "name": "",
          "type": "string"
        }
      ],
      "stateMutability": "view",
      "type": "function"
    },
    {
      "inputs": [
        {
          "internalType": "uint256",
          "name": "tokenId",
          "type": "uint256"
        }
      ],
      "name": "ownerOf",
      "outputs": [
        {
          "internalType": "address",
          "name": "",
          "type": "address"
        }
      ],
      "stateMutability": "view",
      "type": "function"
    },
    {
      "inputs": [
        {
          "internalType": "address",
          "name": "spender",
          "type": "address"
        },
        {
          "internalType": "uint256",
          "name": "tokenId",
          "type": "uint256"
        },
        {
          "internalType": "uint256",
          "name": "deadline",
          "type": "uint256"
        },
        {
          "internalType": "uint8",
          "name": "v",
          "type": "uint8"
        },
        {
          "internalType": "bytes32",
          "name": "r",
          "type": "bytes32"
        },
        {
          "internalType": "bytes32",
          "name": "s",
          "type": "bytes32"
        }
      ],
      "name": "permit",
      "outputs": [],
      "stateMutability": "payable",
      "type": "function"
    },
    {
      "inputs": [],
      "name": "poolDeployer",
      "outputs": [
        {
          "internalType": "address",
          "name": "",
          "type": "address"
        }
      ],
      "stateMutability": "view",
      "type": "function"
    },
    {
      "inputs": [
        {
          "internalType": "uint256",
          "name": "_tokenId",
          "type": "uint256"
        }
      ],
      "name": "positions",
      "outputs": [
        {
          "internalType": "uint96",
          "name": "nonce",
          "type": "uint96"
        },
        {
          "internalType": "address",
          "name": "operator",
          "type": "address"
        },
        {
          "internalType": "address",
          "name": "token",
          "type": "address"
        },
        {
          "internalType": "uint256",
          "name": "liquidity",
          "type": "uint256"
        },
        {
          "internalType": "uint256",
          "name": "claimableFee",
          "type": "uint256"
        }
      ],
      "stateMutability": "view",
      "type": "function"
    },
    {
      "inputs": [],
      "name": "refundETH",
      "outputs": [],
      "stateMutability": "payable",
      "type": "function"
    },
    {
      "inputs": [
        {
          "internalType": "address",
          "name": "from",
          "type": "address"
        },
        {
          "internalType": "address",
          "name": "to",
          "type": "address"
        },
        {
          "internalType": "uint256",
          "name": "tokenId",
          "type": "uint256"
        }
      ],
      "name": "safeTransferFrom",
      "outputs": [],
      "stateMutability": "nonpayable",
      "type": "function"
    },
    {
      "inputs": [
        {
          "internalType": "address",
          "name": "from",
          "type": "address"
        },
        {
          "internalType": "address",
          "name": "to",
          "type": "address"
        },
        {
          "internalType": "uint256",
          "name": "tokenId",
          "type": "uint256"
        },
        {
          "internalType": "bytes",
          "name": "data",
          "type": "bytes"
        }
      ],
      "name": "safeTransferFrom",
      "outputs": [],
      "stateMutability": "nonpayable",
      "type": "function"
    },
    {
      "inputs": [
        {
          "internalType": "address",
          "name": "token",
          "type": "address"
        },
        {
          "internalType": "uint256",
          "name": "value",
          "type": "uint256"
        },
        {
          "internalType": "uint256",
          "name": "deadline",
          "type": "uint256"
        },
        {
          "internalType": "uint8",
          "name": "v",
          "type": "uint8"
        },
        {
          "internalType": "bytes32",
          "name": "r",
          "type": "bytes32"
        },
        {
          "internalType": "bytes32",
          "name": "s",
          "type": "bytes32"
        }
      ],
      "name": "selfPermit",
      "outputs": [],
      "stateMutability": "payable",
      "type": "function"
    },
    {
      "inputs": [
        {
          "internalType": "address",
          "name": "token",
          "type": "address"
        },
        {
          "internalType": "uint256",
          "name": "nonce",
          "type": "uint256"
        },
        {
          "internalType": "uint256",
          "name": "expiry",
          "type": "uint256"
        },
        {
          "internalType": "uint8",
          "name": "v",
          "type": "uint8"
        },
        {
          "internalType": "bytes32",
          "name": "r",
          "type": "bytes32"
        },
        {
          "internalType": "bytes32",
          "name": "s",
          "type": "bytes32"
        }
      ],
      "name": "selfPermitAllowed",
      "outputs": [],
      "stateMutability": "payable",
      "type": "function"
    },
    {
      "inputs": [
        {
          "internalType": "address",
          "name": "token",
          "type": "address"
        },
        {
          "internalType": "uint256",
          "name": "nonce",
          "type": "uint256"
        },
        {
          "internalType": "uint256",
          "name": "expiry",
          "type": "uint256"
        },
        {
          "internalType": "uint8",
          "name": "v",
          "type": "uint8"
        },
        {
          "internalType": "bytes32",
          "name": "r",
          "type": "bytes32"
        },
        {
          "internalType": "bytes32",
          "name": "s",
          "type": "bytes32"
        }
      ],
      "name": "selfPermitAllowedIfNecessary",
      "outputs": [],
      "stateMutability": "payable",
      "type": "function"
    },
    {
      "inputs": [
        {
          "internalType": "address",
          "name": "token",
          "type": "address"
        },
        {
          "internalType": "uint256",
          "name": "value",
          "type": "uint256"
        },
        {
          "internalType": "uint256",
          "name": "deadline",
          "type": "uint256"
        },
        {
          "internalType": "uint8",
          "name": "v",
          "type": "uint8"
        },
        {
          "internalType": "bytes32",
          "name": "r",
          "type": "bytes32"
        },
        {
          "internalType": "bytes32",
          "name": "s",
          "type": "bytes32"
        }
      ],
      "name": "selfPermitIfNecessary",
      "outputs": [],
      "stateMutability": "payable",
      "type": "function"
    },
    {
      "inputs": [
        {
          "internalType": "address",
          "name": "operator",
          "type": "address"
        },
        {
          "internalType": "bool",
          "name": "approved",
          "type": "bool"
        }
      ],
      "name": "setApprovalForAll",
      "outputs": [],
      "stateMutability": "nonpayable",
      "type": "function"
    },
    {
      "inputs": [
        {
          "internalType": "address",
          "name": "_tokenDescriptor_",
          "type": "address"
        }
      ],
      "name": "setTokenDescriptor",
      "outputs": [],
      "stateMutability": "nonpayable",
      "type": "function"
    },
    {
      "inputs": [
        {
          "internalType": "bytes4",
          "name": "interfaceId",
          "type": "bytes4"
        }
      ],
      "name": "supportsInterface",
      "outputs": [
        {
          "internalType": "bool",
          "name": "",
          "type": "bool"
        }
      ],
      "stateMutability": "view",
      "type": "function"
    },
    {
      "inputs": [
        {
          "internalType": "address",
          "name": "token",
          "type": "address"
        },
        {
          "internalType": "uint256",
          "name": "amountMinimum",
          "type": "uint256"
        },
        {
          "internalType": "address",
          "name": "recipient",
          "type": "address"
        }
      ],
      "name": "sweepToken",
      "outputs": [],
      "stateMutability": "payable",
      "type": "function"
    },
    {
      "inputs": [],
      "name": "symbol",
      "outputs": [
        {
          "internalType": "string",
          "name": "",
          "type": "string"
        }
      ],
      "stateMutability": "view",
      "type": "function"
    },
    {
      "inputs": [
        {
          "internalType": "uint256",
          "name": "index",
          "type": "uint256"
        }
      ],
      "name": "tokenByIndex",
      "outputs": [
        {
          "internalType": "uint256",
          "name": "",
          "type": "uint256"
        }
      ],
      "stateMutability": "view",
      "type": "function"
    },
    {
      "inputs": [
        {
          "internalType": "address",
          "name": "owner",
          "type": "address"
        },
        {
          "internalType": "uint256",
          "name": "index",
          "type": "uint256"
        }
      ],
      "name": "tokenOfOwnerByIndex",
      "outputs": [
        {
          "internalType": "uint256",
          "name": "",
          "type": "uint256"
        }
      ],
      "stateMutability": "view",
      "type": "function"
    },
    {
      "inputs": [
        {
          "internalType": "uint256",
          "name": "_tokenId",
          "type": "uint256"
        }
      ],
      "name": "tokenURI",
      "outputs": [
        {
          "internalType": "string",
          "name": "",
          "type": "string"
        }
      ],
      "stateMutability": "view",
      "type": "function"
    },
    {
      "inputs": [],
      "name": "totalSupply",
      "outputs": [
        {
          "internalType": "uint256",
          "name": "",
          "type": "uint256"
        }
      ],
      "stateMutability": "view",
      "type": "function"
    },
    {
      "inputs": [
        {
          "internalType": "address",
          "name": "from",
          "type": "address"
        },
        {
          "internalType": "address",
          "name": "to",
          "type": "address"
        },
        {
          "internalType": "uint256",
          "name": "tokenId",
          "type": "uint256"
        }
      ],
      "name": "transferFrom",
      "outputs": [],
      "stateMutability": "nonpayable",
      "type": "function"
    },
    {
      "inputs": [
        {
          "internalType": "bool",
          "name": "_requireSuccess",
          "type": "bool"
        },
        {
          "components": [
            {
              "internalType": "address",
              "name": "target",
              "type": "address"
            },
            {
              "internalType": "bytes",
              "name": "callData",
              "type": "bytes"
            }
          ],
          "internalType": "struct Multicall.Call[]",
          "name": "_calls",
          "type": "tuple[]"
        }
      ],
      "name": "tryAggregate",
      "outputs": [
        {
          "components": [
            {
              "internalType": "bool",
              "name": "success",
              "type": "bool"
            },
            {
              "internalType": "bytes",
              "name": "returnData",
              "type": "bytes"
            }
          ],
          "internalType": "struct Multicall.Result[]",
          "name": "returnData",
          "type": "tuple[]"
        }
      ],
      "stateMutability": "nonpayable",
      "type": "function"
    },
    {
      "inputs": [
        {
          "internalType": "bool",
          "name": "_requireSuccess",
          "type": "bool"
        },
        {
          "components": [
            {
              "internalType": "address",
              "name": "target",
              "type": "address"
            },
            {
              "internalType": "bytes",
              "name": "callData",
              "type": "bytes"
            }
          ],
          "internalType": "struct Multicall.Call[]",
          "name": "_calls",
          "type": "tuple[]"
        }
      ],
      "name": "tryBlockAndAggregate",
      "outputs": [
        {
          "internalType": "uint256",
          "name": "blockNumber",
          "type": "uint256"
        },
        {
          "internalType": "bytes32",
          "name": "blockHash",
          "type": "bytes32"
        },
        {
          "components": [
            {
              "internalType": "bool",
              "name": "success",
              "type": "bool"
            },
            {
              "internalType": "bytes",
              "name": "returnData",
              "type": "bytes"
            }
          ],
          "internalType": "struct Multicall.Result[]",
          "name": "returnData",
          "type": "tuple[]"
        }
      ],
      "stateMutability": "nonpayable",
      "type": "function"
    },
    {
      "inputs": [
        {
          "internalType": "uint256",
          "name": "amountMinimum",
          "type": "uint256"
        },
        {
          "internalType": "address",
          "name": "recipient",
          "type": "address"
        }
      ],
      "name": "unwrapWETH9",
      "outputs": [],
      "stateMutability": "payable",
      "type": "function"
    },
    {
      "stateMutability": "payable",
      "type": "receive"
    }
  ],
  "bytecode": "0x610120604052760100000000000000000000000000000000000000000001600d553480156200002d57600080fd5b5060405162004e9038038062004e908339810160408190526200005091620002c5565b82826040518060400160405280601981526020017f546976656c20563120506f736974696f6e73204e46542d5631000000000000008152506040518060400160405280600c81526020016b544956454c2d56312d504f5360a01b815250604051806040016040528060018152602001603160f81b81525082828160009080519060200190620000e1929190620001dd565b508051620000f7906001906020840190620001dd565b505083516020948501206080525080519083012060a052506001600160601b0319606084811b821660c05283901b1660e0526040805163188c824d60e11b815290516001600160a01b03851692633119049a9260048082019391829003018186803b1580156200016657600080fd5b505afa1580156200017b573d6000803e3d6000fd5b505050506040513d601f19601f82011682018060405250810190620001a19190620002a0565b60601b6001600160601b031916610100525050600e80546001600160a01b0319166001600160a01b0392909216919091179055506200034c9050565b828054620001eb906200030f565b90600052602060002090601f0160209004810192826200020f57600085556200025a565b82601f106200022a57805160ff19168380011785556200025a565b828001600101855582156200025a579182015b828111156200025a5782518255916020019190600101906200023d565b50620002689291506200026c565b5090565b5b808211156200026857600081556001016200026d565b80516001600160a01b03811681146200029b57600080fd5b919050565b600060208284031215620002b357600080fd5b620002be8262000283565b9392505050565b600080600060608486031215620002db57600080fd5b620002e68462000283565b9250620002f66020850162000283565b9150620003066040850162000283565b90509250925092565b600181811c908216806200032457607f821691505b602082108114156200034657634e487b7160e01b600052602260045260246000fd5b50919050565b60805160a05160c05160601c60e05160601c6101005160601c614a9b620003f560003960008181610514015281816109c30152818161176201528181611a7201528181612539015281816131f601526133040152600081816102dd015281816105f8015281816110c4015281816111a901528181612a7c01528181612ac20152612b5701526000818161087a0152611c9801526000610ed301526000610eb20152614a9b6000f3fe6080604052600436106102cd5760003560e01c806370a0823111610175578063bce38bd7116100dc578063d1e8717911610095578063e985e9c51161006f578063e985e9c5146108f5578063ee82ac5e1461093e578063ee9c0bf51461095d578063f3995c671461097057600080fd5b8063d1e87179146108bc578063df2ab5bb146108cf578063e16a4913146108e257600080fd5b8063bce38bd7146107f5578063bea4bc3214610822578063c2e3140a14610835578063c3077fa914610848578063c45a015514610868578063c87b56dd1461089c57600080fd5b806399fbab881161012e57806399fbab8814610710578063a22cb4651461076f578063a4a78f0c1461078f578063a8b0574e146107a2578063b6dc7ea3146107b5578063b88d4fde146107d557600080fd5b806370a082311461068257806372425d9d146106a25780637ac2ff7b146106b557806386d516e8146106c85780638c5991fe146106db57806395d89b41146106fb57600080fd5b806330adf81f1161023457806342cbb15c116101ed5780634aa4a4fc116101c75780634aa4a4fc146105e65780634d2301cc1461061a5780634f6ccce7146106425780636352211e1461066257600080fd5b806342cbb15c146105ad5780634659a494146105c057806349404b7c146105d357600080fd5b806330adf81f146104ce5780633119049a146105025780633644e51514610536578063399542e91461054b57806342842e0e1461057a57806342966c681461059a57600080fd5b806312210e8a1161028657806312210e8a1461042e57806318160ddd1461043657806323b872dd1461044b578063252dba421461046b57806327e86d6e146104995780632f745c59146104ae57600080fd5b806301ffc9a71461034257806303a3bcd71461037757806306fdde0314610397578063081812fc146103b9578063095ea7b3146103f15780630f28c97d1461041157600080fd5b3661033d57336001600160a01b037f0000000000000000000000000000000000000000000000000000000000000000161461033b5760405162461bcd60e51b81526020600482015260096024820152684e6f7420574554483960b81b60448201526064015b60405180910390fd5b005b600080fd5b34801561034e57600080fd5b5061036261035d366004614295565b610983565b60405190151581526020015b60405180910390f35b34801561038357600080fd5b5061033b610392366004614138565b6109ae565b3480156103a357600080fd5b506103ac610a0a565b60405161036e91906145f0565b3480156103c557600080fd5b506103d96103d436600461440b565b610a9c565b6040516001600160a01b03909116815260200161036e565b3480156103fd57600080fd5b5061033b61040c3660046140ca565b610b38565b34801561041d57600080fd5b50425b60405190815260200161036e565b61033b610c4e565b34801561044257600080fd5b50600854610420565b34801561045757600080fd5b5061033b610466366004613ff0565b610c60565b34801561047757600080fd5b5061048b6104863660046141f5565b610c91565b60405161036e929190614737565b3480156104a557600080fd5b50610420610de4565b3480156104ba57600080fd5b506104206104c93660046140ca565b610df7565b3480156104da57600080fd5b506104207f49ecf333e5b8c95c40fdafc95c1ad136e8914a8fb55e9dc8bb01eaa83a2df9ad81565b34801561050e57600080fd5b506103d97f000000000000000000000000000000000000000000000000000000000000000081565b34801561054257600080fd5b50610420610e8d565b34801561055757600080fd5b5061056b610566366004614246565b610f33565b60405161036e939291906147a1565b34801561058657600080fd5b5061033b610595366004613ff0565b610f4b565b61033b6105a836600461440b565b610f66565b3480156105b957600080fd5b5043610420565b61033b6105ce366004614193565b611017565b61033b6105e136600461443d565b6110ac565b3480156105f257600080fd5b506103d97f000000000000000000000000000000000000000000000000000000000000000081565b34801561062657600080fd5b50610420610635366004613f76565b6001600160a01b03163190565b34801561064e57600080fd5b5061042061065d36600461440b565b611217565b34801561066e57600080fd5b506103d961067d36600461440b565b6112aa565b34801561068e57600080fd5b5061042061069d366004613f76565b61130f565b3480156106ae57600080fd5b5044610420565b61033b6106c3366004614193565b611395565b3480156106d457600080fd5b5045610420565b3480156106e757600080fd5b5061033b6106f6366004614462565b611737565b34801561070757600080fd5b506103ac6119a8565b34801561071c57600080fd5b5061073061072b36600461440b565b6119b7565b604080516001600160601b039690961686526001600160a01b03948516602087015292909316918401919091526060830152608082015260a00161036e565b34801561077b57600080fd5b5061033b61078a36600461409c565b611bea565b61033b61079d366004614193565b611bf9565b3480156107ae57600080fd5b50416103d9565b3480156107c157600080fd5b5061033b6107d0366004613f76565b611c96565b3480156107e157600080fd5b5061033b6107f0366004614031565b611d7c565b34801561080157600080fd5b50610815610810366004614246565b611db4565b60405161036e91906145c4565b61033b61083036600461437f565b611f39565b61033b610843366004614193565b61216a565b34801561085457600080fd5b5061056b6108633660046141f5565b6121fd565b34801561087457600080fd5b506103d97f000000000000000000000000000000000000000000000000000000000000000081565b3480156108a857600080fd5b506103ac6108b736600461440b565b61221a565b6104206108ca366004614345565b6122c4565b61033b6108dd3660046140f6565b612390565b61033b6108f036600461437f565b612462565b34801561090157600080fd5b50610362610910366004613fb7565b6001600160a01b03918216600090815260056020908152604080832093909416825291909152205460ff1690565b34801561094a57600080fd5b5061042061095936600461440b565b4090565b61042061096b3660046143f9565b612684565b61033b61097e366004614193565b6129b0565b60006001600160e01b0319821663780e9d6360e01b14806109a857506109a882612a07565b92915050565b60006109bc8284018461439b565b90506109ec7f00000000000000000000000000000000000000000000000000000000000000008260000151612a57565b508315610a0357610a038582602001513387612a7a565b5050505050565b606060008054610a1990614924565b80601f0160208091040260200160405190810160405280929190818152602001828054610a4590614924565b8015610a925780601f10610a6757610100808354040283529160200191610a92565b820191906000526020600020905b815481529060010190602001808311610a7557829003601f168201915b5050505050905090565b6000818152600260205260408120546001600160a01b0316610b155760405162461bcd60e51b815260206004820152602c60248201527f4552433732313a20617070726f76656420717565727920666f72206e6f6e657860448201526b34b9ba32b73a103a37b5b2b760a11b6064820152608401610332565b506000908152600c6020526040902054600160601b90046001600160a01b031690565b6000610b43826112aa565b9050806001600160a01b0316836001600160a01b03161415610bb15760405162461bcd60e51b815260206004820152602160248201527f4552433732313a20617070726f76616c20746f2063757272656e74206f776e656044820152603960f91b6064820152608401610332565b336001600160a01b0382161480610bcd5750610bcd8133610910565b610c3f5760405162461bcd60e51b815260206004820152603d60248201527f4552433732313a20617070726f76652063616c6c6572206973206e6f7420746f60448201527f6b656e206f776e6572206f7220617070726f76656420666f7220616c6c0000006064820152608401610332565b610c498383612c0a565b505050565b4715610c5e57610c5e3347612c80565b565b610c6a3382612d5a565b610c865760405162461bcd60e51b815260040161033290614603565b610c49838383612dd9565b805143906060906001600160401b03811115610caf57610caf614a13565b604051908082528060200260200182016040528015610ce257816020015b6060815260200190600190039081610ccd5790505b50905060005b8351811015610dde57600080858381518110610d0657610d066149fd565b6020026020010151600001516001600160a01b0316868481518110610d2d57610d2d6149fd565b602002602001015160200151604051610d469190614544565b6000604051808303816000865af19150503d8060008114610d83576040519150601f19603f3d011682016040523d82523d6000602084013e610d88565b606091505b509150915081610dab57604051635a2593e760e11b815260040160405180910390fd5b80848481518110610dbe57610dbe6149fd565b602002602001018190525050508080610dd690614980565b915050610ce8565b50915091565b6000610df16001436148e1565b40905090565b6000610e028361130f565b8210610e645760405162461bcd60e51b815260206004820152602b60248201527f455243373231456e756d657261626c653a206f776e657220696e646578206f7560448201526a74206f6620626f756e647360a81b6064820152608401610332565b506001600160a01b03919091166000908152600660209081526040808320938352929052205490565b60007f8b73c3c69bb8fe3d512ecc4cf759cc79239f7b179b0ffacaa9a75d522b39400f7f00000000000000000000000000000000000000000000000000000000000000007f000000000000000000000000000000000000000000000000000000000000000046604080516020810195909552840192909252606083015260808201523060a082015260c00160405160208183030381529060405280519060200120905090565b4380406060610f428585611db4565b90509250925092565b610c4983838360405180602001604052806000815250611d7c565b80610f713382612d5a565b610f8d5760405162461bcd60e51b8152600401610332906146e7565b6000828152600c602052604090206002810154151580610fb1575060008160040154115b15610fd25760405163fc8d5c0d60e01b815260048101849052602401610332565b6000838152600c602052604081208181556001810180546001600160f01b031916905560028101829055600381018290556004810182905560050155610c4983612f4a565b6040516323f2ebc360e21b815233600482015230602482015260448101869052606481018590526001608482015260ff841660a482015260c4810183905260e481018290526001600160a01b03871690638fcbaf0c90610104015b600060405180830381600087803b15801561108c57600080fd5b505af11580156110a0573d6000803e3d6000fd5b50505050505050505050565b6040516370a0823160e01b81523060048201526000907f00000000000000000000000000000000000000000000000000000000000000006001600160a01b0316906370a082319060240160206040518083038186803b15801561110e57600080fd5b505afa158015611122573d6000803e3d6000fd5b505050506040513d601f19601f820116820180604052508101906111469190614424565b90508281101561118d5760405162461bcd60e51b8152602060048201526012602482015271496e73756666696369656e7420574554483960701b6044820152606401610332565b8015610c4957604051632e1a7d4d60e01b8152600481018290527f00000000000000000000000000000000000000000000000000000000000000006001600160a01b031690632e1a7d4d90602401600060405180830381600087803b1580156111f557600080fd5b505af1158015611209573d6000803e3d6000fd5b50505050610c498282612c80565b600061122260085490565b82106112855760405162461bcd60e51b815260206004820152602c60248201527f455243373231456e756d657261626c653a20676c6f62616c20696e646578206f60448201526b7574206f6620626f756e647360a01b6064820152608401610332565b60088281548110611298576112986149fd565b90600052602060002001549050919050565b6000818152600260205260408120546001600160a01b0316806109a85760405162461bcd60e51b815260206004820152601860248201527f4552433732313a20696e76616c696420746f6b656e20494400000000000000006044820152606401610332565b60006001600160a01b0382166113795760405162461bcd60e51b815260206004820152602960248201527f4552433732313a2061646472657373207a65726f206973206e6f7420612076616044820152683634b21037bbb732b960b91b6064820152608401610332565b506001600160a01b031660009081526003602052604090205490565b834211156113d65760405162461bcd60e51b815260206004820152600e60248201526d14195c9b5a5d08195e1c1a5c995960921b6044820152606401610332565b60006113e0610e8d565b7f49ecf333e5b8c95c40fdafc95c1ad136e8914a8fb55e9dc8bb01eaa83a2df9ad888861140c81612fed565b6040805160208101959095526001600160a01b03909316928401929092526060830152608082015260a0810187905260c0016040516020818303038152906040528051906020012060405160200161147b92919061190160f01b81526002810192909252602282015260420190565b604051602081830303815290604052805190602001209050600061149e876112aa565b9050806001600160a01b0316886001600160a01b031614156115125760405162461bcd60e51b815260206004820152602760248201527f4552433732315065726d69743a20617070726f76616c20746f2063757272656e6044820152663a1037bbb732b960c91b6064820152608401610332565b6001600160a01b0381163b1561162657604080516020810186905280820185905260f887901b6001600160f81b0319166060820152815160418183030181526061820192839052630b135d3f60e11b9092526001600160a01b03831691631626ba7e916115839186916065016145d7565b60206040518083038186803b15801561159b57600080fd5b505afa1580156115af573d6000803e3d6000fd5b505050506040513d601f19601f820116820180604052508101906115d391906142b2565b6001600160e01b031916631626ba7e60e01b146116215760405162461bcd60e51b815260206004820152600c60248201526b155b985d5d1a1bdc9a5e995960a21b6044820152606401610332565b611723565b6040805160008082526020820180845285905260ff881692820192909252606081018690526080810185905260019060a0016020604051602081039080840390855afa15801561167a573d6000803e3d6000fd5b5050604051601f1901519150506001600160a01b0381166116d15760405162461bcd60e51b8152602060048201526011602482015270496e76616c6964207369676e617475726560781b6044820152606401610332565b816001600160a01b0316816001600160a01b0316146117215760405162461bcd60e51b815260206004820152600c60248201526b155b985d5d1a1bdc9a5e995960a21b6044820152606401610332565b505b61172d8888612c0a565b5050505050505050565b60006117458284018461440b565b6000818152600c60205260409020600181015491925090611797907f000000000000000000000000000000000000000000000000000000000000000090600160501b90046001600160a01b0316612a57565b5084816005015410156117bd5760405163bb2875c360e01b815260040160405180910390fd5b60003390506000816001600160a01b031663dd3b829a6040518163ffffffff1660e01b815260040160206040518083038186803b1580156117fd57600080fd5b505afa158015611811573d6000803e3d6000fd5b505050506040513d601f19601f820116820180604052508101906118359190614424565b90506000826001600160a01b031663d3b5dc3b6040518163ffffffff1660e01b815260040160206040518083038186803b15801561187257600080fd5b505afa158015611886573d6000803e3d6000fd5b505050506040513d601f19601f820116820180604052508101906118aa9190614424565b6002850154909150156118fa578360030154818560020154846118cd91906148c2565b6118d791906148a0565b6118e191906148e1565b8460040160008282546118f49190614888565b90915550505b8784600201600082825461190e91906148e1565b925050819055508784600501600082825461192991906148e1565b90915550506002840154819061193f90846148c2565b61194991906148a0565b6003850155600184015460408051600160501b9092046001600160a01b03168252602082018a905286917f563fd0a02f25ba703cd9fc54d96ec144ba042fd3e19bec36ac522a953ea4152a910160405180910390a25050505050505050565b606060018054610a1990614924565b6000818152600c6020908152604080832081516101008101835281546001600160601b03811682526001600160a01b03600160601b90910481169482019490945260018201546001600160501b038116938201849052600160501b9004909316606084015260028101546080840152600381015460a0840152600481015460c08401526005015460e08301528291829182918291611a6b5760405163b7c882eb60e01b815260048101889052602401610332565b6000611a9b7f00000000000000000000000000000000000000000000000000000000000000008360600151613045565b90506000816001600160a01b031663dd3b829a6040518163ffffffff1660e01b815260040160206040518083038186803b158015611ad857600080fd5b505afa158015611aec573d6000803e3d6000fd5b505050506040513d601f19601f82011682018060405250810190611b109190614424565b90506000826001600160a01b031663d3b5dc3b6040518163ffffffff1660e01b815260040160206040518083038186803b158015611b4d57600080fd5b505afa158015611b61573d6000803e3d6000fd5b505050506040513d601f19601f82011682018060405250810190611b859190614424565b905060008460a0015182866080015185611b9f91906148c2565b611ba991906148a0565b8660c00151611bb89190614888565b611bc291906148e1565b855160208701516060880151608090980151919e909d50969b50995097509395505050505050565b611bf53383836130ec565b5050565b604051636eb1769f60e11b8152336004820152306024820152600019906001600160a01b0388169063dd62ed3e9060440160206040518083038186803b158015611c4257600080fd5b505afa158015611c56573d6000803e3d6000fd5b505050506040513d601f19601f82011682018060405250810190611c7a9190614424565b1015611c8e57611c8e868686868686611017565b505050505050565b7f00000000000000000000000000000000000000000000000000000000000000006001600160a01b031663481c6a756040518163ffffffff1660e01b815260040160206040518083038186803b158015611cef57600080fd5b505afa158015611d03573d6000803e3d6000fd5b505050506040513d601f19601f82011682018060405250810190611d279190613f9a565b6001600160a01b0316336001600160a01b031614611d5a5760405163a59d7f4d60e01b8152336004820152602401610332565b600e80546001600160a01b0319166001600160a01b0392909216919091179055565b611d863383612d5a565b611da25760405162461bcd60e51b815260040161033290614603565b611dae848484846131bb565b50505050565b606081516001600160401b03811115611dcf57611dcf614a13565b604051908082528060200260200182016040528015611e1557816020015b604080518082019091526000815260606020820152815260200190600190039081611ded5790505b50905060005b8251811015611f3257600080848381518110611e3957611e396149fd565b6020026020010151600001516001600160a01b0316858481518110611e6057611e606149fd565b602002602001015160200151604051611e799190614544565b6000604051808303816000865af19150503d8060008114611eb6576040519150601f19603f3d011682016040523d82523d6000602084013e611ebb565b606091505b5091509150858015611ecb575081155b15611ee957604051632b00ce6b60e21b815260040160405180910390fd5b6040518060400160405280831515815260200182815250848481518110611f1257611f126149fd565b602002602001018190525050508080611f2a90614980565b915050611e1b565b5092915050565b604081013580421115611f5f57604051632a0c45bf60e21b815260040160405180910390fd5b81356000908152600c6020908152604082206001810154909291611f9791600160501b90046001600160a01b031690860135306131ee565b90506000816001600160a01b031663dd3b829a6040518163ffffffff1660e01b815260040160206040518083038186803b158015611fd457600080fd5b505afa158015611fe8573d6000803e3d6000fd5b505050506040513d601f19601f8201168201806040525081019061200c9190614424565b90506000826001600160a01b031663d3b5dc3b6040518163ffffffff1660e01b815260040160206040518083038186803b15801561204957600080fd5b505afa15801561205d573d6000803e3d6000fd5b505050506040513d601f19601f820116820180604052508101906120819190614424565b6002850154909150156120d1578360030154818560020154846120a491906148c2565b6120ae91906148a0565b6120b891906148e1565b8460040160008282546120cb9190614888565b90915550505b85602001358460020160008282546120e99190614888565b9091555050600284015481906120ff90846148c2565b61210991906148a0565b6003850155600184015460408051600160501b9092046001600160a01b03168252602080890135908301528735917f2922b9b0ae5d2abc66874bb99d7d6de95267b6d664000d8ae4797af6060be68a910160405180910390a2505050505050565b604051636eb1769f60e11b815233600482015230602482015285906001600160a01b0388169063dd62ed3e9060440160206040518083038186803b1580156121b157600080fd5b505afa1580156121c5573d6000803e3d6000fd5b505050506040513d601f19601f820116820180604052508101906121e99190614424565b1015611c8e57611c8e8686868686866129b0565b600080606061220d600185610f33565b9196909550909350915050565b6000818152600260205260409020546060906001600160a01b031661223e57600080fd5b600e5460405163e9dc637560e01b8152306004820152602481018490526001600160a01b039091169063e9dc63759060440160006040518083038186803b15801561228857600080fd5b505afa15801561229c573d6000803e3d6000fd5b505050506040513d6000823e601f3d908101601f191682016040526109a891908101906142cf565b60006122d082806147c0565b151590506122f15760405163a600c81d60e01b815260040160405180910390fd5b6000806123046040850160208601613f76565b6001600160a01b031614612327576123226040840160208501613f76565b612329565b305b905060005b61233884806147c0565b90508110156123895761236b61234e85806147c0565b8381811061235e5761235e6149fd565b90506020020135836132bf565b6123759084614888565b92508061238181614980565b91505061232e565b5050919050565b6040516370a0823160e01b81523060048201526000906001600160a01b038516906370a082319060240160206040518083038186803b1580156123d257600080fd5b505afa1580156123e6573d6000803e3d6000fd5b505050506040513d601f19601f8201168201806040525081019061240a9190614424565b9050828110156124515760405162461bcd60e51b815260206004820152601260248201527124b739bab33334b1b4b2b73a103a37b5b2b760711b6044820152606401610332565b8015611dae57611dae848383613557565b803561246e3382612d5a565b61248a5760405162461bcd60e51b8152600401610332906146e7565b6040820135804211156124b057604051632a0c45bf60e21b815260040160405180910390fd5b60008360200135116124c157600080fd5b82356000908152600c6020908152604090912060028101546005820154919290916124ee91870135614888565b81101561250e5760405163bb2875c360e01b815260040160405180910390fd5b84602001358260050160008282546125269190614888565b9091555050600182015460009061256e907f000000000000000000000000000000000000000000000000000000000000000090600160501b90046001600160a01b0316613045565b90506000816001600160a01b031663653741ff8860200135338a6000013560405160200161259e91815260200190565b6040516020818303038152906040526040518463ffffffff1660e01b81526004016125cb9392919061470d565b602060405180830381600087803b1580156125e557600080fd5b505af11580156125f9573d6000803e3d6000fd5b505050506040513d601f19601f8201168201806040525081019061261d9190614424565b600185015460408051600160501b9092046001600160a01b0316825260208a8101359083015281018290529091508735907f1f9e6f7cc4cf614490984d1581bb2b2280b0394202e12fbf8b435e47e4997f109060600160405180910390a250505050505050565b60006060820135804211156126ac57604051632a0c45bf60e21b815260040160405180910390fd5b60006126c96126be6020860186613f76565b8560200135306131ee565b905061272c6126de6060860160408701613f76565b600d80546001600160b01b03169060006126f783614959565b91906101000a8154816001600160b01b0302191690836001600160b01b031602179055506001600160b01b0316945084613681565b6000816001600160a01b031663dd3b829a6040518163ffffffff1660e01b815260040160206040518083038186803b15801561276757600080fd5b505afa15801561277b573d6000803e3d6000fd5b505050506040513d601f19601f8201168201806040525081019061279f9190614424565b90506000826001600160a01b031663d3b5dc3b6040518163ffffffff1660e01b815260040160206040518083038186803b1580156127dc57600080fd5b505afa1580156127f0573d6000803e3d6000fd5b505050506040513d601f19601f820116820180604052508101906128149190614424565b90506000816128276020890135856148c2565b61283191906148a0565b9050600061284b8561284660208b018b613f76565b61381a565b905060405180610100016040528060006001600160601b0316815260200160006001600160a01b03168152602001826001600160501b0316815260200189600001602081019061289b9190613f76565b6001600160a01b03908116825260208b810180358285015260408085018890526000606080870182905260809687018290528e8252600c8552908290208751948801518616600160601b026001600160601b039095169490941784559086015160018401805492880151909516600160501b026001600160f01b03199092166001600160501b03909116171790925591830151600283015560a0830151600383015560c0830151600483015560e09092015160059091015587907f2922b9b0ae5d2abc66874bb99d7d6de95267b6d664000d8ae4797af6060be68a90612981908b613f76565b604080516001600160a01b0390921682526020808d0135908301520160405180910390a2505050505050919050565b60405163d505accf60e01b8152336004820152306024820152604481018690526064810185905260ff8416608482015260a4810183905260c481018290526001600160a01b0387169063d505accf9060e401611072565b60006001600160e01b031982166380ac58cd60e01b1480612a3857506001600160e01b03198216635b5e139f60e01b145b806109a857506301ffc9a760e01b6001600160e01b03198316146109a8565b6000612a638383613045565b9050336001600160a01b038216146109a857600080fd5b7f00000000000000000000000000000000000000000000000000000000000000006001600160a01b0316846001600160a01b0316148015612abb5750804710155b15612bdd577f00000000000000000000000000000000000000000000000000000000000000006001600160a01b031663d0e30db0826040518263ffffffff1660e01b81526004016000604051808303818588803b158015612b1b57600080fd5b505af1158015612b2f573d6000803e3d6000fd5b505060405163a9059cbb60e01b81526001600160a01b038681166004830152602482018690527f000000000000000000000000000000000000000000000000000000000000000016935063a9059cbb92506044019050602060405180830381600087803b158015612b9f57600080fd5b505af1158015612bb3573d6000803e3d6000fd5b505050506040513d601f19601f82011682018060405250810190612bd79190614229565b50611dae565b6001600160a01b038316301415612bfe57612bf9848383613557565b611dae565b611dae848484846138d8565b6000818152600c6020526040902080546001600160601b0316600160601b6001600160a01b038516908102919091179091558190612c47826112aa565b6001600160a01b03167f8c5be1e5ebec7d5bd14f71427d1e84f3dd0314c0f7b2291e5b200ac8c7c3b92560405160405180910390a45050565b604080516000808252602082019092526001600160a01b038416908390604051612caa9190614544565b60006040518083038185875af1925050503d8060008114612ce7576040519150601f19603f3d011682016040523d82523d6000602084013e612cec565b606091505b5050905080610c495760405162461bcd60e51b815260206004820152603460248201527f5472616e7366657248656c7065723a3a736166655472616e736665724554483a60448201527308115512081d1c985b9cd9995c8819985a5b195960621b6064820152608401610332565b600080612d66836112aa565b9050806001600160a01b0316846001600160a01b03161480612dad57506001600160a01b0380821660009081526005602090815260408083209388168352929052205460ff165b80612dd15750836001600160a01b0316612dc684610a9c565b6001600160a01b0316145b949350505050565b826001600160a01b0316612dec826112aa565b6001600160a01b031614612e125760405162461bcd60e51b8152600401610332906146a2565b6001600160a01b038216612e745760405162461bcd60e51b8152602060048201526024808201527f4552433732313a207472616e7366657220746f20746865207a65726f206164646044820152637265737360e01b6064820152608401610332565b612e818383836001613a0e565b826001600160a01b0316612e94826112aa565b6001600160a01b031614612eba5760405162461bcd60e51b8152600401610332906146a2565b600081815260046020908152604080832080546001600160a01b03199081169091556001600160a01b0387811680865260038552838620805460001901905590871680865283862080546001019055868652600290945282852080549092168417909155905184937fddf252ad1be2c89b69c2b068fc378daa952ba7f163c4a11628f55a4df523b3ef91a4505050565b6000612f55826112aa565b9050612f65816000846001613a0e565b612f6e826112aa565b600083815260046020908152604080832080546001600160a01b03199081169091556001600160a01b0385168085526003845282852080546000190190558785526002909352818420805490911690555192935084927fddf252ad1be2c89b69c2b068fc378daa952ba7f163c4a11628f55a4df523b3ef908390a45050565b6000818152600c6020526040812080546001600160601b03169082613011836149b8565b91906101000a8154816001600160601b0302191690836001600160601b031602179055506001600160601b03169050919050565b604080516001600160a01b03831660208083019190915282518083038201815282840190935282519201919091206001600160f81b031960608084019190915284901b6bffffffffffffffffffffffff1916606183015260758201527f5d5042c6f18fddfd115258692fd1791bd001ac84854ff0ae0ec27cbf2c2a40aa609582015260009060b50160408051601f1981840301815291905280516020909101209392505050565b816001600160a01b0316836001600160a01b0316141561314e5760405162461bcd60e51b815260206004820152601960248201527f4552433732313a20617070726f766520746f2063616c6c6572000000000000006044820152606401610332565b6001600160a01b03838116600081815260056020908152604080832094871680845294825291829020805460ff191686151590811790915591519182527f17307eab39ab6107e8899845ad3d59bd9653f200f220920489ca2b5937696c31910160405180910390a3505050565b6131c6848484612dd9565b6131d284848484613b3b565b611dae5760405162461bcd60e51b815260040161033290614650565b60008061321b7f000000000000000000000000000000000000000000000000000000000000000086613045565b6040805180820182526001600160a01b038881168083523360209384019081528451938401919091525181168284015282518083038401815260608301938490526394d008ef60e01b909352929350918316916394d008ef91613284918791899160640161459d565b600060405180830381600087803b15801561329e57600080fd5b505af11580156132b2573d6000803e3d6000fd5b5092979650505050505050565b6000826132cc3382612d5a565b6132e85760405162461bcd60e51b8152600401610332906146e7565b6000848152600c602052604081206001810154909190613339907f000000000000000000000000000000000000000000000000000000000000000090600160501b90046001600160a01b0316613045565b90506000816001600160a01b031663dd3b829a6040518163ffffffff1660e01b815260040160206040518083038186803b15801561337657600080fd5b505afa15801561338a573d6000803e3d6000fd5b505050506040513d601f19601f820116820180604052508101906133ae9190614424565b90506000826001600160a01b031663d3b5dc3b6040518163ffffffff1660e01b815260040160206040518083038186803b1580156133eb57600080fd5b505afa1580156133ff573d6000803e3d6000fd5b505050506040513d601f19601f820116820180604052508101906134239190614424565b6002850154909150156134735783600301548185600201548461344691906148c2565b61345091906148a0565b61345a91906148e1565b84600401600082825461346d9190614888565b90915550505b8084600201548361348491906148c2565b61348e91906148a0565b6003850155600480850154604051631ae0d5eb60e21b81526001600160a01b038a8116938201939093526024810182905290975090841690636b8357ac90604401600060405180830381600087803b1580156134e957600080fd5b505af11580156134fd573d6000803e3d6000fd5b5050600060048701555050604080516001600160a01b03891681526020810188905289917fb4c637563739b8b888009831a973a33b8232d71a9ff716b9d41d1f38bfd76b6a910160405180910390a2505050505092915050565b604080516001600160a01b038481166024830152604480830185905283518084039091018152606490920183526020820180516001600160e01b031663a9059cbb60e01b17905291516000928392908716916135b39190614544565b6000604051808303816000865af19150503d80600081146135f0576040519150601f19603f3d011682016040523d82523d6000602084013e6135f5565b606091505b509150915081801561361f57508051158061361f57508080602001905181019061361f9190614229565b610a035760405162461bcd60e51b815260206004820152602d60248201527f5472616e7366657248656c7065723a3a736166655472616e736665723a20747260448201526c185b9cd9995c8819985a5b1959609a1b6064820152608401610332565b6001600160a01b0382166136d75760405162461bcd60e51b815260206004820181905260248201527f4552433732313a206d696e7420746f20746865207a65726f20616464726573736044820152606401610332565b6000818152600260205260409020546001600160a01b03161561373c5760405162461bcd60e51b815260206004820152601c60248201527f4552433732313a20746f6b656e20616c7265616479206d696e746564000000006044820152606401610332565b61374a600083836001613a0e565b6000818152600260205260409020546001600160a01b0316156137af5760405162461bcd60e51b815260206004820152601c60248201527f4552433732313a20746f6b656e20616c7265616479206d696e746564000000006044820152606401610332565b6001600160a01b038216600081815260036020908152604080832080546001019055848352600290915280822080546001600160a01b0319168417905551839291907fddf252ad1be2c89b69c2b068fc378daa952ba7f163c4a11628f55a4df523b3ef908290a45050565b6001600160a01b0382166000908152600a60205260409020546001600160501b0316806109a857600d8054600160b01b90046001600160501b03169060166138618361499b565b82546101009290920a6001600160501b038181021990931691831602179091556001600160a01b039485166000908152600a60209081526040808320805469ffffffffffffffffffff19169486169485179055928252600b90522080546001600160a01b0319169390941692909217909255919050565b604080516001600160a01b0385811660248301528481166044830152606480830185905283518084039091018152608490920183526020820180516001600160e01b03166323b872dd60e01b179052915160009283929088169161393c9190614544565b6000604051808303816000865af19150503d8060008114613979576040519150601f19603f3d011682016040523d82523d6000602084013e61397e565b606091505b50915091508180156139a85750805115806139a85750808060200190518101906139a89190614229565b611c8e5760405162461bcd60e51b815260206004820152603160248201527f5472616e7366657248656c7065723a3a7472616e7366657246726f6d3a207472604482015270185b9cd9995c919c9bdb4819985a5b1959607a1b6064820152608401610332565b6001811115613a7d5760405162461bcd60e51b815260206004820152603560248201527f455243373231456e756d657261626c653a20636f6e7365637574697665207472604482015274185b9cd9995c9cc81b9bdd081cdd5c1c1bdc9d1959605a1b6064820152608401610332565b816001600160a01b038516613ad957613ad481600880546000838152600960205260408120829055600182018355919091527ff3f7a9fe364faab93b216da50a3214154f22a0a2b415b23a84c8169e8b636ee30155565b613afc565b836001600160a01b0316856001600160a01b031614613afc57613afc8582613c48565b6001600160a01b038416613b1857613b1381613ce5565b610a03565b846001600160a01b0316846001600160a01b031614610a0357610a038482613d94565b60006001600160a01b0384163b15613c3d57604051630a85bd0160e11b81526001600160a01b0385169063150b7a0290613b7f903390899088908890600401614560565b602060405180830381600087803b158015613b9957600080fd5b505af1925050508015613bc9575060408051601f3d908101601f19168201909252613bc6918101906142b2565b60015b613c23573d808015613bf7576040519150601f19603f3d011682016040523d82523d6000602084013e613bfc565b606091505b508051613c1b5760405162461bcd60e51b815260040161033290614650565b805181602001fd5b6001600160e01b031916630a85bd0160e11b149050612dd1565b506001949350505050565b60006001613c558461130f565b613c5f91906148e1565b600083815260076020526040902054909150808214613cb2576001600160a01b03841660009081526006602090815260408083208584528252808320548484528184208190558352600790915290208190555b5060009182526007602090815260408084208490556001600160a01b039094168352600681528383209183525290812055565b600854600090613cf7906001906148e1565b60008381526009602052604081205460088054939450909284908110613d1f57613d1f6149fd565b906000526020600020015490508060088381548110613d4057613d406149fd565b6000918252602080832090910192909255828152600990915260408082208490558582528120556008805480613d7857613d786149e7565b6001900381819060005260206000200160009055905550505050565b6000613d9f8361130f565b6001600160a01b039093166000908152600660209081526040808320868452825280832085905593825260079052919091209190915550565b600082601f830112613de957600080fd5b813560206001600160401b0380831115613e0557613e05614a13565b8260051b613e14838201614831565b8481528381019087850183890186018a1015613e2f57600080fd5b600093505b86841015613eb357803585811115613e4b57600080fd5b89016040818c03601f1901811315613e6257600080fd5b613e6a614809565b88830135613e7781614a29565b8152908201359087821115613e8b57600080fd5b613e998d8a84860101613f08565b818a01528552505060019390930192918501918501613e34565b5098975050505050505050565b60008083601f840112613ed257600080fd5b5081356001600160401b03811115613ee957600080fd5b602083019150836020828501011115613f0157600080fd5b9250929050565b600082601f830112613f1957600080fd5b8135613f2c613f2782614861565b614831565b818152846020838601011115613f4157600080fd5b816020850160208301376000918101602001919091529392505050565b600060608284031215613f7057600080fd5b50919050565b600060208284031215613f8857600080fd5b8135613f9381614a29565b9392505050565b600060208284031215613fac57600080fd5b8151613f9381614a29565b60008060408385031215613fca57600080fd5b8235613fd581614a29565b91506020830135613fe581614a29565b809150509250929050565b60008060006060848603121561400557600080fd5b833561401081614a29565b9250602084013561402081614a29565b929592945050506040919091013590565b6000806000806080858703121561404757600080fd5b843561405281614a29565b9350602085013561406281614a29565b92506040850135915060608501356001600160401b0381111561408457600080fd5b61409087828801613f08565b91505092959194509250565b600080604083850312156140af57600080fd5b82356140ba81614a29565b91506020830135613fe581614a41565b600080604083850312156140dd57600080fd5b82356140e881614a29565b946020939093013593505050565b60008060006060848603121561410b57600080fd5b833561411681614a29565b925060208401359150604084013561412d81614a29565b809150509250925092565b6000806000806060858703121561414e57600080fd5b843561415981614a29565b93506020850135925060408501356001600160401b0381111561417b57600080fd5b61418787828801613ec0565b95989497509550505050565b60008060008060008060c087890312156141ac57600080fd5b86356141b781614a29565b95506020870135945060408701359350606087013560ff811681146141db57600080fd5b9598949750929560808101359460a0909101359350915050565b60006020828403121561420757600080fd5b81356001600160401b0381111561421d57600080fd5b612dd184828501613dd8565b60006020828403121561423b57600080fd5b8151613f9381614a41565b6000806040838503121561425957600080fd5b823561426481614a41565b915060208301356001600160401b0381111561427f57600080fd5b61428b85828601613dd8565b9150509250929050565b6000602082840312156142a757600080fd5b8135613f9381614a4f565b6000602082840312156142c457600080fd5b8151613f9381614a4f565b6000602082840312156142e157600080fd5b81516001600160401b038111156142f757600080fd5b8201601f8101841361430857600080fd5b8051614316613f2782614861565b81815285602083850101111561432b57600080fd5b61433c8260208301602086016148f8565b95945050505050565b60006020828403121561435757600080fd5b81356001600160401b0381111561436d57600080fd5b820160408185031215613f9357600080fd5b60006060828403121561439157600080fd5b613f938383613f5e565b6000604082840312156143ad57600080fd5b604051604081018181106001600160401b03821117156143cf576143cf614a13565b60405282356143dd81614a29565b815260208301356143ed81614a29565b60208201529392505050565b600060808284031215613f7057600080fd5b60006020828403121561441d57600080fd5b5035919050565b60006020828403121561443657600080fd5b5051919050565b6000806040838503121561445057600080fd5b823591506020830135613fe581614a29565b60008060006040848603121561447757600080fd5b8335925060208401356001600160401b0381111561449457600080fd5b6144a086828701613ec0565b9497909650939450505050565b600081518084526020808501808196508360051b8101915082860160005b8581101561450b578284038952815180511515855285015160408686018190526144f781870183614518565b9a87019a95505050908401906001016144cb565b5091979650505050505050565b600081518084526145308160208601602086016148f8565b601f01601f19169290920160200192915050565b600082516145568184602087016148f8565b9190910192915050565b6001600160a01b038581168252841660208201526040810183905260806060820181905260009061459390830184614518565b9695505050505050565b60018060a01b038416815282602082015260606040820152600061433c6060830184614518565b602081526000613f9360208301846144ad565b828152604060208201526000612dd16040830184614518565b602081526000613f936020830184614518565b6020808252602d908201527f4552433732313a2063616c6c6572206973206e6f7420746f6b656e206f776e6560408201526c1c881bdc88185c1c1c9bdd9959609a1b606082015260800190565b60208082526032908201527f4552433732313a207472616e7366657220746f206e6f6e20455243373231526560408201527131b2b4bb32b91034b6b83632b6b2b73a32b960711b606082015260800190565b60208082526025908201527f4552433732313a207472616e736665722066726f6d20696e636f72726563742060408201526437bbb732b960d91b606082015260800190565b6020808252600c908201526b139bdd08185c1c1c9bdd995960a21b604082015260600190565b8381526001600160a01b038316602082015260606040820181905260009061433c90830184614518565b600060408201848352602060408185015281855180845260608601915060608160051b870101935082870160005b8281101561479357605f19888703018452614781868351614518565b95509284019290840190600101614765565b509398975050505050505050565b83815282602082015260606040820152600061433c60608301846144ad565b6000808335601e198436030181126147d757600080fd5b8301803591506001600160401b038211156147f157600080fd5b6020019150600581901b3603821315613f0157600080fd5b604080519081016001600160401b038111828210171561482b5761482b614a13565b60405290565b604051601f8201601f191681016001600160401b038111828210171561485957614859614a13565b604052919050565b60006001600160401b0382111561487a5761487a614a13565b50601f01601f191660200190565b6000821982111561489b5761489b6149d1565b500190565b6000826148bd57634e487b7160e01b600052601260045260246000fd5b500490565b60008160001904831182151516156148dc576148dc6149d1565b500290565b6000828210156148f3576148f36149d1565b500390565b60005b838110156149135781810151838201526020016148fb565b83811115611dae5750506000910152565b600181811c9082168061493857607f821691505b60208210811415613f7057634e487b7160e01b600052602260045260246000fd5b60006001600160b01b0382811680821415614976576149766149d1565b6001019392505050565b6000600019821415614994576149946149d1565b5060010190565b60006001600160501b0380831681811415614976576149766149d1565b60006001600160601b0380831681811415614976576149765b634e487b7160e01b600052601160045260246000fd5b634e487b7160e01b600052603160045260246000fd5b634e487b7160e01b600052603260045260246000fd5b634e487b7160e01b600052604160045260246000fd5b6001600160a01b0381168114614a3e57600080fd5b50565b8015158114614a3e57600080fd5b6001600160e01b031981168114614a3e57600080fdfea26469706673582212203eb24661411e13298d991a539a927844854fa3de14f99dce0749869fedca62c564736f6c63430008070033",
  "linkReferences": {},
  "deployedLinkReferences": {}
}