{
  "_format": "hh-sol-artifact-1",
  "contractName": "NonfungiblePositionManager",
  "sourceName": "contracts/NonfungiblePositionManager.sol",
  "abi": [
    {
      "inputs": [
        {
          "internalType": "address",
          "name": "_factory",
          "type": "address"
        },
        {
          "internalType": "address",
          "name": "_WETH9",
          "type": "address"
        },
        {
          "internalType": "address",
          "name": "_tokenDescriptor_",
          "type": "address"
        }
      ],
      "stateMutability": "nonpayable",
      "type": "constructor"
    },
    {
      "inputs": [],
      "name": "CallFailed1",
      "type": "error"
    },
    {
      "inputs": [],
      "name": "CallFailed2",
      "type": "error"
    },
    {
      "inputs": [],
      "name": "EmptyArrays",
      "type": "error"
    },
    {
      "inputs": [
        {
          "internalType": "address",
          "name": "sender",
          "type": "address"
        }
      ],
      "name": "Forbidden",
      "type": "error"
    },
    {
      "inputs": [],
      "name": "InsufficientOutput",
      "type": "error"
    },
    {
      "inputs": [
        {
          "internalType": "uint256",
          "name": "tokenId",
          "type": "uint256"
        }
      ],
      "name": "InvalidTokenID",
      "type": "error"
    },
    {
      "inputs": [
        {
          "internalType": "uint256",
          "name": "tokenId",
          "type": "uint256"
        }
      ],
      "name": "NotCleared",
      "type": "error"
    },
    {
      "inputs": [],
      "name": "TransactionTooOld",
      "type": "error"
    },
    {
      "anonymous": false,
      "inputs": [
        {
          "indexed": true,
          "internalType": "uint256",
          "name": "tokenId",
          "type": "uint256"
        },
        {
          "indexed": false,
          "internalType": "address",
          "name": "token",
          "type": "address"
        },
        {
          "indexed": false,
          "internalType": "uint256",
          "name": "liquidity",
          "type": "uint256"
        },
        {
          "indexed": false,
          "internalType": "uint256",
          "name": "requestIndex",
          "type": "uint256"
        }
      ],
      "name": "AddDecreaseLiquidityRequest",
      "type": "event"
    },
    {
      "anonymous": false,
      "inputs": [
        {
          "indexed": true,
          "internalType": "address",
          "name": "owner",
          "type": "address"
        },
        {
          "indexed": true,
          "internalType": "address",
          "name": "approved",
          "type": "address"
        },
        {
          "indexed": true,
          "internalType": "uint256",
          "name": "tokenId",
          "type": "uint256"
        }
      ],
      "name": "Approval",
      "type": "event"
    },
    {
      "anonymous": false,
      "inputs": [
        {
          "indexed": true,
          "internalType": "address",
          "name": "owner",
          "type": "address"
        },
        {
          "indexed": true,
          "internalType": "address",
          "name": "operator",
          "type": "address"
        },
        {
          "indexed": false,
          "internalType": "bool",
          "name": "approved",
          "type": "bool"
        }
      ],
      "name": "ApprovalForAll",
      "type": "event"
    },
    {
      "anonymous": false,
      "inputs": [
        {
          "indexed": true,
          "internalType": "uint256",
          "name": "tokenId",
          "type": "uint256"
        },
        {
          "indexed": false,
          "internalType": "address",
          "name": "token",
          "type": "address"
        },
        {
          "indexed": false,
          "internalType": "uint256",
          "name": "amount",
          "type": "uint256"
        }
      ],
      "name": "Collect",
      "type": "event"
    },
    {
      "anonymous": false,
      "inputs": [
        {
          "indexed": true,
          "internalType": "uint256",
          "name": "tokenId",
          "type": "uint256"
        },
        {
          "indexed": false,
          "internalType": "address",
          "name": "token",
          "type": "address"
        },
        {
          "indexed": false,
          "internalType": "uint256",
          "name": "liquidity",
          "type": "uint256"
        }
      ],
      "name": "DecreaseLiquidity",
      "type": "event"
    },
    {
      "anonymous": false,
      "inputs": [
        {
          "indexed": true,
          "internalType": "uint256",
          "name": "tokenId",
          "type": "uint256"
        },
        {
          "indexed": false,
          "internalType": "address",
          "name": "token",
          "type": "address"
        },
        {
          "indexed": false,
          "internalType": "uint256",
          "name": "liquidity",
          "type": "uint256"
        }
      ],
      "name": "IncreaseLiquidity",
      "type": "event"
    },
    {
      "anonymous": false,
      "inputs": [
        {
          "indexed": true,
          "internalType": "address",
          "name": "from",
          "type": "address"
        },
        {
          "indexed": true,
          "internalType": "address",
          "name": "to",
          "type": "address"
        },
        {
          "indexed": true,
          "internalType": "uint256",
          "name": "tokenId",
          "type": "uint256"
        }
      ],
      "name": "Transfer",
      "type": "event"
    },
    {
      "inputs": [],
      "name": "DOMAIN_SEPARATOR",
      "outputs": [
        {
          "internalType": "bytes32",
          "name": "",
          "type": "bytes32"
        }
      ],
      "stateMutability": "view",
      "type": "function"
    },
    {
      "inputs": [],
      "name": "PERMIT_TYPEHASH",
      "outputs": [
        {
          "internalType": "bytes32",
          "name": "",
          "type": "bytes32"
        }
      ],
      "stateMutability": "view",
      "type": "function"
    },
    {
      "inputs": [],
      "name": "WETH9",
      "outputs": [
        {
          "internalType": "address",
          "name": "",
          "type": "address"
        }
      ],
      "stateMutability": "view",
      "type": "function"
    },
    {
      "inputs": [
        {
          "components": [
            {
              "internalType": "uint256",
              "name": "tokenId",
              "type": "uint256"
            },
            {
              "internalType": "uint256",
              "name": "liquidity",
              "type": "uint256"
            },
            {
              "internalType": "uint256",
              "name": "deadline",
              "type": "uint256"
            }
          ],
          "internalType": "struct INonfungiblePositionManager.DecreaseLiquidityParams",
          "name": "_params",
          "type": "tuple"
        }
      ],
      "name": "addDecreaseLiquidityRequest",
      "outputs": [],
      "stateMutability": "payable",
      "type": "function"
    },
    {
      "inputs": [
        {
          "components": [
            {
              "internalType": "address",
              "name": "target",
              "type": "address"
            },
            {
              "internalType": "bytes",
              "name": "callData",
              "type": "bytes"
            }
          ],
          "internalType": "struct Multicall.Call[]",
          "name": "_calls",
          "type": "tuple[]"
        }
      ],
      "name": "aggregate",
      "outputs": [
        {
          "internalType": "uint256",
          "name": "blockNumber",
          "type": "uint256"
        },
        {
          "internalType": "bytes[]",
          "name": "returnData",
          "type": "bytes[]"
        }
      ],
      "stateMutability": "nonpayable",
      "type": "function"
    },
    {
      "inputs": [
        {
          "internalType": "address",
          "name": "to",
          "type": "address"
        },
        {
          "internalType": "uint256",
          "name": "tokenId",
          "type": "uint256"
        }
      ],
      "name": "approve",
      "outputs": [],
      "stateMutability": "nonpayable",
      "type": "function"
    },
    {
      "inputs": [
        {
          "internalType": "address",
          "name": "owner",
          "type": "address"
        }
      ],
      "name": "balanceOf",
      "outputs": [
        {
          "internalType": "uint256",
          "name": "",
          "type": "uint256"
        }
      ],
      "stateMutability": "view",
      "type": "function"
    },
    {
      "inputs": [
        {
          "components": [
            {
              "internalType": "address",
              "name": "target",
              "type": "address"
            },
            {
              "internalType": "bytes",
              "name": "callData",
              "type": "bytes"
            }
          ],
          "internalType": "struct Multicall.Call[]",
          "name": "_calls",
          "type": "tuple[]"
        }
      ],
      "name": "blockAndAggregate",
      "outputs": [
        {
          "internalType": "uint256",
          "name": "blockNumber",
          "type": "uint256"
        },
        {
          "internalType": "bytes32",
          "name": "blockHash",
          "type": "bytes32"
        },
        {
          "components": [
            {
              "internalType": "bool",
              "name": "success",
              "type": "bool"
            },
            {
              "internalType": "bytes",
              "name": "returnData",
              "type": "bytes"
            }
          ],
          "internalType": "struct Multicall.Result[]",
          "name": "returnData",
          "type": "tuple[]"
        }
      ],
      "stateMutability": "nonpayable",
      "type": "function"
    },
    {
      "inputs": [
        {
          "internalType": "uint256",
          "name": "_tokenId",
          "type": "uint256"
        }
      ],
      "name": "burn",
      "outputs": [],
      "stateMutability": "payable",
      "type": "function"
    },
    {
      "inputs": [
        {
          "internalType": "uint256",
          "name": "_liquidity",
          "type": "uint256"
        },
        {
          "internalType": "bytes",
          "name": "_data",
          "type": "bytes"
        }
      ],
      "name": "burnCallback",
      "outputs": [],
      "stateMutability": "nonpayable",
      "type": "function"
    },
    {
      "inputs": [
        {
          "components": [
            {
              "internalType": "uint256[]",
              "name": "tokenIds",
              "type": "uint256[]"
            },
            {
              "internalType": "address",
              "name": "to",
              "type": "address"
            }
          ],
          "internalType": "struct INonfungiblePositionManager.CollectParams",
          "name": "_params",
          "type": "tuple"
        }
      ],
      "name": "collect",
      "outputs": [
        {
          "internalType": "uint256",
          "name": "amount",
          "type": "uint256"
        }
      ],
      "stateMutability": "payable",
      "type": "function"
    },
    {
      "inputs": [],
      "name": "factory",
      "outputs": [
        {
          "internalType": "address",
          "name": "",
          "type": "address"
        }
      ],
      "stateMutability": "view",
      "type": "function"
    },
    {
      "inputs": [
        {
          "internalType": "uint256",
          "name": "tokenId",
          "type": "uint256"
        }
      ],
      "name": "getApproved",
      "outputs": [
        {
          "internalType": "address",
          "name": "",
          "type": "address"
        }
      ],
      "stateMutability": "view",
      "type": "function"
    },
    {
      "inputs": [
        {
          "internalType": "uint256",
          "name": "_blockNumber",
          "type": "uint256"
        }
      ],
      "name": "getBlockHash",
      "outputs": [
        {
          "internalType": "bytes32",
          "name": "blockHash",
          "type": "bytes32"
        }
      ],
      "stateMutability": "view",
      "type": "function"
    },
    {
      "inputs": [],
      "name": "getBlockNumber",
      "outputs": [
        {
          "internalType": "uint256",
          "name": "blockNumber",
          "type": "uint256"
        }
      ],
      "stateMutability": "view",
      "type": "function"
    },
    {
      "inputs": [],
      "name": "getCurrentBlockCoinbase",
      "outputs": [
        {
          "internalType": "address",
          "name": "coinbase",
          "type": "address"
        }
      ],
      "stateMutability": "view",
      "type": "function"
    },
    {
      "inputs": [],
      "name": "getCurrentBlockDifficulty",
      "outputs": [
        {
          "internalType": "uint256",
          "name": "difficulty",
          "type": "uint256"
        }
      ],
      "stateMutability": "view",
      "type": "function"
    },
    {
      "inputs": [],
      "name": "getCurrentBlockGasLimit",
      "outputs": [
        {
          "internalType": "uint256",
          "name": "gaslimit",
          "type": "uint256"
        }
      ],
      "stateMutability": "view",
      "type": "function"
    },
    {
      "inputs": [],
      "name": "getCurrentBlockTimestamp",
      "outputs": [
        {
          "internalType": "uint256",
          "name": "timestamp",
          "type": "uint256"
        }
      ],
      "stateMutability": "view",
      "type": "function"
    },
    {
      "inputs": [
        {
          "internalType": "address",
          "name": "_addr",
          "type": "address"
        }
      ],
      "name": "getEthBalance",
      "outputs": [
        {
          "internalType": "uint256",
          "name": "balance",
          "type": "uint256"
        }
      ],
      "stateMutability": "view",
      "type": "function"
    },
    {
      "inputs": [],
      "name": "getLastBlockHash",
      "outputs": [
        {
          "internalType": "bytes32",
          "name": "blockHash",
          "type": "bytes32"
        }
      ],
      "stateMutability": "view",
      "type": "function"
    },
    {
      "inputs": [
        {
          "components": [
            {
              "internalType": "uint256",
              "name": "tokenId",
              "type": "uint256"
            },
            {
              "internalType": "uint256",
              "name": "liquidity",
              "type": "uint256"
            },
            {
              "internalType": "uint256",
              "name": "deadline",
              "type": "uint256"
            }
          ],
          "internalType": "struct INonfungiblePositionManager.IncreaseLiquidityParams",
          "name": "_params",
          "type": "tuple"
        }
      ],
      "name": "increaseLiquidity",
      "outputs": [],
      "stateMutability": "payable",
      "type": "function"
    },
    {
      "inputs": [
        {
          "internalType": "address",
          "name": "owner",
          "type": "address"
        },
        {
          "internalType": "address",
          "name": "operator",
          "type": "address"
        }
      ],
      "name": "isApprovedForAll",
      "outputs": [
        {
          "internalType": "bool",
          "name": "",
          "type": "bool"
        }
      ],
      "stateMutability": "view",
      "type": "function"
    },
    {
      "inputs": [
        {
          "components": [
            {
              "internalType": "address",
              "name": "token",
              "type": "address"
            },
            {
              "internalType": "uint256",
              "name": "liquidity",
              "type": "uint256"
            },
            {
              "internalType": "address",
              "name": "to",
              "type": "address"
            },
            {
              "internalType": "uint256",
              "name": "deadline",
              "type": "uint256"
            }
          ],
          "internalType": "struct INonfungiblePositionManager.MintParams",
          "name": "_params",
          "type": "tuple"
        }
      ],
      "name": "mint",
      "outputs": [
        {
          "internalType": "uint256",
          "name": "tokenId",
          "type": "uint256"
        }
      ],
      "stateMutability": "payable",
      "type": "function"
    },
    {
      "inputs": [
        {
          "internalType": "address",
          "name": "_token",
          "type": "address"
        },
        {
          "internalType": "uint256",
          "name": "_liquidity",
          "type": "uint256"
        },
        {
          "internalType": "bytes",
          "name": "_data",
          "type": "bytes"
        }
      ],
      "name": "mintCallback",
      "outputs": [],
      "stateMutability": "nonpayable",
      "type": "function"
    },
    {
      "inputs": [],
      "name": "name",
      "outputs": [
        {
          "internalType": "string",
          "name": "",
          "type": "string"
        }
      ],
      "stateMutability": "view",
      "type": "function"
    },
    {
      "inputs": [
        {
          "internalType": "uint256",
          "name": "tokenId",
          "type": "uint256"
        }
      ],
      "name": "ownerOf",
      "outputs": [
        {
          "internalType": "address",
          "name": "",
          "type": "address"
        }
      ],
      "stateMutability": "view",
      "type": "function"
    },
    {
      "inputs": [
        {
          "internalType": "address",
          "name": "spender",
          "type": "address"
        },
        {
          "internalType": "uint256",
          "name": "tokenId",
          "type": "uint256"
        },
        {
          "internalType": "uint256",
          "name": "deadline",
          "type": "uint256"
        },
        {
          "internalType": "uint8",
          "name": "v",
          "type": "uint8"
        },
        {
          "internalType": "bytes32",
          "name": "r",
          "type": "bytes32"
        },
        {
          "internalType": "bytes32",
          "name": "s",
          "type": "bytes32"
        }
      ],
      "name": "permit",
      "outputs": [],
      "stateMutability": "payable",
      "type": "function"
    },
    {
      "inputs": [],
      "name": "poolDeployer",
      "outputs": [
        {
          "internalType": "address",
          "name": "",
          "type": "address"
        }
      ],
      "stateMutability": "view",
      "type": "function"
    },
    {
      "inputs": [
        {
          "internalType": "uint256",
          "name": "_tokenId",
          "type": "uint256"
        }
      ],
      "name": "positions",
      "outputs": [
        {
          "internalType": "uint96",
          "name": "nonce",
          "type": "uint96"
        },
        {
          "internalType": "address",
          "name": "operator",
          "type": "address"
        },
        {
          "internalType": "address",
          "name": "token",
          "type": "address"
        },
        {
          "internalType": "uint256",
          "name": "liquidity",
          "type": "uint256"
        },
        {
          "internalType": "uint256",
          "name": "withdrawingLiquidity",
          "type": "uint256"
        },
        {
          "internalType": "uint256",
          "name": "claimableFee",
          "type": "uint256"
        }
      ],
      "stateMutability": "view",
      "type": "function"
    },
    {
      "inputs": [],
      "name": "refundETH",
      "outputs": [],
      "stateMutability": "payable",
      "type": "function"
    },
    {
      "inputs": [
        {
          "internalType": "address",
          "name": "from",
          "type": "address"
        },
        {
          "internalType": "address",
          "name": "to",
          "type": "address"
        },
        {
          "internalType": "uint256",
          "name": "tokenId",
          "type": "uint256"
        }
      ],
      "name": "safeTransferFrom",
      "outputs": [],
      "stateMutability": "nonpayable",
      "type": "function"
    },
    {
      "inputs": [
        {
          "internalType": "address",
          "name": "from",
          "type": "address"
        },
        {
          "internalType": "address",
          "name": "to",
          "type": "address"
        },
        {
          "internalType": "uint256",
          "name": "tokenId",
          "type": "uint256"
        },
        {
          "internalType": "bytes",
          "name": "data",
          "type": "bytes"
        }
      ],
      "name": "safeTransferFrom",
      "outputs": [],
      "stateMutability": "nonpayable",
      "type": "function"
    },
    {
      "inputs": [
        {
          "internalType": "address",
          "name": "token",
          "type": "address"
        },
        {
          "internalType": "uint256",
          "name": "value",
          "type": "uint256"
        },
        {
          "internalType": "uint256",
          "name": "deadline",
          "type": "uint256"
        },
        {
          "internalType": "uint8",
          "name": "v",
          "type": "uint8"
        },
        {
          "internalType": "bytes32",
          "name": "r",
          "type": "bytes32"
        },
        {
          "internalType": "bytes32",
          "name": "s",
          "type": "bytes32"
        }
      ],
      "name": "selfPermit",
      "outputs": [],
      "stateMutability": "payable",
      "type": "function"
    },
    {
      "inputs": [
        {
          "internalType": "address",
          "name": "token",
          "type": "address"
        },
        {
          "internalType": "uint256",
          "name": "nonce",
          "type": "uint256"
        },
        {
          "internalType": "uint256",
          "name": "expiry",
          "type": "uint256"
        },
        {
          "internalType": "uint8",
          "name": "v",
          "type": "uint8"
        },
        {
          "internalType": "bytes32",
          "name": "r",
          "type": "bytes32"
        },
        {
          "internalType": "bytes32",
          "name": "s",
          "type": "bytes32"
        }
      ],
      "name": "selfPermitAllowed",
      "outputs": [],
      "stateMutability": "payable",
      "type": "function"
    },
    {
      "inputs": [
        {
          "internalType": "address",
          "name": "token",
          "type": "address"
        },
        {
          "internalType": "uint256",
          "name": "nonce",
          "type": "uint256"
        },
        {
          "internalType": "uint256",
          "name": "expiry",
          "type": "uint256"
        },
        {
          "internalType": "uint8",
          "name": "v",
          "type": "uint8"
        },
        {
          "internalType": "bytes32",
          "name": "r",
          "type": "bytes32"
        },
        {
          "internalType": "bytes32",
          "name": "s",
          "type": "bytes32"
        }
      ],
      "name": "selfPermitAllowedIfNecessary",
      "outputs": [],
      "stateMutability": "payable",
      "type": "function"
    },
    {
      "inputs": [
        {
          "internalType": "address",
          "name": "token",
          "type": "address"
        },
        {
          "internalType": "uint256",
          "name": "value",
          "type": "uint256"
        },
        {
          "internalType": "uint256",
          "name": "deadline",
          "type": "uint256"
        },
        {
          "internalType": "uint8",
          "name": "v",
          "type": "uint8"
        },
        {
          "internalType": "bytes32",
          "name": "r",
          "type": "bytes32"
        },
        {
          "internalType": "bytes32",
          "name": "s",
          "type": "bytes32"
        }
      ],
      "name": "selfPermitIfNecessary",
      "outputs": [],
      "stateMutability": "payable",
      "type": "function"
    },
    {
      "inputs": [
        {
          "internalType": "address",
          "name": "operator",
          "type": "address"
        },
        {
          "internalType": "bool",
          "name": "approved",
          "type": "bool"
        }
      ],
      "name": "setApprovalForAll",
      "outputs": [],
      "stateMutability": "nonpayable",
      "type": "function"
    },
    {
      "inputs": [
        {
          "internalType": "address",
          "name": "_tokenDescriptor_",
          "type": "address"
        }
      ],
      "name": "setTokenDescriptor",
      "outputs": [],
      "stateMutability": "nonpayable",
      "type": "function"
    },
    {
      "inputs": [
        {
          "internalType": "bytes4",
          "name": "interfaceId",
          "type": "bytes4"
        }
      ],
      "name": "supportsInterface",
      "outputs": [
        {
          "internalType": "bool",
          "name": "",
          "type": "bool"
        }
      ],
      "stateMutability": "view",
      "type": "function"
    },
    {
      "inputs": [
        {
          "internalType": "address",
          "name": "token",
          "type": "address"
        },
        {
          "internalType": "uint256",
          "name": "amountMinimum",
          "type": "uint256"
        },
        {
          "internalType": "address",
          "name": "recipient",
          "type": "address"
        }
      ],
      "name": "sweepToken",
      "outputs": [],
      "stateMutability": "payable",
      "type": "function"
    },
    {
      "inputs": [],
      "name": "symbol",
      "outputs": [
        {
          "internalType": "string",
          "name": "",
          "type": "string"
        }
      ],
      "stateMutability": "view",
      "type": "function"
    },
    {
      "inputs": [
        {
          "internalType": "uint256",
          "name": "index",
          "type": "uint256"
        }
      ],
      "name": "tokenByIndex",
      "outputs": [
        {
          "internalType": "uint256",
          "name": "",
          "type": "uint256"
        }
      ],
      "stateMutability": "view",
      "type": "function"
    },
    {
      "inputs": [
        {
          "internalType": "address",
          "name": "owner",
          "type": "address"
        },
        {
          "internalType": "uint256",
          "name": "index",
          "type": "uint256"
        }
      ],
      "name": "tokenOfOwnerByIndex",
      "outputs": [
        {
          "internalType": "uint256",
          "name": "",
          "type": "uint256"
        }
      ],
      "stateMutability": "view",
      "type": "function"
    },
    {
      "inputs": [
        {
          "internalType": "uint256",
          "name": "_tokenId",
          "type": "uint256"
        }
      ],
      "name": "tokenURI",
      "outputs": [
        {
          "internalType": "string",
          "name": "",
          "type": "string"
        }
      ],
      "stateMutability": "view",
      "type": "function"
    },
    {
      "inputs": [],
      "name": "totalSupply",
      "outputs": [
        {
          "internalType": "uint256",
          "name": "",
          "type": "uint256"
        }
      ],
      "stateMutability": "view",
      "type": "function"
    },
    {
      "inputs": [
        {
          "internalType": "address",
          "name": "from",
          "type": "address"
        },
        {
          "internalType": "address",
          "name": "to",
          "type": "address"
        },
        {
          "internalType": "uint256",
          "name": "tokenId",
          "type": "uint256"
        }
      ],
      "name": "transferFrom",
      "outputs": [],
      "stateMutability": "nonpayable",
      "type": "function"
    },
    {
      "inputs": [
        {
          "internalType": "bool",
          "name": "_requireSuccess",
          "type": "bool"
        },
        {
          "components": [
            {
              "internalType": "address",
              "name": "target",
              "type": "address"
            },
            {
              "internalType": "bytes",
              "name": "callData",
              "type": "bytes"
            }
          ],
          "internalType": "struct Multicall.Call[]",
          "name": "_calls",
          "type": "tuple[]"
        }
      ],
      "name": "tryAggregate",
      "outputs": [
        {
          "components": [
            {
              "internalType": "bool",
              "name": "success",
              "type": "bool"
            },
            {
              "internalType": "bytes",
              "name": "returnData",
              "type": "bytes"
            }
          ],
          "internalType": "struct Multicall.Result[]",
          "name": "returnData",
          "type": "tuple[]"
        }
      ],
      "stateMutability": "nonpayable",
      "type": "function"
    },
    {
      "inputs": [
        {
          "internalType": "bool",
          "name": "_requireSuccess",
          "type": "bool"
        },
        {
          "components": [
            {
              "internalType": "address",
              "name": "target",
              "type": "address"
            },
            {
              "internalType": "bytes",
              "name": "callData",
              "type": "bytes"
            }
          ],
          "internalType": "struct Multicall.Call[]",
          "name": "_calls",
          "type": "tuple[]"
        }
      ],
      "name": "tryBlockAndAggregate",
      "outputs": [
        {
          "internalType": "uint256",
          "name": "blockNumber",
          "type": "uint256"
        },
        {
          "internalType": "bytes32",
          "name": "blockHash",
          "type": "bytes32"
        },
        {
          "components": [
            {
              "internalType": "bool",
              "name": "success",
              "type": "bool"
            },
            {
              "internalType": "bytes",
              "name": "returnData",
              "type": "bytes"
            }
          ],
          "internalType": "struct Multicall.Result[]",
          "name": "returnData",
          "type": "tuple[]"
        }
      ],
      "stateMutability": "nonpayable",
      "type": "function"
    },
    {
      "inputs": [
        {
          "internalType": "uint256",
          "name": "amountMinimum",
          "type": "uint256"
        },
        {
          "internalType": "address",
          "name": "recipient",
          "type": "address"
        }
      ],
      "name": "unwrapWETH9",
      "outputs": [],
      "stateMutability": "payable",
      "type": "function"
    },
    {
      "stateMutability": "payable",
      "type": "receive"
    }
  ],
  "bytecode": "0x610120604052760100000000000000000000000000000000000000000001600d553480156200002d57600080fd5b5060405162004ea638038062004ea68339810160408190526200005091620002c5565b82826040518060400160405280601981526020017f546976656c20563120506f736974696f6e73204e46542d5631000000000000008152506040518060400160405280600c81526020016b544956454c2d56312d504f5360a01b815250604051806040016040528060018152602001603160f81b81525082828160009080519060200190620000e1929190620001dd565b508051620000f7906001906020840190620001dd565b505083516020948501206080525080519083012060a052506001600160601b0319606084811b821660c05283901b1660e0526040805163188c824d60e11b815290516001600160a01b03851692633119049a9260048082019391829003018186803b1580156200016657600080fd5b505afa1580156200017b573d6000803e3d6000fd5b505050506040513d601f19601f82011682018060405250810190620001a19190620002a0565b60601b6001600160601b031916610100525050600e80546001600160a01b0319166001600160a01b0392909216919091179055506200034c9050565b828054620001eb906200030f565b90600052602060002090601f0160209004810192826200020f57600085556200025a565b82601f106200022a57805160ff19168380011785556200025a565b828001600101855582156200025a579182015b828111156200025a5782518255916020019190600101906200023d565b50620002689291506200026c565b5090565b5b808211156200026857600081556001016200026d565b80516001600160a01b03811681146200029b57600080fd5b919050565b600060208284031215620002b357600080fd5b620002be8262000283565b9392505050565b600080600060608486031215620002db57600080fd5b620002e68462000283565b9250620002f66020850162000283565b9150620003066040850162000283565b90509250925092565b600181811c908216806200032457607f821691505b602082108114156200034657634e487b7160e01b600052602260045260246000fd5b50919050565b60805160a05160c05160601c60e05160601c6101005160601c614ab1620003f560003960008181610514015281816109c80152818161176701528181611a7a0152818161254f0152818161320c015261331a0152600081816102dd015281816105f8015281816110c9015281816111ae01528181612a9201528181612ad80152612b6d01526000818161087f0152611cae01526000610ed801526000610eb70152614ab16000f3fe6080604052600436106102cd5760003560e01c806370a0823111610175578063bce38bd7116100dc578063d1e8717911610095578063e985e9c51161006f578063e985e9c5146108fa578063ee82ac5e14610943578063ee9c0bf514610962578063f3995c671461097557600080fd5b8063d1e87179146108c1578063df2ab5bb146108d4578063e16a4913146108e757600080fd5b8063bce38bd7146107fa578063bea4bc3214610827578063c2e3140a1461083a578063c3077fa91461084d578063c45a01551461086d578063c87b56dd146108a157600080fd5b806399fbab881161012e57806399fbab8814610710578063a22cb46514610774578063a4a78f0c14610794578063a8b0574e146107a7578063b6dc7ea3146107ba578063b88d4fde146107da57600080fd5b806370a082311461068257806372425d9d146106a25780637ac2ff7b146106b557806386d516e8146106c85780638c5991fe146106db57806395d89b41146106fb57600080fd5b806330adf81f1161023457806342cbb15c116101ed5780634aa4a4fc116101c75780634aa4a4fc146105e65780634d2301cc1461061a5780634f6ccce7146106425780636352211e1461066257600080fd5b806342cbb15c146105ad5780634659a494146105c057806349404b7c146105d357600080fd5b806330adf81f146104ce5780633119049a146105025780633644e51514610536578063399542e91461054b57806342842e0e1461057a57806342966c681461059a57600080fd5b806312210e8a1161028657806312210e8a1461042e57806318160ddd1461043657806323b872dd1461044b578063252dba421461046b57806327e86d6e146104995780632f745c59146104ae57600080fd5b806301ffc9a71461034257806303a3bcd71461037757806306fdde0314610397578063081812fc146103b9578063095ea7b3146103f15780630f28c97d1461041157600080fd5b3661033d57336001600160a01b037f0000000000000000000000000000000000000000000000000000000000000000161461033b5760405162461bcd60e51b81526020600482015260096024820152684e6f7420574554483960b81b60448201526064015b60405180910390fd5b005b600080fd5b34801561034e57600080fd5b5061036261035d3660046142ab565b610988565b60405190151581526020015b60405180910390f35b34801561038357600080fd5b5061033b61039236600461414e565b6109b3565b3480156103a357600080fd5b506103ac610a0f565b60405161036e9190614606565b3480156103c557600080fd5b506103d96103d4366004614421565b610aa1565b6040516001600160a01b03909116815260200161036e565b3480156103fd57600080fd5b5061033b61040c3660046140e0565b610b3d565b34801561041d57600080fd5b50425b60405190815260200161036e565b61033b610c53565b34801561044257600080fd5b50600854610420565b34801561045757600080fd5b5061033b610466366004614006565b610c65565b34801561047757600080fd5b5061048b61048636600461420b565b610c96565b60405161036e92919061474d565b3480156104a557600080fd5b50610420610de9565b3480156104ba57600080fd5b506104206104c93660046140e0565b610dfc565b3480156104da57600080fd5b506104207f49ecf333e5b8c95c40fdafc95c1ad136e8914a8fb55e9dc8bb01eaa83a2df9ad81565b34801561050e57600080fd5b506103d97f000000000000000000000000000000000000000000000000000000000000000081565b34801561054257600080fd5b50610420610e92565b34801561055757600080fd5b5061056b61056636600461425c565b610f38565b60405161036e939291906147b7565b34801561058657600080fd5b5061033b610595366004614006565b610f50565b61033b6105a8366004614421565b610f6b565b3480156105b957600080fd5b5043610420565b61033b6105ce3660046141a9565b61101c565b61033b6105e1366004614453565b6110b1565b3480156105f257600080fd5b506103d97f000000000000000000000000000000000000000000000000000000000000000081565b34801561062657600080fd5b50610420610635366004613f8c565b6001600160a01b03163190565b34801561064e57600080fd5b5061042061065d366004614421565b61121c565b34801561066e57600080fd5b506103d961067d366004614421565b6112af565b34801561068e57600080fd5b5061042061069d366004613f8c565b611314565b3480156106ae57600080fd5b5044610420565b61033b6106c33660046141a9565b61139a565b3480156106d457600080fd5b5045610420565b3480156106e757600080fd5b5061033b6106f6366004614478565b61173c565b34801561070757600080fd5b506103ac6119ad565b34801561071c57600080fd5b5061073061072b366004614421565b6119bc565b604080516001600160601b039790971687526001600160a01b03958616602088015293909416928501929092526060840152608083015260a082015260c00161036e565b34801561078057600080fd5b5061033b61078f3660046140b2565b611c00565b61033b6107a23660046141a9565b611c0f565b3480156107b357600080fd5b50416103d9565b3480156107c657600080fd5b5061033b6107d5366004613f8c565b611cac565b3480156107e657600080fd5b5061033b6107f5366004614047565b611d92565b34801561080657600080fd5b5061081a61081536600461425c565b611dca565b60405161036e91906145da565b61033b610835366004614395565b611f4f565b61033b6108483660046141a9565b612180565b34801561085957600080fd5b5061056b61086836600461420b565b612213565b34801561087957600080fd5b506103d97f000000000000000000000000000000000000000000000000000000000000000081565b3480156108ad57600080fd5b506103ac6108bc366004614421565b612230565b6104206108cf36600461435b565b6122da565b61033b6108e236600461410c565b6123a6565b61033b6108f5366004614395565b612478565b34801561090657600080fd5b50610362610915366004613fcd565b6001600160a01b03918216600090815260056020908152604080832093909416825291909152205460ff1690565b34801561094f57600080fd5b5061042061095e366004614421565b4090565b61042061097036600461440f565b61269a565b61033b6109833660046141a9565b6129c6565b60006001600160e01b0319821663780e9d6360e01b14806109ad57506109ad82612a1d565b92915050565b60006109c1828401846143b1565b90506109f17f00000000000000000000000000000000000000000000000000000000000000008260000151612a6d565b508315610a0857610a088582602001513387612a90565b5050505050565b606060008054610a1e9061493a565b80601f0160208091040260200160405190810160405280929190818152602001828054610a4a9061493a565b8015610a975780601f10610a6c57610100808354040283529160200191610a97565b820191906000526020600020905b815481529060010190602001808311610a7a57829003601f168201915b5050505050905090565b6000818152600260205260408120546001600160a01b0316610b1a5760405162461bcd60e51b815260206004820152602c60248201527f4552433732313a20617070726f76656420717565727920666f72206e6f6e657860448201526b34b9ba32b73a103a37b5b2b760a11b6064820152608401610332565b506000908152600c6020526040902054600160601b90046001600160a01b031690565b6000610b48826112af565b9050806001600160a01b0316836001600160a01b03161415610bb65760405162461bcd60e51b815260206004820152602160248201527f4552433732313a20617070726f76616c20746f2063757272656e74206f776e656044820152603960f91b6064820152608401610332565b336001600160a01b0382161480610bd25750610bd28133610915565b610c445760405162461bcd60e51b815260206004820152603d60248201527f4552433732313a20617070726f76652063616c6c6572206973206e6f7420746f60448201527f6b656e206f776e6572206f7220617070726f76656420666f7220616c6c0000006064820152608401610332565b610c4e8383612c20565b505050565b4715610c6357610c633347612c96565b565b610c6f3382612d70565b610c8b5760405162461bcd60e51b815260040161033290614619565b610c4e838383612def565b805143906060906001600160401b03811115610cb457610cb4614a29565b604051908082528060200260200182016040528015610ce757816020015b6060815260200190600190039081610cd25790505b50905060005b8351811015610de357600080858381518110610d0b57610d0b614a13565b6020026020010151600001516001600160a01b0316868481518110610d3257610d32614a13565b602002602001015160200151604051610d4b919061455a565b6000604051808303816000865af19150503d8060008114610d88576040519150601f19603f3d011682016040523d82523d6000602084013e610d8d565b606091505b509150915081610db057604051635a2593e760e11b815260040160405180910390fd5b80848481518110610dc357610dc3614a13565b602002602001018190525050508080610ddb90614996565b915050610ced565b50915091565b6000610df66001436148f7565b40905090565b6000610e0783611314565b8210610e695760405162461bcd60e51b815260206004820152602b60248201527f455243373231456e756d657261626c653a206f776e657220696e646578206f7560448201526a74206f6620626f756e647360a81b6064820152608401610332565b506001600160a01b03919091166000908152600660209081526040808320938352929052205490565b60007f8b73c3c69bb8fe3d512ecc4cf759cc79239f7b179b0ffacaa9a75d522b39400f7f00000000000000000000000000000000000000000000000000000000000000007f000000000000000000000000000000000000000000000000000000000000000046604080516020810195909552840192909252606083015260808201523060a082015260c00160405160208183030381529060405280519060200120905090565b4380406060610f478585611dca565b90509250925092565b610c4e83838360405180602001604052806000815250611d92565b80610f763382612d70565b610f925760405162461bcd60e51b8152600401610332906146fd565b6000828152600c602052604090206002810154151580610fb6575060008160040154115b15610fd75760405163fc8d5c0d60e01b815260048101849052602401610332565b6000838152600c602052604081208181556001810180546001600160f01b031916905560028101829055600381018290556004810182905560050155610c4e83612f60565b6040516323f2ebc360e21b815233600482015230602482015260448101869052606481018590526001608482015260ff841660a482015260c4810183905260e481018290526001600160a01b03871690638fcbaf0c90610104015b600060405180830381600087803b15801561109157600080fd5b505af11580156110a5573d6000803e3d6000fd5b50505050505050505050565b6040516370a0823160e01b81523060048201526000907f00000000000000000000000000000000000000000000000000000000000000006001600160a01b0316906370a082319060240160206040518083038186803b15801561111357600080fd5b505afa158015611127573d6000803e3d6000fd5b505050506040513d601f19601f8201168201806040525081019061114b919061443a565b9050828110156111925760405162461bcd60e51b8152602060048201526012602482015271496e73756666696369656e7420574554483960701b6044820152606401610332565b8015610c4e57604051632e1a7d4d60e01b8152600481018290527f00000000000000000000000000000000000000000000000000000000000000006001600160a01b031690632e1a7d4d90602401600060405180830381600087803b1580156111fa57600080fd5b505af115801561120e573d6000803e3d6000fd5b50505050610c4e8282612c96565b600061122760085490565b821061128a5760405162461bcd60e51b815260206004820152602c60248201527f455243373231456e756d657261626c653a20676c6f62616c20696e646578206f60448201526b7574206f6620626f756e647360a01b6064820152608401610332565b6008828154811061129d5761129d614a13565b90600052602060002001549050919050565b6000818152600260205260408120546001600160a01b0316806109ad5760405162461bcd60e51b815260206004820152601860248201527f4552433732313a20696e76616c696420746f6b656e20494400000000000000006044820152606401610332565b60006001600160a01b03821661137e5760405162461bcd60e51b815260206004820152602960248201527f4552433732313a2061646472657373207a65726f206973206e6f7420612076616044820152683634b21037bbb732b960b91b6064820152608401610332565b506001600160a01b031660009081526003602052604090205490565b834211156113db5760405162461bcd60e51b815260206004820152600e60248201526d14195c9b5a5d08195e1c1a5c995960921b6044820152606401610332565b60006113e5610e92565b7f49ecf333e5b8c95c40fdafc95c1ad136e8914a8fb55e9dc8bb01eaa83a2df9ad888861141181613003565b6040805160208101959095526001600160a01b03909316928401929092526060830152608082015260a0810187905260c0016040516020818303038152906040528051906020012060405160200161148092919061190160f01b81526002810192909252602282015260420190565b60405160208183030381529060405280519060200120905060006114a3876112af565b9050806001600160a01b0316886001600160a01b031614156115175760405162461bcd60e51b815260206004820152602760248201527f4552433732315065726d69743a20617070726f76616c20746f2063757272656e6044820152663a1037bbb732b960c91b6064820152608401610332565b6001600160a01b0381163b1561162b57604080516020810186905280820185905260f887901b6001600160f81b0319166060820152815160418183030181526061820192839052630b135d3f60e11b9092526001600160a01b03831691631626ba7e916115889186916065016145ed565b60206040518083038186803b1580156115a057600080fd5b505afa1580156115b4573d6000803e3d6000fd5b505050506040513d601f19601f820116820180604052508101906115d891906142c8565b6001600160e01b031916631626ba7e60e01b146116265760405162461bcd60e51b815260206004820152600c60248201526b155b985d5d1a1bdc9a5e995960a21b6044820152606401610332565b611728565b6040805160008082526020820180845285905260ff881692820192909252606081018690526080810185905260019060a0016020604051602081039080840390855afa15801561167f573d6000803e3d6000fd5b5050604051601f1901519150506001600160a01b0381166116d65760405162461bcd60e51b8152602060048201526011602482015270496e76616c6964207369676e617475726560781b6044820152606401610332565b816001600160a01b0316816001600160a01b0316146117265760405162461bcd60e51b815260206004820152600c60248201526b155b985d5d1a1bdc9a5e995960a21b6044820152606401610332565b505b6117328888612c20565b5050505050505050565b600061174a82840184614421565b6000818152600c6020526040902060018101549192509061179c907f000000000000000000000000000000000000000000000000000000000000000090600160501b90046001600160a01b0316612a6d565b5084816005015410156117c25760405163bb2875c360e01b815260040160405180910390fd5b60003390506000816001600160a01b031663dd3b829a6040518163ffffffff1660e01b815260040160206040518083038186803b15801561180257600080fd5b505afa158015611816573d6000803e3d6000fd5b505050506040513d601f19601f8201168201806040525081019061183a919061443a565b90506000826001600160a01b031663d3b5dc3b6040518163ffffffff1660e01b815260040160206040518083038186803b15801561187757600080fd5b505afa15801561188b573d6000803e3d6000fd5b505050506040513d601f19601f820116820180604052508101906118af919061443a565b6002850154909150156118ff578360030154818560020154846118d291906148d8565b6118dc91906148b6565b6118e691906148f7565b8460040160008282546118f9919061489e565b90915550505b8784600201600082825461191391906148f7565b925050819055508784600501600082825461192e91906148f7565b90915550506002840154819061194490846148d8565b61194e91906148b6565b6003850155600184015460408051600160501b9092046001600160a01b03168252602082018a905286917f563fd0a02f25ba703cd9fc54d96ec144ba042fd3e19bec36ac522a953ea4152a910160405180910390a25050505050505050565b606060018054610a1e9061493a565b6000818152600c6020908152604080832081516101008101835281546001600160601b03811682526001600160a01b03600160601b90910481169482019490945260018201546001600160501b038116938201849052600160501b9004909316606084015260028101546080840152600381015460a0840152600481015460c08401526005015460e08301528291829182918291829190611a735760405163b7c882eb60e01b815260048101899052602401610332565b6000611aa37f0000000000000000000000000000000000000000000000000000000000000000836060015161305b565b90506000816001600160a01b031663dd3b829a6040518163ffffffff1660e01b815260040160206040518083038186803b158015611ae057600080fd5b505afa158015611af4573d6000803e3d6000fd5b505050506040513d601f19601f82011682018060405250810190611b18919061443a565b90506000826001600160a01b031663d3b5dc3b6040518163ffffffff1660e01b815260040160206040518083038186803b158015611b5557600080fd5b505afa158015611b69573d6000803e3d6000fd5b505050506040513d601f19601f82011682018060405250810190611b8d919061443a565b905060008460a0015182866080015185611ba791906148d8565b611bb191906148b6565b8660c00151611bc0919061489e565b611bca91906148f7565b905084600001518560200151866060015187608001518860e00151859a509a509a509a509a509a50505050505091939550919395565b611c0b338383613102565b5050565b604051636eb1769f60e11b8152336004820152306024820152600019906001600160a01b0388169063dd62ed3e9060440160206040518083038186803b158015611c5857600080fd5b505afa158015611c6c573d6000803e3d6000fd5b505050506040513d601f19601f82011682018060405250810190611c90919061443a565b1015611ca457611ca486868686868661101c565b505050505050565b7f00000000000000000000000000000000000000000000000000000000000000006001600160a01b031663481c6a756040518163ffffffff1660e01b815260040160206040518083038186803b158015611d0557600080fd5b505afa158015611d19573d6000803e3d6000fd5b505050506040513d601f19601f82011682018060405250810190611d3d9190613fb0565b6001600160a01b0316336001600160a01b031614611d705760405163a59d7f4d60e01b8152336004820152602401610332565b600e80546001600160a01b0319166001600160a01b0392909216919091179055565b611d9c3383612d70565b611db85760405162461bcd60e51b815260040161033290614619565b611dc4848484846131d1565b50505050565b606081516001600160401b03811115611de557611de5614a29565b604051908082528060200260200182016040528015611e2b57816020015b604080518082019091526000815260606020820152815260200190600190039081611e035790505b50905060005b8251811015611f4857600080848381518110611e4f57611e4f614a13565b6020026020010151600001516001600160a01b0316858481518110611e7657611e76614a13565b602002602001015160200151604051611e8f919061455a565b6000604051808303816000865af19150503d8060008114611ecc576040519150601f19603f3d011682016040523d82523d6000602084013e611ed1565b606091505b5091509150858015611ee1575081155b15611eff57604051632b00ce6b60e21b815260040160405180910390fd5b6040518060400160405280831515815260200182815250848481518110611f2857611f28614a13565b602002602001018190525050508080611f4090614996565b915050611e31565b5092915050565b604081013580421115611f7557604051632a0c45bf60e21b815260040160405180910390fd5b81356000908152600c6020908152604082206001810154909291611fad91600160501b90046001600160a01b03169086013530613204565b90506000816001600160a01b031663dd3b829a6040518163ffffffff1660e01b815260040160206040518083038186803b158015611fea57600080fd5b505afa158015611ffe573d6000803e3d6000fd5b505050506040513d601f19601f82011682018060405250810190612022919061443a565b90506000826001600160a01b031663d3b5dc3b6040518163ffffffff1660e01b815260040160206040518083038186803b15801561205f57600080fd5b505afa158015612073573d6000803e3d6000fd5b505050506040513d601f19601f82011682018060405250810190612097919061443a565b6002850154909150156120e7578360030154818560020154846120ba91906148d8565b6120c491906148b6565b6120ce91906148f7565b8460040160008282546120e1919061489e565b90915550505b85602001358460020160008282546120ff919061489e565b90915550506002840154819061211590846148d8565b61211f91906148b6565b6003850155600184015460408051600160501b9092046001600160a01b03168252602080890135908301528735917f2922b9b0ae5d2abc66874bb99d7d6de95267b6d664000d8ae4797af6060be68a910160405180910390a2505050505050565b604051636eb1769f60e11b815233600482015230602482015285906001600160a01b0388169063dd62ed3e9060440160206040518083038186803b1580156121c757600080fd5b505afa1580156121db573d6000803e3d6000fd5b505050506040513d601f19601f820116820180604052508101906121ff919061443a565b1015611ca457611ca48686868686866129c6565b6000806060612223600185610f38565b9196909550909350915050565b6000818152600260205260409020546060906001600160a01b031661225457600080fd5b600e5460405163e9dc637560e01b8152306004820152602481018490526001600160a01b039091169063e9dc63759060440160006040518083038186803b15801561229e57600080fd5b505afa1580156122b2573d6000803e3d6000fd5b505050506040513d6000823e601f3d908101601f191682016040526109ad91908101906142e5565b60006122e682806147d6565b151590506123075760405163a600c81d60e01b815260040160405180910390fd5b60008061231a6040850160208601613f8c565b6001600160a01b03161461233d576123386040840160208501613f8c565b61233f565b305b905060005b61234e84806147d6565b905081101561239f5761238161236485806147d6565b8381811061237457612374614a13565b90506020020135836132d5565b61238b908461489e565b92508061239781614996565b915050612344565b5050919050565b6040516370a0823160e01b81523060048201526000906001600160a01b038516906370a082319060240160206040518083038186803b1580156123e857600080fd5b505afa1580156123fc573d6000803e3d6000fd5b505050506040513d601f19601f82011682018060405250810190612420919061443a565b9050828110156124675760405162461bcd60e51b815260206004820152601260248201527124b739bab33334b1b4b2b73a103a37b5b2b760711b6044820152606401610332565b8015611dc457611dc484838361356d565b80356124843382612d70565b6124a05760405162461bcd60e51b8152600401610332906146fd565b6040820135804211156124c657604051632a0c45bf60e21b815260040160405180910390fd5b60008360200135116124d757600080fd5b82356000908152600c6020908152604090912060028101546005820154919290916125049187013561489e565b8110156125245760405163bb2875c360e01b815260040160405180910390fd5b846020013582600501600082825461253c919061489e565b90915550506001820154600090612584907f000000000000000000000000000000000000000000000000000000000000000090600160501b90046001600160a01b031661305b565b90506000816001600160a01b031663653741ff8860200135338a600001356040516020016125b491815260200190565b6040516020818303038152906040526040518463ffffffff1660e01b81526004016125e193929190614723565b602060405180830381600087803b1580156125fb57600080fd5b505af115801561260f573d6000803e3d6000fd5b505050506040513d601f19601f82011682018060405250810190612633919061443a565b600185015460408051600160501b9092046001600160a01b0316825260208a8101359083015281018290529091508735907f1f9e6f7cc4cf614490984d1581bb2b2280b0394202e12fbf8b435e47e4997f109060600160405180910390a250505050505050565b60006060820135804211156126c257604051632a0c45bf60e21b815260040160405180910390fd5b60006126df6126d46020860186613f8c565b856020013530613204565b90506127426126f46060860160408701613f8c565b600d80546001600160b01b031690600061270d8361496f565b91906101000a8154816001600160b01b0302191690836001600160b01b031602179055506001600160b01b0316945084613697565b6000816001600160a01b031663dd3b829a6040518163ffffffff1660e01b815260040160206040518083038186803b15801561277d57600080fd5b505afa158015612791573d6000803e3d6000fd5b505050506040513d601f19601f820116820180604052508101906127b5919061443a565b90506000826001600160a01b031663d3b5dc3b6040518163ffffffff1660e01b815260040160206040518083038186803b1580156127f257600080fd5b505afa158015612806573d6000803e3d6000fd5b505050506040513d601f19601f8201168201806040525081019061282a919061443a565b905060008161283d6020890135856148d8565b61284791906148b6565b905060006128618561285c60208b018b613f8c565b613830565b905060405180610100016040528060006001600160601b0316815260200160006001600160a01b03168152602001826001600160501b031681526020018960000160208101906128b19190613f8c565b6001600160a01b03908116825260208b810180358285015260408085018890526000606080870182905260809687018290528e8252600c8552908290208751948801518616600160601b026001600160601b039095169490941784559086015160018401805492880151909516600160501b026001600160f01b03199092166001600160501b03909116171790925591830151600283015560a0830151600383015560c0830151600483015560e09092015160059091015587907f2922b9b0ae5d2abc66874bb99d7d6de95267b6d664000d8ae4797af6060be68a90612997908b613f8c565b604080516001600160a01b0390921682526020808d0135908301520160405180910390a2505050505050919050565b60405163d505accf60e01b8152336004820152306024820152604481018690526064810185905260ff8416608482015260a4810183905260c481018290526001600160a01b0387169063d505accf9060e401611077565b60006001600160e01b031982166380ac58cd60e01b1480612a4e57506001600160e01b03198216635b5e139f60e01b145b806109ad57506301ffc9a760e01b6001600160e01b03198316146109ad565b6000612a79838361305b565b9050336001600160a01b038216146109ad57600080fd5b7f00000000000000000000000000000000000000000000000000000000000000006001600160a01b0316846001600160a01b0316148015612ad15750804710155b15612bf3577f00000000000000000000000000000000000000000000000000000000000000006001600160a01b031663d0e30db0826040518263ffffffff1660e01b81526004016000604051808303818588803b158015612b3157600080fd5b505af1158015612b45573d6000803e3d6000fd5b505060405163a9059cbb60e01b81526001600160a01b038681166004830152602482018690527f000000000000000000000000000000000000000000000000000000000000000016935063a9059cbb92506044019050602060405180830381600087803b158015612bb557600080fd5b505af1158015612bc9573d6000803e3d6000fd5b505050506040513d601f19601f82011682018060405250810190612bed919061423f565b50611dc4565b6001600160a01b038316301415612c1457612c0f84838361356d565b611dc4565b611dc4848484846138ee565b6000818152600c6020526040902080546001600160601b0316600160601b6001600160a01b038516908102919091179091558190612c5d826112af565b6001600160a01b03167f8c5be1e5ebec7d5bd14f71427d1e84f3dd0314c0f7b2291e5b200ac8c7c3b92560405160405180910390a45050565b604080516000808252602082019092526001600160a01b038416908390604051612cc0919061455a565b60006040518083038185875af1925050503d8060008114612cfd576040519150601f19603f3d011682016040523d82523d6000602084013e612d02565b606091505b5050905080610c4e5760405162461bcd60e51b815260206004820152603460248201527f5472616e7366657248656c7065723a3a736166655472616e736665724554483a60448201527308115512081d1c985b9cd9995c8819985a5b195960621b6064820152608401610332565b600080612d7c836112af565b9050806001600160a01b0316846001600160a01b03161480612dc357506001600160a01b0380821660009081526005602090815260408083209388168352929052205460ff165b80612de75750836001600160a01b0316612ddc84610aa1565b6001600160a01b0316145b949350505050565b826001600160a01b0316612e02826112af565b6001600160a01b031614612e285760405162461bcd60e51b8152600401610332906146b8565b6001600160a01b038216612e8a5760405162461bcd60e51b8152602060048201526024808201527f4552433732313a207472616e7366657220746f20746865207a65726f206164646044820152637265737360e01b6064820152608401610332565b612e978383836001613a24565b826001600160a01b0316612eaa826112af565b6001600160a01b031614612ed05760405162461bcd60e51b8152600401610332906146b8565b600081815260046020908152604080832080546001600160a01b03199081169091556001600160a01b0387811680865260038552838620805460001901905590871680865283862080546001019055868652600290945282852080549092168417909155905184937fddf252ad1be2c89b69c2b068fc378daa952ba7f163c4a11628f55a4df523b3ef91a4505050565b6000612f6b826112af565b9050612f7b816000846001613a24565b612f84826112af565b600083815260046020908152604080832080546001600160a01b03199081169091556001600160a01b0385168085526003845282852080546000190190558785526002909352818420805490911690555192935084927fddf252ad1be2c89b69c2b068fc378daa952ba7f163c4a11628f55a4df523b3ef908390a45050565b6000818152600c6020526040812080546001600160601b03169082613027836149ce565b91906101000a8154816001600160601b0302191690836001600160601b031602179055506001600160601b03169050919050565b604080516001600160a01b03831660208083019190915282518083038201815282840190935282519201919091206001600160f81b031960608084019190915284901b6bffffffffffffffffffffffff1916606183015260758201527f70ef69ec8152a99be9dbad56797842efb855eae534abf8441ef003b2ffdb503b609582015260009060b50160408051601f1981840301815291905280516020909101209392505050565b816001600160a01b0316836001600160a01b031614156131645760405162461bcd60e51b815260206004820152601960248201527f4552433732313a20617070726f766520746f2063616c6c6572000000000000006044820152606401610332565b6001600160a01b03838116600081815260056020908152604080832094871680845294825291829020805460ff191686151590811790915591519182527f17307eab39ab6107e8899845ad3d59bd9653f200f220920489ca2b5937696c31910160405180910390a3505050565b6131dc848484612def565b6131e884848484613b51565b611dc45760405162461bcd60e51b815260040161033290614666565b6000806132317f00000000000000000000000000000000000000000000000000000000000000008661305b565b6040805180820182526001600160a01b038881168083523360209384019081528451938401919091525181168284015282518083038401815260608301938490526394d008ef60e01b909352929350918316916394d008ef9161329a91879189916064016145b3565b600060405180830381600087803b1580156132b457600080fd5b505af11580156132c8573d6000803e3d6000fd5b5092979650505050505050565b6000826132e23382612d70565b6132fe5760405162461bcd60e51b8152600401610332906146fd565b6000848152600c60205260408120600181015490919061334f907f000000000000000000000000000000000000000000000000000000000000000090600160501b90046001600160a01b031661305b565b90506000816001600160a01b031663dd3b829a6040518163ffffffff1660e01b815260040160206040518083038186803b15801561338c57600080fd5b505afa1580156133a0573d6000803e3d6000fd5b505050506040513d601f19601f820116820180604052508101906133c4919061443a565b90506000826001600160a01b031663d3b5dc3b6040518163ffffffff1660e01b815260040160206040518083038186803b15801561340157600080fd5b505afa158015613415573d6000803e3d6000fd5b505050506040513d601f19601f82011682018060405250810190613439919061443a565b6002850154909150156134895783600301548185600201548461345c91906148d8565b61346691906148b6565b61347091906148f7565b846004016000828254613483919061489e565b90915550505b8084600201548361349a91906148d8565b6134a491906148b6565b6003850155600480850154604051631ae0d5eb60e21b81526001600160a01b038a8116938201939093526024810182905290975090841690636b8357ac90604401600060405180830381600087803b1580156134ff57600080fd5b505af1158015613513573d6000803e3d6000fd5b5050600060048701555050604080516001600160a01b03891681526020810188905289917fb4c637563739b8b888009831a973a33b8232d71a9ff716b9d41d1f38bfd76b6a910160405180910390a2505050505092915050565b604080516001600160a01b038481166024830152604480830185905283518084039091018152606490920183526020820180516001600160e01b031663a9059cbb60e01b17905291516000928392908716916135c9919061455a565b6000604051808303816000865af19150503d8060008114613606576040519150601f19603f3d011682016040523d82523d6000602084013e61360b565b606091505b5091509150818015613635575080511580613635575080806020019051810190613635919061423f565b610a085760405162461bcd60e51b815260206004820152602d60248201527f5472616e7366657248656c7065723a3a736166655472616e736665723a20747260448201526c185b9cd9995c8819985a5b1959609a1b6064820152608401610332565b6001600160a01b0382166136ed5760405162461bcd60e51b815260206004820181905260248201527f4552433732313a206d696e7420746f20746865207a65726f20616464726573736044820152606401610332565b6000818152600260205260409020546001600160a01b0316156137525760405162461bcd60e51b815260206004820152601c60248201527f4552433732313a20746f6b656e20616c7265616479206d696e746564000000006044820152606401610332565b613760600083836001613a24565b6000818152600260205260409020546001600160a01b0316156137c55760405162461bcd60e51b815260206004820152601c60248201527f4552433732313a20746f6b656e20616c7265616479206d696e746564000000006044820152606401610332565b6001600160a01b038216600081815260036020908152604080832080546001019055848352600290915280822080546001600160a01b0319168417905551839291907fddf252ad1be2c89b69c2b068fc378daa952ba7f163c4a11628f55a4df523b3ef908290a45050565b6001600160a01b0382166000908152600a60205260409020546001600160501b0316806109ad57600d8054600160b01b90046001600160501b0316906016613877836149b1565b82546101009290920a6001600160501b038181021990931691831602179091556001600160a01b039485166000908152600a60209081526040808320805469ffffffffffffffffffff19169486169485179055928252600b90522080546001600160a01b0319169390941692909217909255919050565b604080516001600160a01b0385811660248301528481166044830152606480830185905283518084039091018152608490920183526020820180516001600160e01b03166323b872dd60e01b1790529151600092839290881691613952919061455a565b6000604051808303816000865af19150503d806000811461398f576040519150601f19603f3d011682016040523d82523d6000602084013e613994565b606091505b50915091508180156139be5750805115806139be5750808060200190518101906139be919061423f565b611ca45760405162461bcd60e51b815260206004820152603160248201527f5472616e7366657248656c7065723a3a7472616e7366657246726f6d3a207472604482015270185b9cd9995c919c9bdb4819985a5b1959607a1b6064820152608401610332565b6001811115613a935760405162461bcd60e51b815260206004820152603560248201527f455243373231456e756d657261626c653a20636f6e7365637574697665207472604482015274185b9cd9995c9cc81b9bdd081cdd5c1c1bdc9d1959605a1b6064820152608401610332565b816001600160a01b038516613aef57613aea81600880546000838152600960205260408120829055600182018355919091527ff3f7a9fe364faab93b216da50a3214154f22a0a2b415b23a84c8169e8b636ee30155565b613b12565b836001600160a01b0316856001600160a01b031614613b1257613b128582613c5e565b6001600160a01b038416613b2e57613b2981613cfb565b610a08565b846001600160a01b0316846001600160a01b031614610a0857610a088482613daa565b60006001600160a01b0384163b15613c5357604051630a85bd0160e11b81526001600160a01b0385169063150b7a0290613b95903390899088908890600401614576565b602060405180830381600087803b158015613baf57600080fd5b505af1925050508015613bdf575060408051601f3d908101601f19168201909252613bdc918101906142c8565b60015b613c39573d808015613c0d576040519150601f19603f3d011682016040523d82523d6000602084013e613c12565b606091505b508051613c315760405162461bcd60e51b815260040161033290614666565b805181602001fd5b6001600160e01b031916630a85bd0160e11b149050612de7565b506001949350505050565b60006001613c6b84611314565b613c7591906148f7565b600083815260076020526040902054909150808214613cc8576001600160a01b03841660009081526006602090815260408083208584528252808320548484528184208190558352600790915290208190555b5060009182526007602090815260408084208490556001600160a01b039094168352600681528383209183525290812055565b600854600090613d0d906001906148f7565b60008381526009602052604081205460088054939450909284908110613d3557613d35614a13565b906000526020600020015490508060088381548110613d5657613d56614a13565b6000918252602080832090910192909255828152600990915260408082208490558582528120556008805480613d8e57613d8e6149fd565b6001900381819060005260206000200160009055905550505050565b6000613db583611314565b6001600160a01b039093166000908152600660209081526040808320868452825280832085905593825260079052919091209190915550565b600082601f830112613dff57600080fd5b813560206001600160401b0380831115613e1b57613e1b614a29565b8260051b613e2a838201614847565b8481528381019087850183890186018a1015613e4557600080fd5b600093505b86841015613ec957803585811115613e6157600080fd5b89016040818c03601f1901811315613e7857600080fd5b613e8061481f565b88830135613e8d81614a3f565b8152908201359087821115613ea157600080fd5b613eaf8d8a84860101613f1e565b818a01528552505060019390930192918501918501613e4a565b5098975050505050505050565b60008083601f840112613ee857600080fd5b5081356001600160401b03811115613eff57600080fd5b602083019150836020828501011115613f1757600080fd5b9250929050565b600082601f830112613f2f57600080fd5b8135613f42613f3d82614877565b614847565b818152846020838601011115613f5757600080fd5b816020850160208301376000918101602001919091529392505050565b600060608284031215613f8657600080fd5b50919050565b600060208284031215613f9e57600080fd5b8135613fa981614a3f565b9392505050565b600060208284031215613fc257600080fd5b8151613fa981614a3f565b60008060408385031215613fe057600080fd5b8235613feb81614a3f565b91506020830135613ffb81614a3f565b809150509250929050565b60008060006060848603121561401b57600080fd5b833561402681614a3f565b9250602084013561403681614a3f565b929592945050506040919091013590565b6000806000806080858703121561405d57600080fd5b843561406881614a3f565b9350602085013561407881614a3f565b92506040850135915060608501356001600160401b0381111561409a57600080fd5b6140a687828801613f1e565b91505092959194509250565b600080604083850312156140c557600080fd5b82356140d081614a3f565b91506020830135613ffb81614a57565b600080604083850312156140f357600080fd5b82356140fe81614a3f565b946020939093013593505050565b60008060006060848603121561412157600080fd5b833561412c81614a3f565b925060208401359150604084013561414381614a3f565b809150509250925092565b6000806000806060858703121561416457600080fd5b843561416f81614a3f565b93506020850135925060408501356001600160401b0381111561419157600080fd5b61419d87828801613ed6565b95989497509550505050565b60008060008060008060c087890312156141c257600080fd5b86356141cd81614a3f565b95506020870135945060408701359350606087013560ff811681146141f157600080fd5b9598949750929560808101359460a0909101359350915050565b60006020828403121561421d57600080fd5b81356001600160401b0381111561423357600080fd5b612de784828501613dee565b60006020828403121561425157600080fd5b8151613fa981614a57565b6000806040838503121561426f57600080fd5b823561427a81614a57565b915060208301356001600160401b0381111561429557600080fd5b6142a185828601613dee565b9150509250929050565b6000602082840312156142bd57600080fd5b8135613fa981614a65565b6000602082840312156142da57600080fd5b8151613fa981614a65565b6000602082840312156142f757600080fd5b81516001600160401b0381111561430d57600080fd5b8201601f8101841361431e57600080fd5b805161432c613f3d82614877565b81815285602083850101111561434157600080fd5b61435282602083016020860161490e565b95945050505050565b60006020828403121561436d57600080fd5b81356001600160401b0381111561438357600080fd5b820160408185031215613fa957600080fd5b6000606082840312156143a757600080fd5b613fa98383613f74565b6000604082840312156143c357600080fd5b604051604081018181106001600160401b03821117156143e5576143e5614a29565b60405282356143f381614a3f565b8152602083013561440381614a3f565b60208201529392505050565b600060808284031215613f8657600080fd5b60006020828403121561443357600080fd5b5035919050565b60006020828403121561444c57600080fd5b5051919050565b6000806040838503121561446657600080fd5b823591506020830135613ffb81614a3f565b60008060006040848603121561448d57600080fd5b8335925060208401356001600160401b038111156144aa57600080fd5b6144b686828701613ed6565b9497909650939450505050565b600081518084526020808501808196508360051b8101915082860160005b858110156145215782840389528151805115158552850151604086860181905261450d8187018361452e565b9a87019a95505050908401906001016144e1565b5091979650505050505050565b6000815180845261454681602086016020860161490e565b601f01601f19169290920160200192915050565b6000825161456c81846020870161490e565b9190910192915050565b6001600160a01b03858116825284166020820152604081018390526080606082018190526000906145a99083018461452e565b9695505050505050565b60018060a01b0384168152826020820152606060408201526000614352606083018461452e565b602081526000613fa960208301846144c3565b828152604060208201526000612de7604083018461452e565b602081526000613fa9602083018461452e565b6020808252602d908201527f4552433732313a2063616c6c6572206973206e6f7420746f6b656e206f776e6560408201526c1c881bdc88185c1c1c9bdd9959609a1b606082015260800190565b60208082526032908201527f4552433732313a207472616e7366657220746f206e6f6e20455243373231526560408201527131b2b4bb32b91034b6b83632b6b2b73a32b960711b606082015260800190565b60208082526025908201527f4552433732313a207472616e736665722066726f6d20696e636f72726563742060408201526437bbb732b960d91b606082015260800190565b6020808252600c908201526b139bdd08185c1c1c9bdd995960a21b604082015260600190565b8381526001600160a01b03831660208201526060604082018190526000906143529083018461452e565b600060408201848352602060408185015281855180845260608601915060608160051b870101935082870160005b828110156147a957605f1988870301845261479786835161452e565b9550928401929084019060010161477b565b509398975050505050505050565b83815282602082015260606040820152600061435260608301846144c3565b6000808335601e198436030181126147ed57600080fd5b8301803591506001600160401b0382111561480757600080fd5b6020019150600581901b3603821315613f1757600080fd5b604080519081016001600160401b038111828210171561484157614841614a29565b60405290565b604051601f8201601f191681016001600160401b038111828210171561486f5761486f614a29565b604052919050565b60006001600160401b0382111561489057614890614a29565b50601f01601f191660200190565b600082198211156148b1576148b16149e7565b500190565b6000826148d357634e487b7160e01b600052601260045260246000fd5b500490565b60008160001904831182151516156148f2576148f26149e7565b500290565b600082821015614909576149096149e7565b500390565b60005b83811015614929578181015183820152602001614911565b83811115611dc45750506000910152565b600181811c9082168061494e57607f821691505b60208210811415613f8657634e487b7160e01b600052602260045260246000fd5b60006001600160b01b038281168082141561498c5761498c6149e7565b6001019392505050565b60006000198214156149aa576149aa6149e7565b5060010190565b60006001600160501b038083168181141561498c5761498c6149e7565b60006001600160601b038083168181141561498c5761498c5b634e487b7160e01b600052601160045260246000fd5b634e487b7160e01b600052603160045260246000fd5b634e487b7160e01b600052603260045260246000fd5b634e487b7160e01b600052604160045260246000fd5b6001600160a01b0381168114614a5457600080fd5b50565b8015158114614a5457600080fd5b6001600160e01b031981168114614a5457600080fdfea264697066735822122009763a6cd00ec6f056fd0c198bd16c35045d23b5c6666a956c8469f64422ed7664736f6c63430008070033",
  "linkReferences": {},
  "deployedLinkReferences": {}
}