{
  "_format": "hh-sol-artifact-1",
  "contractName": "TokenReader",
  "sourceName": "contracts/TokenReader.sol",
  "abi": [
    {
      "inputs": [
        {
          "internalType": "address",
          "name": "addr",
          "type": "address"
        }
      ],
      "name": "ZeroAddress",
      "type": "error"
    },
    {
      "inputs": [
        {
          "internalType": "address[]",
          "name": "_users",
          "type": "address[]"
        },
        {
          "internalType": "address",
          "name": "_token",
          "type": "address"
        },
        {
          "internalType": "address",
          "name": "_spender",
          "type": "address"
        }
      ],
      "name": "getTokenAllowances",
      "outputs": [
        {
          "internalType": "uint256[]",
          "name": "",
          "type": "uint256[]"
        }
      ],
      "stateMutability": "view",
      "type": "function"
    },
    {
      "inputs": [
        {
          "internalType": "address[]",
          "name": "_users",
          "type": "address[]"
        },
        {
          "internalType": "address",
          "name": "_token",
          "type": "address"
        }
      ],
      "name": "getTokenBalances",
      "outputs": [
        {
          "internalType": "uint256[]",
          "name": "",
          "type": "uint256[]"
        }
      ],
      "stateMutability": "view",
      "type": "function"
    },
    {
      "inputs": [
        {
          "internalType": "address[]",
          "name": "_tokens",
          "type": "address[]"
        }
      ],
      "name": "getTokenDecimals",
      "outputs": [
        {
          "internalType": "uint256[]",
          "name": "",
          "type": "uint256[]"
        }
      ],
      "stateMutability": "view",
      "type": "function"
    },
    {
      "inputs": [
        {
          "internalType": "address[]",
          "name": "_tokens",
          "type": "address[]"
        }
      ],
      "name": "getTokenSupplies",
      "outputs": [
        {
          "internalType": "uint256[]",
          "name": "",
          "type": "uint256[]"
        }
      ],
      "stateMutability": "view",
      "type": "function"
    },
    {
      "inputs": [
        {
          "internalType": "address",
          "name": "_user",
          "type": "address"
        },
        {
          "internalType": "address[]",
          "name": "_tokens",
          "type": "address[]"
        },
        {
          "internalType": "address",
          "name": "_spender",
          "type": "address"
        }
      ],
      "name": "getTokensAllowance",
      "outputs": [
        {
          "internalType": "uint256[]",
          "name": "",
          "type": "uint256[]"
        }
      ],
      "stateMutability": "view",
      "type": "function"
    },
    {
      "inputs": [
        {
          "internalType": "address",
          "name": "_user",
          "type": "address"
        },
        {
          "internalType": "address[]",
          "name": "_tokens",
          "type": "address[]"
        }
      ],
      "name": "getTokensBalance",
      "outputs": [
        {
          "internalType": "uint256[]",
          "name": "",
          "type": "uint256[]"
        }
      ],
      "stateMutability": "view",
      "type": "function"
    }
  ],
  "bytecode": "0x608060405234801561001057600080fd5b50610ce1806100206000396000f3fe608060405234801561001057600080fd5b50600436106100625760003560e01c80631e6a15971461006757806337860a08146100905780634e11048f146100a357806363f35cdd146100b6578063706e2f9b146100c9578063c3fae362146100dc575b600080fd5b61007a610075366004610aef565b6100ef565b6040516100879190610c12565b60405180910390f35b61007a61009e366004610a43565b610287565b61007a6100b1366004610a91565b6103f3565b61007a6100c4366004610b7a565b610568565b61007a6100d7366004610aef565b6106cb565b61007a6100ea366004610b2c565b610824565b805160609060008167ffffffffffffffff81111561010f5761010f610c95565b604051908082528060200260200182016040528015610138578160200160208202803683370190505b50905060005b8281101561027f5760006001600160a01b031685828151811061016357610163610c7f565b60200260200101516001600160a01b031614156101c65784818151811061018c5761018c610c7f565b6020026020010151604051633202e20d60e21b81526004016101bd91906001600160a01b0391909116815260200190565b60405180910390fd5b8481815181106101d8576101d8610c7f565b60200260200101516001600160a01b03166318160ddd6040518163ffffffff1660e01b815260040160206040518083038186803b15801561021857600080fd5b505afa15801561022c573d6000803e3d6000fd5b505050506040513d601f19601f820116820180604052508101906102509190610bcf565b82828151811061026257610262610c7f565b60209081029190910101528061027781610c56565b91505061013e565b509392505050565b805160609060008167ffffffffffffffff8111156102a7576102a7610c95565b6040519080825280602002602001820160405280156102d0578160200160208202803683370190505b50905060005b828110156103ea5760006001600160a01b03168582815181106102fb576102fb610c7f565b60200260200101516001600160a01b031614156103245784818151811061018c5761018c610c7f565b84818151811061033657610336610c7f565b60209081029190910101516040516370a0823160e01b81526001600160a01b038881166004830152909116906370a082319060240160206040518083038186803b15801561038357600080fd5b505afa158015610397573d6000803e3d6000fd5b505050506040513d601f19601f820116820180604052508101906103bb9190610bcf565b8282815181106103cd576103cd610c7f565b6020908102919091010152806103e281610c56565b9150506102d6565b50949350505050565b815160609060008167ffffffffffffffff81111561041357610413610c95565b60405190808252806020026020018201604052801561043c578160200160208202803683370190505b50905060005b8281101561055e5760006001600160a01b031686828151811061046757610467610c7f565b60200260200101516001600160a01b031614156104905785818151811061018c5761018c610c7f565b8581815181106104a2576104a2610c7f565b6020908102919091010151604051636eb1769f60e11b81526001600160a01b03898116600483015287811660248301529091169063dd62ed3e9060440160206040518083038186803b1580156104f757600080fd5b505afa15801561050b573d6000803e3d6000fd5b505050506040513d601f19601f8201168201806040525081019061052f9190610bcf565b82828151811061054157610541610c7f565b60209081029190910101528061055681610c56565b915050610442565b5095945050505050565b60606001600160a01b03831661059c57604051633202e20d60e21b81526001600160a01b03841660048201526024016101bd565b835160008167ffffffffffffffff8111156105b9576105b9610c95565b6040519080825280602002602001820160405280156105e2578160200160208202803683370190505b50905060005b8281101561055e57856001600160a01b031663dd62ed3e88838151811061061157610611610c7f565b6020026020010151876040518363ffffffff1660e01b815260040161064c9291906001600160a01b0392831681529116602082015260400190565b60206040518083038186803b15801561066457600080fd5b505afa158015610678573d6000803e3d6000fd5b505050506040513d601f19601f8201168201806040525081019061069c9190610bcf565b8282815181106106ae576106ae610c7f565b6020908102919091010152806106c381610c56565b9150506105e8565b805160609060008167ffffffffffffffff8111156106eb576106eb610c95565b604051908082528060200260200182016040528015610714578160200160208202803683370190505b50905060005b8281101561027f5760006001600160a01b031685828151811061073f5761073f610c7f565b60200260200101516001600160a01b031614156107685784818151811061018c5761018c610c7f565b84818151811061077a5761077a610c7f565b60200260200101516001600160a01b031663313ce5676040518163ffffffff1660e01b815260040160206040518083038186803b1580156107ba57600080fd5b505afa1580156107ce573d6000803e3d6000fd5b505050506040513d601f19601f820116820180604052508101906107f29190610be8565b60ff1682828151811061080757610807610c7f565b60209081029190910101528061081c81610c56565b91505061071a565b60606001600160a01b03821661085857604051633202e20d60e21b81526001600160a01b03831660048201526024016101bd565b825160008167ffffffffffffffff81111561087557610875610c95565b60405190808252806020026020018201604052801561089e578160200160208202803683370190505b50905060005b828110156103ea57846001600160a01b03166370a082318783815181106108cd576108cd610c7f565b60200260200101516040518263ffffffff1660e01b815260040161090091906001600160a01b0391909116815260200190565b60206040518083038186803b15801561091857600080fd5b505afa15801561092c573d6000803e3d6000fd5b505050506040513d601f19601f820116820180604052508101906109509190610bcf565b82828151811061096257610962610c7f565b60209081029190910101528061097781610c56565b9150506108a4565b80356001600160a01b038116811461099657600080fd5b919050565b600082601f8301126109ac57600080fd5b8135602067ffffffffffffffff808311156109c9576109c9610c95565b8260051b604051601f19603f830116810181811084821117156109ee576109ee610c95565b60405284815283810192508684018288018501891015610a0d57600080fd5b600092505b85831015610a3757610a238161097f565b845292840192600192909201918401610a12565b50979650505050505050565b60008060408385031215610a5657600080fd5b610a5f8361097f565b9150602083013567ffffffffffffffff811115610a7b57600080fd5b610a878582860161099b565b9150509250929050565b600080600060608486031215610aa657600080fd5b610aaf8461097f565b9250602084013567ffffffffffffffff811115610acb57600080fd5b610ad78682870161099b565b925050610ae66040850161097f565b90509250925092565b600060208284031215610b0157600080fd5b813567ffffffffffffffff811115610b1857600080fd5b610b248482850161099b565b949350505050565b60008060408385031215610b3f57600080fd5b823567ffffffffffffffff811115610b5657600080fd5b610b628582860161099b565b925050610b716020840161097f565b90509250929050565b600080600060608486031215610b8f57600080fd5b833567ffffffffffffffff811115610ba657600080fd5b610bb28682870161099b565b935050610bc16020850161097f565b9150610ae66040850161097f565b600060208284031215610be157600080fd5b5051919050565b600060208284031215610bfa57600080fd5b815160ff81168114610c0b57600080fd5b9392505050565b6020808252825182820181905260009190848201906040850190845b81811015610c4a57835183529284019291840191600101610c2e565b50909695505050505050565b6000600019821415610c7857634e487b7160e01b600052601160045260246000fd5b5060010190565b634e487b7160e01b600052603260045260246000fd5b634e487b7160e01b600052604160045260246000fdfea26469706673582212208e6e6d11675e462b156f66a23bb4ffca0012857c967536087b7d65265c7c703f64736f6c63430008070033",
  "linkReferences": {},
  "deployedLinkReferences": {}
}