{
  "_format": "hh-sol-artifact-1",
  "contractName": "PoolDeployer",
  "sourceName": "contracts/PoolDeployer.sol",
  "abi": [
    {
      "inputs": [
        {
          "internalType": "address",
          "name": "sender",
          "type": "address"
        }
      ],
      "name": "Forbidden",
      "type": "error"
    },
    {
      "inputs": [],
      "name": "InitializedAlready",
      "type": "error"
    },
    {
      "anonymous": false,
      "inputs": [
        {
          "indexed": true,
          "internalType": "address",
          "name": "factory",
          "type": "address"
        }
      ],
      "name": "SetFactory",
      "type": "event"
    },
    {
      "inputs": [
        {
          "internalType": "address",
          "name": "_quoteToken",
          "type": "address"
        },
        {
          "internalType": "uint256",
          "name": "_interest",
          "type": "uint256"
        }
      ],
      "name": "deployPool",
      "outputs": [
        {
          "internalType": "address payable",
          "name": "pool",
          "type": "address"
        }
      ],
      "stateMutability": "nonpayable",
      "type": "function"
    },
    {
      "inputs": [],
      "name": "factory",
      "outputs": [
        {
          "internalType": "address",
          "name": "",
          "type": "address"
        }
      ],
      "stateMutability": "view",
      "type": "function"
    },
    {
      "inputs": [],
      "name": "poolInitCodeHash",
      "outputs": [
        {
          "internalType": "bytes32",
          "name": "",
          "type": "bytes32"
        }
      ],
      "stateMutability": "pure",
      "type": "function"
    },
    {
      "inputs": [
        {
          "internalType": "address",
          "name": "_factory",
          "type": "address"
        }
      ],
      "name": "setFactory",
      "outputs": [],
      "stateMutability": "nonpayable",
      "type": "function"
    }
  ],
  "bytecode": "0x608060405234801561001057600080fd5b50615d48806100206000396000f3fe608060405234801561001057600080fd5b506004361061004c5760003560e01c806327c74f7f146100515780635bb4780814610081578063c45a015514610096578063d64efe91146100a9575b600080fd5b61006461005f3660046102ad565b6100bf565b6040516001600160a01b0390911681526020015b60405180910390f35b61009461008f36600461028b565b6101be565b005b600054610064906001600160a01b031681565b6100b1610230565b604051908152602001610078565b600080546001600160a01b031633146100f15760405163a59d7f4d60e01b815233600482015260240160405180910390fd5b604080516001600160a01b0385166020820152016040516020818303038152906040528051906020012060405161012790610262565b8190604051809103906000f5905080158015610147573d6000803e3d6000fd5b506000546040516305e52ecf60e21b81526001600160a01b039182166004820152858216602482015260448101859052919250821690631794bb3c90606401600060405180830381600087803b1580156101a057600080fd5b505af11580156101b4573d6000803e3d6000fd5b5050505092915050565b6000546001600160a01b0316156101e8576040516373e833b960e11b815260040160405180910390fd5b600080546001600160a01b0319166001600160a01b038316908117825560405190917f1c893ef9379093af30f458b9e74d2aba13c499660b68dec5e29af7b199c188b991a250565b60006040518060200161024290610262565b6020820181038252601f19601f8201166040525080519060200120905090565b615a3b806102d883390190565b80356001600160a01b038116811461028657600080fd5b919050565b60006020828403121561029d57600080fd5b6102a68261026f565b9392505050565b600080604083850312156102c057600080fd5b6102c98361026f565b94602093909301359350505056fe6080604052600160005534801561001557600080fd5b50615a1580620000266000396000f3fe608060405234801561001057600080fd5b50600436106102115760003560e01c80638da11bfb11610125578063d43c1b69116100ad578063dd3b829a1161007c578063dd3b829a14610486578063fa5a2e621461048f578063fba0c81414610498578063fc9ffe10146104ab578063ffc9dcbb146104be57600080fd5b8063d43c1b6914610402578063d4fd690514610415578063d8f2cab71461046a578063dc6638f41461047d57600080fd5b8063ada3112f116100f4578063ada3112f146103cc578063ba343922146103d5578063c392f766146103dd578063c45a0155146103e6578063d3b5dc3b146103f957600080fd5b80638da11bfb1461038a57806394d008ef1461039d5780639da771f4146103b0578063a1c59afc146103b957600080fd5b806340650eef116101a8578063685b61d011610177578063685b61d0146103335780636b8357ac1461033c578063743753591461034f5780637c08ddc9146103575780638b6e00fa1461036a57600080fd5b806340650eef146102e757806341ba5951146102fa57806359129e751461030d578063653741ff1461032057600080fd5b80631d086720116101e45780631d0867201461028d578063217a4b70146102a057806327014e33146102cb57806332196a01146102d457600080fd5b80630121c777146102165780630adcf0f5146102325780631636e199146102655780631794bb3c1461027a575b600080fd5b61021f60095481565b6040519081526020015b60405180910390f35b610255610240366004614cee565b600d6020526000908152604090205460ff1681565b6040519015158152602001610229565b61027861027336600461518a565b6104de565b005b610278610288366004614d28565b6107fc565b61027861029b36600461527d565b6108d7565b6002546102b3906001600160a01b031681565b6040516001600160a01b039091168152602001610229565b61021f600b5481565b6102786102e2366004614df0565b610940565b6102786102f536600461527d565b610aca565b61021f610308366004615000565b610b2c565b61027861031b366004614eee565b61104a565b61021f61032e3660046152bb565b611344565b61021f60085481565b61027861034a366004614d69565b6114df565b61021f61163b565b61021f61036536600461518a565b61164a565b61021f610378366004614cee565b600f6020526000908152604090205481565b6102786103983660046151a6565b61197d565b6102786103ab366004614d95565b611eb0565b61021f60075481565b61021f6103c7366004614cee565b612167565b61021f600a5481565b610278612200565b61021f60045481565b6001546102b3906001600160a01b031681565b61021f60035481565b610278610410366004615097565b6122c5565b61044a610423366004614cee565b60106020526000908152604090208054600182015460028301546003909301549192909184565b604080519485526020850193909352918301526060820152608001610229565b610278610478366004614f1e565b61289c565b61021f60055481565b61021f600c5481565b61021f60065481565b6102786104a6366004614fc6565b612e77565b6102786104b936600461518a565b6136b3565b61021f6104cc366004614cee565b600e6020526000908152604090205481565b600054600114610501576040516303cb96db60e21b815260040160405180910390fd5b60008055600154604051639a30739160e01b81523360048201526001600160a01b0390911690639a3073919060240160206040518083038186803b15801561054857600080fd5b505afa15801561055c573d6000803e3d6000fd5b505050506040513d601f19601f820116820180604052508101906105809190614eb8565b6105a45760405163a59d7f4d60e01b81523360048201526024015b60405180910390fd5b600154604080516316ed252d60e31b815290516001600160a01b0390921691600091839163b769296891600480820192602092909190829003018186803b1580156105ee57600080fd5b505afa158015610602573d6000803e3d6000fd5b505050506040513d601f19601f820116820180604052508101906106269190614d0b565b90506000826001600160a01b031663b58862e76040518163ffffffff1660e01b815260040160206040518083038186803b15801561066357600080fd5b505afa158015610677573d6000803e3d6000fd5b505050506040513d601f19601f8201168201806040525081019061069b9190614ed5565b90506106a8838383613ad3565b6000836001600160a01b0316638cd474156040518163ffffffff1660e01b815260040160206040518083038186803b1580156106e357600080fd5b505afa1580156106f7573d6000803e3d6000fd5b505050506040513d601f19601f8201168201806040525081019061071b9190614d0b565b604051631636e19960e01b81529091506001600160a01b03821690631636e1999061074a90889060040161565c565b600060405180830381600087803b15801561076457600080fd5b505af1158015610778573d6000803e3d6000fd5b505050508460000151336001600160a01b03167f7c0fff48e86bd50569aca67e1ee9743c3f93cf5e0aab3bf35f9c8ae0579c29538760200151886040015187876040516107e894939291909384526001600160a01b03928316602085015291166040830152606082015260800190565b60405180910390a350506001600055505050565b6001546001600160a01b031615610826576040516373e833b960e11b815260040160405180910390fd5b600180546001600160a01b038086166001600160a01b0319928316179092556002805492851692909116821790556040805163313ce56760e01b8152905163313ce56791600480820192602092909190829003018186803b15801561088a57600080fd5b505afa15801561089e573d6000803e3d6000fd5b505050506040513d601f19601f820116820180604052508101906108c29190615322565b6108cd90600a615852565b6003556004555050565b6001546001600160a01b031633146109045760405163a59d7f4d60e01b815233600482015260240161059b565b60048190556040518181527f81ed86e8cfa3004fc54732477c3eda4f4c606394a0b423aba78153a3e696f65d906020015b60405180910390a150565b6001546001600160a01b0316331461096d5760405163a59d7f4d60e01b815233600482015260240161059b565b600254815183516001600160a01b0390921691146109ab578251825160405163574092f960e01b81526004810192909252602482015260440161059b565b60005b8351811015610ac4578281815181106109c9576109c9615990565b6020026020010151600d60008684815181106109e7576109e7615990565b60200260200101516001600160a01b03166001600160a01b0316815260200190815260200160002060006101000a81548160ff0219169083151502179055507fec4f975deac1f5c1d92fd5f7a2b08d2c4e3e60215ab50703da45f8f8e9f2fc9b848281518110610a5957610a59615990565b602002602001015183858481518110610a7457610a74615990565b6020026020010151604051610aaa939291906001600160a01b039384168152919092166020820152901515604082015260600190565b60405180910390a180610abc8161595f565b9150506109ae565b50505050565b6001546001600160a01b03163314610af75760405163a59d7f4d60e01b815233600482015260240161059b565b60058190556040518181527f9290d3ed14fa81f8d341842ac22f26e4bb4449e0d0a8566656d54dafae29198e90602001610935565b60008054600114610b50576040516303cb96db60e21b815260040160405180910390fd5b6000805560025460408301516001600160a01b0391821691168114610ba1576040808401519051630158332360e41b81526001600160a01b039182166004820152908216602482015260440161059b565b82604001516001600160a01b031683602001516001600160a01b03161415610bdc57604051630e52390960e41b815260040160405180910390fd5b610be583613ba6565b610c025760405163f8b3bb6160e01b815260040160405180910390fd5b6005548360a00151600654610c1791906157d5565b1115610c365760405163554028e760e11b815260040160405180910390fd5b60015460408051638cd4741560e01b815290516000926001600160a01b031691638cd47415916004808301926020929190829003018186803b158015610c7b57600080fd5b505afa158015610c8f573d6000803e3d6000fd5b505050506040513d601f19601f82011682018060405250810190610cb39190614d0b565b60408051631a37982d60e01b815286516001600160a01b03908116600483015260208801518116602483015291870151821660448201526060870151821660648201526080870151608482015260a087015160a482015260c087015160c482015260e087015160e482015261010087015161010482015291925060009190831690631a37982d90610124016103a06040518083038186803b158015610d5757600080fd5b505afa158015610d6b573d6000803e3d6000fd5b505050506040513d601f19601f82011682018060405250810190610d8f91906150a9565b60208101519091506001600160a01b0316610dbd57604051630e52390960e41b815260040160405180910390fd5b6000816101000151826080015160200151610dd8919061591c565b90506000610de4613ed5565b905080821115610e075760405163bb2875c360e01b815260040160405180910390fd5b6040516364b88ac560e01b81526001600160a01b038516906364b88ac590610e33908690600401615504565b602060405180830381600087803b158015610e4d57600080fd5b505af1158015610e61573d6000803e3d6000fd5b505050506040513d601f19601f82011682018060405250810190610e859190614ed5565b9550610ea18760a00151600854610e9c91906157d5565b613fb6565b610ebf836101200151846101000151610eba919061591c565b613feb565b610eda836101200151600b54610ed591906157d5565b614065565b60208088015160808901516001600160a01b0382166000908152600e909352604090922054610f1192610f0c916157d5565b61409a565b606087015160c08801516001600160a01b0382166000908152600f6020526040902054610f479291610f42916157d5565b6140f3565b82608001516020015160066000828254610f6191906157d5565b9091555050865160a0880151610f78918791614144565b8587600001516001600160a01b0316336001600160a01b03167f6fa15176f59ef643f98e48bb7bbcdc1f7ed128c889a18626d6c28f6e7e2dece48a602001518b604001518c606001518d608001518e60a001518f60c001518c61010001518d61012001516040516110329897969594939291906001600160a01b03988916815296881660208801529490961660408601526060850192909252608084015260a083015260c082019290925260e08101919091526101000190565b60405180910390a45050600160005550919392505050565b60005460011461106d576040516303cb96db60e21b815260040160405180910390fd5b60008055600154604051639a30739160e01b81523360048201526001600160a01b0390911690639a3073919060240160206040518083038186803b1580156110b457600080fd5b505afa1580156110c8573d6000803e3d6000fd5b505050506040513d601f19601f820116820180604052508101906110ec9190614eb8565b61110b5760405163a59d7f4d60e01b815233600482015260240161059b565b60015460408051638cd4741560e01b815290516000926001600160a01b031691638cd47415916004808301926020929190829003018186803b15801561115057600080fd5b505afa158015611164573d6000803e3d6000fd5b505050506040513d601f19601f820116820180604052508101906111889190614d0b565b604051631601180b60e31b8152600481018590529091506001600160a01b0382169063b008c05890602401600060405180830381600087803b1580156111cd57600080fd5b505af11580156111e1573d6000803e3d6000fd5b505060405163506ae89360e11b815260048101869052600092506001600160a01b038416915063a0d5d126906024016103a06040518083038186803b15801561122957600080fd5b505afa15801561123d573d6000803e3d6000fd5b505050506040513d601f19601f8201168201806040525081019061126191906150a9565b905061127e81606001516000015184836060015160200151614144565b6112998160a0015160000151848360a0015160200151614144565b606081015180516020918201516001600160a01b0382166000908152600e9093526040909220546112cd92610f0c9161591c565b60a081015180516020918201516001600160a01b0382166000908152600f90935260409092205461130192610f429161591c565b6040516001600160a01b03841690859033907f1cc79853bbf119208b3fab3b7d33fcdb6ceaee7c8b16b89bdb389ed3b51ad17c90600090a4505060016000555050565b60008054600114611368576040516303cb96db60e21b815260040160405180910390fd5b60008080553381526010602052604090208054600382015461138a90886157d5565b11156113a95760405163bb2875c360e01b815260040160405180910390fd5b858160030160008282546113bd91906157d5565b90915550506001546040805163a4fbc0d760e01b815290516000926001600160a01b03169163a4fbc0d7916004808301926020929190829003018186803b15801561140757600080fd5b505afa15801561141b573d6000803e3d6000fd5b505050506040513d601f19601f8201168201806040525081019061143f9190614d0b565b60025460405163130e06fd60e31b81529192506001600160a01b038084169263987037e89261147d9233929116908c908c908c908c9060040161544b565b602060405180830381600087803b15801561149757600080fd5b505af11580156114ab573d6000803e3d6000fd5b505050506040513d601f19601f820116820180604052508101906114cf9190614ed5565b6001600055979650505050505050565b600054600114611502576040516303cb96db60e21b815260040160405180910390fd5b600080558061152457604051637c946ed760e01b815260040160405180910390fd5b336000908152601060205260409020600c546003548254156115805760018301548354829061155390856158fd565b61155d91906157ed565b611567919061591c565b83600201600082825461157a91906157d5565b90915550505b8254819061158e90846158fd565b61159891906157ed565b600184015560028301548411806115b05750600a5484115b156115ce5760405163bb2875c360e01b815260040160405180910390fd5b838360020160008282546115e2919061591c565b90915550506002546115fe906001600160a01b03168686614144565b6040518481526001600160a01b0386169033907f1314fd112a381beea61539dbd21ec04afcff2662ac7d1b83273aade1f53d1b97906020016107e8565b6000611645613ed5565b905090565b6000805460011461166e576040516303cb96db60e21b815260040160405180910390fd5b60008055600154604051639a30739160e01b81523360048201526001600160a01b0390911690639a3073919060240160206040518083038186803b1580156116b557600080fd5b505afa1580156116c9573d6000803e3d6000fd5b505050506040513d601f19601f820116820180604052508101906116ed9190614eb8565b61170c5760405163a59d7f4d60e01b815233600482015260240161059b565b600154604080516316ed252d60e31b815290516001600160a01b0390921691600091839163b769296891600480820192602092909190829003018186803b15801561175657600080fd5b505afa15801561176a573d6000803e3d6000fd5b505050506040513d601f19601f8201168201806040525081019061178e9190614d0b565b90506000826001600160a01b0316632a5025b76040518163ffffffff1660e01b815260040160206040518083038186803b1580156117cb57600080fd5b505afa1580156117df573d6000803e3d6000fd5b505050506040513d601f19601f820116820180604052508101906118039190614ed5565b9050611810838383613ad3565b6000836001600160a01b0316638cd474156040518163ffffffff1660e01b815260040160206040518083038186803b15801561184b57600080fd5b505afa15801561185f573d6000803e3d6000fd5b505050506040513d601f19601f820116820180604052508101906118839190614d0b565b604051637c08ddc960e01b81529091506001600160a01b03821690637c08ddc9906118b290899060040161565c565b602060405180830381600087803b1580156118cc57600080fd5b505af11580156118e0573d6000803e3d6000fd5b505050506040513d601f19601f820116820180604052508101906119049190614ed5565b86516020808901516040808b015181519283529282018590526001600160a01b03928316908201529086166060820152608081018590529196509033907f55c8ac91237f6fa939a79c1699293ce14171d61728c7cc56a131f51758fa598f9060a00160405180910390a350506001600055509092915050565b6000546001146119a0576040516303cb96db60e21b815260040160405180910390fd5b600080556001546040805163a4fbc0d760e01b815290516001600160a01b039092169163a4fbc0d791600480820192602092909190829003018186803b1580156119e957600080fd5b505afa1580156119fd573d6000803e3d6000fd5b505050506040513d601f19601f82011682018060405250810190611a219190614d0b565b6001600160a01b0316336001600160a01b031614611a545760405163a59d7f4d60e01b815233600482015260240161059b565b6020808201516001600160a01b03166000908152601090915260409020600381015460608301511115611a9a5760405163bb2875c360e01b815260040160405180910390fd5b6009546060830151811015611af3576000611ab3613ed5565b9050611abf81836157d5565b84606001511115611ae35760405163bb2875c360e01b815260040160405180910390fd5b611aed6000614262565b50611b0b565b611b0b836060015182611b06919061591c565b614262565b600c54600354835415611b5857600184015484548290611b2b90856158fd565b611b3591906157ed565b611b3f919061591c565b846002016000828254611b5291906157d5565b90915550505b8460600151846000016000828254611b70919061591c565b90915550506060850151600385018054600090611b8e90849061591c565b909155505083548190611ba190846158fd565b611bab91906157ed565b60018501556060850151600754611bca91611bc59161591c565b614297565b611bd26142cc565b60a08501515115611e49576001546040805163a4fbc0d760e01b815290516000926001600160a01b03169163a4fbc0d7916004808301926020929190829003018186803b158015611c2257600080fd5b505afa158015611c36573d6000803e3d6000fd5b505050506040513d601f19601f82011682018060405250810190611c5a9190614d0b565b9050600086606001518760a00151604051602401611c79929190615686565b60408051601f19818403018152918152602080830180516001600160e01b031663462cc8ff60e11b179052890151905191925060009182916001600160a01b031690611cc690859061540b565b6000604051808303816000865af19150503d8060008114611d03576040519150601f19603f3d011682016040523d82523d6000602084013e611d08565b606091505b509150915081611e4457604481511015611dc6578851604051634d4a6fbb60e01b81526001600160a01b03861691634d4a6fbb91611d8f91906004019081526040602082018190526024908201527f43616c6c6261636b207472616e73616374696f6e206661696c65642073696c656060820152636e746c7960e01b608082015260a00190565b600060405180830381600087803b158015611da957600080fd5b505af1158015611dbd573d6000803e3d6000fd5b50505050611e44565b600481019050836001600160a01b0316634d4a6fbb8a6000015183806020019051810190611df49190614f50565b6040518363ffffffff1660e01b8152600401611e11929190615686565b600060405180830381600087803b158015611e2b57600080fd5b505af1158015611e3f573d6000803e3d6000fd5b505050505b505050505b60025460808601516060870151611e6a926001600160a01b03169190614144565b606085015160405190815233907fcc16f5dbb4873280815c1ee09dbd06736cffcc184412cf7a71a0fdb75d397ca59060200160405180910390a250506001600055505050565b600054600114611ed3576040516303cb96db60e21b815260040160405180910390fd5b60008080556002546001600160a01b03868116835260106020526040909220600c54600354825494909316939192909115611f4857600183015483548290611f1b90856158fd565b611f2591906157ed565b611f2f919061591c565b836002016000828254611f4291906157d5565b90915550505b86836000016000828254611f5c91906157d5565b909155505082548190611f6f90846158fd565b611f7991906157ed565b6001840155600754611f9090611bc59089906157d5565b611f986142cc565b6040516370a0823160e01b81523060048201526000906001600160a01b038616906370a082319060240160206040518083038186803b158015611fda57600080fd5b505afa158015611fee573d6000803e3d6000fd5b505050506040513d601f19601f820116820180604052508101906120129190614ed5565b6040516303a3bcd760e01b815290915033906303a3bcd79061203e9088908c908c908c906004016154d2565b600060405180830381600087803b15801561205857600080fd5b505af115801561206c573d6000803e3d6000fd5b50506040516370a0823160e01b8152306004820152600092506001600160a01b03881691506370a082319060240160206040518083038186803b1580156120b257600080fd5b505afa1580156120c6573d6000803e3d6000fd5b505050506040513d601f19601f820116820180604052508101906120ea9190614ed5565b90506120f689836157d5565b8110156121165760405163f8b3bb6160e01b815260040160405180910390fd5b6040518981526001600160a01b038b169033907fab8530f87dc9b59234c4623bf917212bb2536d647574c8e7e5da92c2ede0c9f89060200160405180910390a3505060016000555050505050505050565b6001600160a01b038116600090815260106020908152604080832081516080810183528154808252600183015494820185905260028301549382019390935260039182015460608201529054600c5491939290916121c591906158fd565b6121cf91906157ed565b82604001516121de91906157d5565b6121e8919061591c565b9150600a548211156121fa57600a5491505b50919050565b600160009054906101000a90046001600160a01b03166001600160a01b031663a4fbc0d76040518163ffffffff1660e01b815260040160206040518083038186803b15801561224e57600080fd5b505afa158015612262573d6000803e3d6000fd5b505050506040513d601f19601f820116820180604052508101906122869190614d0b565b6001600160a01b0316336001600160a01b0316146122b95760405163a59d7f4d60e01b815233600482015260240161059b565b6122c36000614262565b565b6000546001146122e8576040516303cb96db60e21b815260040160405180910390fd5b60008055600154604051639a30739160e01b81523360048201526001600160a01b0390911690639a3073919060240160206040518083038186803b15801561232f57600080fd5b505afa158015612343573d6000803e3d6000fd5b505050506040513d601f19601f820116820180604052508101906123679190614eb8565b6123865760405163a59d7f4d60e01b815233600482015260240161059b565b60015460408051638cd4741560e01b815290516001600160a01b03909216916000918391638cd4741591600480820192602092909190829003018186803b1580156123d057600080fd5b505afa1580156123e4573d6000803e3d6000fd5b505050506040513d601f19601f820116820180604052508101906124089190614d0b565b60405163506ae89360e11b8152843560048201529091506000906001600160a01b0383169063a0d5d126906024016103a06040518083038186803b15801561244f57600080fd5b505afa158015612463573d6000803e3d6000fd5b505050506040513d601f19601f8201168201806040525081019061248791906150a9565b90506000836001600160a01b031663b76929686040518163ffffffff1660e01b815260040160206040518083038186803b1580156124c457600080fd5b505afa1580156124d8573d6000803e3d6000fd5b505050506040513d601f19601f820116820180604052508101906124fc9190614d0b565b90506000846001600160a01b0316633c0930376040518163ffffffff1660e01b815260040160206040518083038186803b15801561253957600080fd5b505afa15801561254d573d6000803e3d6000fd5b505050506040513d601f19601f820116820180604052508101906125719190614ed5565b6002549091506001600160a01b03838116911614156125d0576000612594614389565b9050818460800151602001516125aa91906157d5565b8110156125ca5760405163f8b3bb6160e01b815260040160405180910390fd5b50612636565b60006125da614389565b90508360800151602001518110156126055760405163f8b3bb6160e01b815260040160405180910390fd5b600061261084614444565b9050828110156126335760405163f8b3bb6160e01b815260040160405180910390fd5b50505b6001600160a01b0382161580159061264e5750600081115b156126d5576000856001600160a01b031663e9a4e7a26040518163ffffffff1660e01b815260040160206040518083038186803b15801561268e57600080fd5b505afa1580156126a2573d6000803e3d6000fd5b505050506040513d601f19601f820116820180604052508101906126c69190614d0b565b90506126d3838284614144565b505b6001600160a01b038416639a10234187356126f660408a0160208b01614cee565b6040516001600160e01b031960e085901b16815260048101929092526001600160a01b03166024820152604401600060405180830381600087803b15801561273d57600080fd5b505af1158015612751573d6000803e3d6000fd5b5050505061276e836080015160200151600854610e9c919061591c565b612787836080015160200151600954611b0691906157d5565b606083015180516020918201516001600160a01b0382166000908152600e9093526040909220546127bb92610f0c9161591c565b60a083015180516020918201516001600160a01b0382166000908152600f9093526040909220546127ef92610f429161591c565b82608001516020015160066000828254612809919061591c565b9091555050606083015180516020808601519201516128289290614144565b60a083015180516020808601519201516128429290614144565b8251337f415e462bce09ff3142dc51f9a6878d89bb34d75a21bc8ffc7fc397eccce872e961287660408a0160208b01614cee565b858560405161288793929190615427565b60405180910390a35050600160005550505050565b6000546001146128bf576040516303cb96db60e21b815260040160405180910390fd5b60008055600154604051639a30739160e01b81523360048201526001600160a01b0390911690639a3073919060240160206040518083038186803b15801561290657600080fd5b505afa15801561291a573d6000803e3d6000fd5b505050506040513d601f19601f8201168201806040525081019061293e9190614eb8565b61295d5760405163a59d7f4d60e01b815233600482015260240161059b565b60015460408051638cd4741560e01b815290516000926001600160a01b031691638cd47415916004808301926020929190829003018186803b1580156129a257600080fd5b505afa1580156129b6573d6000803e3d6000fd5b505050506040513d601f19601f820116820180604052508101906129da9190614d0b565b60405163506ae89360e11b8152600481018790529091506000906001600160a01b0383169063a0d5d126906024016103a06040518083038186803b158015612a2157600080fd5b505afa158015612a35573d6000803e3d6000fd5b505050506040513d601f19601f82011682018060405250810190612a5991906150a9565b60808101515160a0820151519192506001600160a01b0391821691161415612ac2576000612a85614389565b905083612a9286886157d5565b612a9c91906157d5565b811015612abc5760405163f8b3bb6160e01b815260040160405180910390fd5b50612be1565b6000612acc614389565b9050612ad884876157d5565b811015612af85760405163f8b3bb6160e01b815260040160405180910390fd5b60a082018051516001600160a01b039081166000908152600f602090815260408083205485515185168452600e9092528083205494515190516370a0823160e01b815230600482015291949316906370a082319060240160206040518083038186803b158015612b6757600080fd5b505afa158015612b7b573d6000803e3d6000fd5b505050506040513d601f19601f82011682018060405250810190612b9f9190614ed5565b9050600082612bae858461591c565b612bb8919061591c565b905088811015612bdb5760405163f8b3bb6160e01b815260040160405180910390fd5b50505050505b60405163f71139f760e01b8152600481018790526001600160a01b0383169063f71139f790602401600060405180830381600087803b158015612c2357600080fd5b505af1158015612c37573d6000803e3d6000fd5b5050505060008084836080015160200151612c5291906157d5565b905080871015612c6957612c66878261591c565b91505b8251604051638b029d6160e01b815260048101919091526024810188905260448101839052606481018790526001600160a01b03851690638b029d6190608401600060405180830381600087803b158015612cc357600080fd5b505af1158015612cd7573d6000803e3d6000fd5b50505050612cf4836080015160200151600854610e9c919061591c565b612d0d836080015160200151600954611b0691906157d5565b82608001516020015160066000828254612d27919061591c565b90915550508415612dc6576001546040805163bd2bae9d60e01b815290516000926001600160a01b03169163bd2bae9d916004808301926020929190829003018186803b158015612d7757600080fd5b505afa158015612d8b573d6000803e3d6000fd5b505050506040513d601f19601f82011682018060405250810190612daf9190614d0b565b9050612dc48460800151600001518288614144565b505b81612df8576000612dd7828961591c565b90508015612df657612df6846080015160000151856020015183614144565b505b8515612e1557612e158360a0015160000151846020015188614144565b60208301516060840151516040518a926001600160a01b03169133917fad34241f9e3b3d38652a7493d4e07da1f3e88afa819a546544b20de727f2ffd891612e609184908c90615427565b60405180910390a450506001600055505050505050565b600054600114612e9a576040516303cb96db60e21b815260040160405180910390fd5b60008055600154604051639a30739160e01b81523360048201526001600160a01b0390911690639a3073919060240160206040518083038186803b158015612ee157600080fd5b505afa158015612ef5573d6000803e3d6000fd5b505050506040513d601f19601f82011682018060405250810190612f199190614eb8565b612f385760405163a59d7f4d60e01b815233600482015260240161059b565b60015460408051638cd4741560e01b815290516001600160a01b03909216916000918391638cd4741591600480820192602092909190829003018186803b158015612f8257600080fd5b505afa158015612f96573d6000803e3d6000fd5b505050506040513d601f19601f82011682018060405250810190612fba9190614d0b565b905060006001600160a01b03821663ac00b6748535612fdf6080880160608901614cee565b6040516001600160e01b031960e085901b16815260048101929092526001600160a01b03166024820152604401602060405180830381600087803b15801561302657600080fd5b505af115801561303a573d6000803e3d6000fd5b505050506040513d601f19601f8201168201806040525081019061305e9190614eb8565b60405163506ae89360e11b8152853560048201529091506000906001600160a01b0384169063a0d5d126906024016103a06040518083038186803b1580156130a557600080fd5b505afa1580156130b9573d6000803e3d6000fd5b505050506040513d601f19601f820116820180604052508101906130dd91906150a9565b90506000846001600160a01b0316637c21d5e06040518163ffffffff1660e01b815260040160206040518083038186803b15801561311a57600080fd5b505afa15801561312e573d6000803e3d6000fd5b505050506040513d601f19601f820116820180604052508101906131529190614d0b565b6060830151805160808501515160209092015160405163d7176ca960e01b81526000600482018190526001600160a01b0393841660248301529383166044820152606481019190915292935090919083169063d7176ca990608401604080518083038186803b1580156131c457600080fd5b505afa1580156131d8573d6000803e3d6000fd5b505050506040513d601f19601f820116820180604052508101906131fc9190615296565b509050613216838261321160208b018b6156a7565b614529565b60808301516020015160009085156132c4576000886001600160a01b0316635fb3b1b56040518163ffffffff1660e01b815260040160206040518083038186803b15801561326357600080fd5b505afa158015613277573d6000803e3d6000fd5b505050506040513d601f19601f8201168201806040525081019061329b9190614ed5565b90506127106132aa82846158fd565b6132b491906157ed565b92506132c083836157d5565b9150505b600080600083861015613403576132db868561591c565b60808901515160a08a0151519194508492506001600160a01b039182169116146134035760a08801515160808901515160405163ec27830960e01b8152600060048201526001600160a01b0392831660248201529082166044820152606481018590529088169063ec27830990608401604080518083038186803b15801561336257600080fd5b505afa158015613376573d6000803e3d6000fd5b505050506040513d601f19601f8201168201806040525081019061339a9190615296565b5060a0890151602001519091508111156133db5760a088015160200151604051632c1f8ef160e21b815260048101919091526024810182905260440161059b565b6133f68882858f80604001906133f191906156a7565b6146dd565b61340090836157d5565b91505b808860a0015160200151613417919061591c565b61342190836157d5565b8851604051638b029d6160e01b815260048101919091526024810188905260448101859052606481018290529092506001600160a01b038b169150638b029d6190608401600060405180830381600087803b15801561347f57600080fd5b505af1158015613493573d6000803e3d6000fd5b505050506134b0876080015160200151600854610e9c919061591c565b6134c9876080015160200151600954611b0691906157d5565b606087015180516020918201516001600160a01b0382166000908152600e9093526040909220546134fd92610f0c9161591c565b60a087015180516020918201516001600160a01b0382166000908152600f90935260409092205461353192610f429161591c565b8660800151602001516006600082825461354b919061591c565b909155505083156135e05760008a6001600160a01b031663bd2bae9d6040518163ffffffff1660e01b815260040160206040518083038186803b15801561359157600080fd5b505afa1580156135a5573d6000803e3d6000fd5b505050506040513d601f19601f820116820180604052508101906135c99190614d0b565b90506135de8860800151600001518287614144565b505b816136125760006135f1848761591c565b9050801561361057613610886080015160000151896020015183614144565b505b801561362f5761362f8760a0015160000151886020015183614144565b866000015187602001516001600160a01b0316336001600160a01b03167fad34241f9e3b3d38652a7493d4e07da1f3e88afa819a546544b20de727f2ffd88a60600151600001518f60600160208101906136899190614cee565b8960405161369993929190615427565b60405180910390a450506001600055505050505050505050565b6000546001146136d6576040516303cb96db60e21b815260040160405180910390fd5b60008055600154604051639a30739160e01b81523360048201526001600160a01b0390911690639a3073919060240160206040518083038186803b15801561371d57600080fd5b505afa158015613731573d6000803e3d6000fd5b505050506040513d601f19601f820116820180604052508101906137559190614eb8565b6137745760405163a59d7f4d60e01b815233600482015260240161059b565b600154604080516316ed252d60e31b815290516001600160a01b0390921691600091839163b769296891600480820192602092909190829003018186803b1580156137be57600080fd5b505afa1580156137d2573d6000803e3d6000fd5b505050506040513d601f19601f820116820180604052508101906137f69190614d0b565b90506000826001600160a01b031663c79005846040518163ffffffff1660e01b815260040160206040518083038186803b15801561383357600080fd5b505afa158015613847573d6000803e3d6000fd5b505050506040513d601f19601f8201168201806040525081019061386b9190614ed5565b9050613878838383613ad3565b6000836001600160a01b0316638cd474156040518163ffffffff1660e01b815260040160206040518083038186803b1580156138b357600080fd5b505afa1580156138c7573d6000803e3d6000fd5b505050506040513d601f19601f820116820180604052508101906138eb9190614d0b565b855160405163506ae89360e11b815260048101919091529091506000906001600160a01b0383169063a0d5d126906024016103a06040518083038186803b15801561393557600080fd5b505afa158015613949573d6000803e3d6000fd5b505050506040513d601f19601f8201168201806040525081019061396d91906150a9565b9050600080836001600160a01b031663fc9ffe10896040518263ffffffff1660e01b815260040161399e919061565c565b6040805180830381600087803b1580156139b757600080fd5b505af11580156139cb573d6000803e3d6000fd5b505050506040513d601f19601f820116820180604052508101906139ef91906152fe565b9092509050613a01610eba828461591c565b613a1281600b54610ed591906157d5565b8760000151336001600160a01b03167f02bde35fb6c4387120ff67d8e52f04c37f08b2a8235cd8a731848afda59f622e8560600151600001518660800151600001518c6020015187878f604001518e8e604051613abc9897969594939291906001600160a01b0398891681529688166020880152604087019590955260608601939093526080850191909152841660a084015290921660c082015260e08101919091526101000190565b60405180910390a350506001600055505050505050565b6001600160a01b03821615801590613aeb5750600081115b15613ba1576000613afb83614444565b905081811015613b1e5760405163f8b3bb6160e01b815260040160405180910390fd5b6000846001600160a01b031663e9a4e7a26040518163ffffffff1660e01b815260040160206040518083038186803b158015613b5957600080fd5b505afa158015613b6d573d6000803e3d6000fd5b505050506040513d601f19601f82011682018060405250810190613b919190614d0b565b9050613b9e848285614144565b50505b505050565b600081602001516001600160a01b031682606001516001600160a01b031614613de15760608201516040516370a0823160e01b81523060048201526000916001600160a01b0316906370a082319060240160206040518083038186803b158015613c0f57600080fd5b505afa158015613c23573d6000803e3d6000fd5b505050506040513d601f19601f82011682018060405250810190613c479190614ed5565b6060840180516001600160a01b039081166000908152600e602090815260408083205494519093168252600f90522054919250613c83916157d5565b613c8d908261591c565b905082604001516001600160a01b031683606001516001600160a01b03161415613ce857600b54600a54600854600754613cc7919061591c565b613cd1919061591c565b613cdb919061591c565b613ce5908261591c565b90505b8260c00151811015613cfd5750600092915050565b60208301516040516370a0823160e01b81523060048201526000916001600160a01b0316906370a082319060240160206040518083038186803b158015613d4357600080fd5b505afa158015613d57573d6000803e3d6000fd5b505050506040513d601f19601f82011682018060405250810190613d7b9190614ed5565b602080860180516001600160a01b039081166000908152600e845260408082205493519092168152600f90935290912054919250613db8916157d5565b613dc2908261591c565b90508360800151811015613dda575060009392505050565b5050613ecd565b60608201516040516370a0823160e01b81523060048201526000916001600160a01b0316906370a082319060240160206040518083038186803b158015613e2757600080fd5b505afa158015613e3b573d6000803e3d6000fd5b505050506040513d601f19601f82011682018060405250810190613e5f9190614ed5565b6060840180516001600160a01b039081166000908152600e602090815260408083205494519093168252600f90522054919250613e9b916157d5565b613ea5908261591c565b905082608001518360c00151613ebb91906157d5565b811015613ecb5750600092915050565b505b506001919050565b6002546040516370a0823160e01b81523060048201526000916001600160a01b031690829082906370a082319060240160206040518083038186803b158015613f1d57600080fd5b505afa158015613f31573d6000803e3d6000fd5b505050506040513d601f19601f82011682018060405250810190613f559190614ed5565b9050600b54600a54600f6000856001600160a01b03166001600160a01b031681526020019081526020016000205460095484613f91919061591c565b613f9b919061591c565b613fa5919061591c565b613faf919061591c565b9250505090565b60088190556040518181527f26a8db85dd35b30712c42ae882de1d59c395aed810477ed980623164802cf14290602001610935565b80600a6000828254613ffd91906157d5565b909155505060075460035461401290836158fd565b61401c91906157ed565b600c600082825461402d91906157d5565b9091555050600a546040519081527f38e229a7f3f9c329892d08eb37c4e91ccac6d12c798d394990ca4f56028ec26690602001610935565b600b8190556040518181527f02f1bb46a1dd6774772e223bfa9c733cea598e6b1ac69187d1c614a04cfd1c3690602001610935565b6001600160a01b0382166000818152600e6020908152604091829020849055815192835282018390527f650aa761fa5f576577cdc0c020d74fa8bb091213a82ee311b7a274d9aa4f955991015b60405180910390a15050565b6001600160a01b0382166000818152600f6020908152604091829020849055815192835282018390527f63eb39417416506dc369967fba1b44e6418801a4a6845581c06cada91448c5c391016140e7565b604080518082018252601981527f7472616e7366657228616464726573732c75696e74323536290000000000000060209182015281516001600160a01b0385811660248301526044808301869052845180840390910181526064909201845291810180516001600160e01b031663a9059cbb60e01b179052915160009283928716916141d0919061540b565b6000604051808303816000865af19150503d806000811461420d576040519150601f19603f3d011682016040523d82523d6000602084013e614212565b606091505b509150915081158061423e57508051158061423c57508080602001905181019061423c9190614eb8565b155b15613b9e578484846040516317e3057d60e31b815260040161059b93929190615427565b60098190556040518181527f2af1c3635b0d3de42213bf1f6e7979fc04bf2c07ff6d71fe72ccd76b9a045ea190602001610935565b60078190556040518181527f044141ecee2fb3c75d1699b968fa546a18dfa4ee1d705699d81751270b38595190602001610935565b600b548015614386576001546040805163779b492960e11b815290516000926001600160a01b03169163ef369252916004808301926020929190829003018186803b15801561431a57600080fd5b505afa15801561432e573d6000803e3d6000fd5b505050506040513d601f19601f820116820180604052508101906143529190614d0b565b90506001600160a01b038116156143845761436d6000614065565b600254614384906001600160a01b03168284614144565b505b50565b6002546040516370a0823160e01b81523060048201526000916001600160a01b031690829082906370a082319060240160206040518083038186803b1580156143d157600080fd5b505afa1580156143e5573d6000803e3d6000fd5b505050506040513d601f19601f820116820180604052508101906144099190614ed5565b905060085460075461441b919061591c565b600b54600a546001600160a01b0385166000908152600f6020526040902054613f91908561591c565b6002546000906001600160a01b038381169116141561446b57614465614389565b92915050565b6040516370a0823160e01b81523060048201526000906001600160a01b038416906370a082319060240160206040518083038186803b1580156144ad57600080fd5b505afa1580156144c1573d6000803e3d6000fd5b505050506040513d601f19601f820116820180604052508101906144e59190614ed5565b6001600160a01b0384166000908152600e6020908152604080832054600f9092529091205491925090614518908361591c565b614522919061591c565b9392505050565b6080840151516040516370a0823160e01b81523060048201526000916001600160a01b0316906370a082319060240160206040518083038186803b15801561457057600080fd5b505afa158015614584573d6000803e3d6000fd5b505050506040513d601f19601f820116820180604052508101906145a89190614ed5565b90506145c585606001516000015133876060015160200151614144565b6060850151516080860151516040516339d87e7760e21b8152339263e761f9dc926145f892899089908990600401615493565b600060405180830381600087803b15801561461257600080fd5b505af1158015614626573d6000803e3d6000fd5b505050506080850151516040516370a0823160e01b81523060048201526000916001600160a01b0316906370a082319060240160206040518083038186803b15801561467157600080fd5b505afa158015614685573d6000803e3d6000fd5b505050506040513d601f19601f820116820180604052508101906146a99190614ed5565b90506146b585836157d5565b8110156146d55760405163f8b3bb6160e01b815260040160405180910390fd5b505050505050565b60a0850151516040516370a0823160e01b815230600482015260009182916001600160a01b03909116906370a082319060240160206040518083038186803b15801561472857600080fd5b505afa15801561473c573d6000803e3d6000fd5b505050506040513d601f19601f820116820180604052508101906147609190614ed5565b6080880151516040516370a0823160e01b81523060048201529192506000916001600160a01b03909116906370a082319060240160206040518083038186803b1580156147ac57600080fd5b505afa1580156147c0573d6000803e3d6000fd5b505050506040513d601f19601f820116820180604052508101906147e49190614ed5565b90506147f98860a00151600001513389614144565b60a0880151516080890151516040516339d87e7760e21b8152339263e761f9dc9261482c928b908b908b90600401615493565b600060405180830381600087803b15801561484657600080fd5b505af115801561485a573d6000803e3d6000fd5b5050505060a0880151516040516370a0823160e01b81523060048201526000916001600160a01b0316906370a082319060240160206040518083038186803b1580156148a557600080fd5b505afa1580156148b9573d6000803e3d6000fd5b505050506040513d601f19601f820116820180604052508101906148dd9190614ed5565b60808a0151516040516370a0823160e01b81523060048201529192506000916001600160a01b03909116906370a082319060240160206040518083038186803b15801561492957600080fd5b505afa15801561493d573d6000803e3d6000fd5b505050506040513d601f19601f820116820180604052508101906149619190614ed5565b905061496d88846157d5565b81101561498d5760405163f8b3bb6160e01b815260040160405180910390fd5b614997898561591c565b6149a1908361591c565b9a9950505050505050505050565b80356149ba816159bc565b919050565b80516149ba816159bc565b600082601f8301126149db57600080fd5b813560206149f06149eb8361578b565b61575b565b80838252828201915082860187848660051b8901011115614a1057600080fd5b60005b85811015614a38578135614a26816159d1565b84529284019290840190600101614a13565b5090979650505050505050565b80516149ba816159d1565b60008083601f840112614a6257600080fd5b5081356001600160401b03811115614a7957600080fd5b602083019150836020828501011115614a9157600080fd5b9250929050565b600082601f830112614aa957600080fd5b8135614ab76149eb826157ae565b818152846020838601011115614acc57600080fd5b816020850160208301376000918101602001919091529392505050565b600060a08284031215614afb57600080fd5b60405160a081018181106001600160401b0382111715614b1d57614b1d6159a6565b80604052508091508251614b30816159bc565b80825250602083015160208201526040830151604082015260608301516060820152608083015160808201525092915050565b600060408284031215614b7557600080fd5b604051604081018181106001600160401b0382111715614b9757614b976159a6565b80604052508091508251614baa816159bc565b8152602092830151920191909152919050565b6000610100808385031215614bd157600080fd5b604051908101906001600160401b0382118183101715614bf357614bf36159a6565b8160405280925083519150614c07826159d1565b818152614c1660208501614a45565b6020820152614c2760408501614a45565b6040820152614c3860608501614a45565b6060820152614c4960808501614a45565b6080820152614c5a60a08501614a45565b60a0820152614c6b60c08501614a45565b60c0820152614c7c60e08501614a45565b60e0820152505092915050565b600060608284031215614c9b57600080fd5b604051606081018181106001600160401b0382111715614cbd57614cbd6159a6565b806040525080915082358152602083013560208201526040830135614ce1816159bc565b6040919091015292915050565b600060208284031215614d0057600080fd5b8135614522816159bc565b600060208284031215614d1d57600080fd5b8151614522816159bc565b600080600060608486031215614d3d57600080fd5b8335614d48816159bc565b92506020840135614d58816159bc565b929592945050506040919091013590565b60008060408385031215614d7c57600080fd5b8235614d87816159bc565b946020939093013593505050565b60008060008060608587031215614dab57600080fd5b8435614db6816159bc565b93506020850135925060408501356001600160401b03811115614dd857600080fd5b614de487828801614a50565b95989497509550505050565b60008060408385031215614e0357600080fd5b82356001600160401b0380821115614e1a57600080fd5b818501915085601f830112614e2e57600080fd5b81356020614e3e6149eb8361578b565b8083825282820191508286018a848660051b8901011115614e5e57600080fd5b600096505b84871015614e8a578035614e76816159bc565b835260019690960195918301918301614e63565b5096505086013592505080821115614ea157600080fd5b50614eae858286016149ca565b9150509250929050565b600060208284031215614eca57600080fd5b8151614522816159d1565b600060208284031215614ee757600080fd5b5051919050565b60008060408385031215614f0157600080fd5b823591506020830135614f13816159bc565b809150509250929050565b60008060008060808587031215614f3457600080fd5b5050823594602084013594506040840135936060013592509050565b600060208284031215614f6257600080fd5b81516001600160401b03811115614f7857600080fd5b8201601f81018413614f8957600080fd5b8051614f976149eb826157ae565b818152856020838501011115614fac57600080fd5b614fbd826020830160208601615933565b95945050505050565b600060208284031215614fd857600080fd5b81356001600160401b03811115614fee57600080fd5b82016080818503121561452257600080fd5b6000610120828403121561501357600080fd5b61501b6156ed565b615024836149af565b8152615032602084016149af565b6020820152615043604084016149af565b6040820152615054606084016149af565b60608201526080830135608082015260a083013560a082015260c083013560c082015260e083013560e08201526101008084013581830152508091505092915050565b6000604082840312156121fa57600080fd5b60006103a082840312156150bc57600080fd5b6150c4615716565b825181526150d4602084016149bf565b60208201526150e5604084016149bf565b60408201526150f78460608501614ae9565b606082015261010061510b85828601614b63565b608083015261014061511f86828701614ae9565b60a08401526101e085015160c084015261020085015160e08401526102208501518284015261024085015161012084015261515e866102608701614bbd565b908301525061517061036084016149bf565b610160820152610380929092015161018083015250919050565b60006060828403121561519c57600080fd5b6145228383614c89565b6000602082840312156151b857600080fd5b81356001600160401b03808211156151cf57600080fd5b9083019060e082860312156151e357600080fd5b6151eb615739565b823581526151fb602084016149af565b602082015261520c604084016149af565b604082015260608301356060820152615227608084016149af565b608082015260a08301358281111561523e57600080fd5b61524a87828601614a98565b60a08301525060c08301358281111561526257600080fd5b61526e87828601614a98565b60c08301525095945050505050565b60006020828403121561528f57600080fd5b5035919050565b600080604083850312156152a957600080fd5b825191506020830151614f13816159bc565b600080600080606085870312156152d157600080fd5b8435935060208501356152e3816159bc565b925060408501356001600160401b03811115614dd857600080fd5b6000806040838503121561531157600080fd5b505080516020909101519092909150565b60006020828403121561533457600080fd5b815160ff8116811461452257600080fd5b81835281816020850137506000828201602090810191909152601f909101601f19169091010190565b60008151808452615386816020860160208601615933565b601f01601f19169290920160200192915050565b80511515825260208101511515602083015260408101511515604083015260608101511515606083015260808101511515608083015260a08101516153e360a084018215159052565b5060c08101516153f760c084018215159052565b5060e0810151613ba160e084018215159052565b6000825161541d818460208701615933565b9190910192915050565b6001600160a01b039384168152919092166020820152604081019190915260600190565b6001600160a01b0387811682528681166020830152604082018690528416606082015260a0608082018190526000906154879083018486615345565b98975050505050505050565b6001600160a01b03868116825285166020820152604081018490526080606082018190526000906154c79083018486615345565b979650505050505050565b60018060a01b03851681528360208201526060604082015260006154fa606083018486615345565b9695505050505050565b815181526020808301516103a0830191615528908401826001600160a01b03169052565b50604083015161554360408401826001600160a01b03169052565b506060830151615587606084018280516001600160a01b03168252602080820151908301526040808201519083015260608082015190830152608090810151910152565b5060808301516101006155af8185018380516001600160a01b03168252602090810151910152565b60a085015180516001600160a01b0316610140868101919091526020820151610160870152604082015161018087015260608201516101a08701526080909101516101c086015260c08601516101e086015260e086015161020086015290850151610220850152610120850151610240850152840151905061563561026084018261539a565b506101608301516001600160a01b0316610360830152610180909201516103809091015290565b81518152602080830151908201526040808301516001600160a01b03169082015260608101614465565b82815260406020820152600061569f604083018461536e565b949350505050565b6000808335601e198436030181126156be57600080fd5b8301803591506001600160401b038211156156d857600080fd5b602001915036819003821315614a9157600080fd5b60405161012081016001600160401b0381118282101715615710576157106159a6565b60405290565b6040516101a081016001600160401b0381118282101715615710576157106159a6565b60405160e081016001600160401b0381118282101715615710576157106159a6565b604051601f8201601f191681016001600160401b0381118282101715615783576157836159a6565b604052919050565b60006001600160401b038211156157a4576157a46159a6565b5060051b60200190565b60006001600160401b038211156157c7576157c76159a6565b50601f01601f191660200190565b600082198211156157e8576157e861597a565b500190565b60008261580a57634e487b7160e01b600052601260045260246000fd5b500490565b600181815b8085111561584a5781600019048211156158305761583061597a565b8085161561583d57918102915b93841c9390800290615814565b509250929050565b600061452260ff84168360008261586b57506001614465565b8161587857506000614465565b816001811461588e5760028114615898576158b4565b6001915050614465565b60ff8411156158a9576158a961597a565b50506001821b614465565b5060208310610133831016604e8410600b84101617156158d7575081810a614465565b6158e1838361580f565b80600019048211156158f5576158f561597a565b029392505050565b60008160001904831182151516156159175761591761597a565b500290565b60008282101561592e5761592e61597a565b500390565b60005b8381101561594e578181015183820152602001615936565b83811115610ac45750506000910152565b60006000198214156159735761597361597a565b5060010190565b634e487b7160e01b600052601160045260246000fd5b634e487b7160e01b600052603260045260246000fd5b634e487b7160e01b600052604160045260246000fd5b6001600160a01b038116811461438657600080fd5b801515811461438657600080fdfea2646970667358221220fe7f6a0b8db5913f818a3e4abc5def487c0c1a48d742c560fa614296c125129564736f6c63430008070033a26469706673582212206744316e0c703f347b8626dc4d07c3ae8bab664ae685e7b0dc3d9e396e5dc7c964736f6c63430008070033",
  "linkReferences": {},
  "deployedLinkReferences": {}
}