{
  "_format": "hh-sol-artifact-1",
  "contractName": "PoolDeployer",
  "sourceName": "contracts/PoolDeployer.sol",
  "abi": [
    {
      "inputs": [
        {
          "internalType": "address",
          "name": "sender",
          "type": "address"
        }
      ],
      "name": "Forbidden",
      "type": "error"
    },
    {
      "inputs": [],
      "name": "InitializedAlready",
      "type": "error"
    },
    {
      "anonymous": false,
      "inputs": [
        {
          "indexed": true,
          "internalType": "address",
          "name": "factory",
          "type": "address"
        }
      ],
      "name": "SetFactory",
      "type": "event"
    },
    {
      "inputs": [
        {
          "internalType": "address",
          "name": "_quoteToken",
          "type": "address"
        },
        {
          "internalType": "uint256",
          "name": "_interest",
          "type": "uint256"
        }
      ],
      "name": "deployPool",
      "outputs": [
        {
          "internalType": "address payable",
          "name": "pool",
          "type": "address"
        }
      ],
      "stateMutability": "nonpayable",
      "type": "function"
    },
    {
      "inputs": [],
      "name": "factory",
      "outputs": [
        {
          "internalType": "address",
          "name": "",
          "type": "address"
        }
      ],
      "stateMutability": "view",
      "type": "function"
    },
    {
      "inputs": [],
      "name": "poolInitCodeHash",
      "outputs": [
        {
          "internalType": "bytes32",
          "name": "",
          "type": "bytes32"
        }
      ],
      "stateMutability": "pure",
      "type": "function"
    },
    {
      "inputs": [
        {
          "internalType": "address",
          "name": "_factory",
          "type": "address"
        }
      ],
      "name": "setFactory",
      "outputs": [],
      "stateMutability": "nonpayable",
      "type": "function"
    }
  ],
  "bytecode": "0x608060405234801561001057600080fd5b50614ff3806100206000396000f3fe608060405234801561001057600080fd5b506004361061004c5760003560e01c806327c74f7f146100515780635bb4780814610081578063c45a015514610096578063d64efe91146100a9575b600080fd5b61006461005f3660046102ad565b6100bf565b6040516001600160a01b0390911681526020015b60405180910390f35b61009461008f36600461028b565b6101be565b005b600054610064906001600160a01b031681565b6100b1610230565b604051908152602001610078565b600080546001600160a01b031633146100f15760405163a59d7f4d60e01b815233600482015260240160405180910390fd5b604080516001600160a01b0385166020820152016040516020818303038152906040528051906020012060405161012790610262565b8190604051809103906000f5905080158015610147573d6000803e3d6000fd5b506000546040516305e52ecf60e21b81526001600160a01b039182166004820152858216602482015260448101859052919250821690631794bb3c90606401600060405180830381600087803b1580156101a057600080fd5b505af11580156101b4573d6000803e3d6000fd5b5050505092915050565b6000546001600160a01b0316156101e8576040516373e833b960e11b815260040160405180910390fd5b600080546001600160a01b0319166001600160a01b038316908117825560405190917f1c893ef9379093af30f458b9e74d2aba13c499660b68dec5e29af7b199c188b991a250565b60006040518060200161024290610262565b6020820181038252601f19601f8201166040525080519060200120905090565b614ce6806102d883390190565b80356001600160a01b038116811461028657600080fd5b919050565b60006020828403121561029d57600080fd5b6102a68261026f565b9392505050565b600080604083850312156102c057600080fd5b6102c98361026f565b94602093909301359350505056fe6080604052600160005534801561001557600080fd5b50614cc1806100256000396000f3fe608060405234801561001057600080fd5b506004361061021c5760003560e01c806394d008ef11610125578063d3b5dc3b116100ad578063dd3b829a1161007c578063dd3b829a146104a4578063fa5a2e62146104ad578063fb2b74b2146104b6578063fba0c814146104c9578063ffc9dcbb146104dc57600080fd5b8063d3b5dc3b1461042a578063d4fd690514610433578063d8f2cab714610488578063dc6638f41461049b57600080fd5b8063ada3112f116100f4578063ada3112f146103ea578063ba343922146103f3578063c392f766146103fb578063c45a015514610404578063c6f61b011461041757600080fd5b806394d008ef146103a85780639da771f4146103bb578063a1c59afc146103c4578063a4fbc0d7146103d757600080fd5b806340650eef116101a8578063685b61d011610177578063685b61d0146103515780636b8357ac1461035a578063743753591461036d5780638b6e00fa146103755780638cd474151461039557600080fd5b806340650eef146103055780635330e3531461031857806359129e751461032b578063653741ff1461033e57600080fd5b806319972a50116101ef57806319972a50146102985780631d086720146102ab578063217a4b70146102be57806327014e33146102e957806332196a01146102f257600080fd5b80630121c777146102215780630adcf0f51461023d578063122f7e8b146102705780631794bb3c14610283575b600080fd5b61022a600b5481565b6040519081526020015b60405180910390f35b61026061024b366004613ee1565b600f6020526000908152604090205460ff1681565b6040519015158152602001610234565b61022a61027e3660046141f5565b6104fc565b610296610291366004613f1b565b61094d565b005b6102966102a6366004614298565b610b48565b6102966102b9366004614477565b610ec6565b6004546102d1906001600160a01b031681565b6040516001600160a01b039091168152602001610234565b61022a600d5481565b610296610300366004613fe3565b610f2f565b610296610313366004614477565b6110b9565b6102966103263660046143a2565b61111b565b6102966103393660046140e1565b6113b6565b61022a61034c3660046144b5565b611640565b61022a600a5481565b610296610368366004613f5c565b611779565b61022a6118cd565b61022a610383366004613ee1565b60116020526000908152604090205481565b6002546102d1906001600160a01b031681565b6102966103b6366004613f88565b6118dc565b61022a60095481565b61022a6103d2366004613ee1565b611b9c565b6003546102d1906001600160a01b031681565b61022a600c5481565b610296611c36565b61022a60065481565b6001546102d1906001600160a01b031681565b61022a6104253660046143a2565b611c6a565b61022a60055481565b610468610441366004613ee1565b60126020526000908152604090208054600182015460028301546003909301549192909184565b604080519485526020850193909352918301526060820152608001610234565b610296610496366004614111565b611f41565b61022a60075481565b61022a600e5481565b61022a60085481565b6102966104c43660046143be565b6124bc565b6102966104d73660046141b9565b6128b3565b61022a6104ea366004613ee1565b60106020526000908152604090205481565b60008054600114610520576040516303cb96db60e21b815260040160405180910390fd5b60008080556020808401516001600160a01b03168252600f9052604090205460ff1661057457602082015160405162bb3a2960e81b81526001600160a01b0390911660048201526024015b60405180910390fd5b6007548260a001516008546105899190614a42565b11156105a85760405163554028e760e11b815260040160405180910390fd5b6004546001600160a01b039081166040840181905260208401519091168114156105e557604051630e52390960e41b815260040160405180910390fd5b6105ee83612ff8565b61060b5760405163f8b3bb6160e01b815260040160405180910390fd5b600254604051632fa7cffb60e21b81526001600160a01b0390911690600090829063be9f3fec9061064090889060040161465f565b6103406040518083038186803b15801561065957600080fd5b505afa15801561066d573d6000803e3d6000fd5b505050506040513d601f19601f8201168201806040525081019061069191906142b4565b60208101519091506001600160a01b03166106bf57604051630e52390960e41b815260040160405180910390fd5b60008161012001518260800151602001516106da9190614bc8565b905060006106e6613327565b9050808211156107095760405163bb2875c360e01b815260040160405180910390fd5b60405163f76e91fd60e01b81526001600160a01b0385169063f76e91fd90610735908690600401614708565b602060405180830381600087803b15801561074f57600080fd5b505af1158015610763573d6000803e3d6000fd5b505050506040513d601f19601f8201168201806040525081019061078791906140c8565b95508660a00151600a600082825461079f9190614a42565b9091555050610140830151600d80546000906107bc908490614a42565b909155505060808701516020808901516001600160a01b0316600090815260109091526040812080549091906107f3908490614a42565b909155505060c087015160608801516001600160a01b031660009081526011602052604081208054909190610829908490614a42565b909155505060808301516020015160088054600090610849908490614a42565b909155505061014083015161012084015161086c9161086791614bc8565b613360565b61087b858860000151846133da565b8587600001516001600160a01b0316336001600160a01b03167f6fa15176f59ef643f98e48bb7bbcdc1f7ed128c889a18626d6c28f6e7e2dece48a602001518b604001518c606001518d608001518e60a001518f60c001518c61012001518d61014001516040516109359897969594939291906001600160a01b03988916815296881660208801529490961660408601526060850192909252608084015260a083015260c082019290925260e08101919091526101000190565b60405180910390a45050600160005550919392505050565b6001546001600160a01b031615610977576040516373e833b960e11b815260040160405180910390fd5b600180546001600160a01b0319166001600160a01b03851690811790915560408051638cd4741560e01b81529051638cd4741591600480820192602092909190829003018186803b1580156109cb57600080fd5b505afa1580156109df573d6000803e3d6000fd5b505050506040513d601f19601f82011682018060405250810190610a039190613efe565b600260006101000a8154816001600160a01b0302191690836001600160a01b03160217905550826001600160a01b031663a4fbc0d76040518163ffffffff1660e01b815260040160206040518083038186803b158015610a6257600080fd5b505afa158015610a76573d6000803e3d6000fd5b505050506040513d601f19601f82011682018060405250810190610a9a9190613efe565b600380546001600160a01b039283166001600160a01b0319918216179091556004805492851692909116821781556040805163313ce56760e01b8152905163313ce56792828101926020929190829003018186803b158015610afb57600080fd5b505afa158015610b0f573d6000803e3d6000fd5b505050506040513d601f19601f82011682018060405250810190610b33919061451c565b610b3e90600a614abf565b6005556006555050565b600054600114610b6b576040516303cb96db60e21b815260040160405180910390fd5b60008055600154604051639a30739160e01b81523360048201526001600160a01b0390911690639a3073919060240160206040518083038186803b158015610bb257600080fd5b505afa158015610bc6573d6000803e3d6000fd5b505050506040513d601f19601f82011682018060405250810190610bea91906140ab565b610c095760405163a59d7f4d60e01b815233600482015260240161056b565b60025460405163957d1fe160e01b8152823560048201526001600160a01b0390911690600090829063957d1fe1906024016103406040518083038186803b158015610c5357600080fd5b505afa158015610c67573d6000803e3d6000fd5b505050506040513d601f19601f82011682018060405250810190610c8b91906142b4565b90506000610c9761350b565b9050816080015160200151811015610cc25760405163f8b3bb6160e01b815260040160405180910390fd5b6001600160a01b038316639a1023418535610ce36040880160208901613ee1565b6040516001600160e01b031960e085901b16815260048101929092526001600160a01b03166024820152604401600060405180830381600087803b158015610d2a57600080fd5b505af1158015610d3e573d6000803e3d6000fd5b50505050816080015160200151600a6000828254610d5c9190614bc8565b9091555050608082015160200151600b8054600090610d7c908490614a42565b9091555050606082015160208082015191516001600160a01b031660009081526010909152604081208054909190610db5908490614bc8565b909155505060a082015160208082015191516001600160a01b031660009081526011909152604081208054909190610dee908490614bc8565b909155505060808201516020015160088054600090610e0e908490614bc8565b909155505060608201518051602080850151920151610e2d92906133da565b60a08201518051602080850151920151610e4792906133da565b8151337f415e462bce09ff3142dc51f9a6878d89bb34d75a21bc8ffc7fc397eccce872e9610e7b6040880160208901613ee1565b610e8b6060890160408a01613ee1565b604080516001600160a01b0393841681529290911660208301526060808a0135918301919091520160405180910390a3505060016000555050565b6001546001600160a01b03163314610ef35760405163a59d7f4d60e01b815233600482015260240161056b565b60068190556040518181527f81ed86e8cfa3004fc54732477c3eda4f4c606394a0b423aba78153a3e696f65d906020015b60405180910390a150565b6001546001600160a01b03163314610f5c5760405163a59d7f4d60e01b815233600482015260240161056b565b600454815183516001600160a01b039092169114610f9a578251825160405163574092f960e01b81526004810192909252602482015260440161056b565b60005b83518110156110b357828181518110610fb857610fb8614c3c565b6020026020010151600f6000868481518110610fd657610fd6614c3c565b60200260200101516001600160a01b03166001600160a01b0316815260200190815260200160002060006101000a81548160ff0219169083151502179055507fec4f975deac1f5c1d92fd5f7a2b08d2c4e3e60215ab50703da45f8f8e9f2fc9b84828151811061104857611048614c3c565b60200260200101518385848151811061106357611063614c3c565b6020026020010151604051611099939291906001600160a01b039384168152919092166020820152901515604082015260600190565b60405180910390a1806110ab81614c0b565b915050610f9d565b50505050565b6001546001600160a01b031633146110e65760405163a59d7f4d60e01b815233600482015260240161056b565b60078190556040518181527f9290d3ed14fa81f8d341842ac22f26e4bb4449e0d0a8566656d54dafae29198e90602001610f24565b60005460011461113e576040516303cb96db60e21b815260040160405180910390fd5b60008055600154604051639a30739160e01b81523360048201526001600160a01b0390911690639a3073919060240160206040518083038186803b15801561118557600080fd5b505afa158015611199573d6000803e3d6000fd5b505050506040513d601f19601f820116820180604052508101906111bd91906140ab565b6111dc5760405163a59d7f4d60e01b815233600482015260240161056b565b600254815160405163957d1fe160e01b81526001600160a01b0390921691600091839163957d1fe1916112159160040190815260200190565b6103406040518083038186803b15801561122e57600080fd5b505afa158015611242573d6000803e3d6000fd5b505050506040513d601f19601f8201168201806040525081019061126691906142b4565b9050600080836001600160a01b0316635330e353866040518263ffffffff1660e01b81526004016112979190614893565b6040805180830381600087803b1580156112b057600080fd5b505af11580156112c4573d6000803e3d6000fd5b505050506040513d601f19601f820116820180604052508101906112e891906144f8565b90925090506112fa6108678284614bc8565b80600d600082825461130c9190614a42565b9091555050845160608481015151608080870151516020808b01516040808d0151878e0151868f015183516001600160a01b03998a168152968916958701959095529185019290925295830189905292820187905291831660a08201529190921660c082015260e081019190915233907f02bde35fb6c4387120ff67d8e52f04c37f08b2a8235cd8a731848afda59f622e906101000160405180910390a350506001600055505050565b6000546001146113d9576040516303cb96db60e21b815260040160405180910390fd5b60008055600154604051639a30739160e01b81523360048201526001600160a01b0390911690639a3073919060240160206040518083038186803b15801561142057600080fd5b505afa158015611434573d6000803e3d6000fd5b505050506040513d601f19601f8201168201806040525081019061145891906140ab565b6114775760405163a59d7f4d60e01b815233600482015260240161056b565b600254604051631601180b60e31b8152600481018490526001600160a01b0390911690819063b008c05890602401600060405180830381600087803b1580156114bf57600080fd5b505af11580156114d3573d6000803e3d6000fd5b505060405163957d1fe160e01b815260048101869052600092506001600160a01b038416915063957d1fe1906024016103406040518083038186803b15801561151b57600080fd5b505afa15801561152f573d6000803e3d6000fd5b505050506040513d601f19601f8201168201806040525081019061155391906142b4565b9050611570816060015160000151848360600151602001516133da565b61158b8160a0015160000151848360a00151602001516133da565b606081015160208082015191516001600160a01b0316600090815260109091526040812080549091906115bf908490614bc8565b909155505060a081015160208082015191516001600160a01b0316600090815260119091526040812080549091906115f8908490614bc8565b90915550506040516001600160a01b03841690859033907f1cc79853bbf119208b3fab3b7d33fcdb6ceaee7c8b16b89bdb389ed3b51ad17c90600090a4505060016000555050565b60008054600114611664576040516303cb96db60e21b815260040160405180910390fd5b6000808055338152601260205260409020805460038201546116869088614a42565b11156116a55760405163bb2875c360e01b815260040160405180910390fd5b858160030160008282546116b99190614a42565b9250508190555085600b60008282546116d29190614a42565b90915550506003546004805460405163130e06fd60e31b81526001600160a01b0393841693849363987037e893611717933393909116918d918d918d918d91016145ef565b602060405180830381600087803b15801561173157600080fd5b505af1158015611745573d6000803e3d6000fd5b505050506040513d601f19601f8201168201806040525081019061176991906140c8565b6001600055979650505050505050565b60005460011461179c576040516303cb96db60e21b815260040160405180910390fd5b6000805580156118c457336000908152601260205260409020600e54600554825415611802576001830154835482906117d59085614b6a565b6117df9190614a5a565b6117e99190614bc8565b8360020160008282546117fc9190614a42565b90915550505b825481906118109084614b6a565b61181a9190614a5a565b600184015560028301548411806118325750600c5484115b156118505760405163bb2875c360e01b815260040160405180910390fd5b838360020160008282546118649190614bc8565b9091555050600454611880906001600160a01b031686866133da565b6040518481526001600160a01b0386169033907f1314fd112a381beea61539dbd21ec04afcff2662ac7d1b83273aade1f53d1b979060200160405180910390a35050505b50506001600055565b60006118d7613327565b905090565b6000546001146118ff576040516303cb96db60e21b815260040160405180910390fd5b60008080556004546001600160a01b03868116835260126020526040909220600e54600554825494909316939192909115611974576001830154835482906119479085614b6a565b6119519190614a5a565b61195b9190614bc8565b83600201600082825461196e9190614a42565b90915550505b868360000160008282546119889190614a42565b90915550508254819061199b9084614b6a565b6119a59190614a5a565b836001018190555086600960008282546119bf9190614a42565b909155506119cd90506135d6565b6040516370a0823160e01b81523060048201526000906001600160a01b038616906370a082319060240160206040518083038186803b158015611a0f57600080fd5b505afa158015611a23573d6000803e3d6000fd5b505050506040513d601f19601f82011682018060405250810190611a4791906140c8565b6040516303a3bcd760e01b815290915033906303a3bcd790611a739088908c908c908c90600401614637565b600060405180830381600087803b158015611a8d57600080fd5b505af1158015611aa1573d6000803e3d6000fd5b50506040516370a0823160e01b8152306004820152600092506001600160a01b03881691506370a082319060240160206040518083038186803b158015611ae757600080fd5b505afa158015611afb573d6000803e3d6000fd5b505050506040513d601f19601f82011682018060405250810190611b1f91906140c8565b9050611b2b8983614a42565b811015611b4b5760405163f8b3bb6160e01b815260040160405180910390fd5b6040518981526001600160a01b038b169033907fab8530f87dc9b59234c4623bf917212bb2536d647574c8e7e5da92c2ede0c9f89060200160405180910390a3505060016000555050505050505050565b6001600160a01b03811660009081526012602090815260408083208151608081018352815480825260018301549482018590526002830154938201939093526003909101546060820152600554600e549193929091611bfb9190614b6a565b611c059190614a5a565b8260400151611c149190614a42565b611c1e9190614bc8565b9150600c54821115611c3057600c5491505b50919050565b6003546001600160a01b03163314611c635760405163a59d7f4d60e01b815233600482015260240161056b565b6000600b55565b60008054600114611c8e576040516303cb96db60e21b815260040160405180910390fd5b60008055600154604051639a30739160e01b81523360048201526001600160a01b0390911690639a3073919060240160206040518083038186803b158015611cd557600080fd5b505afa158015611ce9573d6000803e3d6000fd5b505050506040513d601f19601f82011682018060405250810190611d0d91906140ab565b611d2c5760405163a59d7f4d60e01b815233600482015260240161056b565b600254825160405163957d1fe160e01b81526001600160a01b0390921691600091839163957d1fe191611d659160040190815260200190565b6103406040518083038186803b158015611d7e57600080fd5b505afa158015611d92573d6000803e3d6000fd5b505050506040513d601f19601f82011682018060405250810190611db691906142b4565b90506000611dcb8260a001516000015161368e565b90508460200151811015611df25760405163f8b3bb6160e01b815260040160405180910390fd5b60405163c6f61b0160e01b81526001600160a01b0384169063c6f61b0190611e1e908890600401614893565b602060405180830381600087803b158015611e3857600080fd5b505af1158015611e4c573d6000803e3d6000fd5b505050506040513d601f19601f82011682018060405250810190611e7091906140c8565b93508460200151601160008460a00151600001516001600160a01b03166001600160a01b031681526020019081526020016000206000828254611eb39190614a42565b909155505084516020860151604080880151606089015160808a0151925133947f55c8ac91237f6fa939a79c1699293ce14171d61728c7cc56a131f51758fa598f94611f2c9491938c9390919094855260208501939093526001600160a01b039182166040850152166060830152608082015260a00190565b60405180910390a35050600160005550919050565b600054600114611f64576040516303cb96db60e21b815260040160405180910390fd5b60008055600154604051639a30739160e01b81523360048201526001600160a01b0390911690639a3073919060240160206040518083038186803b158015611fab57600080fd5b505afa158015611fbf573d6000803e3d6000fd5b505050506040513d601f19601f82011682018060405250810190611fe391906140ab565b6120025760405163a59d7f4d60e01b815233600482015260240161056b565b60025460405163957d1fe160e01b8152600481018690526001600160a01b0390911690600090829063957d1fe1906024016103406040518083038186803b15801561204c57600080fd5b505afa158015612060573d6000803e3d6000fd5b505050506040513d601f19601f8201168201806040525081019061208491906142b4565b60808101515160a0820151519192506001600160a01b03918216911614156120ed5760006120b061350b565b9050836120bd8688614a42565b6120c79190614a42565b8110156120e75760405163f8b3bb6160e01b815260040160405180910390fd5b5061220c565b60006120f761350b565b90506121038487614a42565b8110156121235760405163f8b3bb6160e01b815260040160405180910390fd5b60a082018051516001600160a01b039081166000908152601160209081526040808320548551518516845260109092528083205494515190516370a0823160e01b815230600482015291949316906370a082319060240160206040518083038186803b15801561219257600080fd5b505afa1580156121a6573d6000803e3d6000fd5b505050506040513d601f19601f820116820180604052508101906121ca91906140c8565b90506000826121d98584614bc8565b6121e39190614bc8565b9050888110156122065760405163f8b3bb6160e01b815260040160405180910390fd5b50505050505b60405163f71139f760e01b8152600481018790526001600160a01b0383169063f71139f790602401600060405180830381600087803b15801561224e57600080fd5b505af1158015612262573d6000803e3d6000fd5b505050506000808483608001516020015161227d9190614a42565b905080871015612294576122918782614bc8565b91505b8251604051638b029d6160e01b815260048101919091526024810188905260448101839052606481018790526001600160a01b03851690638b029d6190608401600060405180830381600087803b1580156122ee57600080fd5b505af1158015612302573d6000803e3d6000fd5b50505050826080015160200151600a60008282546123209190614bc8565b9091555050608083015160200151600b8054600090612340908490614a42565b909155505060808301516020015160088054600090612360908490614bc8565b909155505084156123ff576001546040805163bd2bae9d60e01b815290516000926001600160a01b03169163bd2bae9d916004808301926020929190829003018186803b1580156123b057600080fd5b505afa1580156123c4573d6000803e3d6000fd5b505050506040513d601f19601f820116820180604052508101906123e89190613efe565b90506123fd84608001516000015182886133da565b505b816124315760006124108289614bc8565b9050801561242f5761242f8460800151600001518560200151836133da565b505b851561244e5761244e8360a00151600001518460200151886133da565b60208381015160608086015151604080516001600160a01b039283168152339581018690529081018a90528c94919093169290917fad34241f9e3b3d38652a7493d4e07da1f3e88afa819a546544b20de727f2ffd8910160405180910390a450506001600055505050505050565b6000546001146124df576040516303cb96db60e21b815260040160405180910390fd5b600080556003546001600160a01b03163381146125115760405163a59d7f4d60e01b815233600482015260240161056b565b6020808301516001600160a01b031660009081526012909152604090206003810154606084015111156125575760405163bb2875c360e01b815260040160405180910390fd5b600b548360600151111561256f576000600b5561258b565b8260600151600b60008282546125859190614bc8565b90915550505b600e546005548254156125d8576001830154835482906125ab9085614b6a565b6125b59190614a5a565b6125bf9190614bc8565b8360020160008282546125d29190614a42565b90915550505b84606001518360000160008282546125f09190614bc8565b9091555050606085015160038401805460009061260e908490614bc8565b9091555050825481906126219084614b6a565b61262b9190614a5a565b6001840155606085015160098054600090612647908490614bc8565b9091555061265590506135d6565b60a0850151511561284c57600085606001518660a0015160405160240161267d9291906148d9565b60408051601f19818403018152918152602080830180516001600160e01b031663462cc8ff60e11b179052880151905191925060009182916001600160a01b0316906126ca908590614594565b6000604051808303816000865af19150503d8060008114612707576040519150601f19603f3d011682016040523d82523d6000602084013e61270c565b606091505b509150915081612848576044815110156127ca578751604051634d4a6fbb60e01b81526001600160a01b03891691634d4a6fbb9161279391906004019081526040602082018190526024908201527f43616c6c6261636b207472616e73616374696f6e206661696c65642073696c656060820152636e746c7960e01b608082015260a00190565b600060405180830381600087803b1580156127ad57600080fd5b505af11580156127c1573d6000803e3d6000fd5b50505050612848565b600481019050866001600160a01b0316634d4a6fbb8960000151838060200190518101906127f89190614143565b6040518363ffffffff1660e01b81526004016128159291906148d9565b600060405180830381600087803b15801561282f57600080fd5b505af1158015612843573d6000803e3d6000fd5b505050505b5050505b6004546080860151606087015161286d926001600160a01b031691906133da565b606085015160405190815233907fcc16f5dbb4873280815c1ee09dbd06736cffcc184412cf7a71a0fdb75d397ca59060200160405180910390a250506001600055505050565b6000546001146128d6576040516303cb96db60e21b815260040160405180910390fd5b60008055600154604051639a30739160e01b81523360048201526001600160a01b0390911690639a3073919060240160206040518083038186803b15801561291d57600080fd5b505afa158015612931573d6000803e3d6000fd5b505050506040513d601f19601f8201168201806040525081019061295591906140ab565b6129745760405163a59d7f4d60e01b815233600482015260240161056b565b6001546002546001600160a01b03918216911660008163ac00b67485356129a16080880160608901613ee1565b6040516001600160e01b031960e085901b16815260048101929092526001600160a01b03166024820152604401602060405180830381600087803b1580156129e857600080fd5b505af11580156129fc573d6000803e3d6000fd5b505050506040513d601f19601f82011682018060405250810190612a2091906140ab565b60405163957d1fe160e01b8152853560048201529091506000906001600160a01b0384169063957d1fe1906024016103406040518083038186803b158015612a6757600080fd5b505afa158015612a7b573d6000803e3d6000fd5b505050506040513d601f19601f82011682018060405250810190612a9f91906142b4565b90506000612ab982612ab460208901896148f2565b613773565b6080830151602001519091506000908415612b6a576000876001600160a01b0316635fb3b1b56040518163ffffffff1660e01b815260040160206040518083038186803b158015612b0957600080fd5b505afa158015612b1d573d6000803e3d6000fd5b505050506040513d601f19601f82011682018060405250810190612b4191906140c8565b9050612710612b508284614b6a565b612b5a9190614a5a565b9250612b668383614a42565b9150505b600080600083861015612d1f57612b818685614bc8565b60808801515160a0890151519194508492506001600160a01b03918216911614612d1f5760008a6001600160a01b0316637c21d5e06040518163ffffffff1660e01b815260040160206040518083038186803b158015612be057600080fd5b505afa158015612bf4573d6000803e3d6000fd5b505050506040513d601f19601f82011682018060405250810190612c189190613efe565b60a08901515160808a01515160405163ec27830960e01b8152600060048201526001600160a01b03928316602482015290821660448201526064810187905291925082169063ec27830990608401604080518083038186803b158015612c7d57600080fd5b505afa158015612c91573d6000803e3d6000fd5b505050506040513d601f19601f82011682018060405250810190612cb59190614490565b5060a089015160200151909250821115612cf65760a088015160200151604051632c1f8ef160e21b815260048101919091526024810183905260440161056b565b612d118883868f8060400190612d0c91906148f2565b61392f565b612d1b9084614a42565b9250505b808760a0015160200151612d339190614bc8565b612d3d9083614a42565b8751604051638b029d6160e01b815260048101919091526024810188905260448101859052606481018290529092506001600160a01b038a169150638b029d6190608401600060405180830381600087803b158015612d9b57600080fd5b505af1158015612daf573d6000803e3d6000fd5b50505050856080015160200151600a6000828254612dcd9190614bc8565b9091555050608086015160200151600b8054600090612ded908490614a42565b9091555050606086015160208082015191516001600160a01b031660009081526010909152604081208054909190612e26908490614bc8565b909155505060a086015160208082015191516001600160a01b031660009081526011909152604081208054909190612e5f908490614bc8565b909155505060808601516020015160088054600090612e7f908490614bc8565b90915550508315612f14576000896001600160a01b031663bd2bae9d6040518163ffffffff1660e01b815260040160206040518083038186803b158015612ec557600080fd5b505afa158015612ed9573d6000803e3d6000fd5b505050506040513d601f19601f82011682018060405250810190612efd9190613efe565b9050612f1287608001516000015182876133da565b505b81612f46576000612f258487614bc8565b90508015612f4457612f448760800151600001518860200151836133da565b505b8015612f6357612f638660a00151600001518760200151836133da565b856000015186602001516001600160a01b0316336001600160a01b03167fad34241f9e3b3d38652a7493d4e07da1f3e88afa819a546544b20de727f2ffd88960600151600001518e6060016020810190612fbd9190613ee1565b604080516001600160a01b039384168152929091166020830152810189905260600160405180910390a4505060016000555050505050505050565b600081602001516001600160a01b031682606001516001600160a01b0316146132335760608201516040516370a0823160e01b81523060048201526000916001600160a01b0316906370a082319060240160206040518083038186803b15801561306157600080fd5b505afa158015613075573d6000803e3d6000fd5b505050506040513d601f19601f8201168201806040525081019061309991906140c8565b6060840180516001600160a01b03908116600090815260106020908152604080832054945190931682526011905220549192506130d591614a42565b6130df9082614bc8565b905082604001516001600160a01b031683606001516001600160a01b0316141561313a57600d54600c54600a546009546131199190614bc8565b6131239190614bc8565b61312d9190614bc8565b6131379082614bc8565b90505b8260c0015181101561314f5750600092915050565b60208301516040516370a0823160e01b81523060048201526000916001600160a01b0316906370a082319060240160206040518083038186803b15801561319557600080fd5b505afa1580156131a9573d6000803e3d6000fd5b505050506040513d601f19601f820116820180604052508101906131cd91906140c8565b602080860180516001600160a01b039081166000908152601084526040808220549351909216815260119093529091205491925061320a91614a42565b6132149082614bc8565b9050836080015181101561322c575060009392505050565b505061331f565b60608201516040516370a0823160e01b81523060048201526000916001600160a01b0316906370a082319060240160206040518083038186803b15801561327957600080fd5b505afa15801561328d573d6000803e3d6000fd5b505050506040513d601f19601f820116820180604052508101906132b191906140c8565b6060840180516001600160a01b03908116600090815260106020908152604080832054945190931682526011905220549192506132ed91614a42565b6132f79082614bc8565b905082608001518360c0015161330d9190614a42565b81101561331d5750600092915050565b505b506001919050565b600080600b54600a5460095461333d9190614b89565b6133479190614b89565b905060008112613357578061335a565b60005b91505090565b80600c60008282546133729190614a42565b90915550506009546005546133879083614b6a565b6133919190614a5a565b600e60008282546133a29190614a42565b9091555050600c546040519081527f38e229a7f3f9c329892d08eb37c4e91ccac6d12c798d394990ca4f56028ec26690602001610f24565b604080516001600160a01b038481166024830152604480830185905283518084039091018152606490920183526020820180516001600160e01b031663a9059cbb60e01b17905291516000928392908716916134369190614594565b6000604051808303816000865af19150503d8060008114613473576040519150601f19603f3d011682016040523d82523d6000602084013e613478565b606091505b50915091508180156134a25750805115806134a25750808060200190518101906134a291906140ab565b6135045760405162461bcd60e51b815260206004820152602d60248201527f5472616e7366657248656c7065723a3a736166655472616e736665723a20747260448201526c185b9cd9995c8819985a5b1959609a1b606482015260840161056b565b5050505050565b600480546040516370a0823160e01b815230928101929092526000916001600160a01b0390911690829082906370a082319060240160206040518083038186803b15801561355857600080fd5b505afa15801561356c573d6000803e3d6000fd5b505050506040513d601f19601f8201168201806040525081019061359091906140c8565b9050600a546009546135a29190614bc8565b6001600160a01b0383166000908152601160205260409020546135c59083614bc8565b6135cf9190614bc8565b9250505090565b600d54801561368b576001546040805163779b492960e11b815290516000926001600160a01b03169163ef369252916004808301926020929190829003018186803b15801561362457600080fd5b505afa158015613638573d6000803e3d6000fd5b505050506040513d601f19601f8201168201806040525081019061365c9190613efe565b90506001600160a01b03811615613689576000600d55600454613689906001600160a01b031682846133da565b505b50565b6004546000906001600160a01b03838116911614156136b5576136af61350b565b92915050565b6040516370a0823160e01b81523060048201526000906001600160a01b038416906370a082319060240160206040518083038186803b1580156136f757600080fd5b505afa15801561370b573d6000803e3d6000fd5b505050506040513d601f19601f8201168201806040525081019061372f91906140c8565b6001600160a01b038416600090815260106020908152604080832054601190925290912054919250906137629083614bc8565b61376c9190614bc8565b9392505050565b6080830151516040516370a0823160e01b815230600482015260009182916001600160a01b03909116906370a082319060240160206040518083038186803b1580156137be57600080fd5b505afa1580156137d2573d6000803e3d6000fd5b505050506040513d601f19601f820116820180604052508101906137f691906140c8565b9050613813856060015160000151338760600151602001516133da565b6060850151516080860151516040516339d87e7760e21b8152339263e761f9dc92613847926000908a908a906004016145b0565b600060405180830381600087803b15801561386157600080fd5b505af1158015613875573d6000803e3d6000fd5b505050506080850151516040516370a0823160e01b81523060048201526000916001600160a01b0316906370a082319060240160206040518083038186803b1580156138c057600080fd5b505afa1580156138d4573d6000803e3d6000fd5b505050506040513d601f19601f820116820180604052508101906138f891906140c8565b90508181101561391b5760405163f8b3bb6160e01b815260040160405180910390fd5b6139258282614bc8565b9695505050505050565b60a0850151516040516370a0823160e01b815230600482015260009182916001600160a01b03909116906370a082319060240160206040518083038186803b15801561397a57600080fd5b505afa15801561398e573d6000803e3d6000fd5b505050506040513d601f19601f820116820180604052508101906139b291906140c8565b6080880151516040516370a0823160e01b81523060048201529192506000916001600160a01b03909116906370a082319060240160206040518083038186803b1580156139fe57600080fd5b505afa158015613a12573d6000803e3d6000fd5b505050506040513d601f19601f82011682018060405250810190613a3691906140c8565b9050613a4b8860a001516000015133896133da565b60a0880151516080890151516040516339d87e7760e21b8152339263e761f9dc92613a7e928b908b908b906004016145b0565b600060405180830381600087803b158015613a9857600080fd5b505af1158015613aac573d6000803e3d6000fd5b5050505060a0880151516040516370a0823160e01b81523060048201526000916001600160a01b0316906370a082319060240160206040518083038186803b158015613af757600080fd5b505afa158015613b0b573d6000803e3d6000fd5b505050506040513d601f19601f82011682018060405250810190613b2f91906140c8565b60808a0151516040516370a0823160e01b81523060048201529192506000916001600160a01b03909116906370a082319060240160206040518083038186803b158015613b7b57600080fd5b505afa158015613b8f573d6000803e3d6000fd5b505050506040513d601f19601f82011682018060405250810190613bb391906140c8565b9050613bbf8884614a42565b811015613bdf5760405163f8b3bb6160e01b815260040160405180910390fd5b613be98985614bc8565b613bf39083614bc8565b9a9950505050505050505050565b8035613c0c81614c68565b919050565b8051613c0c81614c68565b600082601f830112613c2d57600080fd5b81356020613c42613c3d836149f8565b6149c8565b80838252828201915082860187848660051b8901011115613c6257600080fd5b60005b85811015613c8a578135613c7881614c7d565b84529284019290840190600101613c65565b5090979650505050505050565b60008083601f840112613ca957600080fd5b5081356001600160401b03811115613cc057600080fd5b602083019150836020828501011115613cd857600080fd5b9250929050565b600082601f830112613cf057600080fd5b8135613cfe613c3d82614a1b565b818152846020838601011115613d1357600080fd5b816020850160208301376000918101602001919091529392505050565b600060a08284031215613d4257600080fd5b613d4a614938565b90508151613d5781614c68565b808252506020820151602082015260408201516040820152606082015160608201526080820151608082015292915050565b600060808284031215611c3057600080fd5b600060408284031215613dad57600080fd5b604051604081018181106001600160401b0382111715613dcf57613dcf614c52565b80604052508091508251613de281614c68565b8152602092830151920191909152919050565b600060808284031215613e0757600080fd5b604051608081018181106001600160401b0382111715613e2957613e29614c52565b80604052508091508251613e3c81614c7d565b81526020830151613e4c81614c7d565b60208201526040830151613e5f81614c7d565b60408201526060830151613e7281614c7d565b6060919091015292915050565b600060a08284031215613e9157600080fd5b613e99614938565b905081358152602082013560208201526040820135613eb781614c68565b60408201526060820135613eca81614c68565b806060830152506080820135608082015292915050565b600060208284031215613ef357600080fd5b813561376c81614c68565b600060208284031215613f1057600080fd5b815161376c81614c68565b600080600060608486031215613f3057600080fd5b8335613f3b81614c68565b92506020840135613f4b81614c68565b929592945050506040919091013590565b60008060408385031215613f6f57600080fd5b8235613f7a81614c68565b946020939093013593505050565b60008060008060608587031215613f9e57600080fd5b8435613fa981614c68565b93506020850135925060408501356001600160401b03811115613fcb57600080fd5b613fd787828801613c97565b95989497509550505050565b60008060408385031215613ff657600080fd5b82356001600160401b038082111561400d57600080fd5b818501915085601f83011261402157600080fd5b81356020614031613c3d836149f8565b8083825282820191508286018a848660051b890101111561405157600080fd5b600096505b8487101561407d57803561406981614c68565b835260019690960195918301918301614056565b509650508601359250508082111561409457600080fd5b506140a185828601613c1c565b9150509250929050565b6000602082840312156140bd57600080fd5b815161376c81614c7d565b6000602082840312156140da57600080fd5b5051919050565b600080604083850312156140f457600080fd5b82359150602083013561410681614c68565b809150509250929050565b6000806000806080858703121561412757600080fd5b5050823594602084013594506040840135936060013592509050565b60006020828403121561415557600080fd5b81516001600160401b0381111561416b57600080fd5b8201601f8101841361417c57600080fd5b805161418a613c3d82614a1b565b81815285602083850101111561419f57600080fd5b6141b0826020830160208601614bdf565b95945050505050565b6000602082840312156141cb57600080fd5b81356001600160401b038111156141e157600080fd5b6141ed84828501613d89565b949350505050565b6000610140828403121561420857600080fd5b614210614960565b61421983613c01565b815261422760208401613c01565b602082015261423860408401613c01565b604082015261424960608401613c01565b60608201526080830135608082015260a083013560a082015260c083013560c082015260e083013560e08201526101008084013581830152506101208084013581830152508091505092915050565b6000608082840312156142aa57600080fd5b61376c8383613d89565b600061034082840312156142c757600080fd5b6142cf614983565b825181526142df60208401613c11565b60208201526142f060408401613c11565b60408201526143028460608501613d30565b606082015261010061431685828601613d9b565b608083015261014061432a86828701613d30565b60a08401526101e085015160c084015261020085015160e084015261022085015182840152610240850151610120840152610260850151818401525050614375846102808501613df5565b6101608201526143886103008401613c11565b61018082015261032092909201516101a083015250919050565b600060a082840312156143b457600080fd5b61376c8383613e7f565b6000602082840312156143d057600080fd5b81356001600160401b03808211156143e757600080fd5b9083019060c082860312156143fb57600080fd5b6144036149a6565b82358152602083013561441581614c68565b6020820152604083013561442881614c68565b604082015260608381013590820152608083013561444581614c68565b608082015260a08301358281111561445c57600080fd5b61446887828601613cdf565b60a08301525095945050505050565b60006020828403121561448957600080fd5b5035919050565b600080604083850312156144a357600080fd5b82519150602083015161410681614c68565b600080600080606085870312156144cb57600080fd5b8435935060208501356144dd81614c68565b925060408501356001600160401b03811115613fcb57600080fd5b6000806040838503121561450b57600080fd5b505080516020909101519092909150565b60006020828403121561452e57600080fd5b815160ff8116811461376c57600080fd5b81835281816020850137506000828201602090810191909152601f909101601f19169091010190565b60008151808452614580816020860160208601614bdf565b601f01601f19169290920160200192915050565b600082516145a6818460208701614bdf565b9190910192915050565b6001600160a01b03868116825285166020820152604081018490526080606082018190526000906145e4908301848661453f565b979650505050505050565b6001600160a01b0387811682528681166020830152604082018690528416606082015260a06080820181905260009061462b908301848661453f565b98975050505050505050565b60018060a01b038516815283602082015260606040820152600061392560608301848661453f565b81516001600160a01b031681526101408101602083015161468b60208401826001600160a01b03169052565b5060408301516146a660408401826001600160a01b03169052565b5060608301516146c160608401826001600160a01b03169052565b506080830151608083015260a083015160a083015260c083015160c083015260e083015160e083015261010080840151818401525061012080840151818401525092915050565b8151815260208083015161034083019161472c908401826001600160a01b03169052565b50604083015161474760408401826001600160a01b03169052565b50606083015161478b606084018280516001600160a01b03168252602080820151908301526040808201519083015260608082015190830152608090810151910152565b5060808301516101006147b38185018380516001600160a01b03168252602090810151910152565b60a085015180516001600160a01b0316610140868101919091526020820151610160870152604082015161018087015260608201516101a087015260808201516101c087015290925060c08601516101e086015260e0860151610200860152908501516102208501526101208501516102408501528401516102608401525061016083015180511515610280840152602081015115156102a0840152604081015115156102c0840152606081015115156102e0840152506101808301516001600160a01b038116610300840152506101a083015161032083015292915050565b81518152602080830151908201526040808301516001600160a01b0390811691830191909152606080840151909116908201526080808301519082015260a081016136af565b8281526040602082015260006141ed6040830184614568565b6000808335601e1984360301811261490957600080fd5b8301803591506001600160401b0382111561492357600080fd5b602001915036819003821315613cd857600080fd5b60405160a081016001600160401b038111828210171561495a5761495a614c52565b60405290565b60405161014081016001600160401b038111828210171561495a5761495a614c52565b6040516101c081016001600160401b038111828210171561495a5761495a614c52565b60405160c081016001600160401b038111828210171561495a5761495a614c52565b604051601f8201601f191681016001600160401b03811182821017156149f0576149f0614c52565b604052919050565b60006001600160401b03821115614a1157614a11614c52565b5060051b60200190565b60006001600160401b03821115614a3457614a34614c52565b50601f01601f191660200190565b60008219821115614a5557614a55614c26565b500190565b600082614a7757634e487b7160e01b600052601260045260246000fd5b500490565b600181815b80851115614ab7578160001904821115614a9d57614a9d614c26565b80851615614aaa57918102915b93841c9390800290614a81565b509250929050565b600061376c60ff841683600082614ad8575060016136af565b81614ae5575060006136af565b8160018114614afb5760028114614b0557614b21565b60019150506136af565b60ff841115614b1657614b16614c26565b50506001821b6136af565b5060208310610133831016604e8410600b8410161715614b44575081810a6136af565b614b4e8383614a7c565b8060001904821115614b6257614b62614c26565b029392505050565b6000816000190483118215151615614b8457614b84614c26565b500290565b60008083128015600160ff1b850184121615614ba757614ba7614c26565b6001600160ff1b0384018313811615614bc257614bc2614c26565b50500390565b600082821015614bda57614bda614c26565b500390565b60005b83811015614bfa578181015183820152602001614be2565b838111156110b35750506000910152565b6000600019821415614c1f57614c1f614c26565b5060010190565b634e487b7160e01b600052601160045260246000fd5b634e487b7160e01b600052603260045260246000fd5b634e487b7160e01b600052604160045260246000fd5b6001600160a01b038116811461368b57600080fd5b801515811461368b57600080fdfea26469706673582212201984b48e8d33a7aa98dc88af85906d7dfc1e47e7d17e456d0b8984f631d982a864736f6c63430008070033a2646970667358221220732b152abd1b496bb634a09fbd5eb774e5ba384496c344f8daf985de4f39199b64736f6c63430008070033",
  "linkReferences": {},
  "deployedLinkReferences": {}
}