{
  "_format": "hh-sol-artifact-1",
  "contractName": "SyncswapClassicPriceFeedIntegration",
  "sourceName": "contracts/integrations/SyncswapClassicPriceFeedIntegration.sol",
  "abi": [
    {
      "inputs": [
        {
          "internalType": "address",
          "name": "_factory",
          "type": "address"
        }
      ],
      "stateMutability": "nonpayable",
      "type": "constructor"
    },
    {
      "inputs": [],
      "name": "PRECISION",
      "outputs": [
        {
          "internalType": "uint256",
          "name": "",
          "type": "uint256"
        }
      ],
      "stateMutability": "view",
      "type": "function"
    },
    {
      "inputs": [],
      "name": "factory",
      "outputs": [
        {
          "internalType": "address",
          "name": "",
          "type": "address"
        }
      ],
      "stateMutability": "view",
      "type": "function"
    },
    {
      "inputs": [
        {
          "internalType": "address",
          "name": "_baseToken",
          "type": "address"
        },
        {
          "internalType": "address",
          "name": "_quoteToken",
          "type": "address"
        }
      ],
      "name": "getPrice",
      "outputs": [
        {
          "internalType": "uint256",
          "name": "price",
          "type": "uint256"
        }
      ],
      "stateMutability": "view",
      "type": "function"
    }
  ],
  "bytecode": "0x60a060405234801561001057600080fd5b506040516106eb3803806106eb83398101604081905261002f91610044565b60601b6001600160601b031916608052610074565b60006020828403121561005657600080fd5b81516001600160a01b038116811461006d57600080fd5b9392505050565b60805160601c610653610098600039600081816085015261011901526106536000f3fe608060405234801561001057600080fd5b50600436106100415760003560e01c8063aaf5eb6814610046578063ac41865a1461006d578063c45a015514610080575b600080fd5b61005a6c0c9f2c9cd04674edea4000000081565b6040519081526020015b60405180910390f35b61005a61007b366004610443565b6100bf565b6100a77f000000000000000000000000000000000000000000000000000000000000000081565b6040516001600160a01b039091168152602001610064565b6000816001600160a01b0316836001600160a01b031614156100ef57506c0c9f2c9cd04674edea40000000610419565b60405163298d501f60e11b81526001600160a01b03848116600483015283811660248301526000917f00000000000000000000000000000000000000000000000000000000000000009091169063531aa03e9060440160206040518083038186803b15801561015d57600080fd5b505afa158015610171573d6000803e3d6000fd5b505050506040513d601f19601f82011682018060405250810190610195919061041f565b90506001600160a01b038116156102ee576000816001600160a01b0316630dfe16816040518163ffffffff1660e01b815260040160206040518083038186803b1580156101e157600080fd5b505afa1580156101f5573d6000803e3d6000fd5b505050506040513d601f19601f82011682018060405250810190610219919061041f565b9050600080836001600160a01b0316630902f1ac6040518163ffffffff1660e01b8152600401604080518083038186803b15801561025657600080fd5b505afa15801561026a573d6000803e3d6000fd5b505050506040513d601f19601f8201168201806040525081019061028e919061047c565b91509150600080846001600160a01b0316896001600160a01b0316146102b55782846102b8565b83835b909250905081156102e857816102db6c0c9f2c9cd04674edea40000000836105d0565b6102e591906104c3565b96505b50505050505b6000846001600160a01b031663313ce5676040518163ffffffff1660e01b815260040160206040518083038186803b15801561032957600080fd5b505afa15801561033d573d6000803e3d6000fd5b505050506040513d601f19601f8201168201806040525081019061036191906104a0565b60ff1690506000846001600160a01b031663313ce5676040518163ffffffff1660e01b815260040160206040518083038186803b1580156103a157600080fd5b505afa1580156103b5573d6000803e3d6000fd5b505050506040513d601f19601f820116820180604052508101906103d991906104a0565b60ff16905060006103eb83600a610528565b905060006103fa83600a610528565b90508061040783886105d0565b61041191906104c3565b955050505050505b92915050565b60006020828403121561043157600080fd5b815161043c81610605565b9392505050565b6000806040838503121561045657600080fd5b823561046181610605565b9150602083013561047181610605565b809150509250929050565b6000806040838503121561048f57600080fd5b505080516020909101519092909150565b6000602082840312156104b257600080fd5b815160ff8116811461043c57600080fd5b6000826104e057634e487b7160e01b600052601260045260246000fd5b500490565b600181815b80851115610520578160001904821115610506576105066105ef565b8085161561051357918102915b93841c93908002906104ea565b509250929050565b600061043c838360008261053e57506001610419565b8161054b57506000610419565b8160018114610561576002811461056b57610587565b6001915050610419565b60ff84111561057c5761057c6105ef565b50506001821b610419565b5060208310610133831016604e8410600b84101617156105aa575081810a610419565b6105b483836104e5565b80600019048211156105c8576105c86105ef565b029392505050565b60008160001904831182151516156105ea576105ea6105ef565b500290565b634e487b7160e01b600052601160045260246000fd5b6001600160a01b038116811461061a57600080fd5b5056fea26469706673582212207a26373b61c334b49fe781c1b81b98f86228a3e43fc4c43ee5a84f10e478804764736f6c63430008070033",
  "linkReferences": {},
  "deployedLinkReferences": {}
}