{
  "_format": "hh-sol-artifact-1",
  "contractName": "MutePriceFeedIntegration",
  "sourceName": "contracts/integrations/MutePriceFeedIntegration.sol",
  "abi": [
    {
      "inputs": [
        {
          "internalType": "address",
          "name": "_router",
          "type": "address"
        }
      ],
      "stateMutability": "nonpayable",
      "type": "constructor"
    },
    {
      "inputs": [],
      "name": "PRECISION",
      "outputs": [
        {
          "internalType": "uint256",
          "name": "",
          "type": "uint256"
        }
      ],
      "stateMutability": "view",
      "type": "function"
    },
    {
      "inputs": [
        {
          "internalType": "address",
          "name": "_baseToken",
          "type": "address"
        },
        {
          "internalType": "address",
          "name": "_quoteToken",
          "type": "address"
        }
      ],
      "name": "getPrice",
      "outputs": [
        {
          "internalType": "uint256",
          "name": "price",
          "type": "uint256"
        }
      ],
      "stateMutability": "view",
      "type": "function"
    },
    {
      "inputs": [],
      "name": "router",
      "outputs": [
        {
          "internalType": "address",
          "name": "",
          "type": "address"
        }
      ],
      "stateMutability": "view",
      "type": "function"
    }
  ],
  "bytecode": "0x60a060405234801561001057600080fd5b5060405161060538038061060583398101604081905261002f91610044565b60601b6001600160601b031916608052610074565b60006020828403121561005657600080fd5b81516001600160a01b038116811461006d57600080fd5b9392505050565b60805160601c61056d6100986000396000818160850152610127015261056d6000f3fe608060405234801561001057600080fd5b50600436106100415760003560e01c8063aaf5eb6814610046578063ac41865a1461006d578063f887ea4014610080575b600080fd5b61005a6c0c9f2c9cd04674edea4000000081565b6040519081526020015b60405180910390f35b61005a61007b366004610342565b6100bf565b6100a77f000000000000000000000000000000000000000000000000000000000000000081565b6040516001600160a01b039091168152602001610064565b6000816001600160a01b0316836001600160a01b031614156100ef57506c0c9f2c9cd04674edea40000000610320565b604051635e1e632560e01b8152612710600482018190526001600160a01b0385811660248401528481166044840152909160009182917f000000000000000000000000000000000000000000000000000000000000000090911690635e1e63259060640160606040518083038186803b15801561016b57600080fd5b505afa15801561017f573d6000803e3d6000fd5b505050506040513d601f19601f820116820180604052508101906101a39190610375565b9250509150612710816127106101b991906103dd565b6101c39084610502565b6101cd91906103f5565b9150826101e76c0c9f2c9cd04674edea4000000084610502565b6101f191906103f5565b93506000866001600160a01b031663313ce5676040518163ffffffff1660e01b815260040160206040518083038186803b15801561022e57600080fd5b505afa158015610242573d6000803e3d6000fd5b505050506040513d601f19601f8201168201806040525081019061026691906103b3565b60ff1690506000866001600160a01b031663313ce5676040518163ffffffff1660e01b815260040160206040518083038186803b1580156102a657600080fd5b505afa1580156102ba573d6000803e3d6000fd5b505050506040513d601f19601f820116820180604052508101906102de91906103b3565b60ff16905060006102f083600a61045a565b905060006102ff83600a61045a565b90508061030c838a610502565b61031691906103f5565b9750505050505050505b92915050565b80356001600160a01b038116811461033d57600080fd5b919050565b6000806040838503121561035557600080fd5b61035e83610326565b915061036c60208401610326565b90509250929050565b60008060006060848603121561038a57600080fd5b83519250602084015180151581146103a157600080fd5b80925050604084015190509250925092565b6000602082840312156103c557600080fd5b815160ff811681146103d657600080fd5b9392505050565b600082198211156103f0576103f0610521565b500190565b60008261041257634e487b7160e01b600052601260045260246000fd5b500490565b600181815b8085111561045257816000190482111561043857610438610521565b8085161561044557918102915b93841c939080029061041c565b509250929050565b60006103d6838360008261047057506001610320565b8161047d57506000610320565b8160018114610493576002811461049d576104b9565b6001915050610320565b60ff8411156104ae576104ae610521565b50506001821b610320565b5060208310610133831016604e8410600b84101617156104dc575081810a610320565b6104e68383610417565b80600019048211156104fa576104fa610521565b029392505050565b600081600019048311821515161561051c5761051c610521565b500290565b634e487b7160e01b600052601160045260246000fdfea264697066735822122080c665eb8dc6e9b3279ab28d06212d8c0329ee3be3c11a11227f744bbdbfa73c64736f6c63430008070033",
  "linkReferences": {},
  "deployedLinkReferences": {}
}